{
	"contracts/PYGGportfolioManagement.sol": {
		"PYGGportfolioManagement": {
			"abi": [
				{
					"inputs": [
						{
							"internalType": "string",
							"name": "_name",
							"type": "string"
						},
						{
							"internalType": "string",
							"name": "_symbol",
							"type": "string"
						},
						{
							"internalType": "address",
							"name": "_uniswapV2Router",
							"type": "address"
						},
						{
							"internalType": "address",
							"name": "_uniswapV3Router",
							"type": "address"
						},
						{
							"internalType": "address",
							"name": "_uniswapV3Quoter",
							"type": "address"
						}
					],
					"stateMutability": "nonpayable",
					"type": "constructor"
				},
				{
					"inputs": [
						{
							"internalType": "address",
							"name": "spender",
							"type": "address"
						},
						{
							"internalType": "uint256",
							"name": "allowance",
							"type": "uint256"
						},
						{
							"internalType": "uint256",
							"name": "needed",
							"type": "uint256"
						}
					],
					"name": "ERC20InsufficientAllowance",
					"type": "error"
				},
				{
					"inputs": [
						{
							"internalType": "address",
							"name": "sender",
							"type": "address"
						},
						{
							"internalType": "uint256",
							"name": "balance",
							"type": "uint256"
						},
						{
							"internalType": "uint256",
							"name": "needed",
							"type": "uint256"
						}
					],
					"name": "ERC20InsufficientBalance",
					"type": "error"
				},
				{
					"inputs": [
						{
							"internalType": "address",
							"name": "approver",
							"type": "address"
						}
					],
					"name": "ERC20InvalidApprover",
					"type": "error"
				},
				{
					"inputs": [
						{
							"internalType": "address",
							"name": "receiver",
							"type": "address"
						}
					],
					"name": "ERC20InvalidReceiver",
					"type": "error"
				},
				{
					"inputs": [
						{
							"internalType": "address",
							"name": "sender",
							"type": "address"
						}
					],
					"name": "ERC20InvalidSender",
					"type": "error"
				},
				{
					"inputs": [
						{
							"internalType": "address",
							"name": "spender",
							"type": "address"
						}
					],
					"name": "ERC20InvalidSpender",
					"type": "error"
				},
				{
					"inputs": [
						{
							"internalType": "address",
							"name": "owner",
							"type": "address"
						}
					],
					"name": "OwnableInvalidOwner",
					"type": "error"
				},
				{
					"inputs": [
						{
							"internalType": "address",
							"name": "account",
							"type": "address"
						}
					],
					"name": "OwnableUnauthorizedAccount",
					"type": "error"
				},
				{
					"anonymous": false,
					"inputs": [
						{
							"indexed": false,
							"internalType": "address",
							"name": "_tokens",
							"type": "address"
						},
						{
							"indexed": false,
							"internalType": "uint256",
							"name": "targetPercentage",
							"type": "uint256"
						}
					],
					"name": "AddToken",
					"type": "event"
				},
				{
					"anonymous": false,
					"inputs": [
						{
							"indexed": true,
							"internalType": "address",
							"name": "owner",
							"type": "address"
						},
						{
							"indexed": true,
							"internalType": "address",
							"name": "spender",
							"type": "address"
						},
						{
							"indexed": false,
							"internalType": "uint256",
							"name": "value",
							"type": "uint256"
						}
					],
					"name": "Approval",
					"type": "event"
				},
				{
					"anonymous": false,
					"inputs": [
						{
							"indexed": true,
							"internalType": "address",
							"name": "previousOwner",
							"type": "address"
						},
						{
							"indexed": true,
							"internalType": "address",
							"name": "newOwner",
							"type": "address"
						}
					],
					"name": "OwnershipTransferred",
					"type": "event"
				},
				{
					"anonymous": false,
					"inputs": [
						{
							"indexed": true,
							"internalType": "address",
							"name": "from",
							"type": "address"
						},
						{
							"indexed": true,
							"internalType": "address",
							"name": "to",
							"type": "address"
						},
						{
							"indexed": false,
							"internalType": "uint256",
							"name": "value",
							"type": "uint256"
						}
					],
					"name": "Transfer",
					"type": "event"
				},
				{
					"inputs": [
						{
							"internalType": "address",
							"name": "owner",
							"type": "address"
						},
						{
							"internalType": "address",
							"name": "spender",
							"type": "address"
						}
					],
					"name": "allowance",
					"outputs": [
						{
							"internalType": "uint256",
							"name": "",
							"type": "uint256"
						}
					],
					"stateMutability": "view",
					"type": "function"
				},
				{
					"inputs": [
						{
							"internalType": "address",
							"name": "spender",
							"type": "address"
						},
						{
							"internalType": "uint256",
							"name": "value",
							"type": "uint256"
						}
					],
					"name": "approve",
					"outputs": [
						{
							"internalType": "bool",
							"name": "",
							"type": "bool"
						}
					],
					"stateMutability": "nonpayable",
					"type": "function"
				},
				{
					"inputs": [
						{
							"internalType": "address",
							"name": "account",
							"type": "address"
						}
					],
					"name": "balanceOf",
					"outputs": [
						{
							"internalType": "uint256",
							"name": "",
							"type": "uint256"
						}
					],
					"stateMutability": "view",
					"type": "function"
				},
				{
					"inputs": [],
					"name": "decimals",
					"outputs": [
						{
							"internalType": "uint8",
							"name": "",
							"type": "uint8"
						}
					],
					"stateMutability": "view",
					"type": "function"
				},
				{
					"inputs": [
						{
							"components": [
								{
									"internalType": "bytes[]",
									"name": "path",
									"type": "bytes[]"
								},
								{
									"internalType": "uint256",
									"name": "amountIn",
									"type": "uint256"
								},
								{
									"internalType": "enum Version",
									"name": "version",
									"type": "uint8"
								}
							],
							"internalType": "struct SwapPath",
							"name": "_swapath",
							"type": "tuple"
						}
					],
					"name": "deposit",
					"outputs": [],
					"stateMutability": "payable",
					"type": "function"
				},
				{
					"inputs": [],
					"name": "depositFee",
					"outputs": [
						{
							"internalType": "uint16",
							"name": "",
							"type": "uint16"
						}
					],
					"stateMutability": "view",
					"type": "function"
				},
				{
					"inputs": [
						{
							"internalType": "address",
							"name": "",
							"type": "address"
						}
					],
					"name": "ethDepositedFailed",
					"outputs": [
						{
							"internalType": "uint256",
							"name": "",
							"type": "uint256"
						}
					],
					"stateMutability": "view",
					"type": "function"
				},
				{
					"inputs": [
						{
							"internalType": "uint256",
							"name": "",
							"type": "uint256"
						}
					],
					"name": "failedSwaps",
					"outputs": [
						{
							"internalType": "address",
							"name": "user",
							"type": "address"
						},
						{
							"internalType": "contract IERC20",
							"name": "token",
							"type": "address"
						},
						{
							"internalType": "uint256",
							"name": "amount",
							"type": "uint256"
						}
					],
					"stateMutability": "view",
					"type": "function"
				},
				{
					"inputs": [],
					"name": "getAllTokens",
					"outputs": [
						{
							"components": [
								{
									"internalType": "contract IERC20",
									"name": "token",
									"type": "address"
								},
								{
									"internalType": "uint256",
									"name": "targetPercentage",
									"type": "uint256"
								}
							],
							"internalType": "struct TokenInfo[]",
							"name": "",
							"type": "tuple[]"
						}
					],
					"stateMutability": "view",
					"type": "function"
				},
				{
					"inputs": [],
					"name": "initialedTokens",
					"outputs": [
						{
							"internalType": "bool",
							"name": "",
							"type": "bool"
						}
					],
					"stateMutability": "view",
					"type": "function"
				},
				{
					"inputs": [
						{
							"internalType": "address[]",
							"name": "_tokens",
							"type": "address[]"
						},
						{
							"internalType": "uint256[]",
							"name": "_targetPercentages",
							"type": "uint256[]"
						},
						{
							"internalType": "uint16",
							"name": "_withdrawalFee",
							"type": "uint16"
						},
						{
							"internalType": "uint16",
							"name": "_depositFee",
							"type": "uint16"
						}
					],
					"name": "initializeTokens",
					"outputs": [],
					"stateMutability": "nonpayable",
					"type": "function"
				},
				{
					"inputs": [],
					"name": "name",
					"outputs": [
						{
							"internalType": "string",
							"name": "",
							"type": "string"
						}
					],
					"stateMutability": "view",
					"type": "function"
				},
				{
					"inputs": [],
					"name": "owner",
					"outputs": [
						{
							"internalType": "address",
							"name": "",
							"type": "address"
						}
					],
					"stateMutability": "view",
					"type": "function"
				},
				{
					"inputs": [],
					"name": "renounceOwnership",
					"outputs": [],
					"stateMutability": "nonpayable",
					"type": "function"
				},
				{
					"inputs": [
						{
							"internalType": "uint256",
							"name": "_slippageTolerance",
							"type": "uint256"
						}
					],
					"name": "setSlippageTolerance",
					"outputs": [],
					"stateMutability": "nonpayable",
					"type": "function"
				},
				{
					"inputs": [],
					"name": "slippageTolerance",
					"outputs": [
						{
							"internalType": "uint256",
							"name": "",
							"type": "uint256"
						}
					],
					"stateMutability": "view",
					"type": "function"
				},
				{
					"inputs": [
						{
							"internalType": "contract IERC20",
							"name": "_token",
							"type": "address"
						},
						{
							"internalType": "uint256",
							"name": "_amountIn",
							"type": "uint256"
						},
						{
							"internalType": "enum Version",
							"name": "_version",
							"type": "uint8"
						},
						{
							"internalType": "address",
							"name": "_receiver",
							"type": "address"
						},
						{
							"internalType": "bytes",
							"name": "_path",
							"type": "bytes"
						}
					],
					"name": "swapTokenForToken",
					"outputs": [
						{
							"internalType": "uint256",
							"name": "",
							"type": "uint256"
						}
					],
					"stateMutability": "nonpayable",
					"type": "function"
				},
				{
					"inputs": [],
					"name": "symbol",
					"outputs": [
						{
							"internalType": "string",
							"name": "",
							"type": "string"
						}
					],
					"stateMutability": "view",
					"type": "function"
				},
				{
					"inputs": [],
					"name": "totalSupply",
					"outputs": [
						{
							"internalType": "uint256",
							"name": "",
							"type": "uint256"
						}
					],
					"stateMutability": "view",
					"type": "function"
				},
				{
					"inputs": [
						{
							"internalType": "address",
							"name": "to",
							"type": "address"
						},
						{
							"internalType": "uint256",
							"name": "value",
							"type": "uint256"
						}
					],
					"name": "transfer",
					"outputs": [
						{
							"internalType": "bool",
							"name": "",
							"type": "bool"
						}
					],
					"stateMutability": "nonpayable",
					"type": "function"
				},
				{
					"inputs": [
						{
							"internalType": "address",
							"name": "from",
							"type": "address"
						},
						{
							"internalType": "address",
							"name": "to",
							"type": "address"
						},
						{
							"internalType": "uint256",
							"name": "value",
							"type": "uint256"
						}
					],
					"name": "transferFrom",
					"outputs": [
						{
							"internalType": "bool",
							"name": "",
							"type": "bool"
						}
					],
					"stateMutability": "nonpayable",
					"type": "function"
				},
				{
					"inputs": [
						{
							"internalType": "address",
							"name": "newOwner",
							"type": "address"
						}
					],
					"name": "transferOwnership",
					"outputs": [],
					"stateMutability": "nonpayable",
					"type": "function"
				},
				{
					"inputs": [],
					"name": "uniswapV2Router",
					"outputs": [
						{
							"internalType": "contract IUniswapV2Router02",
							"name": "",
							"type": "address"
						}
					],
					"stateMutability": "view",
					"type": "function"
				},
				{
					"inputs": [],
					"name": "uniswapV3Quoter",
					"outputs": [
						{
							"internalType": "contract IUniswapV3Quoter",
							"name": "",
							"type": "address"
						}
					],
					"stateMutability": "view",
					"type": "function"
				},
				{
					"inputs": [],
					"name": "uniswapV3Router",
					"outputs": [
						{
							"internalType": "contract ISwapRouter",
							"name": "",
							"type": "address"
						}
					],
					"stateMutability": "view",
					"type": "function"
				},
				{
					"inputs": [
						{
							"internalType": "address",
							"name": "",
							"type": "address"
						}
					],
					"name": "userFailedSwaps",
					"outputs": [
						{
							"internalType": "uint256",
							"name": "",
							"type": "uint256"
						}
					],
					"stateMutability": "view",
					"type": "function"
				},
				{
					"inputs": [
						{
							"internalType": "address",
							"name": "_receiverFeeAddress",
							"type": "address"
						}
					],
					"name": "withdrawFeesByOwner",
					"outputs": [],
					"stateMutability": "nonpayable",
					"type": "function"
				},
				{
					"inputs": [
						{
							"internalType": "uint256",
							"name": "tokenAmount",
							"type": "uint256"
						}
					],
					"name": "withdrawInKind",
					"outputs": [],
					"stateMutability": "nonpayable",
					"type": "function"
				},
				{
					"inputs": [
						{
							"internalType": "uint256",
							"name": "tokenAmount",
							"type": "uint256"
						},
						{
							"internalType": "bytes",
							"name": "_path",
							"type": "bytes"
						}
					],
					"name": "withdrawToETH",
					"outputs": [],
					"stateMutability": "nonpayable",
					"type": "function"
				},
				{
					"inputs": [],
					"name": "withdrawalFee",
					"outputs": [
						{
							"internalType": "uint16",
							"name": "",
							"type": "uint16"
						}
					],
					"stateMutability": "view",
					"type": "function"
				}
			],
			"devdoc": {
				"errors": {
					"ERC20InsufficientAllowance(address,uint256,uint256)": [
						{
							"details": "Indicates a failure with the `spender`’s `allowance`. Used in transfers.",
							"params": {
								"allowance": "Amount of tokens a `spender` is allowed to operate with.",
								"needed": "Minimum amount required to perform a transfer.",
								"spender": "Address that may be allowed to operate on tokens without being their owner."
							}
						}
					],
					"ERC20InsufficientBalance(address,uint256,uint256)": [
						{
							"details": "Indicates an error related to the current `balance` of a `sender`. Used in transfers.",
							"params": {
								"balance": "Current balance for the interacting account.",
								"needed": "Minimum amount required to perform a transfer.",
								"sender": "Address whose tokens are being transferred."
							}
						}
					],
					"ERC20InvalidApprover(address)": [
						{
							"details": "Indicates a failure with the `approver` of a token to be approved. Used in approvals.",
							"params": {
								"approver": "Address initiating an approval operation."
							}
						}
					],
					"ERC20InvalidReceiver(address)": [
						{
							"details": "Indicates a failure with the token `receiver`. Used in transfers.",
							"params": {
								"receiver": "Address to which tokens are being transferred."
							}
						}
					],
					"ERC20InvalidSender(address)": [
						{
							"details": "Indicates a failure with the token `sender`. Used in transfers.",
							"params": {
								"sender": "Address whose tokens are being transferred."
							}
						}
					],
					"ERC20InvalidSpender(address)": [
						{
							"details": "Indicates a failure with the `spender` to be approved. Used in approvals.",
							"params": {
								"spender": "Address that may be allowed to operate on tokens without being their owner."
							}
						}
					],
					"OwnableInvalidOwner(address)": [
						{
							"details": "The owner is not a valid owner account. (eg. `address(0)`)"
						}
					],
					"OwnableUnauthorizedAccount(address)": [
						{
							"details": "The caller account is not authorized to perform an operation."
						}
					]
				},
				"events": {
					"Approval(address,address,uint256)": {
						"details": "Emitted when the allowance of a `spender` for an `owner` is set by a call to {approve}. `value` is the new allowance."
					},
					"Transfer(address,address,uint256)": {
						"details": "Emitted when `value` tokens are moved from one account (`from`) to another (`to`). Note that `value` may be zero."
					}
				},
				"kind": "dev",
				"methods": {
					"allowance(address,address)": {
						"details": "See {IERC20-allowance}."
					},
					"approve(address,uint256)": {
						"details": "See {IERC20-approve}. NOTE: If `value` is the maximum `uint256`, the allowance is not updated on `transferFrom`. This is semantically equivalent to an infinite approval. Requirements: - `spender` cannot be the zero address."
					},
					"balanceOf(address)": {
						"details": "See {IERC20-balanceOf}."
					},
					"decimals()": {
						"details": "Returns the number of decimals used to get its user representation. For example, if `decimals` equals `2`, a balance of `505` tokens should be displayed to a user as `5.05` (`505 / 10 ** 2`). Tokens usually opt for a value of 18, imitating the relationship between Ether and Wei. This is the default value returned by this function, unless it's overridden. NOTE: This information is only used for _display_ purposes: it in no way affects any of the arithmetic of the contract, including {IERC20-balanceOf} and {IERC20-transfer}."
					},
					"name()": {
						"details": "Returns the name of the token."
					},
					"owner()": {
						"details": "Returns the address of the current owner."
					},
					"renounceOwnership()": {
						"details": "Leaves the contract without owner. It will not be possible to call `onlyOwner` functions. Can only be called by the current owner. NOTE: Renouncing ownership will leave the contract without an owner, thereby disabling any functionality that is only available to the owner."
					},
					"symbol()": {
						"details": "Returns the symbol of the token, usually a shorter version of the name."
					},
					"totalSupply()": {
						"details": "See {IERC20-totalSupply}."
					},
					"transfer(address,uint256)": {
						"details": "See {IERC20-transfer}. Requirements: - `to` cannot be the zero address. - the caller must have a balance of at least `value`."
					},
					"transferFrom(address,address,uint256)": {
						"details": "See {IERC20-transferFrom}. Emits an {Approval} event indicating the updated allowance. This is not required by the EIP. See the note at the beginning of {ERC20}. NOTE: Does not update the allowance if the current allowance is the maximum `uint256`. Requirements: - `from` and `to` cannot be the zero address. - `from` must have a balance of at least `value`. - the caller must have allowance for ``from``'s tokens of at least `value`."
					},
					"transferOwnership(address)": {
						"details": "Transfers ownership of the contract to a new account (`newOwner`). Can only be called by the current owner."
					}
				},
				"version": 1
			},
			"evm": {
				"assembly": "    /* \"contracts/PYGGportfolioManagement.sol\":399:5488  contract PYGGportfolioManagement is Ownable, ERC20, SwapOperationManager {... */\n  mstore(0x40, 0x80)\n    /* \"contracts/PYGGportfolioManagement.sol\":615:650  bool public initialedTokens = false */\n  0x0e\n  dup1\n  sload\n  not(shl(0x20, 0xff))\n  and\n  swap1\n  sstore\n    /* \"contracts/PYGGportfolioManagement.sol\":811:1173  constructor(... */\n  callvalue\n  dup1\n  iszero\n  tag_1\n  jumpi\n  0x00\n  dup1\n  revert\ntag_1:\n  pop\n  mload(0x40)\n  sub(codesize, bytecodeSize)\n  dup1\n  bytecodeSize\n  dup4\n  codecopy\n  dup2\n  add\n  0x40\n  dup2\n  swap1\n  mstore\n  tag_2\n  swap2\n  tag_3\n  jump\t// in\ntag_2:\n    /* \"contracts/PYGGportfolioManagement.sol\":1078:1094  _uniswapV2Router */\n  dup3\n    /* \"contracts/PYGGportfolioManagement.sol\":1096:1112  _uniswapV3Router */\n  dup3\n    /* \"contracts/PYGGportfolioManagement.sol\":1114:1130  _uniswapV3Quoter */\n  dup3\n    /* \"contracts/PYGGportfolioManagement.sol\":1033:1038  _name */\n  dup8\n    /* \"contracts/PYGGportfolioManagement.sol\":1040:1047  _symbol */\n  dup8\n    /* \"contracts/PYGGportfolioManagement.sol\":1007:1017  msg.sender */\n  caller\n  dup1\n    /* \"@openzeppelin/contracts/access/Ownable.sol\":1269:1364  if (initialOwner == address(0)) {... */\n  tag_9\n  jumpi\n    /* \"@openzeppelin/contracts/access/Ownable.sol\":1322:1353  OwnableInvalidOwner(address(0)) */\n  mload(0x40)\n  shl(0xe0, 0x1e4fbdf7)\n  dup2\n  mstore\n    /* \"@openzeppelin/contracts/access/Ownable.sol\":1350:1351  0 */\n  0x00\n    /* \"@openzeppelin/contracts/access/Ownable.sol\":1322:1353  OwnableInvalidOwner(address(0)) */\n  0x04\n  dup3\n  add\n    /* \"#utility.yul\":2143:2194   */\n  mstore\n    /* \"#utility.yul\":2116:2134   */\n  0x24\n  add\n    /* \"@openzeppelin/contracts/access/Ownable.sol\":1322:1353  OwnableInvalidOwner(address(0)) */\n  mload(0x40)\n  dup1\n  swap2\n  sub\n  swap1\n  revert\n    /* \"@openzeppelin/contracts/access/Ownable.sol\":1269:1364  if (initialOwner == address(0)) {... */\ntag_9:\n    /* \"@openzeppelin/contracts/access/Ownable.sol\":1373:1405  _transferOwnership(initialOwner) */\n  tag_12\n    /* \"@openzeppelin/contracts/access/Ownable.sol\":1392:1404  initialOwner */\n  dup2\n    /* \"@openzeppelin/contracts/access/Ownable.sol\":1373:1391  _transferOwnership */\n  tag_13\n    /* \"@openzeppelin/contracts/access/Ownable.sol\":1373:1405  _transferOwnership(initialOwner) */\n  jump\t// in\ntag_12:\n  pop\n    /* \"@openzeppelin/contracts/token/ERC20/ERC20.sol\":1962:1967  _name */\n  0x04\n    /* \"@openzeppelin/contracts/token/ERC20/ERC20.sol\":1962:1975  _name = name_ */\n  tag_15\n    /* \"@openzeppelin/contracts/token/ERC20/ERC20.sol\":1970:1975  name_ */\n  dup4\n    /* \"@openzeppelin/contracts/token/ERC20/ERC20.sol\":1962:1967  _name */\n  dup3\n    /* \"@openzeppelin/contracts/token/ERC20/ERC20.sol\":1962:1975  _name = name_ */\n  tag_16\n  jump\t// in\ntag_15:\n  pop\n    /* \"@openzeppelin/contracts/token/ERC20/ERC20.sol\":1985:1992  _symbol */\n  0x05\n    /* \"@openzeppelin/contracts/token/ERC20/ERC20.sol\":1985:2002  _symbol = symbol_ */\n  tag_17\n    /* \"@openzeppelin/contracts/token/ERC20/ERC20.sol\":1995:2002  symbol_ */\n  dup3\n    /* \"@openzeppelin/contracts/token/ERC20/ERC20.sol\":1985:1992  _symbol */\n  dup3\n    /* \"@openzeppelin/contracts/token/ERC20/ERC20.sol\":1985:2002  _symbol = symbol_ */\n  tag_16\n  jump\t// in\ntag_17:\n  pop\n  pop\n    /* \"contracts/SwapOperationManager.sol\":784:799  uniswapV2Router */\n  0x09\n    /* \"contracts/SwapOperationManager.sol\":784:838  uniswapV2Router = IUniswapV2Router02(_uniswapV2Router) */\n  dup1\n  sload\n  sub(shl(0xa0, 0x01), 0x01)\n  swap6\n  dup7\n  and\n  not(sub(shl(0xa0, 0x01), 0x01))\n  swap2\n  dup3\n  and\n  or\n  swap1\n  swap2\n  sstore\n    /* \"contracts/SwapOperationManager.sol\":848:863  uniswapV3Router */\n  0x0a\n    /* \"contracts/SwapOperationManager.sol\":848:895  uniswapV3Router = ISwapRouter(_uniswapV3Router) */\n  dup1\n  sload\n  swap5\n  dup7\n  and\n  swap5\n  dup3\n  and\n  swap5\n  swap1\n  swap5\n  or\n  swap1\n  swap4\n  sstore\n  pop\n    /* \"contracts/SwapOperationManager.sol\":905:920  uniswapV3Quoter */\n  0x0b\n    /* \"contracts/SwapOperationManager.sol\":905:957  uniswapV3Quoter = IUniswapV3Quoter(_uniswapV3Quoter) */\n  dup1\n  sload\n  swap2\n  swap1\n  swap4\n  and\n  swap1\n  dup3\n  and\n  or\n  swap1\n  swap2\n  sstore\n    /* \"contracts/SwapOperationManager.sol\":987:991  1000 */\n  0x03e8\n    /* \"contracts/SwapOperationManager.sol\":967:984  slippageTolerance */\n  0x07\n    /* \"contracts/SwapOperationManager.sol\":967:991  slippageTolerance = 1000 */\n  sstore\n    /* \"contracts/PYGGportfolioManagement.sol\":1146:1153  factory */\n  0x10\n    /* \"contracts/PYGGportfolioManagement.sol\":1146:1166  factory = msg.sender */\n  dup1\n  sload\n  swap1\n  swap2\n  and\n    /* \"contracts/PYGGportfolioManagement.sol\":1156:1166  msg.sender */\n  caller\n    /* \"contracts/PYGGportfolioManagement.sol\":1146:1166  factory = msg.sender */\n  or\n  swap1\n  sstore\n  pop\n    /* \"contracts/PYGGportfolioManagement.sol\":399:5488  contract PYGGportfolioManagement is Ownable, ERC20, SwapOperationManager {... */\n  tag_29\n  swap4\n  pop\n  pop\n  pop\n  pop\n  jump\n    /* \"@openzeppelin/contracts/access/Ownable.sol\":2912:3099  function _transferOwnership(address newOwner) internal virtual {... */\ntag_13:\n    /* \"@openzeppelin/contracts/access/Ownable.sol\":2985:3001  address oldOwner */\n  0x00\n    /* \"@openzeppelin/contracts/access/Ownable.sol\":3004:3010  _owner */\n  dup1\n  sload\n  sub(shl(0xa0, 0x01), 0x01)\n    /* \"@openzeppelin/contracts/access/Ownable.sol\":3020:3037  _owner = newOwner */\n  dup4\n  dup2\n  and\n  not(sub(shl(0xa0, 0x01), 0x01))\n  dup4\n  and\n  dup2\n  or\n  dup5\n  sstore\n    /* \"@openzeppelin/contracts/access/Ownable.sol\":3052:3092  OwnershipTransferred(oldOwner, newOwner) */\n  mload(0x40)\n    /* \"@openzeppelin/contracts/access/Ownable.sol\":3004:3010  _owner */\n  swap2\n  swap1\n  swap3\n  and\n  swap3\n  dup4\n  swap2\n    /* \"@openzeppelin/contracts/access/Ownable.sol\":3052:3092  OwnershipTransferred(oldOwner, newOwner) */\n  0x8be0079c531659141344cd1fd0a4f28419497f9722a3daafe3b4186f6b6457e0\n  swap2\n    /* \"@openzeppelin/contracts/access/Ownable.sol\":2985:3001  address oldOwner */\n  swap1\n    /* \"@openzeppelin/contracts/access/Ownable.sol\":3052:3092  OwnershipTransferred(oldOwner, newOwner) */\n  log3\n    /* \"@openzeppelin/contracts/access/Ownable.sol\":2975:3099  {... */\n  pop\n    /* \"@openzeppelin/contracts/access/Ownable.sol\":2912:3099  function _transferOwnership(address newOwner) internal virtual {... */\n  pop\n  jump\t// out\n    /* \"#utility.yul\":14:141   */\ntag_22:\n    /* \"#utility.yul\":75:85   */\n  0x4e487b71\n    /* \"#utility.yul\":70:73   */\n  0xe0\n    /* \"#utility.yul\":66:86   */\n  shl\n    /* \"#utility.yul\":63:64   */\n  0x00\n    /* \"#utility.yul\":56:87   */\n  mstore\n    /* \"#utility.yul\":106:110   */\n  0x41\n    /* \"#utility.yul\":103:104   */\n  0x04\n    /* \"#utility.yul\":96:111   */\n  mstore\n    /* \"#utility.yul\":130:134   */\n  0x24\n    /* \"#utility.yul\":127:128   */\n  0x00\n    /* \"#utility.yul\":120:135   */\n  revert\n    /* \"#utility.yul\":146:986   */\ntag_23:\n    /* \"#utility.yul\":200:205   */\n  0x00\n    /* \"#utility.yul\":253:256   */\n  dup3\n    /* \"#utility.yul\":246:250   */\n  0x1f\n    /* \"#utility.yul\":238:244   */\n  dup4\n    /* \"#utility.yul\":234:251   */\n  add\n    /* \"#utility.yul\":230:257   */\n  slt\n    /* \"#utility.yul\":220:275   */\n  tag_32\n  jumpi\n    /* \"#utility.yul\":271:272   */\n  0x00\n    /* \"#utility.yul\":268:269   */\n  dup1\n    /* \"#utility.yul\":261:273   */\n  revert\n    /* \"#utility.yul\":220:275   */\ntag_32:\n    /* \"#utility.yul\":294:307   */\n  dup2\n  mload\n  sub(shl(0x40, 0x01), 0x01)\n    /* \"#utility.yul\":356:366   */\n  dup1\n  dup3\n  gt\n    /* \"#utility.yul\":353:389   */\n  iszero\n  tag_34\n  jumpi\n    /* \"#utility.yul\":369:387   */\n  tag_34\n  tag_22\n  jump\t// in\ntag_34:\n    /* \"#utility.yul\":444:446   */\n  0x40\n    /* \"#utility.yul\":438:447   */\n  mload\n    /* \"#utility.yul\":412:414   */\n  0x1f\n    /* \"#utility.yul\":498:511   */\n  dup4\n  add\n  not(0x1f)\n    /* \"#utility.yul\":494:516   */\n  swap1\n  dup2\n  and\n    /* \"#utility.yul\":518:520   */\n  0x3f\n    /* \"#utility.yul\":490:521   */\n  add\n    /* \"#utility.yul\":486:526   */\n  and\n    /* \"#utility.yul\":474:527   */\n  dup2\n  add\n  swap1\n    /* \"#utility.yul\":542:560   */\n  dup3\n  dup3\n  gt\n    /* \"#utility.yul\":562:584   */\n  dup2\n  dup4\n  lt\n    /* \"#utility.yul\":539:585   */\n  or\n    /* \"#utility.yul\":536:608   */\n  iszero\n  tag_36\n  jumpi\n    /* \"#utility.yul\":588:606   */\n  tag_36\n  tag_22\n  jump\t// in\ntag_36:\n    /* \"#utility.yul\":628:638   */\n  dup2\n    /* \"#utility.yul\":624:626   */\n  0x40\n    /* \"#utility.yul\":617:639   */\n  mstore\n    /* \"#utility.yul\":663:665   */\n  dup4\n    /* \"#utility.yul\":655:661   */\n  dup2\n    /* \"#utility.yul\":648:666   */\n  mstore\n    /* \"#utility.yul\":685:689   */\n  0x20\n    /* \"#utility.yul\":675:689   */\n  swap3\n  pop\n    /* \"#utility.yul\":730:733   */\n  dup7\n    /* \"#utility.yul\":725:727   */\n  dup4\n    /* \"#utility.yul\":720:722   */\n  dup6\n    /* \"#utility.yul\":712:718   */\n  dup9\n    /* \"#utility.yul\":708:723   */\n  add\n    /* \"#utility.yul\":704:728   */\n  add\n    /* \"#utility.yul\":701:734   */\n  gt\n    /* \"#utility.yul\":698:751   */\n  iszero\n  tag_37\n  jumpi\n    /* \"#utility.yul\":747:748   */\n  0x00\n    /* \"#utility.yul\":744:745   */\n  dup1\n    /* \"#utility.yul\":737:749   */\n  revert\n    /* \"#utility.yul\":698:751   */\ntag_37:\n    /* \"#utility.yul\":769:770   */\n  0x00\n    /* \"#utility.yul\":760:770   */\n  swap2\n  pop\n    /* \"#utility.yul\":779:912   */\ntag_38:\n    /* \"#utility.yul\":793:795   */\n  dup4\n    /* \"#utility.yul\":790:791   */\n  dup3\n    /* \"#utility.yul\":787:796   */\n  lt\n    /* \"#utility.yul\":779:912   */\n  iszero\n  tag_40\n  jumpi\n    /* \"#utility.yul\":881:895   */\n  dup6\n  dup3\n  add\n    /* \"#utility.yul\":877:900   */\n  dup4\n  add\n    /* \"#utility.yul\":871:901   */\n  mload\n    /* \"#utility.yul\":850:864   */\n  dup2\n  dup4\n  add\n    /* \"#utility.yul\":846:869   */\n  dup5\n  add\n    /* \"#utility.yul\":839:902   */\n  mstore\n    /* \"#utility.yul\":804:814   */\n  swap1\n  dup3\n  add\n  swap1\n    /* \"#utility.yul\":779:912   */\n  jump(tag_38)\ntag_40:\n    /* \"#utility.yul\":954:955   */\n  0x00\n    /* \"#utility.yul\":932:947   */\n  swap4\n  dup2\n  add\n    /* \"#utility.yul\":928:952   */\n  swap1\n  swap3\n  add\n    /* \"#utility.yul\":921:956   */\n  swap3\n  swap1\n  swap3\n  mstore\n    /* \"#utility.yul\":936:942   */\n  swap5\n    /* \"#utility.yul\":146:986   */\n  swap4\n  pop\n  pop\n  pop\n  pop\n  jump\t// out\n    /* \"#utility.yul\":991:1168   */\ntag_24:\n    /* \"#utility.yul\":1070:1083   */\n  dup1\n  mload\n  sub(shl(0xa0, 0x01), 0x01)\n    /* \"#utility.yul\":1112:1143   */\n  dup2\n  and\n    /* \"#utility.yul\":1102:1144   */\n  dup2\n  eq\n    /* \"#utility.yul\":1092:1162   */\n  tag_42\n  jumpi\n    /* \"#utility.yul\":1158:1159   */\n  0x00\n    /* \"#utility.yul\":1155:1156   */\n  dup1\n    /* \"#utility.yul\":1148:1160   */\n  revert\n    /* \"#utility.yul\":1092:1162   */\ntag_42:\n    /* \"#utility.yul\":991:1168   */\n  swap2\n  swap1\n  pop\n  jump\t// out\n    /* \"#utility.yul\":1173:1992   */\ntag_3:\n    /* \"#utility.yul\":1299:1305   */\n  0x00\n    /* \"#utility.yul\":1307:1313   */\n  dup1\n    /* \"#utility.yul\":1315:1321   */\n  0x00\n    /* \"#utility.yul\":1323:1329   */\n  dup1\n    /* \"#utility.yul\":1331:1337   */\n  0x00\n    /* \"#utility.yul\":1384:1387   */\n  0xa0\n    /* \"#utility.yul\":1372:1381   */\n  dup7\n    /* \"#utility.yul\":1363:1370   */\n  dup9\n    /* \"#utility.yul\":1359:1382   */\n  sub\n    /* \"#utility.yul\":1355:1388   */\n  slt\n    /* \"#utility.yul\":1352:1405   */\n  iszero\n  tag_44\n  jumpi\n    /* \"#utility.yul\":1401:1402   */\n  0x00\n    /* \"#utility.yul\":1398:1399   */\n  dup1\n    /* \"#utility.yul\":1391:1403   */\n  revert\n    /* \"#utility.yul\":1352:1405   */\ntag_44:\n    /* \"#utility.yul\":1428:1444   */\n  dup6\n  mload\n  sub(shl(0x40, 0x01), 0x01)\n    /* \"#utility.yul\":1493:1507   */\n  dup1\n  dup3\n  gt\n    /* \"#utility.yul\":1490:1524   */\n  iszero\n  tag_45\n  jumpi\n    /* \"#utility.yul\":1520:1521   */\n  0x00\n    /* \"#utility.yul\":1517:1518   */\n  dup1\n    /* \"#utility.yul\":1510:1522   */\n  revert\n    /* \"#utility.yul\":1490:1524   */\ntag_45:\n    /* \"#utility.yul\":1543:1604   */\n  tag_46\n    /* \"#utility.yul\":1596:1603   */\n  dup10\n    /* \"#utility.yul\":1587:1593   */\n  dup4\n    /* \"#utility.yul\":1576:1585   */\n  dup11\n    /* \"#utility.yul\":1572:1594   */\n  add\n    /* \"#utility.yul\":1543:1604   */\n  tag_23\n  jump\t// in\ntag_46:\n    /* \"#utility.yul\":1533:1604   */\n  swap7\n  pop\n    /* \"#utility.yul\":1650:1652   */\n  0x20\n    /* \"#utility.yul\":1639:1648   */\n  dup9\n    /* \"#utility.yul\":1635:1653   */\n  add\n    /* \"#utility.yul\":1629:1654   */\n  mload\n    /* \"#utility.yul\":1613:1654   */\n  swap2\n  pop\n    /* \"#utility.yul\":1679:1681   */\n  dup1\n    /* \"#utility.yul\":1669:1677   */\n  dup3\n    /* \"#utility.yul\":1666:1682   */\n  gt\n    /* \"#utility.yul\":1663:1699   */\n  iszero\n  tag_47\n  jumpi\n    /* \"#utility.yul\":1695:1696   */\n  0x00\n    /* \"#utility.yul\":1692:1693   */\n  dup1\n    /* \"#utility.yul\":1685:1697   */\n  revert\n    /* \"#utility.yul\":1663:1699   */\ntag_47:\n  pop\n    /* \"#utility.yul\":1718:1781   */\n  tag_48\n    /* \"#utility.yul\":1773:1780   */\n  dup9\n    /* \"#utility.yul\":1762:1770   */\n  dup3\n    /* \"#utility.yul\":1751:1760   */\n  dup10\n    /* \"#utility.yul\":1747:1771   */\n  add\n    /* \"#utility.yul\":1718:1781   */\n  tag_23\n  jump\t// in\ntag_48:\n    /* \"#utility.yul\":1708:1781   */\n  swap5\n  pop\n  pop\n    /* \"#utility.yul\":1800:1849   */\n  tag_49\n    /* \"#utility.yul\":1845:1847   */\n  0x40\n    /* \"#utility.yul\":1834:1843   */\n  dup8\n    /* \"#utility.yul\":1830:1848   */\n  add\n    /* \"#utility.yul\":1800:1849   */\n  tag_24\n  jump\t// in\ntag_49:\n    /* \"#utility.yul\":1790:1849   */\n  swap3\n  pop\n    /* \"#utility.yul\":1868:1917   */\n  tag_50\n    /* \"#utility.yul\":1913:1915   */\n  0x60\n    /* \"#utility.yul\":1902:1911   */\n  dup8\n    /* \"#utility.yul\":1898:1916   */\n  add\n    /* \"#utility.yul\":1868:1917   */\n  tag_24\n  jump\t// in\ntag_50:\n    /* \"#utility.yul\":1858:1917   */\n  swap2\n  pop\n    /* \"#utility.yul\":1936:1986   */\n  tag_51\n    /* \"#utility.yul\":1981:1984   */\n  0x80\n    /* \"#utility.yul\":1970:1979   */\n  dup8\n    /* \"#utility.yul\":1966:1985   */\n  add\n    /* \"#utility.yul\":1936:1986   */\n  tag_24\n  jump\t// in\ntag_51:\n    /* \"#utility.yul\":1926:1986   */\n  swap1\n  pop\n    /* \"#utility.yul\":1173:1992   */\n  swap3\n  swap6\n  pop\n  swap3\n  swap6\n  swap1\n  swap4\n  pop\n  jump\t// out\n    /* \"#utility.yul\":2205:2585   */\ntag_25:\n    /* \"#utility.yul\":2284:2285   */\n  0x01\n    /* \"#utility.yul\":2280:2292   */\n  dup2\n  dup2\n  shr\n  swap1\n    /* \"#utility.yul\":2327:2339   */\n  dup3\n  and\n  dup1\n    /* \"#utility.yul\":2348:2409   */\n  tag_54\n  jumpi\n    /* \"#utility.yul\":2402:2406   */\n  0x7f\n    /* \"#utility.yul\":2394:2400   */\n  dup3\n    /* \"#utility.yul\":2390:2407   */\n  and\n    /* \"#utility.yul\":2380:2407   */\n  swap2\n  pop\n    /* \"#utility.yul\":2348:2409   */\ntag_54:\n    /* \"#utility.yul\":2455:2457   */\n  0x20\n    /* \"#utility.yul\":2447:2453   */\n  dup3\n    /* \"#utility.yul\":2444:2458   */\n  lt\n    /* \"#utility.yul\":2424:2442   */\n  dup2\n    /* \"#utility.yul\":2421:2459   */\n  sub\n    /* \"#utility.yul\":2418:2579   */\n  tag_55\n  jumpi\n    /* \"#utility.yul\":2501:2511   */\n  0x4e487b71\n    /* \"#utility.yul\":2496:2499   */\n  0xe0\n    /* \"#utility.yul\":2492:2512   */\n  shl\n    /* \"#utility.yul\":2489:2490   */\n  0x00\n    /* \"#utility.yul\":2482:2513   */\n  mstore\n    /* \"#utility.yul\":2536:2540   */\n  0x22\n    /* \"#utility.yul\":2533:2534   */\n  0x04\n    /* \"#utility.yul\":2526:2541   */\n  mstore\n    /* \"#utility.yul\":2564:2568   */\n  0x24\n    /* \"#utility.yul\":2561:2562   */\n  0x00\n    /* \"#utility.yul\":2554:2569   */\n  revert\n    /* \"#utility.yul\":2418:2579   */\ntag_55:\n  pop\n    /* \"#utility.yul\":2205:2585   */\n  swap2\n  swap1\n  pop\n  jump\t// out\n    /* \"#utility.yul\":2716:3261   */\ntag_27:\n    /* \"#utility.yul\":2818:2820   */\n  0x1f\n    /* \"#utility.yul\":2813:2816   */\n  dup3\n    /* \"#utility.yul\":2810:2821   */\n  gt\n    /* \"#utility.yul\":2807:3255   */\n  iszero\n  tag_58\n  jumpi\n    /* \"#utility.yul\":2854:2855   */\n  0x00\n    /* \"#utility.yul\":2879:2884   */\n  dup2\n    /* \"#utility.yul\":2875:2877   */\n  dup2\n    /* \"#utility.yul\":2868:2885   */\n  mstore\n    /* \"#utility.yul\":2924:2928   */\n  0x20\n    /* \"#utility.yul\":2920:2922   */\n  dup2\n    /* \"#utility.yul\":2910:2929   */\n  keccak256\n    /* \"#utility.yul\":2994:2996   */\n  0x1f\n    /* \"#utility.yul\":2982:2992   */\n  dup6\n    /* \"#utility.yul\":2978:2997   */\n  add\n    /* \"#utility.yul\":2975:2976   */\n  0x05\n    /* \"#utility.yul\":2971:2998   */\n  shr\n    /* \"#utility.yul\":2965:2969   */\n  dup2\n    /* \"#utility.yul\":2961:2999   */\n  add\n    /* \"#utility.yul\":3030:3034   */\n  0x20\n    /* \"#utility.yul\":3018:3028   */\n  dup7\n    /* \"#utility.yul\":3015:3035   */\n  lt\n    /* \"#utility.yul\":3012:3059   */\n  iszero\n  tag_59\n  jumpi\n  pop\n    /* \"#utility.yul\":3053:3057   */\n  dup1\n    /* \"#utility.yul\":3012:3059   */\ntag_59:\n    /* \"#utility.yul\":3108:3110   */\n  0x1f\n    /* \"#utility.yul\":3103:3106   */\n  dup6\n    /* \"#utility.yul\":3099:3111   */\n  add\n    /* \"#utility.yul\":3096:3097   */\n  0x05\n    /* \"#utility.yul\":3092:3112   */\n  shr\n    /* \"#utility.yul\":3086:3090   */\n  dup3\n    /* \"#utility.yul\":3082:3113   */\n  add\n    /* \"#utility.yul\":3072:3113   */\n  swap2\n  pop\n    /* \"#utility.yul\":3163:3245   */\ntag_60:\n    /* \"#utility.yul\":3181:3183   */\n  dup2\n    /* \"#utility.yul\":3174:3179   */\n  dup2\n    /* \"#utility.yul\":3171:3184   */\n  lt\n    /* \"#utility.yul\":3163:3245   */\n  iszero\n  tag_62\n  jumpi\n    /* \"#utility.yul\":3226:3243   */\n  dup3\n  dup2\n  sstore\n    /* \"#utility.yul\":3207:3208   */\n  0x01\n    /* \"#utility.yul\":3196:3209   */\n  add\n    /* \"#utility.yul\":3163:3245   */\n  jump(tag_60)\ntag_62:\n    /* \"#utility.yul\":3167:3170   */\n  pop\n  pop\n  pop\n    /* \"#utility.yul\":2807:3255   */\ntag_58:\n    /* \"#utility.yul\":2716:3261   */\n  pop\n  pop\n  pop\n  jump\t// out\n    /* \"#utility.yul\":3437:4789   */\ntag_16:\n    /* \"#utility.yul\":3557:3567   */\n  dup2\n  mload\n  sub(shl(0x40, 0x01), 0x01)\n    /* \"#utility.yul\":3579:3609   */\n  dup2\n  gt\n    /* \"#utility.yul\":3576:3632   */\n  iszero\n  tag_66\n  jumpi\n    /* \"#utility.yul\":3612:3630   */\n  tag_66\n  tag_22\n  jump\t// in\ntag_66:\n    /* \"#utility.yul\":3641:3738   */\n  tag_67\n    /* \"#utility.yul\":3731:3737   */\n  dup2\n    /* \"#utility.yul\":3691:3729   */\n  tag_68\n    /* \"#utility.yul\":3723:3727   */\n  dup5\n    /* \"#utility.yul\":3717:3728   */\n  sload\n    /* \"#utility.yul\":3691:3729   */\n  tag_25\n  jump\t// in\ntag_68:\n    /* \"#utility.yul\":3685:3689   */\n  dup5\n    /* \"#utility.yul\":3641:3738   */\n  tag_27\n  jump\t// in\ntag_67:\n    /* \"#utility.yul\":3793:3797   */\n  0x20\n  dup1\n    /* \"#utility.yul\":3857:3859   */\n  0x1f\n    /* \"#utility.yul\":3846:3860   */\n  dup4\n  gt\n    /* \"#utility.yul\":3874:3875   */\n  0x01\n    /* \"#utility.yul\":3869:4532   */\n  dup2\n  eq\n  tag_70\n  jumpi\n    /* \"#utility.yul\":4576:4577   */\n  0x00\n    /* \"#utility.yul\":4593:4599   */\n  dup5\n    /* \"#utility.yul\":4590:4679   */\n  iszero\n  tag_71\n  jumpi\n  pop\n    /* \"#utility.yul\":4645:4664   */\n  dup6\n  dup4\n  add\n    /* \"#utility.yul\":4639:4665   */\n  mload\n    /* \"#utility.yul\":4590:4679   */\ntag_71:\n  not(0x00)\n    /* \"#utility.yul\":3394:3395   */\n  0x03\n    /* \"#utility.yul\":3390:3401   */\n  dup7\n  swap1\n  shl\n    /* \"#utility.yul\":3386:3410   */\n  shr\n    /* \"#utility.yul\":3382:3411   */\n  not\n    /* \"#utility.yul\":3372:3412   */\n  and\n    /* \"#utility.yul\":3418:3419   */\n  0x01\n    /* \"#utility.yul\":3414:3425   */\n  dup6\n  swap1\n  shl\n    /* \"#utility.yul\":3369:3426   */\n  or\n    /* \"#utility.yul\":4692:4773   */\n  dup6\n  sstore\n    /* \"#utility.yul\":3839:4783   */\n  jump(tag_62)\n    /* \"#utility.yul\":3869:4532   */\ntag_70:\n    /* \"#utility.yul\":2663:2664   */\n  0x00\n    /* \"#utility.yul\":2656:2670   */\n  dup6\n  dup2\n  mstore\n    /* \"#utility.yul\":2700:2704   */\n  0x20\n    /* \"#utility.yul\":2687:2705   */\n  dup2\n  keccak256\n  not(0x1f)\n    /* \"#utility.yul\":3905:3925   */\n  dup7\n  and\n  swap2\n    /* \"#utility.yul\":4023:4259   */\ntag_74:\n    /* \"#utility.yul\":4037:4044   */\n  dup3\n    /* \"#utility.yul\":4034:4035   */\n  dup2\n    /* \"#utility.yul\":4031:4045   */\n  lt\n    /* \"#utility.yul\":4023:4259   */\n  iszero\n  tag_76\n  jumpi\n    /* \"#utility.yul\":4126:4145   */\n  dup9\n  dup7\n  add\n    /* \"#utility.yul\":4120:4146   */\n  mload\n    /* \"#utility.yul\":4105:4147   */\n  dup3\n  sstore\n    /* \"#utility.yul\":4218:4245   */\n  swap5\n  dup5\n  add\n  swap5\n    /* \"#utility.yul\":4186:4187   */\n  0x01\n    /* \"#utility.yul\":4174:4188   */\n  swap1\n  swap2\n  add\n  swap1\n    /* \"#utility.yul\":4053:4072   */\n  dup5\n  add\n    /* \"#utility.yul\":4023:4259   */\n  jump(tag_74)\ntag_76:\n    /* \"#utility.yul\":4027:4030   */\n  pop\n    /* \"#utility.yul\":4287:4293   */\n  dup6\n    /* \"#utility.yul\":4278:4285   */\n  dup3\n    /* \"#utility.yul\":4275:4294   */\n  lt\n    /* \"#utility.yul\":4272:4473   */\n  iszero\n  tag_77\n  jumpi\n    /* \"#utility.yul\":4348:4367   */\n  dup8\n  dup6\n  add\n    /* \"#utility.yul\":4342:4368   */\n  mload\n  not(0x00)\n    /* \"#utility.yul\":4431:4432   */\n  0x03\n    /* \"#utility.yul\":4427:4441   */\n  dup9\n  swap1\n  shl\n    /* \"#utility.yul\":4443:4446   */\n  0xf8\n    /* \"#utility.yul\":4423:4447   */\n  and\n    /* \"#utility.yul\":4419:4456   */\n  shr\n    /* \"#utility.yul\":4415:4457   */\n  not\n    /* \"#utility.yul\":4400:4458   */\n  and\n    /* \"#utility.yul\":4385:4459   */\n  dup2\n  sstore\n    /* \"#utility.yul\":4272:4473   */\ntag_77:\n  pop\n  pop\n  pop\n  pop\n  pop\n    /* \"#utility.yul\":4519:4520   */\n  0x01\n    /* \"#utility.yul\":4503:4517   */\n  swap1\n  dup2\n  shl\n    /* \"#utility.yul\":4499:4521   */\n  add\n    /* \"#utility.yul\":4486:4522   */\n  swap1\n  sstore\n  pop\n    /* \"#utility.yul\":3437:4789   */\n  jump\t// out\ntag_29:\n    /* \"contracts/PYGGportfolioManagement.sol\":399:5488  contract PYGGportfolioManagement is Ownable, ERC20, SwapOperationManager {... */\n  dataSize(sub_0)\n  dup1\n  dataOffset(sub_0)\n  0x00\n  codecopy\n  0x00\n  return\nstop\n\nsub_0: assembly {\n        /* \"contracts/PYGGportfolioManagement.sol\":399:5488  contract PYGGportfolioManagement is Ownable, ERC20, SwapOperationManager {... */\n      mstore(0x40, 0x80)\n      jumpi(tag_1, lt(calldatasize, 0x04))\n      shr(0xe0, calldataload(0x00))\n      dup1\n      0x67a52793\n      gt\n      tag_32\n      jumpi\n      dup1\n      0x945098db\n      gt\n      tag_33\n      jumpi\n      dup1\n      0xc38cd0b5\n      gt\n      tag_34\n      jumpi\n      dup1\n      0xc38cd0b5\n      eq\n      tag_28\n      jumpi\n      dup1\n      0xd03153aa\n      eq\n      tag_29\n      jumpi\n      dup1\n      0xdd62ed3e\n      eq\n      tag_30\n      jumpi\n      dup1\n      0xf2fde38b\n      eq\n      tag_31\n      jumpi\n      0x00\n      dup1\n      revert\n    tag_34:\n      dup1\n      0x945098db\n      eq\n      tag_24\n      jumpi\n      dup1\n      0x95d89b41\n      eq\n      tag_25\n      jumpi\n      dup1\n      0xa738c7df\n      eq\n      tag_26\n      jumpi\n      dup1\n      0xa9059cbb\n      eq\n      tag_27\n      jumpi\n      0x00\n      dup1\n      revert\n    tag_33:\n      dup1\n      0x74a66061\n      gt\n      tag_35\n      jumpi\n      dup1\n      0x74a66061\n      eq\n      tag_20\n      jumpi\n      dup1\n      0x81a06b73\n      eq\n      tag_21\n      jumpi\n      dup1\n      0x8bc7e8c4\n      eq\n      tag_22\n      jumpi\n      dup1\n      0x8da5cb5b\n      eq\n      tag_23\n      jumpi\n      0x00\n      dup1\n      revert\n    tag_35:\n      dup1\n      0x67a52793\n      eq\n      tag_17\n      jumpi\n      dup1\n      0x70a08231\n      eq\n      tag_18\n      jumpi\n      dup1\n      0x715018a6\n      eq\n      tag_19\n      jumpi\n      0x00\n      dup1\n      revert\n    tag_32:\n      dup1\n      0x2a5c792a\n      gt\n      tag_36\n      jumpi\n      dup1\n      0x36a43f2b\n      gt\n      tag_37\n      jumpi\n      dup1\n      0x36a43f2b\n      eq\n      tag_13\n      jumpi\n      dup1\n      0x378a653c\n      eq\n      tag_14\n      jumpi\n      dup1\n      0x3f595e29\n      eq\n      tag_15\n      jumpi\n      dup1\n      0x4d20d0f8\n      eq\n      tag_16\n      jumpi\n      0x00\n      dup1\n      revert\n    tag_37:\n      dup1\n      0x2a5c792a\n      eq\n      tag_9\n      jumpi\n      dup1\n      0x2c76d7a6\n      eq\n      tag_10\n      jumpi\n      dup1\n      0x3043d4d9\n      eq\n      tag_11\n      jumpi\n      dup1\n      0x313ce567\n      eq\n      tag_12\n      jumpi\n      0x00\n      dup1\n      revert\n    tag_36:\n      dup1\n      0x117da1ee\n      gt\n      tag_38\n      jumpi\n      dup1\n      0x117da1ee\n      eq\n      tag_5\n      jumpi\n      dup1\n      0x1694505e\n      eq\n      tag_6\n      jumpi\n      dup1\n      0x18160ddd\n      eq\n      tag_7\n      jumpi\n      dup1\n      0x23b872dd\n      eq\n      tag_8\n      jumpi\n      0x00\n      dup1\n      revert\n    tag_38:\n      dup1\n      0xd06ddd\n      eq\n      tag_2\n      jumpi\n      dup1\n      0x06fdde03\n      eq\n      tag_3\n      jumpi\n      dup1\n      0x095ea7b3\n      eq\n      tag_4\n      jumpi\n    tag_1:\n      0x00\n      dup1\n      revert\n        /* \"contracts/PYGGportfolioManagement.sol\":3192:4443  function withdrawToETH(uint256 tokenAmount, bytes memory _path) external {... */\n    tag_2:\n      callvalue\n      dup1\n      iszero\n      tag_39\n      jumpi\n      0x00\n      dup1\n      revert\n    tag_39:\n      pop\n      tag_40\n      tag_41\n      calldatasize\n      0x04\n      tag_42\n      jump\t// in\n    tag_41:\n      tag_43\n      jump\t// in\n    tag_40:\n      stop\n        /* \"@openzeppelin/contracts/token/ERC20/ERC20.sol\":2074:2163  function name() public view virtual returns (string memory) {... */\n    tag_3:\n      callvalue\n      dup1\n      iszero\n      tag_44\n      jumpi\n      0x00\n      dup1\n      revert\n    tag_44:\n      pop\n      tag_45\n      tag_46\n      jump\t// in\n    tag_45:\n      mload(0x40)\n      tag_47\n      swap2\n      swap1\n      tag_48\n      jump\t// in\n    tag_47:\n      mload(0x40)\n      dup1\n      swap2\n      sub\n      swap1\n      return\n        /* \"@openzeppelin/contracts/token/ERC20/ERC20.sol\":4293:4479  function approve(address spender, uint256 value) public virtual returns (bool) {... */\n    tag_4:\n      callvalue\n      dup1\n      iszero\n      tag_49\n      jumpi\n      0x00\n      dup1\n      revert\n    tag_49:\n      pop\n      tag_50\n      tag_51\n      calldatasize\n      0x04\n      tag_52\n      jump\t// in\n    tag_51:\n      tag_53\n      jump\t// in\n    tag_50:\n      mload(0x40)\n        /* \"#utility.yul\":3112:3126   */\n      swap1\n      iszero\n        /* \"#utility.yul\":3105:3127   */\n      iszero\n        /* \"#utility.yul\":3087:3128   */\n      dup2\n      mstore\n        /* \"#utility.yul\":3075:3077   */\n      0x20\n        /* \"#utility.yul\":3060:3078   */\n      add\n        /* \"@openzeppelin/contracts/token/ERC20/ERC20.sol\":4293:4479  function approve(address spender, uint256 value) public virtual returns (bool) {... */\n      tag_47\n        /* \"#utility.yul\":2947:3134   */\n      jump\n        /* \"contracts/SwapOperationManager.sol\":7192:7368  function setSlippageTolerance(uint256 _slippageTolerance) external {... */\n    tag_5:\n      callvalue\n      dup1\n      iszero\n      tag_56\n      jumpi\n      0x00\n      dup1\n      revert\n    tag_56:\n      pop\n      tag_40\n      tag_58\n      calldatasize\n      0x04\n      tag_59\n      jump\t// in\n    tag_58:\n      tag_60\n      jump\t// in\n        /* \"contracts/SwapOperationManager.sol\":551:592  IUniswapV2Router02 public uniswapV2Router */\n    tag_6:\n      callvalue\n      dup1\n      iszero\n      tag_61\n      jumpi\n      0x00\n      dup1\n      revert\n    tag_61:\n      pop\n      sload(0x09)\n      tag_62\n      swap1\n      sub(shl(0xa0, 0x01), 0x01)\n      and\n      dup2\n      jump\n    tag_62:\n      mload(0x40)\n      sub(shl(0xa0, 0x01), 0x01)\n        /* \"#utility.yul\":3515:3547   */\n      swap1\n      swap2\n      and\n        /* \"#utility.yul\":3497:3548   */\n      dup2\n      mstore\n        /* \"#utility.yul\":3485:3487   */\n      0x20\n        /* \"#utility.yul\":3470:3488   */\n      add\n        /* \"contracts/SwapOperationManager.sol\":551:592  IUniswapV2Router02 public uniswapV2Router */\n      tag_47\n        /* \"#utility.yul\":3324:3554   */\n      jump\n        /* \"@openzeppelin/contracts/token/ERC20/ERC20.sol\":3144:3241  function totalSupply() public view virtual returns (uint256) {... */\n    tag_7:\n      callvalue\n      dup1\n      iszero\n      tag_66\n      jumpi\n      0x00\n      dup1\n      revert\n    tag_66:\n      pop\n        /* \"@openzeppelin/contracts/token/ERC20/ERC20.sol\":3222:3234  _totalSupply */\n      sload(0x03)\n        /* \"@openzeppelin/contracts/token/ERC20/ERC20.sol\":3144:3241  function totalSupply() public view virtual returns (uint256) {... */\n    tag_67:\n      mload(0x40)\n        /* \"#utility.yul\":3705:3730   */\n      swap1\n      dup2\n      mstore\n        /* \"#utility.yul\":3693:3695   */\n      0x20\n        /* \"#utility.yul\":3678:3696   */\n      add\n        /* \"@openzeppelin/contracts/token/ERC20/ERC20.sol\":3144:3241  function totalSupply() public view virtual returns (uint256) {... */\n      tag_47\n        /* \"#utility.yul\":3559:3736   */\n      jump\n        /* \"@openzeppelin/contracts/token/ERC20/ERC20.sol\":5039:5283  function transferFrom(address from, address to, uint256 value) public virtual returns (bool) {... */\n    tag_8:\n      callvalue\n      dup1\n      iszero\n      tag_71\n      jumpi\n      0x00\n      dup1\n      revert\n    tag_71:\n      pop\n      tag_50\n      tag_73\n      calldatasize\n      0x04\n      tag_74\n      jump\t// in\n    tag_73:\n      tag_75\n      jump\t// in\n        /* \"contracts/PYGGportfolioManagement.sol\":5389:5486  function getAllTokens() external view returns (TokenInfo[] memory) {... */\n    tag_9:\n      callvalue\n      dup1\n      iszero\n      tag_77\n      jumpi\n      0x00\n      dup1\n      revert\n    tag_77:\n      pop\n      tag_78\n      tag_79\n      jump\t// in\n    tag_78:\n      mload(0x40)\n      tag_47\n      swap2\n      swap1\n      tag_81\n      jump\t// in\n        /* \"contracts/SwapOperationManager.sol\":598:632  ISwapRouter public uniswapV3Router */\n    tag_10:\n      callvalue\n      dup1\n      iszero\n      tag_82\n      jumpi\n      0x00\n      dup1\n      revert\n    tag_82:\n      pop\n      sload(0x0a)\n      tag_62\n      swap1\n      sub(shl(0xa0, 0x01), 0x01)\n      and\n      dup2\n      jump\n        /* \"contracts/PYGGportfolioManagement.sol\":4449:5088  function withdrawInKind(uint256 tokenAmount) external {... */\n    tag_11:\n      callvalue\n      dup1\n      iszero\n      tag_87\n      jumpi\n      0x00\n      dup1\n      revert\n    tag_87:\n      pop\n      tag_40\n      tag_89\n      calldatasize\n      0x04\n      tag_59\n      jump\t// in\n    tag_89:\n      tag_90\n      jump\t// in\n        /* \"@openzeppelin/contracts/token/ERC20/ERC20.sol\":3002:3084  function decimals() public view virtual returns (uint8) {... */\n    tag_12:\n      callvalue\n      dup1\n      iszero\n      tag_91\n      jumpi\n      0x00\n      dup1\n      revert\n    tag_91:\n      pop\n      mload(0x40)\n        /* \"@openzeppelin/contracts/token/ERC20/ERC20.sol\":3075:3077  18 */\n      0x12\n        /* \"#utility.yul\":5395:5431   */\n      dup2\n      mstore\n        /* \"#utility.yul\":5383:5385   */\n      0x20\n        /* \"#utility.yul\":5368:5386   */\n      add\n        /* \"@openzeppelin/contracts/token/ERC20/ERC20.sol\":3002:3084  function decimals() public view virtual returns (uint8) {... */\n      tag_47\n        /* \"#utility.yul\":5253:5437   */\n      jump\n        /* \"contracts/SwapOperationManager.sol\":494:544  mapping(address => uint256) public userFailedSwaps */\n    tag_13:\n      callvalue\n      dup1\n      iszero\n      tag_96\n      jumpi\n      0x00\n      dup1\n      revert\n    tag_96:\n      pop\n      tag_67\n      tag_98\n      calldatasize\n      0x04\n      tag_99\n      jump\t// in\n    tag_98:\n      mstore(0x20, 0x08)\n      0x00\n      swap1\n      dup2\n      mstore\n      0x40\n      swap1\n      keccak256\n      sload\n      dup2\n      jump\n        /* \"contracts/SwapOperationManager.sol\":413:444  FailedSwap[] public failedSwaps */\n    tag_14:\n      callvalue\n      dup1\n      iszero\n      tag_102\n      jumpi\n      0x00\n      dup1\n      revert\n    tag_102:\n      pop\n      tag_103\n      tag_104\n      calldatasize\n      0x04\n      tag_59\n      jump\t// in\n    tag_104:\n      tag_105\n      jump\t// in\n    tag_103:\n      0x40\n      dup1\n      mload\n      sub(shl(0xa0, 0x01), 0x01)\n        /* \"#utility.yul\":5966:5981   */\n      swap5\n      dup6\n      and\n        /* \"#utility.yul\":5948:5982   */\n      dup2\n      mstore\n        /* \"#utility.yul\":6018:6033   */\n      swap4\n      swap1\n      swap3\n      and\n        /* \"#utility.yul\":6013:6015   */\n      0x20\n        /* \"#utility.yul\":5998:6016   */\n      dup5\n      add\n        /* \"#utility.yul\":5991:6034   */\n      mstore\n        /* \"#utility.yul\":6050:6068   */\n      swap1\n      dup3\n      add\n        /* \"#utility.yul\":6043:6077   */\n      mstore\n        /* \"#utility.yul\":5898:5900   */\n      0x60\n        /* \"#utility.yul\":5883:5901   */\n      add\n        /* \"contracts/SwapOperationManager.sol\":413:444  FailedSwap[] public failedSwaps */\n      tag_47\n        /* \"#utility.yul\":5694:6083   */\n      jump\n        /* \"contracts/PYGGportfolioManagement.sol\":1179:2056  function initializeTokens(... */\n    tag_15:\n      callvalue\n      dup1\n      iszero\n      tag_108\n      jumpi\n      0x00\n      dup1\n      revert\n    tag_108:\n      pop\n      tag_40\n      tag_110\n      calldatasize\n      0x04\n      tag_111\n      jump\t// in\n    tag_110:\n      tag_112\n      jump\t// in\n        /* \"contracts/SwapOperationManager.sol\":638:677  IUniswapV3Quoter public uniswapV3Quoter */\n    tag_16:\n      callvalue\n      dup1\n      iszero\n      tag_113\n      jumpi\n      0x00\n      dup1\n      revert\n    tag_113:\n      pop\n      sload(0x0b)\n      tag_62\n      swap1\n      sub(shl(0xa0, 0x01), 0x01)\n      and\n      dup2\n      jump\n        /* \"contracts/PYGGportfolioManagement.sol\":584:608  uint16 public depositFee */\n    tag_17:\n      callvalue\n      dup1\n      iszero\n      tag_118\n      jumpi\n      0x00\n      dup1\n      revert\n    tag_118:\n      pop\n      sload(0x0e)\n      tag_119\n      swap1\n      0x010000\n      swap1\n      div\n      0xffff\n      and\n      dup2\n      jump\n    tag_119:\n      mload(0x40)\n        /* \"#utility.yul\":7954:7960   */\n      0xffff\n        /* \"#utility.yul\":7942:7961   */\n      swap1\n      swap2\n      and\n        /* \"#utility.yul\":7924:7962   */\n      dup2\n      mstore\n        /* \"#utility.yul\":7912:7914   */\n      0x20\n        /* \"#utility.yul\":7897:7915   */\n      add\n        /* \"contracts/PYGGportfolioManagement.sol\":584:608  uint16 public depositFee */\n      tag_47\n        /* \"#utility.yul\":7780:7968   */\n      jump\n        /* \"@openzeppelin/contracts/token/ERC20/ERC20.sol\":3299:3415  function balanceOf(address account) public view virtual returns (uint256) {... */\n    tag_18:\n      callvalue\n      dup1\n      iszero\n      tag_123\n      jumpi\n      0x00\n      dup1\n      revert\n    tag_123:\n      pop\n      tag_67\n      tag_125\n      calldatasize\n      0x04\n      tag_99\n      jump\t// in\n    tag_125:\n      sub(shl(0xa0, 0x01), 0x01)\n        /* \"@openzeppelin/contracts/token/ERC20/ERC20.sol\":3390:3408  _balances[account] */\n      and\n        /* \"@openzeppelin/contracts/token/ERC20/ERC20.sol\":3364:3371  uint256 */\n      0x00\n        /* \"@openzeppelin/contracts/token/ERC20/ERC20.sol\":3390:3408  _balances[account] */\n      swap1\n      dup2\n      mstore\n        /* \"@openzeppelin/contracts/token/ERC20/ERC20.sol\":3390:3399  _balances */\n      0x01\n        /* \"@openzeppelin/contracts/token/ERC20/ERC20.sol\":3390:3408  _balances[account] */\n      0x20\n      mstore\n      0x40\n      swap1\n      keccak256\n      sload\n      swap1\n        /* \"@openzeppelin/contracts/token/ERC20/ERC20.sol\":3299:3415  function balanceOf(address account) public view virtual returns (uint256) {... */\n      jump\n        /* \"@openzeppelin/contracts/access/Ownable.sol\":2293:2394  function renounceOwnership() public virtual onlyOwner {... */\n    tag_19:\n      callvalue\n      dup1\n      iszero\n      tag_128\n      jumpi\n      0x00\n      dup1\n      revert\n    tag_128:\n      pop\n      tag_40\n      tag_130\n      jump\t// in\n        /* \"contracts/SwapOperationManager.sol\":3483:3926  function swapTokenForToken(IERC20 _token, uint256 _amountIn, Version _version, address _receiver, bytes memory _path) external returns (uint256) {... */\n    tag_20:\n      callvalue\n      dup1\n      iszero\n      tag_131\n      jumpi\n      0x00\n      dup1\n      revert\n    tag_131:\n      pop\n      tag_67\n      tag_133\n      calldatasize\n      0x04\n      tag_134\n      jump\t// in\n    tag_133:\n      tag_135\n      jump\t// in\n        /* \"contracts/PYGGportfolioManagement.sol\":615:650  bool public initialedTokens = false */\n    tag_21:\n      callvalue\n      dup1\n      iszero\n      tag_137\n      jumpi\n      0x00\n      dup1\n      revert\n    tag_137:\n      pop\n      sload(0x0e)\n      tag_50\n      swap1\n      0x0100000000\n      swap1\n      div\n      0xff\n      and\n      dup2\n      jump\n        /* \"contracts/PYGGportfolioManagement.sol\":551:578  uint16 public withdrawalFee */\n    tag_22:\n      callvalue\n      dup1\n      iszero\n      tag_141\n      jumpi\n      0x00\n      dup1\n      revert\n    tag_141:\n      pop\n      sload(0x0e)\n      tag_119\n      swap1\n      0xffff\n      and\n      dup2\n      jump\n        /* \"@openzeppelin/contracts/access/Ownable.sol\":1638:1723  function owner() public view virtual returns (address) {... */\n    tag_23:\n      callvalue\n      dup1\n      iszero\n      tag_145\n      jumpi\n      0x00\n      dup1\n      revert\n    tag_145:\n      pop\n        /* \"@openzeppelin/contracts/access/Ownable.sol\":1684:1691  address */\n      0x00\n        /* \"@openzeppelin/contracts/access/Ownable.sol\":1710:1716  _owner */\n      sload\n      sub(shl(0xa0, 0x01), 0x01)\n      and\n        /* \"@openzeppelin/contracts/access/Ownable.sol\":1638:1723  function owner() public view virtual returns (address) {... */\n      jump(tag_62)\n        /* \"contracts/PYGGportfolioManagement.sol\":2062:3186  function deposit(SwapPath calldata _swapath) external payable {... */\n    tag_24:\n      tag_40\n      tag_151\n      calldatasize\n      0x04\n      tag_152\n      jump\t// in\n    tag_151:\n      tag_153\n      jump\t// in\n        /* \"@openzeppelin/contracts/token/ERC20/ERC20.sol\":2276:2369  function symbol() public view virtual returns (string memory) {... */\n    tag_25:\n      callvalue\n      dup1\n      iszero\n      tag_154\n      jumpi\n      0x00\n      dup1\n      revert\n    tag_154:\n      pop\n      tag_45\n      tag_156\n      jump\t// in\n        /* \"contracts/PYGGportfolioManagement.sol\":5094:5383  function withdrawFeesByOwner(address _receiverFeeAddress) external onlyOwner {... */\n    tag_26:\n      callvalue\n      dup1\n      iszero\n      tag_158\n      jumpi\n      0x00\n      dup1\n      revert\n    tag_158:\n      pop\n      tag_40\n      tag_160\n      calldatasize\n      0x04\n      tag_99\n      jump\t// in\n    tag_160:\n      tag_161\n      jump\t// in\n        /* \"@openzeppelin/contracts/token/ERC20/ERC20.sol\":3610:3788  function transfer(address to, uint256 value) public virtual returns (bool) {... */\n    tag_27:\n      callvalue\n      dup1\n      iszero\n      tag_162\n      jumpi\n      0x00\n      dup1\n      revert\n    tag_162:\n      pop\n      tag_50\n      tag_164\n      calldatasize\n      0x04\n      tag_52\n      jump\t// in\n    tag_164:\n      tag_165\n      jump\t// in\n        /* \"contracts/PYGGportfolioManagement.sol\":657:710  mapping(address => uint256) public ethDepositedFailed */\n    tag_28:\n      callvalue\n      dup1\n      iszero\n      tag_167\n      jumpi\n      0x00\n      dup1\n      revert\n    tag_167:\n      pop\n      tag_67\n      tag_169\n      calldatasize\n      0x04\n      tag_99\n      jump\t// in\n    tag_169:\n      mstore(0x20, 0x0f)\n      0x00\n      swap1\n      dup2\n      mstore\n      0x40\n      swap1\n      keccak256\n      sload\n      dup2\n      jump\n        /* \"contracts/SwapOperationManager.sol\":451:483  uint256 public slippageTolerance */\n    tag_29:\n      callvalue\n      dup1\n      iszero\n      tag_172\n      jumpi\n      0x00\n      dup1\n      revert\n    tag_172:\n      pop\n      tag_67\n      sload(0x07)\n      dup2\n      jump\n        /* \"@openzeppelin/contracts/token/ERC20/ERC20.sol\":3846:3986  function allowance(address owner, address spender) public view virtual returns (uint256) {... */\n    tag_30:\n      callvalue\n      dup1\n      iszero\n      tag_176\n      jumpi\n      0x00\n      dup1\n      revert\n    tag_176:\n      pop\n      tag_67\n      tag_178\n      calldatasize\n      0x04\n      tag_179\n      jump\t// in\n    tag_178:\n      sub(shl(0xa0, 0x01), 0x01)\n        /* \"@openzeppelin/contracts/token/ERC20/ERC20.sol\":3952:3970  _allowances[owner] */\n      swap2\n      dup3\n      and\n        /* \"@openzeppelin/contracts/token/ERC20/ERC20.sol\":3926:3933  uint256 */\n      0x00\n        /* \"@openzeppelin/contracts/token/ERC20/ERC20.sol\":3952:3970  _allowances[owner] */\n      swap1\n      dup2\n      mstore\n        /* \"@openzeppelin/contracts/token/ERC20/ERC20.sol\":3952:3963  _allowances */\n      0x02\n        /* \"@openzeppelin/contracts/token/ERC20/ERC20.sol\":3952:3970  _allowances[owner] */\n      0x20\n      swap1\n      dup2\n      mstore\n      0x40\n      dup1\n      dup4\n      keccak256\n        /* \"@openzeppelin/contracts/token/ERC20/ERC20.sol\":3952:3979  _allowances[owner][spender] */\n      swap4\n      swap1\n      swap5\n      and\n      dup3\n      mstore\n      swap2\n      swap1\n      swap2\n      mstore\n      keccak256\n      sload\n      swap1\n        /* \"@openzeppelin/contracts/token/ERC20/ERC20.sol\":3846:3986  function allowance(address owner, address spender) public view virtual returns (uint256) {... */\n      jump\n        /* \"@openzeppelin/contracts/access/Ownable.sol\":2543:2758  function transferOwnership(address newOwner) public virtual onlyOwner {... */\n    tag_31:\n      callvalue\n      dup1\n      iszero\n      tag_182\n      jumpi\n      0x00\n      dup1\n      revert\n    tag_182:\n      pop\n      tag_40\n      tag_184\n      calldatasize\n      0x04\n      tag_99\n      jump\t// in\n    tag_184:\n      tag_185\n      jump\t// in\n        /* \"contracts/PYGGportfolioManagement.sol\":3192:4443  function withdrawToETH(uint256 tokenAmount, bytes memory _path) external {... */\n    tag_43:\n        /* \"contracts/PYGGportfolioManagement.sol\":3297:3298  0 */\n      0x00\n        /* \"contracts/PYGGportfolioManagement.sol\":3283:3294  tokenAmount */\n      dup3\n        /* \"contracts/PYGGportfolioManagement.sol\":3283:3298  tokenAmount > 0 */\n      gt\n        /* \"contracts/PYGGportfolioManagement.sol\":3275:3305  require(tokenAmount > 0, \">0\") */\n      tag_187\n      jumpi\n      mload(0x40)\n      shl(0xe5, 0x461bcd)\n      dup2\n      mstore\n        /* \"#utility.yul\":10122:10124   */\n      0x20\n        /* \"contracts/PYGGportfolioManagement.sol\":3275:3305  require(tokenAmount > 0, \">0\") */\n      0x04\n      dup3\n      add\n        /* \"#utility.yul\":10104:10125   */\n      mstore\n        /* \"#utility.yul\":10161:10162   */\n      0x02\n        /* \"#utility.yul\":10141:10159   */\n      0x24\n      dup3\n      add\n        /* \"#utility.yul\":10134:10163   */\n      mstore\n      shl(0xf4, 0x03e3)\n        /* \"#utility.yul\":10179:10197   */\n      0x44\n      dup3\n      add\n        /* \"#utility.yul\":10172:10204   */\n      mstore\n        /* \"#utility.yul\":10221:10239   */\n      0x64\n      add\n        /* \"contracts/PYGGportfolioManagement.sol\":3275:3305  require(tokenAmount > 0, \">0\") */\n    tag_188:\n      mload(0x40)\n      dup1\n      swap2\n      sub\n      swap1\n      revert\n    tag_187:\n        /* \"contracts/PYGGportfolioManagement.sol\":3323:3349  this.balanceOf(msg.sender) */\n      mload(0x40)\n      shl(0xe0, 0x70a08231)\n      dup2\n      mstore\n        /* \"contracts/PYGGportfolioManagement.sol\":3338:3348  msg.sender */\n      caller\n        /* \"contracts/PYGGportfolioManagement.sol\":3323:3349  this.balanceOf(msg.sender) */\n      0x04\n      dup3\n      add\n        /* \"#utility.yul\":3497:3548   */\n      mstore\n        /* \"contracts/PYGGportfolioManagement.sol\":3353:3364  tokenAmount */\n      dup3\n      swap1\n        /* \"contracts/PYGGportfolioManagement.sol\":3323:3327  this */\n      address\n      swap1\n        /* \"contracts/PYGGportfolioManagement.sol\":3323:3337  this.balanceOf */\n      0x70a08231\n      swap1\n        /* \"#utility.yul\":3470:3488   */\n      0x24\n      add\n        /* \"contracts/PYGGportfolioManagement.sol\":3323:3349  this.balanceOf(msg.sender) */\n      0x20\n      mload(0x40)\n      dup1\n      dup4\n      sub\n      dup2\n      dup7\n      gas\n      staticcall\n      iszero\n      dup1\n      iszero\n      tag_192\n      jumpi\n      returndatasize\n      0x00\n      dup1\n      returndatacopy\n      revert(0x00, returndatasize)\n    tag_192:\n      pop\n      pop\n      pop\n      pop\n      mload(0x40)\n      returndatasize\n      not(0x1f)\n      0x1f\n      dup3\n      add\n      and\n      dup3\n      add\n      dup1\n      0x40\n      mstore\n      pop\n      dup2\n      add\n      swap1\n      tag_193\n      swap2\n      swap1\n      tag_194\n      jump\t// in\n    tag_193:\n        /* \"contracts/PYGGportfolioManagement.sol\":3323:3364  this.balanceOf(msg.sender) >= tokenAmount */\n      lt\n      iszero\n        /* \"contracts/PYGGportfolioManagement.sol\":3315:3382  require(this.balanceOf(msg.sender) >= tokenAmount, \"!Insufficient\") */\n      tag_195\n      jumpi\n      mload(0x40)\n      shl(0xe5, 0x461bcd)\n      dup2\n      mstore\n        /* \"#utility.yul\":10641:10643   */\n      0x20\n        /* \"contracts/PYGGportfolioManagement.sol\":3315:3382  require(this.balanceOf(msg.sender) >= tokenAmount, \"!Insufficient\") */\n      0x04\n      dup3\n      add\n        /* \"#utility.yul\":10623:10644   */\n      mstore\n        /* \"#utility.yul\":10680:10682   */\n      0x0d\n        /* \"#utility.yul\":10660:10678   */\n      0x24\n      dup3\n      add\n        /* \"#utility.yul\":10653:10683   */\n      mstore\n      shl(0x9a, 0x08525b9cdd59999a58da595b9d)\n        /* \"#utility.yul\":10699:10717   */\n      0x44\n      dup3\n      add\n        /* \"#utility.yul\":10692:10735   */\n      mstore\n        /* \"#utility.yul\":10752:10770   */\n      0x64\n      add\n        /* \"contracts/PYGGportfolioManagement.sol\":3315:3382  require(this.balanceOf(msg.sender) >= tokenAmount, \"!Insufficient\") */\n      tag_188\n        /* \"#utility.yul\":10439:10776   */\n      jump\n        /* \"contracts/PYGGportfolioManagement.sol\":3315:3382  require(this.balanceOf(msg.sender) >= tokenAmount, \"!Insufficient\") */\n    tag_195:\n        /* \"contracts/PYGGportfolioManagement.sol\":3393:3417  SwapPath memory _swapath */\n      0x00\n        /* \"contracts/PYGGportfolioManagement.sol\":3432:3437  _path */\n      dup2\n        /* \"contracts/PYGGportfolioManagement.sol\":3421:3450  abi.decode(_path, (SwapPath)) */\n      dup1\n      0x20\n      add\n      swap1\n      mload\n      dup2\n      add\n      swap1\n      tag_198\n      swap2\n      swap1\n      tag_199\n      jump\t// in\n    tag_198:\n        /* \"contracts/PYGGportfolioManagement.sol\":3392:3450  (SwapPath memory _swapath) = abi.decode(_path, (SwapPath)) */\n      swap1\n      pop\n        /* \"contracts/PYGGportfolioManagement.sol\":3461:3479  uint256 percentage */\n      0x00\n        /* \"contracts/PYGGportfolioManagement.sol\":3506:3519  totalSupply() */\n      tag_200\n        /* \"@openzeppelin/contracts/token/ERC20/ERC20.sol\":3222:3234  _totalSupply */\n      sload(0x03)\n      swap1\n        /* \"@openzeppelin/contracts/token/ERC20/ERC20.sol\":3144:3241  function totalSupply() public view virtual returns (uint256) {... */\n      jump\n        /* \"contracts/PYGGportfolioManagement.sol\":3506:3519  totalSupply() */\n    tag_200:\n        /* \"contracts/PYGGportfolioManagement.sol\":3483:3502  tokenAmount * 10000 */\n      tag_201\n        /* \"contracts/PYGGportfolioManagement.sol\":3483:3494  tokenAmount */\n      dup6\n        /* \"contracts/PYGGportfolioManagement.sol\":3497:3502  10000 */\n      0x2710\n        /* \"contracts/PYGGportfolioManagement.sol\":3483:3502  tokenAmount * 10000 */\n      tag_202\n      jump\t// in\n    tag_201:\n        /* \"contracts/PYGGportfolioManagement.sol\":3482:3519  (tokenAmount * 10000) / totalSupply() */\n      tag_203\n      swap2\n      swap1\n      tag_204\n      jump\t// in\n    tag_203:\n        /* \"contracts/PYGGportfolioManagement.sol\":3461:3519  uint256 percentage = (tokenAmount * 10000) / totalSupply() */\n      swap1\n      pop\n        /* \"contracts/PYGGportfolioManagement.sol\":3530:3543  address WETH9 */\n      0x00\n        /* \"contracts/PYGGportfolioManagement.sol\":3546:3561  uniswapV2Router */\n      0x09\n      0x00\n      swap1\n      sload\n      swap1\n      0x0100\n      exp\n      swap1\n      div\n      sub(shl(0xa0, 0x01), 0x01)\n      and\n      sub(shl(0xa0, 0x01), 0x01)\n        /* \"contracts/PYGGportfolioManagement.sol\":3546:3566  uniswapV2Router.WETH */\n      and\n      0xad5c4648\n        /* \"contracts/PYGGportfolioManagement.sol\":3546:3568  uniswapV2Router.WETH() */\n      mload(0x40)\n      dup2\n      0xffffffff\n      and\n      0xe0\n      shl\n      dup2\n      mstore\n      0x04\n      add\n      0x20\n      mload(0x40)\n      dup1\n      dup4\n      sub\n      dup2\n      dup7\n      gas\n      staticcall\n      iszero\n      dup1\n      iszero\n      tag_206\n      jumpi\n      returndatasize\n      0x00\n      dup1\n      returndatacopy\n      revert(0x00, returndatasize)\n    tag_206:\n      pop\n      pop\n      pop\n      pop\n      mload(0x40)\n      returndatasize\n      not(0x1f)\n      0x1f\n      dup3\n      add\n      and\n      dup3\n      add\n      dup1\n      0x40\n      mstore\n      pop\n      dup2\n      add\n      swap1\n      tag_207\n      swap2\n      swap1\n      tag_208\n      jump\t// in\n    tag_207:\n        /* \"contracts/PYGGportfolioManagement.sol\":3530:3568  address WETH9 = uniswapV2Router.WETH() */\n      swap1\n      pop\n        /* \"contracts/PYGGportfolioManagement.sol\":3578:3595  uint256 totalWETH */\n      0x00\n        /* \"contracts/PYGGportfolioManagement.sol\":3614:3623  uint256 i */\n      dup1\n        /* \"contracts/PYGGportfolioManagement.sol\":3609:4063  for (uint256 i = 0; i < tokens.length; i++) {... */\n    tag_209:\n        /* \"contracts/PYGGportfolioManagement.sol\":3633:3639  tokens */\n      0x0c\n        /* \"contracts/PYGGportfolioManagement.sol\":3633:3646  tokens.length */\n      sload\n        /* \"contracts/PYGGportfolioManagement.sol\":3629:3646  i < tokens.length */\n      dup2\n      lt\n        /* \"contracts/PYGGportfolioManagement.sol\":3609:4063  for (uint256 i = 0; i < tokens.length; i++) {... */\n      iszero\n      tag_210\n      jumpi\n        /* \"contracts/PYGGportfolioManagement.sol\":3667:3694  TokenInfo storage tokenInfo */\n      0x00\n        /* \"contracts/PYGGportfolioManagement.sol\":3697:3703  tokens */\n      0x0c\n        /* \"contracts/PYGGportfolioManagement.sol\":3704:3705  i */\n      dup3\n        /* \"contracts/PYGGportfolioManagement.sol\":3697:3706  tokens[i] */\n      dup2\n      sload\n      dup2\n      lt\n      tag_213\n      jumpi\n      tag_213\n      tag_214\n      jump\t// in\n    tag_213:\n      0x00\n      swap2\n      dup3\n      mstore\n      0x20\n      dup3\n      keccak256\n      0x02\n      swap2\n      swap1\n      swap2\n      mul\n      add\n        /* \"contracts/PYGGportfolioManagement.sol\":3753:3768  tokenInfo.token */\n      dup1\n      sload\n        /* \"contracts/PYGGportfolioManagement.sol\":3753:3793  tokenInfo.token.balanceOf(address(this)) */\n      mload(0x40)\n      shl(0xe0, 0x70a08231)\n      dup2\n      mstore\n        /* \"contracts/PYGGportfolioManagement.sol\":3787:3791  this */\n      address\n        /* \"contracts/PYGGportfolioManagement.sol\":3753:3793  tokenInfo.token.balanceOf(address(this)) */\n      0x04\n      dup3\n      add\n        /* \"#utility.yul\":3497:3548   */\n      mstore\n        /* \"contracts/PYGGportfolioManagement.sol\":3697:3706  tokens[i] */\n      swap2\n      swap4\n      pop\n        /* \"contracts/PYGGportfolioManagement.sol\":3810:3815  10000 */\n      0x2710\n      swap2\n        /* \"contracts/PYGGportfolioManagement.sol\":3796:3806  percentage */\n      dup9\n      swap2\n      sub(shl(0xa0, 0x01), 0x01)\n        /* \"contracts/PYGGportfolioManagement.sol\":3753:3768  tokenInfo.token */\n      and\n      swap1\n        /* \"contracts/PYGGportfolioManagement.sol\":3753:3778  tokenInfo.token.balanceOf */\n      0x70a08231\n      swap1\n        /* \"#utility.yul\":3470:3488   */\n      0x24\n      add\n        /* \"contracts/PYGGportfolioManagement.sol\":3753:3793  tokenInfo.token.balanceOf(address(this)) */\n      0x20\n      mload(0x40)\n      dup1\n      dup4\n      sub\n      dup2\n      dup7\n      gas\n      staticcall\n      iszero\n      dup1\n      iszero\n      tag_218\n      jumpi\n      returndatasize\n      0x00\n      dup1\n      returndatacopy\n      revert(0x00, returndatasize)\n    tag_218:\n      pop\n      pop\n      pop\n      pop\n      mload(0x40)\n      returndatasize\n      not(0x1f)\n      0x1f\n      dup3\n      add\n      and\n      dup3\n      add\n      dup1\n      0x40\n      mstore\n      pop\n      dup2\n      add\n      swap1\n      tag_219\n      swap2\n      swap1\n      tag_194\n      jump\t// in\n    tag_219:\n        /* \"contracts/PYGGportfolioManagement.sol\":3753:3806  tokenInfo.token.balanceOf(address(this)) * percentage */\n      tag_220\n      swap2\n      swap1\n      tag_202\n      jump\t// in\n    tag_220:\n        /* \"contracts/PYGGportfolioManagement.sol\":3752:3815  (tokenInfo.token.balanceOf(address(this)) * percentage) / 10000 */\n      tag_221\n      swap2\n      swap1\n      tag_204\n      jump\t// in\n    tag_221:\n        /* \"contracts/PYGGportfolioManagement.sol\":3860:3875  tokenInfo.token */\n      dup3\n      sload\n        /* \"contracts/PYGGportfolioManagement.sol\":3900:3916  _swapath.version */\n      0x40\n      dup10\n      add\n      mload\n        /* \"contracts/PYGGportfolioManagement.sol\":3930:3943  _swapath.path */\n      dup10\n      mload\n        /* \"contracts/PYGGportfolioManagement.sol\":3930:3946  _swapath.path[i] */\n      dup1\n      mload\n        /* \"contracts/PYGGportfolioManagement.sol\":3720:3815  uint256 tokenAmountToWithdraw = (tokenInfo.token.balanceOf(address(this)) * percentage) / 10000 */\n      swap4\n      swap5\n      pop\n        /* \"contracts/PYGGportfolioManagement.sol\":3837:3841  this */\n      address\n      swap4\n        /* \"contracts/PYGGportfolioManagement.sol\":3837:3859  this.swapTokenForToken */\n      0x74a66061\n      swap4\n      sub(shl(0xa0, 0x01), 0x01)\n        /* \"contracts/PYGGportfolioManagement.sol\":3860:3875  tokenInfo.token */\n      and\n      swap3\n        /* \"contracts/PYGGportfolioManagement.sol\":3720:3815  uint256 tokenAmountToWithdraw = (tokenInfo.token.balanceOf(address(this)) * percentage) / 10000 */\n      dup7\n      swap3\n        /* \"contracts/PYGGportfolioManagement.sol\":3900:3916  _swapath.version */\n      swap1\n      swap2\n        /* \"contracts/PYGGportfolioManagement.sol\":3918:3928  msg.sender */\n      caller\n      swap2\n        /* \"contracts/PYGGportfolioManagement.sol\":3930:3943  _swapath.path */\n      swap1\n        /* \"contracts/PYGGportfolioManagement.sol\":3944:3945  i */\n      dup11\n      swap1\n        /* \"contracts/PYGGportfolioManagement.sol\":3930:3946  _swapath.path[i] */\n      dup2\n      lt\n      tag_223\n      jumpi\n      tag_223\n      tag_214\n      jump\t// in\n    tag_223:\n      0x20\n      mul\n      0x20\n      add\n      add\n      mload\n        /* \"contracts/PYGGportfolioManagement.sol\":3837:3947  this.swapTokenForToken(tokenInfo.token, tokenAmountToWithdraw, _swapath.version, msg.sender, _swapath.path[i]) */\n      mload(0x40)\n      dup7\n      0xffffffff\n      and\n      0xe0\n      shl\n      dup2\n      mstore\n      0x04\n      add\n      tag_224\n      swap6\n      swap5\n      swap4\n      swap3\n      swap2\n      swap1\n      tag_225\n      jump\t// in\n    tag_224:\n      0x20\n      mload(0x40)\n      dup1\n      dup4\n      sub\n      dup2\n      0x00\n      dup8\n      gas\n      call\n      swap3\n      pop\n      pop\n      pop\n      dup1\n      iszero\n      tag_226\n      jumpi\n      pop\n      0x40\n      dup1\n      mload\n      0x1f\n      returndatasize\n      swap1\n      dup2\n      add\n      not(0x1f)\n      and\n      dup3\n      add\n      swap1\n      swap3\n      mstore\n      tag_227\n      swap2\n      dup2\n      add\n      swap1\n      tag_194\n      jump\t// in\n    tag_227:\n      0x01\n    tag_226:\n        /* \"contracts/PYGGportfolioManagement.sol\":3833:4053  try this.swapTokenForToken(tokenInfo.token, tokenAmountToWithdraw, _swapath.version, msg.sender, _swapath.path[i]) returns (uint256 ethReceived ) {... */\n      iszero\n      tag_232\n      jumpi\n        /* \"contracts/PYGGportfolioManagement.sol\":4001:4025  totalWETH += ethReceived */\n      tag_233\n        /* \"contracts/PYGGportfolioManagement.sol\":4014:4025  ethReceived */\n      dup2\n        /* \"contracts/PYGGportfolioManagement.sol\":4001:4025  totalWETH += ethReceived */\n      dup7\n      tag_234\n      jump\t// in\n    tag_233:\n      swap5\n      pop\n        /* \"contracts/PYGGportfolioManagement.sol\":3948:4044  returns (uint256 ethReceived ) {... */\n      pop\n        /* \"contracts/PYGGportfolioManagement.sol\":3833:4053  try this.swapTokenForToken(tokenInfo.token, tokenAmountToWithdraw, _swapath.version, msg.sender, _swapath.path[i]) returns (uint256 ethReceived ) {... */\n    tag_232:\n        /* \"contracts/PYGGportfolioManagement.sol\":3653:4063  {... */\n      pop\n      pop\n        /* \"contracts/PYGGportfolioManagement.sol\":3648:3651  i++ */\n      dup1\n      dup1\n      tag_235\n      swap1\n      tag_236\n      jump\t// in\n    tag_235:\n      swap2\n      pop\n      pop\n        /* \"contracts/PYGGportfolioManagement.sol\":3609:4063  for (uint256 i = 0; i < tokens.length; i++) {... */\n      jump(tag_209)\n    tag_210:\n      pop\n        /* \"contracts/PYGGportfolioManagement.sol\":4073:4103  _burn(msg.sender, tokenAmount) */\n      tag_237\n        /* \"contracts/PYGGportfolioManagement.sol\":4079:4089  msg.sender */\n      caller\n        /* \"contracts/PYGGportfolioManagement.sol\":4091:4102  tokenAmount */\n      dup8\n        /* \"contracts/PYGGportfolioManagement.sol\":4073:4078  _burn */\n      tag_238\n        /* \"contracts/PYGGportfolioManagement.sol\":4073:4103  _burn(msg.sender, tokenAmount) */\n      jump\t// in\n    tag_237:\n        /* \"contracts/PYGGportfolioManagement.sol\":4117:4130  totalWETH > 0 */\n      dup1\n      iszero\n        /* \"contracts/PYGGportfolioManagement.sol\":4114:4376  if(totalWETH > 0){... */\n      tag_239\n      jumpi\n        /* \"contracts/PYGGportfolioManagement.sol\":4176:4189  withdrawalFee */\n      sload(0x0e)\n        /* \"contracts/PYGGportfolioManagement.sol\":4145:4160  uint256 feeWETH */\n      0x00\n      swap1\n        /* \"contracts/PYGGportfolioManagement.sol\":4193:4198  10000 */\n      0x2710\n      swap1\n        /* \"contracts/PYGGportfolioManagement.sol\":4164:4189  totalWETH * withdrawalFee */\n      tag_240\n      swap1\n        /* \"contracts/PYGGportfolioManagement.sol\":4176:4189  withdrawalFee */\n      0xffff\n      and\n        /* \"contracts/PYGGportfolioManagement.sol\":4164:4173  totalWETH */\n      dup5\n        /* \"contracts/PYGGportfolioManagement.sol\":4164:4189  totalWETH * withdrawalFee */\n      tag_202\n      jump\t// in\n    tag_240:\n        /* \"contracts/PYGGportfolioManagement.sol\":4163:4198  (totalWETH * withdrawalFee) / 10000 */\n      tag_241\n      swap2\n      swap1\n      tag_204\n      jump\t// in\n    tag_241:\n        /* \"contracts/PYGGportfolioManagement.sol\":4145:4198  uint256 feeWETH = (totalWETH * withdrawalFee) / 10000 */\n      swap1\n      pop\n        /* \"contracts/PYGGportfolioManagement.sol\":4212:4238  uint256 amountAfterFeeWETH */\n      0x00\n        /* \"contracts/PYGGportfolioManagement.sol\":4241:4260  totalWETH - feeWETH */\n      tag_242\n        /* \"contracts/PYGGportfolioManagement.sol\":4145:4198  uint256 feeWETH = (totalWETH * withdrawalFee) / 10000 */\n      dup3\n        /* \"contracts/PYGGportfolioManagement.sol\":4241:4250  totalWETH */\n      dup5\n        /* \"contracts/PYGGportfolioManagement.sol\":4241:4260  totalWETH - feeWETH */\n      tag_243\n      jump\t// in\n    tag_242:\n        /* \"contracts/PYGGportfolioManagement.sol\":4212:4260  uint256 amountAfterFeeWETH = totalWETH - feeWETH */\n      swap1\n      pop\n        /* \"contracts/PYGGportfolioManagement.sol\":4291:4298  feeWETH */\n      dup2\n        /* \"contracts/PYGGportfolioManagement.sol\":4274:4287  totalFeesWETH */\n      0x0d\n      0x00\n        /* \"contracts/PYGGportfolioManagement.sol\":4274:4298  totalFeesWETH += feeWETH */\n      dup3\n      dup3\n      sload\n      tag_244\n      swap2\n      swap1\n      tag_234\n      jump\t// in\n    tag_244:\n      swap1\n      swap2\n      sstore\n      pop\n      pop\n        /* \"contracts/PYGGportfolioManagement.sol\":4312:4365  IWETH(WETH9).transfer(msg.sender, amountAfterFeeWETH) */\n      mload(0x40)\n      shl(0xe0, 0xa9059cbb)\n      dup2\n      mstore\n        /* \"contracts/PYGGportfolioManagement.sol\":4334:4344  msg.sender */\n      caller\n        /* \"contracts/PYGGportfolioManagement.sol\":4312:4365  IWETH(WETH9).transfer(msg.sender, amountAfterFeeWETH) */\n      0x04\n      dup3\n      add\n        /* \"#utility.yul\":15602:15653   */\n      mstore\n        /* \"#utility.yul\":15669:15687   */\n      0x24\n      dup2\n      add\n        /* \"#utility.yul\":15662:15696   */\n      dup3\n      swap1\n      mstore\n      sub(shl(0xa0, 0x01), 0x01)\n        /* \"contracts/PYGGportfolioManagement.sol\":4312:4333  IWETH(WETH9).transfer */\n      dup6\n      and\n      swap1\n      0xa9059cbb\n      swap1\n        /* \"#utility.yul\":15575:15593   */\n      0x44\n      add\n        /* \"contracts/PYGGportfolioManagement.sol\":4312:4365  IWETH(WETH9).transfer(msg.sender, amountAfterFeeWETH) */\n      0x20\n      mload(0x40)\n      dup1\n      dup4\n      sub\n      dup2\n      0x00\n      dup8\n      gas\n      call\n      iszero\n      dup1\n      iszero\n      tag_248\n      jumpi\n      returndatasize\n      0x00\n      dup1\n      returndatacopy\n      revert(0x00, returndatasize)\n    tag_248:\n      pop\n      pop\n      pop\n      pop\n      mload(0x40)\n      returndatasize\n      not(0x1f)\n      0x1f\n      dup3\n      add\n      and\n      dup3\n      add\n      dup1\n      0x40\n      mstore\n      pop\n      dup2\n      add\n      swap1\n      tag_249\n      swap2\n      swap1\n      tag_250\n      jump\t// in\n    tag_249:\n      pop\n        /* \"contracts/PYGGportfolioManagement.sol\":4131:4376  {... */\n      pop\n      pop\n        /* \"contracts/PYGGportfolioManagement.sol\":4114:4376  if(totalWETH > 0){... */\n    tag_239:\n        /* \"contracts/PYGGportfolioManagement.sol\":3265:4443  {... */\n      pop\n      pop\n      pop\n      pop\n        /* \"contracts/PYGGportfolioManagement.sol\":3192:4443  function withdrawToETH(uint256 tokenAmount, bytes memory _path) external {... */\n      pop\n      pop\n      jump\t// out\n        /* \"@openzeppelin/contracts/token/ERC20/ERC20.sol\":2074:2163  function name() public view virtual returns (string memory) {... */\n    tag_46:\n        /* \"@openzeppelin/contracts/token/ERC20/ERC20.sol\":2119:2132  string memory */\n      0x60\n        /* \"@openzeppelin/contracts/token/ERC20/ERC20.sol\":2151:2156  _name */\n      0x04\n        /* \"@openzeppelin/contracts/token/ERC20/ERC20.sol\":2144:2156  return _name */\n      dup1\n      sload\n      tag_252\n      swap1\n      tag_253\n      jump\t// in\n    tag_252:\n      dup1\n      0x1f\n      add\n      0x20\n      dup1\n      swap2\n      div\n      mul\n      0x20\n      add\n      mload(0x40)\n      swap1\n      dup2\n      add\n      0x40\n      mstore\n      dup1\n      swap3\n      swap2\n      swap1\n      dup2\n      dup2\n      mstore\n      0x20\n      add\n      dup3\n      dup1\n      sload\n      tag_254\n      swap1\n      tag_253\n      jump\t// in\n    tag_254:\n      dup1\n      iszero\n      tag_255\n      jumpi\n      dup1\n      0x1f\n      lt\n      tag_256\n      jumpi\n      0x0100\n      dup1\n      dup4\n      sload\n      div\n      mul\n      dup4\n      mstore\n      swap2\n      0x20\n      add\n      swap2\n      jump(tag_255)\n    tag_256:\n      dup3\n      add\n      swap2\n      swap1\n      0x00\n      mstore\n      keccak256(0x00, 0x20)\n      swap1\n    tag_257:\n      dup2\n      sload\n      dup2\n      mstore\n      swap1\n      0x01\n      add\n      swap1\n      0x20\n      add\n      dup1\n      dup4\n      gt\n      tag_257\n      jumpi\n      dup3\n      swap1\n      sub\n      0x1f\n      and\n      dup3\n      add\n      swap2\n    tag_255:\n      pop\n      pop\n      pop\n      pop\n      pop\n      swap1\n      pop\n        /* \"@openzeppelin/contracts/token/ERC20/ERC20.sol\":2074:2163  function name() public view virtual returns (string memory) {... */\n      swap1\n      jump\t// out\n        /* \"@openzeppelin/contracts/token/ERC20/ERC20.sol\":4293:4479  function approve(address spender, uint256 value) public virtual returns (bool) {... */\n    tag_53:\n        /* \"@openzeppelin/contracts/token/ERC20/ERC20.sol\":4366:4370  bool */\n      0x00\n        /* \"@openzeppelin/contracts/utils/Context.sol\":735:745  msg.sender */\n      caller\n        /* \"@openzeppelin/contracts/token/ERC20/ERC20.sol\":4420:4451  _approve(owner, spender, value) */\n      tag_261\n        /* \"@openzeppelin/contracts/utils/Context.sol\":735:745  msg.sender */\n      dup2\n        /* \"@openzeppelin/contracts/token/ERC20/ERC20.sol\":4436:4443  spender */\n      dup6\n        /* \"@openzeppelin/contracts/token/ERC20/ERC20.sol\":4445:4450  value */\n      dup6\n        /* \"@openzeppelin/contracts/token/ERC20/ERC20.sol\":4420:4428  _approve */\n      tag_262\n        /* \"@openzeppelin/contracts/token/ERC20/ERC20.sol\":4420:4451  _approve(owner, spender, value) */\n      jump\t// in\n    tag_261:\n        /* \"@openzeppelin/contracts/token/ERC20/ERC20.sol\":4468:4472  true */\n      0x01\n        /* \"@openzeppelin/contracts/token/ERC20/ERC20.sol\":4461:4472  return true */\n      swap2\n      pop\n      pop\n        /* \"@openzeppelin/contracts/token/ERC20/ERC20.sol\":4293:4479  function approve(address spender, uint256 value) public virtual returns (bool) {... */\n    tag_258:\n      swap3\n      swap2\n      pop\n      pop\n      jump\t// out\n        /* \"contracts/SwapOperationManager.sol\":7192:7368  function setSlippageTolerance(uint256 _slippageTolerance) external {... */\n    tag_60:\n        /* \"contracts/SwapOperationManager.sol\":7299:7304  10000 */\n      0x2710\n        /* \"contracts/SwapOperationManager.sol\":7277:7295  _slippageTolerance */\n      dup2\n        /* \"contracts/SwapOperationManager.sol\":7277:7304  _slippageTolerance <= 10000 */\n      gt\n      iszero\n        /* \"contracts/SwapOperationManager.sol\":7269:7313  require(_slippageTolerance <= 10000, \"!SLP\") */\n      tag_264\n      jumpi\n      mload(0x40)\n      shl(0xe5, 0x461bcd)\n      dup2\n      mstore\n      0x04\n      add\n      tag_188\n      swap1\n        /* \"#utility.yul\":16576:16578   */\n      0x20\n        /* \"#utility.yul\":16558:16579   */\n      dup1\n      dup3\n      mstore\n        /* \"#utility.yul\":16615:16616   */\n      0x04\n        /* \"#utility.yul\":16595:16613   */\n      swap1\n      dup3\n      add\n        /* \"#utility.yul\":16588:16617   */\n      mstore\n      shl(0xe4, 0x021534c5)\n        /* \"#utility.yul\":16648:16650   */\n      0x40\n        /* \"#utility.yul\":16633:16651   */\n      dup3\n      add\n        /* \"#utility.yul\":16626:16660   */\n      mstore\n        /* \"#utility.yul\":16692:16694   */\n      0x60\n        /* \"#utility.yul\":16677:16695   */\n      add\n      swap1\n        /* \"#utility.yul\":16374:16701   */\n      jump\n        /* \"contracts/SwapOperationManager.sol\":7269:7313  require(_slippageTolerance <= 10000, \"!SLP\") */\n    tag_264:\n        /* \"contracts/SwapOperationManager.sol\":7323:7340  slippageTolerance */\n      0x07\n        /* \"contracts/SwapOperationManager.sol\":7323:7361  slippageTolerance = _slippageTolerance */\n      sstore\n        /* \"contracts/SwapOperationManager.sol\":7192:7368  function setSlippageTolerance(uint256 _slippageTolerance) external {... */\n      jump\t// out\n        /* \"@openzeppelin/contracts/token/ERC20/ERC20.sol\":5039:5283  function transferFrom(address from, address to, uint256 value) public virtual returns (bool) {... */\n    tag_75:\n        /* \"@openzeppelin/contracts/token/ERC20/ERC20.sol\":5126:5130  bool */\n      0x00\n        /* \"@openzeppelin/contracts/utils/Context.sol\":735:745  msg.sender */\n      caller\n        /* \"@openzeppelin/contracts/token/ERC20/ERC20.sol\":5182:5219  _spendAllowance(from, spender, value) */\n      tag_270\n        /* \"@openzeppelin/contracts/token/ERC20/ERC20.sol\":5198:5202  from */\n      dup6\n        /* \"@openzeppelin/contracts/utils/Context.sol\":735:745  msg.sender */\n      dup3\n        /* \"@openzeppelin/contracts/token/ERC20/ERC20.sol\":5213:5218  value */\n      dup6\n        /* \"@openzeppelin/contracts/token/ERC20/ERC20.sol\":5182:5197  _spendAllowance */\n      tag_271\n        /* \"@openzeppelin/contracts/token/ERC20/ERC20.sol\":5182:5219  _spendAllowance(from, spender, value) */\n      jump\t// in\n    tag_270:\n        /* \"@openzeppelin/contracts/token/ERC20/ERC20.sol\":5229:5255  _transfer(from, to, value) */\n      tag_272\n        /* \"@openzeppelin/contracts/token/ERC20/ERC20.sol\":5239:5243  from */\n      dup6\n        /* \"@openzeppelin/contracts/token/ERC20/ERC20.sol\":5245:5247  to */\n      dup6\n        /* \"@openzeppelin/contracts/token/ERC20/ERC20.sol\":5249:5254  value */\n      dup6\n        /* \"@openzeppelin/contracts/token/ERC20/ERC20.sol\":5229:5238  _transfer */\n      tag_273\n        /* \"@openzeppelin/contracts/token/ERC20/ERC20.sol\":5229:5255  _transfer(from, to, value) */\n      jump\t// in\n    tag_272:\n      pop\n        /* \"@openzeppelin/contracts/token/ERC20/ERC20.sol\":5272:5276  true */\n      0x01\n      swap5\n        /* \"@openzeppelin/contracts/token/ERC20/ERC20.sol\":5039:5283  function transferFrom(address from, address to, uint256 value) public virtual returns (bool) {... */\n      swap4\n      pop\n      pop\n      pop\n      pop\n      jump\t// out\n        /* \"contracts/PYGGportfolioManagement.sol\":5389:5486  function getAllTokens() external view returns (TokenInfo[] memory) {... */\n    tag_79:\n        /* \"contracts/PYGGportfolioManagement.sol\":5436:5454  TokenInfo[] memory */\n      0x60\n        /* \"contracts/PYGGportfolioManagement.sol\":5473:5479  tokens */\n      0x0c\n        /* \"contracts/PYGGportfolioManagement.sol\":5466:5479  return tokens */\n      dup1\n      sload\n      dup1\n      0x20\n      mul\n      0x20\n      add\n      mload(0x40)\n      swap1\n      dup2\n      add\n      0x40\n      mstore\n      dup1\n      swap3\n      swap2\n      swap1\n      dup2\n      dup2\n      mstore\n      0x20\n      add\n      0x00\n      swap1\n    tag_275:\n      dup3\n      dup3\n      lt\n      iszero\n      tag_276\n      jumpi\n      0x00\n      dup5\n      dup2\n      mstore\n      0x20\n      swap1\n      dup2\n      swap1\n      keccak256\n      0x40\n      dup1\n      mload\n      dup1\n      dup3\n      add\n      swap1\n      swap2\n      mstore\n      0x02\n      dup6\n      mul\n      swap1\n      swap2\n      add\n      dup1\n      sload\n      sub(shl(0xa0, 0x01), 0x01)\n      and\n      dup3\n      mstore\n      0x01\n      swap1\n      dup2\n      add\n      sload\n      dup3\n      dup5\n      add\n      mstore\n      swap1\n      dup4\n      mstore\n      swap1\n      swap3\n      add\n      swap2\n      add\n      jump(tag_275)\n    tag_276:\n      pop\n      pop\n      pop\n      pop\n      swap1\n      pop\n        /* \"contracts/PYGGportfolioManagement.sol\":5389:5486  function getAllTokens() external view returns (TokenInfo[] memory) {... */\n      swap1\n      jump\t// out\n        /* \"contracts/PYGGportfolioManagement.sol\":4449:5088  function withdrawInKind(uint256 tokenAmount) external {... */\n    tag_90:\n        /* \"contracts/PYGGportfolioManagement.sol\":4535:4536  0 */\n      0x00\n        /* \"contracts/PYGGportfolioManagement.sol\":4521:4532  tokenAmount */\n      dup2\n        /* \"contracts/PYGGportfolioManagement.sol\":4521:4536  tokenAmount > 0 */\n      gt\n        /* \"contracts/PYGGportfolioManagement.sol\":4513:4544  require(tokenAmount > 0, \"W>0\") */\n      tag_279\n      jumpi\n      mload(0x40)\n      shl(0xe5, 0x461bcd)\n      dup2\n      mstore\n        /* \"#utility.yul\":16908:16910   */\n      0x20\n        /* \"contracts/PYGGportfolioManagement.sol\":4513:4544  require(tokenAmount > 0, \"W>0\") */\n      0x04\n      dup3\n      add\n        /* \"#utility.yul\":16890:16911   */\n      mstore\n        /* \"#utility.yul\":16947:16948   */\n      0x03\n        /* \"#utility.yul\":16927:16945   */\n      0x24\n      dup3\n      add\n        /* \"#utility.yul\":16920:16949   */\n      mstore\n      shl(0xec, 0x0573e3)\n        /* \"#utility.yul\":16965:16983   */\n      0x44\n      dup3\n      add\n        /* \"#utility.yul\":16958:16991   */\n      mstore\n        /* \"#utility.yul\":17008:17026   */\n      0x64\n      add\n        /* \"contracts/PYGGportfolioManagement.sol\":4513:4544  require(tokenAmount > 0, \"W>0\") */\n      tag_188\n        /* \"#utility.yul\":16706:17032   */\n      jump\n        /* \"contracts/PYGGportfolioManagement.sol\":4513:4544  require(tokenAmount > 0, \"W>0\") */\n    tag_279:\n        /* \"contracts/PYGGportfolioManagement.sol\":4572:4582  msg.sender */\n      caller\n        /* \"@openzeppelin/contracts/token/ERC20/ERC20.sol\":3364:3371  uint256 */\n      0x00\n        /* \"@openzeppelin/contracts/token/ERC20/ERC20.sol\":3390:3408  _balances[account] */\n      swap1\n      dup2\n      mstore\n        /* \"@openzeppelin/contracts/token/ERC20/ERC20.sol\":3390:3399  _balances */\n      0x01\n        /* \"@openzeppelin/contracts/token/ERC20/ERC20.sol\":3390:3408  _balances[account] */\n      0x20\n      mstore\n      0x40\n      swap1\n      keccak256\n      sload\n        /* \"contracts/PYGGportfolioManagement.sol\":4587:4598  tokenAmount */\n      dup2\n      gt\n        /* \"contracts/PYGGportfolioManagement.sol\":4562:4598  balanceOf(msg.sender) >= tokenAmount */\n      iszero\n        /* \"contracts/PYGGportfolioManagement.sol\":4554:4611  require(balanceOf(msg.sender) >= tokenAmount, \"!balance\") */\n      tag_283\n      jumpi\n      mload(0x40)\n      shl(0xe5, 0x461bcd)\n      dup2\n      mstore\n        /* \"#utility.yul\":17239:17241   */\n      0x20\n        /* \"contracts/PYGGportfolioManagement.sol\":4554:4611  require(balanceOf(msg.sender) >= tokenAmount, \"!balance\") */\n      0x04\n      dup3\n      add\n        /* \"#utility.yul\":17221:17242   */\n      mstore\n        /* \"#utility.yul\":17278:17279   */\n      0x08\n        /* \"#utility.yul\":17258:17276   */\n      0x24\n      dup3\n      add\n        /* \"#utility.yul\":17251:17280   */\n      mstore\n      shl(0xc0, 0x2162616c616e6365)\n        /* \"#utility.yul\":17296:17314   */\n      0x44\n      dup3\n      add\n        /* \"#utility.yul\":17289:17327   */\n      mstore\n        /* \"#utility.yul\":17344:17362   */\n      0x64\n      add\n        /* \"contracts/PYGGportfolioManagement.sol\":4554:4611  require(balanceOf(msg.sender) >= tokenAmount, \"!balance\") */\n      tag_188\n        /* \"#utility.yul\":17037:17368   */\n      jump\n        /* \"contracts/PYGGportfolioManagement.sol\":4554:4611  require(balanceOf(msg.sender) >= tokenAmount, \"!balance\") */\n    tag_283:\n        /* \"contracts/PYGGportfolioManagement.sol\":4622:4639  uint256 userShare */\n      0x00\n        /* \"contracts/PYGGportfolioManagement.sol\":4666:4679  totalSupply() */\n      tag_286\n        /* \"@openzeppelin/contracts/token/ERC20/ERC20.sol\":3222:3234  _totalSupply */\n      sload(0x03)\n      swap1\n        /* \"@openzeppelin/contracts/token/ERC20/ERC20.sol\":3144:3241  function totalSupply() public view virtual returns (uint256) {... */\n      jump\n        /* \"contracts/PYGGportfolioManagement.sol\":4666:4679  totalSupply() */\n    tag_286:\n        /* \"contracts/PYGGportfolioManagement.sol\":4643:4662  tokenAmount * 10000 */\n      tag_287\n        /* \"contracts/PYGGportfolioManagement.sol\":4643:4654  tokenAmount */\n      dup4\n        /* \"contracts/PYGGportfolioManagement.sol\":4657:4662  10000 */\n      0x2710\n        /* \"contracts/PYGGportfolioManagement.sol\":4643:4662  tokenAmount * 10000 */\n      tag_202\n      jump\t// in\n    tag_287:\n        /* \"contracts/PYGGportfolioManagement.sol\":4642:4679  (tokenAmount * 10000) / totalSupply() */\n      tag_288\n      swap2\n      swap1\n      tag_204\n      jump\t// in\n    tag_288:\n        /* \"contracts/PYGGportfolioManagement.sol\":4622:4679  uint256 userShare = (tokenAmount * 10000) / totalSupply() */\n      swap1\n      pop\n        /* \"contracts/PYGGportfolioManagement.sol\":4689:4719  _burn(msg.sender, tokenAmount) */\n      tag_289\n        /* \"contracts/PYGGportfolioManagement.sol\":4695:4705  msg.sender */\n      caller\n        /* \"contracts/PYGGportfolioManagement.sol\":4707:4718  tokenAmount */\n      dup4\n        /* \"contracts/PYGGportfolioManagement.sol\":4689:4694  _burn */\n      tag_238\n        /* \"contracts/PYGGportfolioManagement.sol\":4689:4719  _burn(msg.sender, tokenAmount) */\n      jump\t// in\n    tag_289:\n        /* \"contracts/PYGGportfolioManagement.sol\":4735:4744  uint256 i */\n      0x00\n        /* \"contracts/PYGGportfolioManagement.sol\":4730:5082  for (uint256 i = 0; i < tokens.length; i++) {... */\n    tag_290:\n        /* \"contracts/PYGGportfolioManagement.sol\":4754:4760  tokens */\n      0x0c\n        /* \"contracts/PYGGportfolioManagement.sol\":4754:4767  tokens.length */\n      sload\n        /* \"contracts/PYGGportfolioManagement.sol\":4750:4767  i < tokens.length */\n      dup2\n      lt\n        /* \"contracts/PYGGportfolioManagement.sol\":4730:5082  for (uint256 i = 0; i < tokens.length; i++) {... */\n      iszero\n      tag_291\n      jumpi\n        /* \"contracts/PYGGportfolioManagement.sol\":4788:4815  TokenInfo storage tokenInfo */\n      0x00\n        /* \"contracts/PYGGportfolioManagement.sol\":4818:4824  tokens */\n      0x0c\n        /* \"contracts/PYGGportfolioManagement.sol\":4825:4826  i */\n      dup3\n        /* \"contracts/PYGGportfolioManagement.sol\":4818:4827  tokens[i] */\n      dup2\n      sload\n      dup2\n      lt\n      tag_294\n      jumpi\n      tag_294\n      tag_214\n      jump\t// in\n    tag_294:\n      0x00\n      swap2\n      dup3\n      mstore\n      0x20\n      dup3\n      keccak256\n      0x02\n      swap2\n      swap1\n      swap2\n      mul\n      add\n        /* \"contracts/PYGGportfolioManagement.sol\":4874:4889  tokenInfo.token */\n      dup1\n      sload\n        /* \"contracts/PYGGportfolioManagement.sol\":4874:4914  tokenInfo.token.balanceOf(address(this)) */\n      mload(0x40)\n      shl(0xe0, 0x70a08231)\n      dup2\n      mstore\n        /* \"contracts/PYGGportfolioManagement.sol\":4908:4912  this */\n      address\n        /* \"contracts/PYGGportfolioManagement.sol\":4874:4914  tokenInfo.token.balanceOf(address(this)) */\n      0x04\n      dup3\n      add\n        /* \"#utility.yul\":3497:3548   */\n      mstore\n        /* \"contracts/PYGGportfolioManagement.sol\":4818:4827  tokens[i] */\n      swap2\n      swap4\n      pop\n        /* \"contracts/PYGGportfolioManagement.sol\":4930:4935  10000 */\n      0x2710\n      swap2\n        /* \"contracts/PYGGportfolioManagement.sol\":4917:4926  userShare */\n      dup7\n      swap2\n      sub(shl(0xa0, 0x01), 0x01)\n        /* \"contracts/PYGGportfolioManagement.sol\":4874:4889  tokenInfo.token */\n      and\n      swap1\n        /* \"contracts/PYGGportfolioManagement.sol\":4874:4899  tokenInfo.token.balanceOf */\n      0x70a08231\n      swap1\n        /* \"#utility.yul\":3470:3488   */\n      0x24\n      add\n        /* \"contracts/PYGGportfolioManagement.sol\":4874:4914  tokenInfo.token.balanceOf(address(this)) */\n      0x20\n      mload(0x40)\n      dup1\n      dup4\n      sub\n      dup2\n      dup7\n      gas\n      staticcall\n      iszero\n      dup1\n      iszero\n      tag_298\n      jumpi\n      returndatasize\n      0x00\n      dup1\n      returndatacopy\n      revert(0x00, returndatasize)\n    tag_298:\n      pop\n      pop\n      pop\n      pop\n      mload(0x40)\n      returndatasize\n      not(0x1f)\n      0x1f\n      dup3\n      add\n      and\n      dup3\n      add\n      dup1\n      0x40\n      mstore\n      pop\n      dup2\n      add\n      swap1\n      tag_299\n      swap2\n      swap1\n      tag_194\n      jump\t// in\n    tag_299:\n        /* \"contracts/PYGGportfolioManagement.sol\":4874:4926  tokenInfo.token.balanceOf(address(this)) * userShare */\n      tag_300\n      swap2\n      swap1\n      tag_202\n      jump\t// in\n    tag_300:\n        /* \"contracts/PYGGportfolioManagement.sol\":4873:4935  (tokenInfo.token.balanceOf(address(this)) * userShare) / 10000 */\n      tag_301\n      swap2\n      swap1\n      tag_204\n      jump\t// in\n    tag_301:\n        /* \"contracts/PYGGportfolioManagement.sol\":4841:4935  uint256 tokenAmountToWithdraw = (tokenInfo.token.balanceOf(address(this)) * userShare) / 10000 */\n      swap1\n      pop\n        /* \"contracts/PYGGportfolioManagement.sol\":4953:4978  tokenAmountToWithdraw > 0 */\n      dup1\n      iszero\n        /* \"contracts/PYGGportfolioManagement.sol\":4949:5072  if (tokenAmountToWithdraw > 0) {... */\n      tag_302\n      jumpi\n        /* \"contracts/PYGGportfolioManagement.sol\":4998:5013  tokenInfo.token */\n      dup2\n      sload\n        /* \"contracts/PYGGportfolioManagement.sol\":4998:5057  tokenInfo.token.transfer(msg.sender, tokenAmountToWithdraw) */\n      mload(0x40)\n      shl(0xe0, 0xa9059cbb)\n      dup2\n      mstore\n        /* \"contracts/PYGGportfolioManagement.sol\":5023:5033  msg.sender */\n      caller\n        /* \"contracts/PYGGportfolioManagement.sol\":4998:5057  tokenInfo.token.transfer(msg.sender, tokenAmountToWithdraw) */\n      0x04\n      dup3\n      add\n        /* \"#utility.yul\":15602:15653   */\n      mstore\n        /* \"#utility.yul\":15669:15687   */\n      0x24\n      dup2\n      add\n        /* \"#utility.yul\":15662:15696   */\n      dup4\n      swap1\n      mstore\n      sub(shl(0xa0, 0x01), 0x01)\n        /* \"contracts/PYGGportfolioManagement.sol\":4998:5013  tokenInfo.token */\n      swap1\n      swap2\n      and\n      swap1\n        /* \"contracts/PYGGportfolioManagement.sol\":4998:5022  tokenInfo.token.transfer */\n      0xa9059cbb\n      swap1\n        /* \"#utility.yul\":15575:15593   */\n      0x44\n      add\n        /* \"contracts/PYGGportfolioManagement.sol\":4998:5057  tokenInfo.token.transfer(msg.sender, tokenAmountToWithdraw) */\n      0x20\n      mload(0x40)\n      dup1\n      dup4\n      sub\n      dup2\n      0x00\n      dup8\n      gas\n      call\n      iszero\n      dup1\n      iszero\n      tag_305\n      jumpi\n      returndatasize\n      0x00\n      dup1\n      returndatacopy\n      revert(0x00, returndatasize)\n    tag_305:\n      pop\n      pop\n      pop\n      pop\n      mload(0x40)\n      returndatasize\n      not(0x1f)\n      0x1f\n      dup3\n      add\n      and\n      dup3\n      add\n      dup1\n      0x40\n      mstore\n      pop\n      dup2\n      add\n      swap1\n      tag_306\n      swap2\n      swap1\n      tag_250\n      jump\t// in\n    tag_306:\n      pop\n        /* \"contracts/PYGGportfolioManagement.sol\":4949:5072  if (tokenAmountToWithdraw > 0) {... */\n    tag_302:\n        /* \"contracts/PYGGportfolioManagement.sol\":4774:5082  {... */\n      pop\n      pop\n        /* \"contracts/PYGGportfolioManagement.sol\":4769:4772  i++ */\n      dup1\n      dup1\n      tag_307\n      swap1\n      tag_236\n      jump\t// in\n    tag_307:\n      swap2\n      pop\n      pop\n        /* \"contracts/PYGGportfolioManagement.sol\":4730:5082  for (uint256 i = 0; i < tokens.length; i++) {... */\n      jump(tag_290)\n    tag_291:\n      pop\n        /* \"contracts/PYGGportfolioManagement.sol\":4503:5088  {... */\n      pop\n        /* \"contracts/PYGGportfolioManagement.sol\":4449:5088  function withdrawInKind(uint256 tokenAmount) external {... */\n      pop\n      jump\t// out\n        /* \"contracts/SwapOperationManager.sol\":413:444  FailedSwap[] public failedSwaps */\n    tag_105:\n      0x06\n      dup2\n      dup2\n      sload\n      dup2\n      lt\n      tag_309\n      jumpi\n      0x00\n      dup1\n      revert\n    tag_309:\n      0x00\n      swap2\n      dup3\n      mstore\n      0x20\n      swap1\n      swap2\n      keccak256\n      0x03\n      swap1\n      swap2\n      mul\n      add\n      dup1\n      sload\n      0x01\n      dup3\n      add\n      sload\n      0x02\n      swap1\n      swap3\n      add\n      sload\n      sub(shl(0xa0, 0x01), 0x01)\n      swap2\n      dup3\n      and\n      swap4\n      pop\n      swap2\n      and\n      swap1\n      dup4\n      jump\t// out\n        /* \"contracts/PYGGportfolioManagement.sol\":1179:2056  function initializeTokens(... */\n    tag_112:\n        /* \"@openzeppelin/contracts/access/Ownable.sol\":1531:1544  _checkOwner() */\n      tag_312\n        /* \"@openzeppelin/contracts/access/Ownable.sol\":1531:1542  _checkOwner */\n      tag_313\n        /* \"@openzeppelin/contracts/access/Ownable.sol\":1531:1544  _checkOwner() */\n      jump\t// in\n    tag_312:\n        /* \"contracts/PYGGportfolioManagement.sol\":1391:1406  initialedTokens */\n      sload(0x0e)\n      0x0100000000\n      swap1\n      div\n      0xff\n      and\n        /* \"contracts/PYGGportfolioManagement.sol\":1390:1406  !initialedTokens */\n      iszero\n        /* \"contracts/PYGGportfolioManagement.sol\":1382:1422  require(!initialedTokens, \"initialized\") */\n      tag_315\n      jumpi\n      mload(0x40)\n      shl(0xe5, 0x461bcd)\n      dup2\n      mstore\n        /* \"#utility.yul\":17575:17577   */\n      0x20\n        /* \"contracts/PYGGportfolioManagement.sol\":1382:1422  require(!initialedTokens, \"initialized\") */\n      0x04\n      dup3\n      add\n        /* \"#utility.yul\":17557:17578   */\n      mstore\n        /* \"#utility.yul\":17614:17616   */\n      0x0b\n        /* \"#utility.yul\":17594:17612   */\n      0x24\n      dup3\n      add\n        /* \"#utility.yul\":17587:17617   */\n      mstore\n      shl(0xaa, 0x1a5b9a5d1a585b1a5e9959)\n        /* \"#utility.yul\":17633:17651   */\n      0x44\n      dup3\n      add\n        /* \"#utility.yul\":17626:17667   */\n      mstore\n        /* \"#utility.yul\":17684:17702   */\n      0x64\n      add\n        /* \"contracts/PYGGportfolioManagement.sol\":1382:1422  require(!initialedTokens, \"initialized\") */\n      tag_188\n        /* \"#utility.yul\":17373:17708   */\n      jump\n        /* \"contracts/PYGGportfolioManagement.sol\":1382:1422  require(!initialedTokens, \"initialized\") */\n    tag_315:\n        /* \"contracts/PYGGportfolioManagement.sol\":1440:1483  _tokens.length == _targetPercentages.length */\n      dup5\n      dup4\n      eq\n        /* \"contracts/PYGGportfolioManagement.sol\":1432:1506  require(_tokens.length == _targetPercentages.length, \"Mismatched lengths\") */\n      tag_318\n      jumpi\n      mload(0x40)\n      shl(0xe5, 0x461bcd)\n      dup2\n      mstore\n        /* \"#utility.yul\":17915:17917   */\n      0x20\n        /* \"contracts/PYGGportfolioManagement.sol\":1432:1506  require(_tokens.length == _targetPercentages.length, \"Mismatched lengths\") */\n      0x04\n      dup3\n      add\n        /* \"#utility.yul\":17897:17918   */\n      mstore\n        /* \"#utility.yul\":17954:17956   */\n      0x12\n        /* \"#utility.yul\":17934:17952   */\n      0x24\n      dup3\n      add\n        /* \"#utility.yul\":17927:17957   */\n      mstore\n      shl(0x70, 0x4d69736d617463686564206c656e67746873)\n        /* \"#utility.yul\":17973:17991   */\n      0x44\n      dup3\n      add\n        /* \"#utility.yul\":17966:18014   */\n      mstore\n        /* \"#utility.yul\":18031:18049   */\n      0x64\n      add\n        /* \"contracts/PYGGportfolioManagement.sol\":1432:1506  require(_tokens.length == _targetPercentages.length, \"Mismatched lengths\") */\n      tag_188\n        /* \"#utility.yul\":17713:18055   */\n      jump\n        /* \"contracts/PYGGportfolioManagement.sol\":1432:1506  require(_tokens.length == _targetPercentages.length, \"Mismatched lengths\") */\n    tag_318:\n        /* \"contracts/PYGGportfolioManagement.sol\":1516:1529  withdrawalFee */\n      0x0e\n        /* \"contracts/PYGGportfolioManagement.sol\":1516:1546  withdrawalFee = _withdrawalFee */\n      dup1\n      sload\n      0xffff\n        /* \"contracts/PYGGportfolioManagement.sol\":1556:1580  depositFee = _depositFee */\n      dup4\n      dup2\n      and\n      0x010000\n      mul\n      not(0xffffffff)\n      swap1\n      swap3\n      and\n        /* \"contracts/PYGGportfolioManagement.sol\":1516:1546  withdrawalFee = _withdrawalFee */\n      swap1\n      dup6\n      and\n        /* \"contracts/PYGGportfolioManagement.sol\":1556:1580  depositFee = _depositFee */\n      or\n      or\n      swap1\n      sstore\n        /* \"contracts/PYGGportfolioManagement.sol\":1516:1529  withdrawalFee */\n      0x00\n      dup1\n        /* \"contracts/PYGGportfolioManagement.sol\":1627:1964  for (uint256 i = 0; i < _tokens.length; i++) {... */\n    tag_321:\n        /* \"contracts/PYGGportfolioManagement.sol\":1647:1665  i < _tokens.length */\n      dup7\n      dup2\n      lt\n        /* \"contracts/PYGGportfolioManagement.sol\":1627:1964  for (uint256 i = 0; i < _tokens.length; i++) {... */\n      iszero\n      tag_322\n      jumpi\n        /* \"contracts/PYGGportfolioManagement.sol\":1719:1724  10000 */\n      0x2710\n        /* \"contracts/PYGGportfolioManagement.sol\":1694:1712  _targetPercentages */\n      dup7\n      dup7\n        /* \"contracts/PYGGportfolioManagement.sol\":1713:1714  i */\n      dup4\n        /* \"contracts/PYGGportfolioManagement.sol\":1694:1715  _targetPercentages[i] */\n      dup2\n      dup2\n      lt\n      tag_325\n      jumpi\n      tag_325\n      tag_214\n      jump\t// in\n    tag_325:\n      swap1\n      pop\n      0x20\n      mul\n      add\n      calldataload\n        /* \"contracts/PYGGportfolioManagement.sol\":1694:1724  _targetPercentages[i] <= 10000 */\n      gt\n      iszero\n        /* \"contracts/PYGGportfolioManagement.sol\":1686:1746  require(_targetPercentages[i] <= 10000, \"InvalidPercentage\") */\n      tag_326\n      jumpi\n      mload(0x40)\n      shl(0xe5, 0x461bcd)\n      dup2\n      mstore\n        /* \"#utility.yul\":18262:18264   */\n      0x20\n        /* \"contracts/PYGGportfolioManagement.sol\":1686:1746  require(_targetPercentages[i] <= 10000, \"InvalidPercentage\") */\n      0x04\n      dup3\n      add\n        /* \"#utility.yul\":18244:18265   */\n      mstore\n        /* \"#utility.yul\":18301:18303   */\n      0x11\n        /* \"#utility.yul\":18281:18299   */\n      0x24\n      dup3\n      add\n        /* \"#utility.yul\":18274:18304   */\n      mstore\n      shl(0x78, 0x496e76616c696450657263656e74616765)\n        /* \"#utility.yul\":18320:18338   */\n      0x44\n      dup3\n      add\n        /* \"#utility.yul\":18313:18360   */\n      mstore\n        /* \"#utility.yul\":18377:18395   */\n      0x64\n      add\n        /* \"contracts/PYGGportfolioManagement.sol\":1686:1746  require(_targetPercentages[i] <= 10000, \"InvalidPercentage\") */\n      tag_188\n        /* \"#utility.yul\":18060:18401   */\n      jump\n        /* \"contracts/PYGGportfolioManagement.sol\":1686:1746  require(_targetPercentages[i] <= 10000, \"InvalidPercentage\") */\n    tag_326:\n        /* \"contracts/PYGGportfolioManagement.sol\":1779:1797  _targetPercentages */\n      dup6\n      dup6\n        /* \"contracts/PYGGportfolioManagement.sol\":1798:1799  i */\n      dup3\n        /* \"contracts/PYGGportfolioManagement.sol\":1779:1800  _targetPercentages[i] */\n      dup2\n      dup2\n      lt\n      tag_330\n      jumpi\n      tag_330\n      tag_214\n      jump\t// in\n    tag_330:\n      swap1\n      pop\n      0x20\n      mul\n      add\n      calldataload\n        /* \"contracts/PYGGportfolioManagement.sol\":1760:1800  totalPercentage += _targetPercentages[i] */\n      dup3\n      tag_331\n      swap2\n      swap1\n      tag_234\n      jump\t// in\n    tag_331:\n      swap2\n      pop\n        /* \"contracts/PYGGportfolioManagement.sol\":1815:1821  tokens */\n      0x0c\n        /* \"contracts/PYGGportfolioManagement.sol\":1827:1952  TokenInfo({... */\n      mload(0x40)\n      dup1\n      0x40\n      add\n      0x40\n      mstore\n      dup1\n        /* \"contracts/PYGGportfolioManagement.sol\":1869:1876  _tokens */\n      dup11\n      dup11\n        /* \"contracts/PYGGportfolioManagement.sol\":1877:1878  i */\n      dup6\n        /* \"contracts/PYGGportfolioManagement.sol\":1869:1879  _tokens[i] */\n      dup2\n      dup2\n      lt\n      tag_333\n      jumpi\n      tag_333\n      tag_214\n      jump\t// in\n    tag_333:\n      swap1\n      pop\n      0x20\n      mul\n      add\n      0x20\n      dup2\n      add\n      swap1\n      tag_334\n      swap2\n      swap1\n      tag_99\n      jump\t// in\n    tag_334:\n      sub(shl(0xa0, 0x01), 0x01)\n        /* \"contracts/PYGGportfolioManagement.sol\":1827:1952  TokenInfo({... */\n      and\n      dup2\n      mstore\n      0x20\n      add\n        /* \"contracts/PYGGportfolioManagement.sol\":1916:1934  _targetPercentages */\n      dup9\n      dup9\n        /* \"contracts/PYGGportfolioManagement.sol\":1935:1936  i */\n      dup6\n        /* \"contracts/PYGGportfolioManagement.sol\":1916:1937  _targetPercentages[i] */\n      dup2\n      dup2\n      lt\n      tag_336\n      jumpi\n      tag_336\n      tag_214\n      jump\t// in\n    tag_336:\n      0x20\n      swap1\n      dup2\n      mul\n      swap3\n      swap1\n      swap3\n      add\n      calldataload\n        /* \"contracts/PYGGportfolioManagement.sol\":1827:1952  TokenInfo({... */\n      swap1\n      swap3\n      mstore\n        /* \"contracts/PYGGportfolioManagement.sol\":1815:1953  tokens.push(TokenInfo({... */\n      dup4\n      sload\n      0x01\n      dup1\n      dup3\n      add\n      dup7\n      sstore\n      0x00\n      swap6\n      dup7\n      mstore\n      swap5\n      dup3\n      swap1\n      keccak256\n      dup5\n      mload\n      0x02\n      swap1\n      swap3\n      mul\n      add\n      dup1\n      sload\n      not(sub(shl(0xa0, 0x01), 0x01))\n      and\n      sub(shl(0xa0, 0x01), 0x01)\n      swap1\n      swap3\n      and\n      swap2\n      swap1\n      swap2\n      or\n      dup2\n      sstore\n      swap3\n      add\n      mload\n      swap2\n      swap1\n      swap3\n      add\n      sstore\n      pop\n        /* \"contracts/PYGGportfolioManagement.sol\":1667:1670  i++ */\n      dup1\n      tag_338\n      dup2\n      tag_236\n      jump\t// in\n    tag_338:\n      swap2\n      pop\n      pop\n        /* \"contracts/PYGGportfolioManagement.sol\":1627:1964  for (uint256 i = 0; i < _tokens.length; i++) {... */\n      jump(tag_321)\n    tag_322:\n      pop\n        /* \"contracts/PYGGportfolioManagement.sol\":1981:1996  totalPercentage */\n      dup1\n        /* \"contracts/PYGGportfolioManagement.sol\":2000:2005  10000 */\n      0x2710\n        /* \"contracts/PYGGportfolioManagement.sol\":1981:2005  totalPercentage == 10000 */\n      eq\n        /* \"contracts/PYGGportfolioManagement.sol\":1973:2017  require(totalPercentage == 10000, \"t=10000\") */\n      tag_339\n      jumpi\n      mload(0x40)\n      shl(0xe5, 0x461bcd)\n      dup2\n      mstore\n        /* \"#utility.yul\":18608:18610   */\n      0x20\n        /* \"contracts/PYGGportfolioManagement.sol\":1973:2017  require(totalPercentage == 10000, \"t=10000\") */\n      0x04\n      dup3\n      add\n        /* \"#utility.yul\":18590:18611   */\n      mstore\n        /* \"#utility.yul\":18647:18648   */\n      0x07\n        /* \"#utility.yul\":18627:18645   */\n      0x24\n      dup3\n      add\n        /* \"#utility.yul\":18620:18649   */\n      mstore\n      shl(0xcc, 0x0743d313030303)\n        /* \"#utility.yul\":18665:18683   */\n      0x44\n      dup3\n      add\n        /* \"#utility.yul\":18658:18695   */\n      mstore\n        /* \"#utility.yul\":18712:18730   */\n      0x64\n      add\n        /* \"contracts/PYGGportfolioManagement.sol\":1973:2017  require(totalPercentage == 10000, \"t=10000\") */\n      tag_188\n        /* \"#utility.yul\":18406:18736   */\n      jump\n        /* \"contracts/PYGGportfolioManagement.sol\":1973:2017  require(totalPercentage == 10000, \"t=10000\") */\n    tag_339:\n      pop\n      pop\n        /* \"contracts/PYGGportfolioManagement.sol\":2027:2042  initialedTokens */\n      0x0e\n        /* \"contracts/PYGGportfolioManagement.sol\":2027:2049  initialedTokens = true */\n      dup1\n      sload\n      not(0xff00000000)\n      and\n      0x0100000000\n      or\n      swap1\n      sstore\n      pop\n      pop\n      pop\n      pop\n      pop\n        /* \"contracts/PYGGportfolioManagement.sol\":1179:2056  function initializeTokens(... */\n      jump\t// out\n        /* \"@openzeppelin/contracts/access/Ownable.sol\":2293:2394  function renounceOwnership() public virtual onlyOwner {... */\n    tag_130:\n        /* \"@openzeppelin/contracts/access/Ownable.sol\":1531:1544  _checkOwner() */\n      tag_344\n        /* \"@openzeppelin/contracts/access/Ownable.sol\":1531:1542  _checkOwner */\n      tag_313\n        /* \"@openzeppelin/contracts/access/Ownable.sol\":1531:1544  _checkOwner() */\n      jump\t// in\n    tag_344:\n        /* \"@openzeppelin/contracts/access/Ownable.sol\":2357:2387  _transferOwnership(address(0)) */\n      tag_346\n        /* \"@openzeppelin/contracts/access/Ownable.sol\":2384:2385  0 */\n      0x00\n        /* \"@openzeppelin/contracts/access/Ownable.sol\":2357:2375  _transferOwnership */\n      tag_347\n        /* \"@openzeppelin/contracts/access/Ownable.sol\":2357:2387  _transferOwnership(address(0)) */\n      jump\t// in\n    tag_346:\n        /* \"@openzeppelin/contracts/access/Ownable.sol\":2293:2394  function renounceOwnership() public virtual onlyOwner {... */\n      jump\t// out\n        /* \"contracts/SwapOperationManager.sol\":3483:3926  function swapTokenForToken(IERC20 _token, uint256 _amountIn, Version _version, address _receiver, bytes memory _path) external returns (uint256) {... */\n    tag_135:\n        /* \"contracts/SwapOperationManager.sol\":3619:3626  uint256 */\n      0x00\n      dup1\n        /* \"contracts/SwapOperationManager.sol\":3642:3650  _version */\n      dup5\n        /* \"contracts/SwapOperationManager.sol\":3642:3664  _version == Version.V2 */\n      0x01\n      dup2\n      gt\n      iszero\n      tag_353\n      jumpi\n      tag_353\n      tag_351\n      jump\t// in\n    tag_353:\n      sub\n        /* \"contracts/SwapOperationManager.sol\":3638:3920  if (_version == Version.V2) {... */\n      tag_354\n      jumpi\n        /* \"contracts/SwapOperationManager.sol\":3687:3743  swapTokenForTokenV2(_token, _amountIn, _receiver, _path) */\n      tag_355\n        /* \"contracts/SwapOperationManager.sol\":3707:3713  _token */\n      dup7\n        /* \"contracts/SwapOperationManager.sol\":3715:3724  _amountIn */\n      dup7\n        /* \"contracts/SwapOperationManager.sol\":3726:3735  _receiver */\n      dup6\n        /* \"contracts/SwapOperationManager.sol\":3737:3742  _path */\n      dup6\n        /* \"contracts/SwapOperationManager.sol\":3687:3706  swapTokenForTokenV2 */\n      tag_356\n        /* \"contracts/SwapOperationManager.sol\":3687:3743  swapTokenForTokenV2(_token, _amountIn, _receiver, _path) */\n      jump\t// in\n    tag_355:\n        /* \"contracts/SwapOperationManager.sol\":3680:3743  return swapTokenForTokenV2(_token, _amountIn, _receiver, _path) */\n      swap1\n      pop\n      jump(tag_365)\n        /* \"contracts/SwapOperationManager.sol\":3638:3920  if (_version == Version.V2) {... */\n    tag_354:\n        /* \"contracts/SwapOperationManager.sol\":3776:3786  Version.V3 */\n      0x01\n        /* \"contracts/SwapOperationManager.sol\":3764:3772  _version */\n      dup5\n        /* \"contracts/SwapOperationManager.sol\":3764:3786  _version == Version.V3 */\n      0x01\n      dup2\n      gt\n      iszero\n      tag_361\n      jumpi\n      tag_361\n      tag_351\n      jump\t// in\n    tag_361:\n      sub\n        /* \"contracts/SwapOperationManager.sol\":3760:3920  if (_version == Version.V3) {... */\n      tag_362\n      jumpi\n        /* \"contracts/SwapOperationManager.sol\":3809:3865  swapTokenForTokenV3(_token, _amountIn, _receiver, _path) */\n      tag_355\n        /* \"contracts/SwapOperationManager.sol\":3829:3835  _token */\n      dup7\n        /* \"contracts/SwapOperationManager.sol\":3837:3846  _amountIn */\n      dup7\n        /* \"contracts/SwapOperationManager.sol\":3848:3857  _receiver */\n      dup6\n        /* \"contracts/SwapOperationManager.sol\":3859:3864  _path */\n      dup6\n        /* \"contracts/SwapOperationManager.sol\":3809:3828  swapTokenForTokenV3 */\n      tag_364\n        /* \"contracts/SwapOperationManager.sol\":3809:3865  swapTokenForTokenV3(_token, _amountIn, _receiver, _path) */\n      jump\t// in\n        /* \"contracts/SwapOperationManager.sol\":3760:3920  if (_version == Version.V3) {... */\n    tag_362:\n        /* \"contracts/SwapOperationManager.sol\":3896:3909  revert(\"!UV\") */\n      mload(0x40)\n      shl(0xe5, 0x461bcd)\n      dup2\n      mstore\n        /* \"#utility.yul\":18943:18945   */\n      0x20\n        /* \"contracts/SwapOperationManager.sol\":3896:3909  revert(\"!UV\") */\n      0x04\n      dup3\n      add\n        /* \"#utility.yul\":18925:18946   */\n      mstore\n        /* \"#utility.yul\":18982:18983   */\n      0x03\n        /* \"#utility.yul\":18962:18980   */\n      0x24\n      dup3\n      add\n        /* \"#utility.yul\":18955:18984   */\n      mstore\n      shl(0xe9, 0x10aaab)\n        /* \"#utility.yul\":19000:19018   */\n      0x44\n      dup3\n      add\n        /* \"#utility.yul\":18993:19026   */\n      mstore\n        /* \"#utility.yul\":19043:19061   */\n      0x64\n      add\n        /* \"contracts/SwapOperationManager.sol\":3896:3909  revert(\"!UV\") */\n      tag_188\n        /* \"#utility.yul\":18741:19067   */\n      jump\n        /* \"contracts/SwapOperationManager.sol\":3760:3920  if (_version == Version.V3) {... */\n    tag_365:\n        /* \"contracts/SwapOperationManager.sol\":3483:3926  function swapTokenForToken(IERC20 _token, uint256 _amountIn, Version _version, address _receiver, bytes memory _path) external returns (uint256) {... */\n      swap6\n      swap5\n      pop\n      pop\n      pop\n      pop\n      pop\n      jump\t// out\n        /* \"contracts/PYGGportfolioManagement.sol\":2062:3186  function deposit(SwapPath calldata _swapath) external payable {... */\n    tag_153:\n        /* \"contracts/PYGGportfolioManagement.sol\":2162:2163  0 */\n      0x00\n        /* \"contracts/PYGGportfolioManagement.sol\":2142:2150  _swapath */\n      dup2\n        /* \"contracts/PYGGportfolioManagement.sol\":2142:2159  _swapath.amountIn */\n      0x20\n      add\n      calldataload\n        /* \"contracts/PYGGportfolioManagement.sol\":2142:2163  _swapath.amountIn > 0 */\n      gt\n        /* \"contracts/PYGGportfolioManagement.sol\":2134:2171  require(_swapath.amountIn > 0, \"!>0\") */\n      tag_370\n      jumpi\n      mload(0x40)\n      shl(0xe5, 0x461bcd)\n      dup2\n      mstore\n        /* \"#utility.yul\":19274:19276   */\n      0x20\n        /* \"contracts/PYGGportfolioManagement.sol\":2134:2171  require(_swapath.amountIn > 0, \"!>0\") */\n      0x04\n      dup3\n      add\n        /* \"#utility.yul\":19256:19277   */\n      mstore\n        /* \"#utility.yul\":19313:19314   */\n      0x03\n        /* \"#utility.yul\":19293:19311   */\n      0x24\n      dup3\n      add\n        /* \"#utility.yul\":19286:19315   */\n      mstore\n      shl(0xec, 0x0213e3)\n        /* \"#utility.yul\":19331:19349   */\n      0x44\n      dup3\n      add\n        /* \"#utility.yul\":19324:19357   */\n      mstore\n        /* \"#utility.yul\":19374:19392   */\n      0x64\n      add\n        /* \"contracts/PYGGportfolioManagement.sol\":2134:2171  require(_swapath.amountIn > 0, \"!>0\") */\n      tag_188\n        /* \"#utility.yul\":19072:19398   */\n      jump\n        /* \"contracts/PYGGportfolioManagement.sol\":2134:2171  require(_swapath.amountIn > 0, \"!>0\") */\n    tag_370:\n        /* \"contracts/PYGGportfolioManagement.sol\":2225:2235  depositFee */\n      sload(0x0e)\n        /* \"contracts/PYGGportfolioManagement.sol\":2190:2201  uint256 fee */\n      0x00\n      swap1\n        /* \"contracts/PYGGportfolioManagement.sol\":2239:2244  10000 */\n      0x2710\n      swap1\n        /* \"contracts/PYGGportfolioManagement.sol\":2205:2235  _swapath.amountIn * depositFee */\n      tag_373\n      swap1\n        /* \"contracts/PYGGportfolioManagement.sol\":2225:2235  depositFee */\n      0x010000\n      swap1\n      div\n      0xffff\n      and\n        /* \"contracts/PYGGportfolioManagement.sol\":2205:2222  _swapath.amountIn */\n      0x20\n      dup6\n      add\n      calldataload\n        /* \"contracts/PYGGportfolioManagement.sol\":2205:2235  _swapath.amountIn * depositFee */\n      tag_202\n      jump\t// in\n    tag_373:\n        /* \"contracts/PYGGportfolioManagement.sol\":2204:2244  (_swapath.amountIn * depositFee) / 10000 */\n      tag_374\n      swap2\n      swap1\n      tag_204\n      jump\t// in\n    tag_374:\n        /* \"contracts/PYGGportfolioManagement.sol\":2190:2244  uint256 fee = (_swapath.amountIn * depositFee) / 10000 */\n      swap1\n      pop\n        /* \"contracts/PYGGportfolioManagement.sol\":2254:2276  uint256 amountAfterFee */\n      0x00\n        /* \"contracts/PYGGportfolioManagement.sol\":2279:2302  _swapath.amountIn - fee */\n      tag_375\n        /* \"contracts/PYGGportfolioManagement.sol\":2190:2244  uint256 fee = (_swapath.amountIn * depositFee) / 10000 */\n      dup3\n        /* \"contracts/PYGGportfolioManagement.sol\":2279:2296  _swapath.amountIn */\n      0x20\n      dup6\n      add\n      calldataload\n        /* \"contracts/PYGGportfolioManagement.sol\":2279:2302  _swapath.amountIn - fee */\n      tag_243\n      jump\t// in\n    tag_375:\n        /* \"contracts/PYGGportfolioManagement.sol\":2254:2302  uint256 amountAfterFee = _swapath.amountIn - fee */\n      swap1\n      pop\n        /* \"contracts/PYGGportfolioManagement.sol\":2329:2332  fee */\n      dup2\n        /* \"contracts/PYGGportfolioManagement.sol\":2312:2325  totalFeesWETH */\n      0x0d\n      0x00\n        /* \"contracts/PYGGportfolioManagement.sol\":2312:2332  totalFeesWETH += fee */\n      dup3\n      dup3\n      sload\n      tag_376\n      swap2\n      swap1\n      tag_234\n      jump\t// in\n    tag_376:\n      swap1\n      swap2\n      sstore\n      pop\n      pop\n        /* \"contracts/PYGGportfolioManagement.sol\":2351:2369  amountAfterFee > 0 */\n      dup1\n        /* \"contracts/PYGGportfolioManagement.sol\":2343:2377  require(amountAfterFee > 0, \"!>0\") */\n      tag_377\n      jumpi\n      mload(0x40)\n      shl(0xe5, 0x461bcd)\n      dup2\n      mstore\n        /* \"#utility.yul\":19274:19276   */\n      0x20\n        /* \"contracts/PYGGportfolioManagement.sol\":2343:2377  require(amountAfterFee > 0, \"!>0\") */\n      0x04\n      dup3\n      add\n        /* \"#utility.yul\":19256:19277   */\n      mstore\n        /* \"#utility.yul\":19313:19314   */\n      0x03\n        /* \"#utility.yul\":19293:19311   */\n      0x24\n      dup3\n      add\n        /* \"#utility.yul\":19286:19315   */\n      mstore\n      shl(0xec, 0x0213e3)\n        /* \"#utility.yul\":19331:19349   */\n      0x44\n      dup3\n      add\n        /* \"#utility.yul\":19324:19357   */\n      mstore\n        /* \"#utility.yul\":19374:19392   */\n      0x64\n      add\n        /* \"contracts/PYGGportfolioManagement.sol\":2343:2377  require(amountAfterFee > 0, \"!>0\") */\n      tag_188\n        /* \"#utility.yul\":19072:19398   */\n      jump\n        /* \"contracts/PYGGportfolioManagement.sol\":2343:2377  require(amountAfterFee > 0, \"!>0\") */\n    tag_377:\n        /* \"contracts/PYGGportfolioManagement.sol\":2387:2420  _mint(msg.sender, amountAfterFee) */\n      tag_379\n        /* \"contracts/PYGGportfolioManagement.sol\":2393:2403  msg.sender */\n      caller\n        /* \"contracts/PYGGportfolioManagement.sol\":2405:2419  amountAfterFee */\n      dup3\n        /* \"contracts/PYGGportfolioManagement.sol\":2387:2392  _mint */\n      tag_380\n        /* \"contracts/PYGGportfolioManagement.sol\":2387:2420  _mint(msg.sender, amountAfterFee) */\n      jump\t// in\n    tag_379:\n        /* \"contracts/PYGGportfolioManagement.sol\":2436:2445  uint256 i */\n      0x00\n        /* \"contracts/PYGGportfolioManagement.sol\":2431:3180  for (uint256 i = 0; i < tokens.length; i++) {... */\n    tag_381:\n        /* \"contracts/PYGGportfolioManagement.sol\":2455:2461  tokens */\n      0x0c\n        /* \"contracts/PYGGportfolioManagement.sol\":2455:2468  tokens.length */\n      sload\n        /* \"contracts/PYGGportfolioManagement.sol\":2451:2468  i < tokens.length */\n      dup2\n      lt\n        /* \"contracts/PYGGportfolioManagement.sol\":2431:3180  for (uint256 i = 0; i < tokens.length; i++) {... */\n      iszero\n      tag_382\n      jumpi\n        /* \"contracts/PYGGportfolioManagement.sol\":2489:2516  TokenInfo storage tokenInfo */\n      0x00\n        /* \"contracts/PYGGportfolioManagement.sol\":2519:2525  tokens */\n      0x0c\n        /* \"contracts/PYGGportfolioManagement.sol\":2526:2527  i */\n      dup3\n        /* \"contracts/PYGGportfolioManagement.sol\":2519:2528  tokens[i] */\n      dup2\n      sload\n      dup2\n      lt\n      tag_385\n      jumpi\n      tag_385\n      tag_214\n      jump\t// in\n    tag_385:\n      swap1\n      0x00\n      mstore\n      keccak256(0x00, 0x20)\n      swap1\n      0x02\n      mul\n      add\n        /* \"contracts/PYGGportfolioManagement.sol\":2489:2528  TokenInfo storage tokenInfo = tokens[i] */\n      swap1\n      pop\n        /* \"contracts/PYGGportfolioManagement.sol\":2542:2559  uint256 ethAmount */\n      0x00\n        /* \"contracts/PYGGportfolioManagement.sol\":2610:2615  10000 */\n      0x2710\n        /* \"contracts/PYGGportfolioManagement.sol\":2580:2589  tokenInfo */\n      dup3\n        /* \"contracts/PYGGportfolioManagement.sol\":2580:2606  tokenInfo.targetPercentage */\n      0x01\n      add\n      sload\n        /* \"contracts/PYGGportfolioManagement.sol\":2563:2577  amountAfterFee */\n      dup6\n        /* \"contracts/PYGGportfolioManagement.sol\":2563:2606  amountAfterFee * tokenInfo.targetPercentage */\n      tag_387\n      swap2\n      swap1\n      tag_202\n      jump\t// in\n    tag_387:\n        /* \"contracts/PYGGportfolioManagement.sol\":2562:2615  (amountAfterFee * tokenInfo.targetPercentage) / 10000 */\n      tag_388\n      swap2\n      swap1\n      tag_204\n      jump\t// in\n    tag_388:\n        /* \"contracts/PYGGportfolioManagement.sol\":2542:2615  uint256 ethAmount = (amountAfterFee * tokenInfo.targetPercentage) / 10000 */\n      swap1\n      pop\n        /* \"contracts/PYGGportfolioManagement.sol\":2650:2664  amountAfterFee */\n      dup4\n        /* \"contracts/PYGGportfolioManagement.sol\":2637:2646  ethAmount */\n      dup2\n        /* \"contracts/PYGGportfolioManagement.sol\":2637:2664  ethAmount <= amountAfterFee */\n      gt\n      iszero\n        /* \"contracts/PYGGportfolioManagement.sol\":2629:2690  require(ethAmount <= amountAfterFee, \"!ethAmount<=amountfee\") */\n      tag_389\n      jumpi\n      mload(0x40)\n      shl(0xe5, 0x461bcd)\n      dup2\n      mstore\n        /* \"#utility.yul\":19605:19607   */\n      0x20\n        /* \"contracts/PYGGportfolioManagement.sol\":2629:2690  require(ethAmount <= amountAfterFee, \"!ethAmount<=amountfee\") */\n      0x04\n      dup3\n      add\n        /* \"#utility.yul\":19587:19608   */\n      mstore\n        /* \"#utility.yul\":19644:19646   */\n      0x15\n        /* \"#utility.yul\":19624:19642   */\n      0x24\n      dup3\n      add\n        /* \"#utility.yul\":19617:19647   */\n      mstore\n      shl(0x58, 0x21657468416d6f756e743c3d616d6f756e74666565)\n        /* \"#utility.yul\":19663:19681   */\n      0x44\n      dup3\n      add\n        /* \"#utility.yul\":19656:19707   */\n      mstore\n        /* \"#utility.yul\":19724:19742   */\n      0x64\n      add\n        /* \"contracts/PYGGportfolioManagement.sol\":2629:2690  require(ethAmount <= amountAfterFee, \"!ethAmount<=amountfee\") */\n      tag_188\n        /* \"#utility.yul\":19403:19748   */\n      jump\n        /* \"contracts/PYGGportfolioManagement.sol\":2629:2690  require(ethAmount <= amountAfterFee, \"!ethAmount<=amountfee\") */\n    tag_389:\n        /* \"contracts/PYGGportfolioManagement.sol\":2708:2721  ethAmount > 0 */\n      dup1\n      iszero\n        /* \"contracts/PYGGportfolioManagement.sol\":2704:3170  if (ethAmount > 0) {... */\n      tag_416\n      jumpi\n        /* \"contracts/PYGGportfolioManagement.sol\":2741:2756  tokenInfo.token */\n      dup2\n      sload\n        /* \"contracts/PYGGportfolioManagement.sol\":2773:2788  uniswapV2Router */\n      sload(0x09)\n        /* \"contracts/PYGGportfolioManagement.sol\":2741:2801  tokenInfo.token.approve(address(uniswapV2Router), ethAmount) */\n      mload(0x40)\n      shl(0xe0, 0x095ea7b3)\n      dup2\n      mstore\n      sub(shl(0xa0, 0x01), 0x01)\n        /* \"contracts/PYGGportfolioManagement.sol\":2773:2788  uniswapV2Router */\n      swap2\n      dup3\n      and\n        /* \"contracts/PYGGportfolioManagement.sol\":2741:2801  tokenInfo.token.approve(address(uniswapV2Router), ethAmount) */\n      0x04\n      dup3\n      add\n        /* \"#utility.yul\":15602:15653   */\n      mstore\n        /* \"#utility.yul\":15669:15687   */\n      0x24\n      dup2\n      add\n        /* \"#utility.yul\":15662:15696   */\n      dup5\n      swap1\n      mstore\n        /* \"contracts/PYGGportfolioManagement.sol\":2741:2756  tokenInfo.token */\n      swap2\n      and\n      swap1\n        /* \"contracts/PYGGportfolioManagement.sol\":2741:2764  tokenInfo.token.approve */\n      0x095ea7b3\n      swap1\n        /* \"#utility.yul\":15575:15593   */\n      0x44\n      add\n        /* \"contracts/PYGGportfolioManagement.sol\":2741:2801  tokenInfo.token.approve(address(uniswapV2Router), ethAmount) */\n      0x20\n      mload(0x40)\n      dup1\n      dup4\n      sub\n      dup2\n      0x00\n      dup8\n      gas\n      call\n      iszero\n      dup1\n      iszero\n      tag_395\n      jumpi\n      returndatasize\n      0x00\n      dup1\n      returndatacopy\n      revert(0x00, returndatasize)\n    tag_395:\n      pop\n      pop\n      pop\n      pop\n      mload(0x40)\n      returndatasize\n      not(0x1f)\n      0x1f\n      dup3\n      add\n      and\n      dup3\n      add\n      dup1\n      0x40\n      mstore\n      pop\n      dup2\n      add\n      swap1\n      tag_396\n      swap2\n      swap1\n      tag_250\n      jump\t// in\n    tag_396:\n      pop\n        /* \"contracts/PYGGportfolioManagement.sol\":2846:2861  tokenInfo.token */\n      dup2\n      sload\n        /* \"contracts/PYGGportfolioManagement.sol\":2823:2827  this */\n      address\n      swap1\n        /* \"contracts/PYGGportfolioManagement.sol\":2823:2845  this.swapTokenForToken */\n      0x74a66061\n      swap1\n      sub(shl(0xa0, 0x01), 0x01)\n        /* \"contracts/PYGGportfolioManagement.sol\":2846:2861  tokenInfo.token */\n      and\n        /* \"contracts/PYGGportfolioManagement.sol\":2863:2872  ethAmount */\n      dup4\n        /* \"contracts/PYGGportfolioManagement.sol\":2874:2890  _swapath.version */\n      tag_397\n      0x60\n      dup12\n      add\n      0x40\n      dup13\n      add\n      tag_398\n      jump\t// in\n    tag_397:\n        /* \"contracts/PYGGportfolioManagement.sol\":2892:2902  msg.sender */\n      caller\n        /* \"contracts/PYGGportfolioManagement.sol\":2904:2917  _swapath.path */\n      tag_399\n        /* \"contracts/PYGGportfolioManagement.sol\":2904:2912  _swapath */\n      dup13\n      dup1\n        /* \"contracts/PYGGportfolioManagement.sol\":2904:2917  _swapath.path */\n      tag_400\n      jump\t// in\n    tag_399:\n        /* \"contracts/PYGGportfolioManagement.sol\":2918:2919  i */\n      dup11\n        /* \"contracts/PYGGportfolioManagement.sol\":2904:2920  _swapath.path[i] */\n      dup2\n      dup2\n      lt\n      tag_402\n      jumpi\n      tag_402\n      tag_214\n      jump\t// in\n    tag_402:\n      swap1\n      pop\n      0x20\n      mul\n      dup2\n      add\n      swap1\n      tag_403\n      swap2\n      swap1\n      tag_404\n      jump\t// in\n    tag_403:\n        /* \"contracts/PYGGportfolioManagement.sol\":2823:2921  this.swapTokenForToken(tokenInfo.token, ethAmount, _swapath.version, msg.sender, _swapath.path[i]) */\n      mload(0x40)\n      dup8\n      0xffffffff\n      and\n      0xe0\n      shl\n      dup2\n      mstore\n      0x04\n      add\n      tag_405\n      swap7\n      swap6\n      swap5\n      swap4\n      swap3\n      swap2\n      swap1\n      tag_406\n      jump\t// in\n    tag_405:\n      0x20\n      mload(0x40)\n      dup1\n      dup4\n      sub\n      dup2\n      0x00\n      dup8\n      gas\n      call\n      swap3\n      pop\n      pop\n      pop\n      dup1\n      iszero\n      tag_407\n      jumpi\n      pop\n      0x40\n      dup1\n      mload\n      0x1f\n      returndatasize\n      swap1\n      dup2\n      add\n      not(0x1f)\n      and\n      dup3\n      add\n      swap1\n      swap3\n      mstore\n      tag_408\n      swap2\n      dup2\n      add\n      swap1\n      tag_194\n      jump\t// in\n    tag_408:\n      0x01\n    tag_407:\n        /* \"contracts/PYGGportfolioManagement.sol\":2819:3156  try this.swapTokenForToken(tokenInfo.token, ethAmount, _swapath.version, msg.sender, _swapath.path[i]) {} catch {... */\n      tag_409\n      jumpi\n        /* \"contracts/PYGGportfolioManagement.sol\":2972:2982  msg.sender */\n      caller\n        /* \"contracts/PYGGportfolioManagement.sol\":2953:2983  ethDepositedFailed[msg.sender] */\n      0x00\n      swap1\n      dup2\n      mstore\n        /* \"contracts/PYGGportfolioManagement.sol\":2953:2971  ethDepositedFailed */\n      0x0f\n        /* \"contracts/PYGGportfolioManagement.sol\":2953:2983  ethDepositedFailed[msg.sender] */\n      0x20\n      mstore\n      0x40\n      dup2\n      keccak256\n        /* \"contracts/PYGGportfolioManagement.sol\":2953:2996  ethDepositedFailed[msg.sender] += ethAmount */\n      dup1\n      sload\n        /* \"contracts/PYGGportfolioManagement.sol\":2987:2996  ethAmount */\n      dup4\n      swap3\n        /* \"contracts/PYGGportfolioManagement.sol\":2953:2983  ethDepositedFailed[msg.sender] */\n      swap1\n        /* \"contracts/PYGGportfolioManagement.sol\":2953:2996  ethDepositedFailed[msg.sender] += ethAmount */\n      tag_413\n      swap1\n        /* \"contracts/PYGGportfolioManagement.sol\":2987:2996  ethAmount */\n      dup5\n      swap1\n        /* \"contracts/PYGGportfolioManagement.sol\":2953:2996  ethDepositedFailed[msg.sender] += ethAmount */\n      tag_234\n      jump\t// in\n    tag_413:\n      swap1\n      swap2\n      sstore\n      pop\n      pop\n        /* \"contracts/PYGGportfolioManagement.sol\":3035:3085  FailedSwap(msg.sender, tokenInfo.token, ethAmount) */\n      0x40\n      dup1\n      mload\n      0x60\n      dup2\n      add\n      dup3\n      mstore\n        /* \"contracts/PYGGportfolioManagement.sol\":3046:3056  msg.sender */\n      caller\n        /* \"contracts/PYGGportfolioManagement.sol\":3035:3085  FailedSwap(msg.sender, tokenInfo.token, ethAmount) */\n      dup1\n      dup3\n      mstore\n        /* \"contracts/PYGGportfolioManagement.sol\":3058:3073  tokenInfo.token */\n      dup5\n      sload\n      sub(shl(0xa0, 0x01), 0x01)\n      swap1\n      dup2\n      and\n        /* \"contracts/PYGGportfolioManagement.sol\":3035:3085  FailedSwap(msg.sender, tokenInfo.token, ethAmount) */\n      0x20\n      dup1\n      dup6\n      add\n      swap2\n      dup3\n      mstore\n      dup5\n      dup7\n      add\n      dup8\n      dup2\n      mstore\n        /* \"contracts/PYGGportfolioManagement.sol\":3018:3029  failedSwaps */\n      0x06\n        /* \"contracts/PYGGportfolioManagement.sol\":3018:3086  failedSwaps.push(FailedSwap(msg.sender, tokenInfo.token, ethAmount)) */\n      dup1\n      sload\n        /* \"contracts/PYGGportfolioManagement.sol\":3058:3073  tokenInfo.token */\n      0x01\n        /* \"contracts/PYGGportfolioManagement.sol\":3018:3086  failedSwaps.push(FailedSwap(msg.sender, tokenInfo.token, ethAmount)) */\n      dup2\n      add\n      dup3\n      sstore\n      0x00\n      swap2\n      dup3\n      mstore\n      swap7\n      mload\n      0x03\n      swap1\n      swap8\n      mul\n      0xf652222313e28459528d920b65115c16c04f3efc82aaedc97be59f3f377c0d3f\n      dup2\n      add\n      dup1\n      sload\n      swap9\n      dup8\n      and\n      not(sub(shl(0xa0, 0x01), 0x01))\n      swap10\n      dup11\n      and\n      or\n      swap1\n      sstore\n      swap4\n      mload\n      0xf652222313e28459528d920b65115c16c04f3efc82aaedc97be59f3f377c0d40\n      dup6\n      add\n      dup1\n      sload\n      swap2\n      swap1\n      swap7\n      and\n      swap8\n      and\n      swap7\n      swap1\n      swap7\n      or\n      swap1\n      swap4\n      sstore\n      swap2\n      mload\n      0xf652222313e28459528d920b65115c16c04f3efc82aaedc97be59f3f377c0d41\n      swap1\n      swap2\n      add\n      sstore\n        /* \"contracts/PYGGportfolioManagement.sol\":3108:3135  userFailedSwaps[msg.sender] */\n      swap1\n      dup3\n      mstore\n        /* \"contracts/PYGGportfolioManagement.sol\":3108:3123  userFailedSwaps */\n      0x08\n        /* \"contracts/PYGGportfolioManagement.sol\":3108:3135  userFailedSwaps[msg.sender] */\n      swap1\n      mstore\n      swap1\n      dup2\n      keccak256\n        /* \"contracts/PYGGportfolioManagement.sol\":3108:3137  userFailedSwaps[msg.sender]++ */\n      dup1\n      sload\n      swap2\n      tag_415\n      dup4\n      tag_236\n      jump\t// in\n    tag_415:\n      swap2\n      swap1\n      pop\n      sstore\n      pop\n        /* \"contracts/PYGGportfolioManagement.sol\":2819:3156  try this.swapTokenForToken(tokenInfo.token, ethAmount, _swapath.version, msg.sender, _swapath.path[i]) {} catch {... */\n      jump(tag_416)\n    tag_409:\n      pop\n    tag_416:\n        /* \"contracts/PYGGportfolioManagement.sol\":2475:3180  {... */\n      pop\n      pop\n        /* \"contracts/PYGGportfolioManagement.sol\":2470:2473  i++ */\n      dup1\n      dup1\n      tag_417\n      swap1\n      tag_236\n      jump\t// in\n    tag_417:\n      swap2\n      pop\n      pop\n        /* \"contracts/PYGGportfolioManagement.sol\":2431:3180  for (uint256 i = 0; i < tokens.length; i++) {... */\n      jump(tag_381)\n    tag_382:\n      pop\n        /* \"contracts/PYGGportfolioManagement.sol\":2124:3186  {... */\n      pop\n      pop\n        /* \"contracts/PYGGportfolioManagement.sol\":2062:3186  function deposit(SwapPath calldata _swapath) external payable {... */\n      pop\n      jump\t// out\n        /* \"@openzeppelin/contracts/token/ERC20/ERC20.sol\":2276:2369  function symbol() public view virtual returns (string memory) {... */\n    tag_156:\n        /* \"@openzeppelin/contracts/token/ERC20/ERC20.sol\":2323:2336  string memory */\n      0x60\n        /* \"@openzeppelin/contracts/token/ERC20/ERC20.sol\":2355:2362  _symbol */\n      0x05\n        /* \"@openzeppelin/contracts/token/ERC20/ERC20.sol\":2348:2362  return _symbol */\n      dup1\n      sload\n      tag_252\n      swap1\n      tag_253\n      jump\t// in\n        /* \"contracts/PYGGportfolioManagement.sol\":5094:5383  function withdrawFeesByOwner(address _receiverFeeAddress) external onlyOwner {... */\n    tag_161:\n        /* \"@openzeppelin/contracts/access/Ownable.sol\":1531:1544  _checkOwner() */\n      tag_425\n        /* \"@openzeppelin/contracts/access/Ownable.sol\":1531:1542  _checkOwner */\n      tag_313\n        /* \"@openzeppelin/contracts/access/Ownable.sol\":1531:1544  _checkOwner() */\n      jump\t// in\n    tag_425:\n        /* \"contracts/PYGGportfolioManagement.sol\":5185:5198  totalFeesWETH */\n      sload(0x0d)\n        /* \"contracts/PYGGportfolioManagement.sol\":5185:5202  totalFeesWETH > 0 */\n      iszero\n        /* \"contracts/PYGGportfolioManagement.sol\":5181:5377  if (totalFeesWETH > 0) {... */\n      tag_427\n      jumpi\n        /* \"contracts/PYGGportfolioManagement.sol\":5269:5282  totalFeesWETH */\n      sload(0x0d)\n        /* \"contracts/PYGGportfolioManagement.sol\":5237:5287  _receiverFeeAddress.call{value: totalFeesWETH}(\"\") */\n      mload(0x40)\n        /* \"contracts/PYGGportfolioManagement.sol\":5219:5231  bool success */\n      0x00\n      swap2\n      sub(shl(0xa0, 0x01), 0x01)\n        /* \"contracts/PYGGportfolioManagement.sol\":5237:5261  _receiverFeeAddress.call */\n      dup5\n      and\n      swap2\n        /* \"contracts/PYGGportfolioManagement.sol\":5219:5231  bool success */\n      dup4\n        /* \"contracts/PYGGportfolioManagement.sol\":5237:5287  _receiverFeeAddress.call{value: totalFeesWETH}(\"\") */\n      dup2\n        /* \"contracts/PYGGportfolioManagement.sol\":5219:5231  bool success */\n      dup2\n        /* \"contracts/PYGGportfolioManagement.sol\":5237:5287  _receiverFeeAddress.call{value: totalFeesWETH}(\"\") */\n      dup2\n        /* \"contracts/PYGGportfolioManagement.sol\":5269:5282  totalFeesWETH */\n      dup6\n        /* \"contracts/PYGGportfolioManagement.sol\":5237:5261  _receiverFeeAddress.call */\n      dup8\n        /* \"contracts/PYGGportfolioManagement.sol\":5237:5287  _receiverFeeAddress.call{value: totalFeesWETH}(\"\") */\n      gas\n      call\n      swap3\n      pop\n      pop\n      pop\n      returndatasize\n      dup1\n      0x00\n      dup2\n      eq\n      tag_432\n      jumpi\n      mload(0x40)\n      swap2\n      pop\n      and(add(returndatasize, 0x3f), not(0x1f))\n      dup3\n      add\n      0x40\n      mstore\n      returndatasize\n      dup3\n      mstore\n      returndatasize\n      0x00\n      0x20\n      dup5\n      add\n      returndatacopy\n      jump(tag_431)\n    tag_432:\n      0x60\n      swap2\n      pop\n    tag_431:\n      pop\n        /* \"contracts/PYGGportfolioManagement.sol\":5218:5287  (bool success, ) = _receiverFeeAddress.call{value: totalFeesWETH}(\"\") */\n      pop\n      swap1\n      pop\n        /* \"contracts/PYGGportfolioManagement.sol\":5309:5316  success */\n      dup1\n        /* \"contracts/PYGGportfolioManagement.sol\":5301:5335  require(success, \"transferFailed\") */\n      tag_433\n      jumpi\n      mload(0x40)\n      shl(0xe5, 0x461bcd)\n      dup2\n      mstore\n        /* \"#utility.yul\":22301:22303   */\n      0x20\n        /* \"contracts/PYGGportfolioManagement.sol\":5301:5335  require(success, \"transferFailed\") */\n      0x04\n      dup3\n      add\n        /* \"#utility.yul\":22283:22304   */\n      mstore\n        /* \"#utility.yul\":22340:22342   */\n      0x0e\n        /* \"#utility.yul\":22320:22338   */\n      0x24\n      dup3\n      add\n        /* \"#utility.yul\":22313:22343   */\n      mstore\n      shl(0x92, 0x1d1c985b9cd9995c91985a5b1959)\n        /* \"#utility.yul\":22359:22377   */\n      0x44\n      dup3\n      add\n        /* \"#utility.yul\":22352:22396   */\n      mstore\n        /* \"#utility.yul\":22413:22431   */\n      0x64\n      add\n        /* \"contracts/PYGGportfolioManagement.sol\":5301:5335  require(success, \"transferFailed\") */\n      tag_188\n        /* \"#utility.yul\":22099:22437   */\n      jump\n        /* \"contracts/PYGGportfolioManagement.sol\":5301:5335  require(success, \"transferFailed\") */\n    tag_433:\n      pop\n        /* \"contracts/PYGGportfolioManagement.sol\":5365:5366  0 */\n      0x00\n        /* \"contracts/PYGGportfolioManagement.sol\":5349:5362  totalFeesWETH */\n      0x0d\n        /* \"contracts/PYGGportfolioManagement.sol\":5349:5366  totalFeesWETH = 0 */\n      sstore\n        /* \"contracts/PYGGportfolioManagement.sol\":5181:5377  if (totalFeesWETH > 0) {... */\n    tag_427:\n        /* \"contracts/PYGGportfolioManagement.sol\":5094:5383  function withdrawFeesByOwner(address _receiverFeeAddress) external onlyOwner {... */\n      pop\n      jump\t// out\n        /* \"@openzeppelin/contracts/token/ERC20/ERC20.sol\":3610:3788  function transfer(address to, uint256 value) public virtual returns (bool) {... */\n    tag_165:\n        /* \"@openzeppelin/contracts/token/ERC20/ERC20.sol\":3679:3683  bool */\n      0x00\n        /* \"@openzeppelin/contracts/utils/Context.sol\":735:745  msg.sender */\n      caller\n        /* \"@openzeppelin/contracts/token/ERC20/ERC20.sol\":3733:3760  _transfer(owner, to, value) */\n      tag_261\n        /* \"@openzeppelin/contracts/utils/Context.sol\":735:745  msg.sender */\n      dup2\n        /* \"@openzeppelin/contracts/token/ERC20/ERC20.sol\":3750:3752  to */\n      dup6\n        /* \"@openzeppelin/contracts/token/ERC20/ERC20.sol\":3754:3759  value */\n      dup6\n        /* \"@openzeppelin/contracts/token/ERC20/ERC20.sol\":3733:3742  _transfer */\n      tag_273\n        /* \"@openzeppelin/contracts/token/ERC20/ERC20.sol\":3733:3760  _transfer(owner, to, value) */\n      jump\t// in\n        /* \"@openzeppelin/contracts/access/Ownable.sol\":2543:2758  function transferOwnership(address newOwner) public virtual onlyOwner {... */\n    tag_185:\n        /* \"@openzeppelin/contracts/access/Ownable.sol\":1531:1544  _checkOwner() */\n      tag_441\n        /* \"@openzeppelin/contracts/access/Ownable.sol\":1531:1542  _checkOwner */\n      tag_313\n        /* \"@openzeppelin/contracts/access/Ownable.sol\":1531:1544  _checkOwner() */\n      jump\t// in\n    tag_441:\n      sub(shl(0xa0, 0x01), 0x01)\n        /* \"@openzeppelin/contracts/access/Ownable.sol\":2627:2649  newOwner == address(0) */\n      dup2\n      and\n        /* \"@openzeppelin/contracts/access/Ownable.sol\":2623:2714  if (newOwner == address(0)) {... */\n      tag_443\n      jumpi\n        /* \"@openzeppelin/contracts/access/Ownable.sol\":2672:2703  OwnableInvalidOwner(address(0)) */\n      mload(0x40)\n      shl(0xe0, 0x1e4fbdf7)\n      dup2\n      mstore\n        /* \"@openzeppelin/contracts/access/Ownable.sol\":2700:2701  0 */\n      0x00\n        /* \"@openzeppelin/contracts/access/Ownable.sol\":2672:2703  OwnableInvalidOwner(address(0)) */\n      0x04\n      dup3\n      add\n        /* \"#utility.yul\":3497:3548   */\n      mstore\n        /* \"#utility.yul\":3470:3488   */\n      0x24\n      add\n        /* \"@openzeppelin/contracts/access/Ownable.sol\":2672:2703  OwnableInvalidOwner(address(0)) */\n      tag_188\n        /* \"#utility.yul\":3324:3554   */\n      jump\n        /* \"@openzeppelin/contracts/access/Ownable.sol\":2623:2714  if (newOwner == address(0)) {... */\n    tag_443:\n        /* \"@openzeppelin/contracts/access/Ownable.sol\":2723:2751  _transferOwnership(newOwner) */\n      tag_427\n        /* \"@openzeppelin/contracts/access/Ownable.sol\":2742:2750  newOwner */\n      dup2\n        /* \"@openzeppelin/contracts/access/Ownable.sol\":2723:2741  _transferOwnership */\n      tag_347\n        /* \"@openzeppelin/contracts/access/Ownable.sol\":2723:2751  _transferOwnership(newOwner) */\n      jump\t// in\n        /* \"@openzeppelin/contracts/token/ERC20/ERC20.sol\":8247:8453  function _burn(address account, uint256 value) internal {... */\n    tag_238:\n      sub(shl(0xa0, 0x01), 0x01)\n        /* \"@openzeppelin/contracts/token/ERC20/ERC20.sol\":8317:8338  account == address(0) */\n      dup3\n      and\n        /* \"@openzeppelin/contracts/token/ERC20/ERC20.sol\":8313:8402  if (account == address(0)) {... */\n      tag_447\n      jumpi\n        /* \"@openzeppelin/contracts/token/ERC20/ERC20.sol\":8361:8391  ERC20InvalidSender(address(0)) */\n      mload(0x40)\n      shl(0xe1, 0x4b637e8f)\n      dup2\n      mstore\n        /* \"@openzeppelin/contracts/token/ERC20/ERC20.sol\":8388:8389  0 */\n      0x00\n        /* \"@openzeppelin/contracts/token/ERC20/ERC20.sol\":8361:8391  ERC20InvalidSender(address(0)) */\n      0x04\n      dup3\n      add\n        /* \"#utility.yul\":3497:3548   */\n      mstore\n        /* \"#utility.yul\":3470:3488   */\n      0x24\n      add\n        /* \"@openzeppelin/contracts/token/ERC20/ERC20.sol\":8361:8391  ERC20InvalidSender(address(0)) */\n      tag_188\n        /* \"#utility.yul\":3324:3554   */\n      jump\n        /* \"@openzeppelin/contracts/token/ERC20/ERC20.sol\":8313:8402  if (account == address(0)) {... */\n    tag_447:\n        /* \"@openzeppelin/contracts/token/ERC20/ERC20.sol\":8411:8446  _update(account, address(0), value) */\n      tag_449\n        /* \"@openzeppelin/contracts/token/ERC20/ERC20.sol\":8419:8426  account */\n      dup3\n        /* \"@openzeppelin/contracts/token/ERC20/ERC20.sol\":8436:8437  0 */\n      0x00\n        /* \"@openzeppelin/contracts/token/ERC20/ERC20.sol\":8440:8445  value */\n      dup4\n        /* \"@openzeppelin/contracts/token/ERC20/ERC20.sol\":8411:8418  _update */\n      tag_450\n        /* \"@openzeppelin/contracts/token/ERC20/ERC20.sol\":8411:8446  _update(account, address(0), value) */\n      jump\t// in\n    tag_449:\n        /* \"@openzeppelin/contracts/token/ERC20/ERC20.sol\":8247:8453  function _burn(address account, uint256 value) internal {... */\n      pop\n      pop\n      jump\t// out\n        /* \"@openzeppelin/contracts/token/ERC20/ERC20.sol\":8989:9117  function _approve(address owner, address spender, uint256 value) internal {... */\n    tag_262:\n        /* \"@openzeppelin/contracts/token/ERC20/ERC20.sol\":9073:9110  _approve(owner, spender, value, true) */\n      tag_291\n        /* \"@openzeppelin/contracts/token/ERC20/ERC20.sol\":9082:9087  owner */\n      dup4\n        /* \"@openzeppelin/contracts/token/ERC20/ERC20.sol\":9089:9096  spender */\n      dup4\n        /* \"@openzeppelin/contracts/token/ERC20/ERC20.sol\":9098:9103  value */\n      dup4\n        /* \"@openzeppelin/contracts/token/ERC20/ERC20.sol\":9105:9109  true */\n      0x01\n        /* \"@openzeppelin/contracts/token/ERC20/ERC20.sol\":9073:9081  _approve */\n      tag_454\n        /* \"@openzeppelin/contracts/token/ERC20/ERC20.sol\":9073:9110  _approve(owner, spender, value, true) */\n      jump\t// in\n        /* \"@openzeppelin/contracts/token/ERC20/ERC20.sol\":10663:11140  function _spendAllowance(address owner, address spender, uint256 value) internal virtual {... */\n    tag_271:\n      sub(shl(0xa0, 0x01), 0x01)\n        /* \"@openzeppelin/contracts/token/ERC20/ERC20.sol\":3952:3970  _allowances[owner] */\n      dup4\n      dup2\n      and\n        /* \"@openzeppelin/contracts/token/ERC20/ERC20.sol\":10762:10786  uint256 currentAllowance */\n      0x00\n        /* \"@openzeppelin/contracts/token/ERC20/ERC20.sol\":3952:3970  _allowances[owner] */\n      swap1\n      dup2\n      mstore\n        /* \"@openzeppelin/contracts/token/ERC20/ERC20.sol\":3952:3963  _allowances */\n      0x02\n        /* \"@openzeppelin/contracts/token/ERC20/ERC20.sol\":3952:3970  _allowances[owner] */\n      0x20\n      swap1\n      dup2\n      mstore\n      0x40\n      dup1\n      dup4\n      keccak256\n        /* \"@openzeppelin/contracts/token/ERC20/ERC20.sol\":3952:3979  _allowances[owner][spender] */\n      swap4\n      dup7\n      and\n      dup4\n      mstore\n      swap3\n      swap1\n      mstore\n      keccak256\n      sload\n      not(0x00)\n        /* \"@openzeppelin/contracts/token/ERC20/ERC20.sol\":10828:10865  currentAllowance != type(uint256).max */\n      dup2\n      eq\n        /* \"@openzeppelin/contracts/token/ERC20/ERC20.sol\":10824:11134  if (currentAllowance != type(uint256).max) {... */\n      tag_382\n      jumpi\n        /* \"@openzeppelin/contracts/token/ERC20/ERC20.sol\":10904:10909  value */\n      dup2\n        /* \"@openzeppelin/contracts/token/ERC20/ERC20.sol\":10885:10901  currentAllowance */\n      dup2\n        /* \"@openzeppelin/contracts/token/ERC20/ERC20.sol\":10885:10909  currentAllowance < value */\n      lt\n        /* \"@openzeppelin/contracts/token/ERC20/ERC20.sol\":10881:11011  if (currentAllowance < value) {... */\n      iszero\n      tag_458\n      jumpi\n        /* \"@openzeppelin/contracts/token/ERC20/ERC20.sol\":10936:10996  ERC20InsufficientAllowance(spender, currentAllowance, value) */\n      mload(0x40)\n      shl(0xe1, 0x7dc7a0d9)\n      dup2\n      mstore\n      sub(shl(0xa0, 0x01), 0x01)\n        /* \"#utility.yul\":22662:22694   */\n      dup5\n      and\n        /* \"@openzeppelin/contracts/token/ERC20/ERC20.sol\":10936:10996  ERC20InsufficientAllowance(spender, currentAllowance, value) */\n      0x04\n      dup3\n      add\n        /* \"#utility.yul\":22644:22695   */\n      mstore\n        /* \"#utility.yul\":22711:22729   */\n      0x24\n      dup2\n      add\n        /* \"#utility.yul\":22704:22738   */\n      dup3\n      swap1\n      mstore\n        /* \"#utility.yul\":22754:22772   */\n      0x44\n      dup2\n      add\n        /* \"#utility.yul\":22747:22781   */\n      dup4\n      swap1\n      mstore\n        /* \"#utility.yul\":22617:22635   */\n      0x64\n      add\n        /* \"@openzeppelin/contracts/token/ERC20/ERC20.sol\":10936:10996  ERC20InsufficientAllowance(spender, currentAllowance, value) */\n      tag_188\n        /* \"#utility.yul\":22442:22787   */\n      jump\n        /* \"@openzeppelin/contracts/token/ERC20/ERC20.sol\":10881:11011  if (currentAllowance < value) {... */\n    tag_458:\n        /* \"@openzeppelin/contracts/token/ERC20/ERC20.sol\":11052:11109  _approve(owner, spender, currentAllowance - value, false) */\n      tag_382\n        /* \"@openzeppelin/contracts/token/ERC20/ERC20.sol\":11061:11066  owner */\n      dup5\n        /* \"@openzeppelin/contracts/token/ERC20/ERC20.sol\":11068:11075  spender */\n      dup5\n        /* \"@openzeppelin/contracts/token/ERC20/ERC20.sol\":11096:11101  value */\n      dup5\n        /* \"@openzeppelin/contracts/token/ERC20/ERC20.sol\":11077:11093  currentAllowance */\n      dup5\n        /* \"@openzeppelin/contracts/token/ERC20/ERC20.sol\":11077:11101  currentAllowance - value */\n      sub\n        /* \"@openzeppelin/contracts/token/ERC20/ERC20.sol\":11103:11108  false */\n      0x00\n        /* \"@openzeppelin/contracts/token/ERC20/ERC20.sol\":11052:11060  _approve */\n      tag_454\n        /* \"@openzeppelin/contracts/token/ERC20/ERC20.sol\":11052:11109  _approve(owner, spender, currentAllowance - value, false) */\n      jump\t// in\n        /* \"@openzeppelin/contracts/token/ERC20/ERC20.sol\":5656:5956  function _transfer(address from, address to, uint256 value) internal {... */\n    tag_273:\n      sub(shl(0xa0, 0x01), 0x01)\n        /* \"@openzeppelin/contracts/token/ERC20/ERC20.sol\":5739:5757  from == address(0) */\n      dup4\n      and\n        /* \"@openzeppelin/contracts/token/ERC20/ERC20.sol\":5735:5821  if (from == address(0)) {... */\n      tag_463\n      jumpi\n        /* \"@openzeppelin/contracts/token/ERC20/ERC20.sol\":5780:5810  ERC20InvalidSender(address(0)) */\n      mload(0x40)\n      shl(0xe1, 0x4b637e8f)\n      dup2\n      mstore\n        /* \"@openzeppelin/contracts/token/ERC20/ERC20.sol\":5807:5808  0 */\n      0x00\n        /* \"@openzeppelin/contracts/token/ERC20/ERC20.sol\":5780:5810  ERC20InvalidSender(address(0)) */\n      0x04\n      dup3\n      add\n        /* \"#utility.yul\":3497:3548   */\n      mstore\n        /* \"#utility.yul\":3470:3488   */\n      0x24\n      add\n        /* \"@openzeppelin/contracts/token/ERC20/ERC20.sol\":5780:5810  ERC20InvalidSender(address(0)) */\n      tag_188\n        /* \"#utility.yul\":3324:3554   */\n      jump\n        /* \"@openzeppelin/contracts/token/ERC20/ERC20.sol\":5735:5821  if (from == address(0)) {... */\n    tag_463:\n      sub(shl(0xa0, 0x01), 0x01)\n        /* \"@openzeppelin/contracts/token/ERC20/ERC20.sol\":5834:5850  to == address(0) */\n      dup3\n      and\n        /* \"@openzeppelin/contracts/token/ERC20/ERC20.sol\":5830:5916  if (to == address(0)) {... */\n      tag_465\n      jumpi\n        /* \"@openzeppelin/contracts/token/ERC20/ERC20.sol\":5873:5905  ERC20InvalidReceiver(address(0)) */\n      mload(0x40)\n      shl(0xe0, 0xec442f05)\n      dup2\n      mstore\n        /* \"@openzeppelin/contracts/token/ERC20/ERC20.sol\":5902:5903  0 */\n      0x00\n        /* \"@openzeppelin/contracts/token/ERC20/ERC20.sol\":5873:5905  ERC20InvalidReceiver(address(0)) */\n      0x04\n      dup3\n      add\n        /* \"#utility.yul\":3497:3548   */\n      mstore\n        /* \"#utility.yul\":3470:3488   */\n      0x24\n      add\n        /* \"@openzeppelin/contracts/token/ERC20/ERC20.sol\":5873:5905  ERC20InvalidReceiver(address(0)) */\n      tag_188\n        /* \"#utility.yul\":3324:3554   */\n      jump\n        /* \"@openzeppelin/contracts/token/ERC20/ERC20.sol\":5830:5916  if (to == address(0)) {... */\n    tag_465:\n        /* \"@openzeppelin/contracts/token/ERC20/ERC20.sol\":5925:5949  _update(from, to, value) */\n      tag_291\n        /* \"@openzeppelin/contracts/token/ERC20/ERC20.sol\":5933:5937  from */\n      dup4\n        /* \"@openzeppelin/contracts/token/ERC20/ERC20.sol\":5939:5941  to */\n      dup4\n        /* \"@openzeppelin/contracts/token/ERC20/ERC20.sol\":5943:5948  value */\n      dup4\n        /* \"@openzeppelin/contracts/token/ERC20/ERC20.sol\":5925:5932  _update */\n      tag_450\n        /* \"@openzeppelin/contracts/token/ERC20/ERC20.sol\":5925:5949  _update(from, to, value) */\n      jump\t// in\n        /* \"@openzeppelin/contracts/access/Ownable.sol\":1796:1958  function _checkOwner() internal view virtual {... */\n    tag_313:\n        /* \"@openzeppelin/contracts/access/Ownable.sol\":1684:1691  address */\n      0x00\n        /* \"@openzeppelin/contracts/access/Ownable.sol\":1710:1716  _owner */\n      sload\n      sub(shl(0xa0, 0x01), 0x01)\n      and\n        /* \"@openzeppelin/contracts/utils/Context.sol\":735:745  msg.sender */\n      caller\n        /* \"@openzeppelin/contracts/access/Ownable.sol\":1855:1878  owner() != _msgSender() */\n      eq\n        /* \"@openzeppelin/contracts/access/Ownable.sol\":1851:1952  if (owner() != _msgSender()) {... */\n      tag_346\n      jumpi\n        /* \"@openzeppelin/contracts/access/Ownable.sol\":1901:1941  OwnableUnauthorizedAccount(_msgSender()) */\n      mload(0x40)\n      shl(0xe0, 0x118cdaa7)\n      dup2\n      mstore\n        /* \"@openzeppelin/contracts/utils/Context.sol\":735:745  msg.sender */\n      caller\n        /* \"@openzeppelin/contracts/access/Ownable.sol\":1901:1941  OwnableUnauthorizedAccount(_msgSender()) */\n      0x04\n      dup3\n      add\n        /* \"#utility.yul\":3497:3548   */\n      mstore\n        /* \"#utility.yul\":3470:3488   */\n      0x24\n      add\n        /* \"@openzeppelin/contracts/access/Ownable.sol\":1901:1941  OwnableUnauthorizedAccount(_msgSender()) */\n      tag_188\n        /* \"#utility.yul\":3324:3554   */\n      jump\n        /* \"@openzeppelin/contracts/access/Ownable.sol\":2912:3099  function _transferOwnership(address newOwner) internal virtual {... */\n    tag_347:\n        /* \"@openzeppelin/contracts/access/Ownable.sol\":2985:3001  address oldOwner */\n      0x00\n        /* \"@openzeppelin/contracts/access/Ownable.sol\":3004:3010  _owner */\n      dup1\n      sload\n      sub(shl(0xa0, 0x01), 0x01)\n        /* \"@openzeppelin/contracts/access/Ownable.sol\":3020:3037  _owner = newOwner */\n      dup4\n      dup2\n      and\n      not(sub(shl(0xa0, 0x01), 0x01))\n      dup4\n      and\n      dup2\n      or\n      dup5\n      sstore\n        /* \"@openzeppelin/contracts/access/Ownable.sol\":3052:3092  OwnershipTransferred(oldOwner, newOwner) */\n      mload(0x40)\n        /* \"@openzeppelin/contracts/access/Ownable.sol\":3004:3010  _owner */\n      swap2\n      swap1\n      swap3\n      and\n      swap3\n      dup4\n      swap2\n        /* \"@openzeppelin/contracts/access/Ownable.sol\":3052:3092  OwnershipTransferred(oldOwner, newOwner) */\n      0x8be0079c531659141344cd1fd0a4f28419497f9722a3daafe3b4186f6b6457e0\n      swap2\n        /* \"@openzeppelin/contracts/access/Ownable.sol\":2985:3001  address oldOwner */\n      swap1\n        /* \"@openzeppelin/contracts/access/Ownable.sol\":3052:3092  OwnershipTransferred(oldOwner, newOwner) */\n      log3\n        /* \"@openzeppelin/contracts/access/Ownable.sol\":2975:3099  {... */\n      pop\n        /* \"@openzeppelin/contracts/access/Ownable.sol\":2912:3099  function _transferOwnership(address newOwner) internal virtual {... */\n      pop\n      jump\t// out\n        /* \"contracts/SwapOperationManager.sol\":4436:5166  function swapTokenForTokenV2(IERC20 _token, uint256 _amountIn, address receiver, bytes memory path) internal returns (uint256) {... */\n    tag_356:\n        /* \"contracts/SwapOperationManager.sol\":4554:4561  uint256 */\n      0x00\n        /* \"contracts/SwapOperationManager.sol\":4573:4599  address[] memory pathArray */\n      dup1\n        /* \"contracts/SwapOperationManager.sol\":4613:4617  path */\n      dup3\n        /* \"contracts/SwapOperationManager.sol\":4602:4631  abi.decode(path, (address[])) */\n      dup1\n      0x20\n      add\n      swap1\n      mload\n      dup2\n      add\n      swap1\n      tag_476\n      swap2\n      swap1\n      tag_477\n      jump\t// in\n    tag_476:\n        /* \"contracts/SwapOperationManager.sol\":4676:4691  uniswapV2Router */\n      sload(0x09)\n        /* \"contracts/SwapOperationManager.sol\":4676:4727  uniswapV2Router.getAmountsOut(_amountIn, pathArray) */\n      mload(0x40)\n      shl(0xe0, 0xd06ca61f)\n      dup2\n      mstore\n        /* \"contracts/SwapOperationManager.sol\":4573:4631  address[] memory pathArray = abi.decode(path, (address[])) */\n      swap2\n      swap3\n      pop\n        /* \"contracts/SwapOperationManager.sol\":4641:4673  uint256[] memory expectedAmounts */\n      0x00\n      swap2\n      sub(shl(0xa0, 0x01), 0x01)\n        /* \"contracts/SwapOperationManager.sol\":4676:4691  uniswapV2Router */\n      swap1\n      swap2\n      and\n      swap1\n        /* \"contracts/SwapOperationManager.sol\":4676:4705  uniswapV2Router.getAmountsOut */\n      0xd06ca61f\n      swap1\n        /* \"contracts/SwapOperationManager.sol\":4676:4727  uniswapV2Router.getAmountsOut(_amountIn, pathArray) */\n      tag_478\n      swap1\n        /* \"contracts/SwapOperationManager.sol\":4706:4715  _amountIn */\n      dup10\n      swap1\n        /* \"contracts/SwapOperationManager.sol\":4573:4631  address[] memory pathArray = abi.decode(path, (address[])) */\n      dup7\n      swap1\n        /* \"contracts/SwapOperationManager.sol\":4676:4727  uniswapV2Router.getAmountsOut(_amountIn, pathArray) */\n      0x04\n      add\n      tag_479\n      jump\t// in\n    tag_478:\n      0x00\n      mload(0x40)\n      dup1\n      dup4\n      sub\n      dup2\n      dup7\n      gas\n      staticcall\n      iszero\n      dup1\n      iszero\n      tag_481\n      jumpi\n      returndatasize\n      0x00\n      dup1\n      returndatacopy\n      revert(0x00, returndatasize)\n    tag_481:\n      pop\n      pop\n      pop\n      pop\n      mload(0x40)\n      returndatasize\n      0x00\n      dup3\n      returndatacopy\n      0x1f\n      returndatasize\n      swap1\n      dup2\n      add\n      not(0x1f)\n      and\n      dup3\n      add\n      0x40\n      mstore\n      tag_482\n      swap2\n      swap1\n      dup2\n      add\n      swap1\n      tag_483\n      jump\t// in\n    tag_482:\n        /* \"contracts/SwapOperationManager.sol\":4641:4727  uint256[] memory expectedAmounts = uniswapV2Router.getAmountsOut(_amountIn, pathArray) */\n      swap1\n      pop\n        /* \"contracts/SwapOperationManager.sol\":4737:4761  uint256 amountOutMinimum */\n      0x00\n        /* \"contracts/SwapOperationManager.sol\":4817:4822  10000 */\n      0x2710\n        /* \"contracts/SwapOperationManager.sol\":4795:4812  slippageTolerance */\n      sload(0x07)\n        /* \"contracts/SwapOperationManager.sol\":4787:4792  10000 */\n      0x2710\n        /* \"contracts/SwapOperationManager.sol\":4787:4812  10000 - slippageTolerance */\n      tag_484\n      swap2\n      swap1\n      tag_243\n      jump\t// in\n    tag_484:\n        /* \"contracts/SwapOperationManager.sol\":4765:4780  expectedAmounts */\n      dup4\n        /* \"contracts/SwapOperationManager.sol\":4781:4782  1 */\n      0x01\n        /* \"contracts/SwapOperationManager.sol\":4765:4783  expectedAmounts[1] */\n      dup2\n      mload\n      dup2\n      lt\n      tag_486\n      jumpi\n      tag_486\n      tag_214\n      jump\t// in\n    tag_486:\n      0x20\n      mul\n      0x20\n      add\n      add\n      mload\n        /* \"contracts/SwapOperationManager.sol\":4765:4813  expectedAmounts[1] * (10000 - slippageTolerance) */\n      tag_487\n      swap2\n      swap1\n      tag_202\n      jump\t// in\n    tag_487:\n        /* \"contracts/SwapOperationManager.sol\":4764:4822  (expectedAmounts[1] * (10000 - slippageTolerance)) / 10000 */\n      tag_488\n      swap2\n      swap1\n      tag_204\n      jump\t// in\n    tag_488:\n        /* \"contracts/SwapOperationManager.sol\":4856:4871  uniswapV2Router */\n      sload(0x09)\n        /* \"contracts/SwapOperationManager.sol\":4833:4884  _token.approve(address(uniswapV2Router), _amountIn) */\n      mload(0x40)\n      shl(0xe0, 0x095ea7b3)\n      dup2\n      mstore\n      sub(shl(0xa0, 0x01), 0x01)\n        /* \"contracts/SwapOperationManager.sol\":4856:4871  uniswapV2Router */\n      swap2\n      dup3\n      and\n        /* \"contracts/SwapOperationManager.sol\":4833:4884  _token.approve(address(uniswapV2Router), _amountIn) */\n      0x04\n      dup3\n      add\n        /* \"#utility.yul\":15602:15653   */\n      mstore\n        /* \"#utility.yul\":15669:15687   */\n      0x24\n      dup2\n      add\n        /* \"#utility.yul\":15662:15696   */\n      dup11\n      swap1\n      mstore\n        /* \"contracts/SwapOperationManager.sol\":4737:4822  uint256 amountOutMinimum = (expectedAmounts[1] * (10000 - slippageTolerance)) / 10000 */\n      swap2\n      swap3\n      pop\n        /* \"contracts/SwapOperationManager.sol\":4833:4847  _token.approve */\n      dup10\n      and\n      swap1\n      0x095ea7b3\n      swap1\n        /* \"#utility.yul\":15575:15593   */\n      0x44\n      add\n        /* \"contracts/SwapOperationManager.sol\":4833:4884  _token.approve(address(uniswapV2Router), _amountIn) */\n      0x20\n      mload(0x40)\n      dup1\n      dup4\n      sub\n      dup2\n      0x00\n      dup8\n      gas\n      call\n      iszero\n      dup1\n      iszero\n      tag_491\n      jumpi\n      returndatasize\n      0x00\n      dup1\n      returndatacopy\n      revert(0x00, returndatasize)\n    tag_491:\n      pop\n      pop\n      pop\n      pop\n      mload(0x40)\n      returndatasize\n      not(0x1f)\n      0x1f\n      dup3\n      add\n      and\n      dup3\n      add\n      dup1\n      0x40\n      mstore\n      pop\n      dup2\n      add\n      swap1\n      tag_492\n      swap2\n      swap1\n      tag_250\n      jump\t// in\n    tag_492:\n      pop\n        /* \"contracts/SwapOperationManager.sol\":4921:4936  uniswapV2Router */\n      sload(0x09)\n        /* \"contracts/SwapOperationManager.sol\":4921:5131  uniswapV2Router.swapExactTokensForETH(... */\n      mload(0x40)\n      shl(0xe0, 0x18cbafe5)\n      dup2\n      mstore\n        /* \"contracts/SwapOperationManager.sol\":4894:4918  uint256[] memory amounts */\n      0x00\n      swap2\n      sub(shl(0xa0, 0x01), 0x01)\n        /* \"contracts/SwapOperationManager.sol\":4921:4936  uniswapV2Router */\n      and\n      swap1\n        /* \"contracts/SwapOperationManager.sol\":4921:4958  uniswapV2Router.swapExactTokensForETH */\n      0x18cbafe5\n      swap1\n        /* \"contracts/SwapOperationManager.sol\":4921:5131  uniswapV2Router.swapExactTokensForETH(... */\n      tag_493\n      swap1\n        /* \"contracts/SwapOperationManager.sol\":4972:4981  _amountIn */\n      dup12\n      swap1\n        /* \"contracts/SwapOperationManager.sol\":4995:5011  amountOutMinimum */\n      dup7\n      swap1\n        /* \"contracts/SwapOperationManager.sol\":5061:5070  pathArray */\n      dup10\n      swap1\n        /* \"contracts/SwapOperationManager.sol\":5084:5092  receiver */\n      dup14\n      swap1\n        /* \"contracts/SwapOperationManager.sol\":5106:5121  block.timestamp */\n      timestamp\n      swap1\n        /* \"contracts/SwapOperationManager.sol\":4921:5131  uniswapV2Router.swapExactTokensForETH(... */\n      0x04\n      add\n      tag_494\n      jump\t// in\n    tag_493:\n      0x00\n      mload(0x40)\n      dup1\n      dup4\n      sub\n      dup2\n      0x00\n      dup8\n      gas\n      call\n      iszero\n      dup1\n      iszero\n      tag_496\n      jumpi\n      returndatasize\n      0x00\n      dup1\n      returndatacopy\n      revert(0x00, returndatasize)\n    tag_496:\n      pop\n      pop\n      pop\n      pop\n      mload(0x40)\n      returndatasize\n      0x00\n      dup3\n      returndatacopy\n      0x1f\n      returndatasize\n      swap1\n      dup2\n      add\n      not(0x1f)\n      and\n      dup3\n      add\n      0x40\n      mstore\n      tag_497\n      swap2\n      swap1\n      dup2\n      add\n      swap1\n      tag_483\n      jump\t// in\n    tag_497:\n        /* \"contracts/SwapOperationManager.sol\":4894:5131  uint256[] memory amounts = uniswapV2Router.swapExactTokensForETH(... */\n      swap1\n      pop\n        /* \"contracts/SwapOperationManager.sol\":5149:5156  amounts */\n      dup1\n        /* \"contracts/SwapOperationManager.sol\":5157:5158  1 */\n      0x01\n        /* \"contracts/SwapOperationManager.sol\":5149:5159  amounts[1] */\n      dup2\n      mload\n      dup2\n      lt\n      tag_499\n      jumpi\n      tag_499\n      tag_214\n      jump\t// in\n    tag_499:\n      0x20\n      mul\n      0x20\n      add\n      add\n      mload\n        /* \"contracts/SwapOperationManager.sol\":5142:5159  return amounts[1] */\n      swap5\n      pop\n      pop\n      pop\n      pop\n      pop\n        /* \"contracts/SwapOperationManager.sol\":4436:5166  function swapTokenForTokenV2(IERC20 _token, uint256 _amountIn, address receiver, bytes memory path) internal returns (uint256) {... */\n      swap5\n      swap4\n      pop\n      pop\n      pop\n      pop\n      jump\t// out\n        /* \"contracts/SwapOperationManager.sol\":5784:6573  function swapTokenForTokenV3(IERC20 _token, uint256 _amountIn, address receiver, bytes memory path) internal returns (uint256) {... */\n    tag_364:\n        /* \"contracts/SwapOperationManager.sol\":5949:5964  uniswapV3Quoter */\n      sload(0x0b)\n        /* \"contracts/SwapOperationManager.sol\":5949:5997  uniswapV3Quoter.quoteExactInput(path, _amountIn) */\n      mload(0x40)\n      shl(0xe0, 0xcdca1753)\n      dup2\n      mstore\n        /* \"contracts/SwapOperationManager.sol\":5902:5909  uint256 */\n      0x00\n      swap2\n      dup3\n      swap2\n      sub(shl(0xa0, 0x01), 0x01)\n        /* \"contracts/SwapOperationManager.sol\":5949:5964  uniswapV3Quoter */\n      swap1\n      swap2\n      and\n      swap1\n        /* \"contracts/SwapOperationManager.sol\":5949:5980  uniswapV3Quoter.quoteExactInput */\n      0xcdca1753\n      swap1\n        /* \"contracts/SwapOperationManager.sol\":5949:5997  uniswapV3Quoter.quoteExactInput(path, _amountIn) */\n      tag_501\n      swap1\n        /* \"contracts/SwapOperationManager.sol\":5981:5985  path */\n      dup7\n      swap1\n        /* \"contracts/SwapOperationManager.sol\":5987:5996  _amountIn */\n      dup10\n      swap1\n        /* \"contracts/SwapOperationManager.sol\":5949:5997  uniswapV3Quoter.quoteExactInput(path, _amountIn) */\n      0x04\n      add\n      tag_502\n      jump\t// in\n    tag_501:\n      0x20\n      mload(0x40)\n      dup1\n      dup4\n      sub\n      dup2\n      0x00\n      dup8\n      gas\n      call\n      iszero\n      dup1\n      iszero\n      tag_504\n      jumpi\n      returndatasize\n      0x00\n      dup1\n      returndatacopy\n      revert(0x00, returndatasize)\n    tag_504:\n      pop\n      pop\n      pop\n      pop\n      mload(0x40)\n      returndatasize\n      not(0x1f)\n      0x1f\n      dup3\n      add\n      and\n      dup3\n      add\n      dup1\n      0x40\n      mstore\n      pop\n      dup2\n      add\n      swap1\n      tag_505\n      swap2\n      swap1\n      tag_194\n      jump\t// in\n    tag_505:\n        /* \"contracts/SwapOperationManager.sol\":5921:5997  uint256 expectedAmountOut = uniswapV3Quoter.quoteExactInput(path, _amountIn) */\n      swap1\n      pop\n        /* \"contracts/SwapOperationManager.sol\":6097:6121  uint256 amountOutMinimum */\n      0x00\n        /* \"contracts/SwapOperationManager.sol\":6176:6181  10000 */\n      0x2710\n        /* \"contracts/SwapOperationManager.sol\":6154:6171  slippageTolerance */\n      sload(0x07)\n        /* \"contracts/SwapOperationManager.sol\":6146:6151  10000 */\n      0x2710\n        /* \"contracts/SwapOperationManager.sol\":6146:6171  10000 - slippageTolerance */\n      tag_506\n      swap2\n      swap1\n      tag_243\n      jump\t// in\n    tag_506:\n        /* \"contracts/SwapOperationManager.sol\":6125:6172  expectedAmountOut * (10000 - slippageTolerance) */\n      tag_507\n      swap1\n        /* \"contracts/SwapOperationManager.sol\":6125:6142  expectedAmountOut */\n      dup5\n        /* \"contracts/SwapOperationManager.sol\":6125:6172  expectedAmountOut * (10000 - slippageTolerance) */\n      tag_202\n      jump\t// in\n    tag_507:\n        /* \"contracts/SwapOperationManager.sol\":6124:6181  (expectedAmountOut * (10000 - slippageTolerance)) / 10000 */\n      tag_508\n      swap2\n      swap1\n      tag_204\n      jump\t// in\n    tag_508:\n        /* \"contracts/SwapOperationManager.sol\":6236:6453  ISwapRouter.ExactInputParams({... */\n      0x40\n      dup1\n      mload\n      0xa0\n      dup2\n      add\n      dup3\n      mstore\n      dup7\n      dup2\n      mstore\n      sub(shl(0xa0, 0x01), 0x01)\n      dup9\n      dup2\n      and\n      0x20\n      dup4\n      add\n      mstore\n        /* \"contracts/SwapOperationManager.sol\":6346:6361  block.timestamp */\n      timestamp\n        /* \"contracts/SwapOperationManager.sol\":6236:6453  ISwapRouter.ExactInputParams({... */\n      dup3\n      dup5\n      add\n      mstore\n      0x60\n      dup3\n      add\n      dup11\n      swap1\n      mstore\n      0x80\n      dup3\n      add\n      dup5\n      swap1\n      mstore\n        /* \"contracts/SwapOperationManager.sol\":6487:6502  uniswapV3Router */\n      sload(0x0a)\n        /* \"contracts/SwapOperationManager.sol\":6464:6515  _token.approve(address(uniswapV3Router), _amountIn) */\n      swap3\n      mload\n      shl(0xe0, 0x095ea7b3)\n      dup2\n      mstore\n        /* \"contracts/SwapOperationManager.sol\":6487:6502  uniswapV3Router */\n      swap3\n      dup2\n      and\n        /* \"contracts/SwapOperationManager.sol\":6464:6515  _token.approve(address(uniswapV3Router), _amountIn) */\n      0x04\n      dup5\n      add\n        /* \"#utility.yul\":15602:15653   */\n      mstore\n        /* \"#utility.yul\":15669:15687   */\n      0x24\n      dup4\n      add\n        /* \"#utility.yul\":15662:15696   */\n      dup11\n      swap1\n      mstore\n        /* \"contracts/SwapOperationManager.sol\":6236:6453  ISwapRouter.ExactInputParams({... */\n      swap3\n      swap4\n      pop\n      swap2\n        /* \"contracts/SwapOperationManager.sol\":6464:6478  _token.approve */\n      dup10\n      and\n      swap1\n      0x095ea7b3\n      swap1\n        /* \"#utility.yul\":15575:15593   */\n      0x44\n      add\n        /* \"contracts/SwapOperationManager.sol\":6464:6515  _token.approve(address(uniswapV3Router), _amountIn) */\n      0x20\n      mload(0x40)\n      dup1\n      dup4\n      sub\n      dup2\n      0x00\n      dup8\n      gas\n      call\n      iszero\n      dup1\n      iszero\n      tag_511\n      jumpi\n      returndatasize\n      0x00\n      dup1\n      returndatacopy\n      revert(0x00, returndatasize)\n    tag_511:\n      pop\n      pop\n      pop\n      pop\n      mload(0x40)\n      returndatasize\n      not(0x1f)\n      0x1f\n      dup3\n      add\n      and\n      dup3\n      add\n      dup1\n      0x40\n      mstore\n      pop\n      dup2\n      add\n      swap1\n      tag_512\n      swap2\n      swap1\n      tag_250\n      jump\t// in\n    tag_512:\n      pop\n        /* \"contracts/SwapOperationManager.sol\":6532:6547  uniswapV3Router */\n      sload(0x0a)\n        /* \"contracts/SwapOperationManager.sol\":6532:6566  uniswapV3Router.exactInput(params) */\n      mload(0x40)\n      shl(0xe0, 0xc04b8d59)\n      dup2\n      mstore\n      sub(shl(0xa0, 0x01), 0x01)\n        /* \"contracts/SwapOperationManager.sol\":6532:6547  uniswapV3Router */\n      swap1\n      swap2\n      and\n      swap1\n        /* \"contracts/SwapOperationManager.sol\":6532:6558  uniswapV3Router.exactInput */\n      0xc04b8d59\n      swap1\n        /* \"contracts/SwapOperationManager.sol\":6532:6566  uniswapV3Router.exactInput(params) */\n      tag_513\n      swap1\n        /* \"contracts/SwapOperationManager.sol\":6559:6565  params */\n      dup5\n      swap1\n        /* \"contracts/SwapOperationManager.sol\":6532:6566  uniswapV3Router.exactInput(params) */\n      0x04\n      add\n      tag_514\n      jump\t// in\n    tag_513:\n      0x20\n      mload(0x40)\n      dup1\n      dup4\n      sub\n      dup2\n      0x00\n      dup8\n      gas\n      call\n      iszero\n      dup1\n      iszero\n      tag_516\n      jumpi\n      returndatasize\n      0x00\n      dup1\n      returndatacopy\n      revert(0x00, returndatasize)\n    tag_516:\n      pop\n      pop\n      pop\n      pop\n      mload(0x40)\n      returndatasize\n      not(0x1f)\n      0x1f\n      dup3\n      add\n      and\n      dup3\n      add\n      dup1\n      0x40\n      mstore\n      pop\n      dup2\n      add\n      swap1\n      tag_517\n      swap2\n      swap1\n      tag_194\n      jump\t// in\n    tag_517:\n        /* \"contracts/SwapOperationManager.sol\":6525:6566  return uniswapV3Router.exactInput(params) */\n      swap9\n        /* \"contracts/SwapOperationManager.sol\":5784:6573  function swapTokenForTokenV3(IERC20 _token, uint256 _amountIn, address receiver, bytes memory path) internal returns (uint256) {... */\n      swap8\n      pop\n      pop\n      pop\n      pop\n      pop\n      pop\n      pop\n      pop\n      jump\t// out\n        /* \"@openzeppelin/contracts/token/ERC20/ERC20.sol\":7721:7929  function _mint(address account, uint256 value) internal {... */\n    tag_380:\n      sub(shl(0xa0, 0x01), 0x01)\n        /* \"@openzeppelin/contracts/token/ERC20/ERC20.sol\":7791:7812  account == address(0) */\n      dup3\n      and\n        /* \"@openzeppelin/contracts/token/ERC20/ERC20.sol\":7787:7878  if (account == address(0)) {... */\n      tag_519\n      jumpi\n        /* \"@openzeppelin/contracts/token/ERC20/ERC20.sol\":7835:7867  ERC20InvalidReceiver(address(0)) */\n      mload(0x40)\n      shl(0xe0, 0xec442f05)\n      dup2\n      mstore\n        /* \"@openzeppelin/contracts/token/ERC20/ERC20.sol\":7864:7865  0 */\n      0x00\n        /* \"@openzeppelin/contracts/token/ERC20/ERC20.sol\":7835:7867  ERC20InvalidReceiver(address(0)) */\n      0x04\n      dup3\n      add\n        /* \"#utility.yul\":3497:3548   */\n      mstore\n        /* \"#utility.yul\":3470:3488   */\n      0x24\n      add\n        /* \"@openzeppelin/contracts/token/ERC20/ERC20.sol\":7835:7867  ERC20InvalidReceiver(address(0)) */\n      tag_188\n        /* \"#utility.yul\":3324:3554   */\n      jump\n        /* \"@openzeppelin/contracts/token/ERC20/ERC20.sol\":7787:7878  if (account == address(0)) {... */\n    tag_519:\n        /* \"@openzeppelin/contracts/token/ERC20/ERC20.sol\":7887:7922  _update(address(0), account, value) */\n      tag_449\n        /* \"@openzeppelin/contracts/token/ERC20/ERC20.sol\":7903:7904  0 */\n      0x00\n        /* \"@openzeppelin/contracts/token/ERC20/ERC20.sol\":7907:7914  account */\n      dup4\n        /* \"@openzeppelin/contracts/token/ERC20/ERC20.sol\":7916:7921  value */\n      dup4\n        /* \"@openzeppelin/contracts/token/ERC20/ERC20.sol\":6271:7378  function _update(address from, address to, uint256 value) internal virtual {... */\n    tag_450:\n      sub(shl(0xa0, 0x01), 0x01)\n        /* \"@openzeppelin/contracts/token/ERC20/ERC20.sol\":6360:6378  from == address(0) */\n      dup4\n      and\n        /* \"@openzeppelin/contracts/token/ERC20/ERC20.sol\":6356:6896  if (from == address(0)) {... */\n      tag_523\n      jumpi\n        /* \"@openzeppelin/contracts/token/ERC20/ERC20.sol\":6512:6517  value */\n      dup1\n        /* \"@openzeppelin/contracts/token/ERC20/ERC20.sol\":6496:6508  _totalSupply */\n      0x03\n      0x00\n        /* \"@openzeppelin/contracts/token/ERC20/ERC20.sol\":6496:6517  _totalSupply += value */\n      dup3\n      dup3\n      sload\n      tag_524\n      swap2\n      swap1\n      tag_234\n      jump\t// in\n    tag_524:\n      swap1\n      swap2\n      sstore\n      pop\n        /* \"@openzeppelin/contracts/token/ERC20/ERC20.sol\":6356:6896  if (from == address(0)) {... */\n      tag_525\n      swap1\n      pop\n      jump\n    tag_523:\n      sub(shl(0xa0, 0x01), 0x01)\n        /* \"@openzeppelin/contracts/token/ERC20/ERC20.sol\":6570:6585  _balances[from] */\n      dup4\n      and\n        /* \"@openzeppelin/contracts/token/ERC20/ERC20.sol\":6548:6567  uint256 fromBalance */\n      0x00\n        /* \"@openzeppelin/contracts/token/ERC20/ERC20.sol\":6570:6585  _balances[from] */\n      swap1\n      dup2\n      mstore\n        /* \"@openzeppelin/contracts/token/ERC20/ERC20.sol\":6570:6579  _balances */\n      0x01\n        /* \"@openzeppelin/contracts/token/ERC20/ERC20.sol\":6570:6585  _balances[from] */\n      0x20\n      mstore\n      0x40\n      swap1\n      keccak256\n      sload\n        /* \"@openzeppelin/contracts/token/ERC20/ERC20.sol\":6603:6622  fromBalance < value */\n      dup2\n      dup2\n      lt\n        /* \"@openzeppelin/contracts/token/ERC20/ERC20.sol\":6599:6714  if (fromBalance < value) {... */\n      iszero\n      tag_526\n      jumpi\n        /* \"@openzeppelin/contracts/token/ERC20/ERC20.sol\":6649:6699  ERC20InsufficientBalance(from, fromBalance, value) */\n      mload(0x40)\n      shl(0xe2, 0x391434e3)\n      dup2\n      mstore\n      sub(shl(0xa0, 0x01), 0x01)\n        /* \"#utility.yul\":22662:22694   */\n      dup6\n      and\n        /* \"@openzeppelin/contracts/token/ERC20/ERC20.sol\":6649:6699  ERC20InsufficientBalance(from, fromBalance, value) */\n      0x04\n      dup3\n      add\n        /* \"#utility.yul\":22644:22695   */\n      mstore\n        /* \"#utility.yul\":22711:22729   */\n      0x24\n      dup2\n      add\n        /* \"#utility.yul\":22704:22738   */\n      dup3\n      swap1\n      mstore\n        /* \"#utility.yul\":22754:22772   */\n      0x44\n      dup2\n      add\n        /* \"#utility.yul\":22747:22781   */\n      dup4\n      swap1\n      mstore\n        /* \"#utility.yul\":22617:22635   */\n      0x64\n      add\n        /* \"@openzeppelin/contracts/token/ERC20/ERC20.sol\":6649:6699  ERC20InsufficientBalance(from, fromBalance, value) */\n      tag_188\n        /* \"#utility.yul\":22442:22787   */\n      jump\n        /* \"@openzeppelin/contracts/token/ERC20/ERC20.sol\":6599:6714  if (fromBalance < value) {... */\n    tag_526:\n      sub(shl(0xa0, 0x01), 0x01)\n        /* \"@openzeppelin/contracts/token/ERC20/ERC20.sol\":6834:6849  _balances[from] */\n      dup5\n      and\n      0x00\n      swap1\n      dup2\n      mstore\n        /* \"@openzeppelin/contracts/token/ERC20/ERC20.sol\":6834:6843  _balances */\n      0x01\n        /* \"@openzeppelin/contracts/token/ERC20/ERC20.sol\":6834:6849  _balances[from] */\n      0x20\n      mstore\n      0x40\n      swap1\n      keccak256\n        /* \"@openzeppelin/contracts/token/ERC20/ERC20.sol\":6852:6871  fromBalance - value */\n      swap1\n      dup3\n      swap1\n      sub\n        /* \"@openzeppelin/contracts/token/ERC20/ERC20.sol\":6834:6871  _balances[from] = fromBalance - value */\n      swap1\n      sstore\n        /* \"@openzeppelin/contracts/token/ERC20/ERC20.sol\":6356:6896  if (from == address(0)) {... */\n    tag_525:\n      sub(shl(0xa0, 0x01), 0x01)\n        /* \"@openzeppelin/contracts/token/ERC20/ERC20.sol\":6910:6926  to == address(0) */\n      dup3\n      and\n        /* \"@openzeppelin/contracts/token/ERC20/ERC20.sol\":6906:7331  if (to == address(0)) {... */\n      tag_528\n      jumpi\n        /* \"@openzeppelin/contracts/token/ERC20/ERC20.sol\":7073:7085  _totalSupply */\n      0x03\n        /* \"@openzeppelin/contracts/token/ERC20/ERC20.sol\":7073:7094  _totalSupply -= value */\n      dup1\n      sload\n      dup3\n      swap1\n      sub\n      swap1\n      sstore\n        /* \"@openzeppelin/contracts/token/ERC20/ERC20.sol\":6906:7331  if (to == address(0)) {... */\n      jump(tag_529)\n    tag_528:\n      sub(shl(0xa0, 0x01), 0x01)\n        /* \"@openzeppelin/contracts/token/ERC20/ERC20.sol\":7284:7297  _balances[to] */\n      dup3\n      and\n      0x00\n      swap1\n      dup2\n      mstore\n        /* \"@openzeppelin/contracts/token/ERC20/ERC20.sol\":7284:7293  _balances */\n      0x01\n        /* \"@openzeppelin/contracts/token/ERC20/ERC20.sol\":7284:7297  _balances[to] */\n      0x20\n      mstore\n      0x40\n      swap1\n      keccak256\n        /* \"@openzeppelin/contracts/token/ERC20/ERC20.sol\":7284:7306  _balances[to] += value */\n      dup1\n      sload\n      dup3\n      add\n      swap1\n      sstore\n        /* \"@openzeppelin/contracts/token/ERC20/ERC20.sol\":6906:7331  if (to == address(0)) {... */\n    tag_529:\n        /* \"@openzeppelin/contracts/token/ERC20/ERC20.sol\":7361:7363  to */\n      dup2\n      sub(shl(0xa0, 0x01), 0x01)\n        /* \"@openzeppelin/contracts/token/ERC20/ERC20.sol\":7346:7371  Transfer(from, to, value) */\n      and\n        /* \"@openzeppelin/contracts/token/ERC20/ERC20.sol\":7355:7359  from */\n      dup4\n      sub(shl(0xa0, 0x01), 0x01)\n        /* \"@openzeppelin/contracts/token/ERC20/ERC20.sol\":7346:7371  Transfer(from, to, value) */\n      and\n      0xddf252ad1be2c89b69c2b068fc378daa952ba7f163c4a11628f55a4df523b3ef\n        /* \"@openzeppelin/contracts/token/ERC20/ERC20.sol\":7365:7370  value */\n      dup4\n        /* \"@openzeppelin/contracts/token/ERC20/ERC20.sol\":7346:7371  Transfer(from, to, value) */\n      mload(0x40)\n      tag_530\n      swap2\n        /* \"#utility.yul\":3705:3730   */\n      dup2\n      mstore\n        /* \"#utility.yul\":3693:3695   */\n      0x20\n        /* \"#utility.yul\":3678:3696   */\n      add\n      swap1\n        /* \"#utility.yul\":3559:3736   */\n      jump\n        /* \"@openzeppelin/contracts/token/ERC20/ERC20.sol\":7346:7371  Transfer(from, to, value) */\n    tag_530:\n      mload(0x40)\n      dup1\n      swap2\n      sub\n      swap1\n      log3\n        /* \"@openzeppelin/contracts/token/ERC20/ERC20.sol\":6271:7378  function _update(address from, address to, uint256 value) internal virtual {... */\n      pop\n      pop\n      pop\n      jump\t// out\n        /* \"@openzeppelin/contracts/token/ERC20/ERC20.sol\":9949:10381  function _approve(address owner, address spender, uint256 value, bool emitEvent) internal virtual {... */\n    tag_454:\n      sub(shl(0xa0, 0x01), 0x01)\n        /* \"@openzeppelin/contracts/token/ERC20/ERC20.sol\":10061:10080  owner == address(0) */\n      dup5\n      and\n        /* \"@openzeppelin/contracts/token/ERC20/ERC20.sol\":10057:10146  if (owner == address(0)) {... */\n      tag_532\n      jumpi\n        /* \"@openzeppelin/contracts/token/ERC20/ERC20.sol\":10103:10135  ERC20InvalidApprover(address(0)) */\n      mload(0x40)\n      shl(0xe0, 0xe602df05)\n      dup2\n      mstore\n        /* \"@openzeppelin/contracts/token/ERC20/ERC20.sol\":10132:10133  0 */\n      0x00\n        /* \"@openzeppelin/contracts/token/ERC20/ERC20.sol\":10103:10135  ERC20InvalidApprover(address(0)) */\n      0x04\n      dup3\n      add\n        /* \"#utility.yul\":3497:3548   */\n      mstore\n        /* \"#utility.yul\":3470:3488   */\n      0x24\n      add\n        /* \"@openzeppelin/contracts/token/ERC20/ERC20.sol\":10103:10135  ERC20InvalidApprover(address(0)) */\n      tag_188\n        /* \"#utility.yul\":3324:3554   */\n      jump\n        /* \"@openzeppelin/contracts/token/ERC20/ERC20.sol\":10057:10146  if (owner == address(0)) {... */\n    tag_532:\n      sub(shl(0xa0, 0x01), 0x01)\n        /* \"@openzeppelin/contracts/token/ERC20/ERC20.sol\":10159:10180  spender == address(0) */\n      dup4\n      and\n        /* \"@openzeppelin/contracts/token/ERC20/ERC20.sol\":10155:10245  if (spender == address(0)) {... */\n      tag_534\n      jumpi\n        /* \"@openzeppelin/contracts/token/ERC20/ERC20.sol\":10203:10234  ERC20InvalidSpender(address(0)) */\n      mload(0x40)\n      shl(0xe1, 0x4a1406b1)\n      dup2\n      mstore\n        /* \"@openzeppelin/contracts/token/ERC20/ERC20.sol\":10231:10232  0 */\n      0x00\n        /* \"@openzeppelin/contracts/token/ERC20/ERC20.sol\":10203:10234  ERC20InvalidSpender(address(0)) */\n      0x04\n      dup3\n      add\n        /* \"#utility.yul\":3497:3548   */\n      mstore\n        /* \"#utility.yul\":3470:3488   */\n      0x24\n      add\n        /* \"@openzeppelin/contracts/token/ERC20/ERC20.sol\":10203:10234  ERC20InvalidSpender(address(0)) */\n      tag_188\n        /* \"#utility.yul\":3324:3554   */\n      jump\n        /* \"@openzeppelin/contracts/token/ERC20/ERC20.sol\":10155:10245  if (spender == address(0)) {... */\n    tag_534:\n      sub(shl(0xa0, 0x01), 0x01)\n        /* \"@openzeppelin/contracts/token/ERC20/ERC20.sol\":10254:10272  _allowances[owner] */\n      dup1\n      dup6\n      and\n      0x00\n      swap1\n      dup2\n      mstore\n        /* \"@openzeppelin/contracts/token/ERC20/ERC20.sol\":10254:10265  _allowances */\n      0x02\n        /* \"@openzeppelin/contracts/token/ERC20/ERC20.sol\":10254:10272  _allowances[owner] */\n      0x20\n      swap1\n      dup2\n      mstore\n      0x40\n      dup1\n      dup4\n      keccak256\n        /* \"@openzeppelin/contracts/token/ERC20/ERC20.sol\":10254:10281  _allowances[owner][spender] */\n      swap4\n      dup8\n      and\n      dup4\n      mstore\n      swap3\n      swap1\n      mstore\n      keccak256\n        /* \"@openzeppelin/contracts/token/ERC20/ERC20.sol\":10254:10289  _allowances[owner][spender] = value */\n      dup3\n      swap1\n      sstore\n        /* \"@openzeppelin/contracts/token/ERC20/ERC20.sol\":10299:10375  if (emitEvent) {... */\n      dup1\n      iszero\n      tag_382\n      jumpi\n        /* \"@openzeppelin/contracts/token/ERC20/ERC20.sol\":10349:10356  spender */\n      dup3\n      sub(shl(0xa0, 0x01), 0x01)\n        /* \"@openzeppelin/contracts/token/ERC20/ERC20.sol\":10333:10364  Approval(owner, spender, value) */\n      and\n        /* \"@openzeppelin/contracts/token/ERC20/ERC20.sol\":10342:10347  owner */\n      dup5\n      sub(shl(0xa0, 0x01), 0x01)\n        /* \"@openzeppelin/contracts/token/ERC20/ERC20.sol\":10333:10364  Approval(owner, spender, value) */\n      and\n      0x8c5be1e5ebec7d5bd14f71427d1e84f3dd0314c0f7b2291e5b200ac8c7c3b925\n        /* \"@openzeppelin/contracts/token/ERC20/ERC20.sol\":10358:10363  value */\n      dup5\n        /* \"@openzeppelin/contracts/token/ERC20/ERC20.sol\":10333:10364  Approval(owner, spender, value) */\n      mload(0x40)\n      tag_537\n      swap2\n        /* \"#utility.yul\":3705:3730   */\n      dup2\n      mstore\n        /* \"#utility.yul\":3693:3695   */\n      0x20\n        /* \"#utility.yul\":3678:3696   */\n      add\n      swap1\n        /* \"#utility.yul\":3559:3736   */\n      jump\n        /* \"@openzeppelin/contracts/token/ERC20/ERC20.sol\":10333:10364  Approval(owner, spender, value) */\n    tag_537:\n      mload(0x40)\n      dup1\n      swap2\n      sub\n      swap1\n      log3\n        /* \"@openzeppelin/contracts/token/ERC20/ERC20.sol\":9949:10381  function _approve(address owner, address spender, uint256 value, bool emitEvent) internal virtual {... */\n      pop\n      pop\n      pop\n      pop\n      jump\t// out\n        /* \"#utility.yul\":14:141   */\n    tag_538:\n        /* \"#utility.yul\":75:85   */\n      0x4e487b71\n        /* \"#utility.yul\":70:73   */\n      0xe0\n        /* \"#utility.yul\":66:86   */\n      shl\n        /* \"#utility.yul\":63:64   */\n      0x00\n        /* \"#utility.yul\":56:87   */\n      mstore\n        /* \"#utility.yul\":106:110   */\n      0x41\n        /* \"#utility.yul\":103:104   */\n      0x04\n        /* \"#utility.yul\":96:111   */\n      mstore\n        /* \"#utility.yul\":130:134   */\n      0x24\n        /* \"#utility.yul\":127:128   */\n      0x00\n        /* \"#utility.yul\":120:135   */\n      revert\n        /* \"#utility.yul\":146:399   */\n    tag_539:\n        /* \"#utility.yul\":218:220   */\n      0x40\n        /* \"#utility.yul\":212:221   */\n      mload\n        /* \"#utility.yul\":260:264   */\n      0x60\n        /* \"#utility.yul\":248:265   */\n      dup2\n      add\n      sub(shl(0x40, 0x01), 0x01)\n        /* \"#utility.yul\":280:314   */\n      dup2\n      gt\n        /* \"#utility.yul\":316:338   */\n      dup3\n      dup3\n      lt\n        /* \"#utility.yul\":277:339   */\n      or\n        /* \"#utility.yul\":274:362   */\n      iszero\n      tag_558\n      jumpi\n        /* \"#utility.yul\":342:360   */\n      tag_558\n      tag_538\n      jump\t// in\n    tag_558:\n        /* \"#utility.yul\":378:380   */\n      0x40\n        /* \"#utility.yul\":371:393   */\n      mstore\n        /* \"#utility.yul\":146:399   */\n      swap1\n      jump\t// out\n        /* \"#utility.yul\":404:679   */\n    tag_540:\n        /* \"#utility.yul\":475:477   */\n      0x40\n        /* \"#utility.yul\":469:478   */\n      mload\n        /* \"#utility.yul\":540:542   */\n      0x1f\n        /* \"#utility.yul\":521:534   */\n      dup3\n      add\n      not(0x1f)\n        /* \"#utility.yul\":517:544   */\n      and\n        /* \"#utility.yul\":505:545   */\n      dup2\n      add\n      sub(shl(0x40, 0x01), 0x01)\n        /* \"#utility.yul\":560:594   */\n      dup2\n      gt\n        /* \"#utility.yul\":596:618   */\n      dup3\n      dup3\n      lt\n        /* \"#utility.yul\":557:619   */\n      or\n        /* \"#utility.yul\":554:642   */\n      iszero\n      tag_561\n      jumpi\n        /* \"#utility.yul\":622:640   */\n      tag_561\n      tag_538\n      jump\t// in\n    tag_561:\n        /* \"#utility.yul\":658:660   */\n      0x40\n        /* \"#utility.yul\":651:673   */\n      mstore\n        /* \"#utility.yul\":404:679   */\n      swap2\n      swap1\n      pop\n      jump\t// out\n        /* \"#utility.yul\":684:870   */\n    tag_541:\n        /* \"#utility.yul\":732:736   */\n      0x00\n      sub(shl(0x40, 0x01), 0x01)\n        /* \"#utility.yul\":757:763   */\n      dup3\n        /* \"#utility.yul\":754:784   */\n      gt\n        /* \"#utility.yul\":751:807   */\n      iszero\n      tag_564\n      jumpi\n        /* \"#utility.yul\":787:805   */\n      tag_564\n      tag_538\n      jump\t// in\n    tag_564:\n      pop\n        /* \"#utility.yul\":853:855   */\n      0x1f\n        /* \"#utility.yul\":832:847   */\n      add\n      not(0x1f)\n        /* \"#utility.yul\":828:857   */\n      and\n        /* \"#utility.yul\":859:863   */\n      0x20\n        /* \"#utility.yul\":824:864   */\n      add\n      swap1\n        /* \"#utility.yul\":684:870   */\n      jump\t// out\n        /* \"#utility.yul\":875:1337   */\n    tag_542:\n        /* \"#utility.yul\":917:922   */\n      0x00\n        /* \"#utility.yul\":970:973   */\n      dup3\n        /* \"#utility.yul\":963:967   */\n      0x1f\n        /* \"#utility.yul\":955:961   */\n      dup4\n        /* \"#utility.yul\":951:968   */\n      add\n        /* \"#utility.yul\":947:974   */\n      slt\n        /* \"#utility.yul\":937:992   */\n      tag_566\n      jumpi\n        /* \"#utility.yul\":988:989   */\n      0x00\n        /* \"#utility.yul\":985:986   */\n      dup1\n        /* \"#utility.yul\":978:990   */\n      revert\n        /* \"#utility.yul\":937:992   */\n    tag_566:\n        /* \"#utility.yul\":1024:1030   */\n      dup2\n        /* \"#utility.yul\":1011:1031   */\n      calldataload\n        /* \"#utility.yul\":1055:1103   */\n      tag_567\n        /* \"#utility.yul\":1071:1102   */\n      tag_568\n        /* \"#utility.yul\":1099:1101   */\n      dup3\n        /* \"#utility.yul\":1071:1102   */\n      tag_541\n      jump\t// in\n    tag_568:\n        /* \"#utility.yul\":1055:1103   */\n      tag_540\n      jump\t// in\n    tag_567:\n        /* \"#utility.yul\":1128:1130   */\n      dup2\n        /* \"#utility.yul\":1119:1126   */\n      dup2\n        /* \"#utility.yul\":1112:1131   */\n      mstore\n        /* \"#utility.yul\":1174:1177   */\n      dup5\n        /* \"#utility.yul\":1167:1171   */\n      0x20\n        /* \"#utility.yul\":1162:1164   */\n      dup4\n        /* \"#utility.yul\":1154:1160   */\n      dup7\n        /* \"#utility.yul\":1150:1165   */\n      add\n        /* \"#utility.yul\":1146:1172   */\n      add\n        /* \"#utility.yul\":1143:1178   */\n      gt\n        /* \"#utility.yul\":1140:1195   */\n      iszero\n      tag_569\n      jumpi\n        /* \"#utility.yul\":1191:1192   */\n      0x00\n        /* \"#utility.yul\":1188:1189   */\n      dup1\n        /* \"#utility.yul\":1181:1193   */\n      revert\n        /* \"#utility.yul\":1140:1195   */\n    tag_569:\n        /* \"#utility.yul\":1256:1258   */\n      dup2\n        /* \"#utility.yul\":1249:1253   */\n      0x20\n        /* \"#utility.yul\":1241:1247   */\n      dup6\n        /* \"#utility.yul\":1237:1254   */\n      add\n        /* \"#utility.yul\":1230:1234   */\n      0x20\n        /* \"#utility.yul\":1221:1228   */\n      dup4\n        /* \"#utility.yul\":1217:1235   */\n      add\n        /* \"#utility.yul\":1204:1259   */\n      calldatacopy\n        /* \"#utility.yul\":1304:1305   */\n      0x00\n        /* \"#utility.yul\":1279:1295   */\n      swap2\n      dup2\n      add\n        /* \"#utility.yul\":1297:1301   */\n      0x20\n        /* \"#utility.yul\":1275:1302   */\n      add\n        /* \"#utility.yul\":1268:1306   */\n      swap2\n      swap1\n      swap2\n      mstore\n        /* \"#utility.yul\":1283:1290   */\n      swap4\n        /* \"#utility.yul\":875:1337   */\n      swap3\n      pop\n      pop\n      pop\n      jump\t// out\n        /* \"#utility.yul\":1342:1730   */\n    tag_42:\n        /* \"#utility.yul\":1419:1425   */\n      0x00\n        /* \"#utility.yul\":1427:1433   */\n      dup1\n        /* \"#utility.yul\":1480:1482   */\n      0x40\n        /* \"#utility.yul\":1468:1477   */\n      dup4\n        /* \"#utility.yul\":1459:1466   */\n      dup6\n        /* \"#utility.yul\":1455:1478   */\n      sub\n        /* \"#utility.yul\":1451:1483   */\n      slt\n        /* \"#utility.yul\":1448:1500   */\n      iszero\n      tag_571\n      jumpi\n        /* \"#utility.yul\":1496:1497   */\n      0x00\n        /* \"#utility.yul\":1493:1494   */\n      dup1\n        /* \"#utility.yul\":1486:1498   */\n      revert\n        /* \"#utility.yul\":1448:1500   */\n    tag_571:\n        /* \"#utility.yul\":1532:1541   */\n      dup3\n        /* \"#utility.yul\":1519:1542   */\n      calldataload\n        /* \"#utility.yul\":1509:1542   */\n      swap2\n      pop\n        /* \"#utility.yul\":1593:1595   */\n      0x20\n        /* \"#utility.yul\":1582:1591   */\n      dup4\n        /* \"#utility.yul\":1578:1596   */\n      add\n        /* \"#utility.yul\":1565:1597   */\n      calldataload\n      sub(shl(0x40, 0x01), 0x01)\n        /* \"#utility.yul\":1612:1618   */\n      dup2\n        /* \"#utility.yul\":1609:1639   */\n      gt\n        /* \"#utility.yul\":1606:1656   */\n      iszero\n      tag_572\n      jumpi\n        /* \"#utility.yul\":1652:1653   */\n      0x00\n        /* \"#utility.yul\":1649:1650   */\n      dup1\n        /* \"#utility.yul\":1642:1654   */\n      revert\n        /* \"#utility.yul\":1606:1656   */\n    tag_572:\n        /* \"#utility.yul\":1675:1724   */\n      tag_573\n        /* \"#utility.yul\":1716:1723   */\n      dup6\n        /* \"#utility.yul\":1707:1713   */\n      dup3\n        /* \"#utility.yul\":1696:1705   */\n      dup7\n        /* \"#utility.yul\":1692:1714   */\n      add\n        /* \"#utility.yul\":1675:1724   */\n      tag_542\n      jump\t// in\n    tag_573:\n        /* \"#utility.yul\":1665:1724   */\n      swap2\n      pop\n      pop\n        /* \"#utility.yul\":1342:1730   */\n      swap3\n      pop\n      swap3\n      swap1\n      pop\n      jump\t// out\n        /* \"#utility.yul\":1735:1985   */\n    tag_543:\n        /* \"#utility.yul\":1820:1821   */\n      0x00\n        /* \"#utility.yul\":1830:1943   */\n    tag_575:\n        /* \"#utility.yul\":1844:1850   */\n      dup4\n        /* \"#utility.yul\":1841:1842   */\n      dup2\n        /* \"#utility.yul\":1838:1851   */\n      lt\n        /* \"#utility.yul\":1830:1943   */\n      iszero\n      tag_577\n      jumpi\n        /* \"#utility.yul\":1920:1931   */\n      dup2\n      dup2\n      add\n        /* \"#utility.yul\":1914:1932   */\n      mload\n        /* \"#utility.yul\":1901:1912   */\n      dup4\n      dup3\n      add\n        /* \"#utility.yul\":1894:1933   */\n      mstore\n        /* \"#utility.yul\":1866:1868   */\n      0x20\n        /* \"#utility.yul\":1859:1869   */\n      add\n        /* \"#utility.yul\":1830:1943   */\n      jump(tag_575)\n    tag_577:\n      pop\n      pop\n        /* \"#utility.yul\":1977:1978   */\n      0x00\n        /* \"#utility.yul\":1959:1975   */\n      swap2\n      add\n        /* \"#utility.yul\":1952:1979   */\n      mstore\n        /* \"#utility.yul\":1735:1985   */\n      jump\t// out\n        /* \"#utility.yul\":1990:2261   */\n    tag_544:\n        /* \"#utility.yul\":2032:2035   */\n      0x00\n        /* \"#utility.yul\":2070:2075   */\n      dup2\n        /* \"#utility.yul\":2064:2076   */\n      mload\n        /* \"#utility.yul\":2097:2103   */\n      dup1\n        /* \"#utility.yul\":2092:2095   */\n      dup5\n        /* \"#utility.yul\":2085:2104   */\n      mstore\n        /* \"#utility.yul\":2113:2189   */\n      tag_579\n        /* \"#utility.yul\":2182:2188   */\n      dup2\n        /* \"#utility.yul\":2175:2179   */\n      0x20\n        /* \"#utility.yul\":2170:2173   */\n      dup7\n        /* \"#utility.yul\":2166:2180   */\n      add\n        /* \"#utility.yul\":2159:2163   */\n      0x20\n        /* \"#utility.yul\":2152:2157   */\n      dup7\n        /* \"#utility.yul\":2148:2164   */\n      add\n        /* \"#utility.yul\":2113:2189   */\n      tag_543\n      jump\t// in\n    tag_579:\n        /* \"#utility.yul\":2243:2245   */\n      0x1f\n        /* \"#utility.yul\":2222:2237   */\n      add\n      not(0x1f)\n        /* \"#utility.yul\":2218:2247   */\n      and\n        /* \"#utility.yul\":2209:2248   */\n      swap3\n      swap1\n      swap3\n      add\n        /* \"#utility.yul\":2250:2254   */\n      0x20\n        /* \"#utility.yul\":2205:2255   */\n      add\n      swap3\n        /* \"#utility.yul\":1990:2261   */\n      swap2\n      pop\n      pop\n      jump\t// out\n        /* \"#utility.yul\":2266:2486   */\n    tag_48:\n        /* \"#utility.yul\":2415:2417   */\n      0x20\n        /* \"#utility.yul\":2404:2413   */\n      dup2\n        /* \"#utility.yul\":2397:2418   */\n      mstore\n        /* \"#utility.yul\":2378:2382   */\n      0x00\n        /* \"#utility.yul\":2435:2480   */\n      tag_581\n        /* \"#utility.yul\":2476:2478   */\n      0x20\n        /* \"#utility.yul\":2465:2474   */\n      dup4\n        /* \"#utility.yul\":2461:2479   */\n      add\n        /* \"#utility.yul\":2453:2459   */\n      dup5\n        /* \"#utility.yul\":2435:2480   */\n      tag_544\n      jump\t// in\n    tag_581:\n        /* \"#utility.yul\":2427:2480   */\n      swap4\n        /* \"#utility.yul\":2266:2486   */\n      swap3\n      pop\n      pop\n      pop\n      jump\t// out\n        /* \"#utility.yul\":2491:2622   */\n    tag_545:\n      sub(shl(0xa0, 0x01), 0x01)\n        /* \"#utility.yul\":2566:2597   */\n      dup2\n      and\n        /* \"#utility.yul\":2556:2598   */\n      dup2\n      eq\n        /* \"#utility.yul\":2546:2616   */\n      tag_427\n      jumpi\n        /* \"#utility.yul\":2612:2613   */\n      0x00\n        /* \"#utility.yul\":2609:2610   */\n      dup1\n        /* \"#utility.yul\":2602:2614   */\n      revert\n        /* \"#utility.yul\":2627:2942   */\n    tag_52:\n        /* \"#utility.yul\":2695:2701   */\n      0x00\n        /* \"#utility.yul\":2703:2709   */\n      dup1\n        /* \"#utility.yul\":2756:2758   */\n      0x40\n        /* \"#utility.yul\":2744:2753   */\n      dup4\n        /* \"#utility.yul\":2735:2742   */\n      dup6\n        /* \"#utility.yul\":2731:2754   */\n      sub\n        /* \"#utility.yul\":2727:2759   */\n      slt\n        /* \"#utility.yul\":2724:2776   */\n      iszero\n      tag_585\n      jumpi\n        /* \"#utility.yul\":2772:2773   */\n      0x00\n        /* \"#utility.yul\":2769:2770   */\n      dup1\n        /* \"#utility.yul\":2762:2774   */\n      revert\n        /* \"#utility.yul\":2724:2776   */\n    tag_585:\n        /* \"#utility.yul\":2811:2820   */\n      dup3\n        /* \"#utility.yul\":2798:2821   */\n      calldataload\n        /* \"#utility.yul\":2830:2861   */\n      tag_586\n        /* \"#utility.yul\":2855:2860   */\n      dup2\n        /* \"#utility.yul\":2830:2861   */\n      tag_545\n      jump\t// in\n    tag_586:\n        /* \"#utility.yul\":2880:2885   */\n      swap5\n        /* \"#utility.yul\":2932:2934   */\n      0x20\n        /* \"#utility.yul\":2917:2935   */\n      swap4\n      swap1\n      swap4\n      add\n        /* \"#utility.yul\":2904:2936   */\n      calldataload\n      swap4\n      pop\n      pop\n      pop\n        /* \"#utility.yul\":2627:2942   */\n      jump\t// out\n        /* \"#utility.yul\":3139:3319   */\n    tag_59:\n        /* \"#utility.yul\":3198:3204   */\n      0x00\n        /* \"#utility.yul\":3251:3253   */\n      0x20\n        /* \"#utility.yul\":3239:3248   */\n      dup3\n        /* \"#utility.yul\":3230:3237   */\n      dup5\n        /* \"#utility.yul\":3226:3249   */\n      sub\n        /* \"#utility.yul\":3222:3254   */\n      slt\n        /* \"#utility.yul\":3219:3271   */\n      iszero\n      tag_589\n      jumpi\n        /* \"#utility.yul\":3267:3268   */\n      0x00\n        /* \"#utility.yul\":3264:3265   */\n      dup1\n        /* \"#utility.yul\":3257:3269   */\n      revert\n        /* \"#utility.yul\":3219:3271   */\n    tag_589:\n      pop\n        /* \"#utility.yul\":3290:3313   */\n      calldataload\n      swap2\n        /* \"#utility.yul\":3139:3319   */\n      swap1\n      pop\n      jump\t// out\n        /* \"#utility.yul\":3741:4197   */\n    tag_74:\n        /* \"#utility.yul\":3818:3824   */\n      0x00\n        /* \"#utility.yul\":3826:3832   */\n      dup1\n        /* \"#utility.yul\":3834:3840   */\n      0x00\n        /* \"#utility.yul\":3887:3889   */\n      0x60\n        /* \"#utility.yul\":3875:3884   */\n      dup5\n        /* \"#utility.yul\":3866:3873   */\n      dup7\n        /* \"#utility.yul\":3862:3885   */\n      sub\n        /* \"#utility.yul\":3858:3890   */\n      slt\n        /* \"#utility.yul\":3855:3907   */\n      iszero\n      tag_593\n      jumpi\n        /* \"#utility.yul\":3903:3904   */\n      0x00\n        /* \"#utility.yul\":3900:3901   */\n      dup1\n        /* \"#utility.yul\":3893:3905   */\n      revert\n        /* \"#utility.yul\":3855:3907   */\n    tag_593:\n        /* \"#utility.yul\":3942:3951   */\n      dup4\n        /* \"#utility.yul\":3929:3952   */\n      calldataload\n        /* \"#utility.yul\":3961:3992   */\n      tag_594\n        /* \"#utility.yul\":3986:3991   */\n      dup2\n        /* \"#utility.yul\":3961:3992   */\n      tag_545\n      jump\t// in\n    tag_594:\n        /* \"#utility.yul\":4011:4016   */\n      swap3\n      pop\n        /* \"#utility.yul\":4068:4070   */\n      0x20\n        /* \"#utility.yul\":4053:4071   */\n      dup5\n      add\n        /* \"#utility.yul\":4040:4072   */\n      calldataload\n        /* \"#utility.yul\":4081:4114   */\n      tag_595\n        /* \"#utility.yul\":4040:4072   */\n      dup2\n        /* \"#utility.yul\":4081:4114   */\n      tag_545\n      jump\t// in\n    tag_595:\n        /* \"#utility.yul\":3741:4197   */\n      swap3\n      swap6\n        /* \"#utility.yul\":4133:4140   */\n      swap3\n      swap5\n      pop\n      pop\n      pop\n        /* \"#utility.yul\":4187:4189   */\n      0x40\n        /* \"#utility.yul\":4172:4190   */\n      swap2\n      swap1\n      swap2\n      add\n        /* \"#utility.yul\":4159:4191   */\n      calldataload\n      swap1\n        /* \"#utility.yul\":3741:4197   */\n      jump\t// out\n        /* \"#utility.yul\":4202:5020   */\n    tag_81:\n        /* \"#utility.yul\":4427:4429   */\n      0x20\n        /* \"#utility.yul\":4479:4500   */\n      dup1\n      dup3\n      mstore\n        /* \"#utility.yul\":4549:4562   */\n      dup3\n      mload\n        /* \"#utility.yul\":4452:4470   */\n      dup3\n      dup3\n      add\n        /* \"#utility.yul\":4571:4593   */\n      dup2\n      swap1\n      mstore\n        /* \"#utility.yul\":4398:4402   */\n      0x00\n      swap2\n        /* \"#utility.yul\":4427:4429   */\n      swap1\n        /* \"#utility.yul\":4612:4614   */\n      0x40\n      swap1\n        /* \"#utility.yul\":4630:4648   */\n      dup2\n      dup6\n      add\n      swap1\n        /* \"#utility.yul\":4671:4686   */\n      dup7\n      dup5\n      add\n        /* \"#utility.yul\":4398:4402   */\n      dup6\n        /* \"#utility.yul\":4714:4994   */\n    tag_597:\n        /* \"#utility.yul\":4728:4734   */\n      dup3\n        /* \"#utility.yul\":4725:4726   */\n      dup2\n        /* \"#utility.yul\":4722:4735   */\n      lt\n        /* \"#utility.yul\":4714:4994   */\n      iszero\n      tag_599\n      jumpi\n        /* \"#utility.yul\":4787:4800   */\n      dup2\n      mload\n        /* \"#utility.yul\":4829:4838   */\n      dup1\n      mload\n      sub(shl(0xa0, 0x01), 0x01)\n        /* \"#utility.yul\":4825:4860   */\n      and\n        /* \"#utility.yul\":4813:4861   */\n      dup6\n      mstore\n        /* \"#utility.yul\":4901:4912   */\n      dup7\n      add\n        /* \"#utility.yul\":4895:4913   */\n      mload\n        /* \"#utility.yul\":4881:4893   */\n      dup7\n      dup6\n      add\n        /* \"#utility.yul\":4874:4914   */\n      mstore\n        /* \"#utility.yul\":4934:4946   */\n      swap3\n      dup5\n      add\n      swap3\n        /* \"#utility.yul\":4969:4984   */\n      swap1\n      dup6\n      add\n      swap1\n        /* \"#utility.yul\":4857:4858   */\n      0x01\n        /* \"#utility.yul\":4743:4752   */\n      add\n        /* \"#utility.yul\":4714:4994   */\n      jump(tag_597)\n    tag_599:\n      pop\n        /* \"#utility.yul\":5011:5014   */\n      swap2\n      swap8\n        /* \"#utility.yul\":4202:5020   */\n      swap7\n      pop\n      pop\n      pop\n      pop\n      pop\n      pop\n      pop\n      jump\t// out\n        /* \"#utility.yul\":5442:5689   */\n    tag_99:\n        /* \"#utility.yul\":5501:5507   */\n      0x00\n        /* \"#utility.yul\":5554:5556   */\n      0x20\n        /* \"#utility.yul\":5542:5551   */\n      dup3\n        /* \"#utility.yul\":5533:5540   */\n      dup5\n        /* \"#utility.yul\":5529:5552   */\n      sub\n        /* \"#utility.yul\":5525:5557   */\n      slt\n        /* \"#utility.yul\":5522:5574   */\n      iszero\n      tag_603\n      jumpi\n        /* \"#utility.yul\":5570:5571   */\n      0x00\n        /* \"#utility.yul\":5567:5568   */\n      dup1\n        /* \"#utility.yul\":5560:5572   */\n      revert\n        /* \"#utility.yul\":5522:5574   */\n    tag_603:\n        /* \"#utility.yul\":5609:5618   */\n      dup2\n        /* \"#utility.yul\":5596:5619   */\n      calldataload\n        /* \"#utility.yul\":5628:5659   */\n      tag_581\n        /* \"#utility.yul\":5653:5658   */\n      dup2\n        /* \"#utility.yul\":5628:5659   */\n      tag_545\n      jump\t// in\n        /* \"#utility.yul\":6088:6455   */\n    tag_546:\n        /* \"#utility.yul\":6151:6159   */\n      0x00\n        /* \"#utility.yul\":6161:6167   */\n      dup1\n        /* \"#utility.yul\":6215:6218   */\n      dup4\n        /* \"#utility.yul\":6208:6212   */\n      0x1f\n        /* \"#utility.yul\":6200:6206   */\n      dup5\n        /* \"#utility.yul\":6196:6213   */\n      add\n        /* \"#utility.yul\":6192:6219   */\n      slt\n        /* \"#utility.yul\":6182:6237   */\n      tag_607\n      jumpi\n        /* \"#utility.yul\":6233:6234   */\n      0x00\n        /* \"#utility.yul\":6230:6231   */\n      dup1\n        /* \"#utility.yul\":6223:6235   */\n      revert\n        /* \"#utility.yul\":6182:6237   */\n    tag_607:\n      pop\n        /* \"#utility.yul\":6256:6276   */\n      dup2\n      calldataload\n      sub(shl(0x40, 0x01), 0x01)\n        /* \"#utility.yul\":6288:6318   */\n      dup2\n      gt\n        /* \"#utility.yul\":6285:6335   */\n      iszero\n      tag_608\n      jumpi\n        /* \"#utility.yul\":6331:6332   */\n      0x00\n        /* \"#utility.yul\":6328:6329   */\n      dup1\n        /* \"#utility.yul\":6321:6333   */\n      revert\n        /* \"#utility.yul\":6285:6335   */\n    tag_608:\n        /* \"#utility.yul\":6368:6372   */\n      0x20\n        /* \"#utility.yul\":6360:6366   */\n      dup4\n        /* \"#utility.yul\":6356:6373   */\n      add\n        /* \"#utility.yul\":6344:6373   */\n      swap2\n      pop\n        /* \"#utility.yul\":6428:6431   */\n      dup4\n        /* \"#utility.yul\":6421:6425   */\n      0x20\n        /* \"#utility.yul\":6411:6417   */\n      dup3\n        /* \"#utility.yul\":6408:6409   */\n      0x05\n        /* \"#utility.yul\":6404:6418   */\n      shl\n        /* \"#utility.yul\":6396:6402   */\n      dup6\n        /* \"#utility.yul\":6392:6419   */\n      add\n        /* \"#utility.yul\":6388:6426   */\n      add\n        /* \"#utility.yul\":6385:6432   */\n      gt\n        /* \"#utility.yul\":6382:6449   */\n      iszero\n      tag_609\n      jumpi\n        /* \"#utility.yul\":6445:6446   */\n      0x00\n        /* \"#utility.yul\":6442:6443   */\n      dup1\n        /* \"#utility.yul\":6435:6447   */\n      revert\n        /* \"#utility.yul\":6382:6449   */\n    tag_609:\n        /* \"#utility.yul\":6088:6455   */\n      swap3\n      pop\n      swap3\n      swap1\n      pop\n      jump\t// out\n        /* \"#utility.yul\":6460:6619   */\n    tag_547:\n        /* \"#utility.yul\":6527:6547   */\n      dup1\n      calldataload\n        /* \"#utility.yul\":6587:6593   */\n      0xffff\n        /* \"#utility.yul\":6576:6594   */\n      dup2\n      and\n        /* \"#utility.yul\":6566:6595   */\n      dup2\n      eq\n        /* \"#utility.yul\":6556:6613   */\n      tag_611\n      jumpi\n        /* \"#utility.yul\":6609:6610   */\n      0x00\n        /* \"#utility.yul\":6606:6607   */\n      dup1\n        /* \"#utility.yul\":6599:6611   */\n      revert\n        /* \"#utility.yul\":6556:6613   */\n    tag_611:\n        /* \"#utility.yul\":6460:6619   */\n      swap2\n      swap1\n      pop\n      jump\t// out\n        /* \"#utility.yul\":6624:7542   */\n    tag_111:\n        /* \"#utility.yul\":6762:6768   */\n      0x00\n        /* \"#utility.yul\":6770:6776   */\n      dup1\n        /* \"#utility.yul\":6778:6784   */\n      0x00\n        /* \"#utility.yul\":6786:6792   */\n      dup1\n        /* \"#utility.yul\":6794:6800   */\n      0x00\n        /* \"#utility.yul\":6802:6808   */\n      dup1\n        /* \"#utility.yul\":6855:6858   */\n      0x80\n        /* \"#utility.yul\":6843:6852   */\n      dup8\n        /* \"#utility.yul\":6834:6841   */\n      dup10\n        /* \"#utility.yul\":6830:6853   */\n      sub\n        /* \"#utility.yul\":6826:6859   */\n      slt\n        /* \"#utility.yul\":6823:6876   */\n      iszero\n      tag_613\n      jumpi\n        /* \"#utility.yul\":6872:6873   */\n      0x00\n        /* \"#utility.yul\":6869:6870   */\n      dup1\n        /* \"#utility.yul\":6862:6874   */\n      revert\n        /* \"#utility.yul\":6823:6876   */\n    tag_613:\n        /* \"#utility.yul\":6912:6921   */\n      dup7\n        /* \"#utility.yul\":6899:6922   */\n      calldataload\n      sub(shl(0x40, 0x01), 0x01)\n        /* \"#utility.yul\":6982:6984   */\n      dup1\n        /* \"#utility.yul\":6974:6980   */\n      dup3\n        /* \"#utility.yul\":6971:6985   */\n      gt\n        /* \"#utility.yul\":6968:7002   */\n      iszero\n      tag_614\n      jumpi\n        /* \"#utility.yul\":6998:6999   */\n      0x00\n        /* \"#utility.yul\":6995:6996   */\n      dup1\n        /* \"#utility.yul\":6988:7000   */\n      revert\n        /* \"#utility.yul\":6968:7002   */\n    tag_614:\n        /* \"#utility.yul\":7037:7107   */\n      tag_615\n        /* \"#utility.yul\":7099:7106   */\n      dup11\n        /* \"#utility.yul\":7090:7096   */\n      dup4\n        /* \"#utility.yul\":7079:7088   */\n      dup12\n        /* \"#utility.yul\":7075:7097   */\n      add\n        /* \"#utility.yul\":7037:7107   */\n      tag_546\n      jump\t// in\n    tag_615:\n        /* \"#utility.yul\":7126:7134   */\n      swap1\n      swap9\n      pop\n        /* \"#utility.yul\":7011:7107   */\n      swap7\n      pop\n        /* \"#utility.yul\":7214:7216   */\n      0x20\n        /* \"#utility.yul\":7199:7217   */\n      dup10\n      add\n        /* \"#utility.yul\":7186:7218   */\n      calldataload\n      swap2\n      pop\n        /* \"#utility.yul\":7230:7246   */\n      dup1\n      dup3\n      gt\n        /* \"#utility.yul\":7227:7263   */\n      iszero\n      tag_616\n      jumpi\n        /* \"#utility.yul\":7259:7260   */\n      0x00\n        /* \"#utility.yul\":7256:7257   */\n      dup1\n        /* \"#utility.yul\":7249:7261   */\n      revert\n        /* \"#utility.yul\":7227:7263   */\n    tag_616:\n      pop\n        /* \"#utility.yul\":7298:7370   */\n      tag_617\n        /* \"#utility.yul\":7362:7369   */\n      dup10\n        /* \"#utility.yul\":7351:7359   */\n      dup3\n        /* \"#utility.yul\":7340:7349   */\n      dup11\n        /* \"#utility.yul\":7336:7360   */\n      add\n        /* \"#utility.yul\":7298:7370   */\n      tag_546\n      jump\t// in\n    tag_617:\n        /* \"#utility.yul\":7389:7397   */\n      swap1\n      swap6\n      pop\n        /* \"#utility.yul\":7272:7370   */\n      swap4\n      pop\n        /* \"#utility.yul\":7443:7480   */\n      tag_618\n      swap1\n      pop\n        /* \"#utility.yul\":7476:7478   */\n      0x40\n        /* \"#utility.yul\":7461:7479   */\n      dup9\n      add\n        /* \"#utility.yul\":7443:7480   */\n      tag_547\n      jump\t// in\n    tag_618:\n        /* \"#utility.yul\":7433:7480   */\n      swap2\n      pop\n        /* \"#utility.yul\":7499:7536   */\n      tag_619\n        /* \"#utility.yul\":7532:7534   */\n      0x60\n        /* \"#utility.yul\":7521:7530   */\n      dup9\n        /* \"#utility.yul\":7517:7535   */\n      add\n        /* \"#utility.yul\":7499:7536   */\n      tag_547\n      jump\t// in\n    tag_619:\n        /* \"#utility.yul\":7489:7536   */\n      swap1\n      pop\n        /* \"#utility.yul\":6624:7542   */\n      swap3\n      swap6\n      pop\n      swap3\n      swap6\n      pop\n      swap3\n      swap6\n      jump\t// out\n        /* \"#utility.yul\":7973:8079   */\n    tag_548:\n        /* \"#utility.yul\":8053:8054   */\n      0x02\n        /* \"#utility.yul\":8046:8051   */\n      dup2\n        /* \"#utility.yul\":8043:8055   */\n      lt\n        /* \"#utility.yul\":8033:8073   */\n      tag_427\n      jumpi\n        /* \"#utility.yul\":8069:8070   */\n      0x00\n        /* \"#utility.yul\":8066:8067   */\n      dup1\n        /* \"#utility.yul\":8059:8071   */\n      revert\n        /* \"#utility.yul\":8084:8922   */\n    tag_134:\n        /* \"#utility.yul\":8214:8220   */\n      0x00\n        /* \"#utility.yul\":8222:8228   */\n      dup1\n        /* \"#utility.yul\":8230:8236   */\n      0x00\n        /* \"#utility.yul\":8238:8244   */\n      dup1\n        /* \"#utility.yul\":8246:8252   */\n      0x00\n        /* \"#utility.yul\":8299:8302   */\n      0xa0\n        /* \"#utility.yul\":8287:8296   */\n      dup7\n        /* \"#utility.yul\":8278:8285   */\n      dup9\n        /* \"#utility.yul\":8274:8297   */\n      sub\n        /* \"#utility.yul\":8270:8303   */\n      slt\n        /* \"#utility.yul\":8267:8320   */\n      iszero\n      tag_625\n      jumpi\n        /* \"#utility.yul\":8316:8317   */\n      0x00\n        /* \"#utility.yul\":8313:8314   */\n      dup1\n        /* \"#utility.yul\":8306:8318   */\n      revert\n        /* \"#utility.yul\":8267:8320   */\n    tag_625:\n        /* \"#utility.yul\":8355:8364   */\n      dup6\n        /* \"#utility.yul\":8342:8365   */\n      calldataload\n        /* \"#utility.yul\":8374:8405   */\n      tag_626\n        /* \"#utility.yul\":8399:8404   */\n      dup2\n        /* \"#utility.yul\":8374:8405   */\n      tag_545\n      jump\t// in\n    tag_626:\n        /* \"#utility.yul\":8424:8429   */\n      swap5\n      pop\n        /* \"#utility.yul\":8476:8478   */\n      0x20\n        /* \"#utility.yul\":8461:8479   */\n      dup7\n      add\n        /* \"#utility.yul\":8448:8480   */\n      calldataload\n      swap4\n      pop\n        /* \"#utility.yul\":8532:8534   */\n      0x40\n        /* \"#utility.yul\":8517:8535   */\n      dup7\n      add\n        /* \"#utility.yul\":8504:8536   */\n      calldataload\n        /* \"#utility.yul\":8545:8583   */\n      tag_627\n        /* \"#utility.yul\":8504:8536   */\n      dup2\n        /* \"#utility.yul\":8545:8583   */\n      tag_548\n      jump\t// in\n    tag_627:\n        /* \"#utility.yul\":8602:8609   */\n      swap3\n      pop\n        /* \"#utility.yul\":8661:8663   */\n      0x60\n        /* \"#utility.yul\":8646:8664   */\n      dup7\n      add\n        /* \"#utility.yul\":8633:8665   */\n      calldataload\n        /* \"#utility.yul\":8674:8707   */\n      tag_628\n        /* \"#utility.yul\":8633:8665   */\n      dup2\n        /* \"#utility.yul\":8674:8707   */\n      tag_545\n      jump\t// in\n    tag_628:\n        /* \"#utility.yul\":8726:8733   */\n      swap2\n      pop\n        /* \"#utility.yul\":8784:8787   */\n      0x80\n        /* \"#utility.yul\":8769:8788   */\n      dup7\n      add\n        /* \"#utility.yul\":8756:8789   */\n      calldataload\n      sub(shl(0x40, 0x01), 0x01)\n        /* \"#utility.yul\":8801:8831   */\n      dup2\n      gt\n        /* \"#utility.yul\":8798:8848   */\n      iszero\n      tag_629\n      jumpi\n        /* \"#utility.yul\":8844:8845   */\n      0x00\n        /* \"#utility.yul\":8841:8842   */\n      dup1\n        /* \"#utility.yul\":8834:8846   */\n      revert\n        /* \"#utility.yul\":8798:8848   */\n    tag_629:\n        /* \"#utility.yul\":8867:8916   */\n      tag_630\n        /* \"#utility.yul\":8908:8915   */\n      dup9\n        /* \"#utility.yul\":8899:8905   */\n      dup3\n        /* \"#utility.yul\":8888:8897   */\n      dup10\n        /* \"#utility.yul\":8884:8906   */\n      add\n        /* \"#utility.yul\":8867:8916   */\n      tag_542\n      jump\t// in\n    tag_630:\n        /* \"#utility.yul\":8857:8916   */\n      swap2\n      pop\n      pop\n        /* \"#utility.yul\":8084:8922   */\n      swap3\n      swap6\n      pop\n      swap3\n      swap6\n      swap1\n      swap4\n      pop\n      jump\t// out\n        /* \"#utility.yul\":9135:9522   */\n    tag_152:\n        /* \"#utility.yul\":9222:9228   */\n      0x00\n        /* \"#utility.yul\":9275:9277   */\n      0x20\n        /* \"#utility.yul\":9263:9272   */\n      dup3\n        /* \"#utility.yul\":9254:9261   */\n      dup5\n        /* \"#utility.yul\":9250:9273   */\n      sub\n        /* \"#utility.yul\":9246:9278   */\n      slt\n        /* \"#utility.yul\":9243:9295   */\n      iszero\n      tag_633\n      jumpi\n        /* \"#utility.yul\":9291:9292   */\n      0x00\n        /* \"#utility.yul\":9288:9289   */\n      dup1\n        /* \"#utility.yul\":9281:9293   */\n      revert\n        /* \"#utility.yul\":9243:9295   */\n    tag_633:\n        /* \"#utility.yul\":9331:9340   */\n      dup2\n        /* \"#utility.yul\":9318:9341   */\n      calldataload\n      sub(shl(0x40, 0x01), 0x01)\n        /* \"#utility.yul\":9356:9362   */\n      dup2\n        /* \"#utility.yul\":9353:9383   */\n      gt\n        /* \"#utility.yul\":9350:9400   */\n      iszero\n      tag_634\n      jumpi\n        /* \"#utility.yul\":9396:9397   */\n      0x00\n        /* \"#utility.yul\":9393:9394   */\n      dup1\n        /* \"#utility.yul\":9386:9398   */\n      revert\n        /* \"#utility.yul\":9350:9400   */\n    tag_634:\n        /* \"#utility.yul\":9419:9441   */\n      dup3\n      add\n        /* \"#utility.yul\":9475:9477   */\n      0x60\n        /* \"#utility.yul\":9457:9473   */\n      dup2\n      dup6\n      sub\n        /* \"#utility.yul\":9453:9478   */\n      slt\n        /* \"#utility.yul\":9450:9495   */\n      iszero\n      tag_581\n      jumpi\n        /* \"#utility.yul\":9491:9492   */\n      0x00\n        /* \"#utility.yul\":9488:9489   */\n      dup1\n        /* \"#utility.yul\":9481:9493   */\n      revert\n        /* \"#utility.yul\":9527:9915   */\n    tag_179:\n        /* \"#utility.yul\":9595:9601   */\n      0x00\n        /* \"#utility.yul\":9603:9609   */\n      dup1\n        /* \"#utility.yul\":9656:9658   */\n      0x40\n        /* \"#utility.yul\":9644:9653   */\n      dup4\n        /* \"#utility.yul\":9635:9642   */\n      dup6\n        /* \"#utility.yul\":9631:9654   */\n      sub\n        /* \"#utility.yul\":9627:9659   */\n      slt\n        /* \"#utility.yul\":9624:9676   */\n      iszero\n      tag_637\n      jumpi\n        /* \"#utility.yul\":9672:9673   */\n      0x00\n        /* \"#utility.yul\":9669:9670   */\n      dup1\n        /* \"#utility.yul\":9662:9674   */\n      revert\n        /* \"#utility.yul\":9624:9676   */\n    tag_637:\n        /* \"#utility.yul\":9711:9720   */\n      dup3\n        /* \"#utility.yul\":9698:9721   */\n      calldataload\n        /* \"#utility.yul\":9730:9761   */\n      tag_638\n        /* \"#utility.yul\":9755:9760   */\n      dup2\n        /* \"#utility.yul\":9730:9761   */\n      tag_545\n      jump\t// in\n    tag_638:\n        /* \"#utility.yul\":9780:9785   */\n      swap2\n      pop\n        /* \"#utility.yul\":9837:9839   */\n      0x20\n        /* \"#utility.yul\":9822:9840   */\n      dup4\n      add\n        /* \"#utility.yul\":9809:9841   */\n      calldataload\n        /* \"#utility.yul\":9850:9883   */\n      tag_639\n        /* \"#utility.yul\":9809:9841   */\n      dup2\n        /* \"#utility.yul\":9850:9883   */\n      tag_545\n      jump\t// in\n    tag_639:\n        /* \"#utility.yul\":9902:9909   */\n      dup1\n        /* \"#utility.yul\":9892:9909   */\n      swap2\n      pop\n      pop\n        /* \"#utility.yul\":9527:9915   */\n      swap3\n      pop\n      swap3\n      swap1\n      pop\n      jump\t// out\n        /* \"#utility.yul\":10250:10434   */\n    tag_194:\n        /* \"#utility.yul\":10320:10326   */\n      0x00\n        /* \"#utility.yul\":10373:10375   */\n      0x20\n        /* \"#utility.yul\":10361:10370   */\n      dup3\n        /* \"#utility.yul\":10352:10359   */\n      dup5\n        /* \"#utility.yul\":10348:10371   */\n      sub\n        /* \"#utility.yul\":10344:10376   */\n      slt\n        /* \"#utility.yul\":10341:10393   */\n      iszero\n      tag_642\n      jumpi\n        /* \"#utility.yul\":10389:10390   */\n      0x00\n        /* \"#utility.yul\":10386:10387   */\n      dup1\n        /* \"#utility.yul\":10379:10391   */\n      revert\n        /* \"#utility.yul\":10341:10393   */\n    tag_642:\n      pop\n        /* \"#utility.yul\":10412:10428   */\n      mload\n      swap2\n        /* \"#utility.yul\":10250:10434   */\n      swap1\n      pop\n      jump\t// out\n        /* \"#utility.yul\":10781:10962   */\n    tag_549:\n        /* \"#utility.yul\":10839:10843   */\n      0x00\n      sub(shl(0x40, 0x01), 0x01)\n        /* \"#utility.yul\":10864:10870   */\n      dup3\n        /* \"#utility.yul\":10861:10891   */\n      gt\n        /* \"#utility.yul\":10858:10914   */\n      iszero\n      tag_646\n      jumpi\n        /* \"#utility.yul\":10894:10912   */\n      tag_646\n      tag_538\n      jump\t// in\n    tag_646:\n      pop\n        /* \"#utility.yul\":10939:10940   */\n      0x05\n        /* \"#utility.yul\":10935:10949   */\n      shl\n        /* \"#utility.yul\":10951:10955   */\n      0x20\n        /* \"#utility.yul\":10931:10956   */\n      add\n      swap1\n        /* \"#utility.yul\":10781:10962   */\n      jump\t// out\n        /* \"#utility.yul\":10967:11115   */\n    tag_550:\n        /* \"#utility.yul\":11051:11064   */\n      dup1\n      mload\n        /* \"#utility.yul\":11073:11109   */\n      tag_611\n        /* \"#utility.yul\":11051:11064   */\n      dup2\n        /* \"#utility.yul\":11073:11109   */\n      tag_548\n      jump\t// in\n        /* \"#utility.yul\":11120:13126   */\n    tag_199:\n        /* \"#utility.yul\":11216:11222   */\n      0x00\n        /* \"#utility.yul\":11247:11249   */\n      0x20\n        /* \"#utility.yul\":11290:11292   */\n      dup1\n        /* \"#utility.yul\":11278:11287   */\n      dup4\n        /* \"#utility.yul\":11269:11276   */\n      dup6\n        /* \"#utility.yul\":11265:11288   */\n      sub\n        /* \"#utility.yul\":11261:11293   */\n      slt\n        /* \"#utility.yul\":11258:11310   */\n      iszero\n      tag_650\n      jumpi\n        /* \"#utility.yul\":11306:11307   */\n      0x00\n        /* \"#utility.yul\":11303:11304   */\n      dup1\n        /* \"#utility.yul\":11296:11308   */\n      revert\n        /* \"#utility.yul\":11258:11310   */\n    tag_650:\n        /* \"#utility.yul\":11339:11348   */\n      dup3\n        /* \"#utility.yul\":11333:11349   */\n      mload\n      sub(shl(0x40, 0x01), 0x01)\n        /* \"#utility.yul\":11409:11411   */\n      dup1\n        /* \"#utility.yul\":11401:11407   */\n      dup3\n        /* \"#utility.yul\":11398:11412   */\n      gt\n        /* \"#utility.yul\":11395:11429   */\n      iszero\n      tag_651\n      jumpi\n        /* \"#utility.yul\":11425:11426   */\n      0x00\n        /* \"#utility.yul\":11422:11423   */\n      dup1\n        /* \"#utility.yul\":11415:11427   */\n      revert\n        /* \"#utility.yul\":11395:11429   */\n    tag_651:\n        /* \"#utility.yul\":11448:11470   */\n      swap1\n      dup5\n      add\n      swap1\n        /* \"#utility.yul\":11504:11508   */\n      0x60\n        /* \"#utility.yul\":11486:11502   */\n      dup3\n      dup8\n      sub\n        /* \"#utility.yul\":11482:11509   */\n      slt\n        /* \"#utility.yul\":11479:11526   */\n      iszero\n      tag_652\n      jumpi\n        /* \"#utility.yul\":11522:11523   */\n      0x00\n        /* \"#utility.yul\":11519:11520   */\n      dup1\n        /* \"#utility.yul\":11512:11524   */\n      revert\n        /* \"#utility.yul\":11479:11526   */\n    tag_652:\n        /* \"#utility.yul\":11548:11570   */\n      tag_653\n      tag_539\n      jump\t// in\n    tag_653:\n        /* \"#utility.yul\":11601:11603   */\n      dup3\n        /* \"#utility.yul\":11595:11604   */\n      mload\n        /* \"#utility.yul\":11629:11631   */\n      dup3\n        /* \"#utility.yul\":11619:11627   */\n      dup2\n        /* \"#utility.yul\":11616:11632   */\n      gt\n        /* \"#utility.yul\":11613:11649   */\n      iszero\n      tag_654\n      jumpi\n        /* \"#utility.yul\":11645:11646   */\n      0x00\n        /* \"#utility.yul\":11642:11643   */\n      dup1\n        /* \"#utility.yul\":11635:11647   */\n      revert\n        /* \"#utility.yul\":11613:11649   */\n    tag_654:\n        /* \"#utility.yul\":11668:11685   */\n      dup4\n      add\n        /* \"#utility.yul\":11716:11720   */\n      0x1f\n        /* \"#utility.yul\":11708:11721   */\n      dup2\n      add\n        /* \"#utility.yul\":11704:11731   */\n      dup9\n      sgt\n        /* \"#utility.yul\":11694:11749   */\n      tag_655\n      jumpi\n        /* \"#utility.yul\":11745:11746   */\n      0x00\n        /* \"#utility.yul\":11742:11743   */\n      dup1\n        /* \"#utility.yul\":11735:11747   */\n      revert\n        /* \"#utility.yul\":11694:11749   */\n    tag_655:\n        /* \"#utility.yul\":11774:11776   */\n      dup1\n        /* \"#utility.yul\":11768:11777   */\n      mload\n        /* \"#utility.yul\":11797:11855   */\n      tag_656\n        /* \"#utility.yul\":11813:11854   */\n      tag_568\n        /* \"#utility.yul\":11851:11853   */\n      dup3\n        /* \"#utility.yul\":11813:11854   */\n      tag_549\n      jump\t// in\n        /* \"#utility.yul\":11797:11855   */\n    tag_656:\n        /* \"#utility.yul\":11889:11904   */\n      dup2\n      dup2\n      mstore\n        /* \"#utility.yul\":11971:11972   */\n      0x05\n        /* \"#utility.yul\":11967:11977   */\n      swap2\n      swap1\n      swap2\n      shl\n        /* \"#utility.yul\":11959:11978   */\n      dup3\n      add\n        /* \"#utility.yul\":11955:11983   */\n      dup7\n      add\n      swap1\n        /* \"#utility.yul\":11920:11932   */\n      dup7\n      dup2\n      add\n      swap1\n        /* \"#utility.yul\":11995:12014   */\n      dup11\n      dup4\n      gt\n        /* \"#utility.yul\":11992:12031   */\n      iszero\n      tag_658\n      jumpi\n        /* \"#utility.yul\":12027:12028   */\n      0x00\n        /* \"#utility.yul\":12024:12025   */\n      dup1\n        /* \"#utility.yul\":12017:12029   */\n      revert\n        /* \"#utility.yul\":11992:12031   */\n    tag_658:\n        /* \"#utility.yul\":12059:12061   */\n      dup8\n        /* \"#utility.yul\":12055:12057   */\n      dup5\n        /* \"#utility.yul\":12051:12062   */\n      add\n        /* \"#utility.yul\":12071:12936   */\n    tag_659:\n        /* \"#utility.yul\":12087:12093   */\n      dup4\n        /* \"#utility.yul\":12082:12085   */\n      dup2\n        /* \"#utility.yul\":12079:12094   */\n      lt\n        /* \"#utility.yul\":12071:12936   */\n      iszero\n      tag_661\n      jumpi\n        /* \"#utility.yul\":12166:12169   */\n      dup1\n        /* \"#utility.yul\":12160:12170   */\n      mload\n        /* \"#utility.yul\":12202:12204   */\n      dup8\n        /* \"#utility.yul\":12189:12200   */\n      dup2\n        /* \"#utility.yul\":12186:12205   */\n      gt\n        /* \"#utility.yul\":12183:12292   */\n      iszero\n      tag_662\n      jumpi\n        /* \"#utility.yul\":12246:12247   */\n      0x00\n        /* \"#utility.yul\":12275:12277   */\n      dup1\n        /* \"#utility.yul\":12271:12273   */\n      dup2\n        /* \"#utility.yul\":12264:12278   */\n      revert\n        /* \"#utility.yul\":12183:12292   */\n    tag_662:\n        /* \"#utility.yul\":12315:12335   */\n      dup6\n      add\n        /* \"#utility.yul\":12370:12372   */\n      0x3f\n        /* \"#utility.yul\":12362:12373   */\n      dup2\n      add\n        /* \"#utility.yul\":12358:12383   */\n      dup14\n      sgt\n        /* \"#utility.yul\":12348:12471   */\n      tag_663\n      jumpi\n        /* \"#utility.yul\":12425:12426   */\n      0x00\n        /* \"#utility.yul\":12454:12456   */\n      dup1\n        /* \"#utility.yul\":12450:12452   */\n      dup2\n        /* \"#utility.yul\":12443:12457   */\n      revert\n        /* \"#utility.yul\":12348:12471   */\n    tag_663:\n        /* \"#utility.yul\":12508:12510   */\n      dup10\n        /* \"#utility.yul\":12504:12506   */\n      dup2\n        /* \"#utility.yul\":12500:12511   */\n      add\n        /* \"#utility.yul\":12494:12512   */\n      mload\n        /* \"#utility.yul\":12536:12538   */\n      0x40\n        /* \"#utility.yul\":12564:12612   */\n      tag_664\n        /* \"#utility.yul\":12580:12611   */\n      tag_568\n        /* \"#utility.yul\":12608:12610   */\n      dup4\n        /* \"#utility.yul\":12580:12611   */\n      tag_541\n      jump\t// in\n        /* \"#utility.yul\":12564:12612   */\n    tag_664:\n        /* \"#utility.yul\":12639:12641   */\n      dup3\n        /* \"#utility.yul\":12632:12637   */\n      dup2\n        /* \"#utility.yul\":12625:12642   */\n      mstore\n        /* \"#utility.yul\":12684:12691   */\n      dup16\n        /* \"#utility.yul\":12678:12681   */\n      dup3\n        /* \"#utility.yul\":12673:12675   */\n      dup5\n        /* \"#utility.yul\":12669:12671   */\n      dup7\n        /* \"#utility.yul\":12665:12676   */\n      add\n        /* \"#utility.yul\":12661:12682   */\n      add\n        /* \"#utility.yul\":12658:12692   */\n      gt\n        /* \"#utility.yul\":12655:12782   */\n      iszero\n      tag_666\n      jumpi\n        /* \"#utility.yul\":12734:12735   */\n      0x00\n        /* \"#utility.yul\":12764:12767   */\n      dup1\n        /* \"#utility.yul\":12759:12762   */\n      dup2\n        /* \"#utility.yul\":12752:12768   */\n      revert\n        /* \"#utility.yul\":12655:12782   */\n    tag_666:\n        /* \"#utility.yul\":12795:12863   */\n      tag_667\n        /* \"#utility.yul\":12860:12862   */\n      dup4\n        /* \"#utility.yul\":12855:12857   */\n      dup15\n        /* \"#utility.yul\":12848:12853   */\n      dup4\n        /* \"#utility.yul\":12844:12858   */\n      add\n        /* \"#utility.yul\":12838:12841   */\n      dup5\n        /* \"#utility.yul\":12834:12836   */\n      dup8\n        /* \"#utility.yul\":12830:12842   */\n      add\n        /* \"#utility.yul\":12795:12863   */\n      tag_543\n      jump\t// in\n    tag_667:\n        /* \"#utility.yul\":12876:12894   */\n      dup7\n      mstore\n      pop\n      pop\n      pop\n        /* \"#utility.yul\":12914:12926   */\n      swap2\n      dup9\n      add\n      swap2\n        /* \"#utility.yul\":12104:12116   */\n      dup9\n      add\n        /* \"#utility.yul\":12071:12936   */\n      jump(tag_659)\n    tag_661:\n      pop\n        /* \"#utility.yul\":12945:12965   */\n      dup5\n      mstore\n      pop\n      pop\n      pop\n        /* \"#utility.yul\":13003:13014   */\n      dup3\n      dup5\n      add\n        /* \"#utility.yul\":12997:13015   */\n      mload\n        /* \"#utility.yul\":12981:12995   */\n      dup5\n      dup3\n      add\n        /* \"#utility.yul\":12974:13016   */\n      mstore\n        /* \"#utility.yul\":13048:13095   */\n      tag_668\n        /* \"#utility.yul\":13091:13093   */\n      0x40\n        /* \"#utility.yul\":13083:13094   */\n      dup5\n      add\n        /* \"#utility.yul\":13048:13095   */\n      tag_550\n      jump\t// in\n    tag_668:\n        /* \"#utility.yul\":13043:13045   */\n      0x40\n        /* \"#utility.yul\":13032:13046   */\n      dup3\n      add\n        /* \"#utility.yul\":13025:13096   */\n      mstore\n        /* \"#utility.yul\":13036:13041   */\n      swap7\n        /* \"#utility.yul\":11120:13126   */\n      swap6\n      pop\n      pop\n      pop\n      pop\n      pop\n      pop\n      jump\t// out\n        /* \"#utility.yul\":13131:13258   */\n    tag_551:\n        /* \"#utility.yul\":13192:13202   */\n      0x4e487b71\n        /* \"#utility.yul\":13187:13190   */\n      0xe0\n        /* \"#utility.yul\":13183:13203   */\n      shl\n        /* \"#utility.yul\":13180:13181   */\n      0x00\n        /* \"#utility.yul\":13173:13204   */\n      mstore\n        /* \"#utility.yul\":13223:13227   */\n      0x11\n        /* \"#utility.yul\":13220:13221   */\n      0x04\n        /* \"#utility.yul\":13213:13228   */\n      mstore\n        /* \"#utility.yul\":13247:13251   */\n      0x24\n        /* \"#utility.yul\":13244:13245   */\n      0x00\n        /* \"#utility.yul\":13237:13252   */\n      revert\n        /* \"#utility.yul\":13263:13431   */\n    tag_202:\n        /* \"#utility.yul\":13336:13345   */\n      dup1\n      dup3\n      mul\n        /* \"#utility.yul\":13367:13376   */\n      dup2\n      iszero\n        /* \"#utility.yul\":13384:13399   */\n      dup3\n      dup3\n      div\n        /* \"#utility.yul\":13378:13400   */\n      dup5\n      eq\n        /* \"#utility.yul\":13364:13401   */\n      or\n        /* \"#utility.yul\":13354:13425   */\n      tag_258\n      jumpi\n        /* \"#utility.yul\":13405:13423   */\n      tag_258\n      tag_551\n      jump\t// in\n        /* \"#utility.yul\":13436:13653   */\n    tag_204:\n        /* \"#utility.yul\":13476:13477   */\n      0x00\n        /* \"#utility.yul\":13502:13503   */\n      dup3\n        /* \"#utility.yul\":13492:13624   */\n      tag_674\n      jumpi\n        /* \"#utility.yul\":13546:13556   */\n      0x4e487b71\n        /* \"#utility.yul\":13541:13544   */\n      0xe0\n        /* \"#utility.yul\":13537:13557   */\n      shl\n        /* \"#utility.yul\":13534:13535   */\n      0x00\n        /* \"#utility.yul\":13527:13558   */\n      mstore\n        /* \"#utility.yul\":13581:13585   */\n      0x12\n        /* \"#utility.yul\":13578:13579   */\n      0x04\n        /* \"#utility.yul\":13571:13586   */\n      mstore\n        /* \"#utility.yul\":13609:13613   */\n      0x24\n        /* \"#utility.yul\":13606:13607   */\n      0x00\n        /* \"#utility.yul\":13599:13614   */\n      revert\n        /* \"#utility.yul\":13492:13624   */\n    tag_674:\n      pop\n        /* \"#utility.yul\":13638:13647   */\n      div\n      swap1\n        /* \"#utility.yul\":13436:13653   */\n      jump\t// out\n        /* \"#utility.yul\":13658:13909   */\n    tag_208:\n        /* \"#utility.yul\":13728:13734   */\n      0x00\n        /* \"#utility.yul\":13781:13783   */\n      0x20\n        /* \"#utility.yul\":13769:13778   */\n      dup3\n        /* \"#utility.yul\":13760:13767   */\n      dup5\n        /* \"#utility.yul\":13756:13779   */\n      sub\n        /* \"#utility.yul\":13752:13784   */\n      slt\n        /* \"#utility.yul\":13749:13801   */\n      iszero\n      tag_676\n      jumpi\n        /* \"#utility.yul\":13797:13798   */\n      0x00\n        /* \"#utility.yul\":13794:13795   */\n      dup1\n        /* \"#utility.yul\":13787:13799   */\n      revert\n        /* \"#utility.yul\":13749:13801   */\n    tag_676:\n        /* \"#utility.yul\":13829:13838   */\n      dup2\n        /* \"#utility.yul\":13823:13839   */\n      mload\n        /* \"#utility.yul\":13848:13879   */\n      tag_581\n        /* \"#utility.yul\":13873:13878   */\n      dup2\n        /* \"#utility.yul\":13848:13879   */\n      tag_545\n      jump\t// in\n        /* \"#utility.yul\":13914:14041   */\n    tag_214:\n        /* \"#utility.yul\":13975:13985   */\n      0x4e487b71\n        /* \"#utility.yul\":13970:13973   */\n      0xe0\n        /* \"#utility.yul\":13966:13986   */\n      shl\n        /* \"#utility.yul\":13963:13964   */\n      0x00\n        /* \"#utility.yul\":13956:13987   */\n      mstore\n        /* \"#utility.yul\":14006:14010   */\n      0x32\n        /* \"#utility.yul\":14003:14004   */\n      0x04\n        /* \"#utility.yul\":13996:14011   */\n      mstore\n        /* \"#utility.yul\":14030:14034   */\n      0x24\n        /* \"#utility.yul\":14027:14028   */\n      0x00\n        /* \"#utility.yul\":14020:14035   */\n      revert\n        /* \"#utility.yul\":14046:14173   */\n    tag_351:\n        /* \"#utility.yul\":14107:14117   */\n      0x4e487b71\n        /* \"#utility.yul\":14102:14105   */\n      0xe0\n        /* \"#utility.yul\":14098:14118   */\n      shl\n        /* \"#utility.yul\":14095:14096   */\n      0x00\n        /* \"#utility.yul\":14088:14119   */\n      mstore\n        /* \"#utility.yul\":14138:14142   */\n      0x21\n        /* \"#utility.yul\":14135:14136   */\n      0x04\n        /* \"#utility.yul\":14128:14143   */\n      mstore\n        /* \"#utility.yul\":14162:14166   */\n      0x24\n        /* \"#utility.yul\":14159:14160   */\n      0x00\n        /* \"#utility.yul\":14152:14167   */\n      revert\n        /* \"#utility.yul\":14178:14413   */\n    tag_552:\n        /* \"#utility.yul\":14257:14258   */\n      0x02\n        /* \"#utility.yul\":14250:14255   */\n      dup2\n        /* \"#utility.yul\":14247:14259   */\n      lt\n        /* \"#utility.yul\":14237:14380   */\n      tag_681\n      jumpi\n        /* \"#utility.yul\":14302:14312   */\n      0x4e487b71\n        /* \"#utility.yul\":14297:14300   */\n      0xe0\n        /* \"#utility.yul\":14293:14313   */\n      shl\n        /* \"#utility.yul\":14290:14291   */\n      0x00\n        /* \"#utility.yul\":14283:14314   */\n      mstore\n        /* \"#utility.yul\":14337:14341   */\n      0x21\n        /* \"#utility.yul\":14334:14335   */\n      0x04\n        /* \"#utility.yul\":14327:14342   */\n      mstore\n        /* \"#utility.yul\":14365:14369   */\n      0x24\n        /* \"#utility.yul\":14362:14363   */\n      0x00\n        /* \"#utility.yul\":14355:14370   */\n      revert\n        /* \"#utility.yul\":14237:14380   */\n    tag_681:\n        /* \"#utility.yul\":14389:14407   */\n      swap1\n      mstore\n        /* \"#utility.yul\":14178:14413   */\n      jump\t// out\n        /* \"#utility.yul\":14418:15020   */\n    tag_225:\n      sub(shl(0xa0, 0x01), 0x01)\n        /* \"#utility.yul\":14739:14754   */\n      dup7\n      dup2\n      and\n        /* \"#utility.yul\":14721:14755   */\n      dup3\n      mstore\n        /* \"#utility.yul\":14786:14788   */\n      0x20\n        /* \"#utility.yul\":14771:14789   */\n      dup3\n      add\n        /* \"#utility.yul\":14764:14798   */\n      dup7\n      swap1\n      mstore\n        /* \"#utility.yul\":14664:14668   */\n      0x00\n      swap1\n        /* \"#utility.yul\":14807:14858   */\n      tag_683\n        /* \"#utility.yul\":14854:14856   */\n      0x40\n        /* \"#utility.yul\":14839:14857   */\n      dup5\n      add\n        /* \"#utility.yul\":14831:14837   */\n      dup8\n        /* \"#utility.yul\":14807:14858   */\n      tag_552\n      jump\t// in\n    tag_683:\n        /* \"#utility.yul\":14906:14908   */\n      dup1\n        /* \"#utility.yul\":14898:14904   */\n      dup6\n        /* \"#utility.yul\":14894:14909   */\n      and\n        /* \"#utility.yul\":14889:14891   */\n      0x60\n        /* \"#utility.yul\":14878:14887   */\n      dup5\n        /* \"#utility.yul\":14874:14892   */\n      add\n        /* \"#utility.yul\":14867:14910   */\n      mstore\n      pop\n        /* \"#utility.yul\":14947:14950   */\n      0xa0\n        /* \"#utility.yul\":14941:14944   */\n      0x80\n        /* \"#utility.yul\":14930:14939   */\n      dup4\n        /* \"#utility.yul\":14926:14945   */\n      add\n        /* \"#utility.yul\":14919:14951   */\n      mstore\n        /* \"#utility.yul\":14968:15014   */\n      tag_684\n        /* \"#utility.yul\":15009:15012   */\n      0xa0\n        /* \"#utility.yul\":14998:15007   */\n      dup4\n        /* \"#utility.yul\":14994:15013   */\n      add\n        /* \"#utility.yul\":14986:14992   */\n      dup5\n        /* \"#utility.yul\":14968:15014   */\n      tag_544\n      jump\t// in\n    tag_684:\n        /* \"#utility.yul\":14960:15014   */\n      swap8\n        /* \"#utility.yul\":14418:15020   */\n      swap7\n      pop\n      pop\n      pop\n      pop\n      pop\n      pop\n      pop\n      jump\t// out\n        /* \"#utility.yul\":15025:15150   */\n    tag_234:\n        /* \"#utility.yul\":15090:15099   */\n      dup1\n      dup3\n      add\n        /* \"#utility.yul\":15111:15121   */\n      dup1\n      dup3\n      gt\n        /* \"#utility.yul\":15108:15144   */\n      iszero\n      tag_258\n      jumpi\n        /* \"#utility.yul\":15124:15142   */\n      tag_258\n      tag_551\n      jump\t// in\n        /* \"#utility.yul\":15155:15290   */\n    tag_236:\n        /* \"#utility.yul\":15194:15197   */\n      0x00\n        /* \"#utility.yul\":15215:15232   */\n      0x01\n      dup3\n      add\n        /* \"#utility.yul\":15212:15255   */\n      tag_690\n      jumpi\n        /* \"#utility.yul\":15235:15253   */\n      tag_690\n      tag_551\n      jump\t// in\n    tag_690:\n      pop\n        /* \"#utility.yul\":15282:15283   */\n      0x01\n        /* \"#utility.yul\":15271:15284   */\n      add\n      swap1\n        /* \"#utility.yul\":15155:15290   */\n      jump\t// out\n        /* \"#utility.yul\":15295:15423   */\n    tag_243:\n        /* \"#utility.yul\":15362:15371   */\n      dup2\n      dup2\n      sub\n        /* \"#utility.yul\":15383:15394   */\n      dup2\n      dup2\n      gt\n        /* \"#utility.yul\":15380:15417   */\n      iszero\n      tag_258\n      jumpi\n        /* \"#utility.yul\":15397:15415   */\n      tag_258\n      tag_551\n      jump\t// in\n        /* \"#utility.yul\":15707:15984   */\n    tag_250:\n        /* \"#utility.yul\":15774:15780   */\n      0x00\n        /* \"#utility.yul\":15827:15829   */\n      0x20\n        /* \"#utility.yul\":15815:15824   */\n      dup3\n        /* \"#utility.yul\":15806:15813   */\n      dup5\n        /* \"#utility.yul\":15802:15825   */\n      sub\n        /* \"#utility.yul\":15798:15830   */\n      slt\n        /* \"#utility.yul\":15795:15847   */\n      iszero\n      tag_696\n      jumpi\n        /* \"#utility.yul\":15843:15844   */\n      0x00\n        /* \"#utility.yul\":15840:15841   */\n      dup1\n        /* \"#utility.yul\":15833:15845   */\n      revert\n        /* \"#utility.yul\":15795:15847   */\n    tag_696:\n        /* \"#utility.yul\":15875:15884   */\n      dup2\n        /* \"#utility.yul\":15869:15885   */\n      mload\n        /* \"#utility.yul\":15928:15933   */\n      dup1\n        /* \"#utility.yul\":15921:15934   */\n      iszero\n        /* \"#utility.yul\":15914:15935   */\n      iszero\n        /* \"#utility.yul\":15907:15912   */\n      dup2\n        /* \"#utility.yul\":15904:15936   */\n      eq\n        /* \"#utility.yul\":15894:15954   */\n      tag_581\n      jumpi\n        /* \"#utility.yul\":15950:15951   */\n      0x00\n        /* \"#utility.yul\":15947:15948   */\n      dup1\n        /* \"#utility.yul\":15940:15952   */\n      revert\n        /* \"#utility.yul\":15989:16369   */\n    tag_253:\n        /* \"#utility.yul\":16068:16069   */\n      0x01\n        /* \"#utility.yul\":16064:16076   */\n      dup2\n      dup2\n      shr\n      swap1\n        /* \"#utility.yul\":16111:16123   */\n      dup3\n      and\n      dup1\n        /* \"#utility.yul\":16132:16193   */\n      tag_699\n      jumpi\n        /* \"#utility.yul\":16186:16190   */\n      0x7f\n        /* \"#utility.yul\":16178:16184   */\n      dup3\n        /* \"#utility.yul\":16174:16191   */\n      and\n        /* \"#utility.yul\":16164:16191   */\n      swap2\n      pop\n        /* \"#utility.yul\":16132:16193   */\n    tag_699:\n        /* \"#utility.yul\":16239:16241   */\n      0x20\n        /* \"#utility.yul\":16231:16237   */\n      dup3\n        /* \"#utility.yul\":16228:16242   */\n      lt\n        /* \"#utility.yul\":16208:16226   */\n      dup2\n        /* \"#utility.yul\":16205:16243   */\n      sub\n        /* \"#utility.yul\":16202:16363   */\n      tag_700\n      jumpi\n        /* \"#utility.yul\":16285:16295   */\n      0x4e487b71\n        /* \"#utility.yul\":16280:16283   */\n      0xe0\n        /* \"#utility.yul\":16276:16296   */\n      shl\n        /* \"#utility.yul\":16273:16274   */\n      0x00\n        /* \"#utility.yul\":16266:16297   */\n      mstore\n        /* \"#utility.yul\":16320:16324   */\n      0x22\n        /* \"#utility.yul\":16317:16318   */\n      0x04\n        /* \"#utility.yul\":16310:16325   */\n      mstore\n        /* \"#utility.yul\":16348:16352   */\n      0x24\n        /* \"#utility.yul\":16345:16346   */\n      0x00\n        /* \"#utility.yul\":16338:16353   */\n      revert\n        /* \"#utility.yul\":16202:16363   */\n    tag_700:\n      pop\n        /* \"#utility.yul\":15989:16369   */\n      swap2\n      swap1\n      pop\n      jump\t// out\n        /* \"#utility.yul\":19753:20017   */\n    tag_398:\n        /* \"#utility.yul\":19824:19830   */\n      0x00\n        /* \"#utility.yul\":19877:19879   */\n      0x20\n        /* \"#utility.yul\":19865:19874   */\n      dup3\n        /* \"#utility.yul\":19856:19863   */\n      dup5\n        /* \"#utility.yul\":19852:19875   */\n      sub\n        /* \"#utility.yul\":19848:19880   */\n      slt\n        /* \"#utility.yul\":19845:19897   */\n      iszero\n      tag_712\n      jumpi\n        /* \"#utility.yul\":19893:19894   */\n      0x00\n        /* \"#utility.yul\":19890:19891   */\n      dup1\n        /* \"#utility.yul\":19883:19895   */\n      revert\n        /* \"#utility.yul\":19845:19897   */\n    tag_712:\n        /* \"#utility.yul\":19932:19941   */\n      dup2\n        /* \"#utility.yul\":19919:19942   */\n      calldataload\n        /* \"#utility.yul\":19951:19987   */\n      tag_581\n        /* \"#utility.yul\":19981:19986   */\n      dup2\n        /* \"#utility.yul\":19951:19987   */\n      tag_548\n      jump\t// in\n        /* \"#utility.yul\":20022:20578   */\n    tag_400:\n        /* \"#utility.yul\":20126:20130   */\n      0x00\n        /* \"#utility.yul\":20132:20138   */\n      dup1\n        /* \"#utility.yul\":20192:20203   */\n      dup4\n        /* \"#utility.yul\":20179:20204   */\n      calldataload\n        /* \"#utility.yul\":20286:20288   */\n      0x1e\n        /* \"#utility.yul\":20282:20289   */\n      not\n        /* \"#utility.yul\":20271:20279   */\n      dup5\n        /* \"#utility.yul\":20255:20269   */\n      calldatasize\n        /* \"#utility.yul\":20251:20280   */\n      sub\n        /* \"#utility.yul\":20247:20290   */\n      add\n        /* \"#utility.yul\":20227:20245   */\n      dup2\n        /* \"#utility.yul\":20223:20291   */\n      slt\n        /* \"#utility.yul\":20213:20309   */\n      tag_715\n      jumpi\n        /* \"#utility.yul\":20305:20306   */\n      0x00\n        /* \"#utility.yul\":20302:20303   */\n      dup1\n        /* \"#utility.yul\":20295:20307   */\n      revert\n        /* \"#utility.yul\":20213:20309   */\n    tag_715:\n        /* \"#utility.yul\":20332:20365   */\n      dup4\n      add\n        /* \"#utility.yul\":20384:20404   */\n      dup1\n      calldataload\n      swap2\n      pop\n      sub(shl(0x40, 0x01), 0x01)\n        /* \"#utility.yul\":20416:20446   */\n      dup3\n      gt\n        /* \"#utility.yul\":20413:20463   */\n      iszero\n      tag_716\n      jumpi\n        /* \"#utility.yul\":20459:20460   */\n      0x00\n        /* \"#utility.yul\":20456:20457   */\n      dup1\n        /* \"#utility.yul\":20449:20461   */\n      revert\n        /* \"#utility.yul\":20413:20463   */\n    tag_716:\n        /* \"#utility.yul\":20492:20496   */\n      0x20\n        /* \"#utility.yul\":20480:20497   */\n      add\n      swap2\n      pop\n        /* \"#utility.yul\":20543:20544   */\n      0x05\n        /* \"#utility.yul\":20539:20553   */\n      dup2\n      swap1\n      shl\n        /* \"#utility.yul\":20523:20537   */\n      calldatasize\n        /* \"#utility.yul\":20519:20554   */\n      sub\n        /* \"#utility.yul\":20509:20555   */\n      dup3\n      sgt\n        /* \"#utility.yul\":20506:20572   */\n      iszero\n      tag_609\n      jumpi\n        /* \"#utility.yul\":20568:20569   */\n      0x00\n        /* \"#utility.yul\":20565:20566   */\n      dup1\n        /* \"#utility.yul\":20558:20570   */\n      revert\n        /* \"#utility.yul\":20583:21104   */\n    tag_404:\n        /* \"#utility.yul\":20660:20664   */\n      0x00\n        /* \"#utility.yul\":20666:20672   */\n      dup1\n        /* \"#utility.yul\":20726:20737   */\n      dup4\n        /* \"#utility.yul\":20713:20738   */\n      calldataload\n        /* \"#utility.yul\":20820:20822   */\n      0x1e\n        /* \"#utility.yul\":20816:20823   */\n      not\n        /* \"#utility.yul\":20805:20813   */\n      dup5\n        /* \"#utility.yul\":20789:20803   */\n      calldatasize\n        /* \"#utility.yul\":20785:20814   */\n      sub\n        /* \"#utility.yul\":20781:20824   */\n      add\n        /* \"#utility.yul\":20761:20779   */\n      dup2\n        /* \"#utility.yul\":20757:20825   */\n      slt\n        /* \"#utility.yul\":20747:20843   */\n      tag_719\n      jumpi\n        /* \"#utility.yul\":20839:20840   */\n      0x00\n        /* \"#utility.yul\":20836:20837   */\n      dup1\n        /* \"#utility.yul\":20829:20841   */\n      revert\n        /* \"#utility.yul\":20747:20843   */\n    tag_719:\n        /* \"#utility.yul\":20866:20899   */\n      dup4\n      add\n        /* \"#utility.yul\":20918:20938   */\n      dup1\n      calldataload\n      swap2\n      pop\n      sub(shl(0x40, 0x01), 0x01)\n        /* \"#utility.yul\":20950:20980   */\n      dup3\n      gt\n        /* \"#utility.yul\":20947:20997   */\n      iszero\n      tag_720\n      jumpi\n        /* \"#utility.yul\":20993:20994   */\n      0x00\n        /* \"#utility.yul\":20990:20991   */\n      dup1\n        /* \"#utility.yul\":20983:20995   */\n      revert\n        /* \"#utility.yul\":20947:20997   */\n    tag_720:\n        /* \"#utility.yul\":21026:21030   */\n      0x20\n        /* \"#utility.yul\":21014:21031   */\n      add\n      swap2\n      pop\n        /* \"#utility.yul\":21057:21071   */\n      calldatasize\n        /* \"#utility.yul\":21053:21080   */\n      dup2\n      swap1\n      sub\n        /* \"#utility.yul\":21043:21081   */\n      dup3\n      sgt\n        /* \"#utility.yul\":21040:21098   */\n      iszero\n      tag_609\n      jumpi\n        /* \"#utility.yul\":21094:21095   */\n      0x00\n        /* \"#utility.yul\":21091:21092   */\n      dup1\n        /* \"#utility.yul\":21084:21096   */\n      revert\n        /* \"#utility.yul\":21109:21884   */\n    tag_406:\n      sub(shl(0xa0, 0x01), 0x01)\n        /* \"#utility.yul\":21440:21455   */\n      dup8\n      dup2\n      and\n        /* \"#utility.yul\":21422:21456   */\n      dup3\n      mstore\n        /* \"#utility.yul\":21487:21489   */\n      0x20\n        /* \"#utility.yul\":21472:21490   */\n      dup3\n      add\n        /* \"#utility.yul\":21465:21499   */\n      dup8\n      swap1\n      mstore\n        /* \"#utility.yul\":21365:21369   */\n      0x00\n      swap1\n        /* \"#utility.yul\":21508:21559   */\n      tag_723\n        /* \"#utility.yul\":21555:21557   */\n      0x40\n        /* \"#utility.yul\":21540:21558   */\n      dup5\n      add\n        /* \"#utility.yul\":21532:21538   */\n      dup9\n        /* \"#utility.yul\":21508:21559   */\n      tag_552\n      jump\t// in\n    tag_723:\n        /* \"#utility.yul\":21607:21609   */\n      dup1\n        /* \"#utility.yul\":21599:21605   */\n      dup7\n        /* \"#utility.yul\":21595:21610   */\n      and\n        /* \"#utility.yul\":21590:21592   */\n      0x60\n        /* \"#utility.yul\":21579:21588   */\n      dup5\n        /* \"#utility.yul\":21575:21593   */\n      add\n        /* \"#utility.yul\":21568:21611   */\n      mstore\n      pop\n        /* \"#utility.yul\":21648:21651   */\n      0xa0\n        /* \"#utility.yul\":21642:21645   */\n      0x80\n        /* \"#utility.yul\":21631:21640   */\n      dup4\n        /* \"#utility.yul\":21627:21646   */\n      add\n        /* \"#utility.yul\":21620:21652   */\n      mstore\n        /* \"#utility.yul\":21689:21695   */\n      dup3\n        /* \"#utility.yul\":21683:21686   */\n      0xa0\n        /* \"#utility.yul\":21672:21681   */\n      dup4\n        /* \"#utility.yul\":21668:21687   */\n      add\n        /* \"#utility.yul\":21661:21696   */\n      mstore\n        /* \"#utility.yul\":21747:21753   */\n      dup3\n        /* \"#utility.yul\":21739:21745   */\n      dup5\n        /* \"#utility.yul\":21733:21736   */\n      0xc0\n        /* \"#utility.yul\":21722:21731   */\n      dup5\n        /* \"#utility.yul\":21718:21737   */\n      add\n        /* \"#utility.yul\":21705:21754   */\n      calldatacopy\n        /* \"#utility.yul\":21804:21805   */\n      0x00\n        /* \"#utility.yul\":21798:21801   */\n      0xc0\n        /* \"#utility.yul\":21789:21795   */\n      dup5\n        /* \"#utility.yul\":21778:21787   */\n      dup5\n        /* \"#utility.yul\":21774:21796   */\n      add\n        /* \"#utility.yul\":21770:21802   */\n      add\n        /* \"#utility.yul\":21763:21806   */\n      mstore\n        /* \"#utility.yul\":21874:21877   */\n      0xc0\n        /* \"#utility.yul\":21867:21869   */\n      0x1f\n        /* \"#utility.yul\":21863:21870   */\n      not\n        /* \"#utility.yul\":21858:21860   */\n      0x1f\n        /* \"#utility.yul\":21850:21856   */\n      dup6\n        /* \"#utility.yul\":21846:21861   */\n      add\n        /* \"#utility.yul\":21842:21871   */\n      and\n        /* \"#utility.yul\":21831:21840   */\n      dup4\n        /* \"#utility.yul\":21827:21872   */\n      add\n        /* \"#utility.yul\":21823:21878   */\n      add\n        /* \"#utility.yul\":21815:21878   */\n      swap1\n      pop\n        /* \"#utility.yul\":21109:21884   */\n      swap8\n      swap7\n      pop\n      pop\n      pop\n      pop\n      pop\n      pop\n      pop\n      jump\t// out\n        /* \"#utility.yul\":22792:23746   */\n    tag_477:\n        /* \"#utility.yul\":22887:22893   */\n      0x00\n        /* \"#utility.yul\":22918:22920   */\n      0x20\n        /* \"#utility.yul\":22961:22963   */\n      dup1\n        /* \"#utility.yul\":22949:22958   */\n      dup4\n        /* \"#utility.yul\":22940:22947   */\n      dup6\n        /* \"#utility.yul\":22936:22959   */\n      sub\n        /* \"#utility.yul\":22932:22964   */\n      slt\n        /* \"#utility.yul\":22929:22981   */\n      iszero\n      tag_728\n      jumpi\n        /* \"#utility.yul\":22977:22978   */\n      0x00\n        /* \"#utility.yul\":22974:22975   */\n      dup1\n        /* \"#utility.yul\":22967:22979   */\n      revert\n        /* \"#utility.yul\":22929:22981   */\n    tag_728:\n        /* \"#utility.yul\":23010:23019   */\n      dup3\n        /* \"#utility.yul\":23004:23020   */\n      mload\n      sub(shl(0x40, 0x01), 0x01)\n        /* \"#utility.yul\":23035:23041   */\n      dup2\n        /* \"#utility.yul\":23032:23062   */\n      gt\n        /* \"#utility.yul\":23029:23079   */\n      iszero\n      tag_729\n      jumpi\n        /* \"#utility.yul\":23075:23076   */\n      0x00\n        /* \"#utility.yul\":23072:23073   */\n      dup1\n        /* \"#utility.yul\":23065:23077   */\n      revert\n        /* \"#utility.yul\":23029:23079   */\n    tag_729:\n        /* \"#utility.yul\":23098:23120   */\n      dup4\n      add\n        /* \"#utility.yul\":23151:23155   */\n      0x1f\n        /* \"#utility.yul\":23143:23156   */\n      dup2\n      add\n        /* \"#utility.yul\":23139:23166   */\n      dup6\n      sgt\n        /* \"#utility.yul\":23129:23184   */\n      tag_730\n      jumpi\n        /* \"#utility.yul\":23180:23181   */\n      0x00\n        /* \"#utility.yul\":23177:23178   */\n      dup1\n        /* \"#utility.yul\":23170:23182   */\n      revert\n        /* \"#utility.yul\":23129:23184   */\n    tag_730:\n        /* \"#utility.yul\":23209:23211   */\n      dup1\n        /* \"#utility.yul\":23203:23212   */\n      mload\n        /* \"#utility.yul\":23232:23290   */\n      tag_731\n        /* \"#utility.yul\":23248:23289   */\n      tag_568\n        /* \"#utility.yul\":23286:23288   */\n      dup3\n        /* \"#utility.yul\":23248:23289   */\n      tag_549\n      jump\t// in\n        /* \"#utility.yul\":23232:23290   */\n    tag_731:\n        /* \"#utility.yul\":23324:23339   */\n      dup2\n      dup2\n      mstore\n        /* \"#utility.yul\":23406:23407   */\n      0x05\n        /* \"#utility.yul\":23402:23412   */\n      swap2\n      swap1\n      swap2\n      shl\n        /* \"#utility.yul\":23394:23413   */\n      dup3\n      add\n        /* \"#utility.yul\":23390:23418   */\n      dup4\n      add\n      swap1\n        /* \"#utility.yul\":23355:23367   */\n      dup4\n      dup2\n      add\n      swap1\n        /* \"#utility.yul\":23430:23449   */\n      dup8\n      dup4\n      gt\n        /* \"#utility.yul\":23427:23466   */\n      iszero\n      tag_733\n      jumpi\n        /* \"#utility.yul\":23462:23463   */\n      0x00\n        /* \"#utility.yul\":23459:23460   */\n      dup1\n        /* \"#utility.yul\":23452:23464   */\n      revert\n        /* \"#utility.yul\":23427:23466   */\n    tag_733:\n        /* \"#utility.yul\":23486:23497   */\n      swap3\n      dup5\n      add\n      swap3\n        /* \"#utility.yul\":23506:23716   */\n    tag_734:\n        /* \"#utility.yul\":23522:23528   */\n      dup3\n        /* \"#utility.yul\":23517:23520   */\n      dup5\n        /* \"#utility.yul\":23514:23529   */\n      lt\n        /* \"#utility.yul\":23506:23716   */\n      iszero\n      tag_684\n      jumpi\n        /* \"#utility.yul\":23595:23598   */\n      dup4\n        /* \"#utility.yul\":23589:23599   */\n      mload\n        /* \"#utility.yul\":23612:23643   */\n      tag_737\n        /* \"#utility.yul\":23637:23642   */\n      dup2\n        /* \"#utility.yul\":23612:23643   */\n      tag_545\n      jump\t// in\n    tag_737:\n        /* \"#utility.yul\":23656:23674   */\n      dup3\n      mstore\n        /* \"#utility.yul\":23539:23551   */\n      swap3\n      dup5\n      add\n      swap3\n        /* \"#utility.yul\":23694:23706   */\n      swap1\n      dup5\n      add\n      swap1\n        /* \"#utility.yul\":23506:23716   */\n      jump(tag_734)\n        /* \"#utility.yul\":23751:24212   */\n    tag_553:\n        /* \"#utility.yul\":23804:23807   */\n      0x00\n        /* \"#utility.yul\":23842:23847   */\n      dup2\n        /* \"#utility.yul\":23836:23848   */\n      mload\n        /* \"#utility.yul\":23869:23875   */\n      dup1\n        /* \"#utility.yul\":23864:23867   */\n      dup5\n        /* \"#utility.yul\":23857:23876   */\n      mstore\n        /* \"#utility.yul\":23895:23899   */\n      0x20\n        /* \"#utility.yul\":23924:23926   */\n      dup1\n        /* \"#utility.yul\":23919:23922   */\n      dup6\n        /* \"#utility.yul\":23915:23927   */\n      add\n        /* \"#utility.yul\":23908:23927   */\n      swap5\n      pop\n        /* \"#utility.yul\":23961:23963   */\n      dup1\n        /* \"#utility.yul\":23954:23959   */\n      dup5\n        /* \"#utility.yul\":23950:23964   */\n      add\n        /* \"#utility.yul\":23982:23983   */\n      0x00\n        /* \"#utility.yul\":23992:24187   */\n    tag_739:\n        /* \"#utility.yul\":24006:24012   */\n      dup4\n        /* \"#utility.yul\":24003:24004   */\n      dup2\n        /* \"#utility.yul\":24000:24013   */\n      lt\n        /* \"#utility.yul\":23992:24187   */\n      iszero\n      tag_741\n      jumpi\n        /* \"#utility.yul\":24071:24084   */\n      dup2\n      mload\n      sub(shl(0xa0, 0x01), 0x01)\n        /* \"#utility.yul\":24067:24106   */\n      and\n        /* \"#utility.yul\":24055:24107   */\n      dup8\n      mstore\n        /* \"#utility.yul\":24127:24139   */\n      swap6\n      dup3\n      add\n      swap6\n        /* \"#utility.yul\":24162:24177   */\n      swap1\n      dup3\n      add\n      swap1\n        /* \"#utility.yul\":24103:24104   */\n      0x01\n        /* \"#utility.yul\":24021:24030   */\n      add\n        /* \"#utility.yul\":23992:24187   */\n      jump(tag_739)\n    tag_741:\n      pop\n        /* \"#utility.yul\":24203:24206   */\n      swap5\n      swap6\n        /* \"#utility.yul\":23751:24212   */\n      swap5\n      pop\n      pop\n      pop\n      pop\n      pop\n      jump\t// out\n        /* \"#utility.yul\":24217:24549   */\n    tag_479:\n        /* \"#utility.yul\":24424:24430   */\n      dup3\n        /* \"#utility.yul\":24413:24422   */\n      dup2\n        /* \"#utility.yul\":24406:24431   */\n      mstore\n        /* \"#utility.yul\":24467:24469   */\n      0x40\n        /* \"#utility.yul\":24462:24464   */\n      0x20\n        /* \"#utility.yul\":24451:24460   */\n      dup3\n        /* \"#utility.yul\":24447:24465   */\n      add\n        /* \"#utility.yul\":24440:24470   */\n      mstore\n        /* \"#utility.yul\":24387:24391   */\n      0x00\n        /* \"#utility.yul\":24487:24543   */\n      tag_743\n        /* \"#utility.yul\":24539:24541   */\n      0x40\n        /* \"#utility.yul\":24528:24537   */\n      dup4\n        /* \"#utility.yul\":24524:24542   */\n      add\n        /* \"#utility.yul\":24516:24522   */\n      dup5\n        /* \"#utility.yul\":24487:24543   */\n      tag_553\n      jump\t// in\n    tag_743:\n        /* \"#utility.yul\":24479:24543   */\n      swap5\n        /* \"#utility.yul\":24217:24549   */\n      swap4\n      pop\n      pop\n      pop\n      pop\n      jump\t// out\n        /* \"#utility.yul\":24554:25433   */\n    tag_483:\n        /* \"#utility.yul\":24649:24655   */\n      0x00\n        /* \"#utility.yul\":24680:24682   */\n      0x20\n        /* \"#utility.yul\":24723:24725   */\n      dup1\n        /* \"#utility.yul\":24711:24720   */\n      dup4\n        /* \"#utility.yul\":24702:24709   */\n      dup6\n        /* \"#utility.yul\":24698:24721   */\n      sub\n        /* \"#utility.yul\":24694:24726   */\n      slt\n        /* \"#utility.yul\":24691:24743   */\n      iszero\n      tag_745\n      jumpi\n        /* \"#utility.yul\":24739:24740   */\n      0x00\n        /* \"#utility.yul\":24736:24737   */\n      dup1\n        /* \"#utility.yul\":24729:24741   */\n      revert\n        /* \"#utility.yul\":24691:24743   */\n    tag_745:\n        /* \"#utility.yul\":24772:24781   */\n      dup3\n        /* \"#utility.yul\":24766:24782   */\n      mload\n      sub(shl(0x40, 0x01), 0x01)\n        /* \"#utility.yul\":24797:24803   */\n      dup2\n        /* \"#utility.yul\":24794:24824   */\n      gt\n        /* \"#utility.yul\":24791:24841   */\n      iszero\n      tag_746\n      jumpi\n        /* \"#utility.yul\":24837:24838   */\n      0x00\n        /* \"#utility.yul\":24834:24835   */\n      dup1\n        /* \"#utility.yul\":24827:24839   */\n      revert\n        /* \"#utility.yul\":24791:24841   */\n    tag_746:\n        /* \"#utility.yul\":24860:24882   */\n      dup4\n      add\n        /* \"#utility.yul\":24913:24917   */\n      0x1f\n        /* \"#utility.yul\":24905:24918   */\n      dup2\n      add\n        /* \"#utility.yul\":24901:24928   */\n      dup6\n      sgt\n        /* \"#utility.yul\":24891:24946   */\n      tag_747\n      jumpi\n        /* \"#utility.yul\":24942:24943   */\n      0x00\n        /* \"#utility.yul\":24939:24940   */\n      dup1\n        /* \"#utility.yul\":24932:24944   */\n      revert\n        /* \"#utility.yul\":24891:24946   */\n    tag_747:\n        /* \"#utility.yul\":24971:24973   */\n      dup1\n        /* \"#utility.yul\":24965:24974   */\n      mload\n        /* \"#utility.yul\":24994:25052   */\n      tag_748\n        /* \"#utility.yul\":25010:25051   */\n      tag_568\n        /* \"#utility.yul\":25048:25050   */\n      dup3\n        /* \"#utility.yul\":25010:25051   */\n      tag_549\n      jump\t// in\n        /* \"#utility.yul\":24994:25052   */\n    tag_748:\n        /* \"#utility.yul\":25086:25101   */\n      dup2\n      dup2\n      mstore\n        /* \"#utility.yul\":25168:25169   */\n      0x05\n        /* \"#utility.yul\":25164:25174   */\n      swap2\n      swap1\n      swap2\n      shl\n        /* \"#utility.yul\":25156:25175   */\n      dup3\n      add\n        /* \"#utility.yul\":25152:25180   */\n      dup4\n      add\n      swap1\n        /* \"#utility.yul\":25117:25129   */\n      dup4\n      dup2\n      add\n      swap1\n        /* \"#utility.yul\":25192:25211   */\n      dup8\n      dup4\n      gt\n        /* \"#utility.yul\":25189:25228   */\n      iszero\n      tag_750\n      jumpi\n        /* \"#utility.yul\":25224:25225   */\n      0x00\n        /* \"#utility.yul\":25221:25222   */\n      dup1\n        /* \"#utility.yul\":25214:25226   */\n      revert\n        /* \"#utility.yul\":25189:25228   */\n    tag_750:\n        /* \"#utility.yul\":25248:25259   */\n      swap3\n      dup5\n      add\n      swap3\n        /* \"#utility.yul\":25268:25403   */\n    tag_751:\n        /* \"#utility.yul\":25284:25290   */\n      dup3\n        /* \"#utility.yul\":25279:25282   */\n      dup5\n        /* \"#utility.yul\":25276:25291   */\n      lt\n        /* \"#utility.yul\":25268:25403   */\n      iszero\n      tag_684\n      jumpi\n        /* \"#utility.yul\":25350:25360   */\n      dup4\n      mload\n        /* \"#utility.yul\":25338:25361   */\n      dup3\n      mstore\n        /* \"#utility.yul\":25301:25313   */\n      swap3\n      dup5\n      add\n      swap3\n        /* \"#utility.yul\":25381:25393   */\n      swap1\n      dup5\n      add\n      swap1\n        /* \"#utility.yul\":25268:25403   */\n      jump(tag_751)\n        /* \"#utility.yul\":25438:26012   */\n    tag_494:\n        /* \"#utility.yul\":25729:25735   */\n      dup6\n        /* \"#utility.yul\":25718:25727   */\n      dup2\n        /* \"#utility.yul\":25711:25736   */\n      mstore\n        /* \"#utility.yul\":25772:25778   */\n      dup5\n        /* \"#utility.yul\":25767:25769   */\n      0x20\n        /* \"#utility.yul\":25756:25765   */\n      dup3\n        /* \"#utility.yul\":25752:25770   */\n      add\n        /* \"#utility.yul\":25745:25779   */\n      mstore\n        /* \"#utility.yul\":25815:25818   */\n      0xa0\n        /* \"#utility.yul\":25810:25812   */\n      0x40\n        /* \"#utility.yul\":25799:25808   */\n      dup3\n        /* \"#utility.yul\":25795:25813   */\n      add\n        /* \"#utility.yul\":25788:25819   */\n      mstore\n        /* \"#utility.yul\":25692:25696   */\n      0x00\n        /* \"#utility.yul\":25836:25893   */\n      tag_755\n        /* \"#utility.yul\":25888:25891   */\n      0xa0\n        /* \"#utility.yul\":25877:25886   */\n      dup4\n        /* \"#utility.yul\":25873:25892   */\n      add\n        /* \"#utility.yul\":25865:25871   */\n      dup7\n        /* \"#utility.yul\":25836:25893   */\n      tag_553\n      jump\t// in\n    tag_755:\n      sub(shl(0xa0, 0x01), 0x01)\n        /* \"#utility.yul\":25929:25961   */\n      swap5\n      swap1\n      swap5\n      and\n        /* \"#utility.yul\":25924:25926   */\n      0x60\n        /* \"#utility.yul\":25909:25927   */\n      dup4\n      add\n        /* \"#utility.yul\":25902:25962   */\n      mstore\n      pop\n        /* \"#utility.yul\":25993:25996   */\n      0x80\n        /* \"#utility.yul\":25978:25997   */\n      add\n        /* \"#utility.yul\":25971:26006   */\n      mstore\n        /* \"#utility.yul\":25828:25893   */\n      swap4\n        /* \"#utility.yul\":25438:26012   */\n      swap3\n      pop\n      pop\n      pop\n      jump\t// out\n        /* \"#utility.yul\":26017:26306   */\n    tag_502:\n        /* \"#utility.yul\":26192:26194   */\n      0x40\n        /* \"#utility.yul\":26181:26190   */\n      dup2\n        /* \"#utility.yul\":26174:26195   */\n      mstore\n        /* \"#utility.yul\":26155:26159   */\n      0x00\n        /* \"#utility.yul\":26212:26257   */\n      tag_757\n        /* \"#utility.yul\":26253:26255   */\n      0x40\n        /* \"#utility.yul\":26242:26251   */\n      dup4\n        /* \"#utility.yul\":26238:26256   */\n      add\n        /* \"#utility.yul\":26230:26236   */\n      dup6\n        /* \"#utility.yul\":26212:26257   */\n      tag_544\n      jump\t// in\n    tag_757:\n        /* \"#utility.yul\":26204:26257   */\n      swap1\n      pop\n        /* \"#utility.yul\":26293:26299   */\n      dup3\n        /* \"#utility.yul\":26288:26290   */\n      0x20\n        /* \"#utility.yul\":26277:26286   */\n      dup4\n        /* \"#utility.yul\":26273:26291   */\n      add\n        /* \"#utility.yul\":26266:26300   */\n      mstore\n        /* \"#utility.yul\":26017:26306   */\n      swap4\n      swap3\n      pop\n      pop\n      pop\n      jump\t// out\n        /* \"#utility.yul\":26311:26962   */\n    tag_514:\n        /* \"#utility.yul\":26506:26508   */\n      0x20\n        /* \"#utility.yul\":26495:26504   */\n      dup2\n        /* \"#utility.yul\":26488:26509   */\n      mstore\n        /* \"#utility.yul\":26469:26473   */\n      0x00\n        /* \"#utility.yul\":26544:26550   */\n      dup3\n        /* \"#utility.yul\":26538:26551   */\n      mload\n        /* \"#utility.yul\":26587:26591   */\n      0xa0\n        /* \"#utility.yul\":26582:26584   */\n      0x20\n        /* \"#utility.yul\":26571:26580   */\n      dup5\n        /* \"#utility.yul\":26567:26585   */\n      add\n        /* \"#utility.yul\":26560:26592   */\n      mstore\n        /* \"#utility.yul\":26615:26667   */\n      tag_759\n        /* \"#utility.yul\":26662:26665   */\n      0xc0\n        /* \"#utility.yul\":26651:26660   */\n      dup5\n        /* \"#utility.yul\":26647:26666   */\n      add\n        /* \"#utility.yul\":26633:26645   */\n      dup3\n        /* \"#utility.yul\":26615:26667   */\n      tag_544\n      jump\t// in\n    tag_759:\n        /* \"#utility.yul\":26601:26667   */\n      swap1\n      pop\n        /* \"#utility.yul\":26748:26749   */\n      0x01\n        /* \"#utility.yul\":26744:26745   */\n      dup1\n        /* \"#utility.yul\":26739:26742   */\n      0xa0\n        /* \"#utility.yul\":26735:26746   */\n      shl\n        /* \"#utility.yul\":26731:26750   */\n      sub\n        /* \"#utility.yul\":26725:26727   */\n      0x20\n        /* \"#utility.yul\":26717:26723   */\n      dup6\n        /* \"#utility.yul\":26713:26728   */\n      add\n        /* \"#utility.yul\":26707:26729   */\n      mload\n        /* \"#utility.yul\":26703:26751   */\n      and\n        /* \"#utility.yul\":26698:26700   */\n      0x40\n        /* \"#utility.yul\":26687:26696   */\n      dup5\n        /* \"#utility.yul\":26683:26701   */\n      add\n        /* \"#utility.yul\":26676:26752   */\n      mstore\n        /* \"#utility.yul\":26806:26808   */\n      0x40\n        /* \"#utility.yul\":26798:26804   */\n      dup5\n        /* \"#utility.yul\":26794:26809   */\n      add\n        /* \"#utility.yul\":26788:26810   */\n      mload\n        /* \"#utility.yul\":26783:26785   */\n      0x60\n        /* \"#utility.yul\":26772:26781   */\n      dup5\n        /* \"#utility.yul\":26768:26786   */\n      add\n        /* \"#utility.yul\":26761:26811   */\n      mstore\n        /* \"#utility.yul\":26866:26868   */\n      0x60\n        /* \"#utility.yul\":26858:26864   */\n      dup5\n        /* \"#utility.yul\":26854:26869   */\n      add\n        /* \"#utility.yul\":26848:26870   */\n      mload\n        /* \"#utility.yul\":26842:26845   */\n      0x80\n        /* \"#utility.yul\":26831:26840   */\n      dup5\n        /* \"#utility.yul\":26827:26846   */\n      add\n        /* \"#utility.yul\":26820:26871   */\n      mstore\n        /* \"#utility.yul\":26927:26930   */\n      0x80\n        /* \"#utility.yul\":26919:26925   */\n      dup5\n        /* \"#utility.yul\":26915:26931   */\n      add\n        /* \"#utility.yul\":26909:26932   */\n      mload\n        /* \"#utility.yul\":26902:26906   */\n      0xa0\n        /* \"#utility.yul\":26891:26900   */\n      dup5\n        /* \"#utility.yul\":26887:26907   */\n      add\n        /* \"#utility.yul\":26880:26933   */\n      mstore\n        /* \"#utility.yul\":26950:26956   */\n      dup1\n        /* \"#utility.yul\":26942:26956   */\n      swap2\n      pop\n      pop\n        /* \"#utility.yul\":26311:26962   */\n      swap3\n      swap2\n      pop\n      pop\n      jump\t// out\n\n    auxdata: 0xa2646970667358221220c2e907bda1b8067e0fac9b6981b715f60085ae821cfced8eb0966a3fca7659d264736f6c63430008140033\n}\n",
				"bytecode": {
					"linkReferences": {},
					"object": "6080604052600e805460ff60201b191690553480156200001d575f80fd5b5060405162002b4d38038062002b4d83398101604081905262000040916200021c565b828282878733806200006b57604051631e4fbdf760e01b81525f600482015260240160405180910390fd5b6200007681620000f3565b50600462000085838262000344565b50600562000094828262000344565b5050600980546001600160a01b039586166001600160a01b031991821617909155600a80549486169482169490941790935550600b805491909316908216179091556103e86007556010805490911633179055506200040c9350505050565b5f80546001600160a01b038381166001600160a01b0319831681178455604051919092169283917f8be0079c531659141344cd1fd0a4f28419497f9722a3daafe3b4186f6b6457e09190a35050565b634e487b7160e01b5f52604160045260245ffd5b5f82601f83011262000166575f80fd5b81516001600160401b038082111562000183576200018362000142565b604051601f8301601f19908116603f01168101908282118183101715620001ae57620001ae62000142565b81604052838152602092508683858801011115620001ca575f80fd5b5f91505b83821015620001ed5785820183015181830184015290820190620001ce565b5f93810190920192909252949350505050565b80516001600160a01b038116811462000217575f80fd5b919050565b5f805f805f60a0868803121562000231575f80fd5b85516001600160401b038082111562000248575f80fd5b6200025689838a0162000156565b965060208801519150808211156200026c575f80fd5b506200027b8882890162000156565b9450506200028c6040870162000200565b92506200029c6060870162000200565b9150620002ac6080870162000200565b90509295509295909350565b600181811c90821680620002cd57607f821691505b602082108103620002ec57634e487b7160e01b5f52602260045260245ffd5b50919050565b601f8211156200033f575f81815260208120601f850160051c810160208610156200031a5750805b601f850160051c820191505b818110156200033b5782815560010162000326565b5050505b505050565b81516001600160401b0381111562000360576200036062000142565b6200037881620003718454620002b8565b84620002f2565b602080601f831160018114620003ae575f8415620003965750858301515b5f19600386901b1c1916600185901b1785556200033b565b5f85815260208120601f198616915b82811015620003de57888601518255948401946001909101908401620003bd565b5085821015620003fc57878501515f19600388901b60f8161c191681555b5050505050600190811b01905550565b612733806200041a5f395ff3fe6080604052600436106101c4575f3560e01c806367a52793116100f2578063945098db11610092578063c38cd0b511610062578063c38cd0b514610553578063d03153aa1461057e578063dd62ed3e14610593578063f2fde38b146105d7575f80fd5b8063945098db146104ee57806395d89b4114610501578063a738c7df14610515578063a9059cbb14610534575f80fd5b806374a66061116100cd57806374a660611461047857806381a06b73146104975780638bc7e8c4146104b85780638da5cb5b146104d2575f80fd5b806367a52793146103fd57806370a0823114610430578063715018a614610464575f80fd5b80632a5c792a1161016857806336a43f2b1161013857806336a43f2b1461034f578063378a653c1461037a5780633f595e29146103bf5780634d20d0f8146103de575f80fd5b80632a5c792a146102d55780632c76d7a6146102f65780633043d4d914610315578063313ce56714610334575f80fd5b8063117da1ee116101a3578063117da1ee146102425780631694505e1461026157806318160ddd1461029857806323b872dd146102b6575f80fd5b8062d06ddd146101c857806306fdde03146101e9578063095ea7b314610213575b5f80fd5b3480156101d3575f80fd5b506101e76101e2366004611d5e565b6105f6565b005b3480156101f4575f80fd5b506101fd6109c2565b60405161020a9190611dee565b60405180910390f35b34801561021e575f80fd5b5061023261022d366004611e1b565b610a52565b604051901515815260200161020a565b34801561024d575f80fd5b506101e761025c366004611e45565b610a6b565b34801561026c575f80fd5b50600954610280906001600160a01b031681565b6040516001600160a01b03909116815260200161020a565b3480156102a3575f80fd5b506003545b60405190815260200161020a565b3480156102c1575f80fd5b506102326102d0366004611e5c565b610aab565b3480156102e0575f80fd5b506102e9610ace565b60405161020a9190611e9a565b348015610301575f80fd5b50600a54610280906001600160a01b031681565b348015610320575f80fd5b506101e761032f366004611e45565b610b41565b34801561033f575f80fd5b506040516012815260200161020a565b34801561035a575f80fd5b506102a8610369366004611ef1565b60086020525f908152604090205481565b348015610385575f80fd5b50610399610394366004611e45565b610d33565b604080516001600160a01b0394851681529390921660208401529082015260600161020a565b3480156103ca575f80fd5b506101e76103d9366004611f69565b610d71565b3480156103e9575f80fd5b50600b54610280906001600160a01b031681565b348015610408575f80fd5b50600e5461041d9062010000900461ffff1681565b60405161ffff909116815260200161020a565b34801561043b575f80fd5b506102a861044a366004611ef1565b6001600160a01b03165f9081526001602052604090205490565b34801561046f575f80fd5b506101e7610fc0565b348015610483575f80fd5b506102a8610492366004611ffe565b610fd3565b3480156104a2575f80fd5b50600e5461023290640100000000900460ff1681565b3480156104c3575f80fd5b50600e5461041d9061ffff1681565b3480156104dd575f80fd5b505f546001600160a01b0316610280565b6101e76104fc366004612077565b61105b565b34801561050c575f80fd5b506101fd611417565b348015610520575f80fd5b506101e761052f366004611ef1565b611426565b34801561053f575f80fd5b5061023261054e366004611e1b565b6114cf565b34801561055e575f80fd5b506102a861056d366004611ef1565b600f6020525f908152604090205481565b348015610589575f80fd5b506102a860075481565b34801561059e575f80fd5b506102a86105ad3660046120ad565b6001600160a01b039182165f90815260026020908152604080832093909416825291909152205490565b3480156105e2575f80fd5b506101e76105f1366004611ef1565b6114dc565b5f821161062f5760405162461bcd60e51b815260206004820152600260248201526103e360f41b60448201526064015b60405180910390fd5b6040516370a0823160e01b8152336004820152829030906370a0823190602401602060405180830381865afa15801561066a573d5f803e3d5ffd5b505050506040513d601f19601f8201168201806040525081019061068e91906120e4565b10156106cc5760405162461bcd60e51b815260206004820152600d60248201526c08525b9cdd59999a58da595b9d609a1b6044820152606401610626565b5f818060200190518101906106e19190612128565b90505f6106ed60035490565b6106f985612710612262565b6107039190612279565b90505f60095f9054906101000a90046001600160a01b03166001600160a01b031663ad5c46486040518163ffffffff1660e01b8152600401602060405180830381865afa158015610756573d5f803e3d5ffd5b505050506040513d601f19601f8201168201806040525081019061077a9190612298565b90505f805b600c548110156108f1575f600c828154811061079d5761079d6122b3565b5f918252602082206002919091020180546040516370a0823160e01b81523060048201529193506127109188916001600160a01b0316906370a0823190602401602060405180830381865afa1580156107f8573d5f803e3d5ffd5b505050506040513d601f19601f8201168201806040525081019061081c91906120e4565b6108269190612262565b6108309190612279565b825460408901518951805193945030936374a66061936001600160a01b031692869290913391908a908110610867576108676122b3565b60200260200101516040518663ffffffff1660e01b815260040161088f9594939291906122fb565b6020604051808303815f875af19250505080156108c9575060408051601f3d908101601f191682019092526108c6918101906120e4565b60015b156108dc576108d88186612346565b9450505b505080806108e990612359565b91505061077f565b506108fc3387611516565b80156109ba57600e545f90612710906109199061ffff1684612262565b6109239190612279565b90505f6109308284612371565b905081600d5f8282546109439190612346565b909155505060405163a9059cbb60e01b8152336004820152602481018290526001600160a01b0385169063a9059cbb906044016020604051808303815f875af1158015610992573d5f803e3d5ffd5b505050506040513d601f19601f820116820180604052508101906109b69190612384565b5050505b505050505050565b6060600480546109d1906123a3565b80601f01602080910402602001604051908101604052809291908181526020018280546109fd906123a3565b8015610a485780601f10610a1f57610100808354040283529160200191610a48565b820191905f5260205f20905b815481529060010190602001808311610a2b57829003601f168201915b5050505050905090565b5f33610a5f81858561154e565b60019150505b92915050565b612710811115610aa65760405162461bcd60e51b815260040161062690602080825260049082015263021534c560e41b604082015260600190565b600755565b5f33610ab885828561155b565b610ac38585856115d0565b506001949350505050565b6060600c805480602002602001604051908101604052809291908181526020015f905b82821015610b38575f848152602090819020604080518082019091526002850290910180546001600160a01b03168252600190810154828401529083529092019101610af1565b50505050905090565b5f8111610b765760405162461bcd60e51b81526020600482015260036024820152620573e360ec1b6044820152606401610626565b335f90815260016020526040902054811115610bbf5760405162461bcd60e51b81526020600482015260086024820152672162616c616e636560c01b6044820152606401610626565b5f610bc960035490565b610bd583612710612262565b610bdf9190612279565b9050610beb3383611516565b5f5b600c54811015610d2e575f600c8281548110610c0b57610c0b6122b3565b5f918252602082206002919091020180546040516370a0823160e01b81523060048201529193506127109186916001600160a01b0316906370a0823190602401602060405180830381865afa158015610c66573d5f803e3d5ffd5b505050506040513d601f19601f82011682018060405250810190610c8a91906120e4565b610c949190612262565b610c9e9190612279565b90508015610d1957815460405163a9059cbb60e01b8152336004820152602481018390526001600160a01b039091169063a9059cbb906044016020604051808303815f875af1158015610cf3573d5f803e3d5ffd5b505050506040513d601f19601f82011682018060405250810190610d179190612384565b505b50508080610d2690612359565b915050610bed565b505050565b60068181548110610d42575f80fd5b5f9182526020909120600390910201805460018201546002909201546001600160a01b03918216935091169083565b610d7961162d565b600e54640100000000900460ff1615610dc25760405162461bcd60e51b815260206004820152600b60248201526a1a5b9a5d1a585b1a5e995960aa1b6044820152606401610626565b848314610e065760405162461bcd60e51b81526020600482015260126024820152714d69736d617463686564206c656e6774687360701b6044820152606401610626565b600e805461ffff838116620100000263ffffffff19909216908516171790555f805b86811015610f6657612710868683818110610e4557610e456122b3565b905060200201351115610e8e5760405162461bcd60e51b8152602060048201526011602482015270496e76616c696450657263656e7461676560781b6044820152606401610626565b858582818110610ea057610ea06122b3565b9050602002013582610eb29190612346565b9150600c60405180604001604052808a8a85818110610ed357610ed36122b3565b9050602002016020810190610ee89190611ef1565b6001600160a01b03168152602001888885818110610f0857610f086122b3565b602090810292909201359092528354600180820186555f95865294829020845160029092020180546001600160a01b0319166001600160a01b0390921691909117815592015191909201555080610f5e81612359565b915050610e28565b508061271014610fa25760405162461bcd60e51b81526020600482015260076024820152660743d31303030360cc1b6044820152606401610626565b5050600e805464ff0000000019166401000000001790555050505050565b610fc861162d565b610fd15f611659565b565b5f80846001811115610fe757610fe76122c7565b03610fff57610ff8868685856116a8565b9050611052565b6001846001811115611013576110136122c7565b0361102457610ff886868585611897565b60405162461bcd60e51b815260206004820152600360248201526210aaab60e91b6044820152606401610626565b95945050505050565b5f8160200135116110945760405162461bcd60e51b81526020600482015260036024820152620213e360ec1b6044820152606401610626565b600e545f90612710906110b59062010000900461ffff166020850135612262565b6110bf9190612279565b90505f6110d0826020850135612371565b905081600d5f8282546110e39190612346565b90915550508061111b5760405162461bcd60e51b81526020600482015260036024820152620213e360ec1b6044820152606401610626565b6111253382611a52565b5f5b600c54811015611411575f600c8281548110611145576111456122b3565b905f5260205f20906002020190505f6127108260010154856111679190612262565b6111719190612279565b9050838111156111bb5760405162461bcd60e51b815260206004820152601560248201527421657468416d6f756e743c3d616d6f756e7466656560581b6044820152606401610626565b80156113fc57815460095460405163095ea7b360e01b81526001600160a01b0391821660048201526024810184905291169063095ea7b3906044016020604051808303815f875af1158015611212573d5f803e3d5ffd5b505050506040513d601f19601f820116820180604052508101906112369190612384565b50815430906374a66061906001600160a01b03168361125b60608b0160408c016123db565b336112668c806123f6565b8a818110611276576112766122b3565b9050602002810190611288919061243b565b6040518763ffffffff1660e01b81526004016112a99695949392919061247d565b6020604051808303815f875af19250505080156112e3575060408051601f3d908101601f191682019092526112e0918101906120e4565b60015b6113fa57335f908152600f602052604081208054839290611305908490612346565b9091555050604080516060810182523380825284546001600160a01b039081166020808501918252848601878152600680546001810182555f918252965160039097027ff652222313e28459528d920b65115c16c04f3efc82aaedc97be59f3f377c0d3f810180549887166001600160a01b0319998a1617905593517ff652222313e28459528d920b65115c16c04f3efc82aaedc97be59f3f377c0d40850180549190961697169690961790935591517ff652222313e28459528d920b65115c16c04f3efc82aaedc97be59f3f377c0d4190910155908252600890529081208054916113f083612359565b91905055506113fc565b505b5050808061140990612359565b915050611127565b50505050565b6060600580546109d1906123a3565b61142e61162d565b600d54156114cc57600d546040515f916001600160a01b038416918381818185875af1925050503d805f811461147f576040519150601f19603f3d011682016040523d82523d5f602084013e611484565b606091505b50509050806114c65760405162461bcd60e51b815260206004820152600e60248201526d1d1c985b9cd9995c91985a5b195960921b6044820152606401610626565b505f600d555b50565b5f33610a5f8185856115d0565b6114e461162d565b6001600160a01b03811661150d57604051631e4fbdf760e01b81525f6004820152602401610626565b6114cc81611659565b6001600160a01b03821661153f57604051634b637e8f60e11b81525f6004820152602401610626565b61154a825f83611a82565b5050565b610d2e8383836001611ba8565b6001600160a01b038381165f908152600260209081526040808320938616835292905220545f19811461141157818110156115c257604051637dc7a0d960e11b81526001600160a01b03841660048201526024810182905260448101839052606401610626565b61141184848484035f611ba8565b6001600160a01b0383166115f957604051634b637e8f60e11b81525f6004820152602401610626565b6001600160a01b0382166116225760405163ec442f0560e01b81525f6004820152602401610626565b610d2e838383611a82565b5f546001600160a01b03163314610fd15760405163118cdaa760e01b8152336004820152602401610626565b5f80546001600160a01b038381166001600160a01b0319831681178455604051919092169283917f8be0079c531659141344cd1fd0a4f28419497f9722a3daafe3b4186f6b6457e09190a35050565b5f80828060200190518101906116be91906124df565b60095460405163d06ca61f60e01b81529192505f916001600160a01b039091169063d06ca61f906116f590899086906004016125aa565b5f60405180830381865afa15801561170f573d5f803e3d5ffd5b505050506040513d5f823e601f3d908101601f1916820160405261173691908101906125ca565b90505f61271060075461271061174c9190612371565b8360018151811061175f5761175f6122b3565b60200260200101516117719190612262565b61177b9190612279565b60095460405163095ea7b360e01b81526001600160a01b039182166004820152602481018a905291925089169063095ea7b3906044016020604051808303815f875af11580156117cd573d5f803e3d5ffd5b505050506040513d601f19601f820116820180604052508101906117f19190612384565b506009546040516318cbafe560e01b81525f916001600160a01b0316906318cbafe59061182a908b90869089908d90429060040161264a565b5f604051808303815f875af1158015611845573d5f803e3d5ffd5b505050506040513d5f823e601f3d908101601f1916820160405261186c91908101906125ca565b905080600181518110611881576118816122b3565b6020026020010151945050505050949350505050565b600b5460405163cdca175360e01b81525f9182916001600160a01b039091169063cdca1753906118cd9086908990600401612685565b6020604051808303815f875af11580156118e9573d5f803e3d5ffd5b505050506040513d601f19601f8201168201806040525081019061190d91906120e4565b90505f6127106007546127106119239190612371565b61192d9084612262565b6119379190612279565b6040805160a0810182528681526001600160a01b0388811660208301524282840152606082018a905260808201849052600a54925163095ea7b360e01b81529281166004840152602483018a90529293509189169063095ea7b3906044016020604051808303815f875af11580156119b1573d5f803e3d5ffd5b505050506040513d601f19601f820116820180604052508101906119d59190612384565b50600a5460405163c04b8d5960e01b81526001600160a01b039091169063c04b8d5990611a069084906004016126a6565b6020604051808303815f875af1158015611a22573d5f803e3d5ffd5b505050506040513d601f19601f82011682018060405250810190611a4691906120e4565b98975050505050505050565b6001600160a01b038216611a7b5760405163ec442f0560e01b81525f6004820152602401610626565b61154a5f83835b6001600160a01b038316611aac578060035f828254611aa19190612346565b90915550611b1c9050565b6001600160a01b0383165f9081526001602052604090205481811015611afe5760405163391434e360e21b81526001600160a01b03851660048201526024810182905260448101839052606401610626565b6001600160a01b0384165f9081526001602052604090209082900390555b6001600160a01b038216611b3857600380548290039055611b56565b6001600160a01b0382165f9081526001602052604090208054820190555b816001600160a01b0316836001600160a01b03167fddf252ad1be2c89b69c2b068fc378daa952ba7f163c4a11628f55a4df523b3ef83604051611b9b91815260200190565b60405180910390a3505050565b6001600160a01b038416611bd15760405163e602df0560e01b81525f6004820152602401610626565b6001600160a01b038316611bfa57604051634a1406b160e11b81525f6004820152602401610626565b6001600160a01b038085165f908152600260209081526040808320938716835292905220829055801561141157826001600160a01b0316846001600160a01b03167f8c5be1e5ebec7d5bd14f71427d1e84f3dd0314c0f7b2291e5b200ac8c7c3b92584604051611c6c91815260200190565b60405180910390a350505050565b634e487b7160e01b5f52604160045260245ffd5b604051606081016001600160401b0381118282101715611cb057611cb0611c7a565b60405290565b604051601f8201601f191681016001600160401b0381118282101715611cde57611cde611c7a565b604052919050565b5f6001600160401b03821115611cfe57611cfe611c7a565b50601f01601f191660200190565b5f82601f830112611d1b575f80fd5b8135611d2e611d2982611ce6565b611cb6565b818152846020838601011115611d42575f80fd5b816020850160208301375f918101602001919091529392505050565b5f8060408385031215611d6f575f80fd5b8235915060208301356001600160401b03811115611d8b575f80fd5b611d9785828601611d0c565b9150509250929050565b5f5b83811015611dbb578181015183820152602001611da3565b50505f910152565b5f8151808452611dda816020860160208601611da1565b601f01601f19169290920160200192915050565b602081525f611e006020830184611dc3565b9392505050565b6001600160a01b03811681146114cc575f80fd5b5f8060408385031215611e2c575f80fd5b8235611e3781611e07565b946020939093013593505050565b5f60208284031215611e55575f80fd5b5035919050565b5f805f60608486031215611e6e575f80fd5b8335611e7981611e07565b92506020840135611e8981611e07565b929592945050506040919091013590565b602080825282518282018190525f919060409081850190868401855b82811015611ee457815180516001600160a01b03168552860151868501529284019290850190600101611eb6565b5091979650505050505050565b5f60208284031215611f01575f80fd5b8135611e0081611e07565b5f8083601f840112611f1c575f80fd5b5081356001600160401b03811115611f32575f80fd5b6020830191508360208260051b8501011115611f4c575f80fd5b9250929050565b803561ffff81168114611f64575f80fd5b919050565b5f805f805f8060808789031215611f7e575f80fd5b86356001600160401b0380821115611f94575f80fd5b611fa08a838b01611f0c565b90985096506020890135915080821115611fb8575f80fd5b50611fc589828a01611f0c565b9095509350611fd8905060408801611f53565b9150611fe660608801611f53565b90509295509295509295565b600281106114cc575f80fd5b5f805f805f60a08688031215612012575f80fd5b853561201d81611e07565b945060208601359350604086013561203481611ff2565b9250606086013561204481611e07565b915060808601356001600160401b0381111561205e575f80fd5b61206a88828901611d0c565b9150509295509295909350565b5f60208284031215612087575f80fd5b81356001600160401b0381111561209c575f80fd5b820160608185031215611e00575f80fd5b5f80604083850312156120be575f80fd5b82356120c981611e07565b915060208301356120d981611e07565b809150509250929050565b5f602082840312156120f4575f80fd5b5051919050565b5f6001600160401b0382111561211357612113611c7a565b5060051b60200190565b8051611f6481611ff2565b5f6020808385031215612139575f80fd5b82516001600160401b038082111561214f575f80fd5b9084019060608287031215612162575f80fd5b61216a611c8e565b825182811115612178575f80fd5b8301601f81018813612188575f80fd5b8051612196611d29826120fb565b81815260059190911b8201860190868101908a8311156121b4575f80fd5b8784015b83811015612225578051878111156121cf575f8081fd5b8501603f81018d136121e0575f8081fd5b8981015160406121f2611d2983611ce6565b8281528f82848601011115612206575f8081fd5b612215838e8301848701611da1565b86525050509188019188016121b8565b508452505050828401518482015261223f6040840161211d565b60408201529695505050505050565b634e487b7160e01b5f52601160045260245ffd5b8082028115828204841417610a6557610a6561224e565b5f8261229357634e487b7160e01b5f52601260045260245ffd5b500490565b5f602082840312156122a8575f80fd5b8151611e0081611e07565b634e487b7160e01b5f52603260045260245ffd5b634e487b7160e01b5f52602160045260245ffd5b600281106122f757634e487b7160e01b5f52602160045260245ffd5b9052565b6001600160a01b038681168252602082018690525f9061231e60408401876122db565b80851660608401525060a0608083015261233b60a0830184611dc3565b979650505050505050565b80820180821115610a6557610a6561224e565b5f6001820161236a5761236a61224e565b5060010190565b81810381811115610a6557610a6561224e565b5f60208284031215612394575f80fd5b81518015158114611e00575f80fd5b600181811c908216806123b757607f821691505b6020821081036123d557634e487b7160e01b5f52602260045260245ffd5b50919050565b5f602082840312156123eb575f80fd5b8135611e0081611ff2565b5f808335601e1984360301811261240b575f80fd5b8301803591506001600160401b03821115612424575f80fd5b6020019150600581901b3603821315611f4c575f80fd5b5f808335601e19843603018112612450575f80fd5b8301803591506001600160401b03821115612469575f80fd5b602001915036819003821315611f4c575f80fd5b6001600160a01b038781168252602082018790525f906124a060408401886122db565b80861660608401525060a060808301528260a0830152828460c08401375f60c0848401015260c0601f19601f8501168301019050979650505050505050565b5f60208083850312156124f0575f80fd5b82516001600160401b03811115612505575f80fd5b8301601f81018513612515575f80fd5b8051612523611d29826120fb565b81815260059190911b82018301908381019087831115612541575f80fd5b928401925b8284101561233b57835161255981611e07565b82529284019290840190612546565b5f8151808452602080850194508084015f5b8381101561259f5781516001600160a01b03168752958201959082019060010161257a565b509495945050505050565b828152604060208201525f6125c26040830184612568565b949350505050565b5f60208083850312156125db575f80fd5b82516001600160401b038111156125f0575f80fd5b8301601f81018513612600575f80fd5b805161260e611d29826120fb565b81815260059190911b8201830190838101908783111561262c575f80fd5b928401925b8284101561233b57835182529284019290840190612631565b85815284602082015260a060408201525f61266860a0830186612568565b6001600160a01b0394909416606083015250608001529392505050565b604081525f6126976040830185611dc3565b90508260208301529392505050565b602081525f825160a060208401526126c160c0840182611dc3565b905060018060a01b0360208501511660408401526040840151606084015260608401516080840152608084015160a0840152809150509291505056fea2646970667358221220c2e907bda1b8067e0fac9b6981b715f60085ae821cfced8eb0966a3fca7659d264736f6c63430008140033",
					"opcodes": "PUSH1 0x80 PUSH1 0x40 MSTORE PUSH1 0xE DUP1 SLOAD PUSH1 0xFF PUSH1 0x20 SHL NOT AND SWAP1 SSTORE CALLVALUE DUP1 ISZERO PUSH3 0x1D JUMPI PUSH0 DUP1 REVERT JUMPDEST POP PUSH1 0x40 MLOAD PUSH3 0x2B4D CODESIZE SUB DUP1 PUSH3 0x2B4D DUP4 CODECOPY DUP2 ADD PUSH1 0x40 DUP2 SWAP1 MSTORE PUSH3 0x40 SWAP2 PUSH3 0x21C JUMP JUMPDEST DUP3 DUP3 DUP3 DUP8 DUP8 CALLER DUP1 PUSH3 0x6B JUMPI PUSH1 0x40 MLOAD PUSH4 0x1E4FBDF7 PUSH1 0xE0 SHL DUP2 MSTORE PUSH0 PUSH1 0x4 DUP3 ADD MSTORE PUSH1 0x24 ADD PUSH1 0x40 MLOAD DUP1 SWAP2 SUB SWAP1 REVERT JUMPDEST PUSH3 0x76 DUP2 PUSH3 0xF3 JUMP JUMPDEST POP PUSH1 0x4 PUSH3 0x85 DUP4 DUP3 PUSH3 0x344 JUMP JUMPDEST POP PUSH1 0x5 PUSH3 0x94 DUP3 DUP3 PUSH3 0x344 JUMP JUMPDEST POP POP PUSH1 0x9 DUP1 SLOAD PUSH1 0x1 PUSH1 0x1 PUSH1 0xA0 SHL SUB SWAP6 DUP7 AND PUSH1 0x1 PUSH1 0x1 PUSH1 0xA0 SHL SUB NOT SWAP2 DUP3 AND OR SWAP1 SWAP2 SSTORE PUSH1 0xA DUP1 SLOAD SWAP5 DUP7 AND SWAP5 DUP3 AND SWAP5 SWAP1 SWAP5 OR SWAP1 SWAP4 SSTORE POP PUSH1 0xB DUP1 SLOAD SWAP2 SWAP1 SWAP4 AND SWAP1 DUP3 AND OR SWAP1 SWAP2 SSTORE PUSH2 0x3E8 PUSH1 0x7 SSTORE PUSH1 0x10 DUP1 SLOAD SWAP1 SWAP2 AND CALLER OR SWAP1 SSTORE POP PUSH3 0x40C SWAP4 POP POP POP POP JUMP JUMPDEST PUSH0 DUP1 SLOAD PUSH1 0x1 PUSH1 0x1 PUSH1 0xA0 SHL SUB DUP4 DUP2 AND PUSH1 0x1 PUSH1 0x1 PUSH1 0xA0 SHL SUB NOT DUP4 AND DUP2 OR DUP5 SSTORE PUSH1 0x40 MLOAD SWAP2 SWAP1 SWAP3 AND SWAP3 DUP4 SWAP2 PUSH32 0x8BE0079C531659141344CD1FD0A4F28419497F9722A3DAAFE3B4186F6B6457E0 SWAP2 SWAP1 LOG3 POP POP JUMP JUMPDEST PUSH4 0x4E487B71 PUSH1 0xE0 SHL PUSH0 MSTORE PUSH1 0x41 PUSH1 0x4 MSTORE PUSH1 0x24 PUSH0 REVERT JUMPDEST PUSH0 DUP3 PUSH1 0x1F DUP4 ADD SLT PUSH3 0x166 JUMPI PUSH0 DUP1 REVERT JUMPDEST DUP2 MLOAD PUSH1 0x1 PUSH1 0x1 PUSH1 0x40 SHL SUB DUP1 DUP3 GT ISZERO PUSH3 0x183 JUMPI PUSH3 0x183 PUSH3 0x142 JUMP JUMPDEST PUSH1 0x40 MLOAD PUSH1 0x1F DUP4 ADD PUSH1 0x1F NOT SWAP1 DUP2 AND PUSH1 0x3F ADD AND DUP2 ADD SWAP1 DUP3 DUP3 GT DUP2 DUP4 LT OR ISZERO PUSH3 0x1AE JUMPI PUSH3 0x1AE PUSH3 0x142 JUMP JUMPDEST DUP2 PUSH1 0x40 MSTORE DUP4 DUP2 MSTORE PUSH1 0x20 SWAP3 POP DUP7 DUP4 DUP6 DUP9 ADD ADD GT ISZERO PUSH3 0x1CA JUMPI PUSH0 DUP1 REVERT JUMPDEST PUSH0 SWAP2 POP JUMPDEST DUP4 DUP3 LT ISZERO PUSH3 0x1ED JUMPI DUP6 DUP3 ADD DUP4 ADD MLOAD DUP2 DUP4 ADD DUP5 ADD MSTORE SWAP1 DUP3 ADD SWAP1 PUSH3 0x1CE JUMP JUMPDEST PUSH0 SWAP4 DUP2 ADD SWAP1 SWAP3 ADD SWAP3 SWAP1 SWAP3 MSTORE SWAP5 SWAP4 POP POP POP POP JUMP JUMPDEST DUP1 MLOAD PUSH1 0x1 PUSH1 0x1 PUSH1 0xA0 SHL SUB DUP2 AND DUP2 EQ PUSH3 0x217 JUMPI PUSH0 DUP1 REVERT JUMPDEST SWAP2 SWAP1 POP JUMP JUMPDEST PUSH0 DUP1 PUSH0 DUP1 PUSH0 PUSH1 0xA0 DUP7 DUP9 SUB SLT ISZERO PUSH3 0x231 JUMPI PUSH0 DUP1 REVERT JUMPDEST DUP6 MLOAD PUSH1 0x1 PUSH1 0x1 PUSH1 0x40 SHL SUB DUP1 DUP3 GT ISZERO PUSH3 0x248 JUMPI PUSH0 DUP1 REVERT JUMPDEST PUSH3 0x256 DUP10 DUP4 DUP11 ADD PUSH3 0x156 JUMP JUMPDEST SWAP7 POP PUSH1 0x20 DUP9 ADD MLOAD SWAP2 POP DUP1 DUP3 GT ISZERO PUSH3 0x26C JUMPI PUSH0 DUP1 REVERT JUMPDEST POP PUSH3 0x27B DUP9 DUP3 DUP10 ADD PUSH3 0x156 JUMP JUMPDEST SWAP5 POP POP PUSH3 0x28C PUSH1 0x40 DUP8 ADD PUSH3 0x200 JUMP JUMPDEST SWAP3 POP PUSH3 0x29C PUSH1 0x60 DUP8 ADD PUSH3 0x200 JUMP JUMPDEST SWAP2 POP PUSH3 0x2AC PUSH1 0x80 DUP8 ADD PUSH3 0x200 JUMP JUMPDEST SWAP1 POP SWAP3 SWAP6 POP SWAP3 SWAP6 SWAP1 SWAP4 POP JUMP JUMPDEST PUSH1 0x1 DUP2 DUP2 SHR SWAP1 DUP3 AND DUP1 PUSH3 0x2CD JUMPI PUSH1 0x7F DUP3 AND SWAP2 POP JUMPDEST PUSH1 0x20 DUP3 LT DUP2 SUB PUSH3 0x2EC JUMPI PUSH4 0x4E487B71 PUSH1 0xE0 SHL PUSH0 MSTORE PUSH1 0x22 PUSH1 0x4 MSTORE PUSH1 0x24 PUSH0 REVERT JUMPDEST POP SWAP2 SWAP1 POP JUMP JUMPDEST PUSH1 0x1F DUP3 GT ISZERO PUSH3 0x33F JUMPI PUSH0 DUP2 DUP2 MSTORE PUSH1 0x20 DUP2 KECCAK256 PUSH1 0x1F DUP6 ADD PUSH1 0x5 SHR DUP2 ADD PUSH1 0x20 DUP7 LT ISZERO PUSH3 0x31A JUMPI POP DUP1 JUMPDEST PUSH1 0x1F DUP6 ADD PUSH1 0x5 SHR DUP3 ADD SWAP2 POP JUMPDEST DUP2 DUP2 LT ISZERO PUSH3 0x33B JUMPI DUP3 DUP2 SSTORE PUSH1 0x1 ADD PUSH3 0x326 JUMP JUMPDEST POP POP POP JUMPDEST POP POP POP JUMP JUMPDEST DUP2 MLOAD PUSH1 0x1 PUSH1 0x1 PUSH1 0x40 SHL SUB DUP2 GT ISZERO PUSH3 0x360 JUMPI PUSH3 0x360 PUSH3 0x142 JUMP JUMPDEST PUSH3 0x378 DUP2 PUSH3 0x371 DUP5 SLOAD PUSH3 0x2B8 JUMP JUMPDEST DUP5 PUSH3 0x2F2 JUMP JUMPDEST PUSH1 0x20 DUP1 PUSH1 0x1F DUP4 GT PUSH1 0x1 DUP2 EQ PUSH3 0x3AE JUMPI PUSH0 DUP5 ISZERO PUSH3 0x396 JUMPI POP DUP6 DUP4 ADD MLOAD JUMPDEST PUSH0 NOT PUSH1 0x3 DUP7 SWAP1 SHL SHR NOT AND PUSH1 0x1 DUP6 SWAP1 SHL OR DUP6 SSTORE PUSH3 0x33B JUMP JUMPDEST PUSH0 DUP6 DUP2 MSTORE PUSH1 0x20 DUP2 KECCAK256 PUSH1 0x1F NOT DUP7 AND SWAP2 JUMPDEST DUP3 DUP2 LT ISZERO PUSH3 0x3DE JUMPI DUP9 DUP7 ADD MLOAD DUP3 SSTORE SWAP5 DUP5 ADD SWAP5 PUSH1 0x1 SWAP1 SWAP2 ADD SWAP1 DUP5 ADD PUSH3 0x3BD JUMP JUMPDEST POP DUP6 DUP3 LT ISZERO PUSH3 0x3FC JUMPI DUP8 DUP6 ADD MLOAD PUSH0 NOT PUSH1 0x3 DUP9 SWAP1 SHL PUSH1 0xF8 AND SHR NOT AND DUP2 SSTORE JUMPDEST POP POP POP POP POP PUSH1 0x1 SWAP1 DUP2 SHL ADD SWAP1 SSTORE POP JUMP JUMPDEST PUSH2 0x2733 DUP1 PUSH3 0x41A PUSH0 CODECOPY PUSH0 RETURN INVALID PUSH1 0x80 PUSH1 0x40 MSTORE PUSH1 0x4 CALLDATASIZE LT PUSH2 0x1C4 JUMPI PUSH0 CALLDATALOAD PUSH1 0xE0 SHR DUP1 PUSH4 0x67A52793 GT PUSH2 0xF2 JUMPI DUP1 PUSH4 0x945098DB GT PUSH2 0x92 JUMPI DUP1 PUSH4 0xC38CD0B5 GT PUSH2 0x62 JUMPI DUP1 PUSH4 0xC38CD0B5 EQ PUSH2 0x553 JUMPI DUP1 PUSH4 0xD03153AA EQ PUSH2 0x57E JUMPI DUP1 PUSH4 0xDD62ED3E EQ PUSH2 0x593 JUMPI DUP1 PUSH4 0xF2FDE38B EQ PUSH2 0x5D7 JUMPI PUSH0 DUP1 REVERT JUMPDEST DUP1 PUSH4 0x945098DB EQ PUSH2 0x4EE JUMPI DUP1 PUSH4 0x95D89B41 EQ PUSH2 0x501 JUMPI DUP1 PUSH4 0xA738C7DF EQ PUSH2 0x515 JUMPI DUP1 PUSH4 0xA9059CBB EQ PUSH2 0x534 JUMPI PUSH0 DUP1 REVERT JUMPDEST DUP1 PUSH4 0x74A66061 GT PUSH2 0xCD JUMPI DUP1 PUSH4 0x74A66061 EQ PUSH2 0x478 JUMPI DUP1 PUSH4 0x81A06B73 EQ PUSH2 0x497 JUMPI DUP1 PUSH4 0x8BC7E8C4 EQ PUSH2 0x4B8 JUMPI DUP1 PUSH4 0x8DA5CB5B EQ PUSH2 0x4D2 JUMPI PUSH0 DUP1 REVERT JUMPDEST DUP1 PUSH4 0x67A52793 EQ PUSH2 0x3FD JUMPI DUP1 PUSH4 0x70A08231 EQ PUSH2 0x430 JUMPI DUP1 PUSH4 0x715018A6 EQ PUSH2 0x464 JUMPI PUSH0 DUP1 REVERT JUMPDEST DUP1 PUSH4 0x2A5C792A GT PUSH2 0x168 JUMPI DUP1 PUSH4 0x36A43F2B GT PUSH2 0x138 JUMPI DUP1 PUSH4 0x36A43F2B EQ PUSH2 0x34F JUMPI DUP1 PUSH4 0x378A653C EQ PUSH2 0x37A JUMPI DUP1 PUSH4 0x3F595E29 EQ PUSH2 0x3BF JUMPI DUP1 PUSH4 0x4D20D0F8 EQ PUSH2 0x3DE JUMPI PUSH0 DUP1 REVERT JUMPDEST DUP1 PUSH4 0x2A5C792A EQ PUSH2 0x2D5 JUMPI DUP1 PUSH4 0x2C76D7A6 EQ PUSH2 0x2F6 JUMPI DUP1 PUSH4 0x3043D4D9 EQ PUSH2 0x315 JUMPI DUP1 PUSH4 0x313CE567 EQ PUSH2 0x334 JUMPI PUSH0 DUP1 REVERT JUMPDEST DUP1 PUSH4 0x117DA1EE GT PUSH2 0x1A3 JUMPI DUP1 PUSH4 0x117DA1EE EQ PUSH2 0x242 JUMPI DUP1 PUSH4 0x1694505E EQ PUSH2 0x261 JUMPI DUP1 PUSH4 0x18160DDD EQ PUSH2 0x298 JUMPI DUP1 PUSH4 0x23B872DD EQ PUSH2 0x2B6 JUMPI PUSH0 DUP1 REVERT JUMPDEST DUP1 PUSH3 0xD06DDD EQ PUSH2 0x1C8 JUMPI DUP1 PUSH4 0x6FDDE03 EQ PUSH2 0x1E9 JUMPI DUP1 PUSH4 0x95EA7B3 EQ PUSH2 0x213 JUMPI JUMPDEST PUSH0 DUP1 REVERT JUMPDEST CALLVALUE DUP1 ISZERO PUSH2 0x1D3 JUMPI PUSH0 DUP1 REVERT JUMPDEST POP PUSH2 0x1E7 PUSH2 0x1E2 CALLDATASIZE PUSH1 0x4 PUSH2 0x1D5E JUMP JUMPDEST PUSH2 0x5F6 JUMP JUMPDEST STOP JUMPDEST CALLVALUE DUP1 ISZERO PUSH2 0x1F4 JUMPI PUSH0 DUP1 REVERT JUMPDEST POP PUSH2 0x1FD PUSH2 0x9C2 JUMP JUMPDEST PUSH1 0x40 MLOAD PUSH2 0x20A SWAP2 SWAP1 PUSH2 0x1DEE JUMP JUMPDEST PUSH1 0x40 MLOAD DUP1 SWAP2 SUB SWAP1 RETURN JUMPDEST CALLVALUE DUP1 ISZERO PUSH2 0x21E JUMPI PUSH0 DUP1 REVERT JUMPDEST POP PUSH2 0x232 PUSH2 0x22D CALLDATASIZE PUSH1 0x4 PUSH2 0x1E1B JUMP JUMPDEST PUSH2 0xA52 JUMP JUMPDEST PUSH1 0x40 MLOAD SWAP1 ISZERO ISZERO DUP2 MSTORE PUSH1 0x20 ADD PUSH2 0x20A JUMP JUMPDEST CALLVALUE DUP1 ISZERO PUSH2 0x24D JUMPI PUSH0 DUP1 REVERT JUMPDEST POP PUSH2 0x1E7 PUSH2 0x25C CALLDATASIZE PUSH1 0x4 PUSH2 0x1E45 JUMP JUMPDEST PUSH2 0xA6B JUMP JUMPDEST CALLVALUE DUP1 ISZERO PUSH2 0x26C JUMPI PUSH0 DUP1 REVERT JUMPDEST POP PUSH1 0x9 SLOAD PUSH2 0x280 SWAP1 PUSH1 0x1 PUSH1 0x1 PUSH1 0xA0 SHL SUB AND DUP2 JUMP JUMPDEST PUSH1 0x40 MLOAD PUSH1 0x1 PUSH1 0x1 PUSH1 0xA0 SHL SUB SWAP1 SWAP2 AND DUP2 MSTORE PUSH1 0x20 ADD PUSH2 0x20A JUMP JUMPDEST CALLVALUE DUP1 ISZERO PUSH2 0x2A3 JUMPI PUSH0 DUP1 REVERT JUMPDEST POP PUSH1 0x3 SLOAD JUMPDEST PUSH1 0x40 MLOAD SWAP1 DUP2 MSTORE PUSH1 0x20 ADD PUSH2 0x20A JUMP JUMPDEST CALLVALUE DUP1 ISZERO PUSH2 0x2C1 JUMPI PUSH0 DUP1 REVERT JUMPDEST POP PUSH2 0x232 PUSH2 0x2D0 CALLDATASIZE PUSH1 0x4 PUSH2 0x1E5C JUMP JUMPDEST PUSH2 0xAAB JUMP JUMPDEST CALLVALUE DUP1 ISZERO PUSH2 0x2E0 JUMPI PUSH0 DUP1 REVERT JUMPDEST POP PUSH2 0x2E9 PUSH2 0xACE JUMP JUMPDEST PUSH1 0x40 MLOAD PUSH2 0x20A SWAP2 SWAP1 PUSH2 0x1E9A JUMP JUMPDEST CALLVALUE DUP1 ISZERO PUSH2 0x301 JUMPI PUSH0 DUP1 REVERT JUMPDEST POP PUSH1 0xA SLOAD PUSH2 0x280 SWAP1 PUSH1 0x1 PUSH1 0x1 PUSH1 0xA0 SHL SUB AND DUP2 JUMP JUMPDEST CALLVALUE DUP1 ISZERO PUSH2 0x320 JUMPI PUSH0 DUP1 REVERT JUMPDEST POP PUSH2 0x1E7 PUSH2 0x32F CALLDATASIZE PUSH1 0x4 PUSH2 0x1E45 JUMP JUMPDEST PUSH2 0xB41 JUMP JUMPDEST CALLVALUE DUP1 ISZERO PUSH2 0x33F JUMPI PUSH0 DUP1 REVERT JUMPDEST POP PUSH1 0x40 MLOAD PUSH1 0x12 DUP2 MSTORE PUSH1 0x20 ADD PUSH2 0x20A JUMP JUMPDEST CALLVALUE DUP1 ISZERO PUSH2 0x35A JUMPI PUSH0 DUP1 REVERT JUMPDEST POP PUSH2 0x2A8 PUSH2 0x369 CALLDATASIZE PUSH1 0x4 PUSH2 0x1EF1 JUMP JUMPDEST PUSH1 0x8 PUSH1 0x20 MSTORE PUSH0 SWAP1 DUP2 MSTORE PUSH1 0x40 SWAP1 KECCAK256 SLOAD DUP2 JUMP JUMPDEST CALLVALUE DUP1 ISZERO PUSH2 0x385 JUMPI PUSH0 DUP1 REVERT JUMPDEST POP PUSH2 0x399 PUSH2 0x394 CALLDATASIZE PUSH1 0x4 PUSH2 0x1E45 JUMP JUMPDEST PUSH2 0xD33 JUMP JUMPDEST PUSH1 0x40 DUP1 MLOAD PUSH1 0x1 PUSH1 0x1 PUSH1 0xA0 SHL SUB SWAP5 DUP6 AND DUP2 MSTORE SWAP4 SWAP1 SWAP3 AND PUSH1 0x20 DUP5 ADD MSTORE SWAP1 DUP3 ADD MSTORE PUSH1 0x60 ADD PUSH2 0x20A JUMP JUMPDEST CALLVALUE DUP1 ISZERO PUSH2 0x3CA JUMPI PUSH0 DUP1 REVERT JUMPDEST POP PUSH2 0x1E7 PUSH2 0x3D9 CALLDATASIZE PUSH1 0x4 PUSH2 0x1F69 JUMP JUMPDEST PUSH2 0xD71 JUMP JUMPDEST CALLVALUE DUP1 ISZERO PUSH2 0x3E9 JUMPI PUSH0 DUP1 REVERT JUMPDEST POP PUSH1 0xB SLOAD PUSH2 0x280 SWAP1 PUSH1 0x1 PUSH1 0x1 PUSH1 0xA0 SHL SUB AND DUP2 JUMP JUMPDEST CALLVALUE DUP1 ISZERO PUSH2 0x408 JUMPI PUSH0 DUP1 REVERT JUMPDEST POP PUSH1 0xE SLOAD PUSH2 0x41D SWAP1 PUSH3 0x10000 SWAP1 DIV PUSH2 0xFFFF AND DUP2 JUMP JUMPDEST PUSH1 0x40 MLOAD PUSH2 0xFFFF SWAP1 SWAP2 AND DUP2 MSTORE PUSH1 0x20 ADD PUSH2 0x20A JUMP JUMPDEST CALLVALUE DUP1 ISZERO PUSH2 0x43B JUMPI PUSH0 DUP1 REVERT JUMPDEST POP PUSH2 0x2A8 PUSH2 0x44A CALLDATASIZE PUSH1 0x4 PUSH2 0x1EF1 JUMP JUMPDEST PUSH1 0x1 PUSH1 0x1 PUSH1 0xA0 SHL SUB AND PUSH0 SWAP1 DUP2 MSTORE PUSH1 0x1 PUSH1 0x20 MSTORE PUSH1 0x40 SWAP1 KECCAK256 SLOAD SWAP1 JUMP JUMPDEST CALLVALUE DUP1 ISZERO PUSH2 0x46F JUMPI PUSH0 DUP1 REVERT JUMPDEST POP PUSH2 0x1E7 PUSH2 0xFC0 JUMP JUMPDEST CALLVALUE DUP1 ISZERO PUSH2 0x483 JUMPI PUSH0 DUP1 REVERT JUMPDEST POP PUSH2 0x2A8 PUSH2 0x492 CALLDATASIZE PUSH1 0x4 PUSH2 0x1FFE JUMP JUMPDEST PUSH2 0xFD3 JUMP JUMPDEST CALLVALUE DUP1 ISZERO PUSH2 0x4A2 JUMPI PUSH0 DUP1 REVERT JUMPDEST POP PUSH1 0xE SLOAD PUSH2 0x232 SWAP1 PUSH5 0x100000000 SWAP1 DIV PUSH1 0xFF AND DUP2 JUMP JUMPDEST CALLVALUE DUP1 ISZERO PUSH2 0x4C3 JUMPI PUSH0 DUP1 REVERT JUMPDEST POP PUSH1 0xE SLOAD PUSH2 0x41D SWAP1 PUSH2 0xFFFF AND DUP2 JUMP JUMPDEST CALLVALUE DUP1 ISZERO PUSH2 0x4DD JUMPI PUSH0 DUP1 REVERT JUMPDEST POP PUSH0 SLOAD PUSH1 0x1 PUSH1 0x1 PUSH1 0xA0 SHL SUB AND PUSH2 0x280 JUMP JUMPDEST PUSH2 0x1E7 PUSH2 0x4FC CALLDATASIZE PUSH1 0x4 PUSH2 0x2077 JUMP JUMPDEST PUSH2 0x105B JUMP JUMPDEST CALLVALUE DUP1 ISZERO PUSH2 0x50C JUMPI PUSH0 DUP1 REVERT JUMPDEST POP PUSH2 0x1FD PUSH2 0x1417 JUMP JUMPDEST CALLVALUE DUP1 ISZERO PUSH2 0x520 JUMPI PUSH0 DUP1 REVERT JUMPDEST POP PUSH2 0x1E7 PUSH2 0x52F CALLDATASIZE PUSH1 0x4 PUSH2 0x1EF1 JUMP JUMPDEST PUSH2 0x1426 JUMP JUMPDEST CALLVALUE DUP1 ISZERO PUSH2 0x53F JUMPI PUSH0 DUP1 REVERT JUMPDEST POP PUSH2 0x232 PUSH2 0x54E CALLDATASIZE PUSH1 0x4 PUSH2 0x1E1B JUMP JUMPDEST PUSH2 0x14CF JUMP JUMPDEST CALLVALUE DUP1 ISZERO PUSH2 0x55E JUMPI PUSH0 DUP1 REVERT JUMPDEST POP PUSH2 0x2A8 PUSH2 0x56D CALLDATASIZE PUSH1 0x4 PUSH2 0x1EF1 JUMP JUMPDEST PUSH1 0xF PUSH1 0x20 MSTORE PUSH0 SWAP1 DUP2 MSTORE PUSH1 0x40 SWAP1 KECCAK256 SLOAD DUP2 JUMP JUMPDEST CALLVALUE DUP1 ISZERO PUSH2 0x589 JUMPI PUSH0 DUP1 REVERT JUMPDEST POP PUSH2 0x2A8 PUSH1 0x7 SLOAD DUP2 JUMP JUMPDEST CALLVALUE DUP1 ISZERO PUSH2 0x59E JUMPI PUSH0 DUP1 REVERT JUMPDEST POP PUSH2 0x2A8 PUSH2 0x5AD CALLDATASIZE PUSH1 0x4 PUSH2 0x20AD JUMP JUMPDEST PUSH1 0x1 PUSH1 0x1 PUSH1 0xA0 SHL SUB SWAP2 DUP3 AND PUSH0 SWAP1 DUP2 MSTORE PUSH1 0x2 PUSH1 0x20 SWAP1 DUP2 MSTORE PUSH1 0x40 DUP1 DUP4 KECCAK256 SWAP4 SWAP1 SWAP5 AND DUP3 MSTORE SWAP2 SWAP1 SWAP2 MSTORE KECCAK256 SLOAD SWAP1 JUMP JUMPDEST CALLVALUE DUP1 ISZERO PUSH2 0x5E2 JUMPI PUSH0 DUP1 REVERT JUMPDEST POP PUSH2 0x1E7 PUSH2 0x5F1 CALLDATASIZE PUSH1 0x4 PUSH2 0x1EF1 JUMP JUMPDEST PUSH2 0x14DC JUMP JUMPDEST PUSH0 DUP3 GT PUSH2 0x62F JUMPI PUSH1 0x40 MLOAD PUSH3 0x461BCD PUSH1 0xE5 SHL DUP2 MSTORE PUSH1 0x20 PUSH1 0x4 DUP3 ADD MSTORE PUSH1 0x2 PUSH1 0x24 DUP3 ADD MSTORE PUSH2 0x3E3 PUSH1 0xF4 SHL PUSH1 0x44 DUP3 ADD MSTORE PUSH1 0x64 ADD JUMPDEST PUSH1 0x40 MLOAD DUP1 SWAP2 SUB SWAP1 REVERT JUMPDEST PUSH1 0x40 MLOAD PUSH4 0x70A08231 PUSH1 0xE0 SHL DUP2 MSTORE CALLER PUSH1 0x4 DUP3 ADD MSTORE DUP3 SWAP1 ADDRESS SWAP1 PUSH4 0x70A08231 SWAP1 PUSH1 0x24 ADD PUSH1 0x20 PUSH1 0x40 MLOAD DUP1 DUP4 SUB DUP2 DUP7 GAS STATICCALL ISZERO DUP1 ISZERO PUSH2 0x66A JUMPI RETURNDATASIZE PUSH0 DUP1 RETURNDATACOPY RETURNDATASIZE PUSH0 REVERT JUMPDEST POP POP POP POP PUSH1 0x40 MLOAD RETURNDATASIZE PUSH1 0x1F NOT PUSH1 0x1F DUP3 ADD AND DUP3 ADD DUP1 PUSH1 0x40 MSTORE POP DUP2 ADD SWAP1 PUSH2 0x68E SWAP2 SWAP1 PUSH2 0x20E4 JUMP JUMPDEST LT ISZERO PUSH2 0x6CC JUMPI PUSH1 0x40 MLOAD PUSH3 0x461BCD PUSH1 0xE5 SHL DUP2 MSTORE PUSH1 0x20 PUSH1 0x4 DUP3 ADD MSTORE PUSH1 0xD PUSH1 0x24 DUP3 ADD MSTORE PUSH13 0x8525B9CDD59999A58DA595B9D PUSH1 0x9A SHL PUSH1 0x44 DUP3 ADD MSTORE PUSH1 0x64 ADD PUSH2 0x626 JUMP JUMPDEST PUSH0 DUP2 DUP1 PUSH1 0x20 ADD SWAP1 MLOAD DUP2 ADD SWAP1 PUSH2 0x6E1 SWAP2 SWAP1 PUSH2 0x2128 JUMP JUMPDEST SWAP1 POP PUSH0 PUSH2 0x6ED PUSH1 0x3 SLOAD SWAP1 JUMP JUMPDEST PUSH2 0x6F9 DUP6 PUSH2 0x2710 PUSH2 0x2262 JUMP JUMPDEST PUSH2 0x703 SWAP2 SWAP1 PUSH2 0x2279 JUMP JUMPDEST SWAP1 POP PUSH0 PUSH1 0x9 PUSH0 SWAP1 SLOAD SWAP1 PUSH2 0x100 EXP SWAP1 DIV PUSH1 0x1 PUSH1 0x1 PUSH1 0xA0 SHL SUB AND PUSH1 0x1 PUSH1 0x1 PUSH1 0xA0 SHL SUB AND PUSH4 0xAD5C4648 PUSH1 0x40 MLOAD DUP2 PUSH4 0xFFFFFFFF AND PUSH1 0xE0 SHL DUP2 MSTORE PUSH1 0x4 ADD PUSH1 0x20 PUSH1 0x40 MLOAD DUP1 DUP4 SUB DUP2 DUP7 GAS STATICCALL ISZERO DUP1 ISZERO PUSH2 0x756 JUMPI RETURNDATASIZE PUSH0 DUP1 RETURNDATACOPY RETURNDATASIZE PUSH0 REVERT JUMPDEST POP POP POP POP PUSH1 0x40 MLOAD RETURNDATASIZE PUSH1 0x1F NOT PUSH1 0x1F DUP3 ADD AND DUP3 ADD DUP1 PUSH1 0x40 MSTORE POP DUP2 ADD SWAP1 PUSH2 0x77A SWAP2 SWAP1 PUSH2 0x2298 JUMP JUMPDEST SWAP1 POP PUSH0 DUP1 JUMPDEST PUSH1 0xC SLOAD DUP2 LT ISZERO PUSH2 0x8F1 JUMPI PUSH0 PUSH1 0xC DUP3 DUP2 SLOAD DUP2 LT PUSH2 0x79D JUMPI PUSH2 0x79D PUSH2 0x22B3 JUMP JUMPDEST PUSH0 SWAP2 DUP3 MSTORE PUSH1 0x20 DUP3 KECCAK256 PUSH1 0x2 SWAP2 SWAP1 SWAP2 MUL ADD DUP1 SLOAD PUSH1 0x40 MLOAD PUSH4 0x70A08231 PUSH1 0xE0 SHL DUP2 MSTORE ADDRESS PUSH1 0x4 DUP3 ADD MSTORE SWAP2 SWAP4 POP PUSH2 0x2710 SWAP2 DUP9 SWAP2 PUSH1 0x1 PUSH1 0x1 PUSH1 0xA0 SHL SUB AND SWAP1 PUSH4 0x70A08231 SWAP1 PUSH1 0x24 ADD PUSH1 0x20 PUSH1 0x40 MLOAD DUP1 DUP4 SUB DUP2 DUP7 GAS STATICCALL ISZERO DUP1 ISZERO PUSH2 0x7F8 JUMPI RETURNDATASIZE PUSH0 DUP1 RETURNDATACOPY RETURNDATASIZE PUSH0 REVERT JUMPDEST POP POP POP POP PUSH1 0x40 MLOAD RETURNDATASIZE PUSH1 0x1F NOT PUSH1 0x1F DUP3 ADD AND DUP3 ADD DUP1 PUSH1 0x40 MSTORE POP DUP2 ADD SWAP1 PUSH2 0x81C SWAP2 SWAP1 PUSH2 0x20E4 JUMP JUMPDEST PUSH2 0x826 SWAP2 SWAP1 PUSH2 0x2262 JUMP JUMPDEST PUSH2 0x830 SWAP2 SWAP1 PUSH2 0x2279 JUMP JUMPDEST DUP3 SLOAD PUSH1 0x40 DUP10 ADD MLOAD DUP10 MLOAD DUP1 MLOAD SWAP4 SWAP5 POP ADDRESS SWAP4 PUSH4 0x74A66061 SWAP4 PUSH1 0x1 PUSH1 0x1 PUSH1 0xA0 SHL SUB AND SWAP3 DUP7 SWAP3 SWAP1 SWAP2 CALLER SWAP2 SWAP1 DUP11 SWAP1 DUP2 LT PUSH2 0x867 JUMPI PUSH2 0x867 PUSH2 0x22B3 JUMP JUMPDEST PUSH1 0x20 MUL PUSH1 0x20 ADD ADD MLOAD PUSH1 0x40 MLOAD DUP7 PUSH4 0xFFFFFFFF AND PUSH1 0xE0 SHL DUP2 MSTORE PUSH1 0x4 ADD PUSH2 0x88F SWAP6 SWAP5 SWAP4 SWAP3 SWAP2 SWAP1 PUSH2 0x22FB JUMP JUMPDEST PUSH1 0x20 PUSH1 0x40 MLOAD DUP1 DUP4 SUB DUP2 PUSH0 DUP8 GAS CALL SWAP3 POP POP POP DUP1 ISZERO PUSH2 0x8C9 JUMPI POP PUSH1 0x40 DUP1 MLOAD PUSH1 0x1F RETURNDATASIZE SWAP1 DUP2 ADD PUSH1 0x1F NOT AND DUP3 ADD SWAP1 SWAP3 MSTORE PUSH2 0x8C6 SWAP2 DUP2 ADD SWAP1 PUSH2 0x20E4 JUMP JUMPDEST PUSH1 0x1 JUMPDEST ISZERO PUSH2 0x8DC JUMPI PUSH2 0x8D8 DUP2 DUP7 PUSH2 0x2346 JUMP JUMPDEST SWAP5 POP POP JUMPDEST POP POP DUP1 DUP1 PUSH2 0x8E9 SWAP1 PUSH2 0x2359 JUMP JUMPDEST SWAP2 POP POP PUSH2 0x77F JUMP JUMPDEST POP PUSH2 0x8FC CALLER DUP8 PUSH2 0x1516 JUMP JUMPDEST DUP1 ISZERO PUSH2 0x9BA JUMPI PUSH1 0xE SLOAD PUSH0 SWAP1 PUSH2 0x2710 SWAP1 PUSH2 0x919 SWAP1 PUSH2 0xFFFF AND DUP5 PUSH2 0x2262 JUMP JUMPDEST PUSH2 0x923 SWAP2 SWAP1 PUSH2 0x2279 JUMP JUMPDEST SWAP1 POP PUSH0 PUSH2 0x930 DUP3 DUP5 PUSH2 0x2371 JUMP JUMPDEST SWAP1 POP DUP2 PUSH1 0xD PUSH0 DUP3 DUP3 SLOAD PUSH2 0x943 SWAP2 SWAP1 PUSH2 0x2346 JUMP JUMPDEST SWAP1 SWAP2 SSTORE POP POP PUSH1 0x40 MLOAD PUSH4 0xA9059CBB PUSH1 0xE0 SHL DUP2 MSTORE CALLER PUSH1 0x4 DUP3 ADD MSTORE PUSH1 0x24 DUP2 ADD DUP3 SWAP1 MSTORE PUSH1 0x1 PUSH1 0x1 PUSH1 0xA0 SHL SUB DUP6 AND SWAP1 PUSH4 0xA9059CBB SWAP1 PUSH1 0x44 ADD PUSH1 0x20 PUSH1 0x40 MLOAD DUP1 DUP4 SUB DUP2 PUSH0 DUP8 GAS CALL ISZERO DUP1 ISZERO PUSH2 0x992 JUMPI RETURNDATASIZE PUSH0 DUP1 RETURNDATACOPY RETURNDATASIZE PUSH0 REVERT JUMPDEST POP POP POP POP PUSH1 0x40 MLOAD RETURNDATASIZE PUSH1 0x1F NOT PUSH1 0x1F DUP3 ADD AND DUP3 ADD DUP1 PUSH1 0x40 MSTORE POP DUP2 ADD SWAP1 PUSH2 0x9B6 SWAP2 SWAP1 PUSH2 0x2384 JUMP JUMPDEST POP POP POP JUMPDEST POP POP POP POP POP POP JUMP JUMPDEST PUSH1 0x60 PUSH1 0x4 DUP1 SLOAD PUSH2 0x9D1 SWAP1 PUSH2 0x23A3 JUMP JUMPDEST DUP1 PUSH1 0x1F ADD PUSH1 0x20 DUP1 SWAP2 DIV MUL PUSH1 0x20 ADD PUSH1 0x40 MLOAD SWAP1 DUP2 ADD PUSH1 0x40 MSTORE DUP1 SWAP3 SWAP2 SWAP1 DUP2 DUP2 MSTORE PUSH1 0x20 ADD DUP3 DUP1 SLOAD PUSH2 0x9FD SWAP1 PUSH2 0x23A3 JUMP JUMPDEST DUP1 ISZERO PUSH2 0xA48 JUMPI DUP1 PUSH1 0x1F LT PUSH2 0xA1F JUMPI PUSH2 0x100 DUP1 DUP4 SLOAD DIV MUL DUP4 MSTORE SWAP2 PUSH1 0x20 ADD SWAP2 PUSH2 0xA48 JUMP JUMPDEST DUP3 ADD SWAP2 SWAP1 PUSH0 MSTORE PUSH1 0x20 PUSH0 KECCAK256 SWAP1 JUMPDEST DUP2 SLOAD DUP2 MSTORE SWAP1 PUSH1 0x1 ADD SWAP1 PUSH1 0x20 ADD DUP1 DUP4 GT PUSH2 0xA2B JUMPI DUP3 SWAP1 SUB PUSH1 0x1F AND DUP3 ADD SWAP2 JUMPDEST POP POP POP POP POP SWAP1 POP SWAP1 JUMP JUMPDEST PUSH0 CALLER PUSH2 0xA5F DUP2 DUP6 DUP6 PUSH2 0x154E JUMP JUMPDEST PUSH1 0x1 SWAP2 POP POP JUMPDEST SWAP3 SWAP2 POP POP JUMP JUMPDEST PUSH2 0x2710 DUP2 GT ISZERO PUSH2 0xAA6 JUMPI PUSH1 0x40 MLOAD PUSH3 0x461BCD PUSH1 0xE5 SHL DUP2 MSTORE PUSH1 0x4 ADD PUSH2 0x626 SWAP1 PUSH1 0x20 DUP1 DUP3 MSTORE PUSH1 0x4 SWAP1 DUP3 ADD MSTORE PUSH4 0x21534C5 PUSH1 0xE4 SHL PUSH1 0x40 DUP3 ADD MSTORE PUSH1 0x60 ADD SWAP1 JUMP JUMPDEST PUSH1 0x7 SSTORE JUMP JUMPDEST PUSH0 CALLER PUSH2 0xAB8 DUP6 DUP3 DUP6 PUSH2 0x155B JUMP JUMPDEST PUSH2 0xAC3 DUP6 DUP6 DUP6 PUSH2 0x15D0 JUMP JUMPDEST POP PUSH1 0x1 SWAP5 SWAP4 POP POP POP POP JUMP JUMPDEST PUSH1 0x60 PUSH1 0xC DUP1 SLOAD DUP1 PUSH1 0x20 MUL PUSH1 0x20 ADD PUSH1 0x40 MLOAD SWAP1 DUP2 ADD PUSH1 0x40 MSTORE DUP1 SWAP3 SWAP2 SWAP1 DUP2 DUP2 MSTORE PUSH1 0x20 ADD PUSH0 SWAP1 JUMPDEST DUP3 DUP3 LT ISZERO PUSH2 0xB38 JUMPI PUSH0 DUP5 DUP2 MSTORE PUSH1 0x20 SWAP1 DUP2 SWAP1 KECCAK256 PUSH1 0x40 DUP1 MLOAD DUP1 DUP3 ADD SWAP1 SWAP2 MSTORE PUSH1 0x2 DUP6 MUL SWAP1 SWAP2 ADD DUP1 SLOAD PUSH1 0x1 PUSH1 0x1 PUSH1 0xA0 SHL SUB AND DUP3 MSTORE PUSH1 0x1 SWAP1 DUP2 ADD SLOAD DUP3 DUP5 ADD MSTORE SWAP1 DUP4 MSTORE SWAP1 SWAP3 ADD SWAP2 ADD PUSH2 0xAF1 JUMP JUMPDEST POP POP POP POP SWAP1 POP SWAP1 JUMP JUMPDEST PUSH0 DUP2 GT PUSH2 0xB76 JUMPI PUSH1 0x40 MLOAD PUSH3 0x461BCD PUSH1 0xE5 SHL DUP2 MSTORE PUSH1 0x20 PUSH1 0x4 DUP3 ADD MSTORE PUSH1 0x3 PUSH1 0x24 DUP3 ADD MSTORE PUSH3 0x573E3 PUSH1 0xEC SHL PUSH1 0x44 DUP3 ADD MSTORE PUSH1 0x64 ADD PUSH2 0x626 JUMP JUMPDEST CALLER PUSH0 SWAP1 DUP2 MSTORE PUSH1 0x1 PUSH1 0x20 MSTORE PUSH1 0x40 SWAP1 KECCAK256 SLOAD DUP2 GT ISZERO PUSH2 0xBBF JUMPI PUSH1 0x40 MLOAD PUSH3 0x461BCD PUSH1 0xE5 SHL DUP2 MSTORE PUSH1 0x20 PUSH1 0x4 DUP3 ADD MSTORE PUSH1 0x8 PUSH1 0x24 DUP3 ADD MSTORE PUSH8 0x2162616C616E6365 PUSH1 0xC0 SHL PUSH1 0x44 DUP3 ADD MSTORE PUSH1 0x64 ADD PUSH2 0x626 JUMP JUMPDEST PUSH0 PUSH2 0xBC9 PUSH1 0x3 SLOAD SWAP1 JUMP JUMPDEST PUSH2 0xBD5 DUP4 PUSH2 0x2710 PUSH2 0x2262 JUMP JUMPDEST PUSH2 0xBDF SWAP2 SWAP1 PUSH2 0x2279 JUMP JUMPDEST SWAP1 POP PUSH2 0xBEB CALLER DUP4 PUSH2 0x1516 JUMP JUMPDEST PUSH0 JUMPDEST PUSH1 0xC SLOAD DUP2 LT ISZERO PUSH2 0xD2E JUMPI PUSH0 PUSH1 0xC DUP3 DUP2 SLOAD DUP2 LT PUSH2 0xC0B JUMPI PUSH2 0xC0B PUSH2 0x22B3 JUMP JUMPDEST PUSH0 SWAP2 DUP3 MSTORE PUSH1 0x20 DUP3 KECCAK256 PUSH1 0x2 SWAP2 SWAP1 SWAP2 MUL ADD DUP1 SLOAD PUSH1 0x40 MLOAD PUSH4 0x70A08231 PUSH1 0xE0 SHL DUP2 MSTORE ADDRESS PUSH1 0x4 DUP3 ADD MSTORE SWAP2 SWAP4 POP PUSH2 0x2710 SWAP2 DUP7 SWAP2 PUSH1 0x1 PUSH1 0x1 PUSH1 0xA0 SHL SUB AND SWAP1 PUSH4 0x70A08231 SWAP1 PUSH1 0x24 ADD PUSH1 0x20 PUSH1 0x40 MLOAD DUP1 DUP4 SUB DUP2 DUP7 GAS STATICCALL ISZERO DUP1 ISZERO PUSH2 0xC66 JUMPI RETURNDATASIZE PUSH0 DUP1 RETURNDATACOPY RETURNDATASIZE PUSH0 REVERT JUMPDEST POP POP POP POP PUSH1 0x40 MLOAD RETURNDATASIZE PUSH1 0x1F NOT PUSH1 0x1F DUP3 ADD AND DUP3 ADD DUP1 PUSH1 0x40 MSTORE POP DUP2 ADD SWAP1 PUSH2 0xC8A SWAP2 SWAP1 PUSH2 0x20E4 JUMP JUMPDEST PUSH2 0xC94 SWAP2 SWAP1 PUSH2 0x2262 JUMP JUMPDEST PUSH2 0xC9E SWAP2 SWAP1 PUSH2 0x2279 JUMP JUMPDEST SWAP1 POP DUP1 ISZERO PUSH2 0xD19 JUMPI DUP2 SLOAD PUSH1 0x40 MLOAD PUSH4 0xA9059CBB PUSH1 0xE0 SHL DUP2 MSTORE CALLER PUSH1 0x4 DUP3 ADD MSTORE PUSH1 0x24 DUP2 ADD DUP4 SWAP1 MSTORE PUSH1 0x1 PUSH1 0x1 PUSH1 0xA0 SHL SUB SWAP1 SWAP2 AND SWAP1 PUSH4 0xA9059CBB SWAP1 PUSH1 0x44 ADD PUSH1 0x20 PUSH1 0x40 MLOAD DUP1 DUP4 SUB DUP2 PUSH0 DUP8 GAS CALL ISZERO DUP1 ISZERO PUSH2 0xCF3 JUMPI RETURNDATASIZE PUSH0 DUP1 RETURNDATACOPY RETURNDATASIZE PUSH0 REVERT JUMPDEST POP POP POP POP PUSH1 0x40 MLOAD RETURNDATASIZE PUSH1 0x1F NOT PUSH1 0x1F DUP3 ADD AND DUP3 ADD DUP1 PUSH1 0x40 MSTORE POP DUP2 ADD SWAP1 PUSH2 0xD17 SWAP2 SWAP1 PUSH2 0x2384 JUMP JUMPDEST POP JUMPDEST POP POP DUP1 DUP1 PUSH2 0xD26 SWAP1 PUSH2 0x2359 JUMP JUMPDEST SWAP2 POP POP PUSH2 0xBED JUMP JUMPDEST POP POP POP JUMP JUMPDEST PUSH1 0x6 DUP2 DUP2 SLOAD DUP2 LT PUSH2 0xD42 JUMPI PUSH0 DUP1 REVERT JUMPDEST PUSH0 SWAP2 DUP3 MSTORE PUSH1 0x20 SWAP1 SWAP2 KECCAK256 PUSH1 0x3 SWAP1 SWAP2 MUL ADD DUP1 SLOAD PUSH1 0x1 DUP3 ADD SLOAD PUSH1 0x2 SWAP1 SWAP3 ADD SLOAD PUSH1 0x1 PUSH1 0x1 PUSH1 0xA0 SHL SUB SWAP2 DUP3 AND SWAP4 POP SWAP2 AND SWAP1 DUP4 JUMP JUMPDEST PUSH2 0xD79 PUSH2 0x162D JUMP JUMPDEST PUSH1 0xE SLOAD PUSH5 0x100000000 SWAP1 DIV PUSH1 0xFF AND ISZERO PUSH2 0xDC2 JUMPI PUSH1 0x40 MLOAD PUSH3 0x461BCD PUSH1 0xE5 SHL DUP2 MSTORE PUSH1 0x20 PUSH1 0x4 DUP3 ADD MSTORE PUSH1 0xB PUSH1 0x24 DUP3 ADD MSTORE PUSH11 0x1A5B9A5D1A585B1A5E9959 PUSH1 0xAA SHL PUSH1 0x44 DUP3 ADD MSTORE PUSH1 0x64 ADD PUSH2 0x626 JUMP JUMPDEST DUP5 DUP4 EQ PUSH2 0xE06 JUMPI PUSH1 0x40 MLOAD PUSH3 0x461BCD PUSH1 0xE5 SHL DUP2 MSTORE PUSH1 0x20 PUSH1 0x4 DUP3 ADD MSTORE PUSH1 0x12 PUSH1 0x24 DUP3 ADD MSTORE PUSH18 0x4D69736D617463686564206C656E67746873 PUSH1 0x70 SHL PUSH1 0x44 DUP3 ADD MSTORE PUSH1 0x64 ADD PUSH2 0x626 JUMP JUMPDEST PUSH1 0xE DUP1 SLOAD PUSH2 0xFFFF DUP4 DUP2 AND PUSH3 0x10000 MUL PUSH4 0xFFFFFFFF NOT SWAP1 SWAP3 AND SWAP1 DUP6 AND OR OR SWAP1 SSTORE PUSH0 DUP1 JUMPDEST DUP7 DUP2 LT ISZERO PUSH2 0xF66 JUMPI PUSH2 0x2710 DUP7 DUP7 DUP4 DUP2 DUP2 LT PUSH2 0xE45 JUMPI PUSH2 0xE45 PUSH2 0x22B3 JUMP JUMPDEST SWAP1 POP PUSH1 0x20 MUL ADD CALLDATALOAD GT ISZERO PUSH2 0xE8E JUMPI PUSH1 0x40 MLOAD PUSH3 0x461BCD PUSH1 0xE5 SHL DUP2 MSTORE PUSH1 0x20 PUSH1 0x4 DUP3 ADD MSTORE PUSH1 0x11 PUSH1 0x24 DUP3 ADD MSTORE PUSH17 0x496E76616C696450657263656E74616765 PUSH1 0x78 SHL PUSH1 0x44 DUP3 ADD MSTORE PUSH1 0x64 ADD PUSH2 0x626 JUMP JUMPDEST DUP6 DUP6 DUP3 DUP2 DUP2 LT PUSH2 0xEA0 JUMPI PUSH2 0xEA0 PUSH2 0x22B3 JUMP JUMPDEST SWAP1 POP PUSH1 0x20 MUL ADD CALLDATALOAD DUP3 PUSH2 0xEB2 SWAP2 SWAP1 PUSH2 0x2346 JUMP JUMPDEST SWAP2 POP PUSH1 0xC PUSH1 0x40 MLOAD DUP1 PUSH1 0x40 ADD PUSH1 0x40 MSTORE DUP1 DUP11 DUP11 DUP6 DUP2 DUP2 LT PUSH2 0xED3 JUMPI PUSH2 0xED3 PUSH2 0x22B3 JUMP JUMPDEST SWAP1 POP PUSH1 0x20 MUL ADD PUSH1 0x20 DUP2 ADD SWAP1 PUSH2 0xEE8 SWAP2 SWAP1 PUSH2 0x1EF1 JUMP JUMPDEST PUSH1 0x1 PUSH1 0x1 PUSH1 0xA0 SHL SUB AND DUP2 MSTORE PUSH1 0x20 ADD DUP9 DUP9 DUP6 DUP2 DUP2 LT PUSH2 0xF08 JUMPI PUSH2 0xF08 PUSH2 0x22B3 JUMP JUMPDEST PUSH1 0x20 SWAP1 DUP2 MUL SWAP3 SWAP1 SWAP3 ADD CALLDATALOAD SWAP1 SWAP3 MSTORE DUP4 SLOAD PUSH1 0x1 DUP1 DUP3 ADD DUP7 SSTORE PUSH0 SWAP6 DUP7 MSTORE SWAP5 DUP3 SWAP1 KECCAK256 DUP5 MLOAD PUSH1 0x2 SWAP1 SWAP3 MUL ADD DUP1 SLOAD PUSH1 0x1 PUSH1 0x1 PUSH1 0xA0 SHL SUB NOT AND PUSH1 0x1 PUSH1 0x1 PUSH1 0xA0 SHL SUB SWAP1 SWAP3 AND SWAP2 SWAP1 SWAP2 OR DUP2 SSTORE SWAP3 ADD MLOAD SWAP2 SWAP1 SWAP3 ADD SSTORE POP DUP1 PUSH2 0xF5E DUP2 PUSH2 0x2359 JUMP JUMPDEST SWAP2 POP POP PUSH2 0xE28 JUMP JUMPDEST POP DUP1 PUSH2 0x2710 EQ PUSH2 0xFA2 JUMPI PUSH1 0x40 MLOAD PUSH3 0x461BCD PUSH1 0xE5 SHL DUP2 MSTORE PUSH1 0x20 PUSH1 0x4 DUP3 ADD MSTORE PUSH1 0x7 PUSH1 0x24 DUP3 ADD MSTORE PUSH7 0x743D313030303 PUSH1 0xCC SHL PUSH1 0x44 DUP3 ADD MSTORE PUSH1 0x64 ADD PUSH2 0x626 JUMP JUMPDEST POP POP PUSH1 0xE DUP1 SLOAD PUSH5 0xFF00000000 NOT AND PUSH5 0x100000000 OR SWAP1 SSTORE POP POP POP POP POP JUMP JUMPDEST PUSH2 0xFC8 PUSH2 0x162D JUMP JUMPDEST PUSH2 0xFD1 PUSH0 PUSH2 0x1659 JUMP JUMPDEST JUMP JUMPDEST PUSH0 DUP1 DUP5 PUSH1 0x1 DUP2 GT ISZERO PUSH2 0xFE7 JUMPI PUSH2 0xFE7 PUSH2 0x22C7 JUMP JUMPDEST SUB PUSH2 0xFFF JUMPI PUSH2 0xFF8 DUP7 DUP7 DUP6 DUP6 PUSH2 0x16A8 JUMP JUMPDEST SWAP1 POP PUSH2 0x1052 JUMP JUMPDEST PUSH1 0x1 DUP5 PUSH1 0x1 DUP2 GT ISZERO PUSH2 0x1013 JUMPI PUSH2 0x1013 PUSH2 0x22C7 JUMP JUMPDEST SUB PUSH2 0x1024 JUMPI PUSH2 0xFF8 DUP7 DUP7 DUP6 DUP6 PUSH2 0x1897 JUMP JUMPDEST PUSH1 0x40 MLOAD PUSH3 0x461BCD PUSH1 0xE5 SHL DUP2 MSTORE PUSH1 0x20 PUSH1 0x4 DUP3 ADD MSTORE PUSH1 0x3 PUSH1 0x24 DUP3 ADD MSTORE PUSH3 0x10AAAB PUSH1 0xE9 SHL PUSH1 0x44 DUP3 ADD MSTORE PUSH1 0x64 ADD PUSH2 0x626 JUMP JUMPDEST SWAP6 SWAP5 POP POP POP POP POP JUMP JUMPDEST PUSH0 DUP2 PUSH1 0x20 ADD CALLDATALOAD GT PUSH2 0x1094 JUMPI PUSH1 0x40 MLOAD PUSH3 0x461BCD PUSH1 0xE5 SHL DUP2 MSTORE PUSH1 0x20 PUSH1 0x4 DUP3 ADD MSTORE PUSH1 0x3 PUSH1 0x24 DUP3 ADD MSTORE PUSH3 0x213E3 PUSH1 0xEC SHL PUSH1 0x44 DUP3 ADD MSTORE PUSH1 0x64 ADD PUSH2 0x626 JUMP JUMPDEST PUSH1 0xE SLOAD PUSH0 SWAP1 PUSH2 0x2710 SWAP1 PUSH2 0x10B5 SWAP1 PUSH3 0x10000 SWAP1 DIV PUSH2 0xFFFF AND PUSH1 0x20 DUP6 ADD CALLDATALOAD PUSH2 0x2262 JUMP JUMPDEST PUSH2 0x10BF SWAP2 SWAP1 PUSH2 0x2279 JUMP JUMPDEST SWAP1 POP PUSH0 PUSH2 0x10D0 DUP3 PUSH1 0x20 DUP6 ADD CALLDATALOAD PUSH2 0x2371 JUMP JUMPDEST SWAP1 POP DUP2 PUSH1 0xD PUSH0 DUP3 DUP3 SLOAD PUSH2 0x10E3 SWAP2 SWAP1 PUSH2 0x2346 JUMP JUMPDEST SWAP1 SWAP2 SSTORE POP POP DUP1 PUSH2 0x111B JUMPI PUSH1 0x40 MLOAD PUSH3 0x461BCD PUSH1 0xE5 SHL DUP2 MSTORE PUSH1 0x20 PUSH1 0x4 DUP3 ADD MSTORE PUSH1 0x3 PUSH1 0x24 DUP3 ADD MSTORE PUSH3 0x213E3 PUSH1 0xEC SHL PUSH1 0x44 DUP3 ADD MSTORE PUSH1 0x64 ADD PUSH2 0x626 JUMP JUMPDEST PUSH2 0x1125 CALLER DUP3 PUSH2 0x1A52 JUMP JUMPDEST PUSH0 JUMPDEST PUSH1 0xC SLOAD DUP2 LT ISZERO PUSH2 0x1411 JUMPI PUSH0 PUSH1 0xC DUP3 DUP2 SLOAD DUP2 LT PUSH2 0x1145 JUMPI PUSH2 0x1145 PUSH2 0x22B3 JUMP JUMPDEST SWAP1 PUSH0 MSTORE PUSH1 0x20 PUSH0 KECCAK256 SWAP1 PUSH1 0x2 MUL ADD SWAP1 POP PUSH0 PUSH2 0x2710 DUP3 PUSH1 0x1 ADD SLOAD DUP6 PUSH2 0x1167 SWAP2 SWAP1 PUSH2 0x2262 JUMP JUMPDEST PUSH2 0x1171 SWAP2 SWAP1 PUSH2 0x2279 JUMP JUMPDEST SWAP1 POP DUP4 DUP2 GT ISZERO PUSH2 0x11BB JUMPI PUSH1 0x40 MLOAD PUSH3 0x461BCD PUSH1 0xE5 SHL DUP2 MSTORE PUSH1 0x20 PUSH1 0x4 DUP3 ADD MSTORE PUSH1 0x15 PUSH1 0x24 DUP3 ADD MSTORE PUSH21 0x21657468416D6F756E743C3D616D6F756E74666565 PUSH1 0x58 SHL PUSH1 0x44 DUP3 ADD MSTORE PUSH1 0x64 ADD PUSH2 0x626 JUMP JUMPDEST DUP1 ISZERO PUSH2 0x13FC JUMPI DUP2 SLOAD PUSH1 0x9 SLOAD PUSH1 0x40 MLOAD PUSH4 0x95EA7B3 PUSH1 0xE0 SHL DUP2 MSTORE PUSH1 0x1 PUSH1 0x1 PUSH1 0xA0 SHL SUB SWAP2 DUP3 AND PUSH1 0x4 DUP3 ADD MSTORE PUSH1 0x24 DUP2 ADD DUP5 SWAP1 MSTORE SWAP2 AND SWAP1 PUSH4 0x95EA7B3 SWAP1 PUSH1 0x44 ADD PUSH1 0x20 PUSH1 0x40 MLOAD DUP1 DUP4 SUB DUP2 PUSH0 DUP8 GAS CALL ISZERO DUP1 ISZERO PUSH2 0x1212 JUMPI RETURNDATASIZE PUSH0 DUP1 RETURNDATACOPY RETURNDATASIZE PUSH0 REVERT JUMPDEST POP POP POP POP PUSH1 0x40 MLOAD RETURNDATASIZE PUSH1 0x1F NOT PUSH1 0x1F DUP3 ADD AND DUP3 ADD DUP1 PUSH1 0x40 MSTORE POP DUP2 ADD SWAP1 PUSH2 0x1236 SWAP2 SWAP1 PUSH2 0x2384 JUMP JUMPDEST POP DUP2 SLOAD ADDRESS SWAP1 PUSH4 0x74A66061 SWAP1 PUSH1 0x1 PUSH1 0x1 PUSH1 0xA0 SHL SUB AND DUP4 PUSH2 0x125B PUSH1 0x60 DUP12 ADD PUSH1 0x40 DUP13 ADD PUSH2 0x23DB JUMP JUMPDEST CALLER PUSH2 0x1266 DUP13 DUP1 PUSH2 0x23F6 JUMP JUMPDEST DUP11 DUP2 DUP2 LT PUSH2 0x1276 JUMPI PUSH2 0x1276 PUSH2 0x22B3 JUMP JUMPDEST SWAP1 POP PUSH1 0x20 MUL DUP2 ADD SWAP1 PUSH2 0x1288 SWAP2 SWAP1 PUSH2 0x243B JUMP JUMPDEST PUSH1 0x40 MLOAD DUP8 PUSH4 0xFFFFFFFF AND PUSH1 0xE0 SHL DUP2 MSTORE PUSH1 0x4 ADD PUSH2 0x12A9 SWAP7 SWAP6 SWAP5 SWAP4 SWAP3 SWAP2 SWAP1 PUSH2 0x247D JUMP JUMPDEST PUSH1 0x20 PUSH1 0x40 MLOAD DUP1 DUP4 SUB DUP2 PUSH0 DUP8 GAS CALL SWAP3 POP POP POP DUP1 ISZERO PUSH2 0x12E3 JUMPI POP PUSH1 0x40 DUP1 MLOAD PUSH1 0x1F RETURNDATASIZE SWAP1 DUP2 ADD PUSH1 0x1F NOT AND DUP3 ADD SWAP1 SWAP3 MSTORE PUSH2 0x12E0 SWAP2 DUP2 ADD SWAP1 PUSH2 0x20E4 JUMP JUMPDEST PUSH1 0x1 JUMPDEST PUSH2 0x13FA JUMPI CALLER PUSH0 SWAP1 DUP2 MSTORE PUSH1 0xF PUSH1 0x20 MSTORE PUSH1 0x40 DUP2 KECCAK256 DUP1 SLOAD DUP4 SWAP3 SWAP1 PUSH2 0x1305 SWAP1 DUP5 SWAP1 PUSH2 0x2346 JUMP JUMPDEST SWAP1 SWAP2 SSTORE POP POP PUSH1 0x40 DUP1 MLOAD PUSH1 0x60 DUP2 ADD DUP3 MSTORE CALLER DUP1 DUP3 MSTORE DUP5 SLOAD PUSH1 0x1 PUSH1 0x1 PUSH1 0xA0 SHL SUB SWAP1 DUP2 AND PUSH1 0x20 DUP1 DUP6 ADD SWAP2 DUP3 MSTORE DUP5 DUP7 ADD DUP8 DUP2 MSTORE PUSH1 0x6 DUP1 SLOAD PUSH1 0x1 DUP2 ADD DUP3 SSTORE PUSH0 SWAP2 DUP3 MSTORE SWAP7 MLOAD PUSH1 0x3 SWAP1 SWAP8 MUL PUSH32 0xF652222313E28459528D920B65115C16C04F3EFC82AAEDC97BE59F3F377C0D3F DUP2 ADD DUP1 SLOAD SWAP9 DUP8 AND PUSH1 0x1 PUSH1 0x1 PUSH1 0xA0 SHL SUB NOT SWAP10 DUP11 AND OR SWAP1 SSTORE SWAP4 MLOAD PUSH32 0xF652222313E28459528D920B65115C16C04F3EFC82AAEDC97BE59F3F377C0D40 DUP6 ADD DUP1 SLOAD SWAP2 SWAP1 SWAP7 AND SWAP8 AND SWAP7 SWAP1 SWAP7 OR SWAP1 SWAP4 SSTORE SWAP2 MLOAD PUSH32 0xF652222313E28459528D920B65115C16C04F3EFC82AAEDC97BE59F3F377C0D41 SWAP1 SWAP2 ADD SSTORE SWAP1 DUP3 MSTORE PUSH1 0x8 SWAP1 MSTORE SWAP1 DUP2 KECCAK256 DUP1 SLOAD SWAP2 PUSH2 0x13F0 DUP4 PUSH2 0x2359 JUMP JUMPDEST SWAP2 SWAP1 POP SSTORE POP PUSH2 0x13FC JUMP JUMPDEST POP JUMPDEST POP POP DUP1 DUP1 PUSH2 0x1409 SWAP1 PUSH2 0x2359 JUMP JUMPDEST SWAP2 POP POP PUSH2 0x1127 JUMP JUMPDEST POP POP POP POP JUMP JUMPDEST PUSH1 0x60 PUSH1 0x5 DUP1 SLOAD PUSH2 0x9D1 SWAP1 PUSH2 0x23A3 JUMP JUMPDEST PUSH2 0x142E PUSH2 0x162D JUMP JUMPDEST PUSH1 0xD SLOAD ISZERO PUSH2 0x14CC JUMPI PUSH1 0xD SLOAD PUSH1 0x40 MLOAD PUSH0 SWAP2 PUSH1 0x1 PUSH1 0x1 PUSH1 0xA0 SHL SUB DUP5 AND SWAP2 DUP4 DUP2 DUP2 DUP2 DUP6 DUP8 GAS CALL SWAP3 POP POP POP RETURNDATASIZE DUP1 PUSH0 DUP2 EQ PUSH2 0x147F JUMPI PUSH1 0x40 MLOAD SWAP2 POP PUSH1 0x1F NOT PUSH1 0x3F RETURNDATASIZE ADD AND DUP3 ADD PUSH1 0x40 MSTORE RETURNDATASIZE DUP3 MSTORE RETURNDATASIZE PUSH0 PUSH1 0x20 DUP5 ADD RETURNDATACOPY PUSH2 0x1484 JUMP JUMPDEST PUSH1 0x60 SWAP2 POP JUMPDEST POP POP SWAP1 POP DUP1 PUSH2 0x14C6 JUMPI PUSH1 0x40 MLOAD PUSH3 0x461BCD PUSH1 0xE5 SHL DUP2 MSTORE PUSH1 0x20 PUSH1 0x4 DUP3 ADD MSTORE PUSH1 0xE PUSH1 0x24 DUP3 ADD MSTORE PUSH14 0x1D1C985B9CD9995C91985A5B1959 PUSH1 0x92 SHL PUSH1 0x44 DUP3 ADD MSTORE PUSH1 0x64 ADD PUSH2 0x626 JUMP JUMPDEST POP PUSH0 PUSH1 0xD SSTORE JUMPDEST POP JUMP JUMPDEST PUSH0 CALLER PUSH2 0xA5F DUP2 DUP6 DUP6 PUSH2 0x15D0 JUMP JUMPDEST PUSH2 0x14E4 PUSH2 0x162D JUMP JUMPDEST PUSH1 0x1 PUSH1 0x1 PUSH1 0xA0 SHL SUB DUP2 AND PUSH2 0x150D JUMPI PUSH1 0x40 MLOAD PUSH4 0x1E4FBDF7 PUSH1 0xE0 SHL DUP2 MSTORE PUSH0 PUSH1 0x4 DUP3 ADD MSTORE PUSH1 0x24 ADD PUSH2 0x626 JUMP JUMPDEST PUSH2 0x14CC DUP2 PUSH2 0x1659 JUMP JUMPDEST PUSH1 0x1 PUSH1 0x1 PUSH1 0xA0 SHL SUB DUP3 AND PUSH2 0x153F JUMPI PUSH1 0x40 MLOAD PUSH4 0x4B637E8F PUSH1 0xE1 SHL DUP2 MSTORE PUSH0 PUSH1 0x4 DUP3 ADD MSTORE PUSH1 0x24 ADD PUSH2 0x626 JUMP JUMPDEST PUSH2 0x154A DUP3 PUSH0 DUP4 PUSH2 0x1A82 JUMP JUMPDEST POP POP JUMP JUMPDEST PUSH2 0xD2E DUP4 DUP4 DUP4 PUSH1 0x1 PUSH2 0x1BA8 JUMP JUMPDEST PUSH1 0x1 PUSH1 0x1 PUSH1 0xA0 SHL SUB DUP4 DUP2 AND PUSH0 SWAP1 DUP2 MSTORE PUSH1 0x2 PUSH1 0x20 SWAP1 DUP2 MSTORE PUSH1 0x40 DUP1 DUP4 KECCAK256 SWAP4 DUP7 AND DUP4 MSTORE SWAP3 SWAP1 MSTORE KECCAK256 SLOAD PUSH0 NOT DUP2 EQ PUSH2 0x1411 JUMPI DUP2 DUP2 LT ISZERO PUSH2 0x15C2 JUMPI PUSH1 0x40 MLOAD PUSH4 0x7DC7A0D9 PUSH1 0xE1 SHL DUP2 MSTORE PUSH1 0x1 PUSH1 0x1 PUSH1 0xA0 SHL SUB DUP5 AND PUSH1 0x4 DUP3 ADD MSTORE PUSH1 0x24 DUP2 ADD DUP3 SWAP1 MSTORE PUSH1 0x44 DUP2 ADD DUP4 SWAP1 MSTORE PUSH1 0x64 ADD PUSH2 0x626 JUMP JUMPDEST PUSH2 0x1411 DUP5 DUP5 DUP5 DUP5 SUB PUSH0 PUSH2 0x1BA8 JUMP JUMPDEST PUSH1 0x1 PUSH1 0x1 PUSH1 0xA0 SHL SUB DUP4 AND PUSH2 0x15F9 JUMPI PUSH1 0x40 MLOAD PUSH4 0x4B637E8F PUSH1 0xE1 SHL DUP2 MSTORE PUSH0 PUSH1 0x4 DUP3 ADD MSTORE PUSH1 0x24 ADD PUSH2 0x626 JUMP JUMPDEST PUSH1 0x1 PUSH1 0x1 PUSH1 0xA0 SHL SUB DUP3 AND PUSH2 0x1622 JUMPI PUSH1 0x40 MLOAD PUSH4 0xEC442F05 PUSH1 0xE0 SHL DUP2 MSTORE PUSH0 PUSH1 0x4 DUP3 ADD MSTORE PUSH1 0x24 ADD PUSH2 0x626 JUMP JUMPDEST PUSH2 0xD2E DUP4 DUP4 DUP4 PUSH2 0x1A82 JUMP JUMPDEST PUSH0 SLOAD PUSH1 0x1 PUSH1 0x1 PUSH1 0xA0 SHL SUB AND CALLER EQ PUSH2 0xFD1 JUMPI PUSH1 0x40 MLOAD PUSH4 0x118CDAA7 PUSH1 0xE0 SHL DUP2 MSTORE CALLER PUSH1 0x4 DUP3 ADD MSTORE PUSH1 0x24 ADD PUSH2 0x626 JUMP JUMPDEST PUSH0 DUP1 SLOAD PUSH1 0x1 PUSH1 0x1 PUSH1 0xA0 SHL SUB DUP4 DUP2 AND PUSH1 0x1 PUSH1 0x1 PUSH1 0xA0 SHL SUB NOT DUP4 AND DUP2 OR DUP5 SSTORE PUSH1 0x40 MLOAD SWAP2 SWAP1 SWAP3 AND SWAP3 DUP4 SWAP2 PUSH32 0x8BE0079C531659141344CD1FD0A4F28419497F9722A3DAAFE3B4186F6B6457E0 SWAP2 SWAP1 LOG3 POP POP JUMP JUMPDEST PUSH0 DUP1 DUP3 DUP1 PUSH1 0x20 ADD SWAP1 MLOAD DUP2 ADD SWAP1 PUSH2 0x16BE SWAP2 SWAP1 PUSH2 0x24DF JUMP JUMPDEST PUSH1 0x9 SLOAD PUSH1 0x40 MLOAD PUSH4 0xD06CA61F PUSH1 0xE0 SHL DUP2 MSTORE SWAP2 SWAP3 POP PUSH0 SWAP2 PUSH1 0x1 PUSH1 0x1 PUSH1 0xA0 SHL SUB SWAP1 SWAP2 AND SWAP1 PUSH4 0xD06CA61F SWAP1 PUSH2 0x16F5 SWAP1 DUP10 SWAP1 DUP7 SWAP1 PUSH1 0x4 ADD PUSH2 0x25AA JUMP JUMPDEST PUSH0 PUSH1 0x40 MLOAD DUP1 DUP4 SUB DUP2 DUP7 GAS STATICCALL ISZERO DUP1 ISZERO PUSH2 0x170F JUMPI RETURNDATASIZE PUSH0 DUP1 RETURNDATACOPY RETURNDATASIZE PUSH0 REVERT JUMPDEST POP POP POP POP PUSH1 0x40 MLOAD RETURNDATASIZE PUSH0 DUP3 RETURNDATACOPY PUSH1 0x1F RETURNDATASIZE SWAP1 DUP2 ADD PUSH1 0x1F NOT AND DUP3 ADD PUSH1 0x40 MSTORE PUSH2 0x1736 SWAP2 SWAP1 DUP2 ADD SWAP1 PUSH2 0x25CA JUMP JUMPDEST SWAP1 POP PUSH0 PUSH2 0x2710 PUSH1 0x7 SLOAD PUSH2 0x2710 PUSH2 0x174C SWAP2 SWAP1 PUSH2 0x2371 JUMP JUMPDEST DUP4 PUSH1 0x1 DUP2 MLOAD DUP2 LT PUSH2 0x175F JUMPI PUSH2 0x175F PUSH2 0x22B3 JUMP JUMPDEST PUSH1 0x20 MUL PUSH1 0x20 ADD ADD MLOAD PUSH2 0x1771 SWAP2 SWAP1 PUSH2 0x2262 JUMP JUMPDEST PUSH2 0x177B SWAP2 SWAP1 PUSH2 0x2279 JUMP JUMPDEST PUSH1 0x9 SLOAD PUSH1 0x40 MLOAD PUSH4 0x95EA7B3 PUSH1 0xE0 SHL DUP2 MSTORE PUSH1 0x1 PUSH1 0x1 PUSH1 0xA0 SHL SUB SWAP2 DUP3 AND PUSH1 0x4 DUP3 ADD MSTORE PUSH1 0x24 DUP2 ADD DUP11 SWAP1 MSTORE SWAP2 SWAP3 POP DUP10 AND SWAP1 PUSH4 0x95EA7B3 SWAP1 PUSH1 0x44 ADD PUSH1 0x20 PUSH1 0x40 MLOAD DUP1 DUP4 SUB DUP2 PUSH0 DUP8 GAS CALL ISZERO DUP1 ISZERO PUSH2 0x17CD JUMPI RETURNDATASIZE PUSH0 DUP1 RETURNDATACOPY RETURNDATASIZE PUSH0 REVERT JUMPDEST POP POP POP POP PUSH1 0x40 MLOAD RETURNDATASIZE PUSH1 0x1F NOT PUSH1 0x1F DUP3 ADD AND DUP3 ADD DUP1 PUSH1 0x40 MSTORE POP DUP2 ADD SWAP1 PUSH2 0x17F1 SWAP2 SWAP1 PUSH2 0x2384 JUMP JUMPDEST POP PUSH1 0x9 SLOAD PUSH1 0x40 MLOAD PUSH4 0x18CBAFE5 PUSH1 0xE0 SHL DUP2 MSTORE PUSH0 SWAP2 PUSH1 0x1 PUSH1 0x1 PUSH1 0xA0 SHL SUB AND SWAP1 PUSH4 0x18CBAFE5 SWAP1 PUSH2 0x182A SWAP1 DUP12 SWAP1 DUP7 SWAP1 DUP10 SWAP1 DUP14 SWAP1 TIMESTAMP SWAP1 PUSH1 0x4 ADD PUSH2 0x264A JUMP JUMPDEST PUSH0 PUSH1 0x40 MLOAD DUP1 DUP4 SUB DUP2 PUSH0 DUP8 GAS CALL ISZERO DUP1 ISZERO PUSH2 0x1845 JUMPI RETURNDATASIZE PUSH0 DUP1 RETURNDATACOPY RETURNDATASIZE PUSH0 REVERT JUMPDEST POP POP POP POP PUSH1 0x40 MLOAD RETURNDATASIZE PUSH0 DUP3 RETURNDATACOPY PUSH1 0x1F RETURNDATASIZE SWAP1 DUP2 ADD PUSH1 0x1F NOT AND DUP3 ADD PUSH1 0x40 MSTORE PUSH2 0x186C SWAP2 SWAP1 DUP2 ADD SWAP1 PUSH2 0x25CA JUMP JUMPDEST SWAP1 POP DUP1 PUSH1 0x1 DUP2 MLOAD DUP2 LT PUSH2 0x1881 JUMPI PUSH2 0x1881 PUSH2 0x22B3 JUMP JUMPDEST PUSH1 0x20 MUL PUSH1 0x20 ADD ADD MLOAD SWAP5 POP POP POP POP POP SWAP5 SWAP4 POP POP POP POP JUMP JUMPDEST PUSH1 0xB SLOAD PUSH1 0x40 MLOAD PUSH4 0xCDCA1753 PUSH1 0xE0 SHL DUP2 MSTORE PUSH0 SWAP2 DUP3 SWAP2 PUSH1 0x1 PUSH1 0x1 PUSH1 0xA0 SHL SUB SWAP1 SWAP2 AND SWAP1 PUSH4 0xCDCA1753 SWAP1 PUSH2 0x18CD SWAP1 DUP7 SWAP1 DUP10 SWAP1 PUSH1 0x4 ADD PUSH2 0x2685 JUMP JUMPDEST PUSH1 0x20 PUSH1 0x40 MLOAD DUP1 DUP4 SUB DUP2 PUSH0 DUP8 GAS CALL ISZERO DUP1 ISZERO PUSH2 0x18E9 JUMPI RETURNDATASIZE PUSH0 DUP1 RETURNDATACOPY RETURNDATASIZE PUSH0 REVERT JUMPDEST POP POP POP POP PUSH1 0x40 MLOAD RETURNDATASIZE PUSH1 0x1F NOT PUSH1 0x1F DUP3 ADD AND DUP3 ADD DUP1 PUSH1 0x40 MSTORE POP DUP2 ADD SWAP1 PUSH2 0x190D SWAP2 SWAP1 PUSH2 0x20E4 JUMP JUMPDEST SWAP1 POP PUSH0 PUSH2 0x2710 PUSH1 0x7 SLOAD PUSH2 0x2710 PUSH2 0x1923 SWAP2 SWAP1 PUSH2 0x2371 JUMP JUMPDEST PUSH2 0x192D SWAP1 DUP5 PUSH2 0x2262 JUMP JUMPDEST PUSH2 0x1937 SWAP2 SWAP1 PUSH2 0x2279 JUMP JUMPDEST PUSH1 0x40 DUP1 MLOAD PUSH1 0xA0 DUP2 ADD DUP3 MSTORE DUP7 DUP2 MSTORE PUSH1 0x1 PUSH1 0x1 PUSH1 0xA0 SHL SUB DUP9 DUP2 AND PUSH1 0x20 DUP4 ADD MSTORE TIMESTAMP DUP3 DUP5 ADD MSTORE PUSH1 0x60 DUP3 ADD DUP11 SWAP1 MSTORE PUSH1 0x80 DUP3 ADD DUP5 SWAP1 MSTORE PUSH1 0xA SLOAD SWAP3 MLOAD PUSH4 0x95EA7B3 PUSH1 0xE0 SHL DUP2 MSTORE SWAP3 DUP2 AND PUSH1 0x4 DUP5 ADD MSTORE PUSH1 0x24 DUP4 ADD DUP11 SWAP1 MSTORE SWAP3 SWAP4 POP SWAP2 DUP10 AND SWAP1 PUSH4 0x95EA7B3 SWAP1 PUSH1 0x44 ADD PUSH1 0x20 PUSH1 0x40 MLOAD DUP1 DUP4 SUB DUP2 PUSH0 DUP8 GAS CALL ISZERO DUP1 ISZERO PUSH2 0x19B1 JUMPI RETURNDATASIZE PUSH0 DUP1 RETURNDATACOPY RETURNDATASIZE PUSH0 REVERT JUMPDEST POP POP POP POP PUSH1 0x40 MLOAD RETURNDATASIZE PUSH1 0x1F NOT PUSH1 0x1F DUP3 ADD AND DUP3 ADD DUP1 PUSH1 0x40 MSTORE POP DUP2 ADD SWAP1 PUSH2 0x19D5 SWAP2 SWAP1 PUSH2 0x2384 JUMP JUMPDEST POP PUSH1 0xA SLOAD PUSH1 0x40 MLOAD PUSH4 0xC04B8D59 PUSH1 0xE0 SHL DUP2 MSTORE PUSH1 0x1 PUSH1 0x1 PUSH1 0xA0 SHL SUB SWAP1 SWAP2 AND SWAP1 PUSH4 0xC04B8D59 SWAP1 PUSH2 0x1A06 SWAP1 DUP5 SWAP1 PUSH1 0x4 ADD PUSH2 0x26A6 JUMP JUMPDEST PUSH1 0x20 PUSH1 0x40 MLOAD DUP1 DUP4 SUB DUP2 PUSH0 DUP8 GAS CALL ISZERO DUP1 ISZERO PUSH2 0x1A22 JUMPI RETURNDATASIZE PUSH0 DUP1 RETURNDATACOPY RETURNDATASIZE PUSH0 REVERT JUMPDEST POP POP POP POP PUSH1 0x40 MLOAD RETURNDATASIZE PUSH1 0x1F NOT PUSH1 0x1F DUP3 ADD AND DUP3 ADD DUP1 PUSH1 0x40 MSTORE POP DUP2 ADD SWAP1 PUSH2 0x1A46 SWAP2 SWAP1 PUSH2 0x20E4 JUMP JUMPDEST SWAP9 SWAP8 POP POP POP POP POP POP POP POP JUMP JUMPDEST PUSH1 0x1 PUSH1 0x1 PUSH1 0xA0 SHL SUB DUP3 AND PUSH2 0x1A7B JUMPI PUSH1 0x40 MLOAD PUSH4 0xEC442F05 PUSH1 0xE0 SHL DUP2 MSTORE PUSH0 PUSH1 0x4 DUP3 ADD MSTORE PUSH1 0x24 ADD PUSH2 0x626 JUMP JUMPDEST PUSH2 0x154A PUSH0 DUP4 DUP4 JUMPDEST PUSH1 0x1 PUSH1 0x1 PUSH1 0xA0 SHL SUB DUP4 AND PUSH2 0x1AAC JUMPI DUP1 PUSH1 0x3 PUSH0 DUP3 DUP3 SLOAD PUSH2 0x1AA1 SWAP2 SWAP1 PUSH2 0x2346 JUMP JUMPDEST SWAP1 SWAP2 SSTORE POP PUSH2 0x1B1C SWAP1 POP JUMP JUMPDEST PUSH1 0x1 PUSH1 0x1 PUSH1 0xA0 SHL SUB DUP4 AND PUSH0 SWAP1 DUP2 MSTORE PUSH1 0x1 PUSH1 0x20 MSTORE PUSH1 0x40 SWAP1 KECCAK256 SLOAD DUP2 DUP2 LT ISZERO PUSH2 0x1AFE JUMPI PUSH1 0x40 MLOAD PUSH4 0x391434E3 PUSH1 0xE2 SHL DUP2 MSTORE PUSH1 0x1 PUSH1 0x1 PUSH1 0xA0 SHL SUB DUP6 AND PUSH1 0x4 DUP3 ADD MSTORE PUSH1 0x24 DUP2 ADD DUP3 SWAP1 MSTORE PUSH1 0x44 DUP2 ADD DUP4 SWAP1 MSTORE PUSH1 0x64 ADD PUSH2 0x626 JUMP JUMPDEST PUSH1 0x1 PUSH1 0x1 PUSH1 0xA0 SHL SUB DUP5 AND PUSH0 SWAP1 DUP2 MSTORE PUSH1 0x1 PUSH1 0x20 MSTORE PUSH1 0x40 SWAP1 KECCAK256 SWAP1 DUP3 SWAP1 SUB SWAP1 SSTORE JUMPDEST PUSH1 0x1 PUSH1 0x1 PUSH1 0xA0 SHL SUB DUP3 AND PUSH2 0x1B38 JUMPI PUSH1 0x3 DUP1 SLOAD DUP3 SWAP1 SUB SWAP1 SSTORE PUSH2 0x1B56 JUMP JUMPDEST PUSH1 0x1 PUSH1 0x1 PUSH1 0xA0 SHL SUB DUP3 AND PUSH0 SWAP1 DUP2 MSTORE PUSH1 0x1 PUSH1 0x20 MSTORE PUSH1 0x40 SWAP1 KECCAK256 DUP1 SLOAD DUP3 ADD SWAP1 SSTORE JUMPDEST DUP2 PUSH1 0x1 PUSH1 0x1 PUSH1 0xA0 SHL SUB AND DUP4 PUSH1 0x1 PUSH1 0x1 PUSH1 0xA0 SHL SUB AND PUSH32 0xDDF252AD1BE2C89B69C2B068FC378DAA952BA7F163C4A11628F55A4DF523B3EF DUP4 PUSH1 0x40 MLOAD PUSH2 0x1B9B SWAP2 DUP2 MSTORE PUSH1 0x20 ADD SWAP1 JUMP JUMPDEST PUSH1 0x40 MLOAD DUP1 SWAP2 SUB SWAP1 LOG3 POP POP POP JUMP JUMPDEST PUSH1 0x1 PUSH1 0x1 PUSH1 0xA0 SHL SUB DUP5 AND PUSH2 0x1BD1 JUMPI PUSH1 0x40 MLOAD PUSH4 0xE602DF05 PUSH1 0xE0 SHL DUP2 MSTORE PUSH0 PUSH1 0x4 DUP3 ADD MSTORE PUSH1 0x24 ADD PUSH2 0x626 JUMP JUMPDEST PUSH1 0x1 PUSH1 0x1 PUSH1 0xA0 SHL SUB DUP4 AND PUSH2 0x1BFA JUMPI PUSH1 0x40 MLOAD PUSH4 0x4A1406B1 PUSH1 0xE1 SHL DUP2 MSTORE PUSH0 PUSH1 0x4 DUP3 ADD MSTORE PUSH1 0x24 ADD PUSH2 0x626 JUMP JUMPDEST PUSH1 0x1 PUSH1 0x1 PUSH1 0xA0 SHL SUB DUP1 DUP6 AND PUSH0 SWAP1 DUP2 MSTORE PUSH1 0x2 PUSH1 0x20 SWAP1 DUP2 MSTORE PUSH1 0x40 DUP1 DUP4 KECCAK256 SWAP4 DUP8 AND DUP4 MSTORE SWAP3 SWAP1 MSTORE KECCAK256 DUP3 SWAP1 SSTORE DUP1 ISZERO PUSH2 0x1411 JUMPI DUP3 PUSH1 0x1 PUSH1 0x1 PUSH1 0xA0 SHL SUB AND DUP5 PUSH1 0x1 PUSH1 0x1 PUSH1 0xA0 SHL SUB AND PUSH32 0x8C5BE1E5EBEC7D5BD14F71427D1E84F3DD0314C0F7B2291E5B200AC8C7C3B925 DUP5 PUSH1 0x40 MLOAD PUSH2 0x1C6C SWAP2 DUP2 MSTORE PUSH1 0x20 ADD SWAP1 JUMP JUMPDEST PUSH1 0x40 MLOAD DUP1 SWAP2 SUB SWAP1 LOG3 POP POP POP POP JUMP JUMPDEST PUSH4 0x4E487B71 PUSH1 0xE0 SHL PUSH0 MSTORE PUSH1 0x41 PUSH1 0x4 MSTORE PUSH1 0x24 PUSH0 REVERT JUMPDEST PUSH1 0x40 MLOAD PUSH1 0x60 DUP2 ADD PUSH1 0x1 PUSH1 0x1 PUSH1 0x40 SHL SUB DUP2 GT DUP3 DUP3 LT OR ISZERO PUSH2 0x1CB0 JUMPI PUSH2 0x1CB0 PUSH2 0x1C7A JUMP JUMPDEST PUSH1 0x40 MSTORE SWAP1 JUMP JUMPDEST PUSH1 0x40 MLOAD PUSH1 0x1F DUP3 ADD PUSH1 0x1F NOT AND DUP2 ADD PUSH1 0x1 PUSH1 0x1 PUSH1 0x40 SHL SUB DUP2 GT DUP3 DUP3 LT OR ISZERO PUSH2 0x1CDE JUMPI PUSH2 0x1CDE PUSH2 0x1C7A JUMP JUMPDEST PUSH1 0x40 MSTORE SWAP2 SWAP1 POP JUMP JUMPDEST PUSH0 PUSH1 0x1 PUSH1 0x1 PUSH1 0x40 SHL SUB DUP3 GT ISZERO PUSH2 0x1CFE JUMPI PUSH2 0x1CFE PUSH2 0x1C7A JUMP JUMPDEST POP PUSH1 0x1F ADD PUSH1 0x1F NOT AND PUSH1 0x20 ADD SWAP1 JUMP JUMPDEST PUSH0 DUP3 PUSH1 0x1F DUP4 ADD SLT PUSH2 0x1D1B JUMPI PUSH0 DUP1 REVERT JUMPDEST DUP2 CALLDATALOAD PUSH2 0x1D2E PUSH2 0x1D29 DUP3 PUSH2 0x1CE6 JUMP JUMPDEST PUSH2 0x1CB6 JUMP JUMPDEST DUP2 DUP2 MSTORE DUP5 PUSH1 0x20 DUP4 DUP7 ADD ADD GT ISZERO PUSH2 0x1D42 JUMPI PUSH0 DUP1 REVERT JUMPDEST DUP2 PUSH1 0x20 DUP6 ADD PUSH1 0x20 DUP4 ADD CALLDATACOPY PUSH0 SWAP2 DUP2 ADD PUSH1 0x20 ADD SWAP2 SWAP1 SWAP2 MSTORE SWAP4 SWAP3 POP POP POP JUMP JUMPDEST PUSH0 DUP1 PUSH1 0x40 DUP4 DUP6 SUB SLT ISZERO PUSH2 0x1D6F JUMPI PUSH0 DUP1 REVERT JUMPDEST DUP3 CALLDATALOAD SWAP2 POP PUSH1 0x20 DUP4 ADD CALLDATALOAD PUSH1 0x1 PUSH1 0x1 PUSH1 0x40 SHL SUB DUP2 GT ISZERO PUSH2 0x1D8B JUMPI PUSH0 DUP1 REVERT JUMPDEST PUSH2 0x1D97 DUP6 DUP3 DUP7 ADD PUSH2 0x1D0C JUMP JUMPDEST SWAP2 POP POP SWAP3 POP SWAP3 SWAP1 POP JUMP JUMPDEST PUSH0 JUMPDEST DUP4 DUP2 LT ISZERO PUSH2 0x1DBB JUMPI DUP2 DUP2 ADD MLOAD DUP4 DUP3 ADD MSTORE PUSH1 0x20 ADD PUSH2 0x1DA3 JUMP JUMPDEST POP POP PUSH0 SWAP2 ADD MSTORE JUMP JUMPDEST PUSH0 DUP2 MLOAD DUP1 DUP5 MSTORE PUSH2 0x1DDA DUP2 PUSH1 0x20 DUP7 ADD PUSH1 0x20 DUP7 ADD PUSH2 0x1DA1 JUMP JUMPDEST PUSH1 0x1F ADD PUSH1 0x1F NOT AND SWAP3 SWAP1 SWAP3 ADD PUSH1 0x20 ADD SWAP3 SWAP2 POP POP JUMP JUMPDEST PUSH1 0x20 DUP2 MSTORE PUSH0 PUSH2 0x1E00 PUSH1 0x20 DUP4 ADD DUP5 PUSH2 0x1DC3 JUMP JUMPDEST SWAP4 SWAP3 POP POP POP JUMP JUMPDEST PUSH1 0x1 PUSH1 0x1 PUSH1 0xA0 SHL SUB DUP2 AND DUP2 EQ PUSH2 0x14CC JUMPI PUSH0 DUP1 REVERT JUMPDEST PUSH0 DUP1 PUSH1 0x40 DUP4 DUP6 SUB SLT ISZERO PUSH2 0x1E2C JUMPI PUSH0 DUP1 REVERT JUMPDEST DUP3 CALLDATALOAD PUSH2 0x1E37 DUP2 PUSH2 0x1E07 JUMP JUMPDEST SWAP5 PUSH1 0x20 SWAP4 SWAP1 SWAP4 ADD CALLDATALOAD SWAP4 POP POP POP JUMP JUMPDEST PUSH0 PUSH1 0x20 DUP3 DUP5 SUB SLT ISZERO PUSH2 0x1E55 JUMPI PUSH0 DUP1 REVERT JUMPDEST POP CALLDATALOAD SWAP2 SWAP1 POP JUMP JUMPDEST PUSH0 DUP1 PUSH0 PUSH1 0x60 DUP5 DUP7 SUB SLT ISZERO PUSH2 0x1E6E JUMPI PUSH0 DUP1 REVERT JUMPDEST DUP4 CALLDATALOAD PUSH2 0x1E79 DUP2 PUSH2 0x1E07 JUMP JUMPDEST SWAP3 POP PUSH1 0x20 DUP5 ADD CALLDATALOAD PUSH2 0x1E89 DUP2 PUSH2 0x1E07 JUMP JUMPDEST SWAP3 SWAP6 SWAP3 SWAP5 POP POP POP PUSH1 0x40 SWAP2 SWAP1 SWAP2 ADD CALLDATALOAD SWAP1 JUMP JUMPDEST PUSH1 0x20 DUP1 DUP3 MSTORE DUP3 MLOAD DUP3 DUP3 ADD DUP2 SWAP1 MSTORE PUSH0 SWAP2 SWAP1 PUSH1 0x40 SWAP1 DUP2 DUP6 ADD SWAP1 DUP7 DUP5 ADD DUP6 JUMPDEST DUP3 DUP2 LT ISZERO PUSH2 0x1EE4 JUMPI DUP2 MLOAD DUP1 MLOAD PUSH1 0x1 PUSH1 0x1 PUSH1 0xA0 SHL SUB AND DUP6 MSTORE DUP7 ADD MLOAD DUP7 DUP6 ADD MSTORE SWAP3 DUP5 ADD SWAP3 SWAP1 DUP6 ADD SWAP1 PUSH1 0x1 ADD PUSH2 0x1EB6 JUMP JUMPDEST POP SWAP2 SWAP8 SWAP7 POP POP POP POP POP POP POP JUMP JUMPDEST PUSH0 PUSH1 0x20 DUP3 DUP5 SUB SLT ISZERO PUSH2 0x1F01 JUMPI PUSH0 DUP1 REVERT JUMPDEST DUP2 CALLDATALOAD PUSH2 0x1E00 DUP2 PUSH2 0x1E07 JUMP JUMPDEST PUSH0 DUP1 DUP4 PUSH1 0x1F DUP5 ADD SLT PUSH2 0x1F1C JUMPI PUSH0 DUP1 REVERT JUMPDEST POP DUP2 CALLDATALOAD PUSH1 0x1 PUSH1 0x1 PUSH1 0x40 SHL SUB DUP2 GT ISZERO PUSH2 0x1F32 JUMPI PUSH0 DUP1 REVERT JUMPDEST PUSH1 0x20 DUP4 ADD SWAP2 POP DUP4 PUSH1 0x20 DUP3 PUSH1 0x5 SHL DUP6 ADD ADD GT ISZERO PUSH2 0x1F4C JUMPI PUSH0 DUP1 REVERT JUMPDEST SWAP3 POP SWAP3 SWAP1 POP JUMP JUMPDEST DUP1 CALLDATALOAD PUSH2 0xFFFF DUP2 AND DUP2 EQ PUSH2 0x1F64 JUMPI PUSH0 DUP1 REVERT JUMPDEST SWAP2 SWAP1 POP JUMP JUMPDEST PUSH0 DUP1 PUSH0 DUP1 PUSH0 DUP1 PUSH1 0x80 DUP8 DUP10 SUB SLT ISZERO PUSH2 0x1F7E JUMPI PUSH0 DUP1 REVERT JUMPDEST DUP7 CALLDATALOAD PUSH1 0x1 PUSH1 0x1 PUSH1 0x40 SHL SUB DUP1 DUP3 GT ISZERO PUSH2 0x1F94 JUMPI PUSH0 DUP1 REVERT JUMPDEST PUSH2 0x1FA0 DUP11 DUP4 DUP12 ADD PUSH2 0x1F0C JUMP JUMPDEST SWAP1 SWAP9 POP SWAP7 POP PUSH1 0x20 DUP10 ADD CALLDATALOAD SWAP2 POP DUP1 DUP3 GT ISZERO PUSH2 0x1FB8 JUMPI PUSH0 DUP1 REVERT JUMPDEST POP PUSH2 0x1FC5 DUP10 DUP3 DUP11 ADD PUSH2 0x1F0C JUMP JUMPDEST SWAP1 SWAP6 POP SWAP4 POP PUSH2 0x1FD8 SWAP1 POP PUSH1 0x40 DUP9 ADD PUSH2 0x1F53 JUMP JUMPDEST SWAP2 POP PUSH2 0x1FE6 PUSH1 0x60 DUP9 ADD PUSH2 0x1F53 JUMP JUMPDEST SWAP1 POP SWAP3 SWAP6 POP SWAP3 SWAP6 POP SWAP3 SWAP6 JUMP JUMPDEST PUSH1 0x2 DUP2 LT PUSH2 0x14CC JUMPI PUSH0 DUP1 REVERT JUMPDEST PUSH0 DUP1 PUSH0 DUP1 PUSH0 PUSH1 0xA0 DUP7 DUP9 SUB SLT ISZERO PUSH2 0x2012 JUMPI PUSH0 DUP1 REVERT JUMPDEST DUP6 CALLDATALOAD PUSH2 0x201D DUP2 PUSH2 0x1E07 JUMP JUMPDEST SWAP5 POP PUSH1 0x20 DUP7 ADD CALLDATALOAD SWAP4 POP PUSH1 0x40 DUP7 ADD CALLDATALOAD PUSH2 0x2034 DUP2 PUSH2 0x1FF2 JUMP JUMPDEST SWAP3 POP PUSH1 0x60 DUP7 ADD CALLDATALOAD PUSH2 0x2044 DUP2 PUSH2 0x1E07 JUMP JUMPDEST SWAP2 POP PUSH1 0x80 DUP7 ADD CALLDATALOAD PUSH1 0x1 PUSH1 0x1 PUSH1 0x40 SHL SUB DUP2 GT ISZERO PUSH2 0x205E JUMPI PUSH0 DUP1 REVERT JUMPDEST PUSH2 0x206A DUP9 DUP3 DUP10 ADD PUSH2 0x1D0C JUMP JUMPDEST SWAP2 POP POP SWAP3 SWAP6 POP SWAP3 SWAP6 SWAP1 SWAP4 POP JUMP JUMPDEST PUSH0 PUSH1 0x20 DUP3 DUP5 SUB SLT ISZERO PUSH2 0x2087 JUMPI PUSH0 DUP1 REVERT JUMPDEST DUP2 CALLDATALOAD PUSH1 0x1 PUSH1 0x1 PUSH1 0x40 SHL SUB DUP2 GT ISZERO PUSH2 0x209C JUMPI PUSH0 DUP1 REVERT JUMPDEST DUP3 ADD PUSH1 0x60 DUP2 DUP6 SUB SLT ISZERO PUSH2 0x1E00 JUMPI PUSH0 DUP1 REVERT JUMPDEST PUSH0 DUP1 PUSH1 0x40 DUP4 DUP6 SUB SLT ISZERO PUSH2 0x20BE JUMPI PUSH0 DUP1 REVERT JUMPDEST DUP3 CALLDATALOAD PUSH2 0x20C9 DUP2 PUSH2 0x1E07 JUMP JUMPDEST SWAP2 POP PUSH1 0x20 DUP4 ADD CALLDATALOAD PUSH2 0x20D9 DUP2 PUSH2 0x1E07 JUMP JUMPDEST DUP1 SWAP2 POP POP SWAP3 POP SWAP3 SWAP1 POP JUMP JUMPDEST PUSH0 PUSH1 0x20 DUP3 DUP5 SUB SLT ISZERO PUSH2 0x20F4 JUMPI PUSH0 DUP1 REVERT JUMPDEST POP MLOAD SWAP2 SWAP1 POP JUMP JUMPDEST PUSH0 PUSH1 0x1 PUSH1 0x1 PUSH1 0x40 SHL SUB DUP3 GT ISZERO PUSH2 0x2113 JUMPI PUSH2 0x2113 PUSH2 0x1C7A JUMP JUMPDEST POP PUSH1 0x5 SHL PUSH1 0x20 ADD SWAP1 JUMP JUMPDEST DUP1 MLOAD PUSH2 0x1F64 DUP2 PUSH2 0x1FF2 JUMP JUMPDEST PUSH0 PUSH1 0x20 DUP1 DUP4 DUP6 SUB SLT ISZERO PUSH2 0x2139 JUMPI PUSH0 DUP1 REVERT JUMPDEST DUP3 MLOAD PUSH1 0x1 PUSH1 0x1 PUSH1 0x40 SHL SUB DUP1 DUP3 GT ISZERO PUSH2 0x214F JUMPI PUSH0 DUP1 REVERT JUMPDEST SWAP1 DUP5 ADD SWAP1 PUSH1 0x60 DUP3 DUP8 SUB SLT ISZERO PUSH2 0x2162 JUMPI PUSH0 DUP1 REVERT JUMPDEST PUSH2 0x216A PUSH2 0x1C8E JUMP JUMPDEST DUP3 MLOAD DUP3 DUP2 GT ISZERO PUSH2 0x2178 JUMPI PUSH0 DUP1 REVERT JUMPDEST DUP4 ADD PUSH1 0x1F DUP2 ADD DUP9 SGT PUSH2 0x2188 JUMPI PUSH0 DUP1 REVERT JUMPDEST DUP1 MLOAD PUSH2 0x2196 PUSH2 0x1D29 DUP3 PUSH2 0x20FB JUMP JUMPDEST DUP2 DUP2 MSTORE PUSH1 0x5 SWAP2 SWAP1 SWAP2 SHL DUP3 ADD DUP7 ADD SWAP1 DUP7 DUP2 ADD SWAP1 DUP11 DUP4 GT ISZERO PUSH2 0x21B4 JUMPI PUSH0 DUP1 REVERT JUMPDEST DUP8 DUP5 ADD JUMPDEST DUP4 DUP2 LT ISZERO PUSH2 0x2225 JUMPI DUP1 MLOAD DUP8 DUP2 GT ISZERO PUSH2 0x21CF JUMPI PUSH0 DUP1 DUP2 REVERT JUMPDEST DUP6 ADD PUSH1 0x3F DUP2 ADD DUP14 SGT PUSH2 0x21E0 JUMPI PUSH0 DUP1 DUP2 REVERT JUMPDEST DUP10 DUP2 ADD MLOAD PUSH1 0x40 PUSH2 0x21F2 PUSH2 0x1D29 DUP4 PUSH2 0x1CE6 JUMP JUMPDEST DUP3 DUP2 MSTORE DUP16 DUP3 DUP5 DUP7 ADD ADD GT ISZERO PUSH2 0x2206 JUMPI PUSH0 DUP1 DUP2 REVERT JUMPDEST PUSH2 0x2215 DUP4 DUP15 DUP4 ADD DUP5 DUP8 ADD PUSH2 0x1DA1 JUMP JUMPDEST DUP7 MSTORE POP POP POP SWAP2 DUP9 ADD SWAP2 DUP9 ADD PUSH2 0x21B8 JUMP JUMPDEST POP DUP5 MSTORE POP POP POP DUP3 DUP5 ADD MLOAD DUP5 DUP3 ADD MSTORE PUSH2 0x223F PUSH1 0x40 DUP5 ADD PUSH2 0x211D JUMP JUMPDEST PUSH1 0x40 DUP3 ADD MSTORE SWAP7 SWAP6 POP POP POP POP POP POP JUMP JUMPDEST PUSH4 0x4E487B71 PUSH1 0xE0 SHL PUSH0 MSTORE PUSH1 0x11 PUSH1 0x4 MSTORE PUSH1 0x24 PUSH0 REVERT JUMPDEST DUP1 DUP3 MUL DUP2 ISZERO DUP3 DUP3 DIV DUP5 EQ OR PUSH2 0xA65 JUMPI PUSH2 0xA65 PUSH2 0x224E JUMP JUMPDEST PUSH0 DUP3 PUSH2 0x2293 JUMPI PUSH4 0x4E487B71 PUSH1 0xE0 SHL PUSH0 MSTORE PUSH1 0x12 PUSH1 0x4 MSTORE PUSH1 0x24 PUSH0 REVERT JUMPDEST POP DIV SWAP1 JUMP JUMPDEST PUSH0 PUSH1 0x20 DUP3 DUP5 SUB SLT ISZERO PUSH2 0x22A8 JUMPI PUSH0 DUP1 REVERT JUMPDEST DUP2 MLOAD PUSH2 0x1E00 DUP2 PUSH2 0x1E07 JUMP JUMPDEST PUSH4 0x4E487B71 PUSH1 0xE0 SHL PUSH0 MSTORE PUSH1 0x32 PUSH1 0x4 MSTORE PUSH1 0x24 PUSH0 REVERT JUMPDEST PUSH4 0x4E487B71 PUSH1 0xE0 SHL PUSH0 MSTORE PUSH1 0x21 PUSH1 0x4 MSTORE PUSH1 0x24 PUSH0 REVERT JUMPDEST PUSH1 0x2 DUP2 LT PUSH2 0x22F7 JUMPI PUSH4 0x4E487B71 PUSH1 0xE0 SHL PUSH0 MSTORE PUSH1 0x21 PUSH1 0x4 MSTORE PUSH1 0x24 PUSH0 REVERT JUMPDEST SWAP1 MSTORE JUMP JUMPDEST PUSH1 0x1 PUSH1 0x1 PUSH1 0xA0 SHL SUB DUP7 DUP2 AND DUP3 MSTORE PUSH1 0x20 DUP3 ADD DUP7 SWAP1 MSTORE PUSH0 SWAP1 PUSH2 0x231E PUSH1 0x40 DUP5 ADD DUP8 PUSH2 0x22DB JUMP JUMPDEST DUP1 DUP6 AND PUSH1 0x60 DUP5 ADD MSTORE POP PUSH1 0xA0 PUSH1 0x80 DUP4 ADD MSTORE PUSH2 0x233B PUSH1 0xA0 DUP4 ADD DUP5 PUSH2 0x1DC3 JUMP JUMPDEST SWAP8 SWAP7 POP POP POP POP POP POP POP JUMP JUMPDEST DUP1 DUP3 ADD DUP1 DUP3 GT ISZERO PUSH2 0xA65 JUMPI PUSH2 0xA65 PUSH2 0x224E JUMP JUMPDEST PUSH0 PUSH1 0x1 DUP3 ADD PUSH2 0x236A JUMPI PUSH2 0x236A PUSH2 0x224E JUMP JUMPDEST POP PUSH1 0x1 ADD SWAP1 JUMP JUMPDEST DUP2 DUP2 SUB DUP2 DUP2 GT ISZERO PUSH2 0xA65 JUMPI PUSH2 0xA65 PUSH2 0x224E JUMP JUMPDEST PUSH0 PUSH1 0x20 DUP3 DUP5 SUB SLT ISZERO PUSH2 0x2394 JUMPI PUSH0 DUP1 REVERT JUMPDEST DUP2 MLOAD DUP1 ISZERO ISZERO DUP2 EQ PUSH2 0x1E00 JUMPI PUSH0 DUP1 REVERT JUMPDEST PUSH1 0x1 DUP2 DUP2 SHR SWAP1 DUP3 AND DUP1 PUSH2 0x23B7 JUMPI PUSH1 0x7F DUP3 AND SWAP2 POP JUMPDEST PUSH1 0x20 DUP3 LT DUP2 SUB PUSH2 0x23D5 JUMPI PUSH4 0x4E487B71 PUSH1 0xE0 SHL PUSH0 MSTORE PUSH1 0x22 PUSH1 0x4 MSTORE PUSH1 0x24 PUSH0 REVERT JUMPDEST POP SWAP2 SWAP1 POP JUMP JUMPDEST PUSH0 PUSH1 0x20 DUP3 DUP5 SUB SLT ISZERO PUSH2 0x23EB JUMPI PUSH0 DUP1 REVERT JUMPDEST DUP2 CALLDATALOAD PUSH2 0x1E00 DUP2 PUSH2 0x1FF2 JUMP JUMPDEST PUSH0 DUP1 DUP4 CALLDATALOAD PUSH1 0x1E NOT DUP5 CALLDATASIZE SUB ADD DUP2 SLT PUSH2 0x240B JUMPI PUSH0 DUP1 REVERT JUMPDEST DUP4 ADD DUP1 CALLDATALOAD SWAP2 POP PUSH1 0x1 PUSH1 0x1 PUSH1 0x40 SHL SUB DUP3 GT ISZERO PUSH2 0x2424 JUMPI PUSH0 DUP1 REVERT JUMPDEST PUSH1 0x20 ADD SWAP2 POP PUSH1 0x5 DUP2 SWAP1 SHL CALLDATASIZE SUB DUP3 SGT ISZERO PUSH2 0x1F4C JUMPI PUSH0 DUP1 REVERT JUMPDEST PUSH0 DUP1 DUP4 CALLDATALOAD PUSH1 0x1E NOT DUP5 CALLDATASIZE SUB ADD DUP2 SLT PUSH2 0x2450 JUMPI PUSH0 DUP1 REVERT JUMPDEST DUP4 ADD DUP1 CALLDATALOAD SWAP2 POP PUSH1 0x1 PUSH1 0x1 PUSH1 0x40 SHL SUB DUP3 GT ISZERO PUSH2 0x2469 JUMPI PUSH0 DUP1 REVERT JUMPDEST PUSH1 0x20 ADD SWAP2 POP CALLDATASIZE DUP2 SWAP1 SUB DUP3 SGT ISZERO PUSH2 0x1F4C JUMPI PUSH0 DUP1 REVERT JUMPDEST PUSH1 0x1 PUSH1 0x1 PUSH1 0xA0 SHL SUB DUP8 DUP2 AND DUP3 MSTORE PUSH1 0x20 DUP3 ADD DUP8 SWAP1 MSTORE PUSH0 SWAP1 PUSH2 0x24A0 PUSH1 0x40 DUP5 ADD DUP9 PUSH2 0x22DB JUMP JUMPDEST DUP1 DUP7 AND PUSH1 0x60 DUP5 ADD MSTORE POP PUSH1 0xA0 PUSH1 0x80 DUP4 ADD MSTORE DUP3 PUSH1 0xA0 DUP4 ADD MSTORE DUP3 DUP5 PUSH1 0xC0 DUP5 ADD CALLDATACOPY PUSH0 PUSH1 0xC0 DUP5 DUP5 ADD ADD MSTORE PUSH1 0xC0 PUSH1 0x1F NOT PUSH1 0x1F DUP6 ADD AND DUP4 ADD ADD SWAP1 POP SWAP8 SWAP7 POP POP POP POP POP POP POP JUMP JUMPDEST PUSH0 PUSH1 0x20 DUP1 DUP4 DUP6 SUB SLT ISZERO PUSH2 0x24F0 JUMPI PUSH0 DUP1 REVERT JUMPDEST DUP3 MLOAD PUSH1 0x1 PUSH1 0x1 PUSH1 0x40 SHL SUB DUP2 GT ISZERO PUSH2 0x2505 JUMPI PUSH0 DUP1 REVERT JUMPDEST DUP4 ADD PUSH1 0x1F DUP2 ADD DUP6 SGT PUSH2 0x2515 JUMPI PUSH0 DUP1 REVERT JUMPDEST DUP1 MLOAD PUSH2 0x2523 PUSH2 0x1D29 DUP3 PUSH2 0x20FB JUMP JUMPDEST DUP2 DUP2 MSTORE PUSH1 0x5 SWAP2 SWAP1 SWAP2 SHL DUP3 ADD DUP4 ADD SWAP1 DUP4 DUP2 ADD SWAP1 DUP8 DUP4 GT ISZERO PUSH2 0x2541 JUMPI PUSH0 DUP1 REVERT JUMPDEST SWAP3 DUP5 ADD SWAP3 JUMPDEST DUP3 DUP5 LT ISZERO PUSH2 0x233B JUMPI DUP4 MLOAD PUSH2 0x2559 DUP2 PUSH2 0x1E07 JUMP JUMPDEST DUP3 MSTORE SWAP3 DUP5 ADD SWAP3 SWAP1 DUP5 ADD SWAP1 PUSH2 0x2546 JUMP JUMPDEST PUSH0 DUP2 MLOAD DUP1 DUP5 MSTORE PUSH1 0x20 DUP1 DUP6 ADD SWAP5 POP DUP1 DUP5 ADD PUSH0 JUMPDEST DUP4 DUP2 LT ISZERO PUSH2 0x259F JUMPI DUP2 MLOAD PUSH1 0x1 PUSH1 0x1 PUSH1 0xA0 SHL SUB AND DUP8 MSTORE SWAP6 DUP3 ADD SWAP6 SWAP1 DUP3 ADD SWAP1 PUSH1 0x1 ADD PUSH2 0x257A JUMP JUMPDEST POP SWAP5 SWAP6 SWAP5 POP POP POP POP POP JUMP JUMPDEST DUP3 DUP2 MSTORE PUSH1 0x40 PUSH1 0x20 DUP3 ADD MSTORE PUSH0 PUSH2 0x25C2 PUSH1 0x40 DUP4 ADD DUP5 PUSH2 0x2568 JUMP JUMPDEST SWAP5 SWAP4 POP POP POP POP JUMP JUMPDEST PUSH0 PUSH1 0x20 DUP1 DUP4 DUP6 SUB SLT ISZERO PUSH2 0x25DB JUMPI PUSH0 DUP1 REVERT JUMPDEST DUP3 MLOAD PUSH1 0x1 PUSH1 0x1 PUSH1 0x40 SHL SUB DUP2 GT ISZERO PUSH2 0x25F0 JUMPI PUSH0 DUP1 REVERT JUMPDEST DUP4 ADD PUSH1 0x1F DUP2 ADD DUP6 SGT PUSH2 0x2600 JUMPI PUSH0 DUP1 REVERT JUMPDEST DUP1 MLOAD PUSH2 0x260E PUSH2 0x1D29 DUP3 PUSH2 0x20FB JUMP JUMPDEST DUP2 DUP2 MSTORE PUSH1 0x5 SWAP2 SWAP1 SWAP2 SHL DUP3 ADD DUP4 ADD SWAP1 DUP4 DUP2 ADD SWAP1 DUP8 DUP4 GT ISZERO PUSH2 0x262C JUMPI PUSH0 DUP1 REVERT JUMPDEST SWAP3 DUP5 ADD SWAP3 JUMPDEST DUP3 DUP5 LT ISZERO PUSH2 0x233B JUMPI DUP4 MLOAD DUP3 MSTORE SWAP3 DUP5 ADD SWAP3 SWAP1 DUP5 ADD SWAP1 PUSH2 0x2631 JUMP JUMPDEST DUP6 DUP2 MSTORE DUP5 PUSH1 0x20 DUP3 ADD MSTORE PUSH1 0xA0 PUSH1 0x40 DUP3 ADD MSTORE PUSH0 PUSH2 0x2668 PUSH1 0xA0 DUP4 ADD DUP7 PUSH2 0x2568 JUMP JUMPDEST PUSH1 0x1 PUSH1 0x1 PUSH1 0xA0 SHL SUB SWAP5 SWAP1 SWAP5 AND PUSH1 0x60 DUP4 ADD MSTORE POP PUSH1 0x80 ADD MSTORE SWAP4 SWAP3 POP POP POP JUMP JUMPDEST PUSH1 0x40 DUP2 MSTORE PUSH0 PUSH2 0x2697 PUSH1 0x40 DUP4 ADD DUP6 PUSH2 0x1DC3 JUMP JUMPDEST SWAP1 POP DUP3 PUSH1 0x20 DUP4 ADD MSTORE SWAP4 SWAP3 POP POP POP JUMP JUMPDEST PUSH1 0x20 DUP2 MSTORE PUSH0 DUP3 MLOAD PUSH1 0xA0 PUSH1 0x20 DUP5 ADD MSTORE PUSH2 0x26C1 PUSH1 0xC0 DUP5 ADD DUP3 PUSH2 0x1DC3 JUMP JUMPDEST SWAP1 POP PUSH1 0x1 DUP1 PUSH1 0xA0 SHL SUB PUSH1 0x20 DUP6 ADD MLOAD AND PUSH1 0x40 DUP5 ADD MSTORE PUSH1 0x40 DUP5 ADD MLOAD PUSH1 0x60 DUP5 ADD MSTORE PUSH1 0x60 DUP5 ADD MLOAD PUSH1 0x80 DUP5 ADD MSTORE PUSH1 0x80 DUP5 ADD MLOAD PUSH1 0xA0 DUP5 ADD MSTORE DUP1 SWAP2 POP POP SWAP3 SWAP2 POP POP JUMP INVALID LOG2 PUSH5 0x6970667358 0x22 SLT KECCAK256 0xC2 0xE9 SMOD 0xBD LOG1 0xB8 MOD PUSH31 0xFAC9B6981B715F60085AE821CFCED8EB0966A3FCA7659D264736F6C634300 ADDMOD EQ STOP CALLER "
				},
				"gasEstimates": {
					"creation": {
						"codeDepositCost": "2007000",
						"executionCost": "infinite",
						"totalCost": "infinite"
					},
					"external": {
						"allowance(address,address)": "infinite",
						"approve(address,uint256)": "24797",
						"balanceOf(address)": "2596",
						"decimals()": "288",
						"deposit((bytes[],uint256,uint8))": "infinite",
						"depositFee()": "2369",
						"ethDepositedFailed(address)": "2554",
						"failedSwaps(uint256)": "8976",
						"getAllTokens()": "infinite",
						"initialedTokens()": "2387",
						"initializeTokens(address[],uint256[],uint16,uint16)": "infinite",
						"name()": "infinite",
						"owner()": "2440",
						"renounceOwnership()": "infinite",
						"setSlippageTolerance(uint256)": "22394",
						"slippageTolerance()": "2360",
						"swapTokenForToken(address,uint256,uint8,address,bytes)": "infinite",
						"symbol()": "infinite",
						"totalSupply()": "2370",
						"transfer(address,uint256)": "51312",
						"transferFrom(address,address,uint256)": "infinite",
						"transferOwnership(address)": "infinite",
						"uniswapV2Router()": "2404",
						"uniswapV3Quoter()": "2447",
						"uniswapV3Router()": "2404",
						"userFailedSwaps(address)": "2555",
						"withdrawFeesByOwner(address)": "infinite",
						"withdrawInKind(uint256)": "infinite",
						"withdrawToETH(uint256,bytes)": "infinite",
						"withdrawalFee()": "2401"
					}
				},
				"methodIdentifiers": {
					"allowance(address,address)": "dd62ed3e",
					"approve(address,uint256)": "095ea7b3",
					"balanceOf(address)": "70a08231",
					"decimals()": "313ce567",
					"deposit((bytes[],uint256,uint8))": "945098db",
					"depositFee()": "67a52793",
					"ethDepositedFailed(address)": "c38cd0b5",
					"failedSwaps(uint256)": "378a653c",
					"getAllTokens()": "2a5c792a",
					"initialedTokens()": "81a06b73",
					"initializeTokens(address[],uint256[],uint16,uint16)": "3f595e29",
					"name()": "06fdde03",
					"owner()": "8da5cb5b",
					"renounceOwnership()": "715018a6",
					"setSlippageTolerance(uint256)": "117da1ee",
					"slippageTolerance()": "d03153aa",
					"swapTokenForToken(address,uint256,uint8,address,bytes)": "74a66061",
					"symbol()": "95d89b41",
					"totalSupply()": "18160ddd",
					"transfer(address,uint256)": "a9059cbb",
					"transferFrom(address,address,uint256)": "23b872dd",
					"transferOwnership(address)": "f2fde38b",
					"uniswapV2Router()": "1694505e",
					"uniswapV3Quoter()": "4d20d0f8",
					"uniswapV3Router()": "2c76d7a6",
					"userFailedSwaps(address)": "36a43f2b",
					"withdrawFeesByOwner(address)": "a738c7df",
					"withdrawInKind(uint256)": "3043d4d9",
					"withdrawToETH(uint256,bytes)": "00d06ddd",
					"withdrawalFee()": "8bc7e8c4"
				}
			},
			"storageLayout": {
				"storage": [
					{
						"astId": 8,
						"contract": "contracts/PYGGportfolioManagement.sol:PYGGportfolioManagement",
						"label": "_owner",
						"offset": 0,
						"slot": "0",
						"type": "t_address"
					},
					{
						"astId": 307,
						"contract": "contracts/PYGGportfolioManagement.sol:PYGGportfolioManagement",
						"label": "_balances",
						"offset": 0,
						"slot": "1",
						"type": "t_mapping(t_address,t_uint256)"
					},
					{
						"astId": 313,
						"contract": "contracts/PYGGportfolioManagement.sol:PYGGportfolioManagement",
						"label": "_allowances",
						"offset": 0,
						"slot": "2",
						"type": "t_mapping(t_address,t_mapping(t_address,t_uint256))"
					},
					{
						"astId": 315,
						"contract": "contracts/PYGGportfolioManagement.sol:PYGGportfolioManagement",
						"label": "_totalSupply",
						"offset": 0,
						"slot": "3",
						"type": "t_uint256"
					},
					{
						"astId": 317,
						"contract": "contracts/PYGGportfolioManagement.sol:PYGGportfolioManagement",
						"label": "_name",
						"offset": 0,
						"slot": "4",
						"type": "t_string_storage"
					},
					{
						"astId": 319,
						"contract": "contracts/PYGGportfolioManagement.sol:PYGGportfolioManagement",
						"label": "_symbol",
						"offset": 0,
						"slot": "5",
						"type": "t_string_storage"
					},
					{
						"astId": 1711,
						"contract": "contracts/PYGGportfolioManagement.sol:PYGGportfolioManagement",
						"label": "failedSwaps",
						"offset": 0,
						"slot": "6",
						"type": "t_array(t_struct(FailedSwap)1675_storage)dyn_storage"
					},
					{
						"astId": 1713,
						"contract": "contracts/PYGGportfolioManagement.sol:PYGGportfolioManagement",
						"label": "slippageTolerance",
						"offset": 0,
						"slot": "7",
						"type": "t_uint256"
					},
					{
						"astId": 1717,
						"contract": "contracts/PYGGportfolioManagement.sol:PYGGportfolioManagement",
						"label": "userFailedSwaps",
						"offset": 0,
						"slot": "8",
						"type": "t_mapping(t_address,t_uint256)"
					},
					{
						"astId": 1720,
						"contract": "contracts/PYGGportfolioManagement.sol:PYGGportfolioManagement",
						"label": "uniswapV2Router",
						"offset": 0,
						"slot": "9",
						"type": "t_contract(IUniswapV2Router02)2466"
					},
					{
						"astId": 1723,
						"contract": "contracts/PYGGportfolioManagement.sol:PYGGportfolioManagement",
						"label": "uniswapV3Router",
						"offset": 0,
						"slot": "10",
						"type": "t_contract(ISwapRouter)1047"
					},
					{
						"astId": 1726,
						"contract": "contracts/PYGGportfolioManagement.sol:PYGGportfolioManagement",
						"label": "uniswapV3Quoter",
						"offset": 0,
						"slot": "11",
						"type": "t_contract(IUniswapV3Quoter)2487"
					},
					{
						"astId": 1069,
						"contract": "contracts/PYGGportfolioManagement.sol:PYGGportfolioManagement",
						"label": "tokens",
						"offset": 0,
						"slot": "12",
						"type": "t_array(t_struct(TokenInfo)1667_storage)dyn_storage"
					},
					{
						"astId": 1071,
						"contract": "contracts/PYGGportfolioManagement.sol:PYGGportfolioManagement",
						"label": "totalFeesWETH",
						"offset": 0,
						"slot": "13",
						"type": "t_uint256"
					},
					{
						"astId": 1073,
						"contract": "contracts/PYGGportfolioManagement.sol:PYGGportfolioManagement",
						"label": "withdrawalFee",
						"offset": 0,
						"slot": "14",
						"type": "t_uint16"
					},
					{
						"astId": 1075,
						"contract": "contracts/PYGGportfolioManagement.sol:PYGGportfolioManagement",
						"label": "depositFee",
						"offset": 2,
						"slot": "14",
						"type": "t_uint16"
					},
					{
						"astId": 1078,
						"contract": "contracts/PYGGportfolioManagement.sol:PYGGportfolioManagement",
						"label": "initialedTokens",
						"offset": 4,
						"slot": "14",
						"type": "t_bool"
					},
					{
						"astId": 1082,
						"contract": "contracts/PYGGportfolioManagement.sol:PYGGportfolioManagement",
						"label": "ethDepositedFailed",
						"offset": 0,
						"slot": "15",
						"type": "t_mapping(t_address,t_uint256)"
					},
					{
						"astId": 1084,
						"contract": "contracts/PYGGportfolioManagement.sol:PYGGportfolioManagement",
						"label": "factory",
						"offset": 0,
						"slot": "16",
						"type": "t_address"
					}
				],
				"types": {
					"t_address": {
						"encoding": "inplace",
						"label": "address",
						"numberOfBytes": "20"
					},
					"t_array(t_struct(FailedSwap)1675_storage)dyn_storage": {
						"base": "t_struct(FailedSwap)1675_storage",
						"encoding": "dynamic_array",
						"label": "struct FailedSwap[]",
						"numberOfBytes": "32"
					},
					"t_array(t_struct(TokenInfo)1667_storage)dyn_storage": {
						"base": "t_struct(TokenInfo)1667_storage",
						"encoding": "dynamic_array",
						"label": "struct TokenInfo[]",
						"numberOfBytes": "32"
					},
					"t_bool": {
						"encoding": "inplace",
						"label": "bool",
						"numberOfBytes": "1"
					},
					"t_contract(IERC20)877": {
						"encoding": "inplace",
						"label": "contract IERC20",
						"numberOfBytes": "20"
					},
					"t_contract(ISwapRouter)1047": {
						"encoding": "inplace",
						"label": "contract ISwapRouter",
						"numberOfBytes": "20"
					},
					"t_contract(IUniswapV2Router02)2466": {
						"encoding": "inplace",
						"label": "contract IUniswapV2Router02",
						"numberOfBytes": "20"
					},
					"t_contract(IUniswapV3Quoter)2487": {
						"encoding": "inplace",
						"label": "contract IUniswapV3Quoter",
						"numberOfBytes": "20"
					},
					"t_mapping(t_address,t_mapping(t_address,t_uint256))": {
						"encoding": "mapping",
						"key": "t_address",
						"label": "mapping(address => mapping(address => uint256))",
						"numberOfBytes": "32",
						"value": "t_mapping(t_address,t_uint256)"
					},
					"t_mapping(t_address,t_uint256)": {
						"encoding": "mapping",
						"key": "t_address",
						"label": "mapping(address => uint256)",
						"numberOfBytes": "32",
						"value": "t_uint256"
					},
					"t_string_storage": {
						"encoding": "bytes",
						"label": "string",
						"numberOfBytes": "32"
					},
					"t_struct(FailedSwap)1675_storage": {
						"encoding": "inplace",
						"label": "struct FailedSwap",
						"members": [
							{
								"astId": 1669,
								"contract": "contracts/PYGGportfolioManagement.sol:PYGGportfolioManagement",
								"label": "user",
								"offset": 0,
								"slot": "0",
								"type": "t_address"
							},
							{
								"astId": 1672,
								"contract": "contracts/PYGGportfolioManagement.sol:PYGGportfolioManagement",
								"label": "token",
								"offset": 0,
								"slot": "1",
								"type": "t_contract(IERC20)877"
							},
							{
								"astId": 1674,
								"contract": "contracts/PYGGportfolioManagement.sol:PYGGportfolioManagement",
								"label": "amount",
								"offset": 0,
								"slot": "2",
								"type": "t_uint256"
							}
						],
						"numberOfBytes": "96"
					},
					"t_struct(TokenInfo)1667_storage": {
						"encoding": "inplace",
						"label": "struct TokenInfo",
						"members": [
							{
								"astId": 1664,
								"contract": "contracts/PYGGportfolioManagement.sol:PYGGportfolioManagement",
								"label": "token",
								"offset": 0,
								"slot": "0",
								"type": "t_contract(IERC20)877"
							},
							{
								"astId": 1666,
								"contract": "contracts/PYGGportfolioManagement.sol:PYGGportfolioManagement",
								"label": "targetPercentage",
								"offset": 0,
								"slot": "1",
								"type": "t_uint256"
							}
						],
						"numberOfBytes": "64"
					},
					"t_uint16": {
						"encoding": "inplace",
						"label": "uint16",
						"numberOfBytes": "2"
					},
					"t_uint256": {
						"encoding": "inplace",
						"label": "uint256",
						"numberOfBytes": "32"
					}
				}
			},
			"userdoc": {
				"kind": "user",
				"methods": {},
				"version": 1
			}
		}
	}
}