{
	"contracts/PYGGportfolioManagement.sol": {
		"PYGGportfolioManagement": {
			"abi": [
				{
					"inputs": [
						{
							"internalType": "string",
							"name": "_name",
							"type": "string"
						},
						{
							"internalType": "string",
							"name": "_symbol",
							"type": "string"
						},
						{
							"internalType": "address",
							"name": "_uniswapV2Router",
							"type": "address"
						},
						{
							"internalType": "address",
							"name": "_uniswapV3Router",
							"type": "address"
						},
						{
							"internalType": "address",
							"name": "_uniswapV3Quoter",
							"type": "address"
						}
					],
					"stateMutability": "nonpayable",
					"type": "constructor"
				},
				{
					"inputs": [
						{
							"internalType": "address",
							"name": "spender",
							"type": "address"
						},
						{
							"internalType": "uint256",
							"name": "allowance",
							"type": "uint256"
						},
						{
							"internalType": "uint256",
							"name": "needed",
							"type": "uint256"
						}
					],
					"name": "ERC20InsufficientAllowance",
					"type": "error"
				},
				{
					"inputs": [
						{
							"internalType": "address",
							"name": "sender",
							"type": "address"
						},
						{
							"internalType": "uint256",
							"name": "balance",
							"type": "uint256"
						},
						{
							"internalType": "uint256",
							"name": "needed",
							"type": "uint256"
						}
					],
					"name": "ERC20InsufficientBalance",
					"type": "error"
				},
				{
					"inputs": [
						{
							"internalType": "address",
							"name": "approver",
							"type": "address"
						}
					],
					"name": "ERC20InvalidApprover",
					"type": "error"
				},
				{
					"inputs": [
						{
							"internalType": "address",
							"name": "receiver",
							"type": "address"
						}
					],
					"name": "ERC20InvalidReceiver",
					"type": "error"
				},
				{
					"inputs": [
						{
							"internalType": "address",
							"name": "sender",
							"type": "address"
						}
					],
					"name": "ERC20InvalidSender",
					"type": "error"
				},
				{
					"inputs": [
						{
							"internalType": "address",
							"name": "spender",
							"type": "address"
						}
					],
					"name": "ERC20InvalidSpender",
					"type": "error"
				},
				{
					"inputs": [
						{
							"internalType": "address",
							"name": "owner",
							"type": "address"
						}
					],
					"name": "OwnableInvalidOwner",
					"type": "error"
				},
				{
					"inputs": [
						{
							"internalType": "address",
							"name": "account",
							"type": "address"
						}
					],
					"name": "OwnableUnauthorizedAccount",
					"type": "error"
				},
				{
					"anonymous": false,
					"inputs": [
						{
							"indexed": false,
							"internalType": "address[]",
							"name": "_tokens",
							"type": "address[]"
						},
						{
							"indexed": false,
							"internalType": "uint256[]",
							"name": "_targetPercentage",
							"type": "uint256[]"
						}
					],
					"name": "AddToken",
					"type": "event"
				},
				{
					"anonymous": false,
					"inputs": [
						{
							"indexed": true,
							"internalType": "address",
							"name": "owner",
							"type": "address"
						},
						{
							"indexed": true,
							"internalType": "address",
							"name": "spender",
							"type": "address"
						},
						{
							"indexed": false,
							"internalType": "uint256",
							"name": "value",
							"type": "uint256"
						}
					],
					"name": "Approval",
					"type": "event"
				},
				{
					"anonymous": false,
					"inputs": [
						{
							"indexed": true,
							"internalType": "address",
							"name": "previousOwner",
							"type": "address"
						},
						{
							"indexed": true,
							"internalType": "address",
							"name": "newOwner",
							"type": "address"
						}
					],
					"name": "OwnershipTransferred",
					"type": "event"
				},
				{
					"anonymous": false,
					"inputs": [
						{
							"indexed": true,
							"internalType": "address",
							"name": "from",
							"type": "address"
						},
						{
							"indexed": true,
							"internalType": "address",
							"name": "to",
							"type": "address"
						},
						{
							"indexed": false,
							"internalType": "uint256",
							"name": "value",
							"type": "uint256"
						}
					],
					"name": "Transfer",
					"type": "event"
				},
				{
					"inputs": [
						{
							"internalType": "address",
							"name": "owner",
							"type": "address"
						},
						{
							"internalType": "address",
							"name": "spender",
							"type": "address"
						}
					],
					"name": "allowance",
					"outputs": [
						{
							"internalType": "uint256",
							"name": "",
							"type": "uint256"
						}
					],
					"stateMutability": "view",
					"type": "function"
				},
				{
					"inputs": [
						{
							"internalType": "address",
							"name": "spender",
							"type": "address"
						},
						{
							"internalType": "uint256",
							"name": "value",
							"type": "uint256"
						}
					],
					"name": "approve",
					"outputs": [
						{
							"internalType": "bool",
							"name": "",
							"type": "bool"
						}
					],
					"stateMutability": "nonpayable",
					"type": "function"
				},
				{
					"inputs": [
						{
							"internalType": "address",
							"name": "account",
							"type": "address"
						}
					],
					"name": "balanceOf",
					"outputs": [
						{
							"internalType": "uint256",
							"name": "",
							"type": "uint256"
						}
					],
					"stateMutability": "view",
					"type": "function"
				},
				{
					"inputs": [],
					"name": "decimals",
					"outputs": [
						{
							"internalType": "uint8",
							"name": "",
							"type": "uint8"
						}
					],
					"stateMutability": "view",
					"type": "function"
				},
				{
					"inputs": [
						{
							"components": [
								{
									"internalType": "bytes[]",
									"name": "path",
									"type": "bytes[]"
								},
								{
									"internalType": "uint256",
									"name": "amountIn",
									"type": "uint256"
								},
								{
									"internalType": "enum Version",
									"name": "version",
									"type": "uint8"
								}
							],
							"internalType": "struct SwapPath",
							"name": "_swapath",
							"type": "tuple"
						}
					],
					"name": "deposit",
					"outputs": [],
					"stateMutability": "payable",
					"type": "function"
				},
				{
					"inputs": [],
					"name": "depositFee",
					"outputs": [
						{
							"internalType": "uint16",
							"name": "",
							"type": "uint16"
						}
					],
					"stateMutability": "view",
					"type": "function"
				},
				{
					"inputs": [
						{
							"internalType": "address",
							"name": "",
							"type": "address"
						}
					],
					"name": "ethDepositedFailed",
					"outputs": [
						{
							"internalType": "uint256",
							"name": "",
							"type": "uint256"
						}
					],
					"stateMutability": "view",
					"type": "function"
				},
				{
					"inputs": [
						{
							"internalType": "uint256",
							"name": "",
							"type": "uint256"
						}
					],
					"name": "failedSwaps",
					"outputs": [
						{
							"internalType": "address",
							"name": "user",
							"type": "address"
						},
						{
							"internalType": "contract IERC20",
							"name": "token",
							"type": "address"
						},
						{
							"internalType": "uint256",
							"name": "amount",
							"type": "uint256"
						}
					],
					"stateMutability": "view",
					"type": "function"
				},
				{
					"inputs": [],
					"name": "getAllTokens",
					"outputs": [
						{
							"components": [
								{
									"internalType": "contract IERC20",
									"name": "token",
									"type": "address"
								},
								{
									"internalType": "uint256",
									"name": "targetPercentage",
									"type": "uint256"
								}
							],
							"internalType": "struct TokenInfo[]",
							"name": "",
							"type": "tuple[]"
						}
					],
					"stateMutability": "view",
					"type": "function"
				},
				{
					"inputs": [],
					"name": "initialedTokens",
					"outputs": [
						{
							"internalType": "bool",
							"name": "",
							"type": "bool"
						}
					],
					"stateMutability": "view",
					"type": "function"
				},
				{
					"inputs": [
						{
							"internalType": "address[]",
							"name": "_tokens",
							"type": "address[]"
						},
						{
							"internalType": "uint256[]",
							"name": "_targetPercentages",
							"type": "uint256[]"
						},
						{
							"internalType": "uint16",
							"name": "_withdrawalFee",
							"type": "uint16"
						},
						{
							"internalType": "uint16",
							"name": "_depositFee",
							"type": "uint16"
						}
					],
					"name": "initializeTokens",
					"outputs": [],
					"stateMutability": "nonpayable",
					"type": "function"
				},
				{
					"inputs": [],
					"name": "name",
					"outputs": [
						{
							"internalType": "string",
							"name": "",
							"type": "string"
						}
					],
					"stateMutability": "view",
					"type": "function"
				},
				{
					"inputs": [],
					"name": "owner",
					"outputs": [
						{
							"internalType": "address",
							"name": "",
							"type": "address"
						}
					],
					"stateMutability": "view",
					"type": "function"
				},
				{
					"inputs": [],
					"name": "renounceOwnership",
					"outputs": [],
					"stateMutability": "nonpayable",
					"type": "function"
				},
				{
					"inputs": [
						{
							"internalType": "uint256",
							"name": "_slippageTolerance",
							"type": "uint256"
						}
					],
					"name": "setSlippageTolerance",
					"outputs": [],
					"stateMutability": "nonpayable",
					"type": "function"
				},
				{
					"inputs": [],
					"name": "slippageTolerance",
					"outputs": [
						{
							"internalType": "uint256",
							"name": "",
							"type": "uint256"
						}
					],
					"stateMutability": "view",
					"type": "function"
				},
				{
					"inputs": [
						{
							"internalType": "contract IERC20",
							"name": "_token",
							"type": "address"
						},
						{
							"internalType": "uint256",
							"name": "_amountIn",
							"type": "uint256"
						},
						{
							"internalType": "enum Version",
							"name": "_version",
							"type": "uint8"
						},
						{
							"internalType": "address",
							"name": "_receiver",
							"type": "address"
						},
						{
							"internalType": "bytes",
							"name": "_path",
							"type": "bytes"
						}
					],
					"name": "swapTokenForToken",
					"outputs": [
						{
							"internalType": "uint256",
							"name": "",
							"type": "uint256"
						}
					],
					"stateMutability": "nonpayable",
					"type": "function"
				},
				{
					"inputs": [],
					"name": "symbol",
					"outputs": [
						{
							"internalType": "string",
							"name": "",
							"type": "string"
						}
					],
					"stateMutability": "view",
					"type": "function"
				},
				{
					"inputs": [],
					"name": "totalSupply",
					"outputs": [
						{
							"internalType": "uint256",
							"name": "",
							"type": "uint256"
						}
					],
					"stateMutability": "view",
					"type": "function"
				},
				{
					"inputs": [
						{
							"internalType": "address",
							"name": "to",
							"type": "address"
						},
						{
							"internalType": "uint256",
							"name": "value",
							"type": "uint256"
						}
					],
					"name": "transfer",
					"outputs": [
						{
							"internalType": "bool",
							"name": "",
							"type": "bool"
						}
					],
					"stateMutability": "nonpayable",
					"type": "function"
				},
				{
					"inputs": [
						{
							"internalType": "address",
							"name": "from",
							"type": "address"
						},
						{
							"internalType": "address",
							"name": "to",
							"type": "address"
						},
						{
							"internalType": "uint256",
							"name": "value",
							"type": "uint256"
						}
					],
					"name": "transferFrom",
					"outputs": [
						{
							"internalType": "bool",
							"name": "",
							"type": "bool"
						}
					],
					"stateMutability": "nonpayable",
					"type": "function"
				},
				{
					"inputs": [
						{
							"internalType": "address",
							"name": "newOwner",
							"type": "address"
						}
					],
					"name": "transferOwnership",
					"outputs": [],
					"stateMutability": "nonpayable",
					"type": "function"
				},
				{
					"inputs": [],
					"name": "uniswapV2Router",
					"outputs": [
						{
							"internalType": "contract IUniswapV2Router02",
							"name": "",
							"type": "address"
						}
					],
					"stateMutability": "view",
					"type": "function"
				},
				{
					"inputs": [],
					"name": "uniswapV3Quoter",
					"outputs": [
						{
							"internalType": "contract IUniswapV3Quoter",
							"name": "",
							"type": "address"
						}
					],
					"stateMutability": "view",
					"type": "function"
				},
				{
					"inputs": [],
					"name": "uniswapV3Router",
					"outputs": [
						{
							"internalType": "contract ISwapRouter",
							"name": "",
							"type": "address"
						}
					],
					"stateMutability": "view",
					"type": "function"
				},
				{
					"inputs": [
						{
							"internalType": "address",
							"name": "",
							"type": "address"
						}
					],
					"name": "userFailedSwaps",
					"outputs": [
						{
							"internalType": "uint256",
							"name": "",
							"type": "uint256"
						}
					],
					"stateMutability": "view",
					"type": "function"
				},
				{
					"inputs": [
						{
							"internalType": "address",
							"name": "_receiverFeeAddress",
							"type": "address"
						}
					],
					"name": "withdrawFeesByOwner",
					"outputs": [],
					"stateMutability": "nonpayable",
					"type": "function"
				},
				{
					"inputs": [
						{
							"internalType": "uint256",
							"name": "tokenAmount",
							"type": "uint256"
						}
					],
					"name": "withdrawInKind",
					"outputs": [],
					"stateMutability": "nonpayable",
					"type": "function"
				},
				{
					"inputs": [
						{
							"internalType": "uint256",
							"name": "tokenAmount",
							"type": "uint256"
						},
						{
							"internalType": "bytes",
							"name": "_path",
							"type": "bytes"
						}
					],
					"name": "withdrawToETH",
					"outputs": [],
					"stateMutability": "nonpayable",
					"type": "function"
				},
				{
					"inputs": [],
					"name": "withdrawalFee",
					"outputs": [
						{
							"internalType": "uint16",
							"name": "",
							"type": "uint16"
						}
					],
					"stateMutability": "view",
					"type": "function"
				}
			],
			"devdoc": {
				"errors": {
					"ERC20InsufficientAllowance(address,uint256,uint256)": [
						{
							"details": "Indicates a failure with the `spender`’s `allowance`. Used in transfers.",
							"params": {
								"allowance": "Amount of tokens a `spender` is allowed to operate with.",
								"needed": "Minimum amount required to perform a transfer.",
								"spender": "Address that may be allowed to operate on tokens without being their owner."
							}
						}
					],
					"ERC20InsufficientBalance(address,uint256,uint256)": [
						{
							"details": "Indicates an error related to the current `balance` of a `sender`. Used in transfers.",
							"params": {
								"balance": "Current balance for the interacting account.",
								"needed": "Minimum amount required to perform a transfer.",
								"sender": "Address whose tokens are being transferred."
							}
						}
					],
					"ERC20InvalidApprover(address)": [
						{
							"details": "Indicates a failure with the `approver` of a token to be approved. Used in approvals.",
							"params": {
								"approver": "Address initiating an approval operation."
							}
						}
					],
					"ERC20InvalidReceiver(address)": [
						{
							"details": "Indicates a failure with the token `receiver`. Used in transfers.",
							"params": {
								"receiver": "Address to which tokens are being transferred."
							}
						}
					],
					"ERC20InvalidSender(address)": [
						{
							"details": "Indicates a failure with the token `sender`. Used in transfers.",
							"params": {
								"sender": "Address whose tokens are being transferred."
							}
						}
					],
					"ERC20InvalidSpender(address)": [
						{
							"details": "Indicates a failure with the `spender` to be approved. Used in approvals.",
							"params": {
								"spender": "Address that may be allowed to operate on tokens without being their owner."
							}
						}
					],
					"OwnableInvalidOwner(address)": [
						{
							"details": "The owner is not a valid owner account. (eg. `address(0)`)"
						}
					],
					"OwnableUnauthorizedAccount(address)": [
						{
							"details": "The caller account is not authorized to perform an operation."
						}
					]
				},
				"events": {
					"Approval(address,address,uint256)": {
						"details": "Emitted when the allowance of a `spender` for an `owner` is set by a call to {approve}. `value` is the new allowance."
					},
					"Transfer(address,address,uint256)": {
						"details": "Emitted when `value` tokens are moved from one account (`from`) to another (`to`). Note that `value` may be zero."
					}
				},
				"kind": "dev",
				"methods": {
					"allowance(address,address)": {
						"details": "See {IERC20-allowance}."
					},
					"approve(address,uint256)": {
						"details": "See {IERC20-approve}. NOTE: If `value` is the maximum `uint256`, the allowance is not updated on `transferFrom`. This is semantically equivalent to an infinite approval. Requirements: - `spender` cannot be the zero address."
					},
					"balanceOf(address)": {
						"details": "See {IERC20-balanceOf}."
					},
					"decimals()": {
						"details": "Returns the number of decimals used to get its user representation. For example, if `decimals` equals `2`, a balance of `505` tokens should be displayed to a user as `5.05` (`505 / 10 ** 2`). Tokens usually opt for a value of 18, imitating the relationship between Ether and Wei. This is the default value returned by this function, unless it's overridden. NOTE: This information is only used for _display_ purposes: it in no way affects any of the arithmetic of the contract, including {IERC20-balanceOf} and {IERC20-transfer}."
					},
					"name()": {
						"details": "Returns the name of the token."
					},
					"owner()": {
						"details": "Returns the address of the current owner."
					},
					"renounceOwnership()": {
						"details": "Leaves the contract without owner. It will not be possible to call `onlyOwner` functions. Can only be called by the current owner. NOTE: Renouncing ownership will leave the contract without an owner, thereby disabling any functionality that is only available to the owner."
					},
					"symbol()": {
						"details": "Returns the symbol of the token, usually a shorter version of the name."
					},
					"totalSupply()": {
						"details": "See {IERC20-totalSupply}."
					},
					"transfer(address,uint256)": {
						"details": "See {IERC20-transfer}. Requirements: - `to` cannot be the zero address. - the caller must have a balance of at least `value`."
					},
					"transferFrom(address,address,uint256)": {
						"details": "See {IERC20-transferFrom}. Emits an {Approval} event indicating the updated allowance. This is not required by the EIP. See the note at the beginning of {ERC20}. NOTE: Does not update the allowance if the current allowance is the maximum `uint256`. Requirements: - `from` and `to` cannot be the zero address. - `from` must have a balance of at least `value`. - the caller must have allowance for ``from``'s tokens of at least `value`."
					},
					"transferOwnership(address)": {
						"details": "Transfers ownership of the contract to a new account (`newOwner`). Can only be called by the current owner."
					}
				},
				"version": 1
			},
			"evm": {
				"assembly": "    /* \"contracts/PYGGportfolioManagement.sol\":399:5713  contract PYGGportfolioManagement is Ownable, ERC20, SwapOperationManager {... */\n  mstore(0x40, 0x80)\n    /* \"contracts/PYGGportfolioManagement.sol\":615:650  bool public initialedTokens = false */\n  0x0e\n  dup1\n  sload\n  not(shl(0x20, 0xff))\n  and\n  swap1\n  sstore\n    /* \"contracts/PYGGportfolioManagement.sol\":816:1178  constructor(... */\n  callvalue\n  dup1\n  iszero\n  tag_1\n  jumpi\n  0x00\n  dup1\n  revert\ntag_1:\n  pop\n  mload(0x40)\n  sub(codesize, bytecodeSize)\n  dup1\n  bytecodeSize\n  dup4\n  codecopy\n  dup2\n  add\n  0x40\n  dup2\n  swap1\n  mstore\n  tag_2\n  swap2\n  tag_3\n  jump\t// in\ntag_2:\n    /* \"contracts/PYGGportfolioManagement.sol\":1083:1099  _uniswapV2Router */\n  dup3\n    /* \"contracts/PYGGportfolioManagement.sol\":1101:1117  _uniswapV3Router */\n  dup3\n    /* \"contracts/PYGGportfolioManagement.sol\":1119:1135  _uniswapV3Quoter */\n  dup3\n    /* \"contracts/PYGGportfolioManagement.sol\":1038:1043  _name */\n  dup8\n    /* \"contracts/PYGGportfolioManagement.sol\":1045:1052  _symbol */\n  dup8\n    /* \"contracts/PYGGportfolioManagement.sol\":1012:1022  msg.sender */\n  caller\n  dup1\n    /* \"@openzeppelin/contracts/access/Ownable.sol\":1269:1364  if (initialOwner == address(0)) {... */\n  tag_9\n  jumpi\n    /* \"@openzeppelin/contracts/access/Ownable.sol\":1322:1353  OwnableInvalidOwner(address(0)) */\n  mload(0x40)\n  shl(0xe0, 0x1e4fbdf7)\n  dup2\n  mstore\n    /* \"@openzeppelin/contracts/access/Ownable.sol\":1350:1351  0 */\n  0x00\n    /* \"@openzeppelin/contracts/access/Ownable.sol\":1322:1353  OwnableInvalidOwner(address(0)) */\n  0x04\n  dup3\n  add\n    /* \"#utility.yul\":2143:2194   */\n  mstore\n    /* \"#utility.yul\":2116:2134   */\n  0x24\n  add\n    /* \"@openzeppelin/contracts/access/Ownable.sol\":1322:1353  OwnableInvalidOwner(address(0)) */\n  mload(0x40)\n  dup1\n  swap2\n  sub\n  swap1\n  revert\n    /* \"@openzeppelin/contracts/access/Ownable.sol\":1269:1364  if (initialOwner == address(0)) {... */\ntag_9:\n    /* \"@openzeppelin/contracts/access/Ownable.sol\":1373:1405  _transferOwnership(initialOwner) */\n  tag_12\n    /* \"@openzeppelin/contracts/access/Ownable.sol\":1392:1404  initialOwner */\n  dup2\n    /* \"@openzeppelin/contracts/access/Ownable.sol\":1373:1391  _transferOwnership */\n  tag_13\n    /* \"@openzeppelin/contracts/access/Ownable.sol\":1373:1405  _transferOwnership(initialOwner) */\n  jump\t// in\ntag_12:\n  pop\n    /* \"@openzeppelin/contracts/token/ERC20/ERC20.sol\":1962:1967  _name */\n  0x04\n    /* \"@openzeppelin/contracts/token/ERC20/ERC20.sol\":1962:1975  _name = name_ */\n  tag_15\n    /* \"@openzeppelin/contracts/token/ERC20/ERC20.sol\":1970:1975  name_ */\n  dup4\n    /* \"@openzeppelin/contracts/token/ERC20/ERC20.sol\":1962:1967  _name */\n  dup3\n    /* \"@openzeppelin/contracts/token/ERC20/ERC20.sol\":1962:1975  _name = name_ */\n  tag_16\n  jump\t// in\ntag_15:\n  pop\n    /* \"@openzeppelin/contracts/token/ERC20/ERC20.sol\":1985:1992  _symbol */\n  0x05\n    /* \"@openzeppelin/contracts/token/ERC20/ERC20.sol\":1985:2002  _symbol = symbol_ */\n  tag_17\n    /* \"@openzeppelin/contracts/token/ERC20/ERC20.sol\":1995:2002  symbol_ */\n  dup3\n    /* \"@openzeppelin/contracts/token/ERC20/ERC20.sol\":1985:1992  _symbol */\n  dup3\n    /* \"@openzeppelin/contracts/token/ERC20/ERC20.sol\":1985:2002  _symbol = symbol_ */\n  tag_16\n  jump\t// in\ntag_17:\n  pop\n  pop\n    /* \"contracts/SwapOperationManager.sol\":855:870  uniswapV2Router */\n  0x09\n    /* \"contracts/SwapOperationManager.sol\":855:909  uniswapV2Router = IUniswapV2Router02(_uniswapV2Router) */\n  dup1\n  sload\n  sub(shl(0xa0, 0x01), 0x01)\n  swap6\n  dup7\n  and\n  not(sub(shl(0xa0, 0x01), 0x01))\n  swap2\n  dup3\n  and\n  or\n  swap1\n  swap2\n  sstore\n    /* \"contracts/SwapOperationManager.sol\":919:934  uniswapV3Router */\n  0x0a\n    /* \"contracts/SwapOperationManager.sol\":919:966  uniswapV3Router = ISwapRouter(_uniswapV3Router) */\n  dup1\n  sload\n  swap5\n  dup7\n  and\n  swap5\n  dup3\n  and\n  swap5\n  swap1\n  swap5\n  or\n  swap1\n  swap4\n  sstore\n  pop\n    /* \"contracts/SwapOperationManager.sol\":976:991  uniswapV3Quoter */\n  0x0b\n    /* \"contracts/SwapOperationManager.sol\":976:1028  uniswapV3Quoter = IUniswapV3Quoter(_uniswapV3Quoter) */\n  dup1\n  sload\n  swap2\n  swap1\n  swap4\n  and\n  swap1\n  dup3\n  and\n  or\n  swap1\n  swap2\n  sstore\n    /* \"contracts/SwapOperationManager.sol\":1058:1062  1000 */\n  0x03e8\n    /* \"contracts/SwapOperationManager.sol\":1038:1055  slippageTolerance */\n  0x07\n    /* \"contracts/SwapOperationManager.sol\":1038:1062  slippageTolerance = 1000 */\n  sstore\n    /* \"contracts/PYGGportfolioManagement.sol\":1151:1158  factory */\n  0x10\n    /* \"contracts/PYGGportfolioManagement.sol\":1151:1171  factory = msg.sender */\n  dup1\n  sload\n  swap1\n  swap2\n  and\n    /* \"contracts/PYGGportfolioManagement.sol\":1161:1171  msg.sender */\n  caller\n    /* \"contracts/PYGGportfolioManagement.sol\":1151:1171  factory = msg.sender */\n  or\n  swap1\n  sstore\n  pop\n    /* \"contracts/PYGGportfolioManagement.sol\":399:5713  contract PYGGportfolioManagement is Ownable, ERC20, SwapOperationManager {... */\n  tag_29\n  swap4\n  pop\n  pop\n  pop\n  pop\n  jump\n    /* \"@openzeppelin/contracts/access/Ownable.sol\":2912:3099  function _transferOwnership(address newOwner) internal virtual {... */\ntag_13:\n    /* \"@openzeppelin/contracts/access/Ownable.sol\":2985:3001  address oldOwner */\n  0x00\n    /* \"@openzeppelin/contracts/access/Ownable.sol\":3004:3010  _owner */\n  dup1\n  sload\n  sub(shl(0xa0, 0x01), 0x01)\n    /* \"@openzeppelin/contracts/access/Ownable.sol\":3020:3037  _owner = newOwner */\n  dup4\n  dup2\n  and\n  not(sub(shl(0xa0, 0x01), 0x01))\n  dup4\n  and\n  dup2\n  or\n  dup5\n  sstore\n    /* \"@openzeppelin/contracts/access/Ownable.sol\":3052:3092  OwnershipTransferred(oldOwner, newOwner) */\n  mload(0x40)\n    /* \"@openzeppelin/contracts/access/Ownable.sol\":3004:3010  _owner */\n  swap2\n  swap1\n  swap3\n  and\n  swap3\n  dup4\n  swap2\n    /* \"@openzeppelin/contracts/access/Ownable.sol\":3052:3092  OwnershipTransferred(oldOwner, newOwner) */\n  0x8be0079c531659141344cd1fd0a4f28419497f9722a3daafe3b4186f6b6457e0\n  swap2\n    /* \"@openzeppelin/contracts/access/Ownable.sol\":2985:3001  address oldOwner */\n  swap1\n    /* \"@openzeppelin/contracts/access/Ownable.sol\":3052:3092  OwnershipTransferred(oldOwner, newOwner) */\n  log3\n    /* \"@openzeppelin/contracts/access/Ownable.sol\":2975:3099  {... */\n  pop\n    /* \"@openzeppelin/contracts/access/Ownable.sol\":2912:3099  function _transferOwnership(address newOwner) internal virtual {... */\n  pop\n  jump\t// out\n    /* \"#utility.yul\":14:141   */\ntag_22:\n    /* \"#utility.yul\":75:85   */\n  0x4e487b71\n    /* \"#utility.yul\":70:73   */\n  0xe0\n    /* \"#utility.yul\":66:86   */\n  shl\n    /* \"#utility.yul\":63:64   */\n  0x00\n    /* \"#utility.yul\":56:87   */\n  mstore\n    /* \"#utility.yul\":106:110   */\n  0x41\n    /* \"#utility.yul\":103:104   */\n  0x04\n    /* \"#utility.yul\":96:111   */\n  mstore\n    /* \"#utility.yul\":130:134   */\n  0x24\n    /* \"#utility.yul\":127:128   */\n  0x00\n    /* \"#utility.yul\":120:135   */\n  revert\n    /* \"#utility.yul\":146:986   */\ntag_23:\n    /* \"#utility.yul\":200:205   */\n  0x00\n    /* \"#utility.yul\":253:256   */\n  dup3\n    /* \"#utility.yul\":246:250   */\n  0x1f\n    /* \"#utility.yul\":238:244   */\n  dup4\n    /* \"#utility.yul\":234:251   */\n  add\n    /* \"#utility.yul\":230:257   */\n  slt\n    /* \"#utility.yul\":220:275   */\n  tag_32\n  jumpi\n    /* \"#utility.yul\":271:272   */\n  0x00\n    /* \"#utility.yul\":268:269   */\n  dup1\n    /* \"#utility.yul\":261:273   */\n  revert\n    /* \"#utility.yul\":220:275   */\ntag_32:\n    /* \"#utility.yul\":294:307   */\n  dup2\n  mload\n  sub(shl(0x40, 0x01), 0x01)\n    /* \"#utility.yul\":356:366   */\n  dup1\n  dup3\n  gt\n    /* \"#utility.yul\":353:389   */\n  iszero\n  tag_34\n  jumpi\n    /* \"#utility.yul\":369:387   */\n  tag_34\n  tag_22\n  jump\t// in\ntag_34:\n    /* \"#utility.yul\":444:446   */\n  0x40\n    /* \"#utility.yul\":438:447   */\n  mload\n    /* \"#utility.yul\":412:414   */\n  0x1f\n    /* \"#utility.yul\":498:511   */\n  dup4\n  add\n  not(0x1f)\n    /* \"#utility.yul\":494:516   */\n  swap1\n  dup2\n  and\n    /* \"#utility.yul\":518:520   */\n  0x3f\n    /* \"#utility.yul\":490:521   */\n  add\n    /* \"#utility.yul\":486:526   */\n  and\n    /* \"#utility.yul\":474:527   */\n  dup2\n  add\n  swap1\n    /* \"#utility.yul\":542:560   */\n  dup3\n  dup3\n  gt\n    /* \"#utility.yul\":562:584   */\n  dup2\n  dup4\n  lt\n    /* \"#utility.yul\":539:585   */\n  or\n    /* \"#utility.yul\":536:608   */\n  iszero\n  tag_36\n  jumpi\n    /* \"#utility.yul\":588:606   */\n  tag_36\n  tag_22\n  jump\t// in\ntag_36:\n    /* \"#utility.yul\":628:638   */\n  dup2\n    /* \"#utility.yul\":624:626   */\n  0x40\n    /* \"#utility.yul\":617:639   */\n  mstore\n    /* \"#utility.yul\":663:665   */\n  dup4\n    /* \"#utility.yul\":655:661   */\n  dup2\n    /* \"#utility.yul\":648:666   */\n  mstore\n    /* \"#utility.yul\":685:689   */\n  0x20\n    /* \"#utility.yul\":675:689   */\n  swap3\n  pop\n    /* \"#utility.yul\":730:733   */\n  dup7\n    /* \"#utility.yul\":725:727   */\n  dup4\n    /* \"#utility.yul\":720:722   */\n  dup6\n    /* \"#utility.yul\":712:718   */\n  dup9\n    /* \"#utility.yul\":708:723   */\n  add\n    /* \"#utility.yul\":704:728   */\n  add\n    /* \"#utility.yul\":701:734   */\n  gt\n    /* \"#utility.yul\":698:751   */\n  iszero\n  tag_37\n  jumpi\n    /* \"#utility.yul\":747:748   */\n  0x00\n    /* \"#utility.yul\":744:745   */\n  dup1\n    /* \"#utility.yul\":737:749   */\n  revert\n    /* \"#utility.yul\":698:751   */\ntag_37:\n    /* \"#utility.yul\":769:770   */\n  0x00\n    /* \"#utility.yul\":760:770   */\n  swap2\n  pop\n    /* \"#utility.yul\":779:912   */\ntag_38:\n    /* \"#utility.yul\":793:795   */\n  dup4\n    /* \"#utility.yul\":790:791   */\n  dup3\n    /* \"#utility.yul\":787:796   */\n  lt\n    /* \"#utility.yul\":779:912   */\n  iszero\n  tag_40\n  jumpi\n    /* \"#utility.yul\":881:895   */\n  dup6\n  dup3\n  add\n    /* \"#utility.yul\":877:900   */\n  dup4\n  add\n    /* \"#utility.yul\":871:901   */\n  mload\n    /* \"#utility.yul\":850:864   */\n  dup2\n  dup4\n  add\n    /* \"#utility.yul\":846:869   */\n  dup5\n  add\n    /* \"#utility.yul\":839:902   */\n  mstore\n    /* \"#utility.yul\":804:814   */\n  swap1\n  dup3\n  add\n  swap1\n    /* \"#utility.yul\":779:912   */\n  jump(tag_38)\ntag_40:\n    /* \"#utility.yul\":954:955   */\n  0x00\n    /* \"#utility.yul\":932:947   */\n  swap4\n  dup2\n  add\n    /* \"#utility.yul\":928:952   */\n  swap1\n  swap3\n  add\n    /* \"#utility.yul\":921:956   */\n  swap3\n  swap1\n  swap3\n  mstore\n    /* \"#utility.yul\":936:942   */\n  swap5\n    /* \"#utility.yul\":146:986   */\n  swap4\n  pop\n  pop\n  pop\n  pop\n  jump\t// out\n    /* \"#utility.yul\":991:1168   */\ntag_24:\n    /* \"#utility.yul\":1070:1083   */\n  dup1\n  mload\n  sub(shl(0xa0, 0x01), 0x01)\n    /* \"#utility.yul\":1112:1143   */\n  dup2\n  and\n    /* \"#utility.yul\":1102:1144   */\n  dup2\n  eq\n    /* \"#utility.yul\":1092:1162   */\n  tag_42\n  jumpi\n    /* \"#utility.yul\":1158:1159   */\n  0x00\n    /* \"#utility.yul\":1155:1156   */\n  dup1\n    /* \"#utility.yul\":1148:1160   */\n  revert\n    /* \"#utility.yul\":1092:1162   */\ntag_42:\n    /* \"#utility.yul\":991:1168   */\n  swap2\n  swap1\n  pop\n  jump\t// out\n    /* \"#utility.yul\":1173:1992   */\ntag_3:\n    /* \"#utility.yul\":1299:1305   */\n  0x00\n    /* \"#utility.yul\":1307:1313   */\n  dup1\n    /* \"#utility.yul\":1315:1321   */\n  0x00\n    /* \"#utility.yul\":1323:1329   */\n  dup1\n    /* \"#utility.yul\":1331:1337   */\n  0x00\n    /* \"#utility.yul\":1384:1387   */\n  0xa0\n    /* \"#utility.yul\":1372:1381   */\n  dup7\n    /* \"#utility.yul\":1363:1370   */\n  dup9\n    /* \"#utility.yul\":1359:1382   */\n  sub\n    /* \"#utility.yul\":1355:1388   */\n  slt\n    /* \"#utility.yul\":1352:1405   */\n  iszero\n  tag_44\n  jumpi\n    /* \"#utility.yul\":1401:1402   */\n  0x00\n    /* \"#utility.yul\":1398:1399   */\n  dup1\n    /* \"#utility.yul\":1391:1403   */\n  revert\n    /* \"#utility.yul\":1352:1405   */\ntag_44:\n    /* \"#utility.yul\":1428:1444   */\n  dup6\n  mload\n  sub(shl(0x40, 0x01), 0x01)\n    /* \"#utility.yul\":1493:1507   */\n  dup1\n  dup3\n  gt\n    /* \"#utility.yul\":1490:1524   */\n  iszero\n  tag_45\n  jumpi\n    /* \"#utility.yul\":1520:1521   */\n  0x00\n    /* \"#utility.yul\":1517:1518   */\n  dup1\n    /* \"#utility.yul\":1510:1522   */\n  revert\n    /* \"#utility.yul\":1490:1524   */\ntag_45:\n    /* \"#utility.yul\":1543:1604   */\n  tag_46\n    /* \"#utility.yul\":1596:1603   */\n  dup10\n    /* \"#utility.yul\":1587:1593   */\n  dup4\n    /* \"#utility.yul\":1576:1585   */\n  dup11\n    /* \"#utility.yul\":1572:1594   */\n  add\n    /* \"#utility.yul\":1543:1604   */\n  tag_23\n  jump\t// in\ntag_46:\n    /* \"#utility.yul\":1533:1604   */\n  swap7\n  pop\n    /* \"#utility.yul\":1650:1652   */\n  0x20\n    /* \"#utility.yul\":1639:1648   */\n  dup9\n    /* \"#utility.yul\":1635:1653   */\n  add\n    /* \"#utility.yul\":1629:1654   */\n  mload\n    /* \"#utility.yul\":1613:1654   */\n  swap2\n  pop\n    /* \"#utility.yul\":1679:1681   */\n  dup1\n    /* \"#utility.yul\":1669:1677   */\n  dup3\n    /* \"#utility.yul\":1666:1682   */\n  gt\n    /* \"#utility.yul\":1663:1699   */\n  iszero\n  tag_47\n  jumpi\n    /* \"#utility.yul\":1695:1696   */\n  0x00\n    /* \"#utility.yul\":1692:1693   */\n  dup1\n    /* \"#utility.yul\":1685:1697   */\n  revert\n    /* \"#utility.yul\":1663:1699   */\ntag_47:\n  pop\n    /* \"#utility.yul\":1718:1781   */\n  tag_48\n    /* \"#utility.yul\":1773:1780   */\n  dup9\n    /* \"#utility.yul\":1762:1770   */\n  dup3\n    /* \"#utility.yul\":1751:1760   */\n  dup10\n    /* \"#utility.yul\":1747:1771   */\n  add\n    /* \"#utility.yul\":1718:1781   */\n  tag_23\n  jump\t// in\ntag_48:\n    /* \"#utility.yul\":1708:1781   */\n  swap5\n  pop\n  pop\n    /* \"#utility.yul\":1800:1849   */\n  tag_49\n    /* \"#utility.yul\":1845:1847   */\n  0x40\n    /* \"#utility.yul\":1834:1843   */\n  dup8\n    /* \"#utility.yul\":1830:1848   */\n  add\n    /* \"#utility.yul\":1800:1849   */\n  tag_24\n  jump\t// in\ntag_49:\n    /* \"#utility.yul\":1790:1849   */\n  swap3\n  pop\n    /* \"#utility.yul\":1868:1917   */\n  tag_50\n    /* \"#utility.yul\":1913:1915   */\n  0x60\n    /* \"#utility.yul\":1902:1911   */\n  dup8\n    /* \"#utility.yul\":1898:1916   */\n  add\n    /* \"#utility.yul\":1868:1917   */\n  tag_24\n  jump\t// in\ntag_50:\n    /* \"#utility.yul\":1858:1917   */\n  swap2\n  pop\n    /* \"#utility.yul\":1936:1986   */\n  tag_51\n    /* \"#utility.yul\":1981:1984   */\n  0x80\n    /* \"#utility.yul\":1970:1979   */\n  dup8\n    /* \"#utility.yul\":1966:1985   */\n  add\n    /* \"#utility.yul\":1936:1986   */\n  tag_24\n  jump\t// in\ntag_51:\n    /* \"#utility.yul\":1926:1986   */\n  swap1\n  pop\n    /* \"#utility.yul\":1173:1992   */\n  swap3\n  swap6\n  pop\n  swap3\n  swap6\n  swap1\n  swap4\n  pop\n  jump\t// out\n    /* \"#utility.yul\":2205:2585   */\ntag_25:\n    /* \"#utility.yul\":2284:2285   */\n  0x01\n    /* \"#utility.yul\":2280:2292   */\n  dup2\n  dup2\n  shr\n  swap1\n    /* \"#utility.yul\":2327:2339   */\n  dup3\n  and\n  dup1\n    /* \"#utility.yul\":2348:2409   */\n  tag_54\n  jumpi\n    /* \"#utility.yul\":2402:2406   */\n  0x7f\n    /* \"#utility.yul\":2394:2400   */\n  dup3\n    /* \"#utility.yul\":2390:2407   */\n  and\n    /* \"#utility.yul\":2380:2407   */\n  swap2\n  pop\n    /* \"#utility.yul\":2348:2409   */\ntag_54:\n    /* \"#utility.yul\":2455:2457   */\n  0x20\n    /* \"#utility.yul\":2447:2453   */\n  dup3\n    /* \"#utility.yul\":2444:2458   */\n  lt\n    /* \"#utility.yul\":2424:2442   */\n  dup2\n    /* \"#utility.yul\":2421:2459   */\n  sub\n    /* \"#utility.yul\":2418:2579   */\n  tag_55\n  jumpi\n    /* \"#utility.yul\":2501:2511   */\n  0x4e487b71\n    /* \"#utility.yul\":2496:2499   */\n  0xe0\n    /* \"#utility.yul\":2492:2512   */\n  shl\n    /* \"#utility.yul\":2489:2490   */\n  0x00\n    /* \"#utility.yul\":2482:2513   */\n  mstore\n    /* \"#utility.yul\":2536:2540   */\n  0x22\n    /* \"#utility.yul\":2533:2534   */\n  0x04\n    /* \"#utility.yul\":2526:2541   */\n  mstore\n    /* \"#utility.yul\":2564:2568   */\n  0x24\n    /* \"#utility.yul\":2561:2562   */\n  0x00\n    /* \"#utility.yul\":2554:2569   */\n  revert\n    /* \"#utility.yul\":2418:2579   */\ntag_55:\n  pop\n    /* \"#utility.yul\":2205:2585   */\n  swap2\n  swap1\n  pop\n  jump\t// out\n    /* \"#utility.yul\":2716:3261   */\ntag_27:\n    /* \"#utility.yul\":2818:2820   */\n  0x1f\n    /* \"#utility.yul\":2813:2816   */\n  dup3\n    /* \"#utility.yul\":2810:2821   */\n  gt\n    /* \"#utility.yul\":2807:3255   */\n  iszero\n  tag_58\n  jumpi\n    /* \"#utility.yul\":2854:2855   */\n  0x00\n    /* \"#utility.yul\":2879:2884   */\n  dup2\n    /* \"#utility.yul\":2875:2877   */\n  dup2\n    /* \"#utility.yul\":2868:2885   */\n  mstore\n    /* \"#utility.yul\":2924:2928   */\n  0x20\n    /* \"#utility.yul\":2920:2922   */\n  dup2\n    /* \"#utility.yul\":2910:2929   */\n  keccak256\n    /* \"#utility.yul\":2994:2996   */\n  0x1f\n    /* \"#utility.yul\":2982:2992   */\n  dup6\n    /* \"#utility.yul\":2978:2997   */\n  add\n    /* \"#utility.yul\":2975:2976   */\n  0x05\n    /* \"#utility.yul\":2971:2998   */\n  shr\n    /* \"#utility.yul\":2965:2969   */\n  dup2\n    /* \"#utility.yul\":2961:2999   */\n  add\n    /* \"#utility.yul\":3030:3034   */\n  0x20\n    /* \"#utility.yul\":3018:3028   */\n  dup7\n    /* \"#utility.yul\":3015:3035   */\n  lt\n    /* \"#utility.yul\":3012:3059   */\n  iszero\n  tag_59\n  jumpi\n  pop\n    /* \"#utility.yul\":3053:3057   */\n  dup1\n    /* \"#utility.yul\":3012:3059   */\ntag_59:\n    /* \"#utility.yul\":3108:3110   */\n  0x1f\n    /* \"#utility.yul\":3103:3106   */\n  dup6\n    /* \"#utility.yul\":3099:3111   */\n  add\n    /* \"#utility.yul\":3096:3097   */\n  0x05\n    /* \"#utility.yul\":3092:3112   */\n  shr\n    /* \"#utility.yul\":3086:3090   */\n  dup3\n    /* \"#utility.yul\":3082:3113   */\n  add\n    /* \"#utility.yul\":3072:3113   */\n  swap2\n  pop\n    /* \"#utility.yul\":3163:3245   */\ntag_60:\n    /* \"#utility.yul\":3181:3183   */\n  dup2\n    /* \"#utility.yul\":3174:3179   */\n  dup2\n    /* \"#utility.yul\":3171:3184   */\n  lt\n    /* \"#utility.yul\":3163:3245   */\n  iszero\n  tag_62\n  jumpi\n    /* \"#utility.yul\":3226:3243   */\n  dup3\n  dup2\n  sstore\n    /* \"#utility.yul\":3207:3208   */\n  0x01\n    /* \"#utility.yul\":3196:3209   */\n  add\n    /* \"#utility.yul\":3163:3245   */\n  jump(tag_60)\ntag_62:\n    /* \"#utility.yul\":3167:3170   */\n  pop\n  pop\n  pop\n    /* \"#utility.yul\":2807:3255   */\ntag_58:\n    /* \"#utility.yul\":2716:3261   */\n  pop\n  pop\n  pop\n  jump\t// out\n    /* \"#utility.yul\":3437:4789   */\ntag_16:\n    /* \"#utility.yul\":3557:3567   */\n  dup2\n  mload\n  sub(shl(0x40, 0x01), 0x01)\n    /* \"#utility.yul\":3579:3609   */\n  dup2\n  gt\n    /* \"#utility.yul\":3576:3632   */\n  iszero\n  tag_66\n  jumpi\n    /* \"#utility.yul\":3612:3630   */\n  tag_66\n  tag_22\n  jump\t// in\ntag_66:\n    /* \"#utility.yul\":3641:3738   */\n  tag_67\n    /* \"#utility.yul\":3731:3737   */\n  dup2\n    /* \"#utility.yul\":3691:3729   */\n  tag_68\n    /* \"#utility.yul\":3723:3727   */\n  dup5\n    /* \"#utility.yul\":3717:3728   */\n  sload\n    /* \"#utility.yul\":3691:3729   */\n  tag_25\n  jump\t// in\ntag_68:\n    /* \"#utility.yul\":3685:3689   */\n  dup5\n    /* \"#utility.yul\":3641:3738   */\n  tag_27\n  jump\t// in\ntag_67:\n    /* \"#utility.yul\":3793:3797   */\n  0x20\n  dup1\n    /* \"#utility.yul\":3857:3859   */\n  0x1f\n    /* \"#utility.yul\":3846:3860   */\n  dup4\n  gt\n    /* \"#utility.yul\":3874:3875   */\n  0x01\n    /* \"#utility.yul\":3869:4532   */\n  dup2\n  eq\n  tag_70\n  jumpi\n    /* \"#utility.yul\":4576:4577   */\n  0x00\n    /* \"#utility.yul\":4593:4599   */\n  dup5\n    /* \"#utility.yul\":4590:4679   */\n  iszero\n  tag_71\n  jumpi\n  pop\n    /* \"#utility.yul\":4645:4664   */\n  dup6\n  dup4\n  add\n    /* \"#utility.yul\":4639:4665   */\n  mload\n    /* \"#utility.yul\":4590:4679   */\ntag_71:\n  not(0x00)\n    /* \"#utility.yul\":3394:3395   */\n  0x03\n    /* \"#utility.yul\":3390:3401   */\n  dup7\n  swap1\n  shl\n    /* \"#utility.yul\":3386:3410   */\n  shr\n    /* \"#utility.yul\":3382:3411   */\n  not\n    /* \"#utility.yul\":3372:3412   */\n  and\n    /* \"#utility.yul\":3418:3419   */\n  0x01\n    /* \"#utility.yul\":3414:3425   */\n  dup6\n  swap1\n  shl\n    /* \"#utility.yul\":3369:3426   */\n  or\n    /* \"#utility.yul\":4692:4773   */\n  dup6\n  sstore\n    /* \"#utility.yul\":3839:4783   */\n  jump(tag_62)\n    /* \"#utility.yul\":3869:4532   */\ntag_70:\n    /* \"#utility.yul\":2663:2664   */\n  0x00\n    /* \"#utility.yul\":2656:2670   */\n  dup6\n  dup2\n  mstore\n    /* \"#utility.yul\":2700:2704   */\n  0x20\n    /* \"#utility.yul\":2687:2705   */\n  dup2\n  keccak256\n  not(0x1f)\n    /* \"#utility.yul\":3905:3925   */\n  dup7\n  and\n  swap2\n    /* \"#utility.yul\":4023:4259   */\ntag_74:\n    /* \"#utility.yul\":4037:4044   */\n  dup3\n    /* \"#utility.yul\":4034:4035   */\n  dup2\n    /* \"#utility.yul\":4031:4045   */\n  lt\n    /* \"#utility.yul\":4023:4259   */\n  iszero\n  tag_76\n  jumpi\n    /* \"#utility.yul\":4126:4145   */\n  dup9\n  dup7\n  add\n    /* \"#utility.yul\":4120:4146   */\n  mload\n    /* \"#utility.yul\":4105:4147   */\n  dup3\n  sstore\n    /* \"#utility.yul\":4218:4245   */\n  swap5\n  dup5\n  add\n  swap5\n    /* \"#utility.yul\":4186:4187   */\n  0x01\n    /* \"#utility.yul\":4174:4188   */\n  swap1\n  swap2\n  add\n  swap1\n    /* \"#utility.yul\":4053:4072   */\n  dup5\n  add\n    /* \"#utility.yul\":4023:4259   */\n  jump(tag_74)\ntag_76:\n    /* \"#utility.yul\":4027:4030   */\n  pop\n    /* \"#utility.yul\":4287:4293   */\n  dup6\n    /* \"#utility.yul\":4278:4285   */\n  dup3\n    /* \"#utility.yul\":4275:4294   */\n  lt\n    /* \"#utility.yul\":4272:4473   */\n  iszero\n  tag_77\n  jumpi\n    /* \"#utility.yul\":4348:4367   */\n  dup8\n  dup6\n  add\n    /* \"#utility.yul\":4342:4368   */\n  mload\n  not(0x00)\n    /* \"#utility.yul\":4431:4432   */\n  0x03\n    /* \"#utility.yul\":4427:4441   */\n  dup9\n  swap1\n  shl\n    /* \"#utility.yul\":4443:4446   */\n  0xf8\n    /* \"#utility.yul\":4423:4447   */\n  and\n    /* \"#utility.yul\":4419:4456   */\n  shr\n    /* \"#utility.yul\":4415:4457   */\n  not\n    /* \"#utility.yul\":4400:4458   */\n  and\n    /* \"#utility.yul\":4385:4459   */\n  dup2\n  sstore\n    /* \"#utility.yul\":4272:4473   */\ntag_77:\n  pop\n  pop\n  pop\n  pop\n  pop\n    /* \"#utility.yul\":4519:4520   */\n  0x01\n    /* \"#utility.yul\":4503:4517   */\n  swap1\n  dup2\n  shl\n    /* \"#utility.yul\":4499:4521   */\n  add\n    /* \"#utility.yul\":4486:4522   */\n  swap1\n  sstore\n  pop\n    /* \"#utility.yul\":3437:4789   */\n  jump\t// out\ntag_29:\n    /* \"contracts/PYGGportfolioManagement.sol\":399:5713  contract PYGGportfolioManagement is Ownable, ERC20, SwapOperationManager {... */\n  dataSize(sub_0)\n  dup1\n  dataOffset(sub_0)\n  0x00\n  codecopy\n  0x00\n  return\nstop\n\nsub_0: assembly {\n        /* \"contracts/PYGGportfolioManagement.sol\":399:5713  contract PYGGportfolioManagement is Ownable, ERC20, SwapOperationManager {... */\n      mstore(0x40, 0x80)\n      jumpi(tag_1, lt(calldatasize, 0x04))\n      shr(0xe0, calldataload(0x00))\n      dup1\n      0x67a52793\n      gt\n      tag_32\n      jumpi\n      dup1\n      0x945098db\n      gt\n      tag_33\n      jumpi\n      dup1\n      0xc38cd0b5\n      gt\n      tag_34\n      jumpi\n      dup1\n      0xc38cd0b5\n      eq\n      tag_28\n      jumpi\n      dup1\n      0xd03153aa\n      eq\n      tag_29\n      jumpi\n      dup1\n      0xdd62ed3e\n      eq\n      tag_30\n      jumpi\n      dup1\n      0xf2fde38b\n      eq\n      tag_31\n      jumpi\n      0x00\n      dup1\n      revert\n    tag_34:\n      dup1\n      0x945098db\n      eq\n      tag_24\n      jumpi\n      dup1\n      0x95d89b41\n      eq\n      tag_25\n      jumpi\n      dup1\n      0xa738c7df\n      eq\n      tag_26\n      jumpi\n      dup1\n      0xa9059cbb\n      eq\n      tag_27\n      jumpi\n      0x00\n      dup1\n      revert\n    tag_33:\n      dup1\n      0x74a66061\n      gt\n      tag_35\n      jumpi\n      dup1\n      0x74a66061\n      eq\n      tag_20\n      jumpi\n      dup1\n      0x81a06b73\n      eq\n      tag_21\n      jumpi\n      dup1\n      0x8bc7e8c4\n      eq\n      tag_22\n      jumpi\n      dup1\n      0x8da5cb5b\n      eq\n      tag_23\n      jumpi\n      0x00\n      dup1\n      revert\n    tag_35:\n      dup1\n      0x67a52793\n      eq\n      tag_17\n      jumpi\n      dup1\n      0x70a08231\n      eq\n      tag_18\n      jumpi\n      dup1\n      0x715018a6\n      eq\n      tag_19\n      jumpi\n      0x00\n      dup1\n      revert\n    tag_32:\n      dup1\n      0x2a5c792a\n      gt\n      tag_36\n      jumpi\n      dup1\n      0x36a43f2b\n      gt\n      tag_37\n      jumpi\n      dup1\n      0x36a43f2b\n      eq\n      tag_13\n      jumpi\n      dup1\n      0x378a653c\n      eq\n      tag_14\n      jumpi\n      dup1\n      0x3f595e29\n      eq\n      tag_15\n      jumpi\n      dup1\n      0x4d20d0f8\n      eq\n      tag_16\n      jumpi\n      0x00\n      dup1\n      revert\n    tag_37:\n      dup1\n      0x2a5c792a\n      eq\n      tag_9\n      jumpi\n      dup1\n      0x2c76d7a6\n      eq\n      tag_10\n      jumpi\n      dup1\n      0x3043d4d9\n      eq\n      tag_11\n      jumpi\n      dup1\n      0x313ce567\n      eq\n      tag_12\n      jumpi\n      0x00\n      dup1\n      revert\n    tag_36:\n      dup1\n      0x117da1ee\n      gt\n      tag_38\n      jumpi\n      dup1\n      0x117da1ee\n      eq\n      tag_5\n      jumpi\n      dup1\n      0x1694505e\n      eq\n      tag_6\n      jumpi\n      dup1\n      0x18160ddd\n      eq\n      tag_7\n      jumpi\n      dup1\n      0x23b872dd\n      eq\n      tag_8\n      jumpi\n      0x00\n      dup1\n      revert\n    tag_38:\n      dup1\n      0xd06ddd\n      eq\n      tag_2\n      jumpi\n      dup1\n      0x06fdde03\n      eq\n      tag_3\n      jumpi\n      dup1\n      0x095ea7b3\n      eq\n      tag_4\n      jumpi\n    tag_1:\n      0x00\n      dup1\n      revert\n        /* \"contracts/PYGGportfolioManagement.sol\":3417:4668  function withdrawToETH(uint256 tokenAmount, bytes memory _path) external {... */\n    tag_2:\n      callvalue\n      dup1\n      iszero\n      tag_39\n      jumpi\n      0x00\n      dup1\n      revert\n    tag_39:\n      pop\n      tag_40\n      tag_41\n      calldatasize\n      0x04\n      tag_42\n      jump\t// in\n    tag_41:\n      tag_43\n      jump\t// in\n    tag_40:\n      stop\n        /* \"@openzeppelin/contracts/token/ERC20/ERC20.sol\":2074:2163  function name() public view virtual returns (string memory) {... */\n    tag_3:\n      callvalue\n      dup1\n      iszero\n      tag_44\n      jumpi\n      0x00\n      dup1\n      revert\n    tag_44:\n      pop\n      tag_45\n      tag_46\n      jump\t// in\n    tag_45:\n      mload(0x40)\n      tag_47\n      swap2\n      swap1\n      tag_48\n      jump\t// in\n    tag_47:\n      mload(0x40)\n      dup1\n      swap2\n      sub\n      swap1\n      return\n        /* \"@openzeppelin/contracts/token/ERC20/ERC20.sol\":4293:4479  function approve(address spender, uint256 value) public virtual returns (bool) {... */\n    tag_4:\n      callvalue\n      dup1\n      iszero\n      tag_49\n      jumpi\n      0x00\n      dup1\n      revert\n    tag_49:\n      pop\n      tag_50\n      tag_51\n      calldatasize\n      0x04\n      tag_52\n      jump\t// in\n    tag_51:\n      tag_53\n      jump\t// in\n    tag_50:\n      mload(0x40)\n        /* \"#utility.yul\":3112:3126   */\n      swap1\n      iszero\n        /* \"#utility.yul\":3105:3127   */\n      iszero\n        /* \"#utility.yul\":3087:3128   */\n      dup2\n      mstore\n        /* \"#utility.yul\":3075:3077   */\n      0x20\n        /* \"#utility.yul\":3060:3078   */\n      add\n        /* \"@openzeppelin/contracts/token/ERC20/ERC20.sol\":4293:4479  function approve(address spender, uint256 value) public virtual returns (bool) {... */\n      tag_47\n        /* \"#utility.yul\":2947:3134   */\n      jump\n        /* \"contracts/SwapOperationManager.sol\":7278:7454  function setSlippageTolerance(uint256 _slippageTolerance) external {... */\n    tag_5:\n      callvalue\n      dup1\n      iszero\n      tag_56\n      jumpi\n      0x00\n      dup1\n      revert\n    tag_56:\n      pop\n      tag_40\n      tag_58\n      calldatasize\n      0x04\n      tag_59\n      jump\t// in\n    tag_58:\n      tag_60\n      jump\t// in\n        /* \"contracts/SwapOperationManager.sol\":622:663  IUniswapV2Router02 public uniswapV2Router */\n    tag_6:\n      callvalue\n      dup1\n      iszero\n      tag_61\n      jumpi\n      0x00\n      dup1\n      revert\n    tag_61:\n      pop\n      sload(0x09)\n      tag_62\n      swap1\n      sub(shl(0xa0, 0x01), 0x01)\n      and\n      dup2\n      jump\n    tag_62:\n      mload(0x40)\n      sub(shl(0xa0, 0x01), 0x01)\n        /* \"#utility.yul\":3515:3547   */\n      swap1\n      swap2\n      and\n        /* \"#utility.yul\":3497:3548   */\n      dup2\n      mstore\n        /* \"#utility.yul\":3485:3487   */\n      0x20\n        /* \"#utility.yul\":3470:3488   */\n      add\n        /* \"contracts/SwapOperationManager.sol\":622:663  IUniswapV2Router02 public uniswapV2Router */\n      tag_47\n        /* \"#utility.yul\":3324:3554   */\n      jump\n        /* \"@openzeppelin/contracts/token/ERC20/ERC20.sol\":3144:3241  function totalSupply() public view virtual returns (uint256) {... */\n    tag_7:\n      callvalue\n      dup1\n      iszero\n      tag_66\n      jumpi\n      0x00\n      dup1\n      revert\n    tag_66:\n      pop\n        /* \"@openzeppelin/contracts/token/ERC20/ERC20.sol\":3222:3234  _totalSupply */\n      sload(0x03)\n        /* \"@openzeppelin/contracts/token/ERC20/ERC20.sol\":3144:3241  function totalSupply() public view virtual returns (uint256) {... */\n    tag_67:\n      mload(0x40)\n        /* \"#utility.yul\":3705:3730   */\n      swap1\n      dup2\n      mstore\n        /* \"#utility.yul\":3693:3695   */\n      0x20\n        /* \"#utility.yul\":3678:3696   */\n      add\n        /* \"@openzeppelin/contracts/token/ERC20/ERC20.sol\":3144:3241  function totalSupply() public view virtual returns (uint256) {... */\n      tag_47\n        /* \"#utility.yul\":3559:3736   */\n      jump\n        /* \"@openzeppelin/contracts/token/ERC20/ERC20.sol\":5039:5283  function transferFrom(address from, address to, uint256 value) public virtual returns (bool) {... */\n    tag_8:\n      callvalue\n      dup1\n      iszero\n      tag_71\n      jumpi\n      0x00\n      dup1\n      revert\n    tag_71:\n      pop\n      tag_50\n      tag_73\n      calldatasize\n      0x04\n      tag_74\n      jump\t// in\n    tag_73:\n      tag_75\n      jump\t// in\n        /* \"contracts/PYGGportfolioManagement.sol\":5614:5711  function getAllTokens() external view returns (TokenInfo[] memory) {... */\n    tag_9:\n      callvalue\n      dup1\n      iszero\n      tag_77\n      jumpi\n      0x00\n      dup1\n      revert\n    tag_77:\n      pop\n      tag_78\n      tag_79\n      jump\t// in\n    tag_78:\n      mload(0x40)\n      tag_47\n      swap2\n      swap1\n      tag_81\n      jump\t// in\n        /* \"contracts/SwapOperationManager.sol\":669:703  ISwapRouter public uniswapV3Router */\n    tag_10:\n      callvalue\n      dup1\n      iszero\n      tag_82\n      jumpi\n      0x00\n      dup1\n      revert\n    tag_82:\n      pop\n      sload(0x0a)\n      tag_62\n      swap1\n      sub(shl(0xa0, 0x01), 0x01)\n      and\n      dup2\n      jump\n        /* \"contracts/PYGGportfolioManagement.sol\":4674:5313  function withdrawInKind(uint256 tokenAmount) external {... */\n    tag_11:\n      callvalue\n      dup1\n      iszero\n      tag_87\n      jumpi\n      0x00\n      dup1\n      revert\n    tag_87:\n      pop\n      tag_40\n      tag_89\n      calldatasize\n      0x04\n      tag_59\n      jump\t// in\n    tag_89:\n      tag_90\n      jump\t// in\n        /* \"@openzeppelin/contracts/token/ERC20/ERC20.sol\":3002:3084  function decimals() public view virtual returns (uint8) {... */\n    tag_12:\n      callvalue\n      dup1\n      iszero\n      tag_91\n      jumpi\n      0x00\n      dup1\n      revert\n    tag_91:\n      pop\n      mload(0x40)\n        /* \"@openzeppelin/contracts/token/ERC20/ERC20.sol\":3075:3077  18 */\n      0x12\n        /* \"#utility.yul\":5395:5431   */\n      dup2\n      mstore\n        /* \"#utility.yul\":5383:5385   */\n      0x20\n        /* \"#utility.yul\":5368:5386   */\n      add\n        /* \"@openzeppelin/contracts/token/ERC20/ERC20.sol\":3002:3084  function decimals() public view virtual returns (uint8) {... */\n      tag_47\n        /* \"#utility.yul\":5253:5437   */\n      jump\n        /* \"contracts/SwapOperationManager.sol\":565:615  mapping(address => uint256) public userFailedSwaps */\n    tag_13:\n      callvalue\n      dup1\n      iszero\n      tag_96\n      jumpi\n      0x00\n      dup1\n      revert\n    tag_96:\n      pop\n      tag_67\n      tag_98\n      calldatasize\n      0x04\n      tag_99\n      jump\t// in\n    tag_98:\n      mstore(0x20, 0x08)\n      0x00\n      swap1\n      dup2\n      mstore\n      0x40\n      swap1\n      keccak256\n      sload\n      dup2\n      jump\n        /* \"contracts/SwapOperationManager.sol\":484:515  FailedSwap[] public failedSwaps */\n    tag_14:\n      callvalue\n      dup1\n      iszero\n      tag_102\n      jumpi\n      0x00\n      dup1\n      revert\n    tag_102:\n      pop\n      tag_103\n      tag_104\n      calldatasize\n      0x04\n      tag_59\n      jump\t// in\n    tag_104:\n      tag_105\n      jump\t// in\n    tag_103:\n      0x40\n      dup1\n      mload\n      sub(shl(0xa0, 0x01), 0x01)\n        /* \"#utility.yul\":5966:5981   */\n      swap5\n      dup6\n      and\n        /* \"#utility.yul\":5948:5982   */\n      dup2\n      mstore\n        /* \"#utility.yul\":6018:6033   */\n      swap4\n      swap1\n      swap3\n      and\n        /* \"#utility.yul\":6013:6015   */\n      0x20\n        /* \"#utility.yul\":5998:6016   */\n      dup5\n      add\n        /* \"#utility.yul\":5991:6034   */\n      mstore\n        /* \"#utility.yul\":6050:6068   */\n      swap1\n      dup3\n      add\n        /* \"#utility.yul\":6043:6077   */\n      mstore\n        /* \"#utility.yul\":5898:5900   */\n      0x60\n        /* \"#utility.yul\":5883:5901   */\n      add\n        /* \"contracts/SwapOperationManager.sol\":484:515  FailedSwap[] public failedSwaps */\n      tag_47\n        /* \"#utility.yul\":5694:6083   */\n      jump\n        /* \"contracts/PYGGportfolioManagement.sol\":1184:2113  function initializeTokens(... */\n    tag_15:\n      callvalue\n      dup1\n      iszero\n      tag_108\n      jumpi\n      0x00\n      dup1\n      revert\n    tag_108:\n      pop\n      tag_40\n      tag_110\n      calldatasize\n      0x04\n      tag_111\n      jump\t// in\n    tag_110:\n      tag_112\n      jump\t// in\n        /* \"contracts/SwapOperationManager.sol\":709:748  IUniswapV3Quoter public uniswapV3Quoter */\n    tag_16:\n      callvalue\n      dup1\n      iszero\n      tag_113\n      jumpi\n      0x00\n      dup1\n      revert\n    tag_113:\n      pop\n      sload(0x0b)\n      tag_62\n      swap1\n      sub(shl(0xa0, 0x01), 0x01)\n      and\n      dup2\n      jump\n        /* \"contracts/PYGGportfolioManagement.sol\":584:608  uint16 public depositFee */\n    tag_17:\n      callvalue\n      dup1\n      iszero\n      tag_118\n      jumpi\n      0x00\n      dup1\n      revert\n    tag_118:\n      pop\n      sload(0x0e)\n      tag_119\n      swap1\n      0x010000\n      swap1\n      div\n      0xffff\n      and\n      dup2\n      jump\n    tag_119:\n      mload(0x40)\n        /* \"#utility.yul\":7954:7960   */\n      0xffff\n        /* \"#utility.yul\":7942:7961   */\n      swap1\n      swap2\n      and\n        /* \"#utility.yul\":7924:7962   */\n      dup2\n      mstore\n        /* \"#utility.yul\":7912:7914   */\n      0x20\n        /* \"#utility.yul\":7897:7915   */\n      add\n        /* \"contracts/PYGGportfolioManagement.sol\":584:608  uint16 public depositFee */\n      tag_47\n        /* \"#utility.yul\":7780:7968   */\n      jump\n        /* \"@openzeppelin/contracts/token/ERC20/ERC20.sol\":3299:3415  function balanceOf(address account) public view virtual returns (uint256) {... */\n    tag_18:\n      callvalue\n      dup1\n      iszero\n      tag_123\n      jumpi\n      0x00\n      dup1\n      revert\n    tag_123:\n      pop\n      tag_67\n      tag_125\n      calldatasize\n      0x04\n      tag_99\n      jump\t// in\n    tag_125:\n      sub(shl(0xa0, 0x01), 0x01)\n        /* \"@openzeppelin/contracts/token/ERC20/ERC20.sol\":3390:3408  _balances[account] */\n      and\n        /* \"@openzeppelin/contracts/token/ERC20/ERC20.sol\":3364:3371  uint256 */\n      0x00\n        /* \"@openzeppelin/contracts/token/ERC20/ERC20.sol\":3390:3408  _balances[account] */\n      swap1\n      dup2\n      mstore\n        /* \"@openzeppelin/contracts/token/ERC20/ERC20.sol\":3390:3399  _balances */\n      0x01\n        /* \"@openzeppelin/contracts/token/ERC20/ERC20.sol\":3390:3408  _balances[account] */\n      0x20\n      mstore\n      0x40\n      swap1\n      keccak256\n      sload\n      swap1\n        /* \"@openzeppelin/contracts/token/ERC20/ERC20.sol\":3299:3415  function balanceOf(address account) public view virtual returns (uint256) {... */\n      jump\n        /* \"@openzeppelin/contracts/access/Ownable.sol\":2293:2394  function renounceOwnership() public virtual onlyOwner {... */\n    tag_19:\n      callvalue\n      dup1\n      iszero\n      tag_128\n      jumpi\n      0x00\n      dup1\n      revert\n    tag_128:\n      pop\n      tag_40\n      tag_130\n      jump\t// in\n        /* \"contracts/SwapOperationManager.sol\":3554:3997  function swapTokenForToken(IERC20 _token, uint256 _amountIn, Version _version, address _receiver, bytes memory _path) external returns (uint256) {... */\n    tag_20:\n      callvalue\n      dup1\n      iszero\n      tag_131\n      jumpi\n      0x00\n      dup1\n      revert\n    tag_131:\n      pop\n      tag_67\n      tag_133\n      calldatasize\n      0x04\n      tag_134\n      jump\t// in\n    tag_133:\n      tag_135\n      jump\t// in\n        /* \"contracts/PYGGportfolioManagement.sol\":615:650  bool public initialedTokens = false */\n    tag_21:\n      callvalue\n      dup1\n      iszero\n      tag_137\n      jumpi\n      0x00\n      dup1\n      revert\n    tag_137:\n      pop\n      sload(0x0e)\n      tag_50\n      swap1\n      0x0100000000\n      swap1\n      div\n      0xff\n      and\n      dup2\n      jump\n        /* \"contracts/PYGGportfolioManagement.sol\":551:578  uint16 public withdrawalFee */\n    tag_22:\n      callvalue\n      dup1\n      iszero\n      tag_141\n      jumpi\n      0x00\n      dup1\n      revert\n    tag_141:\n      pop\n      sload(0x0e)\n      tag_119\n      swap1\n      0xffff\n      and\n      dup2\n      jump\n        /* \"@openzeppelin/contracts/access/Ownable.sol\":1638:1723  function owner() public view virtual returns (address) {... */\n    tag_23:\n      callvalue\n      dup1\n      iszero\n      tag_145\n      jumpi\n      0x00\n      dup1\n      revert\n    tag_145:\n      pop\n        /* \"@openzeppelin/contracts/access/Ownable.sol\":1684:1691  address */\n      0x00\n        /* \"@openzeppelin/contracts/access/Ownable.sol\":1710:1716  _owner */\n      sload\n      sub(shl(0xa0, 0x01), 0x01)\n      and\n        /* \"@openzeppelin/contracts/access/Ownable.sol\":1638:1723  function owner() public view virtual returns (address) {... */\n      jump(tag_62)\n        /* \"contracts/PYGGportfolioManagement.sol\":2119:3411  function deposit(SwapPath calldata _swapath) external payable {... */\n    tag_24:\n      tag_40\n      tag_151\n      calldatasize\n      0x04\n      tag_152\n      jump\t// in\n    tag_151:\n      tag_153\n      jump\t// in\n        /* \"@openzeppelin/contracts/token/ERC20/ERC20.sol\":2276:2369  function symbol() public view virtual returns (string memory) {... */\n    tag_25:\n      callvalue\n      dup1\n      iszero\n      tag_154\n      jumpi\n      0x00\n      dup1\n      revert\n    tag_154:\n      pop\n      tag_45\n      tag_156\n      jump\t// in\n        /* \"contracts/PYGGportfolioManagement.sol\":5319:5608  function withdrawFeesByOwner(address _receiverFeeAddress) external onlyOwner {... */\n    tag_26:\n      callvalue\n      dup1\n      iszero\n      tag_158\n      jumpi\n      0x00\n      dup1\n      revert\n    tag_158:\n      pop\n      tag_40\n      tag_160\n      calldatasize\n      0x04\n      tag_99\n      jump\t// in\n    tag_160:\n      tag_161\n      jump\t// in\n        /* \"@openzeppelin/contracts/token/ERC20/ERC20.sol\":3610:3788  function transfer(address to, uint256 value) public virtual returns (bool) {... */\n    tag_27:\n      callvalue\n      dup1\n      iszero\n      tag_162\n      jumpi\n      0x00\n      dup1\n      revert\n    tag_162:\n      pop\n      tag_50\n      tag_164\n      calldatasize\n      0x04\n      tag_52\n      jump\t// in\n    tag_164:\n      tag_165\n      jump\t// in\n        /* \"contracts/PYGGportfolioManagement.sol\":657:710  mapping(address => uint256) public ethDepositedFailed */\n    tag_28:\n      callvalue\n      dup1\n      iszero\n      tag_167\n      jumpi\n      0x00\n      dup1\n      revert\n    tag_167:\n      pop\n      tag_67\n      tag_169\n      calldatasize\n      0x04\n      tag_99\n      jump\t// in\n    tag_169:\n      mstore(0x20, 0x0f)\n      0x00\n      swap1\n      dup2\n      mstore\n      0x40\n      swap1\n      keccak256\n      sload\n      dup2\n      jump\n        /* \"contracts/SwapOperationManager.sol\":522:554  uint256 public slippageTolerance */\n    tag_29:\n      callvalue\n      dup1\n      iszero\n      tag_172\n      jumpi\n      0x00\n      dup1\n      revert\n    tag_172:\n      pop\n      tag_67\n      sload(0x07)\n      dup2\n      jump\n        /* \"@openzeppelin/contracts/token/ERC20/ERC20.sol\":3846:3986  function allowance(address owner, address spender) public view virtual returns (uint256) {... */\n    tag_30:\n      callvalue\n      dup1\n      iszero\n      tag_176\n      jumpi\n      0x00\n      dup1\n      revert\n    tag_176:\n      pop\n      tag_67\n      tag_178\n      calldatasize\n      0x04\n      tag_179\n      jump\t// in\n    tag_178:\n      sub(shl(0xa0, 0x01), 0x01)\n        /* \"@openzeppelin/contracts/token/ERC20/ERC20.sol\":3952:3970  _allowances[owner] */\n      swap2\n      dup3\n      and\n        /* \"@openzeppelin/contracts/token/ERC20/ERC20.sol\":3926:3933  uint256 */\n      0x00\n        /* \"@openzeppelin/contracts/token/ERC20/ERC20.sol\":3952:3970  _allowances[owner] */\n      swap1\n      dup2\n      mstore\n        /* \"@openzeppelin/contracts/token/ERC20/ERC20.sol\":3952:3963  _allowances */\n      0x02\n        /* \"@openzeppelin/contracts/token/ERC20/ERC20.sol\":3952:3970  _allowances[owner] */\n      0x20\n      swap1\n      dup2\n      mstore\n      0x40\n      dup1\n      dup4\n      keccak256\n        /* \"@openzeppelin/contracts/token/ERC20/ERC20.sol\":3952:3979  _allowances[owner][spender] */\n      swap4\n      swap1\n      swap5\n      and\n      dup3\n      mstore\n      swap2\n      swap1\n      swap2\n      mstore\n      keccak256\n      sload\n      swap1\n        /* \"@openzeppelin/contracts/token/ERC20/ERC20.sol\":3846:3986  function allowance(address owner, address spender) public view virtual returns (uint256) {... */\n      jump\n        /* \"@openzeppelin/contracts/access/Ownable.sol\":2543:2758  function transferOwnership(address newOwner) public virtual onlyOwner {... */\n    tag_31:\n      callvalue\n      dup1\n      iszero\n      tag_182\n      jumpi\n      0x00\n      dup1\n      revert\n    tag_182:\n      pop\n      tag_40\n      tag_184\n      calldatasize\n      0x04\n      tag_99\n      jump\t// in\n    tag_184:\n      tag_185\n      jump\t// in\n        /* \"contracts/PYGGportfolioManagement.sol\":3417:4668  function withdrawToETH(uint256 tokenAmount, bytes memory _path) external {... */\n    tag_43:\n        /* \"contracts/PYGGportfolioManagement.sol\":3522:3523  0 */\n      0x00\n        /* \"contracts/PYGGportfolioManagement.sol\":3508:3519  tokenAmount */\n      dup3\n        /* \"contracts/PYGGportfolioManagement.sol\":3508:3523  tokenAmount > 0 */\n      gt\n        /* \"contracts/PYGGportfolioManagement.sol\":3500:3530  require(tokenAmount > 0, \">0\") */\n      tag_187\n      jumpi\n      mload(0x40)\n      shl(0xe5, 0x461bcd)\n      dup2\n      mstore\n        /* \"#utility.yul\":10122:10124   */\n      0x20\n        /* \"contracts/PYGGportfolioManagement.sol\":3500:3530  require(tokenAmount > 0, \">0\") */\n      0x04\n      dup3\n      add\n        /* \"#utility.yul\":10104:10125   */\n      mstore\n        /* \"#utility.yul\":10161:10162   */\n      0x02\n        /* \"#utility.yul\":10141:10159   */\n      0x24\n      dup3\n      add\n        /* \"#utility.yul\":10134:10163   */\n      mstore\n      shl(0xf4, 0x03e3)\n        /* \"#utility.yul\":10179:10197   */\n      0x44\n      dup3\n      add\n        /* \"#utility.yul\":10172:10204   */\n      mstore\n        /* \"#utility.yul\":10221:10239   */\n      0x64\n      add\n        /* \"contracts/PYGGportfolioManagement.sol\":3500:3530  require(tokenAmount > 0, \">0\") */\n    tag_188:\n      mload(0x40)\n      dup1\n      swap2\n      sub\n      swap1\n      revert\n    tag_187:\n        /* \"contracts/PYGGportfolioManagement.sol\":3548:3574  this.balanceOf(msg.sender) */\n      mload(0x40)\n      shl(0xe0, 0x70a08231)\n      dup2\n      mstore\n        /* \"contracts/PYGGportfolioManagement.sol\":3563:3573  msg.sender */\n      caller\n        /* \"contracts/PYGGportfolioManagement.sol\":3548:3574  this.balanceOf(msg.sender) */\n      0x04\n      dup3\n      add\n        /* \"#utility.yul\":3497:3548   */\n      mstore\n        /* \"contracts/PYGGportfolioManagement.sol\":3578:3589  tokenAmount */\n      dup3\n      swap1\n        /* \"contracts/PYGGportfolioManagement.sol\":3548:3552  this */\n      address\n      swap1\n        /* \"contracts/PYGGportfolioManagement.sol\":3548:3562  this.balanceOf */\n      0x70a08231\n      swap1\n        /* \"#utility.yul\":3470:3488   */\n      0x24\n      add\n        /* \"contracts/PYGGportfolioManagement.sol\":3548:3574  this.balanceOf(msg.sender) */\n      0x20\n      mload(0x40)\n      dup1\n      dup4\n      sub\n      dup2\n      dup7\n      gas\n      staticcall\n      iszero\n      dup1\n      iszero\n      tag_192\n      jumpi\n      returndatasize\n      0x00\n      dup1\n      returndatacopy\n      revert(0x00, returndatasize)\n    tag_192:\n      pop\n      pop\n      pop\n      pop\n      mload(0x40)\n      returndatasize\n      not(0x1f)\n      0x1f\n      dup3\n      add\n      and\n      dup3\n      add\n      dup1\n      0x40\n      mstore\n      pop\n      dup2\n      add\n      swap1\n      tag_193\n      swap2\n      swap1\n      tag_194\n      jump\t// in\n    tag_193:\n        /* \"contracts/PYGGportfolioManagement.sol\":3548:3589  this.balanceOf(msg.sender) >= tokenAmount */\n      lt\n      iszero\n        /* \"contracts/PYGGportfolioManagement.sol\":3540:3607  require(this.balanceOf(msg.sender) >= tokenAmount, \"!Insufficient\") */\n      tag_195\n      jumpi\n      mload(0x40)\n      shl(0xe5, 0x461bcd)\n      dup2\n      mstore\n        /* \"#utility.yul\":10641:10643   */\n      0x20\n        /* \"contracts/PYGGportfolioManagement.sol\":3540:3607  require(this.balanceOf(msg.sender) >= tokenAmount, \"!Insufficient\") */\n      0x04\n      dup3\n      add\n        /* \"#utility.yul\":10623:10644   */\n      mstore\n        /* \"#utility.yul\":10680:10682   */\n      0x0d\n        /* \"#utility.yul\":10660:10678   */\n      0x24\n      dup3\n      add\n        /* \"#utility.yul\":10653:10683   */\n      mstore\n      shl(0x9a, 0x08525b9cdd59999a58da595b9d)\n        /* \"#utility.yul\":10699:10717   */\n      0x44\n      dup3\n      add\n        /* \"#utility.yul\":10692:10735   */\n      mstore\n        /* \"#utility.yul\":10752:10770   */\n      0x64\n      add\n        /* \"contracts/PYGGportfolioManagement.sol\":3540:3607  require(this.balanceOf(msg.sender) >= tokenAmount, \"!Insufficient\") */\n      tag_188\n        /* \"#utility.yul\":10439:10776   */\n      jump\n        /* \"contracts/PYGGportfolioManagement.sol\":3540:3607  require(this.balanceOf(msg.sender) >= tokenAmount, \"!Insufficient\") */\n    tag_195:\n        /* \"contracts/PYGGportfolioManagement.sol\":3618:3642  SwapPath memory _swapath */\n      0x00\n        /* \"contracts/PYGGportfolioManagement.sol\":3657:3662  _path */\n      dup2\n        /* \"contracts/PYGGportfolioManagement.sol\":3646:3675  abi.decode(_path, (SwapPath)) */\n      dup1\n      0x20\n      add\n      swap1\n      mload\n      dup2\n      add\n      swap1\n      tag_198\n      swap2\n      swap1\n      tag_199\n      jump\t// in\n    tag_198:\n        /* \"contracts/PYGGportfolioManagement.sol\":3617:3675  (SwapPath memory _swapath) = abi.decode(_path, (SwapPath)) */\n      swap1\n      pop\n        /* \"contracts/PYGGportfolioManagement.sol\":3686:3704  uint256 percentage */\n      0x00\n        /* \"contracts/PYGGportfolioManagement.sol\":3731:3744  totalSupply() */\n      tag_200\n        /* \"@openzeppelin/contracts/token/ERC20/ERC20.sol\":3222:3234  _totalSupply */\n      sload(0x03)\n      swap1\n        /* \"@openzeppelin/contracts/token/ERC20/ERC20.sol\":3144:3241  function totalSupply() public view virtual returns (uint256) {... */\n      jump\n        /* \"contracts/PYGGportfolioManagement.sol\":3731:3744  totalSupply() */\n    tag_200:\n        /* \"contracts/PYGGportfolioManagement.sol\":3708:3727  tokenAmount * 10000 */\n      tag_201\n        /* \"contracts/PYGGportfolioManagement.sol\":3708:3719  tokenAmount */\n      dup6\n        /* \"contracts/PYGGportfolioManagement.sol\":3722:3727  10000 */\n      0x2710\n        /* \"contracts/PYGGportfolioManagement.sol\":3708:3727  tokenAmount * 10000 */\n      tag_202\n      jump\t// in\n    tag_201:\n        /* \"contracts/PYGGportfolioManagement.sol\":3707:3744  (tokenAmount * 10000) / totalSupply() */\n      tag_203\n      swap2\n      swap1\n      tag_204\n      jump\t// in\n    tag_203:\n        /* \"contracts/PYGGportfolioManagement.sol\":3686:3744  uint256 percentage = (tokenAmount * 10000) / totalSupply() */\n      swap1\n      pop\n        /* \"contracts/PYGGportfolioManagement.sol\":3755:3768  address WETH9 */\n      0x00\n        /* \"contracts/PYGGportfolioManagement.sol\":3771:3786  uniswapV2Router */\n      0x09\n      0x00\n      swap1\n      sload\n      swap1\n      0x0100\n      exp\n      swap1\n      div\n      sub(shl(0xa0, 0x01), 0x01)\n      and\n      sub(shl(0xa0, 0x01), 0x01)\n        /* \"contracts/PYGGportfolioManagement.sol\":3771:3791  uniswapV2Router.WETH */\n      and\n      0xad5c4648\n        /* \"contracts/PYGGportfolioManagement.sol\":3771:3793  uniswapV2Router.WETH() */\n      mload(0x40)\n      dup2\n      0xffffffff\n      and\n      0xe0\n      shl\n      dup2\n      mstore\n      0x04\n      add\n      0x20\n      mload(0x40)\n      dup1\n      dup4\n      sub\n      dup2\n      dup7\n      gas\n      staticcall\n      iszero\n      dup1\n      iszero\n      tag_206\n      jumpi\n      returndatasize\n      0x00\n      dup1\n      returndatacopy\n      revert(0x00, returndatasize)\n    tag_206:\n      pop\n      pop\n      pop\n      pop\n      mload(0x40)\n      returndatasize\n      not(0x1f)\n      0x1f\n      dup3\n      add\n      and\n      dup3\n      add\n      dup1\n      0x40\n      mstore\n      pop\n      dup2\n      add\n      swap1\n      tag_207\n      swap2\n      swap1\n      tag_208\n      jump\t// in\n    tag_207:\n        /* \"contracts/PYGGportfolioManagement.sol\":3755:3793  address WETH9 = uniswapV2Router.WETH() */\n      swap1\n      pop\n        /* \"contracts/PYGGportfolioManagement.sol\":3803:3820  uint256 totalWETH */\n      0x00\n        /* \"contracts/PYGGportfolioManagement.sol\":3839:3848  uint256 i */\n      dup1\n        /* \"contracts/PYGGportfolioManagement.sol\":3834:4288  for (uint256 i = 0; i < tokens.length; i++) {... */\n    tag_209:\n        /* \"contracts/PYGGportfolioManagement.sol\":3858:3864  tokens */\n      0x0c\n        /* \"contracts/PYGGportfolioManagement.sol\":3858:3871  tokens.length */\n      sload\n        /* \"contracts/PYGGportfolioManagement.sol\":3854:3871  i < tokens.length */\n      dup2\n      lt\n        /* \"contracts/PYGGportfolioManagement.sol\":3834:4288  for (uint256 i = 0; i < tokens.length; i++) {... */\n      iszero\n      tag_210\n      jumpi\n        /* \"contracts/PYGGportfolioManagement.sol\":3892:3919  TokenInfo storage tokenInfo */\n      0x00\n        /* \"contracts/PYGGportfolioManagement.sol\":3922:3928  tokens */\n      0x0c\n        /* \"contracts/PYGGportfolioManagement.sol\":3929:3930  i */\n      dup3\n        /* \"contracts/PYGGportfolioManagement.sol\":3922:3931  tokens[i] */\n      dup2\n      sload\n      dup2\n      lt\n      tag_213\n      jumpi\n      tag_213\n      tag_214\n      jump\t// in\n    tag_213:\n      0x00\n      swap2\n      dup3\n      mstore\n      0x20\n      dup3\n      keccak256\n      0x02\n      swap2\n      swap1\n      swap2\n      mul\n      add\n        /* \"contracts/PYGGportfolioManagement.sol\":3978:3993  tokenInfo.token */\n      dup1\n      sload\n        /* \"contracts/PYGGportfolioManagement.sol\":3978:4018  tokenInfo.token.balanceOf(address(this)) */\n      mload(0x40)\n      shl(0xe0, 0x70a08231)\n      dup2\n      mstore\n        /* \"contracts/PYGGportfolioManagement.sol\":4012:4016  this */\n      address\n        /* \"contracts/PYGGportfolioManagement.sol\":3978:4018  tokenInfo.token.balanceOf(address(this)) */\n      0x04\n      dup3\n      add\n        /* \"#utility.yul\":3497:3548   */\n      mstore\n        /* \"contracts/PYGGportfolioManagement.sol\":3922:3931  tokens[i] */\n      swap2\n      swap4\n      pop\n        /* \"contracts/PYGGportfolioManagement.sol\":4035:4040  10000 */\n      0x2710\n      swap2\n        /* \"contracts/PYGGportfolioManagement.sol\":4021:4031  percentage */\n      dup9\n      swap2\n      sub(shl(0xa0, 0x01), 0x01)\n        /* \"contracts/PYGGportfolioManagement.sol\":3978:3993  tokenInfo.token */\n      and\n      swap1\n        /* \"contracts/PYGGportfolioManagement.sol\":3978:4003  tokenInfo.token.balanceOf */\n      0x70a08231\n      swap1\n        /* \"#utility.yul\":3470:3488   */\n      0x24\n      add\n        /* \"contracts/PYGGportfolioManagement.sol\":3978:4018  tokenInfo.token.balanceOf(address(this)) */\n      0x20\n      mload(0x40)\n      dup1\n      dup4\n      sub\n      dup2\n      dup7\n      gas\n      staticcall\n      iszero\n      dup1\n      iszero\n      tag_218\n      jumpi\n      returndatasize\n      0x00\n      dup1\n      returndatacopy\n      revert(0x00, returndatasize)\n    tag_218:\n      pop\n      pop\n      pop\n      pop\n      mload(0x40)\n      returndatasize\n      not(0x1f)\n      0x1f\n      dup3\n      add\n      and\n      dup3\n      add\n      dup1\n      0x40\n      mstore\n      pop\n      dup2\n      add\n      swap1\n      tag_219\n      swap2\n      swap1\n      tag_194\n      jump\t// in\n    tag_219:\n        /* \"contracts/PYGGportfolioManagement.sol\":3978:4031  tokenInfo.token.balanceOf(address(this)) * percentage */\n      tag_220\n      swap2\n      swap1\n      tag_202\n      jump\t// in\n    tag_220:\n        /* \"contracts/PYGGportfolioManagement.sol\":3977:4040  (tokenInfo.token.balanceOf(address(this)) * percentage) / 10000 */\n      tag_221\n      swap2\n      swap1\n      tag_204\n      jump\t// in\n    tag_221:\n        /* \"contracts/PYGGportfolioManagement.sol\":4085:4100  tokenInfo.token */\n      dup3\n      sload\n        /* \"contracts/PYGGportfolioManagement.sol\":4125:4141  _swapath.version */\n      0x40\n      dup10\n      add\n      mload\n        /* \"contracts/PYGGportfolioManagement.sol\":4155:4168  _swapath.path */\n      dup10\n      mload\n        /* \"contracts/PYGGportfolioManagement.sol\":4155:4171  _swapath.path[i] */\n      dup1\n      mload\n        /* \"contracts/PYGGportfolioManagement.sol\":3945:4040  uint256 tokenAmountToWithdraw = (tokenInfo.token.balanceOf(address(this)) * percentage) / 10000 */\n      swap4\n      swap5\n      pop\n        /* \"contracts/PYGGportfolioManagement.sol\":4062:4066  this */\n      address\n      swap4\n        /* \"contracts/PYGGportfolioManagement.sol\":4062:4084  this.swapTokenForToken */\n      0x74a66061\n      swap4\n      sub(shl(0xa0, 0x01), 0x01)\n        /* \"contracts/PYGGportfolioManagement.sol\":4085:4100  tokenInfo.token */\n      and\n      swap3\n        /* \"contracts/PYGGportfolioManagement.sol\":3945:4040  uint256 tokenAmountToWithdraw = (tokenInfo.token.balanceOf(address(this)) * percentage) / 10000 */\n      dup7\n      swap3\n        /* \"contracts/PYGGportfolioManagement.sol\":4125:4141  _swapath.version */\n      swap1\n      swap2\n        /* \"contracts/PYGGportfolioManagement.sol\":4143:4153  msg.sender */\n      caller\n      swap2\n        /* \"contracts/PYGGportfolioManagement.sol\":4155:4168  _swapath.path */\n      swap1\n        /* \"contracts/PYGGportfolioManagement.sol\":4169:4170  i */\n      dup11\n      swap1\n        /* \"contracts/PYGGportfolioManagement.sol\":4155:4171  _swapath.path[i] */\n      dup2\n      lt\n      tag_223\n      jumpi\n      tag_223\n      tag_214\n      jump\t// in\n    tag_223:\n      0x20\n      mul\n      0x20\n      add\n      add\n      mload\n        /* \"contracts/PYGGportfolioManagement.sol\":4062:4172  this.swapTokenForToken(tokenInfo.token, tokenAmountToWithdraw, _swapath.version, msg.sender, _swapath.path[i]) */\n      mload(0x40)\n      dup7\n      0xffffffff\n      and\n      0xe0\n      shl\n      dup2\n      mstore\n      0x04\n      add\n      tag_224\n      swap6\n      swap5\n      swap4\n      swap3\n      swap2\n      swap1\n      tag_225\n      jump\t// in\n    tag_224:\n      0x20\n      mload(0x40)\n      dup1\n      dup4\n      sub\n      dup2\n      0x00\n      dup8\n      gas\n      call\n      swap3\n      pop\n      pop\n      pop\n      dup1\n      iszero\n      tag_226\n      jumpi\n      pop\n      0x40\n      dup1\n      mload\n      0x1f\n      returndatasize\n      swap1\n      dup2\n      add\n      not(0x1f)\n      and\n      dup3\n      add\n      swap1\n      swap3\n      mstore\n      tag_227\n      swap2\n      dup2\n      add\n      swap1\n      tag_194\n      jump\t// in\n    tag_227:\n      0x01\n    tag_226:\n        /* \"contracts/PYGGportfolioManagement.sol\":4058:4278  try this.swapTokenForToken(tokenInfo.token, tokenAmountToWithdraw, _swapath.version, msg.sender, _swapath.path[i]) returns (uint256 ethReceived ) {... */\n      iszero\n      tag_232\n      jumpi\n        /* \"contracts/PYGGportfolioManagement.sol\":4226:4250  totalWETH += ethReceived */\n      tag_233\n        /* \"contracts/PYGGportfolioManagement.sol\":4239:4250  ethReceived */\n      dup2\n        /* \"contracts/PYGGportfolioManagement.sol\":4226:4250  totalWETH += ethReceived */\n      dup7\n      tag_234\n      jump\t// in\n    tag_233:\n      swap5\n      pop\n        /* \"contracts/PYGGportfolioManagement.sol\":4173:4269  returns (uint256 ethReceived ) {... */\n      pop\n        /* \"contracts/PYGGportfolioManagement.sol\":4058:4278  try this.swapTokenForToken(tokenInfo.token, tokenAmountToWithdraw, _swapath.version, msg.sender, _swapath.path[i]) returns (uint256 ethReceived ) {... */\n    tag_232:\n        /* \"contracts/PYGGportfolioManagement.sol\":3878:4288  {... */\n      pop\n      pop\n        /* \"contracts/PYGGportfolioManagement.sol\":3873:3876  i++ */\n      dup1\n      dup1\n      tag_235\n      swap1\n      tag_236\n      jump\t// in\n    tag_235:\n      swap2\n      pop\n      pop\n        /* \"contracts/PYGGportfolioManagement.sol\":3834:4288  for (uint256 i = 0; i < tokens.length; i++) {... */\n      jump(tag_209)\n    tag_210:\n      pop\n        /* \"contracts/PYGGportfolioManagement.sol\":4298:4328  _burn(msg.sender, tokenAmount) */\n      tag_237\n        /* \"contracts/PYGGportfolioManagement.sol\":4304:4314  msg.sender */\n      caller\n        /* \"contracts/PYGGportfolioManagement.sol\":4316:4327  tokenAmount */\n      dup8\n        /* \"contracts/PYGGportfolioManagement.sol\":4298:4303  _burn */\n      tag_238\n        /* \"contracts/PYGGportfolioManagement.sol\":4298:4328  _burn(msg.sender, tokenAmount) */\n      jump\t// in\n    tag_237:\n        /* \"contracts/PYGGportfolioManagement.sol\":4342:4355  totalWETH > 0 */\n      dup1\n      iszero\n        /* \"contracts/PYGGportfolioManagement.sol\":4339:4601  if(totalWETH > 0){... */\n      tag_239\n      jumpi\n        /* \"contracts/PYGGportfolioManagement.sol\":4401:4414  withdrawalFee */\n      sload(0x0e)\n        /* \"contracts/PYGGportfolioManagement.sol\":4370:4385  uint256 feeWETH */\n      0x00\n      swap1\n        /* \"contracts/PYGGportfolioManagement.sol\":4418:4423  10000 */\n      0x2710\n      swap1\n        /* \"contracts/PYGGportfolioManagement.sol\":4389:4414  totalWETH * withdrawalFee */\n      tag_240\n      swap1\n        /* \"contracts/PYGGportfolioManagement.sol\":4401:4414  withdrawalFee */\n      0xffff\n      and\n        /* \"contracts/PYGGportfolioManagement.sol\":4389:4398  totalWETH */\n      dup5\n        /* \"contracts/PYGGportfolioManagement.sol\":4389:4414  totalWETH * withdrawalFee */\n      tag_202\n      jump\t// in\n    tag_240:\n        /* \"contracts/PYGGportfolioManagement.sol\":4388:4423  (totalWETH * withdrawalFee) / 10000 */\n      tag_241\n      swap2\n      swap1\n      tag_204\n      jump\t// in\n    tag_241:\n        /* \"contracts/PYGGportfolioManagement.sol\":4370:4423  uint256 feeWETH = (totalWETH * withdrawalFee) / 10000 */\n      swap1\n      pop\n        /* \"contracts/PYGGportfolioManagement.sol\":4437:4463  uint256 amountAfterFeeWETH */\n      0x00\n        /* \"contracts/PYGGportfolioManagement.sol\":4466:4485  totalWETH - feeWETH */\n      tag_242\n        /* \"contracts/PYGGportfolioManagement.sol\":4370:4423  uint256 feeWETH = (totalWETH * withdrawalFee) / 10000 */\n      dup3\n        /* \"contracts/PYGGportfolioManagement.sol\":4466:4475  totalWETH */\n      dup5\n        /* \"contracts/PYGGportfolioManagement.sol\":4466:4485  totalWETH - feeWETH */\n      tag_243\n      jump\t// in\n    tag_242:\n        /* \"contracts/PYGGportfolioManagement.sol\":4437:4485  uint256 amountAfterFeeWETH = totalWETH - feeWETH */\n      swap1\n      pop\n        /* \"contracts/PYGGportfolioManagement.sol\":4516:4523  feeWETH */\n      dup2\n        /* \"contracts/PYGGportfolioManagement.sol\":4499:4512  totalFeesWETH */\n      0x0d\n      0x00\n        /* \"contracts/PYGGportfolioManagement.sol\":4499:4523  totalFeesWETH += feeWETH */\n      dup3\n      dup3\n      sload\n      tag_244\n      swap2\n      swap1\n      tag_234\n      jump\t// in\n    tag_244:\n      swap1\n      swap2\n      sstore\n      pop\n      pop\n        /* \"contracts/PYGGportfolioManagement.sol\":4537:4590  IWETH(WETH9).transfer(msg.sender, amountAfterFeeWETH) */\n      mload(0x40)\n      shl(0xe0, 0xa9059cbb)\n      dup2\n      mstore\n        /* \"contracts/PYGGportfolioManagement.sol\":4559:4569  msg.sender */\n      caller\n        /* \"contracts/PYGGportfolioManagement.sol\":4537:4590  IWETH(WETH9).transfer(msg.sender, amountAfterFeeWETH) */\n      0x04\n      dup3\n      add\n        /* \"#utility.yul\":15602:15653   */\n      mstore\n        /* \"#utility.yul\":15669:15687   */\n      0x24\n      dup2\n      add\n        /* \"#utility.yul\":15662:15696   */\n      dup3\n      swap1\n      mstore\n      sub(shl(0xa0, 0x01), 0x01)\n        /* \"contracts/PYGGportfolioManagement.sol\":4537:4558  IWETH(WETH9).transfer */\n      dup6\n      and\n      swap1\n      0xa9059cbb\n      swap1\n        /* \"#utility.yul\":15575:15593   */\n      0x44\n      add\n        /* \"contracts/PYGGportfolioManagement.sol\":4537:4590  IWETH(WETH9).transfer(msg.sender, amountAfterFeeWETH) */\n      0x20\n      mload(0x40)\n      dup1\n      dup4\n      sub\n      dup2\n      0x00\n      dup8\n      gas\n      call\n      iszero\n      dup1\n      iszero\n      tag_248\n      jumpi\n      returndatasize\n      0x00\n      dup1\n      returndatacopy\n      revert(0x00, returndatasize)\n    tag_248:\n      pop\n      pop\n      pop\n      pop\n      mload(0x40)\n      returndatasize\n      not(0x1f)\n      0x1f\n      dup3\n      add\n      and\n      dup3\n      add\n      dup1\n      0x40\n      mstore\n      pop\n      dup2\n      add\n      swap1\n      tag_249\n      swap2\n      swap1\n      tag_250\n      jump\t// in\n    tag_249:\n      pop\n        /* \"contracts/PYGGportfolioManagement.sol\":4356:4601  {... */\n      pop\n      pop\n        /* \"contracts/PYGGportfolioManagement.sol\":4339:4601  if(totalWETH > 0){... */\n    tag_239:\n        /* \"contracts/PYGGportfolioManagement.sol\":3490:4668  {... */\n      pop\n      pop\n      pop\n      pop\n        /* \"contracts/PYGGportfolioManagement.sol\":3417:4668  function withdrawToETH(uint256 tokenAmount, bytes memory _path) external {... */\n      pop\n      pop\n      jump\t// out\n        /* \"@openzeppelin/contracts/token/ERC20/ERC20.sol\":2074:2163  function name() public view virtual returns (string memory) {... */\n    tag_46:\n        /* \"@openzeppelin/contracts/token/ERC20/ERC20.sol\":2119:2132  string memory */\n      0x60\n        /* \"@openzeppelin/contracts/token/ERC20/ERC20.sol\":2151:2156  _name */\n      0x04\n        /* \"@openzeppelin/contracts/token/ERC20/ERC20.sol\":2144:2156  return _name */\n      dup1\n      sload\n      tag_252\n      swap1\n      tag_253\n      jump\t// in\n    tag_252:\n      dup1\n      0x1f\n      add\n      0x20\n      dup1\n      swap2\n      div\n      mul\n      0x20\n      add\n      mload(0x40)\n      swap1\n      dup2\n      add\n      0x40\n      mstore\n      dup1\n      swap3\n      swap2\n      swap1\n      dup2\n      dup2\n      mstore\n      0x20\n      add\n      dup3\n      dup1\n      sload\n      tag_254\n      swap1\n      tag_253\n      jump\t// in\n    tag_254:\n      dup1\n      iszero\n      tag_255\n      jumpi\n      dup1\n      0x1f\n      lt\n      tag_256\n      jumpi\n      0x0100\n      dup1\n      dup4\n      sload\n      div\n      mul\n      dup4\n      mstore\n      swap2\n      0x20\n      add\n      swap2\n      jump(tag_255)\n    tag_256:\n      dup3\n      add\n      swap2\n      swap1\n      0x00\n      mstore\n      keccak256(0x00, 0x20)\n      swap1\n    tag_257:\n      dup2\n      sload\n      dup2\n      mstore\n      swap1\n      0x01\n      add\n      swap1\n      0x20\n      add\n      dup1\n      dup4\n      gt\n      tag_257\n      jumpi\n      dup3\n      swap1\n      sub\n      0x1f\n      and\n      dup3\n      add\n      swap2\n    tag_255:\n      pop\n      pop\n      pop\n      pop\n      pop\n      swap1\n      pop\n        /* \"@openzeppelin/contracts/token/ERC20/ERC20.sol\":2074:2163  function name() public view virtual returns (string memory) {... */\n      swap1\n      jump\t// out\n        /* \"@openzeppelin/contracts/token/ERC20/ERC20.sol\":4293:4479  function approve(address spender, uint256 value) public virtual returns (bool) {... */\n    tag_53:\n        /* \"@openzeppelin/contracts/token/ERC20/ERC20.sol\":4366:4370  bool */\n      0x00\n        /* \"@openzeppelin/contracts/utils/Context.sol\":735:745  msg.sender */\n      caller\n        /* \"@openzeppelin/contracts/token/ERC20/ERC20.sol\":4420:4451  _approve(owner, spender, value) */\n      tag_261\n        /* \"@openzeppelin/contracts/utils/Context.sol\":735:745  msg.sender */\n      dup2\n        /* \"@openzeppelin/contracts/token/ERC20/ERC20.sol\":4436:4443  spender */\n      dup6\n        /* \"@openzeppelin/contracts/token/ERC20/ERC20.sol\":4445:4450  value */\n      dup6\n        /* \"@openzeppelin/contracts/token/ERC20/ERC20.sol\":4420:4428  _approve */\n      tag_262\n        /* \"@openzeppelin/contracts/token/ERC20/ERC20.sol\":4420:4451  _approve(owner, spender, value) */\n      jump\t// in\n    tag_261:\n        /* \"@openzeppelin/contracts/token/ERC20/ERC20.sol\":4468:4472  true */\n      0x01\n        /* \"@openzeppelin/contracts/token/ERC20/ERC20.sol\":4461:4472  return true */\n      swap2\n      pop\n      pop\n        /* \"@openzeppelin/contracts/token/ERC20/ERC20.sol\":4293:4479  function approve(address spender, uint256 value) public virtual returns (bool) {... */\n    tag_258:\n      swap3\n      swap2\n      pop\n      pop\n      jump\t// out\n        /* \"contracts/SwapOperationManager.sol\":7278:7454  function setSlippageTolerance(uint256 _slippageTolerance) external {... */\n    tag_60:\n        /* \"contracts/SwapOperationManager.sol\":7385:7390  10000 */\n      0x2710\n        /* \"contracts/SwapOperationManager.sol\":7363:7381  _slippageTolerance */\n      dup2\n        /* \"contracts/SwapOperationManager.sol\":7363:7390  _slippageTolerance <= 10000 */\n      gt\n      iszero\n        /* \"contracts/SwapOperationManager.sol\":7355:7399  require(_slippageTolerance <= 10000, \"!SLP\") */\n      tag_264\n      jumpi\n      mload(0x40)\n      shl(0xe5, 0x461bcd)\n      dup2\n      mstore\n      0x04\n      add\n      tag_188\n      swap1\n        /* \"#utility.yul\":16576:16578   */\n      0x20\n        /* \"#utility.yul\":16558:16579   */\n      dup1\n      dup3\n      mstore\n        /* \"#utility.yul\":16615:16616   */\n      0x04\n        /* \"#utility.yul\":16595:16613   */\n      swap1\n      dup3\n      add\n        /* \"#utility.yul\":16588:16617   */\n      mstore\n      shl(0xe4, 0x021534c5)\n        /* \"#utility.yul\":16648:16650   */\n      0x40\n        /* \"#utility.yul\":16633:16651   */\n      dup3\n      add\n        /* \"#utility.yul\":16626:16660   */\n      mstore\n        /* \"#utility.yul\":16692:16694   */\n      0x60\n        /* \"#utility.yul\":16677:16695   */\n      add\n      swap1\n        /* \"#utility.yul\":16374:16701   */\n      jump\n        /* \"contracts/SwapOperationManager.sol\":7355:7399  require(_slippageTolerance <= 10000, \"!SLP\") */\n    tag_264:\n        /* \"contracts/SwapOperationManager.sol\":7409:7426  slippageTolerance */\n      0x07\n        /* \"contracts/SwapOperationManager.sol\":7409:7447  slippageTolerance = _slippageTolerance */\n      sstore\n        /* \"contracts/SwapOperationManager.sol\":7278:7454  function setSlippageTolerance(uint256 _slippageTolerance) external {... */\n      jump\t// out\n        /* \"@openzeppelin/contracts/token/ERC20/ERC20.sol\":5039:5283  function transferFrom(address from, address to, uint256 value) public virtual returns (bool) {... */\n    tag_75:\n        /* \"@openzeppelin/contracts/token/ERC20/ERC20.sol\":5126:5130  bool */\n      0x00\n        /* \"@openzeppelin/contracts/utils/Context.sol\":735:745  msg.sender */\n      caller\n        /* \"@openzeppelin/contracts/token/ERC20/ERC20.sol\":5182:5219  _spendAllowance(from, spender, value) */\n      tag_270\n        /* \"@openzeppelin/contracts/token/ERC20/ERC20.sol\":5198:5202  from */\n      dup6\n        /* \"@openzeppelin/contracts/utils/Context.sol\":735:745  msg.sender */\n      dup3\n        /* \"@openzeppelin/contracts/token/ERC20/ERC20.sol\":5213:5218  value */\n      dup6\n        /* \"@openzeppelin/contracts/token/ERC20/ERC20.sol\":5182:5197  _spendAllowance */\n      tag_271\n        /* \"@openzeppelin/contracts/token/ERC20/ERC20.sol\":5182:5219  _spendAllowance(from, spender, value) */\n      jump\t// in\n    tag_270:\n        /* \"@openzeppelin/contracts/token/ERC20/ERC20.sol\":5229:5255  _transfer(from, to, value) */\n      tag_272\n        /* \"@openzeppelin/contracts/token/ERC20/ERC20.sol\":5239:5243  from */\n      dup6\n        /* \"@openzeppelin/contracts/token/ERC20/ERC20.sol\":5245:5247  to */\n      dup6\n        /* \"@openzeppelin/contracts/token/ERC20/ERC20.sol\":5249:5254  value */\n      dup6\n        /* \"@openzeppelin/contracts/token/ERC20/ERC20.sol\":5229:5238  _transfer */\n      tag_273\n        /* \"@openzeppelin/contracts/token/ERC20/ERC20.sol\":5229:5255  _transfer(from, to, value) */\n      jump\t// in\n    tag_272:\n      pop\n        /* \"@openzeppelin/contracts/token/ERC20/ERC20.sol\":5272:5276  true */\n      0x01\n      swap5\n        /* \"@openzeppelin/contracts/token/ERC20/ERC20.sol\":5039:5283  function transferFrom(address from, address to, uint256 value) public virtual returns (bool) {... */\n      swap4\n      pop\n      pop\n      pop\n      pop\n      jump\t// out\n        /* \"contracts/PYGGportfolioManagement.sol\":5614:5711  function getAllTokens() external view returns (TokenInfo[] memory) {... */\n    tag_79:\n        /* \"contracts/PYGGportfolioManagement.sol\":5661:5679  TokenInfo[] memory */\n      0x60\n        /* \"contracts/PYGGportfolioManagement.sol\":5698:5704  tokens */\n      0x0c\n        /* \"contracts/PYGGportfolioManagement.sol\":5691:5704  return tokens */\n      dup1\n      sload\n      dup1\n      0x20\n      mul\n      0x20\n      add\n      mload(0x40)\n      swap1\n      dup2\n      add\n      0x40\n      mstore\n      dup1\n      swap3\n      swap2\n      swap1\n      dup2\n      dup2\n      mstore\n      0x20\n      add\n      0x00\n      swap1\n    tag_275:\n      dup3\n      dup3\n      lt\n      iszero\n      tag_276\n      jumpi\n      0x00\n      dup5\n      dup2\n      mstore\n      0x20\n      swap1\n      dup2\n      swap1\n      keccak256\n      0x40\n      dup1\n      mload\n      dup1\n      dup3\n      add\n      swap1\n      swap2\n      mstore\n      0x02\n      dup6\n      mul\n      swap1\n      swap2\n      add\n      dup1\n      sload\n      sub(shl(0xa0, 0x01), 0x01)\n      and\n      dup3\n      mstore\n      0x01\n      swap1\n      dup2\n      add\n      sload\n      dup3\n      dup5\n      add\n      mstore\n      swap1\n      dup4\n      mstore\n      swap1\n      swap3\n      add\n      swap2\n      add\n      jump(tag_275)\n    tag_276:\n      pop\n      pop\n      pop\n      pop\n      swap1\n      pop\n        /* \"contracts/PYGGportfolioManagement.sol\":5614:5711  function getAllTokens() external view returns (TokenInfo[] memory) {... */\n      swap1\n      jump\t// out\n        /* \"contracts/PYGGportfolioManagement.sol\":4674:5313  function withdrawInKind(uint256 tokenAmount) external {... */\n    tag_90:\n        /* \"contracts/PYGGportfolioManagement.sol\":4760:4761  0 */\n      0x00\n        /* \"contracts/PYGGportfolioManagement.sol\":4746:4757  tokenAmount */\n      dup2\n        /* \"contracts/PYGGportfolioManagement.sol\":4746:4761  tokenAmount > 0 */\n      gt\n        /* \"contracts/PYGGportfolioManagement.sol\":4738:4769  require(tokenAmount > 0, \"W>0\") */\n      tag_279\n      jumpi\n      mload(0x40)\n      shl(0xe5, 0x461bcd)\n      dup2\n      mstore\n        /* \"#utility.yul\":16908:16910   */\n      0x20\n        /* \"contracts/PYGGportfolioManagement.sol\":4738:4769  require(tokenAmount > 0, \"W>0\") */\n      0x04\n      dup3\n      add\n        /* \"#utility.yul\":16890:16911   */\n      mstore\n        /* \"#utility.yul\":16947:16948   */\n      0x03\n        /* \"#utility.yul\":16927:16945   */\n      0x24\n      dup3\n      add\n        /* \"#utility.yul\":16920:16949   */\n      mstore\n      shl(0xec, 0x0573e3)\n        /* \"#utility.yul\":16965:16983   */\n      0x44\n      dup3\n      add\n        /* \"#utility.yul\":16958:16991   */\n      mstore\n        /* \"#utility.yul\":17008:17026   */\n      0x64\n      add\n        /* \"contracts/PYGGportfolioManagement.sol\":4738:4769  require(tokenAmount > 0, \"W>0\") */\n      tag_188\n        /* \"#utility.yul\":16706:17032   */\n      jump\n        /* \"contracts/PYGGportfolioManagement.sol\":4738:4769  require(tokenAmount > 0, \"W>0\") */\n    tag_279:\n        /* \"contracts/PYGGportfolioManagement.sol\":4797:4807  msg.sender */\n      caller\n        /* \"@openzeppelin/contracts/token/ERC20/ERC20.sol\":3364:3371  uint256 */\n      0x00\n        /* \"@openzeppelin/contracts/token/ERC20/ERC20.sol\":3390:3408  _balances[account] */\n      swap1\n      dup2\n      mstore\n        /* \"@openzeppelin/contracts/token/ERC20/ERC20.sol\":3390:3399  _balances */\n      0x01\n        /* \"@openzeppelin/contracts/token/ERC20/ERC20.sol\":3390:3408  _balances[account] */\n      0x20\n      mstore\n      0x40\n      swap1\n      keccak256\n      sload\n        /* \"contracts/PYGGportfolioManagement.sol\":4812:4823  tokenAmount */\n      dup2\n      gt\n        /* \"contracts/PYGGportfolioManagement.sol\":4787:4823  balanceOf(msg.sender) >= tokenAmount */\n      iszero\n        /* \"contracts/PYGGportfolioManagement.sol\":4779:4836  require(balanceOf(msg.sender) >= tokenAmount, \"!balance\") */\n      tag_283\n      jumpi\n      mload(0x40)\n      shl(0xe5, 0x461bcd)\n      dup2\n      mstore\n        /* \"#utility.yul\":17239:17241   */\n      0x20\n        /* \"contracts/PYGGportfolioManagement.sol\":4779:4836  require(balanceOf(msg.sender) >= tokenAmount, \"!balance\") */\n      0x04\n      dup3\n      add\n        /* \"#utility.yul\":17221:17242   */\n      mstore\n        /* \"#utility.yul\":17278:17279   */\n      0x08\n        /* \"#utility.yul\":17258:17276   */\n      0x24\n      dup3\n      add\n        /* \"#utility.yul\":17251:17280   */\n      mstore\n      shl(0xc0, 0x2162616c616e6365)\n        /* \"#utility.yul\":17296:17314   */\n      0x44\n      dup3\n      add\n        /* \"#utility.yul\":17289:17327   */\n      mstore\n        /* \"#utility.yul\":17344:17362   */\n      0x64\n      add\n        /* \"contracts/PYGGportfolioManagement.sol\":4779:4836  require(balanceOf(msg.sender) >= tokenAmount, \"!balance\") */\n      tag_188\n        /* \"#utility.yul\":17037:17368   */\n      jump\n        /* \"contracts/PYGGportfolioManagement.sol\":4779:4836  require(balanceOf(msg.sender) >= tokenAmount, \"!balance\") */\n    tag_283:\n        /* \"contracts/PYGGportfolioManagement.sol\":4847:4864  uint256 userShare */\n      0x00\n        /* \"contracts/PYGGportfolioManagement.sol\":4891:4904  totalSupply() */\n      tag_286\n        /* \"@openzeppelin/contracts/token/ERC20/ERC20.sol\":3222:3234  _totalSupply */\n      sload(0x03)\n      swap1\n        /* \"@openzeppelin/contracts/token/ERC20/ERC20.sol\":3144:3241  function totalSupply() public view virtual returns (uint256) {... */\n      jump\n        /* \"contracts/PYGGportfolioManagement.sol\":4891:4904  totalSupply() */\n    tag_286:\n        /* \"contracts/PYGGportfolioManagement.sol\":4868:4887  tokenAmount * 10000 */\n      tag_287\n        /* \"contracts/PYGGportfolioManagement.sol\":4868:4879  tokenAmount */\n      dup4\n        /* \"contracts/PYGGportfolioManagement.sol\":4882:4887  10000 */\n      0x2710\n        /* \"contracts/PYGGportfolioManagement.sol\":4868:4887  tokenAmount * 10000 */\n      tag_202\n      jump\t// in\n    tag_287:\n        /* \"contracts/PYGGportfolioManagement.sol\":4867:4904  (tokenAmount * 10000) / totalSupply() */\n      tag_288\n      swap2\n      swap1\n      tag_204\n      jump\t// in\n    tag_288:\n        /* \"contracts/PYGGportfolioManagement.sol\":4847:4904  uint256 userShare = (tokenAmount * 10000) / totalSupply() */\n      swap1\n      pop\n        /* \"contracts/PYGGportfolioManagement.sol\":4914:4944  _burn(msg.sender, tokenAmount) */\n      tag_289\n        /* \"contracts/PYGGportfolioManagement.sol\":4920:4930  msg.sender */\n      caller\n        /* \"contracts/PYGGportfolioManagement.sol\":4932:4943  tokenAmount */\n      dup4\n        /* \"contracts/PYGGportfolioManagement.sol\":4914:4919  _burn */\n      tag_238\n        /* \"contracts/PYGGportfolioManagement.sol\":4914:4944  _burn(msg.sender, tokenAmount) */\n      jump\t// in\n    tag_289:\n        /* \"contracts/PYGGportfolioManagement.sol\":4960:4969  uint256 i */\n      0x00\n        /* \"contracts/PYGGportfolioManagement.sol\":4955:5307  for (uint256 i = 0; i < tokens.length; i++) {... */\n    tag_290:\n        /* \"contracts/PYGGportfolioManagement.sol\":4979:4985  tokens */\n      0x0c\n        /* \"contracts/PYGGportfolioManagement.sol\":4979:4992  tokens.length */\n      sload\n        /* \"contracts/PYGGportfolioManagement.sol\":4975:4992  i < tokens.length */\n      dup2\n      lt\n        /* \"contracts/PYGGportfolioManagement.sol\":4955:5307  for (uint256 i = 0; i < tokens.length; i++) {... */\n      iszero\n      tag_291\n      jumpi\n        /* \"contracts/PYGGportfolioManagement.sol\":5013:5040  TokenInfo storage tokenInfo */\n      0x00\n        /* \"contracts/PYGGportfolioManagement.sol\":5043:5049  tokens */\n      0x0c\n        /* \"contracts/PYGGportfolioManagement.sol\":5050:5051  i */\n      dup3\n        /* \"contracts/PYGGportfolioManagement.sol\":5043:5052  tokens[i] */\n      dup2\n      sload\n      dup2\n      lt\n      tag_294\n      jumpi\n      tag_294\n      tag_214\n      jump\t// in\n    tag_294:\n      0x00\n      swap2\n      dup3\n      mstore\n      0x20\n      dup3\n      keccak256\n      0x02\n      swap2\n      swap1\n      swap2\n      mul\n      add\n        /* \"contracts/PYGGportfolioManagement.sol\":5099:5114  tokenInfo.token */\n      dup1\n      sload\n        /* \"contracts/PYGGportfolioManagement.sol\":5099:5139  tokenInfo.token.balanceOf(address(this)) */\n      mload(0x40)\n      shl(0xe0, 0x70a08231)\n      dup2\n      mstore\n        /* \"contracts/PYGGportfolioManagement.sol\":5133:5137  this */\n      address\n        /* \"contracts/PYGGportfolioManagement.sol\":5099:5139  tokenInfo.token.balanceOf(address(this)) */\n      0x04\n      dup3\n      add\n        /* \"#utility.yul\":3497:3548   */\n      mstore\n        /* \"contracts/PYGGportfolioManagement.sol\":5043:5052  tokens[i] */\n      swap2\n      swap4\n      pop\n        /* \"contracts/PYGGportfolioManagement.sol\":5155:5160  10000 */\n      0x2710\n      swap2\n        /* \"contracts/PYGGportfolioManagement.sol\":5142:5151  userShare */\n      dup7\n      swap2\n      sub(shl(0xa0, 0x01), 0x01)\n        /* \"contracts/PYGGportfolioManagement.sol\":5099:5114  tokenInfo.token */\n      and\n      swap1\n        /* \"contracts/PYGGportfolioManagement.sol\":5099:5124  tokenInfo.token.balanceOf */\n      0x70a08231\n      swap1\n        /* \"#utility.yul\":3470:3488   */\n      0x24\n      add\n        /* \"contracts/PYGGportfolioManagement.sol\":5099:5139  tokenInfo.token.balanceOf(address(this)) */\n      0x20\n      mload(0x40)\n      dup1\n      dup4\n      sub\n      dup2\n      dup7\n      gas\n      staticcall\n      iszero\n      dup1\n      iszero\n      tag_298\n      jumpi\n      returndatasize\n      0x00\n      dup1\n      returndatacopy\n      revert(0x00, returndatasize)\n    tag_298:\n      pop\n      pop\n      pop\n      pop\n      mload(0x40)\n      returndatasize\n      not(0x1f)\n      0x1f\n      dup3\n      add\n      and\n      dup3\n      add\n      dup1\n      0x40\n      mstore\n      pop\n      dup2\n      add\n      swap1\n      tag_299\n      swap2\n      swap1\n      tag_194\n      jump\t// in\n    tag_299:\n        /* \"contracts/PYGGportfolioManagement.sol\":5099:5151  tokenInfo.token.balanceOf(address(this)) * userShare */\n      tag_300\n      swap2\n      swap1\n      tag_202\n      jump\t// in\n    tag_300:\n        /* \"contracts/PYGGportfolioManagement.sol\":5098:5160  (tokenInfo.token.balanceOf(address(this)) * userShare) / 10000 */\n      tag_301\n      swap2\n      swap1\n      tag_204\n      jump\t// in\n    tag_301:\n        /* \"contracts/PYGGportfolioManagement.sol\":5066:5160  uint256 tokenAmountToWithdraw = (tokenInfo.token.balanceOf(address(this)) * userShare) / 10000 */\n      swap1\n      pop\n        /* \"contracts/PYGGportfolioManagement.sol\":5178:5203  tokenAmountToWithdraw > 0 */\n      dup1\n      iszero\n        /* \"contracts/PYGGportfolioManagement.sol\":5174:5297  if (tokenAmountToWithdraw > 0) {... */\n      tag_302\n      jumpi\n        /* \"contracts/PYGGportfolioManagement.sol\":5223:5238  tokenInfo.token */\n      dup2\n      sload\n        /* \"contracts/PYGGportfolioManagement.sol\":5223:5282  tokenInfo.token.transfer(msg.sender, tokenAmountToWithdraw) */\n      mload(0x40)\n      shl(0xe0, 0xa9059cbb)\n      dup2\n      mstore\n        /* \"contracts/PYGGportfolioManagement.sol\":5248:5258  msg.sender */\n      caller\n        /* \"contracts/PYGGportfolioManagement.sol\":5223:5282  tokenInfo.token.transfer(msg.sender, tokenAmountToWithdraw) */\n      0x04\n      dup3\n      add\n        /* \"#utility.yul\":15602:15653   */\n      mstore\n        /* \"#utility.yul\":15669:15687   */\n      0x24\n      dup2\n      add\n        /* \"#utility.yul\":15662:15696   */\n      dup4\n      swap1\n      mstore\n      sub(shl(0xa0, 0x01), 0x01)\n        /* \"contracts/PYGGportfolioManagement.sol\":5223:5238  tokenInfo.token */\n      swap1\n      swap2\n      and\n      swap1\n        /* \"contracts/PYGGportfolioManagement.sol\":5223:5247  tokenInfo.token.transfer */\n      0xa9059cbb\n      swap1\n        /* \"#utility.yul\":15575:15593   */\n      0x44\n      add\n        /* \"contracts/PYGGportfolioManagement.sol\":5223:5282  tokenInfo.token.transfer(msg.sender, tokenAmountToWithdraw) */\n      0x20\n      mload(0x40)\n      dup1\n      dup4\n      sub\n      dup2\n      0x00\n      dup8\n      gas\n      call\n      iszero\n      dup1\n      iszero\n      tag_305\n      jumpi\n      returndatasize\n      0x00\n      dup1\n      returndatacopy\n      revert(0x00, returndatasize)\n    tag_305:\n      pop\n      pop\n      pop\n      pop\n      mload(0x40)\n      returndatasize\n      not(0x1f)\n      0x1f\n      dup3\n      add\n      and\n      dup3\n      add\n      dup1\n      0x40\n      mstore\n      pop\n      dup2\n      add\n      swap1\n      tag_306\n      swap2\n      swap1\n      tag_250\n      jump\t// in\n    tag_306:\n      pop\n        /* \"contracts/PYGGportfolioManagement.sol\":5174:5297  if (tokenAmountToWithdraw > 0) {... */\n    tag_302:\n        /* \"contracts/PYGGportfolioManagement.sol\":4999:5307  {... */\n      pop\n      pop\n        /* \"contracts/PYGGportfolioManagement.sol\":4994:4997  i++ */\n      dup1\n      dup1\n      tag_307\n      swap1\n      tag_236\n      jump\t// in\n    tag_307:\n      swap2\n      pop\n      pop\n        /* \"contracts/PYGGportfolioManagement.sol\":4955:5307  for (uint256 i = 0; i < tokens.length; i++) {... */\n      jump(tag_290)\n    tag_291:\n      pop\n        /* \"contracts/PYGGportfolioManagement.sol\":4728:5313  {... */\n      pop\n        /* \"contracts/PYGGportfolioManagement.sol\":4674:5313  function withdrawInKind(uint256 tokenAmount) external {... */\n      pop\n      jump\t// out\n        /* \"contracts/SwapOperationManager.sol\":484:515  FailedSwap[] public failedSwaps */\n    tag_105:\n      0x06\n      dup2\n      dup2\n      sload\n      dup2\n      lt\n      tag_309\n      jumpi\n      0x00\n      dup1\n      revert\n    tag_309:\n      0x00\n      swap2\n      dup3\n      mstore\n      0x20\n      swap1\n      swap2\n      keccak256\n      0x03\n      swap1\n      swap2\n      mul\n      add\n      dup1\n      sload\n      0x01\n      dup3\n      add\n      sload\n      0x02\n      swap1\n      swap3\n      add\n      sload\n      sub(shl(0xa0, 0x01), 0x01)\n      swap2\n      dup3\n      and\n      swap4\n      pop\n      swap2\n      and\n      swap1\n      dup4\n      jump\t// out\n        /* \"contracts/PYGGportfolioManagement.sol\":1184:2113  function initializeTokens(... */\n    tag_112:\n        /* \"@openzeppelin/contracts/access/Ownable.sol\":1531:1544  _checkOwner() */\n      tag_312\n        /* \"@openzeppelin/contracts/access/Ownable.sol\":1531:1542  _checkOwner */\n      tag_313\n        /* \"@openzeppelin/contracts/access/Ownable.sol\":1531:1544  _checkOwner() */\n      jump\t// in\n    tag_312:\n        /* \"contracts/PYGGportfolioManagement.sol\":1396:1411  initialedTokens */\n      sload(0x0e)\n      0x0100000000\n      swap1\n      div\n      0xff\n      and\n        /* \"contracts/PYGGportfolioManagement.sol\":1395:1411  !initialedTokens */\n      iszero\n        /* \"contracts/PYGGportfolioManagement.sol\":1387:1427  require(!initialedTokens, \"initialized\") */\n      tag_315\n      jumpi\n      mload(0x40)\n      shl(0xe5, 0x461bcd)\n      dup2\n      mstore\n        /* \"#utility.yul\":17575:17577   */\n      0x20\n        /* \"contracts/PYGGportfolioManagement.sol\":1387:1427  require(!initialedTokens, \"initialized\") */\n      0x04\n      dup3\n      add\n        /* \"#utility.yul\":17557:17578   */\n      mstore\n        /* \"#utility.yul\":17614:17616   */\n      0x0b\n        /* \"#utility.yul\":17594:17612   */\n      0x24\n      dup3\n      add\n        /* \"#utility.yul\":17587:17617   */\n      mstore\n      shl(0xaa, 0x1a5b9a5d1a585b1a5e9959)\n        /* \"#utility.yul\":17633:17651   */\n      0x44\n      dup3\n      add\n        /* \"#utility.yul\":17626:17667   */\n      mstore\n        /* \"#utility.yul\":17684:17702   */\n      0x64\n      add\n        /* \"contracts/PYGGportfolioManagement.sol\":1387:1427  require(!initialedTokens, \"initialized\") */\n      tag_188\n        /* \"#utility.yul\":17373:17708   */\n      jump\n        /* \"contracts/PYGGportfolioManagement.sol\":1387:1427  require(!initialedTokens, \"initialized\") */\n    tag_315:\n        /* \"contracts/PYGGportfolioManagement.sol\":1445:1488  _tokens.length == _targetPercentages.length */\n      dup5\n      dup4\n      eq\n        /* \"contracts/PYGGportfolioManagement.sol\":1437:1511  require(_tokens.length == _targetPercentages.length, \"Mismatched lengths\") */\n      tag_318\n      jumpi\n      mload(0x40)\n      shl(0xe5, 0x461bcd)\n      dup2\n      mstore\n        /* \"#utility.yul\":17915:17917   */\n      0x20\n        /* \"contracts/PYGGportfolioManagement.sol\":1437:1511  require(_tokens.length == _targetPercentages.length, \"Mismatched lengths\") */\n      0x04\n      dup3\n      add\n        /* \"#utility.yul\":17897:17918   */\n      mstore\n        /* \"#utility.yul\":17954:17956   */\n      0x12\n        /* \"#utility.yul\":17934:17952   */\n      0x24\n      dup3\n      add\n        /* \"#utility.yul\":17927:17957   */\n      mstore\n      shl(0x70, 0x4d69736d617463686564206c656e67746873)\n        /* \"#utility.yul\":17973:17991   */\n      0x44\n      dup3\n      add\n        /* \"#utility.yul\":17966:18014   */\n      mstore\n        /* \"#utility.yul\":18031:18049   */\n      0x64\n      add\n        /* \"contracts/PYGGportfolioManagement.sol\":1437:1511  require(_tokens.length == _targetPercentages.length, \"Mismatched lengths\") */\n      tag_188\n        /* \"#utility.yul\":17713:18055   */\n      jump\n        /* \"contracts/PYGGportfolioManagement.sol\":1437:1511  require(_tokens.length == _targetPercentages.length, \"Mismatched lengths\") */\n    tag_318:\n        /* \"contracts/PYGGportfolioManagement.sol\":1521:1534  withdrawalFee */\n      0x0e\n        /* \"contracts/PYGGportfolioManagement.sol\":1521:1551  withdrawalFee = _withdrawalFee */\n      dup1\n      sload\n      0xffff\n        /* \"contracts/PYGGportfolioManagement.sol\":1561:1585  depositFee = _depositFee */\n      dup4\n      dup2\n      and\n      0x010000\n      mul\n      not(0xffffffff)\n      swap1\n      swap3\n      and\n        /* \"contracts/PYGGportfolioManagement.sol\":1521:1551  withdrawalFee = _withdrawalFee */\n      swap1\n      dup6\n      and\n        /* \"contracts/PYGGportfolioManagement.sol\":1561:1585  depositFee = _depositFee */\n      or\n      or\n      swap1\n      sstore\n        /* \"contracts/PYGGportfolioManagement.sol\":1521:1534  withdrawalFee */\n      0x00\n      dup1\n        /* \"contracts/PYGGportfolioManagement.sol\":1632:1969  for (uint256 i = 0; i < _tokens.length; i++) {... */\n    tag_321:\n        /* \"contracts/PYGGportfolioManagement.sol\":1652:1670  i < _tokens.length */\n      dup7\n      dup2\n      lt\n        /* \"contracts/PYGGportfolioManagement.sol\":1632:1969  for (uint256 i = 0; i < _tokens.length; i++) {... */\n      iszero\n      tag_322\n      jumpi\n        /* \"contracts/PYGGportfolioManagement.sol\":1724:1729  10000 */\n      0x2710\n        /* \"contracts/PYGGportfolioManagement.sol\":1699:1717  _targetPercentages */\n      dup7\n      dup7\n        /* \"contracts/PYGGportfolioManagement.sol\":1718:1719  i */\n      dup4\n        /* \"contracts/PYGGportfolioManagement.sol\":1699:1720  _targetPercentages[i] */\n      dup2\n      dup2\n      lt\n      tag_325\n      jumpi\n      tag_325\n      tag_214\n      jump\t// in\n    tag_325:\n      swap1\n      pop\n      0x20\n      mul\n      add\n      calldataload\n        /* \"contracts/PYGGportfolioManagement.sol\":1699:1729  _targetPercentages[i] <= 10000 */\n      gt\n      iszero\n        /* \"contracts/PYGGportfolioManagement.sol\":1691:1751  require(_targetPercentages[i] <= 10000, \"InvalidPercentage\") */\n      tag_326\n      jumpi\n      mload(0x40)\n      shl(0xe5, 0x461bcd)\n      dup2\n      mstore\n        /* \"#utility.yul\":18262:18264   */\n      0x20\n        /* \"contracts/PYGGportfolioManagement.sol\":1691:1751  require(_targetPercentages[i] <= 10000, \"InvalidPercentage\") */\n      0x04\n      dup3\n      add\n        /* \"#utility.yul\":18244:18265   */\n      mstore\n        /* \"#utility.yul\":18301:18303   */\n      0x11\n        /* \"#utility.yul\":18281:18299   */\n      0x24\n      dup3\n      add\n        /* \"#utility.yul\":18274:18304   */\n      mstore\n      shl(0x78, 0x496e76616c696450657263656e74616765)\n        /* \"#utility.yul\":18320:18338   */\n      0x44\n      dup3\n      add\n        /* \"#utility.yul\":18313:18360   */\n      mstore\n        /* \"#utility.yul\":18377:18395   */\n      0x64\n      add\n        /* \"contracts/PYGGportfolioManagement.sol\":1691:1751  require(_targetPercentages[i] <= 10000, \"InvalidPercentage\") */\n      tag_188\n        /* \"#utility.yul\":18060:18401   */\n      jump\n        /* \"contracts/PYGGportfolioManagement.sol\":1691:1751  require(_targetPercentages[i] <= 10000, \"InvalidPercentage\") */\n    tag_326:\n        /* \"contracts/PYGGportfolioManagement.sol\":1784:1802  _targetPercentages */\n      dup6\n      dup6\n        /* \"contracts/PYGGportfolioManagement.sol\":1803:1804  i */\n      dup3\n        /* \"contracts/PYGGportfolioManagement.sol\":1784:1805  _targetPercentages[i] */\n      dup2\n      dup2\n      lt\n      tag_330\n      jumpi\n      tag_330\n      tag_214\n      jump\t// in\n    tag_330:\n      swap1\n      pop\n      0x20\n      mul\n      add\n      calldataload\n        /* \"contracts/PYGGportfolioManagement.sol\":1765:1805  totalPercentage += _targetPercentages[i] */\n      dup3\n      tag_331\n      swap2\n      swap1\n      tag_234\n      jump\t// in\n    tag_331:\n      swap2\n      pop\n        /* \"contracts/PYGGportfolioManagement.sol\":1820:1826  tokens */\n      0x0c\n        /* \"contracts/PYGGportfolioManagement.sol\":1832:1957  TokenInfo({... */\n      mload(0x40)\n      dup1\n      0x40\n      add\n      0x40\n      mstore\n      dup1\n        /* \"contracts/PYGGportfolioManagement.sol\":1874:1881  _tokens */\n      dup11\n      dup11\n        /* \"contracts/PYGGportfolioManagement.sol\":1882:1883  i */\n      dup6\n        /* \"contracts/PYGGportfolioManagement.sol\":1874:1884  _tokens[i] */\n      dup2\n      dup2\n      lt\n      tag_333\n      jumpi\n      tag_333\n      tag_214\n      jump\t// in\n    tag_333:\n      swap1\n      pop\n      0x20\n      mul\n      add\n      0x20\n      dup2\n      add\n      swap1\n      tag_334\n      swap2\n      swap1\n      tag_99\n      jump\t// in\n    tag_334:\n      sub(shl(0xa0, 0x01), 0x01)\n        /* \"contracts/PYGGportfolioManagement.sol\":1832:1957  TokenInfo({... */\n      and\n      dup2\n      mstore\n      0x20\n      add\n        /* \"contracts/PYGGportfolioManagement.sol\":1921:1939  _targetPercentages */\n      dup9\n      dup9\n        /* \"contracts/PYGGportfolioManagement.sol\":1940:1941  i */\n      dup6\n        /* \"contracts/PYGGportfolioManagement.sol\":1921:1942  _targetPercentages[i] */\n      dup2\n      dup2\n      lt\n      tag_336\n      jumpi\n      tag_336\n      tag_214\n      jump\t// in\n    tag_336:\n      0x20\n      swap1\n      dup2\n      mul\n      swap3\n      swap1\n      swap3\n      add\n      calldataload\n        /* \"contracts/PYGGportfolioManagement.sol\":1832:1957  TokenInfo({... */\n      swap1\n      swap3\n      mstore\n        /* \"contracts/PYGGportfolioManagement.sol\":1820:1958  tokens.push(TokenInfo({... */\n      dup4\n      sload\n      0x01\n      dup1\n      dup3\n      add\n      dup7\n      sstore\n      0x00\n      swap6\n      dup7\n      mstore\n      swap5\n      dup3\n      swap1\n      keccak256\n      dup5\n      mload\n      0x02\n      swap1\n      swap3\n      mul\n      add\n      dup1\n      sload\n      not(sub(shl(0xa0, 0x01), 0x01))\n      and\n      sub(shl(0xa0, 0x01), 0x01)\n      swap1\n      swap3\n      and\n      swap2\n      swap1\n      swap2\n      or\n      dup2\n      sstore\n      swap3\n      add\n      mload\n      swap2\n      swap1\n      swap3\n      add\n      sstore\n      pop\n        /* \"contracts/PYGGportfolioManagement.sol\":1672:1675  i++ */\n      dup1\n      tag_338\n      dup2\n      tag_236\n      jump\t// in\n    tag_338:\n      swap2\n      pop\n      pop\n        /* \"contracts/PYGGportfolioManagement.sol\":1632:1969  for (uint256 i = 0; i < _tokens.length; i++) {... */\n      jump(tag_321)\n    tag_322:\n      pop\n        /* \"contracts/PYGGportfolioManagement.sol\":1986:2001  totalPercentage */\n      dup1\n        /* \"contracts/PYGGportfolioManagement.sol\":2005:2010  10000 */\n      0x2710\n        /* \"contracts/PYGGportfolioManagement.sol\":1986:2010  totalPercentage == 10000 */\n      eq\n        /* \"contracts/PYGGportfolioManagement.sol\":1978:2022  require(totalPercentage == 10000, \"t=10000\") */\n      tag_339\n      jumpi\n      mload(0x40)\n      shl(0xe5, 0x461bcd)\n      dup2\n      mstore\n        /* \"#utility.yul\":18608:18610   */\n      0x20\n        /* \"contracts/PYGGportfolioManagement.sol\":1978:2022  require(totalPercentage == 10000, \"t=10000\") */\n      0x04\n      dup3\n      add\n        /* \"#utility.yul\":18590:18611   */\n      mstore\n        /* \"#utility.yul\":18647:18648   */\n      0x07\n        /* \"#utility.yul\":18627:18645   */\n      0x24\n      dup3\n      add\n        /* \"#utility.yul\":18620:18649   */\n      mstore\n      shl(0xcc, 0x0743d313030303)\n        /* \"#utility.yul\":18665:18683   */\n      0x44\n      dup3\n      add\n        /* \"#utility.yul\":18658:18695   */\n      mstore\n        /* \"#utility.yul\":18712:18730   */\n      0x64\n      add\n        /* \"contracts/PYGGportfolioManagement.sol\":1978:2022  require(totalPercentage == 10000, \"t=10000\") */\n      tag_188\n        /* \"#utility.yul\":18406:18736   */\n      jump\n        /* \"contracts/PYGGportfolioManagement.sol\":1978:2022  require(totalPercentage == 10000, \"t=10000\") */\n    tag_339:\n        /* \"contracts/PYGGportfolioManagement.sol\":2032:2047  initialedTokens */\n      0x0e\n        /* \"contracts/PYGGportfolioManagement.sol\":2032:2054  initialedTokens = true */\n      dup1\n      sload\n      not(0xff00000000)\n      and\n      0x0100000000\n      or\n      swap1\n      sstore\n        /* \"contracts/PYGGportfolioManagement.sol\":2069:2106  AddToken(_tokens, _targetPercentages) */\n      mload(0x40)\n      0xa6413c453391b24b1553ee2908b9fdb9d8528511a0b9983f82d823531cea38b8\n      swap1\n      tag_342\n      swap1\n        /* \"contracts/PYGGportfolioManagement.sol\":2078:2085  _tokens */\n      dup10\n      swap1\n      dup10\n      swap1\n        /* \"contracts/PYGGportfolioManagement.sol\":2087:2105  _targetPercentages */\n      dup10\n      swap1\n      dup10\n      swap1\n        /* \"contracts/PYGGportfolioManagement.sol\":2069:2106  AddToken(_tokens, _targetPercentages) */\n      tag_343\n      jump\t// in\n    tag_342:\n      mload(0x40)\n      dup1\n      swap2\n      sub\n      swap1\n      log1\n        /* \"contracts/PYGGportfolioManagement.sol\":1377:2113  {... */\n      pop\n        /* \"contracts/PYGGportfolioManagement.sol\":1184:2113  function initializeTokens(... */\n      pop\n      pop\n      pop\n      pop\n      pop\n      pop\n      jump\t// out\n        /* \"@openzeppelin/contracts/access/Ownable.sol\":2293:2394  function renounceOwnership() public virtual onlyOwner {... */\n    tag_130:\n        /* \"@openzeppelin/contracts/access/Ownable.sol\":1531:1544  _checkOwner() */\n      tag_346\n        /* \"@openzeppelin/contracts/access/Ownable.sol\":1531:1542  _checkOwner */\n      tag_313\n        /* \"@openzeppelin/contracts/access/Ownable.sol\":1531:1544  _checkOwner() */\n      jump\t// in\n    tag_346:\n        /* \"@openzeppelin/contracts/access/Ownable.sol\":2357:2387  _transferOwnership(address(0)) */\n      tag_348\n        /* \"@openzeppelin/contracts/access/Ownable.sol\":2384:2385  0 */\n      0x00\n        /* \"@openzeppelin/contracts/access/Ownable.sol\":2357:2375  _transferOwnership */\n      tag_349\n        /* \"@openzeppelin/contracts/access/Ownable.sol\":2357:2387  _transferOwnership(address(0)) */\n      jump\t// in\n    tag_348:\n        /* \"@openzeppelin/contracts/access/Ownable.sol\":2293:2394  function renounceOwnership() public virtual onlyOwner {... */\n      jump\t// out\n        /* \"contracts/SwapOperationManager.sol\":3554:3997  function swapTokenForToken(IERC20 _token, uint256 _amountIn, Version _version, address _receiver, bytes memory _path) external returns (uint256) {... */\n    tag_135:\n        /* \"contracts/SwapOperationManager.sol\":3690:3697  uint256 */\n      0x00\n      dup1\n        /* \"contracts/SwapOperationManager.sol\":3713:3721  _version */\n      dup5\n        /* \"contracts/SwapOperationManager.sol\":3713:3735  _version == Version.V2 */\n      0x01\n      dup2\n      gt\n      iszero\n      tag_355\n      jumpi\n      tag_355\n      tag_353\n      jump\t// in\n    tag_355:\n      sub\n        /* \"contracts/SwapOperationManager.sol\":3709:3991  if (_version == Version.V2) {... */\n      tag_356\n      jumpi\n        /* \"contracts/SwapOperationManager.sol\":3758:3814  swapTokenForTokenV2(_token, _amountIn, _receiver, _path) */\n      tag_357\n        /* \"contracts/SwapOperationManager.sol\":3778:3784  _token */\n      dup7\n        /* \"contracts/SwapOperationManager.sol\":3786:3795  _amountIn */\n      dup7\n        /* \"contracts/SwapOperationManager.sol\":3797:3806  _receiver */\n      dup6\n        /* \"contracts/SwapOperationManager.sol\":3808:3813  _path */\n      dup6\n        /* \"contracts/SwapOperationManager.sol\":3758:3777  swapTokenForTokenV2 */\n      tag_358\n        /* \"contracts/SwapOperationManager.sol\":3758:3814  swapTokenForTokenV2(_token, _amountIn, _receiver, _path) */\n      jump\t// in\n    tag_357:\n        /* \"contracts/SwapOperationManager.sol\":3751:3814  return swapTokenForTokenV2(_token, _amountIn, _receiver, _path) */\n      swap1\n      pop\n      jump(tag_367)\n        /* \"contracts/SwapOperationManager.sol\":3709:3991  if (_version == Version.V2) {... */\n    tag_356:\n        /* \"contracts/SwapOperationManager.sol\":3847:3857  Version.V3 */\n      0x01\n        /* \"contracts/SwapOperationManager.sol\":3835:3843  _version */\n      dup5\n        /* \"contracts/SwapOperationManager.sol\":3835:3857  _version == Version.V3 */\n      0x01\n      dup2\n      gt\n      iszero\n      tag_363\n      jumpi\n      tag_363\n      tag_353\n      jump\t// in\n    tag_363:\n      sub\n        /* \"contracts/SwapOperationManager.sol\":3831:3991  if (_version == Version.V3) {... */\n      tag_364\n      jumpi\n        /* \"contracts/SwapOperationManager.sol\":3880:3936  swapTokenForTokenV3(_token, _amountIn, _receiver, _path) */\n      tag_357\n        /* \"contracts/SwapOperationManager.sol\":3900:3906  _token */\n      dup7\n        /* \"contracts/SwapOperationManager.sol\":3908:3917  _amountIn */\n      dup7\n        /* \"contracts/SwapOperationManager.sol\":3919:3928  _receiver */\n      dup6\n        /* \"contracts/SwapOperationManager.sol\":3930:3935  _path */\n      dup6\n        /* \"contracts/SwapOperationManager.sol\":3880:3899  swapTokenForTokenV3 */\n      tag_366\n        /* \"contracts/SwapOperationManager.sol\":3880:3936  swapTokenForTokenV3(_token, _amountIn, _receiver, _path) */\n      jump\t// in\n        /* \"contracts/SwapOperationManager.sol\":3831:3991  if (_version == Version.V3) {... */\n    tag_364:\n        /* \"contracts/SwapOperationManager.sol\":3967:3980  revert(\"!UV\") */\n      mload(0x40)\n      shl(0xe5, 0x461bcd)\n      dup2\n      mstore\n        /* \"#utility.yul\":20007:20009   */\n      0x20\n        /* \"contracts/SwapOperationManager.sol\":3967:3980  revert(\"!UV\") */\n      0x04\n      dup3\n      add\n        /* \"#utility.yul\":19989:20010   */\n      mstore\n        /* \"#utility.yul\":20046:20047   */\n      0x03\n        /* \"#utility.yul\":20026:20044   */\n      0x24\n      dup3\n      add\n        /* \"#utility.yul\":20019:20048   */\n      mstore\n      shl(0xe9, 0x10aaab)\n        /* \"#utility.yul\":20064:20082   */\n      0x44\n      dup3\n      add\n        /* \"#utility.yul\":20057:20090   */\n      mstore\n        /* \"#utility.yul\":20107:20125   */\n      0x64\n      add\n        /* \"contracts/SwapOperationManager.sol\":3967:3980  revert(\"!UV\") */\n      tag_188\n        /* \"#utility.yul\":19805:20131   */\n      jump\n        /* \"contracts/SwapOperationManager.sol\":3831:3991  if (_version == Version.V3) {... */\n    tag_367:\n        /* \"contracts/SwapOperationManager.sol\":3554:3997  function swapTokenForToken(IERC20 _token, uint256 _amountIn, Version _version, address _receiver, bytes memory _path) external returns (uint256) {... */\n      swap6\n      swap5\n      pop\n      pop\n      pop\n      pop\n      pop\n      jump\t// out\n        /* \"contracts/PYGGportfolioManagement.sol\":2119:3411  function deposit(SwapPath calldata _swapath) external payable {... */\n    tag_153:\n        /* \"contracts/PYGGportfolioManagement.sol\":2219:2220  0 */\n      0x00\n        /* \"contracts/PYGGportfolioManagement.sol\":2199:2207  _swapath */\n      dup2\n        /* \"contracts/PYGGportfolioManagement.sol\":2199:2216  _swapath.amountIn */\n      0x20\n      add\n      calldataload\n        /* \"contracts/PYGGportfolioManagement.sol\":2199:2220  _swapath.amountIn > 0 */\n      gt\n        /* \"contracts/PYGGportfolioManagement.sol\":2191:2228  require(_swapath.amountIn > 0, \"!>0\") */\n      tag_372\n      jumpi\n      mload(0x40)\n      shl(0xe5, 0x461bcd)\n      dup2\n      mstore\n        /* \"#utility.yul\":20338:20340   */\n      0x20\n        /* \"contracts/PYGGportfolioManagement.sol\":2191:2228  require(_swapath.amountIn > 0, \"!>0\") */\n      0x04\n      dup3\n      add\n        /* \"#utility.yul\":20320:20341   */\n      mstore\n        /* \"#utility.yul\":20377:20378   */\n      0x03\n        /* \"#utility.yul\":20357:20375   */\n      0x24\n      dup3\n      add\n        /* \"#utility.yul\":20350:20379   */\n      mstore\n      shl(0xec, 0x0213e3)\n        /* \"#utility.yul\":20395:20413   */\n      0x44\n      dup3\n      add\n        /* \"#utility.yul\":20388:20421   */\n      mstore\n        /* \"#utility.yul\":20438:20456   */\n      0x64\n      add\n        /* \"contracts/PYGGportfolioManagement.sol\":2191:2228  require(_swapath.amountIn > 0, \"!>0\") */\n      tag_188\n        /* \"#utility.yul\":20136:20462   */\n      jump\n        /* \"contracts/PYGGportfolioManagement.sol\":2191:2228  require(_swapath.amountIn > 0, \"!>0\") */\n    tag_372:\n        /* \"contracts/PYGGportfolioManagement.sol\":2282:2292  depositFee */\n      sload(0x0e)\n        /* \"contracts/PYGGportfolioManagement.sol\":2247:2258  uint256 fee */\n      0x00\n      swap1\n        /* \"contracts/PYGGportfolioManagement.sol\":2296:2301  10000 */\n      0x2710\n      swap1\n        /* \"contracts/PYGGportfolioManagement.sol\":2262:2292  _swapath.amountIn * depositFee */\n      tag_375\n      swap1\n        /* \"contracts/PYGGportfolioManagement.sol\":2282:2292  depositFee */\n      0x010000\n      swap1\n      div\n      0xffff\n      and\n        /* \"contracts/PYGGportfolioManagement.sol\":2262:2279  _swapath.amountIn */\n      0x20\n      dup6\n      add\n      calldataload\n        /* \"contracts/PYGGportfolioManagement.sol\":2262:2292  _swapath.amountIn * depositFee */\n      tag_202\n      jump\t// in\n    tag_375:\n        /* \"contracts/PYGGportfolioManagement.sol\":2261:2301  (_swapath.amountIn * depositFee) / 10000 */\n      tag_376\n      swap2\n      swap1\n      tag_204\n      jump\t// in\n    tag_376:\n        /* \"contracts/PYGGportfolioManagement.sol\":2247:2301  uint256 fee = (_swapath.amountIn * depositFee) / 10000 */\n      swap1\n      pop\n        /* \"contracts/PYGGportfolioManagement.sol\":2311:2333  uint256 amountAfterFee */\n      0x00\n        /* \"contracts/PYGGportfolioManagement.sol\":2336:2359  _swapath.amountIn - fee */\n      tag_377\n        /* \"contracts/PYGGportfolioManagement.sol\":2247:2301  uint256 fee = (_swapath.amountIn * depositFee) / 10000 */\n      dup3\n        /* \"contracts/PYGGportfolioManagement.sol\":2336:2353  _swapath.amountIn */\n      0x20\n      dup6\n      add\n      calldataload\n        /* \"contracts/PYGGportfolioManagement.sol\":2336:2359  _swapath.amountIn - fee */\n      tag_243\n      jump\t// in\n    tag_377:\n        /* \"contracts/PYGGportfolioManagement.sol\":2311:2359  uint256 amountAfterFee = _swapath.amountIn - fee */\n      swap1\n      pop\n        /* \"contracts/PYGGportfolioManagement.sol\":2386:2389  fee */\n      dup2\n        /* \"contracts/PYGGportfolioManagement.sol\":2369:2382  totalFeesWETH */\n      0x0d\n      0x00\n        /* \"contracts/PYGGportfolioManagement.sol\":2369:2389  totalFeesWETH += fee */\n      dup3\n      dup3\n      sload\n      tag_378\n      swap2\n      swap1\n      tag_234\n      jump\t// in\n    tag_378:\n      swap1\n      swap2\n      sstore\n      pop\n      pop\n        /* \"contracts/PYGGportfolioManagement.sol\":2408:2426  amountAfterFee > 0 */\n      dup1\n        /* \"contracts/PYGGportfolioManagement.sol\":2400:2434  require(amountAfterFee > 0, \"!>0\") */\n      tag_379\n      jumpi\n      mload(0x40)\n      shl(0xe5, 0x461bcd)\n      dup2\n      mstore\n        /* \"#utility.yul\":20338:20340   */\n      0x20\n        /* \"contracts/PYGGportfolioManagement.sol\":2400:2434  require(amountAfterFee > 0, \"!>0\") */\n      0x04\n      dup3\n      add\n        /* \"#utility.yul\":20320:20341   */\n      mstore\n        /* \"#utility.yul\":20377:20378   */\n      0x03\n        /* \"#utility.yul\":20357:20375   */\n      0x24\n      dup3\n      add\n        /* \"#utility.yul\":20350:20379   */\n      mstore\n      shl(0xec, 0x0213e3)\n        /* \"#utility.yul\":20395:20413   */\n      0x44\n      dup3\n      add\n        /* \"#utility.yul\":20388:20421   */\n      mstore\n        /* \"#utility.yul\":20438:20456   */\n      0x64\n      add\n        /* \"contracts/PYGGportfolioManagement.sol\":2400:2434  require(amountAfterFee > 0, \"!>0\") */\n      tag_188\n        /* \"#utility.yul\":20136:20462   */\n      jump\n        /* \"contracts/PYGGportfolioManagement.sol\":2400:2434  require(amountAfterFee > 0, \"!>0\") */\n    tag_379:\n        /* \"contracts/PYGGportfolioManagement.sol\":2484:2499  uniswapV2Router */\n      sload(0x09)\n        /* \"contracts/PYGGportfolioManagement.sol\":2484:2506  uniswapV2Router.WETH() */\n      0x40\n      dup1\n      mload\n      shl(0xe3, 0x15ab88c9)\n      dup2\n      mstore\n      swap1\n      mload\n        /* \"contracts/PYGGportfolioManagement.sol\":2444:2554  TransferHelper.safeTransferFrom(address(uniswapV2Router.WETH()), msg.sender, address(this), _swapath.amountIn) */\n      tag_381\n      swap3\n      sub(shl(0xa0, 0x01), 0x01)\n        /* \"contracts/PYGGportfolioManagement.sol\":2484:2499  uniswapV2Router */\n      and\n      swap2\n        /* \"contracts/PYGGportfolioManagement.sol\":2484:2504  uniswapV2Router.WETH */\n      0xad5c4648\n      swap2\n        /* \"contracts/PYGGportfolioManagement.sol\":2484:2506  uniswapV2Router.WETH() */\n      0x04\n      dup1\n      dup4\n      add\n      swap3\n      0x20\n      swap3\n      swap2\n      swap1\n      dup3\n      swap1\n      sub\n      add\n      dup2\n        /* \"contracts/PYGGportfolioManagement.sol\":2484:2499  uniswapV2Router */\n      dup7\n        /* \"contracts/PYGGportfolioManagement.sol\":2484:2506  uniswapV2Router.WETH() */\n      gas\n      staticcall\n      iszero\n      dup1\n      iszero\n      tag_383\n      jumpi\n      returndatasize\n      0x00\n      dup1\n      returndatacopy\n      revert(0x00, returndatasize)\n    tag_383:\n      pop\n      pop\n      pop\n      pop\n      mload(0x40)\n      returndatasize\n      not(0x1f)\n      0x1f\n      dup3\n      add\n      and\n      dup3\n      add\n      dup1\n      0x40\n      mstore\n      pop\n      dup2\n      add\n      swap1\n      tag_384\n      swap2\n      swap1\n      tag_208\n      jump\t// in\n    tag_384:\n        /* \"contracts/PYGGportfolioManagement.sol\":2509:2519  msg.sender */\n      caller\n        /* \"contracts/PYGGportfolioManagement.sol\":2529:2533  this */\n      address\n        /* \"contracts/PYGGportfolioManagement.sol\":2536:2544  _swapath */\n      dup7\n        /* \"contracts/PYGGportfolioManagement.sol\":2536:2553  _swapath.amountIn */\n      0x20\n      add\n      calldataload\n        /* \"contracts/PYGGportfolioManagement.sol\":2444:2475  TransferHelper.safeTransferFrom */\n      tag_385\n        /* \"contracts/PYGGportfolioManagement.sol\":2444:2554  TransferHelper.safeTransferFrom(address(uniswapV2Router.WETH()), msg.sender, address(this), _swapath.amountIn) */\n      jump\t// in\n    tag_381:\n        /* \"contracts/PYGGportfolioManagement.sol\":2599:2614  uniswapV2Router */\n      sload(0x09)\n        /* \"contracts/PYGGportfolioManagement.sol\":2599:2621  uniswapV2Router.WETH() */\n      0x40\n      dup1\n      mload\n      shl(0xe3, 0x15ab88c9)\n      dup2\n      mstore\n      swap1\n      mload\n        /* \"contracts/PYGGportfolioManagement.sol\":2564:2668  TransferHelper.safeApprove(address(uniswapV2Router.WETH()), address(uniswapV3Router), _swapath.amountIn) */\n      tag_386\n      swap3\n      sub(shl(0xa0, 0x01), 0x01)\n        /* \"contracts/PYGGportfolioManagement.sol\":2599:2614  uniswapV2Router */\n      and\n      swap2\n        /* \"contracts/PYGGportfolioManagement.sol\":2599:2619  uniswapV2Router.WETH */\n      0xad5c4648\n      swap2\n        /* \"contracts/PYGGportfolioManagement.sol\":2599:2621  uniswapV2Router.WETH() */\n      0x04\n      dup1\n      dup4\n      add\n      swap3\n      0x20\n      swap3\n      swap2\n      swap1\n      dup3\n      swap1\n      sub\n      add\n      dup2\n        /* \"contracts/PYGGportfolioManagement.sol\":2599:2614  uniswapV2Router */\n      dup7\n        /* \"contracts/PYGGportfolioManagement.sol\":2599:2621  uniswapV2Router.WETH() */\n      gas\n      staticcall\n      iszero\n      dup1\n      iszero\n      tag_388\n      jumpi\n      returndatasize\n      0x00\n      dup1\n      returndatacopy\n      revert(0x00, returndatasize)\n    tag_388:\n      pop\n      pop\n      pop\n      pop\n      mload(0x40)\n      returndatasize\n      not(0x1f)\n      0x1f\n      dup3\n      add\n      and\n      dup3\n      add\n      dup1\n      0x40\n      mstore\n      pop\n      dup2\n      add\n      swap1\n      tag_389\n      swap2\n      swap1\n      tag_208\n      jump\t// in\n    tag_389:\n        /* \"contracts/PYGGportfolioManagement.sol\":2632:2647  uniswapV3Router */\n      and(sub(shl(0xa0, 0x01), 0x01), sload(0x0a))\n        /* \"contracts/PYGGportfolioManagement.sol\":2650:2667  _swapath.amountIn */\n      0x20\n      dup7\n      add\n      calldataload\n        /* \"contracts/PYGGportfolioManagement.sol\":2564:2590  TransferHelper.safeApprove */\n      tag_390\n        /* \"contracts/PYGGportfolioManagement.sol\":2564:2668  TransferHelper.safeApprove(address(uniswapV2Router.WETH()), address(uniswapV3Router), _swapath.amountIn) */\n      jump\t// in\n    tag_386:\n        /* \"contracts/PYGGportfolioManagement.sol\":2687:2720  _mint(msg.sender, amountAfterFee) */\n      tag_391\n        /* \"contracts/PYGGportfolioManagement.sol\":2693:2703  msg.sender */\n      caller\n        /* \"contracts/PYGGportfolioManagement.sol\":2705:2719  amountAfterFee */\n      dup3\n        /* \"contracts/PYGGportfolioManagement.sol\":2687:2692  _mint */\n      tag_392\n        /* \"contracts/PYGGportfolioManagement.sol\":2687:2720  _mint(msg.sender, amountAfterFee) */\n      jump\t// in\n    tag_391:\n        /* \"contracts/PYGGportfolioManagement.sol\":2736:2745  uint256 i */\n      0x00\n        /* \"contracts/PYGGportfolioManagement.sol\":2731:3405  for (uint256 i = 0; i < tokens.length; i++) {... */\n    tag_393:\n        /* \"contracts/PYGGportfolioManagement.sol\":2755:2761  tokens */\n      0x0c\n        /* \"contracts/PYGGportfolioManagement.sol\":2755:2768  tokens.length */\n      sload\n        /* \"contracts/PYGGportfolioManagement.sol\":2751:2768  i < tokens.length */\n      dup2\n      lt\n        /* \"contracts/PYGGportfolioManagement.sol\":2731:3405  for (uint256 i = 0; i < tokens.length; i++) {... */\n      iszero\n      tag_394\n      jumpi\n        /* \"contracts/PYGGportfolioManagement.sol\":2789:2816  TokenInfo storage tokenInfo */\n      0x00\n        /* \"contracts/PYGGportfolioManagement.sol\":2819:2825  tokens */\n      0x0c\n        /* \"contracts/PYGGportfolioManagement.sol\":2826:2827  i */\n      dup3\n        /* \"contracts/PYGGportfolioManagement.sol\":2819:2828  tokens[i] */\n      dup2\n      sload\n      dup2\n      lt\n      tag_397\n      jumpi\n      tag_397\n      tag_214\n      jump\t// in\n    tag_397:\n      swap1\n      0x00\n      mstore\n      keccak256(0x00, 0x20)\n      swap1\n      0x02\n      mul\n      add\n        /* \"contracts/PYGGportfolioManagement.sol\":2789:2828  TokenInfo storage tokenInfo = tokens[i] */\n      swap1\n      pop\n        /* \"contracts/PYGGportfolioManagement.sol\":2842:2859  uint256 ethAmount */\n      0x00\n        /* \"contracts/PYGGportfolioManagement.sol\":2910:2915  10000 */\n      0x2710\n        /* \"contracts/PYGGportfolioManagement.sol\":2880:2889  tokenInfo */\n      dup3\n        /* \"contracts/PYGGportfolioManagement.sol\":2880:2906  tokenInfo.targetPercentage */\n      0x01\n      add\n      sload\n        /* \"contracts/PYGGportfolioManagement.sol\":2863:2877  amountAfterFee */\n      dup6\n        /* \"contracts/PYGGportfolioManagement.sol\":2863:2906  amountAfterFee * tokenInfo.targetPercentage */\n      tag_399\n      swap2\n      swap1\n      tag_202\n      jump\t// in\n    tag_399:\n        /* \"contracts/PYGGportfolioManagement.sol\":2862:2915  (amountAfterFee * tokenInfo.targetPercentage) / 10000 */\n      tag_400\n      swap2\n      swap1\n      tag_204\n      jump\t// in\n    tag_400:\n        /* \"contracts/PYGGportfolioManagement.sol\":2842:2915  uint256 ethAmount = (amountAfterFee * tokenInfo.targetPercentage) / 10000 */\n      swap1\n      pop\n        /* \"contracts/PYGGportfolioManagement.sol\":2950:2964  amountAfterFee */\n      dup4\n        /* \"contracts/PYGGportfolioManagement.sol\":2937:2946  ethAmount */\n      dup2\n        /* \"contracts/PYGGportfolioManagement.sol\":2937:2964  ethAmount <= amountAfterFee */\n      gt\n      iszero\n        /* \"contracts/PYGGportfolioManagement.sol\":2929:2990  require(ethAmount <= amountAfterFee, \"!ethAmount<=amountfee\") */\n      tag_401\n      jumpi\n      mload(0x40)\n      shl(0xe5, 0x461bcd)\n      dup2\n      mstore\n        /* \"#utility.yul\":20669:20671   */\n      0x20\n        /* \"contracts/PYGGportfolioManagement.sol\":2929:2990  require(ethAmount <= amountAfterFee, \"!ethAmount<=amountfee\") */\n      0x04\n      dup3\n      add\n        /* \"#utility.yul\":20651:20672   */\n      mstore\n        /* \"#utility.yul\":20708:20710   */\n      0x15\n        /* \"#utility.yul\":20688:20706   */\n      0x24\n      dup3\n      add\n        /* \"#utility.yul\":20681:20711   */\n      mstore\n      shl(0x58, 0x21657468416d6f756e743c3d616d6f756e74666565)\n        /* \"#utility.yul\":20727:20745   */\n      0x44\n      dup3\n      add\n        /* \"#utility.yul\":20720:20771   */\n      mstore\n        /* \"#utility.yul\":20788:20806   */\n      0x64\n      add\n        /* \"contracts/PYGGportfolioManagement.sol\":2929:2990  require(ethAmount <= amountAfterFee, \"!ethAmount<=amountfee\") */\n      tag_188\n        /* \"#utility.yul\":20467:20812   */\n      jump\n        /* \"contracts/PYGGportfolioManagement.sol\":2929:2990  require(ethAmount <= amountAfterFee, \"!ethAmount<=amountfee\") */\n    tag_401:\n        /* \"contracts/PYGGportfolioManagement.sol\":3008:3021  ethAmount > 0 */\n      dup1\n      iszero\n        /* \"contracts/PYGGportfolioManagement.sol\":3004:3395  if (ethAmount > 0) {... */\n      tag_424\n      jumpi\n        /* \"contracts/PYGGportfolioManagement.sol\":3068:3083  tokenInfo.token */\n      dup2\n      sload\n        /* \"contracts/PYGGportfolioManagement.sol\":3045:3049  this */\n      address\n      swap1\n        /* \"contracts/PYGGportfolioManagement.sol\":3045:3067  this.swapTokenForToken */\n      0x74a66061\n      swap1\n      sub(shl(0xa0, 0x01), 0x01)\n        /* \"contracts/PYGGportfolioManagement.sol\":3068:3083  tokenInfo.token */\n      and\n        /* \"contracts/PYGGportfolioManagement.sol\":3085:3094  ethAmount */\n      dup4\n        /* \"contracts/PYGGportfolioManagement.sol\":3096:3112  _swapath.version */\n      tag_405\n      0x60\n      dup12\n      add\n      0x40\n      dup13\n      add\n      tag_406\n      jump\t// in\n    tag_405:\n        /* \"contracts/PYGGportfolioManagement.sol\":3122:3126  this */\n      address\n        /* \"contracts/PYGGportfolioManagement.sol\":3129:3142  _swapath.path */\n      tag_407\n        /* \"contracts/PYGGportfolioManagement.sol\":3129:3137  _swapath */\n      dup13\n      dup1\n        /* \"contracts/PYGGportfolioManagement.sol\":3129:3142  _swapath.path */\n      tag_408\n      jump\t// in\n    tag_407:\n        /* \"contracts/PYGGportfolioManagement.sol\":3143:3144  i */\n      dup11\n        /* \"contracts/PYGGportfolioManagement.sol\":3129:3145  _swapath.path[i] */\n      dup2\n      dup2\n      lt\n      tag_410\n      jumpi\n      tag_410\n      tag_214\n      jump\t// in\n    tag_410:\n      swap1\n      pop\n      0x20\n      mul\n      dup2\n      add\n      swap1\n      tag_411\n      swap2\n      swap1\n      tag_412\n      jump\t// in\n    tag_411:\n        /* \"contracts/PYGGportfolioManagement.sol\":3045:3146  this.swapTokenForToken(tokenInfo.token, ethAmount, _swapath.version, address(this), _swapath.path[i]) */\n      mload(0x40)\n      dup8\n      0xffffffff\n      and\n      0xe0\n      shl\n      dup2\n      mstore\n      0x04\n      add\n      tag_413\n      swap7\n      swap6\n      swap5\n      swap4\n      swap3\n      swap2\n      swap1\n      tag_414\n      jump\t// in\n    tag_413:\n      0x20\n      mload(0x40)\n      dup1\n      dup4\n      sub\n      dup2\n      0x00\n      dup8\n      gas\n      call\n      swap3\n      pop\n      pop\n      pop\n      dup1\n      iszero\n      tag_415\n      jumpi\n      pop\n      0x40\n      dup1\n      mload\n      0x1f\n      returndatasize\n      swap1\n      dup2\n      add\n      not(0x1f)\n      and\n      dup3\n      add\n      swap1\n      swap3\n      mstore\n      tag_416\n      swap2\n      dup2\n      add\n      swap1\n      tag_194\n      jump\t// in\n    tag_416:\n      0x01\n    tag_415:\n        /* \"contracts/PYGGportfolioManagement.sol\":3041:3381  try this.swapTokenForToken(tokenInfo.token, ethAmount, _swapath.version, address(this), _swapath.path[i]) {} catch {... */\n      tag_417\n      jumpi\n        /* \"contracts/PYGGportfolioManagement.sol\":3197:3207  msg.sender */\n      caller\n        /* \"contracts/PYGGportfolioManagement.sol\":3178:3208  ethDepositedFailed[msg.sender] */\n      0x00\n      swap1\n      dup2\n      mstore\n        /* \"contracts/PYGGportfolioManagement.sol\":3178:3196  ethDepositedFailed */\n      0x0f\n        /* \"contracts/PYGGportfolioManagement.sol\":3178:3208  ethDepositedFailed[msg.sender] */\n      0x20\n      mstore\n      0x40\n      dup2\n      keccak256\n        /* \"contracts/PYGGportfolioManagement.sol\":3178:3221  ethDepositedFailed[msg.sender] += ethAmount */\n      dup1\n      sload\n        /* \"contracts/PYGGportfolioManagement.sol\":3212:3221  ethAmount */\n      dup4\n      swap3\n        /* \"contracts/PYGGportfolioManagement.sol\":3178:3208  ethDepositedFailed[msg.sender] */\n      swap1\n        /* \"contracts/PYGGportfolioManagement.sol\":3178:3221  ethDepositedFailed[msg.sender] += ethAmount */\n      tag_421\n      swap1\n        /* \"contracts/PYGGportfolioManagement.sol\":3212:3221  ethAmount */\n      dup5\n      swap1\n        /* \"contracts/PYGGportfolioManagement.sol\":3178:3221  ethDepositedFailed[msg.sender] += ethAmount */\n      tag_234\n      jump\t// in\n    tag_421:\n      swap1\n      swap2\n      sstore\n      pop\n      pop\n        /* \"contracts/PYGGportfolioManagement.sol\":3260:3310  FailedSwap(msg.sender, tokenInfo.token, ethAmount) */\n      0x40\n      dup1\n      mload\n      0x60\n      dup2\n      add\n      dup3\n      mstore\n        /* \"contracts/PYGGportfolioManagement.sol\":3271:3281  msg.sender */\n      caller\n        /* \"contracts/PYGGportfolioManagement.sol\":3260:3310  FailedSwap(msg.sender, tokenInfo.token, ethAmount) */\n      dup1\n      dup3\n      mstore\n        /* \"contracts/PYGGportfolioManagement.sol\":3283:3298  tokenInfo.token */\n      dup5\n      sload\n      sub(shl(0xa0, 0x01), 0x01)\n      swap1\n      dup2\n      and\n        /* \"contracts/PYGGportfolioManagement.sol\":3260:3310  FailedSwap(msg.sender, tokenInfo.token, ethAmount) */\n      0x20\n      dup1\n      dup6\n      add\n      swap2\n      dup3\n      mstore\n      dup5\n      dup7\n      add\n      dup8\n      dup2\n      mstore\n        /* \"contracts/PYGGportfolioManagement.sol\":3243:3254  failedSwaps */\n      0x06\n        /* \"contracts/PYGGportfolioManagement.sol\":3243:3311  failedSwaps.push(FailedSwap(msg.sender, tokenInfo.token, ethAmount)) */\n      dup1\n      sload\n        /* \"contracts/PYGGportfolioManagement.sol\":3283:3298  tokenInfo.token */\n      0x01\n        /* \"contracts/PYGGportfolioManagement.sol\":3243:3311  failedSwaps.push(FailedSwap(msg.sender, tokenInfo.token, ethAmount)) */\n      dup2\n      add\n      dup3\n      sstore\n      0x00\n      swap2\n      dup3\n      mstore\n      swap7\n      mload\n      0x03\n      swap1\n      swap8\n      mul\n      0xf652222313e28459528d920b65115c16c04f3efc82aaedc97be59f3f377c0d3f\n      dup2\n      add\n      dup1\n      sload\n      swap9\n      dup8\n      and\n      not(sub(shl(0xa0, 0x01), 0x01))\n      swap10\n      dup11\n      and\n      or\n      swap1\n      sstore\n      swap4\n      mload\n      0xf652222313e28459528d920b65115c16c04f3efc82aaedc97be59f3f377c0d40\n      dup6\n      add\n      dup1\n      sload\n      swap2\n      swap1\n      swap7\n      and\n      swap8\n      and\n      swap7\n      swap1\n      swap7\n      or\n      swap1\n      swap4\n      sstore\n      swap2\n      mload\n      0xf652222313e28459528d920b65115c16c04f3efc82aaedc97be59f3f377c0d41\n      swap1\n      swap2\n      add\n      sstore\n        /* \"contracts/PYGGportfolioManagement.sol\":3333:3360  userFailedSwaps[msg.sender] */\n      swap1\n      dup3\n      mstore\n        /* \"contracts/PYGGportfolioManagement.sol\":3333:3348  userFailedSwaps */\n      0x08\n        /* \"contracts/PYGGportfolioManagement.sol\":3333:3360  userFailedSwaps[msg.sender] */\n      swap1\n      mstore\n      swap1\n      dup2\n      keccak256\n        /* \"contracts/PYGGportfolioManagement.sol\":3333:3362  userFailedSwaps[msg.sender]++ */\n      dup1\n      sload\n      swap2\n      tag_423\n      dup4\n      tag_236\n      jump\t// in\n    tag_423:\n      swap2\n      swap1\n      pop\n      sstore\n      pop\n        /* \"contracts/PYGGportfolioManagement.sol\":3041:3381  try this.swapTokenForToken(tokenInfo.token, ethAmount, _swapath.version, address(this), _swapath.path[i]) {} catch {... */\n      jump(tag_424)\n    tag_417:\n      pop\n    tag_424:\n        /* \"contracts/PYGGportfolioManagement.sol\":2775:3405  {... */\n      pop\n      pop\n        /* \"contracts/PYGGportfolioManagement.sol\":2770:2773  i++ */\n      dup1\n      dup1\n      tag_425\n      swap1\n      tag_236\n      jump\t// in\n    tag_425:\n      swap2\n      pop\n      pop\n        /* \"contracts/PYGGportfolioManagement.sol\":2731:3405  for (uint256 i = 0; i < tokens.length; i++) {... */\n      jump(tag_393)\n    tag_394:\n      pop\n        /* \"contracts/PYGGportfolioManagement.sol\":2181:3411  {... */\n      pop\n      pop\n        /* \"contracts/PYGGportfolioManagement.sol\":2119:3411  function deposit(SwapPath calldata _swapath) external payable {... */\n      pop\n      jump\t// out\n        /* \"@openzeppelin/contracts/token/ERC20/ERC20.sol\":2276:2369  function symbol() public view virtual returns (string memory) {... */\n    tag_156:\n        /* \"@openzeppelin/contracts/token/ERC20/ERC20.sol\":2323:2336  string memory */\n      0x60\n        /* \"@openzeppelin/contracts/token/ERC20/ERC20.sol\":2355:2362  _symbol */\n      0x05\n        /* \"@openzeppelin/contracts/token/ERC20/ERC20.sol\":2348:2362  return _symbol */\n      dup1\n      sload\n      tag_252\n      swap1\n      tag_253\n      jump\t// in\n        /* \"contracts/PYGGportfolioManagement.sol\":5319:5608  function withdrawFeesByOwner(address _receiverFeeAddress) external onlyOwner {... */\n    tag_161:\n        /* \"@openzeppelin/contracts/access/Ownable.sol\":1531:1544  _checkOwner() */\n      tag_433\n        /* \"@openzeppelin/contracts/access/Ownable.sol\":1531:1542  _checkOwner */\n      tag_313\n        /* \"@openzeppelin/contracts/access/Ownable.sol\":1531:1544  _checkOwner() */\n      jump\t// in\n    tag_433:\n        /* \"contracts/PYGGportfolioManagement.sol\":5410:5423  totalFeesWETH */\n      sload(0x0d)\n        /* \"contracts/PYGGportfolioManagement.sol\":5410:5427  totalFeesWETH > 0 */\n      iszero\n        /* \"contracts/PYGGportfolioManagement.sol\":5406:5602  if (totalFeesWETH > 0) {... */\n      tag_435\n      jumpi\n        /* \"contracts/PYGGportfolioManagement.sol\":5494:5507  totalFeesWETH */\n      sload(0x0d)\n        /* \"contracts/PYGGportfolioManagement.sol\":5462:5512  _receiverFeeAddress.call{value: totalFeesWETH}(\"\") */\n      mload(0x40)\n        /* \"contracts/PYGGportfolioManagement.sol\":5444:5456  bool success */\n      0x00\n      swap2\n      sub(shl(0xa0, 0x01), 0x01)\n        /* \"contracts/PYGGportfolioManagement.sol\":5462:5486  _receiverFeeAddress.call */\n      dup5\n      and\n      swap2\n        /* \"contracts/PYGGportfolioManagement.sol\":5444:5456  bool success */\n      dup4\n        /* \"contracts/PYGGportfolioManagement.sol\":5462:5512  _receiverFeeAddress.call{value: totalFeesWETH}(\"\") */\n      dup2\n        /* \"contracts/PYGGportfolioManagement.sol\":5444:5456  bool success */\n      dup2\n        /* \"contracts/PYGGportfolioManagement.sol\":5462:5512  _receiverFeeAddress.call{value: totalFeesWETH}(\"\") */\n      dup2\n        /* \"contracts/PYGGportfolioManagement.sol\":5494:5507  totalFeesWETH */\n      dup6\n        /* \"contracts/PYGGportfolioManagement.sol\":5462:5486  _receiverFeeAddress.call */\n      dup8\n        /* \"contracts/PYGGportfolioManagement.sol\":5462:5512  _receiverFeeAddress.call{value: totalFeesWETH}(\"\") */\n      gas\n      call\n      swap3\n      pop\n      pop\n      pop\n      returndatasize\n      dup1\n      0x00\n      dup2\n      eq\n      tag_440\n      jumpi\n      mload(0x40)\n      swap2\n      pop\n      and(add(returndatasize, 0x3f), not(0x1f))\n      dup3\n      add\n      0x40\n      mstore\n      returndatasize\n      dup3\n      mstore\n      returndatasize\n      0x00\n      0x20\n      dup5\n      add\n      returndatacopy\n      jump(tag_439)\n    tag_440:\n      0x60\n      swap2\n      pop\n    tag_439:\n      pop\n        /* \"contracts/PYGGportfolioManagement.sol\":5443:5512  (bool success, ) = _receiverFeeAddress.call{value: totalFeesWETH}(\"\") */\n      pop\n      swap1\n      pop\n        /* \"contracts/PYGGportfolioManagement.sol\":5534:5541  success */\n      dup1\n        /* \"contracts/PYGGportfolioManagement.sol\":5526:5560  require(success, \"transferFailed\") */\n      tag_441\n      jumpi\n      mload(0x40)\n      shl(0xe5, 0x461bcd)\n      dup2\n      mstore\n        /* \"#utility.yul\":23365:23367   */\n      0x20\n        /* \"contracts/PYGGportfolioManagement.sol\":5526:5560  require(success, \"transferFailed\") */\n      0x04\n      dup3\n      add\n        /* \"#utility.yul\":23347:23368   */\n      mstore\n        /* \"#utility.yul\":23404:23406   */\n      0x0e\n        /* \"#utility.yul\":23384:23402   */\n      0x24\n      dup3\n      add\n        /* \"#utility.yul\":23377:23407   */\n      mstore\n      shl(0x92, 0x1d1c985b9cd9995c91985a5b1959)\n        /* \"#utility.yul\":23423:23441   */\n      0x44\n      dup3\n      add\n        /* \"#utility.yul\":23416:23460   */\n      mstore\n        /* \"#utility.yul\":23477:23495   */\n      0x64\n      add\n        /* \"contracts/PYGGportfolioManagement.sol\":5526:5560  require(success, \"transferFailed\") */\n      tag_188\n        /* \"#utility.yul\":23163:23501   */\n      jump\n        /* \"contracts/PYGGportfolioManagement.sol\":5526:5560  require(success, \"transferFailed\") */\n    tag_441:\n      pop\n        /* \"contracts/PYGGportfolioManagement.sol\":5590:5591  0 */\n      0x00\n        /* \"contracts/PYGGportfolioManagement.sol\":5574:5587  totalFeesWETH */\n      0x0d\n        /* \"contracts/PYGGportfolioManagement.sol\":5574:5591  totalFeesWETH = 0 */\n      sstore\n        /* \"contracts/PYGGportfolioManagement.sol\":5406:5602  if (totalFeesWETH > 0) {... */\n    tag_435:\n        /* \"contracts/PYGGportfolioManagement.sol\":5319:5608  function withdrawFeesByOwner(address _receiverFeeAddress) external onlyOwner {... */\n      pop\n      jump\t// out\n        /* \"@openzeppelin/contracts/token/ERC20/ERC20.sol\":3610:3788  function transfer(address to, uint256 value) public virtual returns (bool) {... */\n    tag_165:\n        /* \"@openzeppelin/contracts/token/ERC20/ERC20.sol\":3679:3683  bool */\n      0x00\n        /* \"@openzeppelin/contracts/utils/Context.sol\":735:745  msg.sender */\n      caller\n        /* \"@openzeppelin/contracts/token/ERC20/ERC20.sol\":3733:3760  _transfer(owner, to, value) */\n      tag_261\n        /* \"@openzeppelin/contracts/utils/Context.sol\":735:745  msg.sender */\n      dup2\n        /* \"@openzeppelin/contracts/token/ERC20/ERC20.sol\":3750:3752  to */\n      dup6\n        /* \"@openzeppelin/contracts/token/ERC20/ERC20.sol\":3754:3759  value */\n      dup6\n        /* \"@openzeppelin/contracts/token/ERC20/ERC20.sol\":3733:3742  _transfer */\n      tag_273\n        /* \"@openzeppelin/contracts/token/ERC20/ERC20.sol\":3733:3760  _transfer(owner, to, value) */\n      jump\t// in\n        /* \"@openzeppelin/contracts/access/Ownable.sol\":2543:2758  function transferOwnership(address newOwner) public virtual onlyOwner {... */\n    tag_185:\n        /* \"@openzeppelin/contracts/access/Ownable.sol\":1531:1544  _checkOwner() */\n      tag_449\n        /* \"@openzeppelin/contracts/access/Ownable.sol\":1531:1542  _checkOwner */\n      tag_313\n        /* \"@openzeppelin/contracts/access/Ownable.sol\":1531:1544  _checkOwner() */\n      jump\t// in\n    tag_449:\n      sub(shl(0xa0, 0x01), 0x01)\n        /* \"@openzeppelin/contracts/access/Ownable.sol\":2627:2649  newOwner == address(0) */\n      dup2\n      and\n        /* \"@openzeppelin/contracts/access/Ownable.sol\":2623:2714  if (newOwner == address(0)) {... */\n      tag_451\n      jumpi\n        /* \"@openzeppelin/contracts/access/Ownable.sol\":2672:2703  OwnableInvalidOwner(address(0)) */\n      mload(0x40)\n      shl(0xe0, 0x1e4fbdf7)\n      dup2\n      mstore\n        /* \"@openzeppelin/contracts/access/Ownable.sol\":2700:2701  0 */\n      0x00\n        /* \"@openzeppelin/contracts/access/Ownable.sol\":2672:2703  OwnableInvalidOwner(address(0)) */\n      0x04\n      dup3\n      add\n        /* \"#utility.yul\":3497:3548   */\n      mstore\n        /* \"#utility.yul\":3470:3488   */\n      0x24\n      add\n        /* \"@openzeppelin/contracts/access/Ownable.sol\":2672:2703  OwnableInvalidOwner(address(0)) */\n      tag_188\n        /* \"#utility.yul\":3324:3554   */\n      jump\n        /* \"@openzeppelin/contracts/access/Ownable.sol\":2623:2714  if (newOwner == address(0)) {... */\n    tag_451:\n        /* \"@openzeppelin/contracts/access/Ownable.sol\":2723:2751  _transferOwnership(newOwner) */\n      tag_435\n        /* \"@openzeppelin/contracts/access/Ownable.sol\":2742:2750  newOwner */\n      dup2\n        /* \"@openzeppelin/contracts/access/Ownable.sol\":2723:2741  _transferOwnership */\n      tag_349\n        /* \"@openzeppelin/contracts/access/Ownable.sol\":2723:2751  _transferOwnership(newOwner) */\n      jump\t// in\n        /* \"@openzeppelin/contracts/token/ERC20/ERC20.sol\":8247:8453  function _burn(address account, uint256 value) internal {... */\n    tag_238:\n      sub(shl(0xa0, 0x01), 0x01)\n        /* \"@openzeppelin/contracts/token/ERC20/ERC20.sol\":8317:8338  account == address(0) */\n      dup3\n      and\n        /* \"@openzeppelin/contracts/token/ERC20/ERC20.sol\":8313:8402  if (account == address(0)) {... */\n      tag_455\n      jumpi\n        /* \"@openzeppelin/contracts/token/ERC20/ERC20.sol\":8361:8391  ERC20InvalidSender(address(0)) */\n      mload(0x40)\n      shl(0xe1, 0x4b637e8f)\n      dup2\n      mstore\n        /* \"@openzeppelin/contracts/token/ERC20/ERC20.sol\":8388:8389  0 */\n      0x00\n        /* \"@openzeppelin/contracts/token/ERC20/ERC20.sol\":8361:8391  ERC20InvalidSender(address(0)) */\n      0x04\n      dup3\n      add\n        /* \"#utility.yul\":3497:3548   */\n      mstore\n        /* \"#utility.yul\":3470:3488   */\n      0x24\n      add\n        /* \"@openzeppelin/contracts/token/ERC20/ERC20.sol\":8361:8391  ERC20InvalidSender(address(0)) */\n      tag_188\n        /* \"#utility.yul\":3324:3554   */\n      jump\n        /* \"@openzeppelin/contracts/token/ERC20/ERC20.sol\":8313:8402  if (account == address(0)) {... */\n    tag_455:\n        /* \"@openzeppelin/contracts/token/ERC20/ERC20.sol\":8411:8446  _update(account, address(0), value) */\n      tag_457\n        /* \"@openzeppelin/contracts/token/ERC20/ERC20.sol\":8419:8426  account */\n      dup3\n        /* \"@openzeppelin/contracts/token/ERC20/ERC20.sol\":8436:8437  0 */\n      0x00\n        /* \"@openzeppelin/contracts/token/ERC20/ERC20.sol\":8440:8445  value */\n      dup4\n        /* \"@openzeppelin/contracts/token/ERC20/ERC20.sol\":8411:8418  _update */\n      tag_458\n        /* \"@openzeppelin/contracts/token/ERC20/ERC20.sol\":8411:8446  _update(account, address(0), value) */\n      jump\t// in\n    tag_457:\n        /* \"@openzeppelin/contracts/token/ERC20/ERC20.sol\":8247:8453  function _burn(address account, uint256 value) internal {... */\n      pop\n      pop\n      jump\t// out\n        /* \"@openzeppelin/contracts/token/ERC20/ERC20.sol\":8989:9117  function _approve(address owner, address spender, uint256 value) internal {... */\n    tag_262:\n        /* \"@openzeppelin/contracts/token/ERC20/ERC20.sol\":9073:9110  _approve(owner, spender, value, true) */\n      tag_291\n        /* \"@openzeppelin/contracts/token/ERC20/ERC20.sol\":9082:9087  owner */\n      dup4\n        /* \"@openzeppelin/contracts/token/ERC20/ERC20.sol\":9089:9096  spender */\n      dup4\n        /* \"@openzeppelin/contracts/token/ERC20/ERC20.sol\":9098:9103  value */\n      dup4\n        /* \"@openzeppelin/contracts/token/ERC20/ERC20.sol\":9105:9109  true */\n      0x01\n        /* \"@openzeppelin/contracts/token/ERC20/ERC20.sol\":9073:9081  _approve */\n      tag_462\n        /* \"@openzeppelin/contracts/token/ERC20/ERC20.sol\":9073:9110  _approve(owner, spender, value, true) */\n      jump\t// in\n        /* \"@openzeppelin/contracts/token/ERC20/ERC20.sol\":10663:11140  function _spendAllowance(address owner, address spender, uint256 value) internal virtual {... */\n    tag_271:\n      sub(shl(0xa0, 0x01), 0x01)\n        /* \"@openzeppelin/contracts/token/ERC20/ERC20.sol\":3952:3970  _allowances[owner] */\n      dup4\n      dup2\n      and\n        /* \"@openzeppelin/contracts/token/ERC20/ERC20.sol\":10762:10786  uint256 currentAllowance */\n      0x00\n        /* \"@openzeppelin/contracts/token/ERC20/ERC20.sol\":3952:3970  _allowances[owner] */\n      swap1\n      dup2\n      mstore\n        /* \"@openzeppelin/contracts/token/ERC20/ERC20.sol\":3952:3963  _allowances */\n      0x02\n        /* \"@openzeppelin/contracts/token/ERC20/ERC20.sol\":3952:3970  _allowances[owner] */\n      0x20\n      swap1\n      dup2\n      mstore\n      0x40\n      dup1\n      dup4\n      keccak256\n        /* \"@openzeppelin/contracts/token/ERC20/ERC20.sol\":3952:3979  _allowances[owner][spender] */\n      swap4\n      dup7\n      and\n      dup4\n      mstore\n      swap3\n      swap1\n      mstore\n      keccak256\n      sload\n      not(0x00)\n        /* \"@openzeppelin/contracts/token/ERC20/ERC20.sol\":10828:10865  currentAllowance != type(uint256).max */\n      dup2\n      eq\n        /* \"@openzeppelin/contracts/token/ERC20/ERC20.sol\":10824:11134  if (currentAllowance != type(uint256).max) {... */\n      tag_394\n      jumpi\n        /* \"@openzeppelin/contracts/token/ERC20/ERC20.sol\":10904:10909  value */\n      dup2\n        /* \"@openzeppelin/contracts/token/ERC20/ERC20.sol\":10885:10901  currentAllowance */\n      dup2\n        /* \"@openzeppelin/contracts/token/ERC20/ERC20.sol\":10885:10909  currentAllowance < value */\n      lt\n        /* \"@openzeppelin/contracts/token/ERC20/ERC20.sol\":10881:11011  if (currentAllowance < value) {... */\n      iszero\n      tag_466\n      jumpi\n        /* \"@openzeppelin/contracts/token/ERC20/ERC20.sol\":10936:10996  ERC20InsufficientAllowance(spender, currentAllowance, value) */\n      mload(0x40)\n      shl(0xe1, 0x7dc7a0d9)\n      dup2\n      mstore\n      sub(shl(0xa0, 0x01), 0x01)\n        /* \"#utility.yul\":23726:23758   */\n      dup5\n      and\n        /* \"@openzeppelin/contracts/token/ERC20/ERC20.sol\":10936:10996  ERC20InsufficientAllowance(spender, currentAllowance, value) */\n      0x04\n      dup3\n      add\n        /* \"#utility.yul\":23708:23759   */\n      mstore\n        /* \"#utility.yul\":23775:23793   */\n      0x24\n      dup2\n      add\n        /* \"#utility.yul\":23768:23802   */\n      dup3\n      swap1\n      mstore\n        /* \"#utility.yul\":23818:23836   */\n      0x44\n      dup2\n      add\n        /* \"#utility.yul\":23811:23845   */\n      dup4\n      swap1\n      mstore\n        /* \"#utility.yul\":23681:23699   */\n      0x64\n      add\n        /* \"@openzeppelin/contracts/token/ERC20/ERC20.sol\":10936:10996  ERC20InsufficientAllowance(spender, currentAllowance, value) */\n      tag_188\n        /* \"#utility.yul\":23506:23851   */\n      jump\n        /* \"@openzeppelin/contracts/token/ERC20/ERC20.sol\":10881:11011  if (currentAllowance < value) {... */\n    tag_466:\n        /* \"@openzeppelin/contracts/token/ERC20/ERC20.sol\":11052:11109  _approve(owner, spender, currentAllowance - value, false) */\n      tag_394\n        /* \"@openzeppelin/contracts/token/ERC20/ERC20.sol\":11061:11066  owner */\n      dup5\n        /* \"@openzeppelin/contracts/token/ERC20/ERC20.sol\":11068:11075  spender */\n      dup5\n        /* \"@openzeppelin/contracts/token/ERC20/ERC20.sol\":11096:11101  value */\n      dup5\n        /* \"@openzeppelin/contracts/token/ERC20/ERC20.sol\":11077:11093  currentAllowance */\n      dup5\n        /* \"@openzeppelin/contracts/token/ERC20/ERC20.sol\":11077:11101  currentAllowance - value */\n      sub\n        /* \"@openzeppelin/contracts/token/ERC20/ERC20.sol\":11103:11108  false */\n      0x00\n        /* \"@openzeppelin/contracts/token/ERC20/ERC20.sol\":11052:11060  _approve */\n      tag_462\n        /* \"@openzeppelin/contracts/token/ERC20/ERC20.sol\":11052:11109  _approve(owner, spender, currentAllowance - value, false) */\n      jump\t// in\n        /* \"@openzeppelin/contracts/token/ERC20/ERC20.sol\":5656:5956  function _transfer(address from, address to, uint256 value) internal {... */\n    tag_273:\n      sub(shl(0xa0, 0x01), 0x01)\n        /* \"@openzeppelin/contracts/token/ERC20/ERC20.sol\":5739:5757  from == address(0) */\n      dup4\n      and\n        /* \"@openzeppelin/contracts/token/ERC20/ERC20.sol\":5735:5821  if (from == address(0)) {... */\n      tag_471\n      jumpi\n        /* \"@openzeppelin/contracts/token/ERC20/ERC20.sol\":5780:5810  ERC20InvalidSender(address(0)) */\n      mload(0x40)\n      shl(0xe1, 0x4b637e8f)\n      dup2\n      mstore\n        /* \"@openzeppelin/contracts/token/ERC20/ERC20.sol\":5807:5808  0 */\n      0x00\n        /* \"@openzeppelin/contracts/token/ERC20/ERC20.sol\":5780:5810  ERC20InvalidSender(address(0)) */\n      0x04\n      dup3\n      add\n        /* \"#utility.yul\":3497:3548   */\n      mstore\n        /* \"#utility.yul\":3470:3488   */\n      0x24\n      add\n        /* \"@openzeppelin/contracts/token/ERC20/ERC20.sol\":5780:5810  ERC20InvalidSender(address(0)) */\n      tag_188\n        /* \"#utility.yul\":3324:3554   */\n      jump\n        /* \"@openzeppelin/contracts/token/ERC20/ERC20.sol\":5735:5821  if (from == address(0)) {... */\n    tag_471:\n      sub(shl(0xa0, 0x01), 0x01)\n        /* \"@openzeppelin/contracts/token/ERC20/ERC20.sol\":5834:5850  to == address(0) */\n      dup3\n      and\n        /* \"@openzeppelin/contracts/token/ERC20/ERC20.sol\":5830:5916  if (to == address(0)) {... */\n      tag_473\n      jumpi\n        /* \"@openzeppelin/contracts/token/ERC20/ERC20.sol\":5873:5905  ERC20InvalidReceiver(address(0)) */\n      mload(0x40)\n      shl(0xe0, 0xec442f05)\n      dup2\n      mstore\n        /* \"@openzeppelin/contracts/token/ERC20/ERC20.sol\":5902:5903  0 */\n      0x00\n        /* \"@openzeppelin/contracts/token/ERC20/ERC20.sol\":5873:5905  ERC20InvalidReceiver(address(0)) */\n      0x04\n      dup3\n      add\n        /* \"#utility.yul\":3497:3548   */\n      mstore\n        /* \"#utility.yul\":3470:3488   */\n      0x24\n      add\n        /* \"@openzeppelin/contracts/token/ERC20/ERC20.sol\":5873:5905  ERC20InvalidReceiver(address(0)) */\n      tag_188\n        /* \"#utility.yul\":3324:3554   */\n      jump\n        /* \"@openzeppelin/contracts/token/ERC20/ERC20.sol\":5830:5916  if (to == address(0)) {... */\n    tag_473:\n        /* \"@openzeppelin/contracts/token/ERC20/ERC20.sol\":5925:5949  _update(from, to, value) */\n      tag_291\n        /* \"@openzeppelin/contracts/token/ERC20/ERC20.sol\":5933:5937  from */\n      dup4\n        /* \"@openzeppelin/contracts/token/ERC20/ERC20.sol\":5939:5941  to */\n      dup4\n        /* \"@openzeppelin/contracts/token/ERC20/ERC20.sol\":5943:5948  value */\n      dup4\n        /* \"@openzeppelin/contracts/token/ERC20/ERC20.sol\":5925:5932  _update */\n      tag_458\n        /* \"@openzeppelin/contracts/token/ERC20/ERC20.sol\":5925:5949  _update(from, to, value) */\n      jump\t// in\n        /* \"@openzeppelin/contracts/access/Ownable.sol\":1796:1958  function _checkOwner() internal view virtual {... */\n    tag_313:\n        /* \"@openzeppelin/contracts/access/Ownable.sol\":1684:1691  address */\n      0x00\n        /* \"@openzeppelin/contracts/access/Ownable.sol\":1710:1716  _owner */\n      sload\n      sub(shl(0xa0, 0x01), 0x01)\n      and\n        /* \"@openzeppelin/contracts/utils/Context.sol\":735:745  msg.sender */\n      caller\n        /* \"@openzeppelin/contracts/access/Ownable.sol\":1855:1878  owner() != _msgSender() */\n      eq\n        /* \"@openzeppelin/contracts/access/Ownable.sol\":1851:1952  if (owner() != _msgSender()) {... */\n      tag_348\n      jumpi\n        /* \"@openzeppelin/contracts/access/Ownable.sol\":1901:1941  OwnableUnauthorizedAccount(_msgSender()) */\n      mload(0x40)\n      shl(0xe0, 0x118cdaa7)\n      dup2\n      mstore\n        /* \"@openzeppelin/contracts/utils/Context.sol\":735:745  msg.sender */\n      caller\n        /* \"@openzeppelin/contracts/access/Ownable.sol\":1901:1941  OwnableUnauthorizedAccount(_msgSender()) */\n      0x04\n      dup3\n      add\n        /* \"#utility.yul\":3497:3548   */\n      mstore\n        /* \"#utility.yul\":3470:3488   */\n      0x24\n      add\n        /* \"@openzeppelin/contracts/access/Ownable.sol\":1901:1941  OwnableUnauthorizedAccount(_msgSender()) */\n      tag_188\n        /* \"#utility.yul\":3324:3554   */\n      jump\n        /* \"@openzeppelin/contracts/access/Ownable.sol\":2912:3099  function _transferOwnership(address newOwner) internal virtual {... */\n    tag_349:\n        /* \"@openzeppelin/contracts/access/Ownable.sol\":2985:3001  address oldOwner */\n      0x00\n        /* \"@openzeppelin/contracts/access/Ownable.sol\":3004:3010  _owner */\n      dup1\n      sload\n      sub(shl(0xa0, 0x01), 0x01)\n        /* \"@openzeppelin/contracts/access/Ownable.sol\":3020:3037  _owner = newOwner */\n      dup4\n      dup2\n      and\n      not(sub(shl(0xa0, 0x01), 0x01))\n      dup4\n      and\n      dup2\n      or\n      dup5\n      sstore\n        /* \"@openzeppelin/contracts/access/Ownable.sol\":3052:3092  OwnershipTransferred(oldOwner, newOwner) */\n      mload(0x40)\n        /* \"@openzeppelin/contracts/access/Ownable.sol\":3004:3010  _owner */\n      swap2\n      swap1\n      swap3\n      and\n      swap3\n      dup4\n      swap2\n        /* \"@openzeppelin/contracts/access/Ownable.sol\":3052:3092  OwnershipTransferred(oldOwner, newOwner) */\n      0x8be0079c531659141344cd1fd0a4f28419497f9722a3daafe3b4186f6b6457e0\n      swap2\n        /* \"@openzeppelin/contracts/access/Ownable.sol\":2985:3001  address oldOwner */\n      swap1\n        /* \"@openzeppelin/contracts/access/Ownable.sol\":3052:3092  OwnershipTransferred(oldOwner, newOwner) */\n      log3\n        /* \"@openzeppelin/contracts/access/Ownable.sol\":2975:3099  {... */\n      pop\n        /* \"@openzeppelin/contracts/access/Ownable.sol\":2912:3099  function _transferOwnership(address newOwner) internal virtual {... */\n      pop\n      jump\t// out\n        /* \"contracts/SwapOperationManager.sol\":4507:5237  function swapTokenForTokenV2(IERC20 _token, uint256 _amountIn, address receiver, bytes memory path) internal returns (uint256) {... */\n    tag_358:\n        /* \"contracts/SwapOperationManager.sol\":4625:4632  uint256 */\n      0x00\n        /* \"contracts/SwapOperationManager.sol\":4644:4670  address[] memory pathArray */\n      dup1\n        /* \"contracts/SwapOperationManager.sol\":4684:4688  path */\n      dup3\n        /* \"contracts/SwapOperationManager.sol\":4673:4702  abi.decode(path, (address[])) */\n      dup1\n      0x20\n      add\n      swap1\n      mload\n      dup2\n      add\n      swap1\n      tag_484\n      swap2\n      swap1\n      tag_485\n      jump\t// in\n    tag_484:\n        /* \"contracts/SwapOperationManager.sol\":4747:4762  uniswapV2Router */\n      sload(0x09)\n        /* \"contracts/SwapOperationManager.sol\":4747:4798  uniswapV2Router.getAmountsOut(_amountIn, pathArray) */\n      mload(0x40)\n      shl(0xe0, 0xd06ca61f)\n      dup2\n      mstore\n        /* \"contracts/SwapOperationManager.sol\":4644:4702  address[] memory pathArray = abi.decode(path, (address[])) */\n      swap2\n      swap3\n      pop\n        /* \"contracts/SwapOperationManager.sol\":4712:4744  uint256[] memory expectedAmounts */\n      0x00\n      swap2\n      sub(shl(0xa0, 0x01), 0x01)\n        /* \"contracts/SwapOperationManager.sol\":4747:4762  uniswapV2Router */\n      swap1\n      swap2\n      and\n      swap1\n        /* \"contracts/SwapOperationManager.sol\":4747:4776  uniswapV2Router.getAmountsOut */\n      0xd06ca61f\n      swap1\n        /* \"contracts/SwapOperationManager.sol\":4747:4798  uniswapV2Router.getAmountsOut(_amountIn, pathArray) */\n      tag_486\n      swap1\n        /* \"contracts/SwapOperationManager.sol\":4777:4786  _amountIn */\n      dup10\n      swap1\n        /* \"contracts/SwapOperationManager.sol\":4644:4702  address[] memory pathArray = abi.decode(path, (address[])) */\n      dup7\n      swap1\n        /* \"contracts/SwapOperationManager.sol\":4747:4798  uniswapV2Router.getAmountsOut(_amountIn, pathArray) */\n      0x04\n      add\n      tag_487\n      jump\t// in\n    tag_486:\n      0x00\n      mload(0x40)\n      dup1\n      dup4\n      sub\n      dup2\n      dup7\n      gas\n      staticcall\n      iszero\n      dup1\n      iszero\n      tag_489\n      jumpi\n      returndatasize\n      0x00\n      dup1\n      returndatacopy\n      revert(0x00, returndatasize)\n    tag_489:\n      pop\n      pop\n      pop\n      pop\n      mload(0x40)\n      returndatasize\n      0x00\n      dup3\n      returndatacopy\n      0x1f\n      returndatasize\n      swap1\n      dup2\n      add\n      not(0x1f)\n      and\n      dup3\n      add\n      0x40\n      mstore\n      tag_490\n      swap2\n      swap1\n      dup2\n      add\n      swap1\n      tag_491\n      jump\t// in\n    tag_490:\n        /* \"contracts/SwapOperationManager.sol\":4712:4798  uint256[] memory expectedAmounts = uniswapV2Router.getAmountsOut(_amountIn, pathArray) */\n      swap1\n      pop\n        /* \"contracts/SwapOperationManager.sol\":4808:4832  uint256 amountOutMinimum */\n      0x00\n        /* \"contracts/SwapOperationManager.sol\":4888:4893  10000 */\n      0x2710\n        /* \"contracts/SwapOperationManager.sol\":4866:4883  slippageTolerance */\n      sload(0x07)\n        /* \"contracts/SwapOperationManager.sol\":4858:4863  10000 */\n      0x2710\n        /* \"contracts/SwapOperationManager.sol\":4858:4883  10000 - slippageTolerance */\n      tag_492\n      swap2\n      swap1\n      tag_243\n      jump\t// in\n    tag_492:\n        /* \"contracts/SwapOperationManager.sol\":4836:4851  expectedAmounts */\n      dup4\n        /* \"contracts/SwapOperationManager.sol\":4852:4853  1 */\n      0x01\n        /* \"contracts/SwapOperationManager.sol\":4836:4854  expectedAmounts[1] */\n      dup2\n      mload\n      dup2\n      lt\n      tag_494\n      jumpi\n      tag_494\n      tag_214\n      jump\t// in\n    tag_494:\n      0x20\n      mul\n      0x20\n      add\n      add\n      mload\n        /* \"contracts/SwapOperationManager.sol\":4836:4884  expectedAmounts[1] * (10000 - slippageTolerance) */\n      tag_495\n      swap2\n      swap1\n      tag_202\n      jump\t// in\n    tag_495:\n        /* \"contracts/SwapOperationManager.sol\":4835:4893  (expectedAmounts[1] * (10000 - slippageTolerance)) / 10000 */\n      tag_496\n      swap2\n      swap1\n      tag_204\n      jump\t// in\n    tag_496:\n        /* \"contracts/SwapOperationManager.sol\":4927:4942  uniswapV2Router */\n      sload(0x09)\n        /* \"contracts/SwapOperationManager.sol\":4904:4955  _token.approve(address(uniswapV2Router), _amountIn) */\n      mload(0x40)\n      shl(0xe0, 0x095ea7b3)\n      dup2\n      mstore\n      sub(shl(0xa0, 0x01), 0x01)\n        /* \"contracts/SwapOperationManager.sol\":4927:4942  uniswapV2Router */\n      swap2\n      dup3\n      and\n        /* \"contracts/SwapOperationManager.sol\":4904:4955  _token.approve(address(uniswapV2Router), _amountIn) */\n      0x04\n      dup3\n      add\n        /* \"#utility.yul\":15602:15653   */\n      mstore\n        /* \"#utility.yul\":15669:15687   */\n      0x24\n      dup2\n      add\n        /* \"#utility.yul\":15662:15696   */\n      dup11\n      swap1\n      mstore\n        /* \"contracts/SwapOperationManager.sol\":4808:4893  uint256 amountOutMinimum = (expectedAmounts[1] * (10000 - slippageTolerance)) / 10000 */\n      swap2\n      swap3\n      pop\n        /* \"contracts/SwapOperationManager.sol\":4904:4918  _token.approve */\n      dup10\n      and\n      swap1\n      0x095ea7b3\n      swap1\n        /* \"#utility.yul\":15575:15593   */\n      0x44\n      add\n        /* \"contracts/SwapOperationManager.sol\":4904:4955  _token.approve(address(uniswapV2Router), _amountIn) */\n      0x20\n      mload(0x40)\n      dup1\n      dup4\n      sub\n      dup2\n      0x00\n      dup8\n      gas\n      call\n      iszero\n      dup1\n      iszero\n      tag_499\n      jumpi\n      returndatasize\n      0x00\n      dup1\n      returndatacopy\n      revert(0x00, returndatasize)\n    tag_499:\n      pop\n      pop\n      pop\n      pop\n      mload(0x40)\n      returndatasize\n      not(0x1f)\n      0x1f\n      dup3\n      add\n      and\n      dup3\n      add\n      dup1\n      0x40\n      mstore\n      pop\n      dup2\n      add\n      swap1\n      tag_500\n      swap2\n      swap1\n      tag_250\n      jump\t// in\n    tag_500:\n      pop\n        /* \"contracts/SwapOperationManager.sol\":4992:5007  uniswapV2Router */\n      sload(0x09)\n        /* \"contracts/SwapOperationManager.sol\":4992:5202  uniswapV2Router.swapExactTokensForETH(... */\n      mload(0x40)\n      shl(0xe0, 0x18cbafe5)\n      dup2\n      mstore\n        /* \"contracts/SwapOperationManager.sol\":4965:4989  uint256[] memory amounts */\n      0x00\n      swap2\n      sub(shl(0xa0, 0x01), 0x01)\n        /* \"contracts/SwapOperationManager.sol\":4992:5007  uniswapV2Router */\n      and\n      swap1\n        /* \"contracts/SwapOperationManager.sol\":4992:5029  uniswapV2Router.swapExactTokensForETH */\n      0x18cbafe5\n      swap1\n        /* \"contracts/SwapOperationManager.sol\":4992:5202  uniswapV2Router.swapExactTokensForETH(... */\n      tag_501\n      swap1\n        /* \"contracts/SwapOperationManager.sol\":5043:5052  _amountIn */\n      dup12\n      swap1\n        /* \"contracts/SwapOperationManager.sol\":5066:5082  amountOutMinimum */\n      dup7\n      swap1\n        /* \"contracts/SwapOperationManager.sol\":5132:5141  pathArray */\n      dup10\n      swap1\n        /* \"contracts/SwapOperationManager.sol\":5155:5163  receiver */\n      dup14\n      swap1\n        /* \"contracts/SwapOperationManager.sol\":5177:5192  block.timestamp */\n      timestamp\n      swap1\n        /* \"contracts/SwapOperationManager.sol\":4992:5202  uniswapV2Router.swapExactTokensForETH(... */\n      0x04\n      add\n      tag_502\n      jump\t// in\n    tag_501:\n      0x00\n      mload(0x40)\n      dup1\n      dup4\n      sub\n      dup2\n      0x00\n      dup8\n      gas\n      call\n      iszero\n      dup1\n      iszero\n      tag_504\n      jumpi\n      returndatasize\n      0x00\n      dup1\n      returndatacopy\n      revert(0x00, returndatasize)\n    tag_504:\n      pop\n      pop\n      pop\n      pop\n      mload(0x40)\n      returndatasize\n      0x00\n      dup3\n      returndatacopy\n      0x1f\n      returndatasize\n      swap1\n      dup2\n      add\n      not(0x1f)\n      and\n      dup3\n      add\n      0x40\n      mstore\n      tag_505\n      swap2\n      swap1\n      dup2\n      add\n      swap1\n      tag_491\n      jump\t// in\n    tag_505:\n        /* \"contracts/SwapOperationManager.sol\":4965:5202  uint256[] memory amounts = uniswapV2Router.swapExactTokensForETH(... */\n      swap1\n      pop\n        /* \"contracts/SwapOperationManager.sol\":5220:5227  amounts */\n      dup1\n        /* \"contracts/SwapOperationManager.sol\":5228:5229  1 */\n      0x01\n        /* \"contracts/SwapOperationManager.sol\":5220:5230  amounts[1] */\n      dup2\n      mload\n      dup2\n      lt\n      tag_507\n      jumpi\n      tag_507\n      tag_214\n      jump\t// in\n    tag_507:\n      0x20\n      mul\n      0x20\n      add\n      add\n      mload\n        /* \"contracts/SwapOperationManager.sol\":5213:5230  return amounts[1] */\n      swap5\n      pop\n      pop\n      pop\n      pop\n      pop\n        /* \"contracts/SwapOperationManager.sol\":4507:5237  function swapTokenForTokenV2(IERC20 _token, uint256 _amountIn, address receiver, bytes memory path) internal returns (uint256) {... */\n      swap5\n      swap4\n      pop\n      pop\n      pop\n      pop\n      jump\t// out\n        /* \"contracts/SwapOperationManager.sol\":5855:6659  function swapTokenForTokenV3(IERC20 _token, uint256 _amountIn, address _receiver, bytes memory _path) internal returns (uint256) {... */\n    tag_366:\n        /* \"contracts/SwapOperationManager.sol\":6031:6046  uniswapV3Quoter */\n      sload(0x0b)\n        /* \"contracts/SwapOperationManager.sol\":6031:6080  uniswapV3Quoter.quoteExactInput(_path, _amountIn) */\n      mload(0x40)\n      shl(0xe0, 0xcdca1753)\n      dup2\n      mstore\n        /* \"contracts/SwapOperationManager.sol\":5975:5982  uint256 */\n      0x00\n      swap2\n      dup3\n      swap2\n      sub(shl(0xa0, 0x01), 0x01)\n        /* \"contracts/SwapOperationManager.sol\":6031:6046  uniswapV3Quoter */\n      swap1\n      swap2\n      and\n      swap1\n        /* \"contracts/SwapOperationManager.sol\":6031:6062  uniswapV3Quoter.quoteExactInput */\n      0xcdca1753\n      swap1\n        /* \"contracts/SwapOperationManager.sol\":6031:6080  uniswapV3Quoter.quoteExactInput(_path, _amountIn) */\n      tag_509\n      swap1\n        /* \"contracts/SwapOperationManager.sol\":6063:6068  _path */\n      dup7\n      swap1\n        /* \"contracts/SwapOperationManager.sol\":6070:6079  _amountIn */\n      dup10\n      swap1\n        /* \"contracts/SwapOperationManager.sol\":6031:6080  uniswapV3Quoter.quoteExactInput(_path, _amountIn) */\n      0x04\n      add\n      tag_510\n      jump\t// in\n    tag_509:\n      0x20\n      mload(0x40)\n      dup1\n      dup4\n      sub\n      dup2\n      0x00\n      dup8\n      gas\n      call\n      iszero\n      dup1\n      iszero\n      tag_512\n      jumpi\n      returndatasize\n      0x00\n      dup1\n      returndatacopy\n      revert(0x00, returndatasize)\n    tag_512:\n      pop\n      pop\n      pop\n      pop\n      mload(0x40)\n      returndatasize\n      not(0x1f)\n      0x1f\n      dup3\n      add\n      and\n      dup3\n      add\n      dup1\n      0x40\n      mstore\n      pop\n      dup2\n      add\n      swap1\n      tag_513\n      swap2\n      swap1\n      tag_194\n      jump\t// in\n    tag_513:\n        /* \"contracts/SwapOperationManager.sol\":6003:6080  uint256 expectedAmountOut = uniswapV3Quoter.quoteExactInput(_path, _amountIn) */\n      swap1\n      pop\n        /* \"contracts/SwapOperationManager.sol\":6181:6205  uint256 amountOutMinimum */\n      0x00\n        /* \"contracts/SwapOperationManager.sol\":6260:6265  10000 */\n      0x2710\n        /* \"contracts/SwapOperationManager.sol\":6238:6255  slippageTolerance */\n      sload(0x07)\n        /* \"contracts/SwapOperationManager.sol\":6230:6235  10000 */\n      0x2710\n        /* \"contracts/SwapOperationManager.sol\":6230:6255  10000 - slippageTolerance */\n      tag_514\n      swap2\n      swap1\n      tag_243\n      jump\t// in\n    tag_514:\n        /* \"contracts/SwapOperationManager.sol\":6209:6256  expectedAmountOut * (10000 - slippageTolerance) */\n      tag_515\n      swap1\n        /* \"contracts/SwapOperationManager.sol\":6209:6226  expectedAmountOut */\n      dup5\n        /* \"contracts/SwapOperationManager.sol\":6209:6256  expectedAmountOut * (10000 - slippageTolerance) */\n      tag_202\n      jump\t// in\n    tag_515:\n        /* \"contracts/SwapOperationManager.sol\":6208:6265  (expectedAmountOut * (10000 - slippageTolerance)) / 10000 */\n      tag_516\n      swap2\n      swap1\n      tag_204\n      jump\t// in\n    tag_516:\n        /* \"contracts/SwapOperationManager.sol\":6320:6539  ISwapRouter.ExactInputParams({... */\n      0x40\n      dup1\n      mload\n      0xa0\n      dup2\n      add\n      dup3\n      mstore\n      dup7\n      dup2\n      mstore\n      sub(shl(0xa0, 0x01), 0x01)\n      dup9\n      dup2\n      and\n      0x20\n      dup4\n      add\n      mstore\n        /* \"contracts/SwapOperationManager.sol\":6432:6447  block.timestamp */\n      timestamp\n        /* \"contracts/SwapOperationManager.sol\":6320:6539  ISwapRouter.ExactInputParams({... */\n      dup3\n      dup5\n      add\n      mstore\n      0x60\n      dup3\n      add\n      dup11\n      swap1\n      mstore\n      0x80\n      dup3\n      add\n      dup5\n      swap1\n      mstore\n        /* \"contracts/SwapOperationManager.sol\":6573:6588  uniswapV3Router */\n      sload(0x0a)\n        /* \"contracts/SwapOperationManager.sol\":6550:6601  _token.approve(address(uniswapV3Router), _amountIn) */\n      swap3\n      mload\n      shl(0xe0, 0x095ea7b3)\n      dup2\n      mstore\n        /* \"contracts/SwapOperationManager.sol\":6573:6588  uniswapV3Router */\n      swap3\n      dup2\n      and\n        /* \"contracts/SwapOperationManager.sol\":6550:6601  _token.approve(address(uniswapV3Router), _amountIn) */\n      0x04\n      dup5\n      add\n        /* \"#utility.yul\":15602:15653   */\n      mstore\n        /* \"#utility.yul\":15669:15687   */\n      0x24\n      dup4\n      add\n        /* \"#utility.yul\":15662:15696   */\n      dup11\n      swap1\n      mstore\n        /* \"contracts/SwapOperationManager.sol\":6320:6539  ISwapRouter.ExactInputParams({... */\n      swap3\n      swap4\n      pop\n      swap2\n        /* \"contracts/SwapOperationManager.sol\":6550:6564  _token.approve */\n      dup10\n      and\n      swap1\n      0x095ea7b3\n      swap1\n        /* \"#utility.yul\":15575:15593   */\n      0x44\n      add\n        /* \"contracts/SwapOperationManager.sol\":6550:6601  _token.approve(address(uniswapV3Router), _amountIn) */\n      0x20\n      mload(0x40)\n      dup1\n      dup4\n      sub\n      dup2\n      0x00\n      dup8\n      gas\n      call\n      iszero\n      dup1\n      iszero\n      tag_519\n      jumpi\n      returndatasize\n      0x00\n      dup1\n      returndatacopy\n      revert(0x00, returndatasize)\n    tag_519:\n      pop\n      pop\n      pop\n      pop\n      mload(0x40)\n      returndatasize\n      not(0x1f)\n      0x1f\n      dup3\n      add\n      and\n      dup3\n      add\n      dup1\n      0x40\n      mstore\n      pop\n      dup2\n      add\n      swap1\n      tag_520\n      swap2\n      swap1\n      tag_250\n      jump\t// in\n    tag_520:\n      pop\n        /* \"contracts/SwapOperationManager.sol\":6618:6633  uniswapV3Router */\n      sload(0x0a)\n        /* \"contracts/SwapOperationManager.sol\":6618:6652  uniswapV3Router.exactInput(params) */\n      mload(0x40)\n      shl(0xe0, 0xc04b8d59)\n      dup2\n      mstore\n      sub(shl(0xa0, 0x01), 0x01)\n        /* \"contracts/SwapOperationManager.sol\":6618:6633  uniswapV3Router */\n      swap1\n      swap2\n      and\n      swap1\n        /* \"contracts/SwapOperationManager.sol\":6618:6644  uniswapV3Router.exactInput */\n      0xc04b8d59\n      swap1\n        /* \"contracts/SwapOperationManager.sol\":6618:6652  uniswapV3Router.exactInput(params) */\n      tag_521\n      swap1\n        /* \"contracts/SwapOperationManager.sol\":6645:6651  params */\n      dup5\n      swap1\n        /* \"contracts/SwapOperationManager.sol\":6618:6652  uniswapV3Router.exactInput(params) */\n      0x04\n      add\n      tag_522\n      jump\t// in\n    tag_521:\n      0x20\n      mload(0x40)\n      dup1\n      dup4\n      sub\n      dup2\n      0x00\n      dup8\n      gas\n      call\n      iszero\n      dup1\n      iszero\n      tag_524\n      jumpi\n      returndatasize\n      0x00\n      dup1\n      returndatacopy\n      revert(0x00, returndatasize)\n    tag_524:\n      pop\n      pop\n      pop\n      pop\n      mload(0x40)\n      returndatasize\n      not(0x1f)\n      0x1f\n      dup3\n      add\n      and\n      dup3\n      add\n      dup1\n      0x40\n      mstore\n      pop\n      dup2\n      add\n      swap1\n      tag_525\n      swap2\n      swap1\n      tag_194\n      jump\t// in\n    tag_525:\n        /* \"contracts/SwapOperationManager.sol\":6611:6652  return uniswapV3Router.exactInput(params) */\n      swap9\n        /* \"contracts/SwapOperationManager.sol\":5855:6659  function swapTokenForTokenV3(IERC20 _token, uint256 _amountIn, address _receiver, bytes memory _path) internal returns (uint256) {... */\n      swap8\n      pop\n      pop\n      pop\n      pop\n      pop\n      pop\n      pop\n      pop\n      jump\t// out\n        /* \"@uniswap/v3-periphery/contracts/libraries/TransferHelper.sol\":561:919  function safeTransferFrom(... */\n    tag_385:\n        /* \"@uniswap/v3-periphery/contracts/libraries/TransferHelper.sol\":759:828  abi.encodeWithSelector(IERC20.transferFrom.selector, from, to, value) */\n      0x40\n      dup1\n      mload\n      sub(shl(0xa0, 0x01), 0x01)\n        /* \"#utility.yul\":5966:5981   */\n      dup6\n      dup2\n      and\n        /* \"@uniswap/v3-periphery/contracts/libraries/TransferHelper.sol\":759:828  abi.encodeWithSelector(IERC20.transferFrom.selector, from, to, value) */\n      0x24\n      dup4\n      add\n        /* \"#utility.yul\":5948:5982   */\n      mstore\n        /* \"#utility.yul\":6018:6033   */\n      dup5\n      dup2\n      and\n        /* \"#utility.yul\":5998:6016   */\n      0x44\n      dup4\n      add\n        /* \"#utility.yul\":5991:6034   */\n      mstore\n        /* \"#utility.yul\":6050:6068   */\n      0x64\n      dup1\n      dup4\n      add\n        /* \"#utility.yul\":6043:6077   */\n      dup6\n      swap1\n      mstore\n        /* \"@uniswap/v3-periphery/contracts/libraries/TransferHelper.sol\":759:828  abi.encodeWithSelector(IERC20.transferFrom.selector, from, to, value) */\n      dup4\n      mload\n      dup1\n      dup5\n      sub\n      swap1\n      swap2\n      add\n      dup2\n      mstore\n        /* \"#utility.yul\":5883:5901   */\n      0x84\n      swap1\n      swap3\n      add\n        /* \"@uniswap/v3-periphery/contracts/libraries/TransferHelper.sol\":759:828  abi.encodeWithSelector(IERC20.transferFrom.selector, from, to, value) */\n      dup4\n      mstore\n      0x20\n      dup3\n      add\n      dup1\n      mload\n      sub(shl(0xe0, 0x01), 0x01)\n      and\n      shl(0xe0, 0x23b872dd)\n      or\n      swap1\n      mstore\n        /* \"@uniswap/v3-periphery/contracts/libraries/TransferHelper.sol\":748:829  token.call(abi.encodeWithSelector(IERC20.transferFrom.selector, from, to, value)) */\n      swap2\n      mload\n      0x00\n      swap3\n      dup4\n      swap3\n        /* \"@uniswap/v3-periphery/contracts/libraries/TransferHelper.sol\":748:758  token.call */\n      swap1\n      dup9\n      and\n      swap2\n        /* \"@uniswap/v3-periphery/contracts/libraries/TransferHelper.sol\":748:829  token.call(abi.encodeWithSelector(IERC20.transferFrom.selector, from, to, value)) */\n      tag_529\n      swap2\n        /* \"@uniswap/v3-periphery/contracts/libraries/TransferHelper.sol\":759:828  abi.encodeWithSelector(IERC20.transferFrom.selector, from, to, value) */\n      swap1\n        /* \"@uniswap/v3-periphery/contracts/libraries/TransferHelper.sol\":748:829  token.call(abi.encodeWithSelector(IERC20.transferFrom.selector, from, to, value)) */\n      tag_530\n      jump\t// in\n    tag_529:\n      0x00\n      mload(0x40)\n      dup1\n      dup4\n      sub\n      dup2\n      0x00\n      dup7\n      gas\n      call\n      swap2\n      pop\n      pop\n      returndatasize\n      dup1\n      0x00\n      dup2\n      eq\n      tag_533\n      jumpi\n      mload(0x40)\n      swap2\n      pop\n      and(add(returndatasize, 0x3f), not(0x1f))\n      dup3\n      add\n      0x40\n      mstore\n      returndatasize\n      dup3\n      mstore\n      returndatasize\n      0x00\n      0x20\n      dup5\n      add\n      returndatacopy\n      jump(tag_532)\n    tag_533:\n      0x60\n      swap2\n      pop\n    tag_532:\n      pop\n        /* \"@uniswap/v3-periphery/contracts/libraries/TransferHelper.sol\":700:829  (bool success, bytes memory data) =... */\n      swap2\n      pop\n      swap2\n      pop\n        /* \"@uniswap/v3-periphery/contracts/libraries/TransferHelper.sol\":847:854  success */\n      dup2\n        /* \"@uniswap/v3-periphery/contracts/libraries/TransferHelper.sol\":847:904  success && (data.length == 0 || abi.decode(data, (bool))) */\n      dup1\n      iszero\n      tag_536\n      jumpi\n      pop\n        /* \"@uniswap/v3-periphery/contracts/libraries/TransferHelper.sol\":859:870  data.length */\n      dup1\n      mload\n        /* \"@uniswap/v3-periphery/contracts/libraries/TransferHelper.sol\":859:875  data.length == 0 */\n      iszero\n      dup1\n        /* \"@uniswap/v3-periphery/contracts/libraries/TransferHelper.sol\":859:903  data.length == 0 || abi.decode(data, (bool)) */\n      tag_536\n      jumpi\n      pop\n        /* \"@uniswap/v3-periphery/contracts/libraries/TransferHelper.sol\":890:894  data */\n      dup1\n        /* \"@uniswap/v3-periphery/contracts/libraries/TransferHelper.sol\":879:903  abi.decode(data, (bool)) */\n      dup1\n      0x20\n      add\n      swap1\n      mload\n      dup2\n      add\n      swap1\n      tag_536\n      swap2\n      swap1\n      tag_250\n      jump\t// in\n    tag_536:\n        /* \"@uniswap/v3-periphery/contracts/libraries/TransferHelper.sol\":839:912  require(success && (data.length == 0 || abi.decode(data, (bool))), 'STF') */\n      tag_239\n      jumpi\n      mload(0x40)\n      shl(0xe5, 0x461bcd)\n      dup2\n      mstore\n        /* \"#utility.yul\":28905:28907   */\n      0x20\n        /* \"@uniswap/v3-periphery/contracts/libraries/TransferHelper.sol\":839:912  require(success && (data.length == 0 || abi.decode(data, (bool))), 'STF') */\n      0x04\n      dup3\n      add\n        /* \"#utility.yul\":28887:28908   */\n      mstore\n        /* \"#utility.yul\":28944:28945   */\n      0x03\n        /* \"#utility.yul\":28924:28942   */\n      0x24\n      dup3\n      add\n        /* \"#utility.yul\":28917:28946   */\n      mstore\n      shl(0xe9, 0x29aa23)\n        /* \"#utility.yul\":28962:28980   */\n      0x44\n      dup3\n      add\n        /* \"#utility.yul\":28955:28988   */\n      mstore\n        /* \"#utility.yul\":29005:29023   */\n      0x64\n      add\n        /* \"@uniswap/v3-periphery/contracts/libraries/TransferHelper.sol\":839:912  require(success && (data.length == 0 || abi.decode(data, (bool))), 'STF') */\n      tag_188\n        /* \"#utility.yul\":28703:29029   */\n      jump\n        /* \"@uniswap/v3-periphery/contracts/libraries/TransferHelper.sol\":1873:2180  function safeApprove(... */\n    tag_390:\n        /* \"@uniswap/v3-periphery/contracts/libraries/TransferHelper.sol\":2032:2090  abi.encodeWithSelector(IERC20.approve.selector, to, value) */\n      0x40\n      dup1\n      mload\n      sub(shl(0xa0, 0x01), 0x01)\n        /* \"#utility.yul\":15620:15652   */\n      dup5\n      dup2\n      and\n        /* \"@uniswap/v3-periphery/contracts/libraries/TransferHelper.sol\":2032:2090  abi.encodeWithSelector(IERC20.approve.selector, to, value) */\n      0x24\n      dup4\n      add\n        /* \"#utility.yul\":15602:15653   */\n      mstore\n        /* \"#utility.yul\":15669:15687   */\n      0x44\n      dup1\n      dup4\n      add\n        /* \"#utility.yul\":15662:15696   */\n      dup6\n      swap1\n      mstore\n        /* \"@uniswap/v3-periphery/contracts/libraries/TransferHelper.sol\":2032:2090  abi.encodeWithSelector(IERC20.approve.selector, to, value) */\n      dup4\n      mload\n      dup1\n      dup5\n      sub\n      swap1\n      swap2\n      add\n      dup2\n      mstore\n        /* \"#utility.yul\":15575:15593   */\n      0x64\n      swap1\n      swap3\n      add\n        /* \"@uniswap/v3-periphery/contracts/libraries/TransferHelper.sol\":2032:2090  abi.encodeWithSelector(IERC20.approve.selector, to, value) */\n      dup4\n      mstore\n      0x20\n      dup3\n      add\n      dup1\n      mload\n      sub(shl(0xe0, 0x01), 0x01)\n      and\n      shl(0xe0, 0x095ea7b3)\n      or\n      swap1\n      mstore\n        /* \"@uniswap/v3-periphery/contracts/libraries/TransferHelper.sol\":2021:2091  token.call(abi.encodeWithSelector(IERC20.approve.selector, to, value)) */\n      swap2\n      mload\n      0x00\n      swap3\n      dup4\n      swap3\n        /* \"@uniswap/v3-periphery/contracts/libraries/TransferHelper.sol\":2021:2031  token.call */\n      swap1\n      dup8\n      and\n      swap2\n        /* \"@uniswap/v3-periphery/contracts/libraries/TransferHelper.sol\":2021:2091  token.call(abi.encodeWithSelector(IERC20.approve.selector, to, value)) */\n      tag_542\n      swap2\n        /* \"@uniswap/v3-periphery/contracts/libraries/TransferHelper.sol\":2032:2090  abi.encodeWithSelector(IERC20.approve.selector, to, value) */\n      swap1\n        /* \"@uniswap/v3-periphery/contracts/libraries/TransferHelper.sol\":2021:2091  token.call(abi.encodeWithSelector(IERC20.approve.selector, to, value)) */\n      tag_530\n      jump\t// in\n    tag_542:\n      0x00\n      mload(0x40)\n      dup1\n      dup4\n      sub\n      dup2\n      0x00\n      dup7\n      gas\n      call\n      swap2\n      pop\n      pop\n      returndatasize\n      dup1\n      0x00\n      dup2\n      eq\n      tag_545\n      jumpi\n      mload(0x40)\n      swap2\n      pop\n      and(add(returndatasize, 0x3f), not(0x1f))\n      dup3\n      add\n      0x40\n      mstore\n      returndatasize\n      dup3\n      mstore\n      returndatasize\n      0x00\n      0x20\n      dup5\n      add\n      returndatacopy\n      jump(tag_544)\n    tag_545:\n      0x60\n      swap2\n      pop\n    tag_544:\n      pop\n        /* \"@uniswap/v3-periphery/contracts/libraries/TransferHelper.sol\":1985:2091  (bool success, bytes memory data) = token.call(abi.encodeWithSelector(IERC20.approve.selector, to, value)) */\n      swap2\n      pop\n      swap2\n      pop\n        /* \"@uniswap/v3-periphery/contracts/libraries/TransferHelper.sol\":2109:2116  success */\n      dup2\n        /* \"@uniswap/v3-periphery/contracts/libraries/TransferHelper.sol\":2109:2166  success && (data.length == 0 || abi.decode(data, (bool))) */\n      dup1\n      iszero\n      tag_548\n      jumpi\n      pop\n        /* \"@uniswap/v3-periphery/contracts/libraries/TransferHelper.sol\":2121:2132  data.length */\n      dup1\n      mload\n        /* \"@uniswap/v3-periphery/contracts/libraries/TransferHelper.sol\":2121:2137  data.length == 0 */\n      iszero\n      dup1\n        /* \"@uniswap/v3-periphery/contracts/libraries/TransferHelper.sol\":2121:2165  data.length == 0 || abi.decode(data, (bool)) */\n      tag_548\n      jumpi\n      pop\n        /* \"@uniswap/v3-periphery/contracts/libraries/TransferHelper.sol\":2152:2156  data */\n      dup1\n        /* \"@uniswap/v3-periphery/contracts/libraries/TransferHelper.sol\":2141:2165  abi.decode(data, (bool)) */\n      dup1\n      0x20\n      add\n      swap1\n      mload\n      dup2\n      add\n      swap1\n      tag_548\n      swap2\n      swap1\n      tag_250\n      jump\t// in\n    tag_548:\n        /* \"@uniswap/v3-periphery/contracts/libraries/TransferHelper.sol\":2101:2173  require(success && (data.length == 0 || abi.decode(data, (bool))), 'SA') */\n      tag_549\n      jumpi\n      mload(0x40)\n      shl(0xe5, 0x461bcd)\n      dup2\n      mstore\n        /* \"#utility.yul\":29236:29238   */\n      0x20\n        /* \"@uniswap/v3-periphery/contracts/libraries/TransferHelper.sol\":2101:2173  require(success && (data.length == 0 || abi.decode(data, (bool))), 'SA') */\n      0x04\n      dup3\n      add\n        /* \"#utility.yul\":29218:29239   */\n      mstore\n        /* \"#utility.yul\":29275:29276   */\n      0x02\n        /* \"#utility.yul\":29255:29273   */\n      0x24\n      dup3\n      add\n        /* \"#utility.yul\":29248:29277   */\n      mstore\n      shl(0xf0, 0x5341)\n        /* \"#utility.yul\":29293:29311   */\n      0x44\n      dup3\n      add\n        /* \"#utility.yul\":29286:29318   */\n      mstore\n        /* \"#utility.yul\":29335:29353   */\n      0x64\n      add\n        /* \"@uniswap/v3-periphery/contracts/libraries/TransferHelper.sol\":2101:2173  require(success && (data.length == 0 || abi.decode(data, (bool))), 'SA') */\n      tag_188\n        /* \"#utility.yul\":29034:29359   */\n      jump\n        /* \"@uniswap/v3-periphery/contracts/libraries/TransferHelper.sol\":2101:2173  require(success && (data.length == 0 || abi.decode(data, (bool))), 'SA') */\n    tag_549:\n        /* \"@uniswap/v3-periphery/contracts/libraries/TransferHelper.sol\":1975:2180  {... */\n      pop\n      pop\n        /* \"@uniswap/v3-periphery/contracts/libraries/TransferHelper.sol\":1873:2180  function safeApprove(... */\n      pop\n      pop\n      pop\n      jump\t// out\n        /* \"@openzeppelin/contracts/token/ERC20/ERC20.sol\":7721:7929  function _mint(address account, uint256 value) internal {... */\n    tag_392:\n      sub(shl(0xa0, 0x01), 0x01)\n        /* \"@openzeppelin/contracts/token/ERC20/ERC20.sol\":7791:7812  account == address(0) */\n      dup3\n      and\n        /* \"@openzeppelin/contracts/token/ERC20/ERC20.sol\":7787:7878  if (account == address(0)) {... */\n      tag_553\n      jumpi\n        /* \"@openzeppelin/contracts/token/ERC20/ERC20.sol\":7835:7867  ERC20InvalidReceiver(address(0)) */\n      mload(0x40)\n      shl(0xe0, 0xec442f05)\n      dup2\n      mstore\n        /* \"@openzeppelin/contracts/token/ERC20/ERC20.sol\":7864:7865  0 */\n      0x00\n        /* \"@openzeppelin/contracts/token/ERC20/ERC20.sol\":7835:7867  ERC20InvalidReceiver(address(0)) */\n      0x04\n      dup3\n      add\n        /* \"#utility.yul\":3497:3548   */\n      mstore\n        /* \"#utility.yul\":3470:3488   */\n      0x24\n      add\n        /* \"@openzeppelin/contracts/token/ERC20/ERC20.sol\":7835:7867  ERC20InvalidReceiver(address(0)) */\n      tag_188\n        /* \"#utility.yul\":3324:3554   */\n      jump\n        /* \"@openzeppelin/contracts/token/ERC20/ERC20.sol\":7787:7878  if (account == address(0)) {... */\n    tag_553:\n        /* \"@openzeppelin/contracts/token/ERC20/ERC20.sol\":7887:7922  _update(address(0), account, value) */\n      tag_457\n        /* \"@openzeppelin/contracts/token/ERC20/ERC20.sol\":7903:7904  0 */\n      0x00\n        /* \"@openzeppelin/contracts/token/ERC20/ERC20.sol\":7907:7914  account */\n      dup4\n        /* \"@openzeppelin/contracts/token/ERC20/ERC20.sol\":7916:7921  value */\n      dup4\n        /* \"@openzeppelin/contracts/token/ERC20/ERC20.sol\":6271:7378  function _update(address from, address to, uint256 value) internal virtual {... */\n    tag_458:\n      sub(shl(0xa0, 0x01), 0x01)\n        /* \"@openzeppelin/contracts/token/ERC20/ERC20.sol\":6360:6378  from == address(0) */\n      dup4\n      and\n        /* \"@openzeppelin/contracts/token/ERC20/ERC20.sol\":6356:6896  if (from == address(0)) {... */\n      tag_557\n      jumpi\n        /* \"@openzeppelin/contracts/token/ERC20/ERC20.sol\":6512:6517  value */\n      dup1\n        /* \"@openzeppelin/contracts/token/ERC20/ERC20.sol\":6496:6508  _totalSupply */\n      0x03\n      0x00\n        /* \"@openzeppelin/contracts/token/ERC20/ERC20.sol\":6496:6517  _totalSupply += value */\n      dup3\n      dup3\n      sload\n      tag_558\n      swap2\n      swap1\n      tag_234\n      jump\t// in\n    tag_558:\n      swap1\n      swap2\n      sstore\n      pop\n        /* \"@openzeppelin/contracts/token/ERC20/ERC20.sol\":6356:6896  if (from == address(0)) {... */\n      tag_559\n      swap1\n      pop\n      jump\n    tag_557:\n      sub(shl(0xa0, 0x01), 0x01)\n        /* \"@openzeppelin/contracts/token/ERC20/ERC20.sol\":6570:6585  _balances[from] */\n      dup4\n      and\n        /* \"@openzeppelin/contracts/token/ERC20/ERC20.sol\":6548:6567  uint256 fromBalance */\n      0x00\n        /* \"@openzeppelin/contracts/token/ERC20/ERC20.sol\":6570:6585  _balances[from] */\n      swap1\n      dup2\n      mstore\n        /* \"@openzeppelin/contracts/token/ERC20/ERC20.sol\":6570:6579  _balances */\n      0x01\n        /* \"@openzeppelin/contracts/token/ERC20/ERC20.sol\":6570:6585  _balances[from] */\n      0x20\n      mstore\n      0x40\n      swap1\n      keccak256\n      sload\n        /* \"@openzeppelin/contracts/token/ERC20/ERC20.sol\":6603:6622  fromBalance < value */\n      dup2\n      dup2\n      lt\n        /* \"@openzeppelin/contracts/token/ERC20/ERC20.sol\":6599:6714  if (fromBalance < value) {... */\n      iszero\n      tag_560\n      jumpi\n        /* \"@openzeppelin/contracts/token/ERC20/ERC20.sol\":6649:6699  ERC20InsufficientBalance(from, fromBalance, value) */\n      mload(0x40)\n      shl(0xe2, 0x391434e3)\n      dup2\n      mstore\n      sub(shl(0xa0, 0x01), 0x01)\n        /* \"#utility.yul\":23726:23758   */\n      dup6\n      and\n        /* \"@openzeppelin/contracts/token/ERC20/ERC20.sol\":6649:6699  ERC20InsufficientBalance(from, fromBalance, value) */\n      0x04\n      dup3\n      add\n        /* \"#utility.yul\":23708:23759   */\n      mstore\n        /* \"#utility.yul\":23775:23793   */\n      0x24\n      dup2\n      add\n        /* \"#utility.yul\":23768:23802   */\n      dup3\n      swap1\n      mstore\n        /* \"#utility.yul\":23818:23836   */\n      0x44\n      dup2\n      add\n        /* \"#utility.yul\":23811:23845   */\n      dup4\n      swap1\n      mstore\n        /* \"#utility.yul\":23681:23699   */\n      0x64\n      add\n        /* \"@openzeppelin/contracts/token/ERC20/ERC20.sol\":6649:6699  ERC20InsufficientBalance(from, fromBalance, value) */\n      tag_188\n        /* \"#utility.yul\":23506:23851   */\n      jump\n        /* \"@openzeppelin/contracts/token/ERC20/ERC20.sol\":6599:6714  if (fromBalance < value) {... */\n    tag_560:\n      sub(shl(0xa0, 0x01), 0x01)\n        /* \"@openzeppelin/contracts/token/ERC20/ERC20.sol\":6834:6849  _balances[from] */\n      dup5\n      and\n      0x00\n      swap1\n      dup2\n      mstore\n        /* \"@openzeppelin/contracts/token/ERC20/ERC20.sol\":6834:6843  _balances */\n      0x01\n        /* \"@openzeppelin/contracts/token/ERC20/ERC20.sol\":6834:6849  _balances[from] */\n      0x20\n      mstore\n      0x40\n      swap1\n      keccak256\n        /* \"@openzeppelin/contracts/token/ERC20/ERC20.sol\":6852:6871  fromBalance - value */\n      swap1\n      dup3\n      swap1\n      sub\n        /* \"@openzeppelin/contracts/token/ERC20/ERC20.sol\":6834:6871  _balances[from] = fromBalance - value */\n      swap1\n      sstore\n        /* \"@openzeppelin/contracts/token/ERC20/ERC20.sol\":6356:6896  if (from == address(0)) {... */\n    tag_559:\n      sub(shl(0xa0, 0x01), 0x01)\n        /* \"@openzeppelin/contracts/token/ERC20/ERC20.sol\":6910:6926  to == address(0) */\n      dup3\n      and\n        /* \"@openzeppelin/contracts/token/ERC20/ERC20.sol\":6906:7331  if (to == address(0)) {... */\n      tag_562\n      jumpi\n        /* \"@openzeppelin/contracts/token/ERC20/ERC20.sol\":7073:7085  _totalSupply */\n      0x03\n        /* \"@openzeppelin/contracts/token/ERC20/ERC20.sol\":7073:7094  _totalSupply -= value */\n      dup1\n      sload\n      dup3\n      swap1\n      sub\n      swap1\n      sstore\n        /* \"@openzeppelin/contracts/token/ERC20/ERC20.sol\":6906:7331  if (to == address(0)) {... */\n      jump(tag_563)\n    tag_562:\n      sub(shl(0xa0, 0x01), 0x01)\n        /* \"@openzeppelin/contracts/token/ERC20/ERC20.sol\":7284:7297  _balances[to] */\n      dup3\n      and\n      0x00\n      swap1\n      dup2\n      mstore\n        /* \"@openzeppelin/contracts/token/ERC20/ERC20.sol\":7284:7293  _balances */\n      0x01\n        /* \"@openzeppelin/contracts/token/ERC20/ERC20.sol\":7284:7297  _balances[to] */\n      0x20\n      mstore\n      0x40\n      swap1\n      keccak256\n        /* \"@openzeppelin/contracts/token/ERC20/ERC20.sol\":7284:7306  _balances[to] += value */\n      dup1\n      sload\n      dup3\n      add\n      swap1\n      sstore\n        /* \"@openzeppelin/contracts/token/ERC20/ERC20.sol\":6906:7331  if (to == address(0)) {... */\n    tag_563:\n        /* \"@openzeppelin/contracts/token/ERC20/ERC20.sol\":7361:7363  to */\n      dup2\n      sub(shl(0xa0, 0x01), 0x01)\n        /* \"@openzeppelin/contracts/token/ERC20/ERC20.sol\":7346:7371  Transfer(from, to, value) */\n      and\n        /* \"@openzeppelin/contracts/token/ERC20/ERC20.sol\":7355:7359  from */\n      dup4\n      sub(shl(0xa0, 0x01), 0x01)\n        /* \"@openzeppelin/contracts/token/ERC20/ERC20.sol\":7346:7371  Transfer(from, to, value) */\n      and\n      0xddf252ad1be2c89b69c2b068fc378daa952ba7f163c4a11628f55a4df523b3ef\n        /* \"@openzeppelin/contracts/token/ERC20/ERC20.sol\":7365:7370  value */\n      dup4\n        /* \"@openzeppelin/contracts/token/ERC20/ERC20.sol\":7346:7371  Transfer(from, to, value) */\n      mload(0x40)\n      tag_564\n      swap2\n        /* \"#utility.yul\":3705:3730   */\n      dup2\n      mstore\n        /* \"#utility.yul\":3693:3695   */\n      0x20\n        /* \"#utility.yul\":3678:3696   */\n      add\n      swap1\n        /* \"#utility.yul\":3559:3736   */\n      jump\n        /* \"@openzeppelin/contracts/token/ERC20/ERC20.sol\":7346:7371  Transfer(from, to, value) */\n    tag_564:\n      mload(0x40)\n      dup1\n      swap2\n      sub\n      swap1\n      log3\n        /* \"@openzeppelin/contracts/token/ERC20/ERC20.sol\":6271:7378  function _update(address from, address to, uint256 value) internal virtual {... */\n      pop\n      pop\n      pop\n      jump\t// out\n        /* \"@openzeppelin/contracts/token/ERC20/ERC20.sol\":9949:10381  function _approve(address owner, address spender, uint256 value, bool emitEvent) internal virtual {... */\n    tag_462:\n      sub(shl(0xa0, 0x01), 0x01)\n        /* \"@openzeppelin/contracts/token/ERC20/ERC20.sol\":10061:10080  owner == address(0) */\n      dup5\n      and\n        /* \"@openzeppelin/contracts/token/ERC20/ERC20.sol\":10057:10146  if (owner == address(0)) {... */\n      tag_566\n      jumpi\n        /* \"@openzeppelin/contracts/token/ERC20/ERC20.sol\":10103:10135  ERC20InvalidApprover(address(0)) */\n      mload(0x40)\n      shl(0xe0, 0xe602df05)\n      dup2\n      mstore\n        /* \"@openzeppelin/contracts/token/ERC20/ERC20.sol\":10132:10133  0 */\n      0x00\n        /* \"@openzeppelin/contracts/token/ERC20/ERC20.sol\":10103:10135  ERC20InvalidApprover(address(0)) */\n      0x04\n      dup3\n      add\n        /* \"#utility.yul\":3497:3548   */\n      mstore\n        /* \"#utility.yul\":3470:3488   */\n      0x24\n      add\n        /* \"@openzeppelin/contracts/token/ERC20/ERC20.sol\":10103:10135  ERC20InvalidApprover(address(0)) */\n      tag_188\n        /* \"#utility.yul\":3324:3554   */\n      jump\n        /* \"@openzeppelin/contracts/token/ERC20/ERC20.sol\":10057:10146  if (owner == address(0)) {... */\n    tag_566:\n      sub(shl(0xa0, 0x01), 0x01)\n        /* \"@openzeppelin/contracts/token/ERC20/ERC20.sol\":10159:10180  spender == address(0) */\n      dup4\n      and\n        /* \"@openzeppelin/contracts/token/ERC20/ERC20.sol\":10155:10245  if (spender == address(0)) {... */\n      tag_568\n      jumpi\n        /* \"@openzeppelin/contracts/token/ERC20/ERC20.sol\":10203:10234  ERC20InvalidSpender(address(0)) */\n      mload(0x40)\n      shl(0xe1, 0x4a1406b1)\n      dup2\n      mstore\n        /* \"@openzeppelin/contracts/token/ERC20/ERC20.sol\":10231:10232  0 */\n      0x00\n        /* \"@openzeppelin/contracts/token/ERC20/ERC20.sol\":10203:10234  ERC20InvalidSpender(address(0)) */\n      0x04\n      dup3\n      add\n        /* \"#utility.yul\":3497:3548   */\n      mstore\n        /* \"#utility.yul\":3470:3488   */\n      0x24\n      add\n        /* \"@openzeppelin/contracts/token/ERC20/ERC20.sol\":10203:10234  ERC20InvalidSpender(address(0)) */\n      tag_188\n        /* \"#utility.yul\":3324:3554   */\n      jump\n        /* \"@openzeppelin/contracts/token/ERC20/ERC20.sol\":10155:10245  if (spender == address(0)) {... */\n    tag_568:\n      sub(shl(0xa0, 0x01), 0x01)\n        /* \"@openzeppelin/contracts/token/ERC20/ERC20.sol\":10254:10272  _allowances[owner] */\n      dup1\n      dup6\n      and\n      0x00\n      swap1\n      dup2\n      mstore\n        /* \"@openzeppelin/contracts/token/ERC20/ERC20.sol\":10254:10265  _allowances */\n      0x02\n        /* \"@openzeppelin/contracts/token/ERC20/ERC20.sol\":10254:10272  _allowances[owner] */\n      0x20\n      swap1\n      dup2\n      mstore\n      0x40\n      dup1\n      dup4\n      keccak256\n        /* \"@openzeppelin/contracts/token/ERC20/ERC20.sol\":10254:10281  _allowances[owner][spender] */\n      swap4\n      dup8\n      and\n      dup4\n      mstore\n      swap3\n      swap1\n      mstore\n      keccak256\n        /* \"@openzeppelin/contracts/token/ERC20/ERC20.sol\":10254:10289  _allowances[owner][spender] = value */\n      dup3\n      swap1\n      sstore\n        /* \"@openzeppelin/contracts/token/ERC20/ERC20.sol\":10299:10375  if (emitEvent) {... */\n      dup1\n      iszero\n      tag_394\n      jumpi\n        /* \"@openzeppelin/contracts/token/ERC20/ERC20.sol\":10349:10356  spender */\n      dup3\n      sub(shl(0xa0, 0x01), 0x01)\n        /* \"@openzeppelin/contracts/token/ERC20/ERC20.sol\":10333:10364  Approval(owner, spender, value) */\n      and\n        /* \"@openzeppelin/contracts/token/ERC20/ERC20.sol\":10342:10347  owner */\n      dup5\n      sub(shl(0xa0, 0x01), 0x01)\n        /* \"@openzeppelin/contracts/token/ERC20/ERC20.sol\":10333:10364  Approval(owner, spender, value) */\n      and\n      0x8c5be1e5ebec7d5bd14f71427d1e84f3dd0314c0f7b2291e5b200ac8c7c3b925\n        /* \"@openzeppelin/contracts/token/ERC20/ERC20.sol\":10358:10363  value */\n      dup5\n        /* \"@openzeppelin/contracts/token/ERC20/ERC20.sol\":10333:10364  Approval(owner, spender, value) */\n      mload(0x40)\n      tag_571\n      swap2\n        /* \"#utility.yul\":3705:3730   */\n      dup2\n      mstore\n        /* \"#utility.yul\":3693:3695   */\n      0x20\n        /* \"#utility.yul\":3678:3696   */\n      add\n      swap1\n        /* \"#utility.yul\":3559:3736   */\n      jump\n        /* \"@openzeppelin/contracts/token/ERC20/ERC20.sol\":10333:10364  Approval(owner, spender, value) */\n    tag_571:\n      mload(0x40)\n      dup1\n      swap2\n      sub\n      swap1\n      log3\n        /* \"@openzeppelin/contracts/token/ERC20/ERC20.sol\":9949:10381  function _approve(address owner, address spender, uint256 value, bool emitEvent) internal virtual {... */\n      pop\n      pop\n      pop\n      pop\n      jump\t// out\n        /* \"#utility.yul\":14:141   */\n    tag_572:\n        /* \"#utility.yul\":75:85   */\n      0x4e487b71\n        /* \"#utility.yul\":70:73   */\n      0xe0\n        /* \"#utility.yul\":66:86   */\n      shl\n        /* \"#utility.yul\":63:64   */\n      0x00\n        /* \"#utility.yul\":56:87   */\n      mstore\n        /* \"#utility.yul\":106:110   */\n      0x41\n        /* \"#utility.yul\":103:104   */\n      0x04\n        /* \"#utility.yul\":96:111   */\n      mstore\n        /* \"#utility.yul\":130:134   */\n      0x24\n        /* \"#utility.yul\":127:128   */\n      0x00\n        /* \"#utility.yul\":120:135   */\n      revert\n        /* \"#utility.yul\":146:399   */\n    tag_573:\n        /* \"#utility.yul\":218:220   */\n      0x40\n        /* \"#utility.yul\":212:221   */\n      mload\n        /* \"#utility.yul\":260:264   */\n      0x60\n        /* \"#utility.yul\":248:265   */\n      dup2\n      add\n      sub(shl(0x40, 0x01), 0x01)\n        /* \"#utility.yul\":280:314   */\n      dup2\n      gt\n        /* \"#utility.yul\":316:338   */\n      dup3\n      dup3\n      lt\n        /* \"#utility.yul\":277:339   */\n      or\n        /* \"#utility.yul\":274:362   */\n      iszero\n      tag_592\n      jumpi\n        /* \"#utility.yul\":342:360   */\n      tag_592\n      tag_572\n      jump\t// in\n    tag_592:\n        /* \"#utility.yul\":378:380   */\n      0x40\n        /* \"#utility.yul\":371:393   */\n      mstore\n        /* \"#utility.yul\":146:399   */\n      swap1\n      jump\t// out\n        /* \"#utility.yul\":404:679   */\n    tag_574:\n        /* \"#utility.yul\":475:477   */\n      0x40\n        /* \"#utility.yul\":469:478   */\n      mload\n        /* \"#utility.yul\":540:542   */\n      0x1f\n        /* \"#utility.yul\":521:534   */\n      dup3\n      add\n      not(0x1f)\n        /* \"#utility.yul\":517:544   */\n      and\n        /* \"#utility.yul\":505:545   */\n      dup2\n      add\n      sub(shl(0x40, 0x01), 0x01)\n        /* \"#utility.yul\":560:594   */\n      dup2\n      gt\n        /* \"#utility.yul\":596:618   */\n      dup3\n      dup3\n      lt\n        /* \"#utility.yul\":557:619   */\n      or\n        /* \"#utility.yul\":554:642   */\n      iszero\n      tag_595\n      jumpi\n        /* \"#utility.yul\":622:640   */\n      tag_595\n      tag_572\n      jump\t// in\n    tag_595:\n        /* \"#utility.yul\":658:660   */\n      0x40\n        /* \"#utility.yul\":651:673   */\n      mstore\n        /* \"#utility.yul\":404:679   */\n      swap2\n      swap1\n      pop\n      jump\t// out\n        /* \"#utility.yul\":684:870   */\n    tag_575:\n        /* \"#utility.yul\":732:736   */\n      0x00\n      sub(shl(0x40, 0x01), 0x01)\n        /* \"#utility.yul\":757:763   */\n      dup3\n        /* \"#utility.yul\":754:784   */\n      gt\n        /* \"#utility.yul\":751:807   */\n      iszero\n      tag_598\n      jumpi\n        /* \"#utility.yul\":787:805   */\n      tag_598\n      tag_572\n      jump\t// in\n    tag_598:\n      pop\n        /* \"#utility.yul\":853:855   */\n      0x1f\n        /* \"#utility.yul\":832:847   */\n      add\n      not(0x1f)\n        /* \"#utility.yul\":828:857   */\n      and\n        /* \"#utility.yul\":859:863   */\n      0x20\n        /* \"#utility.yul\":824:864   */\n      add\n      swap1\n        /* \"#utility.yul\":684:870   */\n      jump\t// out\n        /* \"#utility.yul\":875:1337   */\n    tag_576:\n        /* \"#utility.yul\":917:922   */\n      0x00\n        /* \"#utility.yul\":970:973   */\n      dup3\n        /* \"#utility.yul\":963:967   */\n      0x1f\n        /* \"#utility.yul\":955:961   */\n      dup4\n        /* \"#utility.yul\":951:968   */\n      add\n        /* \"#utility.yul\":947:974   */\n      slt\n        /* \"#utility.yul\":937:992   */\n      tag_600\n      jumpi\n        /* \"#utility.yul\":988:989   */\n      0x00\n        /* \"#utility.yul\":985:986   */\n      dup1\n        /* \"#utility.yul\":978:990   */\n      revert\n        /* \"#utility.yul\":937:992   */\n    tag_600:\n        /* \"#utility.yul\":1024:1030   */\n      dup2\n        /* \"#utility.yul\":1011:1031   */\n      calldataload\n        /* \"#utility.yul\":1055:1103   */\n      tag_601\n        /* \"#utility.yul\":1071:1102   */\n      tag_602\n        /* \"#utility.yul\":1099:1101   */\n      dup3\n        /* \"#utility.yul\":1071:1102   */\n      tag_575\n      jump\t// in\n    tag_602:\n        /* \"#utility.yul\":1055:1103   */\n      tag_574\n      jump\t// in\n    tag_601:\n        /* \"#utility.yul\":1128:1130   */\n      dup2\n        /* \"#utility.yul\":1119:1126   */\n      dup2\n        /* \"#utility.yul\":1112:1131   */\n      mstore\n        /* \"#utility.yul\":1174:1177   */\n      dup5\n        /* \"#utility.yul\":1167:1171   */\n      0x20\n        /* \"#utility.yul\":1162:1164   */\n      dup4\n        /* \"#utility.yul\":1154:1160   */\n      dup7\n        /* \"#utility.yul\":1150:1165   */\n      add\n        /* \"#utility.yul\":1146:1172   */\n      add\n        /* \"#utility.yul\":1143:1178   */\n      gt\n        /* \"#utility.yul\":1140:1195   */\n      iszero\n      tag_603\n      jumpi\n        /* \"#utility.yul\":1191:1192   */\n      0x00\n        /* \"#utility.yul\":1188:1189   */\n      dup1\n        /* \"#utility.yul\":1181:1193   */\n      revert\n        /* \"#utility.yul\":1140:1195   */\n    tag_603:\n        /* \"#utility.yul\":1256:1258   */\n      dup2\n        /* \"#utility.yul\":1249:1253   */\n      0x20\n        /* \"#utility.yul\":1241:1247   */\n      dup6\n        /* \"#utility.yul\":1237:1254   */\n      add\n        /* \"#utility.yul\":1230:1234   */\n      0x20\n        /* \"#utility.yul\":1221:1228   */\n      dup4\n        /* \"#utility.yul\":1217:1235   */\n      add\n        /* \"#utility.yul\":1204:1259   */\n      calldatacopy\n        /* \"#utility.yul\":1304:1305   */\n      0x00\n        /* \"#utility.yul\":1279:1295   */\n      swap2\n      dup2\n      add\n        /* \"#utility.yul\":1297:1301   */\n      0x20\n        /* \"#utility.yul\":1275:1302   */\n      add\n        /* \"#utility.yul\":1268:1306   */\n      swap2\n      swap1\n      swap2\n      mstore\n        /* \"#utility.yul\":1283:1290   */\n      swap4\n        /* \"#utility.yul\":875:1337   */\n      swap3\n      pop\n      pop\n      pop\n      jump\t// out\n        /* \"#utility.yul\":1342:1730   */\n    tag_42:\n        /* \"#utility.yul\":1419:1425   */\n      0x00\n        /* \"#utility.yul\":1427:1433   */\n      dup1\n        /* \"#utility.yul\":1480:1482   */\n      0x40\n        /* \"#utility.yul\":1468:1477   */\n      dup4\n        /* \"#utility.yul\":1459:1466   */\n      dup6\n        /* \"#utility.yul\":1455:1478   */\n      sub\n        /* \"#utility.yul\":1451:1483   */\n      slt\n        /* \"#utility.yul\":1448:1500   */\n      iszero\n      tag_605\n      jumpi\n        /* \"#utility.yul\":1496:1497   */\n      0x00\n        /* \"#utility.yul\":1493:1494   */\n      dup1\n        /* \"#utility.yul\":1486:1498   */\n      revert\n        /* \"#utility.yul\":1448:1500   */\n    tag_605:\n        /* \"#utility.yul\":1532:1541   */\n      dup3\n        /* \"#utility.yul\":1519:1542   */\n      calldataload\n        /* \"#utility.yul\":1509:1542   */\n      swap2\n      pop\n        /* \"#utility.yul\":1593:1595   */\n      0x20\n        /* \"#utility.yul\":1582:1591   */\n      dup4\n        /* \"#utility.yul\":1578:1596   */\n      add\n        /* \"#utility.yul\":1565:1597   */\n      calldataload\n      sub(shl(0x40, 0x01), 0x01)\n        /* \"#utility.yul\":1612:1618   */\n      dup2\n        /* \"#utility.yul\":1609:1639   */\n      gt\n        /* \"#utility.yul\":1606:1656   */\n      iszero\n      tag_606\n      jumpi\n        /* \"#utility.yul\":1652:1653   */\n      0x00\n        /* \"#utility.yul\":1649:1650   */\n      dup1\n        /* \"#utility.yul\":1642:1654   */\n      revert\n        /* \"#utility.yul\":1606:1656   */\n    tag_606:\n        /* \"#utility.yul\":1675:1724   */\n      tag_607\n        /* \"#utility.yul\":1716:1723   */\n      dup6\n        /* \"#utility.yul\":1707:1713   */\n      dup3\n        /* \"#utility.yul\":1696:1705   */\n      dup7\n        /* \"#utility.yul\":1692:1714   */\n      add\n        /* \"#utility.yul\":1675:1724   */\n      tag_576\n      jump\t// in\n    tag_607:\n        /* \"#utility.yul\":1665:1724   */\n      swap2\n      pop\n      pop\n        /* \"#utility.yul\":1342:1730   */\n      swap3\n      pop\n      swap3\n      swap1\n      pop\n      jump\t// out\n        /* \"#utility.yul\":1735:1985   */\n    tag_577:\n        /* \"#utility.yul\":1820:1821   */\n      0x00\n        /* \"#utility.yul\":1830:1943   */\n    tag_609:\n        /* \"#utility.yul\":1844:1850   */\n      dup4\n        /* \"#utility.yul\":1841:1842   */\n      dup2\n        /* \"#utility.yul\":1838:1851   */\n      lt\n        /* \"#utility.yul\":1830:1943   */\n      iszero\n      tag_611\n      jumpi\n        /* \"#utility.yul\":1920:1931   */\n      dup2\n      dup2\n      add\n        /* \"#utility.yul\":1914:1932   */\n      mload\n        /* \"#utility.yul\":1901:1912   */\n      dup4\n      dup3\n      add\n        /* \"#utility.yul\":1894:1933   */\n      mstore\n        /* \"#utility.yul\":1866:1868   */\n      0x20\n        /* \"#utility.yul\":1859:1869   */\n      add\n        /* \"#utility.yul\":1830:1943   */\n      jump(tag_609)\n    tag_611:\n      pop\n      pop\n        /* \"#utility.yul\":1977:1978   */\n      0x00\n        /* \"#utility.yul\":1959:1975   */\n      swap2\n      add\n        /* \"#utility.yul\":1952:1979   */\n      mstore\n        /* \"#utility.yul\":1735:1985   */\n      jump\t// out\n        /* \"#utility.yul\":1990:2261   */\n    tag_578:\n        /* \"#utility.yul\":2032:2035   */\n      0x00\n        /* \"#utility.yul\":2070:2075   */\n      dup2\n        /* \"#utility.yul\":2064:2076   */\n      mload\n        /* \"#utility.yul\":2097:2103   */\n      dup1\n        /* \"#utility.yul\":2092:2095   */\n      dup5\n        /* \"#utility.yul\":2085:2104   */\n      mstore\n        /* \"#utility.yul\":2113:2189   */\n      tag_613\n        /* \"#utility.yul\":2182:2188   */\n      dup2\n        /* \"#utility.yul\":2175:2179   */\n      0x20\n        /* \"#utility.yul\":2170:2173   */\n      dup7\n        /* \"#utility.yul\":2166:2180   */\n      add\n        /* \"#utility.yul\":2159:2163   */\n      0x20\n        /* \"#utility.yul\":2152:2157   */\n      dup7\n        /* \"#utility.yul\":2148:2164   */\n      add\n        /* \"#utility.yul\":2113:2189   */\n      tag_577\n      jump\t// in\n    tag_613:\n        /* \"#utility.yul\":2243:2245   */\n      0x1f\n        /* \"#utility.yul\":2222:2237   */\n      add\n      not(0x1f)\n        /* \"#utility.yul\":2218:2247   */\n      and\n        /* \"#utility.yul\":2209:2248   */\n      swap3\n      swap1\n      swap3\n      add\n        /* \"#utility.yul\":2250:2254   */\n      0x20\n        /* \"#utility.yul\":2205:2255   */\n      add\n      swap3\n        /* \"#utility.yul\":1990:2261   */\n      swap2\n      pop\n      pop\n      jump\t// out\n        /* \"#utility.yul\":2266:2486   */\n    tag_48:\n        /* \"#utility.yul\":2415:2417   */\n      0x20\n        /* \"#utility.yul\":2404:2413   */\n      dup2\n        /* \"#utility.yul\":2397:2418   */\n      mstore\n        /* \"#utility.yul\":2378:2382   */\n      0x00\n        /* \"#utility.yul\":2435:2480   */\n      tag_615\n        /* \"#utility.yul\":2476:2478   */\n      0x20\n        /* \"#utility.yul\":2465:2474   */\n      dup4\n        /* \"#utility.yul\":2461:2479   */\n      add\n        /* \"#utility.yul\":2453:2459   */\n      dup5\n        /* \"#utility.yul\":2435:2480   */\n      tag_578\n      jump\t// in\n    tag_615:\n        /* \"#utility.yul\":2427:2480   */\n      swap4\n        /* \"#utility.yul\":2266:2486   */\n      swap3\n      pop\n      pop\n      pop\n      jump\t// out\n        /* \"#utility.yul\":2491:2622   */\n    tag_579:\n      sub(shl(0xa0, 0x01), 0x01)\n        /* \"#utility.yul\":2566:2597   */\n      dup2\n      and\n        /* \"#utility.yul\":2556:2598   */\n      dup2\n      eq\n        /* \"#utility.yul\":2546:2616   */\n      tag_435\n      jumpi\n        /* \"#utility.yul\":2612:2613   */\n      0x00\n        /* \"#utility.yul\":2609:2610   */\n      dup1\n        /* \"#utility.yul\":2602:2614   */\n      revert\n        /* \"#utility.yul\":2627:2942   */\n    tag_52:\n        /* \"#utility.yul\":2695:2701   */\n      0x00\n        /* \"#utility.yul\":2703:2709   */\n      dup1\n        /* \"#utility.yul\":2756:2758   */\n      0x40\n        /* \"#utility.yul\":2744:2753   */\n      dup4\n        /* \"#utility.yul\":2735:2742   */\n      dup6\n        /* \"#utility.yul\":2731:2754   */\n      sub\n        /* \"#utility.yul\":2727:2759   */\n      slt\n        /* \"#utility.yul\":2724:2776   */\n      iszero\n      tag_619\n      jumpi\n        /* \"#utility.yul\":2772:2773   */\n      0x00\n        /* \"#utility.yul\":2769:2770   */\n      dup1\n        /* \"#utility.yul\":2762:2774   */\n      revert\n        /* \"#utility.yul\":2724:2776   */\n    tag_619:\n        /* \"#utility.yul\":2811:2820   */\n      dup3\n        /* \"#utility.yul\":2798:2821   */\n      calldataload\n        /* \"#utility.yul\":2830:2861   */\n      tag_620\n        /* \"#utility.yul\":2855:2860   */\n      dup2\n        /* \"#utility.yul\":2830:2861   */\n      tag_579\n      jump\t// in\n    tag_620:\n        /* \"#utility.yul\":2880:2885   */\n      swap5\n        /* \"#utility.yul\":2932:2934   */\n      0x20\n        /* \"#utility.yul\":2917:2935   */\n      swap4\n      swap1\n      swap4\n      add\n        /* \"#utility.yul\":2904:2936   */\n      calldataload\n      swap4\n      pop\n      pop\n      pop\n        /* \"#utility.yul\":2627:2942   */\n      jump\t// out\n        /* \"#utility.yul\":3139:3319   */\n    tag_59:\n        /* \"#utility.yul\":3198:3204   */\n      0x00\n        /* \"#utility.yul\":3251:3253   */\n      0x20\n        /* \"#utility.yul\":3239:3248   */\n      dup3\n        /* \"#utility.yul\":3230:3237   */\n      dup5\n        /* \"#utility.yul\":3226:3249   */\n      sub\n        /* \"#utility.yul\":3222:3254   */\n      slt\n        /* \"#utility.yul\":3219:3271   */\n      iszero\n      tag_623\n      jumpi\n        /* \"#utility.yul\":3267:3268   */\n      0x00\n        /* \"#utility.yul\":3264:3265   */\n      dup1\n        /* \"#utility.yul\":3257:3269   */\n      revert\n        /* \"#utility.yul\":3219:3271   */\n    tag_623:\n      pop\n        /* \"#utility.yul\":3290:3313   */\n      calldataload\n      swap2\n        /* \"#utility.yul\":3139:3319   */\n      swap1\n      pop\n      jump\t// out\n        /* \"#utility.yul\":3741:4197   */\n    tag_74:\n        /* \"#utility.yul\":3818:3824   */\n      0x00\n        /* \"#utility.yul\":3826:3832   */\n      dup1\n        /* \"#utility.yul\":3834:3840   */\n      0x00\n        /* \"#utility.yul\":3887:3889   */\n      0x60\n        /* \"#utility.yul\":3875:3884   */\n      dup5\n        /* \"#utility.yul\":3866:3873   */\n      dup7\n        /* \"#utility.yul\":3862:3885   */\n      sub\n        /* \"#utility.yul\":3858:3890   */\n      slt\n        /* \"#utility.yul\":3855:3907   */\n      iszero\n      tag_627\n      jumpi\n        /* \"#utility.yul\":3903:3904   */\n      0x00\n        /* \"#utility.yul\":3900:3901   */\n      dup1\n        /* \"#utility.yul\":3893:3905   */\n      revert\n        /* \"#utility.yul\":3855:3907   */\n    tag_627:\n        /* \"#utility.yul\":3942:3951   */\n      dup4\n        /* \"#utility.yul\":3929:3952   */\n      calldataload\n        /* \"#utility.yul\":3961:3992   */\n      tag_628\n        /* \"#utility.yul\":3986:3991   */\n      dup2\n        /* \"#utility.yul\":3961:3992   */\n      tag_579\n      jump\t// in\n    tag_628:\n        /* \"#utility.yul\":4011:4016   */\n      swap3\n      pop\n        /* \"#utility.yul\":4068:4070   */\n      0x20\n        /* \"#utility.yul\":4053:4071   */\n      dup5\n      add\n        /* \"#utility.yul\":4040:4072   */\n      calldataload\n        /* \"#utility.yul\":4081:4114   */\n      tag_629\n        /* \"#utility.yul\":4040:4072   */\n      dup2\n        /* \"#utility.yul\":4081:4114   */\n      tag_579\n      jump\t// in\n    tag_629:\n        /* \"#utility.yul\":3741:4197   */\n      swap3\n      swap6\n        /* \"#utility.yul\":4133:4140   */\n      swap3\n      swap5\n      pop\n      pop\n      pop\n        /* \"#utility.yul\":4187:4189   */\n      0x40\n        /* \"#utility.yul\":4172:4190   */\n      swap2\n      swap1\n      swap2\n      add\n        /* \"#utility.yul\":4159:4191   */\n      calldataload\n      swap1\n        /* \"#utility.yul\":3741:4197   */\n      jump\t// out\n        /* \"#utility.yul\":4202:5020   */\n    tag_81:\n        /* \"#utility.yul\":4427:4429   */\n      0x20\n        /* \"#utility.yul\":4479:4500   */\n      dup1\n      dup3\n      mstore\n        /* \"#utility.yul\":4549:4562   */\n      dup3\n      mload\n        /* \"#utility.yul\":4452:4470   */\n      dup3\n      dup3\n      add\n        /* \"#utility.yul\":4571:4593   */\n      dup2\n      swap1\n      mstore\n        /* \"#utility.yul\":4398:4402   */\n      0x00\n      swap2\n        /* \"#utility.yul\":4427:4429   */\n      swap1\n        /* \"#utility.yul\":4612:4614   */\n      0x40\n      swap1\n        /* \"#utility.yul\":4630:4648   */\n      dup2\n      dup6\n      add\n      swap1\n        /* \"#utility.yul\":4671:4686   */\n      dup7\n      dup5\n      add\n        /* \"#utility.yul\":4398:4402   */\n      dup6\n        /* \"#utility.yul\":4714:4994   */\n    tag_631:\n        /* \"#utility.yul\":4728:4734   */\n      dup3\n        /* \"#utility.yul\":4725:4726   */\n      dup2\n        /* \"#utility.yul\":4722:4735   */\n      lt\n        /* \"#utility.yul\":4714:4994   */\n      iszero\n      tag_633\n      jumpi\n        /* \"#utility.yul\":4787:4800   */\n      dup2\n      mload\n        /* \"#utility.yul\":4829:4838   */\n      dup1\n      mload\n      sub(shl(0xa0, 0x01), 0x01)\n        /* \"#utility.yul\":4825:4860   */\n      and\n        /* \"#utility.yul\":4813:4861   */\n      dup6\n      mstore\n        /* \"#utility.yul\":4901:4912   */\n      dup7\n      add\n        /* \"#utility.yul\":4895:4913   */\n      mload\n        /* \"#utility.yul\":4881:4893   */\n      dup7\n      dup6\n      add\n        /* \"#utility.yul\":4874:4914   */\n      mstore\n        /* \"#utility.yul\":4934:4946   */\n      swap3\n      dup5\n      add\n      swap3\n        /* \"#utility.yul\":4969:4984   */\n      swap1\n      dup6\n      add\n      swap1\n        /* \"#utility.yul\":4857:4858   */\n      0x01\n        /* \"#utility.yul\":4743:4752   */\n      add\n        /* \"#utility.yul\":4714:4994   */\n      jump(tag_631)\n    tag_633:\n      pop\n        /* \"#utility.yul\":5011:5014   */\n      swap2\n      swap8\n        /* \"#utility.yul\":4202:5020   */\n      swap7\n      pop\n      pop\n      pop\n      pop\n      pop\n      pop\n      pop\n      jump\t// out\n        /* \"#utility.yul\":5442:5689   */\n    tag_99:\n        /* \"#utility.yul\":5501:5507   */\n      0x00\n        /* \"#utility.yul\":5554:5556   */\n      0x20\n        /* \"#utility.yul\":5542:5551   */\n      dup3\n        /* \"#utility.yul\":5533:5540   */\n      dup5\n        /* \"#utility.yul\":5529:5552   */\n      sub\n        /* \"#utility.yul\":5525:5557   */\n      slt\n        /* \"#utility.yul\":5522:5574   */\n      iszero\n      tag_637\n      jumpi\n        /* \"#utility.yul\":5570:5571   */\n      0x00\n        /* \"#utility.yul\":5567:5568   */\n      dup1\n        /* \"#utility.yul\":5560:5572   */\n      revert\n        /* \"#utility.yul\":5522:5574   */\n    tag_637:\n        /* \"#utility.yul\":5609:5618   */\n      dup2\n        /* \"#utility.yul\":5596:5619   */\n      calldataload\n        /* \"#utility.yul\":5628:5659   */\n      tag_615\n        /* \"#utility.yul\":5653:5658   */\n      dup2\n        /* \"#utility.yul\":5628:5659   */\n      tag_579\n      jump\t// in\n        /* \"#utility.yul\":6088:6455   */\n    tag_580:\n        /* \"#utility.yul\":6151:6159   */\n      0x00\n        /* \"#utility.yul\":6161:6167   */\n      dup1\n        /* \"#utility.yul\":6215:6218   */\n      dup4\n        /* \"#utility.yul\":6208:6212   */\n      0x1f\n        /* \"#utility.yul\":6200:6206   */\n      dup5\n        /* \"#utility.yul\":6196:6213   */\n      add\n        /* \"#utility.yul\":6192:6219   */\n      slt\n        /* \"#utility.yul\":6182:6237   */\n      tag_641\n      jumpi\n        /* \"#utility.yul\":6233:6234   */\n      0x00\n        /* \"#utility.yul\":6230:6231   */\n      dup1\n        /* \"#utility.yul\":6223:6235   */\n      revert\n        /* \"#utility.yul\":6182:6237   */\n    tag_641:\n      pop\n        /* \"#utility.yul\":6256:6276   */\n      dup2\n      calldataload\n      sub(shl(0x40, 0x01), 0x01)\n        /* \"#utility.yul\":6288:6318   */\n      dup2\n      gt\n        /* \"#utility.yul\":6285:6335   */\n      iszero\n      tag_642\n      jumpi\n        /* \"#utility.yul\":6331:6332   */\n      0x00\n        /* \"#utility.yul\":6328:6329   */\n      dup1\n        /* \"#utility.yul\":6321:6333   */\n      revert\n        /* \"#utility.yul\":6285:6335   */\n    tag_642:\n        /* \"#utility.yul\":6368:6372   */\n      0x20\n        /* \"#utility.yul\":6360:6366   */\n      dup4\n        /* \"#utility.yul\":6356:6373   */\n      add\n        /* \"#utility.yul\":6344:6373   */\n      swap2\n      pop\n        /* \"#utility.yul\":6428:6431   */\n      dup4\n        /* \"#utility.yul\":6421:6425   */\n      0x20\n        /* \"#utility.yul\":6411:6417   */\n      dup3\n        /* \"#utility.yul\":6408:6409   */\n      0x05\n        /* \"#utility.yul\":6404:6418   */\n      shl\n        /* \"#utility.yul\":6396:6402   */\n      dup6\n        /* \"#utility.yul\":6392:6419   */\n      add\n        /* \"#utility.yul\":6388:6426   */\n      add\n        /* \"#utility.yul\":6385:6432   */\n      gt\n        /* \"#utility.yul\":6382:6449   */\n      iszero\n      tag_643\n      jumpi\n        /* \"#utility.yul\":6445:6446   */\n      0x00\n        /* \"#utility.yul\":6442:6443   */\n      dup1\n        /* \"#utility.yul\":6435:6447   */\n      revert\n        /* \"#utility.yul\":6382:6449   */\n    tag_643:\n        /* \"#utility.yul\":6088:6455   */\n      swap3\n      pop\n      swap3\n      swap1\n      pop\n      jump\t// out\n        /* \"#utility.yul\":6460:6619   */\n    tag_581:\n        /* \"#utility.yul\":6527:6547   */\n      dup1\n      calldataload\n        /* \"#utility.yul\":6587:6593   */\n      0xffff\n        /* \"#utility.yul\":6576:6594   */\n      dup2\n      and\n        /* \"#utility.yul\":6566:6595   */\n      dup2\n      eq\n        /* \"#utility.yul\":6556:6613   */\n      tag_645\n      jumpi\n        /* \"#utility.yul\":6609:6610   */\n      0x00\n        /* \"#utility.yul\":6606:6607   */\n      dup1\n        /* \"#utility.yul\":6599:6611   */\n      revert\n        /* \"#utility.yul\":6556:6613   */\n    tag_645:\n        /* \"#utility.yul\":6460:6619   */\n      swap2\n      swap1\n      pop\n      jump\t// out\n        /* \"#utility.yul\":6624:7542   */\n    tag_111:\n        /* \"#utility.yul\":6762:6768   */\n      0x00\n        /* \"#utility.yul\":6770:6776   */\n      dup1\n        /* \"#utility.yul\":6778:6784   */\n      0x00\n        /* \"#utility.yul\":6786:6792   */\n      dup1\n        /* \"#utility.yul\":6794:6800   */\n      0x00\n        /* \"#utility.yul\":6802:6808   */\n      dup1\n        /* \"#utility.yul\":6855:6858   */\n      0x80\n        /* \"#utility.yul\":6843:6852   */\n      dup8\n        /* \"#utility.yul\":6834:6841   */\n      dup10\n        /* \"#utility.yul\":6830:6853   */\n      sub\n        /* \"#utility.yul\":6826:6859   */\n      slt\n        /* \"#utility.yul\":6823:6876   */\n      iszero\n      tag_647\n      jumpi\n        /* \"#utility.yul\":6872:6873   */\n      0x00\n        /* \"#utility.yul\":6869:6870   */\n      dup1\n        /* \"#utility.yul\":6862:6874   */\n      revert\n        /* \"#utility.yul\":6823:6876   */\n    tag_647:\n        /* \"#utility.yul\":6912:6921   */\n      dup7\n        /* \"#utility.yul\":6899:6922   */\n      calldataload\n      sub(shl(0x40, 0x01), 0x01)\n        /* \"#utility.yul\":6982:6984   */\n      dup1\n        /* \"#utility.yul\":6974:6980   */\n      dup3\n        /* \"#utility.yul\":6971:6985   */\n      gt\n        /* \"#utility.yul\":6968:7002   */\n      iszero\n      tag_648\n      jumpi\n        /* \"#utility.yul\":6998:6999   */\n      0x00\n        /* \"#utility.yul\":6995:6996   */\n      dup1\n        /* \"#utility.yul\":6988:7000   */\n      revert\n        /* \"#utility.yul\":6968:7002   */\n    tag_648:\n        /* \"#utility.yul\":7037:7107   */\n      tag_649\n        /* \"#utility.yul\":7099:7106   */\n      dup11\n        /* \"#utility.yul\":7090:7096   */\n      dup4\n        /* \"#utility.yul\":7079:7088   */\n      dup12\n        /* \"#utility.yul\":7075:7097   */\n      add\n        /* \"#utility.yul\":7037:7107   */\n      tag_580\n      jump\t// in\n    tag_649:\n        /* \"#utility.yul\":7126:7134   */\n      swap1\n      swap9\n      pop\n        /* \"#utility.yul\":7011:7107   */\n      swap7\n      pop\n        /* \"#utility.yul\":7214:7216   */\n      0x20\n        /* \"#utility.yul\":7199:7217   */\n      dup10\n      add\n        /* \"#utility.yul\":7186:7218   */\n      calldataload\n      swap2\n      pop\n        /* \"#utility.yul\":7230:7246   */\n      dup1\n      dup3\n      gt\n        /* \"#utility.yul\":7227:7263   */\n      iszero\n      tag_650\n      jumpi\n        /* \"#utility.yul\":7259:7260   */\n      0x00\n        /* \"#utility.yul\":7256:7257   */\n      dup1\n        /* \"#utility.yul\":7249:7261   */\n      revert\n        /* \"#utility.yul\":7227:7263   */\n    tag_650:\n      pop\n        /* \"#utility.yul\":7298:7370   */\n      tag_651\n        /* \"#utility.yul\":7362:7369   */\n      dup10\n        /* \"#utility.yul\":7351:7359   */\n      dup3\n        /* \"#utility.yul\":7340:7349   */\n      dup11\n        /* \"#utility.yul\":7336:7360   */\n      add\n        /* \"#utility.yul\":7298:7370   */\n      tag_580\n      jump\t// in\n    tag_651:\n        /* \"#utility.yul\":7389:7397   */\n      swap1\n      swap6\n      pop\n        /* \"#utility.yul\":7272:7370   */\n      swap4\n      pop\n        /* \"#utility.yul\":7443:7480   */\n      tag_652\n      swap1\n      pop\n        /* \"#utility.yul\":7476:7478   */\n      0x40\n        /* \"#utility.yul\":7461:7479   */\n      dup9\n      add\n        /* \"#utility.yul\":7443:7480   */\n      tag_581\n      jump\t// in\n    tag_652:\n        /* \"#utility.yul\":7433:7480   */\n      swap2\n      pop\n        /* \"#utility.yul\":7499:7536   */\n      tag_653\n        /* \"#utility.yul\":7532:7534   */\n      0x60\n        /* \"#utility.yul\":7521:7530   */\n      dup9\n        /* \"#utility.yul\":7517:7535   */\n      add\n        /* \"#utility.yul\":7499:7536   */\n      tag_581\n      jump\t// in\n    tag_653:\n        /* \"#utility.yul\":7489:7536   */\n      swap1\n      pop\n        /* \"#utility.yul\":6624:7542   */\n      swap3\n      swap6\n      pop\n      swap3\n      swap6\n      pop\n      swap3\n      swap6\n      jump\t// out\n        /* \"#utility.yul\":7973:8079   */\n    tag_582:\n        /* \"#utility.yul\":8053:8054   */\n      0x02\n        /* \"#utility.yul\":8046:8051   */\n      dup2\n        /* \"#utility.yul\":8043:8055   */\n      lt\n        /* \"#utility.yul\":8033:8073   */\n      tag_435\n      jumpi\n        /* \"#utility.yul\":8069:8070   */\n      0x00\n        /* \"#utility.yul\":8066:8067   */\n      dup1\n        /* \"#utility.yul\":8059:8071   */\n      revert\n        /* \"#utility.yul\":8084:8922   */\n    tag_134:\n        /* \"#utility.yul\":8214:8220   */\n      0x00\n        /* \"#utility.yul\":8222:8228   */\n      dup1\n        /* \"#utility.yul\":8230:8236   */\n      0x00\n        /* \"#utility.yul\":8238:8244   */\n      dup1\n        /* \"#utility.yul\":8246:8252   */\n      0x00\n        /* \"#utility.yul\":8299:8302   */\n      0xa0\n        /* \"#utility.yul\":8287:8296   */\n      dup7\n        /* \"#utility.yul\":8278:8285   */\n      dup9\n        /* \"#utility.yul\":8274:8297   */\n      sub\n        /* \"#utility.yul\":8270:8303   */\n      slt\n        /* \"#utility.yul\":8267:8320   */\n      iszero\n      tag_659\n      jumpi\n        /* \"#utility.yul\":8316:8317   */\n      0x00\n        /* \"#utility.yul\":8313:8314   */\n      dup1\n        /* \"#utility.yul\":8306:8318   */\n      revert\n        /* \"#utility.yul\":8267:8320   */\n    tag_659:\n        /* \"#utility.yul\":8355:8364   */\n      dup6\n        /* \"#utility.yul\":8342:8365   */\n      calldataload\n        /* \"#utility.yul\":8374:8405   */\n      tag_660\n        /* \"#utility.yul\":8399:8404   */\n      dup2\n        /* \"#utility.yul\":8374:8405   */\n      tag_579\n      jump\t// in\n    tag_660:\n        /* \"#utility.yul\":8424:8429   */\n      swap5\n      pop\n        /* \"#utility.yul\":8476:8478   */\n      0x20\n        /* \"#utility.yul\":8461:8479   */\n      dup7\n      add\n        /* \"#utility.yul\":8448:8480   */\n      calldataload\n      swap4\n      pop\n        /* \"#utility.yul\":8532:8534   */\n      0x40\n        /* \"#utility.yul\":8517:8535   */\n      dup7\n      add\n        /* \"#utility.yul\":8504:8536   */\n      calldataload\n        /* \"#utility.yul\":8545:8583   */\n      tag_661\n        /* \"#utility.yul\":8504:8536   */\n      dup2\n        /* \"#utility.yul\":8545:8583   */\n      tag_582\n      jump\t// in\n    tag_661:\n        /* \"#utility.yul\":8602:8609   */\n      swap3\n      pop\n        /* \"#utility.yul\":8661:8663   */\n      0x60\n        /* \"#utility.yul\":8646:8664   */\n      dup7\n      add\n        /* \"#utility.yul\":8633:8665   */\n      calldataload\n        /* \"#utility.yul\":8674:8707   */\n      tag_662\n        /* \"#utility.yul\":8633:8665   */\n      dup2\n        /* \"#utility.yul\":8674:8707   */\n      tag_579\n      jump\t// in\n    tag_662:\n        /* \"#utility.yul\":8726:8733   */\n      swap2\n      pop\n        /* \"#utility.yul\":8784:8787   */\n      0x80\n        /* \"#utility.yul\":8769:8788   */\n      dup7\n      add\n        /* \"#utility.yul\":8756:8789   */\n      calldataload\n      sub(shl(0x40, 0x01), 0x01)\n        /* \"#utility.yul\":8801:8831   */\n      dup2\n      gt\n        /* \"#utility.yul\":8798:8848   */\n      iszero\n      tag_663\n      jumpi\n        /* \"#utility.yul\":8844:8845   */\n      0x00\n        /* \"#utility.yul\":8841:8842   */\n      dup1\n        /* \"#utility.yul\":8834:8846   */\n      revert\n        /* \"#utility.yul\":8798:8848   */\n    tag_663:\n        /* \"#utility.yul\":8867:8916   */\n      tag_664\n        /* \"#utility.yul\":8908:8915   */\n      dup9\n        /* \"#utility.yul\":8899:8905   */\n      dup3\n        /* \"#utility.yul\":8888:8897   */\n      dup10\n        /* \"#utility.yul\":8884:8906   */\n      add\n        /* \"#utility.yul\":8867:8916   */\n      tag_576\n      jump\t// in\n    tag_664:\n        /* \"#utility.yul\":8857:8916   */\n      swap2\n      pop\n      pop\n        /* \"#utility.yul\":8084:8922   */\n      swap3\n      swap6\n      pop\n      swap3\n      swap6\n      swap1\n      swap4\n      pop\n      jump\t// out\n        /* \"#utility.yul\":9135:9522   */\n    tag_152:\n        /* \"#utility.yul\":9222:9228   */\n      0x00\n        /* \"#utility.yul\":9275:9277   */\n      0x20\n        /* \"#utility.yul\":9263:9272   */\n      dup3\n        /* \"#utility.yul\":9254:9261   */\n      dup5\n        /* \"#utility.yul\":9250:9273   */\n      sub\n        /* \"#utility.yul\":9246:9278   */\n      slt\n        /* \"#utility.yul\":9243:9295   */\n      iszero\n      tag_667\n      jumpi\n        /* \"#utility.yul\":9291:9292   */\n      0x00\n        /* \"#utility.yul\":9288:9289   */\n      dup1\n        /* \"#utility.yul\":9281:9293   */\n      revert\n        /* \"#utility.yul\":9243:9295   */\n    tag_667:\n        /* \"#utility.yul\":9331:9340   */\n      dup2\n        /* \"#utility.yul\":9318:9341   */\n      calldataload\n      sub(shl(0x40, 0x01), 0x01)\n        /* \"#utility.yul\":9356:9362   */\n      dup2\n        /* \"#utility.yul\":9353:9383   */\n      gt\n        /* \"#utility.yul\":9350:9400   */\n      iszero\n      tag_668\n      jumpi\n        /* \"#utility.yul\":9396:9397   */\n      0x00\n        /* \"#utility.yul\":9393:9394   */\n      dup1\n        /* \"#utility.yul\":9386:9398   */\n      revert\n        /* \"#utility.yul\":9350:9400   */\n    tag_668:\n        /* \"#utility.yul\":9419:9441   */\n      dup3\n      add\n        /* \"#utility.yul\":9475:9477   */\n      0x60\n        /* \"#utility.yul\":9457:9473   */\n      dup2\n      dup6\n      sub\n        /* \"#utility.yul\":9453:9478   */\n      slt\n        /* \"#utility.yul\":9450:9495   */\n      iszero\n      tag_615\n      jumpi\n        /* \"#utility.yul\":9491:9492   */\n      0x00\n        /* \"#utility.yul\":9488:9489   */\n      dup1\n        /* \"#utility.yul\":9481:9493   */\n      revert\n        /* \"#utility.yul\":9527:9915   */\n    tag_179:\n        /* \"#utility.yul\":9595:9601   */\n      0x00\n        /* \"#utility.yul\":9603:9609   */\n      dup1\n        /* \"#utility.yul\":9656:9658   */\n      0x40\n        /* \"#utility.yul\":9644:9653   */\n      dup4\n        /* \"#utility.yul\":9635:9642   */\n      dup6\n        /* \"#utility.yul\":9631:9654   */\n      sub\n        /* \"#utility.yul\":9627:9659   */\n      slt\n        /* \"#utility.yul\":9624:9676   */\n      iszero\n      tag_671\n      jumpi\n        /* \"#utility.yul\":9672:9673   */\n      0x00\n        /* \"#utility.yul\":9669:9670   */\n      dup1\n        /* \"#utility.yul\":9662:9674   */\n      revert\n        /* \"#utility.yul\":9624:9676   */\n    tag_671:\n        /* \"#utility.yul\":9711:9720   */\n      dup3\n        /* \"#utility.yul\":9698:9721   */\n      calldataload\n        /* \"#utility.yul\":9730:9761   */\n      tag_672\n        /* \"#utility.yul\":9755:9760   */\n      dup2\n        /* \"#utility.yul\":9730:9761   */\n      tag_579\n      jump\t// in\n    tag_672:\n        /* \"#utility.yul\":9780:9785   */\n      swap2\n      pop\n        /* \"#utility.yul\":9837:9839   */\n      0x20\n        /* \"#utility.yul\":9822:9840   */\n      dup4\n      add\n        /* \"#utility.yul\":9809:9841   */\n      calldataload\n        /* \"#utility.yul\":9850:9883   */\n      tag_673\n        /* \"#utility.yul\":9809:9841   */\n      dup2\n        /* \"#utility.yul\":9850:9883   */\n      tag_579\n      jump\t// in\n    tag_673:\n        /* \"#utility.yul\":9902:9909   */\n      dup1\n        /* \"#utility.yul\":9892:9909   */\n      swap2\n      pop\n      pop\n        /* \"#utility.yul\":9527:9915   */\n      swap3\n      pop\n      swap3\n      swap1\n      pop\n      jump\t// out\n        /* \"#utility.yul\":10250:10434   */\n    tag_194:\n        /* \"#utility.yul\":10320:10326   */\n      0x00\n        /* \"#utility.yul\":10373:10375   */\n      0x20\n        /* \"#utility.yul\":10361:10370   */\n      dup3\n        /* \"#utility.yul\":10352:10359   */\n      dup5\n        /* \"#utility.yul\":10348:10371   */\n      sub\n        /* \"#utility.yul\":10344:10376   */\n      slt\n        /* \"#utility.yul\":10341:10393   */\n      iszero\n      tag_676\n      jumpi\n        /* \"#utility.yul\":10389:10390   */\n      0x00\n        /* \"#utility.yul\":10386:10387   */\n      dup1\n        /* \"#utility.yul\":10379:10391   */\n      revert\n        /* \"#utility.yul\":10341:10393   */\n    tag_676:\n      pop\n        /* \"#utility.yul\":10412:10428   */\n      mload\n      swap2\n        /* \"#utility.yul\":10250:10434   */\n      swap1\n      pop\n      jump\t// out\n        /* \"#utility.yul\":10781:10962   */\n    tag_583:\n        /* \"#utility.yul\":10839:10843   */\n      0x00\n      sub(shl(0x40, 0x01), 0x01)\n        /* \"#utility.yul\":10864:10870   */\n      dup3\n        /* \"#utility.yul\":10861:10891   */\n      gt\n        /* \"#utility.yul\":10858:10914   */\n      iszero\n      tag_680\n      jumpi\n        /* \"#utility.yul\":10894:10912   */\n      tag_680\n      tag_572\n      jump\t// in\n    tag_680:\n      pop\n        /* \"#utility.yul\":10939:10940   */\n      0x05\n        /* \"#utility.yul\":10935:10949   */\n      shl\n        /* \"#utility.yul\":10951:10955   */\n      0x20\n        /* \"#utility.yul\":10931:10956   */\n      add\n      swap1\n        /* \"#utility.yul\":10781:10962   */\n      jump\t// out\n        /* \"#utility.yul\":10967:11115   */\n    tag_584:\n        /* \"#utility.yul\":11051:11064   */\n      dup1\n      mload\n        /* \"#utility.yul\":11073:11109   */\n      tag_645\n        /* \"#utility.yul\":11051:11064   */\n      dup2\n        /* \"#utility.yul\":11073:11109   */\n      tag_582\n      jump\t// in\n        /* \"#utility.yul\":11120:13126   */\n    tag_199:\n        /* \"#utility.yul\":11216:11222   */\n      0x00\n        /* \"#utility.yul\":11247:11249   */\n      0x20\n        /* \"#utility.yul\":11290:11292   */\n      dup1\n        /* \"#utility.yul\":11278:11287   */\n      dup4\n        /* \"#utility.yul\":11269:11276   */\n      dup6\n        /* \"#utility.yul\":11265:11288   */\n      sub\n        /* \"#utility.yul\":11261:11293   */\n      slt\n        /* \"#utility.yul\":11258:11310   */\n      iszero\n      tag_684\n      jumpi\n        /* \"#utility.yul\":11306:11307   */\n      0x00\n        /* \"#utility.yul\":11303:11304   */\n      dup1\n        /* \"#utility.yul\":11296:11308   */\n      revert\n        /* \"#utility.yul\":11258:11310   */\n    tag_684:\n        /* \"#utility.yul\":11339:11348   */\n      dup3\n        /* \"#utility.yul\":11333:11349   */\n      mload\n      sub(shl(0x40, 0x01), 0x01)\n        /* \"#utility.yul\":11409:11411   */\n      dup1\n        /* \"#utility.yul\":11401:11407   */\n      dup3\n        /* \"#utility.yul\":11398:11412   */\n      gt\n        /* \"#utility.yul\":11395:11429   */\n      iszero\n      tag_685\n      jumpi\n        /* \"#utility.yul\":11425:11426   */\n      0x00\n        /* \"#utility.yul\":11422:11423   */\n      dup1\n        /* \"#utility.yul\":11415:11427   */\n      revert\n        /* \"#utility.yul\":11395:11429   */\n    tag_685:\n        /* \"#utility.yul\":11448:11470   */\n      swap1\n      dup5\n      add\n      swap1\n        /* \"#utility.yul\":11504:11508   */\n      0x60\n        /* \"#utility.yul\":11486:11502   */\n      dup3\n      dup8\n      sub\n        /* \"#utility.yul\":11482:11509   */\n      slt\n        /* \"#utility.yul\":11479:11526   */\n      iszero\n      tag_686\n      jumpi\n        /* \"#utility.yul\":11522:11523   */\n      0x00\n        /* \"#utility.yul\":11519:11520   */\n      dup1\n        /* \"#utility.yul\":11512:11524   */\n      revert\n        /* \"#utility.yul\":11479:11526   */\n    tag_686:\n        /* \"#utility.yul\":11548:11570   */\n      tag_687\n      tag_573\n      jump\t// in\n    tag_687:\n        /* \"#utility.yul\":11601:11603   */\n      dup3\n        /* \"#utility.yul\":11595:11604   */\n      mload\n        /* \"#utility.yul\":11629:11631   */\n      dup3\n        /* \"#utility.yul\":11619:11627   */\n      dup2\n        /* \"#utility.yul\":11616:11632   */\n      gt\n        /* \"#utility.yul\":11613:11649   */\n      iszero\n      tag_688\n      jumpi\n        /* \"#utility.yul\":11645:11646   */\n      0x00\n        /* \"#utility.yul\":11642:11643   */\n      dup1\n        /* \"#utility.yul\":11635:11647   */\n      revert\n        /* \"#utility.yul\":11613:11649   */\n    tag_688:\n        /* \"#utility.yul\":11668:11685   */\n      dup4\n      add\n        /* \"#utility.yul\":11716:11720   */\n      0x1f\n        /* \"#utility.yul\":11708:11721   */\n      dup2\n      add\n        /* \"#utility.yul\":11704:11731   */\n      dup9\n      sgt\n        /* \"#utility.yul\":11694:11749   */\n      tag_689\n      jumpi\n        /* \"#utility.yul\":11745:11746   */\n      0x00\n        /* \"#utility.yul\":11742:11743   */\n      dup1\n        /* \"#utility.yul\":11735:11747   */\n      revert\n        /* \"#utility.yul\":11694:11749   */\n    tag_689:\n        /* \"#utility.yul\":11774:11776   */\n      dup1\n        /* \"#utility.yul\":11768:11777   */\n      mload\n        /* \"#utility.yul\":11797:11855   */\n      tag_690\n        /* \"#utility.yul\":11813:11854   */\n      tag_602\n        /* \"#utility.yul\":11851:11853   */\n      dup3\n        /* \"#utility.yul\":11813:11854   */\n      tag_583\n      jump\t// in\n        /* \"#utility.yul\":11797:11855   */\n    tag_690:\n        /* \"#utility.yul\":11889:11904   */\n      dup2\n      dup2\n      mstore\n        /* \"#utility.yul\":11971:11972   */\n      0x05\n        /* \"#utility.yul\":11967:11977   */\n      swap2\n      swap1\n      swap2\n      shl\n        /* \"#utility.yul\":11959:11978   */\n      dup3\n      add\n        /* \"#utility.yul\":11955:11983   */\n      dup7\n      add\n      swap1\n        /* \"#utility.yul\":11920:11932   */\n      dup7\n      dup2\n      add\n      swap1\n        /* \"#utility.yul\":11995:12014   */\n      dup11\n      dup4\n      gt\n        /* \"#utility.yul\":11992:12031   */\n      iszero\n      tag_692\n      jumpi\n        /* \"#utility.yul\":12027:12028   */\n      0x00\n        /* \"#utility.yul\":12024:12025   */\n      dup1\n        /* \"#utility.yul\":12017:12029   */\n      revert\n        /* \"#utility.yul\":11992:12031   */\n    tag_692:\n        /* \"#utility.yul\":12059:12061   */\n      dup8\n        /* \"#utility.yul\":12055:12057   */\n      dup5\n        /* \"#utility.yul\":12051:12062   */\n      add\n        /* \"#utility.yul\":12071:12936   */\n    tag_693:\n        /* \"#utility.yul\":12087:12093   */\n      dup4\n        /* \"#utility.yul\":12082:12085   */\n      dup2\n        /* \"#utility.yul\":12079:12094   */\n      lt\n        /* \"#utility.yul\":12071:12936   */\n      iszero\n      tag_695\n      jumpi\n        /* \"#utility.yul\":12166:12169   */\n      dup1\n        /* \"#utility.yul\":12160:12170   */\n      mload\n        /* \"#utility.yul\":12202:12204   */\n      dup8\n        /* \"#utility.yul\":12189:12200   */\n      dup2\n        /* \"#utility.yul\":12186:12205   */\n      gt\n        /* \"#utility.yul\":12183:12292   */\n      iszero\n      tag_696\n      jumpi\n        /* \"#utility.yul\":12246:12247   */\n      0x00\n        /* \"#utility.yul\":12275:12277   */\n      dup1\n        /* \"#utility.yul\":12271:12273   */\n      dup2\n        /* \"#utility.yul\":12264:12278   */\n      revert\n        /* \"#utility.yul\":12183:12292   */\n    tag_696:\n        /* \"#utility.yul\":12315:12335   */\n      dup6\n      add\n        /* \"#utility.yul\":12370:12372   */\n      0x3f\n        /* \"#utility.yul\":12362:12373   */\n      dup2\n      add\n        /* \"#utility.yul\":12358:12383   */\n      dup14\n      sgt\n        /* \"#utility.yul\":12348:12471   */\n      tag_697\n      jumpi\n        /* \"#utility.yul\":12425:12426   */\n      0x00\n        /* \"#utility.yul\":12454:12456   */\n      dup1\n        /* \"#utility.yul\":12450:12452   */\n      dup2\n        /* \"#utility.yul\":12443:12457   */\n      revert\n        /* \"#utility.yul\":12348:12471   */\n    tag_697:\n        /* \"#utility.yul\":12508:12510   */\n      dup10\n        /* \"#utility.yul\":12504:12506   */\n      dup2\n        /* \"#utility.yul\":12500:12511   */\n      add\n        /* \"#utility.yul\":12494:12512   */\n      mload\n        /* \"#utility.yul\":12536:12538   */\n      0x40\n        /* \"#utility.yul\":12564:12612   */\n      tag_698\n        /* \"#utility.yul\":12580:12611   */\n      tag_602\n        /* \"#utility.yul\":12608:12610   */\n      dup4\n        /* \"#utility.yul\":12580:12611   */\n      tag_575\n      jump\t// in\n        /* \"#utility.yul\":12564:12612   */\n    tag_698:\n        /* \"#utility.yul\":12639:12641   */\n      dup3\n        /* \"#utility.yul\":12632:12637   */\n      dup2\n        /* \"#utility.yul\":12625:12642   */\n      mstore\n        /* \"#utility.yul\":12684:12691   */\n      dup16\n        /* \"#utility.yul\":12678:12681   */\n      dup3\n        /* \"#utility.yul\":12673:12675   */\n      dup5\n        /* \"#utility.yul\":12669:12671   */\n      dup7\n        /* \"#utility.yul\":12665:12676   */\n      add\n        /* \"#utility.yul\":12661:12682   */\n      add\n        /* \"#utility.yul\":12658:12692   */\n      gt\n        /* \"#utility.yul\":12655:12782   */\n      iszero\n      tag_700\n      jumpi\n        /* \"#utility.yul\":12734:12735   */\n      0x00\n        /* \"#utility.yul\":12764:12767   */\n      dup1\n        /* \"#utility.yul\":12759:12762   */\n      dup2\n        /* \"#utility.yul\":12752:12768   */\n      revert\n        /* \"#utility.yul\":12655:12782   */\n    tag_700:\n        /* \"#utility.yul\":12795:12863   */\n      tag_701\n        /* \"#utility.yul\":12860:12862   */\n      dup4\n        /* \"#utility.yul\":12855:12857   */\n      dup15\n        /* \"#utility.yul\":12848:12853   */\n      dup4\n        /* \"#utility.yul\":12844:12858   */\n      add\n        /* \"#utility.yul\":12838:12841   */\n      dup5\n        /* \"#utility.yul\":12834:12836   */\n      dup8\n        /* \"#utility.yul\":12830:12842   */\n      add\n        /* \"#utility.yul\":12795:12863   */\n      tag_577\n      jump\t// in\n    tag_701:\n        /* \"#utility.yul\":12876:12894   */\n      dup7\n      mstore\n      pop\n      pop\n      pop\n        /* \"#utility.yul\":12914:12926   */\n      swap2\n      dup9\n      add\n      swap2\n        /* \"#utility.yul\":12104:12116   */\n      dup9\n      add\n        /* \"#utility.yul\":12071:12936   */\n      jump(tag_693)\n    tag_695:\n      pop\n        /* \"#utility.yul\":12945:12965   */\n      dup5\n      mstore\n      pop\n      pop\n      pop\n        /* \"#utility.yul\":13003:13014   */\n      dup3\n      dup5\n      add\n        /* \"#utility.yul\":12997:13015   */\n      mload\n        /* \"#utility.yul\":12981:12995   */\n      dup5\n      dup3\n      add\n        /* \"#utility.yul\":12974:13016   */\n      mstore\n        /* \"#utility.yul\":13048:13095   */\n      tag_702\n        /* \"#utility.yul\":13091:13093   */\n      0x40\n        /* \"#utility.yul\":13083:13094   */\n      dup5\n      add\n        /* \"#utility.yul\":13048:13095   */\n      tag_584\n      jump\t// in\n    tag_702:\n        /* \"#utility.yul\":13043:13045   */\n      0x40\n        /* \"#utility.yul\":13032:13046   */\n      dup3\n      add\n        /* \"#utility.yul\":13025:13096   */\n      mstore\n        /* \"#utility.yul\":13036:13041   */\n      swap7\n        /* \"#utility.yul\":11120:13126   */\n      swap6\n      pop\n      pop\n      pop\n      pop\n      pop\n      pop\n      jump\t// out\n        /* \"#utility.yul\":13131:13258   */\n    tag_585:\n        /* \"#utility.yul\":13192:13202   */\n      0x4e487b71\n        /* \"#utility.yul\":13187:13190   */\n      0xe0\n        /* \"#utility.yul\":13183:13203   */\n      shl\n        /* \"#utility.yul\":13180:13181   */\n      0x00\n        /* \"#utility.yul\":13173:13204   */\n      mstore\n        /* \"#utility.yul\":13223:13227   */\n      0x11\n        /* \"#utility.yul\":13220:13221   */\n      0x04\n        /* \"#utility.yul\":13213:13228   */\n      mstore\n        /* \"#utility.yul\":13247:13251   */\n      0x24\n        /* \"#utility.yul\":13244:13245   */\n      0x00\n        /* \"#utility.yul\":13237:13252   */\n      revert\n        /* \"#utility.yul\":13263:13431   */\n    tag_202:\n        /* \"#utility.yul\":13336:13345   */\n      dup1\n      dup3\n      mul\n        /* \"#utility.yul\":13367:13376   */\n      dup2\n      iszero\n        /* \"#utility.yul\":13384:13399   */\n      dup3\n      dup3\n      div\n        /* \"#utility.yul\":13378:13400   */\n      dup5\n      eq\n        /* \"#utility.yul\":13364:13401   */\n      or\n        /* \"#utility.yul\":13354:13425   */\n      tag_258\n      jumpi\n        /* \"#utility.yul\":13405:13423   */\n      tag_258\n      tag_585\n      jump\t// in\n        /* \"#utility.yul\":13436:13653   */\n    tag_204:\n        /* \"#utility.yul\":13476:13477   */\n      0x00\n        /* \"#utility.yul\":13502:13503   */\n      dup3\n        /* \"#utility.yul\":13492:13624   */\n      tag_708\n      jumpi\n        /* \"#utility.yul\":13546:13556   */\n      0x4e487b71\n        /* \"#utility.yul\":13541:13544   */\n      0xe0\n        /* \"#utility.yul\":13537:13557   */\n      shl\n        /* \"#utility.yul\":13534:13535   */\n      0x00\n        /* \"#utility.yul\":13527:13558   */\n      mstore\n        /* \"#utility.yul\":13581:13585   */\n      0x12\n        /* \"#utility.yul\":13578:13579   */\n      0x04\n        /* \"#utility.yul\":13571:13586   */\n      mstore\n        /* \"#utility.yul\":13609:13613   */\n      0x24\n        /* \"#utility.yul\":13606:13607   */\n      0x00\n        /* \"#utility.yul\":13599:13614   */\n      revert\n        /* \"#utility.yul\":13492:13624   */\n    tag_708:\n      pop\n        /* \"#utility.yul\":13638:13647   */\n      div\n      swap1\n        /* \"#utility.yul\":13436:13653   */\n      jump\t// out\n        /* \"#utility.yul\":13658:13909   */\n    tag_208:\n        /* \"#utility.yul\":13728:13734   */\n      0x00\n        /* \"#utility.yul\":13781:13783   */\n      0x20\n        /* \"#utility.yul\":13769:13778   */\n      dup3\n        /* \"#utility.yul\":13760:13767   */\n      dup5\n        /* \"#utility.yul\":13756:13779   */\n      sub\n        /* \"#utility.yul\":13752:13784   */\n      slt\n        /* \"#utility.yul\":13749:13801   */\n      iszero\n      tag_710\n      jumpi\n        /* \"#utility.yul\":13797:13798   */\n      0x00\n        /* \"#utility.yul\":13794:13795   */\n      dup1\n        /* \"#utility.yul\":13787:13799   */\n      revert\n        /* \"#utility.yul\":13749:13801   */\n    tag_710:\n        /* \"#utility.yul\":13829:13838   */\n      dup2\n        /* \"#utility.yul\":13823:13839   */\n      mload\n        /* \"#utility.yul\":13848:13879   */\n      tag_615\n        /* \"#utility.yul\":13873:13878   */\n      dup2\n        /* \"#utility.yul\":13848:13879   */\n      tag_579\n      jump\t// in\n        /* \"#utility.yul\":13914:14041   */\n    tag_214:\n        /* \"#utility.yul\":13975:13985   */\n      0x4e487b71\n        /* \"#utility.yul\":13970:13973   */\n      0xe0\n        /* \"#utility.yul\":13966:13986   */\n      shl\n        /* \"#utility.yul\":13963:13964   */\n      0x00\n        /* \"#utility.yul\":13956:13987   */\n      mstore\n        /* \"#utility.yul\":14006:14010   */\n      0x32\n        /* \"#utility.yul\":14003:14004   */\n      0x04\n        /* \"#utility.yul\":13996:14011   */\n      mstore\n        /* \"#utility.yul\":14030:14034   */\n      0x24\n        /* \"#utility.yul\":14027:14028   */\n      0x00\n        /* \"#utility.yul\":14020:14035   */\n      revert\n        /* \"#utility.yul\":14046:14173   */\n    tag_353:\n        /* \"#utility.yul\":14107:14117   */\n      0x4e487b71\n        /* \"#utility.yul\":14102:14105   */\n      0xe0\n        /* \"#utility.yul\":14098:14118   */\n      shl\n        /* \"#utility.yul\":14095:14096   */\n      0x00\n        /* \"#utility.yul\":14088:14119   */\n      mstore\n        /* \"#utility.yul\":14138:14142   */\n      0x21\n        /* \"#utility.yul\":14135:14136   */\n      0x04\n        /* \"#utility.yul\":14128:14143   */\n      mstore\n        /* \"#utility.yul\":14162:14166   */\n      0x24\n        /* \"#utility.yul\":14159:14160   */\n      0x00\n        /* \"#utility.yul\":14152:14167   */\n      revert\n        /* \"#utility.yul\":14178:14413   */\n    tag_586:\n        /* \"#utility.yul\":14257:14258   */\n      0x02\n        /* \"#utility.yul\":14250:14255   */\n      dup2\n        /* \"#utility.yul\":14247:14259   */\n      lt\n        /* \"#utility.yul\":14237:14380   */\n      tag_715\n      jumpi\n        /* \"#utility.yul\":14302:14312   */\n      0x4e487b71\n        /* \"#utility.yul\":14297:14300   */\n      0xe0\n        /* \"#utility.yul\":14293:14313   */\n      shl\n        /* \"#utility.yul\":14290:14291   */\n      0x00\n        /* \"#utility.yul\":14283:14314   */\n      mstore\n        /* \"#utility.yul\":14337:14341   */\n      0x21\n        /* \"#utility.yul\":14334:14335   */\n      0x04\n        /* \"#utility.yul\":14327:14342   */\n      mstore\n        /* \"#utility.yul\":14365:14369   */\n      0x24\n        /* \"#utility.yul\":14362:14363   */\n      0x00\n        /* \"#utility.yul\":14355:14370   */\n      revert\n        /* \"#utility.yul\":14237:14380   */\n    tag_715:\n        /* \"#utility.yul\":14389:14407   */\n      swap1\n      mstore\n        /* \"#utility.yul\":14178:14413   */\n      jump\t// out\n        /* \"#utility.yul\":14418:15020   */\n    tag_225:\n      sub(shl(0xa0, 0x01), 0x01)\n        /* \"#utility.yul\":14739:14754   */\n      dup7\n      dup2\n      and\n        /* \"#utility.yul\":14721:14755   */\n      dup3\n      mstore\n        /* \"#utility.yul\":14786:14788   */\n      0x20\n        /* \"#utility.yul\":14771:14789   */\n      dup3\n      add\n        /* \"#utility.yul\":14764:14798   */\n      dup7\n      swap1\n      mstore\n        /* \"#utility.yul\":14664:14668   */\n      0x00\n      swap1\n        /* \"#utility.yul\":14807:14858   */\n      tag_717\n        /* \"#utility.yul\":14854:14856   */\n      0x40\n        /* \"#utility.yul\":14839:14857   */\n      dup5\n      add\n        /* \"#utility.yul\":14831:14837   */\n      dup8\n        /* \"#utility.yul\":14807:14858   */\n      tag_586\n      jump\t// in\n    tag_717:\n        /* \"#utility.yul\":14906:14908   */\n      dup1\n        /* \"#utility.yul\":14898:14904   */\n      dup6\n        /* \"#utility.yul\":14894:14909   */\n      and\n        /* \"#utility.yul\":14889:14891   */\n      0x60\n        /* \"#utility.yul\":14878:14887   */\n      dup5\n        /* \"#utility.yul\":14874:14892   */\n      add\n        /* \"#utility.yul\":14867:14910   */\n      mstore\n      pop\n        /* \"#utility.yul\":14947:14950   */\n      0xa0\n        /* \"#utility.yul\":14941:14944   */\n      0x80\n        /* \"#utility.yul\":14930:14939   */\n      dup4\n        /* \"#utility.yul\":14926:14945   */\n      add\n        /* \"#utility.yul\":14919:14951   */\n      mstore\n        /* \"#utility.yul\":14968:15014   */\n      tag_718\n        /* \"#utility.yul\":15009:15012   */\n      0xa0\n        /* \"#utility.yul\":14998:15007   */\n      dup4\n        /* \"#utility.yul\":14994:15013   */\n      add\n        /* \"#utility.yul\":14986:14992   */\n      dup5\n        /* \"#utility.yul\":14968:15014   */\n      tag_578\n      jump\t// in\n    tag_718:\n        /* \"#utility.yul\":14960:15014   */\n      swap8\n        /* \"#utility.yul\":14418:15020   */\n      swap7\n      pop\n      pop\n      pop\n      pop\n      pop\n      pop\n      pop\n      jump\t// out\n        /* \"#utility.yul\":15025:15150   */\n    tag_234:\n        /* \"#utility.yul\":15090:15099   */\n      dup1\n      dup3\n      add\n        /* \"#utility.yul\":15111:15121   */\n      dup1\n      dup3\n      gt\n        /* \"#utility.yul\":15108:15144   */\n      iszero\n      tag_258\n      jumpi\n        /* \"#utility.yul\":15124:15142   */\n      tag_258\n      tag_585\n      jump\t// in\n        /* \"#utility.yul\":15155:15290   */\n    tag_236:\n        /* \"#utility.yul\":15194:15197   */\n      0x00\n        /* \"#utility.yul\":15215:15232   */\n      0x01\n      dup3\n      add\n        /* \"#utility.yul\":15212:15255   */\n      tag_724\n      jumpi\n        /* \"#utility.yul\":15235:15253   */\n      tag_724\n      tag_585\n      jump\t// in\n    tag_724:\n      pop\n        /* \"#utility.yul\":15282:15283   */\n      0x01\n        /* \"#utility.yul\":15271:15284   */\n      add\n      swap1\n        /* \"#utility.yul\":15155:15290   */\n      jump\t// out\n        /* \"#utility.yul\":15295:15423   */\n    tag_243:\n        /* \"#utility.yul\":15362:15371   */\n      dup2\n      dup2\n      sub\n        /* \"#utility.yul\":15383:15394   */\n      dup2\n      dup2\n      gt\n        /* \"#utility.yul\":15380:15417   */\n      iszero\n      tag_258\n      jumpi\n        /* \"#utility.yul\":15397:15415   */\n      tag_258\n      tag_585\n      jump\t// in\n        /* \"#utility.yul\":15707:15984   */\n    tag_250:\n        /* \"#utility.yul\":15774:15780   */\n      0x00\n        /* \"#utility.yul\":15827:15829   */\n      0x20\n        /* \"#utility.yul\":15815:15824   */\n      dup3\n        /* \"#utility.yul\":15806:15813   */\n      dup5\n        /* \"#utility.yul\":15802:15825   */\n      sub\n        /* \"#utility.yul\":15798:15830   */\n      slt\n        /* \"#utility.yul\":15795:15847   */\n      iszero\n      tag_730\n      jumpi\n        /* \"#utility.yul\":15843:15844   */\n      0x00\n        /* \"#utility.yul\":15840:15841   */\n      dup1\n        /* \"#utility.yul\":15833:15845   */\n      revert\n        /* \"#utility.yul\":15795:15847   */\n    tag_730:\n        /* \"#utility.yul\":15875:15884   */\n      dup2\n        /* \"#utility.yul\":15869:15885   */\n      mload\n        /* \"#utility.yul\":15928:15933   */\n      dup1\n        /* \"#utility.yul\":15921:15934   */\n      iszero\n        /* \"#utility.yul\":15914:15935   */\n      iszero\n        /* \"#utility.yul\":15907:15912   */\n      dup2\n        /* \"#utility.yul\":15904:15936   */\n      eq\n        /* \"#utility.yul\":15894:15954   */\n      tag_615\n      jumpi\n        /* \"#utility.yul\":15950:15951   */\n      0x00\n        /* \"#utility.yul\":15947:15948   */\n      dup1\n        /* \"#utility.yul\":15940:15952   */\n      revert\n        /* \"#utility.yul\":15989:16369   */\n    tag_253:\n        /* \"#utility.yul\":16068:16069   */\n      0x01\n        /* \"#utility.yul\":16064:16076   */\n      dup2\n      dup2\n      shr\n      swap1\n        /* \"#utility.yul\":16111:16123   */\n      dup3\n      and\n      dup1\n        /* \"#utility.yul\":16132:16193   */\n      tag_733\n      jumpi\n        /* \"#utility.yul\":16186:16190   */\n      0x7f\n        /* \"#utility.yul\":16178:16184   */\n      dup3\n        /* \"#utility.yul\":16174:16191   */\n      and\n        /* \"#utility.yul\":16164:16191   */\n      swap2\n      pop\n        /* \"#utility.yul\":16132:16193   */\n    tag_733:\n        /* \"#utility.yul\":16239:16241   */\n      0x20\n        /* \"#utility.yul\":16231:16237   */\n      dup3\n        /* \"#utility.yul\":16228:16242   */\n      lt\n        /* \"#utility.yul\":16208:16226   */\n      dup2\n        /* \"#utility.yul\":16205:16243   */\n      sub\n        /* \"#utility.yul\":16202:16363   */\n      tag_734\n      jumpi\n        /* \"#utility.yul\":16285:16295   */\n      0x4e487b71\n        /* \"#utility.yul\":16280:16283   */\n      0xe0\n        /* \"#utility.yul\":16276:16296   */\n      shl\n        /* \"#utility.yul\":16273:16274   */\n      0x00\n        /* \"#utility.yul\":16266:16297   */\n      mstore\n        /* \"#utility.yul\":16320:16324   */\n      0x22\n        /* \"#utility.yul\":16317:16318   */\n      0x04\n        /* \"#utility.yul\":16310:16325   */\n      mstore\n        /* \"#utility.yul\":16348:16352   */\n      0x24\n        /* \"#utility.yul\":16345:16346   */\n      0x00\n        /* \"#utility.yul\":16338:16353   */\n      revert\n        /* \"#utility.yul\":16202:16363   */\n    tag_734:\n      pop\n        /* \"#utility.yul\":15989:16369   */\n      swap2\n      swap1\n      pop\n      jump\t// out\n        /* \"#utility.yul\":18741:19800   */\n    tag_343:\n        /* \"#utility.yul\":19029:19031   */\n      0x40\n        /* \"#utility.yul\":19041:19062   */\n      dup1\n      dup3\n      mstore\n        /* \"#utility.yul\":19014:19032   */\n      dup2\n      add\n        /* \"#utility.yul\":19097:19119   */\n      dup5\n      swap1\n      mstore\n        /* \"#utility.yul\":18981:18985   */\n      0x00\n        /* \"#utility.yul\":19176:19182   */\n      dup6\n        /* \"#utility.yul\":19150:19152   */\n      0x60\n        /* \"#utility.yul\":19135:19153   */\n      dup4\n      add\n        /* \"#utility.yul\":18981:18985   */\n      dup3\n        /* \"#utility.yul\":19210:19514   */\n    tag_743:\n        /* \"#utility.yul\":19224:19230   */\n      dup8\n        /* \"#utility.yul\":19221:19222   */\n      dup2\n        /* \"#utility.yul\":19218:19231   */\n      lt\n        /* \"#utility.yul\":19210:19514   */\n      iszero\n      tag_745\n      jumpi\n        /* \"#utility.yul\":19299:19305   */\n      dup3\n        /* \"#utility.yul\":19286:19306   */\n      calldataload\n        /* \"#utility.yul\":19319:19350   */\n      tag_746\n        /* \"#utility.yul\":19344:19349   */\n      dup2\n        /* \"#utility.yul\":19319:19350   */\n      tag_579\n      jump\t// in\n    tag_746:\n      sub(shl(0xa0, 0x01), 0x01)\n        /* \"#utility.yul\":19375:19406   */\n      and\n        /* \"#utility.yul\":19363:19407   */\n      dup3\n      mstore\n        /* \"#utility.yul\":19430:19434   */\n      0x20\n        /* \"#utility.yul\":19489:19504   */\n      swap3\n      dup4\n      add\n      swap3\n        /* \"#utility.yul\":19454:19466   */\n      swap1\n      swap2\n      add\n      swap1\n        /* \"#utility.yul\":19403:19404   */\n      0x01\n        /* \"#utility.yul\":19239:19248   */\n      add\n        /* \"#utility.yul\":19210:19514   */\n      jump(tag_743)\n    tag_745:\n      pop\n        /* \"#utility.yul\":19552:19571   */\n      dup4\n      dup2\n      sub\n        /* \"#utility.yul\":19545:19549   */\n      0x20\n        /* \"#utility.yul\":19530:19550   */\n      dup6\n      add\n        /* \"#utility.yul\":19523:19572   */\n      mstore\n        /* \"#utility.yul\":19581:19600   */\n      dup5\n      dup2\n      mstore\n      sub(shl(0xfb, 0x01), 0x01)\n        /* \"#utility.yul\":19612:19643   */\n      dup6\n      gt\n        /* \"#utility.yul\":19609:19660   */\n      iszero\n      tag_747\n      jumpi\n        /* \"#utility.yul\":19656:19657   */\n      0x00\n        /* \"#utility.yul\":19653:19654   */\n      dup1\n        /* \"#utility.yul\":19646:19658   */\n      revert\n        /* \"#utility.yul\":19609:19660   */\n    tag_747:\n        /* \"#utility.yul\":19690:19696   */\n      dup5\n        /* \"#utility.yul\":19687:19688   */\n      0x05\n        /* \"#utility.yul\":19683:19697   */\n      shl\n        /* \"#utility.yul\":19669:19697   */\n      swap2\n      pop\n        /* \"#utility.yul\":19743:19749   */\n      dup2\n        /* \"#utility.yul\":19735:19741   */\n      dup7\n        /* \"#utility.yul\":19728:19732   */\n      0x20\n        /* \"#utility.yul\":19723:19726   */\n      dup4\n        /* \"#utility.yul\":19719:19733   */\n      add\n        /* \"#utility.yul\":19706:19750   */\n      calldatacopy\n        /* \"#utility.yul\":19771:19787   */\n      add\n        /* \"#utility.yul\":19789:19793   */\n      0x20\n        /* \"#utility.yul\":19767:19794   */\n      add\n      swap7\n        /* \"#utility.yul\":18741:19800   */\n      swap6\n      pop\n      pop\n      pop\n      pop\n      pop\n      pop\n      jump\t// out\n        /* \"#utility.yul\":20817:21081   */\n    tag_406:\n        /* \"#utility.yul\":20888:20894   */\n      0x00\n        /* \"#utility.yul\":20941:20943   */\n      0x20\n        /* \"#utility.yul\":20929:20938   */\n      dup3\n        /* \"#utility.yul\":20920:20927   */\n      dup5\n        /* \"#utility.yul\":20916:20939   */\n      sub\n        /* \"#utility.yul\":20912:20944   */\n      slt\n        /* \"#utility.yul\":20909:20961   */\n      iszero\n      tag_752\n      jumpi\n        /* \"#utility.yul\":20957:20958   */\n      0x00\n        /* \"#utility.yul\":20954:20955   */\n      dup1\n        /* \"#utility.yul\":20947:20959   */\n      revert\n        /* \"#utility.yul\":20909:20961   */\n    tag_752:\n        /* \"#utility.yul\":20996:21005   */\n      dup2\n        /* \"#utility.yul\":20983:21006   */\n      calldataload\n        /* \"#utility.yul\":21015:21051   */\n      tag_615\n        /* \"#utility.yul\":21045:21050   */\n      dup2\n        /* \"#utility.yul\":21015:21051   */\n      tag_582\n      jump\t// in\n        /* \"#utility.yul\":21086:21642   */\n    tag_408:\n        /* \"#utility.yul\":21190:21194   */\n      0x00\n        /* \"#utility.yul\":21196:21202   */\n      dup1\n        /* \"#utility.yul\":21256:21267   */\n      dup4\n        /* \"#utility.yul\":21243:21268   */\n      calldataload\n        /* \"#utility.yul\":21350:21352   */\n      0x1e\n        /* \"#utility.yul\":21346:21353   */\n      not\n        /* \"#utility.yul\":21335:21343   */\n      dup5\n        /* \"#utility.yul\":21319:21333   */\n      calldatasize\n        /* \"#utility.yul\":21315:21344   */\n      sub\n        /* \"#utility.yul\":21311:21354   */\n      add\n        /* \"#utility.yul\":21291:21309   */\n      dup2\n        /* \"#utility.yul\":21287:21355   */\n      slt\n        /* \"#utility.yul\":21277:21373   */\n      tag_755\n      jumpi\n        /* \"#utility.yul\":21369:21370   */\n      0x00\n        /* \"#utility.yul\":21366:21367   */\n      dup1\n        /* \"#utility.yul\":21359:21371   */\n      revert\n        /* \"#utility.yul\":21277:21373   */\n    tag_755:\n        /* \"#utility.yul\":21396:21429   */\n      dup4\n      add\n        /* \"#utility.yul\":21448:21468   */\n      dup1\n      calldataload\n      swap2\n      pop\n      sub(shl(0x40, 0x01), 0x01)\n        /* \"#utility.yul\":21480:21510   */\n      dup3\n      gt\n        /* \"#utility.yul\":21477:21527   */\n      iszero\n      tag_756\n      jumpi\n        /* \"#utility.yul\":21523:21524   */\n      0x00\n        /* \"#utility.yul\":21520:21521   */\n      dup1\n        /* \"#utility.yul\":21513:21525   */\n      revert\n        /* \"#utility.yul\":21477:21527   */\n    tag_756:\n        /* \"#utility.yul\":21556:21560   */\n      0x20\n        /* \"#utility.yul\":21544:21561   */\n      add\n      swap2\n      pop\n        /* \"#utility.yul\":21607:21608   */\n      0x05\n        /* \"#utility.yul\":21603:21617   */\n      dup2\n      swap1\n      shl\n        /* \"#utility.yul\":21587:21601   */\n      calldatasize\n        /* \"#utility.yul\":21583:21618   */\n      sub\n        /* \"#utility.yul\":21573:21619   */\n      dup3\n      sgt\n        /* \"#utility.yul\":21570:21636   */\n      iszero\n      tag_643\n      jumpi\n        /* \"#utility.yul\":21632:21633   */\n      0x00\n        /* \"#utility.yul\":21629:21630   */\n      dup1\n        /* \"#utility.yul\":21622:21634   */\n      revert\n        /* \"#utility.yul\":21647:22168   */\n    tag_412:\n        /* \"#utility.yul\":21724:21728   */\n      0x00\n        /* \"#utility.yul\":21730:21736   */\n      dup1\n        /* \"#utility.yul\":21790:21801   */\n      dup4\n        /* \"#utility.yul\":21777:21802   */\n      calldataload\n        /* \"#utility.yul\":21884:21886   */\n      0x1e\n        /* \"#utility.yul\":21880:21887   */\n      not\n        /* \"#utility.yul\":21869:21877   */\n      dup5\n        /* \"#utility.yul\":21853:21867   */\n      calldatasize\n        /* \"#utility.yul\":21849:21878   */\n      sub\n        /* \"#utility.yul\":21845:21888   */\n      add\n        /* \"#utility.yul\":21825:21843   */\n      dup2\n        /* \"#utility.yul\":21821:21889   */\n      slt\n        /* \"#utility.yul\":21811:21907   */\n      tag_759\n      jumpi\n        /* \"#utility.yul\":21903:21904   */\n      0x00\n        /* \"#utility.yul\":21900:21901   */\n      dup1\n        /* \"#utility.yul\":21893:21905   */\n      revert\n        /* \"#utility.yul\":21811:21907   */\n    tag_759:\n        /* \"#utility.yul\":21930:21963   */\n      dup4\n      add\n        /* \"#utility.yul\":21982:22002   */\n      dup1\n      calldataload\n      swap2\n      pop\n      sub(shl(0x40, 0x01), 0x01)\n        /* \"#utility.yul\":22014:22044   */\n      dup3\n      gt\n        /* \"#utility.yul\":22011:22061   */\n      iszero\n      tag_760\n      jumpi\n        /* \"#utility.yul\":22057:22058   */\n      0x00\n        /* \"#utility.yul\":22054:22055   */\n      dup1\n        /* \"#utility.yul\":22047:22059   */\n      revert\n        /* \"#utility.yul\":22011:22061   */\n    tag_760:\n        /* \"#utility.yul\":22090:22094   */\n      0x20\n        /* \"#utility.yul\":22078:22095   */\n      add\n      swap2\n      pop\n        /* \"#utility.yul\":22121:22135   */\n      calldatasize\n        /* \"#utility.yul\":22117:22144   */\n      dup2\n      swap1\n      sub\n        /* \"#utility.yul\":22107:22145   */\n      dup3\n      sgt\n        /* \"#utility.yul\":22104:22162   */\n      iszero\n      tag_643\n      jumpi\n        /* \"#utility.yul\":22158:22159   */\n      0x00\n        /* \"#utility.yul\":22155:22156   */\n      dup1\n        /* \"#utility.yul\":22148:22160   */\n      revert\n        /* \"#utility.yul\":22173:22948   */\n    tag_414:\n      sub(shl(0xa0, 0x01), 0x01)\n        /* \"#utility.yul\":22504:22519   */\n      dup8\n      dup2\n      and\n        /* \"#utility.yul\":22486:22520   */\n      dup3\n      mstore\n        /* \"#utility.yul\":22551:22553   */\n      0x20\n        /* \"#utility.yul\":22536:22554   */\n      dup3\n      add\n        /* \"#utility.yul\":22529:22563   */\n      dup8\n      swap1\n      mstore\n        /* \"#utility.yul\":22429:22433   */\n      0x00\n      swap1\n        /* \"#utility.yul\":22572:22623   */\n      tag_763\n        /* \"#utility.yul\":22619:22621   */\n      0x40\n        /* \"#utility.yul\":22604:22622   */\n      dup5\n      add\n        /* \"#utility.yul\":22596:22602   */\n      dup9\n        /* \"#utility.yul\":22572:22623   */\n      tag_586\n      jump\t// in\n    tag_763:\n        /* \"#utility.yul\":22671:22673   */\n      dup1\n        /* \"#utility.yul\":22663:22669   */\n      dup7\n        /* \"#utility.yul\":22659:22674   */\n      and\n        /* \"#utility.yul\":22654:22656   */\n      0x60\n        /* \"#utility.yul\":22643:22652   */\n      dup5\n        /* \"#utility.yul\":22639:22657   */\n      add\n        /* \"#utility.yul\":22632:22675   */\n      mstore\n      pop\n        /* \"#utility.yul\":22712:22715   */\n      0xa0\n        /* \"#utility.yul\":22706:22709   */\n      0x80\n        /* \"#utility.yul\":22695:22704   */\n      dup4\n        /* \"#utility.yul\":22691:22710   */\n      add\n        /* \"#utility.yul\":22684:22716   */\n      mstore\n        /* \"#utility.yul\":22753:22759   */\n      dup3\n        /* \"#utility.yul\":22747:22750   */\n      0xa0\n        /* \"#utility.yul\":22736:22745   */\n      dup4\n        /* \"#utility.yul\":22732:22751   */\n      add\n        /* \"#utility.yul\":22725:22760   */\n      mstore\n        /* \"#utility.yul\":22811:22817   */\n      dup3\n        /* \"#utility.yul\":22803:22809   */\n      dup5\n        /* \"#utility.yul\":22797:22800   */\n      0xc0\n        /* \"#utility.yul\":22786:22795   */\n      dup5\n        /* \"#utility.yul\":22782:22801   */\n      add\n        /* \"#utility.yul\":22769:22818   */\n      calldatacopy\n        /* \"#utility.yul\":22868:22869   */\n      0x00\n        /* \"#utility.yul\":22862:22865   */\n      0xc0\n        /* \"#utility.yul\":22853:22859   */\n      dup5\n        /* \"#utility.yul\":22842:22851   */\n      dup5\n        /* \"#utility.yul\":22838:22860   */\n      add\n        /* \"#utility.yul\":22834:22866   */\n      add\n        /* \"#utility.yul\":22827:22870   */\n      mstore\n        /* \"#utility.yul\":22938:22941   */\n      0xc0\n        /* \"#utility.yul\":22931:22933   */\n      0x1f\n        /* \"#utility.yul\":22927:22934   */\n      not\n        /* \"#utility.yul\":22922:22924   */\n      0x1f\n        /* \"#utility.yul\":22914:22920   */\n      dup6\n        /* \"#utility.yul\":22910:22925   */\n      add\n        /* \"#utility.yul\":22906:22935   */\n      and\n        /* \"#utility.yul\":22895:22904   */\n      dup4\n        /* \"#utility.yul\":22891:22936   */\n      add\n        /* \"#utility.yul\":22887:22942   */\n      add\n        /* \"#utility.yul\":22879:22942   */\n      swap1\n      pop\n        /* \"#utility.yul\":22173:22948   */\n      swap8\n      swap7\n      pop\n      pop\n      pop\n      pop\n      pop\n      pop\n      pop\n      jump\t// out\n        /* \"#utility.yul\":23856:24810   */\n    tag_485:\n        /* \"#utility.yul\":23951:23957   */\n      0x00\n        /* \"#utility.yul\":23982:23984   */\n      0x20\n        /* \"#utility.yul\":24025:24027   */\n      dup1\n        /* \"#utility.yul\":24013:24022   */\n      dup4\n        /* \"#utility.yul\":24004:24011   */\n      dup6\n        /* \"#utility.yul\":24000:24023   */\n      sub\n        /* \"#utility.yul\":23996:24028   */\n      slt\n        /* \"#utility.yul\":23993:24045   */\n      iszero\n      tag_768\n      jumpi\n        /* \"#utility.yul\":24041:24042   */\n      0x00\n        /* \"#utility.yul\":24038:24039   */\n      dup1\n        /* \"#utility.yul\":24031:24043   */\n      revert\n        /* \"#utility.yul\":23993:24045   */\n    tag_768:\n        /* \"#utility.yul\":24074:24083   */\n      dup3\n        /* \"#utility.yul\":24068:24084   */\n      mload\n      sub(shl(0x40, 0x01), 0x01)\n        /* \"#utility.yul\":24099:24105   */\n      dup2\n        /* \"#utility.yul\":24096:24126   */\n      gt\n        /* \"#utility.yul\":24093:24143   */\n      iszero\n      tag_769\n      jumpi\n        /* \"#utility.yul\":24139:24140   */\n      0x00\n        /* \"#utility.yul\":24136:24137   */\n      dup1\n        /* \"#utility.yul\":24129:24141   */\n      revert\n        /* \"#utility.yul\":24093:24143   */\n    tag_769:\n        /* \"#utility.yul\":24162:24184   */\n      dup4\n      add\n        /* \"#utility.yul\":24215:24219   */\n      0x1f\n        /* \"#utility.yul\":24207:24220   */\n      dup2\n      add\n        /* \"#utility.yul\":24203:24230   */\n      dup6\n      sgt\n        /* \"#utility.yul\":24193:24248   */\n      tag_770\n      jumpi\n        /* \"#utility.yul\":24244:24245   */\n      0x00\n        /* \"#utility.yul\":24241:24242   */\n      dup1\n        /* \"#utility.yul\":24234:24246   */\n      revert\n        /* \"#utility.yul\":24193:24248   */\n    tag_770:\n        /* \"#utility.yul\":24273:24275   */\n      dup1\n        /* \"#utility.yul\":24267:24276   */\n      mload\n        /* \"#utility.yul\":24296:24354   */\n      tag_771\n        /* \"#utility.yul\":24312:24353   */\n      tag_602\n        /* \"#utility.yul\":24350:24352   */\n      dup3\n        /* \"#utility.yul\":24312:24353   */\n      tag_583\n      jump\t// in\n        /* \"#utility.yul\":24296:24354   */\n    tag_771:\n        /* \"#utility.yul\":24388:24403   */\n      dup2\n      dup2\n      mstore\n        /* \"#utility.yul\":24470:24471   */\n      0x05\n        /* \"#utility.yul\":24466:24476   */\n      swap2\n      swap1\n      swap2\n      shl\n        /* \"#utility.yul\":24458:24477   */\n      dup3\n      add\n        /* \"#utility.yul\":24454:24482   */\n      dup4\n      add\n      swap1\n        /* \"#utility.yul\":24419:24431   */\n      dup4\n      dup2\n      add\n      swap1\n        /* \"#utility.yul\":24494:24513   */\n      dup8\n      dup4\n      gt\n        /* \"#utility.yul\":24491:24530   */\n      iszero\n      tag_773\n      jumpi\n        /* \"#utility.yul\":24526:24527   */\n      0x00\n        /* \"#utility.yul\":24523:24524   */\n      dup1\n        /* \"#utility.yul\":24516:24528   */\n      revert\n        /* \"#utility.yul\":24491:24530   */\n    tag_773:\n        /* \"#utility.yul\":24550:24561   */\n      swap3\n      dup5\n      add\n      swap3\n        /* \"#utility.yul\":24570:24780   */\n    tag_774:\n        /* \"#utility.yul\":24586:24592   */\n      dup3\n        /* \"#utility.yul\":24581:24584   */\n      dup5\n        /* \"#utility.yul\":24578:24593   */\n      lt\n        /* \"#utility.yul\":24570:24780   */\n      iszero\n      tag_718\n      jumpi\n        /* \"#utility.yul\":24659:24662   */\n      dup4\n        /* \"#utility.yul\":24653:24663   */\n      mload\n        /* \"#utility.yul\":24676:24707   */\n      tag_777\n        /* \"#utility.yul\":24701:24706   */\n      dup2\n        /* \"#utility.yul\":24676:24707   */\n      tag_579\n      jump\t// in\n    tag_777:\n        /* \"#utility.yul\":24720:24738   */\n      dup3\n      mstore\n        /* \"#utility.yul\":24603:24615   */\n      swap3\n      dup5\n      add\n      swap3\n        /* \"#utility.yul\":24758:24770   */\n      swap1\n      dup5\n      add\n      swap1\n        /* \"#utility.yul\":24570:24780   */\n      jump(tag_774)\n        /* \"#utility.yul\":24815:25276   */\n    tag_587:\n        /* \"#utility.yul\":24868:24871   */\n      0x00\n        /* \"#utility.yul\":24906:24911   */\n      dup2\n        /* \"#utility.yul\":24900:24912   */\n      mload\n        /* \"#utility.yul\":24933:24939   */\n      dup1\n        /* \"#utility.yul\":24928:24931   */\n      dup5\n        /* \"#utility.yul\":24921:24940   */\n      mstore\n        /* \"#utility.yul\":24959:24963   */\n      0x20\n        /* \"#utility.yul\":24988:24990   */\n      dup1\n        /* \"#utility.yul\":24983:24986   */\n      dup6\n        /* \"#utility.yul\":24979:24991   */\n      add\n        /* \"#utility.yul\":24972:24991   */\n      swap5\n      pop\n        /* \"#utility.yul\":25025:25027   */\n      dup1\n        /* \"#utility.yul\":25018:25023   */\n      dup5\n        /* \"#utility.yul\":25014:25028   */\n      add\n        /* \"#utility.yul\":25046:25047   */\n      0x00\n        /* \"#utility.yul\":25056:25251   */\n    tag_779:\n        /* \"#utility.yul\":25070:25076   */\n      dup4\n        /* \"#utility.yul\":25067:25068   */\n      dup2\n        /* \"#utility.yul\":25064:25077   */\n      lt\n        /* \"#utility.yul\":25056:25251   */\n      iszero\n      tag_781\n      jumpi\n        /* \"#utility.yul\":25135:25148   */\n      dup2\n      mload\n      sub(shl(0xa0, 0x01), 0x01)\n        /* \"#utility.yul\":25131:25170   */\n      and\n        /* \"#utility.yul\":25119:25171   */\n      dup8\n      mstore\n        /* \"#utility.yul\":25191:25203   */\n      swap6\n      dup3\n      add\n      swap6\n        /* \"#utility.yul\":25226:25241   */\n      swap1\n      dup3\n      add\n      swap1\n        /* \"#utility.yul\":25167:25168   */\n      0x01\n        /* \"#utility.yul\":25085:25094   */\n      add\n        /* \"#utility.yul\":25056:25251   */\n      jump(tag_779)\n    tag_781:\n      pop\n        /* \"#utility.yul\":25267:25270   */\n      swap5\n      swap6\n        /* \"#utility.yul\":24815:25276   */\n      swap5\n      pop\n      pop\n      pop\n      pop\n      pop\n      jump\t// out\n        /* \"#utility.yul\":25281:25613   */\n    tag_487:\n        /* \"#utility.yul\":25488:25494   */\n      dup3\n        /* \"#utility.yul\":25477:25486   */\n      dup2\n        /* \"#utility.yul\":25470:25495   */\n      mstore\n        /* \"#utility.yul\":25531:25533   */\n      0x40\n        /* \"#utility.yul\":25526:25528   */\n      0x20\n        /* \"#utility.yul\":25515:25524   */\n      dup3\n        /* \"#utility.yul\":25511:25529   */\n      add\n        /* \"#utility.yul\":25504:25534   */\n      mstore\n        /* \"#utility.yul\":25451:25455   */\n      0x00\n        /* \"#utility.yul\":25551:25607   */\n      tag_783\n        /* \"#utility.yul\":25603:25605   */\n      0x40\n        /* \"#utility.yul\":25592:25601   */\n      dup4\n        /* \"#utility.yul\":25588:25606   */\n      add\n        /* \"#utility.yul\":25580:25586   */\n      dup5\n        /* \"#utility.yul\":25551:25607   */\n      tag_587\n      jump\t// in\n    tag_783:\n        /* \"#utility.yul\":25543:25607   */\n      swap5\n        /* \"#utility.yul\":25281:25613   */\n      swap4\n      pop\n      pop\n      pop\n      pop\n      jump\t// out\n        /* \"#utility.yul\":25618:26497   */\n    tag_491:\n        /* \"#utility.yul\":25713:25719   */\n      0x00\n        /* \"#utility.yul\":25744:25746   */\n      0x20\n        /* \"#utility.yul\":25787:25789   */\n      dup1\n        /* \"#utility.yul\":25775:25784   */\n      dup4\n        /* \"#utility.yul\":25766:25773   */\n      dup6\n        /* \"#utility.yul\":25762:25785   */\n      sub\n        /* \"#utility.yul\":25758:25790   */\n      slt\n        /* \"#utility.yul\":25755:25807   */\n      iszero\n      tag_785\n      jumpi\n        /* \"#utility.yul\":25803:25804   */\n      0x00\n        /* \"#utility.yul\":25800:25801   */\n      dup1\n        /* \"#utility.yul\":25793:25805   */\n      revert\n        /* \"#utility.yul\":25755:25807   */\n    tag_785:\n        /* \"#utility.yul\":25836:25845   */\n      dup3\n        /* \"#utility.yul\":25830:25846   */\n      mload\n      sub(shl(0x40, 0x01), 0x01)\n        /* \"#utility.yul\":25861:25867   */\n      dup2\n        /* \"#utility.yul\":25858:25888   */\n      gt\n        /* \"#utility.yul\":25855:25905   */\n      iszero\n      tag_786\n      jumpi\n        /* \"#utility.yul\":25901:25902   */\n      0x00\n        /* \"#utility.yul\":25898:25899   */\n      dup1\n        /* \"#utility.yul\":25891:25903   */\n      revert\n        /* \"#utility.yul\":25855:25905   */\n    tag_786:\n        /* \"#utility.yul\":25924:25946   */\n      dup4\n      add\n        /* \"#utility.yul\":25977:25981   */\n      0x1f\n        /* \"#utility.yul\":25969:25982   */\n      dup2\n      add\n        /* \"#utility.yul\":25965:25992   */\n      dup6\n      sgt\n        /* \"#utility.yul\":25955:26010   */\n      tag_787\n      jumpi\n        /* \"#utility.yul\":26006:26007   */\n      0x00\n        /* \"#utility.yul\":26003:26004   */\n      dup1\n        /* \"#utility.yul\":25996:26008   */\n      revert\n        /* \"#utility.yul\":25955:26010   */\n    tag_787:\n        /* \"#utility.yul\":26035:26037   */\n      dup1\n        /* \"#utility.yul\":26029:26038   */\n      mload\n        /* \"#utility.yul\":26058:26116   */\n      tag_788\n        /* \"#utility.yul\":26074:26115   */\n      tag_602\n        /* \"#utility.yul\":26112:26114   */\n      dup3\n        /* \"#utility.yul\":26074:26115   */\n      tag_583\n      jump\t// in\n        /* \"#utility.yul\":26058:26116   */\n    tag_788:\n        /* \"#utility.yul\":26150:26165   */\n      dup2\n      dup2\n      mstore\n        /* \"#utility.yul\":26232:26233   */\n      0x05\n        /* \"#utility.yul\":26228:26238   */\n      swap2\n      swap1\n      swap2\n      shl\n        /* \"#utility.yul\":26220:26239   */\n      dup3\n      add\n        /* \"#utility.yul\":26216:26244   */\n      dup4\n      add\n      swap1\n        /* \"#utility.yul\":26181:26193   */\n      dup4\n      dup2\n      add\n      swap1\n        /* \"#utility.yul\":26256:26275   */\n      dup8\n      dup4\n      gt\n        /* \"#utility.yul\":26253:26292   */\n      iszero\n      tag_790\n      jumpi\n        /* \"#utility.yul\":26288:26289   */\n      0x00\n        /* \"#utility.yul\":26285:26286   */\n      dup1\n        /* \"#utility.yul\":26278:26290   */\n      revert\n        /* \"#utility.yul\":26253:26292   */\n    tag_790:\n        /* \"#utility.yul\":26312:26323   */\n      swap3\n      dup5\n      add\n      swap3\n        /* \"#utility.yul\":26332:26467   */\n    tag_791:\n        /* \"#utility.yul\":26348:26354   */\n      dup3\n        /* \"#utility.yul\":26343:26346   */\n      dup5\n        /* \"#utility.yul\":26340:26355   */\n      lt\n        /* \"#utility.yul\":26332:26467   */\n      iszero\n      tag_718\n      jumpi\n        /* \"#utility.yul\":26414:26424   */\n      dup4\n      mload\n        /* \"#utility.yul\":26402:26425   */\n      dup3\n      mstore\n        /* \"#utility.yul\":26365:26377   */\n      swap3\n      dup5\n      add\n      swap3\n        /* \"#utility.yul\":26445:26457   */\n      swap1\n      dup5\n      add\n      swap1\n        /* \"#utility.yul\":26332:26467   */\n      jump(tag_791)\n        /* \"#utility.yul\":26502:27076   */\n    tag_502:\n        /* \"#utility.yul\":26793:26799   */\n      dup6\n        /* \"#utility.yul\":26782:26791   */\n      dup2\n        /* \"#utility.yul\":26775:26800   */\n      mstore\n        /* \"#utility.yul\":26836:26842   */\n      dup5\n        /* \"#utility.yul\":26831:26833   */\n      0x20\n        /* \"#utility.yul\":26820:26829   */\n      dup3\n        /* \"#utility.yul\":26816:26834   */\n      add\n        /* \"#utility.yul\":26809:26843   */\n      mstore\n        /* \"#utility.yul\":26879:26882   */\n      0xa0\n        /* \"#utility.yul\":26874:26876   */\n      0x40\n        /* \"#utility.yul\":26863:26872   */\n      dup3\n        /* \"#utility.yul\":26859:26877   */\n      add\n        /* \"#utility.yul\":26852:26883   */\n      mstore\n        /* \"#utility.yul\":26756:26760   */\n      0x00\n        /* \"#utility.yul\":26900:26957   */\n      tag_795\n        /* \"#utility.yul\":26952:26955   */\n      0xa0\n        /* \"#utility.yul\":26941:26950   */\n      dup4\n        /* \"#utility.yul\":26937:26956   */\n      add\n        /* \"#utility.yul\":26929:26935   */\n      dup7\n        /* \"#utility.yul\":26900:26957   */\n      tag_587\n      jump\t// in\n    tag_795:\n      sub(shl(0xa0, 0x01), 0x01)\n        /* \"#utility.yul\":26993:27025   */\n      swap5\n      swap1\n      swap5\n      and\n        /* \"#utility.yul\":26988:26990   */\n      0x60\n        /* \"#utility.yul\":26973:26991   */\n      dup4\n      add\n        /* \"#utility.yul\":26966:27026   */\n      mstore\n      pop\n        /* \"#utility.yul\":27057:27060   */\n      0x80\n        /* \"#utility.yul\":27042:27061   */\n      add\n        /* \"#utility.yul\":27035:27070   */\n      mstore\n        /* \"#utility.yul\":26892:26957   */\n      swap4\n        /* \"#utility.yul\":26502:27076   */\n      swap3\n      pop\n      pop\n      pop\n      jump\t// out\n        /* \"#utility.yul\":27081:27370   */\n    tag_510:\n        /* \"#utility.yul\":27256:27258   */\n      0x40\n        /* \"#utility.yul\":27245:27254   */\n      dup2\n        /* \"#utility.yul\":27238:27259   */\n      mstore\n        /* \"#utility.yul\":27219:27223   */\n      0x00\n        /* \"#utility.yul\":27276:27321   */\n      tag_797\n        /* \"#utility.yul\":27317:27319   */\n      0x40\n        /* \"#utility.yul\":27306:27315   */\n      dup4\n        /* \"#utility.yul\":27302:27320   */\n      add\n        /* \"#utility.yul\":27294:27300   */\n      dup6\n        /* \"#utility.yul\":27276:27321   */\n      tag_578\n      jump\t// in\n    tag_797:\n        /* \"#utility.yul\":27268:27321   */\n      swap1\n      pop\n        /* \"#utility.yul\":27357:27363   */\n      dup3\n        /* \"#utility.yul\":27352:27354   */\n      0x20\n        /* \"#utility.yul\":27341:27350   */\n      dup4\n        /* \"#utility.yul\":27337:27355   */\n      add\n        /* \"#utility.yul\":27330:27364   */\n      mstore\n        /* \"#utility.yul\":27081:27370   */\n      swap4\n      swap3\n      pop\n      pop\n      pop\n      jump\t// out\n        /* \"#utility.yul\":27375:28026   */\n    tag_522:\n        /* \"#utility.yul\":27570:27572   */\n      0x20\n        /* \"#utility.yul\":27559:27568   */\n      dup2\n        /* \"#utility.yul\":27552:27573   */\n      mstore\n        /* \"#utility.yul\":27533:27537   */\n      0x00\n        /* \"#utility.yul\":27608:27614   */\n      dup3\n        /* \"#utility.yul\":27602:27615   */\n      mload\n        /* \"#utility.yul\":27651:27655   */\n      0xa0\n        /* \"#utility.yul\":27646:27648   */\n      0x20\n        /* \"#utility.yul\":27635:27644   */\n      dup5\n        /* \"#utility.yul\":27631:27649   */\n      add\n        /* \"#utility.yul\":27624:27656   */\n      mstore\n        /* \"#utility.yul\":27679:27731   */\n      tag_799\n        /* \"#utility.yul\":27726:27729   */\n      0xc0\n        /* \"#utility.yul\":27715:27724   */\n      dup5\n        /* \"#utility.yul\":27711:27730   */\n      add\n        /* \"#utility.yul\":27697:27709   */\n      dup3\n        /* \"#utility.yul\":27679:27731   */\n      tag_578\n      jump\t// in\n    tag_799:\n        /* \"#utility.yul\":27665:27731   */\n      swap1\n      pop\n        /* \"#utility.yul\":27812:27813   */\n      0x01\n        /* \"#utility.yul\":27808:27809   */\n      dup1\n        /* \"#utility.yul\":27803:27806   */\n      0xa0\n        /* \"#utility.yul\":27799:27810   */\n      shl\n        /* \"#utility.yul\":27795:27814   */\n      sub\n        /* \"#utility.yul\":27789:27791   */\n      0x20\n        /* \"#utility.yul\":27781:27787   */\n      dup6\n        /* \"#utility.yul\":27777:27792   */\n      add\n        /* \"#utility.yul\":27771:27793   */\n      mload\n        /* \"#utility.yul\":27767:27815   */\n      and\n        /* \"#utility.yul\":27762:27764   */\n      0x40\n        /* \"#utility.yul\":27751:27760   */\n      dup5\n        /* \"#utility.yul\":27747:27765   */\n      add\n        /* \"#utility.yul\":27740:27816   */\n      mstore\n        /* \"#utility.yul\":27870:27872   */\n      0x40\n        /* \"#utility.yul\":27862:27868   */\n      dup5\n        /* \"#utility.yul\":27858:27873   */\n      add\n        /* \"#utility.yul\":27852:27874   */\n      mload\n        /* \"#utility.yul\":27847:27849   */\n      0x60\n        /* \"#utility.yul\":27836:27845   */\n      dup5\n        /* \"#utility.yul\":27832:27850   */\n      add\n        /* \"#utility.yul\":27825:27875   */\n      mstore\n        /* \"#utility.yul\":27930:27932   */\n      0x60\n        /* \"#utility.yul\":27922:27928   */\n      dup5\n        /* \"#utility.yul\":27918:27933   */\n      add\n        /* \"#utility.yul\":27912:27934   */\n      mload\n        /* \"#utility.yul\":27906:27909   */\n      0x80\n        /* \"#utility.yul\":27895:27904   */\n      dup5\n        /* \"#utility.yul\":27891:27910   */\n      add\n        /* \"#utility.yul\":27884:27935   */\n      mstore\n        /* \"#utility.yul\":27991:27994   */\n      0x80\n        /* \"#utility.yul\":27983:27989   */\n      dup5\n        /* \"#utility.yul\":27979:27995   */\n      add\n        /* \"#utility.yul\":27973:27996   */\n      mload\n        /* \"#utility.yul\":27966:27970   */\n      0xa0\n        /* \"#utility.yul\":27955:27964   */\n      dup5\n        /* \"#utility.yul\":27951:27971   */\n      add\n        /* \"#utility.yul\":27944:27997   */\n      mstore\n        /* \"#utility.yul\":28014:28020   */\n      dup1\n        /* \"#utility.yul\":28006:28020   */\n      swap2\n      pop\n      pop\n        /* \"#utility.yul\":27375:28026   */\n      swap3\n      swap2\n      pop\n      pop\n      jump\t// out\n        /* \"#utility.yul\":28411:28698   */\n    tag_530:\n        /* \"#utility.yul\":28540:28543   */\n      0x00\n        /* \"#utility.yul\":28578:28584   */\n      dup3\n        /* \"#utility.yul\":28572:28585   */\n      mload\n        /* \"#utility.yul\":28594:28660   */\n      tag_802\n        /* \"#utility.yul\":28653:28659   */\n      dup2\n        /* \"#utility.yul\":28648:28651   */\n      dup5\n        /* \"#utility.yul\":28641:28645   */\n      0x20\n        /* \"#utility.yul\":28633:28639   */\n      dup8\n        /* \"#utility.yul\":28629:28646   */\n      add\n        /* \"#utility.yul\":28594:28660   */\n      tag_577\n      jump\t// in\n    tag_802:\n        /* \"#utility.yul\":28676:28692   */\n      swap2\n      swap1\n      swap2\n      add\n      swap3\n        /* \"#utility.yul\":28411:28698   */\n      swap2\n      pop\n      pop\n      jump\t// out\n\n    auxdata: 0xa2646970667358221220ab8a5c674b37dce16c3645c864c042a2673fcf3aba024145aecd65f625b51f7b64736f6c63430008140033\n}\n",
				"bytecode": {
					"linkReferences": {},
					"object": "6080604052600e805460ff60201b191690553480156200001d575f80fd5b5060405162002ea038038062002ea083398101604081905262000040916200021c565b828282878733806200006b57604051631e4fbdf760e01b81525f600482015260240160405180910390fd5b6200007681620000f3565b50600462000085838262000344565b50600562000094828262000344565b5050600980546001600160a01b039586166001600160a01b031991821617909155600a80549486169482169490941790935550600b805491909316908216179091556103e86007556010805490911633179055506200040c9350505050565b5f80546001600160a01b038381166001600160a01b0319831681178455604051919092169283917f8be0079c531659141344cd1fd0a4f28419497f9722a3daafe3b4186f6b6457e09190a35050565b634e487b7160e01b5f52604160045260245ffd5b5f82601f83011262000166575f80fd5b81516001600160401b038082111562000183576200018362000142565b604051601f8301601f19908116603f01168101908282118183101715620001ae57620001ae62000142565b81604052838152602092508683858801011115620001ca575f80fd5b5f91505b83821015620001ed5785820183015181830184015290820190620001ce565b5f93810190920192909252949350505050565b80516001600160a01b038116811462000217575f80fd5b919050565b5f805f805f60a0868803121562000231575f80fd5b85516001600160401b038082111562000248575f80fd5b6200025689838a0162000156565b965060208801519150808211156200026c575f80fd5b506200027b8882890162000156565b9450506200028c6040870162000200565b92506200029c6060870162000200565b9150620002ac6080870162000200565b90509295509295909350565b600181811c90821680620002cd57607f821691505b602082108103620002ec57634e487b7160e01b5f52602260045260245ffd5b50919050565b601f8211156200033f575f81815260208120601f850160051c810160208610156200031a5750805b601f850160051c820191505b818110156200033b5782815560010162000326565b5050505b505050565b81516001600160401b0381111562000360576200036062000142565b6200037881620003718454620002b8565b84620002f2565b602080601f831160018114620003ae575f8415620003965750858301515b5f19600386901b1c1916600185901b1785556200033b565b5f85815260208120601f198616915b82811015620003de57888601518255948401946001909101908401620003bd565b5085821015620003fc57878501515f19600388901b60f8161c191681555b5050505050600190811b01905550565b612a86806200041a5f395ff3fe6080604052600436106101c4575f3560e01c806367a52793116100f2578063945098db11610092578063c38cd0b511610062578063c38cd0b514610553578063d03153aa1461057e578063dd62ed3e14610593578063f2fde38b146105d7575f80fd5b8063945098db146104ee57806395d89b4114610501578063a738c7df14610515578063a9059cbb14610534575f80fd5b806374a66061116100cd57806374a660611461047857806381a06b73146104975780638bc7e8c4146104b85780638da5cb5b146104d2575f80fd5b806367a52793146103fd57806370a0823114610430578063715018a614610464575f80fd5b80632a5c792a1161016857806336a43f2b1161013857806336a43f2b1461034f578063378a653c1461037a5780633f595e29146103bf5780634d20d0f8146103de575f80fd5b80632a5c792a146102d55780632c76d7a6146102f65780633043d4d914610315578063313ce56714610334575f80fd5b8063117da1ee116101a3578063117da1ee146102425780631694505e1461026157806318160ddd1461029857806323b872dd146102b6575f80fd5b8062d06ddd146101c857806306fdde03146101e9578063095ea7b314610213575b5f80fd5b3480156101d3575f80fd5b506101e76101e236600461201a565b6105f6565b005b3480156101f4575f80fd5b506101fd6109c2565b60405161020a91906120aa565b60405180910390f35b34801561021e575f80fd5b5061023261022d3660046120d7565b610a52565b604051901515815260200161020a565b34801561024d575f80fd5b506101e761025c366004612101565b610a6b565b34801561026c575f80fd5b50600954610280906001600160a01b031681565b6040516001600160a01b03909116815260200161020a565b3480156102a3575f80fd5b506003545b60405190815260200161020a565b3480156102c1575f80fd5b506102326102d0366004612118565b610aab565b3480156102e0575f80fd5b506102e9610ace565b60405161020a9190612156565b348015610301575f80fd5b50600a54610280906001600160a01b031681565b348015610320575f80fd5b506101e761032f366004612101565b610b41565b34801561033f575f80fd5b506040516012815260200161020a565b34801561035a575f80fd5b506102a86103693660046121ad565b60086020525f908152604090205481565b348015610385575f80fd5b50610399610394366004612101565b610d33565b604080516001600160a01b0394851681529390921660208401529082015260600161020a565b3480156103ca575f80fd5b506101e76103d9366004612225565b610d71565b3480156103e9575f80fd5b50600b54610280906001600160a01b031681565b348015610408575f80fd5b50600e5461041d9062010000900461ffff1681565b60405161ffff909116815260200161020a565b34801561043b575f80fd5b506102a861044a3660046121ad565b6001600160a01b03165f9081526001602052604090205490565b34801561046f575f80fd5b506101e7610ffe565b348015610483575f80fd5b506102a86104923660046122ba565b611011565b3480156104a2575f80fd5b50600e5461023290640100000000900460ff1681565b3480156104c3575f80fd5b50600e5461041d9061ffff1681565b3480156104dd575f80fd5b505f546001600160a01b0316610280565b6101e76104fc366004612333565b611099565b34801561050c575f80fd5b506101fd6114db565b348015610520575f80fd5b506101e761052f3660046121ad565b6114ea565b34801561053f575f80fd5b5061023261054e3660046120d7565b611593565b34801561055e575f80fd5b506102a861056d3660046121ad565b600f6020525f908152604090205481565b348015610589575f80fd5b506102a860075481565b34801561059e575f80fd5b506102a86105ad366004612369565b6001600160a01b039182165f90815260026020908152604080832093909416825291909152205490565b3480156105e2575f80fd5b506101e76105f13660046121ad565b6115a0565b5f821161062f5760405162461bcd60e51b815260206004820152600260248201526103e360f41b60448201526064015b60405180910390fd5b6040516370a0823160e01b8152336004820152829030906370a0823190602401602060405180830381865afa15801561066a573d5f803e3d5ffd5b505050506040513d601f19601f8201168201806040525081019061068e91906123a0565b10156106cc5760405162461bcd60e51b815260206004820152600d60248201526c08525b9cdd59999a58da595b9d609a1b6044820152606401610626565b5f818060200190518101906106e191906123e4565b90505f6106ed60035490565b6106f98561271061251e565b6107039190612535565b90505f60095f9054906101000a90046001600160a01b03166001600160a01b031663ad5c46486040518163ffffffff1660e01b8152600401602060405180830381865afa158015610756573d5f803e3d5ffd5b505050506040513d601f19601f8201168201806040525081019061077a9190612554565b90505f805b600c548110156108f1575f600c828154811061079d5761079d61256f565b5f918252602082206002919091020180546040516370a0823160e01b81523060048201529193506127109188916001600160a01b0316906370a0823190602401602060405180830381865afa1580156107f8573d5f803e3d5ffd5b505050506040513d601f19601f8201168201806040525081019061081c91906123a0565b610826919061251e565b6108309190612535565b825460408901518951805193945030936374a66061936001600160a01b031692869290913391908a9081106108675761086761256f565b60200260200101516040518663ffffffff1660e01b815260040161088f9594939291906125b7565b6020604051808303815f875af19250505080156108c9575060408051601f3d908101601f191682019092526108c6918101906123a0565b60015b156108dc576108d88186612602565b9450505b505080806108e990612615565b91505061077f565b506108fc33876115da565b80156109ba57600e545f90612710906109199061ffff168461251e565b6109239190612535565b90505f610930828461262d565b905081600d5f8282546109439190612602565b909155505060405163a9059cbb60e01b8152336004820152602481018290526001600160a01b0385169063a9059cbb906044016020604051808303815f875af1158015610992573d5f803e3d5ffd5b505050506040513d601f19601f820116820180604052508101906109b69190612640565b5050505b505050505050565b6060600480546109d19061265f565b80601f01602080910402602001604051908101604052809291908181526020018280546109fd9061265f565b8015610a485780601f10610a1f57610100808354040283529160200191610a48565b820191905f5260205f20905b815481529060010190602001808311610a2b57829003601f168201915b5050505050905090565b5f33610a5f818585611612565b60019150505b92915050565b612710811115610aa65760405162461bcd60e51b815260040161062690602080825260049082015263021534c560e41b604082015260600190565b600755565b5f33610ab885828561161f565b610ac3858585611694565b506001949350505050565b6060600c805480602002602001604051908101604052809291908181526020015f905b82821015610b38575f848152602090819020604080518082019091526002850290910180546001600160a01b03168252600190810154828401529083529092019101610af1565b50505050905090565b5f8111610b765760405162461bcd60e51b81526020600482015260036024820152620573e360ec1b6044820152606401610626565b335f90815260016020526040902054811115610bbf5760405162461bcd60e51b81526020600482015260086024820152672162616c616e636560c01b6044820152606401610626565b5f610bc960035490565b610bd58361271061251e565b610bdf9190612535565b9050610beb33836115da565b5f5b600c54811015610d2e575f600c8281548110610c0b57610c0b61256f565b5f918252602082206002919091020180546040516370a0823160e01b81523060048201529193506127109186916001600160a01b0316906370a0823190602401602060405180830381865afa158015610c66573d5f803e3d5ffd5b505050506040513d601f19601f82011682018060405250810190610c8a91906123a0565b610c94919061251e565b610c9e9190612535565b90508015610d1957815460405163a9059cbb60e01b8152336004820152602481018390526001600160a01b039091169063a9059cbb906044016020604051808303815f875af1158015610cf3573d5f803e3d5ffd5b505050506040513d601f19601f82011682018060405250810190610d179190612640565b505b50508080610d2690612615565b915050610bed565b505050565b60068181548110610d42575f80fd5b5f9182526020909120600390910201805460018201546002909201546001600160a01b03918216935091169083565b610d796116f1565b600e54640100000000900460ff1615610dc25760405162461bcd60e51b815260206004820152600b60248201526a1a5b9a5d1a585b1a5e995960aa1b6044820152606401610626565b848314610e065760405162461bcd60e51b81526020600482015260126024820152714d69736d617463686564206c656e6774687360701b6044820152606401610626565b600e805461ffff838116620100000263ffffffff19909216908516171790555f805b86811015610f6657612710868683818110610e4557610e4561256f565b905060200201351115610e8e5760405162461bcd60e51b8152602060048201526011602482015270496e76616c696450657263656e7461676560781b6044820152606401610626565b858582818110610ea057610ea061256f565b9050602002013582610eb29190612602565b9150600c60405180604001604052808a8a85818110610ed357610ed361256f565b9050602002016020810190610ee891906121ad565b6001600160a01b03168152602001888885818110610f0857610f0861256f565b602090810292909201359092528354600180820186555f95865294829020845160029092020180546001600160a01b0319166001600160a01b0390921691909117815592015191909201555080610f5e81612615565b915050610e28565b508061271014610fa25760405162461bcd60e51b81526020600482015260076024820152660743d31303030360cc1b6044820152606401610626565b600e805464ff0000000019166401000000001790556040517fa6413c453391b24b1553ee2908b9fdb9d8528511a0b9983f82d823531cea38b890610fed908990899089908990612697565b60405180910390a150505050505050565b6110066116f1565b61100f5f61171d565b565b5f8084600181111561102557611025612583565b0361103d576110368686858561176c565b9050611090565b600184600181111561105157611051612583565b03611062576110368686858561195b565b60405162461bcd60e51b815260206004820152600360248201526210aaab60e91b6044820152606401610626565b95945050505050565b5f8160200135116110d25760405162461bcd60e51b81526020600482015260036024820152620213e360ec1b6044820152606401610626565b600e545f90612710906110f39062010000900461ffff16602085013561251e565b6110fd9190612535565b90505f61110e82602085013561262d565b905081600d5f8282546111219190612602565b9091555050806111595760405162461bcd60e51b81526020600482015260036024820152620213e360ec1b6044820152606401610626565b600954604080516315ab88c960e31b815290516111d2926001600160a01b03169163ad5c46489160048083019260209291908290030181865afa1580156111a2573d5f803e3d5ffd5b505050506040513d601f19601f820116820180604052508101906111c69190612554565b33308660200135611b16565b600954604080516315ab88c960e31b81529051611255926001600160a01b03169163ad5c46489160048083019260209291908290030181865afa15801561121b573d5f803e3d5ffd5b505050506040513d601f19601f8201168201806040525081019061123f9190612554565b600a546001600160a01b03166020860135611c13565b61125f3382611d0e565b5f5b600c548110156114d5575f600c828154811061127f5761127f61256f565b905f5260205f20906002020190505f6127108260010154856112a1919061251e565b6112ab9190612535565b9050838111156112f55760405162461bcd60e51b815260206004820152601560248201527421657468416d6f756e743c3d616d6f756e7466656560581b6044820152606401610626565b80156114c057815430906374a66061906001600160a01b03168361131f60608b0160408c01612713565b3061132a8c8061272e565b8a81811061133a5761133a61256f565b905060200281019061134c9190612773565b6040518763ffffffff1660e01b815260040161136d969594939291906127b5565b6020604051808303815f875af19250505080156113a7575060408051601f3d908101601f191682019092526113a4918101906123a0565b60015b6114be57335f908152600f6020526040812080548392906113c9908490612602565b9091555050604080516060810182523380825284546001600160a01b039081166020808501918252848601878152600680546001810182555f918252965160039097027ff652222313e28459528d920b65115c16c04f3efc82aaedc97be59f3f377c0d3f810180549887166001600160a01b0319998a1617905593517ff652222313e28459528d920b65115c16c04f3efc82aaedc97be59f3f377c0d40850180549190961697169690961790935591517ff652222313e28459528d920b65115c16c04f3efc82aaedc97be59f3f377c0d4190910155908252600890529081208054916114b483612615565b91905055506114c0565b505b505080806114cd90612615565b915050611261565b50505050565b6060600580546109d19061265f565b6114f26116f1565b600d541561159057600d546040515f916001600160a01b038416918381818185875af1925050503d805f8114611543576040519150601f19603f3d011682016040523d82523d5f602084013e611548565b606091505b505090508061158a5760405162461bcd60e51b815260206004820152600e60248201526d1d1c985b9cd9995c91985a5b195960921b6044820152606401610626565b505f600d555b50565b5f33610a5f818585611694565b6115a86116f1565b6001600160a01b0381166115d157604051631e4fbdf760e01b81525f6004820152602401610626565b6115908161171d565b6001600160a01b03821661160357604051634b637e8f60e11b81525f6004820152602401610626565b61160e825f83611d3e565b5050565b610d2e8383836001611e64565b6001600160a01b038381165f908152600260209081526040808320938616835292905220545f1981146114d5578181101561168657604051637dc7a0d960e11b81526001600160a01b03841660048201526024810182905260448101839052606401610626565b6114d584848484035f611e64565b6001600160a01b0383166116bd57604051634b637e8f60e11b81525f6004820152602401610626565b6001600160a01b0382166116e65760405163ec442f0560e01b81525f6004820152602401610626565b610d2e838383611d3e565b5f546001600160a01b0316331461100f5760405163118cdaa760e01b8152336004820152602401610626565b5f80546001600160a01b038381166001600160a01b0319831681178455604051919092169283917f8be0079c531659141344cd1fd0a4f28419497f9722a3daafe3b4186f6b6457e09190a35050565b5f80828060200190518101906117829190612817565b60095460405163d06ca61f60e01b81529192505f916001600160a01b039091169063d06ca61f906117b990899086906004016128e2565b5f60405180830381865afa1580156117d3573d5f803e3d5ffd5b505050506040513d5f823e601f3d908101601f191682016040526117fa9190810190612902565b90505f612710600754612710611810919061262d565b836001815181106118235761182361256f565b6020026020010151611835919061251e565b61183f9190612535565b60095460405163095ea7b360e01b81526001600160a01b039182166004820152602481018a905291925089169063095ea7b3906044016020604051808303815f875af1158015611891573d5f803e3d5ffd5b505050506040513d601f19601f820116820180604052508101906118b59190612640565b506009546040516318cbafe560e01b81525f916001600160a01b0316906318cbafe5906118ee908b90869089908d904290600401612982565b5f604051808303815f875af1158015611909573d5f803e3d5ffd5b505050506040513d5f823e601f3d908101601f191682016040526119309190810190612902565b9050806001815181106119455761194561256f565b6020026020010151945050505050949350505050565b600b5460405163cdca175360e01b81525f9182916001600160a01b039091169063cdca17539061199190869089906004016129bd565b6020604051808303815f875af11580156119ad573d5f803e3d5ffd5b505050506040513d601f19601f820116820180604052508101906119d191906123a0565b90505f6127106007546127106119e7919061262d565b6119f1908461251e565b6119fb9190612535565b6040805160a0810182528681526001600160a01b0388811660208301524282840152606082018a905260808201849052600a54925163095ea7b360e01b81529281166004840152602483018a90529293509189169063095ea7b3906044016020604051808303815f875af1158015611a75573d5f803e3d5ffd5b505050506040513d601f19601f82011682018060405250810190611a999190612640565b50600a5460405163c04b8d5960e01b81526001600160a01b039091169063c04b8d5990611aca9084906004016129de565b6020604051808303815f875af1158015611ae6573d5f803e3d5ffd5b505050506040513d601f19601f82011682018060405250810190611b0a91906123a0565b98975050505050505050565b604080516001600160a01b0385811660248301528481166044830152606480830185905283518084039091018152608490920183526020820180516001600160e01b03166323b872dd60e01b17905291515f92839290881691611b799190612a35565b5f604051808303815f865af19150503d805f8114611bb2576040519150601f19603f3d011682016040523d82523d5f602084013e611bb7565b606091505b5091509150818015611be1575080511580611be1575080806020019051810190611be19190612640565b6109ba5760405162461bcd60e51b815260206004820152600360248201526229aa2360e91b6044820152606401610626565b604080516001600160a01b038481166024830152604480830185905283518084039091018152606490920183526020820180516001600160e01b031663095ea7b360e01b17905291515f92839290871691611c6e9190612a35565b5f604051808303815f865af19150503d805f8114611ca7576040519150601f19603f3d011682016040523d82523d5f602084013e611cac565b606091505b5091509150818015611cd6575080511580611cd6575080806020019051810190611cd69190612640565b611d075760405162461bcd60e51b8152602060048201526002602482015261534160f01b6044820152606401610626565b5050505050565b6001600160a01b038216611d375760405163ec442f0560e01b81525f6004820152602401610626565b61160e5f83835b6001600160a01b038316611d68578060035f828254611d5d9190612602565b90915550611dd89050565b6001600160a01b0383165f9081526001602052604090205481811015611dba5760405163391434e360e21b81526001600160a01b03851660048201526024810182905260448101839052606401610626565b6001600160a01b0384165f9081526001602052604090209082900390555b6001600160a01b038216611df457600380548290039055611e12565b6001600160a01b0382165f9081526001602052604090208054820190555b816001600160a01b0316836001600160a01b03167fddf252ad1be2c89b69c2b068fc378daa952ba7f163c4a11628f55a4df523b3ef83604051611e5791815260200190565b60405180910390a3505050565b6001600160a01b038416611e8d5760405163e602df0560e01b81525f6004820152602401610626565b6001600160a01b038316611eb657604051634a1406b160e11b81525f6004820152602401610626565b6001600160a01b038085165f90815260026020908152604080832093871683529290522082905580156114d557826001600160a01b0316846001600160a01b03167f8c5be1e5ebec7d5bd14f71427d1e84f3dd0314c0f7b2291e5b200ac8c7c3b92584604051611f2891815260200190565b60405180910390a350505050565b634e487b7160e01b5f52604160045260245ffd5b604051606081016001600160401b0381118282101715611f6c57611f6c611f36565b60405290565b604051601f8201601f191681016001600160401b0381118282101715611f9a57611f9a611f36565b604052919050565b5f6001600160401b03821115611fba57611fba611f36565b50601f01601f191660200190565b5f82601f830112611fd7575f80fd5b8135611fea611fe582611fa2565b611f72565b818152846020838601011115611ffe575f80fd5b816020850160208301375f918101602001919091529392505050565b5f806040838503121561202b575f80fd5b8235915060208301356001600160401b03811115612047575f80fd5b61205385828601611fc8565b9150509250929050565b5f5b8381101561207757818101518382015260200161205f565b50505f910152565b5f815180845261209681602086016020860161205d565b601f01601f19169290920160200192915050565b602081525f6120bc602083018461207f565b9392505050565b6001600160a01b0381168114611590575f80fd5b5f80604083850312156120e8575f80fd5b82356120f3816120c3565b946020939093013593505050565b5f60208284031215612111575f80fd5b5035919050565b5f805f6060848603121561212a575f80fd5b8335612135816120c3565b92506020840135612145816120c3565b929592945050506040919091013590565b602080825282518282018190525f919060409081850190868401855b828110156121a057815180516001600160a01b03168552860151868501529284019290850190600101612172565b5091979650505050505050565b5f602082840312156121bd575f80fd5b81356120bc816120c3565b5f8083601f8401126121d8575f80fd5b5081356001600160401b038111156121ee575f80fd5b6020830191508360208260051b8501011115612208575f80fd5b9250929050565b803561ffff81168114612220575f80fd5b919050565b5f805f805f806080878903121561223a575f80fd5b86356001600160401b0380821115612250575f80fd5b61225c8a838b016121c8565b90985096506020890135915080821115612274575f80fd5b5061228189828a016121c8565b909550935061229490506040880161220f565b91506122a26060880161220f565b90509295509295509295565b60028110611590575f80fd5b5f805f805f60a086880312156122ce575f80fd5b85356122d9816120c3565b94506020860135935060408601356122f0816122ae565b92506060860135612300816120c3565b915060808601356001600160401b0381111561231a575f80fd5b61232688828901611fc8565b9150509295509295909350565b5f60208284031215612343575f80fd5b81356001600160401b03811115612358575f80fd5b8201606081850312156120bc575f80fd5b5f806040838503121561237a575f80fd5b8235612385816120c3565b91506020830135612395816120c3565b809150509250929050565b5f602082840312156123b0575f80fd5b5051919050565b5f6001600160401b038211156123cf576123cf611f36565b5060051b60200190565b8051612220816122ae565b5f60208083850312156123f5575f80fd5b82516001600160401b038082111561240b575f80fd5b908401906060828703121561241e575f80fd5b612426611f4a565b825182811115612434575f80fd5b8301601f81018813612444575f80fd5b8051612452611fe5826123b7565b81815260059190911b8201860190868101908a831115612470575f80fd5b8784015b838110156124e15780518781111561248b575f8081fd5b8501603f81018d1361249c575f8081fd5b8981015160406124ae611fe583611fa2565b8281528f828486010111156124c2575f8081fd5b6124d1838e830184870161205d565b8652505050918801918801612474565b50845250505082840151848201526124fb604084016123d9565b60408201529695505050505050565b634e487b7160e01b5f52601160045260245ffd5b8082028115828204841417610a6557610a6561250a565b5f8261254f57634e487b7160e01b5f52601260045260245ffd5b500490565b5f60208284031215612564575f80fd5b81516120bc816120c3565b634e487b7160e01b5f52603260045260245ffd5b634e487b7160e01b5f52602160045260245ffd5b600281106125b357634e487b7160e01b5f52602160045260245ffd5b9052565b6001600160a01b038681168252602082018690525f906125da6040840187612597565b80851660608401525060a060808301526125f760a083018461207f565b979650505050505050565b80820180821115610a6557610a6561250a565b5f600182016126265761262661250a565b5060010190565b81810381811115610a6557610a6561250a565b5f60208284031215612650575f80fd5b815180151581146120bc575f80fd5b600181811c9082168061267357607f821691505b60208210810361269157634e487b7160e01b5f52602260045260245ffd5b50919050565b604080825281018490525f8560608301825b878110156126d95782356126bc816120c3565b6001600160a01b03168252602092830192909101906001016126a9565b5083810360208501528481526001600160fb1b038511156126f8575f80fd5b8460051b915081866020830137016020019695505050505050565b5f60208284031215612723575f80fd5b81356120bc816122ae565b5f808335601e19843603018112612743575f80fd5b8301803591506001600160401b0382111561275c575f80fd5b6020019150600581901b3603821315612208575f80fd5b5f808335601e19843603018112612788575f80fd5b8301803591506001600160401b038211156127a1575f80fd5b602001915036819003821315612208575f80fd5b6001600160a01b038781168252602082018790525f906127d86040840188612597565b80861660608401525060a060808301528260a0830152828460c08401375f60c0848401015260c0601f19601f8501168301019050979650505050505050565b5f6020808385031215612828575f80fd5b82516001600160401b0381111561283d575f80fd5b8301601f8101851361284d575f80fd5b805161285b611fe5826123b7565b81815260059190911b82018301908381019087831115612879575f80fd5b928401925b828410156125f7578351612891816120c3565b8252928401929084019061287e565b5f8151808452602080850194508084015f5b838110156128d75781516001600160a01b0316875295820195908201906001016128b2565b509495945050505050565b828152604060208201525f6128fa60408301846128a0565b949350505050565b5f6020808385031215612913575f80fd5b82516001600160401b03811115612928575f80fd5b8301601f81018513612938575f80fd5b8051612946611fe5826123b7565b81815260059190911b82018301908381019087831115612964575f80fd5b928401925b828410156125f757835182529284019290840190612969565b85815284602082015260a060408201525f6129a060a08301866128a0565b6001600160a01b0394909416606083015250608001529392505050565b604081525f6129cf604083018561207f565b90508260208301529392505050565b602081525f825160a060208401526129f960c084018261207f565b905060018060a01b0360208501511660408401526040840151606084015260608401516080840152608084015160a08401528091505092915050565b5f8251612a4681846020870161205d565b919091019291505056fea2646970667358221220ab8a5c674b37dce16c3645c864c042a2673fcf3aba024145aecd65f625b51f7b64736f6c63430008140033",
					"opcodes": "PUSH1 0x80 PUSH1 0x40 MSTORE PUSH1 0xE DUP1 SLOAD PUSH1 0xFF PUSH1 0x20 SHL NOT AND SWAP1 SSTORE CALLVALUE DUP1 ISZERO PUSH3 0x1D JUMPI PUSH0 DUP1 REVERT JUMPDEST POP PUSH1 0x40 MLOAD PUSH3 0x2EA0 CODESIZE SUB DUP1 PUSH3 0x2EA0 DUP4 CODECOPY DUP2 ADD PUSH1 0x40 DUP2 SWAP1 MSTORE PUSH3 0x40 SWAP2 PUSH3 0x21C JUMP JUMPDEST DUP3 DUP3 DUP3 DUP8 DUP8 CALLER DUP1 PUSH3 0x6B JUMPI PUSH1 0x40 MLOAD PUSH4 0x1E4FBDF7 PUSH1 0xE0 SHL DUP2 MSTORE PUSH0 PUSH1 0x4 DUP3 ADD MSTORE PUSH1 0x24 ADD PUSH1 0x40 MLOAD DUP1 SWAP2 SUB SWAP1 REVERT JUMPDEST PUSH3 0x76 DUP2 PUSH3 0xF3 JUMP JUMPDEST POP PUSH1 0x4 PUSH3 0x85 DUP4 DUP3 PUSH3 0x344 JUMP JUMPDEST POP PUSH1 0x5 PUSH3 0x94 DUP3 DUP3 PUSH3 0x344 JUMP JUMPDEST POP POP PUSH1 0x9 DUP1 SLOAD PUSH1 0x1 PUSH1 0x1 PUSH1 0xA0 SHL SUB SWAP6 DUP7 AND PUSH1 0x1 PUSH1 0x1 PUSH1 0xA0 SHL SUB NOT SWAP2 DUP3 AND OR SWAP1 SWAP2 SSTORE PUSH1 0xA DUP1 SLOAD SWAP5 DUP7 AND SWAP5 DUP3 AND SWAP5 SWAP1 SWAP5 OR SWAP1 SWAP4 SSTORE POP PUSH1 0xB DUP1 SLOAD SWAP2 SWAP1 SWAP4 AND SWAP1 DUP3 AND OR SWAP1 SWAP2 SSTORE PUSH2 0x3E8 PUSH1 0x7 SSTORE PUSH1 0x10 DUP1 SLOAD SWAP1 SWAP2 AND CALLER OR SWAP1 SSTORE POP PUSH3 0x40C SWAP4 POP POP POP POP JUMP JUMPDEST PUSH0 DUP1 SLOAD PUSH1 0x1 PUSH1 0x1 PUSH1 0xA0 SHL SUB DUP4 DUP2 AND PUSH1 0x1 PUSH1 0x1 PUSH1 0xA0 SHL SUB NOT DUP4 AND DUP2 OR DUP5 SSTORE PUSH1 0x40 MLOAD SWAP2 SWAP1 SWAP3 AND SWAP3 DUP4 SWAP2 PUSH32 0x8BE0079C531659141344CD1FD0A4F28419497F9722A3DAAFE3B4186F6B6457E0 SWAP2 SWAP1 LOG3 POP POP JUMP JUMPDEST PUSH4 0x4E487B71 PUSH1 0xE0 SHL PUSH0 MSTORE PUSH1 0x41 PUSH1 0x4 MSTORE PUSH1 0x24 PUSH0 REVERT JUMPDEST PUSH0 DUP3 PUSH1 0x1F DUP4 ADD SLT PUSH3 0x166 JUMPI PUSH0 DUP1 REVERT JUMPDEST DUP2 MLOAD PUSH1 0x1 PUSH1 0x1 PUSH1 0x40 SHL SUB DUP1 DUP3 GT ISZERO PUSH3 0x183 JUMPI PUSH3 0x183 PUSH3 0x142 JUMP JUMPDEST PUSH1 0x40 MLOAD PUSH1 0x1F DUP4 ADD PUSH1 0x1F NOT SWAP1 DUP2 AND PUSH1 0x3F ADD AND DUP2 ADD SWAP1 DUP3 DUP3 GT DUP2 DUP4 LT OR ISZERO PUSH3 0x1AE JUMPI PUSH3 0x1AE PUSH3 0x142 JUMP JUMPDEST DUP2 PUSH1 0x40 MSTORE DUP4 DUP2 MSTORE PUSH1 0x20 SWAP3 POP DUP7 DUP4 DUP6 DUP9 ADD ADD GT ISZERO PUSH3 0x1CA JUMPI PUSH0 DUP1 REVERT JUMPDEST PUSH0 SWAP2 POP JUMPDEST DUP4 DUP3 LT ISZERO PUSH3 0x1ED JUMPI DUP6 DUP3 ADD DUP4 ADD MLOAD DUP2 DUP4 ADD DUP5 ADD MSTORE SWAP1 DUP3 ADD SWAP1 PUSH3 0x1CE JUMP JUMPDEST PUSH0 SWAP4 DUP2 ADD SWAP1 SWAP3 ADD SWAP3 SWAP1 SWAP3 MSTORE SWAP5 SWAP4 POP POP POP POP JUMP JUMPDEST DUP1 MLOAD PUSH1 0x1 PUSH1 0x1 PUSH1 0xA0 SHL SUB DUP2 AND DUP2 EQ PUSH3 0x217 JUMPI PUSH0 DUP1 REVERT JUMPDEST SWAP2 SWAP1 POP JUMP JUMPDEST PUSH0 DUP1 PUSH0 DUP1 PUSH0 PUSH1 0xA0 DUP7 DUP9 SUB SLT ISZERO PUSH3 0x231 JUMPI PUSH0 DUP1 REVERT JUMPDEST DUP6 MLOAD PUSH1 0x1 PUSH1 0x1 PUSH1 0x40 SHL SUB DUP1 DUP3 GT ISZERO PUSH3 0x248 JUMPI PUSH0 DUP1 REVERT JUMPDEST PUSH3 0x256 DUP10 DUP4 DUP11 ADD PUSH3 0x156 JUMP JUMPDEST SWAP7 POP PUSH1 0x20 DUP9 ADD MLOAD SWAP2 POP DUP1 DUP3 GT ISZERO PUSH3 0x26C JUMPI PUSH0 DUP1 REVERT JUMPDEST POP PUSH3 0x27B DUP9 DUP3 DUP10 ADD PUSH3 0x156 JUMP JUMPDEST SWAP5 POP POP PUSH3 0x28C PUSH1 0x40 DUP8 ADD PUSH3 0x200 JUMP JUMPDEST SWAP3 POP PUSH3 0x29C PUSH1 0x60 DUP8 ADD PUSH3 0x200 JUMP JUMPDEST SWAP2 POP PUSH3 0x2AC PUSH1 0x80 DUP8 ADD PUSH3 0x200 JUMP JUMPDEST SWAP1 POP SWAP3 SWAP6 POP SWAP3 SWAP6 SWAP1 SWAP4 POP JUMP JUMPDEST PUSH1 0x1 DUP2 DUP2 SHR SWAP1 DUP3 AND DUP1 PUSH3 0x2CD JUMPI PUSH1 0x7F DUP3 AND SWAP2 POP JUMPDEST PUSH1 0x20 DUP3 LT DUP2 SUB PUSH3 0x2EC JUMPI PUSH4 0x4E487B71 PUSH1 0xE0 SHL PUSH0 MSTORE PUSH1 0x22 PUSH1 0x4 MSTORE PUSH1 0x24 PUSH0 REVERT JUMPDEST POP SWAP2 SWAP1 POP JUMP JUMPDEST PUSH1 0x1F DUP3 GT ISZERO PUSH3 0x33F JUMPI PUSH0 DUP2 DUP2 MSTORE PUSH1 0x20 DUP2 KECCAK256 PUSH1 0x1F DUP6 ADD PUSH1 0x5 SHR DUP2 ADD PUSH1 0x20 DUP7 LT ISZERO PUSH3 0x31A JUMPI POP DUP1 JUMPDEST PUSH1 0x1F DUP6 ADD PUSH1 0x5 SHR DUP3 ADD SWAP2 POP JUMPDEST DUP2 DUP2 LT ISZERO PUSH3 0x33B JUMPI DUP3 DUP2 SSTORE PUSH1 0x1 ADD PUSH3 0x326 JUMP JUMPDEST POP POP POP JUMPDEST POP POP POP JUMP JUMPDEST DUP2 MLOAD PUSH1 0x1 PUSH1 0x1 PUSH1 0x40 SHL SUB DUP2 GT ISZERO PUSH3 0x360 JUMPI PUSH3 0x360 PUSH3 0x142 JUMP JUMPDEST PUSH3 0x378 DUP2 PUSH3 0x371 DUP5 SLOAD PUSH3 0x2B8 JUMP JUMPDEST DUP5 PUSH3 0x2F2 JUMP JUMPDEST PUSH1 0x20 DUP1 PUSH1 0x1F DUP4 GT PUSH1 0x1 DUP2 EQ PUSH3 0x3AE JUMPI PUSH0 DUP5 ISZERO PUSH3 0x396 JUMPI POP DUP6 DUP4 ADD MLOAD JUMPDEST PUSH0 NOT PUSH1 0x3 DUP7 SWAP1 SHL SHR NOT AND PUSH1 0x1 DUP6 SWAP1 SHL OR DUP6 SSTORE PUSH3 0x33B JUMP JUMPDEST PUSH0 DUP6 DUP2 MSTORE PUSH1 0x20 DUP2 KECCAK256 PUSH1 0x1F NOT DUP7 AND SWAP2 JUMPDEST DUP3 DUP2 LT ISZERO PUSH3 0x3DE JUMPI DUP9 DUP7 ADD MLOAD DUP3 SSTORE SWAP5 DUP5 ADD SWAP5 PUSH1 0x1 SWAP1 SWAP2 ADD SWAP1 DUP5 ADD PUSH3 0x3BD JUMP JUMPDEST POP DUP6 DUP3 LT ISZERO PUSH3 0x3FC JUMPI DUP8 DUP6 ADD MLOAD PUSH0 NOT PUSH1 0x3 DUP9 SWAP1 SHL PUSH1 0xF8 AND SHR NOT AND DUP2 SSTORE JUMPDEST POP POP POP POP POP PUSH1 0x1 SWAP1 DUP2 SHL ADD SWAP1 SSTORE POP JUMP JUMPDEST PUSH2 0x2A86 DUP1 PUSH3 0x41A PUSH0 CODECOPY PUSH0 RETURN INVALID PUSH1 0x80 PUSH1 0x40 MSTORE PUSH1 0x4 CALLDATASIZE LT PUSH2 0x1C4 JUMPI PUSH0 CALLDATALOAD PUSH1 0xE0 SHR DUP1 PUSH4 0x67A52793 GT PUSH2 0xF2 JUMPI DUP1 PUSH4 0x945098DB GT PUSH2 0x92 JUMPI DUP1 PUSH4 0xC38CD0B5 GT PUSH2 0x62 JUMPI DUP1 PUSH4 0xC38CD0B5 EQ PUSH2 0x553 JUMPI DUP1 PUSH4 0xD03153AA EQ PUSH2 0x57E JUMPI DUP1 PUSH4 0xDD62ED3E EQ PUSH2 0x593 JUMPI DUP1 PUSH4 0xF2FDE38B EQ PUSH2 0x5D7 JUMPI PUSH0 DUP1 REVERT JUMPDEST DUP1 PUSH4 0x945098DB EQ PUSH2 0x4EE JUMPI DUP1 PUSH4 0x95D89B41 EQ PUSH2 0x501 JUMPI DUP1 PUSH4 0xA738C7DF EQ PUSH2 0x515 JUMPI DUP1 PUSH4 0xA9059CBB EQ PUSH2 0x534 JUMPI PUSH0 DUP1 REVERT JUMPDEST DUP1 PUSH4 0x74A66061 GT PUSH2 0xCD JUMPI DUP1 PUSH4 0x74A66061 EQ PUSH2 0x478 JUMPI DUP1 PUSH4 0x81A06B73 EQ PUSH2 0x497 JUMPI DUP1 PUSH4 0x8BC7E8C4 EQ PUSH2 0x4B8 JUMPI DUP1 PUSH4 0x8DA5CB5B EQ PUSH2 0x4D2 JUMPI PUSH0 DUP1 REVERT JUMPDEST DUP1 PUSH4 0x67A52793 EQ PUSH2 0x3FD JUMPI DUP1 PUSH4 0x70A08231 EQ PUSH2 0x430 JUMPI DUP1 PUSH4 0x715018A6 EQ PUSH2 0x464 JUMPI PUSH0 DUP1 REVERT JUMPDEST DUP1 PUSH4 0x2A5C792A GT PUSH2 0x168 JUMPI DUP1 PUSH4 0x36A43F2B GT PUSH2 0x138 JUMPI DUP1 PUSH4 0x36A43F2B EQ PUSH2 0x34F JUMPI DUP1 PUSH4 0x378A653C EQ PUSH2 0x37A JUMPI DUP1 PUSH4 0x3F595E29 EQ PUSH2 0x3BF JUMPI DUP1 PUSH4 0x4D20D0F8 EQ PUSH2 0x3DE JUMPI PUSH0 DUP1 REVERT JUMPDEST DUP1 PUSH4 0x2A5C792A EQ PUSH2 0x2D5 JUMPI DUP1 PUSH4 0x2C76D7A6 EQ PUSH2 0x2F6 JUMPI DUP1 PUSH4 0x3043D4D9 EQ PUSH2 0x315 JUMPI DUP1 PUSH4 0x313CE567 EQ PUSH2 0x334 JUMPI PUSH0 DUP1 REVERT JUMPDEST DUP1 PUSH4 0x117DA1EE GT PUSH2 0x1A3 JUMPI DUP1 PUSH4 0x117DA1EE EQ PUSH2 0x242 JUMPI DUP1 PUSH4 0x1694505E EQ PUSH2 0x261 JUMPI DUP1 PUSH4 0x18160DDD EQ PUSH2 0x298 JUMPI DUP1 PUSH4 0x23B872DD EQ PUSH2 0x2B6 JUMPI PUSH0 DUP1 REVERT JUMPDEST DUP1 PUSH3 0xD06DDD EQ PUSH2 0x1C8 JUMPI DUP1 PUSH4 0x6FDDE03 EQ PUSH2 0x1E9 JUMPI DUP1 PUSH4 0x95EA7B3 EQ PUSH2 0x213 JUMPI JUMPDEST PUSH0 DUP1 REVERT JUMPDEST CALLVALUE DUP1 ISZERO PUSH2 0x1D3 JUMPI PUSH0 DUP1 REVERT JUMPDEST POP PUSH2 0x1E7 PUSH2 0x1E2 CALLDATASIZE PUSH1 0x4 PUSH2 0x201A JUMP JUMPDEST PUSH2 0x5F6 JUMP JUMPDEST STOP JUMPDEST CALLVALUE DUP1 ISZERO PUSH2 0x1F4 JUMPI PUSH0 DUP1 REVERT JUMPDEST POP PUSH2 0x1FD PUSH2 0x9C2 JUMP JUMPDEST PUSH1 0x40 MLOAD PUSH2 0x20A SWAP2 SWAP1 PUSH2 0x20AA JUMP JUMPDEST PUSH1 0x40 MLOAD DUP1 SWAP2 SUB SWAP1 RETURN JUMPDEST CALLVALUE DUP1 ISZERO PUSH2 0x21E JUMPI PUSH0 DUP1 REVERT JUMPDEST POP PUSH2 0x232 PUSH2 0x22D CALLDATASIZE PUSH1 0x4 PUSH2 0x20D7 JUMP JUMPDEST PUSH2 0xA52 JUMP JUMPDEST PUSH1 0x40 MLOAD SWAP1 ISZERO ISZERO DUP2 MSTORE PUSH1 0x20 ADD PUSH2 0x20A JUMP JUMPDEST CALLVALUE DUP1 ISZERO PUSH2 0x24D JUMPI PUSH0 DUP1 REVERT JUMPDEST POP PUSH2 0x1E7 PUSH2 0x25C CALLDATASIZE PUSH1 0x4 PUSH2 0x2101 JUMP JUMPDEST PUSH2 0xA6B JUMP JUMPDEST CALLVALUE DUP1 ISZERO PUSH2 0x26C JUMPI PUSH0 DUP1 REVERT JUMPDEST POP PUSH1 0x9 SLOAD PUSH2 0x280 SWAP1 PUSH1 0x1 PUSH1 0x1 PUSH1 0xA0 SHL SUB AND DUP2 JUMP JUMPDEST PUSH1 0x40 MLOAD PUSH1 0x1 PUSH1 0x1 PUSH1 0xA0 SHL SUB SWAP1 SWAP2 AND DUP2 MSTORE PUSH1 0x20 ADD PUSH2 0x20A JUMP JUMPDEST CALLVALUE DUP1 ISZERO PUSH2 0x2A3 JUMPI PUSH0 DUP1 REVERT JUMPDEST POP PUSH1 0x3 SLOAD JUMPDEST PUSH1 0x40 MLOAD SWAP1 DUP2 MSTORE PUSH1 0x20 ADD PUSH2 0x20A JUMP JUMPDEST CALLVALUE DUP1 ISZERO PUSH2 0x2C1 JUMPI PUSH0 DUP1 REVERT JUMPDEST POP PUSH2 0x232 PUSH2 0x2D0 CALLDATASIZE PUSH1 0x4 PUSH2 0x2118 JUMP JUMPDEST PUSH2 0xAAB JUMP JUMPDEST CALLVALUE DUP1 ISZERO PUSH2 0x2E0 JUMPI PUSH0 DUP1 REVERT JUMPDEST POP PUSH2 0x2E9 PUSH2 0xACE JUMP JUMPDEST PUSH1 0x40 MLOAD PUSH2 0x20A SWAP2 SWAP1 PUSH2 0x2156 JUMP JUMPDEST CALLVALUE DUP1 ISZERO PUSH2 0x301 JUMPI PUSH0 DUP1 REVERT JUMPDEST POP PUSH1 0xA SLOAD PUSH2 0x280 SWAP1 PUSH1 0x1 PUSH1 0x1 PUSH1 0xA0 SHL SUB AND DUP2 JUMP JUMPDEST CALLVALUE DUP1 ISZERO PUSH2 0x320 JUMPI PUSH0 DUP1 REVERT JUMPDEST POP PUSH2 0x1E7 PUSH2 0x32F CALLDATASIZE PUSH1 0x4 PUSH2 0x2101 JUMP JUMPDEST PUSH2 0xB41 JUMP JUMPDEST CALLVALUE DUP1 ISZERO PUSH2 0x33F JUMPI PUSH0 DUP1 REVERT JUMPDEST POP PUSH1 0x40 MLOAD PUSH1 0x12 DUP2 MSTORE PUSH1 0x20 ADD PUSH2 0x20A JUMP JUMPDEST CALLVALUE DUP1 ISZERO PUSH2 0x35A JUMPI PUSH0 DUP1 REVERT JUMPDEST POP PUSH2 0x2A8 PUSH2 0x369 CALLDATASIZE PUSH1 0x4 PUSH2 0x21AD JUMP JUMPDEST PUSH1 0x8 PUSH1 0x20 MSTORE PUSH0 SWAP1 DUP2 MSTORE PUSH1 0x40 SWAP1 KECCAK256 SLOAD DUP2 JUMP JUMPDEST CALLVALUE DUP1 ISZERO PUSH2 0x385 JUMPI PUSH0 DUP1 REVERT JUMPDEST POP PUSH2 0x399 PUSH2 0x394 CALLDATASIZE PUSH1 0x4 PUSH2 0x2101 JUMP JUMPDEST PUSH2 0xD33 JUMP JUMPDEST PUSH1 0x40 DUP1 MLOAD PUSH1 0x1 PUSH1 0x1 PUSH1 0xA0 SHL SUB SWAP5 DUP6 AND DUP2 MSTORE SWAP4 SWAP1 SWAP3 AND PUSH1 0x20 DUP5 ADD MSTORE SWAP1 DUP3 ADD MSTORE PUSH1 0x60 ADD PUSH2 0x20A JUMP JUMPDEST CALLVALUE DUP1 ISZERO PUSH2 0x3CA JUMPI PUSH0 DUP1 REVERT JUMPDEST POP PUSH2 0x1E7 PUSH2 0x3D9 CALLDATASIZE PUSH1 0x4 PUSH2 0x2225 JUMP JUMPDEST PUSH2 0xD71 JUMP JUMPDEST CALLVALUE DUP1 ISZERO PUSH2 0x3E9 JUMPI PUSH0 DUP1 REVERT JUMPDEST POP PUSH1 0xB SLOAD PUSH2 0x280 SWAP1 PUSH1 0x1 PUSH1 0x1 PUSH1 0xA0 SHL SUB AND DUP2 JUMP JUMPDEST CALLVALUE DUP1 ISZERO PUSH2 0x408 JUMPI PUSH0 DUP1 REVERT JUMPDEST POP PUSH1 0xE SLOAD PUSH2 0x41D SWAP1 PUSH3 0x10000 SWAP1 DIV PUSH2 0xFFFF AND DUP2 JUMP JUMPDEST PUSH1 0x40 MLOAD PUSH2 0xFFFF SWAP1 SWAP2 AND DUP2 MSTORE PUSH1 0x20 ADD PUSH2 0x20A JUMP JUMPDEST CALLVALUE DUP1 ISZERO PUSH2 0x43B JUMPI PUSH0 DUP1 REVERT JUMPDEST POP PUSH2 0x2A8 PUSH2 0x44A CALLDATASIZE PUSH1 0x4 PUSH2 0x21AD JUMP JUMPDEST PUSH1 0x1 PUSH1 0x1 PUSH1 0xA0 SHL SUB AND PUSH0 SWAP1 DUP2 MSTORE PUSH1 0x1 PUSH1 0x20 MSTORE PUSH1 0x40 SWAP1 KECCAK256 SLOAD SWAP1 JUMP JUMPDEST CALLVALUE DUP1 ISZERO PUSH2 0x46F JUMPI PUSH0 DUP1 REVERT JUMPDEST POP PUSH2 0x1E7 PUSH2 0xFFE JUMP JUMPDEST CALLVALUE DUP1 ISZERO PUSH2 0x483 JUMPI PUSH0 DUP1 REVERT JUMPDEST POP PUSH2 0x2A8 PUSH2 0x492 CALLDATASIZE PUSH1 0x4 PUSH2 0x22BA JUMP JUMPDEST PUSH2 0x1011 JUMP JUMPDEST CALLVALUE DUP1 ISZERO PUSH2 0x4A2 JUMPI PUSH0 DUP1 REVERT JUMPDEST POP PUSH1 0xE SLOAD PUSH2 0x232 SWAP1 PUSH5 0x100000000 SWAP1 DIV PUSH1 0xFF AND DUP2 JUMP JUMPDEST CALLVALUE DUP1 ISZERO PUSH2 0x4C3 JUMPI PUSH0 DUP1 REVERT JUMPDEST POP PUSH1 0xE SLOAD PUSH2 0x41D SWAP1 PUSH2 0xFFFF AND DUP2 JUMP JUMPDEST CALLVALUE DUP1 ISZERO PUSH2 0x4DD JUMPI PUSH0 DUP1 REVERT JUMPDEST POP PUSH0 SLOAD PUSH1 0x1 PUSH1 0x1 PUSH1 0xA0 SHL SUB AND PUSH2 0x280 JUMP JUMPDEST PUSH2 0x1E7 PUSH2 0x4FC CALLDATASIZE PUSH1 0x4 PUSH2 0x2333 JUMP JUMPDEST PUSH2 0x1099 JUMP JUMPDEST CALLVALUE DUP1 ISZERO PUSH2 0x50C JUMPI PUSH0 DUP1 REVERT JUMPDEST POP PUSH2 0x1FD PUSH2 0x14DB JUMP JUMPDEST CALLVALUE DUP1 ISZERO PUSH2 0x520 JUMPI PUSH0 DUP1 REVERT JUMPDEST POP PUSH2 0x1E7 PUSH2 0x52F CALLDATASIZE PUSH1 0x4 PUSH2 0x21AD JUMP JUMPDEST PUSH2 0x14EA JUMP JUMPDEST CALLVALUE DUP1 ISZERO PUSH2 0x53F JUMPI PUSH0 DUP1 REVERT JUMPDEST POP PUSH2 0x232 PUSH2 0x54E CALLDATASIZE PUSH1 0x4 PUSH2 0x20D7 JUMP JUMPDEST PUSH2 0x1593 JUMP JUMPDEST CALLVALUE DUP1 ISZERO PUSH2 0x55E JUMPI PUSH0 DUP1 REVERT JUMPDEST POP PUSH2 0x2A8 PUSH2 0x56D CALLDATASIZE PUSH1 0x4 PUSH2 0x21AD JUMP JUMPDEST PUSH1 0xF PUSH1 0x20 MSTORE PUSH0 SWAP1 DUP2 MSTORE PUSH1 0x40 SWAP1 KECCAK256 SLOAD DUP2 JUMP JUMPDEST CALLVALUE DUP1 ISZERO PUSH2 0x589 JUMPI PUSH0 DUP1 REVERT JUMPDEST POP PUSH2 0x2A8 PUSH1 0x7 SLOAD DUP2 JUMP JUMPDEST CALLVALUE DUP1 ISZERO PUSH2 0x59E JUMPI PUSH0 DUP1 REVERT JUMPDEST POP PUSH2 0x2A8 PUSH2 0x5AD CALLDATASIZE PUSH1 0x4 PUSH2 0x2369 JUMP JUMPDEST PUSH1 0x1 PUSH1 0x1 PUSH1 0xA0 SHL SUB SWAP2 DUP3 AND PUSH0 SWAP1 DUP2 MSTORE PUSH1 0x2 PUSH1 0x20 SWAP1 DUP2 MSTORE PUSH1 0x40 DUP1 DUP4 KECCAK256 SWAP4 SWAP1 SWAP5 AND DUP3 MSTORE SWAP2 SWAP1 SWAP2 MSTORE KECCAK256 SLOAD SWAP1 JUMP JUMPDEST CALLVALUE DUP1 ISZERO PUSH2 0x5E2 JUMPI PUSH0 DUP1 REVERT JUMPDEST POP PUSH2 0x1E7 PUSH2 0x5F1 CALLDATASIZE PUSH1 0x4 PUSH2 0x21AD JUMP JUMPDEST PUSH2 0x15A0 JUMP JUMPDEST PUSH0 DUP3 GT PUSH2 0x62F JUMPI PUSH1 0x40 MLOAD PUSH3 0x461BCD PUSH1 0xE5 SHL DUP2 MSTORE PUSH1 0x20 PUSH1 0x4 DUP3 ADD MSTORE PUSH1 0x2 PUSH1 0x24 DUP3 ADD MSTORE PUSH2 0x3E3 PUSH1 0xF4 SHL PUSH1 0x44 DUP3 ADD MSTORE PUSH1 0x64 ADD JUMPDEST PUSH1 0x40 MLOAD DUP1 SWAP2 SUB SWAP1 REVERT JUMPDEST PUSH1 0x40 MLOAD PUSH4 0x70A08231 PUSH1 0xE0 SHL DUP2 MSTORE CALLER PUSH1 0x4 DUP3 ADD MSTORE DUP3 SWAP1 ADDRESS SWAP1 PUSH4 0x70A08231 SWAP1 PUSH1 0x24 ADD PUSH1 0x20 PUSH1 0x40 MLOAD DUP1 DUP4 SUB DUP2 DUP7 GAS STATICCALL ISZERO DUP1 ISZERO PUSH2 0x66A JUMPI RETURNDATASIZE PUSH0 DUP1 RETURNDATACOPY RETURNDATASIZE PUSH0 REVERT JUMPDEST POP POP POP POP PUSH1 0x40 MLOAD RETURNDATASIZE PUSH1 0x1F NOT PUSH1 0x1F DUP3 ADD AND DUP3 ADD DUP1 PUSH1 0x40 MSTORE POP DUP2 ADD SWAP1 PUSH2 0x68E SWAP2 SWAP1 PUSH2 0x23A0 JUMP JUMPDEST LT ISZERO PUSH2 0x6CC JUMPI PUSH1 0x40 MLOAD PUSH3 0x461BCD PUSH1 0xE5 SHL DUP2 MSTORE PUSH1 0x20 PUSH1 0x4 DUP3 ADD MSTORE PUSH1 0xD PUSH1 0x24 DUP3 ADD MSTORE PUSH13 0x8525B9CDD59999A58DA595B9D PUSH1 0x9A SHL PUSH1 0x44 DUP3 ADD MSTORE PUSH1 0x64 ADD PUSH2 0x626 JUMP JUMPDEST PUSH0 DUP2 DUP1 PUSH1 0x20 ADD SWAP1 MLOAD DUP2 ADD SWAP1 PUSH2 0x6E1 SWAP2 SWAP1 PUSH2 0x23E4 JUMP JUMPDEST SWAP1 POP PUSH0 PUSH2 0x6ED PUSH1 0x3 SLOAD SWAP1 JUMP JUMPDEST PUSH2 0x6F9 DUP6 PUSH2 0x2710 PUSH2 0x251E JUMP JUMPDEST PUSH2 0x703 SWAP2 SWAP1 PUSH2 0x2535 JUMP JUMPDEST SWAP1 POP PUSH0 PUSH1 0x9 PUSH0 SWAP1 SLOAD SWAP1 PUSH2 0x100 EXP SWAP1 DIV PUSH1 0x1 PUSH1 0x1 PUSH1 0xA0 SHL SUB AND PUSH1 0x1 PUSH1 0x1 PUSH1 0xA0 SHL SUB AND PUSH4 0xAD5C4648 PUSH1 0x40 MLOAD DUP2 PUSH4 0xFFFFFFFF AND PUSH1 0xE0 SHL DUP2 MSTORE PUSH1 0x4 ADD PUSH1 0x20 PUSH1 0x40 MLOAD DUP1 DUP4 SUB DUP2 DUP7 GAS STATICCALL ISZERO DUP1 ISZERO PUSH2 0x756 JUMPI RETURNDATASIZE PUSH0 DUP1 RETURNDATACOPY RETURNDATASIZE PUSH0 REVERT JUMPDEST POP POP POP POP PUSH1 0x40 MLOAD RETURNDATASIZE PUSH1 0x1F NOT PUSH1 0x1F DUP3 ADD AND DUP3 ADD DUP1 PUSH1 0x40 MSTORE POP DUP2 ADD SWAP1 PUSH2 0x77A SWAP2 SWAP1 PUSH2 0x2554 JUMP JUMPDEST SWAP1 POP PUSH0 DUP1 JUMPDEST PUSH1 0xC SLOAD DUP2 LT ISZERO PUSH2 0x8F1 JUMPI PUSH0 PUSH1 0xC DUP3 DUP2 SLOAD DUP2 LT PUSH2 0x79D JUMPI PUSH2 0x79D PUSH2 0x256F JUMP JUMPDEST PUSH0 SWAP2 DUP3 MSTORE PUSH1 0x20 DUP3 KECCAK256 PUSH1 0x2 SWAP2 SWAP1 SWAP2 MUL ADD DUP1 SLOAD PUSH1 0x40 MLOAD PUSH4 0x70A08231 PUSH1 0xE0 SHL DUP2 MSTORE ADDRESS PUSH1 0x4 DUP3 ADD MSTORE SWAP2 SWAP4 POP PUSH2 0x2710 SWAP2 DUP9 SWAP2 PUSH1 0x1 PUSH1 0x1 PUSH1 0xA0 SHL SUB AND SWAP1 PUSH4 0x70A08231 SWAP1 PUSH1 0x24 ADD PUSH1 0x20 PUSH1 0x40 MLOAD DUP1 DUP4 SUB DUP2 DUP7 GAS STATICCALL ISZERO DUP1 ISZERO PUSH2 0x7F8 JUMPI RETURNDATASIZE PUSH0 DUP1 RETURNDATACOPY RETURNDATASIZE PUSH0 REVERT JUMPDEST POP POP POP POP PUSH1 0x40 MLOAD RETURNDATASIZE PUSH1 0x1F NOT PUSH1 0x1F DUP3 ADD AND DUP3 ADD DUP1 PUSH1 0x40 MSTORE POP DUP2 ADD SWAP1 PUSH2 0x81C SWAP2 SWAP1 PUSH2 0x23A0 JUMP JUMPDEST PUSH2 0x826 SWAP2 SWAP1 PUSH2 0x251E JUMP JUMPDEST PUSH2 0x830 SWAP2 SWAP1 PUSH2 0x2535 JUMP JUMPDEST DUP3 SLOAD PUSH1 0x40 DUP10 ADD MLOAD DUP10 MLOAD DUP1 MLOAD SWAP4 SWAP5 POP ADDRESS SWAP4 PUSH4 0x74A66061 SWAP4 PUSH1 0x1 PUSH1 0x1 PUSH1 0xA0 SHL SUB AND SWAP3 DUP7 SWAP3 SWAP1 SWAP2 CALLER SWAP2 SWAP1 DUP11 SWAP1 DUP2 LT PUSH2 0x867 JUMPI PUSH2 0x867 PUSH2 0x256F JUMP JUMPDEST PUSH1 0x20 MUL PUSH1 0x20 ADD ADD MLOAD PUSH1 0x40 MLOAD DUP7 PUSH4 0xFFFFFFFF AND PUSH1 0xE0 SHL DUP2 MSTORE PUSH1 0x4 ADD PUSH2 0x88F SWAP6 SWAP5 SWAP4 SWAP3 SWAP2 SWAP1 PUSH2 0x25B7 JUMP JUMPDEST PUSH1 0x20 PUSH1 0x40 MLOAD DUP1 DUP4 SUB DUP2 PUSH0 DUP8 GAS CALL SWAP3 POP POP POP DUP1 ISZERO PUSH2 0x8C9 JUMPI POP PUSH1 0x40 DUP1 MLOAD PUSH1 0x1F RETURNDATASIZE SWAP1 DUP2 ADD PUSH1 0x1F NOT AND DUP3 ADD SWAP1 SWAP3 MSTORE PUSH2 0x8C6 SWAP2 DUP2 ADD SWAP1 PUSH2 0x23A0 JUMP JUMPDEST PUSH1 0x1 JUMPDEST ISZERO PUSH2 0x8DC JUMPI PUSH2 0x8D8 DUP2 DUP7 PUSH2 0x2602 JUMP JUMPDEST SWAP5 POP POP JUMPDEST POP POP DUP1 DUP1 PUSH2 0x8E9 SWAP1 PUSH2 0x2615 JUMP JUMPDEST SWAP2 POP POP PUSH2 0x77F JUMP JUMPDEST POP PUSH2 0x8FC CALLER DUP8 PUSH2 0x15DA JUMP JUMPDEST DUP1 ISZERO PUSH2 0x9BA JUMPI PUSH1 0xE SLOAD PUSH0 SWAP1 PUSH2 0x2710 SWAP1 PUSH2 0x919 SWAP1 PUSH2 0xFFFF AND DUP5 PUSH2 0x251E JUMP JUMPDEST PUSH2 0x923 SWAP2 SWAP1 PUSH2 0x2535 JUMP JUMPDEST SWAP1 POP PUSH0 PUSH2 0x930 DUP3 DUP5 PUSH2 0x262D JUMP JUMPDEST SWAP1 POP DUP2 PUSH1 0xD PUSH0 DUP3 DUP3 SLOAD PUSH2 0x943 SWAP2 SWAP1 PUSH2 0x2602 JUMP JUMPDEST SWAP1 SWAP2 SSTORE POP POP PUSH1 0x40 MLOAD PUSH4 0xA9059CBB PUSH1 0xE0 SHL DUP2 MSTORE CALLER PUSH1 0x4 DUP3 ADD MSTORE PUSH1 0x24 DUP2 ADD DUP3 SWAP1 MSTORE PUSH1 0x1 PUSH1 0x1 PUSH1 0xA0 SHL SUB DUP6 AND SWAP1 PUSH4 0xA9059CBB SWAP1 PUSH1 0x44 ADD PUSH1 0x20 PUSH1 0x40 MLOAD DUP1 DUP4 SUB DUP2 PUSH0 DUP8 GAS CALL ISZERO DUP1 ISZERO PUSH2 0x992 JUMPI RETURNDATASIZE PUSH0 DUP1 RETURNDATACOPY RETURNDATASIZE PUSH0 REVERT JUMPDEST POP POP POP POP PUSH1 0x40 MLOAD RETURNDATASIZE PUSH1 0x1F NOT PUSH1 0x1F DUP3 ADD AND DUP3 ADD DUP1 PUSH1 0x40 MSTORE POP DUP2 ADD SWAP1 PUSH2 0x9B6 SWAP2 SWAP1 PUSH2 0x2640 JUMP JUMPDEST POP POP POP JUMPDEST POP POP POP POP POP POP JUMP JUMPDEST PUSH1 0x60 PUSH1 0x4 DUP1 SLOAD PUSH2 0x9D1 SWAP1 PUSH2 0x265F JUMP JUMPDEST DUP1 PUSH1 0x1F ADD PUSH1 0x20 DUP1 SWAP2 DIV MUL PUSH1 0x20 ADD PUSH1 0x40 MLOAD SWAP1 DUP2 ADD PUSH1 0x40 MSTORE DUP1 SWAP3 SWAP2 SWAP1 DUP2 DUP2 MSTORE PUSH1 0x20 ADD DUP3 DUP1 SLOAD PUSH2 0x9FD SWAP1 PUSH2 0x265F JUMP JUMPDEST DUP1 ISZERO PUSH2 0xA48 JUMPI DUP1 PUSH1 0x1F LT PUSH2 0xA1F JUMPI PUSH2 0x100 DUP1 DUP4 SLOAD DIV MUL DUP4 MSTORE SWAP2 PUSH1 0x20 ADD SWAP2 PUSH2 0xA48 JUMP JUMPDEST DUP3 ADD SWAP2 SWAP1 PUSH0 MSTORE PUSH1 0x20 PUSH0 KECCAK256 SWAP1 JUMPDEST DUP2 SLOAD DUP2 MSTORE SWAP1 PUSH1 0x1 ADD SWAP1 PUSH1 0x20 ADD DUP1 DUP4 GT PUSH2 0xA2B JUMPI DUP3 SWAP1 SUB PUSH1 0x1F AND DUP3 ADD SWAP2 JUMPDEST POP POP POP POP POP SWAP1 POP SWAP1 JUMP JUMPDEST PUSH0 CALLER PUSH2 0xA5F DUP2 DUP6 DUP6 PUSH2 0x1612 JUMP JUMPDEST PUSH1 0x1 SWAP2 POP POP JUMPDEST SWAP3 SWAP2 POP POP JUMP JUMPDEST PUSH2 0x2710 DUP2 GT ISZERO PUSH2 0xAA6 JUMPI PUSH1 0x40 MLOAD PUSH3 0x461BCD PUSH1 0xE5 SHL DUP2 MSTORE PUSH1 0x4 ADD PUSH2 0x626 SWAP1 PUSH1 0x20 DUP1 DUP3 MSTORE PUSH1 0x4 SWAP1 DUP3 ADD MSTORE PUSH4 0x21534C5 PUSH1 0xE4 SHL PUSH1 0x40 DUP3 ADD MSTORE PUSH1 0x60 ADD SWAP1 JUMP JUMPDEST PUSH1 0x7 SSTORE JUMP JUMPDEST PUSH0 CALLER PUSH2 0xAB8 DUP6 DUP3 DUP6 PUSH2 0x161F JUMP JUMPDEST PUSH2 0xAC3 DUP6 DUP6 DUP6 PUSH2 0x1694 JUMP JUMPDEST POP PUSH1 0x1 SWAP5 SWAP4 POP POP POP POP JUMP JUMPDEST PUSH1 0x60 PUSH1 0xC DUP1 SLOAD DUP1 PUSH1 0x20 MUL PUSH1 0x20 ADD PUSH1 0x40 MLOAD SWAP1 DUP2 ADD PUSH1 0x40 MSTORE DUP1 SWAP3 SWAP2 SWAP1 DUP2 DUP2 MSTORE PUSH1 0x20 ADD PUSH0 SWAP1 JUMPDEST DUP3 DUP3 LT ISZERO PUSH2 0xB38 JUMPI PUSH0 DUP5 DUP2 MSTORE PUSH1 0x20 SWAP1 DUP2 SWAP1 KECCAK256 PUSH1 0x40 DUP1 MLOAD DUP1 DUP3 ADD SWAP1 SWAP2 MSTORE PUSH1 0x2 DUP6 MUL SWAP1 SWAP2 ADD DUP1 SLOAD PUSH1 0x1 PUSH1 0x1 PUSH1 0xA0 SHL SUB AND DUP3 MSTORE PUSH1 0x1 SWAP1 DUP2 ADD SLOAD DUP3 DUP5 ADD MSTORE SWAP1 DUP4 MSTORE SWAP1 SWAP3 ADD SWAP2 ADD PUSH2 0xAF1 JUMP JUMPDEST POP POP POP POP SWAP1 POP SWAP1 JUMP JUMPDEST PUSH0 DUP2 GT PUSH2 0xB76 JUMPI PUSH1 0x40 MLOAD PUSH3 0x461BCD PUSH1 0xE5 SHL DUP2 MSTORE PUSH1 0x20 PUSH1 0x4 DUP3 ADD MSTORE PUSH1 0x3 PUSH1 0x24 DUP3 ADD MSTORE PUSH3 0x573E3 PUSH1 0xEC SHL PUSH1 0x44 DUP3 ADD MSTORE PUSH1 0x64 ADD PUSH2 0x626 JUMP JUMPDEST CALLER PUSH0 SWAP1 DUP2 MSTORE PUSH1 0x1 PUSH1 0x20 MSTORE PUSH1 0x40 SWAP1 KECCAK256 SLOAD DUP2 GT ISZERO PUSH2 0xBBF JUMPI PUSH1 0x40 MLOAD PUSH3 0x461BCD PUSH1 0xE5 SHL DUP2 MSTORE PUSH1 0x20 PUSH1 0x4 DUP3 ADD MSTORE PUSH1 0x8 PUSH1 0x24 DUP3 ADD MSTORE PUSH8 0x2162616C616E6365 PUSH1 0xC0 SHL PUSH1 0x44 DUP3 ADD MSTORE PUSH1 0x64 ADD PUSH2 0x626 JUMP JUMPDEST PUSH0 PUSH2 0xBC9 PUSH1 0x3 SLOAD SWAP1 JUMP JUMPDEST PUSH2 0xBD5 DUP4 PUSH2 0x2710 PUSH2 0x251E JUMP JUMPDEST PUSH2 0xBDF SWAP2 SWAP1 PUSH2 0x2535 JUMP JUMPDEST SWAP1 POP PUSH2 0xBEB CALLER DUP4 PUSH2 0x15DA JUMP JUMPDEST PUSH0 JUMPDEST PUSH1 0xC SLOAD DUP2 LT ISZERO PUSH2 0xD2E JUMPI PUSH0 PUSH1 0xC DUP3 DUP2 SLOAD DUP2 LT PUSH2 0xC0B JUMPI PUSH2 0xC0B PUSH2 0x256F JUMP JUMPDEST PUSH0 SWAP2 DUP3 MSTORE PUSH1 0x20 DUP3 KECCAK256 PUSH1 0x2 SWAP2 SWAP1 SWAP2 MUL ADD DUP1 SLOAD PUSH1 0x40 MLOAD PUSH4 0x70A08231 PUSH1 0xE0 SHL DUP2 MSTORE ADDRESS PUSH1 0x4 DUP3 ADD MSTORE SWAP2 SWAP4 POP PUSH2 0x2710 SWAP2 DUP7 SWAP2 PUSH1 0x1 PUSH1 0x1 PUSH1 0xA0 SHL SUB AND SWAP1 PUSH4 0x70A08231 SWAP1 PUSH1 0x24 ADD PUSH1 0x20 PUSH1 0x40 MLOAD DUP1 DUP4 SUB DUP2 DUP7 GAS STATICCALL ISZERO DUP1 ISZERO PUSH2 0xC66 JUMPI RETURNDATASIZE PUSH0 DUP1 RETURNDATACOPY RETURNDATASIZE PUSH0 REVERT JUMPDEST POP POP POP POP PUSH1 0x40 MLOAD RETURNDATASIZE PUSH1 0x1F NOT PUSH1 0x1F DUP3 ADD AND DUP3 ADD DUP1 PUSH1 0x40 MSTORE POP DUP2 ADD SWAP1 PUSH2 0xC8A SWAP2 SWAP1 PUSH2 0x23A0 JUMP JUMPDEST PUSH2 0xC94 SWAP2 SWAP1 PUSH2 0x251E JUMP JUMPDEST PUSH2 0xC9E SWAP2 SWAP1 PUSH2 0x2535 JUMP JUMPDEST SWAP1 POP DUP1 ISZERO PUSH2 0xD19 JUMPI DUP2 SLOAD PUSH1 0x40 MLOAD PUSH4 0xA9059CBB PUSH1 0xE0 SHL DUP2 MSTORE CALLER PUSH1 0x4 DUP3 ADD MSTORE PUSH1 0x24 DUP2 ADD DUP4 SWAP1 MSTORE PUSH1 0x1 PUSH1 0x1 PUSH1 0xA0 SHL SUB SWAP1 SWAP2 AND SWAP1 PUSH4 0xA9059CBB SWAP1 PUSH1 0x44 ADD PUSH1 0x20 PUSH1 0x40 MLOAD DUP1 DUP4 SUB DUP2 PUSH0 DUP8 GAS CALL ISZERO DUP1 ISZERO PUSH2 0xCF3 JUMPI RETURNDATASIZE PUSH0 DUP1 RETURNDATACOPY RETURNDATASIZE PUSH0 REVERT JUMPDEST POP POP POP POP PUSH1 0x40 MLOAD RETURNDATASIZE PUSH1 0x1F NOT PUSH1 0x1F DUP3 ADD AND DUP3 ADD DUP1 PUSH1 0x40 MSTORE POP DUP2 ADD SWAP1 PUSH2 0xD17 SWAP2 SWAP1 PUSH2 0x2640 JUMP JUMPDEST POP JUMPDEST POP POP DUP1 DUP1 PUSH2 0xD26 SWAP1 PUSH2 0x2615 JUMP JUMPDEST SWAP2 POP POP PUSH2 0xBED JUMP JUMPDEST POP POP POP JUMP JUMPDEST PUSH1 0x6 DUP2 DUP2 SLOAD DUP2 LT PUSH2 0xD42 JUMPI PUSH0 DUP1 REVERT JUMPDEST PUSH0 SWAP2 DUP3 MSTORE PUSH1 0x20 SWAP1 SWAP2 KECCAK256 PUSH1 0x3 SWAP1 SWAP2 MUL ADD DUP1 SLOAD PUSH1 0x1 DUP3 ADD SLOAD PUSH1 0x2 SWAP1 SWAP3 ADD SLOAD PUSH1 0x1 PUSH1 0x1 PUSH1 0xA0 SHL SUB SWAP2 DUP3 AND SWAP4 POP SWAP2 AND SWAP1 DUP4 JUMP JUMPDEST PUSH2 0xD79 PUSH2 0x16F1 JUMP JUMPDEST PUSH1 0xE SLOAD PUSH5 0x100000000 SWAP1 DIV PUSH1 0xFF AND ISZERO PUSH2 0xDC2 JUMPI PUSH1 0x40 MLOAD PUSH3 0x461BCD PUSH1 0xE5 SHL DUP2 MSTORE PUSH1 0x20 PUSH1 0x4 DUP3 ADD MSTORE PUSH1 0xB PUSH1 0x24 DUP3 ADD MSTORE PUSH11 0x1A5B9A5D1A585B1A5E9959 PUSH1 0xAA SHL PUSH1 0x44 DUP3 ADD MSTORE PUSH1 0x64 ADD PUSH2 0x626 JUMP JUMPDEST DUP5 DUP4 EQ PUSH2 0xE06 JUMPI PUSH1 0x40 MLOAD PUSH3 0x461BCD PUSH1 0xE5 SHL DUP2 MSTORE PUSH1 0x20 PUSH1 0x4 DUP3 ADD MSTORE PUSH1 0x12 PUSH1 0x24 DUP3 ADD MSTORE PUSH18 0x4D69736D617463686564206C656E67746873 PUSH1 0x70 SHL PUSH1 0x44 DUP3 ADD MSTORE PUSH1 0x64 ADD PUSH2 0x626 JUMP JUMPDEST PUSH1 0xE DUP1 SLOAD PUSH2 0xFFFF DUP4 DUP2 AND PUSH3 0x10000 MUL PUSH4 0xFFFFFFFF NOT SWAP1 SWAP3 AND SWAP1 DUP6 AND OR OR SWAP1 SSTORE PUSH0 DUP1 JUMPDEST DUP7 DUP2 LT ISZERO PUSH2 0xF66 JUMPI PUSH2 0x2710 DUP7 DUP7 DUP4 DUP2 DUP2 LT PUSH2 0xE45 JUMPI PUSH2 0xE45 PUSH2 0x256F JUMP JUMPDEST SWAP1 POP PUSH1 0x20 MUL ADD CALLDATALOAD GT ISZERO PUSH2 0xE8E JUMPI PUSH1 0x40 MLOAD PUSH3 0x461BCD PUSH1 0xE5 SHL DUP2 MSTORE PUSH1 0x20 PUSH1 0x4 DUP3 ADD MSTORE PUSH1 0x11 PUSH1 0x24 DUP3 ADD MSTORE PUSH17 0x496E76616C696450657263656E74616765 PUSH1 0x78 SHL PUSH1 0x44 DUP3 ADD MSTORE PUSH1 0x64 ADD PUSH2 0x626 JUMP JUMPDEST DUP6 DUP6 DUP3 DUP2 DUP2 LT PUSH2 0xEA0 JUMPI PUSH2 0xEA0 PUSH2 0x256F JUMP JUMPDEST SWAP1 POP PUSH1 0x20 MUL ADD CALLDATALOAD DUP3 PUSH2 0xEB2 SWAP2 SWAP1 PUSH2 0x2602 JUMP JUMPDEST SWAP2 POP PUSH1 0xC PUSH1 0x40 MLOAD DUP1 PUSH1 0x40 ADD PUSH1 0x40 MSTORE DUP1 DUP11 DUP11 DUP6 DUP2 DUP2 LT PUSH2 0xED3 JUMPI PUSH2 0xED3 PUSH2 0x256F JUMP JUMPDEST SWAP1 POP PUSH1 0x20 MUL ADD PUSH1 0x20 DUP2 ADD SWAP1 PUSH2 0xEE8 SWAP2 SWAP1 PUSH2 0x21AD JUMP JUMPDEST PUSH1 0x1 PUSH1 0x1 PUSH1 0xA0 SHL SUB AND DUP2 MSTORE PUSH1 0x20 ADD DUP9 DUP9 DUP6 DUP2 DUP2 LT PUSH2 0xF08 JUMPI PUSH2 0xF08 PUSH2 0x256F JUMP JUMPDEST PUSH1 0x20 SWAP1 DUP2 MUL SWAP3 SWAP1 SWAP3 ADD CALLDATALOAD SWAP1 SWAP3 MSTORE DUP4 SLOAD PUSH1 0x1 DUP1 DUP3 ADD DUP7 SSTORE PUSH0 SWAP6 DUP7 MSTORE SWAP5 DUP3 SWAP1 KECCAK256 DUP5 MLOAD PUSH1 0x2 SWAP1 SWAP3 MUL ADD DUP1 SLOAD PUSH1 0x1 PUSH1 0x1 PUSH1 0xA0 SHL SUB NOT AND PUSH1 0x1 PUSH1 0x1 PUSH1 0xA0 SHL SUB SWAP1 SWAP3 AND SWAP2 SWAP1 SWAP2 OR DUP2 SSTORE SWAP3 ADD MLOAD SWAP2 SWAP1 SWAP3 ADD SSTORE POP DUP1 PUSH2 0xF5E DUP2 PUSH2 0x2615 JUMP JUMPDEST SWAP2 POP POP PUSH2 0xE28 JUMP JUMPDEST POP DUP1 PUSH2 0x2710 EQ PUSH2 0xFA2 JUMPI PUSH1 0x40 MLOAD PUSH3 0x461BCD PUSH1 0xE5 SHL DUP2 MSTORE PUSH1 0x20 PUSH1 0x4 DUP3 ADD MSTORE PUSH1 0x7 PUSH1 0x24 DUP3 ADD MSTORE PUSH7 0x743D313030303 PUSH1 0xCC SHL PUSH1 0x44 DUP3 ADD MSTORE PUSH1 0x64 ADD PUSH2 0x626 JUMP JUMPDEST PUSH1 0xE DUP1 SLOAD PUSH5 0xFF00000000 NOT AND PUSH5 0x100000000 OR SWAP1 SSTORE PUSH1 0x40 MLOAD PUSH32 0xA6413C453391B24B1553EE2908B9FDB9D8528511A0B9983F82D823531CEA38B8 SWAP1 PUSH2 0xFED SWAP1 DUP10 SWAP1 DUP10 SWAP1 DUP10 SWAP1 DUP10 SWAP1 PUSH2 0x2697 JUMP JUMPDEST PUSH1 0x40 MLOAD DUP1 SWAP2 SUB SWAP1 LOG1 POP POP POP POP POP POP POP JUMP JUMPDEST PUSH2 0x1006 PUSH2 0x16F1 JUMP JUMPDEST PUSH2 0x100F PUSH0 PUSH2 0x171D JUMP JUMPDEST JUMP JUMPDEST PUSH0 DUP1 DUP5 PUSH1 0x1 DUP2 GT ISZERO PUSH2 0x1025 JUMPI PUSH2 0x1025 PUSH2 0x2583 JUMP JUMPDEST SUB PUSH2 0x103D JUMPI PUSH2 0x1036 DUP7 DUP7 DUP6 DUP6 PUSH2 0x176C JUMP JUMPDEST SWAP1 POP PUSH2 0x1090 JUMP JUMPDEST PUSH1 0x1 DUP5 PUSH1 0x1 DUP2 GT ISZERO PUSH2 0x1051 JUMPI PUSH2 0x1051 PUSH2 0x2583 JUMP JUMPDEST SUB PUSH2 0x1062 JUMPI PUSH2 0x1036 DUP7 DUP7 DUP6 DUP6 PUSH2 0x195B JUMP JUMPDEST PUSH1 0x40 MLOAD PUSH3 0x461BCD PUSH1 0xE5 SHL DUP2 MSTORE PUSH1 0x20 PUSH1 0x4 DUP3 ADD MSTORE PUSH1 0x3 PUSH1 0x24 DUP3 ADD MSTORE PUSH3 0x10AAAB PUSH1 0xE9 SHL PUSH1 0x44 DUP3 ADD MSTORE PUSH1 0x64 ADD PUSH2 0x626 JUMP JUMPDEST SWAP6 SWAP5 POP POP POP POP POP JUMP JUMPDEST PUSH0 DUP2 PUSH1 0x20 ADD CALLDATALOAD GT PUSH2 0x10D2 JUMPI PUSH1 0x40 MLOAD PUSH3 0x461BCD PUSH1 0xE5 SHL DUP2 MSTORE PUSH1 0x20 PUSH1 0x4 DUP3 ADD MSTORE PUSH1 0x3 PUSH1 0x24 DUP3 ADD MSTORE PUSH3 0x213E3 PUSH1 0xEC SHL PUSH1 0x44 DUP3 ADD MSTORE PUSH1 0x64 ADD PUSH2 0x626 JUMP JUMPDEST PUSH1 0xE SLOAD PUSH0 SWAP1 PUSH2 0x2710 SWAP1 PUSH2 0x10F3 SWAP1 PUSH3 0x10000 SWAP1 DIV PUSH2 0xFFFF AND PUSH1 0x20 DUP6 ADD CALLDATALOAD PUSH2 0x251E JUMP JUMPDEST PUSH2 0x10FD SWAP2 SWAP1 PUSH2 0x2535 JUMP JUMPDEST SWAP1 POP PUSH0 PUSH2 0x110E DUP3 PUSH1 0x20 DUP6 ADD CALLDATALOAD PUSH2 0x262D JUMP JUMPDEST SWAP1 POP DUP2 PUSH1 0xD PUSH0 DUP3 DUP3 SLOAD PUSH2 0x1121 SWAP2 SWAP1 PUSH2 0x2602 JUMP JUMPDEST SWAP1 SWAP2 SSTORE POP POP DUP1 PUSH2 0x1159 JUMPI PUSH1 0x40 MLOAD PUSH3 0x461BCD PUSH1 0xE5 SHL DUP2 MSTORE PUSH1 0x20 PUSH1 0x4 DUP3 ADD MSTORE PUSH1 0x3 PUSH1 0x24 DUP3 ADD MSTORE PUSH3 0x213E3 PUSH1 0xEC SHL PUSH1 0x44 DUP3 ADD MSTORE PUSH1 0x64 ADD PUSH2 0x626 JUMP JUMPDEST PUSH1 0x9 SLOAD PUSH1 0x40 DUP1 MLOAD PUSH4 0x15AB88C9 PUSH1 0xE3 SHL DUP2 MSTORE SWAP1 MLOAD PUSH2 0x11D2 SWAP3 PUSH1 0x1 PUSH1 0x1 PUSH1 0xA0 SHL SUB AND SWAP2 PUSH4 0xAD5C4648 SWAP2 PUSH1 0x4 DUP1 DUP4 ADD SWAP3 PUSH1 0x20 SWAP3 SWAP2 SWAP1 DUP3 SWAP1 SUB ADD DUP2 DUP7 GAS STATICCALL ISZERO DUP1 ISZERO PUSH2 0x11A2 JUMPI RETURNDATASIZE PUSH0 DUP1 RETURNDATACOPY RETURNDATASIZE PUSH0 REVERT JUMPDEST POP POP POP POP PUSH1 0x40 MLOAD RETURNDATASIZE PUSH1 0x1F NOT PUSH1 0x1F DUP3 ADD AND DUP3 ADD DUP1 PUSH1 0x40 MSTORE POP DUP2 ADD SWAP1 PUSH2 0x11C6 SWAP2 SWAP1 PUSH2 0x2554 JUMP JUMPDEST CALLER ADDRESS DUP7 PUSH1 0x20 ADD CALLDATALOAD PUSH2 0x1B16 JUMP JUMPDEST PUSH1 0x9 SLOAD PUSH1 0x40 DUP1 MLOAD PUSH4 0x15AB88C9 PUSH1 0xE3 SHL DUP2 MSTORE SWAP1 MLOAD PUSH2 0x1255 SWAP3 PUSH1 0x1 PUSH1 0x1 PUSH1 0xA0 SHL SUB AND SWAP2 PUSH4 0xAD5C4648 SWAP2 PUSH1 0x4 DUP1 DUP4 ADD SWAP3 PUSH1 0x20 SWAP3 SWAP2 SWAP1 DUP3 SWAP1 SUB ADD DUP2 DUP7 GAS STATICCALL ISZERO DUP1 ISZERO PUSH2 0x121B JUMPI RETURNDATASIZE PUSH0 DUP1 RETURNDATACOPY RETURNDATASIZE PUSH0 REVERT JUMPDEST POP POP POP POP PUSH1 0x40 MLOAD RETURNDATASIZE PUSH1 0x1F NOT PUSH1 0x1F DUP3 ADD AND DUP3 ADD DUP1 PUSH1 0x40 MSTORE POP DUP2 ADD SWAP1 PUSH2 0x123F SWAP2 SWAP1 PUSH2 0x2554 JUMP JUMPDEST PUSH1 0xA SLOAD PUSH1 0x1 PUSH1 0x1 PUSH1 0xA0 SHL SUB AND PUSH1 0x20 DUP7 ADD CALLDATALOAD PUSH2 0x1C13 JUMP JUMPDEST PUSH2 0x125F CALLER DUP3 PUSH2 0x1D0E JUMP JUMPDEST PUSH0 JUMPDEST PUSH1 0xC SLOAD DUP2 LT ISZERO PUSH2 0x14D5 JUMPI PUSH0 PUSH1 0xC DUP3 DUP2 SLOAD DUP2 LT PUSH2 0x127F JUMPI PUSH2 0x127F PUSH2 0x256F JUMP JUMPDEST SWAP1 PUSH0 MSTORE PUSH1 0x20 PUSH0 KECCAK256 SWAP1 PUSH1 0x2 MUL ADD SWAP1 POP PUSH0 PUSH2 0x2710 DUP3 PUSH1 0x1 ADD SLOAD DUP6 PUSH2 0x12A1 SWAP2 SWAP1 PUSH2 0x251E JUMP JUMPDEST PUSH2 0x12AB SWAP2 SWAP1 PUSH2 0x2535 JUMP JUMPDEST SWAP1 POP DUP4 DUP2 GT ISZERO PUSH2 0x12F5 JUMPI PUSH1 0x40 MLOAD PUSH3 0x461BCD PUSH1 0xE5 SHL DUP2 MSTORE PUSH1 0x20 PUSH1 0x4 DUP3 ADD MSTORE PUSH1 0x15 PUSH1 0x24 DUP3 ADD MSTORE PUSH21 0x21657468416D6F756E743C3D616D6F756E74666565 PUSH1 0x58 SHL PUSH1 0x44 DUP3 ADD MSTORE PUSH1 0x64 ADD PUSH2 0x626 JUMP JUMPDEST DUP1 ISZERO PUSH2 0x14C0 JUMPI DUP2 SLOAD ADDRESS SWAP1 PUSH4 0x74A66061 SWAP1 PUSH1 0x1 PUSH1 0x1 PUSH1 0xA0 SHL SUB AND DUP4 PUSH2 0x131F PUSH1 0x60 DUP12 ADD PUSH1 0x40 DUP13 ADD PUSH2 0x2713 JUMP JUMPDEST ADDRESS PUSH2 0x132A DUP13 DUP1 PUSH2 0x272E JUMP JUMPDEST DUP11 DUP2 DUP2 LT PUSH2 0x133A JUMPI PUSH2 0x133A PUSH2 0x256F JUMP JUMPDEST SWAP1 POP PUSH1 0x20 MUL DUP2 ADD SWAP1 PUSH2 0x134C SWAP2 SWAP1 PUSH2 0x2773 JUMP JUMPDEST PUSH1 0x40 MLOAD DUP8 PUSH4 0xFFFFFFFF AND PUSH1 0xE0 SHL DUP2 MSTORE PUSH1 0x4 ADD PUSH2 0x136D SWAP7 SWAP6 SWAP5 SWAP4 SWAP3 SWAP2 SWAP1 PUSH2 0x27B5 JUMP JUMPDEST PUSH1 0x20 PUSH1 0x40 MLOAD DUP1 DUP4 SUB DUP2 PUSH0 DUP8 GAS CALL SWAP3 POP POP POP DUP1 ISZERO PUSH2 0x13A7 JUMPI POP PUSH1 0x40 DUP1 MLOAD PUSH1 0x1F RETURNDATASIZE SWAP1 DUP2 ADD PUSH1 0x1F NOT AND DUP3 ADD SWAP1 SWAP3 MSTORE PUSH2 0x13A4 SWAP2 DUP2 ADD SWAP1 PUSH2 0x23A0 JUMP JUMPDEST PUSH1 0x1 JUMPDEST PUSH2 0x14BE JUMPI CALLER PUSH0 SWAP1 DUP2 MSTORE PUSH1 0xF PUSH1 0x20 MSTORE PUSH1 0x40 DUP2 KECCAK256 DUP1 SLOAD DUP4 SWAP3 SWAP1 PUSH2 0x13C9 SWAP1 DUP5 SWAP1 PUSH2 0x2602 JUMP JUMPDEST SWAP1 SWAP2 SSTORE POP POP PUSH1 0x40 DUP1 MLOAD PUSH1 0x60 DUP2 ADD DUP3 MSTORE CALLER DUP1 DUP3 MSTORE DUP5 SLOAD PUSH1 0x1 PUSH1 0x1 PUSH1 0xA0 SHL SUB SWAP1 DUP2 AND PUSH1 0x20 DUP1 DUP6 ADD SWAP2 DUP3 MSTORE DUP5 DUP7 ADD DUP8 DUP2 MSTORE PUSH1 0x6 DUP1 SLOAD PUSH1 0x1 DUP2 ADD DUP3 SSTORE PUSH0 SWAP2 DUP3 MSTORE SWAP7 MLOAD PUSH1 0x3 SWAP1 SWAP8 MUL PUSH32 0xF652222313E28459528D920B65115C16C04F3EFC82AAEDC97BE59F3F377C0D3F DUP2 ADD DUP1 SLOAD SWAP9 DUP8 AND PUSH1 0x1 PUSH1 0x1 PUSH1 0xA0 SHL SUB NOT SWAP10 DUP11 AND OR SWAP1 SSTORE SWAP4 MLOAD PUSH32 0xF652222313E28459528D920B65115C16C04F3EFC82AAEDC97BE59F3F377C0D40 DUP6 ADD DUP1 SLOAD SWAP2 SWAP1 SWAP7 AND SWAP8 AND SWAP7 SWAP1 SWAP7 OR SWAP1 SWAP4 SSTORE SWAP2 MLOAD PUSH32 0xF652222313E28459528D920B65115C16C04F3EFC82AAEDC97BE59F3F377C0D41 SWAP1 SWAP2 ADD SSTORE SWAP1 DUP3 MSTORE PUSH1 0x8 SWAP1 MSTORE SWAP1 DUP2 KECCAK256 DUP1 SLOAD SWAP2 PUSH2 0x14B4 DUP4 PUSH2 0x2615 JUMP JUMPDEST SWAP2 SWAP1 POP SSTORE POP PUSH2 0x14C0 JUMP JUMPDEST POP JUMPDEST POP POP DUP1 DUP1 PUSH2 0x14CD SWAP1 PUSH2 0x2615 JUMP JUMPDEST SWAP2 POP POP PUSH2 0x1261 JUMP JUMPDEST POP POP POP POP JUMP JUMPDEST PUSH1 0x60 PUSH1 0x5 DUP1 SLOAD PUSH2 0x9D1 SWAP1 PUSH2 0x265F JUMP JUMPDEST PUSH2 0x14F2 PUSH2 0x16F1 JUMP JUMPDEST PUSH1 0xD SLOAD ISZERO PUSH2 0x1590 JUMPI PUSH1 0xD SLOAD PUSH1 0x40 MLOAD PUSH0 SWAP2 PUSH1 0x1 PUSH1 0x1 PUSH1 0xA0 SHL SUB DUP5 AND SWAP2 DUP4 DUP2 DUP2 DUP2 DUP6 DUP8 GAS CALL SWAP3 POP POP POP RETURNDATASIZE DUP1 PUSH0 DUP2 EQ PUSH2 0x1543 JUMPI PUSH1 0x40 MLOAD SWAP2 POP PUSH1 0x1F NOT PUSH1 0x3F RETURNDATASIZE ADD AND DUP3 ADD PUSH1 0x40 MSTORE RETURNDATASIZE DUP3 MSTORE RETURNDATASIZE PUSH0 PUSH1 0x20 DUP5 ADD RETURNDATACOPY PUSH2 0x1548 JUMP JUMPDEST PUSH1 0x60 SWAP2 POP JUMPDEST POP POP SWAP1 POP DUP1 PUSH2 0x158A JUMPI PUSH1 0x40 MLOAD PUSH3 0x461BCD PUSH1 0xE5 SHL DUP2 MSTORE PUSH1 0x20 PUSH1 0x4 DUP3 ADD MSTORE PUSH1 0xE PUSH1 0x24 DUP3 ADD MSTORE PUSH14 0x1D1C985B9CD9995C91985A5B1959 PUSH1 0x92 SHL PUSH1 0x44 DUP3 ADD MSTORE PUSH1 0x64 ADD PUSH2 0x626 JUMP JUMPDEST POP PUSH0 PUSH1 0xD SSTORE JUMPDEST POP JUMP JUMPDEST PUSH0 CALLER PUSH2 0xA5F DUP2 DUP6 DUP6 PUSH2 0x1694 JUMP JUMPDEST PUSH2 0x15A8 PUSH2 0x16F1 JUMP JUMPDEST PUSH1 0x1 PUSH1 0x1 PUSH1 0xA0 SHL SUB DUP2 AND PUSH2 0x15D1 JUMPI PUSH1 0x40 MLOAD PUSH4 0x1E4FBDF7 PUSH1 0xE0 SHL DUP2 MSTORE PUSH0 PUSH1 0x4 DUP3 ADD MSTORE PUSH1 0x24 ADD PUSH2 0x626 JUMP JUMPDEST PUSH2 0x1590 DUP2 PUSH2 0x171D JUMP JUMPDEST PUSH1 0x1 PUSH1 0x1 PUSH1 0xA0 SHL SUB DUP3 AND PUSH2 0x1603 JUMPI PUSH1 0x40 MLOAD PUSH4 0x4B637E8F PUSH1 0xE1 SHL DUP2 MSTORE PUSH0 PUSH1 0x4 DUP3 ADD MSTORE PUSH1 0x24 ADD PUSH2 0x626 JUMP JUMPDEST PUSH2 0x160E DUP3 PUSH0 DUP4 PUSH2 0x1D3E JUMP JUMPDEST POP POP JUMP JUMPDEST PUSH2 0xD2E DUP4 DUP4 DUP4 PUSH1 0x1 PUSH2 0x1E64 JUMP JUMPDEST PUSH1 0x1 PUSH1 0x1 PUSH1 0xA0 SHL SUB DUP4 DUP2 AND PUSH0 SWAP1 DUP2 MSTORE PUSH1 0x2 PUSH1 0x20 SWAP1 DUP2 MSTORE PUSH1 0x40 DUP1 DUP4 KECCAK256 SWAP4 DUP7 AND DUP4 MSTORE SWAP3 SWAP1 MSTORE KECCAK256 SLOAD PUSH0 NOT DUP2 EQ PUSH2 0x14D5 JUMPI DUP2 DUP2 LT ISZERO PUSH2 0x1686 JUMPI PUSH1 0x40 MLOAD PUSH4 0x7DC7A0D9 PUSH1 0xE1 SHL DUP2 MSTORE PUSH1 0x1 PUSH1 0x1 PUSH1 0xA0 SHL SUB DUP5 AND PUSH1 0x4 DUP3 ADD MSTORE PUSH1 0x24 DUP2 ADD DUP3 SWAP1 MSTORE PUSH1 0x44 DUP2 ADD DUP4 SWAP1 MSTORE PUSH1 0x64 ADD PUSH2 0x626 JUMP JUMPDEST PUSH2 0x14D5 DUP5 DUP5 DUP5 DUP5 SUB PUSH0 PUSH2 0x1E64 JUMP JUMPDEST PUSH1 0x1 PUSH1 0x1 PUSH1 0xA0 SHL SUB DUP4 AND PUSH2 0x16BD JUMPI PUSH1 0x40 MLOAD PUSH4 0x4B637E8F PUSH1 0xE1 SHL DUP2 MSTORE PUSH0 PUSH1 0x4 DUP3 ADD MSTORE PUSH1 0x24 ADD PUSH2 0x626 JUMP JUMPDEST PUSH1 0x1 PUSH1 0x1 PUSH1 0xA0 SHL SUB DUP3 AND PUSH2 0x16E6 JUMPI PUSH1 0x40 MLOAD PUSH4 0xEC442F05 PUSH1 0xE0 SHL DUP2 MSTORE PUSH0 PUSH1 0x4 DUP3 ADD MSTORE PUSH1 0x24 ADD PUSH2 0x626 JUMP JUMPDEST PUSH2 0xD2E DUP4 DUP4 DUP4 PUSH2 0x1D3E JUMP JUMPDEST PUSH0 SLOAD PUSH1 0x1 PUSH1 0x1 PUSH1 0xA0 SHL SUB AND CALLER EQ PUSH2 0x100F JUMPI PUSH1 0x40 MLOAD PUSH4 0x118CDAA7 PUSH1 0xE0 SHL DUP2 MSTORE CALLER PUSH1 0x4 DUP3 ADD MSTORE PUSH1 0x24 ADD PUSH2 0x626 JUMP JUMPDEST PUSH0 DUP1 SLOAD PUSH1 0x1 PUSH1 0x1 PUSH1 0xA0 SHL SUB DUP4 DUP2 AND PUSH1 0x1 PUSH1 0x1 PUSH1 0xA0 SHL SUB NOT DUP4 AND DUP2 OR DUP5 SSTORE PUSH1 0x40 MLOAD SWAP2 SWAP1 SWAP3 AND SWAP3 DUP4 SWAP2 PUSH32 0x8BE0079C531659141344CD1FD0A4F28419497F9722A3DAAFE3B4186F6B6457E0 SWAP2 SWAP1 LOG3 POP POP JUMP JUMPDEST PUSH0 DUP1 DUP3 DUP1 PUSH1 0x20 ADD SWAP1 MLOAD DUP2 ADD SWAP1 PUSH2 0x1782 SWAP2 SWAP1 PUSH2 0x2817 JUMP JUMPDEST PUSH1 0x9 SLOAD PUSH1 0x40 MLOAD PUSH4 0xD06CA61F PUSH1 0xE0 SHL DUP2 MSTORE SWAP2 SWAP3 POP PUSH0 SWAP2 PUSH1 0x1 PUSH1 0x1 PUSH1 0xA0 SHL SUB SWAP1 SWAP2 AND SWAP1 PUSH4 0xD06CA61F SWAP1 PUSH2 0x17B9 SWAP1 DUP10 SWAP1 DUP7 SWAP1 PUSH1 0x4 ADD PUSH2 0x28E2 JUMP JUMPDEST PUSH0 PUSH1 0x40 MLOAD DUP1 DUP4 SUB DUP2 DUP7 GAS STATICCALL ISZERO DUP1 ISZERO PUSH2 0x17D3 JUMPI RETURNDATASIZE PUSH0 DUP1 RETURNDATACOPY RETURNDATASIZE PUSH0 REVERT JUMPDEST POP POP POP POP PUSH1 0x40 MLOAD RETURNDATASIZE PUSH0 DUP3 RETURNDATACOPY PUSH1 0x1F RETURNDATASIZE SWAP1 DUP2 ADD PUSH1 0x1F NOT AND DUP3 ADD PUSH1 0x40 MSTORE PUSH2 0x17FA SWAP2 SWAP1 DUP2 ADD SWAP1 PUSH2 0x2902 JUMP JUMPDEST SWAP1 POP PUSH0 PUSH2 0x2710 PUSH1 0x7 SLOAD PUSH2 0x2710 PUSH2 0x1810 SWAP2 SWAP1 PUSH2 0x262D JUMP JUMPDEST DUP4 PUSH1 0x1 DUP2 MLOAD DUP2 LT PUSH2 0x1823 JUMPI PUSH2 0x1823 PUSH2 0x256F JUMP JUMPDEST PUSH1 0x20 MUL PUSH1 0x20 ADD ADD MLOAD PUSH2 0x1835 SWAP2 SWAP1 PUSH2 0x251E JUMP JUMPDEST PUSH2 0x183F SWAP2 SWAP1 PUSH2 0x2535 JUMP JUMPDEST PUSH1 0x9 SLOAD PUSH1 0x40 MLOAD PUSH4 0x95EA7B3 PUSH1 0xE0 SHL DUP2 MSTORE PUSH1 0x1 PUSH1 0x1 PUSH1 0xA0 SHL SUB SWAP2 DUP3 AND PUSH1 0x4 DUP3 ADD MSTORE PUSH1 0x24 DUP2 ADD DUP11 SWAP1 MSTORE SWAP2 SWAP3 POP DUP10 AND SWAP1 PUSH4 0x95EA7B3 SWAP1 PUSH1 0x44 ADD PUSH1 0x20 PUSH1 0x40 MLOAD DUP1 DUP4 SUB DUP2 PUSH0 DUP8 GAS CALL ISZERO DUP1 ISZERO PUSH2 0x1891 JUMPI RETURNDATASIZE PUSH0 DUP1 RETURNDATACOPY RETURNDATASIZE PUSH0 REVERT JUMPDEST POP POP POP POP PUSH1 0x40 MLOAD RETURNDATASIZE PUSH1 0x1F NOT PUSH1 0x1F DUP3 ADD AND DUP3 ADD DUP1 PUSH1 0x40 MSTORE POP DUP2 ADD SWAP1 PUSH2 0x18B5 SWAP2 SWAP1 PUSH2 0x2640 JUMP JUMPDEST POP PUSH1 0x9 SLOAD PUSH1 0x40 MLOAD PUSH4 0x18CBAFE5 PUSH1 0xE0 SHL DUP2 MSTORE PUSH0 SWAP2 PUSH1 0x1 PUSH1 0x1 PUSH1 0xA0 SHL SUB AND SWAP1 PUSH4 0x18CBAFE5 SWAP1 PUSH2 0x18EE SWAP1 DUP12 SWAP1 DUP7 SWAP1 DUP10 SWAP1 DUP14 SWAP1 TIMESTAMP SWAP1 PUSH1 0x4 ADD PUSH2 0x2982 JUMP JUMPDEST PUSH0 PUSH1 0x40 MLOAD DUP1 DUP4 SUB DUP2 PUSH0 DUP8 GAS CALL ISZERO DUP1 ISZERO PUSH2 0x1909 JUMPI RETURNDATASIZE PUSH0 DUP1 RETURNDATACOPY RETURNDATASIZE PUSH0 REVERT JUMPDEST POP POP POP POP PUSH1 0x40 MLOAD RETURNDATASIZE PUSH0 DUP3 RETURNDATACOPY PUSH1 0x1F RETURNDATASIZE SWAP1 DUP2 ADD PUSH1 0x1F NOT AND DUP3 ADD PUSH1 0x40 MSTORE PUSH2 0x1930 SWAP2 SWAP1 DUP2 ADD SWAP1 PUSH2 0x2902 JUMP JUMPDEST SWAP1 POP DUP1 PUSH1 0x1 DUP2 MLOAD DUP2 LT PUSH2 0x1945 JUMPI PUSH2 0x1945 PUSH2 0x256F JUMP JUMPDEST PUSH1 0x20 MUL PUSH1 0x20 ADD ADD MLOAD SWAP5 POP POP POP POP POP SWAP5 SWAP4 POP POP POP POP JUMP JUMPDEST PUSH1 0xB SLOAD PUSH1 0x40 MLOAD PUSH4 0xCDCA1753 PUSH1 0xE0 SHL DUP2 MSTORE PUSH0 SWAP2 DUP3 SWAP2 PUSH1 0x1 PUSH1 0x1 PUSH1 0xA0 SHL SUB SWAP1 SWAP2 AND SWAP1 PUSH4 0xCDCA1753 SWAP1 PUSH2 0x1991 SWAP1 DUP7 SWAP1 DUP10 SWAP1 PUSH1 0x4 ADD PUSH2 0x29BD JUMP JUMPDEST PUSH1 0x20 PUSH1 0x40 MLOAD DUP1 DUP4 SUB DUP2 PUSH0 DUP8 GAS CALL ISZERO DUP1 ISZERO PUSH2 0x19AD JUMPI RETURNDATASIZE PUSH0 DUP1 RETURNDATACOPY RETURNDATASIZE PUSH0 REVERT JUMPDEST POP POP POP POP PUSH1 0x40 MLOAD RETURNDATASIZE PUSH1 0x1F NOT PUSH1 0x1F DUP3 ADD AND DUP3 ADD DUP1 PUSH1 0x40 MSTORE POP DUP2 ADD SWAP1 PUSH2 0x19D1 SWAP2 SWAP1 PUSH2 0x23A0 JUMP JUMPDEST SWAP1 POP PUSH0 PUSH2 0x2710 PUSH1 0x7 SLOAD PUSH2 0x2710 PUSH2 0x19E7 SWAP2 SWAP1 PUSH2 0x262D JUMP JUMPDEST PUSH2 0x19F1 SWAP1 DUP5 PUSH2 0x251E JUMP JUMPDEST PUSH2 0x19FB SWAP2 SWAP1 PUSH2 0x2535 JUMP JUMPDEST PUSH1 0x40 DUP1 MLOAD PUSH1 0xA0 DUP2 ADD DUP3 MSTORE DUP7 DUP2 MSTORE PUSH1 0x1 PUSH1 0x1 PUSH1 0xA0 SHL SUB DUP9 DUP2 AND PUSH1 0x20 DUP4 ADD MSTORE TIMESTAMP DUP3 DUP5 ADD MSTORE PUSH1 0x60 DUP3 ADD DUP11 SWAP1 MSTORE PUSH1 0x80 DUP3 ADD DUP5 SWAP1 MSTORE PUSH1 0xA SLOAD SWAP3 MLOAD PUSH4 0x95EA7B3 PUSH1 0xE0 SHL DUP2 MSTORE SWAP3 DUP2 AND PUSH1 0x4 DUP5 ADD MSTORE PUSH1 0x24 DUP4 ADD DUP11 SWAP1 MSTORE SWAP3 SWAP4 POP SWAP2 DUP10 AND SWAP1 PUSH4 0x95EA7B3 SWAP1 PUSH1 0x44 ADD PUSH1 0x20 PUSH1 0x40 MLOAD DUP1 DUP4 SUB DUP2 PUSH0 DUP8 GAS CALL ISZERO DUP1 ISZERO PUSH2 0x1A75 JUMPI RETURNDATASIZE PUSH0 DUP1 RETURNDATACOPY RETURNDATASIZE PUSH0 REVERT JUMPDEST POP POP POP POP PUSH1 0x40 MLOAD RETURNDATASIZE PUSH1 0x1F NOT PUSH1 0x1F DUP3 ADD AND DUP3 ADD DUP1 PUSH1 0x40 MSTORE POP DUP2 ADD SWAP1 PUSH2 0x1A99 SWAP2 SWAP1 PUSH2 0x2640 JUMP JUMPDEST POP PUSH1 0xA SLOAD PUSH1 0x40 MLOAD PUSH4 0xC04B8D59 PUSH1 0xE0 SHL DUP2 MSTORE PUSH1 0x1 PUSH1 0x1 PUSH1 0xA0 SHL SUB SWAP1 SWAP2 AND SWAP1 PUSH4 0xC04B8D59 SWAP1 PUSH2 0x1ACA SWAP1 DUP5 SWAP1 PUSH1 0x4 ADD PUSH2 0x29DE JUMP JUMPDEST PUSH1 0x20 PUSH1 0x40 MLOAD DUP1 DUP4 SUB DUP2 PUSH0 DUP8 GAS CALL ISZERO DUP1 ISZERO PUSH2 0x1AE6 JUMPI RETURNDATASIZE PUSH0 DUP1 RETURNDATACOPY RETURNDATASIZE PUSH0 REVERT JUMPDEST POP POP POP POP PUSH1 0x40 MLOAD RETURNDATASIZE PUSH1 0x1F NOT PUSH1 0x1F DUP3 ADD AND DUP3 ADD DUP1 PUSH1 0x40 MSTORE POP DUP2 ADD SWAP1 PUSH2 0x1B0A SWAP2 SWAP1 PUSH2 0x23A0 JUMP JUMPDEST SWAP9 SWAP8 POP POP POP POP POP POP POP POP JUMP JUMPDEST PUSH1 0x40 DUP1 MLOAD PUSH1 0x1 PUSH1 0x1 PUSH1 0xA0 SHL SUB DUP6 DUP2 AND PUSH1 0x24 DUP4 ADD MSTORE DUP5 DUP2 AND PUSH1 0x44 DUP4 ADD MSTORE PUSH1 0x64 DUP1 DUP4 ADD DUP6 SWAP1 MSTORE DUP4 MLOAD DUP1 DUP5 SUB SWAP1 SWAP2 ADD DUP2 MSTORE PUSH1 0x84 SWAP1 SWAP3 ADD DUP4 MSTORE PUSH1 0x20 DUP3 ADD DUP1 MLOAD PUSH1 0x1 PUSH1 0x1 PUSH1 0xE0 SHL SUB AND PUSH4 0x23B872DD PUSH1 0xE0 SHL OR SWAP1 MSTORE SWAP2 MLOAD PUSH0 SWAP3 DUP4 SWAP3 SWAP1 DUP9 AND SWAP2 PUSH2 0x1B79 SWAP2 SWAP1 PUSH2 0x2A35 JUMP JUMPDEST PUSH0 PUSH1 0x40 MLOAD DUP1 DUP4 SUB DUP2 PUSH0 DUP7 GAS CALL SWAP2 POP POP RETURNDATASIZE DUP1 PUSH0 DUP2 EQ PUSH2 0x1BB2 JUMPI PUSH1 0x40 MLOAD SWAP2 POP PUSH1 0x1F NOT PUSH1 0x3F RETURNDATASIZE ADD AND DUP3 ADD PUSH1 0x40 MSTORE RETURNDATASIZE DUP3 MSTORE RETURNDATASIZE PUSH0 PUSH1 0x20 DUP5 ADD RETURNDATACOPY PUSH2 0x1BB7 JUMP JUMPDEST PUSH1 0x60 SWAP2 POP JUMPDEST POP SWAP2 POP SWAP2 POP DUP2 DUP1 ISZERO PUSH2 0x1BE1 JUMPI POP DUP1 MLOAD ISZERO DUP1 PUSH2 0x1BE1 JUMPI POP DUP1 DUP1 PUSH1 0x20 ADD SWAP1 MLOAD DUP2 ADD SWAP1 PUSH2 0x1BE1 SWAP2 SWAP1 PUSH2 0x2640 JUMP JUMPDEST PUSH2 0x9BA JUMPI PUSH1 0x40 MLOAD PUSH3 0x461BCD PUSH1 0xE5 SHL DUP2 MSTORE PUSH1 0x20 PUSH1 0x4 DUP3 ADD MSTORE PUSH1 0x3 PUSH1 0x24 DUP3 ADD MSTORE PUSH3 0x29AA23 PUSH1 0xE9 SHL PUSH1 0x44 DUP3 ADD MSTORE PUSH1 0x64 ADD PUSH2 0x626 JUMP JUMPDEST PUSH1 0x40 DUP1 MLOAD PUSH1 0x1 PUSH1 0x1 PUSH1 0xA0 SHL SUB DUP5 DUP2 AND PUSH1 0x24 DUP4 ADD MSTORE PUSH1 0x44 DUP1 DUP4 ADD DUP6 SWAP1 MSTORE DUP4 MLOAD DUP1 DUP5 SUB SWAP1 SWAP2 ADD DUP2 MSTORE PUSH1 0x64 SWAP1 SWAP3 ADD DUP4 MSTORE PUSH1 0x20 DUP3 ADD DUP1 MLOAD PUSH1 0x1 PUSH1 0x1 PUSH1 0xE0 SHL SUB AND PUSH4 0x95EA7B3 PUSH1 0xE0 SHL OR SWAP1 MSTORE SWAP2 MLOAD PUSH0 SWAP3 DUP4 SWAP3 SWAP1 DUP8 AND SWAP2 PUSH2 0x1C6E SWAP2 SWAP1 PUSH2 0x2A35 JUMP JUMPDEST PUSH0 PUSH1 0x40 MLOAD DUP1 DUP4 SUB DUP2 PUSH0 DUP7 GAS CALL SWAP2 POP POP RETURNDATASIZE DUP1 PUSH0 DUP2 EQ PUSH2 0x1CA7 JUMPI PUSH1 0x40 MLOAD SWAP2 POP PUSH1 0x1F NOT PUSH1 0x3F RETURNDATASIZE ADD AND DUP3 ADD PUSH1 0x40 MSTORE RETURNDATASIZE DUP3 MSTORE RETURNDATASIZE PUSH0 PUSH1 0x20 DUP5 ADD RETURNDATACOPY PUSH2 0x1CAC JUMP JUMPDEST PUSH1 0x60 SWAP2 POP JUMPDEST POP SWAP2 POP SWAP2 POP DUP2 DUP1 ISZERO PUSH2 0x1CD6 JUMPI POP DUP1 MLOAD ISZERO DUP1 PUSH2 0x1CD6 JUMPI POP DUP1 DUP1 PUSH1 0x20 ADD SWAP1 MLOAD DUP2 ADD SWAP1 PUSH2 0x1CD6 SWAP2 SWAP1 PUSH2 0x2640 JUMP JUMPDEST PUSH2 0x1D07 JUMPI PUSH1 0x40 MLOAD PUSH3 0x461BCD PUSH1 0xE5 SHL DUP2 MSTORE PUSH1 0x20 PUSH1 0x4 DUP3 ADD MSTORE PUSH1 0x2 PUSH1 0x24 DUP3 ADD MSTORE PUSH2 0x5341 PUSH1 0xF0 SHL PUSH1 0x44 DUP3 ADD MSTORE PUSH1 0x64 ADD PUSH2 0x626 JUMP JUMPDEST POP POP POP POP POP JUMP JUMPDEST PUSH1 0x1 PUSH1 0x1 PUSH1 0xA0 SHL SUB DUP3 AND PUSH2 0x1D37 JUMPI PUSH1 0x40 MLOAD PUSH4 0xEC442F05 PUSH1 0xE0 SHL DUP2 MSTORE PUSH0 PUSH1 0x4 DUP3 ADD MSTORE PUSH1 0x24 ADD PUSH2 0x626 JUMP JUMPDEST PUSH2 0x160E PUSH0 DUP4 DUP4 JUMPDEST PUSH1 0x1 PUSH1 0x1 PUSH1 0xA0 SHL SUB DUP4 AND PUSH2 0x1D68 JUMPI DUP1 PUSH1 0x3 PUSH0 DUP3 DUP3 SLOAD PUSH2 0x1D5D SWAP2 SWAP1 PUSH2 0x2602 JUMP JUMPDEST SWAP1 SWAP2 SSTORE POP PUSH2 0x1DD8 SWAP1 POP JUMP JUMPDEST PUSH1 0x1 PUSH1 0x1 PUSH1 0xA0 SHL SUB DUP4 AND PUSH0 SWAP1 DUP2 MSTORE PUSH1 0x1 PUSH1 0x20 MSTORE PUSH1 0x40 SWAP1 KECCAK256 SLOAD DUP2 DUP2 LT ISZERO PUSH2 0x1DBA JUMPI PUSH1 0x40 MLOAD PUSH4 0x391434E3 PUSH1 0xE2 SHL DUP2 MSTORE PUSH1 0x1 PUSH1 0x1 PUSH1 0xA0 SHL SUB DUP6 AND PUSH1 0x4 DUP3 ADD MSTORE PUSH1 0x24 DUP2 ADD DUP3 SWAP1 MSTORE PUSH1 0x44 DUP2 ADD DUP4 SWAP1 MSTORE PUSH1 0x64 ADD PUSH2 0x626 JUMP JUMPDEST PUSH1 0x1 PUSH1 0x1 PUSH1 0xA0 SHL SUB DUP5 AND PUSH0 SWAP1 DUP2 MSTORE PUSH1 0x1 PUSH1 0x20 MSTORE PUSH1 0x40 SWAP1 KECCAK256 SWAP1 DUP3 SWAP1 SUB SWAP1 SSTORE JUMPDEST PUSH1 0x1 PUSH1 0x1 PUSH1 0xA0 SHL SUB DUP3 AND PUSH2 0x1DF4 JUMPI PUSH1 0x3 DUP1 SLOAD DUP3 SWAP1 SUB SWAP1 SSTORE PUSH2 0x1E12 JUMP JUMPDEST PUSH1 0x1 PUSH1 0x1 PUSH1 0xA0 SHL SUB DUP3 AND PUSH0 SWAP1 DUP2 MSTORE PUSH1 0x1 PUSH1 0x20 MSTORE PUSH1 0x40 SWAP1 KECCAK256 DUP1 SLOAD DUP3 ADD SWAP1 SSTORE JUMPDEST DUP2 PUSH1 0x1 PUSH1 0x1 PUSH1 0xA0 SHL SUB AND DUP4 PUSH1 0x1 PUSH1 0x1 PUSH1 0xA0 SHL SUB AND PUSH32 0xDDF252AD1BE2C89B69C2B068FC378DAA952BA7F163C4A11628F55A4DF523B3EF DUP4 PUSH1 0x40 MLOAD PUSH2 0x1E57 SWAP2 DUP2 MSTORE PUSH1 0x20 ADD SWAP1 JUMP JUMPDEST PUSH1 0x40 MLOAD DUP1 SWAP2 SUB SWAP1 LOG3 POP POP POP JUMP JUMPDEST PUSH1 0x1 PUSH1 0x1 PUSH1 0xA0 SHL SUB DUP5 AND PUSH2 0x1E8D JUMPI PUSH1 0x40 MLOAD PUSH4 0xE602DF05 PUSH1 0xE0 SHL DUP2 MSTORE PUSH0 PUSH1 0x4 DUP3 ADD MSTORE PUSH1 0x24 ADD PUSH2 0x626 JUMP JUMPDEST PUSH1 0x1 PUSH1 0x1 PUSH1 0xA0 SHL SUB DUP4 AND PUSH2 0x1EB6 JUMPI PUSH1 0x40 MLOAD PUSH4 0x4A1406B1 PUSH1 0xE1 SHL DUP2 MSTORE PUSH0 PUSH1 0x4 DUP3 ADD MSTORE PUSH1 0x24 ADD PUSH2 0x626 JUMP JUMPDEST PUSH1 0x1 PUSH1 0x1 PUSH1 0xA0 SHL SUB DUP1 DUP6 AND PUSH0 SWAP1 DUP2 MSTORE PUSH1 0x2 PUSH1 0x20 SWAP1 DUP2 MSTORE PUSH1 0x40 DUP1 DUP4 KECCAK256 SWAP4 DUP8 AND DUP4 MSTORE SWAP3 SWAP1 MSTORE KECCAK256 DUP3 SWAP1 SSTORE DUP1 ISZERO PUSH2 0x14D5 JUMPI DUP3 PUSH1 0x1 PUSH1 0x1 PUSH1 0xA0 SHL SUB AND DUP5 PUSH1 0x1 PUSH1 0x1 PUSH1 0xA0 SHL SUB AND PUSH32 0x8C5BE1E5EBEC7D5BD14F71427D1E84F3DD0314C0F7B2291E5B200AC8C7C3B925 DUP5 PUSH1 0x40 MLOAD PUSH2 0x1F28 SWAP2 DUP2 MSTORE PUSH1 0x20 ADD SWAP1 JUMP JUMPDEST PUSH1 0x40 MLOAD DUP1 SWAP2 SUB SWAP1 LOG3 POP POP POP POP JUMP JUMPDEST PUSH4 0x4E487B71 PUSH1 0xE0 SHL PUSH0 MSTORE PUSH1 0x41 PUSH1 0x4 MSTORE PUSH1 0x24 PUSH0 REVERT JUMPDEST PUSH1 0x40 MLOAD PUSH1 0x60 DUP2 ADD PUSH1 0x1 PUSH1 0x1 PUSH1 0x40 SHL SUB DUP2 GT DUP3 DUP3 LT OR ISZERO PUSH2 0x1F6C JUMPI PUSH2 0x1F6C PUSH2 0x1F36 JUMP JUMPDEST PUSH1 0x40 MSTORE SWAP1 JUMP JUMPDEST PUSH1 0x40 MLOAD PUSH1 0x1F DUP3 ADD PUSH1 0x1F NOT AND DUP2 ADD PUSH1 0x1 PUSH1 0x1 PUSH1 0x40 SHL SUB DUP2 GT DUP3 DUP3 LT OR ISZERO PUSH2 0x1F9A JUMPI PUSH2 0x1F9A PUSH2 0x1F36 JUMP JUMPDEST PUSH1 0x40 MSTORE SWAP2 SWAP1 POP JUMP JUMPDEST PUSH0 PUSH1 0x1 PUSH1 0x1 PUSH1 0x40 SHL SUB DUP3 GT ISZERO PUSH2 0x1FBA JUMPI PUSH2 0x1FBA PUSH2 0x1F36 JUMP JUMPDEST POP PUSH1 0x1F ADD PUSH1 0x1F NOT AND PUSH1 0x20 ADD SWAP1 JUMP JUMPDEST PUSH0 DUP3 PUSH1 0x1F DUP4 ADD SLT PUSH2 0x1FD7 JUMPI PUSH0 DUP1 REVERT JUMPDEST DUP2 CALLDATALOAD PUSH2 0x1FEA PUSH2 0x1FE5 DUP3 PUSH2 0x1FA2 JUMP JUMPDEST PUSH2 0x1F72 JUMP JUMPDEST DUP2 DUP2 MSTORE DUP5 PUSH1 0x20 DUP4 DUP7 ADD ADD GT ISZERO PUSH2 0x1FFE JUMPI PUSH0 DUP1 REVERT JUMPDEST DUP2 PUSH1 0x20 DUP6 ADD PUSH1 0x20 DUP4 ADD CALLDATACOPY PUSH0 SWAP2 DUP2 ADD PUSH1 0x20 ADD SWAP2 SWAP1 SWAP2 MSTORE SWAP4 SWAP3 POP POP POP JUMP JUMPDEST PUSH0 DUP1 PUSH1 0x40 DUP4 DUP6 SUB SLT ISZERO PUSH2 0x202B JUMPI PUSH0 DUP1 REVERT JUMPDEST DUP3 CALLDATALOAD SWAP2 POP PUSH1 0x20 DUP4 ADD CALLDATALOAD PUSH1 0x1 PUSH1 0x1 PUSH1 0x40 SHL SUB DUP2 GT ISZERO PUSH2 0x2047 JUMPI PUSH0 DUP1 REVERT JUMPDEST PUSH2 0x2053 DUP6 DUP3 DUP7 ADD PUSH2 0x1FC8 JUMP JUMPDEST SWAP2 POP POP SWAP3 POP SWAP3 SWAP1 POP JUMP JUMPDEST PUSH0 JUMPDEST DUP4 DUP2 LT ISZERO PUSH2 0x2077 JUMPI DUP2 DUP2 ADD MLOAD DUP4 DUP3 ADD MSTORE PUSH1 0x20 ADD PUSH2 0x205F JUMP JUMPDEST POP POP PUSH0 SWAP2 ADD MSTORE JUMP JUMPDEST PUSH0 DUP2 MLOAD DUP1 DUP5 MSTORE PUSH2 0x2096 DUP2 PUSH1 0x20 DUP7 ADD PUSH1 0x20 DUP7 ADD PUSH2 0x205D JUMP JUMPDEST PUSH1 0x1F ADD PUSH1 0x1F NOT AND SWAP3 SWAP1 SWAP3 ADD PUSH1 0x20 ADD SWAP3 SWAP2 POP POP JUMP JUMPDEST PUSH1 0x20 DUP2 MSTORE PUSH0 PUSH2 0x20BC PUSH1 0x20 DUP4 ADD DUP5 PUSH2 0x207F JUMP JUMPDEST SWAP4 SWAP3 POP POP POP JUMP JUMPDEST PUSH1 0x1 PUSH1 0x1 PUSH1 0xA0 SHL SUB DUP2 AND DUP2 EQ PUSH2 0x1590 JUMPI PUSH0 DUP1 REVERT JUMPDEST PUSH0 DUP1 PUSH1 0x40 DUP4 DUP6 SUB SLT ISZERO PUSH2 0x20E8 JUMPI PUSH0 DUP1 REVERT JUMPDEST DUP3 CALLDATALOAD PUSH2 0x20F3 DUP2 PUSH2 0x20C3 JUMP JUMPDEST SWAP5 PUSH1 0x20 SWAP4 SWAP1 SWAP4 ADD CALLDATALOAD SWAP4 POP POP POP JUMP JUMPDEST PUSH0 PUSH1 0x20 DUP3 DUP5 SUB SLT ISZERO PUSH2 0x2111 JUMPI PUSH0 DUP1 REVERT JUMPDEST POP CALLDATALOAD SWAP2 SWAP1 POP JUMP JUMPDEST PUSH0 DUP1 PUSH0 PUSH1 0x60 DUP5 DUP7 SUB SLT ISZERO PUSH2 0x212A JUMPI PUSH0 DUP1 REVERT JUMPDEST DUP4 CALLDATALOAD PUSH2 0x2135 DUP2 PUSH2 0x20C3 JUMP JUMPDEST SWAP3 POP PUSH1 0x20 DUP5 ADD CALLDATALOAD PUSH2 0x2145 DUP2 PUSH2 0x20C3 JUMP JUMPDEST SWAP3 SWAP6 SWAP3 SWAP5 POP POP POP PUSH1 0x40 SWAP2 SWAP1 SWAP2 ADD CALLDATALOAD SWAP1 JUMP JUMPDEST PUSH1 0x20 DUP1 DUP3 MSTORE DUP3 MLOAD DUP3 DUP3 ADD DUP2 SWAP1 MSTORE PUSH0 SWAP2 SWAP1 PUSH1 0x40 SWAP1 DUP2 DUP6 ADD SWAP1 DUP7 DUP5 ADD DUP6 JUMPDEST DUP3 DUP2 LT ISZERO PUSH2 0x21A0 JUMPI DUP2 MLOAD DUP1 MLOAD PUSH1 0x1 PUSH1 0x1 PUSH1 0xA0 SHL SUB AND DUP6 MSTORE DUP7 ADD MLOAD DUP7 DUP6 ADD MSTORE SWAP3 DUP5 ADD SWAP3 SWAP1 DUP6 ADD SWAP1 PUSH1 0x1 ADD PUSH2 0x2172 JUMP JUMPDEST POP SWAP2 SWAP8 SWAP7 POP POP POP POP POP POP POP JUMP JUMPDEST PUSH0 PUSH1 0x20 DUP3 DUP5 SUB SLT ISZERO PUSH2 0x21BD JUMPI PUSH0 DUP1 REVERT JUMPDEST DUP2 CALLDATALOAD PUSH2 0x20BC DUP2 PUSH2 0x20C3 JUMP JUMPDEST PUSH0 DUP1 DUP4 PUSH1 0x1F DUP5 ADD SLT PUSH2 0x21D8 JUMPI PUSH0 DUP1 REVERT JUMPDEST POP DUP2 CALLDATALOAD PUSH1 0x1 PUSH1 0x1 PUSH1 0x40 SHL SUB DUP2 GT ISZERO PUSH2 0x21EE JUMPI PUSH0 DUP1 REVERT JUMPDEST PUSH1 0x20 DUP4 ADD SWAP2 POP DUP4 PUSH1 0x20 DUP3 PUSH1 0x5 SHL DUP6 ADD ADD GT ISZERO PUSH2 0x2208 JUMPI PUSH0 DUP1 REVERT JUMPDEST SWAP3 POP SWAP3 SWAP1 POP JUMP JUMPDEST DUP1 CALLDATALOAD PUSH2 0xFFFF DUP2 AND DUP2 EQ PUSH2 0x2220 JUMPI PUSH0 DUP1 REVERT JUMPDEST SWAP2 SWAP1 POP JUMP JUMPDEST PUSH0 DUP1 PUSH0 DUP1 PUSH0 DUP1 PUSH1 0x80 DUP8 DUP10 SUB SLT ISZERO PUSH2 0x223A JUMPI PUSH0 DUP1 REVERT JUMPDEST DUP7 CALLDATALOAD PUSH1 0x1 PUSH1 0x1 PUSH1 0x40 SHL SUB DUP1 DUP3 GT ISZERO PUSH2 0x2250 JUMPI PUSH0 DUP1 REVERT JUMPDEST PUSH2 0x225C DUP11 DUP4 DUP12 ADD PUSH2 0x21C8 JUMP JUMPDEST SWAP1 SWAP9 POP SWAP7 POP PUSH1 0x20 DUP10 ADD CALLDATALOAD SWAP2 POP DUP1 DUP3 GT ISZERO PUSH2 0x2274 JUMPI PUSH0 DUP1 REVERT JUMPDEST POP PUSH2 0x2281 DUP10 DUP3 DUP11 ADD PUSH2 0x21C8 JUMP JUMPDEST SWAP1 SWAP6 POP SWAP4 POP PUSH2 0x2294 SWAP1 POP PUSH1 0x40 DUP9 ADD PUSH2 0x220F JUMP JUMPDEST SWAP2 POP PUSH2 0x22A2 PUSH1 0x60 DUP9 ADD PUSH2 0x220F JUMP JUMPDEST SWAP1 POP SWAP3 SWAP6 POP SWAP3 SWAP6 POP SWAP3 SWAP6 JUMP JUMPDEST PUSH1 0x2 DUP2 LT PUSH2 0x1590 JUMPI PUSH0 DUP1 REVERT JUMPDEST PUSH0 DUP1 PUSH0 DUP1 PUSH0 PUSH1 0xA0 DUP7 DUP9 SUB SLT ISZERO PUSH2 0x22CE JUMPI PUSH0 DUP1 REVERT JUMPDEST DUP6 CALLDATALOAD PUSH2 0x22D9 DUP2 PUSH2 0x20C3 JUMP JUMPDEST SWAP5 POP PUSH1 0x20 DUP7 ADD CALLDATALOAD SWAP4 POP PUSH1 0x40 DUP7 ADD CALLDATALOAD PUSH2 0x22F0 DUP2 PUSH2 0x22AE JUMP JUMPDEST SWAP3 POP PUSH1 0x60 DUP7 ADD CALLDATALOAD PUSH2 0x2300 DUP2 PUSH2 0x20C3 JUMP JUMPDEST SWAP2 POP PUSH1 0x80 DUP7 ADD CALLDATALOAD PUSH1 0x1 PUSH1 0x1 PUSH1 0x40 SHL SUB DUP2 GT ISZERO PUSH2 0x231A JUMPI PUSH0 DUP1 REVERT JUMPDEST PUSH2 0x2326 DUP9 DUP3 DUP10 ADD PUSH2 0x1FC8 JUMP JUMPDEST SWAP2 POP POP SWAP3 SWAP6 POP SWAP3 SWAP6 SWAP1 SWAP4 POP JUMP JUMPDEST PUSH0 PUSH1 0x20 DUP3 DUP5 SUB SLT ISZERO PUSH2 0x2343 JUMPI PUSH0 DUP1 REVERT JUMPDEST DUP2 CALLDATALOAD PUSH1 0x1 PUSH1 0x1 PUSH1 0x40 SHL SUB DUP2 GT ISZERO PUSH2 0x2358 JUMPI PUSH0 DUP1 REVERT JUMPDEST DUP3 ADD PUSH1 0x60 DUP2 DUP6 SUB SLT ISZERO PUSH2 0x20BC JUMPI PUSH0 DUP1 REVERT JUMPDEST PUSH0 DUP1 PUSH1 0x40 DUP4 DUP6 SUB SLT ISZERO PUSH2 0x237A JUMPI PUSH0 DUP1 REVERT JUMPDEST DUP3 CALLDATALOAD PUSH2 0x2385 DUP2 PUSH2 0x20C3 JUMP JUMPDEST SWAP2 POP PUSH1 0x20 DUP4 ADD CALLDATALOAD PUSH2 0x2395 DUP2 PUSH2 0x20C3 JUMP JUMPDEST DUP1 SWAP2 POP POP SWAP3 POP SWAP3 SWAP1 POP JUMP JUMPDEST PUSH0 PUSH1 0x20 DUP3 DUP5 SUB SLT ISZERO PUSH2 0x23B0 JUMPI PUSH0 DUP1 REVERT JUMPDEST POP MLOAD SWAP2 SWAP1 POP JUMP JUMPDEST PUSH0 PUSH1 0x1 PUSH1 0x1 PUSH1 0x40 SHL SUB DUP3 GT ISZERO PUSH2 0x23CF JUMPI PUSH2 0x23CF PUSH2 0x1F36 JUMP JUMPDEST POP PUSH1 0x5 SHL PUSH1 0x20 ADD SWAP1 JUMP JUMPDEST DUP1 MLOAD PUSH2 0x2220 DUP2 PUSH2 0x22AE JUMP JUMPDEST PUSH0 PUSH1 0x20 DUP1 DUP4 DUP6 SUB SLT ISZERO PUSH2 0x23F5 JUMPI PUSH0 DUP1 REVERT JUMPDEST DUP3 MLOAD PUSH1 0x1 PUSH1 0x1 PUSH1 0x40 SHL SUB DUP1 DUP3 GT ISZERO PUSH2 0x240B JUMPI PUSH0 DUP1 REVERT JUMPDEST SWAP1 DUP5 ADD SWAP1 PUSH1 0x60 DUP3 DUP8 SUB SLT ISZERO PUSH2 0x241E JUMPI PUSH0 DUP1 REVERT JUMPDEST PUSH2 0x2426 PUSH2 0x1F4A JUMP JUMPDEST DUP3 MLOAD DUP3 DUP2 GT ISZERO PUSH2 0x2434 JUMPI PUSH0 DUP1 REVERT JUMPDEST DUP4 ADD PUSH1 0x1F DUP2 ADD DUP9 SGT PUSH2 0x2444 JUMPI PUSH0 DUP1 REVERT JUMPDEST DUP1 MLOAD PUSH2 0x2452 PUSH2 0x1FE5 DUP3 PUSH2 0x23B7 JUMP JUMPDEST DUP2 DUP2 MSTORE PUSH1 0x5 SWAP2 SWAP1 SWAP2 SHL DUP3 ADD DUP7 ADD SWAP1 DUP7 DUP2 ADD SWAP1 DUP11 DUP4 GT ISZERO PUSH2 0x2470 JUMPI PUSH0 DUP1 REVERT JUMPDEST DUP8 DUP5 ADD JUMPDEST DUP4 DUP2 LT ISZERO PUSH2 0x24E1 JUMPI DUP1 MLOAD DUP8 DUP2 GT ISZERO PUSH2 0x248B JUMPI PUSH0 DUP1 DUP2 REVERT JUMPDEST DUP6 ADD PUSH1 0x3F DUP2 ADD DUP14 SGT PUSH2 0x249C JUMPI PUSH0 DUP1 DUP2 REVERT JUMPDEST DUP10 DUP2 ADD MLOAD PUSH1 0x40 PUSH2 0x24AE PUSH2 0x1FE5 DUP4 PUSH2 0x1FA2 JUMP JUMPDEST DUP3 DUP2 MSTORE DUP16 DUP3 DUP5 DUP7 ADD ADD GT ISZERO PUSH2 0x24C2 JUMPI PUSH0 DUP1 DUP2 REVERT JUMPDEST PUSH2 0x24D1 DUP4 DUP15 DUP4 ADD DUP5 DUP8 ADD PUSH2 0x205D JUMP JUMPDEST DUP7 MSTORE POP POP POP SWAP2 DUP9 ADD SWAP2 DUP9 ADD PUSH2 0x2474 JUMP JUMPDEST POP DUP5 MSTORE POP POP POP DUP3 DUP5 ADD MLOAD DUP5 DUP3 ADD MSTORE PUSH2 0x24FB PUSH1 0x40 DUP5 ADD PUSH2 0x23D9 JUMP JUMPDEST PUSH1 0x40 DUP3 ADD MSTORE SWAP7 SWAP6 POP POP POP POP POP POP JUMP JUMPDEST PUSH4 0x4E487B71 PUSH1 0xE0 SHL PUSH0 MSTORE PUSH1 0x11 PUSH1 0x4 MSTORE PUSH1 0x24 PUSH0 REVERT JUMPDEST DUP1 DUP3 MUL DUP2 ISZERO DUP3 DUP3 DIV DUP5 EQ OR PUSH2 0xA65 JUMPI PUSH2 0xA65 PUSH2 0x250A JUMP JUMPDEST PUSH0 DUP3 PUSH2 0x254F JUMPI PUSH4 0x4E487B71 PUSH1 0xE0 SHL PUSH0 MSTORE PUSH1 0x12 PUSH1 0x4 MSTORE PUSH1 0x24 PUSH0 REVERT JUMPDEST POP DIV SWAP1 JUMP JUMPDEST PUSH0 PUSH1 0x20 DUP3 DUP5 SUB SLT ISZERO PUSH2 0x2564 JUMPI PUSH0 DUP1 REVERT JUMPDEST DUP2 MLOAD PUSH2 0x20BC DUP2 PUSH2 0x20C3 JUMP JUMPDEST PUSH4 0x4E487B71 PUSH1 0xE0 SHL PUSH0 MSTORE PUSH1 0x32 PUSH1 0x4 MSTORE PUSH1 0x24 PUSH0 REVERT JUMPDEST PUSH4 0x4E487B71 PUSH1 0xE0 SHL PUSH0 MSTORE PUSH1 0x21 PUSH1 0x4 MSTORE PUSH1 0x24 PUSH0 REVERT JUMPDEST PUSH1 0x2 DUP2 LT PUSH2 0x25B3 JUMPI PUSH4 0x4E487B71 PUSH1 0xE0 SHL PUSH0 MSTORE PUSH1 0x21 PUSH1 0x4 MSTORE PUSH1 0x24 PUSH0 REVERT JUMPDEST SWAP1 MSTORE JUMP JUMPDEST PUSH1 0x1 PUSH1 0x1 PUSH1 0xA0 SHL SUB DUP7 DUP2 AND DUP3 MSTORE PUSH1 0x20 DUP3 ADD DUP7 SWAP1 MSTORE PUSH0 SWAP1 PUSH2 0x25DA PUSH1 0x40 DUP5 ADD DUP8 PUSH2 0x2597 JUMP JUMPDEST DUP1 DUP6 AND PUSH1 0x60 DUP5 ADD MSTORE POP PUSH1 0xA0 PUSH1 0x80 DUP4 ADD MSTORE PUSH2 0x25F7 PUSH1 0xA0 DUP4 ADD DUP5 PUSH2 0x207F JUMP JUMPDEST SWAP8 SWAP7 POP POP POP POP POP POP POP JUMP JUMPDEST DUP1 DUP3 ADD DUP1 DUP3 GT ISZERO PUSH2 0xA65 JUMPI PUSH2 0xA65 PUSH2 0x250A JUMP JUMPDEST PUSH0 PUSH1 0x1 DUP3 ADD PUSH2 0x2626 JUMPI PUSH2 0x2626 PUSH2 0x250A JUMP JUMPDEST POP PUSH1 0x1 ADD SWAP1 JUMP JUMPDEST DUP2 DUP2 SUB DUP2 DUP2 GT ISZERO PUSH2 0xA65 JUMPI PUSH2 0xA65 PUSH2 0x250A JUMP JUMPDEST PUSH0 PUSH1 0x20 DUP3 DUP5 SUB SLT ISZERO PUSH2 0x2650 JUMPI PUSH0 DUP1 REVERT JUMPDEST DUP2 MLOAD DUP1 ISZERO ISZERO DUP2 EQ PUSH2 0x20BC JUMPI PUSH0 DUP1 REVERT JUMPDEST PUSH1 0x1 DUP2 DUP2 SHR SWAP1 DUP3 AND DUP1 PUSH2 0x2673 JUMPI PUSH1 0x7F DUP3 AND SWAP2 POP JUMPDEST PUSH1 0x20 DUP3 LT DUP2 SUB PUSH2 0x2691 JUMPI PUSH4 0x4E487B71 PUSH1 0xE0 SHL PUSH0 MSTORE PUSH1 0x22 PUSH1 0x4 MSTORE PUSH1 0x24 PUSH0 REVERT JUMPDEST POP SWAP2 SWAP1 POP JUMP JUMPDEST PUSH1 0x40 DUP1 DUP3 MSTORE DUP2 ADD DUP5 SWAP1 MSTORE PUSH0 DUP6 PUSH1 0x60 DUP4 ADD DUP3 JUMPDEST DUP8 DUP2 LT ISZERO PUSH2 0x26D9 JUMPI DUP3 CALLDATALOAD PUSH2 0x26BC DUP2 PUSH2 0x20C3 JUMP JUMPDEST PUSH1 0x1 PUSH1 0x1 PUSH1 0xA0 SHL SUB AND DUP3 MSTORE PUSH1 0x20 SWAP3 DUP4 ADD SWAP3 SWAP1 SWAP2 ADD SWAP1 PUSH1 0x1 ADD PUSH2 0x26A9 JUMP JUMPDEST POP DUP4 DUP2 SUB PUSH1 0x20 DUP6 ADD MSTORE DUP5 DUP2 MSTORE PUSH1 0x1 PUSH1 0x1 PUSH1 0xFB SHL SUB DUP6 GT ISZERO PUSH2 0x26F8 JUMPI PUSH0 DUP1 REVERT JUMPDEST DUP5 PUSH1 0x5 SHL SWAP2 POP DUP2 DUP7 PUSH1 0x20 DUP4 ADD CALLDATACOPY ADD PUSH1 0x20 ADD SWAP7 SWAP6 POP POP POP POP POP POP JUMP JUMPDEST PUSH0 PUSH1 0x20 DUP3 DUP5 SUB SLT ISZERO PUSH2 0x2723 JUMPI PUSH0 DUP1 REVERT JUMPDEST DUP2 CALLDATALOAD PUSH2 0x20BC DUP2 PUSH2 0x22AE JUMP JUMPDEST PUSH0 DUP1 DUP4 CALLDATALOAD PUSH1 0x1E NOT DUP5 CALLDATASIZE SUB ADD DUP2 SLT PUSH2 0x2743 JUMPI PUSH0 DUP1 REVERT JUMPDEST DUP4 ADD DUP1 CALLDATALOAD SWAP2 POP PUSH1 0x1 PUSH1 0x1 PUSH1 0x40 SHL SUB DUP3 GT ISZERO PUSH2 0x275C JUMPI PUSH0 DUP1 REVERT JUMPDEST PUSH1 0x20 ADD SWAP2 POP PUSH1 0x5 DUP2 SWAP1 SHL CALLDATASIZE SUB DUP3 SGT ISZERO PUSH2 0x2208 JUMPI PUSH0 DUP1 REVERT JUMPDEST PUSH0 DUP1 DUP4 CALLDATALOAD PUSH1 0x1E NOT DUP5 CALLDATASIZE SUB ADD DUP2 SLT PUSH2 0x2788 JUMPI PUSH0 DUP1 REVERT JUMPDEST DUP4 ADD DUP1 CALLDATALOAD SWAP2 POP PUSH1 0x1 PUSH1 0x1 PUSH1 0x40 SHL SUB DUP3 GT ISZERO PUSH2 0x27A1 JUMPI PUSH0 DUP1 REVERT JUMPDEST PUSH1 0x20 ADD SWAP2 POP CALLDATASIZE DUP2 SWAP1 SUB DUP3 SGT ISZERO PUSH2 0x2208 JUMPI PUSH0 DUP1 REVERT JUMPDEST PUSH1 0x1 PUSH1 0x1 PUSH1 0xA0 SHL SUB DUP8 DUP2 AND DUP3 MSTORE PUSH1 0x20 DUP3 ADD DUP8 SWAP1 MSTORE PUSH0 SWAP1 PUSH2 0x27D8 PUSH1 0x40 DUP5 ADD DUP9 PUSH2 0x2597 JUMP JUMPDEST DUP1 DUP7 AND PUSH1 0x60 DUP5 ADD MSTORE POP PUSH1 0xA0 PUSH1 0x80 DUP4 ADD MSTORE DUP3 PUSH1 0xA0 DUP4 ADD MSTORE DUP3 DUP5 PUSH1 0xC0 DUP5 ADD CALLDATACOPY PUSH0 PUSH1 0xC0 DUP5 DUP5 ADD ADD MSTORE PUSH1 0xC0 PUSH1 0x1F NOT PUSH1 0x1F DUP6 ADD AND DUP4 ADD ADD SWAP1 POP SWAP8 SWAP7 POP POP POP POP POP POP POP JUMP JUMPDEST PUSH0 PUSH1 0x20 DUP1 DUP4 DUP6 SUB SLT ISZERO PUSH2 0x2828 JUMPI PUSH0 DUP1 REVERT JUMPDEST DUP3 MLOAD PUSH1 0x1 PUSH1 0x1 PUSH1 0x40 SHL SUB DUP2 GT ISZERO PUSH2 0x283D JUMPI PUSH0 DUP1 REVERT JUMPDEST DUP4 ADD PUSH1 0x1F DUP2 ADD DUP6 SGT PUSH2 0x284D JUMPI PUSH0 DUP1 REVERT JUMPDEST DUP1 MLOAD PUSH2 0x285B PUSH2 0x1FE5 DUP3 PUSH2 0x23B7 JUMP JUMPDEST DUP2 DUP2 MSTORE PUSH1 0x5 SWAP2 SWAP1 SWAP2 SHL DUP3 ADD DUP4 ADD SWAP1 DUP4 DUP2 ADD SWAP1 DUP8 DUP4 GT ISZERO PUSH2 0x2879 JUMPI PUSH0 DUP1 REVERT JUMPDEST SWAP3 DUP5 ADD SWAP3 JUMPDEST DUP3 DUP5 LT ISZERO PUSH2 0x25F7 JUMPI DUP4 MLOAD PUSH2 0x2891 DUP2 PUSH2 0x20C3 JUMP JUMPDEST DUP3 MSTORE SWAP3 DUP5 ADD SWAP3 SWAP1 DUP5 ADD SWAP1 PUSH2 0x287E JUMP JUMPDEST PUSH0 DUP2 MLOAD DUP1 DUP5 MSTORE PUSH1 0x20 DUP1 DUP6 ADD SWAP5 POP DUP1 DUP5 ADD PUSH0 JUMPDEST DUP4 DUP2 LT ISZERO PUSH2 0x28D7 JUMPI DUP2 MLOAD PUSH1 0x1 PUSH1 0x1 PUSH1 0xA0 SHL SUB AND DUP8 MSTORE SWAP6 DUP3 ADD SWAP6 SWAP1 DUP3 ADD SWAP1 PUSH1 0x1 ADD PUSH2 0x28B2 JUMP JUMPDEST POP SWAP5 SWAP6 SWAP5 POP POP POP POP POP JUMP JUMPDEST DUP3 DUP2 MSTORE PUSH1 0x40 PUSH1 0x20 DUP3 ADD MSTORE PUSH0 PUSH2 0x28FA PUSH1 0x40 DUP4 ADD DUP5 PUSH2 0x28A0 JUMP JUMPDEST SWAP5 SWAP4 POP POP POP POP JUMP JUMPDEST PUSH0 PUSH1 0x20 DUP1 DUP4 DUP6 SUB SLT ISZERO PUSH2 0x2913 JUMPI PUSH0 DUP1 REVERT JUMPDEST DUP3 MLOAD PUSH1 0x1 PUSH1 0x1 PUSH1 0x40 SHL SUB DUP2 GT ISZERO PUSH2 0x2928 JUMPI PUSH0 DUP1 REVERT JUMPDEST DUP4 ADD PUSH1 0x1F DUP2 ADD DUP6 SGT PUSH2 0x2938 JUMPI PUSH0 DUP1 REVERT JUMPDEST DUP1 MLOAD PUSH2 0x2946 PUSH2 0x1FE5 DUP3 PUSH2 0x23B7 JUMP JUMPDEST DUP2 DUP2 MSTORE PUSH1 0x5 SWAP2 SWAP1 SWAP2 SHL DUP3 ADD DUP4 ADD SWAP1 DUP4 DUP2 ADD SWAP1 DUP8 DUP4 GT ISZERO PUSH2 0x2964 JUMPI PUSH0 DUP1 REVERT JUMPDEST SWAP3 DUP5 ADD SWAP3 JUMPDEST DUP3 DUP5 LT ISZERO PUSH2 0x25F7 JUMPI DUP4 MLOAD DUP3 MSTORE SWAP3 DUP5 ADD SWAP3 SWAP1 DUP5 ADD SWAP1 PUSH2 0x2969 JUMP JUMPDEST DUP6 DUP2 MSTORE DUP5 PUSH1 0x20 DUP3 ADD MSTORE PUSH1 0xA0 PUSH1 0x40 DUP3 ADD MSTORE PUSH0 PUSH2 0x29A0 PUSH1 0xA0 DUP4 ADD DUP7 PUSH2 0x28A0 JUMP JUMPDEST PUSH1 0x1 PUSH1 0x1 PUSH1 0xA0 SHL SUB SWAP5 SWAP1 SWAP5 AND PUSH1 0x60 DUP4 ADD MSTORE POP PUSH1 0x80 ADD MSTORE SWAP4 SWAP3 POP POP POP JUMP JUMPDEST PUSH1 0x40 DUP2 MSTORE PUSH0 PUSH2 0x29CF PUSH1 0x40 DUP4 ADD DUP6 PUSH2 0x207F JUMP JUMPDEST SWAP1 POP DUP3 PUSH1 0x20 DUP4 ADD MSTORE SWAP4 SWAP3 POP POP POP JUMP JUMPDEST PUSH1 0x20 DUP2 MSTORE PUSH0 DUP3 MLOAD PUSH1 0xA0 PUSH1 0x20 DUP5 ADD MSTORE PUSH2 0x29F9 PUSH1 0xC0 DUP5 ADD DUP3 PUSH2 0x207F JUMP JUMPDEST SWAP1 POP PUSH1 0x1 DUP1 PUSH1 0xA0 SHL SUB PUSH1 0x20 DUP6 ADD MLOAD AND PUSH1 0x40 DUP5 ADD MSTORE PUSH1 0x40 DUP5 ADD MLOAD PUSH1 0x60 DUP5 ADD MSTORE PUSH1 0x60 DUP5 ADD MLOAD PUSH1 0x80 DUP5 ADD MSTORE PUSH1 0x80 DUP5 ADD MLOAD PUSH1 0xA0 DUP5 ADD MSTORE DUP1 SWAP2 POP POP SWAP3 SWAP2 POP POP JUMP JUMPDEST PUSH0 DUP3 MLOAD PUSH2 0x2A46 DUP2 DUP5 PUSH1 0x20 DUP8 ADD PUSH2 0x205D JUMP JUMPDEST SWAP2 SWAP1 SWAP2 ADD SWAP3 SWAP2 POP POP JUMP INVALID LOG2 PUSH5 0x6970667358 0x22 SLT KECCAK256 0xAB DUP11 0x5C PUSH8 0x4B37DCE16C3645C8 PUSH5 0xC042A2673F 0xCF GASPRICE 0xBA MUL COINBASE GASLIMIT 0xAE 0xCD PUSH6 0xF625B51F7B64 PUSH20 0x6F6C634300081400330000000000000000000000 "
				},
				"gasEstimates": {
					"creation": {
						"codeDepositCost": "2177200",
						"executionCost": "infinite",
						"totalCost": "infinite"
					},
					"external": {
						"allowance(address,address)": "infinite",
						"approve(address,uint256)": "24797",
						"balanceOf(address)": "2596",
						"decimals()": "288",
						"deposit((bytes[],uint256,uint8))": "infinite",
						"depositFee()": "2369",
						"ethDepositedFailed(address)": "2554",
						"failedSwaps(uint256)": "8976",
						"getAllTokens()": "infinite",
						"initialedTokens()": "2387",
						"initializeTokens(address[],uint256[],uint16,uint16)": "infinite",
						"name()": "infinite",
						"owner()": "2440",
						"renounceOwnership()": "infinite",
						"setSlippageTolerance(uint256)": "22394",
						"slippageTolerance()": "2360",
						"swapTokenForToken(address,uint256,uint8,address,bytes)": "infinite",
						"symbol()": "infinite",
						"totalSupply()": "2370",
						"transfer(address,uint256)": "51312",
						"transferFrom(address,address,uint256)": "infinite",
						"transferOwnership(address)": "infinite",
						"uniswapV2Router()": "2404",
						"uniswapV3Quoter()": "2447",
						"uniswapV3Router()": "2404",
						"userFailedSwaps(address)": "2555",
						"withdrawFeesByOwner(address)": "infinite",
						"withdrawInKind(uint256)": "infinite",
						"withdrawToETH(uint256,bytes)": "infinite",
						"withdrawalFee()": "2401"
					}
				},
				"methodIdentifiers": {
					"allowance(address,address)": "dd62ed3e",
					"approve(address,uint256)": "095ea7b3",
					"balanceOf(address)": "70a08231",
					"decimals()": "313ce567",
					"deposit((bytes[],uint256,uint8))": "945098db",
					"depositFee()": "67a52793",
					"ethDepositedFailed(address)": "c38cd0b5",
					"failedSwaps(uint256)": "378a653c",
					"getAllTokens()": "2a5c792a",
					"initialedTokens()": "81a06b73",
					"initializeTokens(address[],uint256[],uint16,uint16)": "3f595e29",
					"name()": "06fdde03",
					"owner()": "8da5cb5b",
					"renounceOwnership()": "715018a6",
					"setSlippageTolerance(uint256)": "117da1ee",
					"slippageTolerance()": "d03153aa",
					"swapTokenForToken(address,uint256,uint8,address,bytes)": "74a66061",
					"symbol()": "95d89b41",
					"totalSupply()": "18160ddd",
					"transfer(address,uint256)": "a9059cbb",
					"transferFrom(address,address,uint256)": "23b872dd",
					"transferOwnership(address)": "f2fde38b",
					"uniswapV2Router()": "1694505e",
					"uniswapV3Quoter()": "4d20d0f8",
					"uniswapV3Router()": "2c76d7a6",
					"userFailedSwaps(address)": "36a43f2b",
					"withdrawFeesByOwner(address)": "a738c7df",
					"withdrawInKind(uint256)": "3043d4d9",
					"withdrawToETH(uint256,bytes)": "00d06ddd",
					"withdrawalFee()": "8bc7e8c4"
				}
			},
			"storageLayout": {
				"storage": [
					{
						"astId": 8,
						"contract": "contracts/PYGGportfolioManagement.sol:PYGGportfolioManagement",
						"label": "_owner",
						"offset": 0,
						"slot": "0",
						"type": "t_address"
					},
					{
						"astId": 307,
						"contract": "contracts/PYGGportfolioManagement.sol:PYGGportfolioManagement",
						"label": "_balances",
						"offset": 0,
						"slot": "1",
						"type": "t_mapping(t_address,t_uint256)"
					},
					{
						"astId": 313,
						"contract": "contracts/PYGGportfolioManagement.sol:PYGGportfolioManagement",
						"label": "_allowances",
						"offset": 0,
						"slot": "2",
						"type": "t_mapping(t_address,t_mapping(t_address,t_uint256))"
					},
					{
						"astId": 315,
						"contract": "contracts/PYGGportfolioManagement.sol:PYGGportfolioManagement",
						"label": "_totalSupply",
						"offset": 0,
						"slot": "3",
						"type": "t_uint256"
					},
					{
						"astId": 317,
						"contract": "contracts/PYGGportfolioManagement.sol:PYGGportfolioManagement",
						"label": "_name",
						"offset": 0,
						"slot": "4",
						"type": "t_string_storage"
					},
					{
						"astId": 319,
						"contract": "contracts/PYGGportfolioManagement.sol:PYGGportfolioManagement",
						"label": "_symbol",
						"offset": 0,
						"slot": "5",
						"type": "t_string_storage"
					},
					{
						"astId": 1916,
						"contract": "contracts/PYGGportfolioManagement.sol:PYGGportfolioManagement",
						"label": "failedSwaps",
						"offset": 0,
						"slot": "6",
						"type": "t_array(t_struct(FailedSwap)1879_storage)dyn_storage"
					},
					{
						"astId": 1918,
						"contract": "contracts/PYGGportfolioManagement.sol:PYGGportfolioManagement",
						"label": "slippageTolerance",
						"offset": 0,
						"slot": "7",
						"type": "t_uint256"
					},
					{
						"astId": 1922,
						"contract": "contracts/PYGGportfolioManagement.sol:PYGGportfolioManagement",
						"label": "userFailedSwaps",
						"offset": 0,
						"slot": "8",
						"type": "t_mapping(t_address,t_uint256)"
					},
					{
						"astId": 1925,
						"contract": "contracts/PYGGportfolioManagement.sol:PYGGportfolioManagement",
						"label": "uniswapV2Router",
						"offset": 0,
						"slot": "9",
						"type": "t_contract(IUniswapV2Router02)2671"
					},
					{
						"astId": 1928,
						"contract": "contracts/PYGGportfolioManagement.sol:PYGGportfolioManagement",
						"label": "uniswapV3Router",
						"offset": 0,
						"slot": "10",
						"type": "t_contract(ISwapRouter)1047"
					},
					{
						"astId": 1931,
						"contract": "contracts/PYGGportfolioManagement.sol:PYGGportfolioManagement",
						"label": "uniswapV3Quoter",
						"offset": 0,
						"slot": "11",
						"type": "t_contract(IUniswapV3Quoter)2692"
					},
					{
						"astId": 1240,
						"contract": "contracts/PYGGportfolioManagement.sol:PYGGportfolioManagement",
						"label": "tokens",
						"offset": 0,
						"slot": "12",
						"type": "t_array(t_struct(TokenInfo)1871_storage)dyn_storage"
					},
					{
						"astId": 1242,
						"contract": "contracts/PYGGportfolioManagement.sol:PYGGportfolioManagement",
						"label": "totalFeesWETH",
						"offset": 0,
						"slot": "13",
						"type": "t_uint256"
					},
					{
						"astId": 1244,
						"contract": "contracts/PYGGportfolioManagement.sol:PYGGportfolioManagement",
						"label": "withdrawalFee",
						"offset": 0,
						"slot": "14",
						"type": "t_uint16"
					},
					{
						"astId": 1246,
						"contract": "contracts/PYGGportfolioManagement.sol:PYGGportfolioManagement",
						"label": "depositFee",
						"offset": 2,
						"slot": "14",
						"type": "t_uint16"
					},
					{
						"astId": 1249,
						"contract": "contracts/PYGGportfolioManagement.sol:PYGGportfolioManagement",
						"label": "initialedTokens",
						"offset": 4,
						"slot": "14",
						"type": "t_bool"
					},
					{
						"astId": 1253,
						"contract": "contracts/PYGGportfolioManagement.sol:PYGGportfolioManagement",
						"label": "ethDepositedFailed",
						"offset": 0,
						"slot": "15",
						"type": "t_mapping(t_address,t_uint256)"
					},
					{
						"astId": 1255,
						"contract": "contracts/PYGGportfolioManagement.sol:PYGGportfolioManagement",
						"label": "factory",
						"offset": 0,
						"slot": "16",
						"type": "t_address"
					}
				],
				"types": {
					"t_address": {
						"encoding": "inplace",
						"label": "address",
						"numberOfBytes": "20"
					},
					"t_array(t_struct(FailedSwap)1879_storage)dyn_storage": {
						"base": "t_struct(FailedSwap)1879_storage",
						"encoding": "dynamic_array",
						"label": "struct FailedSwap[]",
						"numberOfBytes": "32"
					},
					"t_array(t_struct(TokenInfo)1871_storage)dyn_storage": {
						"base": "t_struct(TokenInfo)1871_storage",
						"encoding": "dynamic_array",
						"label": "struct TokenInfo[]",
						"numberOfBytes": "32"
					},
					"t_bool": {
						"encoding": "inplace",
						"label": "bool",
						"numberOfBytes": "1"
					},
					"t_contract(IERC20)877": {
						"encoding": "inplace",
						"label": "contract IERC20",
						"numberOfBytes": "20"
					},
					"t_contract(ISwapRouter)1047": {
						"encoding": "inplace",
						"label": "contract ISwapRouter",
						"numberOfBytes": "20"
					},
					"t_contract(IUniswapV2Router02)2671": {
						"encoding": "inplace",
						"label": "contract IUniswapV2Router02",
						"numberOfBytes": "20"
					},
					"t_contract(IUniswapV3Quoter)2692": {
						"encoding": "inplace",
						"label": "contract IUniswapV3Quoter",
						"numberOfBytes": "20"
					},
					"t_mapping(t_address,t_mapping(t_address,t_uint256))": {
						"encoding": "mapping",
						"key": "t_address",
						"label": "mapping(address => mapping(address => uint256))",
						"numberOfBytes": "32",
						"value": "t_mapping(t_address,t_uint256)"
					},
					"t_mapping(t_address,t_uint256)": {
						"encoding": "mapping",
						"key": "t_address",
						"label": "mapping(address => uint256)",
						"numberOfBytes": "32",
						"value": "t_uint256"
					},
					"t_string_storage": {
						"encoding": "bytes",
						"label": "string",
						"numberOfBytes": "32"
					},
					"t_struct(FailedSwap)1879_storage": {
						"encoding": "inplace",
						"label": "struct FailedSwap",
						"members": [
							{
								"astId": 1873,
								"contract": "contracts/PYGGportfolioManagement.sol:PYGGportfolioManagement",
								"label": "user",
								"offset": 0,
								"slot": "0",
								"type": "t_address"
							},
							{
								"astId": 1876,
								"contract": "contracts/PYGGportfolioManagement.sol:PYGGportfolioManagement",
								"label": "token",
								"offset": 0,
								"slot": "1",
								"type": "t_contract(IERC20)877"
							},
							{
								"astId": 1878,
								"contract": "contracts/PYGGportfolioManagement.sol:PYGGportfolioManagement",
								"label": "amount",
								"offset": 0,
								"slot": "2",
								"type": "t_uint256"
							}
						],
						"numberOfBytes": "96"
					},
					"t_struct(TokenInfo)1871_storage": {
						"encoding": "inplace",
						"label": "struct TokenInfo",
						"members": [
							{
								"astId": 1868,
								"contract": "contracts/PYGGportfolioManagement.sol:PYGGportfolioManagement",
								"label": "token",
								"offset": 0,
								"slot": "0",
								"type": "t_contract(IERC20)877"
							},
							{
								"astId": 1870,
								"contract": "contracts/PYGGportfolioManagement.sol:PYGGportfolioManagement",
								"label": "targetPercentage",
								"offset": 0,
								"slot": "1",
								"type": "t_uint256"
							}
						],
						"numberOfBytes": "64"
					},
					"t_uint16": {
						"encoding": "inplace",
						"label": "uint16",
						"numberOfBytes": "2"
					},
					"t_uint256": {
						"encoding": "inplace",
						"label": "uint256",
						"numberOfBytes": "32"
					}
				}
			},
			"userdoc": {
				"kind": "user",
				"methods": {},
				"version": 1
			}
		}
	}
}