{
	"data": {
		"bytecode": {
			"linkReferences": {},
			"object": "6080604052600e805460ff191690553480156200001a575f80fd5b5060405162002a5938038062002a598339810160408190526200003d9162000219565b828282878733806200006857604051631e4fbdf760e01b81525f600482015260240160405180910390fd5b6200007381620000f0565b50600462000082838262000341565b50600562000091828262000341565b5050600980546001600160a01b039586166001600160a01b031991821617909155600a80549486169482169490941790935550600b805491909316908216179091556103e8600755601080549091163317905550620004099350505050565b5f80546001600160a01b038381166001600160a01b0319831681178455604051919092169283917f8be0079c531659141344cd1fd0a4f28419497f9722a3daafe3b4186f6b6457e09190a35050565b634e487b7160e01b5f52604160045260245ffd5b5f82601f83011262000163575f80fd5b81516001600160401b03808211156200018057620001806200013f565b604051601f8301601f19908116603f01168101908282118183101715620001ab57620001ab6200013f565b81604052838152602092508683858801011115620001c7575f80fd5b5f91505b83821015620001ea5785820183015181830184015290820190620001cb565b5f93810190920192909252949350505050565b80516001600160a01b038116811462000214575f80fd5b919050565b5f805f805f60a086880312156200022e575f80fd5b85516001600160401b038082111562000245575f80fd5b6200025389838a0162000153565b9650602088015191508082111562000269575f80fd5b50620002788882890162000153565b9450506200028960408701620001fd565b92506200029960608701620001fd565b9150620002a960808701620001fd565b90509295509295909350565b600181811c90821680620002ca57607f821691505b602082108103620002e957634e487b7160e01b5f52602260045260245ffd5b50919050565b601f8211156200033c575f81815260208120601f850160051c81016020861015620003175750805b601f850160051c820191505b81811015620003385782815560010162000323565b5050505b505050565b81516001600160401b038111156200035d576200035d6200013f565b62000375816200036e8454620002b5565b84620002ef565b602080601f831160018114620003ab575f8415620003935750858301515b5f19600386901b1c1916600185901b17855562000338565b5f85815260208120601f198616915b82811015620003db57888601518255948401946001909101908401620003ba565b5085821015620003f957878501515f19600388901b60f8161c191681555b5050505050600190811b01905550565b61264280620004175f395ff3fe6080604052600436106101ae575f3560e01c806370a08231116100e7578063a738c7df11610087578063d03153aa11610062578063d03153aa146104df578063dd62ed3e146104f4578063e24e9e0714610538578063f2fde38b14610557575f80fd5b8063a738c7df14610476578063a9059cbb14610495578063c38cd0b5146104b4575f80fd5b806381a06b73116100c257806381a06b731461041a5780638da5cb5b1461043357806395d89b411461044f57806398b1e06a14610463575f80fd5b806370a08231146103b3578063715018a6146103e757806374a66061146103fb575f80fd5b80632a5c792a11610152578063313ce5671161012d578063313ce5671461031e57806336a43f2b14610339578063378a653c146103645780634d20d0f814610394575f80fd5b80632a5c792a146102bf5780632c76d7a6146102e05780633043d4d9146102ff575f80fd5b8063117da1ee1161018d578063117da1ee1461022c5780631694505e1461024b57806318160ddd1461028257806323b872dd146102a0575f80fd5b8062d06ddd146101b257806306fdde03146101d3578063095ea7b3146101fd575b5f80fd5b3480156101bd575f80fd5b506101d16101cc366004611dc4565b610576565b005b3480156101de575f80fd5b506101e7610975565b6040516101f49190611e4b565b60405180910390f35b348015610208575f80fd5b5061021c610217366004611e78565b610a05565b60405190151581526020016101f4565b348015610237575f80fd5b506101d1610246366004611ea2565b610a1e565b348015610256575f80fd5b5060095461026a906001600160a01b031681565b6040516001600160a01b0390911681526020016101f4565b34801561028d575f80fd5b506003545b6040519081526020016101f4565b3480156102ab575f80fd5b5061021c6102ba366004611eb9565b610a5e565b3480156102ca575f80fd5b506102d3610a81565b6040516101f49190611f2b565b3480156102eb575f80fd5b50600a5461026a906001600160a01b031681565b34801561030a575f80fd5b506101d1610319366004611ea2565b610b44565b348015610329575f80fd5b50604051601281526020016101f4565b348015610344575f80fd5b50610292610353366004611fa5565b60086020525f908152604090205481565b34801561036f575f80fd5b5061038361037e366004611ea2565b610d36565b6040516101f4959493929190611fc0565b34801561039f575f80fd5b50600b5461026a906001600160a01b031681565b3480156103be575f80fd5b506102926103cd366004611fa5565b6001600160a01b03165f9081526001602052604090205490565b3480156103f2575f80fd5b506101d1610d89565b348015610406575f80fd5b50610292610415366004612014565b610d9c565b348015610425575f80fd5b50600e5461021c9060ff1681565b34801561043e575f80fd5b505f546001600160a01b031661026a565b34801561045a575f80fd5b506101e7610e24565b6101d161047136600461208c565b610e33565b348015610481575f80fd5b506101d1610490366004611fa5565b6111d6565b3480156104a0575f80fd5b5061021c6104af366004611e78565b61127f565b3480156104bf575f80fd5b506102926104ce366004611fa5565b600f6020525f908152604090205481565b3480156104ea575f80fd5b5061029260075481565b3480156104ff575f80fd5b5061029261050e3660046120c6565b6001600160a01b039182165f90815260026020908152604080832093909416825291909152205490565b348015610543575f80fd5b506101d1610552366004612145565b61128c565b348015610562575f80fd5b506101d1610571366004611fa5565b61156f565b5f82116105af5760405162461bcd60e51b815260206004820152600260248201526103e360f41b60448201526064015b60405180910390fd5b6040516370a0823160e01b8152336004820152829030906370a0823190602401602060405180830381865afa1580156105ea573d5f803e3d5ffd5b505050506040513d601f19601f8201168201806040525081019061060e9190612200565b101561064c5760405162461bcd60e51b815260206004820152600d60248201526c08525b9cdd59999a58da595b9d609a1b60448201526064016105a6565b5f61065660035490565b6106628461271061222b565b61066c9190612242565b90505f60095f9054906101000a90046001600160a01b03166001600160a01b031663ad5c46486040518163ffffffff1660e01b8152600401602060405180830381865afa1580156106bf573d5f803e3d5ffd5b505050506040513d601f19601f820116820180604052508101906106e39190612261565b90505f805b600c5481101561083c575f600c82815481106107065761070661227c565b5f918252602082206003919091020180546040516370a0823160e01b81523060048201529193506127109188916001600160a01b0316906370a0823190602401602060405180830381865afa158015610761573d5f803e3d5ffd5b505050506040513d601f19601f820116820180604052508101906107859190612200565b61078f919061222b565b6107999190612242565b825460028401546040516374a6606160e01b815292935030926374a66061926107da926001600160a01b0390911691869160ff169033908e90600401612290565b6020604051808303815f875af1925050508015610814575060408051601f3d908101601f1916820190925261081191810190612200565b60015b156108275761082381866122db565b9450505b50508080610834906122ee565b9150506106e8565b5061084733866115a9565b601054604080516322f1fa3160e21b815290515f926001600160a01b031691638bc7e8c49160048083019260209291908290030181865afa15801561088e573d5f803e3d5ffd5b505050506040513d601f19601f820116820180604052508101906108b29190612306565b9050811561096d575f6127106108cc61ffff84168561222b565b6108d69190612242565b90505f6108e38285612327565b905081600d5f8282546108f691906122db565b909155505060405163a9059cbb60e01b8152336004820152602481018290526001600160a01b0386169063a9059cbb906044016020604051808303815f875af1158015610945573d5f803e3d5ffd5b505050506040513d601f19601f82011682018060405250810190610969919061233a565b5050505b505050505050565b60606004805461098490612359565b80601f01602080910402602001604051908101604052809291908181526020018280546109b090612359565b80156109fb5780601f106109d2576101008083540402835291602001916109fb565b820191905f5260205f20905b8154815290600101906020018083116109de57829003601f168201915b5050505050905090565b5f33610a128185856115e1565b60019150505b92915050565b612710811115610a595760405162461bcd60e51b81526004016105a690602080825260049082015263021534c560e41b604082015260600190565b600755565b5f33610a6b8582856115ee565b610a76858585611669565b506001949350505050565b6060600c805480602002602001604051908101604052809291908181526020015f905b82821015610b3b575f848152602090819020604080516080810182526003860290920180546001600160a01b03168352600180820154948401949094526002810154929390929184019160ff1690811115610b0157610b01611ef7565b6001811115610b1257610b12611ef7565b815260029190910154610100900462ffffff166020918201529082526001929092019101610aa4565b50505050905090565b5f8111610b795760405162461bcd60e51b81526020600482015260036024820152620573e360ec1b60448201526064016105a6565b335f90815260016020526040902054811115610bc25760405162461bcd60e51b81526020600482015260086024820152672162616c616e636560c01b60448201526064016105a6565b5f610bcc60035490565b610bd88361271061222b565b610be29190612242565b9050610bee33836115a9565b5f5b600c54811015610d31575f600c8281548110610c0e57610c0e61227c565b5f918252602082206003919091020180546040516370a0823160e01b81523060048201529193506127109186916001600160a01b0316906370a0823190602401602060405180830381865afa158015610c69573d5f803e3d5ffd5b505050506040513d601f19601f82011682018060405250810190610c8d9190612200565b610c97919061222b565b610ca19190612242565b90508015610d1c57815460405163a9059cbb60e01b8152336004820152602481018390526001600160a01b039091169063a9059cbb906044016020604051808303815f875af1158015610cf6573d5f803e3d5ffd5b505050506040513d601f19601f82011682018060405250810190610d1a919061233a565b505b50508080610d29906122ee565b915050610bf0565b505050565b60068181548110610d45575f80fd5b5f91825260209091206004909102018054600182015460028301546003909301546001600160a01b0392831694509116919060ff811690610100900462ffffff1685565b610d916116c6565b610d9a5f6116f2565b565b5f80846001811115610db057610db0611ef7565b03610dc857610dc186868585611741565b9050610e1b565b6001846001811115610ddc57610ddc611ef7565b03610ded57610dc186868585611930565b60405162461bcd60e51b815260206004820152600360248201526210aaab60e91b60448201526064016105a6565b95945050505050565b60606005805461098490612359565b5f3411610e685760405162461bcd60e51b81526020600482015260036024820152620213e360ec1b60448201526064016105a6565b601054604080516367a5279360e01b815290515f926001600160a01b0316916367a527939160048083019260209291908290030181865afa158015610eaf573d5f803e3d5ffd5b505050506040513d601f19601f82011682018060405250810190610ed39190612306565b90505f612710610ee761ffff84163461222b565b610ef19190612242565b90505f610efe8234612327565b905081600d5f828254610f1191906122db565b909155505080610f495760405162461bcd60e51b81526020600482015260036024820152620213e360ec1b60448201526064016105a6565b610f533382611aeb565b5f5b600c548110156111cf575f600c8281548110610f7357610f7361227c565b905f5260205f20906003020190505f612710826001015485610f95919061222b565b610f9f9190612242565b905083811115610fe95760405162461bcd60e51b815260206004820152601560248201527421657468416d6f756e743c3d616d6f756e7466656560581b60448201526064016105a6565b80156111ba57815460028301546040516374a6606160e01b815230926374a660619261102d926001600160a01b0390921691869160ff169033908e90600401612290565b6020604051808303815f875af1925050508015611067575060408051601f3d908101601f1916820190925261106491810190612200565b60015b6111b857335f908152600f6020526040812080548392906110899084906122db565b90915550506040805160a08101825233815283546001600160a01b03166020820152908101829052600283015460069190606082019060ff1660018111156110d3576110d3611ef7565b8152600285810154610100900462ffffff166020928301528354600180820186555f95865294839020845160049092020180546001600160a01b03199081166001600160a01b039384161782559385015181870180549095169216919091179092556040830151908201556060820151600382018054939492939192909160ff191690838181111561116757611167611ef7565b0217905550608091909101516003909101805462ffffff9092166101000263ffffff0019909216919091179055335f9081526008602052604081208054916111ae836122ee565b91905055506111ba565b505b505080806111c7906122ee565b915050610f55565b5050505050565b6111de6116c6565b600d541561127c57600d546040515f916001600160a01b038416918381818185875af1925050503d805f811461122f576040519150601f19603f3d011682016040523d82523d5f602084013e611234565b606091505b50509050806112765760405162461bcd60e51b815260206004820152600e60248201526d1d1c985b9cd9995c91985a5b195960921b60448201526064016105a6565b505f600d555b50565b5f33610a12818585611669565b6112946116c6565b600e5460ff16156112d55760405162461bcd60e51b815260206004820152600b60248201526a1a5b9a5d1a585b1a5e995960aa1b60448201526064016105a6565b8685146113195760405162461bcd60e51b81526020600482015260126024820152714d69736d617463686564206c656e6774687360701b60448201526064016105a6565b5f805b8881101561151b576127108888838181106113395761133961227c565b9050602002013511156113825760405162461bcd60e51b8152602060048201526011602482015270496e76616c696450657263656e7461676560781b60448201526064016105a6565b8787828181106113945761139461227c565b90506020020135826113a691906122db565b9150600c60405180608001604052808c8c858181106113c7576113c761227c565b90506020020160208101906113dc9190611fa5565b6001600160a01b031681526020018a8a858181106113fc576113fc61227c565b90506020020135815260200188888581811061141a5761141a61227c565b905060200201602081019061142f9190612391565b600181111561144057611440611ef7565b81526020018686858181106114575761145761227c565b905060200201602081019061146c91906123aa565b62ffffff1690528154600180820184555f938452602093849020835160039093020180546001600160a01b0319166001600160a01b0390931692909217825592820151818401556040820151600282018054939492939192909160ff19169083818111156114dc576114dc611ef7565b0217905550606091909101516002909101805462ffffff9092166101000263ffffff001990921691909117905580611513816122ee565b91505061131c565b5080612710146115575760405162461bcd60e51b81526020600482015260076024820152660743d31303030360cc1b60448201526064016105a6565b5050600e805460ff1916600117905550505050505050565b6115776116c6565b6001600160a01b0381166115a057604051631e4fbdf760e01b81525f60048201526024016105a6565b61127c816116f2565b6001600160a01b0382166115d257604051634b637e8f60e11b81525f60048201526024016105a6565b6115dd825f83611b1b565b5050565b610d318383836001611c41565b6001600160a01b038381165f908152600260209081526040808320938616835292905220545f198114611663578181101561165557604051637dc7a0d960e11b81526001600160a01b038416600482015260248101829052604481018390526064016105a6565b61166384848484035f611c41565b50505050565b6001600160a01b03831661169257604051634b637e8f60e11b81525f60048201526024016105a6565b6001600160a01b0382166116bb5760405163ec442f0560e01b81525f60048201526024016105a6565b610d31838383611b1b565b5f546001600160a01b03163314610d9a5760405163118cdaa760e01b81523360048201526024016105a6565b5f80546001600160a01b038381166001600160a01b0319831681178455604051919092169283917f8be0079c531659141344cd1fd0a4f28419497f9722a3daafe3b4186f6b6457e09190a35050565b5f808280602001905181019061175791906123ef565b60095460405163d06ca61f60e01b81529192505f916001600160a01b039091169063d06ca61f9061178e90899086906004016124c0565b5f60405180830381865afa1580156117a8573d5f803e3d5ffd5b505050506040513d5f823e601f3d908101601f191682016040526117cf91908101906124d8565b90505f6127106007546127106117e59190612327565b836001815181106117f8576117f861227c565b602002602001015161180a919061222b565b6118149190612242565b60095460405163095ea7b360e01b81526001600160a01b039182166004820152602481018a905291925089169063095ea7b3906044016020604051808303815f875af1158015611866573d5f803e3d5ffd5b505050506040513d601f19601f8201168201806040525081019061188a919061233a565b506009546040516318cbafe560e01b81525f916001600160a01b0316906318cbafe5906118c3908b90869089908d904290600401612559565b5f604051808303815f875af11580156118de573d5f803e3d5ffd5b505050506040513d5f823e601f3d908101601f1916820160405261190591908101906124d8565b90508060018151811061191a5761191a61227c565b6020026020010151945050505050949350505050565b600b5460405163cdca175360e01b81525f9182916001600160a01b039091169063cdca1753906119669086908990600401612594565b6020604051808303815f875af1158015611982573d5f803e3d5ffd5b505050506040513d601f19601f820116820180604052508101906119a69190612200565b90505f6127106007546127106119bc9190612327565b6119c6908461222b565b6119d09190612242565b6040805160a0810182528681526001600160a01b0388811660208301524282840152606082018a905260808201849052600a54925163095ea7b360e01b81529281166004840152602483018a90529293509189169063095ea7b3906044016020604051808303815f875af1158015611a4a573d5f803e3d5ffd5b505050506040513d601f19601f82011682018060405250810190611a6e919061233a565b50600a5460405163c04b8d5960e01b81526001600160a01b039091169063c04b8d5990611a9f9084906004016125b5565b6020604051808303815f875af1158015611abb573d5f803e3d5ffd5b505050506040513d601f19601f82011682018060405250810190611adf9190612200565b98975050505050505050565b6001600160a01b038216611b145760405163ec442f0560e01b81525f60048201526024016105a6565b6115dd5f83835b6001600160a01b038316611b45578060035f828254611b3a91906122db565b90915550611bb59050565b6001600160a01b0383165f9081526001602052604090205481811015611b975760405163391434e360e21b81526001600160a01b038516600482015260248101829052604481018390526064016105a6565b6001600160a01b0384165f9081526001602052604090209082900390555b6001600160a01b038216611bd157600380548290039055611bef565b6001600160a01b0382165f9081526001602052604090208054820190555b816001600160a01b0316836001600160a01b03167fddf252ad1be2c89b69c2b068fc378daa952ba7f163c4a11628f55a4df523b3ef83604051611c3491815260200190565b60405180910390a3505050565b6001600160a01b038416611c6a5760405163e602df0560e01b81525f60048201526024016105a6565b6001600160a01b038316611c9357604051634a1406b160e11b81525f60048201526024016105a6565b6001600160a01b038085165f908152600260209081526040808320938716835292905220829055801561166357826001600160a01b0316846001600160a01b03167f8c5be1e5ebec7d5bd14f71427d1e84f3dd0314c0f7b2291e5b200ac8c7c3b92584604051611d0591815260200190565b60405180910390a350505050565b634e487b7160e01b5f52604160045260245ffd5b604051601f8201601f1916810167ffffffffffffffff81118282101715611d5057611d50611d13565b604052919050565b5f82601f830112611d67575f80fd5b813567ffffffffffffffff811115611d8157611d81611d13565b611d94601f8201601f1916602001611d27565b818152846020838601011115611da8575f80fd5b816020850160208301375f918101602001919091529392505050565b5f8060408385031215611dd5575f80fd5b82359150602083013567ffffffffffffffff811115611df2575f80fd5b611dfe85828601611d58565b9150509250929050565b5f81518084525f5b81811015611e2c57602081850181015186830182015201611e10565b505f602082860101526020601f19601f83011685010191505092915050565b602081525f611e5d6020830184611e08565b9392505050565b6001600160a01b038116811461127c575f80fd5b5f8060408385031215611e89575f80fd5b8235611e9481611e64565b946020939093013593505050565b5f60208284031215611eb2575f80fd5b5035919050565b5f805f60608486031215611ecb575f80fd5b8335611ed681611e64565b92506020840135611ee681611e64565b929592945050506040919091013590565b634e487b7160e01b5f52602160045260245ffd5b60028110611f2757634e487b7160e01b5f52602160045260245ffd5b9052565b602080825282518282018190525f919060409081850190868401855b82811015611f9857815180516001600160a01b03168552868101518786015285810151611f7687870182611f0b565b5060609081015162ffffff169085015260809093019290850190600101611f47565b5091979650505050505050565b5f60208284031215611fb5575f80fd5b8135611e5d81611e64565b6001600160a01b038681168252851660208201526040810184905260a08101611fec6060830185611f0b565b62ffffff831660808301529695505050505050565b80356002811061200f575f80fd5b919050565b5f805f805f60a08688031215612028575f80fd5b853561203381611e64565b94506020860135935061204860408701612001565b9250606086013561205881611e64565b9150608086013567ffffffffffffffff811115612073575f80fd5b61207f88828901611d58565b9150509295509295909350565b5f6020828403121561209c575f80fd5b813567ffffffffffffffff8111156120b2575f80fd5b6120be84828501611d58565b949350505050565b5f80604083850312156120d7575f80fd5b82356120e281611e64565b915060208301356120f281611e64565b809150509250929050565b5f8083601f84011261210d575f80fd5b50813567ffffffffffffffff811115612124575f80fd5b6020830191508360208260051b850101111561213e575f80fd5b9250929050565b5f805f805f805f806080898b03121561215c575f80fd5b883567ffffffffffffffff80821115612173575f80fd5b61217f8c838d016120fd565b909a50985060208b0135915080821115612197575f80fd5b6121a38c838d016120fd565b909850965060408b01359150808211156121bb575f80fd5b6121c78c838d016120fd565b909650945060608b01359150808211156121df575f80fd5b506121ec8b828c016120fd565b999c989b5096995094979396929594505050565b5f60208284031215612210575f80fd5b5051919050565b634e487b7160e01b5f52601160045260245ffd5b8082028115828204841417610a1857610a18612217565b5f8261225c57634e487b7160e01b5f52601260045260245ffd5b500490565b5f60208284031215612271575f80fd5b8151611e5d81611e64565b634e487b7160e01b5f52603260045260245ffd5b6001600160a01b038681168252602082018690525f906122b36040840187611f0b565b80851660608401525060a060808301526122d060a0830184611e08565b979650505050505050565b80820180821115610a1857610a18612217565b5f600182016122ff576122ff612217565b5060010190565b5f60208284031215612316575f80fd5b815161ffff81168114611e5d575f80fd5b81810381811115610a1857610a18612217565b5f6020828403121561234a575f80fd5b81518015158114611e5d575f80fd5b600181811c9082168061236d57607f821691505b60208210810361238b57634e487b7160e01b5f52602260045260245ffd5b50919050565b5f602082840312156123a1575f80fd5b611e5d82612001565b5f602082840312156123ba575f80fd5b813562ffffff81168114611e5d575f80fd5b5f67ffffffffffffffff8211156123e5576123e5611d13565b5060051b60200190565b5f6020808385031215612400575f80fd5b825167ffffffffffffffff811115612416575f80fd5b8301601f81018513612426575f80fd5b8051612439612434826123cc565b611d27565b81815260059190911b82018301908381019087831115612457575f80fd5b928401925b828410156122d057835161246f81611e64565b8252928401929084019061245c565b5f8151808452602080850194508084015f5b838110156124b55781516001600160a01b031687529582019590820190600101612490565b509495945050505050565b828152604060208201525f6120be604083018461247e565b5f60208083850312156124e9575f80fd5b825167ffffffffffffffff8111156124ff575f80fd5b8301601f8101851361250f575f80fd5b805161251d612434826123cc565b81815260059190911b8201830190838101908783111561253b575f80fd5b928401925b828410156122d057835182529284019290840190612540565b85815284602082015260a060408201525f61257760a083018661247e565b6001600160a01b0394909416606083015250608001529392505050565b604081525f6125a66040830185611e08565b90508260208301529392505050565b602081525f825160a060208401526125d060c0840182611e08565b905060018060a01b0360208501511660408401526040840151606084015260608401516080840152608084015160a0840152809150509291505056fea2646970667358221220425112ac2e4967606aad39f4fac090e9fedac1e54db082dafd7f134ae41b33e064736f6c63430008140033",
			"opcodes": "PUSH1 0x80 PUSH1 0x40 MSTORE PUSH1 0xE DUP1 SLOAD PUSH1 0xFF NOT AND SWAP1 SSTORE CALLVALUE DUP1 ISZERO PUSH3 0x1A JUMPI PUSH0 DUP1 REVERT JUMPDEST POP PUSH1 0x40 MLOAD PUSH3 0x2A59 CODESIZE SUB DUP1 PUSH3 0x2A59 DUP4 CODECOPY DUP2 ADD PUSH1 0x40 DUP2 SWAP1 MSTORE PUSH3 0x3D SWAP2 PUSH3 0x219 JUMP JUMPDEST DUP3 DUP3 DUP3 DUP8 DUP8 CALLER DUP1 PUSH3 0x68 JUMPI PUSH1 0x40 MLOAD PUSH4 0x1E4FBDF7 PUSH1 0xE0 SHL DUP2 MSTORE PUSH0 PUSH1 0x4 DUP3 ADD MSTORE PUSH1 0x24 ADD PUSH1 0x40 MLOAD DUP1 SWAP2 SUB SWAP1 REVERT JUMPDEST PUSH3 0x73 DUP2 PUSH3 0xF0 JUMP JUMPDEST POP PUSH1 0x4 PUSH3 0x82 DUP4 DUP3 PUSH3 0x341 JUMP JUMPDEST POP PUSH1 0x5 PUSH3 0x91 DUP3 DUP3 PUSH3 0x341 JUMP JUMPDEST POP POP PUSH1 0x9 DUP1 SLOAD PUSH1 0x1 PUSH1 0x1 PUSH1 0xA0 SHL SUB SWAP6 DUP7 AND PUSH1 0x1 PUSH1 0x1 PUSH1 0xA0 SHL SUB NOT SWAP2 DUP3 AND OR SWAP1 SWAP2 SSTORE PUSH1 0xA DUP1 SLOAD SWAP5 DUP7 AND SWAP5 DUP3 AND SWAP5 SWAP1 SWAP5 OR SWAP1 SWAP4 SSTORE POP PUSH1 0xB DUP1 SLOAD SWAP2 SWAP1 SWAP4 AND SWAP1 DUP3 AND OR SWAP1 SWAP2 SSTORE PUSH2 0x3E8 PUSH1 0x7 SSTORE PUSH1 0x10 DUP1 SLOAD SWAP1 SWAP2 AND CALLER OR SWAP1 SSTORE POP PUSH3 0x409 SWAP4 POP POP POP POP JUMP JUMPDEST PUSH0 DUP1 SLOAD PUSH1 0x1 PUSH1 0x1 PUSH1 0xA0 SHL SUB DUP4 DUP2 AND PUSH1 0x1 PUSH1 0x1 PUSH1 0xA0 SHL SUB NOT DUP4 AND DUP2 OR DUP5 SSTORE PUSH1 0x40 MLOAD SWAP2 SWAP1 SWAP3 AND SWAP3 DUP4 SWAP2 PUSH32 0x8BE0079C531659141344CD1FD0A4F28419497F9722A3DAAFE3B4186F6B6457E0 SWAP2 SWAP1 LOG3 POP POP JUMP JUMPDEST PUSH4 0x4E487B71 PUSH1 0xE0 SHL PUSH0 MSTORE PUSH1 0x41 PUSH1 0x4 MSTORE PUSH1 0x24 PUSH0 REVERT JUMPDEST PUSH0 DUP3 PUSH1 0x1F DUP4 ADD SLT PUSH3 0x163 JUMPI PUSH0 DUP1 REVERT JUMPDEST DUP2 MLOAD PUSH1 0x1 PUSH1 0x1 PUSH1 0x40 SHL SUB DUP1 DUP3 GT ISZERO PUSH3 0x180 JUMPI PUSH3 0x180 PUSH3 0x13F JUMP JUMPDEST PUSH1 0x40 MLOAD PUSH1 0x1F DUP4 ADD PUSH1 0x1F NOT SWAP1 DUP2 AND PUSH1 0x3F ADD AND DUP2 ADD SWAP1 DUP3 DUP3 GT DUP2 DUP4 LT OR ISZERO PUSH3 0x1AB JUMPI PUSH3 0x1AB PUSH3 0x13F JUMP JUMPDEST DUP2 PUSH1 0x40 MSTORE DUP4 DUP2 MSTORE PUSH1 0x20 SWAP3 POP DUP7 DUP4 DUP6 DUP9 ADD ADD GT ISZERO PUSH3 0x1C7 JUMPI PUSH0 DUP1 REVERT JUMPDEST PUSH0 SWAP2 POP JUMPDEST DUP4 DUP3 LT ISZERO PUSH3 0x1EA JUMPI DUP6 DUP3 ADD DUP4 ADD MLOAD DUP2 DUP4 ADD DUP5 ADD MSTORE SWAP1 DUP3 ADD SWAP1 PUSH3 0x1CB JUMP JUMPDEST PUSH0 SWAP4 DUP2 ADD SWAP1 SWAP3 ADD SWAP3 SWAP1 SWAP3 MSTORE SWAP5 SWAP4 POP POP POP POP JUMP JUMPDEST DUP1 MLOAD PUSH1 0x1 PUSH1 0x1 PUSH1 0xA0 SHL SUB DUP2 AND DUP2 EQ PUSH3 0x214 JUMPI PUSH0 DUP1 REVERT JUMPDEST SWAP2 SWAP1 POP JUMP JUMPDEST PUSH0 DUP1 PUSH0 DUP1 PUSH0 PUSH1 0xA0 DUP7 DUP9 SUB SLT ISZERO PUSH3 0x22E JUMPI PUSH0 DUP1 REVERT JUMPDEST DUP6 MLOAD PUSH1 0x1 PUSH1 0x1 PUSH1 0x40 SHL SUB DUP1 DUP3 GT ISZERO PUSH3 0x245 JUMPI PUSH0 DUP1 REVERT JUMPDEST PUSH3 0x253 DUP10 DUP4 DUP11 ADD PUSH3 0x153 JUMP JUMPDEST SWAP7 POP PUSH1 0x20 DUP9 ADD MLOAD SWAP2 POP DUP1 DUP3 GT ISZERO PUSH3 0x269 JUMPI PUSH0 DUP1 REVERT JUMPDEST POP PUSH3 0x278 DUP9 DUP3 DUP10 ADD PUSH3 0x153 JUMP JUMPDEST SWAP5 POP POP PUSH3 0x289 PUSH1 0x40 DUP8 ADD PUSH3 0x1FD JUMP JUMPDEST SWAP3 POP PUSH3 0x299 PUSH1 0x60 DUP8 ADD PUSH3 0x1FD JUMP JUMPDEST SWAP2 POP PUSH3 0x2A9 PUSH1 0x80 DUP8 ADD PUSH3 0x1FD JUMP JUMPDEST SWAP1 POP SWAP3 SWAP6 POP SWAP3 SWAP6 SWAP1 SWAP4 POP JUMP JUMPDEST PUSH1 0x1 DUP2 DUP2 SHR SWAP1 DUP3 AND DUP1 PUSH3 0x2CA JUMPI PUSH1 0x7F DUP3 AND SWAP2 POP JUMPDEST PUSH1 0x20 DUP3 LT DUP2 SUB PUSH3 0x2E9 JUMPI PUSH4 0x4E487B71 PUSH1 0xE0 SHL PUSH0 MSTORE PUSH1 0x22 PUSH1 0x4 MSTORE PUSH1 0x24 PUSH0 REVERT JUMPDEST POP SWAP2 SWAP1 POP JUMP JUMPDEST PUSH1 0x1F DUP3 GT ISZERO PUSH3 0x33C JUMPI PUSH0 DUP2 DUP2 MSTORE PUSH1 0x20 DUP2 KECCAK256 PUSH1 0x1F DUP6 ADD PUSH1 0x5 SHR DUP2 ADD PUSH1 0x20 DUP7 LT ISZERO PUSH3 0x317 JUMPI POP DUP1 JUMPDEST PUSH1 0x1F DUP6 ADD PUSH1 0x5 SHR DUP3 ADD SWAP2 POP JUMPDEST DUP2 DUP2 LT ISZERO PUSH3 0x338 JUMPI DUP3 DUP2 SSTORE PUSH1 0x1 ADD PUSH3 0x323 JUMP JUMPDEST POP POP POP JUMPDEST POP POP POP JUMP JUMPDEST DUP2 MLOAD PUSH1 0x1 PUSH1 0x1 PUSH1 0x40 SHL SUB DUP2 GT ISZERO PUSH3 0x35D JUMPI PUSH3 0x35D PUSH3 0x13F JUMP JUMPDEST PUSH3 0x375 DUP2 PUSH3 0x36E DUP5 SLOAD PUSH3 0x2B5 JUMP JUMPDEST DUP5 PUSH3 0x2EF JUMP JUMPDEST PUSH1 0x20 DUP1 PUSH1 0x1F DUP4 GT PUSH1 0x1 DUP2 EQ PUSH3 0x3AB JUMPI PUSH0 DUP5 ISZERO PUSH3 0x393 JUMPI POP DUP6 DUP4 ADD MLOAD JUMPDEST PUSH0 NOT PUSH1 0x3 DUP7 SWAP1 SHL SHR NOT AND PUSH1 0x1 DUP6 SWAP1 SHL OR DUP6 SSTORE PUSH3 0x338 JUMP JUMPDEST PUSH0 DUP6 DUP2 MSTORE PUSH1 0x20 DUP2 KECCAK256 PUSH1 0x1F NOT DUP7 AND SWAP2 JUMPDEST DUP3 DUP2 LT ISZERO PUSH3 0x3DB JUMPI DUP9 DUP7 ADD MLOAD DUP3 SSTORE SWAP5 DUP5 ADD SWAP5 PUSH1 0x1 SWAP1 SWAP2 ADD SWAP1 DUP5 ADD PUSH3 0x3BA JUMP JUMPDEST POP DUP6 DUP3 LT ISZERO PUSH3 0x3F9 JUMPI DUP8 DUP6 ADD MLOAD PUSH0 NOT PUSH1 0x3 DUP9 SWAP1 SHL PUSH1 0xF8 AND SHR NOT AND DUP2 SSTORE JUMPDEST POP POP POP POP POP PUSH1 0x1 SWAP1 DUP2 SHL ADD SWAP1 SSTORE POP JUMP JUMPDEST PUSH2 0x2642 DUP1 PUSH3 0x417 PUSH0 CODECOPY PUSH0 RETURN INVALID PUSH1 0x80 PUSH1 0x40 MSTORE PUSH1 0x4 CALLDATASIZE LT PUSH2 0x1AE JUMPI PUSH0 CALLDATALOAD PUSH1 0xE0 SHR DUP1 PUSH4 0x70A08231 GT PUSH2 0xE7 JUMPI DUP1 PUSH4 0xA738C7DF GT PUSH2 0x87 JUMPI DUP1 PUSH4 0xD03153AA GT PUSH2 0x62 JUMPI DUP1 PUSH4 0xD03153AA EQ PUSH2 0x4DF JUMPI DUP1 PUSH4 0xDD62ED3E EQ PUSH2 0x4F4 JUMPI DUP1 PUSH4 0xE24E9E07 EQ PUSH2 0x538 JUMPI DUP1 PUSH4 0xF2FDE38B EQ PUSH2 0x557 JUMPI PUSH0 DUP1 REVERT JUMPDEST DUP1 PUSH4 0xA738C7DF EQ PUSH2 0x476 JUMPI DUP1 PUSH4 0xA9059CBB EQ PUSH2 0x495 JUMPI DUP1 PUSH4 0xC38CD0B5 EQ PUSH2 0x4B4 JUMPI PUSH0 DUP1 REVERT JUMPDEST DUP1 PUSH4 0x81A06B73 GT PUSH2 0xC2 JUMPI DUP1 PUSH4 0x81A06B73 EQ PUSH2 0x41A JUMPI DUP1 PUSH4 0x8DA5CB5B EQ PUSH2 0x433 JUMPI DUP1 PUSH4 0x95D89B41 EQ PUSH2 0x44F JUMPI DUP1 PUSH4 0x98B1E06A EQ PUSH2 0x463 JUMPI PUSH0 DUP1 REVERT JUMPDEST DUP1 PUSH4 0x70A08231 EQ PUSH2 0x3B3 JUMPI DUP1 PUSH4 0x715018A6 EQ PUSH2 0x3E7 JUMPI DUP1 PUSH4 0x74A66061 EQ PUSH2 0x3FB JUMPI PUSH0 DUP1 REVERT JUMPDEST DUP1 PUSH4 0x2A5C792A GT PUSH2 0x152 JUMPI DUP1 PUSH4 0x313CE567 GT PUSH2 0x12D JUMPI DUP1 PUSH4 0x313CE567 EQ PUSH2 0x31E JUMPI DUP1 PUSH4 0x36A43F2B EQ PUSH2 0x339 JUMPI DUP1 PUSH4 0x378A653C EQ PUSH2 0x364 JUMPI DUP1 PUSH4 0x4D20D0F8 EQ PUSH2 0x394 JUMPI PUSH0 DUP1 REVERT JUMPDEST DUP1 PUSH4 0x2A5C792A EQ PUSH2 0x2BF JUMPI DUP1 PUSH4 0x2C76D7A6 EQ PUSH2 0x2E0 JUMPI DUP1 PUSH4 0x3043D4D9 EQ PUSH2 0x2FF JUMPI PUSH0 DUP1 REVERT JUMPDEST DUP1 PUSH4 0x117DA1EE GT PUSH2 0x18D JUMPI DUP1 PUSH4 0x117DA1EE EQ PUSH2 0x22C JUMPI DUP1 PUSH4 0x1694505E EQ PUSH2 0x24B JUMPI DUP1 PUSH4 0x18160DDD EQ PUSH2 0x282 JUMPI DUP1 PUSH4 0x23B872DD EQ PUSH2 0x2A0 JUMPI PUSH0 DUP1 REVERT JUMPDEST DUP1 PUSH3 0xD06DDD EQ PUSH2 0x1B2 JUMPI DUP1 PUSH4 0x6FDDE03 EQ PUSH2 0x1D3 JUMPI DUP1 PUSH4 0x95EA7B3 EQ PUSH2 0x1FD JUMPI JUMPDEST PUSH0 DUP1 REVERT JUMPDEST CALLVALUE DUP1 ISZERO PUSH2 0x1BD JUMPI PUSH0 DUP1 REVERT JUMPDEST POP PUSH2 0x1D1 PUSH2 0x1CC CALLDATASIZE PUSH1 0x4 PUSH2 0x1DC4 JUMP JUMPDEST PUSH2 0x576 JUMP JUMPDEST STOP JUMPDEST CALLVALUE DUP1 ISZERO PUSH2 0x1DE JUMPI PUSH0 DUP1 REVERT JUMPDEST POP PUSH2 0x1E7 PUSH2 0x975 JUMP JUMPDEST PUSH1 0x40 MLOAD PUSH2 0x1F4 SWAP2 SWAP1 PUSH2 0x1E4B JUMP JUMPDEST PUSH1 0x40 MLOAD DUP1 SWAP2 SUB SWAP1 RETURN JUMPDEST CALLVALUE DUP1 ISZERO PUSH2 0x208 JUMPI PUSH0 DUP1 REVERT JUMPDEST POP PUSH2 0x21C PUSH2 0x217 CALLDATASIZE PUSH1 0x4 PUSH2 0x1E78 JUMP JUMPDEST PUSH2 0xA05 JUMP JUMPDEST PUSH1 0x40 MLOAD SWAP1 ISZERO ISZERO DUP2 MSTORE PUSH1 0x20 ADD PUSH2 0x1F4 JUMP JUMPDEST CALLVALUE DUP1 ISZERO PUSH2 0x237 JUMPI PUSH0 DUP1 REVERT JUMPDEST POP PUSH2 0x1D1 PUSH2 0x246 CALLDATASIZE PUSH1 0x4 PUSH2 0x1EA2 JUMP JUMPDEST PUSH2 0xA1E JUMP JUMPDEST CALLVALUE DUP1 ISZERO PUSH2 0x256 JUMPI PUSH0 DUP1 REVERT JUMPDEST POP PUSH1 0x9 SLOAD PUSH2 0x26A SWAP1 PUSH1 0x1 PUSH1 0x1 PUSH1 0xA0 SHL SUB AND DUP2 JUMP JUMPDEST PUSH1 0x40 MLOAD PUSH1 0x1 PUSH1 0x1 PUSH1 0xA0 SHL SUB SWAP1 SWAP2 AND DUP2 MSTORE PUSH1 0x20 ADD PUSH2 0x1F4 JUMP JUMPDEST CALLVALUE DUP1 ISZERO PUSH2 0x28D JUMPI PUSH0 DUP1 REVERT JUMPDEST POP PUSH1 0x3 SLOAD JUMPDEST PUSH1 0x40 MLOAD SWAP1 DUP2 MSTORE PUSH1 0x20 ADD PUSH2 0x1F4 JUMP JUMPDEST CALLVALUE DUP1 ISZERO PUSH2 0x2AB JUMPI PUSH0 DUP1 REVERT JUMPDEST POP PUSH2 0x21C PUSH2 0x2BA CALLDATASIZE PUSH1 0x4 PUSH2 0x1EB9 JUMP JUMPDEST PUSH2 0xA5E JUMP JUMPDEST CALLVALUE DUP1 ISZERO PUSH2 0x2CA JUMPI PUSH0 DUP1 REVERT JUMPDEST POP PUSH2 0x2D3 PUSH2 0xA81 JUMP JUMPDEST PUSH1 0x40 MLOAD PUSH2 0x1F4 SWAP2 SWAP1 PUSH2 0x1F2B JUMP JUMPDEST CALLVALUE DUP1 ISZERO PUSH2 0x2EB JUMPI PUSH0 DUP1 REVERT JUMPDEST POP PUSH1 0xA SLOAD PUSH2 0x26A SWAP1 PUSH1 0x1 PUSH1 0x1 PUSH1 0xA0 SHL SUB AND DUP2 JUMP JUMPDEST CALLVALUE DUP1 ISZERO PUSH2 0x30A JUMPI PUSH0 DUP1 REVERT JUMPDEST POP PUSH2 0x1D1 PUSH2 0x319 CALLDATASIZE PUSH1 0x4 PUSH2 0x1EA2 JUMP JUMPDEST PUSH2 0xB44 JUMP JUMPDEST CALLVALUE DUP1 ISZERO PUSH2 0x329 JUMPI PUSH0 DUP1 REVERT JUMPDEST POP PUSH1 0x40 MLOAD PUSH1 0x12 DUP2 MSTORE PUSH1 0x20 ADD PUSH2 0x1F4 JUMP JUMPDEST CALLVALUE DUP1 ISZERO PUSH2 0x344 JUMPI PUSH0 DUP1 REVERT JUMPDEST POP PUSH2 0x292 PUSH2 0x353 CALLDATASIZE PUSH1 0x4 PUSH2 0x1FA5 JUMP JUMPDEST PUSH1 0x8 PUSH1 0x20 MSTORE PUSH0 SWAP1 DUP2 MSTORE PUSH1 0x40 SWAP1 KECCAK256 SLOAD DUP2 JUMP JUMPDEST CALLVALUE DUP1 ISZERO PUSH2 0x36F JUMPI PUSH0 DUP1 REVERT JUMPDEST POP PUSH2 0x383 PUSH2 0x37E CALLDATASIZE PUSH1 0x4 PUSH2 0x1EA2 JUMP JUMPDEST PUSH2 0xD36 JUMP JUMPDEST PUSH1 0x40 MLOAD PUSH2 0x1F4 SWAP6 SWAP5 SWAP4 SWAP3 SWAP2 SWAP1 PUSH2 0x1FC0 JUMP JUMPDEST CALLVALUE DUP1 ISZERO PUSH2 0x39F JUMPI PUSH0 DUP1 REVERT JUMPDEST POP PUSH1 0xB SLOAD PUSH2 0x26A SWAP1 PUSH1 0x1 PUSH1 0x1 PUSH1 0xA0 SHL SUB AND DUP2 JUMP JUMPDEST CALLVALUE DUP1 ISZERO PUSH2 0x3BE JUMPI PUSH0 DUP1 REVERT JUMPDEST POP PUSH2 0x292 PUSH2 0x3CD CALLDATASIZE PUSH1 0x4 PUSH2 0x1FA5 JUMP JUMPDEST PUSH1 0x1 PUSH1 0x1 PUSH1 0xA0 SHL SUB AND PUSH0 SWAP1 DUP2 MSTORE PUSH1 0x1 PUSH1 0x20 MSTORE PUSH1 0x40 SWAP1 KECCAK256 SLOAD SWAP1 JUMP JUMPDEST CALLVALUE DUP1 ISZERO PUSH2 0x3F2 JUMPI PUSH0 DUP1 REVERT JUMPDEST POP PUSH2 0x1D1 PUSH2 0xD89 JUMP JUMPDEST CALLVALUE DUP1 ISZERO PUSH2 0x406 JUMPI PUSH0 DUP1 REVERT JUMPDEST POP PUSH2 0x292 PUSH2 0x415 CALLDATASIZE PUSH1 0x4 PUSH2 0x2014 JUMP JUMPDEST PUSH2 0xD9C JUMP JUMPDEST CALLVALUE DUP1 ISZERO PUSH2 0x425 JUMPI PUSH0 DUP1 REVERT JUMPDEST POP PUSH1 0xE SLOAD PUSH2 0x21C SWAP1 PUSH1 0xFF AND DUP2 JUMP JUMPDEST CALLVALUE DUP1 ISZERO PUSH2 0x43E JUMPI PUSH0 DUP1 REVERT JUMPDEST POP PUSH0 SLOAD PUSH1 0x1 PUSH1 0x1 PUSH1 0xA0 SHL SUB AND PUSH2 0x26A JUMP JUMPDEST CALLVALUE DUP1 ISZERO PUSH2 0x45A JUMPI PUSH0 DUP1 REVERT JUMPDEST POP PUSH2 0x1E7 PUSH2 0xE24 JUMP JUMPDEST PUSH2 0x1D1 PUSH2 0x471 CALLDATASIZE PUSH1 0x4 PUSH2 0x208C JUMP JUMPDEST PUSH2 0xE33 JUMP JUMPDEST CALLVALUE DUP1 ISZERO PUSH2 0x481 JUMPI PUSH0 DUP1 REVERT JUMPDEST POP PUSH2 0x1D1 PUSH2 0x490 CALLDATASIZE PUSH1 0x4 PUSH2 0x1FA5 JUMP JUMPDEST PUSH2 0x11D6 JUMP JUMPDEST CALLVALUE DUP1 ISZERO PUSH2 0x4A0 JUMPI PUSH0 DUP1 REVERT JUMPDEST POP PUSH2 0x21C PUSH2 0x4AF CALLDATASIZE PUSH1 0x4 PUSH2 0x1E78 JUMP JUMPDEST PUSH2 0x127F JUMP JUMPDEST CALLVALUE DUP1 ISZERO PUSH2 0x4BF JUMPI PUSH0 DUP1 REVERT JUMPDEST POP PUSH2 0x292 PUSH2 0x4CE CALLDATASIZE PUSH1 0x4 PUSH2 0x1FA5 JUMP JUMPDEST PUSH1 0xF PUSH1 0x20 MSTORE PUSH0 SWAP1 DUP2 MSTORE PUSH1 0x40 SWAP1 KECCAK256 SLOAD DUP2 JUMP JUMPDEST CALLVALUE DUP1 ISZERO PUSH2 0x4EA JUMPI PUSH0 DUP1 REVERT JUMPDEST POP PUSH2 0x292 PUSH1 0x7 SLOAD DUP2 JUMP JUMPDEST CALLVALUE DUP1 ISZERO PUSH2 0x4FF JUMPI PUSH0 DUP1 REVERT JUMPDEST POP PUSH2 0x292 PUSH2 0x50E CALLDATASIZE PUSH1 0x4 PUSH2 0x20C6 JUMP JUMPDEST PUSH1 0x1 PUSH1 0x1 PUSH1 0xA0 SHL SUB SWAP2 DUP3 AND PUSH0 SWAP1 DUP2 MSTORE PUSH1 0x2 PUSH1 0x20 SWAP1 DUP2 MSTORE PUSH1 0x40 DUP1 DUP4 KECCAK256 SWAP4 SWAP1 SWAP5 AND DUP3 MSTORE SWAP2 SWAP1 SWAP2 MSTORE KECCAK256 SLOAD SWAP1 JUMP JUMPDEST CALLVALUE DUP1 ISZERO PUSH2 0x543 JUMPI PUSH0 DUP1 REVERT JUMPDEST POP PUSH2 0x1D1 PUSH2 0x552 CALLDATASIZE PUSH1 0x4 PUSH2 0x2145 JUMP JUMPDEST PUSH2 0x128C JUMP JUMPDEST CALLVALUE DUP1 ISZERO PUSH2 0x562 JUMPI PUSH0 DUP1 REVERT JUMPDEST POP PUSH2 0x1D1 PUSH2 0x571 CALLDATASIZE PUSH1 0x4 PUSH2 0x1FA5 JUMP JUMPDEST PUSH2 0x156F JUMP JUMPDEST PUSH0 DUP3 GT PUSH2 0x5AF JUMPI PUSH1 0x40 MLOAD PUSH3 0x461BCD PUSH1 0xE5 SHL DUP2 MSTORE PUSH1 0x20 PUSH1 0x4 DUP3 ADD MSTORE PUSH1 0x2 PUSH1 0x24 DUP3 ADD MSTORE PUSH2 0x3E3 PUSH1 0xF4 SHL PUSH1 0x44 DUP3 ADD MSTORE PUSH1 0x64 ADD JUMPDEST PUSH1 0x40 MLOAD DUP1 SWAP2 SUB SWAP1 REVERT JUMPDEST PUSH1 0x40 MLOAD PUSH4 0x70A08231 PUSH1 0xE0 SHL DUP2 MSTORE CALLER PUSH1 0x4 DUP3 ADD MSTORE DUP3 SWAP1 ADDRESS SWAP1 PUSH4 0x70A08231 SWAP1 PUSH1 0x24 ADD PUSH1 0x20 PUSH1 0x40 MLOAD DUP1 DUP4 SUB DUP2 DUP7 GAS STATICCALL ISZERO DUP1 ISZERO PUSH2 0x5EA JUMPI RETURNDATASIZE PUSH0 DUP1 RETURNDATACOPY RETURNDATASIZE PUSH0 REVERT JUMPDEST POP POP POP POP PUSH1 0x40 MLOAD RETURNDATASIZE PUSH1 0x1F NOT PUSH1 0x1F DUP3 ADD AND DUP3 ADD DUP1 PUSH1 0x40 MSTORE POP DUP2 ADD SWAP1 PUSH2 0x60E SWAP2 SWAP1 PUSH2 0x2200 JUMP JUMPDEST LT ISZERO PUSH2 0x64C JUMPI PUSH1 0x40 MLOAD PUSH3 0x461BCD PUSH1 0xE5 SHL DUP2 MSTORE PUSH1 0x20 PUSH1 0x4 DUP3 ADD MSTORE PUSH1 0xD PUSH1 0x24 DUP3 ADD MSTORE PUSH13 0x8525B9CDD59999A58DA595B9D PUSH1 0x9A SHL PUSH1 0x44 DUP3 ADD MSTORE PUSH1 0x64 ADD PUSH2 0x5A6 JUMP JUMPDEST PUSH0 PUSH2 0x656 PUSH1 0x3 SLOAD SWAP1 JUMP JUMPDEST PUSH2 0x662 DUP5 PUSH2 0x2710 PUSH2 0x222B JUMP JUMPDEST PUSH2 0x66C SWAP2 SWAP1 PUSH2 0x2242 JUMP JUMPDEST SWAP1 POP PUSH0 PUSH1 0x9 PUSH0 SWAP1 SLOAD SWAP1 PUSH2 0x100 EXP SWAP1 DIV PUSH1 0x1 PUSH1 0x1 PUSH1 0xA0 SHL SUB AND PUSH1 0x1 PUSH1 0x1 PUSH1 0xA0 SHL SUB AND PUSH4 0xAD5C4648 PUSH1 0x40 MLOAD DUP2 PUSH4 0xFFFFFFFF AND PUSH1 0xE0 SHL DUP2 MSTORE PUSH1 0x4 ADD PUSH1 0x20 PUSH1 0x40 MLOAD DUP1 DUP4 SUB DUP2 DUP7 GAS STATICCALL ISZERO DUP1 ISZERO PUSH2 0x6BF JUMPI RETURNDATASIZE PUSH0 DUP1 RETURNDATACOPY RETURNDATASIZE PUSH0 REVERT JUMPDEST POP POP POP POP PUSH1 0x40 MLOAD RETURNDATASIZE PUSH1 0x1F NOT PUSH1 0x1F DUP3 ADD AND DUP3 ADD DUP1 PUSH1 0x40 MSTORE POP DUP2 ADD SWAP1 PUSH2 0x6E3 SWAP2 SWAP1 PUSH2 0x2261 JUMP JUMPDEST SWAP1 POP PUSH0 DUP1 JUMPDEST PUSH1 0xC SLOAD DUP2 LT ISZERO PUSH2 0x83C JUMPI PUSH0 PUSH1 0xC DUP3 DUP2 SLOAD DUP2 LT PUSH2 0x706 JUMPI PUSH2 0x706 PUSH2 0x227C JUMP JUMPDEST PUSH0 SWAP2 DUP3 MSTORE PUSH1 0x20 DUP3 KECCAK256 PUSH1 0x3 SWAP2 SWAP1 SWAP2 MUL ADD DUP1 SLOAD PUSH1 0x40 MLOAD PUSH4 0x70A08231 PUSH1 0xE0 SHL DUP2 MSTORE ADDRESS PUSH1 0x4 DUP3 ADD MSTORE SWAP2 SWAP4 POP PUSH2 0x2710 SWAP2 DUP9 SWAP2 PUSH1 0x1 PUSH1 0x1 PUSH1 0xA0 SHL SUB AND SWAP1 PUSH4 0x70A08231 SWAP1 PUSH1 0x24 ADD PUSH1 0x20 PUSH1 0x40 MLOAD DUP1 DUP4 SUB DUP2 DUP7 GAS STATICCALL ISZERO DUP1 ISZERO PUSH2 0x761 JUMPI RETURNDATASIZE PUSH0 DUP1 RETURNDATACOPY RETURNDATASIZE PUSH0 REVERT JUMPDEST POP POP POP POP PUSH1 0x40 MLOAD RETURNDATASIZE PUSH1 0x1F NOT PUSH1 0x1F DUP3 ADD AND DUP3 ADD DUP1 PUSH1 0x40 MSTORE POP DUP2 ADD SWAP1 PUSH2 0x785 SWAP2 SWAP1 PUSH2 0x2200 JUMP JUMPDEST PUSH2 0x78F SWAP2 SWAP1 PUSH2 0x222B JUMP JUMPDEST PUSH2 0x799 SWAP2 SWAP1 PUSH2 0x2242 JUMP JUMPDEST DUP3 SLOAD PUSH1 0x2 DUP5 ADD SLOAD PUSH1 0x40 MLOAD PUSH4 0x74A66061 PUSH1 0xE0 SHL DUP2 MSTORE SWAP3 SWAP4 POP ADDRESS SWAP3 PUSH4 0x74A66061 SWAP3 PUSH2 0x7DA SWAP3 PUSH1 0x1 PUSH1 0x1 PUSH1 0xA0 SHL SUB SWAP1 SWAP2 AND SWAP2 DUP7 SWAP2 PUSH1 0xFF AND SWAP1 CALLER SWAP1 DUP15 SWAP1 PUSH1 0x4 ADD PUSH2 0x2290 JUMP JUMPDEST PUSH1 0x20 PUSH1 0x40 MLOAD DUP1 DUP4 SUB DUP2 PUSH0 DUP8 GAS CALL SWAP3 POP POP POP DUP1 ISZERO PUSH2 0x814 JUMPI POP PUSH1 0x40 DUP1 MLOAD PUSH1 0x1F RETURNDATASIZE SWAP1 DUP2 ADD PUSH1 0x1F NOT AND DUP3 ADD SWAP1 SWAP3 MSTORE PUSH2 0x811 SWAP2 DUP2 ADD SWAP1 PUSH2 0x2200 JUMP JUMPDEST PUSH1 0x1 JUMPDEST ISZERO PUSH2 0x827 JUMPI PUSH2 0x823 DUP2 DUP7 PUSH2 0x22DB JUMP JUMPDEST SWAP5 POP POP JUMPDEST POP POP DUP1 DUP1 PUSH2 0x834 SWAP1 PUSH2 0x22EE JUMP JUMPDEST SWAP2 POP POP PUSH2 0x6E8 JUMP JUMPDEST POP PUSH2 0x847 CALLER DUP7 PUSH2 0x15A9 JUMP JUMPDEST PUSH1 0x10 SLOAD PUSH1 0x40 DUP1 MLOAD PUSH4 0x22F1FA31 PUSH1 0xE2 SHL DUP2 MSTORE SWAP1 MLOAD PUSH0 SWAP3 PUSH1 0x1 PUSH1 0x1 PUSH1 0xA0 SHL SUB AND SWAP2 PUSH4 0x8BC7E8C4 SWAP2 PUSH1 0x4 DUP1 DUP4 ADD SWAP3 PUSH1 0x20 SWAP3 SWAP2 SWAP1 DUP3 SWAP1 SUB ADD DUP2 DUP7 GAS STATICCALL ISZERO DUP1 ISZERO PUSH2 0x88E JUMPI RETURNDATASIZE PUSH0 DUP1 RETURNDATACOPY RETURNDATASIZE PUSH0 REVERT JUMPDEST POP POP POP POP PUSH1 0x40 MLOAD RETURNDATASIZE PUSH1 0x1F NOT PUSH1 0x1F DUP3 ADD AND DUP3 ADD DUP1 PUSH1 0x40 MSTORE POP DUP2 ADD SWAP1 PUSH2 0x8B2 SWAP2 SWAP1 PUSH2 0x2306 JUMP JUMPDEST SWAP1 POP DUP2 ISZERO PUSH2 0x96D JUMPI PUSH0 PUSH2 0x2710 PUSH2 0x8CC PUSH2 0xFFFF DUP5 AND DUP6 PUSH2 0x222B JUMP JUMPDEST PUSH2 0x8D6 SWAP2 SWAP1 PUSH2 0x2242 JUMP JUMPDEST SWAP1 POP PUSH0 PUSH2 0x8E3 DUP3 DUP6 PUSH2 0x2327 JUMP JUMPDEST SWAP1 POP DUP2 PUSH1 0xD PUSH0 DUP3 DUP3 SLOAD PUSH2 0x8F6 SWAP2 SWAP1 PUSH2 0x22DB JUMP JUMPDEST SWAP1 SWAP2 SSTORE POP POP PUSH1 0x40 MLOAD PUSH4 0xA9059CBB PUSH1 0xE0 SHL DUP2 MSTORE CALLER PUSH1 0x4 DUP3 ADD MSTORE PUSH1 0x24 DUP2 ADD DUP3 SWAP1 MSTORE PUSH1 0x1 PUSH1 0x1 PUSH1 0xA0 SHL SUB DUP7 AND SWAP1 PUSH4 0xA9059CBB SWAP1 PUSH1 0x44 ADD PUSH1 0x20 PUSH1 0x40 MLOAD DUP1 DUP4 SUB DUP2 PUSH0 DUP8 GAS CALL ISZERO DUP1 ISZERO PUSH2 0x945 JUMPI RETURNDATASIZE PUSH0 DUP1 RETURNDATACOPY RETURNDATASIZE PUSH0 REVERT JUMPDEST POP POP POP POP PUSH1 0x40 MLOAD RETURNDATASIZE PUSH1 0x1F NOT PUSH1 0x1F DUP3 ADD AND DUP3 ADD DUP1 PUSH1 0x40 MSTORE POP DUP2 ADD SWAP1 PUSH2 0x969 SWAP2 SWAP1 PUSH2 0x233A JUMP JUMPDEST POP POP POP JUMPDEST POP POP POP POP POP POP JUMP JUMPDEST PUSH1 0x60 PUSH1 0x4 DUP1 SLOAD PUSH2 0x984 SWAP1 PUSH2 0x2359 JUMP JUMPDEST DUP1 PUSH1 0x1F ADD PUSH1 0x20 DUP1 SWAP2 DIV MUL PUSH1 0x20 ADD PUSH1 0x40 MLOAD SWAP1 DUP2 ADD PUSH1 0x40 MSTORE DUP1 SWAP3 SWAP2 SWAP1 DUP2 DUP2 MSTORE PUSH1 0x20 ADD DUP3 DUP1 SLOAD PUSH2 0x9B0 SWAP1 PUSH2 0x2359 JUMP JUMPDEST DUP1 ISZERO PUSH2 0x9FB JUMPI DUP1 PUSH1 0x1F LT PUSH2 0x9D2 JUMPI PUSH2 0x100 DUP1 DUP4 SLOAD DIV MUL DUP4 MSTORE SWAP2 PUSH1 0x20 ADD SWAP2 PUSH2 0x9FB JUMP JUMPDEST DUP3 ADD SWAP2 SWAP1 PUSH0 MSTORE PUSH1 0x20 PUSH0 KECCAK256 SWAP1 JUMPDEST DUP2 SLOAD DUP2 MSTORE SWAP1 PUSH1 0x1 ADD SWAP1 PUSH1 0x20 ADD DUP1 DUP4 GT PUSH2 0x9DE JUMPI DUP3 SWAP1 SUB PUSH1 0x1F AND DUP3 ADD SWAP2 JUMPDEST POP POP POP POP POP SWAP1 POP SWAP1 JUMP JUMPDEST PUSH0 CALLER PUSH2 0xA12 DUP2 DUP6 DUP6 PUSH2 0x15E1 JUMP JUMPDEST PUSH1 0x1 SWAP2 POP POP JUMPDEST SWAP3 SWAP2 POP POP JUMP JUMPDEST PUSH2 0x2710 DUP2 GT ISZERO PUSH2 0xA59 JUMPI PUSH1 0x40 MLOAD PUSH3 0x461BCD PUSH1 0xE5 SHL DUP2 MSTORE PUSH1 0x4 ADD PUSH2 0x5A6 SWAP1 PUSH1 0x20 DUP1 DUP3 MSTORE PUSH1 0x4 SWAP1 DUP3 ADD MSTORE PUSH4 0x21534C5 PUSH1 0xE4 SHL PUSH1 0x40 DUP3 ADD MSTORE PUSH1 0x60 ADD SWAP1 JUMP JUMPDEST PUSH1 0x7 SSTORE JUMP JUMPDEST PUSH0 CALLER PUSH2 0xA6B DUP6 DUP3 DUP6 PUSH2 0x15EE JUMP JUMPDEST PUSH2 0xA76 DUP6 DUP6 DUP6 PUSH2 0x1669 JUMP JUMPDEST POP PUSH1 0x1 SWAP5 SWAP4 POP POP POP POP JUMP JUMPDEST PUSH1 0x60 PUSH1 0xC DUP1 SLOAD DUP1 PUSH1 0x20 MUL PUSH1 0x20 ADD PUSH1 0x40 MLOAD SWAP1 DUP2 ADD PUSH1 0x40 MSTORE DUP1 SWAP3 SWAP2 SWAP1 DUP2 DUP2 MSTORE PUSH1 0x20 ADD PUSH0 SWAP1 JUMPDEST DUP3 DUP3 LT ISZERO PUSH2 0xB3B JUMPI PUSH0 DUP5 DUP2 MSTORE PUSH1 0x20 SWAP1 DUP2 SWAP1 KECCAK256 PUSH1 0x40 DUP1 MLOAD PUSH1 0x80 DUP2 ADD DUP3 MSTORE PUSH1 0x3 DUP7 MUL SWAP1 SWAP3 ADD DUP1 SLOAD PUSH1 0x1 PUSH1 0x1 PUSH1 0xA0 SHL SUB AND DUP4 MSTORE PUSH1 0x1 DUP1 DUP3 ADD SLOAD SWAP5 DUP5 ADD SWAP5 SWAP1 SWAP5 MSTORE PUSH1 0x2 DUP2 ADD SLOAD SWAP3 SWAP4 SWAP1 SWAP3 SWAP2 DUP5 ADD SWAP2 PUSH1 0xFF AND SWAP1 DUP2 GT ISZERO PUSH2 0xB01 JUMPI PUSH2 0xB01 PUSH2 0x1EF7 JUMP JUMPDEST PUSH1 0x1 DUP2 GT ISZERO PUSH2 0xB12 JUMPI PUSH2 0xB12 PUSH2 0x1EF7 JUMP JUMPDEST DUP2 MSTORE PUSH1 0x2 SWAP2 SWAP1 SWAP2 ADD SLOAD PUSH2 0x100 SWAP1 DIV PUSH3 0xFFFFFF AND PUSH1 0x20 SWAP2 DUP3 ADD MSTORE SWAP1 DUP3 MSTORE PUSH1 0x1 SWAP3 SWAP1 SWAP3 ADD SWAP2 ADD PUSH2 0xAA4 JUMP JUMPDEST POP POP POP POP SWAP1 POP SWAP1 JUMP JUMPDEST PUSH0 DUP2 GT PUSH2 0xB79 JUMPI PUSH1 0x40 MLOAD PUSH3 0x461BCD PUSH1 0xE5 SHL DUP2 MSTORE PUSH1 0x20 PUSH1 0x4 DUP3 ADD MSTORE PUSH1 0x3 PUSH1 0x24 DUP3 ADD MSTORE PUSH3 0x573E3 PUSH1 0xEC SHL PUSH1 0x44 DUP3 ADD MSTORE PUSH1 0x64 ADD PUSH2 0x5A6 JUMP JUMPDEST CALLER PUSH0 SWAP1 DUP2 MSTORE PUSH1 0x1 PUSH1 0x20 MSTORE PUSH1 0x40 SWAP1 KECCAK256 SLOAD DUP2 GT ISZERO PUSH2 0xBC2 JUMPI PUSH1 0x40 MLOAD PUSH3 0x461BCD PUSH1 0xE5 SHL DUP2 MSTORE PUSH1 0x20 PUSH1 0x4 DUP3 ADD MSTORE PUSH1 0x8 PUSH1 0x24 DUP3 ADD MSTORE PUSH8 0x2162616C616E6365 PUSH1 0xC0 SHL PUSH1 0x44 DUP3 ADD MSTORE PUSH1 0x64 ADD PUSH2 0x5A6 JUMP JUMPDEST PUSH0 PUSH2 0xBCC PUSH1 0x3 SLOAD SWAP1 JUMP JUMPDEST PUSH2 0xBD8 DUP4 PUSH2 0x2710 PUSH2 0x222B JUMP JUMPDEST PUSH2 0xBE2 SWAP2 SWAP1 PUSH2 0x2242 JUMP JUMPDEST SWAP1 POP PUSH2 0xBEE CALLER DUP4 PUSH2 0x15A9 JUMP JUMPDEST PUSH0 JUMPDEST PUSH1 0xC SLOAD DUP2 LT ISZERO PUSH2 0xD31 JUMPI PUSH0 PUSH1 0xC DUP3 DUP2 SLOAD DUP2 LT PUSH2 0xC0E JUMPI PUSH2 0xC0E PUSH2 0x227C JUMP JUMPDEST PUSH0 SWAP2 DUP3 MSTORE PUSH1 0x20 DUP3 KECCAK256 PUSH1 0x3 SWAP2 SWAP1 SWAP2 MUL ADD DUP1 SLOAD PUSH1 0x40 MLOAD PUSH4 0x70A08231 PUSH1 0xE0 SHL DUP2 MSTORE ADDRESS PUSH1 0x4 DUP3 ADD MSTORE SWAP2 SWAP4 POP PUSH2 0x2710 SWAP2 DUP7 SWAP2 PUSH1 0x1 PUSH1 0x1 PUSH1 0xA0 SHL SUB AND SWAP1 PUSH4 0x70A08231 SWAP1 PUSH1 0x24 ADD PUSH1 0x20 PUSH1 0x40 MLOAD DUP1 DUP4 SUB DUP2 DUP7 GAS STATICCALL ISZERO DUP1 ISZERO PUSH2 0xC69 JUMPI RETURNDATASIZE PUSH0 DUP1 RETURNDATACOPY RETURNDATASIZE PUSH0 REVERT JUMPDEST POP POP POP POP PUSH1 0x40 MLOAD RETURNDATASIZE PUSH1 0x1F NOT PUSH1 0x1F DUP3 ADD AND DUP3 ADD DUP1 PUSH1 0x40 MSTORE POP DUP2 ADD SWAP1 PUSH2 0xC8D SWAP2 SWAP1 PUSH2 0x2200 JUMP JUMPDEST PUSH2 0xC97 SWAP2 SWAP1 PUSH2 0x222B JUMP JUMPDEST PUSH2 0xCA1 SWAP2 SWAP1 PUSH2 0x2242 JUMP JUMPDEST SWAP1 POP DUP1 ISZERO PUSH2 0xD1C JUMPI DUP2 SLOAD PUSH1 0x40 MLOAD PUSH4 0xA9059CBB PUSH1 0xE0 SHL DUP2 MSTORE CALLER PUSH1 0x4 DUP3 ADD MSTORE PUSH1 0x24 DUP2 ADD DUP4 SWAP1 MSTORE PUSH1 0x1 PUSH1 0x1 PUSH1 0xA0 SHL SUB SWAP1 SWAP2 AND SWAP1 PUSH4 0xA9059CBB SWAP1 PUSH1 0x44 ADD PUSH1 0x20 PUSH1 0x40 MLOAD DUP1 DUP4 SUB DUP2 PUSH0 DUP8 GAS CALL ISZERO DUP1 ISZERO PUSH2 0xCF6 JUMPI RETURNDATASIZE PUSH0 DUP1 RETURNDATACOPY RETURNDATASIZE PUSH0 REVERT JUMPDEST POP POP POP POP PUSH1 0x40 MLOAD RETURNDATASIZE PUSH1 0x1F NOT PUSH1 0x1F DUP3 ADD AND DUP3 ADD DUP1 PUSH1 0x40 MSTORE POP DUP2 ADD SWAP1 PUSH2 0xD1A SWAP2 SWAP1 PUSH2 0x233A JUMP JUMPDEST POP JUMPDEST POP POP DUP1 DUP1 PUSH2 0xD29 SWAP1 PUSH2 0x22EE JUMP JUMPDEST SWAP2 POP POP PUSH2 0xBF0 JUMP JUMPDEST POP POP POP JUMP JUMPDEST PUSH1 0x6 DUP2 DUP2 SLOAD DUP2 LT PUSH2 0xD45 JUMPI PUSH0 DUP1 REVERT JUMPDEST PUSH0 SWAP2 DUP3 MSTORE PUSH1 0x20 SWAP1 SWAP2 KECCAK256 PUSH1 0x4 SWAP1 SWAP2 MUL ADD DUP1 SLOAD PUSH1 0x1 DUP3 ADD SLOAD PUSH1 0x2 DUP4 ADD SLOAD PUSH1 0x3 SWAP1 SWAP4 ADD SLOAD PUSH1 0x1 PUSH1 0x1 PUSH1 0xA0 SHL SUB SWAP3 DUP4 AND SWAP5 POP SWAP2 AND SWAP2 SWAP1 PUSH1 0xFF DUP2 AND SWAP1 PUSH2 0x100 SWAP1 DIV PUSH3 0xFFFFFF AND DUP6 JUMP JUMPDEST PUSH2 0xD91 PUSH2 0x16C6 JUMP JUMPDEST PUSH2 0xD9A PUSH0 PUSH2 0x16F2 JUMP JUMPDEST JUMP JUMPDEST PUSH0 DUP1 DUP5 PUSH1 0x1 DUP2 GT ISZERO PUSH2 0xDB0 JUMPI PUSH2 0xDB0 PUSH2 0x1EF7 JUMP JUMPDEST SUB PUSH2 0xDC8 JUMPI PUSH2 0xDC1 DUP7 DUP7 DUP6 DUP6 PUSH2 0x1741 JUMP JUMPDEST SWAP1 POP PUSH2 0xE1B JUMP JUMPDEST PUSH1 0x1 DUP5 PUSH1 0x1 DUP2 GT ISZERO PUSH2 0xDDC JUMPI PUSH2 0xDDC PUSH2 0x1EF7 JUMP JUMPDEST SUB PUSH2 0xDED JUMPI PUSH2 0xDC1 DUP7 DUP7 DUP6 DUP6 PUSH2 0x1930 JUMP JUMPDEST PUSH1 0x40 MLOAD PUSH3 0x461BCD PUSH1 0xE5 SHL DUP2 MSTORE PUSH1 0x20 PUSH1 0x4 DUP3 ADD MSTORE PUSH1 0x3 PUSH1 0x24 DUP3 ADD MSTORE PUSH3 0x10AAAB PUSH1 0xE9 SHL PUSH1 0x44 DUP3 ADD MSTORE PUSH1 0x64 ADD PUSH2 0x5A6 JUMP JUMPDEST SWAP6 SWAP5 POP POP POP POP POP JUMP JUMPDEST PUSH1 0x60 PUSH1 0x5 DUP1 SLOAD PUSH2 0x984 SWAP1 PUSH2 0x2359 JUMP JUMPDEST PUSH0 CALLVALUE GT PUSH2 0xE68 JUMPI PUSH1 0x40 MLOAD PUSH3 0x461BCD PUSH1 0xE5 SHL DUP2 MSTORE PUSH1 0x20 PUSH1 0x4 DUP3 ADD MSTORE PUSH1 0x3 PUSH1 0x24 DUP3 ADD MSTORE PUSH3 0x213E3 PUSH1 0xEC SHL PUSH1 0x44 DUP3 ADD MSTORE PUSH1 0x64 ADD PUSH2 0x5A6 JUMP JUMPDEST PUSH1 0x10 SLOAD PUSH1 0x40 DUP1 MLOAD PUSH4 0x67A52793 PUSH1 0xE0 SHL DUP2 MSTORE SWAP1 MLOAD PUSH0 SWAP3 PUSH1 0x1 PUSH1 0x1 PUSH1 0xA0 SHL SUB AND SWAP2 PUSH4 0x67A52793 SWAP2 PUSH1 0x4 DUP1 DUP4 ADD SWAP3 PUSH1 0x20 SWAP3 SWAP2 SWAP1 DUP3 SWAP1 SUB ADD DUP2 DUP7 GAS STATICCALL ISZERO DUP1 ISZERO PUSH2 0xEAF JUMPI RETURNDATASIZE PUSH0 DUP1 RETURNDATACOPY RETURNDATASIZE PUSH0 REVERT JUMPDEST POP POP POP POP PUSH1 0x40 MLOAD RETURNDATASIZE PUSH1 0x1F NOT PUSH1 0x1F DUP3 ADD AND DUP3 ADD DUP1 PUSH1 0x40 MSTORE POP DUP2 ADD SWAP1 PUSH2 0xED3 SWAP2 SWAP1 PUSH2 0x2306 JUMP JUMPDEST SWAP1 POP PUSH0 PUSH2 0x2710 PUSH2 0xEE7 PUSH2 0xFFFF DUP5 AND CALLVALUE PUSH2 0x222B JUMP JUMPDEST PUSH2 0xEF1 SWAP2 SWAP1 PUSH2 0x2242 JUMP JUMPDEST SWAP1 POP PUSH0 PUSH2 0xEFE DUP3 CALLVALUE PUSH2 0x2327 JUMP JUMPDEST SWAP1 POP DUP2 PUSH1 0xD PUSH0 DUP3 DUP3 SLOAD PUSH2 0xF11 SWAP2 SWAP1 PUSH2 0x22DB JUMP JUMPDEST SWAP1 SWAP2 SSTORE POP POP DUP1 PUSH2 0xF49 JUMPI PUSH1 0x40 MLOAD PUSH3 0x461BCD PUSH1 0xE5 SHL DUP2 MSTORE PUSH1 0x20 PUSH1 0x4 DUP3 ADD MSTORE PUSH1 0x3 PUSH1 0x24 DUP3 ADD MSTORE PUSH3 0x213E3 PUSH1 0xEC SHL PUSH1 0x44 DUP3 ADD MSTORE PUSH1 0x64 ADD PUSH2 0x5A6 JUMP JUMPDEST PUSH2 0xF53 CALLER DUP3 PUSH2 0x1AEB JUMP JUMPDEST PUSH0 JUMPDEST PUSH1 0xC SLOAD DUP2 LT ISZERO PUSH2 0x11CF JUMPI PUSH0 PUSH1 0xC DUP3 DUP2 SLOAD DUP2 LT PUSH2 0xF73 JUMPI PUSH2 0xF73 PUSH2 0x227C JUMP JUMPDEST SWAP1 PUSH0 MSTORE PUSH1 0x20 PUSH0 KECCAK256 SWAP1 PUSH1 0x3 MUL ADD SWAP1 POP PUSH0 PUSH2 0x2710 DUP3 PUSH1 0x1 ADD SLOAD DUP6 PUSH2 0xF95 SWAP2 SWAP1 PUSH2 0x222B JUMP JUMPDEST PUSH2 0xF9F SWAP2 SWAP1 PUSH2 0x2242 JUMP JUMPDEST SWAP1 POP DUP4 DUP2 GT ISZERO PUSH2 0xFE9 JUMPI PUSH1 0x40 MLOAD PUSH3 0x461BCD PUSH1 0xE5 SHL DUP2 MSTORE PUSH1 0x20 PUSH1 0x4 DUP3 ADD MSTORE PUSH1 0x15 PUSH1 0x24 DUP3 ADD MSTORE PUSH21 0x21657468416D6F756E743C3D616D6F756E74666565 PUSH1 0x58 SHL PUSH1 0x44 DUP3 ADD MSTORE PUSH1 0x64 ADD PUSH2 0x5A6 JUMP JUMPDEST DUP1 ISZERO PUSH2 0x11BA JUMPI DUP2 SLOAD PUSH1 0x2 DUP4 ADD SLOAD PUSH1 0x40 MLOAD PUSH4 0x74A66061 PUSH1 0xE0 SHL DUP2 MSTORE ADDRESS SWAP3 PUSH4 0x74A66061 SWAP3 PUSH2 0x102D SWAP3 PUSH1 0x1 PUSH1 0x1 PUSH1 0xA0 SHL SUB SWAP1 SWAP3 AND SWAP2 DUP7 SWAP2 PUSH1 0xFF AND SWAP1 CALLER SWAP1 DUP15 SWAP1 PUSH1 0x4 ADD PUSH2 0x2290 JUMP JUMPDEST PUSH1 0x20 PUSH1 0x40 MLOAD DUP1 DUP4 SUB DUP2 PUSH0 DUP8 GAS CALL SWAP3 POP POP POP DUP1 ISZERO PUSH2 0x1067 JUMPI POP PUSH1 0x40 DUP1 MLOAD PUSH1 0x1F RETURNDATASIZE SWAP1 DUP2 ADD PUSH1 0x1F NOT AND DUP3 ADD SWAP1 SWAP3 MSTORE PUSH2 0x1064 SWAP2 DUP2 ADD SWAP1 PUSH2 0x2200 JUMP JUMPDEST PUSH1 0x1 JUMPDEST PUSH2 0x11B8 JUMPI CALLER PUSH0 SWAP1 DUP2 MSTORE PUSH1 0xF PUSH1 0x20 MSTORE PUSH1 0x40 DUP2 KECCAK256 DUP1 SLOAD DUP4 SWAP3 SWAP1 PUSH2 0x1089 SWAP1 DUP5 SWAP1 PUSH2 0x22DB JUMP JUMPDEST SWAP1 SWAP2 SSTORE POP POP PUSH1 0x40 DUP1 MLOAD PUSH1 0xA0 DUP2 ADD DUP3 MSTORE CALLER DUP2 MSTORE DUP4 SLOAD PUSH1 0x1 PUSH1 0x1 PUSH1 0xA0 SHL SUB AND PUSH1 0x20 DUP3 ADD MSTORE SWAP1 DUP2 ADD DUP3 SWAP1 MSTORE PUSH1 0x2 DUP4 ADD SLOAD PUSH1 0x6 SWAP2 SWAP1 PUSH1 0x60 DUP3 ADD SWAP1 PUSH1 0xFF AND PUSH1 0x1 DUP2 GT ISZERO PUSH2 0x10D3 JUMPI PUSH2 0x10D3 PUSH2 0x1EF7 JUMP JUMPDEST DUP2 MSTORE PUSH1 0x2 DUP6 DUP2 ADD SLOAD PUSH2 0x100 SWAP1 DIV PUSH3 0xFFFFFF AND PUSH1 0x20 SWAP3 DUP4 ADD MSTORE DUP4 SLOAD PUSH1 0x1 DUP1 DUP3 ADD DUP7 SSTORE PUSH0 SWAP6 DUP7 MSTORE SWAP5 DUP4 SWAP1 KECCAK256 DUP5 MLOAD PUSH1 0x4 SWAP1 SWAP3 MUL ADD DUP1 SLOAD PUSH1 0x1 PUSH1 0x1 PUSH1 0xA0 SHL SUB NOT SWAP1 DUP2 AND PUSH1 0x1 PUSH1 0x1 PUSH1 0xA0 SHL SUB SWAP4 DUP5 AND OR DUP3 SSTORE SWAP4 DUP6 ADD MLOAD DUP2 DUP8 ADD DUP1 SLOAD SWAP1 SWAP6 AND SWAP3 AND SWAP2 SWAP1 SWAP2 OR SWAP1 SWAP3 SSTORE PUSH1 0x40 DUP4 ADD MLOAD SWAP1 DUP3 ADD SSTORE PUSH1 0x60 DUP3 ADD MLOAD PUSH1 0x3 DUP3 ADD DUP1 SLOAD SWAP4 SWAP5 SWAP3 SWAP4 SWAP2 SWAP3 SWAP1 SWAP2 PUSH1 0xFF NOT AND SWAP1 DUP4 DUP2 DUP2 GT ISZERO PUSH2 0x1167 JUMPI PUSH2 0x1167 PUSH2 0x1EF7 JUMP JUMPDEST MUL OR SWAP1 SSTORE POP PUSH1 0x80 SWAP2 SWAP1 SWAP2 ADD MLOAD PUSH1 0x3 SWAP1 SWAP2 ADD DUP1 SLOAD PUSH3 0xFFFFFF SWAP1 SWAP3 AND PUSH2 0x100 MUL PUSH4 0xFFFFFF00 NOT SWAP1 SWAP3 AND SWAP2 SWAP1 SWAP2 OR SWAP1 SSTORE CALLER PUSH0 SWAP1 DUP2 MSTORE PUSH1 0x8 PUSH1 0x20 MSTORE PUSH1 0x40 DUP2 KECCAK256 DUP1 SLOAD SWAP2 PUSH2 0x11AE DUP4 PUSH2 0x22EE JUMP JUMPDEST SWAP2 SWAP1 POP SSTORE POP PUSH2 0x11BA JUMP JUMPDEST POP JUMPDEST POP POP DUP1 DUP1 PUSH2 0x11C7 SWAP1 PUSH2 0x22EE JUMP JUMPDEST SWAP2 POP POP PUSH2 0xF55 JUMP JUMPDEST POP POP POP POP POP JUMP JUMPDEST PUSH2 0x11DE PUSH2 0x16C6 JUMP JUMPDEST PUSH1 0xD SLOAD ISZERO PUSH2 0x127C JUMPI PUSH1 0xD SLOAD PUSH1 0x40 MLOAD PUSH0 SWAP2 PUSH1 0x1 PUSH1 0x1 PUSH1 0xA0 SHL SUB DUP5 AND SWAP2 DUP4 DUP2 DUP2 DUP2 DUP6 DUP8 GAS CALL SWAP3 POP POP POP RETURNDATASIZE DUP1 PUSH0 DUP2 EQ PUSH2 0x122F JUMPI PUSH1 0x40 MLOAD SWAP2 POP PUSH1 0x1F NOT PUSH1 0x3F RETURNDATASIZE ADD AND DUP3 ADD PUSH1 0x40 MSTORE RETURNDATASIZE DUP3 MSTORE RETURNDATASIZE PUSH0 PUSH1 0x20 DUP5 ADD RETURNDATACOPY PUSH2 0x1234 JUMP JUMPDEST PUSH1 0x60 SWAP2 POP JUMPDEST POP POP SWAP1 POP DUP1 PUSH2 0x1276 JUMPI PUSH1 0x40 MLOAD PUSH3 0x461BCD PUSH1 0xE5 SHL DUP2 MSTORE PUSH1 0x20 PUSH1 0x4 DUP3 ADD MSTORE PUSH1 0xE PUSH1 0x24 DUP3 ADD MSTORE PUSH14 0x1D1C985B9CD9995C91985A5B1959 PUSH1 0x92 SHL PUSH1 0x44 DUP3 ADD MSTORE PUSH1 0x64 ADD PUSH2 0x5A6 JUMP JUMPDEST POP PUSH0 PUSH1 0xD SSTORE JUMPDEST POP JUMP JUMPDEST PUSH0 CALLER PUSH2 0xA12 DUP2 DUP6 DUP6 PUSH2 0x1669 JUMP JUMPDEST PUSH2 0x1294 PUSH2 0x16C6 JUMP JUMPDEST PUSH1 0xE SLOAD PUSH1 0xFF AND ISZERO PUSH2 0x12D5 JUMPI PUSH1 0x40 MLOAD PUSH3 0x461BCD PUSH1 0xE5 SHL DUP2 MSTORE PUSH1 0x20 PUSH1 0x4 DUP3 ADD MSTORE PUSH1 0xB PUSH1 0x24 DUP3 ADD MSTORE PUSH11 0x1A5B9A5D1A585B1A5E9959 PUSH1 0xAA SHL PUSH1 0x44 DUP3 ADD MSTORE PUSH1 0x64 ADD PUSH2 0x5A6 JUMP JUMPDEST DUP7 DUP6 EQ PUSH2 0x1319 JUMPI PUSH1 0x40 MLOAD PUSH3 0x461BCD PUSH1 0xE5 SHL DUP2 MSTORE PUSH1 0x20 PUSH1 0x4 DUP3 ADD MSTORE PUSH1 0x12 PUSH1 0x24 DUP3 ADD MSTORE PUSH18 0x4D69736D617463686564206C656E67746873 PUSH1 0x70 SHL PUSH1 0x44 DUP3 ADD MSTORE PUSH1 0x64 ADD PUSH2 0x5A6 JUMP JUMPDEST PUSH0 DUP1 JUMPDEST DUP9 DUP2 LT ISZERO PUSH2 0x151B JUMPI PUSH2 0x2710 DUP9 DUP9 DUP4 DUP2 DUP2 LT PUSH2 0x1339 JUMPI PUSH2 0x1339 PUSH2 0x227C JUMP JUMPDEST SWAP1 POP PUSH1 0x20 MUL ADD CALLDATALOAD GT ISZERO PUSH2 0x1382 JUMPI PUSH1 0x40 MLOAD PUSH3 0x461BCD PUSH1 0xE5 SHL DUP2 MSTORE PUSH1 0x20 PUSH1 0x4 DUP3 ADD MSTORE PUSH1 0x11 PUSH1 0x24 DUP3 ADD MSTORE PUSH17 0x496E76616C696450657263656E74616765 PUSH1 0x78 SHL PUSH1 0x44 DUP3 ADD MSTORE PUSH1 0x64 ADD PUSH2 0x5A6 JUMP JUMPDEST DUP8 DUP8 DUP3 DUP2 DUP2 LT PUSH2 0x1394 JUMPI PUSH2 0x1394 PUSH2 0x227C JUMP JUMPDEST SWAP1 POP PUSH1 0x20 MUL ADD CALLDATALOAD DUP3 PUSH2 0x13A6 SWAP2 SWAP1 PUSH2 0x22DB JUMP JUMPDEST SWAP2 POP PUSH1 0xC PUSH1 0x40 MLOAD DUP1 PUSH1 0x80 ADD PUSH1 0x40 MSTORE DUP1 DUP13 DUP13 DUP6 DUP2 DUP2 LT PUSH2 0x13C7 JUMPI PUSH2 0x13C7 PUSH2 0x227C JUMP JUMPDEST SWAP1 POP PUSH1 0x20 MUL ADD PUSH1 0x20 DUP2 ADD SWAP1 PUSH2 0x13DC SWAP2 SWAP1 PUSH2 0x1FA5 JUMP JUMPDEST PUSH1 0x1 PUSH1 0x1 PUSH1 0xA0 SHL SUB AND DUP2 MSTORE PUSH1 0x20 ADD DUP11 DUP11 DUP6 DUP2 DUP2 LT PUSH2 0x13FC JUMPI PUSH2 0x13FC PUSH2 0x227C JUMP JUMPDEST SWAP1 POP PUSH1 0x20 MUL ADD CALLDATALOAD DUP2 MSTORE PUSH1 0x20 ADD DUP9 DUP9 DUP6 DUP2 DUP2 LT PUSH2 0x141A JUMPI PUSH2 0x141A PUSH2 0x227C JUMP JUMPDEST SWAP1 POP PUSH1 0x20 MUL ADD PUSH1 0x20 DUP2 ADD SWAP1 PUSH2 0x142F SWAP2 SWAP1 PUSH2 0x2391 JUMP JUMPDEST PUSH1 0x1 DUP2 GT ISZERO PUSH2 0x1440 JUMPI PUSH2 0x1440 PUSH2 0x1EF7 JUMP JUMPDEST DUP2 MSTORE PUSH1 0x20 ADD DUP7 DUP7 DUP6 DUP2 DUP2 LT PUSH2 0x1457 JUMPI PUSH2 0x1457 PUSH2 0x227C JUMP JUMPDEST SWAP1 POP PUSH1 0x20 MUL ADD PUSH1 0x20 DUP2 ADD SWAP1 PUSH2 0x146C SWAP2 SWAP1 PUSH2 0x23AA JUMP JUMPDEST PUSH3 0xFFFFFF AND SWAP1 MSTORE DUP2 SLOAD PUSH1 0x1 DUP1 DUP3 ADD DUP5 SSTORE PUSH0 SWAP4 DUP5 MSTORE PUSH1 0x20 SWAP4 DUP5 SWAP1 KECCAK256 DUP4 MLOAD PUSH1 0x3 SWAP1 SWAP4 MUL ADD DUP1 SLOAD PUSH1 0x1 PUSH1 0x1 PUSH1 0xA0 SHL SUB NOT AND PUSH1 0x1 PUSH1 0x1 PUSH1 0xA0 SHL SUB SWAP1 SWAP4 AND SWAP3 SWAP1 SWAP3 OR DUP3 SSTORE SWAP3 DUP3 ADD MLOAD DUP2 DUP5 ADD SSTORE PUSH1 0x40 DUP3 ADD MLOAD PUSH1 0x2 DUP3 ADD DUP1 SLOAD SWAP4 SWAP5 SWAP3 SWAP4 SWAP2 SWAP3 SWAP1 SWAP2 PUSH1 0xFF NOT AND SWAP1 DUP4 DUP2 DUP2 GT ISZERO PUSH2 0x14DC JUMPI PUSH2 0x14DC PUSH2 0x1EF7 JUMP JUMPDEST MUL OR SWAP1 SSTORE POP PUSH1 0x60 SWAP2 SWAP1 SWAP2 ADD MLOAD PUSH1 0x2 SWAP1 SWAP2 ADD DUP1 SLOAD PUSH3 0xFFFFFF SWAP1 SWAP3 AND PUSH2 0x100 MUL PUSH4 0xFFFFFF00 NOT SWAP1 SWAP3 AND SWAP2 SWAP1 SWAP2 OR SWAP1 SSTORE DUP1 PUSH2 0x1513 DUP2 PUSH2 0x22EE JUMP JUMPDEST SWAP2 POP POP PUSH2 0x131C JUMP JUMPDEST POP DUP1 PUSH2 0x2710 EQ PUSH2 0x1557 JUMPI PUSH1 0x40 MLOAD PUSH3 0x461BCD PUSH1 0xE5 SHL DUP2 MSTORE PUSH1 0x20 PUSH1 0x4 DUP3 ADD MSTORE PUSH1 0x7 PUSH1 0x24 DUP3 ADD MSTORE PUSH7 0x743D313030303 PUSH1 0xCC SHL PUSH1 0x44 DUP3 ADD MSTORE PUSH1 0x64 ADD PUSH2 0x5A6 JUMP JUMPDEST POP POP PUSH1 0xE DUP1 SLOAD PUSH1 0xFF NOT AND PUSH1 0x1 OR SWAP1 SSTORE POP POP POP POP POP POP POP JUMP JUMPDEST PUSH2 0x1577 PUSH2 0x16C6 JUMP JUMPDEST PUSH1 0x1 PUSH1 0x1 PUSH1 0xA0 SHL SUB DUP2 AND PUSH2 0x15A0 JUMPI PUSH1 0x40 MLOAD PUSH4 0x1E4FBDF7 PUSH1 0xE0 SHL DUP2 MSTORE PUSH0 PUSH1 0x4 DUP3 ADD MSTORE PUSH1 0x24 ADD PUSH2 0x5A6 JUMP JUMPDEST PUSH2 0x127C DUP2 PUSH2 0x16F2 JUMP JUMPDEST PUSH1 0x1 PUSH1 0x1 PUSH1 0xA0 SHL SUB DUP3 AND PUSH2 0x15D2 JUMPI PUSH1 0x40 MLOAD PUSH4 0x4B637E8F PUSH1 0xE1 SHL DUP2 MSTORE PUSH0 PUSH1 0x4 DUP3 ADD MSTORE PUSH1 0x24 ADD PUSH2 0x5A6 JUMP JUMPDEST PUSH2 0x15DD DUP3 PUSH0 DUP4 PUSH2 0x1B1B JUMP JUMPDEST POP POP JUMP JUMPDEST PUSH2 0xD31 DUP4 DUP4 DUP4 PUSH1 0x1 PUSH2 0x1C41 JUMP JUMPDEST PUSH1 0x1 PUSH1 0x1 PUSH1 0xA0 SHL SUB DUP4 DUP2 AND PUSH0 SWAP1 DUP2 MSTORE PUSH1 0x2 PUSH1 0x20 SWAP1 DUP2 MSTORE PUSH1 0x40 DUP1 DUP4 KECCAK256 SWAP4 DUP7 AND DUP4 MSTORE SWAP3 SWAP1 MSTORE KECCAK256 SLOAD PUSH0 NOT DUP2 EQ PUSH2 0x1663 JUMPI DUP2 DUP2 LT ISZERO PUSH2 0x1655 JUMPI PUSH1 0x40 MLOAD PUSH4 0x7DC7A0D9 PUSH1 0xE1 SHL DUP2 MSTORE PUSH1 0x1 PUSH1 0x1 PUSH1 0xA0 SHL SUB DUP5 AND PUSH1 0x4 DUP3 ADD MSTORE PUSH1 0x24 DUP2 ADD DUP3 SWAP1 MSTORE PUSH1 0x44 DUP2 ADD DUP4 SWAP1 MSTORE PUSH1 0x64 ADD PUSH2 0x5A6 JUMP JUMPDEST PUSH2 0x1663 DUP5 DUP5 DUP5 DUP5 SUB PUSH0 PUSH2 0x1C41 JUMP JUMPDEST POP POP POP POP JUMP JUMPDEST PUSH1 0x1 PUSH1 0x1 PUSH1 0xA0 SHL SUB DUP4 AND PUSH2 0x1692 JUMPI PUSH1 0x40 MLOAD PUSH4 0x4B637E8F PUSH1 0xE1 SHL DUP2 MSTORE PUSH0 PUSH1 0x4 DUP3 ADD MSTORE PUSH1 0x24 ADD PUSH2 0x5A6 JUMP JUMPDEST PUSH1 0x1 PUSH1 0x1 PUSH1 0xA0 SHL SUB DUP3 AND PUSH2 0x16BB JUMPI PUSH1 0x40 MLOAD PUSH4 0xEC442F05 PUSH1 0xE0 SHL DUP2 MSTORE PUSH0 PUSH1 0x4 DUP3 ADD MSTORE PUSH1 0x24 ADD PUSH2 0x5A6 JUMP JUMPDEST PUSH2 0xD31 DUP4 DUP4 DUP4 PUSH2 0x1B1B JUMP JUMPDEST PUSH0 SLOAD PUSH1 0x1 PUSH1 0x1 PUSH1 0xA0 SHL SUB AND CALLER EQ PUSH2 0xD9A JUMPI PUSH1 0x40 MLOAD PUSH4 0x118CDAA7 PUSH1 0xE0 SHL DUP2 MSTORE CALLER PUSH1 0x4 DUP3 ADD MSTORE PUSH1 0x24 ADD PUSH2 0x5A6 JUMP JUMPDEST PUSH0 DUP1 SLOAD PUSH1 0x1 PUSH1 0x1 PUSH1 0xA0 SHL SUB DUP4 DUP2 AND PUSH1 0x1 PUSH1 0x1 PUSH1 0xA0 SHL SUB NOT DUP4 AND DUP2 OR DUP5 SSTORE PUSH1 0x40 MLOAD SWAP2 SWAP1 SWAP3 AND SWAP3 DUP4 SWAP2 PUSH32 0x8BE0079C531659141344CD1FD0A4F28419497F9722A3DAAFE3B4186F6B6457E0 SWAP2 SWAP1 LOG3 POP POP JUMP JUMPDEST PUSH0 DUP1 DUP3 DUP1 PUSH1 0x20 ADD SWAP1 MLOAD DUP2 ADD SWAP1 PUSH2 0x1757 SWAP2 SWAP1 PUSH2 0x23EF JUMP JUMPDEST PUSH1 0x9 SLOAD PUSH1 0x40 MLOAD PUSH4 0xD06CA61F PUSH1 0xE0 SHL DUP2 MSTORE SWAP2 SWAP3 POP PUSH0 SWAP2 PUSH1 0x1 PUSH1 0x1 PUSH1 0xA0 SHL SUB SWAP1 SWAP2 AND SWAP1 PUSH4 0xD06CA61F SWAP1 PUSH2 0x178E SWAP1 DUP10 SWAP1 DUP7 SWAP1 PUSH1 0x4 ADD PUSH2 0x24C0 JUMP JUMPDEST PUSH0 PUSH1 0x40 MLOAD DUP1 DUP4 SUB DUP2 DUP7 GAS STATICCALL ISZERO DUP1 ISZERO PUSH2 0x17A8 JUMPI RETURNDATASIZE PUSH0 DUP1 RETURNDATACOPY RETURNDATASIZE PUSH0 REVERT JUMPDEST POP POP POP POP PUSH1 0x40 MLOAD RETURNDATASIZE PUSH0 DUP3 RETURNDATACOPY PUSH1 0x1F RETURNDATASIZE SWAP1 DUP2 ADD PUSH1 0x1F NOT AND DUP3 ADD PUSH1 0x40 MSTORE PUSH2 0x17CF SWAP2 SWAP1 DUP2 ADD SWAP1 PUSH2 0x24D8 JUMP JUMPDEST SWAP1 POP PUSH0 PUSH2 0x2710 PUSH1 0x7 SLOAD PUSH2 0x2710 PUSH2 0x17E5 SWAP2 SWAP1 PUSH2 0x2327 JUMP JUMPDEST DUP4 PUSH1 0x1 DUP2 MLOAD DUP2 LT PUSH2 0x17F8 JUMPI PUSH2 0x17F8 PUSH2 0x227C JUMP JUMPDEST PUSH1 0x20 MUL PUSH1 0x20 ADD ADD MLOAD PUSH2 0x180A SWAP2 SWAP1 PUSH2 0x222B JUMP JUMPDEST PUSH2 0x1814 SWAP2 SWAP1 PUSH2 0x2242 JUMP JUMPDEST PUSH1 0x9 SLOAD PUSH1 0x40 MLOAD PUSH4 0x95EA7B3 PUSH1 0xE0 SHL DUP2 MSTORE PUSH1 0x1 PUSH1 0x1 PUSH1 0xA0 SHL SUB SWAP2 DUP3 AND PUSH1 0x4 DUP3 ADD MSTORE PUSH1 0x24 DUP2 ADD DUP11 SWAP1 MSTORE SWAP2 SWAP3 POP DUP10 AND SWAP1 PUSH4 0x95EA7B3 SWAP1 PUSH1 0x44 ADD PUSH1 0x20 PUSH1 0x40 MLOAD DUP1 DUP4 SUB DUP2 PUSH0 DUP8 GAS CALL ISZERO DUP1 ISZERO PUSH2 0x1866 JUMPI RETURNDATASIZE PUSH0 DUP1 RETURNDATACOPY RETURNDATASIZE PUSH0 REVERT JUMPDEST POP POP POP POP PUSH1 0x40 MLOAD RETURNDATASIZE PUSH1 0x1F NOT PUSH1 0x1F DUP3 ADD AND DUP3 ADD DUP1 PUSH1 0x40 MSTORE POP DUP2 ADD SWAP1 PUSH2 0x188A SWAP2 SWAP1 PUSH2 0x233A JUMP JUMPDEST POP PUSH1 0x9 SLOAD PUSH1 0x40 MLOAD PUSH4 0x18CBAFE5 PUSH1 0xE0 SHL DUP2 MSTORE PUSH0 SWAP2 PUSH1 0x1 PUSH1 0x1 PUSH1 0xA0 SHL SUB AND SWAP1 PUSH4 0x18CBAFE5 SWAP1 PUSH2 0x18C3 SWAP1 DUP12 SWAP1 DUP7 SWAP1 DUP10 SWAP1 DUP14 SWAP1 TIMESTAMP SWAP1 PUSH1 0x4 ADD PUSH2 0x2559 JUMP JUMPDEST PUSH0 PUSH1 0x40 MLOAD DUP1 DUP4 SUB DUP2 PUSH0 DUP8 GAS CALL ISZERO DUP1 ISZERO PUSH2 0x18DE JUMPI RETURNDATASIZE PUSH0 DUP1 RETURNDATACOPY RETURNDATASIZE PUSH0 REVERT JUMPDEST POP POP POP POP PUSH1 0x40 MLOAD RETURNDATASIZE PUSH0 DUP3 RETURNDATACOPY PUSH1 0x1F RETURNDATASIZE SWAP1 DUP2 ADD PUSH1 0x1F NOT AND DUP3 ADD PUSH1 0x40 MSTORE PUSH2 0x1905 SWAP2 SWAP1 DUP2 ADD SWAP1 PUSH2 0x24D8 JUMP JUMPDEST SWAP1 POP DUP1 PUSH1 0x1 DUP2 MLOAD DUP2 LT PUSH2 0x191A JUMPI PUSH2 0x191A PUSH2 0x227C JUMP JUMPDEST PUSH1 0x20 MUL PUSH1 0x20 ADD ADD MLOAD SWAP5 POP POP POP POP POP SWAP5 SWAP4 POP POP POP POP JUMP JUMPDEST PUSH1 0xB SLOAD PUSH1 0x40 MLOAD PUSH4 0xCDCA1753 PUSH1 0xE0 SHL DUP2 MSTORE PUSH0 SWAP2 DUP3 SWAP2 PUSH1 0x1 PUSH1 0x1 PUSH1 0xA0 SHL SUB SWAP1 SWAP2 AND SWAP1 PUSH4 0xCDCA1753 SWAP1 PUSH2 0x1966 SWAP1 DUP7 SWAP1 DUP10 SWAP1 PUSH1 0x4 ADD PUSH2 0x2594 JUMP JUMPDEST PUSH1 0x20 PUSH1 0x40 MLOAD DUP1 DUP4 SUB DUP2 PUSH0 DUP8 GAS CALL ISZERO DUP1 ISZERO PUSH2 0x1982 JUMPI RETURNDATASIZE PUSH0 DUP1 RETURNDATACOPY RETURNDATASIZE PUSH0 REVERT JUMPDEST POP POP POP POP PUSH1 0x40 MLOAD RETURNDATASIZE PUSH1 0x1F NOT PUSH1 0x1F DUP3 ADD AND DUP3 ADD DUP1 PUSH1 0x40 MSTORE POP DUP2 ADD SWAP1 PUSH2 0x19A6 SWAP2 SWAP1 PUSH2 0x2200 JUMP JUMPDEST SWAP1 POP PUSH0 PUSH2 0x2710 PUSH1 0x7 SLOAD PUSH2 0x2710 PUSH2 0x19BC SWAP2 SWAP1 PUSH2 0x2327 JUMP JUMPDEST PUSH2 0x19C6 SWAP1 DUP5 PUSH2 0x222B JUMP JUMPDEST PUSH2 0x19D0 SWAP2 SWAP1 PUSH2 0x2242 JUMP JUMPDEST PUSH1 0x40 DUP1 MLOAD PUSH1 0xA0 DUP2 ADD DUP3 MSTORE DUP7 DUP2 MSTORE PUSH1 0x1 PUSH1 0x1 PUSH1 0xA0 SHL SUB DUP9 DUP2 AND PUSH1 0x20 DUP4 ADD MSTORE TIMESTAMP DUP3 DUP5 ADD MSTORE PUSH1 0x60 DUP3 ADD DUP11 SWAP1 MSTORE PUSH1 0x80 DUP3 ADD DUP5 SWAP1 MSTORE PUSH1 0xA SLOAD SWAP3 MLOAD PUSH4 0x95EA7B3 PUSH1 0xE0 SHL DUP2 MSTORE SWAP3 DUP2 AND PUSH1 0x4 DUP5 ADD MSTORE PUSH1 0x24 DUP4 ADD DUP11 SWAP1 MSTORE SWAP3 SWAP4 POP SWAP2 DUP10 AND SWAP1 PUSH4 0x95EA7B3 SWAP1 PUSH1 0x44 ADD PUSH1 0x20 PUSH1 0x40 MLOAD DUP1 DUP4 SUB DUP2 PUSH0 DUP8 GAS CALL ISZERO DUP1 ISZERO PUSH2 0x1A4A JUMPI RETURNDATASIZE PUSH0 DUP1 RETURNDATACOPY RETURNDATASIZE PUSH0 REVERT JUMPDEST POP POP POP POP PUSH1 0x40 MLOAD RETURNDATASIZE PUSH1 0x1F NOT PUSH1 0x1F DUP3 ADD AND DUP3 ADD DUP1 PUSH1 0x40 MSTORE POP DUP2 ADD SWAP1 PUSH2 0x1A6E SWAP2 SWAP1 PUSH2 0x233A JUMP JUMPDEST POP PUSH1 0xA SLOAD PUSH1 0x40 MLOAD PUSH4 0xC04B8D59 PUSH1 0xE0 SHL DUP2 MSTORE PUSH1 0x1 PUSH1 0x1 PUSH1 0xA0 SHL SUB SWAP1 SWAP2 AND SWAP1 PUSH4 0xC04B8D59 SWAP1 PUSH2 0x1A9F SWAP1 DUP5 SWAP1 PUSH1 0x4 ADD PUSH2 0x25B5 JUMP JUMPDEST PUSH1 0x20 PUSH1 0x40 MLOAD DUP1 DUP4 SUB DUP2 PUSH0 DUP8 GAS CALL ISZERO DUP1 ISZERO PUSH2 0x1ABB JUMPI RETURNDATASIZE PUSH0 DUP1 RETURNDATACOPY RETURNDATASIZE PUSH0 REVERT JUMPDEST POP POP POP POP PUSH1 0x40 MLOAD RETURNDATASIZE PUSH1 0x1F NOT PUSH1 0x1F DUP3 ADD AND DUP3 ADD DUP1 PUSH1 0x40 MSTORE POP DUP2 ADD SWAP1 PUSH2 0x1ADF SWAP2 SWAP1 PUSH2 0x2200 JUMP JUMPDEST SWAP9 SWAP8 POP POP POP POP POP POP POP POP JUMP JUMPDEST PUSH1 0x1 PUSH1 0x1 PUSH1 0xA0 SHL SUB DUP3 AND PUSH2 0x1B14 JUMPI PUSH1 0x40 MLOAD PUSH4 0xEC442F05 PUSH1 0xE0 SHL DUP2 MSTORE PUSH0 PUSH1 0x4 DUP3 ADD MSTORE PUSH1 0x24 ADD PUSH2 0x5A6 JUMP JUMPDEST PUSH2 0x15DD PUSH0 DUP4 DUP4 JUMPDEST PUSH1 0x1 PUSH1 0x1 PUSH1 0xA0 SHL SUB DUP4 AND PUSH2 0x1B45 JUMPI DUP1 PUSH1 0x3 PUSH0 DUP3 DUP3 SLOAD PUSH2 0x1B3A SWAP2 SWAP1 PUSH2 0x22DB JUMP JUMPDEST SWAP1 SWAP2 SSTORE POP PUSH2 0x1BB5 SWAP1 POP JUMP JUMPDEST PUSH1 0x1 PUSH1 0x1 PUSH1 0xA0 SHL SUB DUP4 AND PUSH0 SWAP1 DUP2 MSTORE PUSH1 0x1 PUSH1 0x20 MSTORE PUSH1 0x40 SWAP1 KECCAK256 SLOAD DUP2 DUP2 LT ISZERO PUSH2 0x1B97 JUMPI PUSH1 0x40 MLOAD PUSH4 0x391434E3 PUSH1 0xE2 SHL DUP2 MSTORE PUSH1 0x1 PUSH1 0x1 PUSH1 0xA0 SHL SUB DUP6 AND PUSH1 0x4 DUP3 ADD MSTORE PUSH1 0x24 DUP2 ADD DUP3 SWAP1 MSTORE PUSH1 0x44 DUP2 ADD DUP4 SWAP1 MSTORE PUSH1 0x64 ADD PUSH2 0x5A6 JUMP JUMPDEST PUSH1 0x1 PUSH1 0x1 PUSH1 0xA0 SHL SUB DUP5 AND PUSH0 SWAP1 DUP2 MSTORE PUSH1 0x1 PUSH1 0x20 MSTORE PUSH1 0x40 SWAP1 KECCAK256 SWAP1 DUP3 SWAP1 SUB SWAP1 SSTORE JUMPDEST PUSH1 0x1 PUSH1 0x1 PUSH1 0xA0 SHL SUB DUP3 AND PUSH2 0x1BD1 JUMPI PUSH1 0x3 DUP1 SLOAD DUP3 SWAP1 SUB SWAP1 SSTORE PUSH2 0x1BEF JUMP JUMPDEST PUSH1 0x1 PUSH1 0x1 PUSH1 0xA0 SHL SUB DUP3 AND PUSH0 SWAP1 DUP2 MSTORE PUSH1 0x1 PUSH1 0x20 MSTORE PUSH1 0x40 SWAP1 KECCAK256 DUP1 SLOAD DUP3 ADD SWAP1 SSTORE JUMPDEST DUP2 PUSH1 0x1 PUSH1 0x1 PUSH1 0xA0 SHL SUB AND DUP4 PUSH1 0x1 PUSH1 0x1 PUSH1 0xA0 SHL SUB AND PUSH32 0xDDF252AD1BE2C89B69C2B068FC378DAA952BA7F163C4A11628F55A4DF523B3EF DUP4 PUSH1 0x40 MLOAD PUSH2 0x1C34 SWAP2 DUP2 MSTORE PUSH1 0x20 ADD SWAP1 JUMP JUMPDEST PUSH1 0x40 MLOAD DUP1 SWAP2 SUB SWAP1 LOG3 POP POP POP JUMP JUMPDEST PUSH1 0x1 PUSH1 0x1 PUSH1 0xA0 SHL SUB DUP5 AND PUSH2 0x1C6A JUMPI PUSH1 0x40 MLOAD PUSH4 0xE602DF05 PUSH1 0xE0 SHL DUP2 MSTORE PUSH0 PUSH1 0x4 DUP3 ADD MSTORE PUSH1 0x24 ADD PUSH2 0x5A6 JUMP JUMPDEST PUSH1 0x1 PUSH1 0x1 PUSH1 0xA0 SHL SUB DUP4 AND PUSH2 0x1C93 JUMPI PUSH1 0x40 MLOAD PUSH4 0x4A1406B1 PUSH1 0xE1 SHL DUP2 MSTORE PUSH0 PUSH1 0x4 DUP3 ADD MSTORE PUSH1 0x24 ADD PUSH2 0x5A6 JUMP JUMPDEST PUSH1 0x1 PUSH1 0x1 PUSH1 0xA0 SHL SUB DUP1 DUP6 AND PUSH0 SWAP1 DUP2 MSTORE PUSH1 0x2 PUSH1 0x20 SWAP1 DUP2 MSTORE PUSH1 0x40 DUP1 DUP4 KECCAK256 SWAP4 DUP8 AND DUP4 MSTORE SWAP3 SWAP1 MSTORE KECCAK256 DUP3 SWAP1 SSTORE DUP1 ISZERO PUSH2 0x1663 JUMPI DUP3 PUSH1 0x1 PUSH1 0x1 PUSH1 0xA0 SHL SUB AND DUP5 PUSH1 0x1 PUSH1 0x1 PUSH1 0xA0 SHL SUB AND PUSH32 0x8C5BE1E5EBEC7D5BD14F71427D1E84F3DD0314C0F7B2291E5B200AC8C7C3B925 DUP5 PUSH1 0x40 MLOAD PUSH2 0x1D05 SWAP2 DUP2 MSTORE PUSH1 0x20 ADD SWAP1 JUMP JUMPDEST PUSH1 0x40 MLOAD DUP1 SWAP2 SUB SWAP1 LOG3 POP POP POP POP JUMP JUMPDEST PUSH4 0x4E487B71 PUSH1 0xE0 SHL PUSH0 MSTORE PUSH1 0x41 PUSH1 0x4 MSTORE PUSH1 0x24 PUSH0 REVERT JUMPDEST PUSH1 0x40 MLOAD PUSH1 0x1F DUP3 ADD PUSH1 0x1F NOT AND DUP2 ADD PUSH8 0xFFFFFFFFFFFFFFFF DUP2 GT DUP3 DUP3 LT OR ISZERO PUSH2 0x1D50 JUMPI PUSH2 0x1D50 PUSH2 0x1D13 JUMP JUMPDEST PUSH1 0x40 MSTORE SWAP2 SWAP1 POP JUMP JUMPDEST PUSH0 DUP3 PUSH1 0x1F DUP4 ADD SLT PUSH2 0x1D67 JUMPI PUSH0 DUP1 REVERT JUMPDEST DUP2 CALLDATALOAD PUSH8 0xFFFFFFFFFFFFFFFF DUP2 GT ISZERO PUSH2 0x1D81 JUMPI PUSH2 0x1D81 PUSH2 0x1D13 JUMP JUMPDEST PUSH2 0x1D94 PUSH1 0x1F DUP3 ADD PUSH1 0x1F NOT AND PUSH1 0x20 ADD PUSH2 0x1D27 JUMP JUMPDEST DUP2 DUP2 MSTORE DUP5 PUSH1 0x20 DUP4 DUP7 ADD ADD GT ISZERO PUSH2 0x1DA8 JUMPI PUSH0 DUP1 REVERT JUMPDEST DUP2 PUSH1 0x20 DUP6 ADD PUSH1 0x20 DUP4 ADD CALLDATACOPY PUSH0 SWAP2 DUP2 ADD PUSH1 0x20 ADD SWAP2 SWAP1 SWAP2 MSTORE SWAP4 SWAP3 POP POP POP JUMP JUMPDEST PUSH0 DUP1 PUSH1 0x40 DUP4 DUP6 SUB SLT ISZERO PUSH2 0x1DD5 JUMPI PUSH0 DUP1 REVERT JUMPDEST DUP3 CALLDATALOAD SWAP2 POP PUSH1 0x20 DUP4 ADD CALLDATALOAD PUSH8 0xFFFFFFFFFFFFFFFF DUP2 GT ISZERO PUSH2 0x1DF2 JUMPI PUSH0 DUP1 REVERT JUMPDEST PUSH2 0x1DFE DUP6 DUP3 DUP7 ADD PUSH2 0x1D58 JUMP JUMPDEST SWAP2 POP POP SWAP3 POP SWAP3 SWAP1 POP JUMP JUMPDEST PUSH0 DUP2 MLOAD DUP1 DUP5 MSTORE PUSH0 JUMPDEST DUP2 DUP2 LT ISZERO PUSH2 0x1E2C JUMPI PUSH1 0x20 DUP2 DUP6 ADD DUP2 ADD MLOAD DUP7 DUP4 ADD DUP3 ADD MSTORE ADD PUSH2 0x1E10 JUMP JUMPDEST POP PUSH0 PUSH1 0x20 DUP3 DUP7 ADD ADD MSTORE PUSH1 0x20 PUSH1 0x1F NOT PUSH1 0x1F DUP4 ADD AND DUP6 ADD ADD SWAP2 POP POP SWAP3 SWAP2 POP POP JUMP JUMPDEST PUSH1 0x20 DUP2 MSTORE PUSH0 PUSH2 0x1E5D PUSH1 0x20 DUP4 ADD DUP5 PUSH2 0x1E08 JUMP JUMPDEST SWAP4 SWAP3 POP POP POP JUMP JUMPDEST PUSH1 0x1 PUSH1 0x1 PUSH1 0xA0 SHL SUB DUP2 AND DUP2 EQ PUSH2 0x127C JUMPI PUSH0 DUP1 REVERT JUMPDEST PUSH0 DUP1 PUSH1 0x40 DUP4 DUP6 SUB SLT ISZERO PUSH2 0x1E89 JUMPI PUSH0 DUP1 REVERT JUMPDEST DUP3 CALLDATALOAD PUSH2 0x1E94 DUP2 PUSH2 0x1E64 JUMP JUMPDEST SWAP5 PUSH1 0x20 SWAP4 SWAP1 SWAP4 ADD CALLDATALOAD SWAP4 POP POP POP JUMP JUMPDEST PUSH0 PUSH1 0x20 DUP3 DUP5 SUB SLT ISZERO PUSH2 0x1EB2 JUMPI PUSH0 DUP1 REVERT JUMPDEST POP CALLDATALOAD SWAP2 SWAP1 POP JUMP JUMPDEST PUSH0 DUP1 PUSH0 PUSH1 0x60 DUP5 DUP7 SUB SLT ISZERO PUSH2 0x1ECB JUMPI PUSH0 DUP1 REVERT JUMPDEST DUP4 CALLDATALOAD PUSH2 0x1ED6 DUP2 PUSH2 0x1E64 JUMP JUMPDEST SWAP3 POP PUSH1 0x20 DUP5 ADD CALLDATALOAD PUSH2 0x1EE6 DUP2 PUSH2 0x1E64 JUMP JUMPDEST SWAP3 SWAP6 SWAP3 SWAP5 POP POP POP PUSH1 0x40 SWAP2 SWAP1 SWAP2 ADD CALLDATALOAD SWAP1 JUMP JUMPDEST PUSH4 0x4E487B71 PUSH1 0xE0 SHL PUSH0 MSTORE PUSH1 0x21 PUSH1 0x4 MSTORE PUSH1 0x24 PUSH0 REVERT JUMPDEST PUSH1 0x2 DUP2 LT PUSH2 0x1F27 JUMPI PUSH4 0x4E487B71 PUSH1 0xE0 SHL PUSH0 MSTORE PUSH1 0x21 PUSH1 0x4 MSTORE PUSH1 0x24 PUSH0 REVERT JUMPDEST SWAP1 MSTORE JUMP JUMPDEST PUSH1 0x20 DUP1 DUP3 MSTORE DUP3 MLOAD DUP3 DUP3 ADD DUP2 SWAP1 MSTORE PUSH0 SWAP2 SWAP1 PUSH1 0x40 SWAP1 DUP2 DUP6 ADD SWAP1 DUP7 DUP5 ADD DUP6 JUMPDEST DUP3 DUP2 LT ISZERO PUSH2 0x1F98 JUMPI DUP2 MLOAD DUP1 MLOAD PUSH1 0x1 PUSH1 0x1 PUSH1 0xA0 SHL SUB AND DUP6 MSTORE DUP7 DUP2 ADD MLOAD DUP8 DUP7 ADD MSTORE DUP6 DUP2 ADD MLOAD PUSH2 0x1F76 DUP8 DUP8 ADD DUP3 PUSH2 0x1F0B JUMP JUMPDEST POP PUSH1 0x60 SWAP1 DUP2 ADD MLOAD PUSH3 0xFFFFFF AND SWAP1 DUP6 ADD MSTORE PUSH1 0x80 SWAP1 SWAP4 ADD SWAP3 SWAP1 DUP6 ADD SWAP1 PUSH1 0x1 ADD PUSH2 0x1F47 JUMP JUMPDEST POP SWAP2 SWAP8 SWAP7 POP POP POP POP POP POP POP JUMP JUMPDEST PUSH0 PUSH1 0x20 DUP3 DUP5 SUB SLT ISZERO PUSH2 0x1FB5 JUMPI PUSH0 DUP1 REVERT JUMPDEST DUP2 CALLDATALOAD PUSH2 0x1E5D DUP2 PUSH2 0x1E64 JUMP JUMPDEST PUSH1 0x1 PUSH1 0x1 PUSH1 0xA0 SHL SUB DUP7 DUP2 AND DUP3 MSTORE DUP6 AND PUSH1 0x20 DUP3 ADD MSTORE PUSH1 0x40 DUP2 ADD DUP5 SWAP1 MSTORE PUSH1 0xA0 DUP2 ADD PUSH2 0x1FEC PUSH1 0x60 DUP4 ADD DUP6 PUSH2 0x1F0B JUMP JUMPDEST PUSH3 0xFFFFFF DUP4 AND PUSH1 0x80 DUP4 ADD MSTORE SWAP7 SWAP6 POP POP POP POP POP POP JUMP JUMPDEST DUP1 CALLDATALOAD PUSH1 0x2 DUP2 LT PUSH2 0x200F JUMPI PUSH0 DUP1 REVERT JUMPDEST SWAP2 SWAP1 POP JUMP JUMPDEST PUSH0 DUP1 PUSH0 DUP1 PUSH0 PUSH1 0xA0 DUP7 DUP9 SUB SLT ISZERO PUSH2 0x2028 JUMPI PUSH0 DUP1 REVERT JUMPDEST DUP6 CALLDATALOAD PUSH2 0x2033 DUP2 PUSH2 0x1E64 JUMP JUMPDEST SWAP5 POP PUSH1 0x20 DUP7 ADD CALLDATALOAD SWAP4 POP PUSH2 0x2048 PUSH1 0x40 DUP8 ADD PUSH2 0x2001 JUMP JUMPDEST SWAP3 POP PUSH1 0x60 DUP7 ADD CALLDATALOAD PUSH2 0x2058 DUP2 PUSH2 0x1E64 JUMP JUMPDEST SWAP2 POP PUSH1 0x80 DUP7 ADD CALLDATALOAD PUSH8 0xFFFFFFFFFFFFFFFF DUP2 GT ISZERO PUSH2 0x2073 JUMPI PUSH0 DUP1 REVERT JUMPDEST PUSH2 0x207F DUP9 DUP3 DUP10 ADD PUSH2 0x1D58 JUMP JUMPDEST SWAP2 POP POP SWAP3 SWAP6 POP SWAP3 SWAP6 SWAP1 SWAP4 POP JUMP JUMPDEST PUSH0 PUSH1 0x20 DUP3 DUP5 SUB SLT ISZERO PUSH2 0x209C JUMPI PUSH0 DUP1 REVERT JUMPDEST DUP2 CALLDATALOAD PUSH8 0xFFFFFFFFFFFFFFFF DUP2 GT ISZERO PUSH2 0x20B2 JUMPI PUSH0 DUP1 REVERT JUMPDEST PUSH2 0x20BE DUP5 DUP3 DUP6 ADD PUSH2 0x1D58 JUMP JUMPDEST SWAP5 SWAP4 POP POP POP POP JUMP JUMPDEST PUSH0 DUP1 PUSH1 0x40 DUP4 DUP6 SUB SLT ISZERO PUSH2 0x20D7 JUMPI PUSH0 DUP1 REVERT JUMPDEST DUP3 CALLDATALOAD PUSH2 0x20E2 DUP2 PUSH2 0x1E64 JUMP JUMPDEST SWAP2 POP PUSH1 0x20 DUP4 ADD CALLDATALOAD PUSH2 0x20F2 DUP2 PUSH2 0x1E64 JUMP JUMPDEST DUP1 SWAP2 POP POP SWAP3 POP SWAP3 SWAP1 POP JUMP JUMPDEST PUSH0 DUP1 DUP4 PUSH1 0x1F DUP5 ADD SLT PUSH2 0x210D JUMPI PUSH0 DUP1 REVERT JUMPDEST POP DUP2 CALLDATALOAD PUSH8 0xFFFFFFFFFFFFFFFF DUP2 GT ISZERO PUSH2 0x2124 JUMPI PUSH0 DUP1 REVERT JUMPDEST PUSH1 0x20 DUP4 ADD SWAP2 POP DUP4 PUSH1 0x20 DUP3 PUSH1 0x5 SHL DUP6 ADD ADD GT ISZERO PUSH2 0x213E JUMPI PUSH0 DUP1 REVERT JUMPDEST SWAP3 POP SWAP3 SWAP1 POP JUMP JUMPDEST PUSH0 DUP1 PUSH0 DUP1 PUSH0 DUP1 PUSH0 DUP1 PUSH1 0x80 DUP10 DUP12 SUB SLT ISZERO PUSH2 0x215C JUMPI PUSH0 DUP1 REVERT JUMPDEST DUP9 CALLDATALOAD PUSH8 0xFFFFFFFFFFFFFFFF DUP1 DUP3 GT ISZERO PUSH2 0x2173 JUMPI PUSH0 DUP1 REVERT JUMPDEST PUSH2 0x217F DUP13 DUP4 DUP14 ADD PUSH2 0x20FD JUMP JUMPDEST SWAP1 SWAP11 POP SWAP9 POP PUSH1 0x20 DUP12 ADD CALLDATALOAD SWAP2 POP DUP1 DUP3 GT ISZERO PUSH2 0x2197 JUMPI PUSH0 DUP1 REVERT JUMPDEST PUSH2 0x21A3 DUP13 DUP4 DUP14 ADD PUSH2 0x20FD JUMP JUMPDEST SWAP1 SWAP9 POP SWAP7 POP PUSH1 0x40 DUP12 ADD CALLDATALOAD SWAP2 POP DUP1 DUP3 GT ISZERO PUSH2 0x21BB JUMPI PUSH0 DUP1 REVERT JUMPDEST PUSH2 0x21C7 DUP13 DUP4 DUP14 ADD PUSH2 0x20FD JUMP JUMPDEST SWAP1 SWAP7 POP SWAP5 POP PUSH1 0x60 DUP12 ADD CALLDATALOAD SWAP2 POP DUP1 DUP3 GT ISZERO PUSH2 0x21DF JUMPI PUSH0 DUP1 REVERT JUMPDEST POP PUSH2 0x21EC DUP12 DUP3 DUP13 ADD PUSH2 0x20FD JUMP JUMPDEST SWAP10 SWAP13 SWAP9 SWAP12 POP SWAP7 SWAP10 POP SWAP5 SWAP8 SWAP4 SWAP7 SWAP3 SWAP6 SWAP5 POP POP POP JUMP JUMPDEST PUSH0 PUSH1 0x20 DUP3 DUP5 SUB SLT ISZERO PUSH2 0x2210 JUMPI PUSH0 DUP1 REVERT JUMPDEST POP MLOAD SWAP2 SWAP1 POP JUMP JUMPDEST PUSH4 0x4E487B71 PUSH1 0xE0 SHL PUSH0 MSTORE PUSH1 0x11 PUSH1 0x4 MSTORE PUSH1 0x24 PUSH0 REVERT JUMPDEST DUP1 DUP3 MUL DUP2 ISZERO DUP3 DUP3 DIV DUP5 EQ OR PUSH2 0xA18 JUMPI PUSH2 0xA18 PUSH2 0x2217 JUMP JUMPDEST PUSH0 DUP3 PUSH2 0x225C JUMPI PUSH4 0x4E487B71 PUSH1 0xE0 SHL PUSH0 MSTORE PUSH1 0x12 PUSH1 0x4 MSTORE PUSH1 0x24 PUSH0 REVERT JUMPDEST POP DIV SWAP1 JUMP JUMPDEST PUSH0 PUSH1 0x20 DUP3 DUP5 SUB SLT ISZERO PUSH2 0x2271 JUMPI PUSH0 DUP1 REVERT JUMPDEST DUP2 MLOAD PUSH2 0x1E5D DUP2 PUSH2 0x1E64 JUMP JUMPDEST PUSH4 0x4E487B71 PUSH1 0xE0 SHL PUSH0 MSTORE PUSH1 0x32 PUSH1 0x4 MSTORE PUSH1 0x24 PUSH0 REVERT JUMPDEST PUSH1 0x1 PUSH1 0x1 PUSH1 0xA0 SHL SUB DUP7 DUP2 AND DUP3 MSTORE PUSH1 0x20 DUP3 ADD DUP7 SWAP1 MSTORE PUSH0 SWAP1 PUSH2 0x22B3 PUSH1 0x40 DUP5 ADD DUP8 PUSH2 0x1F0B JUMP JUMPDEST DUP1 DUP6 AND PUSH1 0x60 DUP5 ADD MSTORE POP PUSH1 0xA0 PUSH1 0x80 DUP4 ADD MSTORE PUSH2 0x22D0 PUSH1 0xA0 DUP4 ADD DUP5 PUSH2 0x1E08 JUMP JUMPDEST SWAP8 SWAP7 POP POP POP POP POP POP POP JUMP JUMPDEST DUP1 DUP3 ADD DUP1 DUP3 GT ISZERO PUSH2 0xA18 JUMPI PUSH2 0xA18 PUSH2 0x2217 JUMP JUMPDEST PUSH0 PUSH1 0x1 DUP3 ADD PUSH2 0x22FF JUMPI PUSH2 0x22FF PUSH2 0x2217 JUMP JUMPDEST POP PUSH1 0x1 ADD SWAP1 JUMP JUMPDEST PUSH0 PUSH1 0x20 DUP3 DUP5 SUB SLT ISZERO PUSH2 0x2316 JUMPI PUSH0 DUP1 REVERT JUMPDEST DUP2 MLOAD PUSH2 0xFFFF DUP2 AND DUP2 EQ PUSH2 0x1E5D JUMPI PUSH0 DUP1 REVERT JUMPDEST DUP2 DUP2 SUB DUP2 DUP2 GT ISZERO PUSH2 0xA18 JUMPI PUSH2 0xA18 PUSH2 0x2217 JUMP JUMPDEST PUSH0 PUSH1 0x20 DUP3 DUP5 SUB SLT ISZERO PUSH2 0x234A JUMPI PUSH0 DUP1 REVERT JUMPDEST DUP2 MLOAD DUP1 ISZERO ISZERO DUP2 EQ PUSH2 0x1E5D JUMPI PUSH0 DUP1 REVERT JUMPDEST PUSH1 0x1 DUP2 DUP2 SHR SWAP1 DUP3 AND DUP1 PUSH2 0x236D JUMPI PUSH1 0x7F DUP3 AND SWAP2 POP JUMPDEST PUSH1 0x20 DUP3 LT DUP2 SUB PUSH2 0x238B JUMPI PUSH4 0x4E487B71 PUSH1 0xE0 SHL PUSH0 MSTORE PUSH1 0x22 PUSH1 0x4 MSTORE PUSH1 0x24 PUSH0 REVERT JUMPDEST POP SWAP2 SWAP1 POP JUMP JUMPDEST PUSH0 PUSH1 0x20 DUP3 DUP5 SUB SLT ISZERO PUSH2 0x23A1 JUMPI PUSH0 DUP1 REVERT JUMPDEST PUSH2 0x1E5D DUP3 PUSH2 0x2001 JUMP JUMPDEST PUSH0 PUSH1 0x20 DUP3 DUP5 SUB SLT ISZERO PUSH2 0x23BA JUMPI PUSH0 DUP1 REVERT JUMPDEST DUP2 CALLDATALOAD PUSH3 0xFFFFFF DUP2 AND DUP2 EQ PUSH2 0x1E5D JUMPI PUSH0 DUP1 REVERT JUMPDEST PUSH0 PUSH8 0xFFFFFFFFFFFFFFFF DUP3 GT ISZERO PUSH2 0x23E5 JUMPI PUSH2 0x23E5 PUSH2 0x1D13 JUMP JUMPDEST POP PUSH1 0x5 SHL PUSH1 0x20 ADD SWAP1 JUMP JUMPDEST PUSH0 PUSH1 0x20 DUP1 DUP4 DUP6 SUB SLT ISZERO PUSH2 0x2400 JUMPI PUSH0 DUP1 REVERT JUMPDEST DUP3 MLOAD PUSH8 0xFFFFFFFFFFFFFFFF DUP2 GT ISZERO PUSH2 0x2416 JUMPI PUSH0 DUP1 REVERT JUMPDEST DUP4 ADD PUSH1 0x1F DUP2 ADD DUP6 SGT PUSH2 0x2426 JUMPI PUSH0 DUP1 REVERT JUMPDEST DUP1 MLOAD PUSH2 0x2439 PUSH2 0x2434 DUP3 PUSH2 0x23CC JUMP JUMPDEST PUSH2 0x1D27 JUMP JUMPDEST DUP2 DUP2 MSTORE PUSH1 0x5 SWAP2 SWAP1 SWAP2 SHL DUP3 ADD DUP4 ADD SWAP1 DUP4 DUP2 ADD SWAP1 DUP8 DUP4 GT ISZERO PUSH2 0x2457 JUMPI PUSH0 DUP1 REVERT JUMPDEST SWAP3 DUP5 ADD SWAP3 JUMPDEST DUP3 DUP5 LT ISZERO PUSH2 0x22D0 JUMPI DUP4 MLOAD PUSH2 0x246F DUP2 PUSH2 0x1E64 JUMP JUMPDEST DUP3 MSTORE SWAP3 DUP5 ADD SWAP3 SWAP1 DUP5 ADD SWAP1 PUSH2 0x245C JUMP JUMPDEST PUSH0 DUP2 MLOAD DUP1 DUP5 MSTORE PUSH1 0x20 DUP1 DUP6 ADD SWAP5 POP DUP1 DUP5 ADD PUSH0 JUMPDEST DUP4 DUP2 LT ISZERO PUSH2 0x24B5 JUMPI DUP2 MLOAD PUSH1 0x1 PUSH1 0x1 PUSH1 0xA0 SHL SUB AND DUP8 MSTORE SWAP6 DUP3 ADD SWAP6 SWAP1 DUP3 ADD SWAP1 PUSH1 0x1 ADD PUSH2 0x2490 JUMP JUMPDEST POP SWAP5 SWAP6 SWAP5 POP POP POP POP POP JUMP JUMPDEST DUP3 DUP2 MSTORE PUSH1 0x40 PUSH1 0x20 DUP3 ADD MSTORE PUSH0 PUSH2 0x20BE PUSH1 0x40 DUP4 ADD DUP5 PUSH2 0x247E JUMP JUMPDEST PUSH0 PUSH1 0x20 DUP1 DUP4 DUP6 SUB SLT ISZERO PUSH2 0x24E9 JUMPI PUSH0 DUP1 REVERT JUMPDEST DUP3 MLOAD PUSH8 0xFFFFFFFFFFFFFFFF DUP2 GT ISZERO PUSH2 0x24FF JUMPI PUSH0 DUP1 REVERT JUMPDEST DUP4 ADD PUSH1 0x1F DUP2 ADD DUP6 SGT PUSH2 0x250F JUMPI PUSH0 DUP1 REVERT JUMPDEST DUP1 MLOAD PUSH2 0x251D PUSH2 0x2434 DUP3 PUSH2 0x23CC JUMP JUMPDEST DUP2 DUP2 MSTORE PUSH1 0x5 SWAP2 SWAP1 SWAP2 SHL DUP3 ADD DUP4 ADD SWAP1 DUP4 DUP2 ADD SWAP1 DUP8 DUP4 GT ISZERO PUSH2 0x253B JUMPI PUSH0 DUP1 REVERT JUMPDEST SWAP3 DUP5 ADD SWAP3 JUMPDEST DUP3 DUP5 LT ISZERO PUSH2 0x22D0 JUMPI DUP4 MLOAD DUP3 MSTORE SWAP3 DUP5 ADD SWAP3 SWAP1 DUP5 ADD SWAP1 PUSH2 0x2540 JUMP JUMPDEST DUP6 DUP2 MSTORE DUP5 PUSH1 0x20 DUP3 ADD MSTORE PUSH1 0xA0 PUSH1 0x40 DUP3 ADD MSTORE PUSH0 PUSH2 0x2577 PUSH1 0xA0 DUP4 ADD DUP7 PUSH2 0x247E JUMP JUMPDEST PUSH1 0x1 PUSH1 0x1 PUSH1 0xA0 SHL SUB SWAP5 SWAP1 SWAP5 AND PUSH1 0x60 DUP4 ADD MSTORE POP PUSH1 0x80 ADD MSTORE SWAP4 SWAP3 POP POP POP JUMP JUMPDEST PUSH1 0x40 DUP2 MSTORE PUSH0 PUSH2 0x25A6 PUSH1 0x40 DUP4 ADD DUP6 PUSH2 0x1E08 JUMP JUMPDEST SWAP1 POP DUP3 PUSH1 0x20 DUP4 ADD MSTORE SWAP4 SWAP3 POP POP POP JUMP JUMPDEST PUSH1 0x20 DUP2 MSTORE PUSH0 DUP3 MLOAD PUSH1 0xA0 PUSH1 0x20 DUP5 ADD MSTORE PUSH2 0x25D0 PUSH1 0xC0 DUP5 ADD DUP3 PUSH2 0x1E08 JUMP JUMPDEST SWAP1 POP PUSH1 0x1 DUP1 PUSH1 0xA0 SHL SUB PUSH1 0x20 DUP6 ADD MLOAD AND PUSH1 0x40 DUP5 ADD MSTORE PUSH1 0x40 DUP5 ADD MLOAD PUSH1 0x60 DUP5 ADD MSTORE PUSH1 0x60 DUP5 ADD MLOAD PUSH1 0x80 DUP5 ADD MSTORE PUSH1 0x80 DUP5 ADD MLOAD PUSH1 0xA0 DUP5 ADD MSTORE DUP1 SWAP2 POP POP SWAP3 SWAP2 POP POP JUMP INVALID LOG2 PUSH5 0x6970667358 0x22 SLT KECCAK256 TIMESTAMP MLOAD SLT 0xAC 0x2E 0x49 PUSH8 0x606AAD39F4FAC090 0xE9 INVALID 0xDA 0xC1 0xE5 0x4D 0xB0 DUP3 0xDA REVERT PUSH32 0x134AE41B33E064736F6C63430008140033000000000000000000000000000000 "
		},
		"gasEstimates": {
			"creation": {
				"codeDepositCost": "1958800",
				"executionCost": "infinite",
				"totalCost": "infinite"
			},
			"external": {
				"allowance(address,address)": "infinite",
				"approve(address,uint256)": "24797",
				"balanceOf(address)": "2574",
				"decimals()": "221",
				"deposit(bytes)": "infinite",
				"ethDepositedFailed(address)": "2599",
				"failedSwaps(uint256)": "11279",
				"getAllTokens()": "infinite",
				"initialedTokens()": "2354",
				"initializeTokens(address[],uint256[],uint8[],uint24[])": "infinite",
				"name()": "infinite",
				"owner()": "2396",
				"renounceOwnership()": "infinite",
				"setSlippageTolerance(uint256)": "22394",
				"slippageTolerance()": "2338",
				"swapTokenForToken(address,uint256,uint8,address,bytes)": "infinite",
				"symbol()": "infinite",
				"totalSupply()": "2370",
				"transfer(address,uint256)": "51268",
				"transferFrom(address,address,uint256)": "infinite",
				"transferOwnership(address)": "infinite",
				"uniswapV2Router()": "2404",
				"uniswapV3Quoter()": "2447",
				"uniswapV3Router()": "2404",
				"userFailedSwaps(address)": "2577",
				"withdrawFeesByOwner(address)": "infinite",
				"withdrawInKind(uint256)": "infinite",
				"withdrawToETH(uint256,bytes)": "infinite"
			}
		},
		"methodIdentifiers": {
			"allowance(address,address)": "dd62ed3e",
			"approve(address,uint256)": "095ea7b3",
			"balanceOf(address)": "70a08231",
			"decimals()": "313ce567",
			"deposit(bytes)": "98b1e06a",
			"ethDepositedFailed(address)": "c38cd0b5",
			"failedSwaps(uint256)": "378a653c",
			"getAllTokens()": "2a5c792a",
			"initialedTokens()": "81a06b73",
			"initializeTokens(address[],uint256[],uint8[],uint24[])": "e24e9e07",
			"name()": "06fdde03",
			"owner()": "8da5cb5b",
			"renounceOwnership()": "715018a6",
			"setSlippageTolerance(uint256)": "117da1ee",
			"slippageTolerance()": "d03153aa",
			"swapTokenForToken(address,uint256,uint8,address,bytes)": "74a66061",
			"symbol()": "95d89b41",
			"totalSupply()": "18160ddd",
			"transfer(address,uint256)": "a9059cbb",
			"transferFrom(address,address,uint256)": "23b872dd",
			"transferOwnership(address)": "f2fde38b",
			"uniswapV2Router()": "1694505e",
			"uniswapV3Quoter()": "4d20d0f8",
			"uniswapV3Router()": "2c76d7a6",
			"userFailedSwaps(address)": "36a43f2b",
			"withdrawFeesByOwner(address)": "a738c7df",
			"withdrawInKind(uint256)": "3043d4d9",
			"withdrawToETH(uint256,bytes)": "00d06ddd"
		}
	},
	"abi": [
		{
			"inputs": [
				{
					"internalType": "string",
					"name": "_name",
					"type": "string"
				},
				{
					"internalType": "string",
					"name": "_symbol",
					"type": "string"
				},
				{
					"internalType": "address",
					"name": "_uniswapV2Router",
					"type": "address"
				},
				{
					"internalType": "address",
					"name": "_uniswapV3Router",
					"type": "address"
				},
				{
					"internalType": "address",
					"name": "_uniswapV3Quoter",
					"type": "address"
				}
			],
			"stateMutability": "nonpayable",
			"type": "constructor"
		},
		{
			"inputs": [
				{
					"internalType": "address",
					"name": "spender",
					"type": "address"
				},
				{
					"internalType": "uint256",
					"name": "allowance",
					"type": "uint256"
				},
				{
					"internalType": "uint256",
					"name": "needed",
					"type": "uint256"
				}
			],
			"name": "ERC20InsufficientAllowance",
			"type": "error"
		},
		{
			"inputs": [
				{
					"internalType": "address",
					"name": "sender",
					"type": "address"
				},
				{
					"internalType": "uint256",
					"name": "balance",
					"type": "uint256"
				},
				{
					"internalType": "uint256",
					"name": "needed",
					"type": "uint256"
				}
			],
			"name": "ERC20InsufficientBalance",
			"type": "error"
		},
		{
			"inputs": [
				{
					"internalType": "address",
					"name": "approver",
					"type": "address"
				}
			],
			"name": "ERC20InvalidApprover",
			"type": "error"
		},
		{
			"inputs": [
				{
					"internalType": "address",
					"name": "receiver",
					"type": "address"
				}
			],
			"name": "ERC20InvalidReceiver",
			"type": "error"
		},
		{
			"inputs": [
				{
					"internalType": "address",
					"name": "sender",
					"type": "address"
				}
			],
			"name": "ERC20InvalidSender",
			"type": "error"
		},
		{
			"inputs": [
				{
					"internalType": "address",
					"name": "spender",
					"type": "address"
				}
			],
			"name": "ERC20InvalidSpender",
			"type": "error"
		},
		{
			"inputs": [
				{
					"internalType": "address",
					"name": "owner",
					"type": "address"
				}
			],
			"name": "OwnableInvalidOwner",
			"type": "error"
		},
		{
			"inputs": [
				{
					"internalType": "address",
					"name": "account",
					"type": "address"
				}
			],
			"name": "OwnableUnauthorizedAccount",
			"type": "error"
		},
		{
			"anonymous": false,
			"inputs": [
				{
					"indexed": false,
					"internalType": "address",
					"name": "_tokens",
					"type": "address"
				},
				{
					"indexed": false,
					"internalType": "uint256",
					"name": "targetPercentage",
					"type": "uint256"
				}
			],
			"name": "AddToken",
			"type": "event"
		},
		{
			"anonymous": false,
			"inputs": [
				{
					"indexed": true,
					"internalType": "address",
					"name": "owner",
					"type": "address"
				},
				{
					"indexed": true,
					"internalType": "address",
					"name": "spender",
					"type": "address"
				},
				{
					"indexed": false,
					"internalType": "uint256",
					"name": "value",
					"type": "uint256"
				}
			],
			"name": "Approval",
			"type": "event"
		},
		{
			"anonymous": false,
			"inputs": [
				{
					"indexed": true,
					"internalType": "address",
					"name": "previousOwner",
					"type": "address"
				},
				{
					"indexed": true,
					"internalType": "address",
					"name": "newOwner",
					"type": "address"
				}
			],
			"name": "OwnershipTransferred",
			"type": "event"
		},
		{
			"anonymous": false,
			"inputs": [
				{
					"indexed": true,
					"internalType": "address",
					"name": "from",
					"type": "address"
				},
				{
					"indexed": true,
					"internalType": "address",
					"name": "to",
					"type": "address"
				},
				{
					"indexed": false,
					"internalType": "uint256",
					"name": "value",
					"type": "uint256"
				}
			],
			"name": "Transfer",
			"type": "event"
		},
		{
			"inputs": [
				{
					"internalType": "address",
					"name": "owner",
					"type": "address"
				},
				{
					"internalType": "address",
					"name": "spender",
					"type": "address"
				}
			],
			"name": "allowance",
			"outputs": [
				{
					"internalType": "uint256",
					"name": "",
					"type": "uint256"
				}
			],
			"stateMutability": "view",
			"type": "function"
		},
		{
			"inputs": [
				{
					"internalType": "address",
					"name": "spender",
					"type": "address"
				},
				{
					"internalType": "uint256",
					"name": "value",
					"type": "uint256"
				}
			],
			"name": "approve",
			"outputs": [
				{
					"internalType": "bool",
					"name": "",
					"type": "bool"
				}
			],
			"stateMutability": "nonpayable",
			"type": "function"
		},
		{
			"inputs": [
				{
					"internalType": "address",
					"name": "account",
					"type": "address"
				}
			],
			"name": "balanceOf",
			"outputs": [
				{
					"internalType": "uint256",
					"name": "",
					"type": "uint256"
				}
			],
			"stateMutability": "view",
			"type": "function"
		},
		{
			"inputs": [],
			"name": "decimals",
			"outputs": [
				{
					"internalType": "uint8",
					"name": "",
					"type": "uint8"
				}
			],
			"stateMutability": "view",
			"type": "function"
		},
		{
			"inputs": [
				{
					"internalType": "bytes",
					"name": "_path",
					"type": "bytes"
				}
			],
			"name": "deposit",
			"outputs": [],
			"stateMutability": "payable",
			"type": "function"
		},
		{
			"inputs": [
				{
					"internalType": "address",
					"name": "",
					"type": "address"
				}
			],
			"name": "ethDepositedFailed",
			"outputs": [
				{
					"internalType": "uint256",
					"name": "",
					"type": "uint256"
				}
			],
			"stateMutability": "view",
			"type": "function"
		},
		{
			"inputs": [
				{
					"internalType": "uint256",
					"name": "",
					"type": "uint256"
				}
			],
			"name": "failedSwaps",
			"outputs": [
				{
					"internalType": "address",
					"name": "user",
					"type": "address"
				},
				{
					"internalType": "contract IERC20",
					"name": "token",
					"type": "address"
				},
				{
					"internalType": "uint256",
					"name": "amount",
					"type": "uint256"
				},
				{
					"internalType": "enum Version",
					"name": "version",
					"type": "uint8"
				},
				{
					"internalType": "uint24",
					"name": "feeTier",
					"type": "uint24"
				}
			],
			"stateMutability": "view",
			"type": "function"
		},
		{
			"inputs": [],
			"name": "getAllTokens",
			"outputs": [
				{
					"components": [
						{
							"internalType": "contract IERC20",
							"name": "token",
							"type": "address"
						},
						{
							"internalType": "uint256",
							"name": "targetPercentage",
							"type": "uint256"
						},
						{
							"internalType": "enum Version",
							"name": "version",
							"type": "uint8"
						},
						{
							"internalType": "uint24",
							"name": "feeTier",
							"type": "uint24"
						}
					],
					"internalType": "struct TokenInfo[]",
					"name": "",
					"type": "tuple[]"
				}
			],
			"stateMutability": "view",
			"type": "function"
		},
		{
			"inputs": [],
			"name": "initialedTokens",
			"outputs": [
				{
					"internalType": "bool",
					"name": "",
					"type": "bool"
				}
			],
			"stateMutability": "view",
			"type": "function"
		},
		{
			"inputs": [
				{
					"internalType": "address[]",
					"name": "_tokens",
					"type": "address[]"
				},
				{
					"internalType": "uint256[]",
					"name": "_targetPercentages",
					"type": "uint256[]"
				},
				{
					"internalType": "enum Version[]",
					"name": "_versions",
					"type": "uint8[]"
				},
				{
					"internalType": "uint24[]",
					"name": "_feeTiers",
					"type": "uint24[]"
				}
			],
			"name": "initializeTokens",
			"outputs": [],
			"stateMutability": "nonpayable",
			"type": "function"
		},
		{
			"inputs": [],
			"name": "name",
			"outputs": [
				{
					"internalType": "string",
					"name": "",
					"type": "string"
				}
			],
			"stateMutability": "view",
			"type": "function"
		},
		{
			"inputs": [],
			"name": "owner",
			"outputs": [
				{
					"internalType": "address",
					"name": "",
					"type": "address"
				}
			],
			"stateMutability": "view",
			"type": "function"
		},
		{
			"inputs": [],
			"name": "renounceOwnership",
			"outputs": [],
			"stateMutability": "nonpayable",
			"type": "function"
		},
		{
			"inputs": [
				{
					"internalType": "uint256",
					"name": "_slippageTolerance",
					"type": "uint256"
				}
			],
			"name": "setSlippageTolerance",
			"outputs": [],
			"stateMutability": "nonpayable",
			"type": "function"
		},
		{
			"inputs": [],
			"name": "slippageTolerance",
			"outputs": [
				{
					"internalType": "uint256",
					"name": "",
					"type": "uint256"
				}
			],
			"stateMutability": "view",
			"type": "function"
		},
		{
			"inputs": [
				{
					"internalType": "contract IERC20",
					"name": "_token",
					"type": "address"
				},
				{
					"internalType": "uint256",
					"name": "_amountIn",
					"type": "uint256"
				},
				{
					"internalType": "enum Version",
					"name": "_version",
					"type": "uint8"
				},
				{
					"internalType": "address",
					"name": "_receiver",
					"type": "address"
				},
				{
					"internalType": "bytes",
					"name": "_path",
					"type": "bytes"
				}
			],
			"name": "swapTokenForToken",
			"outputs": [
				{
					"internalType": "uint256",
					"name": "",
					"type": "uint256"
				}
			],
			"stateMutability": "nonpayable",
			"type": "function"
		},
		{
			"inputs": [],
			"name": "symbol",
			"outputs": [
				{
					"internalType": "string",
					"name": "",
					"type": "string"
				}
			],
			"stateMutability": "view",
			"type": "function"
		},
		{
			"inputs": [],
			"name": "totalSupply",
			"outputs": [
				{
					"internalType": "uint256",
					"name": "",
					"type": "uint256"
				}
			],
			"stateMutability": "view",
			"type": "function"
		},
		{
			"inputs": [
				{
					"internalType": "address",
					"name": "to",
					"type": "address"
				},
				{
					"internalType": "uint256",
					"name": "value",
					"type": "uint256"
				}
			],
			"name": "transfer",
			"outputs": [
				{
					"internalType": "bool",
					"name": "",
					"type": "bool"
				}
			],
			"stateMutability": "nonpayable",
			"type": "function"
		},
		{
			"inputs": [
				{
					"internalType": "address",
					"name": "from",
					"type": "address"
				},
				{
					"internalType": "address",
					"name": "to",
					"type": "address"
				},
				{
					"internalType": "uint256",
					"name": "value",
					"type": "uint256"
				}
			],
			"name": "transferFrom",
			"outputs": [
				{
					"internalType": "bool",
					"name": "",
					"type": "bool"
				}
			],
			"stateMutability": "nonpayable",
			"type": "function"
		},
		{
			"inputs": [
				{
					"internalType": "address",
					"name": "newOwner",
					"type": "address"
				}
			],
			"name": "transferOwnership",
			"outputs": [],
			"stateMutability": "nonpayable",
			"type": "function"
		},
		{
			"inputs": [],
			"name": "uniswapV2Router",
			"outputs": [
				{
					"internalType": "contract IUniswapV2Router02",
					"name": "",
					"type": "address"
				}
			],
			"stateMutability": "view",
			"type": "function"
		},
		{
			"inputs": [],
			"name": "uniswapV3Quoter",
			"outputs": [
				{
					"internalType": "contract IUniswapV3Quoter",
					"name": "",
					"type": "address"
				}
			],
			"stateMutability": "view",
			"type": "function"
		},
		{
			"inputs": [],
			"name": "uniswapV3Router",
			"outputs": [
				{
					"internalType": "contract ISwapRouter",
					"name": "",
					"type": "address"
				}
			],
			"stateMutability": "view",
			"type": "function"
		},
		{
			"inputs": [
				{
					"internalType": "address",
					"name": "",
					"type": "address"
				}
			],
			"name": "userFailedSwaps",
			"outputs": [
				{
					"internalType": "uint256",
					"name": "",
					"type": "uint256"
				}
			],
			"stateMutability": "view",
			"type": "function"
		},
		{
			"inputs": [
				{
					"internalType": "address",
					"name": "_receiverFeeAddress",
					"type": "address"
				}
			],
			"name": "withdrawFeesByOwner",
			"outputs": [],
			"stateMutability": "nonpayable",
			"type": "function"
		},
		{
			"inputs": [
				{
					"internalType": "uint256",
					"name": "tokenAmount",
					"type": "uint256"
				}
			],
			"name": "withdrawInKind",
			"outputs": [],
			"stateMutability": "nonpayable",
			"type": "function"
		},
		{
			"inputs": [
				{
					"internalType": "uint256",
					"name": "tokenAmount",
					"type": "uint256"
				},
				{
					"internalType": "bytes",
					"name": "_path",
					"type": "bytes"
				}
			],
			"name": "withdrawToETH",
			"outputs": [],
			"stateMutability": "nonpayable",
			"type": "function"
		}
	]
}