{
	"data": {
		"bytecode": {
			"linkReferences": {},
			"object": "608060405234801561000f575f80fd5b5060405161609a38038061609a83398101604081905261002e91610194565b60408051808201825260078152660a0b28e8e8aa8960cb1b602080830191909152825180840190935260048352630a08aa8960e31b9083015290338061008d57604051631e4fbdf760e01b81525f600482015260240160405180910390fd5b6100968161012a565b505f805460ff60a01b1916905560046100af838261026c565b5060056100bc828261026c565b5050600780546001600160a01b039586166001600160a01b03199182161790915560088054948616948216949094179093555060098054919093169116179055335f908152600a60205260409020805460ff191660011790556103e86010556064600f819055600e55610326565b5f80546001600160a01b038381166001600160a01b0319831681178455604051919092169283917f8be0079c531659141344cd1fd0a4f28419497f9722a3daafe3b4186f6b6457e09190a35050565b80516001600160a01b038116811461018f575f80fd5b919050565b5f805f606084860312156101a6575f80fd5b6101af84610179565b92506101bd60208501610179565b91506101cb60408501610179565b90509250925092565b634e487b7160e01b5f52604160045260245ffd5b600181811c908216806101fc57607f821691505b60208210810361021a57634e487b7160e01b5f52602260045260245ffd5b50919050565b601f82111561026757805f5260205f20601f840160051c810160208510156102455750805b601f840160051c820191505b81811015610264575f8155600101610251565b50505b505050565b81516001600160401b03811115610285576102856101d4565b6102998161029384546101e8565b84610220565b6020601f8211600181146102cb575f83156102b45750848201515b5f19600385901b1c1916600184901b178455610264565b5f84815260208120601f198516915b828110156102fa57878501518255602094850194600190920191016102da565b508482101561031757868401515f19600387901b60f8161c191681555b50505050600190811b01905550565b615d67806103335f395ff3fe60806040526004361061025f575f3560e01c806360d274511161013f5780639b19251a116100b3578063d0e30db011610078578063d0e30db014610736578063dd62ed3e1461073e578063e7ae65ab14610782578063f2fde38b146107a1578063f7e625a3146107c0578063fa3b5649146107d5575f80fd5b80639b19251a1461068a578063a738c7df146106b8578063a9059cbb146106d7578063c38cd0b5146106f6578063d03153aa14610721575f80fd5b806386bc55db1161010457806386bc55db146105ef57806386c14663146106045780638bc7e8c4146106195780638da5cb5b1461062e57806391ebe50f1461064a57806395d89b4114610676575f80fd5b806360d274511461055457806367a527931461057357806370a0823114610588578063715018a6146105bc578063780d5710146105d0575f80fd5b80632e1a7d4d116101d657806339c0f5d21161019b57806339c0f5d2146104a85780633d7526f7146104bb5780634d20d0f8146104da57806353d6fd59146104f95780635643a5a7146105185780635c975abb14610537575f80fd5b80632e1a7d4d146103e45780632e63a15614610403578063313ce5671461043257806336a43f2b1461044d578063378a653c14610478575f80fd5b806318160ddd1161022757806318160ddd1461033357806323b872dd14610351578063246f972f146103705780632a5c792a146103855780632c76d7a6146103a65780632c9351a1146103c5575f80fd5b806306fdde0314610263578063095ea7b31461028d5780630b78f9c0146102bc578063117da1ee146102dd5780631694505e146102fc575b5f80fd5b34801561026e575f80fd5b506102776107e9565b604051610284919061503a565b60405180910390f35b348015610298575f80fd5b506102ac6102a7366004615067565b610879565b6040519015158152602001610284565b3480156102c7575f80fd5b506102db6102d6366004615091565b610892565b005b3480156102e8575f80fd5b506102db6102f73660046150b1565b61091e565b348015610307575f80fd5b5060075461031b906001600160a01b031681565b6040516001600160a01b039091168152602001610284565b34801561033e575f80fd5b506003545b604051908152602001610284565b34801561035c575f80fd5b506102ac61036b3660046150c8565b610966565b34801561037b575f80fd5b5061034360125481565b348015610390575f80fd5b50610399610989565b6040516102849190615106565b3480156103b1575f80fd5b5060085461031b906001600160a01b031681565b3480156103d0575f80fd5b506102db6103df3660046150b1565b610aa8565b3480156103ef575f80fd5b506102db6103fe3660046150b1565b610fbf565b34801561040e575f80fd5b5061042261041d3660046150b1565b61173b565b60405161028494939291906151a2565b34801561043d575f80fd5b5060405160128152602001610284565b348015610458575f80fd5b506103436104673660046151de565b600c6020525f908152604090205481565b348015610483575f80fd5b506104976104923660046150b1565b61180b565b6040516102849594939291906151f9565b6102db6104b636600461529d565b6118e6565b3480156104c6575f80fd5b506102db6104d53660046151de565b611caa565b3480156104e5575f80fd5b5060095461031b906001600160a01b031681565b348015610504575f80fd5b506102db610513366004615368565b612008565b348015610523575f80fd5b506103436105323660046153c1565b61203a565b348015610542575f80fd5b505f54600160a01b900460ff166102ac565b34801561055f575f80fd5b506102db61056e36600461549d565b612166565b34801561057e575f80fd5b50610343600e5481565b348015610593575f80fd5b506103436105a23660046151de565b6001600160a01b03165f9081526001602052604090205490565b3480156105c7575f80fd5b506102db61239e565b3480156105db575f80fd5b506102db6105ea3660046153c1565b6123b1565b3480156105fa575f80fd5b5061034360135481565b34801561060f575f80fd5b5061034360145481565b348015610624575f80fd5b50610343600f5481565b348015610639575f80fd5b505f546001600160a01b031661031b565b348015610655575f80fd5b506106696106643660046151de565b612813565b6040516102849190615567565b348015610681575f80fd5b50610277612a23565b348015610695575f80fd5b506102ac6106a43660046151de565b600a6020525f908152604090205460ff1681565b3480156106c3575f80fd5b506102db6106d23660046151de565b612a32565b3480156106e2575f80fd5b506102ac6106f1366004615067565b612bc7565b348015610701575f80fd5b506103436107103660046151de565b600d6020525f908152604090205481565b34801561072c575f80fd5b5061034360105481565b6102db612bd4565b348015610749575f80fd5b50610343610758366004615609565b6001600160a01b039182165f90815260026020908152604080832093909416825291909152205490565b34801561078d575f80fd5b5061034361079c36600461529d565b612fa9565b3480156107ac575f80fd5b506102db6107bb3660046151de565b61333d565b3480156107cb575f80fd5b5061034360115481565b3480156107e0575f80fd5b506102db613377565b6060600480546107f890615635565b80601f016020809104026020016040519081016040528092919081815260200182805461082490615635565b801561086f5780601f106108465761010080835404028352916020019161086f565b820191905f5260205f20905b81548152906001019060200180831161085257829003601f168201915b5050505050905090565b5f336108868185856138b2565b60019150505b92915050565b61089a6138bf565b6127108211156108d95760405162461bcd60e51b8152602060048201526005602482015264216466656560d81b60448201526064015b60405180910390fd5b6127108111156109135760405162461bcd60e51b8152602060048201526005602482015264217766656560d81b60448201526064016108d0565b600e91909155600f55565b6109266138bf565b6127108111156109615760405162461bcd60e51b81526004016108d090602080825260049082015263021534c560e41b604082015260600190565b601055565b5f336109738582856138eb565b61097e858585613960565b506001949350505050565b60606006805480602002602001604051908101604052809291908181526020015f905b82821015610a9f575f848152602090819020604080516080810182526004860290920180546001600160a01b03168352600181015493830193909352600283018054929392918401916109fe90615635565b80601f0160208091040260200160405190810160405280929190818152602001828054610a2a90615635565b8015610a755780601f10610a4c57610100808354040283529160200191610a75565b820191905f5260205f20905b815481529060010190602001808311610a5857829003601f168201915b50505091835250506003919091015462ffffff1660209182015290825260019290920191016109ac565b50505050905090565b610ab06139bd565b5f8111610acf5760405162461bcd60e51b81526004016108d09061566d565b6040516370a0823160e01b8152336004820152819030906370a0823190602401602060405180830381865afa158015610b0a573d5f803e3d5ffd5b505050506040513d601f19601f82011682018060405250810190610b2e9190615689565b1015610b6c5760405162461bcd60e51b815260206004820152600d60248201526c08525b9cdd59999a58da595b9d609a1b60448201526064016108d0565b5f610b7660035490565b610b82836127106156b4565b610b8c91906156cb565b90505f81118015610b9f57506127108111155b610bd55760405162461bcd60e51b81526020600482015260076024820152660302631303030360cc1b60448201526064016108d0565b600754604080516315ab88c960e31b815290515f926001600160a01b03169163ad5c46489160048083019260209291908290030181865afa158015610c1c573d5f803e3d5ffd5b505050506040513d601f19601f82011682018060405250810190610c4091906156ea565b90505f805f5b600654811015610dff575f60068281548110610c6457610c64615705565b5f9182526020822060049182020180546040516370a0823160e01b815230938101939093529093506127109189916001600160a01b0316906370a0823190602401602060405180830381865afa158015610cc0573d5f803e3d5ffd5b505050506040513d601f19601f82011682018060405250810190610ce49190615689565b610cee91906156b4565b610cf891906156cb565b8254600384015460405163e7ae65ab60e01b81529293505f92309263e7ae65ab92610d40926001600160a01b0390921691879160028a019162ffffff90911690600401615719565b6020604051808303815f875af1158015610d5c573d5f803e3d5ffd5b505050506040513d601f19601f82011682018060405250810190610d809190615689565b9050604051602001610d91906157c2565b6040516020818303038152906040528051906020012083600201604051602001610dbb91906157d0565b6040516020818303038152906040528051906020012003610de757610de08186615841565b9450610df4565b610df18187615841565b95505b505050600101610c46565b50610e0a33866139e7565b8015610ec3575f612710600f5483610e2291906156b4565b610e2c91906156cb565b90505f610e398284615854565b90508160125f828254610e4c9190615841565b909155505060405163a9059cbb60e01b8152336004820152602481018290526001600160a01b0386169063a9059cbb906044016020604051808303815f875af1158015610e9b573d5f803e3d5ffd5b505050506040513d601f19601f82011682018060405250810190610ebf9190615867565b5050505b8115610fb8575f612710600f5484610edb91906156b4565b610ee591906156cb565b90505f610ef28285615854565b90508160115f828254610f059190615841565b9091555050335f908152600d602052604081205490610f248383615841565b6040519091505f90339083908381818185875af1925050503d805f8114610f66576040519150601f19603f3d011682016040523d82523d5f602084013e610f6b565b606091505b5050905080610fb25760405162461bcd60e51b8152602060048201526013602482015272115512081d1c985b9cd9995c8819985a5b1959606a1b60448201526064016108d0565b50505050505b5050505050565b610fc76139bd565b5f8111610fe65760405162461bcd60e51b81526004016108d09061566d565b6040516370a0823160e01b8152336004820152819030906370a0823190602401602060405180830381865afa158015611021573d5f803e3d5ffd5b505050506040513d601f19601f820116820180604052508101906110459190615689565b10156110825760405162461bcd60e51b815260206004820152600c60248201526b125b9cdd59999a58da595b9d60a21b60448201526064016108d0565b5f61108c60035490565b611098836127106156b4565b6110a291906156cb565b90505f811180156110b557506127108111155b6110eb5760405162461bcd60e51b81526020600482015260076024820152660302631303030360cc1b60448201526064016108d0565b5f5b60065481101561167f575f6006828154811061110b5761110b615705565b5f9182526020822060049182020180546040516370a0823160e01b815230938101939093529093506127109186916001600160a01b0316906370a0823190602401602060405180830381865afa158015611167573d5f803e3d5ffd5b505050506040513d601f19601f8201168201806040525081019061118b9190615689565b61119591906156b4565b61119f91906156cb565b90505f612710600f54836111b391906156b4565b6111bd91906156cb565b90505f6111ca8284615854565b845460405163a9059cbb60e01b8152336004820152602481018390529192506001600160a01b03169063a9059cbb906044016020604051808303815f875af1158015611218573d5f803e3d5ffd5b505050506040513d601f19601f8201168201806040525081019061123c9190615867565b5060405160200161124c90615882565b604051602081830303815290604052805190602001208460020160405160200161127691906157d0565b604051602081830303815290604052805190602001200361145e576040805160028082526060820183525f926020830190803683375050865482519293506001600160a01b0316918391505f906112cf576112cf615705565b6001600160a01b03928316602091820292909201810191909152600754604080516315ab88c960e31b81529051919093169263ad5c46489260048083019391928290030181865afa158015611326573d5f803e3d5ffd5b505050506040513d601f19601f8201168201806040525081019061134a91906156ea565b8160018151811061135d5761135d615705565b6001600160a01b03928316602091820292909201015260075460405163d06ca61f60e01b81525f92919091169063d06ca61f906113a090879086906004016158d3565b5f60405180830381865afa1580156113ba573d5f803e3d5ffd5b505050506040513d5f823e601f3d908101601f191682016040526113e191908101906158eb565b90505f6127106010546127106113f79190615854565b8360018151811061140a5761140a615705565b602002602001015161141c91906156b4565b61142691906156cb565b8754909150611440906001600160a01b0316868330613a1b565b60115f8282546114509190615841565b9091555061166f9350505050565b60405160200161146d906157c2565b604051602081830303815290604052805190602001208460020160405160200161149791906157d0565b60405160208183030381529060405280519060200120036116275783546003850154600754604080516315ab88c960e31b815290515f946001600160a01b039081169462ffffff1693169163ad5c46489160048083019260209291908290030181865afa15801561150a573d5f803e3d5ffd5b505050506040513d601f19601f8201168201806040525081019061152e91906156ea565b60405160200161154093929190615971565b60408051601f198184030181529082905260095463cdca175360e01b83529092505f916001600160a01b039091169063cdca17539061158590859088906004016159ac565b6020604051808303815f875af11580156115a1573d5f803e3d5ffd5b505050506040513d601f19601f820116820180604052508101906115c59190615689565b90505f6127106010546127106115db9190615854565b6115e590846156b4565b6115ef91906156cb565b87546003890154919250611617916001600160a01b0390911690879062ffffff168430613c06565b60125f8282546114509190615841565b60405162461bcd60e51b815260206004820152601760248201527f496e76616c696420556e69737761702076657273696f6e00000000000000000060448201526064016108d0565b5050600190920191506110ed9050565b5061168a33836139e7565b335f908152600d6020526040812054612710906116a89084906156b4565b6116b291906156cb565b9050808015611735576040515f90339083908381818185875af1925050503d805f81146116fa576040519150601f19603f3d011682016040523d82523d5f602084013e6116ff565b606091505b5050905080610fb85760405162461bcd60e51b81526020600482015260026024820152612a2960f11b60448201526064016108d0565b50505050565b6006818154811061174a575f80fd5b5f9182526020909120600490910201805460018201546002830180546001600160a01b03909316945090929161177f90615635565b80601f01602080910402602001604051908101604052809291908181526020018280546117ab90615635565b80156117f65780601f106117cd576101008083540402835291602001916117f6565b820191905f5260205f20905b8154815290600101906020018083116117d957829003601f168201915b5050506003909301549192505062ffffff1684565b600b818154811061181a575f80fd5b5f91825260209091206005909102018054600182015460028301546003840180546001600160a01b03948516965092909316939092909161185a90615635565b80601f016020809104026020016040519081016040528092919081815260200182805461188690615635565b80156118d15780601f106118a8576101008083540402835291602001916118d1565b820191905f5260205f20905b8154815290600101906020018083116118b457829003601f168201915b5050506004909301549192505062ffffff1685565b6040516020016118f590615882565b604051602081830303815290604052805190602001208260405160200161191c91906159cd565b6040516020818303038152906040528051906020012003611ae7576040805160028082526060820183525f926020830190803683375050600754604080516315ab88c960e31b815290519394506001600160a01b039091169263ad5c4648925060048083019260209291908290030181865afa15801561199e573d5f803e3d5ffd5b505050506040513d601f19601f820116820180604052508101906119c291906156ea565b815f815181106119d4576119d4615705565b60200260200101906001600160a01b031690816001600160a01b0316815250508481600181518110611a0857611a08615705565b6001600160a01b03928316602091820292909201015260075460405163d06ca61f60e01b81525f92919091169063d06ca61f90611a4b90889086906004016158d3565b5f60405180830381865afa158015611a65573d5f803e3d5ffd5b505050506040513d5f823e601f3d908101601f19168201604052611a8c91908101906158eb565b90505f612710601054612710611aa29190615854565b83600181518110611ab557611ab5615705565b6020026020010151611ac791906156b4565b611ad191906156cb565b9050611ade878783613dc5565b50505050611735565b604051602001611af6906157c2565b6040516020818303038152906040528051906020012082604051602001611b1d91906159cd565b6040516020818303038152906040528051906020012003611c7c57600754604080516315ab88c960e31b815290515f926001600160a01b03169163ad5c46489160048083019260209291908290030181865afa158015611b7f573d5f803e3d5ffd5b505050506040513d601f19601f82011682018060405250810190611ba391906156ea565b8286604051602001611bb793929190615971565b60408051601f198184030181529082905260095463cdca175360e01b83529092505f916001600160a01b039091169063cdca175390611bfc90859089906004016159ac565b6020604051808303815f875af1158015611c18573d5f803e3d5ffd5b505050506040513d601f19601f82011682018060405250810190611c3c9190615689565b90505f612710601054612710611c529190615854565b611c5c90846156b4565b611c6691906156cb565b9050611c7487878684613f22565b505050611735565b60405162461bcd60e51b815260206004820152600360248201526210aaab60e91b60448201526064016108d0565b611cb26138bf565b5f5b600b5481101561200457816001600160a01b0316600b8281548110611cdb57611cdb615705565b5f9182526020909120600590910201546001600160a01b031603611ffc575f600b8281548110611d0d57611d0d615705565b5f9182526020918290206040805160a081018252600590930290910180546001600160a01b03908116845260018201541693830193909352600283015490820152600382018054919291606084019190611d6690615635565b80601f0160208091040260200160405190810160405280929190818152602001828054611d9290615635565b8015611ddd5780601f10611db457610100808354040283529160200191611ddd565b820191905f5260205f20905b815481529060010190602001808311611dc057829003601f168201915b505050918352505060049182015462ffffff1660209182015260408084015191840151606085015160808601519251631ce07ae960e11b815295965030956339c0f5d295611e30948693929091016151a2565b5f604051808303818588803b158015611e47575f80fd5b505af193505050508015611e59575060015b611fc8576040805160a0810182523381526020838101516001600160a01b039081169183019182528484015193830193845260608086015190840190815260808087015162ffffff1690850152600b80546001810182555f91909152845160059091027f0175b7a638427703f0dbe7bb9bbf987a2551717b34e79f33b5b1008d1fa01db9810180549285166001600160a01b031993841617815594517f0175b7a638427703f0dbe7bb9bbf987a2551717b34e79f33b5b1008d1fa01dba820180549190951692169190911790925593517f0175b7a638427703f0dbe7bb9bbf987a2551717b34e79f33b5b1008d1fa01dbb8201559251919290917f0175b7a638427703f0dbe7bb9bbf987a2551717b34e79f33b5b1008d1fa01dbc90910190611f829082615a27565b50608091909101516004909101805462ffffff191662ffffff909216919091179055335f908152600c60205260408120805491611fbe83615ae4565b9190505550611ffa565b611fd182614054565b6001600160a01b0383165f908152600c60205260408120805491611ff483615afc565b91905055505b505b600101611cb4565b5050565b6120106138bf565b6001600160a01b03919091165f908152600a60205260409020805460ff1916911515919091179055565b60065481515f911461207e5760405162461bcd60e51b815260206004820152600d60248201526c042e0e4d2c6cae6d8cadccee8d609b1b60448201526064016108d0565b5f805b60065481101561215f575f6006828154811061209f5761209f615705565b5f9182526020822060049182020180546040516370a0823160e01b815230938101939093529093506001600160a01b0316906370a0823190602401602060405180830381865afa1580156120f5573d5f803e3d5ffd5b505050506040513d601f19601f820116820180604052508101906121199190615689565b90505f86848151811061212e5761212e615705565b60200260200101519050808261214491906156b4565b61214e9086615841565b945050600190920191506120819050565b5092915050565b61216e6138bf565b868514801561217c57508683145b801561218757508681145b6121c25760405162461bcd60e51b815260206004820152600c60248201526b214d6973736c656e6774687360a01b60448201526064016108d0565b5f5b87811015612393576127108787838181106121e1576121e1615705565b9050602002013511156122245760405162461bcd60e51b815260206004820152600b60248201526a2170657263656e7461676560a81b60448201526064016108d0565b600660405180608001604052808b8b8581811061224357612243615705565b905060200201602081019061225891906151de565b6001600160a01b0316815260200189898581811061227857612278615705565b90506020020135815260200187878581811061229657612296615705565b90506020028101906122a89190615b11565b8080601f0160208091040260200160405190810160405280939291908181526020018383808284375f920191909152505050908252506020018585858181106122f3576122f3615705565b90506020020160208101906123089190615b53565b62ffffff1690528154600180820184555f938452602093849020835160049093020180546001600160a01b0319166001600160a01b039093169290921782559282015192810192909255604081015190919060028201906123699082615a27565b50606091909101516003909101805462ffffff191662ffffff9092169190911790556001016121c4565b505050505050505050565b6123a66138bf565b6123af5f6141b0565b565b6123b96138bf565b6123c16139bd565b6006548151146123f95760405162461bcd60e51b815260206004820152600360248201526208541360ea1b60448201526064016108d0565b5f6124038261203a565b90505f811161243c5760405162461bcd60e51b815260206004820152600560248201526407476213d360dc1b60448201526064016108d0565b5f5b60065481101561280e575f6006828154811061245c5761245c615705565b5f9182526020822060049182020180546040516370a0823160e01b815230938101939093529093506001600160a01b0316906370a0823190602401602060405180830381865afa1580156124b2573d5f803e3d5ffd5b505050506040513d601f19601f820116820180604052508101906124d69190615689565b8584815181106124e8576124e8615705565b60200260200101516124fa91906156b4565b90505f81116125345760405162461bcd60e51b81526004016108d090602080825260049082015263063703e360e41b604082015260600190565b5f84612542836127106156b4565b61254c91906156cb565b905082600101548111156126a0575f83600101548261256b9190615854565b90505f61271061257b88846156b4565b61258591906156cb565b90505f88878151811061259a5761259a615705565b6020026020010151826125ad91906156cb565b90505f81116125ea5760405162461bcd60e51b8152602060048201526009602482015268616d6f756e743e305360b81b60448201526064016108d0565b8554600287018054612697926001600160a01b031691849161260b90615635565b80601f016020809104026020016040519081016040528092919081815260200182805461263790615635565b80156126825780601f1061265957610100808354040283529160200191612682565b820191905f5260205f20905b81548152906001019060200180831161266557829003601f168201915b5050505060038b015462ffffff1690506141ff565b50505050612803565b8260010154811015612803575f8184600101546126bd9190615854565b90505f6127106126cd88846156b4565b6126d791906156cb565b90505f8887815181106126ec576126ec615705565b6020026020010151826126ff91906156cb565b90505f811161273c5760405162461bcd60e51b815260206004820152600960248201526830b6b7bab73a1f182160b91b60448201526064016108d0565b5f601354118061274d57505f601454115b156127ff5785546002870180546127ff926001600160a01b031691849161277390615635565b80601f016020809104026020016040519081016040528092919081815260200182805461279f90615635565b80156127ea5780601f106127c1576101008083540402835291602001916127ea565b820191905f5260205f20905b8154815290600101906020018083116127cd57829003601f168201915b5050505060038b015462ffffff169050614732565b5050505b50505060010161243e565b505050565b6001600160a01b0381165f908152600c6020526040812054606091906001600160401b0381111561284657612846615242565b60405190808252806020026020018201604052801561289c57816020015b6040805160a0810182525f8082526020808301829052928201819052606080830152608082015282525f199092019101816128645790505b5090505f805b600b54811015612a1a57846001600160a01b0316600b82815481106128c9576128c9615705565b5f9182526020909120600590910201546001600160a01b031603612a1257600b81815481106128fa576128fa615705565b5f9182526020918290206040805160a081018252600590930290910180546001600160a01b0390811684526001820154169383019390935260028301549082015260038201805491929160608401919061295390615635565b80601f016020809104026020016040519081016040528092919081815260200182805461297f90615635565b80156129ca5780601f106129a1576101008083540402835291602001916129ca565b820191905f5260205f20905b8154815290600101906020018083116129ad57829003601f168201915b50505091835250506004919091015462ffffff1660209091015283518490849081106129f8576129f8615705565b60200260200101819052508180612a0e90615ae4565b9250505b6001016128a2565b50909392505050565b6060600580546107f890615635565b612a3a6138bf565b60115415612ad3576011546040515f916001600160a01b038416918381818185875af1925050503d805f8114612a8b576040519150601f19603f3d011682016040523d82523d5f602084013e612a90565b606091505b5050905080612acd5760405162461bcd60e51b815260206004820152600960248201526808c8292988a888aa8960bb1b60448201526064016108d0565b505f6011555b60125415612bc457600754604080516315ab88c960e31b815290515f926001600160a01b03169163ad5c46489160048083019260209291908290030181865afa158015612b22573d5f803e3d5ffd5b505050506040513d601f19601f82011682018060405250810190612b4691906156ea565b60125460405163a9059cbb60e01b81526001600160a01b038581166004830152602482019290925291925082169063a9059cbb906044016020604051808303815f875af1158015612b99573d5f803e3d5ffd5b505050506040513d601f19601f82011682018060405250810190612bbd9190615867565b50505f6012555b50565b5f33610886818585613960565b335f908152600a602052604090205460ff16612c1b5760405162461bcd60e51b81526004016108d0906020808252600490820152630855d21560e21b604082015260600190565b612c236139bd565b5f3411612c585760405162461bcd60e51b8152602060048201526003602482015262414d4760e81b60448201526064016108d0565b5f612710600e5434612c6a91906156b4565b612c7491906156cb565b90505f612c818234615854565b90508160115f828254612c949190615841565b909155505080612cf95760405162461bcd60e51b815260206004820152602a60248201527f416d6f756e7420616674657220666565206d7573742062652067726561746572604482015269207468616e207a65726f60b01b60648201526084016108d0565b612d033382614d96565b5f5b60065481101561280e575f60068281548110612d2357612d23615705565b905f5260205f20906004020190505f612710826001015485612d4591906156b4565b612d4f91906156cb565b905083811115612d955760405162461bcd60e51b815260206004820152601160248201527063616c4554483c3d616d6f756e7466656560781b60448201526064016108d0565b81546003830154604051631ce07ae960e11b815230926339c0f5d2928592612dd6926001600160a01b031691849160028a019162ffffff1690600401615719565b5f604051808303818588803b158015612ded575f80fd5b505af193505050508015612dff575060015b612f9f57335f908152600d602052604081208054839290612e21908490615841565b90915550506040805160a08101825233815283546001600160a01b03166020820152908101829052600283018054600b92916060830191612e6190615635565b80601f0160208091040260200160405190810160405280929190818152602001828054612e8d90615635565b8015612ed85780601f10612eaf57610100808354040283529160200191612ed8565b820191905f5260205f20905b815481529060010190602001808311612ebb57829003601f168201915b505050918352505060038581015462ffffff166020928301528354600180820186555f95865294839020845160059092020180546001600160a01b03199081166001600160a01b03938416178255938501519581018054909416959091169490941790915560408201516002840155606082015191929190820190612f5d9082615a27565b50608091909101516004909101805462ffffff191662ffffff909216919091179055335f908152600c60205260408120805491612f9983615ae4565b91905055505b5050600101612d05565b5f604051602001612fb990615882565b6040516020818303038152906040528051906020012083604051602001612fe091906159cd565b604051602081830303815290604052805190602001200361319d576040805160028082526060820183525f9260208301908036833701905050905085815f8151811061302e5761302e615705565b6001600160a01b03928316602091820292909201810191909152600754604080516315ab88c960e31b81529051919093169263ad5c46489260048083019391928290030181865afa158015613085573d5f803e3d5ffd5b505050506040513d601f19601f820116820180604052508101906130a991906156ea565b816001815181106130bc576130bc615705565b6001600160a01b03928316602091820292909201015260075460405163d06ca61f60e01b81525f92919091169063d06ca61f906130ff90899086906004016158d3565b5f60405180830381865afa158015613119573d5f803e3d5ffd5b505050506040513d5f823e601f3d908101601f1916820160405261314091908101906158eb565b90505f6127106010546127106131569190615854565b8360018151811061316957613169615705565b602002602001015161317b91906156b4565b61318591906156cb565b905061319388888330613a1b565b9350505050613335565b6040516020016131ac906157c2565b60405160208183030381529060405280519060200120836040516020016131d391906159cd565b6040516020818303038152906040528051906020012003611c7c575f858360075f9054906101000a90046001600160a01b03166001600160a01b031663ad5c46486040518163ffffffff1660e01b8152600401602060405180830381865afa158015613241573d5f803e3d5ffd5b505050506040513d601f19601f8201168201806040525081019061326591906156ea565b60405160200161327793929190615971565b60408051601f198184030181529082905260095463cdca175360e01b83529092505f916001600160a01b039091169063cdca1753906132bc9085908a906004016159ac565b6020604051808303815f875af11580156132d8573d5f803e3d5ffd5b505050506040513d601f19601f820116820180604052508101906132fc9190615689565b90505f6127106010546127106133129190615854565b61331c90846156b4565b61332691906156cb565b90506131938888878430613c06565b949350505050565b6133456138bf565b6001600160a01b03811661336e57604051631e4fbdf760e01b81525f60048201526024016108d0565b612bc4816141b0565b61337f6138bf565b5f805b60065481101561382a575f600682815481106133a0576133a0615705565b5f9182526020822060049182020180546040516370a0823160e01b815230938101939093529093506001600160a01b0316906370a0823190602401602060405180830381865afa1580156133f6573d5f803e3d5ffd5b505050506040513d601f19601f8201168201806040525081019061341a9190615689565b905060405160200161342b90615882565b604051602081830303815290604052805190602001208260020160405160200161345591906157d0565b6040516020818303038152906040528051906020012003613633576040805160028082526060820183525f926020830190803683375050845482519293506001600160a01b0316918391505f906134ae576134ae615705565b6001600160a01b03928316602091820292909201810191909152600754604080516315ab88c960e31b81529051919093169263ad5c46489260048083019391928290030181865afa158015613505573d5f803e3d5ffd5b505050506040513d601f19601f8201168201806040525081019061352991906156ea565b8160018151811061353c5761353c615705565b6001600160a01b03928316602091820292909201015260075460405163d06ca61f60e01b81525f92919091169063d06ca61f9061357f90869086906004016158d3565b5f60405180830381865afa158015613599573d5f803e3d5ffd5b505050506040513d5f823e601f3d908101601f191682016040526135c091908101906158eb565b90505f6127106010546127106135d69190615854565b836001815181106135e9576135e9615705565b60200260200101516135fb91906156b4565b61360591906156cb565b855490915061361f906001600160a01b0316858333613a1b565b6136299088615841565b9650505050613820565b604051602001613642906157c2565b604051602081830303815290604052805190602001208260020160405160200161366c91906157d0565b60405160208183030381529060405280519060200120036137ec5781546003830154600754604080516315ab88c960e31b815290515f946001600160a01b039081169462ffffff1693169163ad5c46489160048083019260209291908290030181865afa1580156136df573d5f803e3d5ffd5b505050506040513d601f19601f8201168201806040525081019061370391906156ea565b60405160200161371593929190615971565b60408051601f198184030181529082905260095463cdca175360e01b83529092505f916001600160a01b039091169063cdca17539061375a90859087906004016159ac565b6020604051808303815f875af1158015613776573d5f803e3d5ffd5b505050506040513d601f19601f8201168201806040525081019061379a9190615689565b90505f6127106010546127106137b09190615854565b6137ba90846156b4565b6137c491906156cb565b8554600387015491925061361f916001600160a01b0390911690869062ffffff168433613c06565b60405162461bcd60e51b8152602060048201526009602482015268496e76616c6964565360b81b60448201526064016108d0565b5050600101613382565b508015612bc4576040515f90339083908381818185875af1925050503d805f8114613870576040519150601f19603f3d011682016040523d82523d5f602084013e613875565b606091505b50509050806120045760405162461bcd60e51b815260206004820152600960248201526808c8292988a888aa8960bb1b60448201526064016108d0565b61280e8383836001614dca565b5f546001600160a01b031633146123af5760405163118cdaa760e01b81523360048201526024016108d0565b6001600160a01b038381165f908152600260209081526040808320938616835292905220545f198114611735578181101561395257604051637dc7a0d960e11b81526001600160a01b038416600482015260248101829052604481018390526064016108d0565b61173584848484035f614dca565b6001600160a01b03831661398957604051634b637e8f60e11b81525f60048201526024016108d0565b6001600160a01b0382166139b25760405163ec442f0560e01b81525f60048201526024016108d0565b61280e838383614e9c565b5f54600160a01b900460ff16156123af5760405163d93c066560e01b815260040160405180910390fd5b6001600160a01b038216613a1057604051634b637e8f60e11b81525f60048201526024016108d0565b612004825f83614e9c565b6040805160028082526060820183525f928392919060208301908036833701905050905085815f81518110613a5257613a52615705565b6001600160a01b03928316602091820292909201810191909152600754604080516315ab88c960e31b81529051919093169263ad5c46489260048083019391928290030181865afa158015613aa9573d5f803e3d5ffd5b505050506040513d601f19601f82011682018060405250810190613acd91906156ea565b81600181518110613ae057613ae0615705565b6001600160a01b03928316602091820292909201015260075460405163095ea7b360e01b81529082166004820152602481018790529087169063095ea7b3906044016020604051808303815f875af1158015613b3e573d5f803e3d5ffd5b505050506040513d601f19601f82011682018060405250810190613b629190615867565b506007546040516318cbafe560e01b81525f916001600160a01b0316906318cbafe590613b9b908990899087908a904290600401615b6c565b5f604051808303815f875af1158015613bb6573d5f803e3d5ffd5b505050506040513d5f823e601f3d908101601f19168201604052613bdd91908101906158eb565b905080600181518110613bf257613bf2615705565b602002602001015192505050949350505050565b5f80604051806101000160405280886001600160a01b0316815260200160075f9054906101000a90046001600160a01b03166001600160a01b031663ad5c46486040518163ffffffff1660e01b8152600401602060405180830381865afa158015613c73573d5f803e3d5ffd5b505050506040513d601f19601f82011682018060405250810190613c9791906156ea565b6001600160a01b03908116825262ffffff88166020830152858116604080840191909152426060840152608083018a905260a083018890525f60c090930192909252600854915163095ea7b360e01b81529181166004830152602482018990529192509088169063095ea7b3906044016020604051808303815f875af1158015613d23573d5f803e3d5ffd5b505050506040513d601f19601f82011682018060405250810190613d479190615867565b5060085460405163414bf38960e01b81526001600160a01b039091169063414bf38990613d78908490600401615ba7565b6020604051808303815f875af1158015613d94573d5f803e3d5ffd5b505050506040513d601f19601f82011682018060405250810190613db89190615689565b9150505b95945050505050565b60408051600280825260608083018452925f9291906020830190803683375050600754604080516315ab88c960e31b815290519394506001600160a01b039091169263ad5c4648925060048083019260209291908290030181865afa158015613e30573d5f803e3d5ffd5b505050506040513d601f19601f82011682018060405250810190613e5491906156ea565b815f81518110613e6657613e66615705565b60200260200101906001600160a01b031690816001600160a01b0316815250508481600181518110613e9a57613e9a615705565b6001600160a01b039283166020918202929092010152600754604051637ff36ab560e01b8152911690637ff36ab5908690613edf908790869030904290600401615c1d565b5f6040518083038185885af1158015613efa573d5f803e3d5ffd5b50505050506040513d5f823e601f3d908101601f19168201604052613dbc91908101906158eb565b6040805161010081018083526007546315ab88c960e31b90915291515f9282916001600160a01b039091169063ad5c464890610104808501916020918187030181865afa158015613f75573d5f803e3d5ffd5b505050506040513d601f19601f82011682018060405250810190613f9991906156ea565b6001600160a01b039081168252878116602083015262ffffff861660408084019190915230606084015242608084015260a0830188905260c083018690525f60e090930192909252600854915163414bf38960e01b8152929350169063414bf38990869061400b908590600401615ba7565b60206040518083038185885af1158015614027573d5f803e3d5ffd5b50505050506040513d601f19601f8201168201806040525081019061404c9190615689565b505050505050565b600b54811061408e5760405162461bcd60e51b8152602060048201526006602482015265042d2dcc8caf60d31b60448201526064016108d0565b600b805461409e90600190615854565b815481106140ae576140ae615705565b905f5260205f209060050201600b82815481106140cd576140cd615705565b5f9182526020909120825460059092020180546001600160a01b039283166001600160a01b03199182161782556001808501549083018054919094169116179091556002808301549082015560038082019061412b90840182615c51565b506004918201549101805462ffffff191662ffffff909216919091179055600b80548061415a5761415a615d1d565b5f8281526020812060055f199093019283020180546001600160a01b031990811682556001820180549091169055600281018290559061419d6003830182614fc2565b50600401805462ffffff19169055905550565b5f80546001600160a01b038381166001600160a01b0319831681178455604051919092169283917f8be0079c531659141344cd1fd0a4f28419497f9722a3daafe3b4186f6b6457e09190a35050565b5f80841161421f5760405162461bcd60e51b81526004016108d09061566d565b6001600160a01b0385166142605760405162461bcd60e51b8152602060048201526008602482015267216164647265737360c01b60448201526064016108d0565b5f8351116142995760405162461bcd60e51b815260206004820152600660248201526521656d70747960d01b60448201526064016108d0565b6040516020016142a890615882565b60405160208183030381529060405280519060200120836040516020016142cf91906159cd565b6040516020818303038152906040528051906020012003614518576040805160028082526060820183525f9260208301908036833701905050905085815f8151811061431d5761431d615705565b6001600160a01b03928316602091820292909201810191909152600754604080516315ab88c960e31b81529051919093169263ad5c46489260048083019391928290030181865afa158015614374573d5f803e3d5ffd5b505050506040513d601f19601f8201168201806040525081019061439891906156ea565b816001815181106143ab576143ab615705565b6001600160a01b03928316602091820292909201015260075460405163d06ca61f60e01b81525f92919091169063d06ca61f906143ee90899086906004016158d3565b5f60405180830381865afa158015614408573d5f803e3d5ffd5b505050506040513d5f823e601f3d908101601f1916820160405261442f91908101906158eb565b905060028151101561446c5760405162461bcd60e51b815260206004820152600660248201526521455850414d60d01b60448201526064016108d0565b5f6127106010546127106144809190615854565b8360018151811061449357614493615705565b60200260200101516144a591906156b4565b6144af91906156cb565b90506144bd88888330613a1b565b9350808410156144f95760405162461bcd60e51b81526020600482015260076024820152660f185b5bdd5b9d60ca1b60448201526064016108d0565b8360135f82825461450a9190615841565b909155506133359350505050565b604051602001614527906157c2565b604051602081830303815290604052805190602001208360405160200161454e91906159cd565b6040516020818303038152906040528051906020012003611c7c575f858360075f9054906101000a90046001600160a01b03166001600160a01b031663ad5c46486040518163ffffffff1660e01b8152600401602060405180830381865afa1580156145bc573d5f803e3d5ffd5b505050506040513d601f19601f820116820180604052508101906145e091906156ea565b6040516020016145f293929190615971565b60408051601f198184030181529082905260095463cdca175360e01b83529092505f916001600160a01b039091169063cdca1753906146379085908a906004016159ac565b6020604051808303815f875af1158015614653573d5f803e3d5ffd5b505050506040513d601f19601f820116820180604052508101906146779190615689565b90505f81116146b05760405162461bcd60e51b815260206004820152600560248201526406d696e3e360dc1b60448201526064016108d0565b5f6127106010546127106146c49190615854565b6146ce90846156b4565b6146d891906156cb565b90506146e78888878430613c06565b9350808410156147215760405162461bcd60e51b815260206004820152600560248201526406d696e3e360dc1b60448201526064016108d0565b8360145f82825461450a9190615841565b60405160200161474190615882565b604051602081830303815290604052805190602001208260405160200161476891906159cd565b6040516020818303038152906040528051906020012003614ad7576040805160028082526060820183525f926020830190803683375050600754604080516315ab88c960e31b815290519394506001600160a01b039091169263ad5c4648925060048083019260209291908290030181865afa1580156147ea573d5f803e3d5ffd5b505050506040513d601f19601f8201168201806040525081019061480e91906156ea565b815f8151811061482057614820615705565b60200260200101906001600160a01b031690816001600160a01b031681525050848160018151811061485457614854615705565b6001600160a01b0392831660209182029290920101526007546040516307c0329d60e21b81525f929190911690631f00ca749061489790889086906004016158d3565b5f60405180830381865afa1580156148b1573d5f803e3d5ffd5b505050506040513d5f823e601f3d908101601f191682016040526148d891908101906158eb565b9050806001815181106148ed576148ed615705565b60200260200101516013541115614a035760075481515f916001600160a01b03169063d06ca61f908490600190811061492857614928615705565b6020026020010151856040518363ffffffff1660e01b815260040161494e9291906158d3565b5f60405180830381865afa158015614968573d5f803e3d5ffd5b505050506040513d5f823e601f3d908101601f1916820160405261498f91908101906158eb565b90505f6127106010546127106149a59190615854565b836001815181106149b8576149b8615705565b60200260200101516149ca91906156b4565b6149d491906156cb565b90506149fb88846001815181106149ed576149ed615705565b602002602001015183613dc5565b505050614ad0565b60075460135460405163d06ca61f60e01b81525f926001600160a01b03169163d06ca61f91614a37919087906004016158d3565b5f60405180830381865afa158015614a51573d5f803e3d5ffd5b505050506040513d5f823e601f3d908101601f19168201604052614a7891908101906158eb565b90505f612710601054612710614a8e9190615854565b83600181518110614aa157614aa1615705565b6020026020010151614ab391906156b4565b614abd91906156cb565b9050614acc8860135483613dc5565b5050505b5050611735565b604051602001614ae6906157c2565b6040516020818303038152906040528051906020012082604051602001614b0d91906159cd565b6040516020818303038152906040528051906020012003611c7c57600754604080516315ab88c960e31b815290515f926001600160a01b03169163ad5c46489160048083019260209291908290030181865afa158015614b6f573d5f803e3d5ffd5b505050506040513d601f19601f82011682018060405250810190614b9391906156ea565b8286604051602001614ba793929190615971565b60408051601f1981840301815290829052600954632f80bb1d60e01b83529092505f916001600160a01b0390911690632f80bb1d90614bec90859089906004016159ac565b6020604051808303815f875af1158015614c08573d5f803e3d5ffd5b505050506040513d601f19601f82011682018060405250810190614c2c9190615689565b9050806014541115614ce95760095460405163cdca175360e01b81525f916001600160a01b03169063cdca175390614c6a90869086906004016159ac565b6020604051808303815f875af1158015614c86573d5f803e3d5ffd5b505050506040513d601f19601f82011682018060405250810190614caa9190615689565b90505f612710601054612710614cc09190615854565b614cca90846156b4565b614cd491906156cb565b9050614ce288848784613f22565b5050614ad0565b60095460145460405163cdca175360e01b81525f926001600160a01b03169163cdca175391614d1c9187916004016159ac565b6020604051808303815f875af1158015614d38573d5f803e3d5ffd5b505050506040513d601f19601f82011682018060405250810190614d5c9190615689565b90505f612710601054612710614d729190615854565b614d7c90846156b4565b614d8691906156cb565b9050611ade886014548784613f22565b6001600160a01b038216614dbf5760405163ec442f0560e01b81525f60048201526024016108d0565b6120045f8383614e9c565b6001600160a01b038416614df35760405163e602df0560e01b81525f60048201526024016108d0565b6001600160a01b038316614e1c57604051634a1406b160e11b81525f60048201526024016108d0565b6001600160a01b038085165f908152600260209081526040808320938716835292905220829055801561173557826001600160a01b0316846001600160a01b03167f8c5be1e5ebec7d5bd14f71427d1e84f3dd0314c0f7b2291e5b200ac8c7c3b92584604051614e8e91815260200190565b60405180910390a350505050565b6001600160a01b038316614ec6578060035f828254614ebb9190615841565b90915550614f369050565b6001600160a01b0383165f9081526001602052604090205481811015614f185760405163391434e360e21b81526001600160a01b038516600482015260248101829052604481018390526064016108d0565b6001600160a01b0384165f9081526001602052604090209082900390555b6001600160a01b038216614f5257600380548290039055614f70565b6001600160a01b0382165f9081526001602052604090208054820190555b816001600160a01b0316836001600160a01b03167fddf252ad1be2c89b69c2b068fc378daa952ba7f163c4a11628f55a4df523b3ef83604051614fb591815260200190565b60405180910390a3505050565b508054614fce90615635565b5f825580601f10614fdd575050565b601f0160209004905f5260205f2090810190612bc491905b80821115615008575f8155600101614ff5565b5090565b5f81518084528060208401602086015e5f602082860101526020601f19601f83011685010191505092915050565b602081525f61504c602083018461500c565b9392505050565b6001600160a01b0381168114612bc4575f80fd5b5f8060408385031215615078575f80fd5b823561508381615053565b946020939093013593505050565b5f80604083850312156150a2575f80fd5b50508035926020909101359150565b5f602082840312156150c1575f80fd5b5035919050565b5f805f606084860312156150da575f80fd5b83356150e581615053565b925060208401356150f581615053565b929592945050506040919091013590565b5f602082016020835280845180835260408501915060408160051b8601019250602086015f5b8281101561519657603f19878603018452815160018060a01b0381511686526020810151602087015260408101516080604088015261516e608088018261500c565b60609283015162ffffff1697909201969096529450602093840193919091019060010161512c565b50929695505050505050565b60018060a01b0385168152836020820152608060408201525f6151c8608083018561500c565b905062ffffff8316606083015295945050505050565b5f602082840312156151ee575f80fd5b813561504c81615053565b6001600160a01b038681168252851660208201526040810184905260a0606082018190525f9061522b9083018561500c565b905062ffffff831660808301529695505050505050565b634e487b7160e01b5f52604160045260245ffd5b604051601f8201601f191681016001600160401b038111828210171561527e5761527e615242565b604052919050565b803562ffffff81168114615298575f80fd5b919050565b5f805f80608085870312156152b0575f80fd5b84356152bb81615053565b93506020850135925060408501356001600160401b038111156152dc575f80fd5b8501601f810187136152ec575f80fd5b80356001600160401b0381111561530557615305615242565b615318601f8201601f1916602001615256565b81815288602083850101111561532c575f80fd5b816020840160208301375f6020838301015280945050505061535060608601615286565b905092959194509250565b8015158114612bc4575f80fd5b5f8060408385031215615379575f80fd5b823561538481615053565b915060208301356153948161535b565b809150509250929050565b5f6001600160401b038211156153b7576153b7615242565b5060051b60200190565b5f602082840312156153d1575f80fd5b81356001600160401b038111156153e6575f80fd5b8201601f810184136153f6575f80fd5b80356154096154048261539f565b615256565b8082825260208201915060208360051b85010192508683111561542a575f80fd5b6020840193505b8284101561544c578335825260209384019390910190615431565b9695505050505050565b5f8083601f840112615466575f80fd5b5081356001600160401b0381111561547c575f80fd5b6020830191508360208260051b8501011115615496575f80fd5b9250929050565b5f805f805f805f806080898b0312156154b4575f80fd5b88356001600160401b038111156154c9575f80fd5b6154d58b828c01615456565b90995097505060208901356001600160401b038111156154f3575f80fd5b6154ff8b828c01615456565b90975095505060408901356001600160401b0381111561551d575f80fd5b6155298b828c01615456565b90955093505060608901356001600160401b03811115615547575f80fd5b6155538b828c01615456565b999c989b5096995094979396929594505050565b5f602082016020835280845180835260408501915060408160051b8601019250602086015f5b8281101561519657603f19878603018452815160018060a01b03815116865260018060a01b03602082015116602087015260408101516040870152606081015160a060608801526155e160a088018261500c565b60809283015162ffffff1697909201969096529450602093840193919091019060010161558d565b5f806040838503121561561a575f80fd5b823561562581615053565b9150602083013561539481615053565b600181811c9082168061564957607f821691505b60208210810361566757634e487b7160e01b5f52602260045260245ffd5b50919050565b60208082526002908201526103e360f41b604082015260600190565b5f60208284031215615699575f80fd5b5051919050565b634e487b7160e01b5f52601160045260245ffd5b808202811582820484141761088c5761088c6156a0565b5f826156e557634e487b7160e01b5f52601260045260245ffd5b500490565b5f602082840312156156fa575f80fd5b815161504c81615053565b634e487b7160e01b5f52603260045260245ffd5b6001600160a01b0385168152602081018490526080604082015282545f90819061574281615635565b806080860152600182165f8114615760576001811461577c576157ad565b60ff19831660a087015260a082151560051b87010193506157ad565b875f5260205f205f5b838110156157a457815488820160a00152600190910190602001615785565b870160a0019450505b50505062ffffff841660608401529050613dbc565b61763360f01b815260020190565b5f8083546157dd81615635565b6001821680156157f4576001811461580957615836565b60ff1983168652811515820286019350615836565b865f5260205f205f5b8381101561582e57815488820152600190910190602001615812565b505081860193505b509195945050505050565b8082018082111561088c5761088c6156a0565b8181038181111561088c5761088c6156a0565b5f60208284031215615877575f80fd5b815161504c8161535b565b613b1960f11b815260020190565b5f8151808452602084019350602083015f5b828110156158c95781516001600160a01b03168652602095860195909101906001016158a2565b5093949350505050565b828152604060208201525f6133356040830184615890565b5f602082840312156158fb575f80fd5b81516001600160401b03811115615910575f80fd5b8201601f81018413615920575f80fd5b805161592e6154048261539f565b8082825260208201915060208360051b85010192508683111561594f575f80fd5b6020840193505b8284101561544c578351825260209384019390910190615956565b606093841b6bffffffffffffffffffffffff19908116825260e89390931b6001600160e81b0319166014820152921b166017820152602b0190565b604081525f6159be604083018561500c565b90508260208301529392505050565b5f82518060208501845e5f920191825250919050565b601f82111561280e57805f5260205f20601f840160051c81016020851015615a085750805b601f840160051c820191505b81811015610fb8575f8155600101615a14565b81516001600160401b03811115615a4057615a40615242565b615a5481615a4e8454615635565b846159e3565b6020601f821160018114615a89575f8315615a6f5750848201515b600184901b5f19600386901b1c198216175b855550610fb8565b5f84815260208120601f198516915b82811015615ab85787850151825560209485019460019092019101615a98565b5084821015615ad557868401515f19600387901b60f8161c191681555b50505050600190811b01905550565b5f60018201615af557615af56156a0565b5060010190565b5f81615b0a57615b0a6156a0565b505f190190565b5f808335601e19843603018112615b26575f80fd5b8301803591506001600160401b03821115615b3f575f80fd5b602001915036819003821315615496575f80fd5b5f60208284031215615b63575f80fd5b61504c82615286565b85815284602082015260a060408201525f615b8a60a0830186615890565b6001600160a01b0394909416606083015250608001529392505050565b81516001600160a01b03908116825260208084015182169083015260408084015162ffffff169083015260608084015191821690830152610100820190506080830151608083015260a083015160a083015260c083015160c083015260e083015161215f60e08401826001600160a01b03169052565b848152608060208201525f615c356080830186615890565b6001600160a01b03949094166040830152506060015292915050565b818103615c5c575050565b615c668254615635565b6001600160401b03811115615c7d57615c7d615242565b615c8b81615a4e8454615635565b5f601f821160018114615cba575f8315615a6f575081850154600184901b5f19600386901b1c19821617615a81565b5f8581526020808220868352908220601f198616925b83811015615cf05782860154825560019586019590910190602001615cd0565b5085831015615d0d57818501545f19600388901b60f8161c191681555b5050505050600190811b01905550565b634e487b7160e01b5f52603160045260245ffdfea26469706673582212202fb555980ac52b6345dd16d406fdfff5abe30e78a3ab63849a89903e292df50764736f6c634300081a0033",
			"opcodes": "PUSH1 0x80 PUSH1 0x40 MSTORE CALLVALUE DUP1 ISZERO PUSH2 0xF JUMPI PUSH0 DUP1 REVERT JUMPDEST POP PUSH1 0x40 MLOAD PUSH2 0x609A CODESIZE SUB DUP1 PUSH2 0x609A DUP4 CODECOPY DUP2 ADD PUSH1 0x40 DUP2 SWAP1 MSTORE PUSH2 0x2E SWAP2 PUSH2 0x194 JUMP JUMPDEST PUSH1 0x40 DUP1 MLOAD DUP1 DUP3 ADD DUP3 MSTORE PUSH1 0x7 DUP2 MSTORE PUSH7 0xA0B28E8E8AA89 PUSH1 0xCB SHL PUSH1 0x20 DUP1 DUP4 ADD SWAP2 SWAP1 SWAP2 MSTORE DUP3 MLOAD DUP1 DUP5 ADD SWAP1 SWAP4 MSTORE PUSH1 0x4 DUP4 MSTORE PUSH4 0xA08AA89 PUSH1 0xE3 SHL SWAP1 DUP4 ADD MSTORE SWAP1 CALLER DUP1 PUSH2 0x8D JUMPI PUSH1 0x40 MLOAD PUSH4 0x1E4FBDF7 PUSH1 0xE0 SHL DUP2 MSTORE PUSH0 PUSH1 0x4 DUP3 ADD MSTORE PUSH1 0x24 ADD PUSH1 0x40 MLOAD DUP1 SWAP2 SUB SWAP1 REVERT JUMPDEST PUSH2 0x96 DUP2 PUSH2 0x12A JUMP JUMPDEST POP PUSH0 DUP1 SLOAD PUSH1 0xFF PUSH1 0xA0 SHL NOT AND SWAP1 SSTORE PUSH1 0x4 PUSH2 0xAF DUP4 DUP3 PUSH2 0x26C JUMP JUMPDEST POP PUSH1 0x5 PUSH2 0xBC DUP3 DUP3 PUSH2 0x26C JUMP JUMPDEST POP POP PUSH1 0x7 DUP1 SLOAD PUSH1 0x1 PUSH1 0x1 PUSH1 0xA0 SHL SUB SWAP6 DUP7 AND PUSH1 0x1 PUSH1 0x1 PUSH1 0xA0 SHL SUB NOT SWAP2 DUP3 AND OR SWAP1 SWAP2 SSTORE PUSH1 0x8 DUP1 SLOAD SWAP5 DUP7 AND SWAP5 DUP3 AND SWAP5 SWAP1 SWAP5 OR SWAP1 SWAP4 SSTORE POP PUSH1 0x9 DUP1 SLOAD SWAP2 SWAP1 SWAP4 AND SWAP2 AND OR SWAP1 SSTORE CALLER PUSH0 SWAP1 DUP2 MSTORE PUSH1 0xA PUSH1 0x20 MSTORE PUSH1 0x40 SWAP1 KECCAK256 DUP1 SLOAD PUSH1 0xFF NOT AND PUSH1 0x1 OR SWAP1 SSTORE PUSH2 0x3E8 PUSH1 0x10 SSTORE PUSH1 0x64 PUSH1 0xF DUP2 SWAP1 SSTORE PUSH1 0xE SSTORE PUSH2 0x326 JUMP JUMPDEST PUSH0 DUP1 SLOAD PUSH1 0x1 PUSH1 0x1 PUSH1 0xA0 SHL SUB DUP4 DUP2 AND PUSH1 0x1 PUSH1 0x1 PUSH1 0xA0 SHL SUB NOT DUP4 AND DUP2 OR DUP5 SSTORE PUSH1 0x40 MLOAD SWAP2 SWAP1 SWAP3 AND SWAP3 DUP4 SWAP2 PUSH32 0x8BE0079C531659141344CD1FD0A4F28419497F9722A3DAAFE3B4186F6B6457E0 SWAP2 SWAP1 LOG3 POP POP JUMP JUMPDEST DUP1 MLOAD PUSH1 0x1 PUSH1 0x1 PUSH1 0xA0 SHL SUB DUP2 AND DUP2 EQ PUSH2 0x18F JUMPI PUSH0 DUP1 REVERT JUMPDEST SWAP2 SWAP1 POP JUMP JUMPDEST PUSH0 DUP1 PUSH0 PUSH1 0x60 DUP5 DUP7 SUB SLT ISZERO PUSH2 0x1A6 JUMPI PUSH0 DUP1 REVERT JUMPDEST PUSH2 0x1AF DUP5 PUSH2 0x179 JUMP JUMPDEST SWAP3 POP PUSH2 0x1BD PUSH1 0x20 DUP6 ADD PUSH2 0x179 JUMP JUMPDEST SWAP2 POP PUSH2 0x1CB PUSH1 0x40 DUP6 ADD PUSH2 0x179 JUMP JUMPDEST SWAP1 POP SWAP3 POP SWAP3 POP SWAP3 JUMP JUMPDEST PUSH4 0x4E487B71 PUSH1 0xE0 SHL PUSH0 MSTORE PUSH1 0x41 PUSH1 0x4 MSTORE PUSH1 0x24 PUSH0 REVERT JUMPDEST PUSH1 0x1 DUP2 DUP2 SHR SWAP1 DUP3 AND DUP1 PUSH2 0x1FC JUMPI PUSH1 0x7F DUP3 AND SWAP2 POP JUMPDEST PUSH1 0x20 DUP3 LT DUP2 SUB PUSH2 0x21A JUMPI PUSH4 0x4E487B71 PUSH1 0xE0 SHL PUSH0 MSTORE PUSH1 0x22 PUSH1 0x4 MSTORE PUSH1 0x24 PUSH0 REVERT JUMPDEST POP SWAP2 SWAP1 POP JUMP JUMPDEST PUSH1 0x1F DUP3 GT ISZERO PUSH2 0x267 JUMPI DUP1 PUSH0 MSTORE PUSH1 0x20 PUSH0 KECCAK256 PUSH1 0x1F DUP5 ADD PUSH1 0x5 SHR DUP2 ADD PUSH1 0x20 DUP6 LT ISZERO PUSH2 0x245 JUMPI POP DUP1 JUMPDEST PUSH1 0x1F DUP5 ADD PUSH1 0x5 SHR DUP3 ADD SWAP2 POP JUMPDEST DUP2 DUP2 LT ISZERO PUSH2 0x264 JUMPI PUSH0 DUP2 SSTORE PUSH1 0x1 ADD PUSH2 0x251 JUMP JUMPDEST POP POP JUMPDEST POP POP POP JUMP JUMPDEST DUP2 MLOAD PUSH1 0x1 PUSH1 0x1 PUSH1 0x40 SHL SUB DUP2 GT ISZERO PUSH2 0x285 JUMPI PUSH2 0x285 PUSH2 0x1D4 JUMP JUMPDEST PUSH2 0x299 DUP2 PUSH2 0x293 DUP5 SLOAD PUSH2 0x1E8 JUMP JUMPDEST DUP5 PUSH2 0x220 JUMP JUMPDEST PUSH1 0x20 PUSH1 0x1F DUP3 GT PUSH1 0x1 DUP2 EQ PUSH2 0x2CB JUMPI PUSH0 DUP4 ISZERO PUSH2 0x2B4 JUMPI POP DUP5 DUP3 ADD MLOAD JUMPDEST PUSH0 NOT PUSH1 0x3 DUP6 SWAP1 SHL SHR NOT AND PUSH1 0x1 DUP5 SWAP1 SHL OR DUP5 SSTORE PUSH2 0x264 JUMP JUMPDEST PUSH0 DUP5 DUP2 MSTORE PUSH1 0x20 DUP2 KECCAK256 PUSH1 0x1F NOT DUP6 AND SWAP2 JUMPDEST DUP3 DUP2 LT ISZERO PUSH2 0x2FA JUMPI DUP8 DUP6 ADD MLOAD DUP3 SSTORE PUSH1 0x20 SWAP5 DUP6 ADD SWAP5 PUSH1 0x1 SWAP1 SWAP3 ADD SWAP2 ADD PUSH2 0x2DA JUMP JUMPDEST POP DUP5 DUP3 LT ISZERO PUSH2 0x317 JUMPI DUP7 DUP5 ADD MLOAD PUSH0 NOT PUSH1 0x3 DUP8 SWAP1 SHL PUSH1 0xF8 AND SHR NOT AND DUP2 SSTORE JUMPDEST POP POP POP POP PUSH1 0x1 SWAP1 DUP2 SHL ADD SWAP1 SSTORE POP JUMP JUMPDEST PUSH2 0x5D67 DUP1 PUSH2 0x333 PUSH0 CODECOPY PUSH0 RETURN INVALID PUSH1 0x80 PUSH1 0x40 MSTORE PUSH1 0x4 CALLDATASIZE LT PUSH2 0x25F JUMPI PUSH0 CALLDATALOAD PUSH1 0xE0 SHR DUP1 PUSH4 0x60D27451 GT PUSH2 0x13F JUMPI DUP1 PUSH4 0x9B19251A GT PUSH2 0xB3 JUMPI DUP1 PUSH4 0xD0E30DB0 GT PUSH2 0x78 JUMPI DUP1 PUSH4 0xD0E30DB0 EQ PUSH2 0x736 JUMPI DUP1 PUSH4 0xDD62ED3E EQ PUSH2 0x73E JUMPI DUP1 PUSH4 0xE7AE65AB EQ PUSH2 0x782 JUMPI DUP1 PUSH4 0xF2FDE38B EQ PUSH2 0x7A1 JUMPI DUP1 PUSH4 0xF7E625A3 EQ PUSH2 0x7C0 JUMPI DUP1 PUSH4 0xFA3B5649 EQ PUSH2 0x7D5 JUMPI PUSH0 DUP1 REVERT JUMPDEST DUP1 PUSH4 0x9B19251A EQ PUSH2 0x68A JUMPI DUP1 PUSH4 0xA738C7DF EQ PUSH2 0x6B8 JUMPI DUP1 PUSH4 0xA9059CBB EQ PUSH2 0x6D7 JUMPI DUP1 PUSH4 0xC38CD0B5 EQ PUSH2 0x6F6 JUMPI DUP1 PUSH4 0xD03153AA EQ PUSH2 0x721 JUMPI PUSH0 DUP1 REVERT JUMPDEST DUP1 PUSH4 0x86BC55DB GT PUSH2 0x104 JUMPI DUP1 PUSH4 0x86BC55DB EQ PUSH2 0x5EF JUMPI DUP1 PUSH4 0x86C14663 EQ PUSH2 0x604 JUMPI DUP1 PUSH4 0x8BC7E8C4 EQ PUSH2 0x619 JUMPI DUP1 PUSH4 0x8DA5CB5B EQ PUSH2 0x62E JUMPI DUP1 PUSH4 0x91EBE50F EQ PUSH2 0x64A JUMPI DUP1 PUSH4 0x95D89B41 EQ PUSH2 0x676 JUMPI PUSH0 DUP1 REVERT JUMPDEST DUP1 PUSH4 0x60D27451 EQ PUSH2 0x554 JUMPI DUP1 PUSH4 0x67A52793 EQ PUSH2 0x573 JUMPI DUP1 PUSH4 0x70A08231 EQ PUSH2 0x588 JUMPI DUP1 PUSH4 0x715018A6 EQ PUSH2 0x5BC JUMPI DUP1 PUSH4 0x780D5710 EQ PUSH2 0x5D0 JUMPI PUSH0 DUP1 REVERT JUMPDEST DUP1 PUSH4 0x2E1A7D4D GT PUSH2 0x1D6 JUMPI DUP1 PUSH4 0x39C0F5D2 GT PUSH2 0x19B JUMPI DUP1 PUSH4 0x39C0F5D2 EQ PUSH2 0x4A8 JUMPI DUP1 PUSH4 0x3D7526F7 EQ PUSH2 0x4BB JUMPI DUP1 PUSH4 0x4D20D0F8 EQ PUSH2 0x4DA JUMPI DUP1 PUSH4 0x53D6FD59 EQ PUSH2 0x4F9 JUMPI DUP1 PUSH4 0x5643A5A7 EQ PUSH2 0x518 JUMPI DUP1 PUSH4 0x5C975ABB EQ PUSH2 0x537 JUMPI PUSH0 DUP1 REVERT JUMPDEST DUP1 PUSH4 0x2E1A7D4D EQ PUSH2 0x3E4 JUMPI DUP1 PUSH4 0x2E63A156 EQ PUSH2 0x403 JUMPI DUP1 PUSH4 0x313CE567 EQ PUSH2 0x432 JUMPI DUP1 PUSH4 0x36A43F2B EQ PUSH2 0x44D JUMPI DUP1 PUSH4 0x378A653C EQ PUSH2 0x478 JUMPI PUSH0 DUP1 REVERT JUMPDEST DUP1 PUSH4 0x18160DDD GT PUSH2 0x227 JUMPI DUP1 PUSH4 0x18160DDD EQ PUSH2 0x333 JUMPI DUP1 PUSH4 0x23B872DD EQ PUSH2 0x351 JUMPI DUP1 PUSH4 0x246F972F EQ PUSH2 0x370 JUMPI DUP1 PUSH4 0x2A5C792A EQ PUSH2 0x385 JUMPI DUP1 PUSH4 0x2C76D7A6 EQ PUSH2 0x3A6 JUMPI DUP1 PUSH4 0x2C9351A1 EQ PUSH2 0x3C5 JUMPI PUSH0 DUP1 REVERT JUMPDEST DUP1 PUSH4 0x6FDDE03 EQ PUSH2 0x263 JUMPI DUP1 PUSH4 0x95EA7B3 EQ PUSH2 0x28D JUMPI DUP1 PUSH4 0xB78F9C0 EQ PUSH2 0x2BC JUMPI DUP1 PUSH4 0x117DA1EE EQ PUSH2 0x2DD JUMPI DUP1 PUSH4 0x1694505E EQ PUSH2 0x2FC JUMPI JUMPDEST PUSH0 DUP1 REVERT JUMPDEST CALLVALUE DUP1 ISZERO PUSH2 0x26E JUMPI PUSH0 DUP1 REVERT JUMPDEST POP PUSH2 0x277 PUSH2 0x7E9 JUMP JUMPDEST PUSH1 0x40 MLOAD PUSH2 0x284 SWAP2 SWAP1 PUSH2 0x503A JUMP JUMPDEST PUSH1 0x40 MLOAD DUP1 SWAP2 SUB SWAP1 RETURN JUMPDEST CALLVALUE DUP1 ISZERO PUSH2 0x298 JUMPI PUSH0 DUP1 REVERT JUMPDEST POP PUSH2 0x2AC PUSH2 0x2A7 CALLDATASIZE PUSH1 0x4 PUSH2 0x5067 JUMP JUMPDEST PUSH2 0x879 JUMP JUMPDEST PUSH1 0x40 MLOAD SWAP1 ISZERO ISZERO DUP2 MSTORE PUSH1 0x20 ADD PUSH2 0x284 JUMP JUMPDEST CALLVALUE DUP1 ISZERO PUSH2 0x2C7 JUMPI PUSH0 DUP1 REVERT JUMPDEST POP PUSH2 0x2DB PUSH2 0x2D6 CALLDATASIZE PUSH1 0x4 PUSH2 0x5091 JUMP JUMPDEST PUSH2 0x892 JUMP JUMPDEST STOP JUMPDEST CALLVALUE DUP1 ISZERO PUSH2 0x2E8 JUMPI PUSH0 DUP1 REVERT JUMPDEST POP PUSH2 0x2DB PUSH2 0x2F7 CALLDATASIZE PUSH1 0x4 PUSH2 0x50B1 JUMP JUMPDEST PUSH2 0x91E JUMP JUMPDEST CALLVALUE DUP1 ISZERO PUSH2 0x307 JUMPI PUSH0 DUP1 REVERT JUMPDEST POP PUSH1 0x7 SLOAD PUSH2 0x31B SWAP1 PUSH1 0x1 PUSH1 0x1 PUSH1 0xA0 SHL SUB AND DUP2 JUMP JUMPDEST PUSH1 0x40 MLOAD PUSH1 0x1 PUSH1 0x1 PUSH1 0xA0 SHL SUB SWAP1 SWAP2 AND DUP2 MSTORE PUSH1 0x20 ADD PUSH2 0x284 JUMP JUMPDEST CALLVALUE DUP1 ISZERO PUSH2 0x33E JUMPI PUSH0 DUP1 REVERT JUMPDEST POP PUSH1 0x3 SLOAD JUMPDEST PUSH1 0x40 MLOAD SWAP1 DUP2 MSTORE PUSH1 0x20 ADD PUSH2 0x284 JUMP JUMPDEST CALLVALUE DUP1 ISZERO PUSH2 0x35C JUMPI PUSH0 DUP1 REVERT JUMPDEST POP PUSH2 0x2AC PUSH2 0x36B CALLDATASIZE PUSH1 0x4 PUSH2 0x50C8 JUMP JUMPDEST PUSH2 0x966 JUMP JUMPDEST CALLVALUE DUP1 ISZERO PUSH2 0x37B JUMPI PUSH0 DUP1 REVERT JUMPDEST POP PUSH2 0x343 PUSH1 0x12 SLOAD DUP2 JUMP JUMPDEST CALLVALUE DUP1 ISZERO PUSH2 0x390 JUMPI PUSH0 DUP1 REVERT JUMPDEST POP PUSH2 0x399 PUSH2 0x989 JUMP JUMPDEST PUSH1 0x40 MLOAD PUSH2 0x284 SWAP2 SWAP1 PUSH2 0x5106 JUMP JUMPDEST CALLVALUE DUP1 ISZERO PUSH2 0x3B1 JUMPI PUSH0 DUP1 REVERT JUMPDEST POP PUSH1 0x8 SLOAD PUSH2 0x31B SWAP1 PUSH1 0x1 PUSH1 0x1 PUSH1 0xA0 SHL SUB AND DUP2 JUMP JUMPDEST CALLVALUE DUP1 ISZERO PUSH2 0x3D0 JUMPI PUSH0 DUP1 REVERT JUMPDEST POP PUSH2 0x2DB PUSH2 0x3DF CALLDATASIZE PUSH1 0x4 PUSH2 0x50B1 JUMP JUMPDEST PUSH2 0xAA8 JUMP JUMPDEST CALLVALUE DUP1 ISZERO PUSH2 0x3EF JUMPI PUSH0 DUP1 REVERT JUMPDEST POP PUSH2 0x2DB PUSH2 0x3FE CALLDATASIZE PUSH1 0x4 PUSH2 0x50B1 JUMP JUMPDEST PUSH2 0xFBF JUMP JUMPDEST CALLVALUE DUP1 ISZERO PUSH2 0x40E JUMPI PUSH0 DUP1 REVERT JUMPDEST POP PUSH2 0x422 PUSH2 0x41D CALLDATASIZE PUSH1 0x4 PUSH2 0x50B1 JUMP JUMPDEST PUSH2 0x173B JUMP JUMPDEST PUSH1 0x40 MLOAD PUSH2 0x284 SWAP5 SWAP4 SWAP3 SWAP2 SWAP1 PUSH2 0x51A2 JUMP JUMPDEST CALLVALUE DUP1 ISZERO PUSH2 0x43D JUMPI PUSH0 DUP1 REVERT JUMPDEST POP PUSH1 0x40 MLOAD PUSH1 0x12 DUP2 MSTORE PUSH1 0x20 ADD PUSH2 0x284 JUMP JUMPDEST CALLVALUE DUP1 ISZERO PUSH2 0x458 JUMPI PUSH0 DUP1 REVERT JUMPDEST POP PUSH2 0x343 PUSH2 0x467 CALLDATASIZE PUSH1 0x4 PUSH2 0x51DE JUMP JUMPDEST PUSH1 0xC PUSH1 0x20 MSTORE PUSH0 SWAP1 DUP2 MSTORE PUSH1 0x40 SWAP1 KECCAK256 SLOAD DUP2 JUMP JUMPDEST CALLVALUE DUP1 ISZERO PUSH2 0x483 JUMPI PUSH0 DUP1 REVERT JUMPDEST POP PUSH2 0x497 PUSH2 0x492 CALLDATASIZE PUSH1 0x4 PUSH2 0x50B1 JUMP JUMPDEST PUSH2 0x180B JUMP JUMPDEST PUSH1 0x40 MLOAD PUSH2 0x284 SWAP6 SWAP5 SWAP4 SWAP3 SWAP2 SWAP1 PUSH2 0x51F9 JUMP JUMPDEST PUSH2 0x2DB PUSH2 0x4B6 CALLDATASIZE PUSH1 0x4 PUSH2 0x529D JUMP JUMPDEST PUSH2 0x18E6 JUMP JUMPDEST CALLVALUE DUP1 ISZERO PUSH2 0x4C6 JUMPI PUSH0 DUP1 REVERT JUMPDEST POP PUSH2 0x2DB PUSH2 0x4D5 CALLDATASIZE PUSH1 0x4 PUSH2 0x51DE JUMP JUMPDEST PUSH2 0x1CAA JUMP JUMPDEST CALLVALUE DUP1 ISZERO PUSH2 0x4E5 JUMPI PUSH0 DUP1 REVERT JUMPDEST POP PUSH1 0x9 SLOAD PUSH2 0x31B SWAP1 PUSH1 0x1 PUSH1 0x1 PUSH1 0xA0 SHL SUB AND DUP2 JUMP JUMPDEST CALLVALUE DUP1 ISZERO PUSH2 0x504 JUMPI PUSH0 DUP1 REVERT JUMPDEST POP PUSH2 0x2DB PUSH2 0x513 CALLDATASIZE PUSH1 0x4 PUSH2 0x5368 JUMP JUMPDEST PUSH2 0x2008 JUMP JUMPDEST CALLVALUE DUP1 ISZERO PUSH2 0x523 JUMPI PUSH0 DUP1 REVERT JUMPDEST POP PUSH2 0x343 PUSH2 0x532 CALLDATASIZE PUSH1 0x4 PUSH2 0x53C1 JUMP JUMPDEST PUSH2 0x203A JUMP JUMPDEST CALLVALUE DUP1 ISZERO PUSH2 0x542 JUMPI PUSH0 DUP1 REVERT JUMPDEST POP PUSH0 SLOAD PUSH1 0x1 PUSH1 0xA0 SHL SWAP1 DIV PUSH1 0xFF AND PUSH2 0x2AC JUMP JUMPDEST CALLVALUE DUP1 ISZERO PUSH2 0x55F JUMPI PUSH0 DUP1 REVERT JUMPDEST POP PUSH2 0x2DB PUSH2 0x56E CALLDATASIZE PUSH1 0x4 PUSH2 0x549D JUMP JUMPDEST PUSH2 0x2166 JUMP JUMPDEST CALLVALUE DUP1 ISZERO PUSH2 0x57E JUMPI PUSH0 DUP1 REVERT JUMPDEST POP PUSH2 0x343 PUSH1 0xE SLOAD DUP2 JUMP JUMPDEST CALLVALUE DUP1 ISZERO PUSH2 0x593 JUMPI PUSH0 DUP1 REVERT JUMPDEST POP PUSH2 0x343 PUSH2 0x5A2 CALLDATASIZE PUSH1 0x4 PUSH2 0x51DE JUMP JUMPDEST PUSH1 0x1 PUSH1 0x1 PUSH1 0xA0 SHL SUB AND PUSH0 SWAP1 DUP2 MSTORE PUSH1 0x1 PUSH1 0x20 MSTORE PUSH1 0x40 SWAP1 KECCAK256 SLOAD SWAP1 JUMP JUMPDEST CALLVALUE DUP1 ISZERO PUSH2 0x5C7 JUMPI PUSH0 DUP1 REVERT JUMPDEST POP PUSH2 0x2DB PUSH2 0x239E JUMP JUMPDEST CALLVALUE DUP1 ISZERO PUSH2 0x5DB JUMPI PUSH0 DUP1 REVERT JUMPDEST POP PUSH2 0x2DB PUSH2 0x5EA CALLDATASIZE PUSH1 0x4 PUSH2 0x53C1 JUMP JUMPDEST PUSH2 0x23B1 JUMP JUMPDEST CALLVALUE DUP1 ISZERO PUSH2 0x5FA JUMPI PUSH0 DUP1 REVERT JUMPDEST POP PUSH2 0x343 PUSH1 0x13 SLOAD DUP2 JUMP JUMPDEST CALLVALUE DUP1 ISZERO PUSH2 0x60F JUMPI PUSH0 DUP1 REVERT JUMPDEST POP PUSH2 0x343 PUSH1 0x14 SLOAD DUP2 JUMP JUMPDEST CALLVALUE DUP1 ISZERO PUSH2 0x624 JUMPI PUSH0 DUP1 REVERT JUMPDEST POP PUSH2 0x343 PUSH1 0xF SLOAD DUP2 JUMP JUMPDEST CALLVALUE DUP1 ISZERO PUSH2 0x639 JUMPI PUSH0 DUP1 REVERT JUMPDEST POP PUSH0 SLOAD PUSH1 0x1 PUSH1 0x1 PUSH1 0xA0 SHL SUB AND PUSH2 0x31B JUMP JUMPDEST CALLVALUE DUP1 ISZERO PUSH2 0x655 JUMPI PUSH0 DUP1 REVERT JUMPDEST POP PUSH2 0x669 PUSH2 0x664 CALLDATASIZE PUSH1 0x4 PUSH2 0x51DE JUMP JUMPDEST PUSH2 0x2813 JUMP JUMPDEST PUSH1 0x40 MLOAD PUSH2 0x284 SWAP2 SWAP1 PUSH2 0x5567 JUMP JUMPDEST CALLVALUE DUP1 ISZERO PUSH2 0x681 JUMPI PUSH0 DUP1 REVERT JUMPDEST POP PUSH2 0x277 PUSH2 0x2A23 JUMP JUMPDEST CALLVALUE DUP1 ISZERO PUSH2 0x695 JUMPI PUSH0 DUP1 REVERT JUMPDEST POP PUSH2 0x2AC PUSH2 0x6A4 CALLDATASIZE PUSH1 0x4 PUSH2 0x51DE JUMP JUMPDEST PUSH1 0xA PUSH1 0x20 MSTORE PUSH0 SWAP1 DUP2 MSTORE PUSH1 0x40 SWAP1 KECCAK256 SLOAD PUSH1 0xFF AND DUP2 JUMP JUMPDEST CALLVALUE DUP1 ISZERO PUSH2 0x6C3 JUMPI PUSH0 DUP1 REVERT JUMPDEST POP PUSH2 0x2DB PUSH2 0x6D2 CALLDATASIZE PUSH1 0x4 PUSH2 0x51DE JUMP JUMPDEST PUSH2 0x2A32 JUMP JUMPDEST CALLVALUE DUP1 ISZERO PUSH2 0x6E2 JUMPI PUSH0 DUP1 REVERT JUMPDEST POP PUSH2 0x2AC PUSH2 0x6F1 CALLDATASIZE PUSH1 0x4 PUSH2 0x5067 JUMP JUMPDEST PUSH2 0x2BC7 JUMP JUMPDEST CALLVALUE DUP1 ISZERO PUSH2 0x701 JUMPI PUSH0 DUP1 REVERT JUMPDEST POP PUSH2 0x343 PUSH2 0x710 CALLDATASIZE PUSH1 0x4 PUSH2 0x51DE JUMP JUMPDEST PUSH1 0xD PUSH1 0x20 MSTORE PUSH0 SWAP1 DUP2 MSTORE PUSH1 0x40 SWAP1 KECCAK256 SLOAD DUP2 JUMP JUMPDEST CALLVALUE DUP1 ISZERO PUSH2 0x72C JUMPI PUSH0 DUP1 REVERT JUMPDEST POP PUSH2 0x343 PUSH1 0x10 SLOAD DUP2 JUMP JUMPDEST PUSH2 0x2DB PUSH2 0x2BD4 JUMP JUMPDEST CALLVALUE DUP1 ISZERO PUSH2 0x749 JUMPI PUSH0 DUP1 REVERT JUMPDEST POP PUSH2 0x343 PUSH2 0x758 CALLDATASIZE PUSH1 0x4 PUSH2 0x5609 JUMP JUMPDEST PUSH1 0x1 PUSH1 0x1 PUSH1 0xA0 SHL SUB SWAP2 DUP3 AND PUSH0 SWAP1 DUP2 MSTORE PUSH1 0x2 PUSH1 0x20 SWAP1 DUP2 MSTORE PUSH1 0x40 DUP1 DUP4 KECCAK256 SWAP4 SWAP1 SWAP5 AND DUP3 MSTORE SWAP2 SWAP1 SWAP2 MSTORE KECCAK256 SLOAD SWAP1 JUMP JUMPDEST CALLVALUE DUP1 ISZERO PUSH2 0x78D JUMPI PUSH0 DUP1 REVERT JUMPDEST POP PUSH2 0x343 PUSH2 0x79C CALLDATASIZE PUSH1 0x4 PUSH2 0x529D JUMP JUMPDEST PUSH2 0x2FA9 JUMP JUMPDEST CALLVALUE DUP1 ISZERO PUSH2 0x7AC JUMPI PUSH0 DUP1 REVERT JUMPDEST POP PUSH2 0x2DB PUSH2 0x7BB CALLDATASIZE PUSH1 0x4 PUSH2 0x51DE JUMP JUMPDEST PUSH2 0x333D JUMP JUMPDEST CALLVALUE DUP1 ISZERO PUSH2 0x7CB JUMPI PUSH0 DUP1 REVERT JUMPDEST POP PUSH2 0x343 PUSH1 0x11 SLOAD DUP2 JUMP JUMPDEST CALLVALUE DUP1 ISZERO PUSH2 0x7E0 JUMPI PUSH0 DUP1 REVERT JUMPDEST POP PUSH2 0x2DB PUSH2 0x3377 JUMP JUMPDEST PUSH1 0x60 PUSH1 0x4 DUP1 SLOAD PUSH2 0x7F8 SWAP1 PUSH2 0x5635 JUMP JUMPDEST DUP1 PUSH1 0x1F ADD PUSH1 0x20 DUP1 SWAP2 DIV MUL PUSH1 0x20 ADD PUSH1 0x40 MLOAD SWAP1 DUP2 ADD PUSH1 0x40 MSTORE DUP1 SWAP3 SWAP2 SWAP1 DUP2 DUP2 MSTORE PUSH1 0x20 ADD DUP3 DUP1 SLOAD PUSH2 0x824 SWAP1 PUSH2 0x5635 JUMP JUMPDEST DUP1 ISZERO PUSH2 0x86F JUMPI DUP1 PUSH1 0x1F LT PUSH2 0x846 JUMPI PUSH2 0x100 DUP1 DUP4 SLOAD DIV MUL DUP4 MSTORE SWAP2 PUSH1 0x20 ADD SWAP2 PUSH2 0x86F JUMP JUMPDEST DUP3 ADD SWAP2 SWAP1 PUSH0 MSTORE PUSH1 0x20 PUSH0 KECCAK256 SWAP1 JUMPDEST DUP2 SLOAD DUP2 MSTORE SWAP1 PUSH1 0x1 ADD SWAP1 PUSH1 0x20 ADD DUP1 DUP4 GT PUSH2 0x852 JUMPI DUP3 SWAP1 SUB PUSH1 0x1F AND DUP3 ADD SWAP2 JUMPDEST POP POP POP POP POP SWAP1 POP SWAP1 JUMP JUMPDEST PUSH0 CALLER PUSH2 0x886 DUP2 DUP6 DUP6 PUSH2 0x38B2 JUMP JUMPDEST PUSH1 0x1 SWAP2 POP POP JUMPDEST SWAP3 SWAP2 POP POP JUMP JUMPDEST PUSH2 0x89A PUSH2 0x38BF JUMP JUMPDEST PUSH2 0x2710 DUP3 GT ISZERO PUSH2 0x8D9 JUMPI PUSH1 0x40 MLOAD PUSH3 0x461BCD PUSH1 0xE5 SHL DUP2 MSTORE PUSH1 0x20 PUSH1 0x4 DUP3 ADD MSTORE PUSH1 0x5 PUSH1 0x24 DUP3 ADD MSTORE PUSH5 0x2164666565 PUSH1 0xD8 SHL PUSH1 0x44 DUP3 ADD MSTORE PUSH1 0x64 ADD JUMPDEST PUSH1 0x40 MLOAD DUP1 SWAP2 SUB SWAP1 REVERT JUMPDEST PUSH2 0x2710 DUP2 GT ISZERO PUSH2 0x913 JUMPI PUSH1 0x40 MLOAD PUSH3 0x461BCD PUSH1 0xE5 SHL DUP2 MSTORE PUSH1 0x20 PUSH1 0x4 DUP3 ADD MSTORE PUSH1 0x5 PUSH1 0x24 DUP3 ADD MSTORE PUSH5 0x2177666565 PUSH1 0xD8 SHL PUSH1 0x44 DUP3 ADD MSTORE PUSH1 0x64 ADD PUSH2 0x8D0 JUMP JUMPDEST PUSH1 0xE SWAP2 SWAP1 SWAP2 SSTORE PUSH1 0xF SSTORE JUMP JUMPDEST PUSH2 0x926 PUSH2 0x38BF JUMP JUMPDEST PUSH2 0x2710 DUP2 GT ISZERO PUSH2 0x961 JUMPI PUSH1 0x40 MLOAD PUSH3 0x461BCD PUSH1 0xE5 SHL DUP2 MSTORE PUSH1 0x4 ADD PUSH2 0x8D0 SWAP1 PUSH1 0x20 DUP1 DUP3 MSTORE PUSH1 0x4 SWAP1 DUP3 ADD MSTORE PUSH4 0x21534C5 PUSH1 0xE4 SHL PUSH1 0x40 DUP3 ADD MSTORE PUSH1 0x60 ADD SWAP1 JUMP JUMPDEST PUSH1 0x10 SSTORE JUMP JUMPDEST PUSH0 CALLER PUSH2 0x973 DUP6 DUP3 DUP6 PUSH2 0x38EB JUMP JUMPDEST PUSH2 0x97E DUP6 DUP6 DUP6 PUSH2 0x3960 JUMP JUMPDEST POP PUSH1 0x1 SWAP5 SWAP4 POP POP POP POP JUMP JUMPDEST PUSH1 0x60 PUSH1 0x6 DUP1 SLOAD DUP1 PUSH1 0x20 MUL PUSH1 0x20 ADD PUSH1 0x40 MLOAD SWAP1 DUP2 ADD PUSH1 0x40 MSTORE DUP1 SWAP3 SWAP2 SWAP1 DUP2 DUP2 MSTORE PUSH1 0x20 ADD PUSH0 SWAP1 JUMPDEST DUP3 DUP3 LT ISZERO PUSH2 0xA9F JUMPI PUSH0 DUP5 DUP2 MSTORE PUSH1 0x20 SWAP1 DUP2 SWAP1 KECCAK256 PUSH1 0x40 DUP1 MLOAD PUSH1 0x80 DUP2 ADD DUP3 MSTORE PUSH1 0x4 DUP7 MUL SWAP1 SWAP3 ADD DUP1 SLOAD PUSH1 0x1 PUSH1 0x1 PUSH1 0xA0 SHL SUB AND DUP4 MSTORE PUSH1 0x1 DUP2 ADD SLOAD SWAP4 DUP4 ADD SWAP4 SWAP1 SWAP4 MSTORE PUSH1 0x2 DUP4 ADD DUP1 SLOAD SWAP3 SWAP4 SWAP3 SWAP2 DUP5 ADD SWAP2 PUSH2 0x9FE SWAP1 PUSH2 0x5635 JUMP JUMPDEST DUP1 PUSH1 0x1F ADD PUSH1 0x20 DUP1 SWAP2 DIV MUL PUSH1 0x20 ADD PUSH1 0x40 MLOAD SWAP1 DUP2 ADD PUSH1 0x40 MSTORE DUP1 SWAP3 SWAP2 SWAP1 DUP2 DUP2 MSTORE PUSH1 0x20 ADD DUP3 DUP1 SLOAD PUSH2 0xA2A SWAP1 PUSH2 0x5635 JUMP JUMPDEST DUP1 ISZERO PUSH2 0xA75 JUMPI DUP1 PUSH1 0x1F LT PUSH2 0xA4C JUMPI PUSH2 0x100 DUP1 DUP4 SLOAD DIV MUL DUP4 MSTORE SWAP2 PUSH1 0x20 ADD SWAP2 PUSH2 0xA75 JUMP JUMPDEST DUP3 ADD SWAP2 SWAP1 PUSH0 MSTORE PUSH1 0x20 PUSH0 KECCAK256 SWAP1 JUMPDEST DUP2 SLOAD DUP2 MSTORE SWAP1 PUSH1 0x1 ADD SWAP1 PUSH1 0x20 ADD DUP1 DUP4 GT PUSH2 0xA58 JUMPI DUP3 SWAP1 SUB PUSH1 0x1F AND DUP3 ADD SWAP2 JUMPDEST POP POP POP SWAP2 DUP4 MSTORE POP POP PUSH1 0x3 SWAP2 SWAP1 SWAP2 ADD SLOAD PUSH3 0xFFFFFF AND PUSH1 0x20 SWAP2 DUP3 ADD MSTORE SWAP1 DUP3 MSTORE PUSH1 0x1 SWAP3 SWAP1 SWAP3 ADD SWAP2 ADD PUSH2 0x9AC JUMP JUMPDEST POP POP POP POP SWAP1 POP SWAP1 JUMP JUMPDEST PUSH2 0xAB0 PUSH2 0x39BD JUMP JUMPDEST PUSH0 DUP2 GT PUSH2 0xACF JUMPI PUSH1 0x40 MLOAD PUSH3 0x461BCD PUSH1 0xE5 SHL DUP2 MSTORE PUSH1 0x4 ADD PUSH2 0x8D0 SWAP1 PUSH2 0x566D JUMP JUMPDEST PUSH1 0x40 MLOAD PUSH4 0x70A08231 PUSH1 0xE0 SHL DUP2 MSTORE CALLER PUSH1 0x4 DUP3 ADD MSTORE DUP2 SWAP1 ADDRESS SWAP1 PUSH4 0x70A08231 SWAP1 PUSH1 0x24 ADD PUSH1 0x20 PUSH1 0x40 MLOAD DUP1 DUP4 SUB DUP2 DUP7 GAS STATICCALL ISZERO DUP1 ISZERO PUSH2 0xB0A JUMPI RETURNDATASIZE PUSH0 DUP1 RETURNDATACOPY RETURNDATASIZE PUSH0 REVERT JUMPDEST POP POP POP POP PUSH1 0x40 MLOAD RETURNDATASIZE PUSH1 0x1F NOT PUSH1 0x1F DUP3 ADD AND DUP3 ADD DUP1 PUSH1 0x40 MSTORE POP DUP2 ADD SWAP1 PUSH2 0xB2E SWAP2 SWAP1 PUSH2 0x5689 JUMP JUMPDEST LT ISZERO PUSH2 0xB6C JUMPI PUSH1 0x40 MLOAD PUSH3 0x461BCD PUSH1 0xE5 SHL DUP2 MSTORE PUSH1 0x20 PUSH1 0x4 DUP3 ADD MSTORE PUSH1 0xD PUSH1 0x24 DUP3 ADD MSTORE PUSH13 0x8525B9CDD59999A58DA595B9D PUSH1 0x9A SHL PUSH1 0x44 DUP3 ADD MSTORE PUSH1 0x64 ADD PUSH2 0x8D0 JUMP JUMPDEST PUSH0 PUSH2 0xB76 PUSH1 0x3 SLOAD SWAP1 JUMP JUMPDEST PUSH2 0xB82 DUP4 PUSH2 0x2710 PUSH2 0x56B4 JUMP JUMPDEST PUSH2 0xB8C SWAP2 SWAP1 PUSH2 0x56CB JUMP JUMPDEST SWAP1 POP PUSH0 DUP2 GT DUP1 ISZERO PUSH2 0xB9F JUMPI POP PUSH2 0x2710 DUP2 GT ISZERO JUMPDEST PUSH2 0xBD5 JUMPI PUSH1 0x40 MLOAD PUSH3 0x461BCD PUSH1 0xE5 SHL DUP2 MSTORE PUSH1 0x20 PUSH1 0x4 DUP3 ADD MSTORE PUSH1 0x7 PUSH1 0x24 DUP3 ADD MSTORE PUSH7 0x3026313030303 PUSH1 0xCC SHL PUSH1 0x44 DUP3 ADD MSTORE PUSH1 0x64 ADD PUSH2 0x8D0 JUMP JUMPDEST PUSH1 0x7 SLOAD PUSH1 0x40 DUP1 MLOAD PUSH4 0x15AB88C9 PUSH1 0xE3 SHL DUP2 MSTORE SWAP1 MLOAD PUSH0 SWAP3 PUSH1 0x1 PUSH1 0x1 PUSH1 0xA0 SHL SUB AND SWAP2 PUSH4 0xAD5C4648 SWAP2 PUSH1 0x4 DUP1 DUP4 ADD SWAP3 PUSH1 0x20 SWAP3 SWAP2 SWAP1 DUP3 SWAP1 SUB ADD DUP2 DUP7 GAS STATICCALL ISZERO DUP1 ISZERO PUSH2 0xC1C JUMPI RETURNDATASIZE PUSH0 DUP1 RETURNDATACOPY RETURNDATASIZE PUSH0 REVERT JUMPDEST POP POP POP POP PUSH1 0x40 MLOAD RETURNDATASIZE PUSH1 0x1F NOT PUSH1 0x1F DUP3 ADD AND DUP3 ADD DUP1 PUSH1 0x40 MSTORE POP DUP2 ADD SWAP1 PUSH2 0xC40 SWAP2 SWAP1 PUSH2 0x56EA JUMP JUMPDEST SWAP1 POP PUSH0 DUP1 PUSH0 JUMPDEST PUSH1 0x6 SLOAD DUP2 LT ISZERO PUSH2 0xDFF JUMPI PUSH0 PUSH1 0x6 DUP3 DUP2 SLOAD DUP2 LT PUSH2 0xC64 JUMPI PUSH2 0xC64 PUSH2 0x5705 JUMP JUMPDEST PUSH0 SWAP2 DUP3 MSTORE PUSH1 0x20 DUP3 KECCAK256 PUSH1 0x4 SWAP2 DUP3 MUL ADD DUP1 SLOAD PUSH1 0x40 MLOAD PUSH4 0x70A08231 PUSH1 0xE0 SHL DUP2 MSTORE ADDRESS SWAP4 DUP2 ADD SWAP4 SWAP1 SWAP4 MSTORE SWAP1 SWAP4 POP PUSH2 0x2710 SWAP2 DUP10 SWAP2 PUSH1 0x1 PUSH1 0x1 PUSH1 0xA0 SHL SUB AND SWAP1 PUSH4 0x70A08231 SWAP1 PUSH1 0x24 ADD PUSH1 0x20 PUSH1 0x40 MLOAD DUP1 DUP4 SUB DUP2 DUP7 GAS STATICCALL ISZERO DUP1 ISZERO PUSH2 0xCC0 JUMPI RETURNDATASIZE PUSH0 DUP1 RETURNDATACOPY RETURNDATASIZE PUSH0 REVERT JUMPDEST POP POP POP POP PUSH1 0x40 MLOAD RETURNDATASIZE PUSH1 0x1F NOT PUSH1 0x1F DUP3 ADD AND DUP3 ADD DUP1 PUSH1 0x40 MSTORE POP DUP2 ADD SWAP1 PUSH2 0xCE4 SWAP2 SWAP1 PUSH2 0x5689 JUMP JUMPDEST PUSH2 0xCEE SWAP2 SWAP1 PUSH2 0x56B4 JUMP JUMPDEST PUSH2 0xCF8 SWAP2 SWAP1 PUSH2 0x56CB JUMP JUMPDEST DUP3 SLOAD PUSH1 0x3 DUP5 ADD SLOAD PUSH1 0x40 MLOAD PUSH4 0xE7AE65AB PUSH1 0xE0 SHL DUP2 MSTORE SWAP3 SWAP4 POP PUSH0 SWAP3 ADDRESS SWAP3 PUSH4 0xE7AE65AB SWAP3 PUSH2 0xD40 SWAP3 PUSH1 0x1 PUSH1 0x1 PUSH1 0xA0 SHL SUB SWAP1 SWAP3 AND SWAP2 DUP8 SWAP2 PUSH1 0x2 DUP11 ADD SWAP2 PUSH3 0xFFFFFF SWAP1 SWAP2 AND SWAP1 PUSH1 0x4 ADD PUSH2 0x5719 JUMP JUMPDEST PUSH1 0x20 PUSH1 0x40 MLOAD DUP1 DUP4 SUB DUP2 PUSH0 DUP8 GAS CALL ISZERO DUP1 ISZERO PUSH2 0xD5C JUMPI RETURNDATASIZE PUSH0 DUP1 RETURNDATACOPY RETURNDATASIZE PUSH0 REVERT JUMPDEST POP POP POP POP PUSH1 0x40 MLOAD RETURNDATASIZE PUSH1 0x1F NOT PUSH1 0x1F DUP3 ADD AND DUP3 ADD DUP1 PUSH1 0x40 MSTORE POP DUP2 ADD SWAP1 PUSH2 0xD80 SWAP2 SWAP1 PUSH2 0x5689 JUMP JUMPDEST SWAP1 POP PUSH1 0x40 MLOAD PUSH1 0x20 ADD PUSH2 0xD91 SWAP1 PUSH2 0x57C2 JUMP JUMPDEST PUSH1 0x40 MLOAD PUSH1 0x20 DUP2 DUP4 SUB SUB DUP2 MSTORE SWAP1 PUSH1 0x40 MSTORE DUP1 MLOAD SWAP1 PUSH1 0x20 ADD KECCAK256 DUP4 PUSH1 0x2 ADD PUSH1 0x40 MLOAD PUSH1 0x20 ADD PUSH2 0xDBB SWAP2 SWAP1 PUSH2 0x57D0 JUMP JUMPDEST PUSH1 0x40 MLOAD PUSH1 0x20 DUP2 DUP4 SUB SUB DUP2 MSTORE SWAP1 PUSH1 0x40 MSTORE DUP1 MLOAD SWAP1 PUSH1 0x20 ADD KECCAK256 SUB PUSH2 0xDE7 JUMPI PUSH2 0xDE0 DUP2 DUP7 PUSH2 0x5841 JUMP JUMPDEST SWAP5 POP PUSH2 0xDF4 JUMP JUMPDEST PUSH2 0xDF1 DUP2 DUP8 PUSH2 0x5841 JUMP JUMPDEST SWAP6 POP JUMPDEST POP POP POP PUSH1 0x1 ADD PUSH2 0xC46 JUMP JUMPDEST POP PUSH2 0xE0A CALLER DUP7 PUSH2 0x39E7 JUMP JUMPDEST DUP1 ISZERO PUSH2 0xEC3 JUMPI PUSH0 PUSH2 0x2710 PUSH1 0xF SLOAD DUP4 PUSH2 0xE22 SWAP2 SWAP1 PUSH2 0x56B4 JUMP JUMPDEST PUSH2 0xE2C SWAP2 SWAP1 PUSH2 0x56CB JUMP JUMPDEST SWAP1 POP PUSH0 PUSH2 0xE39 DUP3 DUP5 PUSH2 0x5854 JUMP JUMPDEST SWAP1 POP DUP2 PUSH1 0x12 PUSH0 DUP3 DUP3 SLOAD PUSH2 0xE4C SWAP2 SWAP1 PUSH2 0x5841 JUMP JUMPDEST SWAP1 SWAP2 SSTORE POP POP PUSH1 0x40 MLOAD PUSH4 0xA9059CBB PUSH1 0xE0 SHL DUP2 MSTORE CALLER PUSH1 0x4 DUP3 ADD MSTORE PUSH1 0x24 DUP2 ADD DUP3 SWAP1 MSTORE PUSH1 0x1 PUSH1 0x1 PUSH1 0xA0 SHL SUB DUP7 AND SWAP1 PUSH4 0xA9059CBB SWAP1 PUSH1 0x44 ADD PUSH1 0x20 PUSH1 0x40 MLOAD DUP1 DUP4 SUB DUP2 PUSH0 DUP8 GAS CALL ISZERO DUP1 ISZERO PUSH2 0xE9B JUMPI RETURNDATASIZE PUSH0 DUP1 RETURNDATACOPY RETURNDATASIZE PUSH0 REVERT JUMPDEST POP POP POP POP PUSH1 0x40 MLOAD RETURNDATASIZE PUSH1 0x1F NOT PUSH1 0x1F DUP3 ADD AND DUP3 ADD DUP1 PUSH1 0x40 MSTORE POP DUP2 ADD SWAP1 PUSH2 0xEBF SWAP2 SWAP1 PUSH2 0x5867 JUMP JUMPDEST POP POP POP JUMPDEST DUP2 ISZERO PUSH2 0xFB8 JUMPI PUSH0 PUSH2 0x2710 PUSH1 0xF SLOAD DUP5 PUSH2 0xEDB SWAP2 SWAP1 PUSH2 0x56B4 JUMP JUMPDEST PUSH2 0xEE5 SWAP2 SWAP1 PUSH2 0x56CB JUMP JUMPDEST SWAP1 POP PUSH0 PUSH2 0xEF2 DUP3 DUP6 PUSH2 0x5854 JUMP JUMPDEST SWAP1 POP DUP2 PUSH1 0x11 PUSH0 DUP3 DUP3 SLOAD PUSH2 0xF05 SWAP2 SWAP1 PUSH2 0x5841 JUMP JUMPDEST SWAP1 SWAP2 SSTORE POP POP CALLER PUSH0 SWAP1 DUP2 MSTORE PUSH1 0xD PUSH1 0x20 MSTORE PUSH1 0x40 DUP2 KECCAK256 SLOAD SWAP1 PUSH2 0xF24 DUP4 DUP4 PUSH2 0x5841 JUMP JUMPDEST PUSH1 0x40 MLOAD SWAP1 SWAP2 POP PUSH0 SWAP1 CALLER SWAP1 DUP4 SWAP1 DUP4 DUP2 DUP2 DUP2 DUP6 DUP8 GAS CALL SWAP3 POP POP POP RETURNDATASIZE DUP1 PUSH0 DUP2 EQ PUSH2 0xF66 JUMPI PUSH1 0x40 MLOAD SWAP2 POP PUSH1 0x1F NOT PUSH1 0x3F RETURNDATASIZE ADD AND DUP3 ADD PUSH1 0x40 MSTORE RETURNDATASIZE DUP3 MSTORE RETURNDATASIZE PUSH0 PUSH1 0x20 DUP5 ADD RETURNDATACOPY PUSH2 0xF6B JUMP JUMPDEST PUSH1 0x60 SWAP2 POP JUMPDEST POP POP SWAP1 POP DUP1 PUSH2 0xFB2 JUMPI PUSH1 0x40 MLOAD PUSH3 0x461BCD PUSH1 0xE5 SHL DUP2 MSTORE PUSH1 0x20 PUSH1 0x4 DUP3 ADD MSTORE PUSH1 0x13 PUSH1 0x24 DUP3 ADD MSTORE PUSH19 0x115512081D1C985B9CD9995C8819985A5B1959 PUSH1 0x6A SHL PUSH1 0x44 DUP3 ADD MSTORE PUSH1 0x64 ADD PUSH2 0x8D0 JUMP JUMPDEST POP POP POP POP POP JUMPDEST POP POP POP POP POP JUMP JUMPDEST PUSH2 0xFC7 PUSH2 0x39BD JUMP JUMPDEST PUSH0 DUP2 GT PUSH2 0xFE6 JUMPI PUSH1 0x40 MLOAD PUSH3 0x461BCD PUSH1 0xE5 SHL DUP2 MSTORE PUSH1 0x4 ADD PUSH2 0x8D0 SWAP1 PUSH2 0x566D JUMP JUMPDEST PUSH1 0x40 MLOAD PUSH4 0x70A08231 PUSH1 0xE0 SHL DUP2 MSTORE CALLER PUSH1 0x4 DUP3 ADD MSTORE DUP2 SWAP1 ADDRESS SWAP1 PUSH4 0x70A08231 SWAP1 PUSH1 0x24 ADD PUSH1 0x20 PUSH1 0x40 MLOAD DUP1 DUP4 SUB DUP2 DUP7 GAS STATICCALL ISZERO DUP1 ISZERO PUSH2 0x1021 JUMPI RETURNDATASIZE PUSH0 DUP1 RETURNDATACOPY RETURNDATASIZE PUSH0 REVERT JUMPDEST POP POP POP POP PUSH1 0x40 MLOAD RETURNDATASIZE PUSH1 0x1F NOT PUSH1 0x1F DUP3 ADD AND DUP3 ADD DUP1 PUSH1 0x40 MSTORE POP DUP2 ADD SWAP1 PUSH2 0x1045 SWAP2 SWAP1 PUSH2 0x5689 JUMP JUMPDEST LT ISZERO PUSH2 0x1082 JUMPI PUSH1 0x40 MLOAD PUSH3 0x461BCD PUSH1 0xE5 SHL DUP2 MSTORE PUSH1 0x20 PUSH1 0x4 DUP3 ADD MSTORE PUSH1 0xC PUSH1 0x24 DUP3 ADD MSTORE PUSH12 0x125B9CDD59999A58DA595B9D PUSH1 0xA2 SHL PUSH1 0x44 DUP3 ADD MSTORE PUSH1 0x64 ADD PUSH2 0x8D0 JUMP JUMPDEST PUSH0 PUSH2 0x108C PUSH1 0x3 SLOAD SWAP1 JUMP JUMPDEST PUSH2 0x1098 DUP4 PUSH2 0x2710 PUSH2 0x56B4 JUMP JUMPDEST PUSH2 0x10A2 SWAP2 SWAP1 PUSH2 0x56CB JUMP JUMPDEST SWAP1 POP PUSH0 DUP2 GT DUP1 ISZERO PUSH2 0x10B5 JUMPI POP PUSH2 0x2710 DUP2 GT ISZERO JUMPDEST PUSH2 0x10EB JUMPI PUSH1 0x40 MLOAD PUSH3 0x461BCD PUSH1 0xE5 SHL DUP2 MSTORE PUSH1 0x20 PUSH1 0x4 DUP3 ADD MSTORE PUSH1 0x7 PUSH1 0x24 DUP3 ADD MSTORE PUSH7 0x3026313030303 PUSH1 0xCC SHL PUSH1 0x44 DUP3 ADD MSTORE PUSH1 0x64 ADD PUSH2 0x8D0 JUMP JUMPDEST PUSH0 JUMPDEST PUSH1 0x6 SLOAD DUP2 LT ISZERO PUSH2 0x167F JUMPI PUSH0 PUSH1 0x6 DUP3 DUP2 SLOAD DUP2 LT PUSH2 0x110B JUMPI PUSH2 0x110B PUSH2 0x5705 JUMP JUMPDEST PUSH0 SWAP2 DUP3 MSTORE PUSH1 0x20 DUP3 KECCAK256 PUSH1 0x4 SWAP2 DUP3 MUL ADD DUP1 SLOAD PUSH1 0x40 MLOAD PUSH4 0x70A08231 PUSH1 0xE0 SHL DUP2 MSTORE ADDRESS SWAP4 DUP2 ADD SWAP4 SWAP1 SWAP4 MSTORE SWAP1 SWAP4 POP PUSH2 0x2710 SWAP2 DUP7 SWAP2 PUSH1 0x1 PUSH1 0x1 PUSH1 0xA0 SHL SUB AND SWAP1 PUSH4 0x70A08231 SWAP1 PUSH1 0x24 ADD PUSH1 0x20 PUSH1 0x40 MLOAD DUP1 DUP4 SUB DUP2 DUP7 GAS STATICCALL ISZERO DUP1 ISZERO PUSH2 0x1167 JUMPI RETURNDATASIZE PUSH0 DUP1 RETURNDATACOPY RETURNDATASIZE PUSH0 REVERT JUMPDEST POP POP POP POP PUSH1 0x40 MLOAD RETURNDATASIZE PUSH1 0x1F NOT PUSH1 0x1F DUP3 ADD AND DUP3 ADD DUP1 PUSH1 0x40 MSTORE POP DUP2 ADD SWAP1 PUSH2 0x118B SWAP2 SWAP1 PUSH2 0x5689 JUMP JUMPDEST PUSH2 0x1195 SWAP2 SWAP1 PUSH2 0x56B4 JUMP JUMPDEST PUSH2 0x119F SWAP2 SWAP1 PUSH2 0x56CB JUMP JUMPDEST SWAP1 POP PUSH0 PUSH2 0x2710 PUSH1 0xF SLOAD DUP4 PUSH2 0x11B3 SWAP2 SWAP1 PUSH2 0x56B4 JUMP JUMPDEST PUSH2 0x11BD SWAP2 SWAP1 PUSH2 0x56CB JUMP JUMPDEST SWAP1 POP PUSH0 PUSH2 0x11CA DUP3 DUP5 PUSH2 0x5854 JUMP JUMPDEST DUP5 SLOAD PUSH1 0x40 MLOAD PUSH4 0xA9059CBB PUSH1 0xE0 SHL DUP2 MSTORE CALLER PUSH1 0x4 DUP3 ADD MSTORE PUSH1 0x24 DUP2 ADD DUP4 SWAP1 MSTORE SWAP2 SWAP3 POP PUSH1 0x1 PUSH1 0x1 PUSH1 0xA0 SHL SUB AND SWAP1 PUSH4 0xA9059CBB SWAP1 PUSH1 0x44 ADD PUSH1 0x20 PUSH1 0x40 MLOAD DUP1 DUP4 SUB DUP2 PUSH0 DUP8 GAS CALL ISZERO DUP1 ISZERO PUSH2 0x1218 JUMPI RETURNDATASIZE PUSH0 DUP1 RETURNDATACOPY RETURNDATASIZE PUSH0 REVERT JUMPDEST POP POP POP POP PUSH1 0x40 MLOAD RETURNDATASIZE PUSH1 0x1F NOT PUSH1 0x1F DUP3 ADD AND DUP3 ADD DUP1 PUSH1 0x40 MSTORE POP DUP2 ADD SWAP1 PUSH2 0x123C SWAP2 SWAP1 PUSH2 0x5867 JUMP JUMPDEST POP PUSH1 0x40 MLOAD PUSH1 0x20 ADD PUSH2 0x124C SWAP1 PUSH2 0x5882 JUMP JUMPDEST PUSH1 0x40 MLOAD PUSH1 0x20 DUP2 DUP4 SUB SUB DUP2 MSTORE SWAP1 PUSH1 0x40 MSTORE DUP1 MLOAD SWAP1 PUSH1 0x20 ADD KECCAK256 DUP5 PUSH1 0x2 ADD PUSH1 0x40 MLOAD PUSH1 0x20 ADD PUSH2 0x1276 SWAP2 SWAP1 PUSH2 0x57D0 JUMP JUMPDEST PUSH1 0x40 MLOAD PUSH1 0x20 DUP2 DUP4 SUB SUB DUP2 MSTORE SWAP1 PUSH1 0x40 MSTORE DUP1 MLOAD SWAP1 PUSH1 0x20 ADD KECCAK256 SUB PUSH2 0x145E JUMPI PUSH1 0x40 DUP1 MLOAD PUSH1 0x2 DUP1 DUP3 MSTORE PUSH1 0x60 DUP3 ADD DUP4 MSTORE PUSH0 SWAP3 PUSH1 0x20 DUP4 ADD SWAP1 DUP1 CALLDATASIZE DUP4 CALLDATACOPY POP POP DUP7 SLOAD DUP3 MLOAD SWAP3 SWAP4 POP PUSH1 0x1 PUSH1 0x1 PUSH1 0xA0 SHL SUB AND SWAP2 DUP4 SWAP2 POP PUSH0 SWAP1 PUSH2 0x12CF JUMPI PUSH2 0x12CF PUSH2 0x5705 JUMP JUMPDEST PUSH1 0x1 PUSH1 0x1 PUSH1 0xA0 SHL SUB SWAP3 DUP4 AND PUSH1 0x20 SWAP2 DUP3 MUL SWAP3 SWAP1 SWAP3 ADD DUP2 ADD SWAP2 SWAP1 SWAP2 MSTORE PUSH1 0x7 SLOAD PUSH1 0x40 DUP1 MLOAD PUSH4 0x15AB88C9 PUSH1 0xE3 SHL DUP2 MSTORE SWAP1 MLOAD SWAP2 SWAP1 SWAP4 AND SWAP3 PUSH4 0xAD5C4648 SWAP3 PUSH1 0x4 DUP1 DUP4 ADD SWAP4 SWAP2 SWAP3 DUP3 SWAP1 SUB ADD DUP2 DUP7 GAS STATICCALL ISZERO DUP1 ISZERO PUSH2 0x1326 JUMPI RETURNDATASIZE PUSH0 DUP1 RETURNDATACOPY RETURNDATASIZE PUSH0 REVERT JUMPDEST POP POP POP POP PUSH1 0x40 MLOAD RETURNDATASIZE PUSH1 0x1F NOT PUSH1 0x1F DUP3 ADD AND DUP3 ADD DUP1 PUSH1 0x40 MSTORE POP DUP2 ADD SWAP1 PUSH2 0x134A SWAP2 SWAP1 PUSH2 0x56EA JUMP JUMPDEST DUP2 PUSH1 0x1 DUP2 MLOAD DUP2 LT PUSH2 0x135D JUMPI PUSH2 0x135D PUSH2 0x5705 JUMP JUMPDEST PUSH1 0x1 PUSH1 0x1 PUSH1 0xA0 SHL SUB SWAP3 DUP4 AND PUSH1 0x20 SWAP2 DUP3 MUL SWAP3 SWAP1 SWAP3 ADD ADD MSTORE PUSH1 0x7 SLOAD PUSH1 0x40 MLOAD PUSH4 0xD06CA61F PUSH1 0xE0 SHL DUP2 MSTORE PUSH0 SWAP3 SWAP2 SWAP1 SWAP2 AND SWAP1 PUSH4 0xD06CA61F SWAP1 PUSH2 0x13A0 SWAP1 DUP8 SWAP1 DUP7 SWAP1 PUSH1 0x4 ADD PUSH2 0x58D3 JUMP JUMPDEST PUSH0 PUSH1 0x40 MLOAD DUP1 DUP4 SUB DUP2 DUP7 GAS STATICCALL ISZERO DUP1 ISZERO PUSH2 0x13BA JUMPI RETURNDATASIZE PUSH0 DUP1 RETURNDATACOPY RETURNDATASIZE PUSH0 REVERT JUMPDEST POP POP POP POP PUSH1 0x40 MLOAD RETURNDATASIZE PUSH0 DUP3 RETURNDATACOPY PUSH1 0x1F RETURNDATASIZE SWAP1 DUP2 ADD PUSH1 0x1F NOT AND DUP3 ADD PUSH1 0x40 MSTORE PUSH2 0x13E1 SWAP2 SWAP1 DUP2 ADD SWAP1 PUSH2 0x58EB JUMP JUMPDEST SWAP1 POP PUSH0 PUSH2 0x2710 PUSH1 0x10 SLOAD PUSH2 0x2710 PUSH2 0x13F7 SWAP2 SWAP1 PUSH2 0x5854 JUMP JUMPDEST DUP4 PUSH1 0x1 DUP2 MLOAD DUP2 LT PUSH2 0x140A JUMPI PUSH2 0x140A PUSH2 0x5705 JUMP JUMPDEST PUSH1 0x20 MUL PUSH1 0x20 ADD ADD MLOAD PUSH2 0x141C SWAP2 SWAP1 PUSH2 0x56B4 JUMP JUMPDEST PUSH2 0x1426 SWAP2 SWAP1 PUSH2 0x56CB JUMP JUMPDEST DUP8 SLOAD SWAP1 SWAP2 POP PUSH2 0x1440 SWAP1 PUSH1 0x1 PUSH1 0x1 PUSH1 0xA0 SHL SUB AND DUP7 DUP4 ADDRESS PUSH2 0x3A1B JUMP JUMPDEST PUSH1 0x11 PUSH0 DUP3 DUP3 SLOAD PUSH2 0x1450 SWAP2 SWAP1 PUSH2 0x5841 JUMP JUMPDEST SWAP1 SWAP2 SSTORE POP PUSH2 0x166F SWAP4 POP POP POP POP JUMP JUMPDEST PUSH1 0x40 MLOAD PUSH1 0x20 ADD PUSH2 0x146D SWAP1 PUSH2 0x57C2 JUMP JUMPDEST PUSH1 0x40 MLOAD PUSH1 0x20 DUP2 DUP4 SUB SUB DUP2 MSTORE SWAP1 PUSH1 0x40 MSTORE DUP1 MLOAD SWAP1 PUSH1 0x20 ADD KECCAK256 DUP5 PUSH1 0x2 ADD PUSH1 0x40 MLOAD PUSH1 0x20 ADD PUSH2 0x1497 SWAP2 SWAP1 PUSH2 0x57D0 JUMP JUMPDEST PUSH1 0x40 MLOAD PUSH1 0x20 DUP2 DUP4 SUB SUB DUP2 MSTORE SWAP1 PUSH1 0x40 MSTORE DUP1 MLOAD SWAP1 PUSH1 0x20 ADD KECCAK256 SUB PUSH2 0x1627 JUMPI DUP4 SLOAD PUSH1 0x3 DUP6 ADD SLOAD PUSH1 0x7 SLOAD PUSH1 0x40 DUP1 MLOAD PUSH4 0x15AB88C9 PUSH1 0xE3 SHL DUP2 MSTORE SWAP1 MLOAD PUSH0 SWAP5 PUSH1 0x1 PUSH1 0x1 PUSH1 0xA0 SHL SUB SWAP1 DUP2 AND SWAP5 PUSH3 0xFFFFFF AND SWAP4 AND SWAP2 PUSH4 0xAD5C4648 SWAP2 PUSH1 0x4 DUP1 DUP4 ADD SWAP3 PUSH1 0x20 SWAP3 SWAP2 SWAP1 DUP3 SWAP1 SUB ADD DUP2 DUP7 GAS STATICCALL ISZERO DUP1 ISZERO PUSH2 0x150A JUMPI RETURNDATASIZE PUSH0 DUP1 RETURNDATACOPY RETURNDATASIZE PUSH0 REVERT JUMPDEST POP POP POP POP PUSH1 0x40 MLOAD RETURNDATASIZE PUSH1 0x1F NOT PUSH1 0x1F DUP3 ADD AND DUP3 ADD DUP1 PUSH1 0x40 MSTORE POP DUP2 ADD SWAP1 PUSH2 0x152E SWAP2 SWAP1 PUSH2 0x56EA JUMP JUMPDEST PUSH1 0x40 MLOAD PUSH1 0x20 ADD PUSH2 0x1540 SWAP4 SWAP3 SWAP2 SWAP1 PUSH2 0x5971 JUMP JUMPDEST PUSH1 0x40 DUP1 MLOAD PUSH1 0x1F NOT DUP2 DUP5 SUB ADD DUP2 MSTORE SWAP1 DUP3 SWAP1 MSTORE PUSH1 0x9 SLOAD PUSH4 0xCDCA1753 PUSH1 0xE0 SHL DUP4 MSTORE SWAP1 SWAP3 POP PUSH0 SWAP2 PUSH1 0x1 PUSH1 0x1 PUSH1 0xA0 SHL SUB SWAP1 SWAP2 AND SWAP1 PUSH4 0xCDCA1753 SWAP1 PUSH2 0x1585 SWAP1 DUP6 SWAP1 DUP9 SWAP1 PUSH1 0x4 ADD PUSH2 0x59AC JUMP JUMPDEST PUSH1 0x20 PUSH1 0x40 MLOAD DUP1 DUP4 SUB DUP2 PUSH0 DUP8 GAS CALL ISZERO DUP1 ISZERO PUSH2 0x15A1 JUMPI RETURNDATASIZE PUSH0 DUP1 RETURNDATACOPY RETURNDATASIZE PUSH0 REVERT JUMPDEST POP POP POP POP PUSH1 0x40 MLOAD RETURNDATASIZE PUSH1 0x1F NOT PUSH1 0x1F DUP3 ADD AND DUP3 ADD DUP1 PUSH1 0x40 MSTORE POP DUP2 ADD SWAP1 PUSH2 0x15C5 SWAP2 SWAP1 PUSH2 0x5689 JUMP JUMPDEST SWAP1 POP PUSH0 PUSH2 0x2710 PUSH1 0x10 SLOAD PUSH2 0x2710 PUSH2 0x15DB SWAP2 SWAP1 PUSH2 0x5854 JUMP JUMPDEST PUSH2 0x15E5 SWAP1 DUP5 PUSH2 0x56B4 JUMP JUMPDEST PUSH2 0x15EF SWAP2 SWAP1 PUSH2 0x56CB JUMP JUMPDEST DUP8 SLOAD PUSH1 0x3 DUP10 ADD SLOAD SWAP2 SWAP3 POP PUSH2 0x1617 SWAP2 PUSH1 0x1 PUSH1 0x1 PUSH1 0xA0 SHL SUB SWAP1 SWAP2 AND SWAP1 DUP8 SWAP1 PUSH3 0xFFFFFF AND DUP5 ADDRESS PUSH2 0x3C06 JUMP JUMPDEST PUSH1 0x12 PUSH0 DUP3 DUP3 SLOAD PUSH2 0x1450 SWAP2 SWAP1 PUSH2 0x5841 JUMP JUMPDEST PUSH1 0x40 MLOAD PUSH3 0x461BCD PUSH1 0xE5 SHL DUP2 MSTORE PUSH1 0x20 PUSH1 0x4 DUP3 ADD MSTORE PUSH1 0x17 PUSH1 0x24 DUP3 ADD MSTORE PUSH32 0x496E76616C696420556E69737761702076657273696F6E000000000000000000 PUSH1 0x44 DUP3 ADD MSTORE PUSH1 0x64 ADD PUSH2 0x8D0 JUMP JUMPDEST POP POP PUSH1 0x1 SWAP1 SWAP3 ADD SWAP2 POP PUSH2 0x10ED SWAP1 POP JUMP JUMPDEST POP PUSH2 0x168A CALLER DUP4 PUSH2 0x39E7 JUMP JUMPDEST CALLER PUSH0 SWAP1 DUP2 MSTORE PUSH1 0xD PUSH1 0x20 MSTORE PUSH1 0x40 DUP2 KECCAK256 SLOAD PUSH2 0x2710 SWAP1 PUSH2 0x16A8 SWAP1 DUP5 SWAP1 PUSH2 0x56B4 JUMP JUMPDEST PUSH2 0x16B2 SWAP2 SWAP1 PUSH2 0x56CB JUMP JUMPDEST SWAP1 POP DUP1 DUP1 ISZERO PUSH2 0x1735 JUMPI PUSH1 0x40 MLOAD PUSH0 SWAP1 CALLER SWAP1 DUP4 SWAP1 DUP4 DUP2 DUP2 DUP2 DUP6 DUP8 GAS CALL SWAP3 POP POP POP RETURNDATASIZE DUP1 PUSH0 DUP2 EQ PUSH2 0x16FA JUMPI PUSH1 0x40 MLOAD SWAP2 POP PUSH1 0x1F NOT PUSH1 0x3F RETURNDATASIZE ADD AND DUP3 ADD PUSH1 0x40 MSTORE RETURNDATASIZE DUP3 MSTORE RETURNDATASIZE PUSH0 PUSH1 0x20 DUP5 ADD RETURNDATACOPY PUSH2 0x16FF JUMP JUMPDEST PUSH1 0x60 SWAP2 POP JUMPDEST POP POP SWAP1 POP DUP1 PUSH2 0xFB8 JUMPI PUSH1 0x40 MLOAD PUSH3 0x461BCD PUSH1 0xE5 SHL DUP2 MSTORE PUSH1 0x20 PUSH1 0x4 DUP3 ADD MSTORE PUSH1 0x2 PUSH1 0x24 DUP3 ADD MSTORE PUSH2 0x2A29 PUSH1 0xF1 SHL PUSH1 0x44 DUP3 ADD MSTORE PUSH1 0x64 ADD PUSH2 0x8D0 JUMP JUMPDEST POP POP POP POP JUMP JUMPDEST PUSH1 0x6 DUP2 DUP2 SLOAD DUP2 LT PUSH2 0x174A JUMPI PUSH0 DUP1 REVERT JUMPDEST PUSH0 SWAP2 DUP3 MSTORE PUSH1 0x20 SWAP1 SWAP2 KECCAK256 PUSH1 0x4 SWAP1 SWAP2 MUL ADD DUP1 SLOAD PUSH1 0x1 DUP3 ADD SLOAD PUSH1 0x2 DUP4 ADD DUP1 SLOAD PUSH1 0x1 PUSH1 0x1 PUSH1 0xA0 SHL SUB SWAP1 SWAP4 AND SWAP5 POP SWAP1 SWAP3 SWAP2 PUSH2 0x177F SWAP1 PUSH2 0x5635 JUMP JUMPDEST DUP1 PUSH1 0x1F ADD PUSH1 0x20 DUP1 SWAP2 DIV MUL PUSH1 0x20 ADD PUSH1 0x40 MLOAD SWAP1 DUP2 ADD PUSH1 0x40 MSTORE DUP1 SWAP3 SWAP2 SWAP1 DUP2 DUP2 MSTORE PUSH1 0x20 ADD DUP3 DUP1 SLOAD PUSH2 0x17AB SWAP1 PUSH2 0x5635 JUMP JUMPDEST DUP1 ISZERO PUSH2 0x17F6 JUMPI DUP1 PUSH1 0x1F LT PUSH2 0x17CD JUMPI PUSH2 0x100 DUP1 DUP4 SLOAD DIV MUL DUP4 MSTORE SWAP2 PUSH1 0x20 ADD SWAP2 PUSH2 0x17F6 JUMP JUMPDEST DUP3 ADD SWAP2 SWAP1 PUSH0 MSTORE PUSH1 0x20 PUSH0 KECCAK256 SWAP1 JUMPDEST DUP2 SLOAD DUP2 MSTORE SWAP1 PUSH1 0x1 ADD SWAP1 PUSH1 0x20 ADD DUP1 DUP4 GT PUSH2 0x17D9 JUMPI DUP3 SWAP1 SUB PUSH1 0x1F AND DUP3 ADD SWAP2 JUMPDEST POP POP POP PUSH1 0x3 SWAP1 SWAP4 ADD SLOAD SWAP2 SWAP3 POP POP PUSH3 0xFFFFFF AND DUP5 JUMP JUMPDEST PUSH1 0xB DUP2 DUP2 SLOAD DUP2 LT PUSH2 0x181A JUMPI PUSH0 DUP1 REVERT JUMPDEST PUSH0 SWAP2 DUP3 MSTORE PUSH1 0x20 SWAP1 SWAP2 KECCAK256 PUSH1 0x5 SWAP1 SWAP2 MUL ADD DUP1 SLOAD PUSH1 0x1 DUP3 ADD SLOAD PUSH1 0x2 DUP4 ADD SLOAD PUSH1 0x3 DUP5 ADD DUP1 SLOAD PUSH1 0x1 PUSH1 0x1 PUSH1 0xA0 SHL SUB SWAP5 DUP6 AND SWAP7 POP SWAP3 SWAP1 SWAP4 AND SWAP4 SWAP1 SWAP3 SWAP1 SWAP2 PUSH2 0x185A SWAP1 PUSH2 0x5635 JUMP JUMPDEST DUP1 PUSH1 0x1F ADD PUSH1 0x20 DUP1 SWAP2 DIV MUL PUSH1 0x20 ADD PUSH1 0x40 MLOAD SWAP1 DUP2 ADD PUSH1 0x40 MSTORE DUP1 SWAP3 SWAP2 SWAP1 DUP2 DUP2 MSTORE PUSH1 0x20 ADD DUP3 DUP1 SLOAD PUSH2 0x1886 SWAP1 PUSH2 0x5635 JUMP JUMPDEST DUP1 ISZERO PUSH2 0x18D1 JUMPI DUP1 PUSH1 0x1F LT PUSH2 0x18A8 JUMPI PUSH2 0x100 DUP1 DUP4 SLOAD DIV MUL DUP4 MSTORE SWAP2 PUSH1 0x20 ADD SWAP2 PUSH2 0x18D1 JUMP JUMPDEST DUP3 ADD SWAP2 SWAP1 PUSH0 MSTORE PUSH1 0x20 PUSH0 KECCAK256 SWAP1 JUMPDEST DUP2 SLOAD DUP2 MSTORE SWAP1 PUSH1 0x1 ADD SWAP1 PUSH1 0x20 ADD DUP1 DUP4 GT PUSH2 0x18B4 JUMPI DUP3 SWAP1 SUB PUSH1 0x1F AND DUP3 ADD SWAP2 JUMPDEST POP POP POP PUSH1 0x4 SWAP1 SWAP4 ADD SLOAD SWAP2 SWAP3 POP POP PUSH3 0xFFFFFF AND DUP6 JUMP JUMPDEST PUSH1 0x40 MLOAD PUSH1 0x20 ADD PUSH2 0x18F5 SWAP1 PUSH2 0x5882 JUMP JUMPDEST PUSH1 0x40 MLOAD PUSH1 0x20 DUP2 DUP4 SUB SUB DUP2 MSTORE SWAP1 PUSH1 0x40 MSTORE DUP1 MLOAD SWAP1 PUSH1 0x20 ADD KECCAK256 DUP3 PUSH1 0x40 MLOAD PUSH1 0x20 ADD PUSH2 0x191C SWAP2 SWAP1 PUSH2 0x59CD JUMP JUMPDEST PUSH1 0x40 MLOAD PUSH1 0x20 DUP2 DUP4 SUB SUB DUP2 MSTORE SWAP1 PUSH1 0x40 MSTORE DUP1 MLOAD SWAP1 PUSH1 0x20 ADD KECCAK256 SUB PUSH2 0x1AE7 JUMPI PUSH1 0x40 DUP1 MLOAD PUSH1 0x2 DUP1 DUP3 MSTORE PUSH1 0x60 DUP3 ADD DUP4 MSTORE PUSH0 SWAP3 PUSH1 0x20 DUP4 ADD SWAP1 DUP1 CALLDATASIZE DUP4 CALLDATACOPY POP POP PUSH1 0x7 SLOAD PUSH1 0x40 DUP1 MLOAD PUSH4 0x15AB88C9 PUSH1 0xE3 SHL DUP2 MSTORE SWAP1 MLOAD SWAP4 SWAP5 POP PUSH1 0x1 PUSH1 0x1 PUSH1 0xA0 SHL SUB SWAP1 SWAP2 AND SWAP3 PUSH4 0xAD5C4648 SWAP3 POP PUSH1 0x4 DUP1 DUP4 ADD SWAP3 PUSH1 0x20 SWAP3 SWAP2 SWAP1 DUP3 SWAP1 SUB ADD DUP2 DUP7 GAS STATICCALL ISZERO DUP1 ISZERO PUSH2 0x199E JUMPI RETURNDATASIZE PUSH0 DUP1 RETURNDATACOPY RETURNDATASIZE PUSH0 REVERT JUMPDEST POP POP POP POP PUSH1 0x40 MLOAD RETURNDATASIZE PUSH1 0x1F NOT PUSH1 0x1F DUP3 ADD AND DUP3 ADD DUP1 PUSH1 0x40 MSTORE POP DUP2 ADD SWAP1 PUSH2 0x19C2 SWAP2 SWAP1 PUSH2 0x56EA JUMP JUMPDEST DUP2 PUSH0 DUP2 MLOAD DUP2 LT PUSH2 0x19D4 JUMPI PUSH2 0x19D4 PUSH2 0x5705 JUMP JUMPDEST PUSH1 0x20 MUL PUSH1 0x20 ADD ADD SWAP1 PUSH1 0x1 PUSH1 0x1 PUSH1 0xA0 SHL SUB AND SWAP1 DUP2 PUSH1 0x1 PUSH1 0x1 PUSH1 0xA0 SHL SUB AND DUP2 MSTORE POP POP DUP5 DUP2 PUSH1 0x1 DUP2 MLOAD DUP2 LT PUSH2 0x1A08 JUMPI PUSH2 0x1A08 PUSH2 0x5705 JUMP JUMPDEST PUSH1 0x1 PUSH1 0x1 PUSH1 0xA0 SHL SUB SWAP3 DUP4 AND PUSH1 0x20 SWAP2 DUP3 MUL SWAP3 SWAP1 SWAP3 ADD ADD MSTORE PUSH1 0x7 SLOAD PUSH1 0x40 MLOAD PUSH4 0xD06CA61F PUSH1 0xE0 SHL DUP2 MSTORE PUSH0 SWAP3 SWAP2 SWAP1 SWAP2 AND SWAP1 PUSH4 0xD06CA61F SWAP1 PUSH2 0x1A4B SWAP1 DUP9 SWAP1 DUP7 SWAP1 PUSH1 0x4 ADD PUSH2 0x58D3 JUMP JUMPDEST PUSH0 PUSH1 0x40 MLOAD DUP1 DUP4 SUB DUP2 DUP7 GAS STATICCALL ISZERO DUP1 ISZERO PUSH2 0x1A65 JUMPI RETURNDATASIZE PUSH0 DUP1 RETURNDATACOPY RETURNDATASIZE PUSH0 REVERT JUMPDEST POP POP POP POP PUSH1 0x40 MLOAD RETURNDATASIZE PUSH0 DUP3 RETURNDATACOPY PUSH1 0x1F RETURNDATASIZE SWAP1 DUP2 ADD PUSH1 0x1F NOT AND DUP3 ADD PUSH1 0x40 MSTORE PUSH2 0x1A8C SWAP2 SWAP1 DUP2 ADD SWAP1 PUSH2 0x58EB JUMP JUMPDEST SWAP1 POP PUSH0 PUSH2 0x2710 PUSH1 0x10 SLOAD PUSH2 0x2710 PUSH2 0x1AA2 SWAP2 SWAP1 PUSH2 0x5854 JUMP JUMPDEST DUP4 PUSH1 0x1 DUP2 MLOAD DUP2 LT PUSH2 0x1AB5 JUMPI PUSH2 0x1AB5 PUSH2 0x5705 JUMP JUMPDEST PUSH1 0x20 MUL PUSH1 0x20 ADD ADD MLOAD PUSH2 0x1AC7 SWAP2 SWAP1 PUSH2 0x56B4 JUMP JUMPDEST PUSH2 0x1AD1 SWAP2 SWAP1 PUSH2 0x56CB JUMP JUMPDEST SWAP1 POP PUSH2 0x1ADE DUP8 DUP8 DUP4 PUSH2 0x3DC5 JUMP JUMPDEST POP POP POP POP PUSH2 0x1735 JUMP JUMPDEST PUSH1 0x40 MLOAD PUSH1 0x20 ADD PUSH2 0x1AF6 SWAP1 PUSH2 0x57C2 JUMP JUMPDEST PUSH1 0x40 MLOAD PUSH1 0x20 DUP2 DUP4 SUB SUB DUP2 MSTORE SWAP1 PUSH1 0x40 MSTORE DUP1 MLOAD SWAP1 PUSH1 0x20 ADD KECCAK256 DUP3 PUSH1 0x40 MLOAD PUSH1 0x20 ADD PUSH2 0x1B1D SWAP2 SWAP1 PUSH2 0x59CD JUMP JUMPDEST PUSH1 0x40 MLOAD PUSH1 0x20 DUP2 DUP4 SUB SUB DUP2 MSTORE SWAP1 PUSH1 0x40 MSTORE DUP1 MLOAD SWAP1 PUSH1 0x20 ADD KECCAK256 SUB PUSH2 0x1C7C JUMPI PUSH1 0x7 SLOAD PUSH1 0x40 DUP1 MLOAD PUSH4 0x15AB88C9 PUSH1 0xE3 SHL DUP2 MSTORE SWAP1 MLOAD PUSH0 SWAP3 PUSH1 0x1 PUSH1 0x1 PUSH1 0xA0 SHL SUB AND SWAP2 PUSH4 0xAD5C4648 SWAP2 PUSH1 0x4 DUP1 DUP4 ADD SWAP3 PUSH1 0x20 SWAP3 SWAP2 SWAP1 DUP3 SWAP1 SUB ADD DUP2 DUP7 GAS STATICCALL ISZERO DUP1 ISZERO PUSH2 0x1B7F JUMPI RETURNDATASIZE PUSH0 DUP1 RETURNDATACOPY RETURNDATASIZE PUSH0 REVERT JUMPDEST POP POP POP POP PUSH1 0x40 MLOAD RETURNDATASIZE PUSH1 0x1F NOT PUSH1 0x1F DUP3 ADD AND DUP3 ADD DUP1 PUSH1 0x40 MSTORE POP DUP2 ADD SWAP1 PUSH2 0x1BA3 SWAP2 SWAP1 PUSH2 0x56EA JUMP JUMPDEST DUP3 DUP7 PUSH1 0x40 MLOAD PUSH1 0x20 ADD PUSH2 0x1BB7 SWAP4 SWAP3 SWAP2 SWAP1 PUSH2 0x5971 JUMP JUMPDEST PUSH1 0x40 DUP1 MLOAD PUSH1 0x1F NOT DUP2 DUP5 SUB ADD DUP2 MSTORE SWAP1 DUP3 SWAP1 MSTORE PUSH1 0x9 SLOAD PUSH4 0xCDCA1753 PUSH1 0xE0 SHL DUP4 MSTORE SWAP1 SWAP3 POP PUSH0 SWAP2 PUSH1 0x1 PUSH1 0x1 PUSH1 0xA0 SHL SUB SWAP1 SWAP2 AND SWAP1 PUSH4 0xCDCA1753 SWAP1 PUSH2 0x1BFC SWAP1 DUP6 SWAP1 DUP10 SWAP1 PUSH1 0x4 ADD PUSH2 0x59AC JUMP JUMPDEST PUSH1 0x20 PUSH1 0x40 MLOAD DUP1 DUP4 SUB DUP2 PUSH0 DUP8 GAS CALL ISZERO DUP1 ISZERO PUSH2 0x1C18 JUMPI RETURNDATASIZE PUSH0 DUP1 RETURNDATACOPY RETURNDATASIZE PUSH0 REVERT JUMPDEST POP POP POP POP PUSH1 0x40 MLOAD RETURNDATASIZE PUSH1 0x1F NOT PUSH1 0x1F DUP3 ADD AND DUP3 ADD DUP1 PUSH1 0x40 MSTORE POP DUP2 ADD SWAP1 PUSH2 0x1C3C SWAP2 SWAP1 PUSH2 0x5689 JUMP JUMPDEST SWAP1 POP PUSH0 PUSH2 0x2710 PUSH1 0x10 SLOAD PUSH2 0x2710 PUSH2 0x1C52 SWAP2 SWAP1 PUSH2 0x5854 JUMP JUMPDEST PUSH2 0x1C5C SWAP1 DUP5 PUSH2 0x56B4 JUMP JUMPDEST PUSH2 0x1C66 SWAP2 SWAP1 PUSH2 0x56CB JUMP JUMPDEST SWAP1 POP PUSH2 0x1C74 DUP8 DUP8 DUP7 DUP5 PUSH2 0x3F22 JUMP JUMPDEST POP POP POP PUSH2 0x1735 JUMP JUMPDEST PUSH1 0x40 MLOAD PUSH3 0x461BCD PUSH1 0xE5 SHL DUP2 MSTORE PUSH1 0x20 PUSH1 0x4 DUP3 ADD MSTORE PUSH1 0x3 PUSH1 0x24 DUP3 ADD MSTORE PUSH3 0x10AAAB PUSH1 0xE9 SHL PUSH1 0x44 DUP3 ADD MSTORE PUSH1 0x64 ADD PUSH2 0x8D0 JUMP JUMPDEST PUSH2 0x1CB2 PUSH2 0x38BF JUMP JUMPDEST PUSH0 JUMPDEST PUSH1 0xB SLOAD DUP2 LT ISZERO PUSH2 0x2004 JUMPI DUP2 PUSH1 0x1 PUSH1 0x1 PUSH1 0xA0 SHL SUB AND PUSH1 0xB DUP3 DUP2 SLOAD DUP2 LT PUSH2 0x1CDB JUMPI PUSH2 0x1CDB PUSH2 0x5705 JUMP JUMPDEST PUSH0 SWAP2 DUP3 MSTORE PUSH1 0x20 SWAP1 SWAP2 KECCAK256 PUSH1 0x5 SWAP1 SWAP2 MUL ADD SLOAD PUSH1 0x1 PUSH1 0x1 PUSH1 0xA0 SHL SUB AND SUB PUSH2 0x1FFC JUMPI PUSH0 PUSH1 0xB DUP3 DUP2 SLOAD DUP2 LT PUSH2 0x1D0D JUMPI PUSH2 0x1D0D PUSH2 0x5705 JUMP JUMPDEST PUSH0 SWAP2 DUP3 MSTORE PUSH1 0x20 SWAP2 DUP3 SWAP1 KECCAK256 PUSH1 0x40 DUP1 MLOAD PUSH1 0xA0 DUP2 ADD DUP3 MSTORE PUSH1 0x5 SWAP1 SWAP4 MUL SWAP1 SWAP2 ADD DUP1 SLOAD PUSH1 0x1 PUSH1 0x1 PUSH1 0xA0 SHL SUB SWAP1 DUP2 AND DUP5 MSTORE PUSH1 0x1 DUP3 ADD SLOAD AND SWAP4 DUP4 ADD SWAP4 SWAP1 SWAP4 MSTORE PUSH1 0x2 DUP4 ADD SLOAD SWAP1 DUP3 ADD MSTORE PUSH1 0x3 DUP3 ADD DUP1 SLOAD SWAP2 SWAP3 SWAP2 PUSH1 0x60 DUP5 ADD SWAP2 SWAP1 PUSH2 0x1D66 SWAP1 PUSH2 0x5635 JUMP JUMPDEST DUP1 PUSH1 0x1F ADD PUSH1 0x20 DUP1 SWAP2 DIV MUL PUSH1 0x20 ADD PUSH1 0x40 MLOAD SWAP1 DUP2 ADD PUSH1 0x40 MSTORE DUP1 SWAP3 SWAP2 SWAP1 DUP2 DUP2 MSTORE PUSH1 0x20 ADD DUP3 DUP1 SLOAD PUSH2 0x1D92 SWAP1 PUSH2 0x5635 JUMP JUMPDEST DUP1 ISZERO PUSH2 0x1DDD JUMPI DUP1 PUSH1 0x1F LT PUSH2 0x1DB4 JUMPI PUSH2 0x100 DUP1 DUP4 SLOAD DIV MUL DUP4 MSTORE SWAP2 PUSH1 0x20 ADD SWAP2 PUSH2 0x1DDD JUMP JUMPDEST DUP3 ADD SWAP2 SWAP1 PUSH0 MSTORE PUSH1 0x20 PUSH0 KECCAK256 SWAP1 JUMPDEST DUP2 SLOAD DUP2 MSTORE SWAP1 PUSH1 0x1 ADD SWAP1 PUSH1 0x20 ADD DUP1 DUP4 GT PUSH2 0x1DC0 JUMPI DUP3 SWAP1 SUB PUSH1 0x1F AND DUP3 ADD SWAP2 JUMPDEST POP POP POP SWAP2 DUP4 MSTORE POP POP PUSH1 0x4 SWAP2 DUP3 ADD SLOAD PUSH3 0xFFFFFF AND PUSH1 0x20 SWAP2 DUP3 ADD MSTORE PUSH1 0x40 DUP1 DUP5 ADD MLOAD SWAP2 DUP5 ADD MLOAD PUSH1 0x60 DUP6 ADD MLOAD PUSH1 0x80 DUP7 ADD MLOAD SWAP3 MLOAD PUSH4 0x1CE07AE9 PUSH1 0xE1 SHL DUP2 MSTORE SWAP6 SWAP7 POP ADDRESS SWAP6 PUSH4 0x39C0F5D2 SWAP6 PUSH2 0x1E30 SWAP5 DUP7 SWAP4 SWAP3 SWAP1 SWAP2 ADD PUSH2 0x51A2 JUMP JUMPDEST PUSH0 PUSH1 0x40 MLOAD DUP1 DUP4 SUB DUP2 DUP6 DUP9 DUP1 EXTCODESIZE ISZERO DUP1 ISZERO PUSH2 0x1E47 JUMPI PUSH0 DUP1 REVERT JUMPDEST POP GAS CALL SWAP4 POP POP POP POP DUP1 ISZERO PUSH2 0x1E59 JUMPI POP PUSH1 0x1 JUMPDEST PUSH2 0x1FC8 JUMPI PUSH1 0x40 DUP1 MLOAD PUSH1 0xA0 DUP2 ADD DUP3 MSTORE CALLER DUP2 MSTORE PUSH1 0x20 DUP4 DUP2 ADD MLOAD PUSH1 0x1 PUSH1 0x1 PUSH1 0xA0 SHL SUB SWAP1 DUP2 AND SWAP2 DUP4 ADD SWAP2 DUP3 MSTORE DUP5 DUP5 ADD MLOAD SWAP4 DUP4 ADD SWAP4 DUP5 MSTORE PUSH1 0x60 DUP1 DUP7 ADD MLOAD SWAP1 DUP5 ADD SWAP1 DUP2 MSTORE PUSH1 0x80 DUP1 DUP8 ADD MLOAD PUSH3 0xFFFFFF AND SWAP1 DUP6 ADD MSTORE PUSH1 0xB DUP1 SLOAD PUSH1 0x1 DUP2 ADD DUP3 SSTORE PUSH0 SWAP2 SWAP1 SWAP2 MSTORE DUP5 MLOAD PUSH1 0x5 SWAP1 SWAP2 MUL PUSH32 0x175B7A638427703F0DBE7BB9BBF987A2551717B34E79F33B5B1008D1FA01DB9 DUP2 ADD DUP1 SLOAD SWAP3 DUP6 AND PUSH1 0x1 PUSH1 0x1 PUSH1 0xA0 SHL SUB NOT SWAP4 DUP5 AND OR DUP2 SSTORE SWAP5 MLOAD PUSH32 0x175B7A638427703F0DBE7BB9BBF987A2551717B34E79F33B5B1008D1FA01DBA DUP3 ADD DUP1 SLOAD SWAP2 SWAP1 SWAP6 AND SWAP3 AND SWAP2 SWAP1 SWAP2 OR SWAP1 SWAP3 SSTORE SWAP4 MLOAD PUSH32 0x175B7A638427703F0DBE7BB9BBF987A2551717B34E79F33B5B1008D1FA01DBB DUP3 ADD SSTORE SWAP3 MLOAD SWAP2 SWAP3 SWAP1 SWAP2 PUSH32 0x175B7A638427703F0DBE7BB9BBF987A2551717B34E79F33B5B1008D1FA01DBC SWAP1 SWAP2 ADD SWAP1 PUSH2 0x1F82 SWAP1 DUP3 PUSH2 0x5A27 JUMP JUMPDEST POP PUSH1 0x80 SWAP2 SWAP1 SWAP2 ADD MLOAD PUSH1 0x4 SWAP1 SWAP2 ADD DUP1 SLOAD PUSH3 0xFFFFFF NOT AND PUSH3 0xFFFFFF SWAP1 SWAP3 AND SWAP2 SWAP1 SWAP2 OR SWAP1 SSTORE CALLER PUSH0 SWAP1 DUP2 MSTORE PUSH1 0xC PUSH1 0x20 MSTORE PUSH1 0x40 DUP2 KECCAK256 DUP1 SLOAD SWAP2 PUSH2 0x1FBE DUP4 PUSH2 0x5AE4 JUMP JUMPDEST SWAP2 SWAP1 POP SSTORE POP PUSH2 0x1FFA JUMP JUMPDEST PUSH2 0x1FD1 DUP3 PUSH2 0x4054 JUMP JUMPDEST PUSH1 0x1 PUSH1 0x1 PUSH1 0xA0 SHL SUB DUP4 AND PUSH0 SWAP1 DUP2 MSTORE PUSH1 0xC PUSH1 0x20 MSTORE PUSH1 0x40 DUP2 KECCAK256 DUP1 SLOAD SWAP2 PUSH2 0x1FF4 DUP4 PUSH2 0x5AFC JUMP JUMPDEST SWAP2 SWAP1 POP SSTORE POP JUMPDEST POP JUMPDEST PUSH1 0x1 ADD PUSH2 0x1CB4 JUMP JUMPDEST POP POP JUMP JUMPDEST PUSH2 0x2010 PUSH2 0x38BF JUMP JUMPDEST PUSH1 0x1 PUSH1 0x1 PUSH1 0xA0 SHL SUB SWAP2 SWAP1 SWAP2 AND PUSH0 SWAP1 DUP2 MSTORE PUSH1 0xA PUSH1 0x20 MSTORE PUSH1 0x40 SWAP1 KECCAK256 DUP1 SLOAD PUSH1 0xFF NOT AND SWAP2 ISZERO ISZERO SWAP2 SWAP1 SWAP2 OR SWAP1 SSTORE JUMP JUMPDEST PUSH1 0x6 SLOAD DUP2 MLOAD PUSH0 SWAP2 EQ PUSH2 0x207E JUMPI PUSH1 0x40 MLOAD PUSH3 0x461BCD PUSH1 0xE5 SHL DUP2 MSTORE PUSH1 0x20 PUSH1 0x4 DUP3 ADD MSTORE PUSH1 0xD PUSH1 0x24 DUP3 ADD MSTORE PUSH13 0x42E0E4D2C6CAE6D8CADCCEE8D PUSH1 0x9B SHL PUSH1 0x44 DUP3 ADD MSTORE PUSH1 0x64 ADD PUSH2 0x8D0 JUMP JUMPDEST PUSH0 DUP1 JUMPDEST PUSH1 0x6 SLOAD DUP2 LT ISZERO PUSH2 0x215F JUMPI PUSH0 PUSH1 0x6 DUP3 DUP2 SLOAD DUP2 LT PUSH2 0x209F JUMPI PUSH2 0x209F PUSH2 0x5705 JUMP JUMPDEST PUSH0 SWAP2 DUP3 MSTORE PUSH1 0x20 DUP3 KECCAK256 PUSH1 0x4 SWAP2 DUP3 MUL ADD DUP1 SLOAD PUSH1 0x40 MLOAD PUSH4 0x70A08231 PUSH1 0xE0 SHL DUP2 MSTORE ADDRESS SWAP4 DUP2 ADD SWAP4 SWAP1 SWAP4 MSTORE SWAP1 SWAP4 POP PUSH1 0x1 PUSH1 0x1 PUSH1 0xA0 SHL SUB AND SWAP1 PUSH4 0x70A08231 SWAP1 PUSH1 0x24 ADD PUSH1 0x20 PUSH1 0x40 MLOAD DUP1 DUP4 SUB DUP2 DUP7 GAS STATICCALL ISZERO DUP1 ISZERO PUSH2 0x20F5 JUMPI RETURNDATASIZE PUSH0 DUP1 RETURNDATACOPY RETURNDATASIZE PUSH0 REVERT JUMPDEST POP POP POP POP PUSH1 0x40 MLOAD RETURNDATASIZE PUSH1 0x1F NOT PUSH1 0x1F DUP3 ADD AND DUP3 ADD DUP1 PUSH1 0x40 MSTORE POP DUP2 ADD SWAP1 PUSH2 0x2119 SWAP2 SWAP1 PUSH2 0x5689 JUMP JUMPDEST SWAP1 POP PUSH0 DUP7 DUP5 DUP2 MLOAD DUP2 LT PUSH2 0x212E JUMPI PUSH2 0x212E PUSH2 0x5705 JUMP JUMPDEST PUSH1 0x20 MUL PUSH1 0x20 ADD ADD MLOAD SWAP1 POP DUP1 DUP3 PUSH2 0x2144 SWAP2 SWAP1 PUSH2 0x56B4 JUMP JUMPDEST PUSH2 0x214E SWAP1 DUP7 PUSH2 0x5841 JUMP JUMPDEST SWAP5 POP POP PUSH1 0x1 SWAP1 SWAP3 ADD SWAP2 POP PUSH2 0x2081 SWAP1 POP JUMP JUMPDEST POP SWAP3 SWAP2 POP POP JUMP JUMPDEST PUSH2 0x216E PUSH2 0x38BF JUMP JUMPDEST DUP7 DUP6 EQ DUP1 ISZERO PUSH2 0x217C JUMPI POP DUP7 DUP4 EQ JUMPDEST DUP1 ISZERO PUSH2 0x2187 JUMPI POP DUP7 DUP2 EQ JUMPDEST PUSH2 0x21C2 JUMPI PUSH1 0x40 MLOAD PUSH3 0x461BCD PUSH1 0xE5 SHL DUP2 MSTORE PUSH1 0x20 PUSH1 0x4 DUP3 ADD MSTORE PUSH1 0xC PUSH1 0x24 DUP3 ADD MSTORE PUSH12 0x214D6973736C656E67746873 PUSH1 0xA0 SHL PUSH1 0x44 DUP3 ADD MSTORE PUSH1 0x64 ADD PUSH2 0x8D0 JUMP JUMPDEST PUSH0 JUMPDEST DUP8 DUP2 LT ISZERO PUSH2 0x2393 JUMPI PUSH2 0x2710 DUP8 DUP8 DUP4 DUP2 DUP2 LT PUSH2 0x21E1 JUMPI PUSH2 0x21E1 PUSH2 0x5705 JUMP JUMPDEST SWAP1 POP PUSH1 0x20 MUL ADD CALLDATALOAD GT ISZERO PUSH2 0x2224 JUMPI PUSH1 0x40 MLOAD PUSH3 0x461BCD PUSH1 0xE5 SHL DUP2 MSTORE PUSH1 0x20 PUSH1 0x4 DUP3 ADD MSTORE PUSH1 0xB PUSH1 0x24 DUP3 ADD MSTORE PUSH11 0x2170657263656E74616765 PUSH1 0xA8 SHL PUSH1 0x44 DUP3 ADD MSTORE PUSH1 0x64 ADD PUSH2 0x8D0 JUMP JUMPDEST PUSH1 0x6 PUSH1 0x40 MLOAD DUP1 PUSH1 0x80 ADD PUSH1 0x40 MSTORE DUP1 DUP12 DUP12 DUP6 DUP2 DUP2 LT PUSH2 0x2243 JUMPI PUSH2 0x2243 PUSH2 0x5705 JUMP JUMPDEST SWAP1 POP PUSH1 0x20 MUL ADD PUSH1 0x20 DUP2 ADD SWAP1 PUSH2 0x2258 SWAP2 SWAP1 PUSH2 0x51DE JUMP JUMPDEST PUSH1 0x1 PUSH1 0x1 PUSH1 0xA0 SHL SUB AND DUP2 MSTORE PUSH1 0x20 ADD DUP10 DUP10 DUP6 DUP2 DUP2 LT PUSH2 0x2278 JUMPI PUSH2 0x2278 PUSH2 0x5705 JUMP JUMPDEST SWAP1 POP PUSH1 0x20 MUL ADD CALLDATALOAD DUP2 MSTORE PUSH1 0x20 ADD DUP8 DUP8 DUP6 DUP2 DUP2 LT PUSH2 0x2296 JUMPI PUSH2 0x2296 PUSH2 0x5705 JUMP JUMPDEST SWAP1 POP PUSH1 0x20 MUL DUP2 ADD SWAP1 PUSH2 0x22A8 SWAP2 SWAP1 PUSH2 0x5B11 JUMP JUMPDEST DUP1 DUP1 PUSH1 0x1F ADD PUSH1 0x20 DUP1 SWAP2 DIV MUL PUSH1 0x20 ADD PUSH1 0x40 MLOAD SWAP1 DUP2 ADD PUSH1 0x40 MSTORE DUP1 SWAP4 SWAP3 SWAP2 SWAP1 DUP2 DUP2 MSTORE PUSH1 0x20 ADD DUP4 DUP4 DUP1 DUP3 DUP5 CALLDATACOPY PUSH0 SWAP3 ADD SWAP2 SWAP1 SWAP2 MSTORE POP POP POP SWAP1 DUP3 MSTORE POP PUSH1 0x20 ADD DUP6 DUP6 DUP6 DUP2 DUP2 LT PUSH2 0x22F3 JUMPI PUSH2 0x22F3 PUSH2 0x5705 JUMP JUMPDEST SWAP1 POP PUSH1 0x20 MUL ADD PUSH1 0x20 DUP2 ADD SWAP1 PUSH2 0x2308 SWAP2 SWAP1 PUSH2 0x5B53 JUMP JUMPDEST PUSH3 0xFFFFFF AND SWAP1 MSTORE DUP2 SLOAD PUSH1 0x1 DUP1 DUP3 ADD DUP5 SSTORE PUSH0 SWAP4 DUP5 MSTORE PUSH1 0x20 SWAP4 DUP5 SWAP1 KECCAK256 DUP4 MLOAD PUSH1 0x4 SWAP1 SWAP4 MUL ADD DUP1 SLOAD PUSH1 0x1 PUSH1 0x1 PUSH1 0xA0 SHL SUB NOT AND PUSH1 0x1 PUSH1 0x1 PUSH1 0xA0 SHL SUB SWAP1 SWAP4 AND SWAP3 SWAP1 SWAP3 OR DUP3 SSTORE SWAP3 DUP3 ADD MLOAD SWAP3 DUP2 ADD SWAP3 SWAP1 SWAP3 SSTORE PUSH1 0x40 DUP2 ADD MLOAD SWAP1 SWAP2 SWAP1 PUSH1 0x2 DUP3 ADD SWAP1 PUSH2 0x2369 SWAP1 DUP3 PUSH2 0x5A27 JUMP JUMPDEST POP PUSH1 0x60 SWAP2 SWAP1 SWAP2 ADD MLOAD PUSH1 0x3 SWAP1 SWAP2 ADD DUP1 SLOAD PUSH3 0xFFFFFF NOT AND PUSH3 0xFFFFFF SWAP1 SWAP3 AND SWAP2 SWAP1 SWAP2 OR SWAP1 SSTORE PUSH1 0x1 ADD PUSH2 0x21C4 JUMP JUMPDEST POP POP POP POP POP POP POP POP POP JUMP JUMPDEST PUSH2 0x23A6 PUSH2 0x38BF JUMP JUMPDEST PUSH2 0x23AF PUSH0 PUSH2 0x41B0 JUMP JUMPDEST JUMP JUMPDEST PUSH2 0x23B9 PUSH2 0x38BF JUMP JUMPDEST PUSH2 0x23C1 PUSH2 0x39BD JUMP JUMPDEST PUSH1 0x6 SLOAD DUP2 MLOAD EQ PUSH2 0x23F9 JUMPI PUSH1 0x40 MLOAD PUSH3 0x461BCD PUSH1 0xE5 SHL DUP2 MSTORE PUSH1 0x20 PUSH1 0x4 DUP3 ADD MSTORE PUSH1 0x3 PUSH1 0x24 DUP3 ADD MSTORE PUSH3 0x85413 PUSH1 0xEA SHL PUSH1 0x44 DUP3 ADD MSTORE PUSH1 0x64 ADD PUSH2 0x8D0 JUMP JUMPDEST PUSH0 PUSH2 0x2403 DUP3 PUSH2 0x203A JUMP JUMPDEST SWAP1 POP PUSH0 DUP2 GT PUSH2 0x243C JUMPI PUSH1 0x40 MLOAD PUSH3 0x461BCD PUSH1 0xE5 SHL DUP2 MSTORE PUSH1 0x20 PUSH1 0x4 DUP3 ADD MSTORE PUSH1 0x5 PUSH1 0x24 DUP3 ADD MSTORE PUSH5 0x7476213D3 PUSH1 0xDC SHL PUSH1 0x44 DUP3 ADD MSTORE PUSH1 0x64 ADD PUSH2 0x8D0 JUMP JUMPDEST PUSH0 JUMPDEST PUSH1 0x6 SLOAD DUP2 LT ISZERO PUSH2 0x280E JUMPI PUSH0 PUSH1 0x6 DUP3 DUP2 SLOAD DUP2 LT PUSH2 0x245C JUMPI PUSH2 0x245C PUSH2 0x5705 JUMP JUMPDEST PUSH0 SWAP2 DUP3 MSTORE PUSH1 0x20 DUP3 KECCAK256 PUSH1 0x4 SWAP2 DUP3 MUL ADD DUP1 SLOAD PUSH1 0x40 MLOAD PUSH4 0x70A08231 PUSH1 0xE0 SHL DUP2 MSTORE ADDRESS SWAP4 DUP2 ADD SWAP4 SWAP1 SWAP4 MSTORE SWAP1 SWAP4 POP PUSH1 0x1 PUSH1 0x1 PUSH1 0xA0 SHL SUB AND SWAP1 PUSH4 0x70A08231 SWAP1 PUSH1 0x24 ADD PUSH1 0x20 PUSH1 0x40 MLOAD DUP1 DUP4 SUB DUP2 DUP7 GAS STATICCALL ISZERO DUP1 ISZERO PUSH2 0x24B2 JUMPI RETURNDATASIZE PUSH0 DUP1 RETURNDATACOPY RETURNDATASIZE PUSH0 REVERT JUMPDEST POP POP POP POP PUSH1 0x40 MLOAD RETURNDATASIZE PUSH1 0x1F NOT PUSH1 0x1F DUP3 ADD AND DUP3 ADD DUP1 PUSH1 0x40 MSTORE POP DUP2 ADD SWAP1 PUSH2 0x24D6 SWAP2 SWAP1 PUSH2 0x5689 JUMP JUMPDEST DUP6 DUP5 DUP2 MLOAD DUP2 LT PUSH2 0x24E8 JUMPI PUSH2 0x24E8 PUSH2 0x5705 JUMP JUMPDEST PUSH1 0x20 MUL PUSH1 0x20 ADD ADD MLOAD PUSH2 0x24FA SWAP2 SWAP1 PUSH2 0x56B4 JUMP JUMPDEST SWAP1 POP PUSH0 DUP2 GT PUSH2 0x2534 JUMPI PUSH1 0x40 MLOAD PUSH3 0x461BCD PUSH1 0xE5 SHL DUP2 MSTORE PUSH1 0x4 ADD PUSH2 0x8D0 SWAP1 PUSH1 0x20 DUP1 DUP3 MSTORE PUSH1 0x4 SWAP1 DUP3 ADD MSTORE PUSH4 0x63703E3 PUSH1 0xE4 SHL PUSH1 0x40 DUP3 ADD MSTORE PUSH1 0x60 ADD SWAP1 JUMP JUMPDEST PUSH0 DUP5 PUSH2 0x2542 DUP4 PUSH2 0x2710 PUSH2 0x56B4 JUMP JUMPDEST PUSH2 0x254C SWAP2 SWAP1 PUSH2 0x56CB JUMP JUMPDEST SWAP1 POP DUP3 PUSH1 0x1 ADD SLOAD DUP2 GT ISZERO PUSH2 0x26A0 JUMPI PUSH0 DUP4 PUSH1 0x1 ADD SLOAD DUP3 PUSH2 0x256B SWAP2 SWAP1 PUSH2 0x5854 JUMP JUMPDEST SWAP1 POP PUSH0 PUSH2 0x2710 PUSH2 0x257B DUP9 DUP5 PUSH2 0x56B4 JUMP JUMPDEST PUSH2 0x2585 SWAP2 SWAP1 PUSH2 0x56CB JUMP JUMPDEST SWAP1 POP PUSH0 DUP9 DUP8 DUP2 MLOAD DUP2 LT PUSH2 0x259A JUMPI PUSH2 0x259A PUSH2 0x5705 JUMP JUMPDEST PUSH1 0x20 MUL PUSH1 0x20 ADD ADD MLOAD DUP3 PUSH2 0x25AD SWAP2 SWAP1 PUSH2 0x56CB JUMP JUMPDEST SWAP1 POP PUSH0 DUP2 GT PUSH2 0x25EA JUMPI PUSH1 0x40 MLOAD PUSH3 0x461BCD PUSH1 0xE5 SHL DUP2 MSTORE PUSH1 0x20 PUSH1 0x4 DUP3 ADD MSTORE PUSH1 0x9 PUSH1 0x24 DUP3 ADD MSTORE PUSH9 0x616D6F756E743E3053 PUSH1 0xB8 SHL PUSH1 0x44 DUP3 ADD MSTORE PUSH1 0x64 ADD PUSH2 0x8D0 JUMP JUMPDEST DUP6 SLOAD PUSH1 0x2 DUP8 ADD DUP1 SLOAD PUSH2 0x2697 SWAP3 PUSH1 0x1 PUSH1 0x1 PUSH1 0xA0 SHL SUB AND SWAP2 DUP5 SWAP2 PUSH2 0x260B SWAP1 PUSH2 0x5635 JUMP JUMPDEST DUP1 PUSH1 0x1F ADD PUSH1 0x20 DUP1 SWAP2 DIV MUL PUSH1 0x20 ADD PUSH1 0x40 MLOAD SWAP1 DUP2 ADD PUSH1 0x40 MSTORE DUP1 SWAP3 SWAP2 SWAP1 DUP2 DUP2 MSTORE PUSH1 0x20 ADD DUP3 DUP1 SLOAD PUSH2 0x2637 SWAP1 PUSH2 0x5635 JUMP JUMPDEST DUP1 ISZERO PUSH2 0x2682 JUMPI DUP1 PUSH1 0x1F LT PUSH2 0x2659 JUMPI PUSH2 0x100 DUP1 DUP4 SLOAD DIV MUL DUP4 MSTORE SWAP2 PUSH1 0x20 ADD SWAP2 PUSH2 0x2682 JUMP JUMPDEST DUP3 ADD SWAP2 SWAP1 PUSH0 MSTORE PUSH1 0x20 PUSH0 KECCAK256 SWAP1 JUMPDEST DUP2 SLOAD DUP2 MSTORE SWAP1 PUSH1 0x1 ADD SWAP1 PUSH1 0x20 ADD DUP1 DUP4 GT PUSH2 0x2665 JUMPI DUP3 SWAP1 SUB PUSH1 0x1F AND DUP3 ADD SWAP2 JUMPDEST POP POP POP POP PUSH1 0x3 DUP12 ADD SLOAD PUSH3 0xFFFFFF AND SWAP1 POP PUSH2 0x41FF JUMP JUMPDEST POP POP POP POP PUSH2 0x2803 JUMP JUMPDEST DUP3 PUSH1 0x1 ADD SLOAD DUP2 LT ISZERO PUSH2 0x2803 JUMPI PUSH0 DUP2 DUP5 PUSH1 0x1 ADD SLOAD PUSH2 0x26BD SWAP2 SWAP1 PUSH2 0x5854 JUMP JUMPDEST SWAP1 POP PUSH0 PUSH2 0x2710 PUSH2 0x26CD DUP9 DUP5 PUSH2 0x56B4 JUMP JUMPDEST PUSH2 0x26D7 SWAP2 SWAP1 PUSH2 0x56CB JUMP JUMPDEST SWAP1 POP PUSH0 DUP9 DUP8 DUP2 MLOAD DUP2 LT PUSH2 0x26EC JUMPI PUSH2 0x26EC PUSH2 0x5705 JUMP JUMPDEST PUSH1 0x20 MUL PUSH1 0x20 ADD ADD MLOAD DUP3 PUSH2 0x26FF SWAP2 SWAP1 PUSH2 0x56CB JUMP JUMPDEST SWAP1 POP PUSH0 DUP2 GT PUSH2 0x273C JUMPI PUSH1 0x40 MLOAD PUSH3 0x461BCD PUSH1 0xE5 SHL DUP2 MSTORE PUSH1 0x20 PUSH1 0x4 DUP3 ADD MSTORE PUSH1 0x9 PUSH1 0x24 DUP3 ADD MSTORE PUSH9 0x30B6B7BAB73A1F1821 PUSH1 0xB9 SHL PUSH1 0x44 DUP3 ADD MSTORE PUSH1 0x64 ADD PUSH2 0x8D0 JUMP JUMPDEST PUSH0 PUSH1 0x13 SLOAD GT DUP1 PUSH2 0x274D JUMPI POP PUSH0 PUSH1 0x14 SLOAD GT JUMPDEST ISZERO PUSH2 0x27FF JUMPI DUP6 SLOAD PUSH1 0x2 DUP8 ADD DUP1 SLOAD PUSH2 0x27FF SWAP3 PUSH1 0x1 PUSH1 0x1 PUSH1 0xA0 SHL SUB AND SWAP2 DUP5 SWAP2 PUSH2 0x2773 SWAP1 PUSH2 0x5635 JUMP JUMPDEST DUP1 PUSH1 0x1F ADD PUSH1 0x20 DUP1 SWAP2 DIV MUL PUSH1 0x20 ADD PUSH1 0x40 MLOAD SWAP1 DUP2 ADD PUSH1 0x40 MSTORE DUP1 SWAP3 SWAP2 SWAP1 DUP2 DUP2 MSTORE PUSH1 0x20 ADD DUP3 DUP1 SLOAD PUSH2 0x279F SWAP1 PUSH2 0x5635 JUMP JUMPDEST DUP1 ISZERO PUSH2 0x27EA JUMPI DUP1 PUSH1 0x1F LT PUSH2 0x27C1 JUMPI PUSH2 0x100 DUP1 DUP4 SLOAD DIV MUL DUP4 MSTORE SWAP2 PUSH1 0x20 ADD SWAP2 PUSH2 0x27EA JUMP JUMPDEST DUP3 ADD SWAP2 SWAP1 PUSH0 MSTORE PUSH1 0x20 PUSH0 KECCAK256 SWAP1 JUMPDEST DUP2 SLOAD DUP2 MSTORE SWAP1 PUSH1 0x1 ADD SWAP1 PUSH1 0x20 ADD DUP1 DUP4 GT PUSH2 0x27CD JUMPI DUP3 SWAP1 SUB PUSH1 0x1F AND DUP3 ADD SWAP2 JUMPDEST POP POP POP POP PUSH1 0x3 DUP12 ADD SLOAD PUSH3 0xFFFFFF AND SWAP1 POP PUSH2 0x4732 JUMP JUMPDEST POP POP POP JUMPDEST POP POP POP PUSH1 0x1 ADD PUSH2 0x243E JUMP JUMPDEST POP POP POP JUMP JUMPDEST PUSH1 0x1 PUSH1 0x1 PUSH1 0xA0 SHL SUB DUP2 AND PUSH0 SWAP1 DUP2 MSTORE PUSH1 0xC PUSH1 0x20 MSTORE PUSH1 0x40 DUP2 KECCAK256 SLOAD PUSH1 0x60 SWAP2 SWAP1 PUSH1 0x1 PUSH1 0x1 PUSH1 0x40 SHL SUB DUP2 GT ISZERO PUSH2 0x2846 JUMPI PUSH2 0x2846 PUSH2 0x5242 JUMP JUMPDEST PUSH1 0x40 MLOAD SWAP1 DUP1 DUP3 MSTORE DUP1 PUSH1 0x20 MUL PUSH1 0x20 ADD DUP3 ADD PUSH1 0x40 MSTORE DUP1 ISZERO PUSH2 0x289C JUMPI DUP2 PUSH1 0x20 ADD JUMPDEST PUSH1 0x40 DUP1 MLOAD PUSH1 0xA0 DUP2 ADD DUP3 MSTORE PUSH0 DUP1 DUP3 MSTORE PUSH1 0x20 DUP1 DUP4 ADD DUP3 SWAP1 MSTORE SWAP3 DUP3 ADD DUP2 SWAP1 MSTORE PUSH1 0x60 DUP1 DUP4 ADD MSTORE PUSH1 0x80 DUP3 ADD MSTORE DUP3 MSTORE PUSH0 NOT SWAP1 SWAP3 ADD SWAP2 ADD DUP2 PUSH2 0x2864 JUMPI SWAP1 POP JUMPDEST POP SWAP1 POP PUSH0 DUP1 JUMPDEST PUSH1 0xB SLOAD DUP2 LT ISZERO PUSH2 0x2A1A JUMPI DUP5 PUSH1 0x1 PUSH1 0x1 PUSH1 0xA0 SHL SUB AND PUSH1 0xB DUP3 DUP2 SLOAD DUP2 LT PUSH2 0x28C9 JUMPI PUSH2 0x28C9 PUSH2 0x5705 JUMP JUMPDEST PUSH0 SWAP2 DUP3 MSTORE PUSH1 0x20 SWAP1 SWAP2 KECCAK256 PUSH1 0x5 SWAP1 SWAP2 MUL ADD SLOAD PUSH1 0x1 PUSH1 0x1 PUSH1 0xA0 SHL SUB AND SUB PUSH2 0x2A12 JUMPI PUSH1 0xB DUP2 DUP2 SLOAD DUP2 LT PUSH2 0x28FA JUMPI PUSH2 0x28FA PUSH2 0x5705 JUMP JUMPDEST PUSH0 SWAP2 DUP3 MSTORE PUSH1 0x20 SWAP2 DUP3 SWAP1 KECCAK256 PUSH1 0x40 DUP1 MLOAD PUSH1 0xA0 DUP2 ADD DUP3 MSTORE PUSH1 0x5 SWAP1 SWAP4 MUL SWAP1 SWAP2 ADD DUP1 SLOAD PUSH1 0x1 PUSH1 0x1 PUSH1 0xA0 SHL SUB SWAP1 DUP2 AND DUP5 MSTORE PUSH1 0x1 DUP3 ADD SLOAD AND SWAP4 DUP4 ADD SWAP4 SWAP1 SWAP4 MSTORE PUSH1 0x2 DUP4 ADD SLOAD SWAP1 DUP3 ADD MSTORE PUSH1 0x3 DUP3 ADD DUP1 SLOAD SWAP2 SWAP3 SWAP2 PUSH1 0x60 DUP5 ADD SWAP2 SWAP1 PUSH2 0x2953 SWAP1 PUSH2 0x5635 JUMP JUMPDEST DUP1 PUSH1 0x1F ADD PUSH1 0x20 DUP1 SWAP2 DIV MUL PUSH1 0x20 ADD PUSH1 0x40 MLOAD SWAP1 DUP2 ADD PUSH1 0x40 MSTORE DUP1 SWAP3 SWAP2 SWAP1 DUP2 DUP2 MSTORE PUSH1 0x20 ADD DUP3 DUP1 SLOAD PUSH2 0x297F SWAP1 PUSH2 0x5635 JUMP JUMPDEST DUP1 ISZERO PUSH2 0x29CA JUMPI DUP1 PUSH1 0x1F LT PUSH2 0x29A1 JUMPI PUSH2 0x100 DUP1 DUP4 SLOAD DIV MUL DUP4 MSTORE SWAP2 PUSH1 0x20 ADD SWAP2 PUSH2 0x29CA JUMP JUMPDEST DUP3 ADD SWAP2 SWAP1 PUSH0 MSTORE PUSH1 0x20 PUSH0 KECCAK256 SWAP1 JUMPDEST DUP2 SLOAD DUP2 MSTORE SWAP1 PUSH1 0x1 ADD SWAP1 PUSH1 0x20 ADD DUP1 DUP4 GT PUSH2 0x29AD JUMPI DUP3 SWAP1 SUB PUSH1 0x1F AND DUP3 ADD SWAP2 JUMPDEST POP POP POP SWAP2 DUP4 MSTORE POP POP PUSH1 0x4 SWAP2 SWAP1 SWAP2 ADD SLOAD PUSH3 0xFFFFFF AND PUSH1 0x20 SWAP1 SWAP2 ADD MSTORE DUP4 MLOAD DUP5 SWAP1 DUP5 SWAP1 DUP2 LT PUSH2 0x29F8 JUMPI PUSH2 0x29F8 PUSH2 0x5705 JUMP JUMPDEST PUSH1 0x20 MUL PUSH1 0x20 ADD ADD DUP2 SWAP1 MSTORE POP DUP2 DUP1 PUSH2 0x2A0E SWAP1 PUSH2 0x5AE4 JUMP JUMPDEST SWAP3 POP POP JUMPDEST PUSH1 0x1 ADD PUSH2 0x28A2 JUMP JUMPDEST POP SWAP1 SWAP4 SWAP3 POP POP POP JUMP JUMPDEST PUSH1 0x60 PUSH1 0x5 DUP1 SLOAD PUSH2 0x7F8 SWAP1 PUSH2 0x5635 JUMP JUMPDEST PUSH2 0x2A3A PUSH2 0x38BF JUMP JUMPDEST PUSH1 0x11 SLOAD ISZERO PUSH2 0x2AD3 JUMPI PUSH1 0x11 SLOAD PUSH1 0x40 MLOAD PUSH0 SWAP2 PUSH1 0x1 PUSH1 0x1 PUSH1 0xA0 SHL SUB DUP5 AND SWAP2 DUP4 DUP2 DUP2 DUP2 DUP6 DUP8 GAS CALL SWAP3 POP POP POP RETURNDATASIZE DUP1 PUSH0 DUP2 EQ PUSH2 0x2A8B JUMPI PUSH1 0x40 MLOAD SWAP2 POP PUSH1 0x1F NOT PUSH1 0x3F RETURNDATASIZE ADD AND DUP3 ADD PUSH1 0x40 MSTORE RETURNDATASIZE DUP3 MSTORE RETURNDATASIZE PUSH0 PUSH1 0x20 DUP5 ADD RETURNDATACOPY PUSH2 0x2A90 JUMP JUMPDEST PUSH1 0x60 SWAP2 POP JUMPDEST POP POP SWAP1 POP DUP1 PUSH2 0x2ACD JUMPI PUSH1 0x40 MLOAD PUSH3 0x461BCD PUSH1 0xE5 SHL DUP2 MSTORE PUSH1 0x20 PUSH1 0x4 DUP3 ADD MSTORE PUSH1 0x9 PUSH1 0x24 DUP3 ADD MSTORE PUSH9 0x8C8292988A888AA89 PUSH1 0xBB SHL PUSH1 0x44 DUP3 ADD MSTORE PUSH1 0x64 ADD PUSH2 0x8D0 JUMP JUMPDEST POP PUSH0 PUSH1 0x11 SSTORE JUMPDEST PUSH1 0x12 SLOAD ISZERO PUSH2 0x2BC4 JUMPI PUSH1 0x7 SLOAD PUSH1 0x40 DUP1 MLOAD PUSH4 0x15AB88C9 PUSH1 0xE3 SHL DUP2 MSTORE SWAP1 MLOAD PUSH0 SWAP3 PUSH1 0x1 PUSH1 0x1 PUSH1 0xA0 SHL SUB AND SWAP2 PUSH4 0xAD5C4648 SWAP2 PUSH1 0x4 DUP1 DUP4 ADD SWAP3 PUSH1 0x20 SWAP3 SWAP2 SWAP1 DUP3 SWAP1 SUB ADD DUP2 DUP7 GAS STATICCALL ISZERO DUP1 ISZERO PUSH2 0x2B22 JUMPI RETURNDATASIZE PUSH0 DUP1 RETURNDATACOPY RETURNDATASIZE PUSH0 REVERT JUMPDEST POP POP POP POP PUSH1 0x40 MLOAD RETURNDATASIZE PUSH1 0x1F NOT PUSH1 0x1F DUP3 ADD AND DUP3 ADD DUP1 PUSH1 0x40 MSTORE POP DUP2 ADD SWAP1 PUSH2 0x2B46 SWAP2 SWAP1 PUSH2 0x56EA JUMP JUMPDEST PUSH1 0x12 SLOAD PUSH1 0x40 MLOAD PUSH4 0xA9059CBB PUSH1 0xE0 SHL DUP2 MSTORE PUSH1 0x1 PUSH1 0x1 PUSH1 0xA0 SHL SUB DUP6 DUP2 AND PUSH1 0x4 DUP4 ADD MSTORE PUSH1 0x24 DUP3 ADD SWAP3 SWAP1 SWAP3 MSTORE SWAP2 SWAP3 POP DUP3 AND SWAP1 PUSH4 0xA9059CBB SWAP1 PUSH1 0x44 ADD PUSH1 0x20 PUSH1 0x40 MLOAD DUP1 DUP4 SUB DUP2 PUSH0 DUP8 GAS CALL ISZERO DUP1 ISZERO PUSH2 0x2B99 JUMPI RETURNDATASIZE PUSH0 DUP1 RETURNDATACOPY RETURNDATASIZE PUSH0 REVERT JUMPDEST POP POP POP POP PUSH1 0x40 MLOAD RETURNDATASIZE PUSH1 0x1F NOT PUSH1 0x1F DUP3 ADD AND DUP3 ADD DUP1 PUSH1 0x40 MSTORE POP DUP2 ADD SWAP1 PUSH2 0x2BBD SWAP2 SWAP1 PUSH2 0x5867 JUMP JUMPDEST POP POP PUSH0 PUSH1 0x12 SSTORE JUMPDEST POP JUMP JUMPDEST PUSH0 CALLER PUSH2 0x886 DUP2 DUP6 DUP6 PUSH2 0x3960 JUMP JUMPDEST CALLER PUSH0 SWAP1 DUP2 MSTORE PUSH1 0xA PUSH1 0x20 MSTORE PUSH1 0x40 SWAP1 KECCAK256 SLOAD PUSH1 0xFF AND PUSH2 0x2C1B JUMPI PUSH1 0x40 MLOAD PUSH3 0x461BCD PUSH1 0xE5 SHL DUP2 MSTORE PUSH1 0x4 ADD PUSH2 0x8D0 SWAP1 PUSH1 0x20 DUP1 DUP3 MSTORE PUSH1 0x4 SWAP1 DUP3 ADD MSTORE PUSH4 0x855D215 PUSH1 0xE2 SHL PUSH1 0x40 DUP3 ADD MSTORE PUSH1 0x60 ADD SWAP1 JUMP JUMPDEST PUSH2 0x2C23 PUSH2 0x39BD JUMP JUMPDEST PUSH0 CALLVALUE GT PUSH2 0x2C58 JUMPI PUSH1 0x40 MLOAD PUSH3 0x461BCD PUSH1 0xE5 SHL DUP2 MSTORE PUSH1 0x20 PUSH1 0x4 DUP3 ADD MSTORE PUSH1 0x3 PUSH1 0x24 DUP3 ADD MSTORE PUSH3 0x414D47 PUSH1 0xE8 SHL PUSH1 0x44 DUP3 ADD MSTORE PUSH1 0x64 ADD PUSH2 0x8D0 JUMP JUMPDEST PUSH0 PUSH2 0x2710 PUSH1 0xE SLOAD CALLVALUE PUSH2 0x2C6A SWAP2 SWAP1 PUSH2 0x56B4 JUMP JUMPDEST PUSH2 0x2C74 SWAP2 SWAP1 PUSH2 0x56CB JUMP JUMPDEST SWAP1 POP PUSH0 PUSH2 0x2C81 DUP3 CALLVALUE PUSH2 0x5854 JUMP JUMPDEST SWAP1 POP DUP2 PUSH1 0x11 PUSH0 DUP3 DUP3 SLOAD PUSH2 0x2C94 SWAP2 SWAP1 PUSH2 0x5841 JUMP JUMPDEST SWAP1 SWAP2 SSTORE POP POP DUP1 PUSH2 0x2CF9 JUMPI PUSH1 0x40 MLOAD PUSH3 0x461BCD PUSH1 0xE5 SHL DUP2 MSTORE PUSH1 0x20 PUSH1 0x4 DUP3 ADD MSTORE PUSH1 0x2A PUSH1 0x24 DUP3 ADD MSTORE PUSH32 0x416D6F756E7420616674657220666565206D7573742062652067726561746572 PUSH1 0x44 DUP3 ADD MSTORE PUSH10 0x207468616E207A65726F PUSH1 0xB0 SHL PUSH1 0x64 DUP3 ADD MSTORE PUSH1 0x84 ADD PUSH2 0x8D0 JUMP JUMPDEST PUSH2 0x2D03 CALLER DUP3 PUSH2 0x4D96 JUMP JUMPDEST PUSH0 JUMPDEST PUSH1 0x6 SLOAD DUP2 LT ISZERO PUSH2 0x280E JUMPI PUSH0 PUSH1 0x6 DUP3 DUP2 SLOAD DUP2 LT PUSH2 0x2D23 JUMPI PUSH2 0x2D23 PUSH2 0x5705 JUMP JUMPDEST SWAP1 PUSH0 MSTORE PUSH1 0x20 PUSH0 KECCAK256 SWAP1 PUSH1 0x4 MUL ADD SWAP1 POP PUSH0 PUSH2 0x2710 DUP3 PUSH1 0x1 ADD SLOAD DUP6 PUSH2 0x2D45 SWAP2 SWAP1 PUSH2 0x56B4 JUMP JUMPDEST PUSH2 0x2D4F SWAP2 SWAP1 PUSH2 0x56CB JUMP JUMPDEST SWAP1 POP DUP4 DUP2 GT ISZERO PUSH2 0x2D95 JUMPI PUSH1 0x40 MLOAD PUSH3 0x461BCD PUSH1 0xE5 SHL DUP2 MSTORE PUSH1 0x20 PUSH1 0x4 DUP3 ADD MSTORE PUSH1 0x11 PUSH1 0x24 DUP3 ADD MSTORE PUSH17 0x63616C4554483C3D616D6F756E74666565 PUSH1 0x78 SHL PUSH1 0x44 DUP3 ADD MSTORE PUSH1 0x64 ADD PUSH2 0x8D0 JUMP JUMPDEST DUP2 SLOAD PUSH1 0x3 DUP4 ADD SLOAD PUSH1 0x40 MLOAD PUSH4 0x1CE07AE9 PUSH1 0xE1 SHL DUP2 MSTORE ADDRESS SWAP3 PUSH4 0x39C0F5D2 SWAP3 DUP6 SWAP3 PUSH2 0x2DD6 SWAP3 PUSH1 0x1 PUSH1 0x1 PUSH1 0xA0 SHL SUB AND SWAP2 DUP5 SWAP2 PUSH1 0x2 DUP11 ADD SWAP2 PUSH3 0xFFFFFF AND SWAP1 PUSH1 0x4 ADD PUSH2 0x5719 JUMP JUMPDEST PUSH0 PUSH1 0x40 MLOAD DUP1 DUP4 SUB DUP2 DUP6 DUP9 DUP1 EXTCODESIZE ISZERO DUP1 ISZERO PUSH2 0x2DED JUMPI PUSH0 DUP1 REVERT JUMPDEST POP GAS CALL SWAP4 POP POP POP POP DUP1 ISZERO PUSH2 0x2DFF JUMPI POP PUSH1 0x1 JUMPDEST PUSH2 0x2F9F JUMPI CALLER PUSH0 SWAP1 DUP2 MSTORE PUSH1 0xD PUSH1 0x20 MSTORE PUSH1 0x40 DUP2 KECCAK256 DUP1 SLOAD DUP4 SWAP3 SWAP1 PUSH2 0x2E21 SWAP1 DUP5 SWAP1 PUSH2 0x5841 JUMP JUMPDEST SWAP1 SWAP2 SSTORE POP POP PUSH1 0x40 DUP1 MLOAD PUSH1 0xA0 DUP2 ADD DUP3 MSTORE CALLER DUP2 MSTORE DUP4 SLOAD PUSH1 0x1 PUSH1 0x1 PUSH1 0xA0 SHL SUB AND PUSH1 0x20 DUP3 ADD MSTORE SWAP1 DUP2 ADD DUP3 SWAP1 MSTORE PUSH1 0x2 DUP4 ADD DUP1 SLOAD PUSH1 0xB SWAP3 SWAP2 PUSH1 0x60 DUP4 ADD SWAP2 PUSH2 0x2E61 SWAP1 PUSH2 0x5635 JUMP JUMPDEST DUP1 PUSH1 0x1F ADD PUSH1 0x20 DUP1 SWAP2 DIV MUL PUSH1 0x20 ADD PUSH1 0x40 MLOAD SWAP1 DUP2 ADD PUSH1 0x40 MSTORE DUP1 SWAP3 SWAP2 SWAP1 DUP2 DUP2 MSTORE PUSH1 0x20 ADD DUP3 DUP1 SLOAD PUSH2 0x2E8D SWAP1 PUSH2 0x5635 JUMP JUMPDEST DUP1 ISZERO PUSH2 0x2ED8 JUMPI DUP1 PUSH1 0x1F LT PUSH2 0x2EAF JUMPI PUSH2 0x100 DUP1 DUP4 SLOAD DIV MUL DUP4 MSTORE SWAP2 PUSH1 0x20 ADD SWAP2 PUSH2 0x2ED8 JUMP JUMPDEST DUP3 ADD SWAP2 SWAP1 PUSH0 MSTORE PUSH1 0x20 PUSH0 KECCAK256 SWAP1 JUMPDEST DUP2 SLOAD DUP2 MSTORE SWAP1 PUSH1 0x1 ADD SWAP1 PUSH1 0x20 ADD DUP1 DUP4 GT PUSH2 0x2EBB JUMPI DUP3 SWAP1 SUB PUSH1 0x1F AND DUP3 ADD SWAP2 JUMPDEST POP POP POP SWAP2 DUP4 MSTORE POP POP PUSH1 0x3 DUP6 DUP2 ADD SLOAD PUSH3 0xFFFFFF AND PUSH1 0x20 SWAP3 DUP4 ADD MSTORE DUP4 SLOAD PUSH1 0x1 DUP1 DUP3 ADD DUP7 SSTORE PUSH0 SWAP6 DUP7 MSTORE SWAP5 DUP4 SWAP1 KECCAK256 DUP5 MLOAD PUSH1 0x5 SWAP1 SWAP3 MUL ADD DUP1 SLOAD PUSH1 0x1 PUSH1 0x1 PUSH1 0xA0 SHL SUB NOT SWAP1 DUP2 AND PUSH1 0x1 PUSH1 0x1 PUSH1 0xA0 SHL SUB SWAP4 DUP5 AND OR DUP3 SSTORE SWAP4 DUP6 ADD MLOAD SWAP6 DUP2 ADD DUP1 SLOAD SWAP1 SWAP5 AND SWAP6 SWAP1 SWAP2 AND SWAP5 SWAP1 SWAP5 OR SWAP1 SWAP2 SSTORE PUSH1 0x40 DUP3 ADD MLOAD PUSH1 0x2 DUP5 ADD SSTORE PUSH1 0x60 DUP3 ADD MLOAD SWAP2 SWAP3 SWAP2 SWAP1 DUP3 ADD SWAP1 PUSH2 0x2F5D SWAP1 DUP3 PUSH2 0x5A27 JUMP JUMPDEST POP PUSH1 0x80 SWAP2 SWAP1 SWAP2 ADD MLOAD PUSH1 0x4 SWAP1 SWAP2 ADD DUP1 SLOAD PUSH3 0xFFFFFF NOT AND PUSH3 0xFFFFFF SWAP1 SWAP3 AND SWAP2 SWAP1 SWAP2 OR SWAP1 SSTORE CALLER PUSH0 SWAP1 DUP2 MSTORE PUSH1 0xC PUSH1 0x20 MSTORE PUSH1 0x40 DUP2 KECCAK256 DUP1 SLOAD SWAP2 PUSH2 0x2F99 DUP4 PUSH2 0x5AE4 JUMP JUMPDEST SWAP2 SWAP1 POP SSTORE POP JUMPDEST POP POP PUSH1 0x1 ADD PUSH2 0x2D05 JUMP JUMPDEST PUSH0 PUSH1 0x40 MLOAD PUSH1 0x20 ADD PUSH2 0x2FB9 SWAP1 PUSH2 0x5882 JUMP JUMPDEST PUSH1 0x40 MLOAD PUSH1 0x20 DUP2 DUP4 SUB SUB DUP2 MSTORE SWAP1 PUSH1 0x40 MSTORE DUP1 MLOAD SWAP1 PUSH1 0x20 ADD KECCAK256 DUP4 PUSH1 0x40 MLOAD PUSH1 0x20 ADD PUSH2 0x2FE0 SWAP2 SWAP1 PUSH2 0x59CD JUMP JUMPDEST PUSH1 0x40 MLOAD PUSH1 0x20 DUP2 DUP4 SUB SUB DUP2 MSTORE SWAP1 PUSH1 0x40 MSTORE DUP1 MLOAD SWAP1 PUSH1 0x20 ADD KECCAK256 SUB PUSH2 0x319D JUMPI PUSH1 0x40 DUP1 MLOAD PUSH1 0x2 DUP1 DUP3 MSTORE PUSH1 0x60 DUP3 ADD DUP4 MSTORE PUSH0 SWAP3 PUSH1 0x20 DUP4 ADD SWAP1 DUP1 CALLDATASIZE DUP4 CALLDATACOPY ADD SWAP1 POP POP SWAP1 POP DUP6 DUP2 PUSH0 DUP2 MLOAD DUP2 LT PUSH2 0x302E JUMPI PUSH2 0x302E PUSH2 0x5705 JUMP JUMPDEST PUSH1 0x1 PUSH1 0x1 PUSH1 0xA0 SHL SUB SWAP3 DUP4 AND PUSH1 0x20 SWAP2 DUP3 MUL SWAP3 SWAP1 SWAP3 ADD DUP2 ADD SWAP2 SWAP1 SWAP2 MSTORE PUSH1 0x7 SLOAD PUSH1 0x40 DUP1 MLOAD PUSH4 0x15AB88C9 PUSH1 0xE3 SHL DUP2 MSTORE SWAP1 MLOAD SWAP2 SWAP1 SWAP4 AND SWAP3 PUSH4 0xAD5C4648 SWAP3 PUSH1 0x4 DUP1 DUP4 ADD SWAP4 SWAP2 SWAP3 DUP3 SWAP1 SUB ADD DUP2 DUP7 GAS STATICCALL ISZERO DUP1 ISZERO PUSH2 0x3085 JUMPI RETURNDATASIZE PUSH0 DUP1 RETURNDATACOPY RETURNDATASIZE PUSH0 REVERT JUMPDEST POP POP POP POP PUSH1 0x40 MLOAD RETURNDATASIZE PUSH1 0x1F NOT PUSH1 0x1F DUP3 ADD AND DUP3 ADD DUP1 PUSH1 0x40 MSTORE POP DUP2 ADD SWAP1 PUSH2 0x30A9 SWAP2 SWAP1 PUSH2 0x56EA JUMP JUMPDEST DUP2 PUSH1 0x1 DUP2 MLOAD DUP2 LT PUSH2 0x30BC JUMPI PUSH2 0x30BC PUSH2 0x5705 JUMP JUMPDEST PUSH1 0x1 PUSH1 0x1 PUSH1 0xA0 SHL SUB SWAP3 DUP4 AND PUSH1 0x20 SWAP2 DUP3 MUL SWAP3 SWAP1 SWAP3 ADD ADD MSTORE PUSH1 0x7 SLOAD PUSH1 0x40 MLOAD PUSH4 0xD06CA61F PUSH1 0xE0 SHL DUP2 MSTORE PUSH0 SWAP3 SWAP2 SWAP1 SWAP2 AND SWAP1 PUSH4 0xD06CA61F SWAP1 PUSH2 0x30FF SWAP1 DUP10 SWAP1 DUP7 SWAP1 PUSH1 0x4 ADD PUSH2 0x58D3 JUMP JUMPDEST PUSH0 PUSH1 0x40 MLOAD DUP1 DUP4 SUB DUP2 DUP7 GAS STATICCALL ISZERO DUP1 ISZERO PUSH2 0x3119 JUMPI RETURNDATASIZE PUSH0 DUP1 RETURNDATACOPY RETURNDATASIZE PUSH0 REVERT JUMPDEST POP POP POP POP PUSH1 0x40 MLOAD RETURNDATASIZE PUSH0 DUP3 RETURNDATACOPY PUSH1 0x1F RETURNDATASIZE SWAP1 DUP2 ADD PUSH1 0x1F NOT AND DUP3 ADD PUSH1 0x40 MSTORE PUSH2 0x3140 SWAP2 SWAP1 DUP2 ADD SWAP1 PUSH2 0x58EB JUMP JUMPDEST SWAP1 POP PUSH0 PUSH2 0x2710 PUSH1 0x10 SLOAD PUSH2 0x2710 PUSH2 0x3156 SWAP2 SWAP1 PUSH2 0x5854 JUMP JUMPDEST DUP4 PUSH1 0x1 DUP2 MLOAD DUP2 LT PUSH2 0x3169 JUMPI PUSH2 0x3169 PUSH2 0x5705 JUMP JUMPDEST PUSH1 0x20 MUL PUSH1 0x20 ADD ADD MLOAD PUSH2 0x317B SWAP2 SWAP1 PUSH2 0x56B4 JUMP JUMPDEST PUSH2 0x3185 SWAP2 SWAP1 PUSH2 0x56CB JUMP JUMPDEST SWAP1 POP PUSH2 0x3193 DUP9 DUP9 DUP4 ADDRESS PUSH2 0x3A1B JUMP JUMPDEST SWAP4 POP POP POP POP PUSH2 0x3335 JUMP JUMPDEST PUSH1 0x40 MLOAD PUSH1 0x20 ADD PUSH2 0x31AC SWAP1 PUSH2 0x57C2 JUMP JUMPDEST PUSH1 0x40 MLOAD PUSH1 0x20 DUP2 DUP4 SUB SUB DUP2 MSTORE SWAP1 PUSH1 0x40 MSTORE DUP1 MLOAD SWAP1 PUSH1 0x20 ADD KECCAK256 DUP4 PUSH1 0x40 MLOAD PUSH1 0x20 ADD PUSH2 0x31D3 SWAP2 SWAP1 PUSH2 0x59CD JUMP JUMPDEST PUSH1 0x40 MLOAD PUSH1 0x20 DUP2 DUP4 SUB SUB DUP2 MSTORE SWAP1 PUSH1 0x40 MSTORE DUP1 MLOAD SWAP1 PUSH1 0x20 ADD KECCAK256 SUB PUSH2 0x1C7C JUMPI PUSH0 DUP6 DUP4 PUSH1 0x7 PUSH0 SWAP1 SLOAD SWAP1 PUSH2 0x100 EXP SWAP1 DIV PUSH1 0x1 PUSH1 0x1 PUSH1 0xA0 SHL SUB AND PUSH1 0x1 PUSH1 0x1 PUSH1 0xA0 SHL SUB AND PUSH4 0xAD5C4648 PUSH1 0x40 MLOAD DUP2 PUSH4 0xFFFFFFFF AND PUSH1 0xE0 SHL DUP2 MSTORE PUSH1 0x4 ADD PUSH1 0x20 PUSH1 0x40 MLOAD DUP1 DUP4 SUB DUP2 DUP7 GAS STATICCALL ISZERO DUP1 ISZERO PUSH2 0x3241 JUMPI RETURNDATASIZE PUSH0 DUP1 RETURNDATACOPY RETURNDATASIZE PUSH0 REVERT JUMPDEST POP POP POP POP PUSH1 0x40 MLOAD RETURNDATASIZE PUSH1 0x1F NOT PUSH1 0x1F DUP3 ADD AND DUP3 ADD DUP1 PUSH1 0x40 MSTORE POP DUP2 ADD SWAP1 PUSH2 0x3265 SWAP2 SWAP1 PUSH2 0x56EA JUMP JUMPDEST PUSH1 0x40 MLOAD PUSH1 0x20 ADD PUSH2 0x3277 SWAP4 SWAP3 SWAP2 SWAP1 PUSH2 0x5971 JUMP JUMPDEST PUSH1 0x40 DUP1 MLOAD PUSH1 0x1F NOT DUP2 DUP5 SUB ADD DUP2 MSTORE SWAP1 DUP3 SWAP1 MSTORE PUSH1 0x9 SLOAD PUSH4 0xCDCA1753 PUSH1 0xE0 SHL DUP4 MSTORE SWAP1 SWAP3 POP PUSH0 SWAP2 PUSH1 0x1 PUSH1 0x1 PUSH1 0xA0 SHL SUB SWAP1 SWAP2 AND SWAP1 PUSH4 0xCDCA1753 SWAP1 PUSH2 0x32BC SWAP1 DUP6 SWAP1 DUP11 SWAP1 PUSH1 0x4 ADD PUSH2 0x59AC JUMP JUMPDEST PUSH1 0x20 PUSH1 0x40 MLOAD DUP1 DUP4 SUB DUP2 PUSH0 DUP8 GAS CALL ISZERO DUP1 ISZERO PUSH2 0x32D8 JUMPI RETURNDATASIZE PUSH0 DUP1 RETURNDATACOPY RETURNDATASIZE PUSH0 REVERT JUMPDEST POP POP POP POP PUSH1 0x40 MLOAD RETURNDATASIZE PUSH1 0x1F NOT PUSH1 0x1F DUP3 ADD AND DUP3 ADD DUP1 PUSH1 0x40 MSTORE POP DUP2 ADD SWAP1 PUSH2 0x32FC SWAP2 SWAP1 PUSH2 0x5689 JUMP JUMPDEST SWAP1 POP PUSH0 PUSH2 0x2710 PUSH1 0x10 SLOAD PUSH2 0x2710 PUSH2 0x3312 SWAP2 SWAP1 PUSH2 0x5854 JUMP JUMPDEST PUSH2 0x331C SWAP1 DUP5 PUSH2 0x56B4 JUMP JUMPDEST PUSH2 0x3326 SWAP2 SWAP1 PUSH2 0x56CB JUMP JUMPDEST SWAP1 POP PUSH2 0x3193 DUP9 DUP9 DUP8 DUP5 ADDRESS PUSH2 0x3C06 JUMP JUMPDEST SWAP5 SWAP4 POP POP POP POP JUMP JUMPDEST PUSH2 0x3345 PUSH2 0x38BF JUMP JUMPDEST PUSH1 0x1 PUSH1 0x1 PUSH1 0xA0 SHL SUB DUP2 AND PUSH2 0x336E JUMPI PUSH1 0x40 MLOAD PUSH4 0x1E4FBDF7 PUSH1 0xE0 SHL DUP2 MSTORE PUSH0 PUSH1 0x4 DUP3 ADD MSTORE PUSH1 0x24 ADD PUSH2 0x8D0 JUMP JUMPDEST PUSH2 0x2BC4 DUP2 PUSH2 0x41B0 JUMP JUMPDEST PUSH2 0x337F PUSH2 0x38BF JUMP JUMPDEST PUSH0 DUP1 JUMPDEST PUSH1 0x6 SLOAD DUP2 LT ISZERO PUSH2 0x382A JUMPI PUSH0 PUSH1 0x6 DUP3 DUP2 SLOAD DUP2 LT PUSH2 0x33A0 JUMPI PUSH2 0x33A0 PUSH2 0x5705 JUMP JUMPDEST PUSH0 SWAP2 DUP3 MSTORE PUSH1 0x20 DUP3 KECCAK256 PUSH1 0x4 SWAP2 DUP3 MUL ADD DUP1 SLOAD PUSH1 0x40 MLOAD PUSH4 0x70A08231 PUSH1 0xE0 SHL DUP2 MSTORE ADDRESS SWAP4 DUP2 ADD SWAP4 SWAP1 SWAP4 MSTORE SWAP1 SWAP4 POP PUSH1 0x1 PUSH1 0x1 PUSH1 0xA0 SHL SUB AND SWAP1 PUSH4 0x70A08231 SWAP1 PUSH1 0x24 ADD PUSH1 0x20 PUSH1 0x40 MLOAD DUP1 DUP4 SUB DUP2 DUP7 GAS STATICCALL ISZERO DUP1 ISZERO PUSH2 0x33F6 JUMPI RETURNDATASIZE PUSH0 DUP1 RETURNDATACOPY RETURNDATASIZE PUSH0 REVERT JUMPDEST POP POP POP POP PUSH1 0x40 MLOAD RETURNDATASIZE PUSH1 0x1F NOT PUSH1 0x1F DUP3 ADD AND DUP3 ADD DUP1 PUSH1 0x40 MSTORE POP DUP2 ADD SWAP1 PUSH2 0x341A SWAP2 SWAP1 PUSH2 0x5689 JUMP JUMPDEST SWAP1 POP PUSH1 0x40 MLOAD PUSH1 0x20 ADD PUSH2 0x342B SWAP1 PUSH2 0x5882 JUMP JUMPDEST PUSH1 0x40 MLOAD PUSH1 0x20 DUP2 DUP4 SUB SUB DUP2 MSTORE SWAP1 PUSH1 0x40 MSTORE DUP1 MLOAD SWAP1 PUSH1 0x20 ADD KECCAK256 DUP3 PUSH1 0x2 ADD PUSH1 0x40 MLOAD PUSH1 0x20 ADD PUSH2 0x3455 SWAP2 SWAP1 PUSH2 0x57D0 JUMP JUMPDEST PUSH1 0x40 MLOAD PUSH1 0x20 DUP2 DUP4 SUB SUB DUP2 MSTORE SWAP1 PUSH1 0x40 MSTORE DUP1 MLOAD SWAP1 PUSH1 0x20 ADD KECCAK256 SUB PUSH2 0x3633 JUMPI PUSH1 0x40 DUP1 MLOAD PUSH1 0x2 DUP1 DUP3 MSTORE PUSH1 0x60 DUP3 ADD DUP4 MSTORE PUSH0 SWAP3 PUSH1 0x20 DUP4 ADD SWAP1 DUP1 CALLDATASIZE DUP4 CALLDATACOPY POP POP DUP5 SLOAD DUP3 MLOAD SWAP3 SWAP4 POP PUSH1 0x1 PUSH1 0x1 PUSH1 0xA0 SHL SUB AND SWAP2 DUP4 SWAP2 POP PUSH0 SWAP1 PUSH2 0x34AE JUMPI PUSH2 0x34AE PUSH2 0x5705 JUMP JUMPDEST PUSH1 0x1 PUSH1 0x1 PUSH1 0xA0 SHL SUB SWAP3 DUP4 AND PUSH1 0x20 SWAP2 DUP3 MUL SWAP3 SWAP1 SWAP3 ADD DUP2 ADD SWAP2 SWAP1 SWAP2 MSTORE PUSH1 0x7 SLOAD PUSH1 0x40 DUP1 MLOAD PUSH4 0x15AB88C9 PUSH1 0xE3 SHL DUP2 MSTORE SWAP1 MLOAD SWAP2 SWAP1 SWAP4 AND SWAP3 PUSH4 0xAD5C4648 SWAP3 PUSH1 0x4 DUP1 DUP4 ADD SWAP4 SWAP2 SWAP3 DUP3 SWAP1 SUB ADD DUP2 DUP7 GAS STATICCALL ISZERO DUP1 ISZERO PUSH2 0x3505 JUMPI RETURNDATASIZE PUSH0 DUP1 RETURNDATACOPY RETURNDATASIZE PUSH0 REVERT JUMPDEST POP POP POP POP PUSH1 0x40 MLOAD RETURNDATASIZE PUSH1 0x1F NOT PUSH1 0x1F DUP3 ADD AND DUP3 ADD DUP1 PUSH1 0x40 MSTORE POP DUP2 ADD SWAP1 PUSH2 0x3529 SWAP2 SWAP1 PUSH2 0x56EA JUMP JUMPDEST DUP2 PUSH1 0x1 DUP2 MLOAD DUP2 LT PUSH2 0x353C JUMPI PUSH2 0x353C PUSH2 0x5705 JUMP JUMPDEST PUSH1 0x1 PUSH1 0x1 PUSH1 0xA0 SHL SUB SWAP3 DUP4 AND PUSH1 0x20 SWAP2 DUP3 MUL SWAP3 SWAP1 SWAP3 ADD ADD MSTORE PUSH1 0x7 SLOAD PUSH1 0x40 MLOAD PUSH4 0xD06CA61F PUSH1 0xE0 SHL DUP2 MSTORE PUSH0 SWAP3 SWAP2 SWAP1 SWAP2 AND SWAP1 PUSH4 0xD06CA61F SWAP1 PUSH2 0x357F SWAP1 DUP7 SWAP1 DUP7 SWAP1 PUSH1 0x4 ADD PUSH2 0x58D3 JUMP JUMPDEST PUSH0 PUSH1 0x40 MLOAD DUP1 DUP4 SUB DUP2 DUP7 GAS STATICCALL ISZERO DUP1 ISZERO PUSH2 0x3599 JUMPI RETURNDATASIZE PUSH0 DUP1 RETURNDATACOPY RETURNDATASIZE PUSH0 REVERT JUMPDEST POP POP POP POP PUSH1 0x40 MLOAD RETURNDATASIZE PUSH0 DUP3 RETURNDATACOPY PUSH1 0x1F RETURNDATASIZE SWAP1 DUP2 ADD PUSH1 0x1F NOT AND DUP3 ADD PUSH1 0x40 MSTORE PUSH2 0x35C0 SWAP2 SWAP1 DUP2 ADD SWAP1 PUSH2 0x58EB JUMP JUMPDEST SWAP1 POP PUSH0 PUSH2 0x2710 PUSH1 0x10 SLOAD PUSH2 0x2710 PUSH2 0x35D6 SWAP2 SWAP1 PUSH2 0x5854 JUMP JUMPDEST DUP4 PUSH1 0x1 DUP2 MLOAD DUP2 LT PUSH2 0x35E9 JUMPI PUSH2 0x35E9 PUSH2 0x5705 JUMP JUMPDEST PUSH1 0x20 MUL PUSH1 0x20 ADD ADD MLOAD PUSH2 0x35FB SWAP2 SWAP1 PUSH2 0x56B4 JUMP JUMPDEST PUSH2 0x3605 SWAP2 SWAP1 PUSH2 0x56CB JUMP JUMPDEST DUP6 SLOAD SWAP1 SWAP2 POP PUSH2 0x361F SWAP1 PUSH1 0x1 PUSH1 0x1 PUSH1 0xA0 SHL SUB AND DUP6 DUP4 CALLER PUSH2 0x3A1B JUMP JUMPDEST PUSH2 0x3629 SWAP1 DUP9 PUSH2 0x5841 JUMP JUMPDEST SWAP7 POP POP POP POP PUSH2 0x3820 JUMP JUMPDEST PUSH1 0x40 MLOAD PUSH1 0x20 ADD PUSH2 0x3642 SWAP1 PUSH2 0x57C2 JUMP JUMPDEST PUSH1 0x40 MLOAD PUSH1 0x20 DUP2 DUP4 SUB SUB DUP2 MSTORE SWAP1 PUSH1 0x40 MSTORE DUP1 MLOAD SWAP1 PUSH1 0x20 ADD KECCAK256 DUP3 PUSH1 0x2 ADD PUSH1 0x40 MLOAD PUSH1 0x20 ADD PUSH2 0x366C SWAP2 SWAP1 PUSH2 0x57D0 JUMP JUMPDEST PUSH1 0x40 MLOAD PUSH1 0x20 DUP2 DUP4 SUB SUB DUP2 MSTORE SWAP1 PUSH1 0x40 MSTORE DUP1 MLOAD SWAP1 PUSH1 0x20 ADD KECCAK256 SUB PUSH2 0x37EC JUMPI DUP2 SLOAD PUSH1 0x3 DUP4 ADD SLOAD PUSH1 0x7 SLOAD PUSH1 0x40 DUP1 MLOAD PUSH4 0x15AB88C9 PUSH1 0xE3 SHL DUP2 MSTORE SWAP1 MLOAD PUSH0 SWAP5 PUSH1 0x1 PUSH1 0x1 PUSH1 0xA0 SHL SUB SWAP1 DUP2 AND SWAP5 PUSH3 0xFFFFFF AND SWAP4 AND SWAP2 PUSH4 0xAD5C4648 SWAP2 PUSH1 0x4 DUP1 DUP4 ADD SWAP3 PUSH1 0x20 SWAP3 SWAP2 SWAP1 DUP3 SWAP1 SUB ADD DUP2 DUP7 GAS STATICCALL ISZERO DUP1 ISZERO PUSH2 0x36DF JUMPI RETURNDATASIZE PUSH0 DUP1 RETURNDATACOPY RETURNDATASIZE PUSH0 REVERT JUMPDEST POP POP POP POP PUSH1 0x40 MLOAD RETURNDATASIZE PUSH1 0x1F NOT PUSH1 0x1F DUP3 ADD AND DUP3 ADD DUP1 PUSH1 0x40 MSTORE POP DUP2 ADD SWAP1 PUSH2 0x3703 SWAP2 SWAP1 PUSH2 0x56EA JUMP JUMPDEST PUSH1 0x40 MLOAD PUSH1 0x20 ADD PUSH2 0x3715 SWAP4 SWAP3 SWAP2 SWAP1 PUSH2 0x5971 JUMP JUMPDEST PUSH1 0x40 DUP1 MLOAD PUSH1 0x1F NOT DUP2 DUP5 SUB ADD DUP2 MSTORE SWAP1 DUP3 SWAP1 MSTORE PUSH1 0x9 SLOAD PUSH4 0xCDCA1753 PUSH1 0xE0 SHL DUP4 MSTORE SWAP1 SWAP3 POP PUSH0 SWAP2 PUSH1 0x1 PUSH1 0x1 PUSH1 0xA0 SHL SUB SWAP1 SWAP2 AND SWAP1 PUSH4 0xCDCA1753 SWAP1 PUSH2 0x375A SWAP1 DUP6 SWAP1 DUP8 SWAP1 PUSH1 0x4 ADD PUSH2 0x59AC JUMP JUMPDEST PUSH1 0x20 PUSH1 0x40 MLOAD DUP1 DUP4 SUB DUP2 PUSH0 DUP8 GAS CALL ISZERO DUP1 ISZERO PUSH2 0x3776 JUMPI RETURNDATASIZE PUSH0 DUP1 RETURNDATACOPY RETURNDATASIZE PUSH0 REVERT JUMPDEST POP POP POP POP PUSH1 0x40 MLOAD RETURNDATASIZE PUSH1 0x1F NOT PUSH1 0x1F DUP3 ADD AND DUP3 ADD DUP1 PUSH1 0x40 MSTORE POP DUP2 ADD SWAP1 PUSH2 0x379A SWAP2 SWAP1 PUSH2 0x5689 JUMP JUMPDEST SWAP1 POP PUSH0 PUSH2 0x2710 PUSH1 0x10 SLOAD PUSH2 0x2710 PUSH2 0x37B0 SWAP2 SWAP1 PUSH2 0x5854 JUMP JUMPDEST PUSH2 0x37BA SWAP1 DUP5 PUSH2 0x56B4 JUMP JUMPDEST PUSH2 0x37C4 SWAP2 SWAP1 PUSH2 0x56CB JUMP JUMPDEST DUP6 SLOAD PUSH1 0x3 DUP8 ADD SLOAD SWAP2 SWAP3 POP PUSH2 0x361F SWAP2 PUSH1 0x1 PUSH1 0x1 PUSH1 0xA0 SHL SUB SWAP1 SWAP2 AND SWAP1 DUP7 SWAP1 PUSH3 0xFFFFFF AND DUP5 CALLER PUSH2 0x3C06 JUMP JUMPDEST PUSH1 0x40 MLOAD PUSH3 0x461BCD PUSH1 0xE5 SHL DUP2 MSTORE PUSH1 0x20 PUSH1 0x4 DUP3 ADD MSTORE PUSH1 0x9 PUSH1 0x24 DUP3 ADD MSTORE PUSH9 0x496E76616C69645653 PUSH1 0xB8 SHL PUSH1 0x44 DUP3 ADD MSTORE PUSH1 0x64 ADD PUSH2 0x8D0 JUMP JUMPDEST POP POP PUSH1 0x1 ADD PUSH2 0x3382 JUMP JUMPDEST POP DUP1 ISZERO PUSH2 0x2BC4 JUMPI PUSH1 0x40 MLOAD PUSH0 SWAP1 CALLER SWAP1 DUP4 SWAP1 DUP4 DUP2 DUP2 DUP2 DUP6 DUP8 GAS CALL SWAP3 POP POP POP RETURNDATASIZE DUP1 PUSH0 DUP2 EQ PUSH2 0x3870 JUMPI PUSH1 0x40 MLOAD SWAP2 POP PUSH1 0x1F NOT PUSH1 0x3F RETURNDATASIZE ADD AND DUP3 ADD PUSH1 0x40 MSTORE RETURNDATASIZE DUP3 MSTORE RETURNDATASIZE PUSH0 PUSH1 0x20 DUP5 ADD RETURNDATACOPY PUSH2 0x3875 JUMP JUMPDEST PUSH1 0x60 SWAP2 POP JUMPDEST POP POP SWAP1 POP DUP1 PUSH2 0x2004 JUMPI PUSH1 0x40 MLOAD PUSH3 0x461BCD PUSH1 0xE5 SHL DUP2 MSTORE PUSH1 0x20 PUSH1 0x4 DUP3 ADD MSTORE PUSH1 0x9 PUSH1 0x24 DUP3 ADD MSTORE PUSH9 0x8C8292988A888AA89 PUSH1 0xBB SHL PUSH1 0x44 DUP3 ADD MSTORE PUSH1 0x64 ADD PUSH2 0x8D0 JUMP JUMPDEST PUSH2 0x280E DUP4 DUP4 DUP4 PUSH1 0x1 PUSH2 0x4DCA JUMP JUMPDEST PUSH0 SLOAD PUSH1 0x1 PUSH1 0x1 PUSH1 0xA0 SHL SUB AND CALLER EQ PUSH2 0x23AF JUMPI PUSH1 0x40 MLOAD PUSH4 0x118CDAA7 PUSH1 0xE0 SHL DUP2 MSTORE CALLER PUSH1 0x4 DUP3 ADD MSTORE PUSH1 0x24 ADD PUSH2 0x8D0 JUMP JUMPDEST PUSH1 0x1 PUSH1 0x1 PUSH1 0xA0 SHL SUB DUP4 DUP2 AND PUSH0 SWAP1 DUP2 MSTORE PUSH1 0x2 PUSH1 0x20 SWAP1 DUP2 MSTORE PUSH1 0x40 DUP1 DUP4 KECCAK256 SWAP4 DUP7 AND DUP4 MSTORE SWAP3 SWAP1 MSTORE KECCAK256 SLOAD PUSH0 NOT DUP2 EQ PUSH2 0x1735 JUMPI DUP2 DUP2 LT ISZERO PUSH2 0x3952 JUMPI PUSH1 0x40 MLOAD PUSH4 0x7DC7A0D9 PUSH1 0xE1 SHL DUP2 MSTORE PUSH1 0x1 PUSH1 0x1 PUSH1 0xA0 SHL SUB DUP5 AND PUSH1 0x4 DUP3 ADD MSTORE PUSH1 0x24 DUP2 ADD DUP3 SWAP1 MSTORE PUSH1 0x44 DUP2 ADD DUP4 SWAP1 MSTORE PUSH1 0x64 ADD PUSH2 0x8D0 JUMP JUMPDEST PUSH2 0x1735 DUP5 DUP5 DUP5 DUP5 SUB PUSH0 PUSH2 0x4DCA JUMP JUMPDEST PUSH1 0x1 PUSH1 0x1 PUSH1 0xA0 SHL SUB DUP4 AND PUSH2 0x3989 JUMPI PUSH1 0x40 MLOAD PUSH4 0x4B637E8F PUSH1 0xE1 SHL DUP2 MSTORE PUSH0 PUSH1 0x4 DUP3 ADD MSTORE PUSH1 0x24 ADD PUSH2 0x8D0 JUMP JUMPDEST PUSH1 0x1 PUSH1 0x1 PUSH1 0xA0 SHL SUB DUP3 AND PUSH2 0x39B2 JUMPI PUSH1 0x40 MLOAD PUSH4 0xEC442F05 PUSH1 0xE0 SHL DUP2 MSTORE PUSH0 PUSH1 0x4 DUP3 ADD MSTORE PUSH1 0x24 ADD PUSH2 0x8D0 JUMP JUMPDEST PUSH2 0x280E DUP4 DUP4 DUP4 PUSH2 0x4E9C JUMP JUMPDEST PUSH0 SLOAD PUSH1 0x1 PUSH1 0xA0 SHL SWAP1 DIV PUSH1 0xFF AND ISZERO PUSH2 0x23AF JUMPI PUSH1 0x40 MLOAD PUSH4 0xD93C0665 PUSH1 0xE0 SHL DUP2 MSTORE PUSH1 0x4 ADD PUSH1 0x40 MLOAD DUP1 SWAP2 SUB SWAP1 REVERT JUMPDEST PUSH1 0x1 PUSH1 0x1 PUSH1 0xA0 SHL SUB DUP3 AND PUSH2 0x3A10 JUMPI PUSH1 0x40 MLOAD PUSH4 0x4B637E8F PUSH1 0xE1 SHL DUP2 MSTORE PUSH0 PUSH1 0x4 DUP3 ADD MSTORE PUSH1 0x24 ADD PUSH2 0x8D0 JUMP JUMPDEST PUSH2 0x2004 DUP3 PUSH0 DUP4 PUSH2 0x4E9C JUMP JUMPDEST PUSH1 0x40 DUP1 MLOAD PUSH1 0x2 DUP1 DUP3 MSTORE PUSH1 0x60 DUP3 ADD DUP4 MSTORE PUSH0 SWAP3 DUP4 SWAP3 SWAP2 SWAP1 PUSH1 0x20 DUP4 ADD SWAP1 DUP1 CALLDATASIZE DUP4 CALLDATACOPY ADD SWAP1 POP POP SWAP1 POP DUP6 DUP2 PUSH0 DUP2 MLOAD DUP2 LT PUSH2 0x3A52 JUMPI PUSH2 0x3A52 PUSH2 0x5705 JUMP JUMPDEST PUSH1 0x1 PUSH1 0x1 PUSH1 0xA0 SHL SUB SWAP3 DUP4 AND PUSH1 0x20 SWAP2 DUP3 MUL SWAP3 SWAP1 SWAP3 ADD DUP2 ADD SWAP2 SWAP1 SWAP2 MSTORE PUSH1 0x7 SLOAD PUSH1 0x40 DUP1 MLOAD PUSH4 0x15AB88C9 PUSH1 0xE3 SHL DUP2 MSTORE SWAP1 MLOAD SWAP2 SWAP1 SWAP4 AND SWAP3 PUSH4 0xAD5C4648 SWAP3 PUSH1 0x4 DUP1 DUP4 ADD SWAP4 SWAP2 SWAP3 DUP3 SWAP1 SUB ADD DUP2 DUP7 GAS STATICCALL ISZERO DUP1 ISZERO PUSH2 0x3AA9 JUMPI RETURNDATASIZE PUSH0 DUP1 RETURNDATACOPY RETURNDATASIZE PUSH0 REVERT JUMPDEST POP POP POP POP PUSH1 0x40 MLOAD RETURNDATASIZE PUSH1 0x1F NOT PUSH1 0x1F DUP3 ADD AND DUP3 ADD DUP1 PUSH1 0x40 MSTORE POP DUP2 ADD SWAP1 PUSH2 0x3ACD SWAP2 SWAP1 PUSH2 0x56EA JUMP JUMPDEST DUP2 PUSH1 0x1 DUP2 MLOAD DUP2 LT PUSH2 0x3AE0 JUMPI PUSH2 0x3AE0 PUSH2 0x5705 JUMP JUMPDEST PUSH1 0x1 PUSH1 0x1 PUSH1 0xA0 SHL SUB SWAP3 DUP4 AND PUSH1 0x20 SWAP2 DUP3 MUL SWAP3 SWAP1 SWAP3 ADD ADD MSTORE PUSH1 0x7 SLOAD PUSH1 0x40 MLOAD PUSH4 0x95EA7B3 PUSH1 0xE0 SHL DUP2 MSTORE SWAP1 DUP3 AND PUSH1 0x4 DUP3 ADD MSTORE PUSH1 0x24 DUP2 ADD DUP8 SWAP1 MSTORE SWAP1 DUP8 AND SWAP1 PUSH4 0x95EA7B3 SWAP1 PUSH1 0x44 ADD PUSH1 0x20 PUSH1 0x40 MLOAD DUP1 DUP4 SUB DUP2 PUSH0 DUP8 GAS CALL ISZERO DUP1 ISZERO PUSH2 0x3B3E JUMPI RETURNDATASIZE PUSH0 DUP1 RETURNDATACOPY RETURNDATASIZE PUSH0 REVERT JUMPDEST POP POP POP POP PUSH1 0x40 MLOAD RETURNDATASIZE PUSH1 0x1F NOT PUSH1 0x1F DUP3 ADD AND DUP3 ADD DUP1 PUSH1 0x40 MSTORE POP DUP2 ADD SWAP1 PUSH2 0x3B62 SWAP2 SWAP1 PUSH2 0x5867 JUMP JUMPDEST POP PUSH1 0x7 SLOAD PUSH1 0x40 MLOAD PUSH4 0x18CBAFE5 PUSH1 0xE0 SHL DUP2 MSTORE PUSH0 SWAP2 PUSH1 0x1 PUSH1 0x1 PUSH1 0xA0 SHL SUB AND SWAP1 PUSH4 0x18CBAFE5 SWAP1 PUSH2 0x3B9B SWAP1 DUP10 SWAP1 DUP10 SWAP1 DUP8 SWAP1 DUP11 SWAP1 TIMESTAMP SWAP1 PUSH1 0x4 ADD PUSH2 0x5B6C JUMP JUMPDEST PUSH0 PUSH1 0x40 MLOAD DUP1 DUP4 SUB DUP2 PUSH0 DUP8 GAS CALL ISZERO DUP1 ISZERO PUSH2 0x3BB6 JUMPI RETURNDATASIZE PUSH0 DUP1 RETURNDATACOPY RETURNDATASIZE PUSH0 REVERT JUMPDEST POP POP POP POP PUSH1 0x40 MLOAD RETURNDATASIZE PUSH0 DUP3 RETURNDATACOPY PUSH1 0x1F RETURNDATASIZE SWAP1 DUP2 ADD PUSH1 0x1F NOT AND DUP3 ADD PUSH1 0x40 MSTORE PUSH2 0x3BDD SWAP2 SWAP1 DUP2 ADD SWAP1 PUSH2 0x58EB JUMP JUMPDEST SWAP1 POP DUP1 PUSH1 0x1 DUP2 MLOAD DUP2 LT PUSH2 0x3BF2 JUMPI PUSH2 0x3BF2 PUSH2 0x5705 JUMP JUMPDEST PUSH1 0x20 MUL PUSH1 0x20 ADD ADD MLOAD SWAP3 POP POP POP SWAP5 SWAP4 POP POP POP POP JUMP JUMPDEST PUSH0 DUP1 PUSH1 0x40 MLOAD DUP1 PUSH2 0x100 ADD PUSH1 0x40 MSTORE DUP1 DUP9 PUSH1 0x1 PUSH1 0x1 PUSH1 0xA0 SHL SUB AND DUP2 MSTORE PUSH1 0x20 ADD PUSH1 0x7 PUSH0 SWAP1 SLOAD SWAP1 PUSH2 0x100 EXP SWAP1 DIV PUSH1 0x1 PUSH1 0x1 PUSH1 0xA0 SHL SUB AND PUSH1 0x1 PUSH1 0x1 PUSH1 0xA0 SHL SUB AND PUSH4 0xAD5C4648 PUSH1 0x40 MLOAD DUP2 PUSH4 0xFFFFFFFF AND PUSH1 0xE0 SHL DUP2 MSTORE PUSH1 0x4 ADD PUSH1 0x20 PUSH1 0x40 MLOAD DUP1 DUP4 SUB DUP2 DUP7 GAS STATICCALL ISZERO DUP1 ISZERO PUSH2 0x3C73 JUMPI RETURNDATASIZE PUSH0 DUP1 RETURNDATACOPY RETURNDATASIZE PUSH0 REVERT JUMPDEST POP POP POP POP PUSH1 0x40 MLOAD RETURNDATASIZE PUSH1 0x1F NOT PUSH1 0x1F DUP3 ADD AND DUP3 ADD DUP1 PUSH1 0x40 MSTORE POP DUP2 ADD SWAP1 PUSH2 0x3C97 SWAP2 SWAP1 PUSH2 0x56EA JUMP JUMPDEST PUSH1 0x1 PUSH1 0x1 PUSH1 0xA0 SHL SUB SWAP1 DUP2 AND DUP3 MSTORE PUSH3 0xFFFFFF DUP9 AND PUSH1 0x20 DUP4 ADD MSTORE DUP6 DUP2 AND PUSH1 0x40 DUP1 DUP5 ADD SWAP2 SWAP1 SWAP2 MSTORE TIMESTAMP PUSH1 0x60 DUP5 ADD MSTORE PUSH1 0x80 DUP4 ADD DUP11 SWAP1 MSTORE PUSH1 0xA0 DUP4 ADD DUP9 SWAP1 MSTORE PUSH0 PUSH1 0xC0 SWAP1 SWAP4 ADD SWAP3 SWAP1 SWAP3 MSTORE PUSH1 0x8 SLOAD SWAP2 MLOAD PUSH4 0x95EA7B3 PUSH1 0xE0 SHL DUP2 MSTORE SWAP2 DUP2 AND PUSH1 0x4 DUP4 ADD MSTORE PUSH1 0x24 DUP3 ADD DUP10 SWAP1 MSTORE SWAP2 SWAP3 POP SWAP1 DUP9 AND SWAP1 PUSH4 0x95EA7B3 SWAP1 PUSH1 0x44 ADD PUSH1 0x20 PUSH1 0x40 MLOAD DUP1 DUP4 SUB DUP2 PUSH0 DUP8 GAS CALL ISZERO DUP1 ISZERO PUSH2 0x3D23 JUMPI RETURNDATASIZE PUSH0 DUP1 RETURNDATACOPY RETURNDATASIZE PUSH0 REVERT JUMPDEST POP POP POP POP PUSH1 0x40 MLOAD RETURNDATASIZE PUSH1 0x1F NOT PUSH1 0x1F DUP3 ADD AND DUP3 ADD DUP1 PUSH1 0x40 MSTORE POP DUP2 ADD SWAP1 PUSH2 0x3D47 SWAP2 SWAP1 PUSH2 0x5867 JUMP JUMPDEST POP PUSH1 0x8 SLOAD PUSH1 0x40 MLOAD PUSH4 0x414BF389 PUSH1 0xE0 SHL DUP2 MSTORE PUSH1 0x1 PUSH1 0x1 PUSH1 0xA0 SHL SUB SWAP1 SWAP2 AND SWAP1 PUSH4 0x414BF389 SWAP1 PUSH2 0x3D78 SWAP1 DUP5 SWAP1 PUSH1 0x4 ADD PUSH2 0x5BA7 JUMP JUMPDEST PUSH1 0x20 PUSH1 0x40 MLOAD DUP1 DUP4 SUB DUP2 PUSH0 DUP8 GAS CALL ISZERO DUP1 ISZERO PUSH2 0x3D94 JUMPI RETURNDATASIZE PUSH0 DUP1 RETURNDATACOPY RETURNDATASIZE PUSH0 REVERT JUMPDEST POP POP POP POP PUSH1 0x40 MLOAD RETURNDATASIZE PUSH1 0x1F NOT PUSH1 0x1F DUP3 ADD AND DUP3 ADD DUP1 PUSH1 0x40 MSTORE POP DUP2 ADD SWAP1 PUSH2 0x3DB8 SWAP2 SWAP1 PUSH2 0x5689 JUMP JUMPDEST SWAP2 POP POP JUMPDEST SWAP6 SWAP5 POP POP POP POP POP JUMP JUMPDEST PUSH1 0x40 DUP1 MLOAD PUSH1 0x2 DUP1 DUP3 MSTORE PUSH1 0x60 DUP1 DUP4 ADD DUP5 MSTORE SWAP3 PUSH0 SWAP3 SWAP2 SWAP1 PUSH1 0x20 DUP4 ADD SWAP1 DUP1 CALLDATASIZE DUP4 CALLDATACOPY POP POP PUSH1 0x7 SLOAD PUSH1 0x40 DUP1 MLOAD PUSH4 0x15AB88C9 PUSH1 0xE3 SHL DUP2 MSTORE SWAP1 MLOAD SWAP4 SWAP5 POP PUSH1 0x1 PUSH1 0x1 PUSH1 0xA0 SHL SUB SWAP1 SWAP2 AND SWAP3 PUSH4 0xAD5C4648 SWAP3 POP PUSH1 0x4 DUP1 DUP4 ADD SWAP3 PUSH1 0x20 SWAP3 SWAP2 SWAP1 DUP3 SWAP1 SUB ADD DUP2 DUP7 GAS STATICCALL ISZERO DUP1 ISZERO PUSH2 0x3E30 JUMPI RETURNDATASIZE PUSH0 DUP1 RETURNDATACOPY RETURNDATASIZE PUSH0 REVERT JUMPDEST POP POP POP POP PUSH1 0x40 MLOAD RETURNDATASIZE PUSH1 0x1F NOT PUSH1 0x1F DUP3 ADD AND DUP3 ADD DUP1 PUSH1 0x40 MSTORE POP DUP2 ADD SWAP1 PUSH2 0x3E54 SWAP2 SWAP1 PUSH2 0x56EA JUMP JUMPDEST DUP2 PUSH0 DUP2 MLOAD DUP2 LT PUSH2 0x3E66 JUMPI PUSH2 0x3E66 PUSH2 0x5705 JUMP JUMPDEST PUSH1 0x20 MUL PUSH1 0x20 ADD ADD SWAP1 PUSH1 0x1 PUSH1 0x1 PUSH1 0xA0 SHL SUB AND SWAP1 DUP2 PUSH1 0x1 PUSH1 0x1 PUSH1 0xA0 SHL SUB AND DUP2 MSTORE POP POP DUP5 DUP2 PUSH1 0x1 DUP2 MLOAD DUP2 LT PUSH2 0x3E9A JUMPI PUSH2 0x3E9A PUSH2 0x5705 JUMP JUMPDEST PUSH1 0x1 PUSH1 0x1 PUSH1 0xA0 SHL SUB SWAP3 DUP4 AND PUSH1 0x20 SWAP2 DUP3 MUL SWAP3 SWAP1 SWAP3 ADD ADD MSTORE PUSH1 0x7 SLOAD PUSH1 0x40 MLOAD PUSH4 0x7FF36AB5 PUSH1 0xE0 SHL DUP2 MSTORE SWAP2 AND SWAP1 PUSH4 0x7FF36AB5 SWAP1 DUP7 SWAP1 PUSH2 0x3EDF SWAP1 DUP8 SWAP1 DUP7 SWAP1 ADDRESS SWAP1 TIMESTAMP SWAP1 PUSH1 0x4 ADD PUSH2 0x5C1D JUMP JUMPDEST PUSH0 PUSH1 0x40 MLOAD DUP1 DUP4 SUB DUP2 DUP6 DUP9 GAS CALL ISZERO DUP1 ISZERO PUSH2 0x3EFA JUMPI RETURNDATASIZE PUSH0 DUP1 RETURNDATACOPY RETURNDATASIZE PUSH0 REVERT JUMPDEST POP POP POP POP POP PUSH1 0x40 MLOAD RETURNDATASIZE PUSH0 DUP3 RETURNDATACOPY PUSH1 0x1F RETURNDATASIZE SWAP1 DUP2 ADD PUSH1 0x1F NOT AND DUP3 ADD PUSH1 0x40 MSTORE PUSH2 0x3DBC SWAP2 SWAP1 DUP2 ADD SWAP1 PUSH2 0x58EB JUMP JUMPDEST PUSH1 0x40 DUP1 MLOAD PUSH2 0x100 DUP2 ADD DUP1 DUP4 MSTORE PUSH1 0x7 SLOAD PUSH4 0x15AB88C9 PUSH1 0xE3 SHL SWAP1 SWAP2 MSTORE SWAP2 MLOAD PUSH0 SWAP3 DUP3 SWAP2 PUSH1 0x1 PUSH1 0x1 PUSH1 0xA0 SHL SUB SWAP1 SWAP2 AND SWAP1 PUSH4 0xAD5C4648 SWAP1 PUSH2 0x104 DUP1 DUP6 ADD SWAP2 PUSH1 0x20 SWAP2 DUP2 DUP8 SUB ADD DUP2 DUP7 GAS STATICCALL ISZERO DUP1 ISZERO PUSH2 0x3F75 JUMPI RETURNDATASIZE PUSH0 DUP1 RETURNDATACOPY RETURNDATASIZE PUSH0 REVERT JUMPDEST POP POP POP POP PUSH1 0x40 MLOAD RETURNDATASIZE PUSH1 0x1F NOT PUSH1 0x1F DUP3 ADD AND DUP3 ADD DUP1 PUSH1 0x40 MSTORE POP DUP2 ADD SWAP1 PUSH2 0x3F99 SWAP2 SWAP1 PUSH2 0x56EA JUMP JUMPDEST PUSH1 0x1 PUSH1 0x1 PUSH1 0xA0 SHL SUB SWAP1 DUP2 AND DUP3 MSTORE DUP8 DUP2 AND PUSH1 0x20 DUP4 ADD MSTORE PUSH3 0xFFFFFF DUP7 AND PUSH1 0x40 DUP1 DUP5 ADD SWAP2 SWAP1 SWAP2 MSTORE ADDRESS PUSH1 0x60 DUP5 ADD MSTORE TIMESTAMP PUSH1 0x80 DUP5 ADD MSTORE PUSH1 0xA0 DUP4 ADD DUP9 SWAP1 MSTORE PUSH1 0xC0 DUP4 ADD DUP7 SWAP1 MSTORE PUSH0 PUSH1 0xE0 SWAP1 SWAP4 ADD SWAP3 SWAP1 SWAP3 MSTORE PUSH1 0x8 SLOAD SWAP2 MLOAD PUSH4 0x414BF389 PUSH1 0xE0 SHL DUP2 MSTORE SWAP3 SWAP4 POP AND SWAP1 PUSH4 0x414BF389 SWAP1 DUP7 SWAP1 PUSH2 0x400B SWAP1 DUP6 SWAP1 PUSH1 0x4 ADD PUSH2 0x5BA7 JUMP JUMPDEST PUSH1 0x20 PUSH1 0x40 MLOAD DUP1 DUP4 SUB DUP2 DUP6 DUP9 GAS CALL ISZERO DUP1 ISZERO PUSH2 0x4027 JUMPI RETURNDATASIZE PUSH0 DUP1 RETURNDATACOPY RETURNDATASIZE PUSH0 REVERT JUMPDEST POP POP POP POP POP PUSH1 0x40 MLOAD RETURNDATASIZE PUSH1 0x1F NOT PUSH1 0x1F DUP3 ADD AND DUP3 ADD DUP1 PUSH1 0x40 MSTORE POP DUP2 ADD SWAP1 PUSH2 0x404C SWAP2 SWAP1 PUSH2 0x5689 JUMP JUMPDEST POP POP POP POP POP POP JUMP JUMPDEST PUSH1 0xB SLOAD DUP2 LT PUSH2 0x408E JUMPI PUSH1 0x40 MLOAD PUSH3 0x461BCD PUSH1 0xE5 SHL DUP2 MSTORE PUSH1 0x20 PUSH1 0x4 DUP3 ADD MSTORE PUSH1 0x6 PUSH1 0x24 DUP3 ADD MSTORE PUSH6 0x42D2DCC8CAF PUSH1 0xD3 SHL PUSH1 0x44 DUP3 ADD MSTORE PUSH1 0x64 ADD PUSH2 0x8D0 JUMP JUMPDEST PUSH1 0xB DUP1 SLOAD PUSH2 0x409E SWAP1 PUSH1 0x1 SWAP1 PUSH2 0x5854 JUMP JUMPDEST DUP2 SLOAD DUP2 LT PUSH2 0x40AE JUMPI PUSH2 0x40AE PUSH2 0x5705 JUMP JUMPDEST SWAP1 PUSH0 MSTORE PUSH1 0x20 PUSH0 KECCAK256 SWAP1 PUSH1 0x5 MUL ADD PUSH1 0xB DUP3 DUP2 SLOAD DUP2 LT PUSH2 0x40CD JUMPI PUSH2 0x40CD PUSH2 0x5705 JUMP JUMPDEST PUSH0 SWAP2 DUP3 MSTORE PUSH1 0x20 SWAP1 SWAP2 KECCAK256 DUP3 SLOAD PUSH1 0x5 SWAP1 SWAP3 MUL ADD DUP1 SLOAD PUSH1 0x1 PUSH1 0x1 PUSH1 0xA0 SHL SUB SWAP3 DUP4 AND PUSH1 0x1 PUSH1 0x1 PUSH1 0xA0 SHL SUB NOT SWAP2 DUP3 AND OR DUP3 SSTORE PUSH1 0x1 DUP1 DUP6 ADD SLOAD SWAP1 DUP4 ADD DUP1 SLOAD SWAP2 SWAP1 SWAP5 AND SWAP2 AND OR SWAP1 SWAP2 SSTORE PUSH1 0x2 DUP1 DUP4 ADD SLOAD SWAP1 DUP3 ADD SSTORE PUSH1 0x3 DUP1 DUP3 ADD SWAP1 PUSH2 0x412B SWAP1 DUP5 ADD DUP3 PUSH2 0x5C51 JUMP JUMPDEST POP PUSH1 0x4 SWAP2 DUP3 ADD SLOAD SWAP2 ADD DUP1 SLOAD PUSH3 0xFFFFFF NOT AND PUSH3 0xFFFFFF SWAP1 SWAP3 AND SWAP2 SWAP1 SWAP2 OR SWAP1 SSTORE PUSH1 0xB DUP1 SLOAD DUP1 PUSH2 0x415A JUMPI PUSH2 0x415A PUSH2 0x5D1D JUMP JUMPDEST PUSH0 DUP3 DUP2 MSTORE PUSH1 0x20 DUP2 KECCAK256 PUSH1 0x5 PUSH0 NOT SWAP1 SWAP4 ADD SWAP3 DUP4 MUL ADD DUP1 SLOAD PUSH1 0x1 PUSH1 0x1 PUSH1 0xA0 SHL SUB NOT SWAP1 DUP2 AND DUP3 SSTORE PUSH1 0x1 DUP3 ADD DUP1 SLOAD SWAP1 SWAP2 AND SWAP1 SSTORE PUSH1 0x2 DUP2 ADD DUP3 SWAP1 SSTORE SWAP1 PUSH2 0x419D PUSH1 0x3 DUP4 ADD DUP3 PUSH2 0x4FC2 JUMP JUMPDEST POP PUSH1 0x4 ADD DUP1 SLOAD PUSH3 0xFFFFFF NOT AND SWAP1 SSTORE SWAP1 SSTORE POP JUMP JUMPDEST PUSH0 DUP1 SLOAD PUSH1 0x1 PUSH1 0x1 PUSH1 0xA0 SHL SUB DUP4 DUP2 AND PUSH1 0x1 PUSH1 0x1 PUSH1 0xA0 SHL SUB NOT DUP4 AND DUP2 OR DUP5 SSTORE PUSH1 0x40 MLOAD SWAP2 SWAP1 SWAP3 AND SWAP3 DUP4 SWAP2 PUSH32 0x8BE0079C531659141344CD1FD0A4F28419497F9722A3DAAFE3B4186F6B6457E0 SWAP2 SWAP1 LOG3 POP POP JUMP JUMPDEST PUSH0 DUP1 DUP5 GT PUSH2 0x421F JUMPI PUSH1 0x40 MLOAD PUSH3 0x461BCD PUSH1 0xE5 SHL DUP2 MSTORE PUSH1 0x4 ADD PUSH2 0x8D0 SWAP1 PUSH2 0x566D JUMP JUMPDEST PUSH1 0x1 PUSH1 0x1 PUSH1 0xA0 SHL SUB DUP6 AND PUSH2 0x4260 JUMPI PUSH1 0x40 MLOAD PUSH3 0x461BCD PUSH1 0xE5 SHL DUP2 MSTORE PUSH1 0x20 PUSH1 0x4 DUP3 ADD MSTORE PUSH1 0x8 PUSH1 0x24 DUP3 ADD MSTORE PUSH8 0x2161646472657373 PUSH1 0xC0 SHL PUSH1 0x44 DUP3 ADD MSTORE PUSH1 0x64 ADD PUSH2 0x8D0 JUMP JUMPDEST PUSH0 DUP4 MLOAD GT PUSH2 0x4299 JUMPI PUSH1 0x40 MLOAD PUSH3 0x461BCD PUSH1 0xE5 SHL DUP2 MSTORE PUSH1 0x20 PUSH1 0x4 DUP3 ADD MSTORE PUSH1 0x6 PUSH1 0x24 DUP3 ADD MSTORE PUSH6 0x21656D707479 PUSH1 0xD0 SHL PUSH1 0x44 DUP3 ADD MSTORE PUSH1 0x64 ADD PUSH2 0x8D0 JUMP JUMPDEST PUSH1 0x40 MLOAD PUSH1 0x20 ADD PUSH2 0x42A8 SWAP1 PUSH2 0x5882 JUMP JUMPDEST PUSH1 0x40 MLOAD PUSH1 0x20 DUP2 DUP4 SUB SUB DUP2 MSTORE SWAP1 PUSH1 0x40 MSTORE DUP1 MLOAD SWAP1 PUSH1 0x20 ADD KECCAK256 DUP4 PUSH1 0x40 MLOAD PUSH1 0x20 ADD PUSH2 0x42CF SWAP2 SWAP1 PUSH2 0x59CD JUMP JUMPDEST PUSH1 0x40 MLOAD PUSH1 0x20 DUP2 DUP4 SUB SUB DUP2 MSTORE SWAP1 PUSH1 0x40 MSTORE DUP1 MLOAD SWAP1 PUSH1 0x20 ADD KECCAK256 SUB PUSH2 0x4518 JUMPI PUSH1 0x40 DUP1 MLOAD PUSH1 0x2 DUP1 DUP3 MSTORE PUSH1 0x60 DUP3 ADD DUP4 MSTORE PUSH0 SWAP3 PUSH1 0x20 DUP4 ADD SWAP1 DUP1 CALLDATASIZE DUP4 CALLDATACOPY ADD SWAP1 POP POP SWAP1 POP DUP6 DUP2 PUSH0 DUP2 MLOAD DUP2 LT PUSH2 0x431D JUMPI PUSH2 0x431D PUSH2 0x5705 JUMP JUMPDEST PUSH1 0x1 PUSH1 0x1 PUSH1 0xA0 SHL SUB SWAP3 DUP4 AND PUSH1 0x20 SWAP2 DUP3 MUL SWAP3 SWAP1 SWAP3 ADD DUP2 ADD SWAP2 SWAP1 SWAP2 MSTORE PUSH1 0x7 SLOAD PUSH1 0x40 DUP1 MLOAD PUSH4 0x15AB88C9 PUSH1 0xE3 SHL DUP2 MSTORE SWAP1 MLOAD SWAP2 SWAP1 SWAP4 AND SWAP3 PUSH4 0xAD5C4648 SWAP3 PUSH1 0x4 DUP1 DUP4 ADD SWAP4 SWAP2 SWAP3 DUP3 SWAP1 SUB ADD DUP2 DUP7 GAS STATICCALL ISZERO DUP1 ISZERO PUSH2 0x4374 JUMPI RETURNDATASIZE PUSH0 DUP1 RETURNDATACOPY RETURNDATASIZE PUSH0 REVERT JUMPDEST POP POP POP POP PUSH1 0x40 MLOAD RETURNDATASIZE PUSH1 0x1F NOT PUSH1 0x1F DUP3 ADD AND DUP3 ADD DUP1 PUSH1 0x40 MSTORE POP DUP2 ADD SWAP1 PUSH2 0x4398 SWAP2 SWAP1 PUSH2 0x56EA JUMP JUMPDEST DUP2 PUSH1 0x1 DUP2 MLOAD DUP2 LT PUSH2 0x43AB JUMPI PUSH2 0x43AB PUSH2 0x5705 JUMP JUMPDEST PUSH1 0x1 PUSH1 0x1 PUSH1 0xA0 SHL SUB SWAP3 DUP4 AND PUSH1 0x20 SWAP2 DUP3 MUL SWAP3 SWAP1 SWAP3 ADD ADD MSTORE PUSH1 0x7 SLOAD PUSH1 0x40 MLOAD PUSH4 0xD06CA61F PUSH1 0xE0 SHL DUP2 MSTORE PUSH0 SWAP3 SWAP2 SWAP1 SWAP2 AND SWAP1 PUSH4 0xD06CA61F SWAP1 PUSH2 0x43EE SWAP1 DUP10 SWAP1 DUP7 SWAP1 PUSH1 0x4 ADD PUSH2 0x58D3 JUMP JUMPDEST PUSH0 PUSH1 0x40 MLOAD DUP1 DUP4 SUB DUP2 DUP7 GAS STATICCALL ISZERO DUP1 ISZERO PUSH2 0x4408 JUMPI RETURNDATASIZE PUSH0 DUP1 RETURNDATACOPY RETURNDATASIZE PUSH0 REVERT JUMPDEST POP POP POP POP PUSH1 0x40 MLOAD RETURNDATASIZE PUSH0 DUP3 RETURNDATACOPY PUSH1 0x1F RETURNDATASIZE SWAP1 DUP2 ADD PUSH1 0x1F NOT AND DUP3 ADD PUSH1 0x40 MSTORE PUSH2 0x442F SWAP2 SWAP1 DUP2 ADD SWAP1 PUSH2 0x58EB JUMP JUMPDEST SWAP1 POP PUSH1 0x2 DUP2 MLOAD LT ISZERO PUSH2 0x446C JUMPI PUSH1 0x40 MLOAD PUSH3 0x461BCD PUSH1 0xE5 SHL DUP2 MSTORE PUSH1 0x20 PUSH1 0x4 DUP3 ADD MSTORE PUSH1 0x6 PUSH1 0x24 DUP3 ADD MSTORE PUSH6 0x21455850414D PUSH1 0xD0 SHL PUSH1 0x44 DUP3 ADD MSTORE PUSH1 0x64 ADD PUSH2 0x8D0 JUMP JUMPDEST PUSH0 PUSH2 0x2710 PUSH1 0x10 SLOAD PUSH2 0x2710 PUSH2 0x4480 SWAP2 SWAP1 PUSH2 0x5854 JUMP JUMPDEST DUP4 PUSH1 0x1 DUP2 MLOAD DUP2 LT PUSH2 0x4493 JUMPI PUSH2 0x4493 PUSH2 0x5705 JUMP JUMPDEST PUSH1 0x20 MUL PUSH1 0x20 ADD ADD MLOAD PUSH2 0x44A5 SWAP2 SWAP1 PUSH2 0x56B4 JUMP JUMPDEST PUSH2 0x44AF SWAP2 SWAP1 PUSH2 0x56CB JUMP JUMPDEST SWAP1 POP PUSH2 0x44BD DUP9 DUP9 DUP4 ADDRESS PUSH2 0x3A1B JUMP JUMPDEST SWAP4 POP DUP1 DUP5 LT ISZERO PUSH2 0x44F9 JUMPI PUSH1 0x40 MLOAD PUSH3 0x461BCD PUSH1 0xE5 SHL DUP2 MSTORE PUSH1 0x20 PUSH1 0x4 DUP3 ADD MSTORE PUSH1 0x7 PUSH1 0x24 DUP3 ADD MSTORE PUSH7 0xF185B5BDD5B9D PUSH1 0xCA SHL PUSH1 0x44 DUP3 ADD MSTORE PUSH1 0x64 ADD PUSH2 0x8D0 JUMP JUMPDEST DUP4 PUSH1 0x13 PUSH0 DUP3 DUP3 SLOAD PUSH2 0x450A SWAP2 SWAP1 PUSH2 0x5841 JUMP JUMPDEST SWAP1 SWAP2 SSTORE POP PUSH2 0x3335 SWAP4 POP POP POP POP JUMP JUMPDEST PUSH1 0x40 MLOAD PUSH1 0x20 ADD PUSH2 0x4527 SWAP1 PUSH2 0x57C2 JUMP JUMPDEST PUSH1 0x40 MLOAD PUSH1 0x20 DUP2 DUP4 SUB SUB DUP2 MSTORE SWAP1 PUSH1 0x40 MSTORE DUP1 MLOAD SWAP1 PUSH1 0x20 ADD KECCAK256 DUP4 PUSH1 0x40 MLOAD PUSH1 0x20 ADD PUSH2 0x454E SWAP2 SWAP1 PUSH2 0x59CD JUMP JUMPDEST PUSH1 0x40 MLOAD PUSH1 0x20 DUP2 DUP4 SUB SUB DUP2 MSTORE SWAP1 PUSH1 0x40 MSTORE DUP1 MLOAD SWAP1 PUSH1 0x20 ADD KECCAK256 SUB PUSH2 0x1C7C JUMPI PUSH0 DUP6 DUP4 PUSH1 0x7 PUSH0 SWAP1 SLOAD SWAP1 PUSH2 0x100 EXP SWAP1 DIV PUSH1 0x1 PUSH1 0x1 PUSH1 0xA0 SHL SUB AND PUSH1 0x1 PUSH1 0x1 PUSH1 0xA0 SHL SUB AND PUSH4 0xAD5C4648 PUSH1 0x40 MLOAD DUP2 PUSH4 0xFFFFFFFF AND PUSH1 0xE0 SHL DUP2 MSTORE PUSH1 0x4 ADD PUSH1 0x20 PUSH1 0x40 MLOAD DUP1 DUP4 SUB DUP2 DUP7 GAS STATICCALL ISZERO DUP1 ISZERO PUSH2 0x45BC JUMPI RETURNDATASIZE PUSH0 DUP1 RETURNDATACOPY RETURNDATASIZE PUSH0 REVERT JUMPDEST POP POP POP POP PUSH1 0x40 MLOAD RETURNDATASIZE PUSH1 0x1F NOT PUSH1 0x1F DUP3 ADD AND DUP3 ADD DUP1 PUSH1 0x40 MSTORE POP DUP2 ADD SWAP1 PUSH2 0x45E0 SWAP2 SWAP1 PUSH2 0x56EA JUMP JUMPDEST PUSH1 0x40 MLOAD PUSH1 0x20 ADD PUSH2 0x45F2 SWAP4 SWAP3 SWAP2 SWAP1 PUSH2 0x5971 JUMP JUMPDEST PUSH1 0x40 DUP1 MLOAD PUSH1 0x1F NOT DUP2 DUP5 SUB ADD DUP2 MSTORE SWAP1 DUP3 SWAP1 MSTORE PUSH1 0x9 SLOAD PUSH4 0xCDCA1753 PUSH1 0xE0 SHL DUP4 MSTORE SWAP1 SWAP3 POP PUSH0 SWAP2 PUSH1 0x1 PUSH1 0x1 PUSH1 0xA0 SHL SUB SWAP1 SWAP2 AND SWAP1 PUSH4 0xCDCA1753 SWAP1 PUSH2 0x4637 SWAP1 DUP6 SWAP1 DUP11 SWAP1 PUSH1 0x4 ADD PUSH2 0x59AC JUMP JUMPDEST PUSH1 0x20 PUSH1 0x40 MLOAD DUP1 DUP4 SUB DUP2 PUSH0 DUP8 GAS CALL ISZERO DUP1 ISZERO PUSH2 0x4653 JUMPI RETURNDATASIZE PUSH0 DUP1 RETURNDATACOPY RETURNDATASIZE PUSH0 REVERT JUMPDEST POP POP POP POP PUSH1 0x40 MLOAD RETURNDATASIZE PUSH1 0x1F NOT PUSH1 0x1F DUP3 ADD AND DUP3 ADD DUP1 PUSH1 0x40 MSTORE POP DUP2 ADD SWAP1 PUSH2 0x4677 SWAP2 SWAP1 PUSH2 0x5689 JUMP JUMPDEST SWAP1 POP PUSH0 DUP2 GT PUSH2 0x46B0 JUMPI PUSH1 0x40 MLOAD PUSH3 0x461BCD PUSH1 0xE5 SHL DUP2 MSTORE PUSH1 0x20 PUSH1 0x4 DUP3 ADD MSTORE PUSH1 0x5 PUSH1 0x24 DUP3 ADD MSTORE PUSH5 0x6D696E3E3 PUSH1 0xDC SHL PUSH1 0x44 DUP3 ADD MSTORE PUSH1 0x64 ADD PUSH2 0x8D0 JUMP JUMPDEST PUSH0 PUSH2 0x2710 PUSH1 0x10 SLOAD PUSH2 0x2710 PUSH2 0x46C4 SWAP2 SWAP1 PUSH2 0x5854 JUMP JUMPDEST PUSH2 0x46CE SWAP1 DUP5 PUSH2 0x56B4 JUMP JUMPDEST PUSH2 0x46D8 SWAP2 SWAP1 PUSH2 0x56CB JUMP JUMPDEST SWAP1 POP PUSH2 0x46E7 DUP9 DUP9 DUP8 DUP5 ADDRESS PUSH2 0x3C06 JUMP JUMPDEST SWAP4 POP DUP1 DUP5 LT ISZERO PUSH2 0x4721 JUMPI PUSH1 0x40 MLOAD PUSH3 0x461BCD PUSH1 0xE5 SHL DUP2 MSTORE PUSH1 0x20 PUSH1 0x4 DUP3 ADD MSTORE PUSH1 0x5 PUSH1 0x24 DUP3 ADD MSTORE PUSH5 0x6D696E3E3 PUSH1 0xDC SHL PUSH1 0x44 DUP3 ADD MSTORE PUSH1 0x64 ADD PUSH2 0x8D0 JUMP JUMPDEST DUP4 PUSH1 0x14 PUSH0 DUP3 DUP3 SLOAD PUSH2 0x450A SWAP2 SWAP1 PUSH2 0x5841 JUMP JUMPDEST PUSH1 0x40 MLOAD PUSH1 0x20 ADD PUSH2 0x4741 SWAP1 PUSH2 0x5882 JUMP JUMPDEST PUSH1 0x40 MLOAD PUSH1 0x20 DUP2 DUP4 SUB SUB DUP2 MSTORE SWAP1 PUSH1 0x40 MSTORE DUP1 MLOAD SWAP1 PUSH1 0x20 ADD KECCAK256 DUP3 PUSH1 0x40 MLOAD PUSH1 0x20 ADD PUSH2 0x4768 SWAP2 SWAP1 PUSH2 0x59CD JUMP JUMPDEST PUSH1 0x40 MLOAD PUSH1 0x20 DUP2 DUP4 SUB SUB DUP2 MSTORE SWAP1 PUSH1 0x40 MSTORE DUP1 MLOAD SWAP1 PUSH1 0x20 ADD KECCAK256 SUB PUSH2 0x4AD7 JUMPI PUSH1 0x40 DUP1 MLOAD PUSH1 0x2 DUP1 DUP3 MSTORE PUSH1 0x60 DUP3 ADD DUP4 MSTORE PUSH0 SWAP3 PUSH1 0x20 DUP4 ADD SWAP1 DUP1 CALLDATASIZE DUP4 CALLDATACOPY POP POP PUSH1 0x7 SLOAD PUSH1 0x40 DUP1 MLOAD PUSH4 0x15AB88C9 PUSH1 0xE3 SHL DUP2 MSTORE SWAP1 MLOAD SWAP4 SWAP5 POP PUSH1 0x1 PUSH1 0x1 PUSH1 0xA0 SHL SUB SWAP1 SWAP2 AND SWAP3 PUSH4 0xAD5C4648 SWAP3 POP PUSH1 0x4 DUP1 DUP4 ADD SWAP3 PUSH1 0x20 SWAP3 SWAP2 SWAP1 DUP3 SWAP1 SUB ADD DUP2 DUP7 GAS STATICCALL ISZERO DUP1 ISZERO PUSH2 0x47EA JUMPI RETURNDATASIZE PUSH0 DUP1 RETURNDATACOPY RETURNDATASIZE PUSH0 REVERT JUMPDEST POP POP POP POP PUSH1 0x40 MLOAD RETURNDATASIZE PUSH1 0x1F NOT PUSH1 0x1F DUP3 ADD AND DUP3 ADD DUP1 PUSH1 0x40 MSTORE POP DUP2 ADD SWAP1 PUSH2 0x480E SWAP2 SWAP1 PUSH2 0x56EA JUMP JUMPDEST DUP2 PUSH0 DUP2 MLOAD DUP2 LT PUSH2 0x4820 JUMPI PUSH2 0x4820 PUSH2 0x5705 JUMP JUMPDEST PUSH1 0x20 MUL PUSH1 0x20 ADD ADD SWAP1 PUSH1 0x1 PUSH1 0x1 PUSH1 0xA0 SHL SUB AND SWAP1 DUP2 PUSH1 0x1 PUSH1 0x1 PUSH1 0xA0 SHL SUB AND DUP2 MSTORE POP POP DUP5 DUP2 PUSH1 0x1 DUP2 MLOAD DUP2 LT PUSH2 0x4854 JUMPI PUSH2 0x4854 PUSH2 0x5705 JUMP JUMPDEST PUSH1 0x1 PUSH1 0x1 PUSH1 0xA0 SHL SUB SWAP3 DUP4 AND PUSH1 0x20 SWAP2 DUP3 MUL SWAP3 SWAP1 SWAP3 ADD ADD MSTORE PUSH1 0x7 SLOAD PUSH1 0x40 MLOAD PUSH4 0x7C0329D PUSH1 0xE2 SHL DUP2 MSTORE PUSH0 SWAP3 SWAP2 SWAP1 SWAP2 AND SWAP1 PUSH4 0x1F00CA74 SWAP1 PUSH2 0x4897 SWAP1 DUP9 SWAP1 DUP7 SWAP1 PUSH1 0x4 ADD PUSH2 0x58D3 JUMP JUMPDEST PUSH0 PUSH1 0x40 MLOAD DUP1 DUP4 SUB DUP2 DUP7 GAS STATICCALL ISZERO DUP1 ISZERO PUSH2 0x48B1 JUMPI RETURNDATASIZE PUSH0 DUP1 RETURNDATACOPY RETURNDATASIZE PUSH0 REVERT JUMPDEST POP POP POP POP PUSH1 0x40 MLOAD RETURNDATASIZE PUSH0 DUP3 RETURNDATACOPY PUSH1 0x1F RETURNDATASIZE SWAP1 DUP2 ADD PUSH1 0x1F NOT AND DUP3 ADD PUSH1 0x40 MSTORE PUSH2 0x48D8 SWAP2 SWAP1 DUP2 ADD SWAP1 PUSH2 0x58EB JUMP JUMPDEST SWAP1 POP DUP1 PUSH1 0x1 DUP2 MLOAD DUP2 LT PUSH2 0x48ED JUMPI PUSH2 0x48ED PUSH2 0x5705 JUMP JUMPDEST PUSH1 0x20 MUL PUSH1 0x20 ADD ADD MLOAD PUSH1 0x13 SLOAD GT ISZERO PUSH2 0x4A03 JUMPI PUSH1 0x7 SLOAD DUP2 MLOAD PUSH0 SWAP2 PUSH1 0x1 PUSH1 0x1 PUSH1 0xA0 SHL SUB AND SWAP1 PUSH4 0xD06CA61F SWAP1 DUP5 SWAP1 PUSH1 0x1 SWAP1 DUP2 LT PUSH2 0x4928 JUMPI PUSH2 0x4928 PUSH2 0x5705 JUMP JUMPDEST PUSH1 0x20 MUL PUSH1 0x20 ADD ADD MLOAD DUP6 PUSH1 0x40 MLOAD DUP4 PUSH4 0xFFFFFFFF AND PUSH1 0xE0 SHL DUP2 MSTORE PUSH1 0x4 ADD PUSH2 0x494E SWAP3 SWAP2 SWAP1 PUSH2 0x58D3 JUMP JUMPDEST PUSH0 PUSH1 0x40 MLOAD DUP1 DUP4 SUB DUP2 DUP7 GAS STATICCALL ISZERO DUP1 ISZERO PUSH2 0x4968 JUMPI RETURNDATASIZE PUSH0 DUP1 RETURNDATACOPY RETURNDATASIZE PUSH0 REVERT JUMPDEST POP POP POP POP PUSH1 0x40 MLOAD RETURNDATASIZE PUSH0 DUP3 RETURNDATACOPY PUSH1 0x1F RETURNDATASIZE SWAP1 DUP2 ADD PUSH1 0x1F NOT AND DUP3 ADD PUSH1 0x40 MSTORE PUSH2 0x498F SWAP2 SWAP1 DUP2 ADD SWAP1 PUSH2 0x58EB JUMP JUMPDEST SWAP1 POP PUSH0 PUSH2 0x2710 PUSH1 0x10 SLOAD PUSH2 0x2710 PUSH2 0x49A5 SWAP2 SWAP1 PUSH2 0x5854 JUMP JUMPDEST DUP4 PUSH1 0x1 DUP2 MLOAD DUP2 LT PUSH2 0x49B8 JUMPI PUSH2 0x49B8 PUSH2 0x5705 JUMP JUMPDEST PUSH1 0x20 MUL PUSH1 0x20 ADD ADD MLOAD PUSH2 0x49CA SWAP2 SWAP1 PUSH2 0x56B4 JUMP JUMPDEST PUSH2 0x49D4 SWAP2 SWAP1 PUSH2 0x56CB JUMP JUMPDEST SWAP1 POP PUSH2 0x49FB DUP9 DUP5 PUSH1 0x1 DUP2 MLOAD DUP2 LT PUSH2 0x49ED JUMPI PUSH2 0x49ED PUSH2 0x5705 JUMP JUMPDEST PUSH1 0x20 MUL PUSH1 0x20 ADD ADD MLOAD DUP4 PUSH2 0x3DC5 JUMP JUMPDEST POP POP POP PUSH2 0x4AD0 JUMP JUMPDEST PUSH1 0x7 SLOAD PUSH1 0x13 SLOAD PUSH1 0x40 MLOAD PUSH4 0xD06CA61F PUSH1 0xE0 SHL DUP2 MSTORE PUSH0 SWAP3 PUSH1 0x1 PUSH1 0x1 PUSH1 0xA0 SHL SUB AND SWAP2 PUSH4 0xD06CA61F SWAP2 PUSH2 0x4A37 SWAP2 SWAP1 DUP8 SWAP1 PUSH1 0x4 ADD PUSH2 0x58D3 JUMP JUMPDEST PUSH0 PUSH1 0x40 MLOAD DUP1 DUP4 SUB DUP2 DUP7 GAS STATICCALL ISZERO DUP1 ISZERO PUSH2 0x4A51 JUMPI RETURNDATASIZE PUSH0 DUP1 RETURNDATACOPY RETURNDATASIZE PUSH0 REVERT JUMPDEST POP POP POP POP PUSH1 0x40 MLOAD RETURNDATASIZE PUSH0 DUP3 RETURNDATACOPY PUSH1 0x1F RETURNDATASIZE SWAP1 DUP2 ADD PUSH1 0x1F NOT AND DUP3 ADD PUSH1 0x40 MSTORE PUSH2 0x4A78 SWAP2 SWAP1 DUP2 ADD SWAP1 PUSH2 0x58EB JUMP JUMPDEST SWAP1 POP PUSH0 PUSH2 0x2710 PUSH1 0x10 SLOAD PUSH2 0x2710 PUSH2 0x4A8E SWAP2 SWAP1 PUSH2 0x5854 JUMP JUMPDEST DUP4 PUSH1 0x1 DUP2 MLOAD DUP2 LT PUSH2 0x4AA1 JUMPI PUSH2 0x4AA1 PUSH2 0x5705 JUMP JUMPDEST PUSH1 0x20 MUL PUSH1 0x20 ADD ADD MLOAD PUSH2 0x4AB3 SWAP2 SWAP1 PUSH2 0x56B4 JUMP JUMPDEST PUSH2 0x4ABD SWAP2 SWAP1 PUSH2 0x56CB JUMP JUMPDEST SWAP1 POP PUSH2 0x4ACC DUP9 PUSH1 0x13 SLOAD DUP4 PUSH2 0x3DC5 JUMP JUMPDEST POP POP POP JUMPDEST POP POP PUSH2 0x1735 JUMP JUMPDEST PUSH1 0x40 MLOAD PUSH1 0x20 ADD PUSH2 0x4AE6 SWAP1 PUSH2 0x57C2 JUMP JUMPDEST PUSH1 0x40 MLOAD PUSH1 0x20 DUP2 DUP4 SUB SUB DUP2 MSTORE SWAP1 PUSH1 0x40 MSTORE DUP1 MLOAD SWAP1 PUSH1 0x20 ADD KECCAK256 DUP3 PUSH1 0x40 MLOAD PUSH1 0x20 ADD PUSH2 0x4B0D SWAP2 SWAP1 PUSH2 0x59CD JUMP JUMPDEST PUSH1 0x40 MLOAD PUSH1 0x20 DUP2 DUP4 SUB SUB DUP2 MSTORE SWAP1 PUSH1 0x40 MSTORE DUP1 MLOAD SWAP1 PUSH1 0x20 ADD KECCAK256 SUB PUSH2 0x1C7C JUMPI PUSH1 0x7 SLOAD PUSH1 0x40 DUP1 MLOAD PUSH4 0x15AB88C9 PUSH1 0xE3 SHL DUP2 MSTORE SWAP1 MLOAD PUSH0 SWAP3 PUSH1 0x1 PUSH1 0x1 PUSH1 0xA0 SHL SUB AND SWAP2 PUSH4 0xAD5C4648 SWAP2 PUSH1 0x4 DUP1 DUP4 ADD SWAP3 PUSH1 0x20 SWAP3 SWAP2 SWAP1 DUP3 SWAP1 SUB ADD DUP2 DUP7 GAS STATICCALL ISZERO DUP1 ISZERO PUSH2 0x4B6F JUMPI RETURNDATASIZE PUSH0 DUP1 RETURNDATACOPY RETURNDATASIZE PUSH0 REVERT JUMPDEST POP POP POP POP PUSH1 0x40 MLOAD RETURNDATASIZE PUSH1 0x1F NOT PUSH1 0x1F DUP3 ADD AND DUP3 ADD DUP1 PUSH1 0x40 MSTORE POP DUP2 ADD SWAP1 PUSH2 0x4B93 SWAP2 SWAP1 PUSH2 0x56EA JUMP JUMPDEST DUP3 DUP7 PUSH1 0x40 MLOAD PUSH1 0x20 ADD PUSH2 0x4BA7 SWAP4 SWAP3 SWAP2 SWAP1 PUSH2 0x5971 JUMP JUMPDEST PUSH1 0x40 DUP1 MLOAD PUSH1 0x1F NOT DUP2 DUP5 SUB ADD DUP2 MSTORE SWAP1 DUP3 SWAP1 MSTORE PUSH1 0x9 SLOAD PUSH4 0x2F80BB1D PUSH1 0xE0 SHL DUP4 MSTORE SWAP1 SWAP3 POP PUSH0 SWAP2 PUSH1 0x1 PUSH1 0x1 PUSH1 0xA0 SHL SUB SWAP1 SWAP2 AND SWAP1 PUSH4 0x2F80BB1D SWAP1 PUSH2 0x4BEC SWAP1 DUP6 SWAP1 DUP10 SWAP1 PUSH1 0x4 ADD PUSH2 0x59AC JUMP JUMPDEST PUSH1 0x20 PUSH1 0x40 MLOAD DUP1 DUP4 SUB DUP2 PUSH0 DUP8 GAS CALL ISZERO DUP1 ISZERO PUSH2 0x4C08 JUMPI RETURNDATASIZE PUSH0 DUP1 RETURNDATACOPY RETURNDATASIZE PUSH0 REVERT JUMPDEST POP POP POP POP PUSH1 0x40 MLOAD RETURNDATASIZE PUSH1 0x1F NOT PUSH1 0x1F DUP3 ADD AND DUP3 ADD DUP1 PUSH1 0x40 MSTORE POP DUP2 ADD SWAP1 PUSH2 0x4C2C SWAP2 SWAP1 PUSH2 0x5689 JUMP JUMPDEST SWAP1 POP DUP1 PUSH1 0x14 SLOAD GT ISZERO PUSH2 0x4CE9 JUMPI PUSH1 0x9 SLOAD PUSH1 0x40 MLOAD PUSH4 0xCDCA1753 PUSH1 0xE0 SHL DUP2 MSTORE PUSH0 SWAP2 PUSH1 0x1 PUSH1 0x1 PUSH1 0xA0 SHL SUB AND SWAP1 PUSH4 0xCDCA1753 SWAP1 PUSH2 0x4C6A SWAP1 DUP7 SWAP1 DUP7 SWAP1 PUSH1 0x4 ADD PUSH2 0x59AC JUMP JUMPDEST PUSH1 0x20 PUSH1 0x40 MLOAD DUP1 DUP4 SUB DUP2 PUSH0 DUP8 GAS CALL ISZERO DUP1 ISZERO PUSH2 0x4C86 JUMPI RETURNDATASIZE PUSH0 DUP1 RETURNDATACOPY RETURNDATASIZE PUSH0 REVERT JUMPDEST POP POP POP POP PUSH1 0x40 MLOAD RETURNDATASIZE PUSH1 0x1F NOT PUSH1 0x1F DUP3 ADD AND DUP3 ADD DUP1 PUSH1 0x40 MSTORE POP DUP2 ADD SWAP1 PUSH2 0x4CAA SWAP2 SWAP1 PUSH2 0x5689 JUMP JUMPDEST SWAP1 POP PUSH0 PUSH2 0x2710 PUSH1 0x10 SLOAD PUSH2 0x2710 PUSH2 0x4CC0 SWAP2 SWAP1 PUSH2 0x5854 JUMP JUMPDEST PUSH2 0x4CCA SWAP1 DUP5 PUSH2 0x56B4 JUMP JUMPDEST PUSH2 0x4CD4 SWAP2 SWAP1 PUSH2 0x56CB JUMP JUMPDEST SWAP1 POP PUSH2 0x4CE2 DUP9 DUP5 DUP8 DUP5 PUSH2 0x3F22 JUMP JUMPDEST POP POP PUSH2 0x4AD0 JUMP JUMPDEST PUSH1 0x9 SLOAD PUSH1 0x14 SLOAD PUSH1 0x40 MLOAD PUSH4 0xCDCA1753 PUSH1 0xE0 SHL DUP2 MSTORE PUSH0 SWAP3 PUSH1 0x1 PUSH1 0x1 PUSH1 0xA0 SHL SUB AND SWAP2 PUSH4 0xCDCA1753 SWAP2 PUSH2 0x4D1C SWAP2 DUP8 SWAP2 PUSH1 0x4 ADD PUSH2 0x59AC JUMP JUMPDEST PUSH1 0x20 PUSH1 0x40 MLOAD DUP1 DUP4 SUB DUP2 PUSH0 DUP8 GAS CALL ISZERO DUP1 ISZERO PUSH2 0x4D38 JUMPI RETURNDATASIZE PUSH0 DUP1 RETURNDATACOPY RETURNDATASIZE PUSH0 REVERT JUMPDEST POP POP POP POP PUSH1 0x40 MLOAD RETURNDATASIZE PUSH1 0x1F NOT PUSH1 0x1F DUP3 ADD AND DUP3 ADD DUP1 PUSH1 0x40 MSTORE POP DUP2 ADD SWAP1 PUSH2 0x4D5C SWAP2 SWAP1 PUSH2 0x5689 JUMP JUMPDEST SWAP1 POP PUSH0 PUSH2 0x2710 PUSH1 0x10 SLOAD PUSH2 0x2710 PUSH2 0x4D72 SWAP2 SWAP1 PUSH2 0x5854 JUMP JUMPDEST PUSH2 0x4D7C SWAP1 DUP5 PUSH2 0x56B4 JUMP JUMPDEST PUSH2 0x4D86 SWAP2 SWAP1 PUSH2 0x56CB JUMP JUMPDEST SWAP1 POP PUSH2 0x1ADE DUP9 PUSH1 0x14 SLOAD DUP8 DUP5 PUSH2 0x3F22 JUMP JUMPDEST PUSH1 0x1 PUSH1 0x1 PUSH1 0xA0 SHL SUB DUP3 AND PUSH2 0x4DBF JUMPI PUSH1 0x40 MLOAD PUSH4 0xEC442F05 PUSH1 0xE0 SHL DUP2 MSTORE PUSH0 PUSH1 0x4 DUP3 ADD MSTORE PUSH1 0x24 ADD PUSH2 0x8D0 JUMP JUMPDEST PUSH2 0x2004 PUSH0 DUP4 DUP4 PUSH2 0x4E9C JUMP JUMPDEST PUSH1 0x1 PUSH1 0x1 PUSH1 0xA0 SHL SUB DUP5 AND PUSH2 0x4DF3 JUMPI PUSH1 0x40 MLOAD PUSH4 0xE602DF05 PUSH1 0xE0 SHL DUP2 MSTORE PUSH0 PUSH1 0x4 DUP3 ADD MSTORE PUSH1 0x24 ADD PUSH2 0x8D0 JUMP JUMPDEST PUSH1 0x1 PUSH1 0x1 PUSH1 0xA0 SHL SUB DUP4 AND PUSH2 0x4E1C JUMPI PUSH1 0x40 MLOAD PUSH4 0x4A1406B1 PUSH1 0xE1 SHL DUP2 MSTORE PUSH0 PUSH1 0x4 DUP3 ADD MSTORE PUSH1 0x24 ADD PUSH2 0x8D0 JUMP JUMPDEST PUSH1 0x1 PUSH1 0x1 PUSH1 0xA0 SHL SUB DUP1 DUP6 AND PUSH0 SWAP1 DUP2 MSTORE PUSH1 0x2 PUSH1 0x20 SWAP1 DUP2 MSTORE PUSH1 0x40 DUP1 DUP4 KECCAK256 SWAP4 DUP8 AND DUP4 MSTORE SWAP3 SWAP1 MSTORE KECCAK256 DUP3 SWAP1 SSTORE DUP1 ISZERO PUSH2 0x1735 JUMPI DUP3 PUSH1 0x1 PUSH1 0x1 PUSH1 0xA0 SHL SUB AND DUP5 PUSH1 0x1 PUSH1 0x1 PUSH1 0xA0 SHL SUB AND PUSH32 0x8C5BE1E5EBEC7D5BD14F71427D1E84F3DD0314C0F7B2291E5B200AC8C7C3B925 DUP5 PUSH1 0x40 MLOAD PUSH2 0x4E8E SWAP2 DUP2 MSTORE PUSH1 0x20 ADD SWAP1 JUMP JUMPDEST PUSH1 0x40 MLOAD DUP1 SWAP2 SUB SWAP1 LOG3 POP POP POP POP JUMP JUMPDEST PUSH1 0x1 PUSH1 0x1 PUSH1 0xA0 SHL SUB DUP4 AND PUSH2 0x4EC6 JUMPI DUP1 PUSH1 0x3 PUSH0 DUP3 DUP3 SLOAD PUSH2 0x4EBB SWAP2 SWAP1 PUSH2 0x5841 JUMP JUMPDEST SWAP1 SWAP2 SSTORE POP PUSH2 0x4F36 SWAP1 POP JUMP JUMPDEST PUSH1 0x1 PUSH1 0x1 PUSH1 0xA0 SHL SUB DUP4 AND PUSH0 SWAP1 DUP2 MSTORE PUSH1 0x1 PUSH1 0x20 MSTORE PUSH1 0x40 SWAP1 KECCAK256 SLOAD DUP2 DUP2 LT ISZERO PUSH2 0x4F18 JUMPI PUSH1 0x40 MLOAD PUSH4 0x391434E3 PUSH1 0xE2 SHL DUP2 MSTORE PUSH1 0x1 PUSH1 0x1 PUSH1 0xA0 SHL SUB DUP6 AND PUSH1 0x4 DUP3 ADD MSTORE PUSH1 0x24 DUP2 ADD DUP3 SWAP1 MSTORE PUSH1 0x44 DUP2 ADD DUP4 SWAP1 MSTORE PUSH1 0x64 ADD PUSH2 0x8D0 JUMP JUMPDEST PUSH1 0x1 PUSH1 0x1 PUSH1 0xA0 SHL SUB DUP5 AND PUSH0 SWAP1 DUP2 MSTORE PUSH1 0x1 PUSH1 0x20 MSTORE PUSH1 0x40 SWAP1 KECCAK256 SWAP1 DUP3 SWAP1 SUB SWAP1 SSTORE JUMPDEST PUSH1 0x1 PUSH1 0x1 PUSH1 0xA0 SHL SUB DUP3 AND PUSH2 0x4F52 JUMPI PUSH1 0x3 DUP1 SLOAD DUP3 SWAP1 SUB SWAP1 SSTORE PUSH2 0x4F70 JUMP JUMPDEST PUSH1 0x1 PUSH1 0x1 PUSH1 0xA0 SHL SUB DUP3 AND PUSH0 SWAP1 DUP2 MSTORE PUSH1 0x1 PUSH1 0x20 MSTORE PUSH1 0x40 SWAP1 KECCAK256 DUP1 SLOAD DUP3 ADD SWAP1 SSTORE JUMPDEST DUP2 PUSH1 0x1 PUSH1 0x1 PUSH1 0xA0 SHL SUB AND DUP4 PUSH1 0x1 PUSH1 0x1 PUSH1 0xA0 SHL SUB AND PUSH32 0xDDF252AD1BE2C89B69C2B068FC378DAA952BA7F163C4A11628F55A4DF523B3EF DUP4 PUSH1 0x40 MLOAD PUSH2 0x4FB5 SWAP2 DUP2 MSTORE PUSH1 0x20 ADD SWAP1 JUMP JUMPDEST PUSH1 0x40 MLOAD DUP1 SWAP2 SUB SWAP1 LOG3 POP POP POP JUMP JUMPDEST POP DUP1 SLOAD PUSH2 0x4FCE SWAP1 PUSH2 0x5635 JUMP JUMPDEST PUSH0 DUP3 SSTORE DUP1 PUSH1 0x1F LT PUSH2 0x4FDD JUMPI POP POP JUMP JUMPDEST PUSH1 0x1F ADD PUSH1 0x20 SWAP1 DIV SWAP1 PUSH0 MSTORE PUSH1 0x20 PUSH0 KECCAK256 SWAP1 DUP2 ADD SWAP1 PUSH2 0x2BC4 SWAP2 SWAP1 JUMPDEST DUP1 DUP3 GT ISZERO PUSH2 0x5008 JUMPI PUSH0 DUP2 SSTORE PUSH1 0x1 ADD PUSH2 0x4FF5 JUMP JUMPDEST POP SWAP1 JUMP JUMPDEST PUSH0 DUP2 MLOAD DUP1 DUP5 MSTORE DUP1 PUSH1 0x20 DUP5 ADD PUSH1 0x20 DUP7 ADD MCOPY PUSH0 PUSH1 0x20 DUP3 DUP7 ADD ADD MSTORE PUSH1 0x20 PUSH1 0x1F NOT PUSH1 0x1F DUP4 ADD AND DUP6 ADD ADD SWAP2 POP POP SWAP3 SWAP2 POP POP JUMP JUMPDEST PUSH1 0x20 DUP2 MSTORE PUSH0 PUSH2 0x504C PUSH1 0x20 DUP4 ADD DUP5 PUSH2 0x500C JUMP JUMPDEST SWAP4 SWAP3 POP POP POP JUMP JUMPDEST PUSH1 0x1 PUSH1 0x1 PUSH1 0xA0 SHL SUB DUP2 AND DUP2 EQ PUSH2 0x2BC4 JUMPI PUSH0 DUP1 REVERT JUMPDEST PUSH0 DUP1 PUSH1 0x40 DUP4 DUP6 SUB SLT ISZERO PUSH2 0x5078 JUMPI PUSH0 DUP1 REVERT JUMPDEST DUP3 CALLDATALOAD PUSH2 0x5083 DUP2 PUSH2 0x5053 JUMP JUMPDEST SWAP5 PUSH1 0x20 SWAP4 SWAP1 SWAP4 ADD CALLDATALOAD SWAP4 POP POP POP JUMP JUMPDEST PUSH0 DUP1 PUSH1 0x40 DUP4 DUP6 SUB SLT ISZERO PUSH2 0x50A2 JUMPI PUSH0 DUP1 REVERT JUMPDEST POP POP DUP1 CALLDATALOAD SWAP3 PUSH1 0x20 SWAP1 SWAP2 ADD CALLDATALOAD SWAP2 POP JUMP JUMPDEST PUSH0 PUSH1 0x20 DUP3 DUP5 SUB SLT ISZERO PUSH2 0x50C1 JUMPI PUSH0 DUP1 REVERT JUMPDEST POP CALLDATALOAD SWAP2 SWAP1 POP JUMP JUMPDEST PUSH0 DUP1 PUSH0 PUSH1 0x60 DUP5 DUP7 SUB SLT ISZERO PUSH2 0x50DA JUMPI PUSH0 DUP1 REVERT JUMPDEST DUP4 CALLDATALOAD PUSH2 0x50E5 DUP2 PUSH2 0x5053 JUMP JUMPDEST SWAP3 POP PUSH1 0x20 DUP5 ADD CALLDATALOAD PUSH2 0x50F5 DUP2 PUSH2 0x5053 JUMP JUMPDEST SWAP3 SWAP6 SWAP3 SWAP5 POP POP POP PUSH1 0x40 SWAP2 SWAP1 SWAP2 ADD CALLDATALOAD SWAP1 JUMP JUMPDEST PUSH0 PUSH1 0x20 DUP3 ADD PUSH1 0x20 DUP4 MSTORE DUP1 DUP5 MLOAD DUP1 DUP4 MSTORE PUSH1 0x40 DUP6 ADD SWAP2 POP PUSH1 0x40 DUP2 PUSH1 0x5 SHL DUP7 ADD ADD SWAP3 POP PUSH1 0x20 DUP7 ADD PUSH0 JUMPDEST DUP3 DUP2 LT ISZERO PUSH2 0x5196 JUMPI PUSH1 0x3F NOT DUP8 DUP7 SUB ADD DUP5 MSTORE DUP2 MLOAD PUSH1 0x1 DUP1 PUSH1 0xA0 SHL SUB DUP2 MLOAD AND DUP7 MSTORE PUSH1 0x20 DUP2 ADD MLOAD PUSH1 0x20 DUP8 ADD MSTORE PUSH1 0x40 DUP2 ADD MLOAD PUSH1 0x80 PUSH1 0x40 DUP9 ADD MSTORE PUSH2 0x516E PUSH1 0x80 DUP9 ADD DUP3 PUSH2 0x500C JUMP JUMPDEST PUSH1 0x60 SWAP3 DUP4 ADD MLOAD PUSH3 0xFFFFFF AND SWAP8 SWAP1 SWAP3 ADD SWAP7 SWAP1 SWAP7 MSTORE SWAP5 POP PUSH1 0x20 SWAP4 DUP5 ADD SWAP4 SWAP2 SWAP1 SWAP2 ADD SWAP1 PUSH1 0x1 ADD PUSH2 0x512C JUMP JUMPDEST POP SWAP3 SWAP7 SWAP6 POP POP POP POP POP POP JUMP JUMPDEST PUSH1 0x1 DUP1 PUSH1 0xA0 SHL SUB DUP6 AND DUP2 MSTORE DUP4 PUSH1 0x20 DUP3 ADD MSTORE PUSH1 0x80 PUSH1 0x40 DUP3 ADD MSTORE PUSH0 PUSH2 0x51C8 PUSH1 0x80 DUP4 ADD DUP6 PUSH2 0x500C JUMP JUMPDEST SWAP1 POP PUSH3 0xFFFFFF DUP4 AND PUSH1 0x60 DUP4 ADD MSTORE SWAP6 SWAP5 POP POP POP POP POP JUMP JUMPDEST PUSH0 PUSH1 0x20 DUP3 DUP5 SUB SLT ISZERO PUSH2 0x51EE JUMPI PUSH0 DUP1 REVERT JUMPDEST DUP2 CALLDATALOAD PUSH2 0x504C DUP2 PUSH2 0x5053 JUMP JUMPDEST PUSH1 0x1 PUSH1 0x1 PUSH1 0xA0 SHL SUB DUP7 DUP2 AND DUP3 MSTORE DUP6 AND PUSH1 0x20 DUP3 ADD MSTORE PUSH1 0x40 DUP2 ADD DUP5 SWAP1 MSTORE PUSH1 0xA0 PUSH1 0x60 DUP3 ADD DUP2 SWAP1 MSTORE PUSH0 SWAP1 PUSH2 0x522B SWAP1 DUP4 ADD DUP6 PUSH2 0x500C JUMP JUMPDEST SWAP1 POP PUSH3 0xFFFFFF DUP4 AND PUSH1 0x80 DUP4 ADD MSTORE SWAP7 SWAP6 POP POP POP POP POP POP JUMP JUMPDEST PUSH4 0x4E487B71 PUSH1 0xE0 SHL PUSH0 MSTORE PUSH1 0x41 PUSH1 0x4 MSTORE PUSH1 0x24 PUSH0 REVERT JUMPDEST PUSH1 0x40 MLOAD PUSH1 0x1F DUP3 ADD PUSH1 0x1F NOT AND DUP2 ADD PUSH1 0x1 PUSH1 0x1 PUSH1 0x40 SHL SUB DUP2 GT DUP3 DUP3 LT OR ISZERO PUSH2 0x527E JUMPI PUSH2 0x527E PUSH2 0x5242 JUMP JUMPDEST PUSH1 0x40 MSTORE SWAP2 SWAP1 POP JUMP JUMPDEST DUP1 CALLDATALOAD PUSH3 0xFFFFFF DUP2 AND DUP2 EQ PUSH2 0x5298 JUMPI PUSH0 DUP1 REVERT JUMPDEST SWAP2 SWAP1 POP JUMP JUMPDEST PUSH0 DUP1 PUSH0 DUP1 PUSH1 0x80 DUP6 DUP8 SUB SLT ISZERO PUSH2 0x52B0 JUMPI PUSH0 DUP1 REVERT JUMPDEST DUP5 CALLDATALOAD PUSH2 0x52BB DUP2 PUSH2 0x5053 JUMP JUMPDEST SWAP4 POP PUSH1 0x20 DUP6 ADD CALLDATALOAD SWAP3 POP PUSH1 0x40 DUP6 ADD CALLDATALOAD PUSH1 0x1 PUSH1 0x1 PUSH1 0x40 SHL SUB DUP2 GT ISZERO PUSH2 0x52DC JUMPI PUSH0 DUP1 REVERT JUMPDEST DUP6 ADD PUSH1 0x1F DUP2 ADD DUP8 SGT PUSH2 0x52EC JUMPI PUSH0 DUP1 REVERT JUMPDEST DUP1 CALLDATALOAD PUSH1 0x1 PUSH1 0x1 PUSH1 0x40 SHL SUB DUP2 GT ISZERO PUSH2 0x5305 JUMPI PUSH2 0x5305 PUSH2 0x5242 JUMP JUMPDEST PUSH2 0x5318 PUSH1 0x1F DUP3 ADD PUSH1 0x1F NOT AND PUSH1 0x20 ADD PUSH2 0x5256 JUMP JUMPDEST DUP2 DUP2 MSTORE DUP9 PUSH1 0x20 DUP4 DUP6 ADD ADD GT ISZERO PUSH2 0x532C JUMPI PUSH0 DUP1 REVERT JUMPDEST DUP2 PUSH1 0x20 DUP5 ADD PUSH1 0x20 DUP4 ADD CALLDATACOPY PUSH0 PUSH1 0x20 DUP4 DUP4 ADD ADD MSTORE DUP1 SWAP5 POP POP POP POP PUSH2 0x5350 PUSH1 0x60 DUP7 ADD PUSH2 0x5286 JUMP JUMPDEST SWAP1 POP SWAP3 SWAP6 SWAP2 SWAP5 POP SWAP3 POP JUMP JUMPDEST DUP1 ISZERO ISZERO DUP2 EQ PUSH2 0x2BC4 JUMPI PUSH0 DUP1 REVERT JUMPDEST PUSH0 DUP1 PUSH1 0x40 DUP4 DUP6 SUB SLT ISZERO PUSH2 0x5379 JUMPI PUSH0 DUP1 REVERT JUMPDEST DUP3 CALLDATALOAD PUSH2 0x5384 DUP2 PUSH2 0x5053 JUMP JUMPDEST SWAP2 POP PUSH1 0x20 DUP4 ADD CALLDATALOAD PUSH2 0x5394 DUP2 PUSH2 0x535B JUMP JUMPDEST DUP1 SWAP2 POP POP SWAP3 POP SWAP3 SWAP1 POP JUMP JUMPDEST PUSH0 PUSH1 0x1 PUSH1 0x1 PUSH1 0x40 SHL SUB DUP3 GT ISZERO PUSH2 0x53B7 JUMPI PUSH2 0x53B7 PUSH2 0x5242 JUMP JUMPDEST POP PUSH1 0x5 SHL PUSH1 0x20 ADD SWAP1 JUMP JUMPDEST PUSH0 PUSH1 0x20 DUP3 DUP5 SUB SLT ISZERO PUSH2 0x53D1 JUMPI PUSH0 DUP1 REVERT JUMPDEST DUP2 CALLDATALOAD PUSH1 0x1 PUSH1 0x1 PUSH1 0x40 SHL SUB DUP2 GT ISZERO PUSH2 0x53E6 JUMPI PUSH0 DUP1 REVERT JUMPDEST DUP3 ADD PUSH1 0x1F DUP2 ADD DUP5 SGT PUSH2 0x53F6 JUMPI PUSH0 DUP1 REVERT JUMPDEST DUP1 CALLDATALOAD PUSH2 0x5409 PUSH2 0x5404 DUP3 PUSH2 0x539F JUMP JUMPDEST PUSH2 0x5256 JUMP JUMPDEST DUP1 DUP3 DUP3 MSTORE PUSH1 0x20 DUP3 ADD SWAP2 POP PUSH1 0x20 DUP4 PUSH1 0x5 SHL DUP6 ADD ADD SWAP3 POP DUP7 DUP4 GT ISZERO PUSH2 0x542A JUMPI PUSH0 DUP1 REVERT JUMPDEST PUSH1 0x20 DUP5 ADD SWAP4 POP JUMPDEST DUP3 DUP5 LT ISZERO PUSH2 0x544C JUMPI DUP4 CALLDATALOAD DUP3 MSTORE PUSH1 0x20 SWAP4 DUP5 ADD SWAP4 SWAP1 SWAP2 ADD SWAP1 PUSH2 0x5431 JUMP JUMPDEST SWAP7 SWAP6 POP POP POP POP POP POP JUMP JUMPDEST PUSH0 DUP1 DUP4 PUSH1 0x1F DUP5 ADD SLT PUSH2 0x5466 JUMPI PUSH0 DUP1 REVERT JUMPDEST POP DUP2 CALLDATALOAD PUSH1 0x1 PUSH1 0x1 PUSH1 0x40 SHL SUB DUP2 GT ISZERO PUSH2 0x547C JUMPI PUSH0 DUP1 REVERT JUMPDEST PUSH1 0x20 DUP4 ADD SWAP2 POP DUP4 PUSH1 0x20 DUP3 PUSH1 0x5 SHL DUP6 ADD ADD GT ISZERO PUSH2 0x5496 JUMPI PUSH0 DUP1 REVERT JUMPDEST SWAP3 POP SWAP3 SWAP1 POP JUMP JUMPDEST PUSH0 DUP1 PUSH0 DUP1 PUSH0 DUP1 PUSH0 DUP1 PUSH1 0x80 DUP10 DUP12 SUB SLT ISZERO PUSH2 0x54B4 JUMPI PUSH0 DUP1 REVERT JUMPDEST DUP9 CALLDATALOAD PUSH1 0x1 PUSH1 0x1 PUSH1 0x40 SHL SUB DUP2 GT ISZERO PUSH2 0x54C9 JUMPI PUSH0 DUP1 REVERT JUMPDEST PUSH2 0x54D5 DUP12 DUP3 DUP13 ADD PUSH2 0x5456 JUMP JUMPDEST SWAP1 SWAP10 POP SWAP8 POP POP PUSH1 0x20 DUP10 ADD CALLDATALOAD PUSH1 0x1 PUSH1 0x1 PUSH1 0x40 SHL SUB DUP2 GT ISZERO PUSH2 0x54F3 JUMPI PUSH0 DUP1 REVERT JUMPDEST PUSH2 0x54FF DUP12 DUP3 DUP13 ADD PUSH2 0x5456 JUMP JUMPDEST SWAP1 SWAP8 POP SWAP6 POP POP PUSH1 0x40 DUP10 ADD CALLDATALOAD PUSH1 0x1 PUSH1 0x1 PUSH1 0x40 SHL SUB DUP2 GT ISZERO PUSH2 0x551D JUMPI PUSH0 DUP1 REVERT JUMPDEST PUSH2 0x5529 DUP12 DUP3 DUP13 ADD PUSH2 0x5456 JUMP JUMPDEST SWAP1 SWAP6 POP SWAP4 POP POP PUSH1 0x60 DUP10 ADD CALLDATALOAD PUSH1 0x1 PUSH1 0x1 PUSH1 0x40 SHL SUB DUP2 GT ISZERO PUSH2 0x5547 JUMPI PUSH0 DUP1 REVERT JUMPDEST PUSH2 0x5553 DUP12 DUP3 DUP13 ADD PUSH2 0x5456 JUMP JUMPDEST SWAP10 SWAP13 SWAP9 SWAP12 POP SWAP7 SWAP10 POP SWAP5 SWAP8 SWAP4 SWAP7 SWAP3 SWAP6 SWAP5 POP POP POP JUMP JUMPDEST PUSH0 PUSH1 0x20 DUP3 ADD PUSH1 0x20 DUP4 MSTORE DUP1 DUP5 MLOAD DUP1 DUP4 MSTORE PUSH1 0x40 DUP6 ADD SWAP2 POP PUSH1 0x40 DUP2 PUSH1 0x5 SHL DUP7 ADD ADD SWAP3 POP PUSH1 0x20 DUP7 ADD PUSH0 JUMPDEST DUP3 DUP2 LT ISZERO PUSH2 0x5196 JUMPI PUSH1 0x3F NOT DUP8 DUP7 SUB ADD DUP5 MSTORE DUP2 MLOAD PUSH1 0x1 DUP1 PUSH1 0xA0 SHL SUB DUP2 MLOAD AND DUP7 MSTORE PUSH1 0x1 DUP1 PUSH1 0xA0 SHL SUB PUSH1 0x20 DUP3 ADD MLOAD AND PUSH1 0x20 DUP8 ADD MSTORE PUSH1 0x40 DUP2 ADD MLOAD PUSH1 0x40 DUP8 ADD MSTORE PUSH1 0x60 DUP2 ADD MLOAD PUSH1 0xA0 PUSH1 0x60 DUP9 ADD MSTORE PUSH2 0x55E1 PUSH1 0xA0 DUP9 ADD DUP3 PUSH2 0x500C JUMP JUMPDEST PUSH1 0x80 SWAP3 DUP4 ADD MLOAD PUSH3 0xFFFFFF AND SWAP8 SWAP1 SWAP3 ADD SWAP7 SWAP1 SWAP7 MSTORE SWAP5 POP PUSH1 0x20 SWAP4 DUP5 ADD SWAP4 SWAP2 SWAP1 SWAP2 ADD SWAP1 PUSH1 0x1 ADD PUSH2 0x558D JUMP JUMPDEST PUSH0 DUP1 PUSH1 0x40 DUP4 DUP6 SUB SLT ISZERO PUSH2 0x561A JUMPI PUSH0 DUP1 REVERT JUMPDEST DUP3 CALLDATALOAD PUSH2 0x5625 DUP2 PUSH2 0x5053 JUMP JUMPDEST SWAP2 POP PUSH1 0x20 DUP4 ADD CALLDATALOAD PUSH2 0x5394 DUP2 PUSH2 0x5053 JUMP JUMPDEST PUSH1 0x1 DUP2 DUP2 SHR SWAP1 DUP3 AND DUP1 PUSH2 0x5649 JUMPI PUSH1 0x7F DUP3 AND SWAP2 POP JUMPDEST PUSH1 0x20 DUP3 LT DUP2 SUB PUSH2 0x5667 JUMPI PUSH4 0x4E487B71 PUSH1 0xE0 SHL PUSH0 MSTORE PUSH1 0x22 PUSH1 0x4 MSTORE PUSH1 0x24 PUSH0 REVERT JUMPDEST POP SWAP2 SWAP1 POP JUMP JUMPDEST PUSH1 0x20 DUP1 DUP3 MSTORE PUSH1 0x2 SWAP1 DUP3 ADD MSTORE PUSH2 0x3E3 PUSH1 0xF4 SHL PUSH1 0x40 DUP3 ADD MSTORE PUSH1 0x60 ADD SWAP1 JUMP JUMPDEST PUSH0 PUSH1 0x20 DUP3 DUP5 SUB SLT ISZERO PUSH2 0x5699 JUMPI PUSH0 DUP1 REVERT JUMPDEST POP MLOAD SWAP2 SWAP1 POP JUMP JUMPDEST PUSH4 0x4E487B71 PUSH1 0xE0 SHL PUSH0 MSTORE PUSH1 0x11 PUSH1 0x4 MSTORE PUSH1 0x24 PUSH0 REVERT JUMPDEST DUP1 DUP3 MUL DUP2 ISZERO DUP3 DUP3 DIV DUP5 EQ OR PUSH2 0x88C JUMPI PUSH2 0x88C PUSH2 0x56A0 JUMP JUMPDEST PUSH0 DUP3 PUSH2 0x56E5 JUMPI PUSH4 0x4E487B71 PUSH1 0xE0 SHL PUSH0 MSTORE PUSH1 0x12 PUSH1 0x4 MSTORE PUSH1 0x24 PUSH0 REVERT JUMPDEST POP DIV SWAP1 JUMP JUMPDEST PUSH0 PUSH1 0x20 DUP3 DUP5 SUB SLT ISZERO PUSH2 0x56FA JUMPI PUSH0 DUP1 REVERT JUMPDEST DUP2 MLOAD PUSH2 0x504C DUP2 PUSH2 0x5053 JUMP JUMPDEST PUSH4 0x4E487B71 PUSH1 0xE0 SHL PUSH0 MSTORE PUSH1 0x32 PUSH1 0x4 MSTORE PUSH1 0x24 PUSH0 REVERT JUMPDEST PUSH1 0x1 PUSH1 0x1 PUSH1 0xA0 SHL SUB DUP6 AND DUP2 MSTORE PUSH1 0x20 DUP2 ADD DUP5 SWAP1 MSTORE PUSH1 0x80 PUSH1 0x40 DUP3 ADD MSTORE DUP3 SLOAD PUSH0 SWAP1 DUP2 SWAP1 PUSH2 0x5742 DUP2 PUSH2 0x5635 JUMP JUMPDEST DUP1 PUSH1 0x80 DUP7 ADD MSTORE PUSH1 0x1 DUP3 AND PUSH0 DUP2 EQ PUSH2 0x5760 JUMPI PUSH1 0x1 DUP2 EQ PUSH2 0x577C JUMPI PUSH2 0x57AD JUMP JUMPDEST PUSH1 0xFF NOT DUP4 AND PUSH1 0xA0 DUP8 ADD MSTORE PUSH1 0xA0 DUP3 ISZERO ISZERO PUSH1 0x5 SHL DUP8 ADD ADD SWAP4 POP PUSH2 0x57AD JUMP JUMPDEST DUP8 PUSH0 MSTORE PUSH1 0x20 PUSH0 KECCAK256 PUSH0 JUMPDEST DUP4 DUP2 LT ISZERO PUSH2 0x57A4 JUMPI DUP2 SLOAD DUP9 DUP3 ADD PUSH1 0xA0 ADD MSTORE PUSH1 0x1 SWAP1 SWAP2 ADD SWAP1 PUSH1 0x20 ADD PUSH2 0x5785 JUMP JUMPDEST DUP8 ADD PUSH1 0xA0 ADD SWAP5 POP POP JUMPDEST POP POP POP PUSH3 0xFFFFFF DUP5 AND PUSH1 0x60 DUP5 ADD MSTORE SWAP1 POP PUSH2 0x3DBC JUMP JUMPDEST PUSH2 0x7633 PUSH1 0xF0 SHL DUP2 MSTORE PUSH1 0x2 ADD SWAP1 JUMP JUMPDEST PUSH0 DUP1 DUP4 SLOAD PUSH2 0x57DD DUP2 PUSH2 0x5635 JUMP JUMPDEST PUSH1 0x1 DUP3 AND DUP1 ISZERO PUSH2 0x57F4 JUMPI PUSH1 0x1 DUP2 EQ PUSH2 0x5809 JUMPI PUSH2 0x5836 JUMP JUMPDEST PUSH1 0xFF NOT DUP4 AND DUP7 MSTORE DUP2 ISZERO ISZERO DUP3 MUL DUP7 ADD SWAP4 POP PUSH2 0x5836 JUMP JUMPDEST DUP7 PUSH0 MSTORE PUSH1 0x20 PUSH0 KECCAK256 PUSH0 JUMPDEST DUP4 DUP2 LT ISZERO PUSH2 0x582E JUMPI DUP2 SLOAD DUP9 DUP3 ADD MSTORE PUSH1 0x1 SWAP1 SWAP2 ADD SWAP1 PUSH1 0x20 ADD PUSH2 0x5812 JUMP JUMPDEST POP POP DUP2 DUP7 ADD SWAP4 POP JUMPDEST POP SWAP2 SWAP6 SWAP5 POP POP POP POP POP JUMP JUMPDEST DUP1 DUP3 ADD DUP1 DUP3 GT ISZERO PUSH2 0x88C JUMPI PUSH2 0x88C PUSH2 0x56A0 JUMP JUMPDEST DUP2 DUP2 SUB DUP2 DUP2 GT ISZERO PUSH2 0x88C JUMPI PUSH2 0x88C PUSH2 0x56A0 JUMP JUMPDEST PUSH0 PUSH1 0x20 DUP3 DUP5 SUB SLT ISZERO PUSH2 0x5877 JUMPI PUSH0 DUP1 REVERT JUMPDEST DUP2 MLOAD PUSH2 0x504C DUP2 PUSH2 0x535B JUMP JUMPDEST PUSH2 0x3B19 PUSH1 0xF1 SHL DUP2 MSTORE PUSH1 0x2 ADD SWAP1 JUMP JUMPDEST PUSH0 DUP2 MLOAD DUP1 DUP5 MSTORE PUSH1 0x20 DUP5 ADD SWAP4 POP PUSH1 0x20 DUP4 ADD PUSH0 JUMPDEST DUP3 DUP2 LT ISZERO PUSH2 0x58C9 JUMPI DUP2 MLOAD PUSH1 0x1 PUSH1 0x1 PUSH1 0xA0 SHL SUB AND DUP7 MSTORE PUSH1 0x20 SWAP6 DUP7 ADD SWAP6 SWAP1 SWAP2 ADD SWAP1 PUSH1 0x1 ADD PUSH2 0x58A2 JUMP JUMPDEST POP SWAP4 SWAP5 SWAP4 POP POP POP POP JUMP JUMPDEST DUP3 DUP2 MSTORE PUSH1 0x40 PUSH1 0x20 DUP3 ADD MSTORE PUSH0 PUSH2 0x3335 PUSH1 0x40 DUP4 ADD DUP5 PUSH2 0x5890 JUMP JUMPDEST PUSH0 PUSH1 0x20 DUP3 DUP5 SUB SLT ISZERO PUSH2 0x58FB JUMPI PUSH0 DUP1 REVERT JUMPDEST DUP2 MLOAD PUSH1 0x1 PUSH1 0x1 PUSH1 0x40 SHL SUB DUP2 GT ISZERO PUSH2 0x5910 JUMPI PUSH0 DUP1 REVERT JUMPDEST DUP3 ADD PUSH1 0x1F DUP2 ADD DUP5 SGT PUSH2 0x5920 JUMPI PUSH0 DUP1 REVERT JUMPDEST DUP1 MLOAD PUSH2 0x592E PUSH2 0x5404 DUP3 PUSH2 0x539F JUMP JUMPDEST DUP1 DUP3 DUP3 MSTORE PUSH1 0x20 DUP3 ADD SWAP2 POP PUSH1 0x20 DUP4 PUSH1 0x5 SHL DUP6 ADD ADD SWAP3 POP DUP7 DUP4 GT ISZERO PUSH2 0x594F JUMPI PUSH0 DUP1 REVERT JUMPDEST PUSH1 0x20 DUP5 ADD SWAP4 POP JUMPDEST DUP3 DUP5 LT ISZERO PUSH2 0x544C JUMPI DUP4 MLOAD DUP3 MSTORE PUSH1 0x20 SWAP4 DUP5 ADD SWAP4 SWAP1 SWAP2 ADD SWAP1 PUSH2 0x5956 JUMP JUMPDEST PUSH1 0x60 SWAP4 DUP5 SHL PUSH12 0xFFFFFFFFFFFFFFFFFFFFFFFF NOT SWAP1 DUP2 AND DUP3 MSTORE PUSH1 0xE8 SWAP4 SWAP1 SWAP4 SHL PUSH1 0x1 PUSH1 0x1 PUSH1 0xE8 SHL SUB NOT AND PUSH1 0x14 DUP3 ADD MSTORE SWAP3 SHL AND PUSH1 0x17 DUP3 ADD MSTORE PUSH1 0x2B ADD SWAP1 JUMP JUMPDEST PUSH1 0x40 DUP2 MSTORE PUSH0 PUSH2 0x59BE PUSH1 0x40 DUP4 ADD DUP6 PUSH2 0x500C JUMP JUMPDEST SWAP1 POP DUP3 PUSH1 0x20 DUP4 ADD MSTORE SWAP4 SWAP3 POP POP POP JUMP JUMPDEST PUSH0 DUP3 MLOAD DUP1 PUSH1 0x20 DUP6 ADD DUP5 MCOPY PUSH0 SWAP3 ADD SWAP2 DUP3 MSTORE POP SWAP2 SWAP1 POP JUMP JUMPDEST PUSH1 0x1F DUP3 GT ISZERO PUSH2 0x280E JUMPI DUP1 PUSH0 MSTORE PUSH1 0x20 PUSH0 KECCAK256 PUSH1 0x1F DUP5 ADD PUSH1 0x5 SHR DUP2 ADD PUSH1 0x20 DUP6 LT ISZERO PUSH2 0x5A08 JUMPI POP DUP1 JUMPDEST PUSH1 0x1F DUP5 ADD PUSH1 0x5 SHR DUP3 ADD SWAP2 POP JUMPDEST DUP2 DUP2 LT ISZERO PUSH2 0xFB8 JUMPI PUSH0 DUP2 SSTORE PUSH1 0x1 ADD PUSH2 0x5A14 JUMP JUMPDEST DUP2 MLOAD PUSH1 0x1 PUSH1 0x1 PUSH1 0x40 SHL SUB DUP2 GT ISZERO PUSH2 0x5A40 JUMPI PUSH2 0x5A40 PUSH2 0x5242 JUMP JUMPDEST PUSH2 0x5A54 DUP2 PUSH2 0x5A4E DUP5 SLOAD PUSH2 0x5635 JUMP JUMPDEST DUP5 PUSH2 0x59E3 JUMP JUMPDEST PUSH1 0x20 PUSH1 0x1F DUP3 GT PUSH1 0x1 DUP2 EQ PUSH2 0x5A89 JUMPI PUSH0 DUP4 ISZERO PUSH2 0x5A6F JUMPI POP DUP5 DUP3 ADD MLOAD JUMPDEST PUSH1 0x1 DUP5 SWAP1 SHL PUSH0 NOT PUSH1 0x3 DUP7 SWAP1 SHL SHR NOT DUP3 AND OR JUMPDEST DUP6 SSTORE POP PUSH2 0xFB8 JUMP JUMPDEST PUSH0 DUP5 DUP2 MSTORE PUSH1 0x20 DUP2 KECCAK256 PUSH1 0x1F NOT DUP6 AND SWAP2 JUMPDEST DUP3 DUP2 LT ISZERO PUSH2 0x5AB8 JUMPI DUP8 DUP6 ADD MLOAD DUP3 SSTORE PUSH1 0x20 SWAP5 DUP6 ADD SWAP5 PUSH1 0x1 SWAP1 SWAP3 ADD SWAP2 ADD PUSH2 0x5A98 JUMP JUMPDEST POP DUP5 DUP3 LT ISZERO PUSH2 0x5AD5 JUMPI DUP7 DUP5 ADD MLOAD PUSH0 NOT PUSH1 0x3 DUP8 SWAP1 SHL PUSH1 0xF8 AND SHR NOT AND DUP2 SSTORE JUMPDEST POP POP POP POP PUSH1 0x1 SWAP1 DUP2 SHL ADD SWAP1 SSTORE POP JUMP JUMPDEST PUSH0 PUSH1 0x1 DUP3 ADD PUSH2 0x5AF5 JUMPI PUSH2 0x5AF5 PUSH2 0x56A0 JUMP JUMPDEST POP PUSH1 0x1 ADD SWAP1 JUMP JUMPDEST PUSH0 DUP2 PUSH2 0x5B0A JUMPI PUSH2 0x5B0A PUSH2 0x56A0 JUMP JUMPDEST POP PUSH0 NOT ADD SWAP1 JUMP JUMPDEST PUSH0 DUP1 DUP4 CALLDATALOAD PUSH1 0x1E NOT DUP5 CALLDATASIZE SUB ADD DUP2 SLT PUSH2 0x5B26 JUMPI PUSH0 DUP1 REVERT JUMPDEST DUP4 ADD DUP1 CALLDATALOAD SWAP2 POP PUSH1 0x1 PUSH1 0x1 PUSH1 0x40 SHL SUB DUP3 GT ISZERO PUSH2 0x5B3F JUMPI PUSH0 DUP1 REVERT JUMPDEST PUSH1 0x20 ADD SWAP2 POP CALLDATASIZE DUP2 SWAP1 SUB DUP3 SGT ISZERO PUSH2 0x5496 JUMPI PUSH0 DUP1 REVERT JUMPDEST PUSH0 PUSH1 0x20 DUP3 DUP5 SUB SLT ISZERO PUSH2 0x5B63 JUMPI PUSH0 DUP1 REVERT JUMPDEST PUSH2 0x504C DUP3 PUSH2 0x5286 JUMP JUMPDEST DUP6 DUP2 MSTORE DUP5 PUSH1 0x20 DUP3 ADD MSTORE PUSH1 0xA0 PUSH1 0x40 DUP3 ADD MSTORE PUSH0 PUSH2 0x5B8A PUSH1 0xA0 DUP4 ADD DUP7 PUSH2 0x5890 JUMP JUMPDEST PUSH1 0x1 PUSH1 0x1 PUSH1 0xA0 SHL SUB SWAP5 SWAP1 SWAP5 AND PUSH1 0x60 DUP4 ADD MSTORE POP PUSH1 0x80 ADD MSTORE SWAP4 SWAP3 POP POP POP JUMP JUMPDEST DUP2 MLOAD PUSH1 0x1 PUSH1 0x1 PUSH1 0xA0 SHL SUB SWAP1 DUP2 AND DUP3 MSTORE PUSH1 0x20 DUP1 DUP5 ADD MLOAD DUP3 AND SWAP1 DUP4 ADD MSTORE PUSH1 0x40 DUP1 DUP5 ADD MLOAD PUSH3 0xFFFFFF AND SWAP1 DUP4 ADD MSTORE PUSH1 0x60 DUP1 DUP5 ADD MLOAD SWAP2 DUP3 AND SWAP1 DUP4 ADD MSTORE PUSH2 0x100 DUP3 ADD SWAP1 POP PUSH1 0x80 DUP4 ADD MLOAD PUSH1 0x80 DUP4 ADD MSTORE PUSH1 0xA0 DUP4 ADD MLOAD PUSH1 0xA0 DUP4 ADD MSTORE PUSH1 0xC0 DUP4 ADD MLOAD PUSH1 0xC0 DUP4 ADD MSTORE PUSH1 0xE0 DUP4 ADD MLOAD PUSH2 0x215F PUSH1 0xE0 DUP5 ADD DUP3 PUSH1 0x1 PUSH1 0x1 PUSH1 0xA0 SHL SUB AND SWAP1 MSTORE JUMP JUMPDEST DUP5 DUP2 MSTORE PUSH1 0x80 PUSH1 0x20 DUP3 ADD MSTORE PUSH0 PUSH2 0x5C35 PUSH1 0x80 DUP4 ADD DUP7 PUSH2 0x5890 JUMP JUMPDEST PUSH1 0x1 PUSH1 0x1 PUSH1 0xA0 SHL SUB SWAP5 SWAP1 SWAP5 AND PUSH1 0x40 DUP4 ADD MSTORE POP PUSH1 0x60 ADD MSTORE SWAP3 SWAP2 POP POP JUMP JUMPDEST DUP2 DUP2 SUB PUSH2 0x5C5C JUMPI POP POP JUMP JUMPDEST PUSH2 0x5C66 DUP3 SLOAD PUSH2 0x5635 JUMP JUMPDEST PUSH1 0x1 PUSH1 0x1 PUSH1 0x40 SHL SUB DUP2 GT ISZERO PUSH2 0x5C7D JUMPI PUSH2 0x5C7D PUSH2 0x5242 JUMP JUMPDEST PUSH2 0x5C8B DUP2 PUSH2 0x5A4E DUP5 SLOAD PUSH2 0x5635 JUMP JUMPDEST PUSH0 PUSH1 0x1F DUP3 GT PUSH1 0x1 DUP2 EQ PUSH2 0x5CBA JUMPI PUSH0 DUP4 ISZERO PUSH2 0x5A6F JUMPI POP DUP2 DUP6 ADD SLOAD PUSH1 0x1 DUP5 SWAP1 SHL PUSH0 NOT PUSH1 0x3 DUP7 SWAP1 SHL SHR NOT DUP3 AND OR PUSH2 0x5A81 JUMP JUMPDEST PUSH0 DUP6 DUP2 MSTORE PUSH1 0x20 DUP1 DUP3 KECCAK256 DUP7 DUP4 MSTORE SWAP1 DUP3 KECCAK256 PUSH1 0x1F NOT DUP7 AND SWAP3 JUMPDEST DUP4 DUP2 LT ISZERO PUSH2 0x5CF0 JUMPI DUP3 DUP7 ADD SLOAD DUP3 SSTORE PUSH1 0x1 SWAP6 DUP7 ADD SWAP6 SWAP1 SWAP2 ADD SWAP1 PUSH1 0x20 ADD PUSH2 0x5CD0 JUMP JUMPDEST POP DUP6 DUP4 LT ISZERO PUSH2 0x5D0D JUMPI DUP2 DUP6 ADD SLOAD PUSH0 NOT PUSH1 0x3 DUP9 SWAP1 SHL PUSH1 0xF8 AND SHR NOT AND DUP2 SSTORE JUMPDEST POP POP POP POP POP PUSH1 0x1 SWAP1 DUP2 SHL ADD SWAP1 SSTORE POP JUMP JUMPDEST PUSH4 0x4E487B71 PUSH1 0xE0 SHL PUSH0 MSTORE PUSH1 0x31 PUSH1 0x4 MSTORE PUSH1 0x24 PUSH0 REVERT INVALID LOG2 PUSH5 0x6970667358 0x22 SLT KECCAK256 0x2F 0xB5 SSTORE SWAP9 EXP 0xC5 0x2B PUSH4 0x45DD16D4 MOD REVERT SELFDESTRUCT CREATE2 0xAB 0xE3 0xE PUSH25 0xA3AB63849A89903E292DF50764736F6C634300081A00330000 "
		},
		"gasEstimates": {
			"creation": {
				"codeDepositCost": "4782200",
				"executionCost": "infinite",
				"totalCost": "infinite"
			},
			"external": {
				"allowance(address,address)": "infinite",
				"approve(address,uint256)": "24775",
				"balanceOf(address)": "2618",
				"bulkAddTokens(address[],uint256[],string[],uint24[])": "infinite",
				"decimals()": "266",
				"deposit()": "infinite",
				"depositFee()": "2362",
				"ethDepositedFailed(address)": "2621",
				"failedSwaps(uint256)": "infinite",
				"getAllTokens()": "infinite",
				"getFailedSwaps(address)": "infinite",
				"getPortfolioValue(uint256[])": "infinite",
				"name()": "infinite",
				"owner()": "2440",
				"paused()": "2474",
				"portfolio(uint256)": "infinite",
				"profitToETH()": "2339",
				"profitToWETH()": "2361",
				"rebalance(uint256[])": "infinite",
				"renounceOwnership()": "infinite",
				"retryFailedSwaps(address)": "infinite",
				"setFees(uint256,uint256)": "46763",
				"setSlippageTolerance(uint256)": "24624",
				"setWhitelist(address,bool)": "infinite",
				"slippageTolerance()": "2427",
				"swapETHForToken(address,uint256,string,uint24)": "infinite",
				"swapTokenForETH(address,uint256,string,uint24)": "infinite",
				"symbol()": "infinite",
				"totalFeesToETH()": "2426",
				"totalFeesToWETH()": "2384",
				"totalSupply()": "2326",
				"transfer(address,uint256)": "51290",
				"transferFrom(address,address,uint256)": "infinite",
				"transferOwnership(address)": "infinite",
				"uniswapV2Router()": "2471",
				"uniswapV3Quoter()": "2425",
				"uniswapV3Router()": "2470",
				"userFailedSwaps(address)": "2622",
				"whitelist(address)": "2567",
				"withdraw(uint256)": "infinite",
				"withdrawAllToETH()": "infinite",
				"withdrawFeesByOwner(address)": "infinite",
				"withdrawToETH(uint256)": "infinite",
				"withdrawalFee()": "2383"
			},
			"internal": {
				"buyTokens(contract IERC20,uint256,string memory,uint24)": "infinite",
				"getTargetValuesAtPriceUSD(uint256)": "infinite",
				"removeFailedSwap(uint256)": "infinite",
				"sellTokens(contract IERC20,uint256,string memory,uint24)": "infinite",
				"swapETHForTokenV2(contract IERC20,uint256,uint256)": "infinite",
				"swapETHForTokenV3(contract IERC20,uint256,uint24,uint256)": "infinite",
				"swapTokenForETHV2(contract IERC20,uint256,uint256,address)": "infinite",
				"swapTokenForETHV3(contract IERC20,uint256,uint24,uint256,address)": "infinite"
			}
		},
		"methodIdentifiers": {
			"allowance(address,address)": "dd62ed3e",
			"approve(address,uint256)": "095ea7b3",
			"balanceOf(address)": "70a08231",
			"bulkAddTokens(address[],uint256[],string[],uint24[])": "60d27451",
			"decimals()": "313ce567",
			"deposit()": "d0e30db0",
			"depositFee()": "67a52793",
			"ethDepositedFailed(address)": "c38cd0b5",
			"failedSwaps(uint256)": "378a653c",
			"getAllTokens()": "2a5c792a",
			"getFailedSwaps(address)": "91ebe50f",
			"getPortfolioValue(uint256[])": "5643a5a7",
			"name()": "06fdde03",
			"owner()": "8da5cb5b",
			"paused()": "5c975abb",
			"portfolio(uint256)": "2e63a156",
			"profitToETH()": "86bc55db",
			"profitToWETH()": "86c14663",
			"rebalance(uint256[])": "780d5710",
			"renounceOwnership()": "715018a6",
			"retryFailedSwaps(address)": "3d7526f7",
			"setFees(uint256,uint256)": "0b78f9c0",
			"setSlippageTolerance(uint256)": "117da1ee",
			"setWhitelist(address,bool)": "53d6fd59",
			"slippageTolerance()": "d03153aa",
			"swapETHForToken(address,uint256,string,uint24)": "39c0f5d2",
			"swapTokenForETH(address,uint256,string,uint24)": "e7ae65ab",
			"symbol()": "95d89b41",
			"totalFeesToETH()": "f7e625a3",
			"totalFeesToWETH()": "246f972f",
			"totalSupply()": "18160ddd",
			"transfer(address,uint256)": "a9059cbb",
			"transferFrom(address,address,uint256)": "23b872dd",
			"transferOwnership(address)": "f2fde38b",
			"uniswapV2Router()": "1694505e",
			"uniswapV3Quoter()": "4d20d0f8",
			"uniswapV3Router()": "2c76d7a6",
			"userFailedSwaps(address)": "36a43f2b",
			"whitelist(address)": "9b19251a",
			"withdraw(uint256)": "2e1a7d4d",
			"withdrawAllToETH()": "fa3b5649",
			"withdrawFeesByOwner(address)": "a738c7df",
			"withdrawToETH(uint256)": "2c9351a1",
			"withdrawalFee()": "8bc7e8c4"
		}
	},
	"abi": [
		{
			"inputs": [
				{
					"internalType": "address",
					"name": "_uniswapV2Router",
					"type": "address"
				},
				{
					"internalType": "address",
					"name": "_uniswapV3Router",
					"type": "address"
				},
				{
					"internalType": "address",
					"name": "_uniswapV3Quoter",
					"type": "address"
				}
			],
			"stateMutability": "nonpayable",
			"type": "constructor"
		},
		{
			"inputs": [
				{
					"internalType": "address",
					"name": "spender",
					"type": "address"
				},
				{
					"internalType": "uint256",
					"name": "allowance",
					"type": "uint256"
				},
				{
					"internalType": "uint256",
					"name": "needed",
					"type": "uint256"
				}
			],
			"name": "ERC20InsufficientAllowance",
			"type": "error"
		},
		{
			"inputs": [
				{
					"internalType": "address",
					"name": "sender",
					"type": "address"
				},
				{
					"internalType": "uint256",
					"name": "balance",
					"type": "uint256"
				},
				{
					"internalType": "uint256",
					"name": "needed",
					"type": "uint256"
				}
			],
			"name": "ERC20InsufficientBalance",
			"type": "error"
		},
		{
			"inputs": [
				{
					"internalType": "address",
					"name": "approver",
					"type": "address"
				}
			],
			"name": "ERC20InvalidApprover",
			"type": "error"
		},
		{
			"inputs": [
				{
					"internalType": "address",
					"name": "receiver",
					"type": "address"
				}
			],
			"name": "ERC20InvalidReceiver",
			"type": "error"
		},
		{
			"inputs": [
				{
					"internalType": "address",
					"name": "sender",
					"type": "address"
				}
			],
			"name": "ERC20InvalidSender",
			"type": "error"
		},
		{
			"inputs": [
				{
					"internalType": "address",
					"name": "spender",
					"type": "address"
				}
			],
			"name": "ERC20InvalidSpender",
			"type": "error"
		},
		{
			"inputs": [],
			"name": "EnforcedPause",
			"type": "error"
		},
		{
			"inputs": [],
			"name": "ExpectedPause",
			"type": "error"
		},
		{
			"inputs": [
				{
					"internalType": "address",
					"name": "owner",
					"type": "address"
				}
			],
			"name": "OwnableInvalidOwner",
			"type": "error"
		},
		{
			"inputs": [
				{
					"internalType": "address",
					"name": "account",
					"type": "address"
				}
			],
			"name": "OwnableUnauthorizedAccount",
			"type": "error"
		},
		{
			"anonymous": false,
			"inputs": [
				{
					"indexed": true,
					"internalType": "address",
					"name": "owner",
					"type": "address"
				},
				{
					"indexed": true,
					"internalType": "address",
					"name": "spender",
					"type": "address"
				},
				{
					"indexed": false,
					"internalType": "uint256",
					"name": "value",
					"type": "uint256"
				}
			],
			"name": "Approval",
			"type": "event"
		},
		{
			"anonymous": false,
			"inputs": [
				{
					"indexed": true,
					"internalType": "address",
					"name": "previousOwner",
					"type": "address"
				},
				{
					"indexed": true,
					"internalType": "address",
					"name": "newOwner",
					"type": "address"
				}
			],
			"name": "OwnershipTransferred",
			"type": "event"
		},
		{
			"anonymous": false,
			"inputs": [
				{
					"indexed": false,
					"internalType": "address",
					"name": "account",
					"type": "address"
				}
			],
			"name": "Paused",
			"type": "event"
		},
		{
			"anonymous": false,
			"inputs": [
				{
					"indexed": true,
					"internalType": "address",
					"name": "from",
					"type": "address"
				},
				{
					"indexed": true,
					"internalType": "address",
					"name": "to",
					"type": "address"
				},
				{
					"indexed": false,
					"internalType": "uint256",
					"name": "value",
					"type": "uint256"
				}
			],
			"name": "Transfer",
			"type": "event"
		},
		{
			"anonymous": false,
			"inputs": [
				{
					"indexed": false,
					"internalType": "address",
					"name": "account",
					"type": "address"
				}
			],
			"name": "Unpaused",
			"type": "event"
		},
		{
			"inputs": [
				{
					"internalType": "address",
					"name": "owner",
					"type": "address"
				},
				{
					"internalType": "address",
					"name": "spender",
					"type": "address"
				}
			],
			"name": "allowance",
			"outputs": [
				{
					"internalType": "uint256",
					"name": "",
					"type": "uint256"
				}
			],
			"stateMutability": "view",
			"type": "function"
		},
		{
			"inputs": [
				{
					"internalType": "address",
					"name": "spender",
					"type": "address"
				},
				{
					"internalType": "uint256",
					"name": "value",
					"type": "uint256"
				}
			],
			"name": "approve",
			"outputs": [
				{
					"internalType": "bool",
					"name": "",
					"type": "bool"
				}
			],
			"stateMutability": "nonpayable",
			"type": "function"
		},
		{
			"inputs": [
				{
					"internalType": "address",
					"name": "account",
					"type": "address"
				}
			],
			"name": "balanceOf",
			"outputs": [
				{
					"internalType": "uint256",
					"name": "",
					"type": "uint256"
				}
			],
			"stateMutability": "view",
			"type": "function"
		},
		{
			"inputs": [
				{
					"internalType": "address[]",
					"name": "_tokens",
					"type": "address[]"
				},
				{
					"internalType": "uint256[]",
					"name": "_targetPercentages",
					"type": "uint256[]"
				},
				{
					"internalType": "string[]",
					"name": "_versions",
					"type": "string[]"
				},
				{
					"internalType": "uint24[]",
					"name": "_feeTiers",
					"type": "uint24[]"
				}
			],
			"name": "bulkAddTokens",
			"outputs": [],
			"stateMutability": "nonpayable",
			"type": "function"
		},
		{
			"inputs": [],
			"name": "decimals",
			"outputs": [
				{
					"internalType": "uint8",
					"name": "",
					"type": "uint8"
				}
			],
			"stateMutability": "view",
			"type": "function"
		},
		{
			"inputs": [],
			"name": "deposit",
			"outputs": [],
			"stateMutability": "payable",
			"type": "function"
		},
		{
			"inputs": [],
			"name": "depositFee",
			"outputs": [
				{
					"internalType": "uint256",
					"name": "",
					"type": "uint256"
				}
			],
			"stateMutability": "view",
			"type": "function"
		},
		{
			"inputs": [
				{
					"internalType": "address",
					"name": "",
					"type": "address"
				}
			],
			"name": "ethDepositedFailed",
			"outputs": [
				{
					"internalType": "uint256",
					"name": "",
					"type": "uint256"
				}
			],
			"stateMutability": "view",
			"type": "function"
		},
		{
			"inputs": [
				{
					"internalType": "uint256",
					"name": "",
					"type": "uint256"
				}
			],
			"name": "failedSwaps",
			"outputs": [
				{
					"internalType": "address",
					"name": "user",
					"type": "address"
				},
				{
					"internalType": "contract IERC20",
					"name": "token",
					"type": "address"
				},
				{
					"internalType": "uint256",
					"name": "amount",
					"type": "uint256"
				},
				{
					"internalType": "string",
					"name": "version",
					"type": "string"
				},
				{
					"internalType": "uint24",
					"name": "feeTier",
					"type": "uint24"
				}
			],
			"stateMutability": "view",
			"type": "function"
		},
		{
			"inputs": [],
			"name": "getAllTokens",
			"outputs": [
				{
					"components": [
						{
							"internalType": "contract IERC20",
							"name": "token",
							"type": "address"
						},
						{
							"internalType": "uint256",
							"name": "targetPercentage",
							"type": "uint256"
						},
						{
							"internalType": "string",
							"name": "version",
							"type": "string"
						},
						{
							"internalType": "uint24",
							"name": "feeTier",
							"type": "uint24"
						}
					],
					"internalType": "struct PYGGportfolioRebalancer.TokenInfo[]",
					"name": "",
					"type": "tuple[]"
				}
			],
			"stateMutability": "view",
			"type": "function"
		},
		{
			"inputs": [
				{
					"internalType": "address",
					"name": "user",
					"type": "address"
				}
			],
			"name": "getFailedSwaps",
			"outputs": [
				{
					"components": [
						{
							"internalType": "address",
							"name": "user",
							"type": "address"
						},
						{
							"internalType": "contract IERC20",
							"name": "token",
							"type": "address"
						},
						{
							"internalType": "uint256",
							"name": "amount",
							"type": "uint256"
						},
						{
							"internalType": "string",
							"name": "version",
							"type": "string"
						},
						{
							"internalType": "uint24",
							"name": "feeTier",
							"type": "uint24"
						}
					],
					"internalType": "struct PYGGportfolioRebalancer.FailedSwap[]",
					"name": "",
					"type": "tuple[]"
				}
			],
			"stateMutability": "view",
			"type": "function"
		},
		{
			"inputs": [
				{
					"internalType": "uint256[]",
					"name": "_tokenPrices",
					"type": "uint256[]"
				}
			],
			"name": "getPortfolioValue",
			"outputs": [
				{
					"internalType": "uint256",
					"name": "",
					"type": "uint256"
				}
			],
			"stateMutability": "view",
			"type": "function"
		},
		{
			"inputs": [],
			"name": "name",
			"outputs": [
				{
					"internalType": "string",
					"name": "",
					"type": "string"
				}
			],
			"stateMutability": "view",
			"type": "function"
		},
		{
			"inputs": [],
			"name": "owner",
			"outputs": [
				{
					"internalType": "address",
					"name": "",
					"type": "address"
				}
			],
			"stateMutability": "view",
			"type": "function"
		},
		{
			"inputs": [],
			"name": "paused",
			"outputs": [
				{
					"internalType": "bool",
					"name": "",
					"type": "bool"
				}
			],
			"stateMutability": "view",
			"type": "function"
		},
		{
			"inputs": [
				{
					"internalType": "uint256",
					"name": "",
					"type": "uint256"
				}
			],
			"name": "portfolio",
			"outputs": [
				{
					"internalType": "contract IERC20",
					"name": "token",
					"type": "address"
				},
				{
					"internalType": "uint256",
					"name": "targetPercentage",
					"type": "uint256"
				},
				{
					"internalType": "string",
					"name": "version",
					"type": "string"
				},
				{
					"internalType": "uint24",
					"name": "feeTier",
					"type": "uint24"
				}
			],
			"stateMutability": "view",
			"type": "function"
		},
		{
			"inputs": [],
			"name": "profitToETH",
			"outputs": [
				{
					"internalType": "uint256",
					"name": "",
					"type": "uint256"
				}
			],
			"stateMutability": "view",
			"type": "function"
		},
		{
			"inputs": [],
			"name": "profitToWETH",
			"outputs": [
				{
					"internalType": "uint256",
					"name": "",
					"type": "uint256"
				}
			],
			"stateMutability": "view",
			"type": "function"
		},
		{
			"inputs": [
				{
					"internalType": "uint256[]",
					"name": "_tokenPrices",
					"type": "uint256[]"
				}
			],
			"name": "rebalance",
			"outputs": [],
			"stateMutability": "nonpayable",
			"type": "function"
		},
		{
			"inputs": [],
			"name": "renounceOwnership",
			"outputs": [],
			"stateMutability": "nonpayable",
			"type": "function"
		},
		{
			"inputs": [
				{
					"internalType": "address",
					"name": "user",
					"type": "address"
				}
			],
			"name": "retryFailedSwaps",
			"outputs": [],
			"stateMutability": "nonpayable",
			"type": "function"
		},
		{
			"inputs": [
				{
					"internalType": "uint256",
					"name": "_depositFee",
					"type": "uint256"
				},
				{
					"internalType": "uint256",
					"name": "_withdrawalFee",
					"type": "uint256"
				}
			],
			"name": "setFees",
			"outputs": [],
			"stateMutability": "nonpayable",
			"type": "function"
		},
		{
			"inputs": [
				{
					"internalType": "uint256",
					"name": "_slippageTolerance",
					"type": "uint256"
				}
			],
			"name": "setSlippageTolerance",
			"outputs": [],
			"stateMutability": "nonpayable",
			"type": "function"
		},
		{
			"inputs": [
				{
					"internalType": "address",
					"name": "_user",
					"type": "address"
				},
				{
					"internalType": "bool",
					"name": "_status",
					"type": "bool"
				}
			],
			"name": "setWhitelist",
			"outputs": [],
			"stateMutability": "nonpayable",
			"type": "function"
		},
		{
			"inputs": [],
			"name": "slippageTolerance",
			"outputs": [
				{
					"internalType": "uint256",
					"name": "",
					"type": "uint256"
				}
			],
			"stateMutability": "view",
			"type": "function"
		},
		{
			"inputs": [
				{
					"internalType": "contract IERC20",
					"name": "_token",
					"type": "address"
				},
				{
					"internalType": "uint256",
					"name": "_ethAmount",
					"type": "uint256"
				},
				{
					"internalType": "string",
					"name": "version",
					"type": "string"
				},
				{
					"internalType": "uint24",
					"name": "feeTier",
					"type": "uint24"
				}
			],
			"name": "swapETHForToken",
			"outputs": [],
			"stateMutability": "payable",
			"type": "function"
		},
		{
			"inputs": [
				{
					"internalType": "contract IERC20",
					"name": "_token",
					"type": "address"
				},
				{
					"internalType": "uint256",
					"name": "_amountIn",
					"type": "uint256"
				},
				{
					"internalType": "string",
					"name": "version",
					"type": "string"
				},
				{
					"internalType": "uint24",
					"name": "feeTier",
					"type": "uint24"
				}
			],
			"name": "swapTokenForETH",
			"outputs": [
				{
					"internalType": "uint256",
					"name": "",
					"type": "uint256"
				}
			],
			"stateMutability": "nonpayable",
			"type": "function"
		},
		{
			"inputs": [],
			"name": "symbol",
			"outputs": [
				{
					"internalType": "string",
					"name": "",
					"type": "string"
				}
			],
			"stateMutability": "view",
			"type": "function"
		},
		{
			"inputs": [],
			"name": "totalFeesToETH",
			"outputs": [
				{
					"internalType": "uint256",
					"name": "",
					"type": "uint256"
				}
			],
			"stateMutability": "view",
			"type": "function"
		},
		{
			"inputs": [],
			"name": "totalFeesToWETH",
			"outputs": [
				{
					"internalType": "uint256",
					"name": "",
					"type": "uint256"
				}
			],
			"stateMutability": "view",
			"type": "function"
		},
		{
			"inputs": [],
			"name": "totalSupply",
			"outputs": [
				{
					"internalType": "uint256",
					"name": "",
					"type": "uint256"
				}
			],
			"stateMutability": "view",
			"type": "function"
		},
		{
			"inputs": [
				{
					"internalType": "address",
					"name": "to",
					"type": "address"
				},
				{
					"internalType": "uint256",
					"name": "value",
					"type": "uint256"
				}
			],
			"name": "transfer",
			"outputs": [
				{
					"internalType": "bool",
					"name": "",
					"type": "bool"
				}
			],
			"stateMutability": "nonpayable",
			"type": "function"
		},
		{
			"inputs": [
				{
					"internalType": "address",
					"name": "from",
					"type": "address"
				},
				{
					"internalType": "address",
					"name": "to",
					"type": "address"
				},
				{
					"internalType": "uint256",
					"name": "value",
					"type": "uint256"
				}
			],
			"name": "transferFrom",
			"outputs": [
				{
					"internalType": "bool",
					"name": "",
					"type": "bool"
				}
			],
			"stateMutability": "nonpayable",
			"type": "function"
		},
		{
			"inputs": [
				{
					"internalType": "address",
					"name": "newOwner",
					"type": "address"
				}
			],
			"name": "transferOwnership",
			"outputs": [],
			"stateMutability": "nonpayable",
			"type": "function"
		},
		{
			"inputs": [],
			"name": "uniswapV2Router",
			"outputs": [
				{
					"internalType": "contract IUniswapV2Router02",
					"name": "",
					"type": "address"
				}
			],
			"stateMutability": "view",
			"type": "function"
		},
		{
			"inputs": [],
			"name": "uniswapV3Quoter",
			"outputs": [
				{
					"internalType": "contract IUniswapV3Quoter",
					"name": "",
					"type": "address"
				}
			],
			"stateMutability": "view",
			"type": "function"
		},
		{
			"inputs": [],
			"name": "uniswapV3Router",
			"outputs": [
				{
					"internalType": "contract ISwapRouter",
					"name": "",
					"type": "address"
				}
			],
			"stateMutability": "view",
			"type": "function"
		},
		{
			"inputs": [
				{
					"internalType": "address",
					"name": "",
					"type": "address"
				}
			],
			"name": "userFailedSwaps",
			"outputs": [
				{
					"internalType": "uint256",
					"name": "",
					"type": "uint256"
				}
			],
			"stateMutability": "view",
			"type": "function"
		},
		{
			"inputs": [
				{
					"internalType": "address",
					"name": "",
					"type": "address"
				}
			],
			"name": "whitelist",
			"outputs": [
				{
					"internalType": "bool",
					"name": "",
					"type": "bool"
				}
			],
			"stateMutability": "view",
			"type": "function"
		},
		{
			"inputs": [
				{
					"internalType": "uint256",
					"name": "tokenAmount",
					"type": "uint256"
				}
			],
			"name": "withdraw",
			"outputs": [],
			"stateMutability": "nonpayable",
			"type": "function"
		},
		{
			"inputs": [],
			"name": "withdrawAllToETH",
			"outputs": [],
			"stateMutability": "nonpayable",
			"type": "function"
		},
		{
			"inputs": [
				{
					"internalType": "address",
					"name": "_receiverFeeAddress",
					"type": "address"
				}
			],
			"name": "withdrawFeesByOwner",
			"outputs": [],
			"stateMutability": "nonpayable",
			"type": "function"
		},
		{
			"inputs": [
				{
					"internalType": "uint256",
					"name": "tokenAmount",
					"type": "uint256"
				}
			],
			"name": "withdrawToETH",
			"outputs": [],
			"stateMutability": "nonpayable",
			"type": "function"
		},
		{
			"inputs": [],
			"name": "withdrawalFee",
			"outputs": [
				{
					"internalType": "uint256",
					"name": "",
					"type": "uint256"
				}
			],
			"stateMutability": "view",
			"type": "function"
		}
	]
}