{
	"data": {
		"bytecode": {
			"linkReferences": {},
			"object": "608060405234801561000f575f80fd5b506040516167ad3803806167ad83398101604081905261002e91610194565b60408051808201825260078152660a0b28e8e8aa8960cb1b602080830191909152825180840190935260048352630a08aa8960e31b9083015290338061008d57604051631e4fbdf760e01b81525f600482015260240160405180910390fd5b6100968161012a565b505f805460ff60a01b1916905560046100af838261026c565b5060056100bc828261026c565b5050600780546001600160a01b039586166001600160a01b03199182161790915560088054948616948216949094179093555060098054919093169116179055335f908152600a60205260409020805460ff191660011790556103e86010556064600f819055600e55610326565b5f80546001600160a01b038381166001600160a01b0319831681178455604051919092169283917f8be0079c531659141344cd1fd0a4f28419497f9722a3daafe3b4186f6b6457e09190a35050565b80516001600160a01b038116811461018f575f80fd5b919050565b5f805f606084860312156101a6575f80fd5b6101af84610179565b92506101bd60208501610179565b91506101cb60408501610179565b90509250925092565b634e487b7160e01b5f52604160045260245ffd5b600181811c908216806101fc57607f821691505b60208210810361021a57634e487b7160e01b5f52602260045260245ffd5b50919050565b601f82111561026757805f5260205f20601f840160051c810160208510156102455750805b601f840160051c820191505b81811015610264575f8155600101610251565b50505b505050565b81516001600160401b03811115610285576102856101d4565b6102998161029384546101e8565b84610220565b6020601f8211600181146102cb575f83156102b45750848201515b5f19600385901b1c1916600184901b178455610264565b5f84815260208120601f198516915b828110156102fa57878501518255602094850194600190920191016102da565b508482101561031757868401515f19600387901b60f8161c191681555b50505050600190811b01905550565b61647a806103335f395ff3fe60806040526004361061028b575f3560e01c806360d27451116101555780639b19251a116100be578063d0e30db011610078578063d0e30db0146107c8578063dd62ed3e146107d0578063e7ae65ab14610814578063f2fde38b14610833578063f7e625a314610852578063fa3b564914610867575f80fd5b80639b19251a146106fd578063a38e9e661461072b578063a738c7df1461074a578063a9059cbb14610769578063c38cd0b514610788578063d03153aa146107b3575f80fd5b806386bc55db1161010f57806386bc55db1461066257806386c14663146106775780638bc7e8c41461068c5780638da5cb5b146106a157806391ebe50f146106bd57806395d89b41146106e9575f80fd5b806360d27451146105b357806367a52793146105d257806370a08231146105e7578063715018a61461061b578063780d57101461062f5780638456cb591461064e575f80fd5b80632e1a7d4d116101f75780633d7526f7116101b15780633d7526f7146105065780633f4ba83a146105255780634d20d0f81461053957806353d6fd59146105585780635643a5a7146105775780635c975abb14610596575f80fd5b80632e1a7d4d1461042f5780632e63a1561461044e578063313ce5671461047d57806336a43f2b14610498578063378a653c146104c357806339c0f5d2146104f3575f80fd5b806318160ddd1161024857806318160ddd1461037e57806323b872dd1461039c578063246f972f146103bb5780632a5c792a146103d05780632c76d7a6146103f15780632c9351a114610410575f80fd5b806306fdde031461028f578063095ea7b3146102b95780630b78f9c0146102e857806311667aa514610309578063117da1ee146103285780631694505e14610347575b5f80fd5b34801561029a575f80fd5b506102a361087b565b6040516102b091906156fa565b60405180910390f35b3480156102c4575f80fd5b506102d86102d3366004615720565b61090b565b60405190151581526020016102b0565b3480156102f3575f80fd5b5061030761030236600461574a565b610924565b005b348015610314575f80fd5b506102d86103233660046157d0565b6109b0565b348015610333575f80fd5b50610307610342366004615865565b610b85565b348015610352575f80fd5b50600754610366906001600160a01b031681565b6040516001600160a01b0390911681526020016102b0565b348015610389575f80fd5b506003545b6040519081526020016102b0565b3480156103a7575f80fd5b506102d86103b636600461587c565b610c03565b3480156103c6575f80fd5b5061038e60125481565b3480156103db575f80fd5b506103e4610c26565b6040516102b091906158ba565b3480156103fc575f80fd5b50600854610366906001600160a01b031681565b34801561041b575f80fd5b5061030761042a366004615865565b610d45565b34801561043a575f80fd5b50610307610449366004615865565b611297565b348015610459575f80fd5b5061046d610468366004615865565b611a50565b6040516102b09493929190615956565b348015610488575f80fd5b50604051601281526020016102b0565b3480156104a3575f80fd5b5061038e6104b2366004615992565b600c6020525f908152604090205481565b3480156104ce575f80fd5b506104e26104dd366004615865565b611b20565b6040516102b09594939291906159ad565b610307610501366004615a78565b611bfb565b348015610511575f80fd5b50610307610520366004615992565b611fc5565b348015610530575f80fd5b50610307612374565b348015610544575f80fd5b50600954610366906001600160a01b031681565b348015610563575f80fd5b50610307610572366004615aea565b6123ba565b348015610582575f80fd5b5061038e6105913660046157d0565b612420565b3480156105a1575f80fd5b505f54600160a01b900460ff166102d8565b3480156105be575f80fd5b506103076105cd366004615b68565b61254c565b3480156105dd575f80fd5b5061038e600e5481565b3480156105f2575f80fd5b5061038e610601366004615992565b6001600160a01b03165f9081526001602052604090205490565b348015610626575f80fd5b50610307612784565b34801561063a575f80fd5b506103076106493660046157d0565b612797565b348015610659575f80fd5b50610307612bb2565b34801561066d575f80fd5b5061038e60135481565b348015610682575f80fd5b5061038e60145481565b348015610697575f80fd5b5061038e600f5481565b3480156106ac575f80fd5b505f546001600160a01b0316610366565b3480156106c8575f80fd5b506106dc6106d7366004615992565b612bf2565b6040516102b09190615c32565b3480156106f4575f80fd5b506102a3612e02565b348015610708575f80fd5b506102d8610717366004615992565b600a6020525f908152604090205460ff1681565b348015610736575f80fd5b50610307610745366004615a78565b612e11565b348015610755575f80fd5b50610307610764366004615992565b612f82565b348015610774575f80fd5b506102d8610783366004615720565b613113565b348015610793575f80fd5b5061038e6107a2366004615992565b600d6020525f908152604090205481565b3480156107be575f80fd5b5061038e60105481565b610307613120565b3480156107db575f80fd5b5061038e6107ea366004615cd4565b6001600160a01b039182165f90815260026020908152604080832093909416825291909152205490565b34801561081f575f80fd5b5061038e61082e366004615a78565b6135a7565b34801561083e575f80fd5b5061030761084d366004615992565b61393b565b34801561085d575f80fd5b5061038e60115481565b348015610872575f80fd5b50610307613975565b60606004805461088a90615d00565b80601f01602080910402602001604051908101604052809291908181526020018280546108b690615d00565b80156109015780601f106108d857610100808354040283529160200191610901565b820191905f5260205f20905b8154815290600101906020018083116108e457829003601f168201915b5050505050905090565b5f33610918818585613eb0565b60019150505b92915050565b61092c613ebd565b61271082111561096b5760405162461bcd60e51b8152602060048201526005602482015264216466656560d81b60448201526064015b60405180910390fd5b6127108111156109a55760405162461bcd60e51b8152602060048201526005602482015264217766656560d81b6044820152606401610962565b600e91909155600f55565b60065481515f91146109ea5760405162461bcd60e51b815260206004820152600360248201526208541360ea1b6044820152606401610962565b5f6109f483612420565b90505f8111610a2e5760405162461bcd60e51b815260040161096290602080825260049082015263054563e360e41b604082015260600190565b5f5b600654811015610b7c575f60068281548110610a4e57610a4e615d38565b905f5260205f20906004020190505f610aeb868481518110610a7257610a72615d38565b602090810291909101015183546040516370a0823160e01b81523060048201526001600160a01b03909116906370a0823190602401602060405180830381865afa158015610ac2573d5f803e3d5ffd5b505050506040513d601f19601f82011682018060405250810190610ae69190615d4c565b613ee9565b90505f8111610b255760405162461bcd60e51b815260040161096290602080825260049082015263043503e360e41b604082015260600190565b5f84610b3383612710615d77565b610b3d9190615d8e565b90508260010154811115610b58575060019695505050505050565b8260010154811015610b71575060019695505050505050565b505050600101610a30565b505f9392505050565b610b8d613ebd565b612710811115610bc85760405162461bcd60e51b815260040161096290602080825260049082015263021534c560e41b604082015260600190565b60108190556040518181527fb11632d794d380ef605d18684daf3ad39bdf07733e9db37df5f9f643877265da9060200160405180910390a150565b5f33610c10858285613efb565b610c1b858585613f70565b506001949350505050565b60606006805480602002602001604051908101604052809291908181526020015f905b82821015610d3c575f848152602090819020604080516080810182526004860290920180546001600160a01b0316835260018101549383019390935260028301805492939291840191610c9b90615d00565b80601f0160208091040260200160405190810160405280929190818152602001828054610cc790615d00565b8015610d125780601f10610ce957610100808354040283529160200191610d12565b820191905f5260205f20905b815481529060010190602001808311610cf557829003601f168201915b50505091835250506003919091015462ffffff166020918201529082526001929092019101610c49565b50505050905090565b610d4d613fcd565b5f8111610d6c5760405162461bcd60e51b815260040161096290615dad565b6040516370a0823160e01b8152336004820152819030906370a0823190602401602060405180830381865afa158015610da7573d5f803e3d5ffd5b505050506040513d601f19601f82011682018060405250810190610dcb9190615d4c565b1015610e095760405162461bcd60e51b815260206004820152600d60248201526c08525b9cdd59999a58da595b9d609a1b6044820152606401610962565b5f610e1360035490565b610e1f83612710615d77565b610e299190615d8e565b90505f81118015610e3c57506127108111155b610e725760405162461bcd60e51b81526020600482015260076024820152660302631303030360cc1b6044820152606401610962565b600754604080516315ab88c960e31b815290515f926001600160a01b03169163ad5c46489160048083019260209291908290030181865afa158015610eb9573d5f803e3d5ffd5b505050506040513d601f19601f82011682018060405250810190610edd9190615dc9565b90505f805f5b60065481101561109c575f60068281548110610f0157610f01615d38565b5f9182526020822060049182020180546040516370a0823160e01b815230938101939093529093506127109189916001600160a01b0316906370a0823190602401602060405180830381865afa158015610f5d573d5f803e3d5ffd5b505050506040513d601f19601f82011682018060405250810190610f819190615d4c565b610f8b9190615d77565b610f959190615d8e565b8254600384015460405163e7ae65ab60e01b81529293505f92309263e7ae65ab92610fdd926001600160a01b0390921691879160028a019162ffffff90911690600401615e63565b6020604051808303815f875af1158015610ff9573d5f803e3d5ffd5b505050506040513d601f19601f8201168201806040525081019061101d9190615d4c565b905060405160200161102e90615e89565b60405160208183030381529060405280519060200120836002016040516020016110589190615e97565b60405160208183030381529060405280519060200120036110845761107d8186615f08565b9450611091565b61108e8187615f08565b95505b505050600101610ee3565b506110a73386613ff7565b8015611160575f612710600f54836110bf9190615d77565b6110c99190615d8e565b90505f6110d68284615f1b565b90508160125f8282546110e99190615f08565b909155505060405163a9059cbb60e01b8152336004820152602481018290526001600160a01b0386169063a9059cbb906044016020604051808303815f875af1158015611138573d5f803e3d5ffd5b505050506040513d601f19601f8201168201806040525081019061115c9190615f2e565b5050505b8115611255575f612710600f54846111789190615d77565b6111829190615d8e565b90505f61118f8285615f1b565b90508160115f8282546111a29190615f08565b9091555050335f908152600d6020526040812054906111c18383615f08565b6040519091505f90339083908381818185875af1925050503d805f8114611203576040519150601f19603f3d011682016040523d82523d5f602084013e611208565b606091505b505090508061124f5760405162461bcd60e51b8152602060048201526013602482015272115512081d1c985b9cd9995c8819985a5b1959606a1b6044820152606401610962565b50505050505b604080518381526020810186905233917f92ccf450a286a957af52509bc1c9939d1a6a481783e142e41e2499f0bb66ebc6910160405180910390a25050505050565b61129f613fcd565b5f81116112be5760405162461bcd60e51b815260040161096290615dad565b6040516370a0823160e01b8152336004820152819030906370a0823190602401602060405180830381865afa1580156112f9573d5f803e3d5ffd5b505050506040513d601f19601f8201168201806040525081019061131d9190615d4c565b101561135a5760405162461bcd60e51b815260206004820152600c60248201526b125b9cdd59999a58da595b9d60a21b6044820152606401610962565b5f61136460035490565b61137083612710615d77565b61137a9190615d8e565b90505f8111801561138d57506127108111155b6113c35760405162461bcd60e51b81526020600482015260076024820152660302631303030360cc1b6044820152606401610962565b5f5b600654811015611957575f600682815481106113e3576113e3615d38565b5f9182526020822060049182020180546040516370a0823160e01b815230938101939093529093506127109186916001600160a01b0316906370a0823190602401602060405180830381865afa15801561143f573d5f803e3d5ffd5b505050506040513d601f19601f820116820180604052508101906114639190615d4c565b61146d9190615d77565b6114779190615d8e565b90505f612710600f548361148b9190615d77565b6114959190615d8e565b90505f6114a28284615f1b565b845460405163a9059cbb60e01b8152336004820152602481018390529192506001600160a01b03169063a9059cbb906044016020604051808303815f875af11580156114f0573d5f803e3d5ffd5b505050506040513d601f19601f820116820180604052508101906115149190615f2e565b5060405160200161152490615f49565b604051602081830303815290604052805190602001208460020160405160200161154e9190615e97565b6040516020818303038152906040528051906020012003611736576040805160028082526060820183525f926020830190803683375050865482519293506001600160a01b0316918391505f906115a7576115a7615d38565b6001600160a01b03928316602091820292909201810191909152600754604080516315ab88c960e31b81529051919093169263ad5c46489260048083019391928290030181865afa1580156115fe573d5f803e3d5ffd5b505050506040513d601f19601f820116820180604052508101906116229190615dc9565b8160018151811061163557611635615d38565b6001600160a01b03928316602091820292909201015260075460405163d06ca61f60e01b81525f92919091169063d06ca61f906116789087908690600401615f9a565b5f60405180830381865afa158015611692573d5f803e3d5ffd5b505050506040513d5f823e601f3d908101601f191682016040526116b99190810190615fb2565b90505f6127106010546127106116cf9190615f1b565b836001815181106116e2576116e2615d38565b60200260200101516116f49190615d77565b6116fe9190615d8e565b8754909150611718906001600160a01b031686833061402b565b60115f8282546117289190615f08565b909155506119479350505050565b60405160200161174590615e89565b604051602081830303815290604052805190602001208460020160405160200161176f9190615e97565b60405160208183030381529060405280519060200120036118ff5783546003850154600754604080516315ab88c960e31b815290515f946001600160a01b039081169462ffffff1693169163ad5c46489160048083019260209291908290030181865afa1580156117e2573d5f803e3d5ffd5b505050506040513d601f19601f820116820180604052508101906118069190615dc9565b60405160200161181893929190616038565b60408051601f198184030181529082905260095463cdca175360e01b83529092505f916001600160a01b039091169063cdca17539061185d9085908890600401616073565b6020604051808303815f875af1158015611879573d5f803e3d5ffd5b505050506040513d601f19601f8201168201806040525081019061189d9190615d4c565b90505f6127106010546127106118b39190615f1b565b6118bd9084615d77565b6118c79190615d8e565b875460038901549192506118ef916001600160a01b0390911690879062ffffff168430614216565b60125f8282546117289190615f08565b60405162461bcd60e51b815260206004820152601760248201527f496e76616c696420556e69737761702076657273696f6e0000000000000000006044820152606401610962565b5050600190920191506113c59050565b506119623383613ff7565b335f908152600d602052604081205461271090611980908490615d77565b61198a9190615d8e565b9050808015611a0f576040515f90339083908381818185875af1925050503d805f81146119d2576040519150601f19603f3d011682016040523d82523d5f602084013e6119d7565b606091505b5050905080611a0d5760405162461bcd60e51b81526020600482015260026024820152612a2960f11b6044820152606401610962565b505b604080518481526020810185905233917f92ccf450a286a957af52509bc1c9939d1a6a481783e142e41e2499f0bb66ebc6910160405180910390a250505050565b60068181548110611a5f575f80fd5b5f9182526020909120600490910201805460018201546002830180546001600160a01b039093169450909291611a9490615d00565b80601f0160208091040260200160405190810160405280929190818152602001828054611ac090615d00565b8015611b0b5780601f10611ae257610100808354040283529160200191611b0b565b820191905f5260205f20905b815481529060010190602001808311611aee57829003601f168201915b5050506003909301549192505062ffffff1684565b600b8181548110611b2f575f80fd5b5f91825260209091206005909102018054600182015460028301546003840180546001600160a01b039485169650929093169390929091611b6f90615d00565b80601f0160208091040260200160405190810160405280929190818152602001828054611b9b90615d00565b8015611be65780601f10611bbd57610100808354040283529160200191611be6565b820191905f5260205f20905b815481529060010190602001808311611bc957829003601f168201915b5050506004909301549192505062ffffff1685565b604051602001611c0a90615f49565b6040516020818303038152906040528051906020012082604051602001611c319190616094565b6040516020818303038152906040528051906020012003611dfc576040805160028082526060820183525f926020830190803683375050600754604080516315ab88c960e31b815290519394506001600160a01b039091169263ad5c4648925060048083019260209291908290030181865afa158015611cb3573d5f803e3d5ffd5b505050506040513d601f19601f82011682018060405250810190611cd79190615dc9565b815f81518110611ce957611ce9615d38565b60200260200101906001600160a01b031690816001600160a01b0316815250508481600181518110611d1d57611d1d615d38565b6001600160a01b03928316602091820292909201015260075460405163d06ca61f60e01b81525f92919091169063d06ca61f90611d609088908690600401615f9a565b5f60405180830381865afa158015611d7a573d5f803e3d5ffd5b505050506040513d5f823e601f3d908101601f19168201604052611da19190810190615fb2565b90505f612710601054612710611db79190615f1b565b83600181518110611dca57611dca615d38565b6020026020010151611ddc9190615d77565b611de69190615d8e565b9050611df38787836143d3565b50505050611fbf565b604051602001611e0b90615e89565b6040516020818303038152906040528051906020012082604051602001611e329190616094565b6040516020818303038152906040528051906020012003611f9157600754604080516315ab88c960e31b815290515f926001600160a01b03169163ad5c46489160048083019260209291908290030181865afa158015611e94573d5f803e3d5ffd5b505050506040513d601f19601f82011682018060405250810190611eb89190615dc9565b8286604051602001611ecc93929190616038565b60408051601f198184030181529082905260095463cdca175360e01b83529092505f916001600160a01b039091169063cdca175390611f119085908990600401616073565b6020604051808303815f875af1158015611f2d573d5f803e3d5ffd5b505050506040513d601f19601f82011682018060405250810190611f519190615d4c565b90505f612710601054612710611f679190615f1b565b611f719084615d77565b611f7b9190615d8e565b9050611f8987878684614539565b505050611fbf565b60405162461bcd60e51b815260206004820152600360248201526210aaab60e91b6044820152606401610962565b50505050565b611fcd613ebd565b5f5b600b5481101561237057816001600160a01b0316600b8281548110611ff657611ff6615d38565b5f9182526020909120600590910201546001600160a01b031603612368575f600b828154811061202857612028615d38565b5f9182526020918290206040805160a081018252600590930290910180546001600160a01b0390811684526001820154169383019390935260028301549082015260038201805491929160608401919061208190615d00565b80601f01602080910402602001604051908101604052809291908181526020018280546120ad90615d00565b80156120f85780601f106120cf576101008083540402835291602001916120f8565b820191905f5260205f20905b8154815290600101906020018083116120db57829003601f168201915b505050918352505060049182015462ffffff1660209182015260408084015191840151606085015160808601519251631ce07ae960e11b815295965030956339c0f5d29561214b94869392909101615956565b5f604051808303818588803b158015612162575f80fd5b505af193505050508015612174575060015b612334576040805160a0810182523381526020838101516001600160a01b039081169183019182528484015193830193845260608086015190840190815260808087015162ffffff1690850152600b80546001810182555f91909152845160059091027f0175b7a638427703f0dbe7bb9bbf987a2551717b34e79f33b5b1008d1fa01db9810180549285166001600160a01b031993841617815594517f0175b7a638427703f0dbe7bb9bbf987a2551717b34e79f33b5b1008d1fa01dba820180549190951692169190911790925593517f0175b7a638427703f0dbe7bb9bbf987a2551717b34e79f33b5b1008d1fa01dbb8201559251919290917f0175b7a638427703f0dbe7bb9bbf987a2551717b34e79f33b5b1008d1fa01dbc9091019061229d90826160ee565b50608091909101516004909101805462ffffff191662ffffff909216919091179055335f908152600c602052604081208054916122d9836161ab565b9190505550336001600160a01b03167fb301e8c1d1e07ed6209db6d6cc98b8f845197cb3a52a5c0502ca2df8316e6929826020015183604001518460600151604051612327939291906161c3565b60405180910390a2612366565b61233d8261466b565b6001600160a01b0383165f908152600c60205260408120805491612360836161e9565b91905055505b505b600101611fcf565b5050565b61237c613ebd565b6123846147c7565b6040513381527f5db9ee0a495bf2e6ff9c91a7834c1ba4fdd244a5e8aa4e537bd38aeae4b073aa906020015b60405180910390a1565b6123c2613ebd565b6001600160a01b0382165f818152600a6020908152604091829020805460ff191685151590811790915591519182527fa54714518c5d275fdcd3d2a461e4858e4e8cb04fb93cd0bca9d6d34115f26440910160405180910390a25050565b60065481515f91146124645760405162461bcd60e51b815260206004820152600d60248201526c042e0e4d2c6cae6d8cadccee8d609b1b6044820152606401610962565b5f805b600654811015612545575f6006828154811061248557612485615d38565b5f9182526020822060049182020180546040516370a0823160e01b815230938101939093529093506001600160a01b0316906370a0823190602401602060405180830381865afa1580156124db573d5f803e3d5ffd5b505050506040513d601f19601f820116820180604052508101906124ff9190615d4c565b90505f86848151811061251457612514615d38565b60200260200101519050808261252a9190615d77565b6125349086615f08565b945050600190920191506124679050565b5092915050565b612554613ebd565b868514801561256257508683145b801561256d57508681145b6125a85760405162461bcd60e51b815260206004820152600c60248201526b214d6973736c656e6774687360a01b6044820152606401610962565b5f5b87811015612779576127108787838181106125c7576125c7615d38565b90506020020135111561260a5760405162461bcd60e51b815260206004820152600b60248201526a2170657263656e7461676560a81b6044820152606401610962565b600660405180608001604052808b8b8581811061262957612629615d38565b905060200201602081019061263e9190615992565b6001600160a01b0316815260200189898581811061265e5761265e615d38565b90506020020135815260200187878581811061267c5761267c615d38565b905060200281019061268e91906161fe565b8080601f0160208091040260200160405190810160405280939291908181526020018383808284375f920191909152505050908252506020018585858181106126d9576126d9615d38565b90506020020160208101906126ee9190616240565b62ffffff1690528154600180820184555f938452602093849020835160049093020180546001600160a01b0319166001600160a01b0390931692909217825592820151928101929092556040810151909190600282019061274f90826160ee565b50606091909101516003909101805462ffffff191662ffffff9092169190911790556001016125aa565b505050505050505050565b61278c613ebd565b6127955f614816565b565b61279f613ebd565b6127a7613fcd565b6006548151146127df5760405162461bcd60e51b815260206004820152600360248201526208541360ea1b6044820152606401610962565b5f6127e982612420565b90505f81116128225760405162461bcd60e51b815260206004820152600560248201526407476213d360dc1b6044820152606401610962565b5f5b600654811015612b7a575f6006828154811061284257612842615d38565b905f5260205f20906004020190505f612866858481518110610a7257610a72615d38565b90505f81116128a05760405162461bcd60e51b815260040161096290602080825260049082015263063703e360e41b604082015260600190565b5f846128ae83612710615d77565b6128b89190615d8e565b90508260010154811115612a0c575f8360010154826128d79190615f1b565b90505f6127106128e78884615d77565b6128f19190615d8e565b90505f88878151811061290657612906615d38565b6020026020010151826129199190615d8e565b90505f81116129565760405162461bcd60e51b8152602060048201526009602482015268616d6f756e743e305360b81b6044820152606401610962565b8554600287018054612a03926001600160a01b031691849161297790615d00565b80601f01602080910402602001604051908101604052809291908181526020018280546129a390615d00565b80156129ee5780601f106129c5576101008083540402835291602001916129ee565b820191905f5260205f20905b8154815290600101906020018083116129d157829003601f168201915b5050505060038b015462ffffff169050614865565b50505050612b6f565b8260010154811015612b6f575f818460010154612a299190615f1b565b90505f612710612a398884615d77565b612a439190615d8e565b90505f888781518110612a5857612a58615d38565b602002602001015182612a6b9190615d8e565b90505f8111612aa85760405162461bcd60e51b815260206004820152600960248201526830b6b7bab73a1f182160b91b6044820152606401610962565b5f6013541180612ab957505f601454115b15612b6b578554600287018054612b6b926001600160a01b0316918491612adf90615d00565b80601f0160208091040260200160405190810160405280929190818152602001828054612b0b90615d00565b8015612b565780601f10612b2d57610100808354040283529160200191612b56565b820191905f5260205f20905b815481529060010190602001808311612b3957829003601f168201915b5050505060038b015462ffffff169050614d87565b5050505b505050600101612824565b506040514281527fc306af072396b02bf3a9782c10065cc7ff4aa842934a43f0b76f997b291237c89060200160405180910390a15050565b612bba613ebd565b612bc26153eb565b6040513381527f62e78cea01bee320cd4e420270b5ea74000d11b0c9f74754ebdbfc544b05a258906020016123b0565b6001600160a01b0381165f908152600c6020526040812054606091906001600160401b03811115612c2557612c2561576a565b604051908082528060200260200182016040528015612c7b57816020015b6040805160a0810182525f8082526020808301829052928201819052606080830152608082015282525f19909201910181612c435790505b5090505f805b600b54811015612df957846001600160a01b0316600b8281548110612ca857612ca8615d38565b5f9182526020909120600590910201546001600160a01b031603612df157600b8181548110612cd957612cd9615d38565b5f9182526020918290206040805160a081018252600590930290910180546001600160a01b03908116845260018201541693830193909352600283015490820152600382018054919291606084019190612d3290615d00565b80601f0160208091040260200160405190810160405280929190818152602001828054612d5e90615d00565b8015612da95780601f10612d8057610100808354040283529160200191612da9565b820191905f5260205f20905b815481529060010190602001808311612d8c57829003601f168201915b50505091835250506004919091015462ffffff166020909101528351849084908110612dd757612dd7615d38565b60200260200101819052508180612ded906161ab565b9250505b600101612c81565b50909392505050565b60606005805461088a90615d00565b612e19613ebd565b612710831115612e565760405162461bcd60e51b8152602060048201526008602482015267021503e31303030360c41b6044820152606401610962565b5f805b600654811015612f4457856001600160a01b031660068281548110612e8057612e80615d38565b5f9182526020909120600490910201546001600160a01b031603612f3c578460068281548110612eb257612eb2615d38565b905f5260205f209060040201600101819055508360068281548110612ed957612ed9615d38565b905f5260205f2090600402016002019081612ef491906160ee565b508260068281548110612f0957612f09615d38565b905f5260205f2090600402016003015f6101000a81548162ffffff021916908362ffffff16021790555060019150612f44565b600101612e59565b5080612f7b5760405162461bcd60e51b815260206004820152600660248201526510ba37b5b2b760d11b6044820152606401610962565b5050505050565b612f8a613ebd565b60115415613023576011546040515f916001600160a01b038416918381818185875af1925050503d805f8114612fdb576040519150601f19603f3d011682016040523d82523d5f602084013e612fe0565b606091505b505090508061301d5760405162461bcd60e51b815260206004820152600960248201526808c8292988a888aa8960bb1b6044820152606401610962565b505f6011555b6012541561311057600754604080516315ab88c960e31b815290515f926001600160a01b03169163ad5c46489160048083019260209291908290030181865afa158015613072573d5f803e3d5ffd5b505050506040513d601f19601f820116820180604052508101906130969190615dc9565b60125460405163a9059cbb60e01b81526001600160a01b038581166004830152602482019290925291925082169063a9059cbb906044016020604051808303815f875af11580156130e9573d5f803e3d5ffd5b505050506040513d601f19601f8201168201806040525081019061310d9190615f2e565b50505b50565b5f33610918818585613f70565b335f908152600a602052604090205460ff166131675760405162461bcd60e51b8152600401610962906020808252600490820152630855d21560e21b604082015260600190565b61316f613fcd565b5f34116131a45760405162461bcd60e51b8152602060048201526003602482015262414d4760e81b6044820152606401610962565b5f612710600e54346131b69190615d77565b6131c09190615d8e565b90505f6131cd8234615f1b565b90508160115f8282546131e09190615f08565b9091555050806132455760405162461bcd60e51b815260206004820152602a60248201527f416d6f756e7420616674657220666565206d7573742062652067726561746572604482015269207468616e207a65726f60b01b6064820152608401610962565b61324f338261542d565b336001600160a01b03167fa6f472afe6167674a3b4324e83eb63d201d75a960d8a52bf808fea91f960f11782836040516132ae9291909182526020820152606060408201819052600390820152624e2f4160e81b608082015260a00190565b60405180910390a25f5b60065481101561310d575f600682815481106132d6576132d6615d38565b905f5260205f20906004020190505f6127108260010154856132f89190615d77565b6133029190615d8e565b9050838111156133485760405162461bcd60e51b815260206004820152601160248201527063616c4554483c3d616d6f756e7466656560781b6044820152606401610962565b81546003830154604051631ce07ae960e11b815230926339c0f5d2928592613389926001600160a01b031691849160028a019162ffffff1690600401615e63565b5f604051808303818588803b1580156133a0575f80fd5b505af1935050505080156133b2575060015b61359d57335f908152600d6020526040812080548392906133d4908490615f08565b90915550506040805160a08101825233815283546001600160a01b03166020820152908101829052600283018054600b9291606083019161341490615d00565b80601f016020809104026020016040519081016040528092919081815260200182805461344090615d00565b801561348b5780601f106134625761010080835404028352916020019161348b565b820191905f5260205f20905b81548152906001019060200180831161346e57829003601f168201915b505050918352505060038581015462ffffff166020928301528354600180820186555f95865294839020845160059092020180546001600160a01b03199081166001600160a01b0393841617825593850151958101805490941695909116949094179091556040820151600284015560608201519192919082019061351090826160ee565b50608091909101516004909101805462ffffff191662ffffff909216919091179055335f908152600c6020526040812080549161354c836161ab565b9091555050815460405133917fb301e8c1d1e07ed6209db6d6cc98b8f845197cb3a52a5c0502ca2df8316e692991613594916001600160a01b03169085906002880190616259565b60405180910390a25b50506001016132b8565b5f6040516020016135b790615f49565b60405160208183030381529060405280519060200120836040516020016135de9190616094565b604051602081830303815290604052805190602001200361379b576040805160028082526060820183525f9260208301908036833701905050905085815f8151811061362c5761362c615d38565b6001600160a01b03928316602091820292909201810191909152600754604080516315ab88c960e31b81529051919093169263ad5c46489260048083019391928290030181865afa158015613683573d5f803e3d5ffd5b505050506040513d601f19601f820116820180604052508101906136a79190615dc9565b816001815181106136ba576136ba615d38565b6001600160a01b03928316602091820292909201015260075460405163d06ca61f60e01b81525f92919091169063d06ca61f906136fd9089908690600401615f9a565b5f60405180830381865afa158015613717573d5f803e3d5ffd5b505050506040513d5f823e601f3d908101601f1916820160405261373e9190810190615fb2565b90505f6127106010546127106137549190615f1b565b8360018151811061376757613767615d38565b60200260200101516137799190615d77565b6137839190615d8e565b90506137918888833061402b565b9350505050613933565b6040516020016137aa90615e89565b60405160208183030381529060405280519060200120836040516020016137d19190616094565b6040516020818303038152906040528051906020012003611f91575f858360075f9054906101000a90046001600160a01b03166001600160a01b031663ad5c46486040518163ffffffff1660e01b8152600401602060405180830381865afa15801561383f573d5f803e3d5ffd5b505050506040513d601f19601f820116820180604052508101906138639190615dc9565b60405160200161387593929190616038565b60408051601f198184030181529082905260095463cdca175360e01b83529092505f916001600160a01b039091169063cdca1753906138ba9085908a90600401616073565b6020604051808303815f875af11580156138d6573d5f803e3d5ffd5b505050506040513d601f19601f820116820180604052508101906138fa9190615d4c565b90505f6127106010546127106139109190615f1b565b61391a9084615d77565b6139249190615d8e565b90506137918888878430614216565b949350505050565b613943613ebd565b6001600160a01b03811661396c57604051631e4fbdf760e01b81525f6004820152602401610962565b61311081614816565b61397d613ebd565b5f805b600654811015613e28575f6006828154811061399e5761399e615d38565b5f9182526020822060049182020180546040516370a0823160e01b815230938101939093529093506001600160a01b0316906370a0823190602401602060405180830381865afa1580156139f4573d5f803e3d5ffd5b505050506040513d601f19601f82011682018060405250810190613a189190615d4c565b9050604051602001613a2990615f49565b6040516020818303038152906040528051906020012082600201604051602001613a539190615e97565b6040516020818303038152906040528051906020012003613c31576040805160028082526060820183525f926020830190803683375050845482519293506001600160a01b0316918391505f90613aac57613aac615d38565b6001600160a01b03928316602091820292909201810191909152600754604080516315ab88c960e31b81529051919093169263ad5c46489260048083019391928290030181865afa158015613b03573d5f803e3d5ffd5b505050506040513d601f19601f82011682018060405250810190613b279190615dc9565b81600181518110613b3a57613b3a615d38565b6001600160a01b03928316602091820292909201015260075460405163d06ca61f60e01b81525f92919091169063d06ca61f90613b7d9086908690600401615f9a565b5f60405180830381865afa158015613b97573d5f803e3d5ffd5b505050506040513d5f823e601f3d908101601f19168201604052613bbe9190810190615fb2565b90505f612710601054612710613bd49190615f1b565b83600181518110613be757613be7615d38565b6020026020010151613bf99190615d77565b613c039190615d8e565b8554909150613c1d906001600160a01b031685833361402b565b613c279088615f08565b9650505050613e1e565b604051602001613c4090615e89565b6040516020818303038152906040528051906020012082600201604051602001613c6a9190615e97565b6040516020818303038152906040528051906020012003613dea5781546003830154600754604080516315ab88c960e31b815290515f946001600160a01b039081169462ffffff1693169163ad5c46489160048083019260209291908290030181865afa158015613cdd573d5f803e3d5ffd5b505050506040513d601f19601f82011682018060405250810190613d019190615dc9565b604051602001613d1393929190616038565b60408051601f198184030181529082905260095463cdca175360e01b83529092505f916001600160a01b039091169063cdca175390613d589085908790600401616073565b6020604051808303815f875af1158015613d74573d5f803e3d5ffd5b505050506040513d601f19601f82011682018060405250810190613d989190615d4c565b90505f612710601054612710613dae9190615f1b565b613db89084615d77565b613dc29190615d8e565b85546003870154919250613c1d916001600160a01b0390911690869062ffffff168433614216565b60405162461bcd60e51b8152602060048201526009602482015268496e76616c6964565360b81b6044820152606401610962565b5050600101613980565b508015613110576040515f90339083908381818185875af1925050503d805f8114613e6e576040519150601f19603f3d011682016040523d82523d5f602084013e613e73565b606091505b50509050806123705760405162461bcd60e51b815260206004820152600960248201526808c8292988a888aa8960bb1b6044820152606401610962565b61310d8383836001615461565b5f546001600160a01b031633146127955760405163118cdaa760e01b8152336004820152602401610962565b5f613ef48383615d77565b9392505050565b6001600160a01b038381165f908152600260209081526040808320938616835292905220545f198114611fbf5781811015613f6257604051637dc7a0d960e11b81526001600160a01b03841660048201526024810182905260448101839052606401610962565b611fbf84848484035f615461565b6001600160a01b038316613f9957604051634b637e8f60e11b81525f6004820152602401610962565b6001600160a01b038216613fc25760405163ec442f0560e01b81525f6004820152602401610962565b61310d838383615533565b5f54600160a01b900460ff16156127955760405163d93c066560e01b815260040160405180910390fd5b6001600160a01b03821661402057604051634b637e8f60e11b81525f6004820152602401610962565b612370825f83615533565b6040805160028082526060820183525f928392919060208301908036833701905050905085815f8151811061406257614062615d38565b6001600160a01b03928316602091820292909201810191909152600754604080516315ab88c960e31b81529051919093169263ad5c46489260048083019391928290030181865afa1580156140b9573d5f803e3d5ffd5b505050506040513d601f19601f820116820180604052508101906140dd9190615dc9565b816001815181106140f0576140f0615d38565b6001600160a01b03928316602091820292909201015260075460405163095ea7b360e01b81529082166004820152602481018790529087169063095ea7b3906044016020604051808303815f875af115801561414e573d5f803e3d5ffd5b505050506040513d601f19601f820116820180604052508101906141729190615f2e565b506007546040516318cbafe560e01b81525f916001600160a01b0316906318cbafe5906141ab908990899087908a90429060040161627f565b5f604051808303815f875af11580156141c6573d5f803e3d5ffd5b505050506040513d5f823e601f3d908101601f191682016040526141ed9190810190615fb2565b90508060018151811061420257614202615d38565b602002602001015192505050949350505050565b5f80604051806101000160405280886001600160a01b0316815260200160075f9054906101000a90046001600160a01b03166001600160a01b031663ad5c46486040518163ffffffff1660e01b8152600401602060405180830381865afa158015614283573d5f803e3d5ffd5b505050506040513d601f19601f820116820180604052508101906142a79190615dc9565b6001600160a01b03908116825262ffffff88166020830152858116604080840191909152426060840152608083018a905260a083018890525f60c090930192909252600854915163095ea7b360e01b81529181166004830152602482018990529192509088169063095ea7b3906044016020604051808303815f875af1158015614333573d5f803e3d5ffd5b505050506040513d601f19601f820116820180604052508101906143579190615f2e565b5060085460405163414bf38960e01b81526001600160a01b039091169063414bf389906143889084906004016162ba565b6020604051808303815f875af11580156143a4573d5f803e3d5ffd5b505050506040513d601f19601f820116820180604052508101906143c89190615d4c565b979650505050505050565b60408051600280825260608083018452925f9291906020830190803683375050600754604080516315ab88c960e31b815290519394506001600160a01b039091169263ad5c4648925060048083019260209291908290030181865afa15801561443e573d5f803e3d5ffd5b505050506040513d601f19601f820116820180604052508101906144629190615dc9565b815f8151811061447457614474615d38565b60200260200101906001600160a01b031690816001600160a01b03168152505084816001815181106144a8576144a8615d38565b6001600160a01b039283166020918202929092010152600754604051637ff36ab560e01b8152911690637ff36ab59086906144ed908790869030904290600401616330565b5f6040518083038185885af1158015614508573d5f803e3d5ffd5b50505050506040513d5f823e601f3d908101601f191682016040526145309190810190615fb2565b95945050505050565b6040805161010081018083526007546315ab88c960e31b90915291515f9282916001600160a01b039091169063ad5c464890610104808501916020918187030181865afa15801561458c573d5f803e3d5ffd5b505050506040513d601f19601f820116820180604052508101906145b09190615dc9565b6001600160a01b039081168252878116602083015262ffffff861660408084019190915230606084015242608084015260a0830188905260c083018690525f60e090930192909252600854915163414bf38960e01b8152929350169063414bf3899086906146229085906004016162ba565b60206040518083038185885af115801561463e573d5f803e3d5ffd5b50505050506040513d601f19601f820116820180604052508101906146639190615d4c565b505050505050565b600b5481106146a55760405162461bcd60e51b8152602060048201526006602482015265042d2dcc8caf60d31b6044820152606401610962565b600b80546146b590600190615f1b565b815481106146c5576146c5615d38565b905f5260205f209060050201600b82815481106146e4576146e4615d38565b5f9182526020909120825460059092020180546001600160a01b039283166001600160a01b03199182161782556001808501549083018054919094169116179091556002808301549082015560038082019061474290840182616364565b506004918201549101805462ffffff191662ffffff909216919091179055600b80548061477157614771616430565b5f8281526020812060055f199093019283020180546001600160a01b03199081168255600182018054909116905560028101829055906147b46003830182615682565b50600401805462ffffff19169055905550565b6147cf615659565b5f805460ff60a01b191690557f5db9ee0a495bf2e6ff9c91a7834c1ba4fdd244a5e8aa4e537bd38aeae4b073aa335b6040516001600160a01b0390911681526020016123b0565b5f80546001600160a01b038381166001600160a01b0319831681178455604051919092169283917f8be0079c531659141344cd1fd0a4f28419497f9722a3daafe3b4186f6b6457e09190a35050565b5f8084116148855760405162461bcd60e51b815260040161096290615dad565b6001600160a01b0385166148c65760405162461bcd60e51b8152602060048201526008602482015267216164647265737360c01b6044820152606401610962565b5f8351116148ff5760405162461bcd60e51b815260206004820152600660248201526521656d70747960d01b6044820152606401610962565b60405160200161490e90615f49565b60405160208183030381529060405280519060200120836040516020016149359190616094565b6040516020818303038152906040528051906020012003614b7e576040805160028082526060820183525f9260208301908036833701905050905085815f8151811061498357614983615d38565b6001600160a01b03928316602091820292909201810191909152600754604080516315ab88c960e31b81529051919093169263ad5c46489260048083019391928290030181865afa1580156149da573d5f803e3d5ffd5b505050506040513d601f19601f820116820180604052508101906149fe9190615dc9565b81600181518110614a1157614a11615d38565b6001600160a01b03928316602091820292909201015260075460405163d06ca61f60e01b81525f92919091169063d06ca61f90614a549089908690600401615f9a565b5f60405180830381865afa158015614a6e573d5f803e3d5ffd5b505050506040513d5f823e601f3d908101601f19168201604052614a959190810190615fb2565b9050600281511015614ad25760405162461bcd60e51b815260206004820152600660248201526521455850414d60d01b6044820152606401610962565b5f612710601054612710614ae69190615f1b565b83600181518110614af957614af9615d38565b6020026020010151614b0b9190615d77565b614b159190615d8e565b9050614b238888833061402b565b935080841015614b5f5760405162461bcd60e51b81526020600482015260076024820152660f185b5bdd5b9d60ca1b6044820152606401610962565b8360135f828254614b709190615f08565b909155506139339350505050565b604051602001614b8d90615e89565b6040516020818303038152906040528051906020012083604051602001614bb49190616094565b6040516020818303038152906040528051906020012003611f91575f858360075f9054906101000a90046001600160a01b03166001600160a01b031663ad5c46486040518163ffffffff1660e01b8152600401602060405180830381865afa158015614c22573d5f803e3d5ffd5b505050506040513d601f19601f82011682018060405250810190614c469190615dc9565b604051602001614c5893929190616038565b60408051601f198184030181529082905260095463cdca175360e01b83529092505f916001600160a01b039091169063cdca175390614c9d9085908a90600401616073565b6020604051808303815f875af1158015614cb9573d5f803e3d5ffd5b505050506040513d601f19601f82011682018060405250810190614cdd9190615d4c565b90505f8111614d165760405162461bcd60e51b815260206004820152600560248201526406d696e3e360dc1b6044820152606401610962565b5f612710601054612710614d2a9190615f1b565b614d349084615d77565b614d3e9190615d8e565b9050614d4d8888878430614216565b935080841015614b5f5760405162461bcd60e51b815260206004820152600560248201526406d696e3e360dc1b6044820152606401610962565b604051602001614d9690615f49565b6040516020818303038152906040528051906020012082604051602001614dbd9190616094565b604051602081830303815290604052805190602001200361512c576040805160028082526060820183525f926020830190803683375050600754604080516315ab88c960e31b815290519394506001600160a01b039091169263ad5c4648925060048083019260209291908290030181865afa158015614e3f573d5f803e3d5ffd5b505050506040513d601f19601f82011682018060405250810190614e639190615dc9565b815f81518110614e7557614e75615d38565b60200260200101906001600160a01b031690816001600160a01b0316815250508481600181518110614ea957614ea9615d38565b6001600160a01b0392831660209182029290920101526007546040516307c0329d60e21b81525f929190911690631f00ca7490614eec9088908690600401615f9a565b5f60405180830381865afa158015614f06573d5f803e3d5ffd5b505050506040513d5f823e601f3d908101601f19168201604052614f2d9190810190615fb2565b905080600181518110614f4257614f42615d38565b602002602001015160135411156150585760075481515f916001600160a01b03169063d06ca61f9084906001908110614f7d57614f7d615d38565b6020026020010151856040518363ffffffff1660e01b8152600401614fa3929190615f9a565b5f60405180830381865afa158015614fbd573d5f803e3d5ffd5b505050506040513d5f823e601f3d908101601f19168201604052614fe49190810190615fb2565b90505f612710601054612710614ffa9190615f1b565b8360018151811061500d5761500d615d38565b602002602001015161501f9190615d77565b6150299190615d8e565b9050615050888460018151811061504257615042615d38565b6020026020010151836143d3565b505050615125565b60075460135460405163d06ca61f60e01b81525f926001600160a01b03169163d06ca61f9161508c91908790600401615f9a565b5f60405180830381865afa1580156150a6573d5f803e3d5ffd5b505050506040513d5f823e601f3d908101601f191682016040526150cd9190810190615fb2565b90505f6127106010546127106150e39190615f1b565b836001815181106150f6576150f6615d38565b60200260200101516151089190615d77565b6151129190615d8e565b905061512188601354836143d3565b5050505b5050611fbf565b60405160200161513b90615e89565b60405160208183030381529060405280519060200120826040516020016151629190616094565b6040516020818303038152906040528051906020012003611f9157600754604080516315ab88c960e31b815290515f926001600160a01b03169163ad5c46489160048083019260209291908290030181865afa1580156151c4573d5f803e3d5ffd5b505050506040513d601f19601f820116820180604052508101906151e89190615dc9565b82866040516020016151fc93929190616038565b60408051601f1981840301815290829052600954632f80bb1d60e01b83529092505f916001600160a01b0390911690632f80bb1d906152419085908990600401616073565b6020604051808303815f875af115801561525d573d5f803e3d5ffd5b505050506040513d601f19601f820116820180604052508101906152819190615d4c565b905080601454111561533e5760095460405163cdca175360e01b81525f916001600160a01b03169063cdca1753906152bf9086908690600401616073565b6020604051808303815f875af11580156152db573d5f803e3d5ffd5b505050506040513d601f19601f820116820180604052508101906152ff9190615d4c565b90505f6127106010546127106153159190615f1b565b61531f9084615d77565b6153299190615d8e565b905061533788848784614539565b5050615125565b60095460145460405163cdca175360e01b81525f926001600160a01b03169163cdca175391615371918791600401616073565b6020604051808303815f875af115801561538d573d5f803e3d5ffd5b505050506040513d601f19601f820116820180604052508101906153b19190615d4c565b90505f6127106010546127106153c79190615f1b565b6153d19084615d77565b6153db9190615d8e565b9050611df3886014548784614539565b6153f3613fcd565b5f805460ff60a01b1916600160a01b1790557f62e78cea01bee320cd4e420270b5ea74000d11b0c9f74754ebdbfc544b05a2586147fe3390565b6001600160a01b0382166154565760405163ec442f0560e01b81525f6004820152602401610962565b6123705f8383615533565b6001600160a01b03841661548a5760405163e602df0560e01b81525f6004820152602401610962565b6001600160a01b0383166154b357604051634a1406b160e11b81525f6004820152602401610962565b6001600160a01b038085165f9081526002602090815260408083209387168352929052208290558015611fbf57826001600160a01b0316846001600160a01b03167f8c5be1e5ebec7d5bd14f71427d1e84f3dd0314c0f7b2291e5b200ac8c7c3b9258460405161552591815260200190565b60405180910390a350505050565b6001600160a01b03831661555d578060035f8282546155529190615f08565b909155506155cd9050565b6001600160a01b0383165f90815260016020526040902054818110156155af5760405163391434e360e21b81526001600160a01b03851660048201526024810182905260448101839052606401610962565b6001600160a01b0384165f9081526001602052604090209082900390555b6001600160a01b0382166155e957600380548290039055615607565b6001600160a01b0382165f9081526001602052604090208054820190555b816001600160a01b0316836001600160a01b03167fddf252ad1be2c89b69c2b068fc378daa952ba7f163c4a11628f55a4df523b3ef8360405161564c91815260200190565b60405180910390a3505050565b5f54600160a01b900460ff1661279557604051638dfc202b60e01b815260040160405180910390fd5b50805461568e90615d00565b5f825580601f1061569d575050565b601f0160209004905f5260205f209081019061311091905b808211156156c8575f81556001016156b5565b5090565b5f81518084528060208401602086015e5f602082860101526020601f19601f83011685010191505092915050565b602081525f613ef460208301846156cc565b6001600160a01b0381168114613110575f80fd5b5f8060408385031215615731575f80fd5b823561573c8161570c565b946020939093013593505050565b5f806040838503121561575b575f80fd5b50508035926020909101359150565b634e487b7160e01b5f52604160045260245ffd5b604051601f8201601f191681016001600160401b03811182821017156157a6576157a661576a565b604052919050565b5f6001600160401b038211156157c6576157c661576a565b5060051b60200190565b5f602082840312156157e0575f80fd5b81356001600160401b038111156157f5575f80fd5b8201601f81018413615805575f80fd5b8035615818615813826157ae565b61577e565b8082825260208201915060208360051b850101925086831115615839575f80fd5b6020840193505b8284101561585b578335825260209384019390910190615840565b9695505050505050565b5f60208284031215615875575f80fd5b5035919050565b5f805f6060848603121561588e575f80fd5b83356158998161570c565b925060208401356158a98161570c565b929592945050506040919091013590565b5f602082016020835280845180835260408501915060408160051b8601019250602086015f5b8281101561594a57603f19878603018452815160018060a01b0381511686526020810151602087015260408101516080604088015261592260808801826156cc565b60609283015162ffffff169790920196909652945060209384019391909101906001016158e0565b50929695505050505050565b60018060a01b0385168152836020820152608060408201525f61597c60808301856156cc565b905062ffffff8316606083015295945050505050565b5f602082840312156159a2575f80fd5b8135613ef48161570c565b6001600160a01b038681168252851660208201526040810184905260a0606082018190525f906159df908301856156cc565b905062ffffff831660808301529695505050505050565b5f82601f830112615a05575f80fd5b81356001600160401b03811115615a1e57615a1e61576a565b615a31601f8201601f191660200161577e565b818152846020838601011115615a45575f80fd5b816020850160208301375f918101602001919091529392505050565b803562ffffff81168114615a73575f80fd5b919050565b5f805f8060808587031215615a8b575f80fd5b8435615a968161570c565b93506020850135925060408501356001600160401b03811115615ab7575f80fd5b615ac3878288016159f6565b925050615ad260608601615a61565b905092959194509250565b8015158114613110575f80fd5b5f8060408385031215615afb575f80fd5b8235615b068161570c565b91506020830135615b1681615add565b809150509250929050565b5f8083601f840112615b31575f80fd5b5081356001600160401b03811115615b47575f80fd5b6020830191508360208260051b8501011115615b61575f80fd5b9250929050565b5f805f805f805f806080898b031215615b7f575f80fd5b88356001600160401b03811115615b94575f80fd5b615ba08b828c01615b21565b90995097505060208901356001600160401b03811115615bbe575f80fd5b615bca8b828c01615b21565b90975095505060408901356001600160401b03811115615be8575f80fd5b615bf48b828c01615b21565b90955093505060608901356001600160401b03811115615c12575f80fd5b615c1e8b828c01615b21565b999c989b5096995094979396929594505050565b5f602082016020835280845180835260408501915060408160051b8601019250602086015f5b8281101561594a57603f19878603018452815160018060a01b03815116865260018060a01b03602082015116602087015260408101516040870152606081015160a06060880152615cac60a08801826156cc565b60809283015162ffffff16979092019690965294506020938401939190910190600101615c58565b5f8060408385031215615ce5575f80fd5b8235615cf08161570c565b91506020830135615b168161570c565b600181811c90821680615d1457607f821691505b602082108103615d3257634e487b7160e01b5f52602260045260245ffd5b50919050565b634e487b7160e01b5f52603260045260245ffd5b5f60208284031215615d5c575f80fd5b5051919050565b634e487b7160e01b5f52601160045260245ffd5b808202811582820484141761091e5761091e615d63565b5f82615da857634e487b7160e01b5f52601260045260245ffd5b500490565b60208082526002908201526103e360f41b604082015260600190565b5f60208284031215615dd9575f80fd5b8151613ef48161570c565b5f8154615df081615d00565b808552600182168015615e0a5760018114615e2657615e5a565b60ff1983166020870152602082151560051b8701019350615e5a565b845f5260205f205f5b83811015615e515781546020828a010152600182019150602081019050615e2f565b87016020019450505b50505092915050565b60018060a01b0385168152836020820152608060408201525f61597c6080830185615de4565b61763360f01b815260020190565b5f808354615ea481615d00565b600182168015615ebb5760018114615ed057615efd565b60ff1983168652811515820286019350615efd565b865f5260205f205f5b83811015615ef557815488820152600190910190602001615ed9565b505081860193505b509195945050505050565b8082018082111561091e5761091e615d63565b8181038181111561091e5761091e615d63565b5f60208284031215615f3e575f80fd5b8151613ef481615add565b613b1960f11b815260020190565b5f8151808452602084019350602083015f5b82811015615f905781516001600160a01b0316865260209586019590910190600101615f69565b5093949350505050565b828152604060208201525f6139336040830184615f57565b5f60208284031215615fc2575f80fd5b81516001600160401b03811115615fd7575f80fd5b8201601f81018413615fe7575f80fd5b8051615ff5615813826157ae565b8082825260208201915060208360051b850101925086831115616016575f80fd5b6020840193505b8284101561585b57835182526020938401939091019061601d565b606093841b6bffffffffffffffffffffffff19908116825260e89390931b6001600160e81b0319166014820152921b166017820152602b0190565b604081525f61608560408301856156cc565b90508260208301529392505050565b5f82518060208501845e5f920191825250919050565b601f82111561310d57805f5260205f20601f840160051c810160208510156160cf5750805b601f840160051c820191505b81811015612f7b575f81556001016160db565b81516001600160401b038111156161075761610761576a565b61611b816161158454615d00565b846160aa565b6020601f821160018114616150575f83156161365750848201515b600184901b5f19600386901b1c198216175b855550612f7b565b5f84815260208120601f198516915b8281101561617f578785015182556020948501946001909201910161615f565b508482101561619c57868401515f19600387901b60f8161c191681555b50505050600190811b01905550565b5f600182016161bc576161bc615d63565b5060010190565b60018060a01b0384168152826020820152606060408201525f61453060608301846156cc565b5f816161f7576161f7615d63565b505f190190565b5f808335601e19843603018112616213575f80fd5b8301803591506001600160401b0382111561622c575f80fd5b602001915036819003821315615b61575f80fd5b5f60208284031215616250575f80fd5b613ef482615a61565b60018060a01b0384168152826020820152606060408201525f6145306060830184615de4565b85815284602082015260a060408201525f61629d60a0830186615f57565b6001600160a01b0394909416606083015250608001529392505050565b81516001600160a01b03908116825260208084015182169083015260408084015162ffffff169083015260608084015191821690830152610100820190506080830151608083015260a083015160a083015260c083015160c083015260e083015161254560e08401826001600160a01b03169052565b848152608060208201525f6163486080830186615f57565b6001600160a01b03949094166040830152506060015292915050565b81810361636f575050565b6163798254615d00565b6001600160401b038111156163905761639061576a565b61639e816161158454615d00565b5f601f8211600181146163cd575f8315616136575081850154600184901b5f19600386901b1c19821617616148565b5f8581526020808220868352908220601f198616925b8381101561640357828601548255600195860195909101906020016163e3565b508583101561642057818501545f19600388901b60f8161c191681555b5050505050600190811b01905550565b634e487b7160e01b5f52603160045260245ffdfea2646970667358221220be4974bf3974a62baa8c5c4e136928a593896dff5d193bcb8ced7d6d70f48fca64736f6c634300081a0033",
			"opcodes": "PUSH1 0x80 PUSH1 0x40 MSTORE CALLVALUE DUP1 ISZERO PUSH2 0xF JUMPI PUSH0 DUP1 REVERT JUMPDEST POP PUSH1 0x40 MLOAD PUSH2 0x67AD CODESIZE SUB DUP1 PUSH2 0x67AD DUP4 CODECOPY DUP2 ADD PUSH1 0x40 DUP2 SWAP1 MSTORE PUSH2 0x2E SWAP2 PUSH2 0x194 JUMP JUMPDEST PUSH1 0x40 DUP1 MLOAD DUP1 DUP3 ADD DUP3 MSTORE PUSH1 0x7 DUP2 MSTORE PUSH7 0xA0B28E8E8AA89 PUSH1 0xCB SHL PUSH1 0x20 DUP1 DUP4 ADD SWAP2 SWAP1 SWAP2 MSTORE DUP3 MLOAD DUP1 DUP5 ADD SWAP1 SWAP4 MSTORE PUSH1 0x4 DUP4 MSTORE PUSH4 0xA08AA89 PUSH1 0xE3 SHL SWAP1 DUP4 ADD MSTORE SWAP1 CALLER DUP1 PUSH2 0x8D JUMPI PUSH1 0x40 MLOAD PUSH4 0x1E4FBDF7 PUSH1 0xE0 SHL DUP2 MSTORE PUSH0 PUSH1 0x4 DUP3 ADD MSTORE PUSH1 0x24 ADD PUSH1 0x40 MLOAD DUP1 SWAP2 SUB SWAP1 REVERT JUMPDEST PUSH2 0x96 DUP2 PUSH2 0x12A JUMP JUMPDEST POP PUSH0 DUP1 SLOAD PUSH1 0xFF PUSH1 0xA0 SHL NOT AND SWAP1 SSTORE PUSH1 0x4 PUSH2 0xAF DUP4 DUP3 PUSH2 0x26C JUMP JUMPDEST POP PUSH1 0x5 PUSH2 0xBC DUP3 DUP3 PUSH2 0x26C JUMP JUMPDEST POP POP PUSH1 0x7 DUP1 SLOAD PUSH1 0x1 PUSH1 0x1 PUSH1 0xA0 SHL SUB SWAP6 DUP7 AND PUSH1 0x1 PUSH1 0x1 PUSH1 0xA0 SHL SUB NOT SWAP2 DUP3 AND OR SWAP1 SWAP2 SSTORE PUSH1 0x8 DUP1 SLOAD SWAP5 DUP7 AND SWAP5 DUP3 AND SWAP5 SWAP1 SWAP5 OR SWAP1 SWAP4 SSTORE POP PUSH1 0x9 DUP1 SLOAD SWAP2 SWAP1 SWAP4 AND SWAP2 AND OR SWAP1 SSTORE CALLER PUSH0 SWAP1 DUP2 MSTORE PUSH1 0xA PUSH1 0x20 MSTORE PUSH1 0x40 SWAP1 KECCAK256 DUP1 SLOAD PUSH1 0xFF NOT AND PUSH1 0x1 OR SWAP1 SSTORE PUSH2 0x3E8 PUSH1 0x10 SSTORE PUSH1 0x64 PUSH1 0xF DUP2 SWAP1 SSTORE PUSH1 0xE SSTORE PUSH2 0x326 JUMP JUMPDEST PUSH0 DUP1 SLOAD PUSH1 0x1 PUSH1 0x1 PUSH1 0xA0 SHL SUB DUP4 DUP2 AND PUSH1 0x1 PUSH1 0x1 PUSH1 0xA0 SHL SUB NOT DUP4 AND DUP2 OR DUP5 SSTORE PUSH1 0x40 MLOAD SWAP2 SWAP1 SWAP3 AND SWAP3 DUP4 SWAP2 PUSH32 0x8BE0079C531659141344CD1FD0A4F28419497F9722A3DAAFE3B4186F6B6457E0 SWAP2 SWAP1 LOG3 POP POP JUMP JUMPDEST DUP1 MLOAD PUSH1 0x1 PUSH1 0x1 PUSH1 0xA0 SHL SUB DUP2 AND DUP2 EQ PUSH2 0x18F JUMPI PUSH0 DUP1 REVERT JUMPDEST SWAP2 SWAP1 POP JUMP JUMPDEST PUSH0 DUP1 PUSH0 PUSH1 0x60 DUP5 DUP7 SUB SLT ISZERO PUSH2 0x1A6 JUMPI PUSH0 DUP1 REVERT JUMPDEST PUSH2 0x1AF DUP5 PUSH2 0x179 JUMP JUMPDEST SWAP3 POP PUSH2 0x1BD PUSH1 0x20 DUP6 ADD PUSH2 0x179 JUMP JUMPDEST SWAP2 POP PUSH2 0x1CB PUSH1 0x40 DUP6 ADD PUSH2 0x179 JUMP JUMPDEST SWAP1 POP SWAP3 POP SWAP3 POP SWAP3 JUMP JUMPDEST PUSH4 0x4E487B71 PUSH1 0xE0 SHL PUSH0 MSTORE PUSH1 0x41 PUSH1 0x4 MSTORE PUSH1 0x24 PUSH0 REVERT JUMPDEST PUSH1 0x1 DUP2 DUP2 SHR SWAP1 DUP3 AND DUP1 PUSH2 0x1FC JUMPI PUSH1 0x7F DUP3 AND SWAP2 POP JUMPDEST PUSH1 0x20 DUP3 LT DUP2 SUB PUSH2 0x21A JUMPI PUSH4 0x4E487B71 PUSH1 0xE0 SHL PUSH0 MSTORE PUSH1 0x22 PUSH1 0x4 MSTORE PUSH1 0x24 PUSH0 REVERT JUMPDEST POP SWAP2 SWAP1 POP JUMP JUMPDEST PUSH1 0x1F DUP3 GT ISZERO PUSH2 0x267 JUMPI DUP1 PUSH0 MSTORE PUSH1 0x20 PUSH0 KECCAK256 PUSH1 0x1F DUP5 ADD PUSH1 0x5 SHR DUP2 ADD PUSH1 0x20 DUP6 LT ISZERO PUSH2 0x245 JUMPI POP DUP1 JUMPDEST PUSH1 0x1F DUP5 ADD PUSH1 0x5 SHR DUP3 ADD SWAP2 POP JUMPDEST DUP2 DUP2 LT ISZERO PUSH2 0x264 JUMPI PUSH0 DUP2 SSTORE PUSH1 0x1 ADD PUSH2 0x251 JUMP JUMPDEST POP POP JUMPDEST POP POP POP JUMP JUMPDEST DUP2 MLOAD PUSH1 0x1 PUSH1 0x1 PUSH1 0x40 SHL SUB DUP2 GT ISZERO PUSH2 0x285 JUMPI PUSH2 0x285 PUSH2 0x1D4 JUMP JUMPDEST PUSH2 0x299 DUP2 PUSH2 0x293 DUP5 SLOAD PUSH2 0x1E8 JUMP JUMPDEST DUP5 PUSH2 0x220 JUMP JUMPDEST PUSH1 0x20 PUSH1 0x1F DUP3 GT PUSH1 0x1 DUP2 EQ PUSH2 0x2CB JUMPI PUSH0 DUP4 ISZERO PUSH2 0x2B4 JUMPI POP DUP5 DUP3 ADD MLOAD JUMPDEST PUSH0 NOT PUSH1 0x3 DUP6 SWAP1 SHL SHR NOT AND PUSH1 0x1 DUP5 SWAP1 SHL OR DUP5 SSTORE PUSH2 0x264 JUMP JUMPDEST PUSH0 DUP5 DUP2 MSTORE PUSH1 0x20 DUP2 KECCAK256 PUSH1 0x1F NOT DUP6 AND SWAP2 JUMPDEST DUP3 DUP2 LT ISZERO PUSH2 0x2FA JUMPI DUP8 DUP6 ADD MLOAD DUP3 SSTORE PUSH1 0x20 SWAP5 DUP6 ADD SWAP5 PUSH1 0x1 SWAP1 SWAP3 ADD SWAP2 ADD PUSH2 0x2DA JUMP JUMPDEST POP DUP5 DUP3 LT ISZERO PUSH2 0x317 JUMPI DUP7 DUP5 ADD MLOAD PUSH0 NOT PUSH1 0x3 DUP8 SWAP1 SHL PUSH1 0xF8 AND SHR NOT AND DUP2 SSTORE JUMPDEST POP POP POP POP PUSH1 0x1 SWAP1 DUP2 SHL ADD SWAP1 SSTORE POP JUMP JUMPDEST PUSH2 0x647A DUP1 PUSH2 0x333 PUSH0 CODECOPY PUSH0 RETURN INVALID PUSH1 0x80 PUSH1 0x40 MSTORE PUSH1 0x4 CALLDATASIZE LT PUSH2 0x28B JUMPI PUSH0 CALLDATALOAD PUSH1 0xE0 SHR DUP1 PUSH4 0x60D27451 GT PUSH2 0x155 JUMPI DUP1 PUSH4 0x9B19251A GT PUSH2 0xBE JUMPI DUP1 PUSH4 0xD0E30DB0 GT PUSH2 0x78 JUMPI DUP1 PUSH4 0xD0E30DB0 EQ PUSH2 0x7C8 JUMPI DUP1 PUSH4 0xDD62ED3E EQ PUSH2 0x7D0 JUMPI DUP1 PUSH4 0xE7AE65AB EQ PUSH2 0x814 JUMPI DUP1 PUSH4 0xF2FDE38B EQ PUSH2 0x833 JUMPI DUP1 PUSH4 0xF7E625A3 EQ PUSH2 0x852 JUMPI DUP1 PUSH4 0xFA3B5649 EQ PUSH2 0x867 JUMPI PUSH0 DUP1 REVERT JUMPDEST DUP1 PUSH4 0x9B19251A EQ PUSH2 0x6FD JUMPI DUP1 PUSH4 0xA38E9E66 EQ PUSH2 0x72B JUMPI DUP1 PUSH4 0xA738C7DF EQ PUSH2 0x74A JUMPI DUP1 PUSH4 0xA9059CBB EQ PUSH2 0x769 JUMPI DUP1 PUSH4 0xC38CD0B5 EQ PUSH2 0x788 JUMPI DUP1 PUSH4 0xD03153AA EQ PUSH2 0x7B3 JUMPI PUSH0 DUP1 REVERT JUMPDEST DUP1 PUSH4 0x86BC55DB GT PUSH2 0x10F JUMPI DUP1 PUSH4 0x86BC55DB EQ PUSH2 0x662 JUMPI DUP1 PUSH4 0x86C14663 EQ PUSH2 0x677 JUMPI DUP1 PUSH4 0x8BC7E8C4 EQ PUSH2 0x68C JUMPI DUP1 PUSH4 0x8DA5CB5B EQ PUSH2 0x6A1 JUMPI DUP1 PUSH4 0x91EBE50F EQ PUSH2 0x6BD JUMPI DUP1 PUSH4 0x95D89B41 EQ PUSH2 0x6E9 JUMPI PUSH0 DUP1 REVERT JUMPDEST DUP1 PUSH4 0x60D27451 EQ PUSH2 0x5B3 JUMPI DUP1 PUSH4 0x67A52793 EQ PUSH2 0x5D2 JUMPI DUP1 PUSH4 0x70A08231 EQ PUSH2 0x5E7 JUMPI DUP1 PUSH4 0x715018A6 EQ PUSH2 0x61B JUMPI DUP1 PUSH4 0x780D5710 EQ PUSH2 0x62F JUMPI DUP1 PUSH4 0x8456CB59 EQ PUSH2 0x64E JUMPI PUSH0 DUP1 REVERT JUMPDEST DUP1 PUSH4 0x2E1A7D4D GT PUSH2 0x1F7 JUMPI DUP1 PUSH4 0x3D7526F7 GT PUSH2 0x1B1 JUMPI DUP1 PUSH4 0x3D7526F7 EQ PUSH2 0x506 JUMPI DUP1 PUSH4 0x3F4BA83A EQ PUSH2 0x525 JUMPI DUP1 PUSH4 0x4D20D0F8 EQ PUSH2 0x539 JUMPI DUP1 PUSH4 0x53D6FD59 EQ PUSH2 0x558 JUMPI DUP1 PUSH4 0x5643A5A7 EQ PUSH2 0x577 JUMPI DUP1 PUSH4 0x5C975ABB EQ PUSH2 0x596 JUMPI PUSH0 DUP1 REVERT JUMPDEST DUP1 PUSH4 0x2E1A7D4D EQ PUSH2 0x42F JUMPI DUP1 PUSH4 0x2E63A156 EQ PUSH2 0x44E JUMPI DUP1 PUSH4 0x313CE567 EQ PUSH2 0x47D JUMPI DUP1 PUSH4 0x36A43F2B EQ PUSH2 0x498 JUMPI DUP1 PUSH4 0x378A653C EQ PUSH2 0x4C3 JUMPI DUP1 PUSH4 0x39C0F5D2 EQ PUSH2 0x4F3 JUMPI PUSH0 DUP1 REVERT JUMPDEST DUP1 PUSH4 0x18160DDD GT PUSH2 0x248 JUMPI DUP1 PUSH4 0x18160DDD EQ PUSH2 0x37E JUMPI DUP1 PUSH4 0x23B872DD EQ PUSH2 0x39C JUMPI DUP1 PUSH4 0x246F972F EQ PUSH2 0x3BB JUMPI DUP1 PUSH4 0x2A5C792A EQ PUSH2 0x3D0 JUMPI DUP1 PUSH4 0x2C76D7A6 EQ PUSH2 0x3F1 JUMPI DUP1 PUSH4 0x2C9351A1 EQ PUSH2 0x410 JUMPI PUSH0 DUP1 REVERT JUMPDEST DUP1 PUSH4 0x6FDDE03 EQ PUSH2 0x28F JUMPI DUP1 PUSH4 0x95EA7B3 EQ PUSH2 0x2B9 JUMPI DUP1 PUSH4 0xB78F9C0 EQ PUSH2 0x2E8 JUMPI DUP1 PUSH4 0x11667AA5 EQ PUSH2 0x309 JUMPI DUP1 PUSH4 0x117DA1EE EQ PUSH2 0x328 JUMPI DUP1 PUSH4 0x1694505E EQ PUSH2 0x347 JUMPI JUMPDEST PUSH0 DUP1 REVERT JUMPDEST CALLVALUE DUP1 ISZERO PUSH2 0x29A JUMPI PUSH0 DUP1 REVERT JUMPDEST POP PUSH2 0x2A3 PUSH2 0x87B JUMP JUMPDEST PUSH1 0x40 MLOAD PUSH2 0x2B0 SWAP2 SWAP1 PUSH2 0x56FA JUMP JUMPDEST PUSH1 0x40 MLOAD DUP1 SWAP2 SUB SWAP1 RETURN JUMPDEST CALLVALUE DUP1 ISZERO PUSH2 0x2C4 JUMPI PUSH0 DUP1 REVERT JUMPDEST POP PUSH2 0x2D8 PUSH2 0x2D3 CALLDATASIZE PUSH1 0x4 PUSH2 0x5720 JUMP JUMPDEST PUSH2 0x90B JUMP JUMPDEST PUSH1 0x40 MLOAD SWAP1 ISZERO ISZERO DUP2 MSTORE PUSH1 0x20 ADD PUSH2 0x2B0 JUMP JUMPDEST CALLVALUE DUP1 ISZERO PUSH2 0x2F3 JUMPI PUSH0 DUP1 REVERT JUMPDEST POP PUSH2 0x307 PUSH2 0x302 CALLDATASIZE PUSH1 0x4 PUSH2 0x574A JUMP JUMPDEST PUSH2 0x924 JUMP JUMPDEST STOP JUMPDEST CALLVALUE DUP1 ISZERO PUSH2 0x314 JUMPI PUSH0 DUP1 REVERT JUMPDEST POP PUSH2 0x2D8 PUSH2 0x323 CALLDATASIZE PUSH1 0x4 PUSH2 0x57D0 JUMP JUMPDEST PUSH2 0x9B0 JUMP JUMPDEST CALLVALUE DUP1 ISZERO PUSH2 0x333 JUMPI PUSH0 DUP1 REVERT JUMPDEST POP PUSH2 0x307 PUSH2 0x342 CALLDATASIZE PUSH1 0x4 PUSH2 0x5865 JUMP JUMPDEST PUSH2 0xB85 JUMP JUMPDEST CALLVALUE DUP1 ISZERO PUSH2 0x352 JUMPI PUSH0 DUP1 REVERT JUMPDEST POP PUSH1 0x7 SLOAD PUSH2 0x366 SWAP1 PUSH1 0x1 PUSH1 0x1 PUSH1 0xA0 SHL SUB AND DUP2 JUMP JUMPDEST PUSH1 0x40 MLOAD PUSH1 0x1 PUSH1 0x1 PUSH1 0xA0 SHL SUB SWAP1 SWAP2 AND DUP2 MSTORE PUSH1 0x20 ADD PUSH2 0x2B0 JUMP JUMPDEST CALLVALUE DUP1 ISZERO PUSH2 0x389 JUMPI PUSH0 DUP1 REVERT JUMPDEST POP PUSH1 0x3 SLOAD JUMPDEST PUSH1 0x40 MLOAD SWAP1 DUP2 MSTORE PUSH1 0x20 ADD PUSH2 0x2B0 JUMP JUMPDEST CALLVALUE DUP1 ISZERO PUSH2 0x3A7 JUMPI PUSH0 DUP1 REVERT JUMPDEST POP PUSH2 0x2D8 PUSH2 0x3B6 CALLDATASIZE PUSH1 0x4 PUSH2 0x587C JUMP JUMPDEST PUSH2 0xC03 JUMP JUMPDEST CALLVALUE DUP1 ISZERO PUSH2 0x3C6 JUMPI PUSH0 DUP1 REVERT JUMPDEST POP PUSH2 0x38E PUSH1 0x12 SLOAD DUP2 JUMP JUMPDEST CALLVALUE DUP1 ISZERO PUSH2 0x3DB JUMPI PUSH0 DUP1 REVERT JUMPDEST POP PUSH2 0x3E4 PUSH2 0xC26 JUMP JUMPDEST PUSH1 0x40 MLOAD PUSH2 0x2B0 SWAP2 SWAP1 PUSH2 0x58BA JUMP JUMPDEST CALLVALUE DUP1 ISZERO PUSH2 0x3FC JUMPI PUSH0 DUP1 REVERT JUMPDEST POP PUSH1 0x8 SLOAD PUSH2 0x366 SWAP1 PUSH1 0x1 PUSH1 0x1 PUSH1 0xA0 SHL SUB AND DUP2 JUMP JUMPDEST CALLVALUE DUP1 ISZERO PUSH2 0x41B JUMPI PUSH0 DUP1 REVERT JUMPDEST POP PUSH2 0x307 PUSH2 0x42A CALLDATASIZE PUSH1 0x4 PUSH2 0x5865 JUMP JUMPDEST PUSH2 0xD45 JUMP JUMPDEST CALLVALUE DUP1 ISZERO PUSH2 0x43A JUMPI PUSH0 DUP1 REVERT JUMPDEST POP PUSH2 0x307 PUSH2 0x449 CALLDATASIZE PUSH1 0x4 PUSH2 0x5865 JUMP JUMPDEST PUSH2 0x1297 JUMP JUMPDEST CALLVALUE DUP1 ISZERO PUSH2 0x459 JUMPI PUSH0 DUP1 REVERT JUMPDEST POP PUSH2 0x46D PUSH2 0x468 CALLDATASIZE PUSH1 0x4 PUSH2 0x5865 JUMP JUMPDEST PUSH2 0x1A50 JUMP JUMPDEST PUSH1 0x40 MLOAD PUSH2 0x2B0 SWAP5 SWAP4 SWAP3 SWAP2 SWAP1 PUSH2 0x5956 JUMP JUMPDEST CALLVALUE DUP1 ISZERO PUSH2 0x488 JUMPI PUSH0 DUP1 REVERT JUMPDEST POP PUSH1 0x40 MLOAD PUSH1 0x12 DUP2 MSTORE PUSH1 0x20 ADD PUSH2 0x2B0 JUMP JUMPDEST CALLVALUE DUP1 ISZERO PUSH2 0x4A3 JUMPI PUSH0 DUP1 REVERT JUMPDEST POP PUSH2 0x38E PUSH2 0x4B2 CALLDATASIZE PUSH1 0x4 PUSH2 0x5992 JUMP JUMPDEST PUSH1 0xC PUSH1 0x20 MSTORE PUSH0 SWAP1 DUP2 MSTORE PUSH1 0x40 SWAP1 KECCAK256 SLOAD DUP2 JUMP JUMPDEST CALLVALUE DUP1 ISZERO PUSH2 0x4CE JUMPI PUSH0 DUP1 REVERT JUMPDEST POP PUSH2 0x4E2 PUSH2 0x4DD CALLDATASIZE PUSH1 0x4 PUSH2 0x5865 JUMP JUMPDEST PUSH2 0x1B20 JUMP JUMPDEST PUSH1 0x40 MLOAD PUSH2 0x2B0 SWAP6 SWAP5 SWAP4 SWAP3 SWAP2 SWAP1 PUSH2 0x59AD JUMP JUMPDEST PUSH2 0x307 PUSH2 0x501 CALLDATASIZE PUSH1 0x4 PUSH2 0x5A78 JUMP JUMPDEST PUSH2 0x1BFB JUMP JUMPDEST CALLVALUE DUP1 ISZERO PUSH2 0x511 JUMPI PUSH0 DUP1 REVERT JUMPDEST POP PUSH2 0x307 PUSH2 0x520 CALLDATASIZE PUSH1 0x4 PUSH2 0x5992 JUMP JUMPDEST PUSH2 0x1FC5 JUMP JUMPDEST CALLVALUE DUP1 ISZERO PUSH2 0x530 JUMPI PUSH0 DUP1 REVERT JUMPDEST POP PUSH2 0x307 PUSH2 0x2374 JUMP JUMPDEST CALLVALUE DUP1 ISZERO PUSH2 0x544 JUMPI PUSH0 DUP1 REVERT JUMPDEST POP PUSH1 0x9 SLOAD PUSH2 0x366 SWAP1 PUSH1 0x1 PUSH1 0x1 PUSH1 0xA0 SHL SUB AND DUP2 JUMP JUMPDEST CALLVALUE DUP1 ISZERO PUSH2 0x563 JUMPI PUSH0 DUP1 REVERT JUMPDEST POP PUSH2 0x307 PUSH2 0x572 CALLDATASIZE PUSH1 0x4 PUSH2 0x5AEA JUMP JUMPDEST PUSH2 0x23BA JUMP JUMPDEST CALLVALUE DUP1 ISZERO PUSH2 0x582 JUMPI PUSH0 DUP1 REVERT JUMPDEST POP PUSH2 0x38E PUSH2 0x591 CALLDATASIZE PUSH1 0x4 PUSH2 0x57D0 JUMP JUMPDEST PUSH2 0x2420 JUMP JUMPDEST CALLVALUE DUP1 ISZERO PUSH2 0x5A1 JUMPI PUSH0 DUP1 REVERT JUMPDEST POP PUSH0 SLOAD PUSH1 0x1 PUSH1 0xA0 SHL SWAP1 DIV PUSH1 0xFF AND PUSH2 0x2D8 JUMP JUMPDEST CALLVALUE DUP1 ISZERO PUSH2 0x5BE JUMPI PUSH0 DUP1 REVERT JUMPDEST POP PUSH2 0x307 PUSH2 0x5CD CALLDATASIZE PUSH1 0x4 PUSH2 0x5B68 JUMP JUMPDEST PUSH2 0x254C JUMP JUMPDEST CALLVALUE DUP1 ISZERO PUSH2 0x5DD JUMPI PUSH0 DUP1 REVERT JUMPDEST POP PUSH2 0x38E PUSH1 0xE SLOAD DUP2 JUMP JUMPDEST CALLVALUE DUP1 ISZERO PUSH2 0x5F2 JUMPI PUSH0 DUP1 REVERT JUMPDEST POP PUSH2 0x38E PUSH2 0x601 CALLDATASIZE PUSH1 0x4 PUSH2 0x5992 JUMP JUMPDEST PUSH1 0x1 PUSH1 0x1 PUSH1 0xA0 SHL SUB AND PUSH0 SWAP1 DUP2 MSTORE PUSH1 0x1 PUSH1 0x20 MSTORE PUSH1 0x40 SWAP1 KECCAK256 SLOAD SWAP1 JUMP JUMPDEST CALLVALUE DUP1 ISZERO PUSH2 0x626 JUMPI PUSH0 DUP1 REVERT JUMPDEST POP PUSH2 0x307 PUSH2 0x2784 JUMP JUMPDEST CALLVALUE DUP1 ISZERO PUSH2 0x63A JUMPI PUSH0 DUP1 REVERT JUMPDEST POP PUSH2 0x307 PUSH2 0x649 CALLDATASIZE PUSH1 0x4 PUSH2 0x57D0 JUMP JUMPDEST PUSH2 0x2797 JUMP JUMPDEST CALLVALUE DUP1 ISZERO PUSH2 0x659 JUMPI PUSH0 DUP1 REVERT JUMPDEST POP PUSH2 0x307 PUSH2 0x2BB2 JUMP JUMPDEST CALLVALUE DUP1 ISZERO PUSH2 0x66D JUMPI PUSH0 DUP1 REVERT JUMPDEST POP PUSH2 0x38E PUSH1 0x13 SLOAD DUP2 JUMP JUMPDEST CALLVALUE DUP1 ISZERO PUSH2 0x682 JUMPI PUSH0 DUP1 REVERT JUMPDEST POP PUSH2 0x38E PUSH1 0x14 SLOAD DUP2 JUMP JUMPDEST CALLVALUE DUP1 ISZERO PUSH2 0x697 JUMPI PUSH0 DUP1 REVERT JUMPDEST POP PUSH2 0x38E PUSH1 0xF SLOAD DUP2 JUMP JUMPDEST CALLVALUE DUP1 ISZERO PUSH2 0x6AC JUMPI PUSH0 DUP1 REVERT JUMPDEST POP PUSH0 SLOAD PUSH1 0x1 PUSH1 0x1 PUSH1 0xA0 SHL SUB AND PUSH2 0x366 JUMP JUMPDEST CALLVALUE DUP1 ISZERO PUSH2 0x6C8 JUMPI PUSH0 DUP1 REVERT JUMPDEST POP PUSH2 0x6DC PUSH2 0x6D7 CALLDATASIZE PUSH1 0x4 PUSH2 0x5992 JUMP JUMPDEST PUSH2 0x2BF2 JUMP JUMPDEST PUSH1 0x40 MLOAD PUSH2 0x2B0 SWAP2 SWAP1 PUSH2 0x5C32 JUMP JUMPDEST CALLVALUE DUP1 ISZERO PUSH2 0x6F4 JUMPI PUSH0 DUP1 REVERT JUMPDEST POP PUSH2 0x2A3 PUSH2 0x2E02 JUMP JUMPDEST CALLVALUE DUP1 ISZERO PUSH2 0x708 JUMPI PUSH0 DUP1 REVERT JUMPDEST POP PUSH2 0x2D8 PUSH2 0x717 CALLDATASIZE PUSH1 0x4 PUSH2 0x5992 JUMP JUMPDEST PUSH1 0xA PUSH1 0x20 MSTORE PUSH0 SWAP1 DUP2 MSTORE PUSH1 0x40 SWAP1 KECCAK256 SLOAD PUSH1 0xFF AND DUP2 JUMP JUMPDEST CALLVALUE DUP1 ISZERO PUSH2 0x736 JUMPI PUSH0 DUP1 REVERT JUMPDEST POP PUSH2 0x307 PUSH2 0x745 CALLDATASIZE PUSH1 0x4 PUSH2 0x5A78 JUMP JUMPDEST PUSH2 0x2E11 JUMP JUMPDEST CALLVALUE DUP1 ISZERO PUSH2 0x755 JUMPI PUSH0 DUP1 REVERT JUMPDEST POP PUSH2 0x307 PUSH2 0x764 CALLDATASIZE PUSH1 0x4 PUSH2 0x5992 JUMP JUMPDEST PUSH2 0x2F82 JUMP JUMPDEST CALLVALUE DUP1 ISZERO PUSH2 0x774 JUMPI PUSH0 DUP1 REVERT JUMPDEST POP PUSH2 0x2D8 PUSH2 0x783 CALLDATASIZE PUSH1 0x4 PUSH2 0x5720 JUMP JUMPDEST PUSH2 0x3113 JUMP JUMPDEST CALLVALUE DUP1 ISZERO PUSH2 0x793 JUMPI PUSH0 DUP1 REVERT JUMPDEST POP PUSH2 0x38E PUSH2 0x7A2 CALLDATASIZE PUSH1 0x4 PUSH2 0x5992 JUMP JUMPDEST PUSH1 0xD PUSH1 0x20 MSTORE PUSH0 SWAP1 DUP2 MSTORE PUSH1 0x40 SWAP1 KECCAK256 SLOAD DUP2 JUMP JUMPDEST CALLVALUE DUP1 ISZERO PUSH2 0x7BE JUMPI PUSH0 DUP1 REVERT JUMPDEST POP PUSH2 0x38E PUSH1 0x10 SLOAD DUP2 JUMP JUMPDEST PUSH2 0x307 PUSH2 0x3120 JUMP JUMPDEST CALLVALUE DUP1 ISZERO PUSH2 0x7DB JUMPI PUSH0 DUP1 REVERT JUMPDEST POP PUSH2 0x38E PUSH2 0x7EA CALLDATASIZE PUSH1 0x4 PUSH2 0x5CD4 JUMP JUMPDEST PUSH1 0x1 PUSH1 0x1 PUSH1 0xA0 SHL SUB SWAP2 DUP3 AND PUSH0 SWAP1 DUP2 MSTORE PUSH1 0x2 PUSH1 0x20 SWAP1 DUP2 MSTORE PUSH1 0x40 DUP1 DUP4 KECCAK256 SWAP4 SWAP1 SWAP5 AND DUP3 MSTORE SWAP2 SWAP1 SWAP2 MSTORE KECCAK256 SLOAD SWAP1 JUMP JUMPDEST CALLVALUE DUP1 ISZERO PUSH2 0x81F JUMPI PUSH0 DUP1 REVERT JUMPDEST POP PUSH2 0x38E PUSH2 0x82E CALLDATASIZE PUSH1 0x4 PUSH2 0x5A78 JUMP JUMPDEST PUSH2 0x35A7 JUMP JUMPDEST CALLVALUE DUP1 ISZERO PUSH2 0x83E JUMPI PUSH0 DUP1 REVERT JUMPDEST POP PUSH2 0x307 PUSH2 0x84D CALLDATASIZE PUSH1 0x4 PUSH2 0x5992 JUMP JUMPDEST PUSH2 0x393B JUMP JUMPDEST CALLVALUE DUP1 ISZERO PUSH2 0x85D JUMPI PUSH0 DUP1 REVERT JUMPDEST POP PUSH2 0x38E PUSH1 0x11 SLOAD DUP2 JUMP JUMPDEST CALLVALUE DUP1 ISZERO PUSH2 0x872 JUMPI PUSH0 DUP1 REVERT JUMPDEST POP PUSH2 0x307 PUSH2 0x3975 JUMP JUMPDEST PUSH1 0x60 PUSH1 0x4 DUP1 SLOAD PUSH2 0x88A SWAP1 PUSH2 0x5D00 JUMP JUMPDEST DUP1 PUSH1 0x1F ADD PUSH1 0x20 DUP1 SWAP2 DIV MUL PUSH1 0x20 ADD PUSH1 0x40 MLOAD SWAP1 DUP2 ADD PUSH1 0x40 MSTORE DUP1 SWAP3 SWAP2 SWAP1 DUP2 DUP2 MSTORE PUSH1 0x20 ADD DUP3 DUP1 SLOAD PUSH2 0x8B6 SWAP1 PUSH2 0x5D00 JUMP JUMPDEST DUP1 ISZERO PUSH2 0x901 JUMPI DUP1 PUSH1 0x1F LT PUSH2 0x8D8 JUMPI PUSH2 0x100 DUP1 DUP4 SLOAD DIV MUL DUP4 MSTORE SWAP2 PUSH1 0x20 ADD SWAP2 PUSH2 0x901 JUMP JUMPDEST DUP3 ADD SWAP2 SWAP1 PUSH0 MSTORE PUSH1 0x20 PUSH0 KECCAK256 SWAP1 JUMPDEST DUP2 SLOAD DUP2 MSTORE SWAP1 PUSH1 0x1 ADD SWAP1 PUSH1 0x20 ADD DUP1 DUP4 GT PUSH2 0x8E4 JUMPI DUP3 SWAP1 SUB PUSH1 0x1F AND DUP3 ADD SWAP2 JUMPDEST POP POP POP POP POP SWAP1 POP SWAP1 JUMP JUMPDEST PUSH0 CALLER PUSH2 0x918 DUP2 DUP6 DUP6 PUSH2 0x3EB0 JUMP JUMPDEST PUSH1 0x1 SWAP2 POP POP JUMPDEST SWAP3 SWAP2 POP POP JUMP JUMPDEST PUSH2 0x92C PUSH2 0x3EBD JUMP JUMPDEST PUSH2 0x2710 DUP3 GT ISZERO PUSH2 0x96B JUMPI PUSH1 0x40 MLOAD PUSH3 0x461BCD PUSH1 0xE5 SHL DUP2 MSTORE PUSH1 0x20 PUSH1 0x4 DUP3 ADD MSTORE PUSH1 0x5 PUSH1 0x24 DUP3 ADD MSTORE PUSH5 0x2164666565 PUSH1 0xD8 SHL PUSH1 0x44 DUP3 ADD MSTORE PUSH1 0x64 ADD JUMPDEST PUSH1 0x40 MLOAD DUP1 SWAP2 SUB SWAP1 REVERT JUMPDEST PUSH2 0x2710 DUP2 GT ISZERO PUSH2 0x9A5 JUMPI PUSH1 0x40 MLOAD PUSH3 0x461BCD PUSH1 0xE5 SHL DUP2 MSTORE PUSH1 0x20 PUSH1 0x4 DUP3 ADD MSTORE PUSH1 0x5 PUSH1 0x24 DUP3 ADD MSTORE PUSH5 0x2177666565 PUSH1 0xD8 SHL PUSH1 0x44 DUP3 ADD MSTORE PUSH1 0x64 ADD PUSH2 0x962 JUMP JUMPDEST PUSH1 0xE SWAP2 SWAP1 SWAP2 SSTORE PUSH1 0xF SSTORE JUMP JUMPDEST PUSH1 0x6 SLOAD DUP2 MLOAD PUSH0 SWAP2 EQ PUSH2 0x9EA JUMPI PUSH1 0x40 MLOAD PUSH3 0x461BCD PUSH1 0xE5 SHL DUP2 MSTORE PUSH1 0x20 PUSH1 0x4 DUP3 ADD MSTORE PUSH1 0x3 PUSH1 0x24 DUP3 ADD MSTORE PUSH3 0x85413 PUSH1 0xEA SHL PUSH1 0x44 DUP3 ADD MSTORE PUSH1 0x64 ADD PUSH2 0x962 JUMP JUMPDEST PUSH0 PUSH2 0x9F4 DUP4 PUSH2 0x2420 JUMP JUMPDEST SWAP1 POP PUSH0 DUP2 GT PUSH2 0xA2E JUMPI PUSH1 0x40 MLOAD PUSH3 0x461BCD PUSH1 0xE5 SHL DUP2 MSTORE PUSH1 0x4 ADD PUSH2 0x962 SWAP1 PUSH1 0x20 DUP1 DUP3 MSTORE PUSH1 0x4 SWAP1 DUP3 ADD MSTORE PUSH4 0x54563E3 PUSH1 0xE4 SHL PUSH1 0x40 DUP3 ADD MSTORE PUSH1 0x60 ADD SWAP1 JUMP JUMPDEST PUSH0 JUMPDEST PUSH1 0x6 SLOAD DUP2 LT ISZERO PUSH2 0xB7C JUMPI PUSH0 PUSH1 0x6 DUP3 DUP2 SLOAD DUP2 LT PUSH2 0xA4E JUMPI PUSH2 0xA4E PUSH2 0x5D38 JUMP JUMPDEST SWAP1 PUSH0 MSTORE PUSH1 0x20 PUSH0 KECCAK256 SWAP1 PUSH1 0x4 MUL ADD SWAP1 POP PUSH0 PUSH2 0xAEB DUP7 DUP5 DUP2 MLOAD DUP2 LT PUSH2 0xA72 JUMPI PUSH2 0xA72 PUSH2 0x5D38 JUMP JUMPDEST PUSH1 0x20 SWAP1 DUP2 MUL SWAP2 SWAP1 SWAP2 ADD ADD MLOAD DUP4 SLOAD PUSH1 0x40 MLOAD PUSH4 0x70A08231 PUSH1 0xE0 SHL DUP2 MSTORE ADDRESS PUSH1 0x4 DUP3 ADD MSTORE PUSH1 0x1 PUSH1 0x1 PUSH1 0xA0 SHL SUB SWAP1 SWAP2 AND SWAP1 PUSH4 0x70A08231 SWAP1 PUSH1 0x24 ADD PUSH1 0x20 PUSH1 0x40 MLOAD DUP1 DUP4 SUB DUP2 DUP7 GAS STATICCALL ISZERO DUP1 ISZERO PUSH2 0xAC2 JUMPI RETURNDATASIZE PUSH0 DUP1 RETURNDATACOPY RETURNDATASIZE PUSH0 REVERT JUMPDEST POP POP POP POP PUSH1 0x40 MLOAD RETURNDATASIZE PUSH1 0x1F NOT PUSH1 0x1F DUP3 ADD AND DUP3 ADD DUP1 PUSH1 0x40 MSTORE POP DUP2 ADD SWAP1 PUSH2 0xAE6 SWAP2 SWAP1 PUSH2 0x5D4C JUMP JUMPDEST PUSH2 0x3EE9 JUMP JUMPDEST SWAP1 POP PUSH0 DUP2 GT PUSH2 0xB25 JUMPI PUSH1 0x40 MLOAD PUSH3 0x461BCD PUSH1 0xE5 SHL DUP2 MSTORE PUSH1 0x4 ADD PUSH2 0x962 SWAP1 PUSH1 0x20 DUP1 DUP3 MSTORE PUSH1 0x4 SWAP1 DUP3 ADD MSTORE PUSH4 0x43503E3 PUSH1 0xE4 SHL PUSH1 0x40 DUP3 ADD MSTORE PUSH1 0x60 ADD SWAP1 JUMP JUMPDEST PUSH0 DUP5 PUSH2 0xB33 DUP4 PUSH2 0x2710 PUSH2 0x5D77 JUMP JUMPDEST PUSH2 0xB3D SWAP2 SWAP1 PUSH2 0x5D8E JUMP JUMPDEST SWAP1 POP DUP3 PUSH1 0x1 ADD SLOAD DUP2 GT ISZERO PUSH2 0xB58 JUMPI POP PUSH1 0x1 SWAP7 SWAP6 POP POP POP POP POP POP JUMP JUMPDEST DUP3 PUSH1 0x1 ADD SLOAD DUP2 LT ISZERO PUSH2 0xB71 JUMPI POP PUSH1 0x1 SWAP7 SWAP6 POP POP POP POP POP POP JUMP JUMPDEST POP POP POP PUSH1 0x1 ADD PUSH2 0xA30 JUMP JUMPDEST POP PUSH0 SWAP4 SWAP3 POP POP POP JUMP JUMPDEST PUSH2 0xB8D PUSH2 0x3EBD JUMP JUMPDEST PUSH2 0x2710 DUP2 GT ISZERO PUSH2 0xBC8 JUMPI PUSH1 0x40 MLOAD PUSH3 0x461BCD PUSH1 0xE5 SHL DUP2 MSTORE PUSH1 0x4 ADD PUSH2 0x962 SWAP1 PUSH1 0x20 DUP1 DUP3 MSTORE PUSH1 0x4 SWAP1 DUP3 ADD MSTORE PUSH4 0x21534C5 PUSH1 0xE4 SHL PUSH1 0x40 DUP3 ADD MSTORE PUSH1 0x60 ADD SWAP1 JUMP JUMPDEST PUSH1 0x10 DUP2 SWAP1 SSTORE PUSH1 0x40 MLOAD DUP2 DUP2 MSTORE PUSH32 0xB11632D794D380EF605D18684DAF3AD39BDF07733E9DB37DF5F9F643877265DA SWAP1 PUSH1 0x20 ADD PUSH1 0x40 MLOAD DUP1 SWAP2 SUB SWAP1 LOG1 POP JUMP JUMPDEST PUSH0 CALLER PUSH2 0xC10 DUP6 DUP3 DUP6 PUSH2 0x3EFB JUMP JUMPDEST PUSH2 0xC1B DUP6 DUP6 DUP6 PUSH2 0x3F70 JUMP JUMPDEST POP PUSH1 0x1 SWAP5 SWAP4 POP POP POP POP JUMP JUMPDEST PUSH1 0x60 PUSH1 0x6 DUP1 SLOAD DUP1 PUSH1 0x20 MUL PUSH1 0x20 ADD PUSH1 0x40 MLOAD SWAP1 DUP2 ADD PUSH1 0x40 MSTORE DUP1 SWAP3 SWAP2 SWAP1 DUP2 DUP2 MSTORE PUSH1 0x20 ADD PUSH0 SWAP1 JUMPDEST DUP3 DUP3 LT ISZERO PUSH2 0xD3C JUMPI PUSH0 DUP5 DUP2 MSTORE PUSH1 0x20 SWAP1 DUP2 SWAP1 KECCAK256 PUSH1 0x40 DUP1 MLOAD PUSH1 0x80 DUP2 ADD DUP3 MSTORE PUSH1 0x4 DUP7 MUL SWAP1 SWAP3 ADD DUP1 SLOAD PUSH1 0x1 PUSH1 0x1 PUSH1 0xA0 SHL SUB AND DUP4 MSTORE PUSH1 0x1 DUP2 ADD SLOAD SWAP4 DUP4 ADD SWAP4 SWAP1 SWAP4 MSTORE PUSH1 0x2 DUP4 ADD DUP1 SLOAD SWAP3 SWAP4 SWAP3 SWAP2 DUP5 ADD SWAP2 PUSH2 0xC9B SWAP1 PUSH2 0x5D00 JUMP JUMPDEST DUP1 PUSH1 0x1F ADD PUSH1 0x20 DUP1 SWAP2 DIV MUL PUSH1 0x20 ADD PUSH1 0x40 MLOAD SWAP1 DUP2 ADD PUSH1 0x40 MSTORE DUP1 SWAP3 SWAP2 SWAP1 DUP2 DUP2 MSTORE PUSH1 0x20 ADD DUP3 DUP1 SLOAD PUSH2 0xCC7 SWAP1 PUSH2 0x5D00 JUMP JUMPDEST DUP1 ISZERO PUSH2 0xD12 JUMPI DUP1 PUSH1 0x1F LT PUSH2 0xCE9 JUMPI PUSH2 0x100 DUP1 DUP4 SLOAD DIV MUL DUP4 MSTORE SWAP2 PUSH1 0x20 ADD SWAP2 PUSH2 0xD12 JUMP JUMPDEST DUP3 ADD SWAP2 SWAP1 PUSH0 MSTORE PUSH1 0x20 PUSH0 KECCAK256 SWAP1 JUMPDEST DUP2 SLOAD DUP2 MSTORE SWAP1 PUSH1 0x1 ADD SWAP1 PUSH1 0x20 ADD DUP1 DUP4 GT PUSH2 0xCF5 JUMPI DUP3 SWAP1 SUB PUSH1 0x1F AND DUP3 ADD SWAP2 JUMPDEST POP POP POP SWAP2 DUP4 MSTORE POP POP PUSH1 0x3 SWAP2 SWAP1 SWAP2 ADD SLOAD PUSH3 0xFFFFFF AND PUSH1 0x20 SWAP2 DUP3 ADD MSTORE SWAP1 DUP3 MSTORE PUSH1 0x1 SWAP3 SWAP1 SWAP3 ADD SWAP2 ADD PUSH2 0xC49 JUMP JUMPDEST POP POP POP POP SWAP1 POP SWAP1 JUMP JUMPDEST PUSH2 0xD4D PUSH2 0x3FCD JUMP JUMPDEST PUSH0 DUP2 GT PUSH2 0xD6C JUMPI PUSH1 0x40 MLOAD PUSH3 0x461BCD PUSH1 0xE5 SHL DUP2 MSTORE PUSH1 0x4 ADD PUSH2 0x962 SWAP1 PUSH2 0x5DAD JUMP JUMPDEST PUSH1 0x40 MLOAD PUSH4 0x70A08231 PUSH1 0xE0 SHL DUP2 MSTORE CALLER PUSH1 0x4 DUP3 ADD MSTORE DUP2 SWAP1 ADDRESS SWAP1 PUSH4 0x70A08231 SWAP1 PUSH1 0x24 ADD PUSH1 0x20 PUSH1 0x40 MLOAD DUP1 DUP4 SUB DUP2 DUP7 GAS STATICCALL ISZERO DUP1 ISZERO PUSH2 0xDA7 JUMPI RETURNDATASIZE PUSH0 DUP1 RETURNDATACOPY RETURNDATASIZE PUSH0 REVERT JUMPDEST POP POP POP POP PUSH1 0x40 MLOAD RETURNDATASIZE PUSH1 0x1F NOT PUSH1 0x1F DUP3 ADD AND DUP3 ADD DUP1 PUSH1 0x40 MSTORE POP DUP2 ADD SWAP1 PUSH2 0xDCB SWAP2 SWAP1 PUSH2 0x5D4C JUMP JUMPDEST LT ISZERO PUSH2 0xE09 JUMPI PUSH1 0x40 MLOAD PUSH3 0x461BCD PUSH1 0xE5 SHL DUP2 MSTORE PUSH1 0x20 PUSH1 0x4 DUP3 ADD MSTORE PUSH1 0xD PUSH1 0x24 DUP3 ADD MSTORE PUSH13 0x8525B9CDD59999A58DA595B9D PUSH1 0x9A SHL PUSH1 0x44 DUP3 ADD MSTORE PUSH1 0x64 ADD PUSH2 0x962 JUMP JUMPDEST PUSH0 PUSH2 0xE13 PUSH1 0x3 SLOAD SWAP1 JUMP JUMPDEST PUSH2 0xE1F DUP4 PUSH2 0x2710 PUSH2 0x5D77 JUMP JUMPDEST PUSH2 0xE29 SWAP2 SWAP1 PUSH2 0x5D8E JUMP JUMPDEST SWAP1 POP PUSH0 DUP2 GT DUP1 ISZERO PUSH2 0xE3C JUMPI POP PUSH2 0x2710 DUP2 GT ISZERO JUMPDEST PUSH2 0xE72 JUMPI PUSH1 0x40 MLOAD PUSH3 0x461BCD PUSH1 0xE5 SHL DUP2 MSTORE PUSH1 0x20 PUSH1 0x4 DUP3 ADD MSTORE PUSH1 0x7 PUSH1 0x24 DUP3 ADD MSTORE PUSH7 0x3026313030303 PUSH1 0xCC SHL PUSH1 0x44 DUP3 ADD MSTORE PUSH1 0x64 ADD PUSH2 0x962 JUMP JUMPDEST PUSH1 0x7 SLOAD PUSH1 0x40 DUP1 MLOAD PUSH4 0x15AB88C9 PUSH1 0xE3 SHL DUP2 MSTORE SWAP1 MLOAD PUSH0 SWAP3 PUSH1 0x1 PUSH1 0x1 PUSH1 0xA0 SHL SUB AND SWAP2 PUSH4 0xAD5C4648 SWAP2 PUSH1 0x4 DUP1 DUP4 ADD SWAP3 PUSH1 0x20 SWAP3 SWAP2 SWAP1 DUP3 SWAP1 SUB ADD DUP2 DUP7 GAS STATICCALL ISZERO DUP1 ISZERO PUSH2 0xEB9 JUMPI RETURNDATASIZE PUSH0 DUP1 RETURNDATACOPY RETURNDATASIZE PUSH0 REVERT JUMPDEST POP POP POP POP PUSH1 0x40 MLOAD RETURNDATASIZE PUSH1 0x1F NOT PUSH1 0x1F DUP3 ADD AND DUP3 ADD DUP1 PUSH1 0x40 MSTORE POP DUP2 ADD SWAP1 PUSH2 0xEDD SWAP2 SWAP1 PUSH2 0x5DC9 JUMP JUMPDEST SWAP1 POP PUSH0 DUP1 PUSH0 JUMPDEST PUSH1 0x6 SLOAD DUP2 LT ISZERO PUSH2 0x109C JUMPI PUSH0 PUSH1 0x6 DUP3 DUP2 SLOAD DUP2 LT PUSH2 0xF01 JUMPI PUSH2 0xF01 PUSH2 0x5D38 JUMP JUMPDEST PUSH0 SWAP2 DUP3 MSTORE PUSH1 0x20 DUP3 KECCAK256 PUSH1 0x4 SWAP2 DUP3 MUL ADD DUP1 SLOAD PUSH1 0x40 MLOAD PUSH4 0x70A08231 PUSH1 0xE0 SHL DUP2 MSTORE ADDRESS SWAP4 DUP2 ADD SWAP4 SWAP1 SWAP4 MSTORE SWAP1 SWAP4 POP PUSH2 0x2710 SWAP2 DUP10 SWAP2 PUSH1 0x1 PUSH1 0x1 PUSH1 0xA0 SHL SUB AND SWAP1 PUSH4 0x70A08231 SWAP1 PUSH1 0x24 ADD PUSH1 0x20 PUSH1 0x40 MLOAD DUP1 DUP4 SUB DUP2 DUP7 GAS STATICCALL ISZERO DUP1 ISZERO PUSH2 0xF5D JUMPI RETURNDATASIZE PUSH0 DUP1 RETURNDATACOPY RETURNDATASIZE PUSH0 REVERT JUMPDEST POP POP POP POP PUSH1 0x40 MLOAD RETURNDATASIZE PUSH1 0x1F NOT PUSH1 0x1F DUP3 ADD AND DUP3 ADD DUP1 PUSH1 0x40 MSTORE POP DUP2 ADD SWAP1 PUSH2 0xF81 SWAP2 SWAP1 PUSH2 0x5D4C JUMP JUMPDEST PUSH2 0xF8B SWAP2 SWAP1 PUSH2 0x5D77 JUMP JUMPDEST PUSH2 0xF95 SWAP2 SWAP1 PUSH2 0x5D8E JUMP JUMPDEST DUP3 SLOAD PUSH1 0x3 DUP5 ADD SLOAD PUSH1 0x40 MLOAD PUSH4 0xE7AE65AB PUSH1 0xE0 SHL DUP2 MSTORE SWAP3 SWAP4 POP PUSH0 SWAP3 ADDRESS SWAP3 PUSH4 0xE7AE65AB SWAP3 PUSH2 0xFDD SWAP3 PUSH1 0x1 PUSH1 0x1 PUSH1 0xA0 SHL SUB SWAP1 SWAP3 AND SWAP2 DUP8 SWAP2 PUSH1 0x2 DUP11 ADD SWAP2 PUSH3 0xFFFFFF SWAP1 SWAP2 AND SWAP1 PUSH1 0x4 ADD PUSH2 0x5E63 JUMP JUMPDEST PUSH1 0x20 PUSH1 0x40 MLOAD DUP1 DUP4 SUB DUP2 PUSH0 DUP8 GAS CALL ISZERO DUP1 ISZERO PUSH2 0xFF9 JUMPI RETURNDATASIZE PUSH0 DUP1 RETURNDATACOPY RETURNDATASIZE PUSH0 REVERT JUMPDEST POP POP POP POP PUSH1 0x40 MLOAD RETURNDATASIZE PUSH1 0x1F NOT PUSH1 0x1F DUP3 ADD AND DUP3 ADD DUP1 PUSH1 0x40 MSTORE POP DUP2 ADD SWAP1 PUSH2 0x101D SWAP2 SWAP1 PUSH2 0x5D4C JUMP JUMPDEST SWAP1 POP PUSH1 0x40 MLOAD PUSH1 0x20 ADD PUSH2 0x102E SWAP1 PUSH2 0x5E89 JUMP JUMPDEST PUSH1 0x40 MLOAD PUSH1 0x20 DUP2 DUP4 SUB SUB DUP2 MSTORE SWAP1 PUSH1 0x40 MSTORE DUP1 MLOAD SWAP1 PUSH1 0x20 ADD KECCAK256 DUP4 PUSH1 0x2 ADD PUSH1 0x40 MLOAD PUSH1 0x20 ADD PUSH2 0x1058 SWAP2 SWAP1 PUSH2 0x5E97 JUMP JUMPDEST PUSH1 0x40 MLOAD PUSH1 0x20 DUP2 DUP4 SUB SUB DUP2 MSTORE SWAP1 PUSH1 0x40 MSTORE DUP1 MLOAD SWAP1 PUSH1 0x20 ADD KECCAK256 SUB PUSH2 0x1084 JUMPI PUSH2 0x107D DUP2 DUP7 PUSH2 0x5F08 JUMP JUMPDEST SWAP5 POP PUSH2 0x1091 JUMP JUMPDEST PUSH2 0x108E DUP2 DUP8 PUSH2 0x5F08 JUMP JUMPDEST SWAP6 POP JUMPDEST POP POP POP PUSH1 0x1 ADD PUSH2 0xEE3 JUMP JUMPDEST POP PUSH2 0x10A7 CALLER DUP7 PUSH2 0x3FF7 JUMP JUMPDEST DUP1 ISZERO PUSH2 0x1160 JUMPI PUSH0 PUSH2 0x2710 PUSH1 0xF SLOAD DUP4 PUSH2 0x10BF SWAP2 SWAP1 PUSH2 0x5D77 JUMP JUMPDEST PUSH2 0x10C9 SWAP2 SWAP1 PUSH2 0x5D8E JUMP JUMPDEST SWAP1 POP PUSH0 PUSH2 0x10D6 DUP3 DUP5 PUSH2 0x5F1B JUMP JUMPDEST SWAP1 POP DUP2 PUSH1 0x12 PUSH0 DUP3 DUP3 SLOAD PUSH2 0x10E9 SWAP2 SWAP1 PUSH2 0x5F08 JUMP JUMPDEST SWAP1 SWAP2 SSTORE POP POP PUSH1 0x40 MLOAD PUSH4 0xA9059CBB PUSH1 0xE0 SHL DUP2 MSTORE CALLER PUSH1 0x4 DUP3 ADD MSTORE PUSH1 0x24 DUP2 ADD DUP3 SWAP1 MSTORE PUSH1 0x1 PUSH1 0x1 PUSH1 0xA0 SHL SUB DUP7 AND SWAP1 PUSH4 0xA9059CBB SWAP1 PUSH1 0x44 ADD PUSH1 0x20 PUSH1 0x40 MLOAD DUP1 DUP4 SUB DUP2 PUSH0 DUP8 GAS CALL ISZERO DUP1 ISZERO PUSH2 0x1138 JUMPI RETURNDATASIZE PUSH0 DUP1 RETURNDATACOPY RETURNDATASIZE PUSH0 REVERT JUMPDEST POP POP POP POP PUSH1 0x40 MLOAD RETURNDATASIZE PUSH1 0x1F NOT PUSH1 0x1F DUP3 ADD AND DUP3 ADD DUP1 PUSH1 0x40 MSTORE POP DUP2 ADD SWAP1 PUSH2 0x115C SWAP2 SWAP1 PUSH2 0x5F2E JUMP JUMPDEST POP POP POP JUMPDEST DUP2 ISZERO PUSH2 0x1255 JUMPI PUSH0 PUSH2 0x2710 PUSH1 0xF SLOAD DUP5 PUSH2 0x1178 SWAP2 SWAP1 PUSH2 0x5D77 JUMP JUMPDEST PUSH2 0x1182 SWAP2 SWAP1 PUSH2 0x5D8E JUMP JUMPDEST SWAP1 POP PUSH0 PUSH2 0x118F DUP3 DUP6 PUSH2 0x5F1B JUMP JUMPDEST SWAP1 POP DUP2 PUSH1 0x11 PUSH0 DUP3 DUP3 SLOAD PUSH2 0x11A2 SWAP2 SWAP1 PUSH2 0x5F08 JUMP JUMPDEST SWAP1 SWAP2 SSTORE POP POP CALLER PUSH0 SWAP1 DUP2 MSTORE PUSH1 0xD PUSH1 0x20 MSTORE PUSH1 0x40 DUP2 KECCAK256 SLOAD SWAP1 PUSH2 0x11C1 DUP4 DUP4 PUSH2 0x5F08 JUMP JUMPDEST PUSH1 0x40 MLOAD SWAP1 SWAP2 POP PUSH0 SWAP1 CALLER SWAP1 DUP4 SWAP1 DUP4 DUP2 DUP2 DUP2 DUP6 DUP8 GAS CALL SWAP3 POP POP POP RETURNDATASIZE DUP1 PUSH0 DUP2 EQ PUSH2 0x1203 JUMPI PUSH1 0x40 MLOAD SWAP2 POP PUSH1 0x1F NOT PUSH1 0x3F RETURNDATASIZE ADD AND DUP3 ADD PUSH1 0x40 MSTORE RETURNDATASIZE DUP3 MSTORE RETURNDATASIZE PUSH0 PUSH1 0x20 DUP5 ADD RETURNDATACOPY PUSH2 0x1208 JUMP JUMPDEST PUSH1 0x60 SWAP2 POP JUMPDEST POP POP SWAP1 POP DUP1 PUSH2 0x124F JUMPI PUSH1 0x40 MLOAD PUSH3 0x461BCD PUSH1 0xE5 SHL DUP2 MSTORE PUSH1 0x20 PUSH1 0x4 DUP3 ADD MSTORE PUSH1 0x13 PUSH1 0x24 DUP3 ADD MSTORE PUSH19 0x115512081D1C985B9CD9995C8819985A5B1959 PUSH1 0x6A SHL PUSH1 0x44 DUP3 ADD MSTORE PUSH1 0x64 ADD PUSH2 0x962 JUMP JUMPDEST POP POP POP POP POP JUMPDEST PUSH1 0x40 DUP1 MLOAD DUP4 DUP2 MSTORE PUSH1 0x20 DUP2 ADD DUP7 SWAP1 MSTORE CALLER SWAP2 PUSH32 0x92CCF450A286A957AF52509BC1C9939D1A6A481783E142E41E2499F0BB66EBC6 SWAP2 ADD PUSH1 0x40 MLOAD DUP1 SWAP2 SUB SWAP1 LOG2 POP POP POP POP POP JUMP JUMPDEST PUSH2 0x129F PUSH2 0x3FCD JUMP JUMPDEST PUSH0 DUP2 GT PUSH2 0x12BE JUMPI PUSH1 0x40 MLOAD PUSH3 0x461BCD PUSH1 0xE5 SHL DUP2 MSTORE PUSH1 0x4 ADD PUSH2 0x962 SWAP1 PUSH2 0x5DAD JUMP JUMPDEST PUSH1 0x40 MLOAD PUSH4 0x70A08231 PUSH1 0xE0 SHL DUP2 MSTORE CALLER PUSH1 0x4 DUP3 ADD MSTORE DUP2 SWAP1 ADDRESS SWAP1 PUSH4 0x70A08231 SWAP1 PUSH1 0x24 ADD PUSH1 0x20 PUSH1 0x40 MLOAD DUP1 DUP4 SUB DUP2 DUP7 GAS STATICCALL ISZERO DUP1 ISZERO PUSH2 0x12F9 JUMPI RETURNDATASIZE PUSH0 DUP1 RETURNDATACOPY RETURNDATASIZE PUSH0 REVERT JUMPDEST POP POP POP POP PUSH1 0x40 MLOAD RETURNDATASIZE PUSH1 0x1F NOT PUSH1 0x1F DUP3 ADD AND DUP3 ADD DUP1 PUSH1 0x40 MSTORE POP DUP2 ADD SWAP1 PUSH2 0x131D SWAP2 SWAP1 PUSH2 0x5D4C JUMP JUMPDEST LT ISZERO PUSH2 0x135A JUMPI PUSH1 0x40 MLOAD PUSH3 0x461BCD PUSH1 0xE5 SHL DUP2 MSTORE PUSH1 0x20 PUSH1 0x4 DUP3 ADD MSTORE PUSH1 0xC PUSH1 0x24 DUP3 ADD MSTORE PUSH12 0x125B9CDD59999A58DA595B9D PUSH1 0xA2 SHL PUSH1 0x44 DUP3 ADD MSTORE PUSH1 0x64 ADD PUSH2 0x962 JUMP JUMPDEST PUSH0 PUSH2 0x1364 PUSH1 0x3 SLOAD SWAP1 JUMP JUMPDEST PUSH2 0x1370 DUP4 PUSH2 0x2710 PUSH2 0x5D77 JUMP JUMPDEST PUSH2 0x137A SWAP2 SWAP1 PUSH2 0x5D8E JUMP JUMPDEST SWAP1 POP PUSH0 DUP2 GT DUP1 ISZERO PUSH2 0x138D JUMPI POP PUSH2 0x2710 DUP2 GT ISZERO JUMPDEST PUSH2 0x13C3 JUMPI PUSH1 0x40 MLOAD PUSH3 0x461BCD PUSH1 0xE5 SHL DUP2 MSTORE PUSH1 0x20 PUSH1 0x4 DUP3 ADD MSTORE PUSH1 0x7 PUSH1 0x24 DUP3 ADD MSTORE PUSH7 0x3026313030303 PUSH1 0xCC SHL PUSH1 0x44 DUP3 ADD MSTORE PUSH1 0x64 ADD PUSH2 0x962 JUMP JUMPDEST PUSH0 JUMPDEST PUSH1 0x6 SLOAD DUP2 LT ISZERO PUSH2 0x1957 JUMPI PUSH0 PUSH1 0x6 DUP3 DUP2 SLOAD DUP2 LT PUSH2 0x13E3 JUMPI PUSH2 0x13E3 PUSH2 0x5D38 JUMP JUMPDEST PUSH0 SWAP2 DUP3 MSTORE PUSH1 0x20 DUP3 KECCAK256 PUSH1 0x4 SWAP2 DUP3 MUL ADD DUP1 SLOAD PUSH1 0x40 MLOAD PUSH4 0x70A08231 PUSH1 0xE0 SHL DUP2 MSTORE ADDRESS SWAP4 DUP2 ADD SWAP4 SWAP1 SWAP4 MSTORE SWAP1 SWAP4 POP PUSH2 0x2710 SWAP2 DUP7 SWAP2 PUSH1 0x1 PUSH1 0x1 PUSH1 0xA0 SHL SUB AND SWAP1 PUSH4 0x70A08231 SWAP1 PUSH1 0x24 ADD PUSH1 0x20 PUSH1 0x40 MLOAD DUP1 DUP4 SUB DUP2 DUP7 GAS STATICCALL ISZERO DUP1 ISZERO PUSH2 0x143F JUMPI RETURNDATASIZE PUSH0 DUP1 RETURNDATACOPY RETURNDATASIZE PUSH0 REVERT JUMPDEST POP POP POP POP PUSH1 0x40 MLOAD RETURNDATASIZE PUSH1 0x1F NOT PUSH1 0x1F DUP3 ADD AND DUP3 ADD DUP1 PUSH1 0x40 MSTORE POP DUP2 ADD SWAP1 PUSH2 0x1463 SWAP2 SWAP1 PUSH2 0x5D4C JUMP JUMPDEST PUSH2 0x146D SWAP2 SWAP1 PUSH2 0x5D77 JUMP JUMPDEST PUSH2 0x1477 SWAP2 SWAP1 PUSH2 0x5D8E JUMP JUMPDEST SWAP1 POP PUSH0 PUSH2 0x2710 PUSH1 0xF SLOAD DUP4 PUSH2 0x148B SWAP2 SWAP1 PUSH2 0x5D77 JUMP JUMPDEST PUSH2 0x1495 SWAP2 SWAP1 PUSH2 0x5D8E JUMP JUMPDEST SWAP1 POP PUSH0 PUSH2 0x14A2 DUP3 DUP5 PUSH2 0x5F1B JUMP JUMPDEST DUP5 SLOAD PUSH1 0x40 MLOAD PUSH4 0xA9059CBB PUSH1 0xE0 SHL DUP2 MSTORE CALLER PUSH1 0x4 DUP3 ADD MSTORE PUSH1 0x24 DUP2 ADD DUP4 SWAP1 MSTORE SWAP2 SWAP3 POP PUSH1 0x1 PUSH1 0x1 PUSH1 0xA0 SHL SUB AND SWAP1 PUSH4 0xA9059CBB SWAP1 PUSH1 0x44 ADD PUSH1 0x20 PUSH1 0x40 MLOAD DUP1 DUP4 SUB DUP2 PUSH0 DUP8 GAS CALL ISZERO DUP1 ISZERO PUSH2 0x14F0 JUMPI RETURNDATASIZE PUSH0 DUP1 RETURNDATACOPY RETURNDATASIZE PUSH0 REVERT JUMPDEST POP POP POP POP PUSH1 0x40 MLOAD RETURNDATASIZE PUSH1 0x1F NOT PUSH1 0x1F DUP3 ADD AND DUP3 ADD DUP1 PUSH1 0x40 MSTORE POP DUP2 ADD SWAP1 PUSH2 0x1514 SWAP2 SWAP1 PUSH2 0x5F2E JUMP JUMPDEST POP PUSH1 0x40 MLOAD PUSH1 0x20 ADD PUSH2 0x1524 SWAP1 PUSH2 0x5F49 JUMP JUMPDEST PUSH1 0x40 MLOAD PUSH1 0x20 DUP2 DUP4 SUB SUB DUP2 MSTORE SWAP1 PUSH1 0x40 MSTORE DUP1 MLOAD SWAP1 PUSH1 0x20 ADD KECCAK256 DUP5 PUSH1 0x2 ADD PUSH1 0x40 MLOAD PUSH1 0x20 ADD PUSH2 0x154E SWAP2 SWAP1 PUSH2 0x5E97 JUMP JUMPDEST PUSH1 0x40 MLOAD PUSH1 0x20 DUP2 DUP4 SUB SUB DUP2 MSTORE SWAP1 PUSH1 0x40 MSTORE DUP1 MLOAD SWAP1 PUSH1 0x20 ADD KECCAK256 SUB PUSH2 0x1736 JUMPI PUSH1 0x40 DUP1 MLOAD PUSH1 0x2 DUP1 DUP3 MSTORE PUSH1 0x60 DUP3 ADD DUP4 MSTORE PUSH0 SWAP3 PUSH1 0x20 DUP4 ADD SWAP1 DUP1 CALLDATASIZE DUP4 CALLDATACOPY POP POP DUP7 SLOAD DUP3 MLOAD SWAP3 SWAP4 POP PUSH1 0x1 PUSH1 0x1 PUSH1 0xA0 SHL SUB AND SWAP2 DUP4 SWAP2 POP PUSH0 SWAP1 PUSH2 0x15A7 JUMPI PUSH2 0x15A7 PUSH2 0x5D38 JUMP JUMPDEST PUSH1 0x1 PUSH1 0x1 PUSH1 0xA0 SHL SUB SWAP3 DUP4 AND PUSH1 0x20 SWAP2 DUP3 MUL SWAP3 SWAP1 SWAP3 ADD DUP2 ADD SWAP2 SWAP1 SWAP2 MSTORE PUSH1 0x7 SLOAD PUSH1 0x40 DUP1 MLOAD PUSH4 0x15AB88C9 PUSH1 0xE3 SHL DUP2 MSTORE SWAP1 MLOAD SWAP2 SWAP1 SWAP4 AND SWAP3 PUSH4 0xAD5C4648 SWAP3 PUSH1 0x4 DUP1 DUP4 ADD SWAP4 SWAP2 SWAP3 DUP3 SWAP1 SUB ADD DUP2 DUP7 GAS STATICCALL ISZERO DUP1 ISZERO PUSH2 0x15FE JUMPI RETURNDATASIZE PUSH0 DUP1 RETURNDATACOPY RETURNDATASIZE PUSH0 REVERT JUMPDEST POP POP POP POP PUSH1 0x40 MLOAD RETURNDATASIZE PUSH1 0x1F NOT PUSH1 0x1F DUP3 ADD AND DUP3 ADD DUP1 PUSH1 0x40 MSTORE POP DUP2 ADD SWAP1 PUSH2 0x1622 SWAP2 SWAP1 PUSH2 0x5DC9 JUMP JUMPDEST DUP2 PUSH1 0x1 DUP2 MLOAD DUP2 LT PUSH2 0x1635 JUMPI PUSH2 0x1635 PUSH2 0x5D38 JUMP JUMPDEST PUSH1 0x1 PUSH1 0x1 PUSH1 0xA0 SHL SUB SWAP3 DUP4 AND PUSH1 0x20 SWAP2 DUP3 MUL SWAP3 SWAP1 SWAP3 ADD ADD MSTORE PUSH1 0x7 SLOAD PUSH1 0x40 MLOAD PUSH4 0xD06CA61F PUSH1 0xE0 SHL DUP2 MSTORE PUSH0 SWAP3 SWAP2 SWAP1 SWAP2 AND SWAP1 PUSH4 0xD06CA61F SWAP1 PUSH2 0x1678 SWAP1 DUP8 SWAP1 DUP7 SWAP1 PUSH1 0x4 ADD PUSH2 0x5F9A JUMP JUMPDEST PUSH0 PUSH1 0x40 MLOAD DUP1 DUP4 SUB DUP2 DUP7 GAS STATICCALL ISZERO DUP1 ISZERO PUSH2 0x1692 JUMPI RETURNDATASIZE PUSH0 DUP1 RETURNDATACOPY RETURNDATASIZE PUSH0 REVERT JUMPDEST POP POP POP POP PUSH1 0x40 MLOAD RETURNDATASIZE PUSH0 DUP3 RETURNDATACOPY PUSH1 0x1F RETURNDATASIZE SWAP1 DUP2 ADD PUSH1 0x1F NOT AND DUP3 ADD PUSH1 0x40 MSTORE PUSH2 0x16B9 SWAP2 SWAP1 DUP2 ADD SWAP1 PUSH2 0x5FB2 JUMP JUMPDEST SWAP1 POP PUSH0 PUSH2 0x2710 PUSH1 0x10 SLOAD PUSH2 0x2710 PUSH2 0x16CF SWAP2 SWAP1 PUSH2 0x5F1B JUMP JUMPDEST DUP4 PUSH1 0x1 DUP2 MLOAD DUP2 LT PUSH2 0x16E2 JUMPI PUSH2 0x16E2 PUSH2 0x5D38 JUMP JUMPDEST PUSH1 0x20 MUL PUSH1 0x20 ADD ADD MLOAD PUSH2 0x16F4 SWAP2 SWAP1 PUSH2 0x5D77 JUMP JUMPDEST PUSH2 0x16FE SWAP2 SWAP1 PUSH2 0x5D8E JUMP JUMPDEST DUP8 SLOAD SWAP1 SWAP2 POP PUSH2 0x1718 SWAP1 PUSH1 0x1 PUSH1 0x1 PUSH1 0xA0 SHL SUB AND DUP7 DUP4 ADDRESS PUSH2 0x402B JUMP JUMPDEST PUSH1 0x11 PUSH0 DUP3 DUP3 SLOAD PUSH2 0x1728 SWAP2 SWAP1 PUSH2 0x5F08 JUMP JUMPDEST SWAP1 SWAP2 SSTORE POP PUSH2 0x1947 SWAP4 POP POP POP POP JUMP JUMPDEST PUSH1 0x40 MLOAD PUSH1 0x20 ADD PUSH2 0x1745 SWAP1 PUSH2 0x5E89 JUMP JUMPDEST PUSH1 0x40 MLOAD PUSH1 0x20 DUP2 DUP4 SUB SUB DUP2 MSTORE SWAP1 PUSH1 0x40 MSTORE DUP1 MLOAD SWAP1 PUSH1 0x20 ADD KECCAK256 DUP5 PUSH1 0x2 ADD PUSH1 0x40 MLOAD PUSH1 0x20 ADD PUSH2 0x176F SWAP2 SWAP1 PUSH2 0x5E97 JUMP JUMPDEST PUSH1 0x40 MLOAD PUSH1 0x20 DUP2 DUP4 SUB SUB DUP2 MSTORE SWAP1 PUSH1 0x40 MSTORE DUP1 MLOAD SWAP1 PUSH1 0x20 ADD KECCAK256 SUB PUSH2 0x18FF JUMPI DUP4 SLOAD PUSH1 0x3 DUP6 ADD SLOAD PUSH1 0x7 SLOAD PUSH1 0x40 DUP1 MLOAD PUSH4 0x15AB88C9 PUSH1 0xE3 SHL DUP2 MSTORE SWAP1 MLOAD PUSH0 SWAP5 PUSH1 0x1 PUSH1 0x1 PUSH1 0xA0 SHL SUB SWAP1 DUP2 AND SWAP5 PUSH3 0xFFFFFF AND SWAP4 AND SWAP2 PUSH4 0xAD5C4648 SWAP2 PUSH1 0x4 DUP1 DUP4 ADD SWAP3 PUSH1 0x20 SWAP3 SWAP2 SWAP1 DUP3 SWAP1 SUB ADD DUP2 DUP7 GAS STATICCALL ISZERO DUP1 ISZERO PUSH2 0x17E2 JUMPI RETURNDATASIZE PUSH0 DUP1 RETURNDATACOPY RETURNDATASIZE PUSH0 REVERT JUMPDEST POP POP POP POP PUSH1 0x40 MLOAD RETURNDATASIZE PUSH1 0x1F NOT PUSH1 0x1F DUP3 ADD AND DUP3 ADD DUP1 PUSH1 0x40 MSTORE POP DUP2 ADD SWAP1 PUSH2 0x1806 SWAP2 SWAP1 PUSH2 0x5DC9 JUMP JUMPDEST PUSH1 0x40 MLOAD PUSH1 0x20 ADD PUSH2 0x1818 SWAP4 SWAP3 SWAP2 SWAP1 PUSH2 0x6038 JUMP JUMPDEST PUSH1 0x40 DUP1 MLOAD PUSH1 0x1F NOT DUP2 DUP5 SUB ADD DUP2 MSTORE SWAP1 DUP3 SWAP1 MSTORE PUSH1 0x9 SLOAD PUSH4 0xCDCA1753 PUSH1 0xE0 SHL DUP4 MSTORE SWAP1 SWAP3 POP PUSH0 SWAP2 PUSH1 0x1 PUSH1 0x1 PUSH1 0xA0 SHL SUB SWAP1 SWAP2 AND SWAP1 PUSH4 0xCDCA1753 SWAP1 PUSH2 0x185D SWAP1 DUP6 SWAP1 DUP9 SWAP1 PUSH1 0x4 ADD PUSH2 0x6073 JUMP JUMPDEST PUSH1 0x20 PUSH1 0x40 MLOAD DUP1 DUP4 SUB DUP2 PUSH0 DUP8 GAS CALL ISZERO DUP1 ISZERO PUSH2 0x1879 JUMPI RETURNDATASIZE PUSH0 DUP1 RETURNDATACOPY RETURNDATASIZE PUSH0 REVERT JUMPDEST POP POP POP POP PUSH1 0x40 MLOAD RETURNDATASIZE PUSH1 0x1F NOT PUSH1 0x1F DUP3 ADD AND DUP3 ADD DUP1 PUSH1 0x40 MSTORE POP DUP2 ADD SWAP1 PUSH2 0x189D SWAP2 SWAP1 PUSH2 0x5D4C JUMP JUMPDEST SWAP1 POP PUSH0 PUSH2 0x2710 PUSH1 0x10 SLOAD PUSH2 0x2710 PUSH2 0x18B3 SWAP2 SWAP1 PUSH2 0x5F1B JUMP JUMPDEST PUSH2 0x18BD SWAP1 DUP5 PUSH2 0x5D77 JUMP JUMPDEST PUSH2 0x18C7 SWAP2 SWAP1 PUSH2 0x5D8E JUMP JUMPDEST DUP8 SLOAD PUSH1 0x3 DUP10 ADD SLOAD SWAP2 SWAP3 POP PUSH2 0x18EF SWAP2 PUSH1 0x1 PUSH1 0x1 PUSH1 0xA0 SHL SUB SWAP1 SWAP2 AND SWAP1 DUP8 SWAP1 PUSH3 0xFFFFFF AND DUP5 ADDRESS PUSH2 0x4216 JUMP JUMPDEST PUSH1 0x12 PUSH0 DUP3 DUP3 SLOAD PUSH2 0x1728 SWAP2 SWAP1 PUSH2 0x5F08 JUMP JUMPDEST PUSH1 0x40 MLOAD PUSH3 0x461BCD PUSH1 0xE5 SHL DUP2 MSTORE PUSH1 0x20 PUSH1 0x4 DUP3 ADD MSTORE PUSH1 0x17 PUSH1 0x24 DUP3 ADD MSTORE PUSH32 0x496E76616C696420556E69737761702076657273696F6E000000000000000000 PUSH1 0x44 DUP3 ADD MSTORE PUSH1 0x64 ADD PUSH2 0x962 JUMP JUMPDEST POP POP PUSH1 0x1 SWAP1 SWAP3 ADD SWAP2 POP PUSH2 0x13C5 SWAP1 POP JUMP JUMPDEST POP PUSH2 0x1962 CALLER DUP4 PUSH2 0x3FF7 JUMP JUMPDEST CALLER PUSH0 SWAP1 DUP2 MSTORE PUSH1 0xD PUSH1 0x20 MSTORE PUSH1 0x40 DUP2 KECCAK256 SLOAD PUSH2 0x2710 SWAP1 PUSH2 0x1980 SWAP1 DUP5 SWAP1 PUSH2 0x5D77 JUMP JUMPDEST PUSH2 0x198A SWAP2 SWAP1 PUSH2 0x5D8E JUMP JUMPDEST SWAP1 POP DUP1 DUP1 ISZERO PUSH2 0x1A0F JUMPI PUSH1 0x40 MLOAD PUSH0 SWAP1 CALLER SWAP1 DUP4 SWAP1 DUP4 DUP2 DUP2 DUP2 DUP6 DUP8 GAS CALL SWAP3 POP POP POP RETURNDATASIZE DUP1 PUSH0 DUP2 EQ PUSH2 0x19D2 JUMPI PUSH1 0x40 MLOAD SWAP2 POP PUSH1 0x1F NOT PUSH1 0x3F RETURNDATASIZE ADD AND DUP3 ADD PUSH1 0x40 MSTORE RETURNDATASIZE DUP3 MSTORE RETURNDATASIZE PUSH0 PUSH1 0x20 DUP5 ADD RETURNDATACOPY PUSH2 0x19D7 JUMP JUMPDEST PUSH1 0x60 SWAP2 POP JUMPDEST POP POP SWAP1 POP DUP1 PUSH2 0x1A0D JUMPI PUSH1 0x40 MLOAD PUSH3 0x461BCD PUSH1 0xE5 SHL DUP2 MSTORE PUSH1 0x20 PUSH1 0x4 DUP3 ADD MSTORE PUSH1 0x2 PUSH1 0x24 DUP3 ADD MSTORE PUSH2 0x2A29 PUSH1 0xF1 SHL PUSH1 0x44 DUP3 ADD MSTORE PUSH1 0x64 ADD PUSH2 0x962 JUMP JUMPDEST POP JUMPDEST PUSH1 0x40 DUP1 MLOAD DUP5 DUP2 MSTORE PUSH1 0x20 DUP2 ADD DUP6 SWAP1 MSTORE CALLER SWAP2 PUSH32 0x92CCF450A286A957AF52509BC1C9939D1A6A481783E142E41E2499F0BB66EBC6 SWAP2 ADD PUSH1 0x40 MLOAD DUP1 SWAP2 SUB SWAP1 LOG2 POP POP POP POP JUMP JUMPDEST PUSH1 0x6 DUP2 DUP2 SLOAD DUP2 LT PUSH2 0x1A5F JUMPI PUSH0 DUP1 REVERT JUMPDEST PUSH0 SWAP2 DUP3 MSTORE PUSH1 0x20 SWAP1 SWAP2 KECCAK256 PUSH1 0x4 SWAP1 SWAP2 MUL ADD DUP1 SLOAD PUSH1 0x1 DUP3 ADD SLOAD PUSH1 0x2 DUP4 ADD DUP1 SLOAD PUSH1 0x1 PUSH1 0x1 PUSH1 0xA0 SHL SUB SWAP1 SWAP4 AND SWAP5 POP SWAP1 SWAP3 SWAP2 PUSH2 0x1A94 SWAP1 PUSH2 0x5D00 JUMP JUMPDEST DUP1 PUSH1 0x1F ADD PUSH1 0x20 DUP1 SWAP2 DIV MUL PUSH1 0x20 ADD PUSH1 0x40 MLOAD SWAP1 DUP2 ADD PUSH1 0x40 MSTORE DUP1 SWAP3 SWAP2 SWAP1 DUP2 DUP2 MSTORE PUSH1 0x20 ADD DUP3 DUP1 SLOAD PUSH2 0x1AC0 SWAP1 PUSH2 0x5D00 JUMP JUMPDEST DUP1 ISZERO PUSH2 0x1B0B JUMPI DUP1 PUSH1 0x1F LT PUSH2 0x1AE2 JUMPI PUSH2 0x100 DUP1 DUP4 SLOAD DIV MUL DUP4 MSTORE SWAP2 PUSH1 0x20 ADD SWAP2 PUSH2 0x1B0B JUMP JUMPDEST DUP3 ADD SWAP2 SWAP1 PUSH0 MSTORE PUSH1 0x20 PUSH0 KECCAK256 SWAP1 JUMPDEST DUP2 SLOAD DUP2 MSTORE SWAP1 PUSH1 0x1 ADD SWAP1 PUSH1 0x20 ADD DUP1 DUP4 GT PUSH2 0x1AEE JUMPI DUP3 SWAP1 SUB PUSH1 0x1F AND DUP3 ADD SWAP2 JUMPDEST POP POP POP PUSH1 0x3 SWAP1 SWAP4 ADD SLOAD SWAP2 SWAP3 POP POP PUSH3 0xFFFFFF AND DUP5 JUMP JUMPDEST PUSH1 0xB DUP2 DUP2 SLOAD DUP2 LT PUSH2 0x1B2F JUMPI PUSH0 DUP1 REVERT JUMPDEST PUSH0 SWAP2 DUP3 MSTORE PUSH1 0x20 SWAP1 SWAP2 KECCAK256 PUSH1 0x5 SWAP1 SWAP2 MUL ADD DUP1 SLOAD PUSH1 0x1 DUP3 ADD SLOAD PUSH1 0x2 DUP4 ADD SLOAD PUSH1 0x3 DUP5 ADD DUP1 SLOAD PUSH1 0x1 PUSH1 0x1 PUSH1 0xA0 SHL SUB SWAP5 DUP6 AND SWAP7 POP SWAP3 SWAP1 SWAP4 AND SWAP4 SWAP1 SWAP3 SWAP1 SWAP2 PUSH2 0x1B6F SWAP1 PUSH2 0x5D00 JUMP JUMPDEST DUP1 PUSH1 0x1F ADD PUSH1 0x20 DUP1 SWAP2 DIV MUL PUSH1 0x20 ADD PUSH1 0x40 MLOAD SWAP1 DUP2 ADD PUSH1 0x40 MSTORE DUP1 SWAP3 SWAP2 SWAP1 DUP2 DUP2 MSTORE PUSH1 0x20 ADD DUP3 DUP1 SLOAD PUSH2 0x1B9B SWAP1 PUSH2 0x5D00 JUMP JUMPDEST DUP1 ISZERO PUSH2 0x1BE6 JUMPI DUP1 PUSH1 0x1F LT PUSH2 0x1BBD JUMPI PUSH2 0x100 DUP1 DUP4 SLOAD DIV MUL DUP4 MSTORE SWAP2 PUSH1 0x20 ADD SWAP2 PUSH2 0x1BE6 JUMP JUMPDEST DUP3 ADD SWAP2 SWAP1 PUSH0 MSTORE PUSH1 0x20 PUSH0 KECCAK256 SWAP1 JUMPDEST DUP2 SLOAD DUP2 MSTORE SWAP1 PUSH1 0x1 ADD SWAP1 PUSH1 0x20 ADD DUP1 DUP4 GT PUSH2 0x1BC9 JUMPI DUP3 SWAP1 SUB PUSH1 0x1F AND DUP3 ADD SWAP2 JUMPDEST POP POP POP PUSH1 0x4 SWAP1 SWAP4 ADD SLOAD SWAP2 SWAP3 POP POP PUSH3 0xFFFFFF AND DUP6 JUMP JUMPDEST PUSH1 0x40 MLOAD PUSH1 0x20 ADD PUSH2 0x1C0A SWAP1 PUSH2 0x5F49 JUMP JUMPDEST PUSH1 0x40 MLOAD PUSH1 0x20 DUP2 DUP4 SUB SUB DUP2 MSTORE SWAP1 PUSH1 0x40 MSTORE DUP1 MLOAD SWAP1 PUSH1 0x20 ADD KECCAK256 DUP3 PUSH1 0x40 MLOAD PUSH1 0x20 ADD PUSH2 0x1C31 SWAP2 SWAP1 PUSH2 0x6094 JUMP JUMPDEST PUSH1 0x40 MLOAD PUSH1 0x20 DUP2 DUP4 SUB SUB DUP2 MSTORE SWAP1 PUSH1 0x40 MSTORE DUP1 MLOAD SWAP1 PUSH1 0x20 ADD KECCAK256 SUB PUSH2 0x1DFC JUMPI PUSH1 0x40 DUP1 MLOAD PUSH1 0x2 DUP1 DUP3 MSTORE PUSH1 0x60 DUP3 ADD DUP4 MSTORE PUSH0 SWAP3 PUSH1 0x20 DUP4 ADD SWAP1 DUP1 CALLDATASIZE DUP4 CALLDATACOPY POP POP PUSH1 0x7 SLOAD PUSH1 0x40 DUP1 MLOAD PUSH4 0x15AB88C9 PUSH1 0xE3 SHL DUP2 MSTORE SWAP1 MLOAD SWAP4 SWAP5 POP PUSH1 0x1 PUSH1 0x1 PUSH1 0xA0 SHL SUB SWAP1 SWAP2 AND SWAP3 PUSH4 0xAD5C4648 SWAP3 POP PUSH1 0x4 DUP1 DUP4 ADD SWAP3 PUSH1 0x20 SWAP3 SWAP2 SWAP1 DUP3 SWAP1 SUB ADD DUP2 DUP7 GAS STATICCALL ISZERO DUP1 ISZERO PUSH2 0x1CB3 JUMPI RETURNDATASIZE PUSH0 DUP1 RETURNDATACOPY RETURNDATASIZE PUSH0 REVERT JUMPDEST POP POP POP POP PUSH1 0x40 MLOAD RETURNDATASIZE PUSH1 0x1F NOT PUSH1 0x1F DUP3 ADD AND DUP3 ADD DUP1 PUSH1 0x40 MSTORE POP DUP2 ADD SWAP1 PUSH2 0x1CD7 SWAP2 SWAP1 PUSH2 0x5DC9 JUMP JUMPDEST DUP2 PUSH0 DUP2 MLOAD DUP2 LT PUSH2 0x1CE9 JUMPI PUSH2 0x1CE9 PUSH2 0x5D38 JUMP JUMPDEST PUSH1 0x20 MUL PUSH1 0x20 ADD ADD SWAP1 PUSH1 0x1 PUSH1 0x1 PUSH1 0xA0 SHL SUB AND SWAP1 DUP2 PUSH1 0x1 PUSH1 0x1 PUSH1 0xA0 SHL SUB AND DUP2 MSTORE POP POP DUP5 DUP2 PUSH1 0x1 DUP2 MLOAD DUP2 LT PUSH2 0x1D1D JUMPI PUSH2 0x1D1D PUSH2 0x5D38 JUMP JUMPDEST PUSH1 0x1 PUSH1 0x1 PUSH1 0xA0 SHL SUB SWAP3 DUP4 AND PUSH1 0x20 SWAP2 DUP3 MUL SWAP3 SWAP1 SWAP3 ADD ADD MSTORE PUSH1 0x7 SLOAD PUSH1 0x40 MLOAD PUSH4 0xD06CA61F PUSH1 0xE0 SHL DUP2 MSTORE PUSH0 SWAP3 SWAP2 SWAP1 SWAP2 AND SWAP1 PUSH4 0xD06CA61F SWAP1 PUSH2 0x1D60 SWAP1 DUP9 SWAP1 DUP7 SWAP1 PUSH1 0x4 ADD PUSH2 0x5F9A JUMP JUMPDEST PUSH0 PUSH1 0x40 MLOAD DUP1 DUP4 SUB DUP2 DUP7 GAS STATICCALL ISZERO DUP1 ISZERO PUSH2 0x1D7A JUMPI RETURNDATASIZE PUSH0 DUP1 RETURNDATACOPY RETURNDATASIZE PUSH0 REVERT JUMPDEST POP POP POP POP PUSH1 0x40 MLOAD RETURNDATASIZE PUSH0 DUP3 RETURNDATACOPY PUSH1 0x1F RETURNDATASIZE SWAP1 DUP2 ADD PUSH1 0x1F NOT AND DUP3 ADD PUSH1 0x40 MSTORE PUSH2 0x1DA1 SWAP2 SWAP1 DUP2 ADD SWAP1 PUSH2 0x5FB2 JUMP JUMPDEST SWAP1 POP PUSH0 PUSH2 0x2710 PUSH1 0x10 SLOAD PUSH2 0x2710 PUSH2 0x1DB7 SWAP2 SWAP1 PUSH2 0x5F1B JUMP JUMPDEST DUP4 PUSH1 0x1 DUP2 MLOAD DUP2 LT PUSH2 0x1DCA JUMPI PUSH2 0x1DCA PUSH2 0x5D38 JUMP JUMPDEST PUSH1 0x20 MUL PUSH1 0x20 ADD ADD MLOAD PUSH2 0x1DDC SWAP2 SWAP1 PUSH2 0x5D77 JUMP JUMPDEST PUSH2 0x1DE6 SWAP2 SWAP1 PUSH2 0x5D8E JUMP JUMPDEST SWAP1 POP PUSH2 0x1DF3 DUP8 DUP8 DUP4 PUSH2 0x43D3 JUMP JUMPDEST POP POP POP POP PUSH2 0x1FBF JUMP JUMPDEST PUSH1 0x40 MLOAD PUSH1 0x20 ADD PUSH2 0x1E0B SWAP1 PUSH2 0x5E89 JUMP JUMPDEST PUSH1 0x40 MLOAD PUSH1 0x20 DUP2 DUP4 SUB SUB DUP2 MSTORE SWAP1 PUSH1 0x40 MSTORE DUP1 MLOAD SWAP1 PUSH1 0x20 ADD KECCAK256 DUP3 PUSH1 0x40 MLOAD PUSH1 0x20 ADD PUSH2 0x1E32 SWAP2 SWAP1 PUSH2 0x6094 JUMP JUMPDEST PUSH1 0x40 MLOAD PUSH1 0x20 DUP2 DUP4 SUB SUB DUP2 MSTORE SWAP1 PUSH1 0x40 MSTORE DUP1 MLOAD SWAP1 PUSH1 0x20 ADD KECCAK256 SUB PUSH2 0x1F91 JUMPI PUSH1 0x7 SLOAD PUSH1 0x40 DUP1 MLOAD PUSH4 0x15AB88C9 PUSH1 0xE3 SHL DUP2 MSTORE SWAP1 MLOAD PUSH0 SWAP3 PUSH1 0x1 PUSH1 0x1 PUSH1 0xA0 SHL SUB AND SWAP2 PUSH4 0xAD5C4648 SWAP2 PUSH1 0x4 DUP1 DUP4 ADD SWAP3 PUSH1 0x20 SWAP3 SWAP2 SWAP1 DUP3 SWAP1 SUB ADD DUP2 DUP7 GAS STATICCALL ISZERO DUP1 ISZERO PUSH2 0x1E94 JUMPI RETURNDATASIZE PUSH0 DUP1 RETURNDATACOPY RETURNDATASIZE PUSH0 REVERT JUMPDEST POP POP POP POP PUSH1 0x40 MLOAD RETURNDATASIZE PUSH1 0x1F NOT PUSH1 0x1F DUP3 ADD AND DUP3 ADD DUP1 PUSH1 0x40 MSTORE POP DUP2 ADD SWAP1 PUSH2 0x1EB8 SWAP2 SWAP1 PUSH2 0x5DC9 JUMP JUMPDEST DUP3 DUP7 PUSH1 0x40 MLOAD PUSH1 0x20 ADD PUSH2 0x1ECC SWAP4 SWAP3 SWAP2 SWAP1 PUSH2 0x6038 JUMP JUMPDEST PUSH1 0x40 DUP1 MLOAD PUSH1 0x1F NOT DUP2 DUP5 SUB ADD DUP2 MSTORE SWAP1 DUP3 SWAP1 MSTORE PUSH1 0x9 SLOAD PUSH4 0xCDCA1753 PUSH1 0xE0 SHL DUP4 MSTORE SWAP1 SWAP3 POP PUSH0 SWAP2 PUSH1 0x1 PUSH1 0x1 PUSH1 0xA0 SHL SUB SWAP1 SWAP2 AND SWAP1 PUSH4 0xCDCA1753 SWAP1 PUSH2 0x1F11 SWAP1 DUP6 SWAP1 DUP10 SWAP1 PUSH1 0x4 ADD PUSH2 0x6073 JUMP JUMPDEST PUSH1 0x20 PUSH1 0x40 MLOAD DUP1 DUP4 SUB DUP2 PUSH0 DUP8 GAS CALL ISZERO DUP1 ISZERO PUSH2 0x1F2D JUMPI RETURNDATASIZE PUSH0 DUP1 RETURNDATACOPY RETURNDATASIZE PUSH0 REVERT JUMPDEST POP POP POP POP PUSH1 0x40 MLOAD RETURNDATASIZE PUSH1 0x1F NOT PUSH1 0x1F DUP3 ADD AND DUP3 ADD DUP1 PUSH1 0x40 MSTORE POP DUP2 ADD SWAP1 PUSH2 0x1F51 SWAP2 SWAP1 PUSH2 0x5D4C JUMP JUMPDEST SWAP1 POP PUSH0 PUSH2 0x2710 PUSH1 0x10 SLOAD PUSH2 0x2710 PUSH2 0x1F67 SWAP2 SWAP1 PUSH2 0x5F1B JUMP JUMPDEST PUSH2 0x1F71 SWAP1 DUP5 PUSH2 0x5D77 JUMP JUMPDEST PUSH2 0x1F7B SWAP2 SWAP1 PUSH2 0x5D8E JUMP JUMPDEST SWAP1 POP PUSH2 0x1F89 DUP8 DUP8 DUP7 DUP5 PUSH2 0x4539 JUMP JUMPDEST POP POP POP PUSH2 0x1FBF JUMP JUMPDEST PUSH1 0x40 MLOAD PUSH3 0x461BCD PUSH1 0xE5 SHL DUP2 MSTORE PUSH1 0x20 PUSH1 0x4 DUP3 ADD MSTORE PUSH1 0x3 PUSH1 0x24 DUP3 ADD MSTORE PUSH3 0x10AAAB PUSH1 0xE9 SHL PUSH1 0x44 DUP3 ADD MSTORE PUSH1 0x64 ADD PUSH2 0x962 JUMP JUMPDEST POP POP POP POP JUMP JUMPDEST PUSH2 0x1FCD PUSH2 0x3EBD JUMP JUMPDEST PUSH0 JUMPDEST PUSH1 0xB SLOAD DUP2 LT ISZERO PUSH2 0x2370 JUMPI DUP2 PUSH1 0x1 PUSH1 0x1 PUSH1 0xA0 SHL SUB AND PUSH1 0xB DUP3 DUP2 SLOAD DUP2 LT PUSH2 0x1FF6 JUMPI PUSH2 0x1FF6 PUSH2 0x5D38 JUMP JUMPDEST PUSH0 SWAP2 DUP3 MSTORE PUSH1 0x20 SWAP1 SWAP2 KECCAK256 PUSH1 0x5 SWAP1 SWAP2 MUL ADD SLOAD PUSH1 0x1 PUSH1 0x1 PUSH1 0xA0 SHL SUB AND SUB PUSH2 0x2368 JUMPI PUSH0 PUSH1 0xB DUP3 DUP2 SLOAD DUP2 LT PUSH2 0x2028 JUMPI PUSH2 0x2028 PUSH2 0x5D38 JUMP JUMPDEST PUSH0 SWAP2 DUP3 MSTORE PUSH1 0x20 SWAP2 DUP3 SWAP1 KECCAK256 PUSH1 0x40 DUP1 MLOAD PUSH1 0xA0 DUP2 ADD DUP3 MSTORE PUSH1 0x5 SWAP1 SWAP4 MUL SWAP1 SWAP2 ADD DUP1 SLOAD PUSH1 0x1 PUSH1 0x1 PUSH1 0xA0 SHL SUB SWAP1 DUP2 AND DUP5 MSTORE PUSH1 0x1 DUP3 ADD SLOAD AND SWAP4 DUP4 ADD SWAP4 SWAP1 SWAP4 MSTORE PUSH1 0x2 DUP4 ADD SLOAD SWAP1 DUP3 ADD MSTORE PUSH1 0x3 DUP3 ADD DUP1 SLOAD SWAP2 SWAP3 SWAP2 PUSH1 0x60 DUP5 ADD SWAP2 SWAP1 PUSH2 0x2081 SWAP1 PUSH2 0x5D00 JUMP JUMPDEST DUP1 PUSH1 0x1F ADD PUSH1 0x20 DUP1 SWAP2 DIV MUL PUSH1 0x20 ADD PUSH1 0x40 MLOAD SWAP1 DUP2 ADD PUSH1 0x40 MSTORE DUP1 SWAP3 SWAP2 SWAP1 DUP2 DUP2 MSTORE PUSH1 0x20 ADD DUP3 DUP1 SLOAD PUSH2 0x20AD SWAP1 PUSH2 0x5D00 JUMP JUMPDEST DUP1 ISZERO PUSH2 0x20F8 JUMPI DUP1 PUSH1 0x1F LT PUSH2 0x20CF JUMPI PUSH2 0x100 DUP1 DUP4 SLOAD DIV MUL DUP4 MSTORE SWAP2 PUSH1 0x20 ADD SWAP2 PUSH2 0x20F8 JUMP JUMPDEST DUP3 ADD SWAP2 SWAP1 PUSH0 MSTORE PUSH1 0x20 PUSH0 KECCAK256 SWAP1 JUMPDEST DUP2 SLOAD DUP2 MSTORE SWAP1 PUSH1 0x1 ADD SWAP1 PUSH1 0x20 ADD DUP1 DUP4 GT PUSH2 0x20DB JUMPI DUP3 SWAP1 SUB PUSH1 0x1F AND DUP3 ADD SWAP2 JUMPDEST POP POP POP SWAP2 DUP4 MSTORE POP POP PUSH1 0x4 SWAP2 DUP3 ADD SLOAD PUSH3 0xFFFFFF AND PUSH1 0x20 SWAP2 DUP3 ADD MSTORE PUSH1 0x40 DUP1 DUP5 ADD MLOAD SWAP2 DUP5 ADD MLOAD PUSH1 0x60 DUP6 ADD MLOAD PUSH1 0x80 DUP7 ADD MLOAD SWAP3 MLOAD PUSH4 0x1CE07AE9 PUSH1 0xE1 SHL DUP2 MSTORE SWAP6 SWAP7 POP ADDRESS SWAP6 PUSH4 0x39C0F5D2 SWAP6 PUSH2 0x214B SWAP5 DUP7 SWAP4 SWAP3 SWAP1 SWAP2 ADD PUSH2 0x5956 JUMP JUMPDEST PUSH0 PUSH1 0x40 MLOAD DUP1 DUP4 SUB DUP2 DUP6 DUP9 DUP1 EXTCODESIZE ISZERO DUP1 ISZERO PUSH2 0x2162 JUMPI PUSH0 DUP1 REVERT JUMPDEST POP GAS CALL SWAP4 POP POP POP POP DUP1 ISZERO PUSH2 0x2174 JUMPI POP PUSH1 0x1 JUMPDEST PUSH2 0x2334 JUMPI PUSH1 0x40 DUP1 MLOAD PUSH1 0xA0 DUP2 ADD DUP3 MSTORE CALLER DUP2 MSTORE PUSH1 0x20 DUP4 DUP2 ADD MLOAD PUSH1 0x1 PUSH1 0x1 PUSH1 0xA0 SHL SUB SWAP1 DUP2 AND SWAP2 DUP4 ADD SWAP2 DUP3 MSTORE DUP5 DUP5 ADD MLOAD SWAP4 DUP4 ADD SWAP4 DUP5 MSTORE PUSH1 0x60 DUP1 DUP7 ADD MLOAD SWAP1 DUP5 ADD SWAP1 DUP2 MSTORE PUSH1 0x80 DUP1 DUP8 ADD MLOAD PUSH3 0xFFFFFF AND SWAP1 DUP6 ADD MSTORE PUSH1 0xB DUP1 SLOAD PUSH1 0x1 DUP2 ADD DUP3 SSTORE PUSH0 SWAP2 SWAP1 SWAP2 MSTORE DUP5 MLOAD PUSH1 0x5 SWAP1 SWAP2 MUL PUSH32 0x175B7A638427703F0DBE7BB9BBF987A2551717B34E79F33B5B1008D1FA01DB9 DUP2 ADD DUP1 SLOAD SWAP3 DUP6 AND PUSH1 0x1 PUSH1 0x1 PUSH1 0xA0 SHL SUB NOT SWAP4 DUP5 AND OR DUP2 SSTORE SWAP5 MLOAD PUSH32 0x175B7A638427703F0DBE7BB9BBF987A2551717B34E79F33B5B1008D1FA01DBA DUP3 ADD DUP1 SLOAD SWAP2 SWAP1 SWAP6 AND SWAP3 AND SWAP2 SWAP1 SWAP2 OR SWAP1 SWAP3 SSTORE SWAP4 MLOAD PUSH32 0x175B7A638427703F0DBE7BB9BBF987A2551717B34E79F33B5B1008D1FA01DBB DUP3 ADD SSTORE SWAP3 MLOAD SWAP2 SWAP3 SWAP1 SWAP2 PUSH32 0x175B7A638427703F0DBE7BB9BBF987A2551717B34E79F33B5B1008D1FA01DBC SWAP1 SWAP2 ADD SWAP1 PUSH2 0x229D SWAP1 DUP3 PUSH2 0x60EE JUMP JUMPDEST POP PUSH1 0x80 SWAP2 SWAP1 SWAP2 ADD MLOAD PUSH1 0x4 SWAP1 SWAP2 ADD DUP1 SLOAD PUSH3 0xFFFFFF NOT AND PUSH3 0xFFFFFF SWAP1 SWAP3 AND SWAP2 SWAP1 SWAP2 OR SWAP1 SSTORE CALLER PUSH0 SWAP1 DUP2 MSTORE PUSH1 0xC PUSH1 0x20 MSTORE PUSH1 0x40 DUP2 KECCAK256 DUP1 SLOAD SWAP2 PUSH2 0x22D9 DUP4 PUSH2 0x61AB JUMP JUMPDEST SWAP2 SWAP1 POP SSTORE POP CALLER PUSH1 0x1 PUSH1 0x1 PUSH1 0xA0 SHL SUB AND PUSH32 0xB301E8C1D1E07ED6209DB6D6CC98B8F845197CB3A52A5C0502CA2DF8316E6929 DUP3 PUSH1 0x20 ADD MLOAD DUP4 PUSH1 0x40 ADD MLOAD DUP5 PUSH1 0x60 ADD MLOAD PUSH1 0x40 MLOAD PUSH2 0x2327 SWAP4 SWAP3 SWAP2 SWAP1 PUSH2 0x61C3 JUMP JUMPDEST PUSH1 0x40 MLOAD DUP1 SWAP2 SUB SWAP1 LOG2 PUSH2 0x2366 JUMP JUMPDEST PUSH2 0x233D DUP3 PUSH2 0x466B JUMP JUMPDEST PUSH1 0x1 PUSH1 0x1 PUSH1 0xA0 SHL SUB DUP4 AND PUSH0 SWAP1 DUP2 MSTORE PUSH1 0xC PUSH1 0x20 MSTORE PUSH1 0x40 DUP2 KECCAK256 DUP1 SLOAD SWAP2 PUSH2 0x2360 DUP4 PUSH2 0x61E9 JUMP JUMPDEST SWAP2 SWAP1 POP SSTORE POP JUMPDEST POP JUMPDEST PUSH1 0x1 ADD PUSH2 0x1FCF JUMP JUMPDEST POP POP JUMP JUMPDEST PUSH2 0x237C PUSH2 0x3EBD JUMP JUMPDEST PUSH2 0x2384 PUSH2 0x47C7 JUMP JUMPDEST PUSH1 0x40 MLOAD CALLER DUP2 MSTORE PUSH32 0x5DB9EE0A495BF2E6FF9C91A7834C1BA4FDD244A5E8AA4E537BD38AEAE4B073AA SWAP1 PUSH1 0x20 ADD JUMPDEST PUSH1 0x40 MLOAD DUP1 SWAP2 SUB SWAP1 LOG1 JUMP JUMPDEST PUSH2 0x23C2 PUSH2 0x3EBD JUMP JUMPDEST PUSH1 0x1 PUSH1 0x1 PUSH1 0xA0 SHL SUB DUP3 AND PUSH0 DUP2 DUP2 MSTORE PUSH1 0xA PUSH1 0x20 SWAP1 DUP2 MSTORE PUSH1 0x40 SWAP2 DUP3 SWAP1 KECCAK256 DUP1 SLOAD PUSH1 0xFF NOT AND DUP6 ISZERO ISZERO SWAP1 DUP2 OR SWAP1 SWAP2 SSTORE SWAP2 MLOAD SWAP2 DUP3 MSTORE PUSH32 0xA54714518C5D275FDCD3D2A461E4858E4E8CB04FB93CD0BCA9D6D34115F26440 SWAP2 ADD PUSH1 0x40 MLOAD DUP1 SWAP2 SUB SWAP1 LOG2 POP POP JUMP JUMPDEST PUSH1 0x6 SLOAD DUP2 MLOAD PUSH0 SWAP2 EQ PUSH2 0x2464 JUMPI PUSH1 0x40 MLOAD PUSH3 0x461BCD PUSH1 0xE5 SHL DUP2 MSTORE PUSH1 0x20 PUSH1 0x4 DUP3 ADD MSTORE PUSH1 0xD PUSH1 0x24 DUP3 ADD MSTORE PUSH13 0x42E0E4D2C6CAE6D8CADCCEE8D PUSH1 0x9B SHL PUSH1 0x44 DUP3 ADD MSTORE PUSH1 0x64 ADD PUSH2 0x962 JUMP JUMPDEST PUSH0 DUP1 JUMPDEST PUSH1 0x6 SLOAD DUP2 LT ISZERO PUSH2 0x2545 JUMPI PUSH0 PUSH1 0x6 DUP3 DUP2 SLOAD DUP2 LT PUSH2 0x2485 JUMPI PUSH2 0x2485 PUSH2 0x5D38 JUMP JUMPDEST PUSH0 SWAP2 DUP3 MSTORE PUSH1 0x20 DUP3 KECCAK256 PUSH1 0x4 SWAP2 DUP3 MUL ADD DUP1 SLOAD PUSH1 0x40 MLOAD PUSH4 0x70A08231 PUSH1 0xE0 SHL DUP2 MSTORE ADDRESS SWAP4 DUP2 ADD SWAP4 SWAP1 SWAP4 MSTORE SWAP1 SWAP4 POP PUSH1 0x1 PUSH1 0x1 PUSH1 0xA0 SHL SUB AND SWAP1 PUSH4 0x70A08231 SWAP1 PUSH1 0x24 ADD PUSH1 0x20 PUSH1 0x40 MLOAD DUP1 DUP4 SUB DUP2 DUP7 GAS STATICCALL ISZERO DUP1 ISZERO PUSH2 0x24DB JUMPI RETURNDATASIZE PUSH0 DUP1 RETURNDATACOPY RETURNDATASIZE PUSH0 REVERT JUMPDEST POP POP POP POP PUSH1 0x40 MLOAD RETURNDATASIZE PUSH1 0x1F NOT PUSH1 0x1F DUP3 ADD AND DUP3 ADD DUP1 PUSH1 0x40 MSTORE POP DUP2 ADD SWAP1 PUSH2 0x24FF SWAP2 SWAP1 PUSH2 0x5D4C JUMP JUMPDEST SWAP1 POP PUSH0 DUP7 DUP5 DUP2 MLOAD DUP2 LT PUSH2 0x2514 JUMPI PUSH2 0x2514 PUSH2 0x5D38 JUMP JUMPDEST PUSH1 0x20 MUL PUSH1 0x20 ADD ADD MLOAD SWAP1 POP DUP1 DUP3 PUSH2 0x252A SWAP2 SWAP1 PUSH2 0x5D77 JUMP JUMPDEST PUSH2 0x2534 SWAP1 DUP7 PUSH2 0x5F08 JUMP JUMPDEST SWAP5 POP POP PUSH1 0x1 SWAP1 SWAP3 ADD SWAP2 POP PUSH2 0x2467 SWAP1 POP JUMP JUMPDEST POP SWAP3 SWAP2 POP POP JUMP JUMPDEST PUSH2 0x2554 PUSH2 0x3EBD JUMP JUMPDEST DUP7 DUP6 EQ DUP1 ISZERO PUSH2 0x2562 JUMPI POP DUP7 DUP4 EQ JUMPDEST DUP1 ISZERO PUSH2 0x256D JUMPI POP DUP7 DUP2 EQ JUMPDEST PUSH2 0x25A8 JUMPI PUSH1 0x40 MLOAD PUSH3 0x461BCD PUSH1 0xE5 SHL DUP2 MSTORE PUSH1 0x20 PUSH1 0x4 DUP3 ADD MSTORE PUSH1 0xC PUSH1 0x24 DUP3 ADD MSTORE PUSH12 0x214D6973736C656E67746873 PUSH1 0xA0 SHL PUSH1 0x44 DUP3 ADD MSTORE PUSH1 0x64 ADD PUSH2 0x962 JUMP JUMPDEST PUSH0 JUMPDEST DUP8 DUP2 LT ISZERO PUSH2 0x2779 JUMPI PUSH2 0x2710 DUP8 DUP8 DUP4 DUP2 DUP2 LT PUSH2 0x25C7 JUMPI PUSH2 0x25C7 PUSH2 0x5D38 JUMP JUMPDEST SWAP1 POP PUSH1 0x20 MUL ADD CALLDATALOAD GT ISZERO PUSH2 0x260A JUMPI PUSH1 0x40 MLOAD PUSH3 0x461BCD PUSH1 0xE5 SHL DUP2 MSTORE PUSH1 0x20 PUSH1 0x4 DUP3 ADD MSTORE PUSH1 0xB PUSH1 0x24 DUP3 ADD MSTORE PUSH11 0x2170657263656E74616765 PUSH1 0xA8 SHL PUSH1 0x44 DUP3 ADD MSTORE PUSH1 0x64 ADD PUSH2 0x962 JUMP JUMPDEST PUSH1 0x6 PUSH1 0x40 MLOAD DUP1 PUSH1 0x80 ADD PUSH1 0x40 MSTORE DUP1 DUP12 DUP12 DUP6 DUP2 DUP2 LT PUSH2 0x2629 JUMPI PUSH2 0x2629 PUSH2 0x5D38 JUMP JUMPDEST SWAP1 POP PUSH1 0x20 MUL ADD PUSH1 0x20 DUP2 ADD SWAP1 PUSH2 0x263E SWAP2 SWAP1 PUSH2 0x5992 JUMP JUMPDEST PUSH1 0x1 PUSH1 0x1 PUSH1 0xA0 SHL SUB AND DUP2 MSTORE PUSH1 0x20 ADD DUP10 DUP10 DUP6 DUP2 DUP2 LT PUSH2 0x265E JUMPI PUSH2 0x265E PUSH2 0x5D38 JUMP JUMPDEST SWAP1 POP PUSH1 0x20 MUL ADD CALLDATALOAD DUP2 MSTORE PUSH1 0x20 ADD DUP8 DUP8 DUP6 DUP2 DUP2 LT PUSH2 0x267C JUMPI PUSH2 0x267C PUSH2 0x5D38 JUMP JUMPDEST SWAP1 POP PUSH1 0x20 MUL DUP2 ADD SWAP1 PUSH2 0x268E SWAP2 SWAP1 PUSH2 0x61FE JUMP JUMPDEST DUP1 DUP1 PUSH1 0x1F ADD PUSH1 0x20 DUP1 SWAP2 DIV MUL PUSH1 0x20 ADD PUSH1 0x40 MLOAD SWAP1 DUP2 ADD PUSH1 0x40 MSTORE DUP1 SWAP4 SWAP3 SWAP2 SWAP1 DUP2 DUP2 MSTORE PUSH1 0x20 ADD DUP4 DUP4 DUP1 DUP3 DUP5 CALLDATACOPY PUSH0 SWAP3 ADD SWAP2 SWAP1 SWAP2 MSTORE POP POP POP SWAP1 DUP3 MSTORE POP PUSH1 0x20 ADD DUP6 DUP6 DUP6 DUP2 DUP2 LT PUSH2 0x26D9 JUMPI PUSH2 0x26D9 PUSH2 0x5D38 JUMP JUMPDEST SWAP1 POP PUSH1 0x20 MUL ADD PUSH1 0x20 DUP2 ADD SWAP1 PUSH2 0x26EE SWAP2 SWAP1 PUSH2 0x6240 JUMP JUMPDEST PUSH3 0xFFFFFF AND SWAP1 MSTORE DUP2 SLOAD PUSH1 0x1 DUP1 DUP3 ADD DUP5 SSTORE PUSH0 SWAP4 DUP5 MSTORE PUSH1 0x20 SWAP4 DUP5 SWAP1 KECCAK256 DUP4 MLOAD PUSH1 0x4 SWAP1 SWAP4 MUL ADD DUP1 SLOAD PUSH1 0x1 PUSH1 0x1 PUSH1 0xA0 SHL SUB NOT AND PUSH1 0x1 PUSH1 0x1 PUSH1 0xA0 SHL SUB SWAP1 SWAP4 AND SWAP3 SWAP1 SWAP3 OR DUP3 SSTORE SWAP3 DUP3 ADD MLOAD SWAP3 DUP2 ADD SWAP3 SWAP1 SWAP3 SSTORE PUSH1 0x40 DUP2 ADD MLOAD SWAP1 SWAP2 SWAP1 PUSH1 0x2 DUP3 ADD SWAP1 PUSH2 0x274F SWAP1 DUP3 PUSH2 0x60EE JUMP JUMPDEST POP PUSH1 0x60 SWAP2 SWAP1 SWAP2 ADD MLOAD PUSH1 0x3 SWAP1 SWAP2 ADD DUP1 SLOAD PUSH3 0xFFFFFF NOT AND PUSH3 0xFFFFFF SWAP1 SWAP3 AND SWAP2 SWAP1 SWAP2 OR SWAP1 SSTORE PUSH1 0x1 ADD PUSH2 0x25AA JUMP JUMPDEST POP POP POP POP POP POP POP POP POP JUMP JUMPDEST PUSH2 0x278C PUSH2 0x3EBD JUMP JUMPDEST PUSH2 0x2795 PUSH0 PUSH2 0x4816 JUMP JUMPDEST JUMP JUMPDEST PUSH2 0x279F PUSH2 0x3EBD JUMP JUMPDEST PUSH2 0x27A7 PUSH2 0x3FCD JUMP JUMPDEST PUSH1 0x6 SLOAD DUP2 MLOAD EQ PUSH2 0x27DF JUMPI PUSH1 0x40 MLOAD PUSH3 0x461BCD PUSH1 0xE5 SHL DUP2 MSTORE PUSH1 0x20 PUSH1 0x4 DUP3 ADD MSTORE PUSH1 0x3 PUSH1 0x24 DUP3 ADD MSTORE PUSH3 0x85413 PUSH1 0xEA SHL PUSH1 0x44 DUP3 ADD MSTORE PUSH1 0x64 ADD PUSH2 0x962 JUMP JUMPDEST PUSH0 PUSH2 0x27E9 DUP3 PUSH2 0x2420 JUMP JUMPDEST SWAP1 POP PUSH0 DUP2 GT PUSH2 0x2822 JUMPI PUSH1 0x40 MLOAD PUSH3 0x461BCD PUSH1 0xE5 SHL DUP2 MSTORE PUSH1 0x20 PUSH1 0x4 DUP3 ADD MSTORE PUSH1 0x5 PUSH1 0x24 DUP3 ADD MSTORE PUSH5 0x7476213D3 PUSH1 0xDC SHL PUSH1 0x44 DUP3 ADD MSTORE PUSH1 0x64 ADD PUSH2 0x962 JUMP JUMPDEST PUSH0 JUMPDEST PUSH1 0x6 SLOAD DUP2 LT ISZERO PUSH2 0x2B7A JUMPI PUSH0 PUSH1 0x6 DUP3 DUP2 SLOAD DUP2 LT PUSH2 0x2842 JUMPI PUSH2 0x2842 PUSH2 0x5D38 JUMP JUMPDEST SWAP1 PUSH0 MSTORE PUSH1 0x20 PUSH0 KECCAK256 SWAP1 PUSH1 0x4 MUL ADD SWAP1 POP PUSH0 PUSH2 0x2866 DUP6 DUP5 DUP2 MLOAD DUP2 LT PUSH2 0xA72 JUMPI PUSH2 0xA72 PUSH2 0x5D38 JUMP JUMPDEST SWAP1 POP PUSH0 DUP2 GT PUSH2 0x28A0 JUMPI PUSH1 0x40 MLOAD PUSH3 0x461BCD PUSH1 0xE5 SHL DUP2 MSTORE PUSH1 0x4 ADD PUSH2 0x962 SWAP1 PUSH1 0x20 DUP1 DUP3 MSTORE PUSH1 0x4 SWAP1 DUP3 ADD MSTORE PUSH4 0x63703E3 PUSH1 0xE4 SHL PUSH1 0x40 DUP3 ADD MSTORE PUSH1 0x60 ADD SWAP1 JUMP JUMPDEST PUSH0 DUP5 PUSH2 0x28AE DUP4 PUSH2 0x2710 PUSH2 0x5D77 JUMP JUMPDEST PUSH2 0x28B8 SWAP2 SWAP1 PUSH2 0x5D8E JUMP JUMPDEST SWAP1 POP DUP3 PUSH1 0x1 ADD SLOAD DUP2 GT ISZERO PUSH2 0x2A0C JUMPI PUSH0 DUP4 PUSH1 0x1 ADD SLOAD DUP3 PUSH2 0x28D7 SWAP2 SWAP1 PUSH2 0x5F1B JUMP JUMPDEST SWAP1 POP PUSH0 PUSH2 0x2710 PUSH2 0x28E7 DUP9 DUP5 PUSH2 0x5D77 JUMP JUMPDEST PUSH2 0x28F1 SWAP2 SWAP1 PUSH2 0x5D8E JUMP JUMPDEST SWAP1 POP PUSH0 DUP9 DUP8 DUP2 MLOAD DUP2 LT PUSH2 0x2906 JUMPI PUSH2 0x2906 PUSH2 0x5D38 JUMP JUMPDEST PUSH1 0x20 MUL PUSH1 0x20 ADD ADD MLOAD DUP3 PUSH2 0x2919 SWAP2 SWAP1 PUSH2 0x5D8E JUMP JUMPDEST SWAP1 POP PUSH0 DUP2 GT PUSH2 0x2956 JUMPI PUSH1 0x40 MLOAD PUSH3 0x461BCD PUSH1 0xE5 SHL DUP2 MSTORE PUSH1 0x20 PUSH1 0x4 DUP3 ADD MSTORE PUSH1 0x9 PUSH1 0x24 DUP3 ADD MSTORE PUSH9 0x616D6F756E743E3053 PUSH1 0xB8 SHL PUSH1 0x44 DUP3 ADD MSTORE PUSH1 0x64 ADD PUSH2 0x962 JUMP JUMPDEST DUP6 SLOAD PUSH1 0x2 DUP8 ADD DUP1 SLOAD PUSH2 0x2A03 SWAP3 PUSH1 0x1 PUSH1 0x1 PUSH1 0xA0 SHL SUB AND SWAP2 DUP5 SWAP2 PUSH2 0x2977 SWAP1 PUSH2 0x5D00 JUMP JUMPDEST DUP1 PUSH1 0x1F ADD PUSH1 0x20 DUP1 SWAP2 DIV MUL PUSH1 0x20 ADD PUSH1 0x40 MLOAD SWAP1 DUP2 ADD PUSH1 0x40 MSTORE DUP1 SWAP3 SWAP2 SWAP1 DUP2 DUP2 MSTORE PUSH1 0x20 ADD DUP3 DUP1 SLOAD PUSH2 0x29A3 SWAP1 PUSH2 0x5D00 JUMP JUMPDEST DUP1 ISZERO PUSH2 0x29EE JUMPI DUP1 PUSH1 0x1F LT PUSH2 0x29C5 JUMPI PUSH2 0x100 DUP1 DUP4 SLOAD DIV MUL DUP4 MSTORE SWAP2 PUSH1 0x20 ADD SWAP2 PUSH2 0x29EE JUMP JUMPDEST DUP3 ADD SWAP2 SWAP1 PUSH0 MSTORE PUSH1 0x20 PUSH0 KECCAK256 SWAP1 JUMPDEST DUP2 SLOAD DUP2 MSTORE SWAP1 PUSH1 0x1 ADD SWAP1 PUSH1 0x20 ADD DUP1 DUP4 GT PUSH2 0x29D1 JUMPI DUP3 SWAP1 SUB PUSH1 0x1F AND DUP3 ADD SWAP2 JUMPDEST POP POP POP POP PUSH1 0x3 DUP12 ADD SLOAD PUSH3 0xFFFFFF AND SWAP1 POP PUSH2 0x4865 JUMP JUMPDEST POP POP POP POP PUSH2 0x2B6F JUMP JUMPDEST DUP3 PUSH1 0x1 ADD SLOAD DUP2 LT ISZERO PUSH2 0x2B6F JUMPI PUSH0 DUP2 DUP5 PUSH1 0x1 ADD SLOAD PUSH2 0x2A29 SWAP2 SWAP1 PUSH2 0x5F1B JUMP JUMPDEST SWAP1 POP PUSH0 PUSH2 0x2710 PUSH2 0x2A39 DUP9 DUP5 PUSH2 0x5D77 JUMP JUMPDEST PUSH2 0x2A43 SWAP2 SWAP1 PUSH2 0x5D8E JUMP JUMPDEST SWAP1 POP PUSH0 DUP9 DUP8 DUP2 MLOAD DUP2 LT PUSH2 0x2A58 JUMPI PUSH2 0x2A58 PUSH2 0x5D38 JUMP JUMPDEST PUSH1 0x20 MUL PUSH1 0x20 ADD ADD MLOAD DUP3 PUSH2 0x2A6B SWAP2 SWAP1 PUSH2 0x5D8E JUMP JUMPDEST SWAP1 POP PUSH0 DUP2 GT PUSH2 0x2AA8 JUMPI PUSH1 0x40 MLOAD PUSH3 0x461BCD PUSH1 0xE5 SHL DUP2 MSTORE PUSH1 0x20 PUSH1 0x4 DUP3 ADD MSTORE PUSH1 0x9 PUSH1 0x24 DUP3 ADD MSTORE PUSH9 0x30B6B7BAB73A1F1821 PUSH1 0xB9 SHL PUSH1 0x44 DUP3 ADD MSTORE PUSH1 0x64 ADD PUSH2 0x962 JUMP JUMPDEST PUSH0 PUSH1 0x13 SLOAD GT DUP1 PUSH2 0x2AB9 JUMPI POP PUSH0 PUSH1 0x14 SLOAD GT JUMPDEST ISZERO PUSH2 0x2B6B JUMPI DUP6 SLOAD PUSH1 0x2 DUP8 ADD DUP1 SLOAD PUSH2 0x2B6B SWAP3 PUSH1 0x1 PUSH1 0x1 PUSH1 0xA0 SHL SUB AND SWAP2 DUP5 SWAP2 PUSH2 0x2ADF SWAP1 PUSH2 0x5D00 JUMP JUMPDEST DUP1 PUSH1 0x1F ADD PUSH1 0x20 DUP1 SWAP2 DIV MUL PUSH1 0x20 ADD PUSH1 0x40 MLOAD SWAP1 DUP2 ADD PUSH1 0x40 MSTORE DUP1 SWAP3 SWAP2 SWAP1 DUP2 DUP2 MSTORE PUSH1 0x20 ADD DUP3 DUP1 SLOAD PUSH2 0x2B0B SWAP1 PUSH2 0x5D00 JUMP JUMPDEST DUP1 ISZERO PUSH2 0x2B56 JUMPI DUP1 PUSH1 0x1F LT PUSH2 0x2B2D JUMPI PUSH2 0x100 DUP1 DUP4 SLOAD DIV MUL DUP4 MSTORE SWAP2 PUSH1 0x20 ADD SWAP2 PUSH2 0x2B56 JUMP JUMPDEST DUP3 ADD SWAP2 SWAP1 PUSH0 MSTORE PUSH1 0x20 PUSH0 KECCAK256 SWAP1 JUMPDEST DUP2 SLOAD DUP2 MSTORE SWAP1 PUSH1 0x1 ADD SWAP1 PUSH1 0x20 ADD DUP1 DUP4 GT PUSH2 0x2B39 JUMPI DUP3 SWAP1 SUB PUSH1 0x1F AND DUP3 ADD SWAP2 JUMPDEST POP POP POP POP PUSH1 0x3 DUP12 ADD SLOAD PUSH3 0xFFFFFF AND SWAP1 POP PUSH2 0x4D87 JUMP JUMPDEST POP POP POP JUMPDEST POP POP POP PUSH1 0x1 ADD PUSH2 0x2824 JUMP JUMPDEST POP PUSH1 0x40 MLOAD TIMESTAMP DUP2 MSTORE PUSH32 0xC306AF072396B02BF3A9782C10065CC7FF4AA842934A43F0B76F997B291237C8 SWAP1 PUSH1 0x20 ADD PUSH1 0x40 MLOAD DUP1 SWAP2 SUB SWAP1 LOG1 POP POP JUMP JUMPDEST PUSH2 0x2BBA PUSH2 0x3EBD JUMP JUMPDEST PUSH2 0x2BC2 PUSH2 0x53EB JUMP JUMPDEST PUSH1 0x40 MLOAD CALLER DUP2 MSTORE PUSH32 0x62E78CEA01BEE320CD4E420270B5EA74000D11B0C9F74754EBDBFC544B05A258 SWAP1 PUSH1 0x20 ADD PUSH2 0x23B0 JUMP JUMPDEST PUSH1 0x1 PUSH1 0x1 PUSH1 0xA0 SHL SUB DUP2 AND PUSH0 SWAP1 DUP2 MSTORE PUSH1 0xC PUSH1 0x20 MSTORE PUSH1 0x40 DUP2 KECCAK256 SLOAD PUSH1 0x60 SWAP2 SWAP1 PUSH1 0x1 PUSH1 0x1 PUSH1 0x40 SHL SUB DUP2 GT ISZERO PUSH2 0x2C25 JUMPI PUSH2 0x2C25 PUSH2 0x576A JUMP JUMPDEST PUSH1 0x40 MLOAD SWAP1 DUP1 DUP3 MSTORE DUP1 PUSH1 0x20 MUL PUSH1 0x20 ADD DUP3 ADD PUSH1 0x40 MSTORE DUP1 ISZERO PUSH2 0x2C7B JUMPI DUP2 PUSH1 0x20 ADD JUMPDEST PUSH1 0x40 DUP1 MLOAD PUSH1 0xA0 DUP2 ADD DUP3 MSTORE PUSH0 DUP1 DUP3 MSTORE PUSH1 0x20 DUP1 DUP4 ADD DUP3 SWAP1 MSTORE SWAP3 DUP3 ADD DUP2 SWAP1 MSTORE PUSH1 0x60 DUP1 DUP4 ADD MSTORE PUSH1 0x80 DUP3 ADD MSTORE DUP3 MSTORE PUSH0 NOT SWAP1 SWAP3 ADD SWAP2 ADD DUP2 PUSH2 0x2C43 JUMPI SWAP1 POP JUMPDEST POP SWAP1 POP PUSH0 DUP1 JUMPDEST PUSH1 0xB SLOAD DUP2 LT ISZERO PUSH2 0x2DF9 JUMPI DUP5 PUSH1 0x1 PUSH1 0x1 PUSH1 0xA0 SHL SUB AND PUSH1 0xB DUP3 DUP2 SLOAD DUP2 LT PUSH2 0x2CA8 JUMPI PUSH2 0x2CA8 PUSH2 0x5D38 JUMP JUMPDEST PUSH0 SWAP2 DUP3 MSTORE PUSH1 0x20 SWAP1 SWAP2 KECCAK256 PUSH1 0x5 SWAP1 SWAP2 MUL ADD SLOAD PUSH1 0x1 PUSH1 0x1 PUSH1 0xA0 SHL SUB AND SUB PUSH2 0x2DF1 JUMPI PUSH1 0xB DUP2 DUP2 SLOAD DUP2 LT PUSH2 0x2CD9 JUMPI PUSH2 0x2CD9 PUSH2 0x5D38 JUMP JUMPDEST PUSH0 SWAP2 DUP3 MSTORE PUSH1 0x20 SWAP2 DUP3 SWAP1 KECCAK256 PUSH1 0x40 DUP1 MLOAD PUSH1 0xA0 DUP2 ADD DUP3 MSTORE PUSH1 0x5 SWAP1 SWAP4 MUL SWAP1 SWAP2 ADD DUP1 SLOAD PUSH1 0x1 PUSH1 0x1 PUSH1 0xA0 SHL SUB SWAP1 DUP2 AND DUP5 MSTORE PUSH1 0x1 DUP3 ADD SLOAD AND SWAP4 DUP4 ADD SWAP4 SWAP1 SWAP4 MSTORE PUSH1 0x2 DUP4 ADD SLOAD SWAP1 DUP3 ADD MSTORE PUSH1 0x3 DUP3 ADD DUP1 SLOAD SWAP2 SWAP3 SWAP2 PUSH1 0x60 DUP5 ADD SWAP2 SWAP1 PUSH2 0x2D32 SWAP1 PUSH2 0x5D00 JUMP JUMPDEST DUP1 PUSH1 0x1F ADD PUSH1 0x20 DUP1 SWAP2 DIV MUL PUSH1 0x20 ADD PUSH1 0x40 MLOAD SWAP1 DUP2 ADD PUSH1 0x40 MSTORE DUP1 SWAP3 SWAP2 SWAP1 DUP2 DUP2 MSTORE PUSH1 0x20 ADD DUP3 DUP1 SLOAD PUSH2 0x2D5E SWAP1 PUSH2 0x5D00 JUMP JUMPDEST DUP1 ISZERO PUSH2 0x2DA9 JUMPI DUP1 PUSH1 0x1F LT PUSH2 0x2D80 JUMPI PUSH2 0x100 DUP1 DUP4 SLOAD DIV MUL DUP4 MSTORE SWAP2 PUSH1 0x20 ADD SWAP2 PUSH2 0x2DA9 JUMP JUMPDEST DUP3 ADD SWAP2 SWAP1 PUSH0 MSTORE PUSH1 0x20 PUSH0 KECCAK256 SWAP1 JUMPDEST DUP2 SLOAD DUP2 MSTORE SWAP1 PUSH1 0x1 ADD SWAP1 PUSH1 0x20 ADD DUP1 DUP4 GT PUSH2 0x2D8C JUMPI DUP3 SWAP1 SUB PUSH1 0x1F AND DUP3 ADD SWAP2 JUMPDEST POP POP POP SWAP2 DUP4 MSTORE POP POP PUSH1 0x4 SWAP2 SWAP1 SWAP2 ADD SLOAD PUSH3 0xFFFFFF AND PUSH1 0x20 SWAP1 SWAP2 ADD MSTORE DUP4 MLOAD DUP5 SWAP1 DUP5 SWAP1 DUP2 LT PUSH2 0x2DD7 JUMPI PUSH2 0x2DD7 PUSH2 0x5D38 JUMP JUMPDEST PUSH1 0x20 MUL PUSH1 0x20 ADD ADD DUP2 SWAP1 MSTORE POP DUP2 DUP1 PUSH2 0x2DED SWAP1 PUSH2 0x61AB JUMP JUMPDEST SWAP3 POP POP JUMPDEST PUSH1 0x1 ADD PUSH2 0x2C81 JUMP JUMPDEST POP SWAP1 SWAP4 SWAP3 POP POP POP JUMP JUMPDEST PUSH1 0x60 PUSH1 0x5 DUP1 SLOAD PUSH2 0x88A SWAP1 PUSH2 0x5D00 JUMP JUMPDEST PUSH2 0x2E19 PUSH2 0x3EBD JUMP JUMPDEST PUSH2 0x2710 DUP4 GT ISZERO PUSH2 0x2E56 JUMPI PUSH1 0x40 MLOAD PUSH3 0x461BCD PUSH1 0xE5 SHL DUP2 MSTORE PUSH1 0x20 PUSH1 0x4 DUP3 ADD MSTORE PUSH1 0x8 PUSH1 0x24 DUP3 ADD MSTORE PUSH8 0x21503E313030303 PUSH1 0xC4 SHL PUSH1 0x44 DUP3 ADD MSTORE PUSH1 0x64 ADD PUSH2 0x962 JUMP JUMPDEST PUSH0 DUP1 JUMPDEST PUSH1 0x6 SLOAD DUP2 LT ISZERO PUSH2 0x2F44 JUMPI DUP6 PUSH1 0x1 PUSH1 0x1 PUSH1 0xA0 SHL SUB AND PUSH1 0x6 DUP3 DUP2 SLOAD DUP2 LT PUSH2 0x2E80 JUMPI PUSH2 0x2E80 PUSH2 0x5D38 JUMP JUMPDEST PUSH0 SWAP2 DUP3 MSTORE PUSH1 0x20 SWAP1 SWAP2 KECCAK256 PUSH1 0x4 SWAP1 SWAP2 MUL ADD SLOAD PUSH1 0x1 PUSH1 0x1 PUSH1 0xA0 SHL SUB AND SUB PUSH2 0x2F3C JUMPI DUP5 PUSH1 0x6 DUP3 DUP2 SLOAD DUP2 LT PUSH2 0x2EB2 JUMPI PUSH2 0x2EB2 PUSH2 0x5D38 JUMP JUMPDEST SWAP1 PUSH0 MSTORE PUSH1 0x20 PUSH0 KECCAK256 SWAP1 PUSH1 0x4 MUL ADD PUSH1 0x1 ADD DUP2 SWAP1 SSTORE POP DUP4 PUSH1 0x6 DUP3 DUP2 SLOAD DUP2 LT PUSH2 0x2ED9 JUMPI PUSH2 0x2ED9 PUSH2 0x5D38 JUMP JUMPDEST SWAP1 PUSH0 MSTORE PUSH1 0x20 PUSH0 KECCAK256 SWAP1 PUSH1 0x4 MUL ADD PUSH1 0x2 ADD SWAP1 DUP2 PUSH2 0x2EF4 SWAP2 SWAP1 PUSH2 0x60EE JUMP JUMPDEST POP DUP3 PUSH1 0x6 DUP3 DUP2 SLOAD DUP2 LT PUSH2 0x2F09 JUMPI PUSH2 0x2F09 PUSH2 0x5D38 JUMP JUMPDEST SWAP1 PUSH0 MSTORE PUSH1 0x20 PUSH0 KECCAK256 SWAP1 PUSH1 0x4 MUL ADD PUSH1 0x3 ADD PUSH0 PUSH2 0x100 EXP DUP2 SLOAD DUP2 PUSH3 0xFFFFFF MUL NOT AND SWAP1 DUP4 PUSH3 0xFFFFFF AND MUL OR SWAP1 SSTORE POP PUSH1 0x1 SWAP2 POP PUSH2 0x2F44 JUMP JUMPDEST PUSH1 0x1 ADD PUSH2 0x2E59 JUMP JUMPDEST POP DUP1 PUSH2 0x2F7B JUMPI PUSH1 0x40 MLOAD PUSH3 0x461BCD PUSH1 0xE5 SHL DUP2 MSTORE PUSH1 0x20 PUSH1 0x4 DUP3 ADD MSTORE PUSH1 0x6 PUSH1 0x24 DUP3 ADD MSTORE PUSH6 0x10BA37B5B2B7 PUSH1 0xD1 SHL PUSH1 0x44 DUP3 ADD MSTORE PUSH1 0x64 ADD PUSH2 0x962 JUMP JUMPDEST POP POP POP POP POP JUMP JUMPDEST PUSH2 0x2F8A PUSH2 0x3EBD JUMP JUMPDEST PUSH1 0x11 SLOAD ISZERO PUSH2 0x3023 JUMPI PUSH1 0x11 SLOAD PUSH1 0x40 MLOAD PUSH0 SWAP2 PUSH1 0x1 PUSH1 0x1 PUSH1 0xA0 SHL SUB DUP5 AND SWAP2 DUP4 DUP2 DUP2 DUP2 DUP6 DUP8 GAS CALL SWAP3 POP POP POP RETURNDATASIZE DUP1 PUSH0 DUP2 EQ PUSH2 0x2FDB JUMPI PUSH1 0x40 MLOAD SWAP2 POP PUSH1 0x1F NOT PUSH1 0x3F RETURNDATASIZE ADD AND DUP3 ADD PUSH1 0x40 MSTORE RETURNDATASIZE DUP3 MSTORE RETURNDATASIZE PUSH0 PUSH1 0x20 DUP5 ADD RETURNDATACOPY PUSH2 0x2FE0 JUMP JUMPDEST PUSH1 0x60 SWAP2 POP JUMPDEST POP POP SWAP1 POP DUP1 PUSH2 0x301D JUMPI PUSH1 0x40 MLOAD PUSH3 0x461BCD PUSH1 0xE5 SHL DUP2 MSTORE PUSH1 0x20 PUSH1 0x4 DUP3 ADD MSTORE PUSH1 0x9 PUSH1 0x24 DUP3 ADD MSTORE PUSH9 0x8C8292988A888AA89 PUSH1 0xBB SHL PUSH1 0x44 DUP3 ADD MSTORE PUSH1 0x64 ADD PUSH2 0x962 JUMP JUMPDEST POP PUSH0 PUSH1 0x11 SSTORE JUMPDEST PUSH1 0x12 SLOAD ISZERO PUSH2 0x3110 JUMPI PUSH1 0x7 SLOAD PUSH1 0x40 DUP1 MLOAD PUSH4 0x15AB88C9 PUSH1 0xE3 SHL DUP2 MSTORE SWAP1 MLOAD PUSH0 SWAP3 PUSH1 0x1 PUSH1 0x1 PUSH1 0xA0 SHL SUB AND SWAP2 PUSH4 0xAD5C4648 SWAP2 PUSH1 0x4 DUP1 DUP4 ADD SWAP3 PUSH1 0x20 SWAP3 SWAP2 SWAP1 DUP3 SWAP1 SUB ADD DUP2 DUP7 GAS STATICCALL ISZERO DUP1 ISZERO PUSH2 0x3072 JUMPI RETURNDATASIZE PUSH0 DUP1 RETURNDATACOPY RETURNDATASIZE PUSH0 REVERT JUMPDEST POP POP POP POP PUSH1 0x40 MLOAD RETURNDATASIZE PUSH1 0x1F NOT PUSH1 0x1F DUP3 ADD AND DUP3 ADD DUP1 PUSH1 0x40 MSTORE POP DUP2 ADD SWAP1 PUSH2 0x3096 SWAP2 SWAP1 PUSH2 0x5DC9 JUMP JUMPDEST PUSH1 0x12 SLOAD PUSH1 0x40 MLOAD PUSH4 0xA9059CBB PUSH1 0xE0 SHL DUP2 MSTORE PUSH1 0x1 PUSH1 0x1 PUSH1 0xA0 SHL SUB DUP6 DUP2 AND PUSH1 0x4 DUP4 ADD MSTORE PUSH1 0x24 DUP3 ADD SWAP3 SWAP1 SWAP3 MSTORE SWAP2 SWAP3 POP DUP3 AND SWAP1 PUSH4 0xA9059CBB SWAP1 PUSH1 0x44 ADD PUSH1 0x20 PUSH1 0x40 MLOAD DUP1 DUP4 SUB DUP2 PUSH0 DUP8 GAS CALL ISZERO DUP1 ISZERO PUSH2 0x30E9 JUMPI RETURNDATASIZE PUSH0 DUP1 RETURNDATACOPY RETURNDATASIZE PUSH0 REVERT JUMPDEST POP POP POP POP PUSH1 0x40 MLOAD RETURNDATASIZE PUSH1 0x1F NOT PUSH1 0x1F DUP3 ADD AND DUP3 ADD DUP1 PUSH1 0x40 MSTORE POP DUP2 ADD SWAP1 PUSH2 0x310D SWAP2 SWAP1 PUSH2 0x5F2E JUMP JUMPDEST POP POP JUMPDEST POP JUMP JUMPDEST PUSH0 CALLER PUSH2 0x918 DUP2 DUP6 DUP6 PUSH2 0x3F70 JUMP JUMPDEST CALLER PUSH0 SWAP1 DUP2 MSTORE PUSH1 0xA PUSH1 0x20 MSTORE PUSH1 0x40 SWAP1 KECCAK256 SLOAD PUSH1 0xFF AND PUSH2 0x3167 JUMPI PUSH1 0x40 MLOAD PUSH3 0x461BCD PUSH1 0xE5 SHL DUP2 MSTORE PUSH1 0x4 ADD PUSH2 0x962 SWAP1 PUSH1 0x20 DUP1 DUP3 MSTORE PUSH1 0x4 SWAP1 DUP3 ADD MSTORE PUSH4 0x855D215 PUSH1 0xE2 SHL PUSH1 0x40 DUP3 ADD MSTORE PUSH1 0x60 ADD SWAP1 JUMP JUMPDEST PUSH2 0x316F PUSH2 0x3FCD JUMP JUMPDEST PUSH0 CALLVALUE GT PUSH2 0x31A4 JUMPI PUSH1 0x40 MLOAD PUSH3 0x461BCD PUSH1 0xE5 SHL DUP2 MSTORE PUSH1 0x20 PUSH1 0x4 DUP3 ADD MSTORE PUSH1 0x3 PUSH1 0x24 DUP3 ADD MSTORE PUSH3 0x414D47 PUSH1 0xE8 SHL PUSH1 0x44 DUP3 ADD MSTORE PUSH1 0x64 ADD PUSH2 0x962 JUMP JUMPDEST PUSH0 PUSH2 0x2710 PUSH1 0xE SLOAD CALLVALUE PUSH2 0x31B6 SWAP2 SWAP1 PUSH2 0x5D77 JUMP JUMPDEST PUSH2 0x31C0 SWAP2 SWAP1 PUSH2 0x5D8E JUMP JUMPDEST SWAP1 POP PUSH0 PUSH2 0x31CD DUP3 CALLVALUE PUSH2 0x5F1B JUMP JUMPDEST SWAP1 POP DUP2 PUSH1 0x11 PUSH0 DUP3 DUP3 SLOAD PUSH2 0x31E0 SWAP2 SWAP1 PUSH2 0x5F08 JUMP JUMPDEST SWAP1 SWAP2 SSTORE POP POP DUP1 PUSH2 0x3245 JUMPI PUSH1 0x40 MLOAD PUSH3 0x461BCD PUSH1 0xE5 SHL DUP2 MSTORE PUSH1 0x20 PUSH1 0x4 DUP3 ADD MSTORE PUSH1 0x2A PUSH1 0x24 DUP3 ADD MSTORE PUSH32 0x416D6F756E7420616674657220666565206D7573742062652067726561746572 PUSH1 0x44 DUP3 ADD MSTORE PUSH10 0x207468616E207A65726F PUSH1 0xB0 SHL PUSH1 0x64 DUP3 ADD MSTORE PUSH1 0x84 ADD PUSH2 0x962 JUMP JUMPDEST PUSH2 0x324F CALLER DUP3 PUSH2 0x542D JUMP JUMPDEST CALLER PUSH1 0x1 PUSH1 0x1 PUSH1 0xA0 SHL SUB AND PUSH32 0xA6F472AFE6167674A3B4324E83EB63D201D75A960D8A52BF808FEA91F960F117 DUP3 DUP4 PUSH1 0x40 MLOAD PUSH2 0x32AE SWAP3 SWAP2 SWAP1 SWAP2 DUP3 MSTORE PUSH1 0x20 DUP3 ADD MSTORE PUSH1 0x60 PUSH1 0x40 DUP3 ADD DUP2 SWAP1 MSTORE PUSH1 0x3 SWAP1 DUP3 ADD MSTORE PUSH3 0x4E2F41 PUSH1 0xE8 SHL PUSH1 0x80 DUP3 ADD MSTORE PUSH1 0xA0 ADD SWAP1 JUMP JUMPDEST PUSH1 0x40 MLOAD DUP1 SWAP2 SUB SWAP1 LOG2 PUSH0 JUMPDEST PUSH1 0x6 SLOAD DUP2 LT ISZERO PUSH2 0x310D JUMPI PUSH0 PUSH1 0x6 DUP3 DUP2 SLOAD DUP2 LT PUSH2 0x32D6 JUMPI PUSH2 0x32D6 PUSH2 0x5D38 JUMP JUMPDEST SWAP1 PUSH0 MSTORE PUSH1 0x20 PUSH0 KECCAK256 SWAP1 PUSH1 0x4 MUL ADD SWAP1 POP PUSH0 PUSH2 0x2710 DUP3 PUSH1 0x1 ADD SLOAD DUP6 PUSH2 0x32F8 SWAP2 SWAP1 PUSH2 0x5D77 JUMP JUMPDEST PUSH2 0x3302 SWAP2 SWAP1 PUSH2 0x5D8E JUMP JUMPDEST SWAP1 POP DUP4 DUP2 GT ISZERO PUSH2 0x3348 JUMPI PUSH1 0x40 MLOAD PUSH3 0x461BCD PUSH1 0xE5 SHL DUP2 MSTORE PUSH1 0x20 PUSH1 0x4 DUP3 ADD MSTORE PUSH1 0x11 PUSH1 0x24 DUP3 ADD MSTORE PUSH17 0x63616C4554483C3D616D6F756E74666565 PUSH1 0x78 SHL PUSH1 0x44 DUP3 ADD MSTORE PUSH1 0x64 ADD PUSH2 0x962 JUMP JUMPDEST DUP2 SLOAD PUSH1 0x3 DUP4 ADD SLOAD PUSH1 0x40 MLOAD PUSH4 0x1CE07AE9 PUSH1 0xE1 SHL DUP2 MSTORE ADDRESS SWAP3 PUSH4 0x39C0F5D2 SWAP3 DUP6 SWAP3 PUSH2 0x3389 SWAP3 PUSH1 0x1 PUSH1 0x1 PUSH1 0xA0 SHL SUB AND SWAP2 DUP5 SWAP2 PUSH1 0x2 DUP11 ADD SWAP2 PUSH3 0xFFFFFF AND SWAP1 PUSH1 0x4 ADD PUSH2 0x5E63 JUMP JUMPDEST PUSH0 PUSH1 0x40 MLOAD DUP1 DUP4 SUB DUP2 DUP6 DUP9 DUP1 EXTCODESIZE ISZERO DUP1 ISZERO PUSH2 0x33A0 JUMPI PUSH0 DUP1 REVERT JUMPDEST POP GAS CALL SWAP4 POP POP POP POP DUP1 ISZERO PUSH2 0x33B2 JUMPI POP PUSH1 0x1 JUMPDEST PUSH2 0x359D JUMPI CALLER PUSH0 SWAP1 DUP2 MSTORE PUSH1 0xD PUSH1 0x20 MSTORE PUSH1 0x40 DUP2 KECCAK256 DUP1 SLOAD DUP4 SWAP3 SWAP1 PUSH2 0x33D4 SWAP1 DUP5 SWAP1 PUSH2 0x5F08 JUMP JUMPDEST SWAP1 SWAP2 SSTORE POP POP PUSH1 0x40 DUP1 MLOAD PUSH1 0xA0 DUP2 ADD DUP3 MSTORE CALLER DUP2 MSTORE DUP4 SLOAD PUSH1 0x1 PUSH1 0x1 PUSH1 0xA0 SHL SUB AND PUSH1 0x20 DUP3 ADD MSTORE SWAP1 DUP2 ADD DUP3 SWAP1 MSTORE PUSH1 0x2 DUP4 ADD DUP1 SLOAD PUSH1 0xB SWAP3 SWAP2 PUSH1 0x60 DUP4 ADD SWAP2 PUSH2 0x3414 SWAP1 PUSH2 0x5D00 JUMP JUMPDEST DUP1 PUSH1 0x1F ADD PUSH1 0x20 DUP1 SWAP2 DIV MUL PUSH1 0x20 ADD PUSH1 0x40 MLOAD SWAP1 DUP2 ADD PUSH1 0x40 MSTORE DUP1 SWAP3 SWAP2 SWAP1 DUP2 DUP2 MSTORE PUSH1 0x20 ADD DUP3 DUP1 SLOAD PUSH2 0x3440 SWAP1 PUSH2 0x5D00 JUMP JUMPDEST DUP1 ISZERO PUSH2 0x348B JUMPI DUP1 PUSH1 0x1F LT PUSH2 0x3462 JUMPI PUSH2 0x100 DUP1 DUP4 SLOAD DIV MUL DUP4 MSTORE SWAP2 PUSH1 0x20 ADD SWAP2 PUSH2 0x348B JUMP JUMPDEST DUP3 ADD SWAP2 SWAP1 PUSH0 MSTORE PUSH1 0x20 PUSH0 KECCAK256 SWAP1 JUMPDEST DUP2 SLOAD DUP2 MSTORE SWAP1 PUSH1 0x1 ADD SWAP1 PUSH1 0x20 ADD DUP1 DUP4 GT PUSH2 0x346E JUMPI DUP3 SWAP1 SUB PUSH1 0x1F AND DUP3 ADD SWAP2 JUMPDEST POP POP POP SWAP2 DUP4 MSTORE POP POP PUSH1 0x3 DUP6 DUP2 ADD SLOAD PUSH3 0xFFFFFF AND PUSH1 0x20 SWAP3 DUP4 ADD MSTORE DUP4 SLOAD PUSH1 0x1 DUP1 DUP3 ADD DUP7 SSTORE PUSH0 SWAP6 DUP7 MSTORE SWAP5 DUP4 SWAP1 KECCAK256 DUP5 MLOAD PUSH1 0x5 SWAP1 SWAP3 MUL ADD DUP1 SLOAD PUSH1 0x1 PUSH1 0x1 PUSH1 0xA0 SHL SUB NOT SWAP1 DUP2 AND PUSH1 0x1 PUSH1 0x1 PUSH1 0xA0 SHL SUB SWAP4 DUP5 AND OR DUP3 SSTORE SWAP4 DUP6 ADD MLOAD SWAP6 DUP2 ADD DUP1 SLOAD SWAP1 SWAP5 AND SWAP6 SWAP1 SWAP2 AND SWAP5 SWAP1 SWAP5 OR SWAP1 SWAP2 SSTORE PUSH1 0x40 DUP3 ADD MLOAD PUSH1 0x2 DUP5 ADD SSTORE PUSH1 0x60 DUP3 ADD MLOAD SWAP2 SWAP3 SWAP2 SWAP1 DUP3 ADD SWAP1 PUSH2 0x3510 SWAP1 DUP3 PUSH2 0x60EE JUMP JUMPDEST POP PUSH1 0x80 SWAP2 SWAP1 SWAP2 ADD MLOAD PUSH1 0x4 SWAP1 SWAP2 ADD DUP1 SLOAD PUSH3 0xFFFFFF NOT AND PUSH3 0xFFFFFF SWAP1 SWAP3 AND SWAP2 SWAP1 SWAP2 OR SWAP1 SSTORE CALLER PUSH0 SWAP1 DUP2 MSTORE PUSH1 0xC PUSH1 0x20 MSTORE PUSH1 0x40 DUP2 KECCAK256 DUP1 SLOAD SWAP2 PUSH2 0x354C DUP4 PUSH2 0x61AB JUMP JUMPDEST SWAP1 SWAP2 SSTORE POP POP DUP2 SLOAD PUSH1 0x40 MLOAD CALLER SWAP2 PUSH32 0xB301E8C1D1E07ED6209DB6D6CC98B8F845197CB3A52A5C0502CA2DF8316E6929 SWAP2 PUSH2 0x3594 SWAP2 PUSH1 0x1 PUSH1 0x1 PUSH1 0xA0 SHL SUB AND SWAP1 DUP6 SWAP1 PUSH1 0x2 DUP9 ADD SWAP1 PUSH2 0x6259 JUMP JUMPDEST PUSH1 0x40 MLOAD DUP1 SWAP2 SUB SWAP1 LOG2 JUMPDEST POP POP PUSH1 0x1 ADD PUSH2 0x32B8 JUMP JUMPDEST PUSH0 PUSH1 0x40 MLOAD PUSH1 0x20 ADD PUSH2 0x35B7 SWAP1 PUSH2 0x5F49 JUMP JUMPDEST PUSH1 0x40 MLOAD PUSH1 0x20 DUP2 DUP4 SUB SUB DUP2 MSTORE SWAP1 PUSH1 0x40 MSTORE DUP1 MLOAD SWAP1 PUSH1 0x20 ADD KECCAK256 DUP4 PUSH1 0x40 MLOAD PUSH1 0x20 ADD PUSH2 0x35DE SWAP2 SWAP1 PUSH2 0x6094 JUMP JUMPDEST PUSH1 0x40 MLOAD PUSH1 0x20 DUP2 DUP4 SUB SUB DUP2 MSTORE SWAP1 PUSH1 0x40 MSTORE DUP1 MLOAD SWAP1 PUSH1 0x20 ADD KECCAK256 SUB PUSH2 0x379B JUMPI PUSH1 0x40 DUP1 MLOAD PUSH1 0x2 DUP1 DUP3 MSTORE PUSH1 0x60 DUP3 ADD DUP4 MSTORE PUSH0 SWAP3 PUSH1 0x20 DUP4 ADD SWAP1 DUP1 CALLDATASIZE DUP4 CALLDATACOPY ADD SWAP1 POP POP SWAP1 POP DUP6 DUP2 PUSH0 DUP2 MLOAD DUP2 LT PUSH2 0x362C JUMPI PUSH2 0x362C PUSH2 0x5D38 JUMP JUMPDEST PUSH1 0x1 PUSH1 0x1 PUSH1 0xA0 SHL SUB SWAP3 DUP4 AND PUSH1 0x20 SWAP2 DUP3 MUL SWAP3 SWAP1 SWAP3 ADD DUP2 ADD SWAP2 SWAP1 SWAP2 MSTORE PUSH1 0x7 SLOAD PUSH1 0x40 DUP1 MLOAD PUSH4 0x15AB88C9 PUSH1 0xE3 SHL DUP2 MSTORE SWAP1 MLOAD SWAP2 SWAP1 SWAP4 AND SWAP3 PUSH4 0xAD5C4648 SWAP3 PUSH1 0x4 DUP1 DUP4 ADD SWAP4 SWAP2 SWAP3 DUP3 SWAP1 SUB ADD DUP2 DUP7 GAS STATICCALL ISZERO DUP1 ISZERO PUSH2 0x3683 JUMPI RETURNDATASIZE PUSH0 DUP1 RETURNDATACOPY RETURNDATASIZE PUSH0 REVERT JUMPDEST POP POP POP POP PUSH1 0x40 MLOAD RETURNDATASIZE PUSH1 0x1F NOT PUSH1 0x1F DUP3 ADD AND DUP3 ADD DUP1 PUSH1 0x40 MSTORE POP DUP2 ADD SWAP1 PUSH2 0x36A7 SWAP2 SWAP1 PUSH2 0x5DC9 JUMP JUMPDEST DUP2 PUSH1 0x1 DUP2 MLOAD DUP2 LT PUSH2 0x36BA JUMPI PUSH2 0x36BA PUSH2 0x5D38 JUMP JUMPDEST PUSH1 0x1 PUSH1 0x1 PUSH1 0xA0 SHL SUB SWAP3 DUP4 AND PUSH1 0x20 SWAP2 DUP3 MUL SWAP3 SWAP1 SWAP3 ADD ADD MSTORE PUSH1 0x7 SLOAD PUSH1 0x40 MLOAD PUSH4 0xD06CA61F PUSH1 0xE0 SHL DUP2 MSTORE PUSH0 SWAP3 SWAP2 SWAP1 SWAP2 AND SWAP1 PUSH4 0xD06CA61F SWAP1 PUSH2 0x36FD SWAP1 DUP10 SWAP1 DUP7 SWAP1 PUSH1 0x4 ADD PUSH2 0x5F9A JUMP JUMPDEST PUSH0 PUSH1 0x40 MLOAD DUP1 DUP4 SUB DUP2 DUP7 GAS STATICCALL ISZERO DUP1 ISZERO PUSH2 0x3717 JUMPI RETURNDATASIZE PUSH0 DUP1 RETURNDATACOPY RETURNDATASIZE PUSH0 REVERT JUMPDEST POP POP POP POP PUSH1 0x40 MLOAD RETURNDATASIZE PUSH0 DUP3 RETURNDATACOPY PUSH1 0x1F RETURNDATASIZE SWAP1 DUP2 ADD PUSH1 0x1F NOT AND DUP3 ADD PUSH1 0x40 MSTORE PUSH2 0x373E SWAP2 SWAP1 DUP2 ADD SWAP1 PUSH2 0x5FB2 JUMP JUMPDEST SWAP1 POP PUSH0 PUSH2 0x2710 PUSH1 0x10 SLOAD PUSH2 0x2710 PUSH2 0x3754 SWAP2 SWAP1 PUSH2 0x5F1B JUMP JUMPDEST DUP4 PUSH1 0x1 DUP2 MLOAD DUP2 LT PUSH2 0x3767 JUMPI PUSH2 0x3767 PUSH2 0x5D38 JUMP JUMPDEST PUSH1 0x20 MUL PUSH1 0x20 ADD ADD MLOAD PUSH2 0x3779 SWAP2 SWAP1 PUSH2 0x5D77 JUMP JUMPDEST PUSH2 0x3783 SWAP2 SWAP1 PUSH2 0x5D8E JUMP JUMPDEST SWAP1 POP PUSH2 0x3791 DUP9 DUP9 DUP4 ADDRESS PUSH2 0x402B JUMP JUMPDEST SWAP4 POP POP POP POP PUSH2 0x3933 JUMP JUMPDEST PUSH1 0x40 MLOAD PUSH1 0x20 ADD PUSH2 0x37AA SWAP1 PUSH2 0x5E89 JUMP JUMPDEST PUSH1 0x40 MLOAD PUSH1 0x20 DUP2 DUP4 SUB SUB DUP2 MSTORE SWAP1 PUSH1 0x40 MSTORE DUP1 MLOAD SWAP1 PUSH1 0x20 ADD KECCAK256 DUP4 PUSH1 0x40 MLOAD PUSH1 0x20 ADD PUSH2 0x37D1 SWAP2 SWAP1 PUSH2 0x6094 JUMP JUMPDEST PUSH1 0x40 MLOAD PUSH1 0x20 DUP2 DUP4 SUB SUB DUP2 MSTORE SWAP1 PUSH1 0x40 MSTORE DUP1 MLOAD SWAP1 PUSH1 0x20 ADD KECCAK256 SUB PUSH2 0x1F91 JUMPI PUSH0 DUP6 DUP4 PUSH1 0x7 PUSH0 SWAP1 SLOAD SWAP1 PUSH2 0x100 EXP SWAP1 DIV PUSH1 0x1 PUSH1 0x1 PUSH1 0xA0 SHL SUB AND PUSH1 0x1 PUSH1 0x1 PUSH1 0xA0 SHL SUB AND PUSH4 0xAD5C4648 PUSH1 0x40 MLOAD DUP2 PUSH4 0xFFFFFFFF AND PUSH1 0xE0 SHL DUP2 MSTORE PUSH1 0x4 ADD PUSH1 0x20 PUSH1 0x40 MLOAD DUP1 DUP4 SUB DUP2 DUP7 GAS STATICCALL ISZERO DUP1 ISZERO PUSH2 0x383F JUMPI RETURNDATASIZE PUSH0 DUP1 RETURNDATACOPY RETURNDATASIZE PUSH0 REVERT JUMPDEST POP POP POP POP PUSH1 0x40 MLOAD RETURNDATASIZE PUSH1 0x1F NOT PUSH1 0x1F DUP3 ADD AND DUP3 ADD DUP1 PUSH1 0x40 MSTORE POP DUP2 ADD SWAP1 PUSH2 0x3863 SWAP2 SWAP1 PUSH2 0x5DC9 JUMP JUMPDEST PUSH1 0x40 MLOAD PUSH1 0x20 ADD PUSH2 0x3875 SWAP4 SWAP3 SWAP2 SWAP1 PUSH2 0x6038 JUMP JUMPDEST PUSH1 0x40 DUP1 MLOAD PUSH1 0x1F NOT DUP2 DUP5 SUB ADD DUP2 MSTORE SWAP1 DUP3 SWAP1 MSTORE PUSH1 0x9 SLOAD PUSH4 0xCDCA1753 PUSH1 0xE0 SHL DUP4 MSTORE SWAP1 SWAP3 POP PUSH0 SWAP2 PUSH1 0x1 PUSH1 0x1 PUSH1 0xA0 SHL SUB SWAP1 SWAP2 AND SWAP1 PUSH4 0xCDCA1753 SWAP1 PUSH2 0x38BA SWAP1 DUP6 SWAP1 DUP11 SWAP1 PUSH1 0x4 ADD PUSH2 0x6073 JUMP JUMPDEST PUSH1 0x20 PUSH1 0x40 MLOAD DUP1 DUP4 SUB DUP2 PUSH0 DUP8 GAS CALL ISZERO DUP1 ISZERO PUSH2 0x38D6 JUMPI RETURNDATASIZE PUSH0 DUP1 RETURNDATACOPY RETURNDATASIZE PUSH0 REVERT JUMPDEST POP POP POP POP PUSH1 0x40 MLOAD RETURNDATASIZE PUSH1 0x1F NOT PUSH1 0x1F DUP3 ADD AND DUP3 ADD DUP1 PUSH1 0x40 MSTORE POP DUP2 ADD SWAP1 PUSH2 0x38FA SWAP2 SWAP1 PUSH2 0x5D4C JUMP JUMPDEST SWAP1 POP PUSH0 PUSH2 0x2710 PUSH1 0x10 SLOAD PUSH2 0x2710 PUSH2 0x3910 SWAP2 SWAP1 PUSH2 0x5F1B JUMP JUMPDEST PUSH2 0x391A SWAP1 DUP5 PUSH2 0x5D77 JUMP JUMPDEST PUSH2 0x3924 SWAP2 SWAP1 PUSH2 0x5D8E JUMP JUMPDEST SWAP1 POP PUSH2 0x3791 DUP9 DUP9 DUP8 DUP5 ADDRESS PUSH2 0x4216 JUMP JUMPDEST SWAP5 SWAP4 POP POP POP POP JUMP JUMPDEST PUSH2 0x3943 PUSH2 0x3EBD JUMP JUMPDEST PUSH1 0x1 PUSH1 0x1 PUSH1 0xA0 SHL SUB DUP2 AND PUSH2 0x396C JUMPI PUSH1 0x40 MLOAD PUSH4 0x1E4FBDF7 PUSH1 0xE0 SHL DUP2 MSTORE PUSH0 PUSH1 0x4 DUP3 ADD MSTORE PUSH1 0x24 ADD PUSH2 0x962 JUMP JUMPDEST PUSH2 0x3110 DUP2 PUSH2 0x4816 JUMP JUMPDEST PUSH2 0x397D PUSH2 0x3EBD JUMP JUMPDEST PUSH0 DUP1 JUMPDEST PUSH1 0x6 SLOAD DUP2 LT ISZERO PUSH2 0x3E28 JUMPI PUSH0 PUSH1 0x6 DUP3 DUP2 SLOAD DUP2 LT PUSH2 0x399E JUMPI PUSH2 0x399E PUSH2 0x5D38 JUMP JUMPDEST PUSH0 SWAP2 DUP3 MSTORE PUSH1 0x20 DUP3 KECCAK256 PUSH1 0x4 SWAP2 DUP3 MUL ADD DUP1 SLOAD PUSH1 0x40 MLOAD PUSH4 0x70A08231 PUSH1 0xE0 SHL DUP2 MSTORE ADDRESS SWAP4 DUP2 ADD SWAP4 SWAP1 SWAP4 MSTORE SWAP1 SWAP4 POP PUSH1 0x1 PUSH1 0x1 PUSH1 0xA0 SHL SUB AND SWAP1 PUSH4 0x70A08231 SWAP1 PUSH1 0x24 ADD PUSH1 0x20 PUSH1 0x40 MLOAD DUP1 DUP4 SUB DUP2 DUP7 GAS STATICCALL ISZERO DUP1 ISZERO PUSH2 0x39F4 JUMPI RETURNDATASIZE PUSH0 DUP1 RETURNDATACOPY RETURNDATASIZE PUSH0 REVERT JUMPDEST POP POP POP POP PUSH1 0x40 MLOAD RETURNDATASIZE PUSH1 0x1F NOT PUSH1 0x1F DUP3 ADD AND DUP3 ADD DUP1 PUSH1 0x40 MSTORE POP DUP2 ADD SWAP1 PUSH2 0x3A18 SWAP2 SWAP1 PUSH2 0x5D4C JUMP JUMPDEST SWAP1 POP PUSH1 0x40 MLOAD PUSH1 0x20 ADD PUSH2 0x3A29 SWAP1 PUSH2 0x5F49 JUMP JUMPDEST PUSH1 0x40 MLOAD PUSH1 0x20 DUP2 DUP4 SUB SUB DUP2 MSTORE SWAP1 PUSH1 0x40 MSTORE DUP1 MLOAD SWAP1 PUSH1 0x20 ADD KECCAK256 DUP3 PUSH1 0x2 ADD PUSH1 0x40 MLOAD PUSH1 0x20 ADD PUSH2 0x3A53 SWAP2 SWAP1 PUSH2 0x5E97 JUMP JUMPDEST PUSH1 0x40 MLOAD PUSH1 0x20 DUP2 DUP4 SUB SUB DUP2 MSTORE SWAP1 PUSH1 0x40 MSTORE DUP1 MLOAD SWAP1 PUSH1 0x20 ADD KECCAK256 SUB PUSH2 0x3C31 JUMPI PUSH1 0x40 DUP1 MLOAD PUSH1 0x2 DUP1 DUP3 MSTORE PUSH1 0x60 DUP3 ADD DUP4 MSTORE PUSH0 SWAP3 PUSH1 0x20 DUP4 ADD SWAP1 DUP1 CALLDATASIZE DUP4 CALLDATACOPY POP POP DUP5 SLOAD DUP3 MLOAD SWAP3 SWAP4 POP PUSH1 0x1 PUSH1 0x1 PUSH1 0xA0 SHL SUB AND SWAP2 DUP4 SWAP2 POP PUSH0 SWAP1 PUSH2 0x3AAC JUMPI PUSH2 0x3AAC PUSH2 0x5D38 JUMP JUMPDEST PUSH1 0x1 PUSH1 0x1 PUSH1 0xA0 SHL SUB SWAP3 DUP4 AND PUSH1 0x20 SWAP2 DUP3 MUL SWAP3 SWAP1 SWAP3 ADD DUP2 ADD SWAP2 SWAP1 SWAP2 MSTORE PUSH1 0x7 SLOAD PUSH1 0x40 DUP1 MLOAD PUSH4 0x15AB88C9 PUSH1 0xE3 SHL DUP2 MSTORE SWAP1 MLOAD SWAP2 SWAP1 SWAP4 AND SWAP3 PUSH4 0xAD5C4648 SWAP3 PUSH1 0x4 DUP1 DUP4 ADD SWAP4 SWAP2 SWAP3 DUP3 SWAP1 SUB ADD DUP2 DUP7 GAS STATICCALL ISZERO DUP1 ISZERO PUSH2 0x3B03 JUMPI RETURNDATASIZE PUSH0 DUP1 RETURNDATACOPY RETURNDATASIZE PUSH0 REVERT JUMPDEST POP POP POP POP PUSH1 0x40 MLOAD RETURNDATASIZE PUSH1 0x1F NOT PUSH1 0x1F DUP3 ADD AND DUP3 ADD DUP1 PUSH1 0x40 MSTORE POP DUP2 ADD SWAP1 PUSH2 0x3B27 SWAP2 SWAP1 PUSH2 0x5DC9 JUMP JUMPDEST DUP2 PUSH1 0x1 DUP2 MLOAD DUP2 LT PUSH2 0x3B3A JUMPI PUSH2 0x3B3A PUSH2 0x5D38 JUMP JUMPDEST PUSH1 0x1 PUSH1 0x1 PUSH1 0xA0 SHL SUB SWAP3 DUP4 AND PUSH1 0x20 SWAP2 DUP3 MUL SWAP3 SWAP1 SWAP3 ADD ADD MSTORE PUSH1 0x7 SLOAD PUSH1 0x40 MLOAD PUSH4 0xD06CA61F PUSH1 0xE0 SHL DUP2 MSTORE PUSH0 SWAP3 SWAP2 SWAP1 SWAP2 AND SWAP1 PUSH4 0xD06CA61F SWAP1 PUSH2 0x3B7D SWAP1 DUP7 SWAP1 DUP7 SWAP1 PUSH1 0x4 ADD PUSH2 0x5F9A JUMP JUMPDEST PUSH0 PUSH1 0x40 MLOAD DUP1 DUP4 SUB DUP2 DUP7 GAS STATICCALL ISZERO DUP1 ISZERO PUSH2 0x3B97 JUMPI RETURNDATASIZE PUSH0 DUP1 RETURNDATACOPY RETURNDATASIZE PUSH0 REVERT JUMPDEST POP POP POP POP PUSH1 0x40 MLOAD RETURNDATASIZE PUSH0 DUP3 RETURNDATACOPY PUSH1 0x1F RETURNDATASIZE SWAP1 DUP2 ADD PUSH1 0x1F NOT AND DUP3 ADD PUSH1 0x40 MSTORE PUSH2 0x3BBE SWAP2 SWAP1 DUP2 ADD SWAP1 PUSH2 0x5FB2 JUMP JUMPDEST SWAP1 POP PUSH0 PUSH2 0x2710 PUSH1 0x10 SLOAD PUSH2 0x2710 PUSH2 0x3BD4 SWAP2 SWAP1 PUSH2 0x5F1B JUMP JUMPDEST DUP4 PUSH1 0x1 DUP2 MLOAD DUP2 LT PUSH2 0x3BE7 JUMPI PUSH2 0x3BE7 PUSH2 0x5D38 JUMP JUMPDEST PUSH1 0x20 MUL PUSH1 0x20 ADD ADD MLOAD PUSH2 0x3BF9 SWAP2 SWAP1 PUSH2 0x5D77 JUMP JUMPDEST PUSH2 0x3C03 SWAP2 SWAP1 PUSH2 0x5D8E JUMP JUMPDEST DUP6 SLOAD SWAP1 SWAP2 POP PUSH2 0x3C1D SWAP1 PUSH1 0x1 PUSH1 0x1 PUSH1 0xA0 SHL SUB AND DUP6 DUP4 CALLER PUSH2 0x402B JUMP JUMPDEST PUSH2 0x3C27 SWAP1 DUP9 PUSH2 0x5F08 JUMP JUMPDEST SWAP7 POP POP POP POP PUSH2 0x3E1E JUMP JUMPDEST PUSH1 0x40 MLOAD PUSH1 0x20 ADD PUSH2 0x3C40 SWAP1 PUSH2 0x5E89 JUMP JUMPDEST PUSH1 0x40 MLOAD PUSH1 0x20 DUP2 DUP4 SUB SUB DUP2 MSTORE SWAP1 PUSH1 0x40 MSTORE DUP1 MLOAD SWAP1 PUSH1 0x20 ADD KECCAK256 DUP3 PUSH1 0x2 ADD PUSH1 0x40 MLOAD PUSH1 0x20 ADD PUSH2 0x3C6A SWAP2 SWAP1 PUSH2 0x5E97 JUMP JUMPDEST PUSH1 0x40 MLOAD PUSH1 0x20 DUP2 DUP4 SUB SUB DUP2 MSTORE SWAP1 PUSH1 0x40 MSTORE DUP1 MLOAD SWAP1 PUSH1 0x20 ADD KECCAK256 SUB PUSH2 0x3DEA JUMPI DUP2 SLOAD PUSH1 0x3 DUP4 ADD SLOAD PUSH1 0x7 SLOAD PUSH1 0x40 DUP1 MLOAD PUSH4 0x15AB88C9 PUSH1 0xE3 SHL DUP2 MSTORE SWAP1 MLOAD PUSH0 SWAP5 PUSH1 0x1 PUSH1 0x1 PUSH1 0xA0 SHL SUB SWAP1 DUP2 AND SWAP5 PUSH3 0xFFFFFF AND SWAP4 AND SWAP2 PUSH4 0xAD5C4648 SWAP2 PUSH1 0x4 DUP1 DUP4 ADD SWAP3 PUSH1 0x20 SWAP3 SWAP2 SWAP1 DUP3 SWAP1 SUB ADD DUP2 DUP7 GAS STATICCALL ISZERO DUP1 ISZERO PUSH2 0x3CDD JUMPI RETURNDATASIZE PUSH0 DUP1 RETURNDATACOPY RETURNDATASIZE PUSH0 REVERT JUMPDEST POP POP POP POP PUSH1 0x40 MLOAD RETURNDATASIZE PUSH1 0x1F NOT PUSH1 0x1F DUP3 ADD AND DUP3 ADD DUP1 PUSH1 0x40 MSTORE POP DUP2 ADD SWAP1 PUSH2 0x3D01 SWAP2 SWAP1 PUSH2 0x5DC9 JUMP JUMPDEST PUSH1 0x40 MLOAD PUSH1 0x20 ADD PUSH2 0x3D13 SWAP4 SWAP3 SWAP2 SWAP1 PUSH2 0x6038 JUMP JUMPDEST PUSH1 0x40 DUP1 MLOAD PUSH1 0x1F NOT DUP2 DUP5 SUB ADD DUP2 MSTORE SWAP1 DUP3 SWAP1 MSTORE PUSH1 0x9 SLOAD PUSH4 0xCDCA1753 PUSH1 0xE0 SHL DUP4 MSTORE SWAP1 SWAP3 POP PUSH0 SWAP2 PUSH1 0x1 PUSH1 0x1 PUSH1 0xA0 SHL SUB SWAP1 SWAP2 AND SWAP1 PUSH4 0xCDCA1753 SWAP1 PUSH2 0x3D58 SWAP1 DUP6 SWAP1 DUP8 SWAP1 PUSH1 0x4 ADD PUSH2 0x6073 JUMP JUMPDEST PUSH1 0x20 PUSH1 0x40 MLOAD DUP1 DUP4 SUB DUP2 PUSH0 DUP8 GAS CALL ISZERO DUP1 ISZERO PUSH2 0x3D74 JUMPI RETURNDATASIZE PUSH0 DUP1 RETURNDATACOPY RETURNDATASIZE PUSH0 REVERT JUMPDEST POP POP POP POP PUSH1 0x40 MLOAD RETURNDATASIZE PUSH1 0x1F NOT PUSH1 0x1F DUP3 ADD AND DUP3 ADD DUP1 PUSH1 0x40 MSTORE POP DUP2 ADD SWAP1 PUSH2 0x3D98 SWAP2 SWAP1 PUSH2 0x5D4C JUMP JUMPDEST SWAP1 POP PUSH0 PUSH2 0x2710 PUSH1 0x10 SLOAD PUSH2 0x2710 PUSH2 0x3DAE SWAP2 SWAP1 PUSH2 0x5F1B JUMP JUMPDEST PUSH2 0x3DB8 SWAP1 DUP5 PUSH2 0x5D77 JUMP JUMPDEST PUSH2 0x3DC2 SWAP2 SWAP1 PUSH2 0x5D8E JUMP JUMPDEST DUP6 SLOAD PUSH1 0x3 DUP8 ADD SLOAD SWAP2 SWAP3 POP PUSH2 0x3C1D SWAP2 PUSH1 0x1 PUSH1 0x1 PUSH1 0xA0 SHL SUB SWAP1 SWAP2 AND SWAP1 DUP7 SWAP1 PUSH3 0xFFFFFF AND DUP5 CALLER PUSH2 0x4216 JUMP JUMPDEST PUSH1 0x40 MLOAD PUSH3 0x461BCD PUSH1 0xE5 SHL DUP2 MSTORE PUSH1 0x20 PUSH1 0x4 DUP3 ADD MSTORE PUSH1 0x9 PUSH1 0x24 DUP3 ADD MSTORE PUSH9 0x496E76616C69645653 PUSH1 0xB8 SHL PUSH1 0x44 DUP3 ADD MSTORE PUSH1 0x64 ADD PUSH2 0x962 JUMP JUMPDEST POP POP PUSH1 0x1 ADD PUSH2 0x3980 JUMP JUMPDEST POP DUP1 ISZERO PUSH2 0x3110 JUMPI PUSH1 0x40 MLOAD PUSH0 SWAP1 CALLER SWAP1 DUP4 SWAP1 DUP4 DUP2 DUP2 DUP2 DUP6 DUP8 GAS CALL SWAP3 POP POP POP RETURNDATASIZE DUP1 PUSH0 DUP2 EQ PUSH2 0x3E6E JUMPI PUSH1 0x40 MLOAD SWAP2 POP PUSH1 0x1F NOT PUSH1 0x3F RETURNDATASIZE ADD AND DUP3 ADD PUSH1 0x40 MSTORE RETURNDATASIZE DUP3 MSTORE RETURNDATASIZE PUSH0 PUSH1 0x20 DUP5 ADD RETURNDATACOPY PUSH2 0x3E73 JUMP JUMPDEST PUSH1 0x60 SWAP2 POP JUMPDEST POP POP SWAP1 POP DUP1 PUSH2 0x2370 JUMPI PUSH1 0x40 MLOAD PUSH3 0x461BCD PUSH1 0xE5 SHL DUP2 MSTORE PUSH1 0x20 PUSH1 0x4 DUP3 ADD MSTORE PUSH1 0x9 PUSH1 0x24 DUP3 ADD MSTORE PUSH9 0x8C8292988A888AA89 PUSH1 0xBB SHL PUSH1 0x44 DUP3 ADD MSTORE PUSH1 0x64 ADD PUSH2 0x962 JUMP JUMPDEST PUSH2 0x310D DUP4 DUP4 DUP4 PUSH1 0x1 PUSH2 0x5461 JUMP JUMPDEST PUSH0 SLOAD PUSH1 0x1 PUSH1 0x1 PUSH1 0xA0 SHL SUB AND CALLER EQ PUSH2 0x2795 JUMPI PUSH1 0x40 MLOAD PUSH4 0x118CDAA7 PUSH1 0xE0 SHL DUP2 MSTORE CALLER PUSH1 0x4 DUP3 ADD MSTORE PUSH1 0x24 ADD PUSH2 0x962 JUMP JUMPDEST PUSH0 PUSH2 0x3EF4 DUP4 DUP4 PUSH2 0x5D77 JUMP JUMPDEST SWAP4 SWAP3 POP POP POP JUMP JUMPDEST PUSH1 0x1 PUSH1 0x1 PUSH1 0xA0 SHL SUB DUP4 DUP2 AND PUSH0 SWAP1 DUP2 MSTORE PUSH1 0x2 PUSH1 0x20 SWAP1 DUP2 MSTORE PUSH1 0x40 DUP1 DUP4 KECCAK256 SWAP4 DUP7 AND DUP4 MSTORE SWAP3 SWAP1 MSTORE KECCAK256 SLOAD PUSH0 NOT DUP2 EQ PUSH2 0x1FBF JUMPI DUP2 DUP2 LT ISZERO PUSH2 0x3F62 JUMPI PUSH1 0x40 MLOAD PUSH4 0x7DC7A0D9 PUSH1 0xE1 SHL DUP2 MSTORE PUSH1 0x1 PUSH1 0x1 PUSH1 0xA0 SHL SUB DUP5 AND PUSH1 0x4 DUP3 ADD MSTORE PUSH1 0x24 DUP2 ADD DUP3 SWAP1 MSTORE PUSH1 0x44 DUP2 ADD DUP4 SWAP1 MSTORE PUSH1 0x64 ADD PUSH2 0x962 JUMP JUMPDEST PUSH2 0x1FBF DUP5 DUP5 DUP5 DUP5 SUB PUSH0 PUSH2 0x5461 JUMP JUMPDEST PUSH1 0x1 PUSH1 0x1 PUSH1 0xA0 SHL SUB DUP4 AND PUSH2 0x3F99 JUMPI PUSH1 0x40 MLOAD PUSH4 0x4B637E8F PUSH1 0xE1 SHL DUP2 MSTORE PUSH0 PUSH1 0x4 DUP3 ADD MSTORE PUSH1 0x24 ADD PUSH2 0x962 JUMP JUMPDEST PUSH1 0x1 PUSH1 0x1 PUSH1 0xA0 SHL SUB DUP3 AND PUSH2 0x3FC2 JUMPI PUSH1 0x40 MLOAD PUSH4 0xEC442F05 PUSH1 0xE0 SHL DUP2 MSTORE PUSH0 PUSH1 0x4 DUP3 ADD MSTORE PUSH1 0x24 ADD PUSH2 0x962 JUMP JUMPDEST PUSH2 0x310D DUP4 DUP4 DUP4 PUSH2 0x5533 JUMP JUMPDEST PUSH0 SLOAD PUSH1 0x1 PUSH1 0xA0 SHL SWAP1 DIV PUSH1 0xFF AND ISZERO PUSH2 0x2795 JUMPI PUSH1 0x40 MLOAD PUSH4 0xD93C0665 PUSH1 0xE0 SHL DUP2 MSTORE PUSH1 0x4 ADD PUSH1 0x40 MLOAD DUP1 SWAP2 SUB SWAP1 REVERT JUMPDEST PUSH1 0x1 PUSH1 0x1 PUSH1 0xA0 SHL SUB DUP3 AND PUSH2 0x4020 JUMPI PUSH1 0x40 MLOAD PUSH4 0x4B637E8F PUSH1 0xE1 SHL DUP2 MSTORE PUSH0 PUSH1 0x4 DUP3 ADD MSTORE PUSH1 0x24 ADD PUSH2 0x962 JUMP JUMPDEST PUSH2 0x2370 DUP3 PUSH0 DUP4 PUSH2 0x5533 JUMP JUMPDEST PUSH1 0x40 DUP1 MLOAD PUSH1 0x2 DUP1 DUP3 MSTORE PUSH1 0x60 DUP3 ADD DUP4 MSTORE PUSH0 SWAP3 DUP4 SWAP3 SWAP2 SWAP1 PUSH1 0x20 DUP4 ADD SWAP1 DUP1 CALLDATASIZE DUP4 CALLDATACOPY ADD SWAP1 POP POP SWAP1 POP DUP6 DUP2 PUSH0 DUP2 MLOAD DUP2 LT PUSH2 0x4062 JUMPI PUSH2 0x4062 PUSH2 0x5D38 JUMP JUMPDEST PUSH1 0x1 PUSH1 0x1 PUSH1 0xA0 SHL SUB SWAP3 DUP4 AND PUSH1 0x20 SWAP2 DUP3 MUL SWAP3 SWAP1 SWAP3 ADD DUP2 ADD SWAP2 SWAP1 SWAP2 MSTORE PUSH1 0x7 SLOAD PUSH1 0x40 DUP1 MLOAD PUSH4 0x15AB88C9 PUSH1 0xE3 SHL DUP2 MSTORE SWAP1 MLOAD SWAP2 SWAP1 SWAP4 AND SWAP3 PUSH4 0xAD5C4648 SWAP3 PUSH1 0x4 DUP1 DUP4 ADD SWAP4 SWAP2 SWAP3 DUP3 SWAP1 SUB ADD DUP2 DUP7 GAS STATICCALL ISZERO DUP1 ISZERO PUSH2 0x40B9 JUMPI RETURNDATASIZE PUSH0 DUP1 RETURNDATACOPY RETURNDATASIZE PUSH0 REVERT JUMPDEST POP POP POP POP PUSH1 0x40 MLOAD RETURNDATASIZE PUSH1 0x1F NOT PUSH1 0x1F DUP3 ADD AND DUP3 ADD DUP1 PUSH1 0x40 MSTORE POP DUP2 ADD SWAP1 PUSH2 0x40DD SWAP2 SWAP1 PUSH2 0x5DC9 JUMP JUMPDEST DUP2 PUSH1 0x1 DUP2 MLOAD DUP2 LT PUSH2 0x40F0 JUMPI PUSH2 0x40F0 PUSH2 0x5D38 JUMP JUMPDEST PUSH1 0x1 PUSH1 0x1 PUSH1 0xA0 SHL SUB SWAP3 DUP4 AND PUSH1 0x20 SWAP2 DUP3 MUL SWAP3 SWAP1 SWAP3 ADD ADD MSTORE PUSH1 0x7 SLOAD PUSH1 0x40 MLOAD PUSH4 0x95EA7B3 PUSH1 0xE0 SHL DUP2 MSTORE SWAP1 DUP3 AND PUSH1 0x4 DUP3 ADD MSTORE PUSH1 0x24 DUP2 ADD DUP8 SWAP1 MSTORE SWAP1 DUP8 AND SWAP1 PUSH4 0x95EA7B3 SWAP1 PUSH1 0x44 ADD PUSH1 0x20 PUSH1 0x40 MLOAD DUP1 DUP4 SUB DUP2 PUSH0 DUP8 GAS CALL ISZERO DUP1 ISZERO PUSH2 0x414E JUMPI RETURNDATASIZE PUSH0 DUP1 RETURNDATACOPY RETURNDATASIZE PUSH0 REVERT JUMPDEST POP POP POP POP PUSH1 0x40 MLOAD RETURNDATASIZE PUSH1 0x1F NOT PUSH1 0x1F DUP3 ADD AND DUP3 ADD DUP1 PUSH1 0x40 MSTORE POP DUP2 ADD SWAP1 PUSH2 0x4172 SWAP2 SWAP1 PUSH2 0x5F2E JUMP JUMPDEST POP PUSH1 0x7 SLOAD PUSH1 0x40 MLOAD PUSH4 0x18CBAFE5 PUSH1 0xE0 SHL DUP2 MSTORE PUSH0 SWAP2 PUSH1 0x1 PUSH1 0x1 PUSH1 0xA0 SHL SUB AND SWAP1 PUSH4 0x18CBAFE5 SWAP1 PUSH2 0x41AB SWAP1 DUP10 SWAP1 DUP10 SWAP1 DUP8 SWAP1 DUP11 SWAP1 TIMESTAMP SWAP1 PUSH1 0x4 ADD PUSH2 0x627F JUMP JUMPDEST PUSH0 PUSH1 0x40 MLOAD DUP1 DUP4 SUB DUP2 PUSH0 DUP8 GAS CALL ISZERO DUP1 ISZERO PUSH2 0x41C6 JUMPI RETURNDATASIZE PUSH0 DUP1 RETURNDATACOPY RETURNDATASIZE PUSH0 REVERT JUMPDEST POP POP POP POP PUSH1 0x40 MLOAD RETURNDATASIZE PUSH0 DUP3 RETURNDATACOPY PUSH1 0x1F RETURNDATASIZE SWAP1 DUP2 ADD PUSH1 0x1F NOT AND DUP3 ADD PUSH1 0x40 MSTORE PUSH2 0x41ED SWAP2 SWAP1 DUP2 ADD SWAP1 PUSH2 0x5FB2 JUMP JUMPDEST SWAP1 POP DUP1 PUSH1 0x1 DUP2 MLOAD DUP2 LT PUSH2 0x4202 JUMPI PUSH2 0x4202 PUSH2 0x5D38 JUMP JUMPDEST PUSH1 0x20 MUL PUSH1 0x20 ADD ADD MLOAD SWAP3 POP POP POP SWAP5 SWAP4 POP POP POP POP JUMP JUMPDEST PUSH0 DUP1 PUSH1 0x40 MLOAD DUP1 PUSH2 0x100 ADD PUSH1 0x40 MSTORE DUP1 DUP9 PUSH1 0x1 PUSH1 0x1 PUSH1 0xA0 SHL SUB AND DUP2 MSTORE PUSH1 0x20 ADD PUSH1 0x7 PUSH0 SWAP1 SLOAD SWAP1 PUSH2 0x100 EXP SWAP1 DIV PUSH1 0x1 PUSH1 0x1 PUSH1 0xA0 SHL SUB AND PUSH1 0x1 PUSH1 0x1 PUSH1 0xA0 SHL SUB AND PUSH4 0xAD5C4648 PUSH1 0x40 MLOAD DUP2 PUSH4 0xFFFFFFFF AND PUSH1 0xE0 SHL DUP2 MSTORE PUSH1 0x4 ADD PUSH1 0x20 PUSH1 0x40 MLOAD DUP1 DUP4 SUB DUP2 DUP7 GAS STATICCALL ISZERO DUP1 ISZERO PUSH2 0x4283 JUMPI RETURNDATASIZE PUSH0 DUP1 RETURNDATACOPY RETURNDATASIZE PUSH0 REVERT JUMPDEST POP POP POP POP PUSH1 0x40 MLOAD RETURNDATASIZE PUSH1 0x1F NOT PUSH1 0x1F DUP3 ADD AND DUP3 ADD DUP1 PUSH1 0x40 MSTORE POP DUP2 ADD SWAP1 PUSH2 0x42A7 SWAP2 SWAP1 PUSH2 0x5DC9 JUMP JUMPDEST PUSH1 0x1 PUSH1 0x1 PUSH1 0xA0 SHL SUB SWAP1 DUP2 AND DUP3 MSTORE PUSH3 0xFFFFFF DUP9 AND PUSH1 0x20 DUP4 ADD MSTORE DUP6 DUP2 AND PUSH1 0x40 DUP1 DUP5 ADD SWAP2 SWAP1 SWAP2 MSTORE TIMESTAMP PUSH1 0x60 DUP5 ADD MSTORE PUSH1 0x80 DUP4 ADD DUP11 SWAP1 MSTORE PUSH1 0xA0 DUP4 ADD DUP9 SWAP1 MSTORE PUSH0 PUSH1 0xC0 SWAP1 SWAP4 ADD SWAP3 SWAP1 SWAP3 MSTORE PUSH1 0x8 SLOAD SWAP2 MLOAD PUSH4 0x95EA7B3 PUSH1 0xE0 SHL DUP2 MSTORE SWAP2 DUP2 AND PUSH1 0x4 DUP4 ADD MSTORE PUSH1 0x24 DUP3 ADD DUP10 SWAP1 MSTORE SWAP2 SWAP3 POP SWAP1 DUP9 AND SWAP1 PUSH4 0x95EA7B3 SWAP1 PUSH1 0x44 ADD PUSH1 0x20 PUSH1 0x40 MLOAD DUP1 DUP4 SUB DUP2 PUSH0 DUP8 GAS CALL ISZERO DUP1 ISZERO PUSH2 0x4333 JUMPI RETURNDATASIZE PUSH0 DUP1 RETURNDATACOPY RETURNDATASIZE PUSH0 REVERT JUMPDEST POP POP POP POP PUSH1 0x40 MLOAD RETURNDATASIZE PUSH1 0x1F NOT PUSH1 0x1F DUP3 ADD AND DUP3 ADD DUP1 PUSH1 0x40 MSTORE POP DUP2 ADD SWAP1 PUSH2 0x4357 SWAP2 SWAP1 PUSH2 0x5F2E JUMP JUMPDEST POP PUSH1 0x8 SLOAD PUSH1 0x40 MLOAD PUSH4 0x414BF389 PUSH1 0xE0 SHL DUP2 MSTORE PUSH1 0x1 PUSH1 0x1 PUSH1 0xA0 SHL SUB SWAP1 SWAP2 AND SWAP1 PUSH4 0x414BF389 SWAP1 PUSH2 0x4388 SWAP1 DUP5 SWAP1 PUSH1 0x4 ADD PUSH2 0x62BA JUMP JUMPDEST PUSH1 0x20 PUSH1 0x40 MLOAD DUP1 DUP4 SUB DUP2 PUSH0 DUP8 GAS CALL ISZERO DUP1 ISZERO PUSH2 0x43A4 JUMPI RETURNDATASIZE PUSH0 DUP1 RETURNDATACOPY RETURNDATASIZE PUSH0 REVERT JUMPDEST POP POP POP POP PUSH1 0x40 MLOAD RETURNDATASIZE PUSH1 0x1F NOT PUSH1 0x1F DUP3 ADD AND DUP3 ADD DUP1 PUSH1 0x40 MSTORE POP DUP2 ADD SWAP1 PUSH2 0x43C8 SWAP2 SWAP1 PUSH2 0x5D4C JUMP JUMPDEST SWAP8 SWAP7 POP POP POP POP POP POP POP JUMP JUMPDEST PUSH1 0x40 DUP1 MLOAD PUSH1 0x2 DUP1 DUP3 MSTORE PUSH1 0x60 DUP1 DUP4 ADD DUP5 MSTORE SWAP3 PUSH0 SWAP3 SWAP2 SWAP1 PUSH1 0x20 DUP4 ADD SWAP1 DUP1 CALLDATASIZE DUP4 CALLDATACOPY POP POP PUSH1 0x7 SLOAD PUSH1 0x40 DUP1 MLOAD PUSH4 0x15AB88C9 PUSH1 0xE3 SHL DUP2 MSTORE SWAP1 MLOAD SWAP4 SWAP5 POP PUSH1 0x1 PUSH1 0x1 PUSH1 0xA0 SHL SUB SWAP1 SWAP2 AND SWAP3 PUSH4 0xAD5C4648 SWAP3 POP PUSH1 0x4 DUP1 DUP4 ADD SWAP3 PUSH1 0x20 SWAP3 SWAP2 SWAP1 DUP3 SWAP1 SUB ADD DUP2 DUP7 GAS STATICCALL ISZERO DUP1 ISZERO PUSH2 0x443E JUMPI RETURNDATASIZE PUSH0 DUP1 RETURNDATACOPY RETURNDATASIZE PUSH0 REVERT JUMPDEST POP POP POP POP PUSH1 0x40 MLOAD RETURNDATASIZE PUSH1 0x1F NOT PUSH1 0x1F DUP3 ADD AND DUP3 ADD DUP1 PUSH1 0x40 MSTORE POP DUP2 ADD SWAP1 PUSH2 0x4462 SWAP2 SWAP1 PUSH2 0x5DC9 JUMP JUMPDEST DUP2 PUSH0 DUP2 MLOAD DUP2 LT PUSH2 0x4474 JUMPI PUSH2 0x4474 PUSH2 0x5D38 JUMP JUMPDEST PUSH1 0x20 MUL PUSH1 0x20 ADD ADD SWAP1 PUSH1 0x1 PUSH1 0x1 PUSH1 0xA0 SHL SUB AND SWAP1 DUP2 PUSH1 0x1 PUSH1 0x1 PUSH1 0xA0 SHL SUB AND DUP2 MSTORE POP POP DUP5 DUP2 PUSH1 0x1 DUP2 MLOAD DUP2 LT PUSH2 0x44A8 JUMPI PUSH2 0x44A8 PUSH2 0x5D38 JUMP JUMPDEST PUSH1 0x1 PUSH1 0x1 PUSH1 0xA0 SHL SUB SWAP3 DUP4 AND PUSH1 0x20 SWAP2 DUP3 MUL SWAP3 SWAP1 SWAP3 ADD ADD MSTORE PUSH1 0x7 SLOAD PUSH1 0x40 MLOAD PUSH4 0x7FF36AB5 PUSH1 0xE0 SHL DUP2 MSTORE SWAP2 AND SWAP1 PUSH4 0x7FF36AB5 SWAP1 DUP7 SWAP1 PUSH2 0x44ED SWAP1 DUP8 SWAP1 DUP7 SWAP1 ADDRESS SWAP1 TIMESTAMP SWAP1 PUSH1 0x4 ADD PUSH2 0x6330 JUMP JUMPDEST PUSH0 PUSH1 0x40 MLOAD DUP1 DUP4 SUB DUP2 DUP6 DUP9 GAS CALL ISZERO DUP1 ISZERO PUSH2 0x4508 JUMPI RETURNDATASIZE PUSH0 DUP1 RETURNDATACOPY RETURNDATASIZE PUSH0 REVERT JUMPDEST POP POP POP POP POP PUSH1 0x40 MLOAD RETURNDATASIZE PUSH0 DUP3 RETURNDATACOPY PUSH1 0x1F RETURNDATASIZE SWAP1 DUP2 ADD PUSH1 0x1F NOT AND DUP3 ADD PUSH1 0x40 MSTORE PUSH2 0x4530 SWAP2 SWAP1 DUP2 ADD SWAP1 PUSH2 0x5FB2 JUMP JUMPDEST SWAP6 SWAP5 POP POP POP POP POP JUMP JUMPDEST PUSH1 0x40 DUP1 MLOAD PUSH2 0x100 DUP2 ADD DUP1 DUP4 MSTORE PUSH1 0x7 SLOAD PUSH4 0x15AB88C9 PUSH1 0xE3 SHL SWAP1 SWAP2 MSTORE SWAP2 MLOAD PUSH0 SWAP3 DUP3 SWAP2 PUSH1 0x1 PUSH1 0x1 PUSH1 0xA0 SHL SUB SWAP1 SWAP2 AND SWAP1 PUSH4 0xAD5C4648 SWAP1 PUSH2 0x104 DUP1 DUP6 ADD SWAP2 PUSH1 0x20 SWAP2 DUP2 DUP8 SUB ADD DUP2 DUP7 GAS STATICCALL ISZERO DUP1 ISZERO PUSH2 0x458C JUMPI RETURNDATASIZE PUSH0 DUP1 RETURNDATACOPY RETURNDATASIZE PUSH0 REVERT JUMPDEST POP POP POP POP PUSH1 0x40 MLOAD RETURNDATASIZE PUSH1 0x1F NOT PUSH1 0x1F DUP3 ADD AND DUP3 ADD DUP1 PUSH1 0x40 MSTORE POP DUP2 ADD SWAP1 PUSH2 0x45B0 SWAP2 SWAP1 PUSH2 0x5DC9 JUMP JUMPDEST PUSH1 0x1 PUSH1 0x1 PUSH1 0xA0 SHL SUB SWAP1 DUP2 AND DUP3 MSTORE DUP8 DUP2 AND PUSH1 0x20 DUP4 ADD MSTORE PUSH3 0xFFFFFF DUP7 AND PUSH1 0x40 DUP1 DUP5 ADD SWAP2 SWAP1 SWAP2 MSTORE ADDRESS PUSH1 0x60 DUP5 ADD MSTORE TIMESTAMP PUSH1 0x80 DUP5 ADD MSTORE PUSH1 0xA0 DUP4 ADD DUP9 SWAP1 MSTORE PUSH1 0xC0 DUP4 ADD DUP7 SWAP1 MSTORE PUSH0 PUSH1 0xE0 SWAP1 SWAP4 ADD SWAP3 SWAP1 SWAP3 MSTORE PUSH1 0x8 SLOAD SWAP2 MLOAD PUSH4 0x414BF389 PUSH1 0xE0 SHL DUP2 MSTORE SWAP3 SWAP4 POP AND SWAP1 PUSH4 0x414BF389 SWAP1 DUP7 SWAP1 PUSH2 0x4622 SWAP1 DUP6 SWAP1 PUSH1 0x4 ADD PUSH2 0x62BA JUMP JUMPDEST PUSH1 0x20 PUSH1 0x40 MLOAD DUP1 DUP4 SUB DUP2 DUP6 DUP9 GAS CALL ISZERO DUP1 ISZERO PUSH2 0x463E JUMPI RETURNDATASIZE PUSH0 DUP1 RETURNDATACOPY RETURNDATASIZE PUSH0 REVERT JUMPDEST POP POP POP POP POP PUSH1 0x40 MLOAD RETURNDATASIZE PUSH1 0x1F NOT PUSH1 0x1F DUP3 ADD AND DUP3 ADD DUP1 PUSH1 0x40 MSTORE POP DUP2 ADD SWAP1 PUSH2 0x4663 SWAP2 SWAP1 PUSH2 0x5D4C JUMP JUMPDEST POP POP POP POP POP POP JUMP JUMPDEST PUSH1 0xB SLOAD DUP2 LT PUSH2 0x46A5 JUMPI PUSH1 0x40 MLOAD PUSH3 0x461BCD PUSH1 0xE5 SHL DUP2 MSTORE PUSH1 0x20 PUSH1 0x4 DUP3 ADD MSTORE PUSH1 0x6 PUSH1 0x24 DUP3 ADD MSTORE PUSH6 0x42D2DCC8CAF PUSH1 0xD3 SHL PUSH1 0x44 DUP3 ADD MSTORE PUSH1 0x64 ADD PUSH2 0x962 JUMP JUMPDEST PUSH1 0xB DUP1 SLOAD PUSH2 0x46B5 SWAP1 PUSH1 0x1 SWAP1 PUSH2 0x5F1B JUMP JUMPDEST DUP2 SLOAD DUP2 LT PUSH2 0x46C5 JUMPI PUSH2 0x46C5 PUSH2 0x5D38 JUMP JUMPDEST SWAP1 PUSH0 MSTORE PUSH1 0x20 PUSH0 KECCAK256 SWAP1 PUSH1 0x5 MUL ADD PUSH1 0xB DUP3 DUP2 SLOAD DUP2 LT PUSH2 0x46E4 JUMPI PUSH2 0x46E4 PUSH2 0x5D38 JUMP JUMPDEST PUSH0 SWAP2 DUP3 MSTORE PUSH1 0x20 SWAP1 SWAP2 KECCAK256 DUP3 SLOAD PUSH1 0x5 SWAP1 SWAP3 MUL ADD DUP1 SLOAD PUSH1 0x1 PUSH1 0x1 PUSH1 0xA0 SHL SUB SWAP3 DUP4 AND PUSH1 0x1 PUSH1 0x1 PUSH1 0xA0 SHL SUB NOT SWAP2 DUP3 AND OR DUP3 SSTORE PUSH1 0x1 DUP1 DUP6 ADD SLOAD SWAP1 DUP4 ADD DUP1 SLOAD SWAP2 SWAP1 SWAP5 AND SWAP2 AND OR SWAP1 SWAP2 SSTORE PUSH1 0x2 DUP1 DUP4 ADD SLOAD SWAP1 DUP3 ADD SSTORE PUSH1 0x3 DUP1 DUP3 ADD SWAP1 PUSH2 0x4742 SWAP1 DUP5 ADD DUP3 PUSH2 0x6364 JUMP JUMPDEST POP PUSH1 0x4 SWAP2 DUP3 ADD SLOAD SWAP2 ADD DUP1 SLOAD PUSH3 0xFFFFFF NOT AND PUSH3 0xFFFFFF SWAP1 SWAP3 AND SWAP2 SWAP1 SWAP2 OR SWAP1 SSTORE PUSH1 0xB DUP1 SLOAD DUP1 PUSH2 0x4771 JUMPI PUSH2 0x4771 PUSH2 0x6430 JUMP JUMPDEST PUSH0 DUP3 DUP2 MSTORE PUSH1 0x20 DUP2 KECCAK256 PUSH1 0x5 PUSH0 NOT SWAP1 SWAP4 ADD SWAP3 DUP4 MUL ADD DUP1 SLOAD PUSH1 0x1 PUSH1 0x1 PUSH1 0xA0 SHL SUB NOT SWAP1 DUP2 AND DUP3 SSTORE PUSH1 0x1 DUP3 ADD DUP1 SLOAD SWAP1 SWAP2 AND SWAP1 SSTORE PUSH1 0x2 DUP2 ADD DUP3 SWAP1 SSTORE SWAP1 PUSH2 0x47B4 PUSH1 0x3 DUP4 ADD DUP3 PUSH2 0x5682 JUMP JUMPDEST POP PUSH1 0x4 ADD DUP1 SLOAD PUSH3 0xFFFFFF NOT AND SWAP1 SSTORE SWAP1 SSTORE POP JUMP JUMPDEST PUSH2 0x47CF PUSH2 0x5659 JUMP JUMPDEST PUSH0 DUP1 SLOAD PUSH1 0xFF PUSH1 0xA0 SHL NOT AND SWAP1 SSTORE PUSH32 0x5DB9EE0A495BF2E6FF9C91A7834C1BA4FDD244A5E8AA4E537BD38AEAE4B073AA CALLER JUMPDEST PUSH1 0x40 MLOAD PUSH1 0x1 PUSH1 0x1 PUSH1 0xA0 SHL SUB SWAP1 SWAP2 AND DUP2 MSTORE PUSH1 0x20 ADD PUSH2 0x23B0 JUMP JUMPDEST PUSH0 DUP1 SLOAD PUSH1 0x1 PUSH1 0x1 PUSH1 0xA0 SHL SUB DUP4 DUP2 AND PUSH1 0x1 PUSH1 0x1 PUSH1 0xA0 SHL SUB NOT DUP4 AND DUP2 OR DUP5 SSTORE PUSH1 0x40 MLOAD SWAP2 SWAP1 SWAP3 AND SWAP3 DUP4 SWAP2 PUSH32 0x8BE0079C531659141344CD1FD0A4F28419497F9722A3DAAFE3B4186F6B6457E0 SWAP2 SWAP1 LOG3 POP POP JUMP JUMPDEST PUSH0 DUP1 DUP5 GT PUSH2 0x4885 JUMPI PUSH1 0x40 MLOAD PUSH3 0x461BCD PUSH1 0xE5 SHL DUP2 MSTORE PUSH1 0x4 ADD PUSH2 0x962 SWAP1 PUSH2 0x5DAD JUMP JUMPDEST PUSH1 0x1 PUSH1 0x1 PUSH1 0xA0 SHL SUB DUP6 AND PUSH2 0x48C6 JUMPI PUSH1 0x40 MLOAD PUSH3 0x461BCD PUSH1 0xE5 SHL DUP2 MSTORE PUSH1 0x20 PUSH1 0x4 DUP3 ADD MSTORE PUSH1 0x8 PUSH1 0x24 DUP3 ADD MSTORE PUSH8 0x2161646472657373 PUSH1 0xC0 SHL PUSH1 0x44 DUP3 ADD MSTORE PUSH1 0x64 ADD PUSH2 0x962 JUMP JUMPDEST PUSH0 DUP4 MLOAD GT PUSH2 0x48FF JUMPI PUSH1 0x40 MLOAD PUSH3 0x461BCD PUSH1 0xE5 SHL DUP2 MSTORE PUSH1 0x20 PUSH1 0x4 DUP3 ADD MSTORE PUSH1 0x6 PUSH1 0x24 DUP3 ADD MSTORE PUSH6 0x21656D707479 PUSH1 0xD0 SHL PUSH1 0x44 DUP3 ADD MSTORE PUSH1 0x64 ADD PUSH2 0x962 JUMP JUMPDEST PUSH1 0x40 MLOAD PUSH1 0x20 ADD PUSH2 0x490E SWAP1 PUSH2 0x5F49 JUMP JUMPDEST PUSH1 0x40 MLOAD PUSH1 0x20 DUP2 DUP4 SUB SUB DUP2 MSTORE SWAP1 PUSH1 0x40 MSTORE DUP1 MLOAD SWAP1 PUSH1 0x20 ADD KECCAK256 DUP4 PUSH1 0x40 MLOAD PUSH1 0x20 ADD PUSH2 0x4935 SWAP2 SWAP1 PUSH2 0x6094 JUMP JUMPDEST PUSH1 0x40 MLOAD PUSH1 0x20 DUP2 DUP4 SUB SUB DUP2 MSTORE SWAP1 PUSH1 0x40 MSTORE DUP1 MLOAD SWAP1 PUSH1 0x20 ADD KECCAK256 SUB PUSH2 0x4B7E JUMPI PUSH1 0x40 DUP1 MLOAD PUSH1 0x2 DUP1 DUP3 MSTORE PUSH1 0x60 DUP3 ADD DUP4 MSTORE PUSH0 SWAP3 PUSH1 0x20 DUP4 ADD SWAP1 DUP1 CALLDATASIZE DUP4 CALLDATACOPY ADD SWAP1 POP POP SWAP1 POP DUP6 DUP2 PUSH0 DUP2 MLOAD DUP2 LT PUSH2 0x4983 JUMPI PUSH2 0x4983 PUSH2 0x5D38 JUMP JUMPDEST PUSH1 0x1 PUSH1 0x1 PUSH1 0xA0 SHL SUB SWAP3 DUP4 AND PUSH1 0x20 SWAP2 DUP3 MUL SWAP3 SWAP1 SWAP3 ADD DUP2 ADD SWAP2 SWAP1 SWAP2 MSTORE PUSH1 0x7 SLOAD PUSH1 0x40 DUP1 MLOAD PUSH4 0x15AB88C9 PUSH1 0xE3 SHL DUP2 MSTORE SWAP1 MLOAD SWAP2 SWAP1 SWAP4 AND SWAP3 PUSH4 0xAD5C4648 SWAP3 PUSH1 0x4 DUP1 DUP4 ADD SWAP4 SWAP2 SWAP3 DUP3 SWAP1 SUB ADD DUP2 DUP7 GAS STATICCALL ISZERO DUP1 ISZERO PUSH2 0x49DA JUMPI RETURNDATASIZE PUSH0 DUP1 RETURNDATACOPY RETURNDATASIZE PUSH0 REVERT JUMPDEST POP POP POP POP PUSH1 0x40 MLOAD RETURNDATASIZE PUSH1 0x1F NOT PUSH1 0x1F DUP3 ADD AND DUP3 ADD DUP1 PUSH1 0x40 MSTORE POP DUP2 ADD SWAP1 PUSH2 0x49FE SWAP2 SWAP1 PUSH2 0x5DC9 JUMP JUMPDEST DUP2 PUSH1 0x1 DUP2 MLOAD DUP2 LT PUSH2 0x4A11 JUMPI PUSH2 0x4A11 PUSH2 0x5D38 JUMP JUMPDEST PUSH1 0x1 PUSH1 0x1 PUSH1 0xA0 SHL SUB SWAP3 DUP4 AND PUSH1 0x20 SWAP2 DUP3 MUL SWAP3 SWAP1 SWAP3 ADD ADD MSTORE PUSH1 0x7 SLOAD PUSH1 0x40 MLOAD PUSH4 0xD06CA61F PUSH1 0xE0 SHL DUP2 MSTORE PUSH0 SWAP3 SWAP2 SWAP1 SWAP2 AND SWAP1 PUSH4 0xD06CA61F SWAP1 PUSH2 0x4A54 SWAP1 DUP10 SWAP1 DUP7 SWAP1 PUSH1 0x4 ADD PUSH2 0x5F9A JUMP JUMPDEST PUSH0 PUSH1 0x40 MLOAD DUP1 DUP4 SUB DUP2 DUP7 GAS STATICCALL ISZERO DUP1 ISZERO PUSH2 0x4A6E JUMPI RETURNDATASIZE PUSH0 DUP1 RETURNDATACOPY RETURNDATASIZE PUSH0 REVERT JUMPDEST POP POP POP POP PUSH1 0x40 MLOAD RETURNDATASIZE PUSH0 DUP3 RETURNDATACOPY PUSH1 0x1F RETURNDATASIZE SWAP1 DUP2 ADD PUSH1 0x1F NOT AND DUP3 ADD PUSH1 0x40 MSTORE PUSH2 0x4A95 SWAP2 SWAP1 DUP2 ADD SWAP1 PUSH2 0x5FB2 JUMP JUMPDEST SWAP1 POP PUSH1 0x2 DUP2 MLOAD LT ISZERO PUSH2 0x4AD2 JUMPI PUSH1 0x40 MLOAD PUSH3 0x461BCD PUSH1 0xE5 SHL DUP2 MSTORE PUSH1 0x20 PUSH1 0x4 DUP3 ADD MSTORE PUSH1 0x6 PUSH1 0x24 DUP3 ADD MSTORE PUSH6 0x21455850414D PUSH1 0xD0 SHL PUSH1 0x44 DUP3 ADD MSTORE PUSH1 0x64 ADD PUSH2 0x962 JUMP JUMPDEST PUSH0 PUSH2 0x2710 PUSH1 0x10 SLOAD PUSH2 0x2710 PUSH2 0x4AE6 SWAP2 SWAP1 PUSH2 0x5F1B JUMP JUMPDEST DUP4 PUSH1 0x1 DUP2 MLOAD DUP2 LT PUSH2 0x4AF9 JUMPI PUSH2 0x4AF9 PUSH2 0x5D38 JUMP JUMPDEST PUSH1 0x20 MUL PUSH1 0x20 ADD ADD MLOAD PUSH2 0x4B0B SWAP2 SWAP1 PUSH2 0x5D77 JUMP JUMPDEST PUSH2 0x4B15 SWAP2 SWAP1 PUSH2 0x5D8E JUMP JUMPDEST SWAP1 POP PUSH2 0x4B23 DUP9 DUP9 DUP4 ADDRESS PUSH2 0x402B JUMP JUMPDEST SWAP4 POP DUP1 DUP5 LT ISZERO PUSH2 0x4B5F JUMPI PUSH1 0x40 MLOAD PUSH3 0x461BCD PUSH1 0xE5 SHL DUP2 MSTORE PUSH1 0x20 PUSH1 0x4 DUP3 ADD MSTORE PUSH1 0x7 PUSH1 0x24 DUP3 ADD MSTORE PUSH7 0xF185B5BDD5B9D PUSH1 0xCA SHL PUSH1 0x44 DUP3 ADD MSTORE PUSH1 0x64 ADD PUSH2 0x962 JUMP JUMPDEST DUP4 PUSH1 0x13 PUSH0 DUP3 DUP3 SLOAD PUSH2 0x4B70 SWAP2 SWAP1 PUSH2 0x5F08 JUMP JUMPDEST SWAP1 SWAP2 SSTORE POP PUSH2 0x3933 SWAP4 POP POP POP POP JUMP JUMPDEST PUSH1 0x40 MLOAD PUSH1 0x20 ADD PUSH2 0x4B8D SWAP1 PUSH2 0x5E89 JUMP JUMPDEST PUSH1 0x40 MLOAD PUSH1 0x20 DUP2 DUP4 SUB SUB DUP2 MSTORE SWAP1 PUSH1 0x40 MSTORE DUP1 MLOAD SWAP1 PUSH1 0x20 ADD KECCAK256 DUP4 PUSH1 0x40 MLOAD PUSH1 0x20 ADD PUSH2 0x4BB4 SWAP2 SWAP1 PUSH2 0x6094 JUMP JUMPDEST PUSH1 0x40 MLOAD PUSH1 0x20 DUP2 DUP4 SUB SUB DUP2 MSTORE SWAP1 PUSH1 0x40 MSTORE DUP1 MLOAD SWAP1 PUSH1 0x20 ADD KECCAK256 SUB PUSH2 0x1F91 JUMPI PUSH0 DUP6 DUP4 PUSH1 0x7 PUSH0 SWAP1 SLOAD SWAP1 PUSH2 0x100 EXP SWAP1 DIV PUSH1 0x1 PUSH1 0x1 PUSH1 0xA0 SHL SUB AND PUSH1 0x1 PUSH1 0x1 PUSH1 0xA0 SHL SUB AND PUSH4 0xAD5C4648 PUSH1 0x40 MLOAD DUP2 PUSH4 0xFFFFFFFF AND PUSH1 0xE0 SHL DUP2 MSTORE PUSH1 0x4 ADD PUSH1 0x20 PUSH1 0x40 MLOAD DUP1 DUP4 SUB DUP2 DUP7 GAS STATICCALL ISZERO DUP1 ISZERO PUSH2 0x4C22 JUMPI RETURNDATASIZE PUSH0 DUP1 RETURNDATACOPY RETURNDATASIZE PUSH0 REVERT JUMPDEST POP POP POP POP PUSH1 0x40 MLOAD RETURNDATASIZE PUSH1 0x1F NOT PUSH1 0x1F DUP3 ADD AND DUP3 ADD DUP1 PUSH1 0x40 MSTORE POP DUP2 ADD SWAP1 PUSH2 0x4C46 SWAP2 SWAP1 PUSH2 0x5DC9 JUMP JUMPDEST PUSH1 0x40 MLOAD PUSH1 0x20 ADD PUSH2 0x4C58 SWAP4 SWAP3 SWAP2 SWAP1 PUSH2 0x6038 JUMP JUMPDEST PUSH1 0x40 DUP1 MLOAD PUSH1 0x1F NOT DUP2 DUP5 SUB ADD DUP2 MSTORE SWAP1 DUP3 SWAP1 MSTORE PUSH1 0x9 SLOAD PUSH4 0xCDCA1753 PUSH1 0xE0 SHL DUP4 MSTORE SWAP1 SWAP3 POP PUSH0 SWAP2 PUSH1 0x1 PUSH1 0x1 PUSH1 0xA0 SHL SUB SWAP1 SWAP2 AND SWAP1 PUSH4 0xCDCA1753 SWAP1 PUSH2 0x4C9D SWAP1 DUP6 SWAP1 DUP11 SWAP1 PUSH1 0x4 ADD PUSH2 0x6073 JUMP JUMPDEST PUSH1 0x20 PUSH1 0x40 MLOAD DUP1 DUP4 SUB DUP2 PUSH0 DUP8 GAS CALL ISZERO DUP1 ISZERO PUSH2 0x4CB9 JUMPI RETURNDATASIZE PUSH0 DUP1 RETURNDATACOPY RETURNDATASIZE PUSH0 REVERT JUMPDEST POP POP POP POP PUSH1 0x40 MLOAD RETURNDATASIZE PUSH1 0x1F NOT PUSH1 0x1F DUP3 ADD AND DUP3 ADD DUP1 PUSH1 0x40 MSTORE POP DUP2 ADD SWAP1 PUSH2 0x4CDD SWAP2 SWAP1 PUSH2 0x5D4C JUMP JUMPDEST SWAP1 POP PUSH0 DUP2 GT PUSH2 0x4D16 JUMPI PUSH1 0x40 MLOAD PUSH3 0x461BCD PUSH1 0xE5 SHL DUP2 MSTORE PUSH1 0x20 PUSH1 0x4 DUP3 ADD MSTORE PUSH1 0x5 PUSH1 0x24 DUP3 ADD MSTORE PUSH5 0x6D696E3E3 PUSH1 0xDC SHL PUSH1 0x44 DUP3 ADD MSTORE PUSH1 0x64 ADD PUSH2 0x962 JUMP JUMPDEST PUSH0 PUSH2 0x2710 PUSH1 0x10 SLOAD PUSH2 0x2710 PUSH2 0x4D2A SWAP2 SWAP1 PUSH2 0x5F1B JUMP JUMPDEST PUSH2 0x4D34 SWAP1 DUP5 PUSH2 0x5D77 JUMP JUMPDEST PUSH2 0x4D3E SWAP2 SWAP1 PUSH2 0x5D8E JUMP JUMPDEST SWAP1 POP PUSH2 0x4D4D DUP9 DUP9 DUP8 DUP5 ADDRESS PUSH2 0x4216 JUMP JUMPDEST SWAP4 POP DUP1 DUP5 LT ISZERO PUSH2 0x4B5F JUMPI PUSH1 0x40 MLOAD PUSH3 0x461BCD PUSH1 0xE5 SHL DUP2 MSTORE PUSH1 0x20 PUSH1 0x4 DUP3 ADD MSTORE PUSH1 0x5 PUSH1 0x24 DUP3 ADD MSTORE PUSH5 0x6D696E3E3 PUSH1 0xDC SHL PUSH1 0x44 DUP3 ADD MSTORE PUSH1 0x64 ADD PUSH2 0x962 JUMP JUMPDEST PUSH1 0x40 MLOAD PUSH1 0x20 ADD PUSH2 0x4D96 SWAP1 PUSH2 0x5F49 JUMP JUMPDEST PUSH1 0x40 MLOAD PUSH1 0x20 DUP2 DUP4 SUB SUB DUP2 MSTORE SWAP1 PUSH1 0x40 MSTORE DUP1 MLOAD SWAP1 PUSH1 0x20 ADD KECCAK256 DUP3 PUSH1 0x40 MLOAD PUSH1 0x20 ADD PUSH2 0x4DBD SWAP2 SWAP1 PUSH2 0x6094 JUMP JUMPDEST PUSH1 0x40 MLOAD PUSH1 0x20 DUP2 DUP4 SUB SUB DUP2 MSTORE SWAP1 PUSH1 0x40 MSTORE DUP1 MLOAD SWAP1 PUSH1 0x20 ADD KECCAK256 SUB PUSH2 0x512C JUMPI PUSH1 0x40 DUP1 MLOAD PUSH1 0x2 DUP1 DUP3 MSTORE PUSH1 0x60 DUP3 ADD DUP4 MSTORE PUSH0 SWAP3 PUSH1 0x20 DUP4 ADD SWAP1 DUP1 CALLDATASIZE DUP4 CALLDATACOPY POP POP PUSH1 0x7 SLOAD PUSH1 0x40 DUP1 MLOAD PUSH4 0x15AB88C9 PUSH1 0xE3 SHL DUP2 MSTORE SWAP1 MLOAD SWAP4 SWAP5 POP PUSH1 0x1 PUSH1 0x1 PUSH1 0xA0 SHL SUB SWAP1 SWAP2 AND SWAP3 PUSH4 0xAD5C4648 SWAP3 POP PUSH1 0x4 DUP1 DUP4 ADD SWAP3 PUSH1 0x20 SWAP3 SWAP2 SWAP1 DUP3 SWAP1 SUB ADD DUP2 DUP7 GAS STATICCALL ISZERO DUP1 ISZERO PUSH2 0x4E3F JUMPI RETURNDATASIZE PUSH0 DUP1 RETURNDATACOPY RETURNDATASIZE PUSH0 REVERT JUMPDEST POP POP POP POP PUSH1 0x40 MLOAD RETURNDATASIZE PUSH1 0x1F NOT PUSH1 0x1F DUP3 ADD AND DUP3 ADD DUP1 PUSH1 0x40 MSTORE POP DUP2 ADD SWAP1 PUSH2 0x4E63 SWAP2 SWAP1 PUSH2 0x5DC9 JUMP JUMPDEST DUP2 PUSH0 DUP2 MLOAD DUP2 LT PUSH2 0x4E75 JUMPI PUSH2 0x4E75 PUSH2 0x5D38 JUMP JUMPDEST PUSH1 0x20 MUL PUSH1 0x20 ADD ADD SWAP1 PUSH1 0x1 PUSH1 0x1 PUSH1 0xA0 SHL SUB AND SWAP1 DUP2 PUSH1 0x1 PUSH1 0x1 PUSH1 0xA0 SHL SUB AND DUP2 MSTORE POP POP DUP5 DUP2 PUSH1 0x1 DUP2 MLOAD DUP2 LT PUSH2 0x4EA9 JUMPI PUSH2 0x4EA9 PUSH2 0x5D38 JUMP JUMPDEST PUSH1 0x1 PUSH1 0x1 PUSH1 0xA0 SHL SUB SWAP3 DUP4 AND PUSH1 0x20 SWAP2 DUP3 MUL SWAP3 SWAP1 SWAP3 ADD ADD MSTORE PUSH1 0x7 SLOAD PUSH1 0x40 MLOAD PUSH4 0x7C0329D PUSH1 0xE2 SHL DUP2 MSTORE PUSH0 SWAP3 SWAP2 SWAP1 SWAP2 AND SWAP1 PUSH4 0x1F00CA74 SWAP1 PUSH2 0x4EEC SWAP1 DUP9 SWAP1 DUP7 SWAP1 PUSH1 0x4 ADD PUSH2 0x5F9A JUMP JUMPDEST PUSH0 PUSH1 0x40 MLOAD DUP1 DUP4 SUB DUP2 DUP7 GAS STATICCALL ISZERO DUP1 ISZERO PUSH2 0x4F06 JUMPI RETURNDATASIZE PUSH0 DUP1 RETURNDATACOPY RETURNDATASIZE PUSH0 REVERT JUMPDEST POP POP POP POP PUSH1 0x40 MLOAD RETURNDATASIZE PUSH0 DUP3 RETURNDATACOPY PUSH1 0x1F RETURNDATASIZE SWAP1 DUP2 ADD PUSH1 0x1F NOT AND DUP3 ADD PUSH1 0x40 MSTORE PUSH2 0x4F2D SWAP2 SWAP1 DUP2 ADD SWAP1 PUSH2 0x5FB2 JUMP JUMPDEST SWAP1 POP DUP1 PUSH1 0x1 DUP2 MLOAD DUP2 LT PUSH2 0x4F42 JUMPI PUSH2 0x4F42 PUSH2 0x5D38 JUMP JUMPDEST PUSH1 0x20 MUL PUSH1 0x20 ADD ADD MLOAD PUSH1 0x13 SLOAD GT ISZERO PUSH2 0x5058 JUMPI PUSH1 0x7 SLOAD DUP2 MLOAD PUSH0 SWAP2 PUSH1 0x1 PUSH1 0x1 PUSH1 0xA0 SHL SUB AND SWAP1 PUSH4 0xD06CA61F SWAP1 DUP5 SWAP1 PUSH1 0x1 SWAP1 DUP2 LT PUSH2 0x4F7D JUMPI PUSH2 0x4F7D PUSH2 0x5D38 JUMP JUMPDEST PUSH1 0x20 MUL PUSH1 0x20 ADD ADD MLOAD DUP6 PUSH1 0x40 MLOAD DUP4 PUSH4 0xFFFFFFFF AND PUSH1 0xE0 SHL DUP2 MSTORE PUSH1 0x4 ADD PUSH2 0x4FA3 SWAP3 SWAP2 SWAP1 PUSH2 0x5F9A JUMP JUMPDEST PUSH0 PUSH1 0x40 MLOAD DUP1 DUP4 SUB DUP2 DUP7 GAS STATICCALL ISZERO DUP1 ISZERO PUSH2 0x4FBD JUMPI RETURNDATASIZE PUSH0 DUP1 RETURNDATACOPY RETURNDATASIZE PUSH0 REVERT JUMPDEST POP POP POP POP PUSH1 0x40 MLOAD RETURNDATASIZE PUSH0 DUP3 RETURNDATACOPY PUSH1 0x1F RETURNDATASIZE SWAP1 DUP2 ADD PUSH1 0x1F NOT AND DUP3 ADD PUSH1 0x40 MSTORE PUSH2 0x4FE4 SWAP2 SWAP1 DUP2 ADD SWAP1 PUSH2 0x5FB2 JUMP JUMPDEST SWAP1 POP PUSH0 PUSH2 0x2710 PUSH1 0x10 SLOAD PUSH2 0x2710 PUSH2 0x4FFA SWAP2 SWAP1 PUSH2 0x5F1B JUMP JUMPDEST DUP4 PUSH1 0x1 DUP2 MLOAD DUP2 LT PUSH2 0x500D JUMPI PUSH2 0x500D PUSH2 0x5D38 JUMP JUMPDEST PUSH1 0x20 MUL PUSH1 0x20 ADD ADD MLOAD PUSH2 0x501F SWAP2 SWAP1 PUSH2 0x5D77 JUMP JUMPDEST PUSH2 0x5029 SWAP2 SWAP1 PUSH2 0x5D8E JUMP JUMPDEST SWAP1 POP PUSH2 0x5050 DUP9 DUP5 PUSH1 0x1 DUP2 MLOAD DUP2 LT PUSH2 0x5042 JUMPI PUSH2 0x5042 PUSH2 0x5D38 JUMP JUMPDEST PUSH1 0x20 MUL PUSH1 0x20 ADD ADD MLOAD DUP4 PUSH2 0x43D3 JUMP JUMPDEST POP POP POP PUSH2 0x5125 JUMP JUMPDEST PUSH1 0x7 SLOAD PUSH1 0x13 SLOAD PUSH1 0x40 MLOAD PUSH4 0xD06CA61F PUSH1 0xE0 SHL DUP2 MSTORE PUSH0 SWAP3 PUSH1 0x1 PUSH1 0x1 PUSH1 0xA0 SHL SUB AND SWAP2 PUSH4 0xD06CA61F SWAP2 PUSH2 0x508C SWAP2 SWAP1 DUP8 SWAP1 PUSH1 0x4 ADD PUSH2 0x5F9A JUMP JUMPDEST PUSH0 PUSH1 0x40 MLOAD DUP1 DUP4 SUB DUP2 DUP7 GAS STATICCALL ISZERO DUP1 ISZERO PUSH2 0x50A6 JUMPI RETURNDATASIZE PUSH0 DUP1 RETURNDATACOPY RETURNDATASIZE PUSH0 REVERT JUMPDEST POP POP POP POP PUSH1 0x40 MLOAD RETURNDATASIZE PUSH0 DUP3 RETURNDATACOPY PUSH1 0x1F RETURNDATASIZE SWAP1 DUP2 ADD PUSH1 0x1F NOT AND DUP3 ADD PUSH1 0x40 MSTORE PUSH2 0x50CD SWAP2 SWAP1 DUP2 ADD SWAP1 PUSH2 0x5FB2 JUMP JUMPDEST SWAP1 POP PUSH0 PUSH2 0x2710 PUSH1 0x10 SLOAD PUSH2 0x2710 PUSH2 0x50E3 SWAP2 SWAP1 PUSH2 0x5F1B JUMP JUMPDEST DUP4 PUSH1 0x1 DUP2 MLOAD DUP2 LT PUSH2 0x50F6 JUMPI PUSH2 0x50F6 PUSH2 0x5D38 JUMP JUMPDEST PUSH1 0x20 MUL PUSH1 0x20 ADD ADD MLOAD PUSH2 0x5108 SWAP2 SWAP1 PUSH2 0x5D77 JUMP JUMPDEST PUSH2 0x5112 SWAP2 SWAP1 PUSH2 0x5D8E JUMP JUMPDEST SWAP1 POP PUSH2 0x5121 DUP9 PUSH1 0x13 SLOAD DUP4 PUSH2 0x43D3 JUMP JUMPDEST POP POP POP JUMPDEST POP POP PUSH2 0x1FBF JUMP JUMPDEST PUSH1 0x40 MLOAD PUSH1 0x20 ADD PUSH2 0x513B SWAP1 PUSH2 0x5E89 JUMP JUMPDEST PUSH1 0x40 MLOAD PUSH1 0x20 DUP2 DUP4 SUB SUB DUP2 MSTORE SWAP1 PUSH1 0x40 MSTORE DUP1 MLOAD SWAP1 PUSH1 0x20 ADD KECCAK256 DUP3 PUSH1 0x40 MLOAD PUSH1 0x20 ADD PUSH2 0x5162 SWAP2 SWAP1 PUSH2 0x6094 JUMP JUMPDEST PUSH1 0x40 MLOAD PUSH1 0x20 DUP2 DUP4 SUB SUB DUP2 MSTORE SWAP1 PUSH1 0x40 MSTORE DUP1 MLOAD SWAP1 PUSH1 0x20 ADD KECCAK256 SUB PUSH2 0x1F91 JUMPI PUSH1 0x7 SLOAD PUSH1 0x40 DUP1 MLOAD PUSH4 0x15AB88C9 PUSH1 0xE3 SHL DUP2 MSTORE SWAP1 MLOAD PUSH0 SWAP3 PUSH1 0x1 PUSH1 0x1 PUSH1 0xA0 SHL SUB AND SWAP2 PUSH4 0xAD5C4648 SWAP2 PUSH1 0x4 DUP1 DUP4 ADD SWAP3 PUSH1 0x20 SWAP3 SWAP2 SWAP1 DUP3 SWAP1 SUB ADD DUP2 DUP7 GAS STATICCALL ISZERO DUP1 ISZERO PUSH2 0x51C4 JUMPI RETURNDATASIZE PUSH0 DUP1 RETURNDATACOPY RETURNDATASIZE PUSH0 REVERT JUMPDEST POP POP POP POP PUSH1 0x40 MLOAD RETURNDATASIZE PUSH1 0x1F NOT PUSH1 0x1F DUP3 ADD AND DUP3 ADD DUP1 PUSH1 0x40 MSTORE POP DUP2 ADD SWAP1 PUSH2 0x51E8 SWAP2 SWAP1 PUSH2 0x5DC9 JUMP JUMPDEST DUP3 DUP7 PUSH1 0x40 MLOAD PUSH1 0x20 ADD PUSH2 0x51FC SWAP4 SWAP3 SWAP2 SWAP1 PUSH2 0x6038 JUMP JUMPDEST PUSH1 0x40 DUP1 MLOAD PUSH1 0x1F NOT DUP2 DUP5 SUB ADD DUP2 MSTORE SWAP1 DUP3 SWAP1 MSTORE PUSH1 0x9 SLOAD PUSH4 0x2F80BB1D PUSH1 0xE0 SHL DUP4 MSTORE SWAP1 SWAP3 POP PUSH0 SWAP2 PUSH1 0x1 PUSH1 0x1 PUSH1 0xA0 SHL SUB SWAP1 SWAP2 AND SWAP1 PUSH4 0x2F80BB1D SWAP1 PUSH2 0x5241 SWAP1 DUP6 SWAP1 DUP10 SWAP1 PUSH1 0x4 ADD PUSH2 0x6073 JUMP JUMPDEST PUSH1 0x20 PUSH1 0x40 MLOAD DUP1 DUP4 SUB DUP2 PUSH0 DUP8 GAS CALL ISZERO DUP1 ISZERO PUSH2 0x525D JUMPI RETURNDATASIZE PUSH0 DUP1 RETURNDATACOPY RETURNDATASIZE PUSH0 REVERT JUMPDEST POP POP POP POP PUSH1 0x40 MLOAD RETURNDATASIZE PUSH1 0x1F NOT PUSH1 0x1F DUP3 ADD AND DUP3 ADD DUP1 PUSH1 0x40 MSTORE POP DUP2 ADD SWAP1 PUSH2 0x5281 SWAP2 SWAP1 PUSH2 0x5D4C JUMP JUMPDEST SWAP1 POP DUP1 PUSH1 0x14 SLOAD GT ISZERO PUSH2 0x533E JUMPI PUSH1 0x9 SLOAD PUSH1 0x40 MLOAD PUSH4 0xCDCA1753 PUSH1 0xE0 SHL DUP2 MSTORE PUSH0 SWAP2 PUSH1 0x1 PUSH1 0x1 PUSH1 0xA0 SHL SUB AND SWAP1 PUSH4 0xCDCA1753 SWAP1 PUSH2 0x52BF SWAP1 DUP7 SWAP1 DUP7 SWAP1 PUSH1 0x4 ADD PUSH2 0x6073 JUMP JUMPDEST PUSH1 0x20 PUSH1 0x40 MLOAD DUP1 DUP4 SUB DUP2 PUSH0 DUP8 GAS CALL ISZERO DUP1 ISZERO PUSH2 0x52DB JUMPI RETURNDATASIZE PUSH0 DUP1 RETURNDATACOPY RETURNDATASIZE PUSH0 REVERT JUMPDEST POP POP POP POP PUSH1 0x40 MLOAD RETURNDATASIZE PUSH1 0x1F NOT PUSH1 0x1F DUP3 ADD AND DUP3 ADD DUP1 PUSH1 0x40 MSTORE POP DUP2 ADD SWAP1 PUSH2 0x52FF SWAP2 SWAP1 PUSH2 0x5D4C JUMP JUMPDEST SWAP1 POP PUSH0 PUSH2 0x2710 PUSH1 0x10 SLOAD PUSH2 0x2710 PUSH2 0x5315 SWAP2 SWAP1 PUSH2 0x5F1B JUMP JUMPDEST PUSH2 0x531F SWAP1 DUP5 PUSH2 0x5D77 JUMP JUMPDEST PUSH2 0x5329 SWAP2 SWAP1 PUSH2 0x5D8E JUMP JUMPDEST SWAP1 POP PUSH2 0x5337 DUP9 DUP5 DUP8 DUP5 PUSH2 0x4539 JUMP JUMPDEST POP POP PUSH2 0x5125 JUMP JUMPDEST PUSH1 0x9 SLOAD PUSH1 0x14 SLOAD PUSH1 0x40 MLOAD PUSH4 0xCDCA1753 PUSH1 0xE0 SHL DUP2 MSTORE PUSH0 SWAP3 PUSH1 0x1 PUSH1 0x1 PUSH1 0xA0 SHL SUB AND SWAP2 PUSH4 0xCDCA1753 SWAP2 PUSH2 0x5371 SWAP2 DUP8 SWAP2 PUSH1 0x4 ADD PUSH2 0x6073 JUMP JUMPDEST PUSH1 0x20 PUSH1 0x40 MLOAD DUP1 DUP4 SUB DUP2 PUSH0 DUP8 GAS CALL ISZERO DUP1 ISZERO PUSH2 0x538D JUMPI RETURNDATASIZE PUSH0 DUP1 RETURNDATACOPY RETURNDATASIZE PUSH0 REVERT JUMPDEST POP POP POP POP PUSH1 0x40 MLOAD RETURNDATASIZE PUSH1 0x1F NOT PUSH1 0x1F DUP3 ADD AND DUP3 ADD DUP1 PUSH1 0x40 MSTORE POP DUP2 ADD SWAP1 PUSH2 0x53B1 SWAP2 SWAP1 PUSH2 0x5D4C JUMP JUMPDEST SWAP1 POP PUSH0 PUSH2 0x2710 PUSH1 0x10 SLOAD PUSH2 0x2710 PUSH2 0x53C7 SWAP2 SWAP1 PUSH2 0x5F1B JUMP JUMPDEST PUSH2 0x53D1 SWAP1 DUP5 PUSH2 0x5D77 JUMP JUMPDEST PUSH2 0x53DB SWAP2 SWAP1 PUSH2 0x5D8E JUMP JUMPDEST SWAP1 POP PUSH2 0x1DF3 DUP9 PUSH1 0x14 SLOAD DUP8 DUP5 PUSH2 0x4539 JUMP JUMPDEST PUSH2 0x53F3 PUSH2 0x3FCD JUMP JUMPDEST PUSH0 DUP1 SLOAD PUSH1 0xFF PUSH1 0xA0 SHL NOT AND PUSH1 0x1 PUSH1 0xA0 SHL OR SWAP1 SSTORE PUSH32 0x62E78CEA01BEE320CD4E420270B5EA74000D11B0C9F74754EBDBFC544B05A258 PUSH2 0x47FE CALLER SWAP1 JUMP JUMPDEST PUSH1 0x1 PUSH1 0x1 PUSH1 0xA0 SHL SUB DUP3 AND PUSH2 0x5456 JUMPI PUSH1 0x40 MLOAD PUSH4 0xEC442F05 PUSH1 0xE0 SHL DUP2 MSTORE PUSH0 PUSH1 0x4 DUP3 ADD MSTORE PUSH1 0x24 ADD PUSH2 0x962 JUMP JUMPDEST PUSH2 0x2370 PUSH0 DUP4 DUP4 PUSH2 0x5533 JUMP JUMPDEST PUSH1 0x1 PUSH1 0x1 PUSH1 0xA0 SHL SUB DUP5 AND PUSH2 0x548A JUMPI PUSH1 0x40 MLOAD PUSH4 0xE602DF05 PUSH1 0xE0 SHL DUP2 MSTORE PUSH0 PUSH1 0x4 DUP3 ADD MSTORE PUSH1 0x24 ADD PUSH2 0x962 JUMP JUMPDEST PUSH1 0x1 PUSH1 0x1 PUSH1 0xA0 SHL SUB DUP4 AND PUSH2 0x54B3 JUMPI PUSH1 0x40 MLOAD PUSH4 0x4A1406B1 PUSH1 0xE1 SHL DUP2 MSTORE PUSH0 PUSH1 0x4 DUP3 ADD MSTORE PUSH1 0x24 ADD PUSH2 0x962 JUMP JUMPDEST PUSH1 0x1 PUSH1 0x1 PUSH1 0xA0 SHL SUB DUP1 DUP6 AND PUSH0 SWAP1 DUP2 MSTORE PUSH1 0x2 PUSH1 0x20 SWAP1 DUP2 MSTORE PUSH1 0x40 DUP1 DUP4 KECCAK256 SWAP4 DUP8 AND DUP4 MSTORE SWAP3 SWAP1 MSTORE KECCAK256 DUP3 SWAP1 SSTORE DUP1 ISZERO PUSH2 0x1FBF JUMPI DUP3 PUSH1 0x1 PUSH1 0x1 PUSH1 0xA0 SHL SUB AND DUP5 PUSH1 0x1 PUSH1 0x1 PUSH1 0xA0 SHL SUB AND PUSH32 0x8C5BE1E5EBEC7D5BD14F71427D1E84F3DD0314C0F7B2291E5B200AC8C7C3B925 DUP5 PUSH1 0x40 MLOAD PUSH2 0x5525 SWAP2 DUP2 MSTORE PUSH1 0x20 ADD SWAP1 JUMP JUMPDEST PUSH1 0x40 MLOAD DUP1 SWAP2 SUB SWAP1 LOG3 POP POP POP POP JUMP JUMPDEST PUSH1 0x1 PUSH1 0x1 PUSH1 0xA0 SHL SUB DUP4 AND PUSH2 0x555D JUMPI DUP1 PUSH1 0x3 PUSH0 DUP3 DUP3 SLOAD PUSH2 0x5552 SWAP2 SWAP1 PUSH2 0x5F08 JUMP JUMPDEST SWAP1 SWAP2 SSTORE POP PUSH2 0x55CD SWAP1 POP JUMP JUMPDEST PUSH1 0x1 PUSH1 0x1 PUSH1 0xA0 SHL SUB DUP4 AND PUSH0 SWAP1 DUP2 MSTORE PUSH1 0x1 PUSH1 0x20 MSTORE PUSH1 0x40 SWAP1 KECCAK256 SLOAD DUP2 DUP2 LT ISZERO PUSH2 0x55AF JUMPI PUSH1 0x40 MLOAD PUSH4 0x391434E3 PUSH1 0xE2 SHL DUP2 MSTORE PUSH1 0x1 PUSH1 0x1 PUSH1 0xA0 SHL SUB DUP6 AND PUSH1 0x4 DUP3 ADD MSTORE PUSH1 0x24 DUP2 ADD DUP3 SWAP1 MSTORE PUSH1 0x44 DUP2 ADD DUP4 SWAP1 MSTORE PUSH1 0x64 ADD PUSH2 0x962 JUMP JUMPDEST PUSH1 0x1 PUSH1 0x1 PUSH1 0xA0 SHL SUB DUP5 AND PUSH0 SWAP1 DUP2 MSTORE PUSH1 0x1 PUSH1 0x20 MSTORE PUSH1 0x40 SWAP1 KECCAK256 SWAP1 DUP3 SWAP1 SUB SWAP1 SSTORE JUMPDEST PUSH1 0x1 PUSH1 0x1 PUSH1 0xA0 SHL SUB DUP3 AND PUSH2 0x55E9 JUMPI PUSH1 0x3 DUP1 SLOAD DUP3 SWAP1 SUB SWAP1 SSTORE PUSH2 0x5607 JUMP JUMPDEST PUSH1 0x1 PUSH1 0x1 PUSH1 0xA0 SHL SUB DUP3 AND PUSH0 SWAP1 DUP2 MSTORE PUSH1 0x1 PUSH1 0x20 MSTORE PUSH1 0x40 SWAP1 KECCAK256 DUP1 SLOAD DUP3 ADD SWAP1 SSTORE JUMPDEST DUP2 PUSH1 0x1 PUSH1 0x1 PUSH1 0xA0 SHL SUB AND DUP4 PUSH1 0x1 PUSH1 0x1 PUSH1 0xA0 SHL SUB AND PUSH32 0xDDF252AD1BE2C89B69C2B068FC378DAA952BA7F163C4A11628F55A4DF523B3EF DUP4 PUSH1 0x40 MLOAD PUSH2 0x564C SWAP2 DUP2 MSTORE PUSH1 0x20 ADD SWAP1 JUMP JUMPDEST PUSH1 0x40 MLOAD DUP1 SWAP2 SUB SWAP1 LOG3 POP POP POP JUMP JUMPDEST PUSH0 SLOAD PUSH1 0x1 PUSH1 0xA0 SHL SWAP1 DIV PUSH1 0xFF AND PUSH2 0x2795 JUMPI PUSH1 0x40 MLOAD PUSH4 0x8DFC202B PUSH1 0xE0 SHL DUP2 MSTORE PUSH1 0x4 ADD PUSH1 0x40 MLOAD DUP1 SWAP2 SUB SWAP1 REVERT JUMPDEST POP DUP1 SLOAD PUSH2 0x568E SWAP1 PUSH2 0x5D00 JUMP JUMPDEST PUSH0 DUP3 SSTORE DUP1 PUSH1 0x1F LT PUSH2 0x569D JUMPI POP POP JUMP JUMPDEST PUSH1 0x1F ADD PUSH1 0x20 SWAP1 DIV SWAP1 PUSH0 MSTORE PUSH1 0x20 PUSH0 KECCAK256 SWAP1 DUP2 ADD SWAP1 PUSH2 0x3110 SWAP2 SWAP1 JUMPDEST DUP1 DUP3 GT ISZERO PUSH2 0x56C8 JUMPI PUSH0 DUP2 SSTORE PUSH1 0x1 ADD PUSH2 0x56B5 JUMP JUMPDEST POP SWAP1 JUMP JUMPDEST PUSH0 DUP2 MLOAD DUP1 DUP5 MSTORE DUP1 PUSH1 0x20 DUP5 ADD PUSH1 0x20 DUP7 ADD MCOPY PUSH0 PUSH1 0x20 DUP3 DUP7 ADD ADD MSTORE PUSH1 0x20 PUSH1 0x1F NOT PUSH1 0x1F DUP4 ADD AND DUP6 ADD ADD SWAP2 POP POP SWAP3 SWAP2 POP POP JUMP JUMPDEST PUSH1 0x20 DUP2 MSTORE PUSH0 PUSH2 0x3EF4 PUSH1 0x20 DUP4 ADD DUP5 PUSH2 0x56CC JUMP JUMPDEST PUSH1 0x1 PUSH1 0x1 PUSH1 0xA0 SHL SUB DUP2 AND DUP2 EQ PUSH2 0x3110 JUMPI PUSH0 DUP1 REVERT JUMPDEST PUSH0 DUP1 PUSH1 0x40 DUP4 DUP6 SUB SLT ISZERO PUSH2 0x5731 JUMPI PUSH0 DUP1 REVERT JUMPDEST DUP3 CALLDATALOAD PUSH2 0x573C DUP2 PUSH2 0x570C JUMP JUMPDEST SWAP5 PUSH1 0x20 SWAP4 SWAP1 SWAP4 ADD CALLDATALOAD SWAP4 POP POP POP JUMP JUMPDEST PUSH0 DUP1 PUSH1 0x40 DUP4 DUP6 SUB SLT ISZERO PUSH2 0x575B JUMPI PUSH0 DUP1 REVERT JUMPDEST POP POP DUP1 CALLDATALOAD SWAP3 PUSH1 0x20 SWAP1 SWAP2 ADD CALLDATALOAD SWAP2 POP JUMP JUMPDEST PUSH4 0x4E487B71 PUSH1 0xE0 SHL PUSH0 MSTORE PUSH1 0x41 PUSH1 0x4 MSTORE PUSH1 0x24 PUSH0 REVERT JUMPDEST PUSH1 0x40 MLOAD PUSH1 0x1F DUP3 ADD PUSH1 0x1F NOT AND DUP2 ADD PUSH1 0x1 PUSH1 0x1 PUSH1 0x40 SHL SUB DUP2 GT DUP3 DUP3 LT OR ISZERO PUSH2 0x57A6 JUMPI PUSH2 0x57A6 PUSH2 0x576A JUMP JUMPDEST PUSH1 0x40 MSTORE SWAP2 SWAP1 POP JUMP JUMPDEST PUSH0 PUSH1 0x1 PUSH1 0x1 PUSH1 0x40 SHL SUB DUP3 GT ISZERO PUSH2 0x57C6 JUMPI PUSH2 0x57C6 PUSH2 0x576A JUMP JUMPDEST POP PUSH1 0x5 SHL PUSH1 0x20 ADD SWAP1 JUMP JUMPDEST PUSH0 PUSH1 0x20 DUP3 DUP5 SUB SLT ISZERO PUSH2 0x57E0 JUMPI PUSH0 DUP1 REVERT JUMPDEST DUP2 CALLDATALOAD PUSH1 0x1 PUSH1 0x1 PUSH1 0x40 SHL SUB DUP2 GT ISZERO PUSH2 0x57F5 JUMPI PUSH0 DUP1 REVERT JUMPDEST DUP3 ADD PUSH1 0x1F DUP2 ADD DUP5 SGT PUSH2 0x5805 JUMPI PUSH0 DUP1 REVERT JUMPDEST DUP1 CALLDATALOAD PUSH2 0x5818 PUSH2 0x5813 DUP3 PUSH2 0x57AE JUMP JUMPDEST PUSH2 0x577E JUMP JUMPDEST DUP1 DUP3 DUP3 MSTORE PUSH1 0x20 DUP3 ADD SWAP2 POP PUSH1 0x20 DUP4 PUSH1 0x5 SHL DUP6 ADD ADD SWAP3 POP DUP7 DUP4 GT ISZERO PUSH2 0x5839 JUMPI PUSH0 DUP1 REVERT JUMPDEST PUSH1 0x20 DUP5 ADD SWAP4 POP JUMPDEST DUP3 DUP5 LT ISZERO PUSH2 0x585B JUMPI DUP4 CALLDATALOAD DUP3 MSTORE PUSH1 0x20 SWAP4 DUP5 ADD SWAP4 SWAP1 SWAP2 ADD SWAP1 PUSH2 0x5840 JUMP JUMPDEST SWAP7 SWAP6 POP POP POP POP POP POP JUMP JUMPDEST PUSH0 PUSH1 0x20 DUP3 DUP5 SUB SLT ISZERO PUSH2 0x5875 JUMPI PUSH0 DUP1 REVERT JUMPDEST POP CALLDATALOAD SWAP2 SWAP1 POP JUMP JUMPDEST PUSH0 DUP1 PUSH0 PUSH1 0x60 DUP5 DUP7 SUB SLT ISZERO PUSH2 0x588E JUMPI PUSH0 DUP1 REVERT JUMPDEST DUP4 CALLDATALOAD PUSH2 0x5899 DUP2 PUSH2 0x570C JUMP JUMPDEST SWAP3 POP PUSH1 0x20 DUP5 ADD CALLDATALOAD PUSH2 0x58A9 DUP2 PUSH2 0x570C JUMP JUMPDEST SWAP3 SWAP6 SWAP3 SWAP5 POP POP POP PUSH1 0x40 SWAP2 SWAP1 SWAP2 ADD CALLDATALOAD SWAP1 JUMP JUMPDEST PUSH0 PUSH1 0x20 DUP3 ADD PUSH1 0x20 DUP4 MSTORE DUP1 DUP5 MLOAD DUP1 DUP4 MSTORE PUSH1 0x40 DUP6 ADD SWAP2 POP PUSH1 0x40 DUP2 PUSH1 0x5 SHL DUP7 ADD ADD SWAP3 POP PUSH1 0x20 DUP7 ADD PUSH0 JUMPDEST DUP3 DUP2 LT ISZERO PUSH2 0x594A JUMPI PUSH1 0x3F NOT DUP8 DUP7 SUB ADD DUP5 MSTORE DUP2 MLOAD PUSH1 0x1 DUP1 PUSH1 0xA0 SHL SUB DUP2 MLOAD AND DUP7 MSTORE PUSH1 0x20 DUP2 ADD MLOAD PUSH1 0x20 DUP8 ADD MSTORE PUSH1 0x40 DUP2 ADD MLOAD PUSH1 0x80 PUSH1 0x40 DUP9 ADD MSTORE PUSH2 0x5922 PUSH1 0x80 DUP9 ADD DUP3 PUSH2 0x56CC JUMP JUMPDEST PUSH1 0x60 SWAP3 DUP4 ADD MLOAD PUSH3 0xFFFFFF AND SWAP8 SWAP1 SWAP3 ADD SWAP7 SWAP1 SWAP7 MSTORE SWAP5 POP PUSH1 0x20 SWAP4 DUP5 ADD SWAP4 SWAP2 SWAP1 SWAP2 ADD SWAP1 PUSH1 0x1 ADD PUSH2 0x58E0 JUMP JUMPDEST POP SWAP3 SWAP7 SWAP6 POP POP POP POP POP POP JUMP JUMPDEST PUSH1 0x1 DUP1 PUSH1 0xA0 SHL SUB DUP6 AND DUP2 MSTORE DUP4 PUSH1 0x20 DUP3 ADD MSTORE PUSH1 0x80 PUSH1 0x40 DUP3 ADD MSTORE PUSH0 PUSH2 0x597C PUSH1 0x80 DUP4 ADD DUP6 PUSH2 0x56CC JUMP JUMPDEST SWAP1 POP PUSH3 0xFFFFFF DUP4 AND PUSH1 0x60 DUP4 ADD MSTORE SWAP6 SWAP5 POP POP POP POP POP JUMP JUMPDEST PUSH0 PUSH1 0x20 DUP3 DUP5 SUB SLT ISZERO PUSH2 0x59A2 JUMPI PUSH0 DUP1 REVERT JUMPDEST DUP2 CALLDATALOAD PUSH2 0x3EF4 DUP2 PUSH2 0x570C JUMP JUMPDEST PUSH1 0x1 PUSH1 0x1 PUSH1 0xA0 SHL SUB DUP7 DUP2 AND DUP3 MSTORE DUP6 AND PUSH1 0x20 DUP3 ADD MSTORE PUSH1 0x40 DUP2 ADD DUP5 SWAP1 MSTORE PUSH1 0xA0 PUSH1 0x60 DUP3 ADD DUP2 SWAP1 MSTORE PUSH0 SWAP1 PUSH2 0x59DF SWAP1 DUP4 ADD DUP6 PUSH2 0x56CC JUMP JUMPDEST SWAP1 POP PUSH3 0xFFFFFF DUP4 AND PUSH1 0x80 DUP4 ADD MSTORE SWAP7 SWAP6 POP POP POP POP POP POP JUMP JUMPDEST PUSH0 DUP3 PUSH1 0x1F DUP4 ADD SLT PUSH2 0x5A05 JUMPI PUSH0 DUP1 REVERT JUMPDEST DUP2 CALLDATALOAD PUSH1 0x1 PUSH1 0x1 PUSH1 0x40 SHL SUB DUP2 GT ISZERO PUSH2 0x5A1E JUMPI PUSH2 0x5A1E PUSH2 0x576A JUMP JUMPDEST PUSH2 0x5A31 PUSH1 0x1F DUP3 ADD PUSH1 0x1F NOT AND PUSH1 0x20 ADD PUSH2 0x577E JUMP JUMPDEST DUP2 DUP2 MSTORE DUP5 PUSH1 0x20 DUP4 DUP7 ADD ADD GT ISZERO PUSH2 0x5A45 JUMPI PUSH0 DUP1 REVERT JUMPDEST DUP2 PUSH1 0x20 DUP6 ADD PUSH1 0x20 DUP4 ADD CALLDATACOPY PUSH0 SWAP2 DUP2 ADD PUSH1 0x20 ADD SWAP2 SWAP1 SWAP2 MSTORE SWAP4 SWAP3 POP POP POP JUMP JUMPDEST DUP1 CALLDATALOAD PUSH3 0xFFFFFF DUP2 AND DUP2 EQ PUSH2 0x5A73 JUMPI PUSH0 DUP1 REVERT JUMPDEST SWAP2 SWAP1 POP JUMP JUMPDEST PUSH0 DUP1 PUSH0 DUP1 PUSH1 0x80 DUP6 DUP8 SUB SLT ISZERO PUSH2 0x5A8B JUMPI PUSH0 DUP1 REVERT JUMPDEST DUP5 CALLDATALOAD PUSH2 0x5A96 DUP2 PUSH2 0x570C JUMP JUMPDEST SWAP4 POP PUSH1 0x20 DUP6 ADD CALLDATALOAD SWAP3 POP PUSH1 0x40 DUP6 ADD CALLDATALOAD PUSH1 0x1 PUSH1 0x1 PUSH1 0x40 SHL SUB DUP2 GT ISZERO PUSH2 0x5AB7 JUMPI PUSH0 DUP1 REVERT JUMPDEST PUSH2 0x5AC3 DUP8 DUP3 DUP9 ADD PUSH2 0x59F6 JUMP JUMPDEST SWAP3 POP POP PUSH2 0x5AD2 PUSH1 0x60 DUP7 ADD PUSH2 0x5A61 JUMP JUMPDEST SWAP1 POP SWAP3 SWAP6 SWAP2 SWAP5 POP SWAP3 POP JUMP JUMPDEST DUP1 ISZERO ISZERO DUP2 EQ PUSH2 0x3110 JUMPI PUSH0 DUP1 REVERT JUMPDEST PUSH0 DUP1 PUSH1 0x40 DUP4 DUP6 SUB SLT ISZERO PUSH2 0x5AFB JUMPI PUSH0 DUP1 REVERT JUMPDEST DUP3 CALLDATALOAD PUSH2 0x5B06 DUP2 PUSH2 0x570C JUMP JUMPDEST SWAP2 POP PUSH1 0x20 DUP4 ADD CALLDATALOAD PUSH2 0x5B16 DUP2 PUSH2 0x5ADD JUMP JUMPDEST DUP1 SWAP2 POP POP SWAP3 POP SWAP3 SWAP1 POP JUMP JUMPDEST PUSH0 DUP1 DUP4 PUSH1 0x1F DUP5 ADD SLT PUSH2 0x5B31 JUMPI PUSH0 DUP1 REVERT JUMPDEST POP DUP2 CALLDATALOAD PUSH1 0x1 PUSH1 0x1 PUSH1 0x40 SHL SUB DUP2 GT ISZERO PUSH2 0x5B47 JUMPI PUSH0 DUP1 REVERT JUMPDEST PUSH1 0x20 DUP4 ADD SWAP2 POP DUP4 PUSH1 0x20 DUP3 PUSH1 0x5 SHL DUP6 ADD ADD GT ISZERO PUSH2 0x5B61 JUMPI PUSH0 DUP1 REVERT JUMPDEST SWAP3 POP SWAP3 SWAP1 POP JUMP JUMPDEST PUSH0 DUP1 PUSH0 DUP1 PUSH0 DUP1 PUSH0 DUP1 PUSH1 0x80 DUP10 DUP12 SUB SLT ISZERO PUSH2 0x5B7F JUMPI PUSH0 DUP1 REVERT JUMPDEST DUP9 CALLDATALOAD PUSH1 0x1 PUSH1 0x1 PUSH1 0x40 SHL SUB DUP2 GT ISZERO PUSH2 0x5B94 JUMPI PUSH0 DUP1 REVERT JUMPDEST PUSH2 0x5BA0 DUP12 DUP3 DUP13 ADD PUSH2 0x5B21 JUMP JUMPDEST SWAP1 SWAP10 POP SWAP8 POP POP PUSH1 0x20 DUP10 ADD CALLDATALOAD PUSH1 0x1 PUSH1 0x1 PUSH1 0x40 SHL SUB DUP2 GT ISZERO PUSH2 0x5BBE JUMPI PUSH0 DUP1 REVERT JUMPDEST PUSH2 0x5BCA DUP12 DUP3 DUP13 ADD PUSH2 0x5B21 JUMP JUMPDEST SWAP1 SWAP8 POP SWAP6 POP POP PUSH1 0x40 DUP10 ADD CALLDATALOAD PUSH1 0x1 PUSH1 0x1 PUSH1 0x40 SHL SUB DUP2 GT ISZERO PUSH2 0x5BE8 JUMPI PUSH0 DUP1 REVERT JUMPDEST PUSH2 0x5BF4 DUP12 DUP3 DUP13 ADD PUSH2 0x5B21 JUMP JUMPDEST SWAP1 SWAP6 POP SWAP4 POP POP PUSH1 0x60 DUP10 ADD CALLDATALOAD PUSH1 0x1 PUSH1 0x1 PUSH1 0x40 SHL SUB DUP2 GT ISZERO PUSH2 0x5C12 JUMPI PUSH0 DUP1 REVERT JUMPDEST PUSH2 0x5C1E DUP12 DUP3 DUP13 ADD PUSH2 0x5B21 JUMP JUMPDEST SWAP10 SWAP13 SWAP9 SWAP12 POP SWAP7 SWAP10 POP SWAP5 SWAP8 SWAP4 SWAP7 SWAP3 SWAP6 SWAP5 POP POP POP JUMP JUMPDEST PUSH0 PUSH1 0x20 DUP3 ADD PUSH1 0x20 DUP4 MSTORE DUP1 DUP5 MLOAD DUP1 DUP4 MSTORE PUSH1 0x40 DUP6 ADD SWAP2 POP PUSH1 0x40 DUP2 PUSH1 0x5 SHL DUP7 ADD ADD SWAP3 POP PUSH1 0x20 DUP7 ADD PUSH0 JUMPDEST DUP3 DUP2 LT ISZERO PUSH2 0x594A JUMPI PUSH1 0x3F NOT DUP8 DUP7 SUB ADD DUP5 MSTORE DUP2 MLOAD PUSH1 0x1 DUP1 PUSH1 0xA0 SHL SUB DUP2 MLOAD AND DUP7 MSTORE PUSH1 0x1 DUP1 PUSH1 0xA0 SHL SUB PUSH1 0x20 DUP3 ADD MLOAD AND PUSH1 0x20 DUP8 ADD MSTORE PUSH1 0x40 DUP2 ADD MLOAD PUSH1 0x40 DUP8 ADD MSTORE PUSH1 0x60 DUP2 ADD MLOAD PUSH1 0xA0 PUSH1 0x60 DUP9 ADD MSTORE PUSH2 0x5CAC PUSH1 0xA0 DUP9 ADD DUP3 PUSH2 0x56CC JUMP JUMPDEST PUSH1 0x80 SWAP3 DUP4 ADD MLOAD PUSH3 0xFFFFFF AND SWAP8 SWAP1 SWAP3 ADD SWAP7 SWAP1 SWAP7 MSTORE SWAP5 POP PUSH1 0x20 SWAP4 DUP5 ADD SWAP4 SWAP2 SWAP1 SWAP2 ADD SWAP1 PUSH1 0x1 ADD PUSH2 0x5C58 JUMP JUMPDEST PUSH0 DUP1 PUSH1 0x40 DUP4 DUP6 SUB SLT ISZERO PUSH2 0x5CE5 JUMPI PUSH0 DUP1 REVERT JUMPDEST DUP3 CALLDATALOAD PUSH2 0x5CF0 DUP2 PUSH2 0x570C JUMP JUMPDEST SWAP2 POP PUSH1 0x20 DUP4 ADD CALLDATALOAD PUSH2 0x5B16 DUP2 PUSH2 0x570C JUMP JUMPDEST PUSH1 0x1 DUP2 DUP2 SHR SWAP1 DUP3 AND DUP1 PUSH2 0x5D14 JUMPI PUSH1 0x7F DUP3 AND SWAP2 POP JUMPDEST PUSH1 0x20 DUP3 LT DUP2 SUB PUSH2 0x5D32 JUMPI PUSH4 0x4E487B71 PUSH1 0xE0 SHL PUSH0 MSTORE PUSH1 0x22 PUSH1 0x4 MSTORE PUSH1 0x24 PUSH0 REVERT JUMPDEST POP SWAP2 SWAP1 POP JUMP JUMPDEST PUSH4 0x4E487B71 PUSH1 0xE0 SHL PUSH0 MSTORE PUSH1 0x32 PUSH1 0x4 MSTORE PUSH1 0x24 PUSH0 REVERT JUMPDEST PUSH0 PUSH1 0x20 DUP3 DUP5 SUB SLT ISZERO PUSH2 0x5D5C JUMPI PUSH0 DUP1 REVERT JUMPDEST POP MLOAD SWAP2 SWAP1 POP JUMP JUMPDEST PUSH4 0x4E487B71 PUSH1 0xE0 SHL PUSH0 MSTORE PUSH1 0x11 PUSH1 0x4 MSTORE PUSH1 0x24 PUSH0 REVERT JUMPDEST DUP1 DUP3 MUL DUP2 ISZERO DUP3 DUP3 DIV DUP5 EQ OR PUSH2 0x91E JUMPI PUSH2 0x91E PUSH2 0x5D63 JUMP JUMPDEST PUSH0 DUP3 PUSH2 0x5DA8 JUMPI PUSH4 0x4E487B71 PUSH1 0xE0 SHL PUSH0 MSTORE PUSH1 0x12 PUSH1 0x4 MSTORE PUSH1 0x24 PUSH0 REVERT JUMPDEST POP DIV SWAP1 JUMP JUMPDEST PUSH1 0x20 DUP1 DUP3 MSTORE PUSH1 0x2 SWAP1 DUP3 ADD MSTORE PUSH2 0x3E3 PUSH1 0xF4 SHL PUSH1 0x40 DUP3 ADD MSTORE PUSH1 0x60 ADD SWAP1 JUMP JUMPDEST PUSH0 PUSH1 0x20 DUP3 DUP5 SUB SLT ISZERO PUSH2 0x5DD9 JUMPI PUSH0 DUP1 REVERT JUMPDEST DUP2 MLOAD PUSH2 0x3EF4 DUP2 PUSH2 0x570C JUMP JUMPDEST PUSH0 DUP2 SLOAD PUSH2 0x5DF0 DUP2 PUSH2 0x5D00 JUMP JUMPDEST DUP1 DUP6 MSTORE PUSH1 0x1 DUP3 AND DUP1 ISZERO PUSH2 0x5E0A JUMPI PUSH1 0x1 DUP2 EQ PUSH2 0x5E26 JUMPI PUSH2 0x5E5A JUMP JUMPDEST PUSH1 0xFF NOT DUP4 AND PUSH1 0x20 DUP8 ADD MSTORE PUSH1 0x20 DUP3 ISZERO ISZERO PUSH1 0x5 SHL DUP8 ADD ADD SWAP4 POP PUSH2 0x5E5A JUMP JUMPDEST DUP5 PUSH0 MSTORE PUSH1 0x20 PUSH0 KECCAK256 PUSH0 JUMPDEST DUP4 DUP2 LT ISZERO PUSH2 0x5E51 JUMPI DUP2 SLOAD PUSH1 0x20 DUP3 DUP11 ADD ADD MSTORE PUSH1 0x1 DUP3 ADD SWAP2 POP PUSH1 0x20 DUP2 ADD SWAP1 POP PUSH2 0x5E2F JUMP JUMPDEST DUP8 ADD PUSH1 0x20 ADD SWAP5 POP POP JUMPDEST POP POP POP SWAP3 SWAP2 POP POP JUMP JUMPDEST PUSH1 0x1 DUP1 PUSH1 0xA0 SHL SUB DUP6 AND DUP2 MSTORE DUP4 PUSH1 0x20 DUP3 ADD MSTORE PUSH1 0x80 PUSH1 0x40 DUP3 ADD MSTORE PUSH0 PUSH2 0x597C PUSH1 0x80 DUP4 ADD DUP6 PUSH2 0x5DE4 JUMP JUMPDEST PUSH2 0x7633 PUSH1 0xF0 SHL DUP2 MSTORE PUSH1 0x2 ADD SWAP1 JUMP JUMPDEST PUSH0 DUP1 DUP4 SLOAD PUSH2 0x5EA4 DUP2 PUSH2 0x5D00 JUMP JUMPDEST PUSH1 0x1 DUP3 AND DUP1 ISZERO PUSH2 0x5EBB JUMPI PUSH1 0x1 DUP2 EQ PUSH2 0x5ED0 JUMPI PUSH2 0x5EFD JUMP JUMPDEST PUSH1 0xFF NOT DUP4 AND DUP7 MSTORE DUP2 ISZERO ISZERO DUP3 MUL DUP7 ADD SWAP4 POP PUSH2 0x5EFD JUMP JUMPDEST DUP7 PUSH0 MSTORE PUSH1 0x20 PUSH0 KECCAK256 PUSH0 JUMPDEST DUP4 DUP2 LT ISZERO PUSH2 0x5EF5 JUMPI DUP2 SLOAD DUP9 DUP3 ADD MSTORE PUSH1 0x1 SWAP1 SWAP2 ADD SWAP1 PUSH1 0x20 ADD PUSH2 0x5ED9 JUMP JUMPDEST POP POP DUP2 DUP7 ADD SWAP4 POP JUMPDEST POP SWAP2 SWAP6 SWAP5 POP POP POP POP POP JUMP JUMPDEST DUP1 DUP3 ADD DUP1 DUP3 GT ISZERO PUSH2 0x91E JUMPI PUSH2 0x91E PUSH2 0x5D63 JUMP JUMPDEST DUP2 DUP2 SUB DUP2 DUP2 GT ISZERO PUSH2 0x91E JUMPI PUSH2 0x91E PUSH2 0x5D63 JUMP JUMPDEST PUSH0 PUSH1 0x20 DUP3 DUP5 SUB SLT ISZERO PUSH2 0x5F3E JUMPI PUSH0 DUP1 REVERT JUMPDEST DUP2 MLOAD PUSH2 0x3EF4 DUP2 PUSH2 0x5ADD JUMP JUMPDEST PUSH2 0x3B19 PUSH1 0xF1 SHL DUP2 MSTORE PUSH1 0x2 ADD SWAP1 JUMP JUMPDEST PUSH0 DUP2 MLOAD DUP1 DUP5 MSTORE PUSH1 0x20 DUP5 ADD SWAP4 POP PUSH1 0x20 DUP4 ADD PUSH0 JUMPDEST DUP3 DUP2 LT ISZERO PUSH2 0x5F90 JUMPI DUP2 MLOAD PUSH1 0x1 PUSH1 0x1 PUSH1 0xA0 SHL SUB AND DUP7 MSTORE PUSH1 0x20 SWAP6 DUP7 ADD SWAP6 SWAP1 SWAP2 ADD SWAP1 PUSH1 0x1 ADD PUSH2 0x5F69 JUMP JUMPDEST POP SWAP4 SWAP5 SWAP4 POP POP POP POP JUMP JUMPDEST DUP3 DUP2 MSTORE PUSH1 0x40 PUSH1 0x20 DUP3 ADD MSTORE PUSH0 PUSH2 0x3933 PUSH1 0x40 DUP4 ADD DUP5 PUSH2 0x5F57 JUMP JUMPDEST PUSH0 PUSH1 0x20 DUP3 DUP5 SUB SLT ISZERO PUSH2 0x5FC2 JUMPI PUSH0 DUP1 REVERT JUMPDEST DUP2 MLOAD PUSH1 0x1 PUSH1 0x1 PUSH1 0x40 SHL SUB DUP2 GT ISZERO PUSH2 0x5FD7 JUMPI PUSH0 DUP1 REVERT JUMPDEST DUP3 ADD PUSH1 0x1F DUP2 ADD DUP5 SGT PUSH2 0x5FE7 JUMPI PUSH0 DUP1 REVERT JUMPDEST DUP1 MLOAD PUSH2 0x5FF5 PUSH2 0x5813 DUP3 PUSH2 0x57AE JUMP JUMPDEST DUP1 DUP3 DUP3 MSTORE PUSH1 0x20 DUP3 ADD SWAP2 POP PUSH1 0x20 DUP4 PUSH1 0x5 SHL DUP6 ADD ADD SWAP3 POP DUP7 DUP4 GT ISZERO PUSH2 0x6016 JUMPI PUSH0 DUP1 REVERT JUMPDEST PUSH1 0x20 DUP5 ADD SWAP4 POP JUMPDEST DUP3 DUP5 LT ISZERO PUSH2 0x585B JUMPI DUP4 MLOAD DUP3 MSTORE PUSH1 0x20 SWAP4 DUP5 ADD SWAP4 SWAP1 SWAP2 ADD SWAP1 PUSH2 0x601D JUMP JUMPDEST PUSH1 0x60 SWAP4 DUP5 SHL PUSH12 0xFFFFFFFFFFFFFFFFFFFFFFFF NOT SWAP1 DUP2 AND DUP3 MSTORE PUSH1 0xE8 SWAP4 SWAP1 SWAP4 SHL PUSH1 0x1 PUSH1 0x1 PUSH1 0xE8 SHL SUB NOT AND PUSH1 0x14 DUP3 ADD MSTORE SWAP3 SHL AND PUSH1 0x17 DUP3 ADD MSTORE PUSH1 0x2B ADD SWAP1 JUMP JUMPDEST PUSH1 0x40 DUP2 MSTORE PUSH0 PUSH2 0x6085 PUSH1 0x40 DUP4 ADD DUP6 PUSH2 0x56CC JUMP JUMPDEST SWAP1 POP DUP3 PUSH1 0x20 DUP4 ADD MSTORE SWAP4 SWAP3 POP POP POP JUMP JUMPDEST PUSH0 DUP3 MLOAD DUP1 PUSH1 0x20 DUP6 ADD DUP5 MCOPY PUSH0 SWAP3 ADD SWAP2 DUP3 MSTORE POP SWAP2 SWAP1 POP JUMP JUMPDEST PUSH1 0x1F DUP3 GT ISZERO PUSH2 0x310D JUMPI DUP1 PUSH0 MSTORE PUSH1 0x20 PUSH0 KECCAK256 PUSH1 0x1F DUP5 ADD PUSH1 0x5 SHR DUP2 ADD PUSH1 0x20 DUP6 LT ISZERO PUSH2 0x60CF JUMPI POP DUP1 JUMPDEST PUSH1 0x1F DUP5 ADD PUSH1 0x5 SHR DUP3 ADD SWAP2 POP JUMPDEST DUP2 DUP2 LT ISZERO PUSH2 0x2F7B JUMPI PUSH0 DUP2 SSTORE PUSH1 0x1 ADD PUSH2 0x60DB JUMP JUMPDEST DUP2 MLOAD PUSH1 0x1 PUSH1 0x1 PUSH1 0x40 SHL SUB DUP2 GT ISZERO PUSH2 0x6107 JUMPI PUSH2 0x6107 PUSH2 0x576A JUMP JUMPDEST PUSH2 0x611B DUP2 PUSH2 0x6115 DUP5 SLOAD PUSH2 0x5D00 JUMP JUMPDEST DUP5 PUSH2 0x60AA JUMP JUMPDEST PUSH1 0x20 PUSH1 0x1F DUP3 GT PUSH1 0x1 DUP2 EQ PUSH2 0x6150 JUMPI PUSH0 DUP4 ISZERO PUSH2 0x6136 JUMPI POP DUP5 DUP3 ADD MLOAD JUMPDEST PUSH1 0x1 DUP5 SWAP1 SHL PUSH0 NOT PUSH1 0x3 DUP7 SWAP1 SHL SHR NOT DUP3 AND OR JUMPDEST DUP6 SSTORE POP PUSH2 0x2F7B JUMP JUMPDEST PUSH0 DUP5 DUP2 MSTORE PUSH1 0x20 DUP2 KECCAK256 PUSH1 0x1F NOT DUP6 AND SWAP2 JUMPDEST DUP3 DUP2 LT ISZERO PUSH2 0x617F JUMPI DUP8 DUP6 ADD MLOAD DUP3 SSTORE PUSH1 0x20 SWAP5 DUP6 ADD SWAP5 PUSH1 0x1 SWAP1 SWAP3 ADD SWAP2 ADD PUSH2 0x615F JUMP JUMPDEST POP DUP5 DUP3 LT ISZERO PUSH2 0x619C JUMPI DUP7 DUP5 ADD MLOAD PUSH0 NOT PUSH1 0x3 DUP8 SWAP1 SHL PUSH1 0xF8 AND SHR NOT AND DUP2 SSTORE JUMPDEST POP POP POP POP PUSH1 0x1 SWAP1 DUP2 SHL ADD SWAP1 SSTORE POP JUMP JUMPDEST PUSH0 PUSH1 0x1 DUP3 ADD PUSH2 0x61BC JUMPI PUSH2 0x61BC PUSH2 0x5D63 JUMP JUMPDEST POP PUSH1 0x1 ADD SWAP1 JUMP JUMPDEST PUSH1 0x1 DUP1 PUSH1 0xA0 SHL SUB DUP5 AND DUP2 MSTORE DUP3 PUSH1 0x20 DUP3 ADD MSTORE PUSH1 0x60 PUSH1 0x40 DUP3 ADD MSTORE PUSH0 PUSH2 0x4530 PUSH1 0x60 DUP4 ADD DUP5 PUSH2 0x56CC JUMP JUMPDEST PUSH0 DUP2 PUSH2 0x61F7 JUMPI PUSH2 0x61F7 PUSH2 0x5D63 JUMP JUMPDEST POP PUSH0 NOT ADD SWAP1 JUMP JUMPDEST PUSH0 DUP1 DUP4 CALLDATALOAD PUSH1 0x1E NOT DUP5 CALLDATASIZE SUB ADD DUP2 SLT PUSH2 0x6213 JUMPI PUSH0 DUP1 REVERT JUMPDEST DUP4 ADD DUP1 CALLDATALOAD SWAP2 POP PUSH1 0x1 PUSH1 0x1 PUSH1 0x40 SHL SUB DUP3 GT ISZERO PUSH2 0x622C JUMPI PUSH0 DUP1 REVERT JUMPDEST PUSH1 0x20 ADD SWAP2 POP CALLDATASIZE DUP2 SWAP1 SUB DUP3 SGT ISZERO PUSH2 0x5B61 JUMPI PUSH0 DUP1 REVERT JUMPDEST PUSH0 PUSH1 0x20 DUP3 DUP5 SUB SLT ISZERO PUSH2 0x6250 JUMPI PUSH0 DUP1 REVERT JUMPDEST PUSH2 0x3EF4 DUP3 PUSH2 0x5A61 JUMP JUMPDEST PUSH1 0x1 DUP1 PUSH1 0xA0 SHL SUB DUP5 AND DUP2 MSTORE DUP3 PUSH1 0x20 DUP3 ADD MSTORE PUSH1 0x60 PUSH1 0x40 DUP3 ADD MSTORE PUSH0 PUSH2 0x4530 PUSH1 0x60 DUP4 ADD DUP5 PUSH2 0x5DE4 JUMP JUMPDEST DUP6 DUP2 MSTORE DUP5 PUSH1 0x20 DUP3 ADD MSTORE PUSH1 0xA0 PUSH1 0x40 DUP3 ADD MSTORE PUSH0 PUSH2 0x629D PUSH1 0xA0 DUP4 ADD DUP7 PUSH2 0x5F57 JUMP JUMPDEST PUSH1 0x1 PUSH1 0x1 PUSH1 0xA0 SHL SUB SWAP5 SWAP1 SWAP5 AND PUSH1 0x60 DUP4 ADD MSTORE POP PUSH1 0x80 ADD MSTORE SWAP4 SWAP3 POP POP POP JUMP JUMPDEST DUP2 MLOAD PUSH1 0x1 PUSH1 0x1 PUSH1 0xA0 SHL SUB SWAP1 DUP2 AND DUP3 MSTORE PUSH1 0x20 DUP1 DUP5 ADD MLOAD DUP3 AND SWAP1 DUP4 ADD MSTORE PUSH1 0x40 DUP1 DUP5 ADD MLOAD PUSH3 0xFFFFFF AND SWAP1 DUP4 ADD MSTORE PUSH1 0x60 DUP1 DUP5 ADD MLOAD SWAP2 DUP3 AND SWAP1 DUP4 ADD MSTORE PUSH2 0x100 DUP3 ADD SWAP1 POP PUSH1 0x80 DUP4 ADD MLOAD PUSH1 0x80 DUP4 ADD MSTORE PUSH1 0xA0 DUP4 ADD MLOAD PUSH1 0xA0 DUP4 ADD MSTORE PUSH1 0xC0 DUP4 ADD MLOAD PUSH1 0xC0 DUP4 ADD MSTORE PUSH1 0xE0 DUP4 ADD MLOAD PUSH2 0x2545 PUSH1 0xE0 DUP5 ADD DUP3 PUSH1 0x1 PUSH1 0x1 PUSH1 0xA0 SHL SUB AND SWAP1 MSTORE JUMP JUMPDEST DUP5 DUP2 MSTORE PUSH1 0x80 PUSH1 0x20 DUP3 ADD MSTORE PUSH0 PUSH2 0x6348 PUSH1 0x80 DUP4 ADD DUP7 PUSH2 0x5F57 JUMP JUMPDEST PUSH1 0x1 PUSH1 0x1 PUSH1 0xA0 SHL SUB SWAP5 SWAP1 SWAP5 AND PUSH1 0x40 DUP4 ADD MSTORE POP PUSH1 0x60 ADD MSTORE SWAP3 SWAP2 POP POP JUMP JUMPDEST DUP2 DUP2 SUB PUSH2 0x636F JUMPI POP POP JUMP JUMPDEST PUSH2 0x6379 DUP3 SLOAD PUSH2 0x5D00 JUMP JUMPDEST PUSH1 0x1 PUSH1 0x1 PUSH1 0x40 SHL SUB DUP2 GT ISZERO PUSH2 0x6390 JUMPI PUSH2 0x6390 PUSH2 0x576A JUMP JUMPDEST PUSH2 0x639E DUP2 PUSH2 0x6115 DUP5 SLOAD PUSH2 0x5D00 JUMP JUMPDEST PUSH0 PUSH1 0x1F DUP3 GT PUSH1 0x1 DUP2 EQ PUSH2 0x63CD JUMPI PUSH0 DUP4 ISZERO PUSH2 0x6136 JUMPI POP DUP2 DUP6 ADD SLOAD PUSH1 0x1 DUP5 SWAP1 SHL PUSH0 NOT PUSH1 0x3 DUP7 SWAP1 SHL SHR NOT DUP3 AND OR PUSH2 0x6148 JUMP JUMPDEST PUSH0 DUP6 DUP2 MSTORE PUSH1 0x20 DUP1 DUP3 KECCAK256 DUP7 DUP4 MSTORE SWAP1 DUP3 KECCAK256 PUSH1 0x1F NOT DUP7 AND SWAP3 JUMPDEST DUP4 DUP2 LT ISZERO PUSH2 0x6403 JUMPI DUP3 DUP7 ADD SLOAD DUP3 SSTORE PUSH1 0x1 SWAP6 DUP7 ADD SWAP6 SWAP1 SWAP2 ADD SWAP1 PUSH1 0x20 ADD PUSH2 0x63E3 JUMP JUMPDEST POP DUP6 DUP4 LT ISZERO PUSH2 0x6420 JUMPI DUP2 DUP6 ADD SLOAD PUSH0 NOT PUSH1 0x3 DUP9 SWAP1 SHL PUSH1 0xF8 AND SHR NOT AND DUP2 SSTORE JUMPDEST POP POP POP POP POP PUSH1 0x1 SWAP1 DUP2 SHL ADD SWAP1 SSTORE POP JUMP JUMPDEST PUSH4 0x4E487B71 PUSH1 0xE0 SHL PUSH0 MSTORE PUSH1 0x31 PUSH1 0x4 MSTORE PUSH1 0x24 PUSH0 REVERT INVALID LOG2 PUSH5 0x6970667358 0x22 SLT KECCAK256 0xBE BLOBHASH PUSH21 0xBF3974A62BAA8C5C4E136928A593896DFF5D193BCB DUP13 0xED PUSH30 0x6D70F48FCA64736F6C634300081A00330000000000000000000000000000 "
		},
		"gasEstimates": {
			"creation": {
				"codeDepositCost": "5144400",
				"executionCost": "infinite",
				"totalCost": "infinite"
			},
			"external": {
				"allowance(address,address)": "infinite",
				"approve(address,uint256)": "infinite",
				"balanceOf(address)": "2618",
				"bulkAddTokens(address[],uint256[],string[],uint24[])": "infinite",
				"decimals()": "266",
				"deposit()": "infinite",
				"depositFee()": "2362",
				"ethDepositedFailed(address)": "2643",
				"failedSwaps(uint256)": "infinite",
				"getAllTokens()": "infinite",
				"getFailedSwaps(address)": "infinite",
				"getPortfolioValue(uint256[])": "infinite",
				"name()": "infinite",
				"needsRebalance(uint256[])": "infinite",
				"owner()": "2440",
				"pause()": "infinite",
				"paused()": "2474",
				"portfolio(uint256)": "infinite",
				"profitToETH()": "2339",
				"profitToWETH()": "2361",
				"rebalance(uint256[])": "infinite",
				"renounceOwnership()": "infinite",
				"retryFailedSwaps(address)": "infinite",
				"setFees(uint256,uint256)": "46763",
				"setSlippageTolerance(uint256)": "25711",
				"setWhitelist(address,bool)": "infinite",
				"slippageTolerance()": "2449",
				"swapETHForToken(address,uint256,string,uint24)": "infinite",
				"swapTokenForETH(address,uint256,string,uint24)": "infinite",
				"symbol()": "infinite",
				"totalFeesToETH()": "2426",
				"totalFeesToWETH()": "2384",
				"totalSupply()": "2326",
				"transfer(address,uint256)": "infinite",
				"transferFrom(address,address,uint256)": "infinite",
				"transferOwnership(address)": "infinite",
				"uniswapV2Router()": "2493",
				"uniswapV3Quoter()": "2425",
				"uniswapV3Router()": "2470",
				"unpause()": "infinite",
				"updateToken(address,uint256,string,uint24)": "infinite",
				"userFailedSwaps(address)": "2622",
				"whitelist(address)": "2567",
				"withdraw(uint256)": "infinite",
				"withdrawAllToETH()": "infinite",
				"withdrawFeesByOwner(address)": "infinite",
				"withdrawToETH(uint256)": "infinite",
				"withdrawalFee()": "2383"
			},
			"internal": {
				"buyTokens(contract IERC20,uint256,string memory,uint24)": "infinite",
				"getTargetValuesAtPriceUSD(uint256)": "infinite",
				"getTokenValueAtPrice(uint256,uint256)": "123",
				"removeFailedSwap(uint256)": "infinite",
				"sellTokens(contract IERC20,uint256,string memory,uint24)": "infinite",
				"swapETHForTokenV2(contract IERC20,uint256,uint256)": "infinite",
				"swapETHForTokenV3(contract IERC20,uint256,uint24,uint256)": "infinite",
				"swapTokenForETHV2(contract IERC20,uint256,uint256,address)": "infinite",
				"swapTokenForETHV3(contract IERC20,uint256,uint24,uint256,address)": "infinite"
			}
		},
		"methodIdentifiers": {
			"allowance(address,address)": "dd62ed3e",
			"approve(address,uint256)": "095ea7b3",
			"balanceOf(address)": "70a08231",
			"bulkAddTokens(address[],uint256[],string[],uint24[])": "60d27451",
			"decimals()": "313ce567",
			"deposit()": "d0e30db0",
			"depositFee()": "67a52793",
			"ethDepositedFailed(address)": "c38cd0b5",
			"failedSwaps(uint256)": "378a653c",
			"getAllTokens()": "2a5c792a",
			"getFailedSwaps(address)": "91ebe50f",
			"getPortfolioValue(uint256[])": "5643a5a7",
			"name()": "06fdde03",
			"needsRebalance(uint256[])": "11667aa5",
			"owner()": "8da5cb5b",
			"pause()": "8456cb59",
			"paused()": "5c975abb",
			"portfolio(uint256)": "2e63a156",
			"profitToETH()": "86bc55db",
			"profitToWETH()": "86c14663",
			"rebalance(uint256[])": "780d5710",
			"renounceOwnership()": "715018a6",
			"retryFailedSwaps(address)": "3d7526f7",
			"setFees(uint256,uint256)": "0b78f9c0",
			"setSlippageTolerance(uint256)": "117da1ee",
			"setWhitelist(address,bool)": "53d6fd59",
			"slippageTolerance()": "d03153aa",
			"swapETHForToken(address,uint256,string,uint24)": "39c0f5d2",
			"swapTokenForETH(address,uint256,string,uint24)": "e7ae65ab",
			"symbol()": "95d89b41",
			"totalFeesToETH()": "f7e625a3",
			"totalFeesToWETH()": "246f972f",
			"totalSupply()": "18160ddd",
			"transfer(address,uint256)": "a9059cbb",
			"transferFrom(address,address,uint256)": "23b872dd",
			"transferOwnership(address)": "f2fde38b",
			"uniswapV2Router()": "1694505e",
			"uniswapV3Quoter()": "4d20d0f8",
			"uniswapV3Router()": "2c76d7a6",
			"unpause()": "3f4ba83a",
			"updateToken(address,uint256,string,uint24)": "a38e9e66",
			"userFailedSwaps(address)": "36a43f2b",
			"whitelist(address)": "9b19251a",
			"withdraw(uint256)": "2e1a7d4d",
			"withdrawAllToETH()": "fa3b5649",
			"withdrawFeesByOwner(address)": "a738c7df",
			"withdrawToETH(uint256)": "2c9351a1",
			"withdrawalFee()": "8bc7e8c4"
		}
	},
	"abi": [
		{
			"inputs": [
				{
					"internalType": "address",
					"name": "_uniswapV2Router",
					"type": "address"
				},
				{
					"internalType": "address",
					"name": "_uniswapV3Router",
					"type": "address"
				},
				{
					"internalType": "address",
					"name": "_uniswapV3Quoter",
					"type": "address"
				}
			],
			"stateMutability": "nonpayable",
			"type": "constructor"
		},
		{
			"inputs": [
				{
					"internalType": "address",
					"name": "spender",
					"type": "address"
				},
				{
					"internalType": "uint256",
					"name": "allowance",
					"type": "uint256"
				},
				{
					"internalType": "uint256",
					"name": "needed",
					"type": "uint256"
				}
			],
			"name": "ERC20InsufficientAllowance",
			"type": "error"
		},
		{
			"inputs": [
				{
					"internalType": "address",
					"name": "sender",
					"type": "address"
				},
				{
					"internalType": "uint256",
					"name": "balance",
					"type": "uint256"
				},
				{
					"internalType": "uint256",
					"name": "needed",
					"type": "uint256"
				}
			],
			"name": "ERC20InsufficientBalance",
			"type": "error"
		},
		{
			"inputs": [
				{
					"internalType": "address",
					"name": "approver",
					"type": "address"
				}
			],
			"name": "ERC20InvalidApprover",
			"type": "error"
		},
		{
			"inputs": [
				{
					"internalType": "address",
					"name": "receiver",
					"type": "address"
				}
			],
			"name": "ERC20InvalidReceiver",
			"type": "error"
		},
		{
			"inputs": [
				{
					"internalType": "address",
					"name": "sender",
					"type": "address"
				}
			],
			"name": "ERC20InvalidSender",
			"type": "error"
		},
		{
			"inputs": [
				{
					"internalType": "address",
					"name": "spender",
					"type": "address"
				}
			],
			"name": "ERC20InvalidSpender",
			"type": "error"
		},
		{
			"inputs": [],
			"name": "EnforcedPause",
			"type": "error"
		},
		{
			"inputs": [],
			"name": "ExpectedPause",
			"type": "error"
		},
		{
			"inputs": [
				{
					"internalType": "address",
					"name": "owner",
					"type": "address"
				}
			],
			"name": "OwnableInvalidOwner",
			"type": "error"
		},
		{
			"inputs": [
				{
					"internalType": "address",
					"name": "account",
					"type": "address"
				}
			],
			"name": "OwnableUnauthorizedAccount",
			"type": "error"
		},
		{
			"anonymous": false,
			"inputs": [
				{
					"indexed": true,
					"internalType": "address",
					"name": "owner",
					"type": "address"
				},
				{
					"indexed": true,
					"internalType": "address",
					"name": "spender",
					"type": "address"
				},
				{
					"indexed": false,
					"internalType": "uint256",
					"name": "value",
					"type": "uint256"
				}
			],
			"name": "Approval",
			"type": "event"
		},
		{
			"anonymous": false,
			"inputs": [
				{
					"indexed": true,
					"internalType": "address",
					"name": "user",
					"type": "address"
				},
				{
					"indexed": false,
					"internalType": "uint256",
					"name": "amount",
					"type": "uint256"
				},
				{
					"indexed": false,
					"internalType": "uint256",
					"name": "shares",
					"type": "uint256"
				},
				{
					"indexed": false,
					"internalType": "string",
					"name": "version",
					"type": "string"
				}
			],
			"name": "Deposited",
			"type": "event"
		},
		{
			"anonymous": false,
			"inputs": [
				{
					"indexed": true,
					"internalType": "address",
					"name": "previousOwner",
					"type": "address"
				},
				{
					"indexed": true,
					"internalType": "address",
					"name": "newOwner",
					"type": "address"
				}
			],
			"name": "OwnershipTransferred",
			"type": "event"
		},
		{
			"anonymous": false,
			"inputs": [
				{
					"indexed": false,
					"internalType": "address",
					"name": "account",
					"type": "address"
				}
			],
			"name": "Paused",
			"type": "event"
		},
		{
			"anonymous": false,
			"inputs": [
				{
					"indexed": false,
					"internalType": "uint256",
					"name": "timestamp",
					"type": "uint256"
				}
			],
			"name": "Rebalanced",
			"type": "event"
		},
		{
			"anonymous": false,
			"inputs": [
				{
					"indexed": false,
					"internalType": "uint256",
					"name": "newSlippageTolerance",
					"type": "uint256"
				}
			],
			"name": "SlippageToleranceChanged",
			"type": "event"
		},
		{
			"anonymous": false,
			"inputs": [
				{
					"indexed": true,
					"internalType": "address",
					"name": "user",
					"type": "address"
				},
				{
					"indexed": false,
					"internalType": "contract IERC20",
					"name": "token",
					"type": "address"
				},
				{
					"indexed": false,
					"internalType": "uint256",
					"name": "amount",
					"type": "uint256"
				},
				{
					"indexed": false,
					"internalType": "string",
					"name": "version",
					"type": "string"
				}
			],
			"name": "SwapFailed",
			"type": "event"
		},
		{
			"anonymous": false,
			"inputs": [
				{
					"indexed": true,
					"internalType": "address",
					"name": "from",
					"type": "address"
				},
				{
					"indexed": true,
					"internalType": "address",
					"name": "to",
					"type": "address"
				},
				{
					"indexed": false,
					"internalType": "uint256",
					"name": "value",
					"type": "uint256"
				}
			],
			"name": "Transfer",
			"type": "event"
		},
		{
			"anonymous": false,
			"inputs": [
				{
					"indexed": false,
					"internalType": "address",
					"name": "account",
					"type": "address"
				}
			],
			"name": "Unpaused",
			"type": "event"
		},
		{
			"anonymous": false,
			"inputs": [
				{
					"indexed": true,
					"internalType": "address",
					"name": "user",
					"type": "address"
				},
				{
					"indexed": false,
					"internalType": "bool",
					"name": "isWhitelisted",
					"type": "bool"
				}
			],
			"name": "Whitelisted",
			"type": "event"
		},
		{
			"anonymous": false,
			"inputs": [
				{
					"indexed": true,
					"internalType": "address",
					"name": "user",
					"type": "address"
				},
				{
					"indexed": false,
					"internalType": "uint256",
					"name": "amount",
					"type": "uint256"
				},
				{
					"indexed": false,
					"internalType": "uint256",
					"name": "shares",
					"type": "uint256"
				}
			],
			"name": "Withdrawn",
			"type": "event"
		},
		{
			"inputs": [
				{
					"internalType": "address",
					"name": "owner",
					"type": "address"
				},
				{
					"internalType": "address",
					"name": "spender",
					"type": "address"
				}
			],
			"name": "allowance",
			"outputs": [
				{
					"internalType": "uint256",
					"name": "",
					"type": "uint256"
				}
			],
			"stateMutability": "view",
			"type": "function"
		},
		{
			"inputs": [
				{
					"internalType": "address",
					"name": "spender",
					"type": "address"
				},
				{
					"internalType": "uint256",
					"name": "value",
					"type": "uint256"
				}
			],
			"name": "approve",
			"outputs": [
				{
					"internalType": "bool",
					"name": "",
					"type": "bool"
				}
			],
			"stateMutability": "nonpayable",
			"type": "function"
		},
		{
			"inputs": [
				{
					"internalType": "address",
					"name": "account",
					"type": "address"
				}
			],
			"name": "balanceOf",
			"outputs": [
				{
					"internalType": "uint256",
					"name": "",
					"type": "uint256"
				}
			],
			"stateMutability": "view",
			"type": "function"
		},
		{
			"inputs": [
				{
					"internalType": "address[]",
					"name": "_tokens",
					"type": "address[]"
				},
				{
					"internalType": "uint256[]",
					"name": "_targetPercentages",
					"type": "uint256[]"
				},
				{
					"internalType": "string[]",
					"name": "_versions",
					"type": "string[]"
				},
				{
					"internalType": "uint24[]",
					"name": "_feeTiers",
					"type": "uint24[]"
				}
			],
			"name": "bulkAddTokens",
			"outputs": [],
			"stateMutability": "nonpayable",
			"type": "function"
		},
		{
			"inputs": [],
			"name": "decimals",
			"outputs": [
				{
					"internalType": "uint8",
					"name": "",
					"type": "uint8"
				}
			],
			"stateMutability": "view",
			"type": "function"
		},
		{
			"inputs": [],
			"name": "deposit",
			"outputs": [],
			"stateMutability": "payable",
			"type": "function"
		},
		{
			"inputs": [],
			"name": "depositFee",
			"outputs": [
				{
					"internalType": "uint256",
					"name": "",
					"type": "uint256"
				}
			],
			"stateMutability": "view",
			"type": "function"
		},
		{
			"inputs": [
				{
					"internalType": "address",
					"name": "",
					"type": "address"
				}
			],
			"name": "ethDepositedFailed",
			"outputs": [
				{
					"internalType": "uint256",
					"name": "",
					"type": "uint256"
				}
			],
			"stateMutability": "view",
			"type": "function"
		},
		{
			"inputs": [
				{
					"internalType": "uint256",
					"name": "",
					"type": "uint256"
				}
			],
			"name": "failedSwaps",
			"outputs": [
				{
					"internalType": "address",
					"name": "user",
					"type": "address"
				},
				{
					"internalType": "contract IERC20",
					"name": "token",
					"type": "address"
				},
				{
					"internalType": "uint256",
					"name": "amount",
					"type": "uint256"
				},
				{
					"internalType": "string",
					"name": "version",
					"type": "string"
				},
				{
					"internalType": "uint24",
					"name": "feeTier",
					"type": "uint24"
				}
			],
			"stateMutability": "view",
			"type": "function"
		},
		{
			"inputs": [],
			"name": "getAllTokens",
			"outputs": [
				{
					"components": [
						{
							"internalType": "contract IERC20",
							"name": "token",
							"type": "address"
						},
						{
							"internalType": "uint256",
							"name": "targetPercentage",
							"type": "uint256"
						},
						{
							"internalType": "string",
							"name": "version",
							"type": "string"
						},
						{
							"internalType": "uint24",
							"name": "feeTier",
							"type": "uint24"
						}
					],
					"internalType": "struct PYGGRED.TokenInfo[]",
					"name": "",
					"type": "tuple[]"
				}
			],
			"stateMutability": "view",
			"type": "function"
		},
		{
			"inputs": [
				{
					"internalType": "address",
					"name": "user",
					"type": "address"
				}
			],
			"name": "getFailedSwaps",
			"outputs": [
				{
					"components": [
						{
							"internalType": "address",
							"name": "user",
							"type": "address"
						},
						{
							"internalType": "contract IERC20",
							"name": "token",
							"type": "address"
						},
						{
							"internalType": "uint256",
							"name": "amount",
							"type": "uint256"
						},
						{
							"internalType": "string",
							"name": "version",
							"type": "string"
						},
						{
							"internalType": "uint24",
							"name": "feeTier",
							"type": "uint24"
						}
					],
					"internalType": "struct PYGGRED.FailedSwap[]",
					"name": "",
					"type": "tuple[]"
				}
			],
			"stateMutability": "view",
			"type": "function"
		},
		{
			"inputs": [
				{
					"internalType": "uint256[]",
					"name": "_tokenPrices",
					"type": "uint256[]"
				}
			],
			"name": "getPortfolioValue",
			"outputs": [
				{
					"internalType": "uint256",
					"name": "",
					"type": "uint256"
				}
			],
			"stateMutability": "view",
			"type": "function"
		},
		{
			"inputs": [],
			"name": "name",
			"outputs": [
				{
					"internalType": "string",
					"name": "",
					"type": "string"
				}
			],
			"stateMutability": "view",
			"type": "function"
		},
		{
			"inputs": [
				{
					"internalType": "uint256[]",
					"name": "_tokenPrices",
					"type": "uint256[]"
				}
			],
			"name": "needsRebalance",
			"outputs": [
				{
					"internalType": "bool",
					"name": "",
					"type": "bool"
				}
			],
			"stateMutability": "view",
			"type": "function"
		},
		{
			"inputs": [],
			"name": "owner",
			"outputs": [
				{
					"internalType": "address",
					"name": "",
					"type": "address"
				}
			],
			"stateMutability": "view",
			"type": "function"
		},
		{
			"inputs": [],
			"name": "pause",
			"outputs": [],
			"stateMutability": "nonpayable",
			"type": "function"
		},
		{
			"inputs": [],
			"name": "paused",
			"outputs": [
				{
					"internalType": "bool",
					"name": "",
					"type": "bool"
				}
			],
			"stateMutability": "view",
			"type": "function"
		},
		{
			"inputs": [
				{
					"internalType": "uint256",
					"name": "",
					"type": "uint256"
				}
			],
			"name": "portfolio",
			"outputs": [
				{
					"internalType": "contract IERC20",
					"name": "token",
					"type": "address"
				},
				{
					"internalType": "uint256",
					"name": "targetPercentage",
					"type": "uint256"
				},
				{
					"internalType": "string",
					"name": "version",
					"type": "string"
				},
				{
					"internalType": "uint24",
					"name": "feeTier",
					"type": "uint24"
				}
			],
			"stateMutability": "view",
			"type": "function"
		},
		{
			"inputs": [],
			"name": "profitToETH",
			"outputs": [
				{
					"internalType": "uint256",
					"name": "",
					"type": "uint256"
				}
			],
			"stateMutability": "view",
			"type": "function"
		},
		{
			"inputs": [],
			"name": "profitToWETH",
			"outputs": [
				{
					"internalType": "uint256",
					"name": "",
					"type": "uint256"
				}
			],
			"stateMutability": "view",
			"type": "function"
		},
		{
			"inputs": [
				{
					"internalType": "uint256[]",
					"name": "_tokenPrices",
					"type": "uint256[]"
				}
			],
			"name": "rebalance",
			"outputs": [],
			"stateMutability": "nonpayable",
			"type": "function"
		},
		{
			"inputs": [],
			"name": "renounceOwnership",
			"outputs": [],
			"stateMutability": "nonpayable",
			"type": "function"
		},
		{
			"inputs": [
				{
					"internalType": "address",
					"name": "user",
					"type": "address"
				}
			],
			"name": "retryFailedSwaps",
			"outputs": [],
			"stateMutability": "nonpayable",
			"type": "function"
		},
		{
			"inputs": [
				{
					"internalType": "uint256",
					"name": "_depositFee",
					"type": "uint256"
				},
				{
					"internalType": "uint256",
					"name": "_withdrawalFee",
					"type": "uint256"
				}
			],
			"name": "setFees",
			"outputs": [],
			"stateMutability": "nonpayable",
			"type": "function"
		},
		{
			"inputs": [
				{
					"internalType": "uint256",
					"name": "_slippageTolerance",
					"type": "uint256"
				}
			],
			"name": "setSlippageTolerance",
			"outputs": [],
			"stateMutability": "nonpayable",
			"type": "function"
		},
		{
			"inputs": [
				{
					"internalType": "address",
					"name": "_user",
					"type": "address"
				},
				{
					"internalType": "bool",
					"name": "_status",
					"type": "bool"
				}
			],
			"name": "setWhitelist",
			"outputs": [],
			"stateMutability": "nonpayable",
			"type": "function"
		},
		{
			"inputs": [],
			"name": "slippageTolerance",
			"outputs": [
				{
					"internalType": "uint256",
					"name": "",
					"type": "uint256"
				}
			],
			"stateMutability": "view",
			"type": "function"
		},
		{
			"inputs": [
				{
					"internalType": "contract IERC20",
					"name": "_token",
					"type": "address"
				},
				{
					"internalType": "uint256",
					"name": "_ethAmount",
					"type": "uint256"
				},
				{
					"internalType": "string",
					"name": "version",
					"type": "string"
				},
				{
					"internalType": "uint24",
					"name": "feeTier",
					"type": "uint24"
				}
			],
			"name": "swapETHForToken",
			"outputs": [],
			"stateMutability": "payable",
			"type": "function"
		},
		{
			"inputs": [
				{
					"internalType": "contract IERC20",
					"name": "_token",
					"type": "address"
				},
				{
					"internalType": "uint256",
					"name": "_amountIn",
					"type": "uint256"
				},
				{
					"internalType": "string",
					"name": "version",
					"type": "string"
				},
				{
					"internalType": "uint24",
					"name": "feeTier",
					"type": "uint24"
				}
			],
			"name": "swapTokenForETH",
			"outputs": [
				{
					"internalType": "uint256",
					"name": "",
					"type": "uint256"
				}
			],
			"stateMutability": "nonpayable",
			"type": "function"
		},
		{
			"inputs": [],
			"name": "symbol",
			"outputs": [
				{
					"internalType": "string",
					"name": "",
					"type": "string"
				}
			],
			"stateMutability": "view",
			"type": "function"
		},
		{
			"inputs": [],
			"name": "totalFeesToETH",
			"outputs": [
				{
					"internalType": "uint256",
					"name": "",
					"type": "uint256"
				}
			],
			"stateMutability": "view",
			"type": "function"
		},
		{
			"inputs": [],
			"name": "totalFeesToWETH",
			"outputs": [
				{
					"internalType": "uint256",
					"name": "",
					"type": "uint256"
				}
			],
			"stateMutability": "view",
			"type": "function"
		},
		{
			"inputs": [],
			"name": "totalSupply",
			"outputs": [
				{
					"internalType": "uint256",
					"name": "",
					"type": "uint256"
				}
			],
			"stateMutability": "view",
			"type": "function"
		},
		{
			"inputs": [
				{
					"internalType": "address",
					"name": "to",
					"type": "address"
				},
				{
					"internalType": "uint256",
					"name": "value",
					"type": "uint256"
				}
			],
			"name": "transfer",
			"outputs": [
				{
					"internalType": "bool",
					"name": "",
					"type": "bool"
				}
			],
			"stateMutability": "nonpayable",
			"type": "function"
		},
		{
			"inputs": [
				{
					"internalType": "address",
					"name": "from",
					"type": "address"
				},
				{
					"internalType": "address",
					"name": "to",
					"type": "address"
				},
				{
					"internalType": "uint256",
					"name": "value",
					"type": "uint256"
				}
			],
			"name": "transferFrom",
			"outputs": [
				{
					"internalType": "bool",
					"name": "",
					"type": "bool"
				}
			],
			"stateMutability": "nonpayable",
			"type": "function"
		},
		{
			"inputs": [
				{
					"internalType": "address",
					"name": "newOwner",
					"type": "address"
				}
			],
			"name": "transferOwnership",
			"outputs": [],
			"stateMutability": "nonpayable",
			"type": "function"
		},
		{
			"inputs": [],
			"name": "uniswapV2Router",
			"outputs": [
				{
					"internalType": "contract IUniswapV2Router02",
					"name": "",
					"type": "address"
				}
			],
			"stateMutability": "view",
			"type": "function"
		},
		{
			"inputs": [],
			"name": "uniswapV3Quoter",
			"outputs": [
				{
					"internalType": "contract IUniswapV3Quoter",
					"name": "",
					"type": "address"
				}
			],
			"stateMutability": "view",
			"type": "function"
		},
		{
			"inputs": [],
			"name": "uniswapV3Router",
			"outputs": [
				{
					"internalType": "contract ISwapRouter",
					"name": "",
					"type": "address"
				}
			],
			"stateMutability": "view",
			"type": "function"
		},
		{
			"inputs": [],
			"name": "unpause",
			"outputs": [],
			"stateMutability": "nonpayable",
			"type": "function"
		},
		{
			"inputs": [
				{
					"internalType": "address",
					"name": "_token",
					"type": "address"
				},
				{
					"internalType": "uint256",
					"name": "_targetPercentage",
					"type": "uint256"
				},
				{
					"internalType": "string",
					"name": "_version",
					"type": "string"
				},
				{
					"internalType": "uint24",
					"name": "_feeTier",
					"type": "uint24"
				}
			],
			"name": "updateToken",
			"outputs": [],
			"stateMutability": "nonpayable",
			"type": "function"
		},
		{
			"inputs": [
				{
					"internalType": "address",
					"name": "",
					"type": "address"
				}
			],
			"name": "userFailedSwaps",
			"outputs": [
				{
					"internalType": "uint256",
					"name": "",
					"type": "uint256"
				}
			],
			"stateMutability": "view",
			"type": "function"
		},
		{
			"inputs": [
				{
					"internalType": "address",
					"name": "",
					"type": "address"
				}
			],
			"name": "whitelist",
			"outputs": [
				{
					"internalType": "bool",
					"name": "",
					"type": "bool"
				}
			],
			"stateMutability": "view",
			"type": "function"
		},
		{
			"inputs": [
				{
					"internalType": "uint256",
					"name": "tokenAmount",
					"type": "uint256"
				}
			],
			"name": "withdraw",
			"outputs": [],
			"stateMutability": "nonpayable",
			"type": "function"
		},
		{
			"inputs": [],
			"name": "withdrawAllToETH",
			"outputs": [],
			"stateMutability": "nonpayable",
			"type": "function"
		},
		{
			"inputs": [
				{
					"internalType": "address",
					"name": "_receiverFeeAddress",
					"type": "address"
				}
			],
			"name": "withdrawFeesByOwner",
			"outputs": [],
			"stateMutability": "nonpayable",
			"type": "function"
		},
		{
			"inputs": [
				{
					"internalType": "uint256",
					"name": "tokenAmount",
					"type": "uint256"
				}
			],
			"name": "withdrawToETH",
			"outputs": [],
			"stateMutability": "nonpayable",
			"type": "function"
		},
		{
			"inputs": [],
			"name": "withdrawalFee",
			"outputs": [
				{
					"internalType": "uint256",
					"name": "",
					"type": "uint256"
				}
			],
			"stateMutability": "view",
			"type": "function"
		}
	]
}