{
	"data": {
		"bytecode": {
			"linkReferences": {},
			"object": "608060405234801561000f575f80fd5b50604051615b77380380615b7783398101604081905261002e916101aa565b604080518082018252601681527f50594747205772617070656420506f7274666f6c696f00000000000000000000602080830191909152825180840190935260048352635059474760e01b908301529033806100a357604051631e4fbdf760e01b81525f600482015260240160405180910390fd5b6100ac81610140565b505f805460ff60a01b1916905560046100c58382610282565b5060056100d28282610282565b5050600780546001600160a01b039586166001600160a01b03199182161790915560088054948616948216949094179093555060098054919093169116179055335f908152600a60205260409020805460ff191660011790556103e86010556064600f819055600e5561033c565b5f80546001600160a01b038381166001600160a01b0319831681178455604051919092169283917f8be0079c531659141344cd1fd0a4f28419497f9722a3daafe3b4186f6b6457e09190a35050565b80516001600160a01b03811681146101a5575f80fd5b919050565b5f805f606084860312156101bc575f80fd5b6101c58461018f565b92506101d36020850161018f565b91506101e16040850161018f565b90509250925092565b634e487b7160e01b5f52604160045260245ffd5b600181811c9082168061021257607f821691505b60208210810361023057634e487b7160e01b5f52602260045260245ffd5b50919050565b601f82111561027d57805f5260205f20601f840160051c8101602085101561025b5750805b601f840160051c820191505b8181101561027a575f8155600101610267565b50505b505050565b81516001600160401b0381111561029b5761029b6101ea565b6102af816102a984546101fe565b84610236565b6020601f8211600181146102e1575f83156102ca5750848201515b5f19600385901b1c1916600184901b17845561027a565b5f84815260208120601f198516915b8281101561031057878501518255602094850194600190920191016102f0565b508482101561032d57868401515f19600387901b60f8161c191681555b50505050600190811b01905550565b61582e806103495f395ff3fe608060405260043610610254575f3560e01c80635c975abb1161013f5780639b19251a116100b3578063d03153aa11610078578063d03153aa1461070c578063d0e30db014610721578063dd62ed3e14610729578063e7ae65ab1461076d578063f2fde38b1461078c578063fa3b5649146107ab575f80fd5b80639b19251a14610656578063a738c7df14610684578063a9059cbb146106a3578063b612c12c146106c2578063c38cd0b5146106e1575f80fd5b80638456cb59116101045780638456cb59146105bc57806386bc55db146105d05780638bc7e8c4146105e55780638da5cb5b146105fa57806391ebe50f1461061657806395d89b4114610642575f80fd5b80635c975abb1461052357806367a527931461054057806370a0823114610555578063715018a614610589578063780d57101461059d575f80fd5b80632e1a7d4d116101d657806339c0f5d21161019b57806339c0f5d2146104805780633d7526f7146104935780633f4ba83a146104b25780634d20d0f8146104c657806353d6fd59146104e55780635643a5a714610504575f80fd5b80632e1a7d4d146103bc5780632e63a156146103db578063313ce5671461040a57806336a43f2b14610425578063378a653c14610450575f80fd5b80631694505e1161021c5780631694505e1461031457806318160ddd1461034b57806323b872dd1461035f5780632c76d7a61461037e5780632c9351a11461039d575f80fd5b806306fdde0314610258578063095ea7b3146102825780630b78f9c0146102b1578063117da1ee146102d257806313114a9d146102f1575b5f80fd5b348015610263575f80fd5b5061026c6107bf565b6040516102799190614c3c565b60405180910390f35b34801561028d575f80fd5b506102a161029c366004614c62565b61084f565b6040519015158152602001610279565b3480156102bc575f80fd5b506102d06102cb366004614c8c565b610868565b005b3480156102dd575f80fd5b506102d06102ec366004614cac565b610913565b3480156102fc575f80fd5b5061030660115481565b604051908152602001610279565b34801561031f575f80fd5b50600754610333906001600160a01b031681565b6040516001600160a01b039091168152602001610279565b348015610356575f80fd5b50600354610306565b34801561036a575f80fd5b506102a1610379366004614cc3565b6109a8565b348015610389575f80fd5b50600854610333906001600160a01b031681565b3480156103a8575f80fd5b506102d06103b7366004614cac565b6109cb565b3480156103c7575f80fd5b506102d06103d6366004614cac565b610dea565b3480156103e6575f80fd5b506103fa6103f5366004614cac565b6115d3565b6040516102799493929190614d01565b348015610415575f80fd5b5060405160128152602001610279565b348015610430575f80fd5b5061030661043f366004614d3d565b600c6020525f908152604090205481565b34801561045b575f80fd5b5061046f61046a366004614cac565b6116a3565b604051610279959493929190614d58565b6102d061048e366004614e69565b61177e565b34801561049e575f80fd5b506102d06104ad366004614d3d565b611b12565b3480156104bd575f80fd5b506102d0611ec1565b3480156104d1575f80fd5b50600954610333906001600160a01b031681565b3480156104f0575f80fd5b506102d06104ff366004614edc565b611f07565b34801561050f575f80fd5b5061030661051e366004614f36565b611f6d565b34801561052e575f80fd5b505f54600160a01b900460ff166102a1565b34801561054b575f80fd5b50610306600e5481565b348015610560575f80fd5b5061030661056f366004614d3d565b6001600160a01b03165f9081526001602052604090205490565b348015610594575f80fd5b506102d06120a1565b3480156105a8575f80fd5b506102d06105b7366004614f36565b6120b4565b3480156105c7575f80fd5b506102d0612431565b3480156105db575f80fd5b5061030660125481565b3480156105f0575f80fd5b50610306600f5481565b348015610605575f80fd5b505f546001600160a01b0316610333565b348015610621575f80fd5b50610635610630366004614d3d565b612471565b6040516102799190614fcc565b34801561064d575f80fd5b5061026c612682565b348015610661575f80fd5b506102a1610670366004614d3d565b600a6020525f908152604090205460ff1681565b34801561068f575f80fd5b506102d061069e366004614d3d565b612691565b3480156106ae575f80fd5b506102a16106bd366004614c62565b612731565b3480156106cd575f80fd5b506102d06106dc366004614e69565b61273e565b3480156106ec575f80fd5b506103066106fb366004614d3d565b600d6020525f908152604090205481565b348015610717575f80fd5b5061030660105481565b6102d061288b565b348015610734575f80fd5b5061030661074336600461507a565b6001600160a01b039182165f90815260026020908152604080832093909416825291909152205490565b348015610778575f80fd5b50610306610787366004614e69565b612ccb565b348015610797575f80fd5b506102d06107a6366004614d3d565b61305f565b3480156107b6575f80fd5b506102d061309c565b6060600480546107ce906150a6565b80601f01602080910402602001604051908101604052809291908181526020018280546107fa906150a6565b80156108455780601f1061081c57610100808354040283529160200191610845565b820191905f5260205f20905b81548152906001019060200180831161082857829003601f168201915b5050505050905090565b5f3361085c818585613530565b60019150505b92915050565b61087061353d565b6127108211156108bd5760405162461bcd60e51b8152602060048201526013602482015272496e76616c6964206465706f7369742066656560681b60448201526064015b60405180910390fd5b6127108111156109085760405162461bcd60e51b8152602060048201526016602482015275496e76616c6964207769746864726177616c2066656560501b60448201526064016108b4565b600e91909155600f55565b61091b61353d565b61271081111561096d5760405162461bcd60e51b815260206004820152601a60248201527f496e76616c696420736c69707061676520746f6c6572616e636500000000000060448201526064016108b4565b60108190556040518181527fb11632d794d380ef605d18684daf3ad39bdf07733e9db37df5f9f643877265da9060200160405180910390a150565b5f336109b5858285613569565b6109c08585856135de565b506001949350505050565b6109d361363b565b5f81116109f25760405162461bcd60e51b81526004016108b4906150de565b6040516370a0823160e01b8152336004820152819030906370a0823190602401602060405180830381865afa158015610a2d573d5f803e3d5ffd5b505050506040513d601f19601f82011682018060405250810190610a519190615113565b1015610a965760405162461bcd60e51b8152602060048201526014602482015273496e73756666696369656e742062616c616e636560601b60448201526064016108b4565b5f610aa060035490565b610aac8361271061513e565b610ab69190615155565b90505f81118015610ac957506127108111155b610ae55760405162461bcd60e51b81526004016108b490615174565b5f61271082610af360035490565b610afd919061513e565b610b079190615155565b90505f8111610b285760405162461bcd60e51b81526004016108b4906150de565b610b323384613665565b5f805b600654811015610cba575f60068281548110610b5357610b536151ba565b905f5260205f20906004020190505f610b6b60035490565b82546040516370a0823160e01b815230600482015287916001600160a01b0316906370a0823190602401602060405180830381865afa158015610bb0573d5f803e3d5ffd5b505050506040513d601f19601f82011682018060405250810190610bd49190615113565b610bde919061513e565b610be89190615155565b90505f612710600f5483610bfc919061513e565b610c069190615155565b90505f610c1382846151ce565b8454600386015460405163e7ae65ab60e01b81529293505f92309263e7ae65ab92610c5b926001600160a01b0390921691879160028c019162ffffff90911690600401615260565b6020604051808303815f875af1158015610c77573d5f803e3d5ffd5b505050506040513d601f19601f82011682018060405250810190610c9b9190615113565b9050610ca78188615286565b96505060019094019350610b3592505050565b505f612710600f5483610ccd919061513e565b610cd79190615155565b90505f610ce482846151ce565b90508160115f828254610cf79190615286565b9091555050335f908152600d602052604081205490610d168383615286565b6040519091505f90339083908381818185875af1925050503d805f8114610d58576040519150601f19603f3d011682016040523d82523d5f602084013e610d5d565b606091505b5050905080610da45760405162461bcd60e51b8152602060048201526013602482015272115512081d1c985b9cd9995c8819985a5b1959606a1b60448201526064016108b4565b604080518781526020810189905233917f92ccf450a286a957af52509bc1c9939d1a6a481783e142e41e2499f0bb66ebc6910160405180910390a2505050505050505050565b610df261363b565b5f8111610e115760405162461bcd60e51b81526004016108b4906150de565b6040516370a0823160e01b8152336004820152819030906370a0823190602401602060405180830381865afa158015610e4c573d5f803e3d5ffd5b505050506040513d601f19601f82011682018060405250810190610e709190615113565b1015610eb55760405162461bcd60e51b8152602060048201526014602482015273496e73756666696369656e742062616c616e636560601b60448201526064016108b4565b5f610ebf60035490565b610ecb8361271061513e565b610ed59190615155565b90505f81118015610ee857506127108111155b610f045760405162461bcd60e51b81526004016108b490615174565b5f61271082610f1260035490565b610f1c919061513e565b610f269190615155565b90505f8111610f475760405162461bcd60e51b81526004016108b4906150de565b610f513384613665565b5f5b6006548110156114d6575f60068281548110610f7157610f716151ba565b905f5260205f20906004020190505f610f8960035490565b82546040516370a0823160e01b815230600482015286916001600160a01b0316906370a0823190602401602060405180830381865afa158015610fce573d5f803e3d5ffd5b505050506040513d601f19601f82011682018060405250810190610ff29190615113565b610ffc919061513e565b6110069190615155565b90505f612710600f548361101a919061513e565b6110249190615155565b90505f61103182846151ce565b845460405163a9059cbb60e01b8152336004820152602481018390529192506001600160a01b03169063a9059cbb906044016020604051808303815f875af115801561107f573d5f803e3d5ffd5b505050506040513d601f19601f820116820180604052508101906110a39190615299565b506040516020016110b3906152b4565b60405160208183030381529060405280519060200120846002016040516020016110dd91906152c2565b60405160208183030381529060405280519060200120036112c5576040805160028082526060820183525f926020830190803683375050865482519293506001600160a01b0316918391505f90611136576111366151ba565b6001600160a01b03928316602091820292909201810191909152600754604080516315ab88c960e31b81529051919093169263ad5c46489260048083019391928290030181865afa15801561118d573d5f803e3d5ffd5b505050506040513d601f19601f820116820180604052508101906111b19190615333565b816001815181106111c4576111c46151ba565b6001600160a01b03928316602091820292909201015260075460405163d06ca61f60e01b81525f92919091169063d06ca61f906112079087908690600401615391565b5f60405180830381865afa158015611221573d5f803e3d5ffd5b505050506040513d5f823e601f3d908101601f1916820160405261124891908101906153a9565b90505f61271060105461271061125e91906151ce565b83600181518110611271576112716151ba565b6020026020010151611283919061513e565b61128d9190615155565b87549091506112a7906001600160a01b0316868330613699565b60115f8282546112b79190615286565b909155506114c69350505050565b6040516020016112d490615430565b60405160208183030381529060405280519060200120846002016040516020016112fe91906152c2565b604051602081830303815290604052805190602001200361147e5783546003850154600754604080516315ab88c960e31b815290515f946001600160a01b039081169462ffffff1693169163ad5c46489160048083019260209291908290030181865afa158015611371573d5f803e3d5ffd5b505050506040513d601f19601f820116820180604052508101906113959190615333565b6040516020016113a79392919061543e565b60408051601f198184030181529082905260095463cdca175360e01b83529092505f916001600160a01b039091169063cdca1753906113ec9085908890600401615479565b6020604051808303815f875af1158015611408573d5f803e3d5ffd5b505050506040513d601f19601f8201168201806040525081019061142c9190615113565b90505f61271060105461271061144291906151ce565b61144c908461513e565b6114569190615155565b875460038901549192506112a7916001600160a01b0390911690879062ffffff168430613884565b60405162461bcd60e51b815260206004820152601760248201527f496e76616c696420556e69737761702076657273696f6e00000000000000000060448201526064016108b4565b505060019092019150610f539050565b50335f908152600d6020526040812054612710906114f590859061513e565b6114ff9190615155565b60405190915081905f90339083908381818185875af1925050503d805f8114611543576040519150601f19603f3d011682016040523d82523d5f602084013e611548565b606091505b50509050806115905760405162461bcd60e51b81526020600482015260146024820152731d1c985b9cd9995c881dda5b1b081c995d995c9d60621b60448201526064016108b4565b604080518681526020810186905233917f92ccf450a286a957af52509bc1c9939d1a6a481783e142e41e2499f0bb66ebc6910160405180910390a2505050505050565b600681815481106115e2575f80fd5b5f9182526020909120600490910201805460018201546002830180546001600160a01b039093169450909291611617906150a6565b80601f0160208091040260200160405190810160405280929190818152602001828054611643906150a6565b801561168e5780601f106116655761010080835404028352916020019161168e565b820191905f5260205f20905b81548152906001019060200180831161167157829003601f168201915b5050506003909301549192505062ffffff1684565b600b81815481106116b2575f80fd5b5f91825260209091206005909102018054600182015460028301546003840180546001600160a01b0394851696509290931693909290916116f2906150a6565b80601f016020809104026020016040519081016040528092919081815260200182805461171e906150a6565b80156117695780601f1061174057610100808354040283529160200191611769565b820191905f5260205f20905b81548152906001019060200180831161174c57829003601f168201915b5050506004909301549192505062ffffff1685565b60405160200161178d906152b4565b60405160208183030381529060405280519060200120826040516020016117b4919061549a565b604051602081830303815290604052805190602001200361197f576040805160028082526060820183525f926020830190803683375050600754604080516315ab88c960e31b815290519394506001600160a01b039091169263ad5c4648925060048083019260209291908290030181865afa158015611836573d5f803e3d5ffd5b505050506040513d601f19601f8201168201806040525081019061185a9190615333565b815f8151811061186c5761186c6151ba565b60200260200101906001600160a01b031690816001600160a01b03168152505084816001815181106118a0576118a06151ba565b6001600160a01b03928316602091820292909201015260075460405163d06ca61f60e01b81525f92919091169063d06ca61f906118e39088908690600401615391565b5f60405180830381865afa1580156118fd573d5f803e3d5ffd5b505050506040513d5f823e601f3d908101601f1916820160405261192491908101906153a9565b90505f61271060105461271061193a91906151ce565b8360018151811061194d5761194d6151ba565b602002602001015161195f919061513e565b6119699190615155565b9050611976878783613a41565b50505050611b0c565b60405160200161198e90615430565b60405160208183030381529060405280519060200120826040516020016119b5919061549a565b604051602081830303815290604052805190602001200361147e57600754604080516315ab88c960e31b815290515f926001600160a01b03169163ad5c46489160048083019260209291908290030181865afa158015611a17573d5f803e3d5ffd5b505050506040513d601f19601f82011682018060405250810190611a3b9190615333565b8286604051602001611a4f9392919061543e565b60408051601f198184030181529082905260095463cdca175360e01b83529092505f916001600160a01b039091169063cdca175390611a949085908990600401615479565b6020604051808303815f875af1158015611ab0573d5f803e3d5ffd5b505050506040513d601f19601f82011682018060405250810190611ad49190615113565b90505f612710601054612710611aea91906151ce565b611af4908461513e565b611afe9190615155565b905061197687878684613ba7565b50505050565b611b1a61353d565b5f5b600b54811015611ebd57816001600160a01b0316600b8281548110611b4357611b436151ba565b5f9182526020909120600590910201546001600160a01b031603611eb5575f600b8281548110611b7557611b756151ba565b5f9182526020918290206040805160a081018252600590930290910180546001600160a01b03908116845260018201541693830193909352600283015490820152600382018054919291606084019190611bce906150a6565b80601f0160208091040260200160405190810160405280929190818152602001828054611bfa906150a6565b8015611c455780601f10611c1c57610100808354040283529160200191611c45565b820191905f5260205f20905b815481529060010190602001808311611c2857829003601f168201915b505050918352505060049182015462ffffff1660209182015260408084015191840151606085015160808601519251631ce07ae960e11b815295965030956339c0f5d295611c9894869392909101614d01565b5f604051808303818588803b158015611caf575f80fd5b505af193505050508015611cc1575060015b611e81576040805160a0810182523381526020838101516001600160a01b039081169183019182528484015193830193845260608086015190840190815260808087015162ffffff1690850152600b80546001810182555f91909152845160059091027f0175b7a638427703f0dbe7bb9bbf987a2551717b34e79f33b5b1008d1fa01db9810180549285166001600160a01b031993841617815594517f0175b7a638427703f0dbe7bb9bbf987a2551717b34e79f33b5b1008d1fa01dba820180549190951692169190911790925593517f0175b7a638427703f0dbe7bb9bbf987a2551717b34e79f33b5b1008d1fa01dbb8201559251919290917f0175b7a638427703f0dbe7bb9bbf987a2551717b34e79f33b5b1008d1fa01dbc90910190611dea90826154fb565b50608091909101516004909101805462ffffff191662ffffff909216919091179055335f908152600c60205260408120805491611e26836155b9565b9190505550336001600160a01b03167fb301e8c1d1e07ed6209db6d6cc98b8f845197cb3a52a5c0502ca2df8316e6929826020015183604001518460600151604051611e74939291906155d1565b60405180910390a2611eb3565b611e8a82613d1a565b6001600160a01b0383165f908152600c60205260408120805491611ead836155f7565b91905055505b505b600101611b1c565b5050565b611ec961353d565b611ed1613e7d565b6040513381527f5db9ee0a495bf2e6ff9c91a7834c1ba4fdd244a5e8aa4e537bd38aeae4b073aa906020015b60405180910390a1565b611f0f61353d565b6001600160a01b0382165f818152600a6020908152604091829020805460ff191685151590811790915591519182527fa54714518c5d275fdcd3d2a461e4858e4e8cb04fb93cd0bca9d6d34115f26440910160405180910390a25050565b60065481515f9114611fb95760405162461bcd60e51b8152602060048201526015602482015274092dcecc2d8d2c840e0e4d2c6cae640d8cadccee8d605b1b60448201526064016108b4565b5f805b60065481101561209a575f60068281548110611fda57611fda6151ba565b5f9182526020822060049182020180546040516370a0823160e01b815230938101939093529093506001600160a01b0316906370a0823190602401602060405180830381865afa158015612030573d5f803e3d5ffd5b505050506040513d601f19601f820116820180604052508101906120549190615113565b90505f868481518110612069576120696151ba565b60200260200101519050808261207f919061513e565b6120899086615286565b94505060019092019150611fbc9050565b5092915050565b6120a961353d565b6120b25f613ecc565b565b6120bc61353d565b6120c461363b565b60065481511461210e5760405162461bcd60e51b8152602060048201526015602482015274092dcecc2d8d2c840e0e4d2c6cae640d8cadccee8d605b1b60448201526064016108b4565b5f61211882611f6d565b90505f5b6006548110156123f9575f6006828154811061213a5761213a6151ba565b905f5260205f20906004020190505f6121d785848151811061215e5761215e6151ba565b602090810291909101015183546040516370a0823160e01b81523060048201526001600160a01b03909116906370a0823190602401602060405180830381865afa1580156121ae573d5f803e3d5ffd5b505050506040513d601f19601f820116820180604052508101906121d29190615113565b613f1b565b90505f846121e78361271061513e565b6121f19190615155565b905082600101548111156122f3575f83600101548261221091906151ce565b90505f612710612220888461513e565b61222a9190615155565b90505f6122378583615155565b86546002880180549293506122ea926001600160a01b039092169184919061225e906150a6565b80601f016020809104026020016040519081016040528092919081815260200182805461228a906150a6565b80156122d55780601f106122ac576101008083540402835291602001916122d5565b820191905f5260205f20905b8154815290600101906020018083116122b857829003601f168201915b5050505060038b015462ffffff169050613f2d565b505050506123ee565b82600101548110156123ee575f81846001015461231091906151ce565b90505f612710612320888461513e565b61232a9190615155565b90505f6123378583615155565b86546002880180549293506123ea926001600160a01b039092169184919061235e906150a6565b80601f016020809104026020016040519081016040528092919081815260200182805461238a906150a6565b80156123d55780601f106123ac576101008083540402835291602001916123d5565b820191905f5260205f20905b8154815290600101906020018083116123b857829003601f168201915b5050505060038b015462ffffff1690506142d0565b5050505b50505060010161211c565b506040514281527fc306af072396b02bf3a9782c10065cc7ff4aa842934a43f0b76f997b291237c89060200160405180910390a15050565b61243961353d565b61244161492d565b6040513381527f62e78cea01bee320cd4e420270b5ea74000d11b0c9f74754ebdbfc544b05a25890602001611efd565b6001600160a01b0381165f908152600c60205260408120546060919067ffffffffffffffff8111156124a5576124a5614da1565b6040519080825280602002602001820160405280156124fb57816020015b6040805160a0810182525f8082526020808301829052928201819052606080830152608082015282525f199092019101816124c35790505b5090505f805b600b5481101561267957846001600160a01b0316600b8281548110612528576125286151ba565b5f9182526020909120600590910201546001600160a01b03160361267157600b8181548110612559576125596151ba565b5f9182526020918290206040805160a081018252600590930290910180546001600160a01b039081168452600182015416938301939093526002830154908201526003820180549192916060840191906125b2906150a6565b80601f01602080910402602001604051908101604052809291908181526020018280546125de906150a6565b80156126295780601f1061260057610100808354040283529160200191612629565b820191905f5260205f20905b81548152906001019060200180831161260c57829003601f168201915b50505091835250506004919091015462ffffff166020909101528351849084908110612657576126576151ba565b6020026020010181905250818061266d906155b9565b9250505b600101612501565b50909392505050565b6060600580546107ce906150a6565b61269961353d565b5f816001600160a01b03166011546040515b5f6040518083038185875af1925050503d805f81146126e5576040519150601f19603f3d011682016040523d82523d5f602084013e6126ea565b606091505b5050905080611ebd5760405162461bcd60e51b8152602060048201526013602482015272115512081d1c985b9cd9995c8819985a5b1959606a1b60448201526064016108b4565b5f3361085c8185856135de565b61274661353d565b61271083111561278d5760405162461bcd60e51b8152602060048201526012602482015271496e76616c69642070657263656e7461676560701b60448201526064016108b4565b604080516080810182526001600160a01b0386811682526020820186815292820185815262ffffff85166060840152600680546001810182555f9190915283517ff652222313e28459528d920b65115c16c04f3efc82aaedc97be59f3f377c0d3f600490920291820180546001600160a01b0319169190941617835593517ff652222313e28459528d920b65115c16c04f3efc82aaedc97be59f3f377c0d4085015551919290917ff652222313e28459528d920b65115c16c04f3efc82aaedc97be59f3f377c0d419091019061286390826154fb565b50606091909101516003909101805462ffffff191662ffffff90921691909117905550505050565b335f908152600a602052604090205460ff166128db5760405162461bcd60e51b815260206004820152600f60248201526e139bdd081dda1a5d195b1a5cdd1959608a1b60448201526064016108b4565b6128e361363b565b5f34116129025760405162461bcd60e51b81526004016108b4906150de565b5f612710600e5434612914919061513e565b61291e9190615155565b90505f61292b82346151ce565b90508160115f82825461293e9190615286565b9091555050806129a35760405162461bcd60e51b815260206004820152602a60248201527f416d6f756e7420616674657220666565206d7573742062652067726561746572604482015269207468616e207a65726f60b01b60648201526084016108b4565b6129ad338261496f565b336001600160a01b03167fa6f472afe6167674a3b4324e83eb63d201d75a960d8a52bf808fea91f960f1178283604051612a0c9291909182526020820152606060408201819052600390820152624e2f4160e81b608082015260a00190565b60405180910390a25f5b600654811015612cc6575f60068281548110612a3457612a346151ba565b905f5260205f20906004020190505f612710826001015485612a56919061513e565b612a609190615155565b82546003840154604051631ce07ae960e11b815292935030926339c0f5d2928592612aa8926001600160a01b0390921691849160028a019162ffffff90911690600401615260565b5f604051808303818588803b158015612abf575f80fd5b505af193505050508015612ad1575060015b612cbc57335f908152600d602052604081208054839290612af3908490615286565b90915550506040805160a08101825233815283546001600160a01b03166020820152908101829052600283018054600b92916060830191612b33906150a6565b80601f0160208091040260200160405190810160405280929190818152602001828054612b5f906150a6565b8015612baa5780601f10612b8157610100808354040283529160200191612baa565b820191905f5260205f20905b815481529060010190602001808311612b8d57829003601f168201915b505050918352505060038581015462ffffff166020928301528354600180820186555f95865294839020845160059092020180546001600160a01b03199081166001600160a01b03938416178255938501519581018054909416959091169490941790915560408201516002840155606082015191929190820190612c2f90826154fb565b50608091909101516004909101805462ffffff191662ffffff909216919091179055335f908152600c60205260408120805491612c6b836155b9565b9091555050815460405133917fb301e8c1d1e07ed6209db6d6cc98b8f845197cb3a52a5c0502ca2df8316e692991612cb3916001600160a01b0316908590600288019061560c565b60405180910390a25b5050600101612a16565b505050565b5f604051602001612cdb906152b4565b6040516020818303038152906040528051906020012083604051602001612d02919061549a565b6040516020818303038152906040528051906020012003612ebf576040805160028082526060820183525f9260208301908036833701905050905085815f81518110612d5057612d506151ba565b6001600160a01b03928316602091820292909201810191909152600754604080516315ab88c960e31b81529051919093169263ad5c46489260048083019391928290030181865afa158015612da7573d5f803e3d5ffd5b505050506040513d601f19601f82011682018060405250810190612dcb9190615333565b81600181518110612dde57612dde6151ba565b6001600160a01b03928316602091820292909201015260075460405163d06ca61f60e01b81525f92919091169063d06ca61f90612e219089908690600401615391565b5f60405180830381865afa158015612e3b573d5f803e3d5ffd5b505050506040513d5f823e601f3d908101601f19168201604052612e6291908101906153a9565b90505f612710601054612710612e7891906151ce565b83600181518110612e8b57612e8b6151ba565b6020026020010151612e9d919061513e565b612ea79190615155565b9050612eb588888330613699565b9350505050613057565b604051602001612ece90615430565b6040516020818303038152906040528051906020012083604051602001612ef5919061549a565b604051602081830303815290604052805190602001200361147e575f858360075f9054906101000a90046001600160a01b03166001600160a01b031663ad5c46486040518163ffffffff1660e01b8152600401602060405180830381865afa158015612f63573d5f803e3d5ffd5b505050506040513d601f19601f82011682018060405250810190612f879190615333565b604051602001612f999392919061543e565b60408051601f198184030181529082905260095463cdca175360e01b83529092505f916001600160a01b039091169063cdca175390612fde9085908a90600401615479565b6020604051808303815f875af1158015612ffa573d5f803e3d5ffd5b505050506040513d601f19601f8201168201806040525081019061301e9190615113565b90505f61271060105461271061303491906151ce565b61303e908461513e565b6130489190615155565b9050612eb58888878430613884565b949350505050565b61306761353d565b6001600160a01b03811661309057604051631e4fbdf760e01b81525f60048201526024016108b4565b61309981613ecc565b50565b6130a461353d565b5f805b60065481101561351b575f600682815481106130c5576130c56151ba565b5f9182526020822060049182020180546040516370a0823160e01b815230938101939093529093506001600160a01b0316906370a0823190602401602060405180830381865afa15801561311b573d5f803e3d5ffd5b505050506040513d601f19601f8201168201806040525081019061313f9190615113565b9050604051602001613150906152b4565b604051602081830303815290604052805190602001208260020160405160200161317a91906152c2565b6040516020818303038152906040528051906020012003613358576040805160028082526060820183525f926020830190803683375050845482519293506001600160a01b0316918391505f906131d3576131d36151ba565b6001600160a01b03928316602091820292909201810191909152600754604080516315ab88c960e31b81529051919093169263ad5c46489260048083019391928290030181865afa15801561322a573d5f803e3d5ffd5b505050506040513d601f19601f8201168201806040525081019061324e9190615333565b81600181518110613261576132616151ba565b6001600160a01b03928316602091820292909201015260075460405163d06ca61f60e01b81525f92919091169063d06ca61f906132a49086908690600401615391565b5f60405180830381865afa1580156132be573d5f803e3d5ffd5b505050506040513d5f823e601f3d908101601f191682016040526132e591908101906153a9565b90505f6127106010546127106132fb91906151ce565b8360018151811061330e5761330e6151ba565b6020026020010151613320919061513e565b61332a9190615155565b8554909150613344906001600160a01b0316858333613699565b61334e9088615286565b9650505050613511565b60405160200161336790615430565b604051602081830303815290604052805190602001208260020160405160200161339191906152c2565b604051602081830303815290604052805190602001200361147e5781546003830154600754604080516315ab88c960e31b815290515f946001600160a01b039081169462ffffff1693169163ad5c46489160048083019260209291908290030181865afa158015613404573d5f803e3d5ffd5b505050506040513d601f19601f820116820180604052508101906134289190615333565b60405160200161343a9392919061543e565b60408051601f198184030181529082905260095463cdca175360e01b83529092505f916001600160a01b039091169063cdca17539061347f9085908790600401615479565b6020604051808303815f875af115801561349b573d5f803e3d5ffd5b505050506040513d601f19601f820116820180604052508101906134bf9190615113565b90505f6127106010546127106134d591906151ce565b6134df908461513e565b6134e99190615155565b85546003870154919250613344916001600160a01b0390911690869062ffffff168433613884565b50506001016130a7565b505f336001600160a01b0316826040516126ab565b612cc683838360016149a3565b5f546001600160a01b031633146120b25760405163118cdaa760e01b81523360048201526024016108b4565b6001600160a01b038381165f908152600260209081526040808320938616835292905220545f198114611b0c57818110156135d057604051637dc7a0d960e11b81526001600160a01b038416600482015260248101829052604481018390526064016108b4565b611b0c84848484035f6149a3565b6001600160a01b03831661360757604051634b637e8f60e11b81525f60048201526024016108b4565b6001600160a01b0382166136305760405163ec442f0560e01b81525f60048201526024016108b4565b612cc6838383614a75565b5f54600160a01b900460ff16156120b25760405163d93c066560e01b815260040160405180910390fd5b6001600160a01b03821661368e57604051634b637e8f60e11b81525f60048201526024016108b4565b611ebd825f83614a75565b6040805160028082526060820183525f928392919060208301908036833701905050905085815f815181106136d0576136d06151ba565b6001600160a01b03928316602091820292909201810191909152600754604080516315ab88c960e31b81529051919093169263ad5c46489260048083019391928290030181865afa158015613727573d5f803e3d5ffd5b505050506040513d601f19601f8201168201806040525081019061374b9190615333565b8160018151811061375e5761375e6151ba565b6001600160a01b03928316602091820292909201015260075460405163095ea7b360e01b81529082166004820152602481018790529087169063095ea7b3906044016020604051808303815f875af11580156137bc573d5f803e3d5ffd5b505050506040513d601f19601f820116820180604052508101906137e09190615299565b506007546040516318cbafe560e01b81525f916001600160a01b0316906318cbafe590613819908990899087908a904290600401615632565b5f604051808303815f875af1158015613834573d5f803e3d5ffd5b505050506040513d5f823e601f3d908101601f1916820160405261385b91908101906153a9565b905080600181518110613870576138706151ba565b602002602001015192505050949350505050565b5f80604051806101000160405280886001600160a01b0316815260200160075f9054906101000a90046001600160a01b03166001600160a01b031663ad5c46486040518163ffffffff1660e01b8152600401602060405180830381865afa1580156138f1573d5f803e3d5ffd5b505050506040513d601f19601f820116820180604052508101906139159190615333565b6001600160a01b03908116825262ffffff88166020830152858116604080840191909152426060840152608083018a905260a083018890525f60c090930192909252600854915163095ea7b360e01b81529181166004830152602482018990529192509088169063095ea7b3906044016020604051808303815f875af11580156139a1573d5f803e3d5ffd5b505050506040513d601f19601f820116820180604052508101906139c59190615299565b5060085460405163414bf38960e01b81526001600160a01b039091169063414bf389906139f690849060040161566d565b6020604051808303815f875af1158015613a12573d5f803e3d5ffd5b505050506040513d601f19601f82011682018060405250810190613a369190615113565b979650505050505050565b60408051600280825260608083018452925f9291906020830190803683375050600754604080516315ab88c960e31b815290519394506001600160a01b039091169263ad5c4648925060048083019260209291908290030181865afa158015613aac573d5f803e3d5ffd5b505050506040513d601f19601f82011682018060405250810190613ad09190615333565b815f81518110613ae257613ae26151ba565b60200260200101906001600160a01b031690816001600160a01b0316815250508481600181518110613b1657613b166151ba565b6001600160a01b039283166020918202929092010152600754604051637ff36ab560e01b8152911690637ff36ab5908690613b5b9087908690309042906004016156e3565b5f6040518083038185885af1158015613b76573d5f803e3d5ffd5b50505050506040513d5f823e601f3d908101601f19168201604052613b9e91908101906153a9565b95945050505050565b6040805161010081018083526007546315ab88c960e31b90915291516060925f929182916001600160a01b03169063ad5c464890610104808501916020918187030181865afa158015613bfc573d5f803e3d5ffd5b505050506040513d601f19601f82011682018060405250810190613c209190615333565b6001600160a01b039081168252888116602083015262ffffff871660408084019190915230606084015242608084015260a0830189905260c083018790525f60e090930192909252600854915163414bf38960e01b8152929350169063414bf389908790613c9290859060040161566d565b60206040518083038185885af1158015613cae573d5f803e3d5ffd5b50505050506040513d601f19601f82011682018060405250810190613cd39190615113565b82600181518110613ce657613ce66151ba565b60200260200101818152505084825f81518110613d0557613d056151ba565b60200260200101818152505050949350505050565b600b548110613d5b5760405162461bcd60e51b815260206004820152600d60248201526c092dcecc2d8d2c840d2dcc8caf609b1b60448201526064016108b4565b600b8054613d6b906001906151ce565b81548110613d7b57613d7b6151ba565b905f5260205f209060050201600b8281548110613d9a57613d9a6151ba565b5f9182526020909120825460059092020180546001600160a01b039283166001600160a01b031991821617825560018085015490830180549190941691161790915560028083015490820155600380820190613df890840182615717565b506004918201549101805462ffffff191662ffffff909216919091179055600b805480613e2757613e276157e4565b5f8281526020812060055f199093019283020180546001600160a01b0319908116825560018201805490911690556002810182905590613e6a6003830182614bc4565b50600401805462ffffff19169055905550565b613e85614b9b565b5f805460ff60a01b191690557f5db9ee0a495bf2e6ff9c91a7834c1ba4fdd244a5e8aa4e537bd38aeae4b073aa335b6040516001600160a01b039091168152602001611efd565b5f80546001600160a01b038381166001600160a01b0319831681178455604051919092169283917f8be0079c531659141344cd1fd0a4f28419497f9722a3daafe3b4186f6b6457e09190a35050565b5f613f26838361513e565b9392505050565b5f604051602001613f3d906152b4565b6040516020818303038152906040528051906020012083604051602001613f64919061549a565b6040516020818303038152906040528051906020012003614138576040805160028082526060820183525f9260208301908036833701905050905085815f81518110613fb257613fb26151ba565b6001600160a01b03928316602091820292909201810191909152600754604080516315ab88c960e31b81529051919093169263ad5c46489260048083019391928290030181865afa158015614009573d5f803e3d5ffd5b505050506040513d601f19601f8201168201806040525081019061402d9190615333565b81600181518110614040576140406151ba565b6001600160a01b03928316602091820292909201015260075460405163d06ca61f60e01b81525f92919091169063d06ca61f906140839089908690600401615391565b5f60405180830381865afa15801561409d573d5f803e3d5ffd5b505050506040513d5f823e601f3d908101601f191682016040526140c491908101906153a9565b90505f6127106010546127106140da91906151ce565b836001815181106140ed576140ed6151ba565b60200260200101516140ff919061513e565b6141099190615155565b905061411788888330613699565b93508360125f82825461412a9190615286565b909155506130579350505050565b60405160200161414790615430565b604051602081830303815290604052805190602001208360405160200161416e919061549a565b604051602081830303815290604052805190602001200361147e575f858360075f9054906101000a90046001600160a01b03166001600160a01b031663ad5c46486040518163ffffffff1660e01b8152600401602060405180830381865afa1580156141dc573d5f803e3d5ffd5b505050506040513d601f19601f820116820180604052508101906142009190615333565b6040516020016142129392919061543e565b60408051601f198184030181529082905260095463cdca175360e01b83529092505f916001600160a01b039091169063cdca1753906142579085908a90600401615479565b6020604051808303815f875af1158015614273573d5f803e3d5ffd5b505050506040513d601f19601f820116820180604052508101906142979190615113565b90505f6127106010546127106142ad91906151ce565b6142b7908461513e565b6142c19190615155565b90506141178888878430613884565b6040516020016142df906152b4565b6040516020818303038152906040528051906020012082604051602001614306919061549a565b6040516020818303038152906040528051906020012003614675576040805160028082526060820183525f926020830190803683375050600754604080516315ab88c960e31b815290519394506001600160a01b039091169263ad5c4648925060048083019260209291908290030181865afa158015614388573d5f803e3d5ffd5b505050506040513d601f19601f820116820180604052508101906143ac9190615333565b815f815181106143be576143be6151ba565b60200260200101906001600160a01b031690816001600160a01b03168152505084816001815181106143f2576143f26151ba565b6001600160a01b0392831660209182029290920101526007546040516307c0329d60e21b81525f929190911690631f00ca74906144359088908690600401615391565b5f60405180830381865afa15801561444f573d5f803e3d5ffd5b505050506040513d5f823e601f3d908101601f1916820160405261447691908101906153a9565b90508060018151811061448b5761448b6151ba565b602002602001015160125411156145a15760075481515f916001600160a01b03169063d06ca61f90849060019081106144c6576144c66151ba565b6020026020010151856040518363ffffffff1660e01b81526004016144ec929190615391565b5f60405180830381865afa158015614506573d5f803e3d5ffd5b505050506040513d5f823e601f3d908101601f1916820160405261452d91908101906153a9565b90505f61271060105461271061454391906151ce565b83600181518110614556576145566151ba565b6020026020010151614568919061513e565b6145729190615155565b9050614599888460018151811061458b5761458b6151ba565b602002602001015183613a41565b50505061466e565b60075460125460405163d06ca61f60e01b81525f926001600160a01b03169163d06ca61f916145d591908790600401615391565b5f60405180830381865afa1580156145ef573d5f803e3d5ffd5b505050506040513d5f823e601f3d908101601f1916820160405261461691908101906153a9565b90505f61271060105461271061462c91906151ce565b8360018151811061463f5761463f6151ba565b6020026020010151614651919061513e565b61465b9190615155565b905061466a8860125483613a41565b5050505b5050611b0c565b60405160200161468490615430565b60405160208183030381529060405280519060200120826040516020016146ab919061549a565b604051602081830303815290604052805190602001200361147e57600754604080516315ab88c960e31b815290515f926001600160a01b03169163ad5c46489160048083019260209291908290030181865afa15801561470d573d5f803e3d5ffd5b505050506040513d601f19601f820116820180604052508101906147319190615333565b82866040516020016147459392919061543e565b60408051601f1981840301815290829052600954632f80bb1d60e01b83529092505f916001600160a01b0390911690632f80bb1d9061478a9085908990600401615479565b6020604051808303815f875af11580156147a6573d5f803e3d5ffd5b505050506040513d601f19601f820116820180604052508101906147ca9190615113565b90508060125411156148805760095460405163cdca175360e01b81525f916001600160a01b03169063cdca1753906148089086908690600401615479565b6020604051808303815f875af1158015614824573d5f803e3d5ffd5b505050506040513d601f19601f820116820180604052508101906148489190615113565b90505f61271060105461271061485e91906151ce565b614868908461513e565b6148729190615155565b905061459988848784613ba7565b60095460125460405163cdca175360e01b81525f926001600160a01b03169163cdca1753916148b3918791600401615479565b6020604051808303815f875af11580156148cf573d5f803e3d5ffd5b505050506040513d601f19601f820116820180604052508101906148f39190615113565b90505f61271060105461271061490991906151ce565b614913908461513e565b61491d9190615155565b905061466a886012548784613ba7565b61493561363b565b5f805460ff60a01b1916600160a01b1790557f62e78cea01bee320cd4e420270b5ea74000d11b0c9f74754ebdbfc544b05a258613eb43390565b6001600160a01b0382166149985760405163ec442f0560e01b81525f60048201526024016108b4565b611ebd5f8383614a75565b6001600160a01b0384166149cc5760405163e602df0560e01b81525f60048201526024016108b4565b6001600160a01b0383166149f557604051634a1406b160e11b81525f60048201526024016108b4565b6001600160a01b038085165f9081526002602090815260408083209387168352929052208290558015611b0c57826001600160a01b0316846001600160a01b03167f8c5be1e5ebec7d5bd14f71427d1e84f3dd0314c0f7b2291e5b200ac8c7c3b92584604051614a6791815260200190565b60405180910390a350505050565b6001600160a01b038316614a9f578060035f828254614a949190615286565b90915550614b0f9050565b6001600160a01b0383165f9081526001602052604090205481811015614af15760405163391434e360e21b81526001600160a01b038516600482015260248101829052604481018390526064016108b4565b6001600160a01b0384165f9081526001602052604090209082900390555b6001600160a01b038216614b2b57600380548290039055614b49565b6001600160a01b0382165f9081526001602052604090208054820190555b816001600160a01b0316836001600160a01b03167fddf252ad1be2c89b69c2b068fc378daa952ba7f163c4a11628f55a4df523b3ef83604051614b8e91815260200190565b60405180910390a3505050565b5f54600160a01b900460ff166120b257604051638dfc202b60e01b815260040160405180910390fd5b508054614bd0906150a6565b5f825580601f10614bdf575050565b601f0160209004905f5260205f209081019061309991905b80821115614c0a575f8155600101614bf7565b5090565b5f81518084528060208401602086015e5f602082860101526020601f19601f83011685010191505092915050565b602081525f613f266020830184614c0e565b6001600160a01b0381168114613099575f80fd5b5f8060408385031215614c73575f80fd5b8235614c7e81614c4e565b946020939093013593505050565b5f8060408385031215614c9d575f80fd5b50508035926020909101359150565b5f60208284031215614cbc575f80fd5b5035919050565b5f805f60608486031215614cd5575f80fd5b8335614ce081614c4e565b92506020840135614cf081614c4e565b929592945050506040919091013590565b60018060a01b0385168152836020820152608060408201525f614d276080830185614c0e565b905062ffffff8316606083015295945050505050565b5f60208284031215614d4d575f80fd5b8135613f2681614c4e565b6001600160a01b038681168252851660208201526040810184905260a0606082018190525f90614d8a90830185614c0e565b905062ffffff831660808301529695505050505050565b634e487b7160e01b5f52604160045260245ffd5b604051601f8201601f1916810167ffffffffffffffff81118282101715614dde57614dde614da1565b604052919050565b5f82601f830112614df5575f80fd5b813567ffffffffffffffff811115614e0f57614e0f614da1565b614e22601f8201601f1916602001614db5565b818152846020838601011115614e36575f80fd5b816020850160208301375f918101602001919091529392505050565b803562ffffff81168114614e64575f80fd5b919050565b5f805f8060808587031215614e7c575f80fd5b8435614e8781614c4e565b935060208501359250604085013567ffffffffffffffff811115614ea9575f80fd5b614eb587828801614de6565b925050614ec460608601614e52565b905092959194509250565b8015158114613099575f80fd5b5f8060408385031215614eed575f80fd5b8235614ef881614c4e565b91506020830135614f0881614ecf565b809150509250929050565b5f67ffffffffffffffff821115614f2c57614f2c614da1565b5060051b60200190565b5f60208284031215614f46575f80fd5b813567ffffffffffffffff811115614f5c575f80fd5b8201601f81018413614f6c575f80fd5b8035614f7f614f7a82614f13565b614db5565b8082825260208201915060208360051b850101925086831115614fa0575f80fd5b6020840193505b82841015614fc2578335825260209384019390910190614fa7565b9695505050505050565b5f602082016020835280845180835260408501915060408160051b8601019250602086015f5b8281101561506e57603f19878603018452815160018060a01b03815116865260018060a01b03602082015116602087015260408101516040870152606081015160a0606088015261504660a0880182614c0e565b60809283015162ffffff16979092019690965294506020938401939190910190600101614ff2565b50929695505050505050565b5f806040838503121561508b575f80fd5b823561509681614c4e565b91506020830135614f0881614c4e565b600181811c908216806150ba57607f821691505b6020821081036150d857634e487b7160e01b5f52602260045260245ffd5b50919050565b6020808252818101527f416d6f756e74206d7573742062652067726561746572207468616e207a65726f604082015260600190565b5f60208284031215615123575f80fd5b5051919050565b634e487b7160e01b5f52601160045260245ffd5b80820281158282048414176108625761086261512a565b5f8261516f57634e487b7160e01b5f52601260045260245ffd5b500490565b60208082526026908201527f50657263656e74616765206d757374206265206265747765656e203020616e6460408201526502031303030360d41b606082015260800190565b634e487b7160e01b5f52603260045260245ffd5b818103818111156108625761086261512a565b5f81546151ed816150a6565b808552600182168015615207576001811461522357615257565b60ff1983166020870152602082151560051b8701019350615257565b845f5260205f205f5b8381101561524e5781546020828a01015260018201915060208101905061522c565b87016020019450505b50505092915050565b60018060a01b0385168152836020820152608060408201525f614d2760808301856151e1565b808201808211156108625761086261512a565b5f602082840312156152a9575f80fd5b8151613f2681614ecf565b613b1960f11b815260020190565b5f8083546152cf816150a6565b6001821680156152e657600181146152fb57615328565b60ff1983168652811515820286019350615328565b865f5260205f205f5b8381101561532057815488820152600190910190602001615304565b505081860193505b509195945050505050565b5f60208284031215615343575f80fd5b8151613f2681614c4e565b5f8151808452602084019350602083015f5b828110156153875781516001600160a01b0316865260209586019590910190600101615360565b5093949350505050565b828152604060208201525f613057604083018461534e565b5f602082840312156153b9575f80fd5b815167ffffffffffffffff8111156153cf575f80fd5b8201601f810184136153df575f80fd5b80516153ed614f7a82614f13565b8082825260208201915060208360051b85010192508683111561540e575f80fd5b6020840193505b82841015614fc2578351825260209384019390910190615415565b61763360f01b815260020190565b606093841b6bffffffffffffffffffffffff19908116825260e89390931b6001600160e81b0319166014820152921b166017820152602b0190565b604081525f61548b6040830185614c0e565b90508260208301529392505050565b5f82518060208501845e5f920191825250919050565b601f821115612cc657805f5260205f20601f840160051c810160208510156154d55750805b601f840160051c820191505b818110156154f4575f81556001016154e1565b5050505050565b815167ffffffffffffffff81111561551557615515614da1565b6155298161552384546150a6565b846154b0565b6020601f82116001811461555e575f83156155445750848201515b600184901b5f19600386901b1c198216175b8555506154f4565b5f84815260208120601f198516915b8281101561558d578785015182556020948501946001909201910161556d565b50848210156155aa57868401515f19600387901b60f8161c191681555b50505050600190811b01905550565b5f600182016155ca576155ca61512a565b5060010190565b60018060a01b0384168152826020820152606060408201525f613b9e6060830184614c0e565b5f816156055761560561512a565b505f190190565b60018060a01b0384168152826020820152606060408201525f613b9e60608301846151e1565b85815284602082015260a060408201525f61565060a083018661534e565b6001600160a01b0394909416606083015250608001529392505050565b81516001600160a01b03908116825260208084015182169083015260408084015162ffffff169083015260608084015191821690830152610100820190506080830151608083015260a083015160a083015260c083015160c083015260e083015161209a60e08401826001600160a01b03169052565b848152608060208201525f6156fb608083018661534e565b6001600160a01b03949094166040830152506060015292915050565b818103615722575050565b61572c82546150a6565b67ffffffffffffffff81111561574457615744614da1565b6157528161552384546150a6565b5f601f821160018114615781575f8315615544575081850154600184901b5f19600386901b1c19821617615556565b5f8581526020808220868352908220601f198616925b838110156157b75782860154825560019586019590910190602001615797565b50858310156157d457818501545f19600388901b60f8161c191681555b5050505050600190811b01905550565b634e487b7160e01b5f52603160045260245ffdfea26469706673582212206d62eb169401a01d466821c70475f1a8e43f818ccc375d0871878c2cbb81aa1164736f6c634300081a0033",
			"opcodes": "PUSH1 0x80 PUSH1 0x40 MSTORE CALLVALUE DUP1 ISZERO PUSH2 0xF JUMPI PUSH0 DUP1 REVERT JUMPDEST POP PUSH1 0x40 MLOAD PUSH2 0x5B77 CODESIZE SUB DUP1 PUSH2 0x5B77 DUP4 CODECOPY DUP2 ADD PUSH1 0x40 DUP2 SWAP1 MSTORE PUSH2 0x2E SWAP2 PUSH2 0x1AA JUMP JUMPDEST PUSH1 0x40 DUP1 MLOAD DUP1 DUP3 ADD DUP3 MSTORE PUSH1 0x16 DUP2 MSTORE PUSH32 0x50594747205772617070656420506F7274666F6C696F00000000000000000000 PUSH1 0x20 DUP1 DUP4 ADD SWAP2 SWAP1 SWAP2 MSTORE DUP3 MLOAD DUP1 DUP5 ADD SWAP1 SWAP4 MSTORE PUSH1 0x4 DUP4 MSTORE PUSH4 0x50594747 PUSH1 0xE0 SHL SWAP1 DUP4 ADD MSTORE SWAP1 CALLER DUP1 PUSH2 0xA3 JUMPI PUSH1 0x40 MLOAD PUSH4 0x1E4FBDF7 PUSH1 0xE0 SHL DUP2 MSTORE PUSH0 PUSH1 0x4 DUP3 ADD MSTORE PUSH1 0x24 ADD PUSH1 0x40 MLOAD DUP1 SWAP2 SUB SWAP1 REVERT JUMPDEST PUSH2 0xAC DUP2 PUSH2 0x140 JUMP JUMPDEST POP PUSH0 DUP1 SLOAD PUSH1 0xFF PUSH1 0xA0 SHL NOT AND SWAP1 SSTORE PUSH1 0x4 PUSH2 0xC5 DUP4 DUP3 PUSH2 0x282 JUMP JUMPDEST POP PUSH1 0x5 PUSH2 0xD2 DUP3 DUP3 PUSH2 0x282 JUMP JUMPDEST POP POP PUSH1 0x7 DUP1 SLOAD PUSH1 0x1 PUSH1 0x1 PUSH1 0xA0 SHL SUB SWAP6 DUP7 AND PUSH1 0x1 PUSH1 0x1 PUSH1 0xA0 SHL SUB NOT SWAP2 DUP3 AND OR SWAP1 SWAP2 SSTORE PUSH1 0x8 DUP1 SLOAD SWAP5 DUP7 AND SWAP5 DUP3 AND SWAP5 SWAP1 SWAP5 OR SWAP1 SWAP4 SSTORE POP PUSH1 0x9 DUP1 SLOAD SWAP2 SWAP1 SWAP4 AND SWAP2 AND OR SWAP1 SSTORE CALLER PUSH0 SWAP1 DUP2 MSTORE PUSH1 0xA PUSH1 0x20 MSTORE PUSH1 0x40 SWAP1 KECCAK256 DUP1 SLOAD PUSH1 0xFF NOT AND PUSH1 0x1 OR SWAP1 SSTORE PUSH2 0x3E8 PUSH1 0x10 SSTORE PUSH1 0x64 PUSH1 0xF DUP2 SWAP1 SSTORE PUSH1 0xE SSTORE PUSH2 0x33C JUMP JUMPDEST PUSH0 DUP1 SLOAD PUSH1 0x1 PUSH1 0x1 PUSH1 0xA0 SHL SUB DUP4 DUP2 AND PUSH1 0x1 PUSH1 0x1 PUSH1 0xA0 SHL SUB NOT DUP4 AND DUP2 OR DUP5 SSTORE PUSH1 0x40 MLOAD SWAP2 SWAP1 SWAP3 AND SWAP3 DUP4 SWAP2 PUSH32 0x8BE0079C531659141344CD1FD0A4F28419497F9722A3DAAFE3B4186F6B6457E0 SWAP2 SWAP1 LOG3 POP POP JUMP JUMPDEST DUP1 MLOAD PUSH1 0x1 PUSH1 0x1 PUSH1 0xA0 SHL SUB DUP2 AND DUP2 EQ PUSH2 0x1A5 JUMPI PUSH0 DUP1 REVERT JUMPDEST SWAP2 SWAP1 POP JUMP JUMPDEST PUSH0 DUP1 PUSH0 PUSH1 0x60 DUP5 DUP7 SUB SLT ISZERO PUSH2 0x1BC JUMPI PUSH0 DUP1 REVERT JUMPDEST PUSH2 0x1C5 DUP5 PUSH2 0x18F JUMP JUMPDEST SWAP3 POP PUSH2 0x1D3 PUSH1 0x20 DUP6 ADD PUSH2 0x18F JUMP JUMPDEST SWAP2 POP PUSH2 0x1E1 PUSH1 0x40 DUP6 ADD PUSH2 0x18F JUMP JUMPDEST SWAP1 POP SWAP3 POP SWAP3 POP SWAP3 JUMP JUMPDEST PUSH4 0x4E487B71 PUSH1 0xE0 SHL PUSH0 MSTORE PUSH1 0x41 PUSH1 0x4 MSTORE PUSH1 0x24 PUSH0 REVERT JUMPDEST PUSH1 0x1 DUP2 DUP2 SHR SWAP1 DUP3 AND DUP1 PUSH2 0x212 JUMPI PUSH1 0x7F DUP3 AND SWAP2 POP JUMPDEST PUSH1 0x20 DUP3 LT DUP2 SUB PUSH2 0x230 JUMPI PUSH4 0x4E487B71 PUSH1 0xE0 SHL PUSH0 MSTORE PUSH1 0x22 PUSH1 0x4 MSTORE PUSH1 0x24 PUSH0 REVERT JUMPDEST POP SWAP2 SWAP1 POP JUMP JUMPDEST PUSH1 0x1F DUP3 GT ISZERO PUSH2 0x27D JUMPI DUP1 PUSH0 MSTORE PUSH1 0x20 PUSH0 KECCAK256 PUSH1 0x1F DUP5 ADD PUSH1 0x5 SHR DUP2 ADD PUSH1 0x20 DUP6 LT ISZERO PUSH2 0x25B JUMPI POP DUP1 JUMPDEST PUSH1 0x1F DUP5 ADD PUSH1 0x5 SHR DUP3 ADD SWAP2 POP JUMPDEST DUP2 DUP2 LT ISZERO PUSH2 0x27A JUMPI PUSH0 DUP2 SSTORE PUSH1 0x1 ADD PUSH2 0x267 JUMP JUMPDEST POP POP JUMPDEST POP POP POP JUMP JUMPDEST DUP2 MLOAD PUSH1 0x1 PUSH1 0x1 PUSH1 0x40 SHL SUB DUP2 GT ISZERO PUSH2 0x29B JUMPI PUSH2 0x29B PUSH2 0x1EA JUMP JUMPDEST PUSH2 0x2AF DUP2 PUSH2 0x2A9 DUP5 SLOAD PUSH2 0x1FE JUMP JUMPDEST DUP5 PUSH2 0x236 JUMP JUMPDEST PUSH1 0x20 PUSH1 0x1F DUP3 GT PUSH1 0x1 DUP2 EQ PUSH2 0x2E1 JUMPI PUSH0 DUP4 ISZERO PUSH2 0x2CA JUMPI POP DUP5 DUP3 ADD MLOAD JUMPDEST PUSH0 NOT PUSH1 0x3 DUP6 SWAP1 SHL SHR NOT AND PUSH1 0x1 DUP5 SWAP1 SHL OR DUP5 SSTORE PUSH2 0x27A JUMP JUMPDEST PUSH0 DUP5 DUP2 MSTORE PUSH1 0x20 DUP2 KECCAK256 PUSH1 0x1F NOT DUP6 AND SWAP2 JUMPDEST DUP3 DUP2 LT ISZERO PUSH2 0x310 JUMPI DUP8 DUP6 ADD MLOAD DUP3 SSTORE PUSH1 0x20 SWAP5 DUP6 ADD SWAP5 PUSH1 0x1 SWAP1 SWAP3 ADD SWAP2 ADD PUSH2 0x2F0 JUMP JUMPDEST POP DUP5 DUP3 LT ISZERO PUSH2 0x32D JUMPI DUP7 DUP5 ADD MLOAD PUSH0 NOT PUSH1 0x3 DUP8 SWAP1 SHL PUSH1 0xF8 AND SHR NOT AND DUP2 SSTORE JUMPDEST POP POP POP POP PUSH1 0x1 SWAP1 DUP2 SHL ADD SWAP1 SSTORE POP JUMP JUMPDEST PUSH2 0x582E DUP1 PUSH2 0x349 PUSH0 CODECOPY PUSH0 RETURN INVALID PUSH1 0x80 PUSH1 0x40 MSTORE PUSH1 0x4 CALLDATASIZE LT PUSH2 0x254 JUMPI PUSH0 CALLDATALOAD PUSH1 0xE0 SHR DUP1 PUSH4 0x5C975ABB GT PUSH2 0x13F JUMPI DUP1 PUSH4 0x9B19251A GT PUSH2 0xB3 JUMPI DUP1 PUSH4 0xD03153AA GT PUSH2 0x78 JUMPI DUP1 PUSH4 0xD03153AA EQ PUSH2 0x70C JUMPI DUP1 PUSH4 0xD0E30DB0 EQ PUSH2 0x721 JUMPI DUP1 PUSH4 0xDD62ED3E EQ PUSH2 0x729 JUMPI DUP1 PUSH4 0xE7AE65AB EQ PUSH2 0x76D JUMPI DUP1 PUSH4 0xF2FDE38B EQ PUSH2 0x78C JUMPI DUP1 PUSH4 0xFA3B5649 EQ PUSH2 0x7AB JUMPI PUSH0 DUP1 REVERT JUMPDEST DUP1 PUSH4 0x9B19251A EQ PUSH2 0x656 JUMPI DUP1 PUSH4 0xA738C7DF EQ PUSH2 0x684 JUMPI DUP1 PUSH4 0xA9059CBB EQ PUSH2 0x6A3 JUMPI DUP1 PUSH4 0xB612C12C EQ PUSH2 0x6C2 JUMPI DUP1 PUSH4 0xC38CD0B5 EQ PUSH2 0x6E1 JUMPI PUSH0 DUP1 REVERT JUMPDEST DUP1 PUSH4 0x8456CB59 GT PUSH2 0x104 JUMPI DUP1 PUSH4 0x8456CB59 EQ PUSH2 0x5BC JUMPI DUP1 PUSH4 0x86BC55DB EQ PUSH2 0x5D0 JUMPI DUP1 PUSH4 0x8BC7E8C4 EQ PUSH2 0x5E5 JUMPI DUP1 PUSH4 0x8DA5CB5B EQ PUSH2 0x5FA JUMPI DUP1 PUSH4 0x91EBE50F EQ PUSH2 0x616 JUMPI DUP1 PUSH4 0x95D89B41 EQ PUSH2 0x642 JUMPI PUSH0 DUP1 REVERT JUMPDEST DUP1 PUSH4 0x5C975ABB EQ PUSH2 0x523 JUMPI DUP1 PUSH4 0x67A52793 EQ PUSH2 0x540 JUMPI DUP1 PUSH4 0x70A08231 EQ PUSH2 0x555 JUMPI DUP1 PUSH4 0x715018A6 EQ PUSH2 0x589 JUMPI DUP1 PUSH4 0x780D5710 EQ PUSH2 0x59D JUMPI PUSH0 DUP1 REVERT JUMPDEST DUP1 PUSH4 0x2E1A7D4D GT PUSH2 0x1D6 JUMPI DUP1 PUSH4 0x39C0F5D2 GT PUSH2 0x19B JUMPI DUP1 PUSH4 0x39C0F5D2 EQ PUSH2 0x480 JUMPI DUP1 PUSH4 0x3D7526F7 EQ PUSH2 0x493 JUMPI DUP1 PUSH4 0x3F4BA83A EQ PUSH2 0x4B2 JUMPI DUP1 PUSH4 0x4D20D0F8 EQ PUSH2 0x4C6 JUMPI DUP1 PUSH4 0x53D6FD59 EQ PUSH2 0x4E5 JUMPI DUP1 PUSH4 0x5643A5A7 EQ PUSH2 0x504 JUMPI PUSH0 DUP1 REVERT JUMPDEST DUP1 PUSH4 0x2E1A7D4D EQ PUSH2 0x3BC JUMPI DUP1 PUSH4 0x2E63A156 EQ PUSH2 0x3DB JUMPI DUP1 PUSH4 0x313CE567 EQ PUSH2 0x40A JUMPI DUP1 PUSH4 0x36A43F2B EQ PUSH2 0x425 JUMPI DUP1 PUSH4 0x378A653C EQ PUSH2 0x450 JUMPI PUSH0 DUP1 REVERT JUMPDEST DUP1 PUSH4 0x1694505E GT PUSH2 0x21C JUMPI DUP1 PUSH4 0x1694505E EQ PUSH2 0x314 JUMPI DUP1 PUSH4 0x18160DDD EQ PUSH2 0x34B JUMPI DUP1 PUSH4 0x23B872DD EQ PUSH2 0x35F JUMPI DUP1 PUSH4 0x2C76D7A6 EQ PUSH2 0x37E JUMPI DUP1 PUSH4 0x2C9351A1 EQ PUSH2 0x39D JUMPI PUSH0 DUP1 REVERT JUMPDEST DUP1 PUSH4 0x6FDDE03 EQ PUSH2 0x258 JUMPI DUP1 PUSH4 0x95EA7B3 EQ PUSH2 0x282 JUMPI DUP1 PUSH4 0xB78F9C0 EQ PUSH2 0x2B1 JUMPI DUP1 PUSH4 0x117DA1EE EQ PUSH2 0x2D2 JUMPI DUP1 PUSH4 0x13114A9D EQ PUSH2 0x2F1 JUMPI JUMPDEST PUSH0 DUP1 REVERT JUMPDEST CALLVALUE DUP1 ISZERO PUSH2 0x263 JUMPI PUSH0 DUP1 REVERT JUMPDEST POP PUSH2 0x26C PUSH2 0x7BF JUMP JUMPDEST PUSH1 0x40 MLOAD PUSH2 0x279 SWAP2 SWAP1 PUSH2 0x4C3C JUMP JUMPDEST PUSH1 0x40 MLOAD DUP1 SWAP2 SUB SWAP1 RETURN JUMPDEST CALLVALUE DUP1 ISZERO PUSH2 0x28D JUMPI PUSH0 DUP1 REVERT JUMPDEST POP PUSH2 0x2A1 PUSH2 0x29C CALLDATASIZE PUSH1 0x4 PUSH2 0x4C62 JUMP JUMPDEST PUSH2 0x84F JUMP JUMPDEST PUSH1 0x40 MLOAD SWAP1 ISZERO ISZERO DUP2 MSTORE PUSH1 0x20 ADD PUSH2 0x279 JUMP JUMPDEST CALLVALUE DUP1 ISZERO PUSH2 0x2BC JUMPI PUSH0 DUP1 REVERT JUMPDEST POP PUSH2 0x2D0 PUSH2 0x2CB CALLDATASIZE PUSH1 0x4 PUSH2 0x4C8C JUMP JUMPDEST PUSH2 0x868 JUMP JUMPDEST STOP JUMPDEST CALLVALUE DUP1 ISZERO PUSH2 0x2DD JUMPI PUSH0 DUP1 REVERT JUMPDEST POP PUSH2 0x2D0 PUSH2 0x2EC CALLDATASIZE PUSH1 0x4 PUSH2 0x4CAC JUMP JUMPDEST PUSH2 0x913 JUMP JUMPDEST CALLVALUE DUP1 ISZERO PUSH2 0x2FC JUMPI PUSH0 DUP1 REVERT JUMPDEST POP PUSH2 0x306 PUSH1 0x11 SLOAD DUP2 JUMP JUMPDEST PUSH1 0x40 MLOAD SWAP1 DUP2 MSTORE PUSH1 0x20 ADD PUSH2 0x279 JUMP JUMPDEST CALLVALUE DUP1 ISZERO PUSH2 0x31F JUMPI PUSH0 DUP1 REVERT JUMPDEST POP PUSH1 0x7 SLOAD PUSH2 0x333 SWAP1 PUSH1 0x1 PUSH1 0x1 PUSH1 0xA0 SHL SUB AND DUP2 JUMP JUMPDEST PUSH1 0x40 MLOAD PUSH1 0x1 PUSH1 0x1 PUSH1 0xA0 SHL SUB SWAP1 SWAP2 AND DUP2 MSTORE PUSH1 0x20 ADD PUSH2 0x279 JUMP JUMPDEST CALLVALUE DUP1 ISZERO PUSH2 0x356 JUMPI PUSH0 DUP1 REVERT JUMPDEST POP PUSH1 0x3 SLOAD PUSH2 0x306 JUMP JUMPDEST CALLVALUE DUP1 ISZERO PUSH2 0x36A JUMPI PUSH0 DUP1 REVERT JUMPDEST POP PUSH2 0x2A1 PUSH2 0x379 CALLDATASIZE PUSH1 0x4 PUSH2 0x4CC3 JUMP JUMPDEST PUSH2 0x9A8 JUMP JUMPDEST CALLVALUE DUP1 ISZERO PUSH2 0x389 JUMPI PUSH0 DUP1 REVERT JUMPDEST POP PUSH1 0x8 SLOAD PUSH2 0x333 SWAP1 PUSH1 0x1 PUSH1 0x1 PUSH1 0xA0 SHL SUB AND DUP2 JUMP JUMPDEST CALLVALUE DUP1 ISZERO PUSH2 0x3A8 JUMPI PUSH0 DUP1 REVERT JUMPDEST POP PUSH2 0x2D0 PUSH2 0x3B7 CALLDATASIZE PUSH1 0x4 PUSH2 0x4CAC JUMP JUMPDEST PUSH2 0x9CB JUMP JUMPDEST CALLVALUE DUP1 ISZERO PUSH2 0x3C7 JUMPI PUSH0 DUP1 REVERT JUMPDEST POP PUSH2 0x2D0 PUSH2 0x3D6 CALLDATASIZE PUSH1 0x4 PUSH2 0x4CAC JUMP JUMPDEST PUSH2 0xDEA JUMP JUMPDEST CALLVALUE DUP1 ISZERO PUSH2 0x3E6 JUMPI PUSH0 DUP1 REVERT JUMPDEST POP PUSH2 0x3FA PUSH2 0x3F5 CALLDATASIZE PUSH1 0x4 PUSH2 0x4CAC JUMP JUMPDEST PUSH2 0x15D3 JUMP JUMPDEST PUSH1 0x40 MLOAD PUSH2 0x279 SWAP5 SWAP4 SWAP3 SWAP2 SWAP1 PUSH2 0x4D01 JUMP JUMPDEST CALLVALUE DUP1 ISZERO PUSH2 0x415 JUMPI PUSH0 DUP1 REVERT JUMPDEST POP PUSH1 0x40 MLOAD PUSH1 0x12 DUP2 MSTORE PUSH1 0x20 ADD PUSH2 0x279 JUMP JUMPDEST CALLVALUE DUP1 ISZERO PUSH2 0x430 JUMPI PUSH0 DUP1 REVERT JUMPDEST POP PUSH2 0x306 PUSH2 0x43F CALLDATASIZE PUSH1 0x4 PUSH2 0x4D3D JUMP JUMPDEST PUSH1 0xC PUSH1 0x20 MSTORE PUSH0 SWAP1 DUP2 MSTORE PUSH1 0x40 SWAP1 KECCAK256 SLOAD DUP2 JUMP JUMPDEST CALLVALUE DUP1 ISZERO PUSH2 0x45B JUMPI PUSH0 DUP1 REVERT JUMPDEST POP PUSH2 0x46F PUSH2 0x46A CALLDATASIZE PUSH1 0x4 PUSH2 0x4CAC JUMP JUMPDEST PUSH2 0x16A3 JUMP JUMPDEST PUSH1 0x40 MLOAD PUSH2 0x279 SWAP6 SWAP5 SWAP4 SWAP3 SWAP2 SWAP1 PUSH2 0x4D58 JUMP JUMPDEST PUSH2 0x2D0 PUSH2 0x48E CALLDATASIZE PUSH1 0x4 PUSH2 0x4E69 JUMP JUMPDEST PUSH2 0x177E JUMP JUMPDEST CALLVALUE DUP1 ISZERO PUSH2 0x49E JUMPI PUSH0 DUP1 REVERT JUMPDEST POP PUSH2 0x2D0 PUSH2 0x4AD CALLDATASIZE PUSH1 0x4 PUSH2 0x4D3D JUMP JUMPDEST PUSH2 0x1B12 JUMP JUMPDEST CALLVALUE DUP1 ISZERO PUSH2 0x4BD JUMPI PUSH0 DUP1 REVERT JUMPDEST POP PUSH2 0x2D0 PUSH2 0x1EC1 JUMP JUMPDEST CALLVALUE DUP1 ISZERO PUSH2 0x4D1 JUMPI PUSH0 DUP1 REVERT JUMPDEST POP PUSH1 0x9 SLOAD PUSH2 0x333 SWAP1 PUSH1 0x1 PUSH1 0x1 PUSH1 0xA0 SHL SUB AND DUP2 JUMP JUMPDEST CALLVALUE DUP1 ISZERO PUSH2 0x4F0 JUMPI PUSH0 DUP1 REVERT JUMPDEST POP PUSH2 0x2D0 PUSH2 0x4FF CALLDATASIZE PUSH1 0x4 PUSH2 0x4EDC JUMP JUMPDEST PUSH2 0x1F07 JUMP JUMPDEST CALLVALUE DUP1 ISZERO PUSH2 0x50F JUMPI PUSH0 DUP1 REVERT JUMPDEST POP PUSH2 0x306 PUSH2 0x51E CALLDATASIZE PUSH1 0x4 PUSH2 0x4F36 JUMP JUMPDEST PUSH2 0x1F6D JUMP JUMPDEST CALLVALUE DUP1 ISZERO PUSH2 0x52E JUMPI PUSH0 DUP1 REVERT JUMPDEST POP PUSH0 SLOAD PUSH1 0x1 PUSH1 0xA0 SHL SWAP1 DIV PUSH1 0xFF AND PUSH2 0x2A1 JUMP JUMPDEST CALLVALUE DUP1 ISZERO PUSH2 0x54B JUMPI PUSH0 DUP1 REVERT JUMPDEST POP PUSH2 0x306 PUSH1 0xE SLOAD DUP2 JUMP JUMPDEST CALLVALUE DUP1 ISZERO PUSH2 0x560 JUMPI PUSH0 DUP1 REVERT JUMPDEST POP PUSH2 0x306 PUSH2 0x56F CALLDATASIZE PUSH1 0x4 PUSH2 0x4D3D JUMP JUMPDEST PUSH1 0x1 PUSH1 0x1 PUSH1 0xA0 SHL SUB AND PUSH0 SWAP1 DUP2 MSTORE PUSH1 0x1 PUSH1 0x20 MSTORE PUSH1 0x40 SWAP1 KECCAK256 SLOAD SWAP1 JUMP JUMPDEST CALLVALUE DUP1 ISZERO PUSH2 0x594 JUMPI PUSH0 DUP1 REVERT JUMPDEST POP PUSH2 0x2D0 PUSH2 0x20A1 JUMP JUMPDEST CALLVALUE DUP1 ISZERO PUSH2 0x5A8 JUMPI PUSH0 DUP1 REVERT JUMPDEST POP PUSH2 0x2D0 PUSH2 0x5B7 CALLDATASIZE PUSH1 0x4 PUSH2 0x4F36 JUMP JUMPDEST PUSH2 0x20B4 JUMP JUMPDEST CALLVALUE DUP1 ISZERO PUSH2 0x5C7 JUMPI PUSH0 DUP1 REVERT JUMPDEST POP PUSH2 0x2D0 PUSH2 0x2431 JUMP JUMPDEST CALLVALUE DUP1 ISZERO PUSH2 0x5DB JUMPI PUSH0 DUP1 REVERT JUMPDEST POP PUSH2 0x306 PUSH1 0x12 SLOAD DUP2 JUMP JUMPDEST CALLVALUE DUP1 ISZERO PUSH2 0x5F0 JUMPI PUSH0 DUP1 REVERT JUMPDEST POP PUSH2 0x306 PUSH1 0xF SLOAD DUP2 JUMP JUMPDEST CALLVALUE DUP1 ISZERO PUSH2 0x605 JUMPI PUSH0 DUP1 REVERT JUMPDEST POP PUSH0 SLOAD PUSH1 0x1 PUSH1 0x1 PUSH1 0xA0 SHL SUB AND PUSH2 0x333 JUMP JUMPDEST CALLVALUE DUP1 ISZERO PUSH2 0x621 JUMPI PUSH0 DUP1 REVERT JUMPDEST POP PUSH2 0x635 PUSH2 0x630 CALLDATASIZE PUSH1 0x4 PUSH2 0x4D3D JUMP JUMPDEST PUSH2 0x2471 JUMP JUMPDEST PUSH1 0x40 MLOAD PUSH2 0x279 SWAP2 SWAP1 PUSH2 0x4FCC JUMP JUMPDEST CALLVALUE DUP1 ISZERO PUSH2 0x64D JUMPI PUSH0 DUP1 REVERT JUMPDEST POP PUSH2 0x26C PUSH2 0x2682 JUMP JUMPDEST CALLVALUE DUP1 ISZERO PUSH2 0x661 JUMPI PUSH0 DUP1 REVERT JUMPDEST POP PUSH2 0x2A1 PUSH2 0x670 CALLDATASIZE PUSH1 0x4 PUSH2 0x4D3D JUMP JUMPDEST PUSH1 0xA PUSH1 0x20 MSTORE PUSH0 SWAP1 DUP2 MSTORE PUSH1 0x40 SWAP1 KECCAK256 SLOAD PUSH1 0xFF AND DUP2 JUMP JUMPDEST CALLVALUE DUP1 ISZERO PUSH2 0x68F JUMPI PUSH0 DUP1 REVERT JUMPDEST POP PUSH2 0x2D0 PUSH2 0x69E CALLDATASIZE PUSH1 0x4 PUSH2 0x4D3D JUMP JUMPDEST PUSH2 0x2691 JUMP JUMPDEST CALLVALUE DUP1 ISZERO PUSH2 0x6AE JUMPI PUSH0 DUP1 REVERT JUMPDEST POP PUSH2 0x2A1 PUSH2 0x6BD CALLDATASIZE PUSH1 0x4 PUSH2 0x4C62 JUMP JUMPDEST PUSH2 0x2731 JUMP JUMPDEST CALLVALUE DUP1 ISZERO PUSH2 0x6CD JUMPI PUSH0 DUP1 REVERT JUMPDEST POP PUSH2 0x2D0 PUSH2 0x6DC CALLDATASIZE PUSH1 0x4 PUSH2 0x4E69 JUMP JUMPDEST PUSH2 0x273E JUMP JUMPDEST CALLVALUE DUP1 ISZERO PUSH2 0x6EC JUMPI PUSH0 DUP1 REVERT JUMPDEST POP PUSH2 0x306 PUSH2 0x6FB CALLDATASIZE PUSH1 0x4 PUSH2 0x4D3D JUMP JUMPDEST PUSH1 0xD PUSH1 0x20 MSTORE PUSH0 SWAP1 DUP2 MSTORE PUSH1 0x40 SWAP1 KECCAK256 SLOAD DUP2 JUMP JUMPDEST CALLVALUE DUP1 ISZERO PUSH2 0x717 JUMPI PUSH0 DUP1 REVERT JUMPDEST POP PUSH2 0x306 PUSH1 0x10 SLOAD DUP2 JUMP JUMPDEST PUSH2 0x2D0 PUSH2 0x288B JUMP JUMPDEST CALLVALUE DUP1 ISZERO PUSH2 0x734 JUMPI PUSH0 DUP1 REVERT JUMPDEST POP PUSH2 0x306 PUSH2 0x743 CALLDATASIZE PUSH1 0x4 PUSH2 0x507A JUMP JUMPDEST PUSH1 0x1 PUSH1 0x1 PUSH1 0xA0 SHL SUB SWAP2 DUP3 AND PUSH0 SWAP1 DUP2 MSTORE PUSH1 0x2 PUSH1 0x20 SWAP1 DUP2 MSTORE PUSH1 0x40 DUP1 DUP4 KECCAK256 SWAP4 SWAP1 SWAP5 AND DUP3 MSTORE SWAP2 SWAP1 SWAP2 MSTORE KECCAK256 SLOAD SWAP1 JUMP JUMPDEST CALLVALUE DUP1 ISZERO PUSH2 0x778 JUMPI PUSH0 DUP1 REVERT JUMPDEST POP PUSH2 0x306 PUSH2 0x787 CALLDATASIZE PUSH1 0x4 PUSH2 0x4E69 JUMP JUMPDEST PUSH2 0x2CCB JUMP JUMPDEST CALLVALUE DUP1 ISZERO PUSH2 0x797 JUMPI PUSH0 DUP1 REVERT JUMPDEST POP PUSH2 0x2D0 PUSH2 0x7A6 CALLDATASIZE PUSH1 0x4 PUSH2 0x4D3D JUMP JUMPDEST PUSH2 0x305F JUMP JUMPDEST CALLVALUE DUP1 ISZERO PUSH2 0x7B6 JUMPI PUSH0 DUP1 REVERT JUMPDEST POP PUSH2 0x2D0 PUSH2 0x309C JUMP JUMPDEST PUSH1 0x60 PUSH1 0x4 DUP1 SLOAD PUSH2 0x7CE SWAP1 PUSH2 0x50A6 JUMP JUMPDEST DUP1 PUSH1 0x1F ADD PUSH1 0x20 DUP1 SWAP2 DIV MUL PUSH1 0x20 ADD PUSH1 0x40 MLOAD SWAP1 DUP2 ADD PUSH1 0x40 MSTORE DUP1 SWAP3 SWAP2 SWAP1 DUP2 DUP2 MSTORE PUSH1 0x20 ADD DUP3 DUP1 SLOAD PUSH2 0x7FA SWAP1 PUSH2 0x50A6 JUMP JUMPDEST DUP1 ISZERO PUSH2 0x845 JUMPI DUP1 PUSH1 0x1F LT PUSH2 0x81C JUMPI PUSH2 0x100 DUP1 DUP4 SLOAD DIV MUL DUP4 MSTORE SWAP2 PUSH1 0x20 ADD SWAP2 PUSH2 0x845 JUMP JUMPDEST DUP3 ADD SWAP2 SWAP1 PUSH0 MSTORE PUSH1 0x20 PUSH0 KECCAK256 SWAP1 JUMPDEST DUP2 SLOAD DUP2 MSTORE SWAP1 PUSH1 0x1 ADD SWAP1 PUSH1 0x20 ADD DUP1 DUP4 GT PUSH2 0x828 JUMPI DUP3 SWAP1 SUB PUSH1 0x1F AND DUP3 ADD SWAP2 JUMPDEST POP POP POP POP POP SWAP1 POP SWAP1 JUMP JUMPDEST PUSH0 CALLER PUSH2 0x85C DUP2 DUP6 DUP6 PUSH2 0x3530 JUMP JUMPDEST PUSH1 0x1 SWAP2 POP POP JUMPDEST SWAP3 SWAP2 POP POP JUMP JUMPDEST PUSH2 0x870 PUSH2 0x353D JUMP JUMPDEST PUSH2 0x2710 DUP3 GT ISZERO PUSH2 0x8BD JUMPI PUSH1 0x40 MLOAD PUSH3 0x461BCD PUSH1 0xE5 SHL DUP2 MSTORE PUSH1 0x20 PUSH1 0x4 DUP3 ADD MSTORE PUSH1 0x13 PUSH1 0x24 DUP3 ADD MSTORE PUSH19 0x496E76616C6964206465706F73697420666565 PUSH1 0x68 SHL PUSH1 0x44 DUP3 ADD MSTORE PUSH1 0x64 ADD JUMPDEST PUSH1 0x40 MLOAD DUP1 SWAP2 SUB SWAP1 REVERT JUMPDEST PUSH2 0x2710 DUP2 GT ISZERO PUSH2 0x908 JUMPI PUSH1 0x40 MLOAD PUSH3 0x461BCD PUSH1 0xE5 SHL DUP2 MSTORE PUSH1 0x20 PUSH1 0x4 DUP3 ADD MSTORE PUSH1 0x16 PUSH1 0x24 DUP3 ADD MSTORE PUSH22 0x496E76616C6964207769746864726177616C20666565 PUSH1 0x50 SHL PUSH1 0x44 DUP3 ADD MSTORE PUSH1 0x64 ADD PUSH2 0x8B4 JUMP JUMPDEST PUSH1 0xE SWAP2 SWAP1 SWAP2 SSTORE PUSH1 0xF SSTORE JUMP JUMPDEST PUSH2 0x91B PUSH2 0x353D JUMP JUMPDEST PUSH2 0x2710 DUP2 GT ISZERO PUSH2 0x96D JUMPI PUSH1 0x40 MLOAD PUSH3 0x461BCD PUSH1 0xE5 SHL DUP2 MSTORE PUSH1 0x20 PUSH1 0x4 DUP3 ADD MSTORE PUSH1 0x1A PUSH1 0x24 DUP3 ADD MSTORE PUSH32 0x496E76616C696420736C69707061676520746F6C6572616E6365000000000000 PUSH1 0x44 DUP3 ADD MSTORE PUSH1 0x64 ADD PUSH2 0x8B4 JUMP JUMPDEST PUSH1 0x10 DUP2 SWAP1 SSTORE PUSH1 0x40 MLOAD DUP2 DUP2 MSTORE PUSH32 0xB11632D794D380EF605D18684DAF3AD39BDF07733E9DB37DF5F9F643877265DA SWAP1 PUSH1 0x20 ADD PUSH1 0x40 MLOAD DUP1 SWAP2 SUB SWAP1 LOG1 POP JUMP JUMPDEST PUSH0 CALLER PUSH2 0x9B5 DUP6 DUP3 DUP6 PUSH2 0x3569 JUMP JUMPDEST PUSH2 0x9C0 DUP6 DUP6 DUP6 PUSH2 0x35DE JUMP JUMPDEST POP PUSH1 0x1 SWAP5 SWAP4 POP POP POP POP JUMP JUMPDEST PUSH2 0x9D3 PUSH2 0x363B JUMP JUMPDEST PUSH0 DUP2 GT PUSH2 0x9F2 JUMPI PUSH1 0x40 MLOAD PUSH3 0x461BCD PUSH1 0xE5 SHL DUP2 MSTORE PUSH1 0x4 ADD PUSH2 0x8B4 SWAP1 PUSH2 0x50DE JUMP JUMPDEST PUSH1 0x40 MLOAD PUSH4 0x70A08231 PUSH1 0xE0 SHL DUP2 MSTORE CALLER PUSH1 0x4 DUP3 ADD MSTORE DUP2 SWAP1 ADDRESS SWAP1 PUSH4 0x70A08231 SWAP1 PUSH1 0x24 ADD PUSH1 0x20 PUSH1 0x40 MLOAD DUP1 DUP4 SUB DUP2 DUP7 GAS STATICCALL ISZERO DUP1 ISZERO PUSH2 0xA2D JUMPI RETURNDATASIZE PUSH0 DUP1 RETURNDATACOPY RETURNDATASIZE PUSH0 REVERT JUMPDEST POP POP POP POP PUSH1 0x40 MLOAD RETURNDATASIZE PUSH1 0x1F NOT PUSH1 0x1F DUP3 ADD AND DUP3 ADD DUP1 PUSH1 0x40 MSTORE POP DUP2 ADD SWAP1 PUSH2 0xA51 SWAP2 SWAP1 PUSH2 0x5113 JUMP JUMPDEST LT ISZERO PUSH2 0xA96 JUMPI PUSH1 0x40 MLOAD PUSH3 0x461BCD PUSH1 0xE5 SHL DUP2 MSTORE PUSH1 0x20 PUSH1 0x4 DUP3 ADD MSTORE PUSH1 0x14 PUSH1 0x24 DUP3 ADD MSTORE PUSH20 0x496E73756666696369656E742062616C616E6365 PUSH1 0x60 SHL PUSH1 0x44 DUP3 ADD MSTORE PUSH1 0x64 ADD PUSH2 0x8B4 JUMP JUMPDEST PUSH0 PUSH2 0xAA0 PUSH1 0x3 SLOAD SWAP1 JUMP JUMPDEST PUSH2 0xAAC DUP4 PUSH2 0x2710 PUSH2 0x513E JUMP JUMPDEST PUSH2 0xAB6 SWAP2 SWAP1 PUSH2 0x5155 JUMP JUMPDEST SWAP1 POP PUSH0 DUP2 GT DUP1 ISZERO PUSH2 0xAC9 JUMPI POP PUSH2 0x2710 DUP2 GT ISZERO JUMPDEST PUSH2 0xAE5 JUMPI PUSH1 0x40 MLOAD PUSH3 0x461BCD PUSH1 0xE5 SHL DUP2 MSTORE PUSH1 0x4 ADD PUSH2 0x8B4 SWAP1 PUSH2 0x5174 JUMP JUMPDEST PUSH0 PUSH2 0x2710 DUP3 PUSH2 0xAF3 PUSH1 0x3 SLOAD SWAP1 JUMP JUMPDEST PUSH2 0xAFD SWAP2 SWAP1 PUSH2 0x513E JUMP JUMPDEST PUSH2 0xB07 SWAP2 SWAP1 PUSH2 0x5155 JUMP JUMPDEST SWAP1 POP PUSH0 DUP2 GT PUSH2 0xB28 JUMPI PUSH1 0x40 MLOAD PUSH3 0x461BCD PUSH1 0xE5 SHL DUP2 MSTORE PUSH1 0x4 ADD PUSH2 0x8B4 SWAP1 PUSH2 0x50DE JUMP JUMPDEST PUSH2 0xB32 CALLER DUP5 PUSH2 0x3665 JUMP JUMPDEST PUSH0 DUP1 JUMPDEST PUSH1 0x6 SLOAD DUP2 LT ISZERO PUSH2 0xCBA JUMPI PUSH0 PUSH1 0x6 DUP3 DUP2 SLOAD DUP2 LT PUSH2 0xB53 JUMPI PUSH2 0xB53 PUSH2 0x51BA JUMP JUMPDEST SWAP1 PUSH0 MSTORE PUSH1 0x20 PUSH0 KECCAK256 SWAP1 PUSH1 0x4 MUL ADD SWAP1 POP PUSH0 PUSH2 0xB6B PUSH1 0x3 SLOAD SWAP1 JUMP JUMPDEST DUP3 SLOAD PUSH1 0x40 MLOAD PUSH4 0x70A08231 PUSH1 0xE0 SHL DUP2 MSTORE ADDRESS PUSH1 0x4 DUP3 ADD MSTORE DUP8 SWAP2 PUSH1 0x1 PUSH1 0x1 PUSH1 0xA0 SHL SUB AND SWAP1 PUSH4 0x70A08231 SWAP1 PUSH1 0x24 ADD PUSH1 0x20 PUSH1 0x40 MLOAD DUP1 DUP4 SUB DUP2 DUP7 GAS STATICCALL ISZERO DUP1 ISZERO PUSH2 0xBB0 JUMPI RETURNDATASIZE PUSH0 DUP1 RETURNDATACOPY RETURNDATASIZE PUSH0 REVERT JUMPDEST POP POP POP POP PUSH1 0x40 MLOAD RETURNDATASIZE PUSH1 0x1F NOT PUSH1 0x1F DUP3 ADD AND DUP3 ADD DUP1 PUSH1 0x40 MSTORE POP DUP2 ADD SWAP1 PUSH2 0xBD4 SWAP2 SWAP1 PUSH2 0x5113 JUMP JUMPDEST PUSH2 0xBDE SWAP2 SWAP1 PUSH2 0x513E JUMP JUMPDEST PUSH2 0xBE8 SWAP2 SWAP1 PUSH2 0x5155 JUMP JUMPDEST SWAP1 POP PUSH0 PUSH2 0x2710 PUSH1 0xF SLOAD DUP4 PUSH2 0xBFC SWAP2 SWAP1 PUSH2 0x513E JUMP JUMPDEST PUSH2 0xC06 SWAP2 SWAP1 PUSH2 0x5155 JUMP JUMPDEST SWAP1 POP PUSH0 PUSH2 0xC13 DUP3 DUP5 PUSH2 0x51CE JUMP JUMPDEST DUP5 SLOAD PUSH1 0x3 DUP7 ADD SLOAD PUSH1 0x40 MLOAD PUSH4 0xE7AE65AB PUSH1 0xE0 SHL DUP2 MSTORE SWAP3 SWAP4 POP PUSH0 SWAP3 ADDRESS SWAP3 PUSH4 0xE7AE65AB SWAP3 PUSH2 0xC5B SWAP3 PUSH1 0x1 PUSH1 0x1 PUSH1 0xA0 SHL SUB SWAP1 SWAP3 AND SWAP2 DUP8 SWAP2 PUSH1 0x2 DUP13 ADD SWAP2 PUSH3 0xFFFFFF SWAP1 SWAP2 AND SWAP1 PUSH1 0x4 ADD PUSH2 0x5260 JUMP JUMPDEST PUSH1 0x20 PUSH1 0x40 MLOAD DUP1 DUP4 SUB DUP2 PUSH0 DUP8 GAS CALL ISZERO DUP1 ISZERO PUSH2 0xC77 JUMPI RETURNDATASIZE PUSH0 DUP1 RETURNDATACOPY RETURNDATASIZE PUSH0 REVERT JUMPDEST POP POP POP POP PUSH1 0x40 MLOAD RETURNDATASIZE PUSH1 0x1F NOT PUSH1 0x1F DUP3 ADD AND DUP3 ADD DUP1 PUSH1 0x40 MSTORE POP DUP2 ADD SWAP1 PUSH2 0xC9B SWAP2 SWAP1 PUSH2 0x5113 JUMP JUMPDEST SWAP1 POP PUSH2 0xCA7 DUP2 DUP9 PUSH2 0x5286 JUMP JUMPDEST SWAP7 POP POP PUSH1 0x1 SWAP1 SWAP5 ADD SWAP4 POP PUSH2 0xB35 SWAP3 POP POP POP JUMP JUMPDEST POP PUSH0 PUSH2 0x2710 PUSH1 0xF SLOAD DUP4 PUSH2 0xCCD SWAP2 SWAP1 PUSH2 0x513E JUMP JUMPDEST PUSH2 0xCD7 SWAP2 SWAP1 PUSH2 0x5155 JUMP JUMPDEST SWAP1 POP PUSH0 PUSH2 0xCE4 DUP3 DUP5 PUSH2 0x51CE JUMP JUMPDEST SWAP1 POP DUP2 PUSH1 0x11 PUSH0 DUP3 DUP3 SLOAD PUSH2 0xCF7 SWAP2 SWAP1 PUSH2 0x5286 JUMP JUMPDEST SWAP1 SWAP2 SSTORE POP POP CALLER PUSH0 SWAP1 DUP2 MSTORE PUSH1 0xD PUSH1 0x20 MSTORE PUSH1 0x40 DUP2 KECCAK256 SLOAD SWAP1 PUSH2 0xD16 DUP4 DUP4 PUSH2 0x5286 JUMP JUMPDEST PUSH1 0x40 MLOAD SWAP1 SWAP2 POP PUSH0 SWAP1 CALLER SWAP1 DUP4 SWAP1 DUP4 DUP2 DUP2 DUP2 DUP6 DUP8 GAS CALL SWAP3 POP POP POP RETURNDATASIZE DUP1 PUSH0 DUP2 EQ PUSH2 0xD58 JUMPI PUSH1 0x40 MLOAD SWAP2 POP PUSH1 0x1F NOT PUSH1 0x3F RETURNDATASIZE ADD AND DUP3 ADD PUSH1 0x40 MSTORE RETURNDATASIZE DUP3 MSTORE RETURNDATASIZE PUSH0 PUSH1 0x20 DUP5 ADD RETURNDATACOPY PUSH2 0xD5D JUMP JUMPDEST PUSH1 0x60 SWAP2 POP JUMPDEST POP POP SWAP1 POP DUP1 PUSH2 0xDA4 JUMPI PUSH1 0x40 MLOAD PUSH3 0x461BCD PUSH1 0xE5 SHL DUP2 MSTORE PUSH1 0x20 PUSH1 0x4 DUP3 ADD MSTORE PUSH1 0x13 PUSH1 0x24 DUP3 ADD MSTORE PUSH19 0x115512081D1C985B9CD9995C8819985A5B1959 PUSH1 0x6A SHL PUSH1 0x44 DUP3 ADD MSTORE PUSH1 0x64 ADD PUSH2 0x8B4 JUMP JUMPDEST PUSH1 0x40 DUP1 MLOAD DUP8 DUP2 MSTORE PUSH1 0x20 DUP2 ADD DUP10 SWAP1 MSTORE CALLER SWAP2 PUSH32 0x92CCF450A286A957AF52509BC1C9939D1A6A481783E142E41E2499F0BB66EBC6 SWAP2 ADD PUSH1 0x40 MLOAD DUP1 SWAP2 SUB SWAP1 LOG2 POP POP POP POP POP POP POP POP POP JUMP JUMPDEST PUSH2 0xDF2 PUSH2 0x363B JUMP JUMPDEST PUSH0 DUP2 GT PUSH2 0xE11 JUMPI PUSH1 0x40 MLOAD PUSH3 0x461BCD PUSH1 0xE5 SHL DUP2 MSTORE PUSH1 0x4 ADD PUSH2 0x8B4 SWAP1 PUSH2 0x50DE JUMP JUMPDEST PUSH1 0x40 MLOAD PUSH4 0x70A08231 PUSH1 0xE0 SHL DUP2 MSTORE CALLER PUSH1 0x4 DUP3 ADD MSTORE DUP2 SWAP1 ADDRESS SWAP1 PUSH4 0x70A08231 SWAP1 PUSH1 0x24 ADD PUSH1 0x20 PUSH1 0x40 MLOAD DUP1 DUP4 SUB DUP2 DUP7 GAS STATICCALL ISZERO DUP1 ISZERO PUSH2 0xE4C JUMPI RETURNDATASIZE PUSH0 DUP1 RETURNDATACOPY RETURNDATASIZE PUSH0 REVERT JUMPDEST POP POP POP POP PUSH1 0x40 MLOAD RETURNDATASIZE PUSH1 0x1F NOT PUSH1 0x1F DUP3 ADD AND DUP3 ADD DUP1 PUSH1 0x40 MSTORE POP DUP2 ADD SWAP1 PUSH2 0xE70 SWAP2 SWAP1 PUSH2 0x5113 JUMP JUMPDEST LT ISZERO PUSH2 0xEB5 JUMPI PUSH1 0x40 MLOAD PUSH3 0x461BCD PUSH1 0xE5 SHL DUP2 MSTORE PUSH1 0x20 PUSH1 0x4 DUP3 ADD MSTORE PUSH1 0x14 PUSH1 0x24 DUP3 ADD MSTORE PUSH20 0x496E73756666696369656E742062616C616E6365 PUSH1 0x60 SHL PUSH1 0x44 DUP3 ADD MSTORE PUSH1 0x64 ADD PUSH2 0x8B4 JUMP JUMPDEST PUSH0 PUSH2 0xEBF PUSH1 0x3 SLOAD SWAP1 JUMP JUMPDEST PUSH2 0xECB DUP4 PUSH2 0x2710 PUSH2 0x513E JUMP JUMPDEST PUSH2 0xED5 SWAP2 SWAP1 PUSH2 0x5155 JUMP JUMPDEST SWAP1 POP PUSH0 DUP2 GT DUP1 ISZERO PUSH2 0xEE8 JUMPI POP PUSH2 0x2710 DUP2 GT ISZERO JUMPDEST PUSH2 0xF04 JUMPI PUSH1 0x40 MLOAD PUSH3 0x461BCD PUSH1 0xE5 SHL DUP2 MSTORE PUSH1 0x4 ADD PUSH2 0x8B4 SWAP1 PUSH2 0x5174 JUMP JUMPDEST PUSH0 PUSH2 0x2710 DUP3 PUSH2 0xF12 PUSH1 0x3 SLOAD SWAP1 JUMP JUMPDEST PUSH2 0xF1C SWAP2 SWAP1 PUSH2 0x513E JUMP JUMPDEST PUSH2 0xF26 SWAP2 SWAP1 PUSH2 0x5155 JUMP JUMPDEST SWAP1 POP PUSH0 DUP2 GT PUSH2 0xF47 JUMPI PUSH1 0x40 MLOAD PUSH3 0x461BCD PUSH1 0xE5 SHL DUP2 MSTORE PUSH1 0x4 ADD PUSH2 0x8B4 SWAP1 PUSH2 0x50DE JUMP JUMPDEST PUSH2 0xF51 CALLER DUP5 PUSH2 0x3665 JUMP JUMPDEST PUSH0 JUMPDEST PUSH1 0x6 SLOAD DUP2 LT ISZERO PUSH2 0x14D6 JUMPI PUSH0 PUSH1 0x6 DUP3 DUP2 SLOAD DUP2 LT PUSH2 0xF71 JUMPI PUSH2 0xF71 PUSH2 0x51BA JUMP JUMPDEST SWAP1 PUSH0 MSTORE PUSH1 0x20 PUSH0 KECCAK256 SWAP1 PUSH1 0x4 MUL ADD SWAP1 POP PUSH0 PUSH2 0xF89 PUSH1 0x3 SLOAD SWAP1 JUMP JUMPDEST DUP3 SLOAD PUSH1 0x40 MLOAD PUSH4 0x70A08231 PUSH1 0xE0 SHL DUP2 MSTORE ADDRESS PUSH1 0x4 DUP3 ADD MSTORE DUP7 SWAP2 PUSH1 0x1 PUSH1 0x1 PUSH1 0xA0 SHL SUB AND SWAP1 PUSH4 0x70A08231 SWAP1 PUSH1 0x24 ADD PUSH1 0x20 PUSH1 0x40 MLOAD DUP1 DUP4 SUB DUP2 DUP7 GAS STATICCALL ISZERO DUP1 ISZERO PUSH2 0xFCE JUMPI RETURNDATASIZE PUSH0 DUP1 RETURNDATACOPY RETURNDATASIZE PUSH0 REVERT JUMPDEST POP POP POP POP PUSH1 0x40 MLOAD RETURNDATASIZE PUSH1 0x1F NOT PUSH1 0x1F DUP3 ADD AND DUP3 ADD DUP1 PUSH1 0x40 MSTORE POP DUP2 ADD SWAP1 PUSH2 0xFF2 SWAP2 SWAP1 PUSH2 0x5113 JUMP JUMPDEST PUSH2 0xFFC SWAP2 SWAP1 PUSH2 0x513E JUMP JUMPDEST PUSH2 0x1006 SWAP2 SWAP1 PUSH2 0x5155 JUMP JUMPDEST SWAP1 POP PUSH0 PUSH2 0x2710 PUSH1 0xF SLOAD DUP4 PUSH2 0x101A SWAP2 SWAP1 PUSH2 0x513E JUMP JUMPDEST PUSH2 0x1024 SWAP2 SWAP1 PUSH2 0x5155 JUMP JUMPDEST SWAP1 POP PUSH0 PUSH2 0x1031 DUP3 DUP5 PUSH2 0x51CE JUMP JUMPDEST DUP5 SLOAD PUSH1 0x40 MLOAD PUSH4 0xA9059CBB PUSH1 0xE0 SHL DUP2 MSTORE CALLER PUSH1 0x4 DUP3 ADD MSTORE PUSH1 0x24 DUP2 ADD DUP4 SWAP1 MSTORE SWAP2 SWAP3 POP PUSH1 0x1 PUSH1 0x1 PUSH1 0xA0 SHL SUB AND SWAP1 PUSH4 0xA9059CBB SWAP1 PUSH1 0x44 ADD PUSH1 0x20 PUSH1 0x40 MLOAD DUP1 DUP4 SUB DUP2 PUSH0 DUP8 GAS CALL ISZERO DUP1 ISZERO PUSH2 0x107F JUMPI RETURNDATASIZE PUSH0 DUP1 RETURNDATACOPY RETURNDATASIZE PUSH0 REVERT JUMPDEST POP POP POP POP PUSH1 0x40 MLOAD RETURNDATASIZE PUSH1 0x1F NOT PUSH1 0x1F DUP3 ADD AND DUP3 ADD DUP1 PUSH1 0x40 MSTORE POP DUP2 ADD SWAP1 PUSH2 0x10A3 SWAP2 SWAP1 PUSH2 0x5299 JUMP JUMPDEST POP PUSH1 0x40 MLOAD PUSH1 0x20 ADD PUSH2 0x10B3 SWAP1 PUSH2 0x52B4 JUMP JUMPDEST PUSH1 0x40 MLOAD PUSH1 0x20 DUP2 DUP4 SUB SUB DUP2 MSTORE SWAP1 PUSH1 0x40 MSTORE DUP1 MLOAD SWAP1 PUSH1 0x20 ADD KECCAK256 DUP5 PUSH1 0x2 ADD PUSH1 0x40 MLOAD PUSH1 0x20 ADD PUSH2 0x10DD SWAP2 SWAP1 PUSH2 0x52C2 JUMP JUMPDEST PUSH1 0x40 MLOAD PUSH1 0x20 DUP2 DUP4 SUB SUB DUP2 MSTORE SWAP1 PUSH1 0x40 MSTORE DUP1 MLOAD SWAP1 PUSH1 0x20 ADD KECCAK256 SUB PUSH2 0x12C5 JUMPI PUSH1 0x40 DUP1 MLOAD PUSH1 0x2 DUP1 DUP3 MSTORE PUSH1 0x60 DUP3 ADD DUP4 MSTORE PUSH0 SWAP3 PUSH1 0x20 DUP4 ADD SWAP1 DUP1 CALLDATASIZE DUP4 CALLDATACOPY POP POP DUP7 SLOAD DUP3 MLOAD SWAP3 SWAP4 POP PUSH1 0x1 PUSH1 0x1 PUSH1 0xA0 SHL SUB AND SWAP2 DUP4 SWAP2 POP PUSH0 SWAP1 PUSH2 0x1136 JUMPI PUSH2 0x1136 PUSH2 0x51BA JUMP JUMPDEST PUSH1 0x1 PUSH1 0x1 PUSH1 0xA0 SHL SUB SWAP3 DUP4 AND PUSH1 0x20 SWAP2 DUP3 MUL SWAP3 SWAP1 SWAP3 ADD DUP2 ADD SWAP2 SWAP1 SWAP2 MSTORE PUSH1 0x7 SLOAD PUSH1 0x40 DUP1 MLOAD PUSH4 0x15AB88C9 PUSH1 0xE3 SHL DUP2 MSTORE SWAP1 MLOAD SWAP2 SWAP1 SWAP4 AND SWAP3 PUSH4 0xAD5C4648 SWAP3 PUSH1 0x4 DUP1 DUP4 ADD SWAP4 SWAP2 SWAP3 DUP3 SWAP1 SUB ADD DUP2 DUP7 GAS STATICCALL ISZERO DUP1 ISZERO PUSH2 0x118D JUMPI RETURNDATASIZE PUSH0 DUP1 RETURNDATACOPY RETURNDATASIZE PUSH0 REVERT JUMPDEST POP POP POP POP PUSH1 0x40 MLOAD RETURNDATASIZE PUSH1 0x1F NOT PUSH1 0x1F DUP3 ADD AND DUP3 ADD DUP1 PUSH1 0x40 MSTORE POP DUP2 ADD SWAP1 PUSH2 0x11B1 SWAP2 SWAP1 PUSH2 0x5333 JUMP JUMPDEST DUP2 PUSH1 0x1 DUP2 MLOAD DUP2 LT PUSH2 0x11C4 JUMPI PUSH2 0x11C4 PUSH2 0x51BA JUMP JUMPDEST PUSH1 0x1 PUSH1 0x1 PUSH1 0xA0 SHL SUB SWAP3 DUP4 AND PUSH1 0x20 SWAP2 DUP3 MUL SWAP3 SWAP1 SWAP3 ADD ADD MSTORE PUSH1 0x7 SLOAD PUSH1 0x40 MLOAD PUSH4 0xD06CA61F PUSH1 0xE0 SHL DUP2 MSTORE PUSH0 SWAP3 SWAP2 SWAP1 SWAP2 AND SWAP1 PUSH4 0xD06CA61F SWAP1 PUSH2 0x1207 SWAP1 DUP8 SWAP1 DUP7 SWAP1 PUSH1 0x4 ADD PUSH2 0x5391 JUMP JUMPDEST PUSH0 PUSH1 0x40 MLOAD DUP1 DUP4 SUB DUP2 DUP7 GAS STATICCALL ISZERO DUP1 ISZERO PUSH2 0x1221 JUMPI RETURNDATASIZE PUSH0 DUP1 RETURNDATACOPY RETURNDATASIZE PUSH0 REVERT JUMPDEST POP POP POP POP PUSH1 0x40 MLOAD RETURNDATASIZE PUSH0 DUP3 RETURNDATACOPY PUSH1 0x1F RETURNDATASIZE SWAP1 DUP2 ADD PUSH1 0x1F NOT AND DUP3 ADD PUSH1 0x40 MSTORE PUSH2 0x1248 SWAP2 SWAP1 DUP2 ADD SWAP1 PUSH2 0x53A9 JUMP JUMPDEST SWAP1 POP PUSH0 PUSH2 0x2710 PUSH1 0x10 SLOAD PUSH2 0x2710 PUSH2 0x125E SWAP2 SWAP1 PUSH2 0x51CE JUMP JUMPDEST DUP4 PUSH1 0x1 DUP2 MLOAD DUP2 LT PUSH2 0x1271 JUMPI PUSH2 0x1271 PUSH2 0x51BA JUMP JUMPDEST PUSH1 0x20 MUL PUSH1 0x20 ADD ADD MLOAD PUSH2 0x1283 SWAP2 SWAP1 PUSH2 0x513E JUMP JUMPDEST PUSH2 0x128D SWAP2 SWAP1 PUSH2 0x5155 JUMP JUMPDEST DUP8 SLOAD SWAP1 SWAP2 POP PUSH2 0x12A7 SWAP1 PUSH1 0x1 PUSH1 0x1 PUSH1 0xA0 SHL SUB AND DUP7 DUP4 ADDRESS PUSH2 0x3699 JUMP JUMPDEST PUSH1 0x11 PUSH0 DUP3 DUP3 SLOAD PUSH2 0x12B7 SWAP2 SWAP1 PUSH2 0x5286 JUMP JUMPDEST SWAP1 SWAP2 SSTORE POP PUSH2 0x14C6 SWAP4 POP POP POP POP JUMP JUMPDEST PUSH1 0x40 MLOAD PUSH1 0x20 ADD PUSH2 0x12D4 SWAP1 PUSH2 0x5430 JUMP JUMPDEST PUSH1 0x40 MLOAD PUSH1 0x20 DUP2 DUP4 SUB SUB DUP2 MSTORE SWAP1 PUSH1 0x40 MSTORE DUP1 MLOAD SWAP1 PUSH1 0x20 ADD KECCAK256 DUP5 PUSH1 0x2 ADD PUSH1 0x40 MLOAD PUSH1 0x20 ADD PUSH2 0x12FE SWAP2 SWAP1 PUSH2 0x52C2 JUMP JUMPDEST PUSH1 0x40 MLOAD PUSH1 0x20 DUP2 DUP4 SUB SUB DUP2 MSTORE SWAP1 PUSH1 0x40 MSTORE DUP1 MLOAD SWAP1 PUSH1 0x20 ADD KECCAK256 SUB PUSH2 0x147E JUMPI DUP4 SLOAD PUSH1 0x3 DUP6 ADD SLOAD PUSH1 0x7 SLOAD PUSH1 0x40 DUP1 MLOAD PUSH4 0x15AB88C9 PUSH1 0xE3 SHL DUP2 MSTORE SWAP1 MLOAD PUSH0 SWAP5 PUSH1 0x1 PUSH1 0x1 PUSH1 0xA0 SHL SUB SWAP1 DUP2 AND SWAP5 PUSH3 0xFFFFFF AND SWAP4 AND SWAP2 PUSH4 0xAD5C4648 SWAP2 PUSH1 0x4 DUP1 DUP4 ADD SWAP3 PUSH1 0x20 SWAP3 SWAP2 SWAP1 DUP3 SWAP1 SUB ADD DUP2 DUP7 GAS STATICCALL ISZERO DUP1 ISZERO PUSH2 0x1371 JUMPI RETURNDATASIZE PUSH0 DUP1 RETURNDATACOPY RETURNDATASIZE PUSH0 REVERT JUMPDEST POP POP POP POP PUSH1 0x40 MLOAD RETURNDATASIZE PUSH1 0x1F NOT PUSH1 0x1F DUP3 ADD AND DUP3 ADD DUP1 PUSH1 0x40 MSTORE POP DUP2 ADD SWAP1 PUSH2 0x1395 SWAP2 SWAP1 PUSH2 0x5333 JUMP JUMPDEST PUSH1 0x40 MLOAD PUSH1 0x20 ADD PUSH2 0x13A7 SWAP4 SWAP3 SWAP2 SWAP1 PUSH2 0x543E JUMP JUMPDEST PUSH1 0x40 DUP1 MLOAD PUSH1 0x1F NOT DUP2 DUP5 SUB ADD DUP2 MSTORE SWAP1 DUP3 SWAP1 MSTORE PUSH1 0x9 SLOAD PUSH4 0xCDCA1753 PUSH1 0xE0 SHL DUP4 MSTORE SWAP1 SWAP3 POP PUSH0 SWAP2 PUSH1 0x1 PUSH1 0x1 PUSH1 0xA0 SHL SUB SWAP1 SWAP2 AND SWAP1 PUSH4 0xCDCA1753 SWAP1 PUSH2 0x13EC SWAP1 DUP6 SWAP1 DUP9 SWAP1 PUSH1 0x4 ADD PUSH2 0x5479 JUMP JUMPDEST PUSH1 0x20 PUSH1 0x40 MLOAD DUP1 DUP4 SUB DUP2 PUSH0 DUP8 GAS CALL ISZERO DUP1 ISZERO PUSH2 0x1408 JUMPI RETURNDATASIZE PUSH0 DUP1 RETURNDATACOPY RETURNDATASIZE PUSH0 REVERT JUMPDEST POP POP POP POP PUSH1 0x40 MLOAD RETURNDATASIZE PUSH1 0x1F NOT PUSH1 0x1F DUP3 ADD AND DUP3 ADD DUP1 PUSH1 0x40 MSTORE POP DUP2 ADD SWAP1 PUSH2 0x142C SWAP2 SWAP1 PUSH2 0x5113 JUMP JUMPDEST SWAP1 POP PUSH0 PUSH2 0x2710 PUSH1 0x10 SLOAD PUSH2 0x2710 PUSH2 0x1442 SWAP2 SWAP1 PUSH2 0x51CE JUMP JUMPDEST PUSH2 0x144C SWAP1 DUP5 PUSH2 0x513E JUMP JUMPDEST PUSH2 0x1456 SWAP2 SWAP1 PUSH2 0x5155 JUMP JUMPDEST DUP8 SLOAD PUSH1 0x3 DUP10 ADD SLOAD SWAP2 SWAP3 POP PUSH2 0x12A7 SWAP2 PUSH1 0x1 PUSH1 0x1 PUSH1 0xA0 SHL SUB SWAP1 SWAP2 AND SWAP1 DUP8 SWAP1 PUSH3 0xFFFFFF AND DUP5 ADDRESS PUSH2 0x3884 JUMP JUMPDEST PUSH1 0x40 MLOAD PUSH3 0x461BCD PUSH1 0xE5 SHL DUP2 MSTORE PUSH1 0x20 PUSH1 0x4 DUP3 ADD MSTORE PUSH1 0x17 PUSH1 0x24 DUP3 ADD MSTORE PUSH32 0x496E76616C696420556E69737761702076657273696F6E000000000000000000 PUSH1 0x44 DUP3 ADD MSTORE PUSH1 0x64 ADD PUSH2 0x8B4 JUMP JUMPDEST POP POP PUSH1 0x1 SWAP1 SWAP3 ADD SWAP2 POP PUSH2 0xF53 SWAP1 POP JUMP JUMPDEST POP CALLER PUSH0 SWAP1 DUP2 MSTORE PUSH1 0xD PUSH1 0x20 MSTORE PUSH1 0x40 DUP2 KECCAK256 SLOAD PUSH2 0x2710 SWAP1 PUSH2 0x14F5 SWAP1 DUP6 SWAP1 PUSH2 0x513E JUMP JUMPDEST PUSH2 0x14FF SWAP2 SWAP1 PUSH2 0x5155 JUMP JUMPDEST PUSH1 0x40 MLOAD SWAP1 SWAP2 POP DUP2 SWAP1 PUSH0 SWAP1 CALLER SWAP1 DUP4 SWAP1 DUP4 DUP2 DUP2 DUP2 DUP6 DUP8 GAS CALL SWAP3 POP POP POP RETURNDATASIZE DUP1 PUSH0 DUP2 EQ PUSH2 0x1543 JUMPI PUSH1 0x40 MLOAD SWAP2 POP PUSH1 0x1F NOT PUSH1 0x3F RETURNDATASIZE ADD AND DUP3 ADD PUSH1 0x40 MSTORE RETURNDATASIZE DUP3 MSTORE RETURNDATASIZE PUSH0 PUSH1 0x20 DUP5 ADD RETURNDATACOPY PUSH2 0x1548 JUMP JUMPDEST PUSH1 0x60 SWAP2 POP JUMPDEST POP POP SWAP1 POP DUP1 PUSH2 0x1590 JUMPI PUSH1 0x40 MLOAD PUSH3 0x461BCD PUSH1 0xE5 SHL DUP2 MSTORE PUSH1 0x20 PUSH1 0x4 DUP3 ADD MSTORE PUSH1 0x14 PUSH1 0x24 DUP3 ADD MSTORE PUSH20 0x1D1C985B9CD9995C881DDA5B1B081C995D995C9D PUSH1 0x62 SHL PUSH1 0x44 DUP3 ADD MSTORE PUSH1 0x64 ADD PUSH2 0x8B4 JUMP JUMPDEST PUSH1 0x40 DUP1 MLOAD DUP7 DUP2 MSTORE PUSH1 0x20 DUP2 ADD DUP7 SWAP1 MSTORE CALLER SWAP2 PUSH32 0x92CCF450A286A957AF52509BC1C9939D1A6A481783E142E41E2499F0BB66EBC6 SWAP2 ADD PUSH1 0x40 MLOAD DUP1 SWAP2 SUB SWAP1 LOG2 POP POP POP POP POP POP JUMP JUMPDEST PUSH1 0x6 DUP2 DUP2 SLOAD DUP2 LT PUSH2 0x15E2 JUMPI PUSH0 DUP1 REVERT JUMPDEST PUSH0 SWAP2 DUP3 MSTORE PUSH1 0x20 SWAP1 SWAP2 KECCAK256 PUSH1 0x4 SWAP1 SWAP2 MUL ADD DUP1 SLOAD PUSH1 0x1 DUP3 ADD SLOAD PUSH1 0x2 DUP4 ADD DUP1 SLOAD PUSH1 0x1 PUSH1 0x1 PUSH1 0xA0 SHL SUB SWAP1 SWAP4 AND SWAP5 POP SWAP1 SWAP3 SWAP2 PUSH2 0x1617 SWAP1 PUSH2 0x50A6 JUMP JUMPDEST DUP1 PUSH1 0x1F ADD PUSH1 0x20 DUP1 SWAP2 DIV MUL PUSH1 0x20 ADD PUSH1 0x40 MLOAD SWAP1 DUP2 ADD PUSH1 0x40 MSTORE DUP1 SWAP3 SWAP2 SWAP1 DUP2 DUP2 MSTORE PUSH1 0x20 ADD DUP3 DUP1 SLOAD PUSH2 0x1643 SWAP1 PUSH2 0x50A6 JUMP JUMPDEST DUP1 ISZERO PUSH2 0x168E JUMPI DUP1 PUSH1 0x1F LT PUSH2 0x1665 JUMPI PUSH2 0x100 DUP1 DUP4 SLOAD DIV MUL DUP4 MSTORE SWAP2 PUSH1 0x20 ADD SWAP2 PUSH2 0x168E JUMP JUMPDEST DUP3 ADD SWAP2 SWAP1 PUSH0 MSTORE PUSH1 0x20 PUSH0 KECCAK256 SWAP1 JUMPDEST DUP2 SLOAD DUP2 MSTORE SWAP1 PUSH1 0x1 ADD SWAP1 PUSH1 0x20 ADD DUP1 DUP4 GT PUSH2 0x1671 JUMPI DUP3 SWAP1 SUB PUSH1 0x1F AND DUP3 ADD SWAP2 JUMPDEST POP POP POP PUSH1 0x3 SWAP1 SWAP4 ADD SLOAD SWAP2 SWAP3 POP POP PUSH3 0xFFFFFF AND DUP5 JUMP JUMPDEST PUSH1 0xB DUP2 DUP2 SLOAD DUP2 LT PUSH2 0x16B2 JUMPI PUSH0 DUP1 REVERT JUMPDEST PUSH0 SWAP2 DUP3 MSTORE PUSH1 0x20 SWAP1 SWAP2 KECCAK256 PUSH1 0x5 SWAP1 SWAP2 MUL ADD DUP1 SLOAD PUSH1 0x1 DUP3 ADD SLOAD PUSH1 0x2 DUP4 ADD SLOAD PUSH1 0x3 DUP5 ADD DUP1 SLOAD PUSH1 0x1 PUSH1 0x1 PUSH1 0xA0 SHL SUB SWAP5 DUP6 AND SWAP7 POP SWAP3 SWAP1 SWAP4 AND SWAP4 SWAP1 SWAP3 SWAP1 SWAP2 PUSH2 0x16F2 SWAP1 PUSH2 0x50A6 JUMP JUMPDEST DUP1 PUSH1 0x1F ADD PUSH1 0x20 DUP1 SWAP2 DIV MUL PUSH1 0x20 ADD PUSH1 0x40 MLOAD SWAP1 DUP2 ADD PUSH1 0x40 MSTORE DUP1 SWAP3 SWAP2 SWAP1 DUP2 DUP2 MSTORE PUSH1 0x20 ADD DUP3 DUP1 SLOAD PUSH2 0x171E SWAP1 PUSH2 0x50A6 JUMP JUMPDEST DUP1 ISZERO PUSH2 0x1769 JUMPI DUP1 PUSH1 0x1F LT PUSH2 0x1740 JUMPI PUSH2 0x100 DUP1 DUP4 SLOAD DIV MUL DUP4 MSTORE SWAP2 PUSH1 0x20 ADD SWAP2 PUSH2 0x1769 JUMP JUMPDEST DUP3 ADD SWAP2 SWAP1 PUSH0 MSTORE PUSH1 0x20 PUSH0 KECCAK256 SWAP1 JUMPDEST DUP2 SLOAD DUP2 MSTORE SWAP1 PUSH1 0x1 ADD SWAP1 PUSH1 0x20 ADD DUP1 DUP4 GT PUSH2 0x174C JUMPI DUP3 SWAP1 SUB PUSH1 0x1F AND DUP3 ADD SWAP2 JUMPDEST POP POP POP PUSH1 0x4 SWAP1 SWAP4 ADD SLOAD SWAP2 SWAP3 POP POP PUSH3 0xFFFFFF AND DUP6 JUMP JUMPDEST PUSH1 0x40 MLOAD PUSH1 0x20 ADD PUSH2 0x178D SWAP1 PUSH2 0x52B4 JUMP JUMPDEST PUSH1 0x40 MLOAD PUSH1 0x20 DUP2 DUP4 SUB SUB DUP2 MSTORE SWAP1 PUSH1 0x40 MSTORE DUP1 MLOAD SWAP1 PUSH1 0x20 ADD KECCAK256 DUP3 PUSH1 0x40 MLOAD PUSH1 0x20 ADD PUSH2 0x17B4 SWAP2 SWAP1 PUSH2 0x549A JUMP JUMPDEST PUSH1 0x40 MLOAD PUSH1 0x20 DUP2 DUP4 SUB SUB DUP2 MSTORE SWAP1 PUSH1 0x40 MSTORE DUP1 MLOAD SWAP1 PUSH1 0x20 ADD KECCAK256 SUB PUSH2 0x197F JUMPI PUSH1 0x40 DUP1 MLOAD PUSH1 0x2 DUP1 DUP3 MSTORE PUSH1 0x60 DUP3 ADD DUP4 MSTORE PUSH0 SWAP3 PUSH1 0x20 DUP4 ADD SWAP1 DUP1 CALLDATASIZE DUP4 CALLDATACOPY POP POP PUSH1 0x7 SLOAD PUSH1 0x40 DUP1 MLOAD PUSH4 0x15AB88C9 PUSH1 0xE3 SHL DUP2 MSTORE SWAP1 MLOAD SWAP4 SWAP5 POP PUSH1 0x1 PUSH1 0x1 PUSH1 0xA0 SHL SUB SWAP1 SWAP2 AND SWAP3 PUSH4 0xAD5C4648 SWAP3 POP PUSH1 0x4 DUP1 DUP4 ADD SWAP3 PUSH1 0x20 SWAP3 SWAP2 SWAP1 DUP3 SWAP1 SUB ADD DUP2 DUP7 GAS STATICCALL ISZERO DUP1 ISZERO PUSH2 0x1836 JUMPI RETURNDATASIZE PUSH0 DUP1 RETURNDATACOPY RETURNDATASIZE PUSH0 REVERT JUMPDEST POP POP POP POP PUSH1 0x40 MLOAD RETURNDATASIZE PUSH1 0x1F NOT PUSH1 0x1F DUP3 ADD AND DUP3 ADD DUP1 PUSH1 0x40 MSTORE POP DUP2 ADD SWAP1 PUSH2 0x185A SWAP2 SWAP1 PUSH2 0x5333 JUMP JUMPDEST DUP2 PUSH0 DUP2 MLOAD DUP2 LT PUSH2 0x186C JUMPI PUSH2 0x186C PUSH2 0x51BA JUMP JUMPDEST PUSH1 0x20 MUL PUSH1 0x20 ADD ADD SWAP1 PUSH1 0x1 PUSH1 0x1 PUSH1 0xA0 SHL SUB AND SWAP1 DUP2 PUSH1 0x1 PUSH1 0x1 PUSH1 0xA0 SHL SUB AND DUP2 MSTORE POP POP DUP5 DUP2 PUSH1 0x1 DUP2 MLOAD DUP2 LT PUSH2 0x18A0 JUMPI PUSH2 0x18A0 PUSH2 0x51BA JUMP JUMPDEST PUSH1 0x1 PUSH1 0x1 PUSH1 0xA0 SHL SUB SWAP3 DUP4 AND PUSH1 0x20 SWAP2 DUP3 MUL SWAP3 SWAP1 SWAP3 ADD ADD MSTORE PUSH1 0x7 SLOAD PUSH1 0x40 MLOAD PUSH4 0xD06CA61F PUSH1 0xE0 SHL DUP2 MSTORE PUSH0 SWAP3 SWAP2 SWAP1 SWAP2 AND SWAP1 PUSH4 0xD06CA61F SWAP1 PUSH2 0x18E3 SWAP1 DUP9 SWAP1 DUP7 SWAP1 PUSH1 0x4 ADD PUSH2 0x5391 JUMP JUMPDEST PUSH0 PUSH1 0x40 MLOAD DUP1 DUP4 SUB DUP2 DUP7 GAS STATICCALL ISZERO DUP1 ISZERO PUSH2 0x18FD JUMPI RETURNDATASIZE PUSH0 DUP1 RETURNDATACOPY RETURNDATASIZE PUSH0 REVERT JUMPDEST POP POP POP POP PUSH1 0x40 MLOAD RETURNDATASIZE PUSH0 DUP3 RETURNDATACOPY PUSH1 0x1F RETURNDATASIZE SWAP1 DUP2 ADD PUSH1 0x1F NOT AND DUP3 ADD PUSH1 0x40 MSTORE PUSH2 0x1924 SWAP2 SWAP1 DUP2 ADD SWAP1 PUSH2 0x53A9 JUMP JUMPDEST SWAP1 POP PUSH0 PUSH2 0x2710 PUSH1 0x10 SLOAD PUSH2 0x2710 PUSH2 0x193A SWAP2 SWAP1 PUSH2 0x51CE JUMP JUMPDEST DUP4 PUSH1 0x1 DUP2 MLOAD DUP2 LT PUSH2 0x194D JUMPI PUSH2 0x194D PUSH2 0x51BA JUMP JUMPDEST PUSH1 0x20 MUL PUSH1 0x20 ADD ADD MLOAD PUSH2 0x195F SWAP2 SWAP1 PUSH2 0x513E JUMP JUMPDEST PUSH2 0x1969 SWAP2 SWAP1 PUSH2 0x5155 JUMP JUMPDEST SWAP1 POP PUSH2 0x1976 DUP8 DUP8 DUP4 PUSH2 0x3A41 JUMP JUMPDEST POP POP POP POP PUSH2 0x1B0C JUMP JUMPDEST PUSH1 0x40 MLOAD PUSH1 0x20 ADD PUSH2 0x198E SWAP1 PUSH2 0x5430 JUMP JUMPDEST PUSH1 0x40 MLOAD PUSH1 0x20 DUP2 DUP4 SUB SUB DUP2 MSTORE SWAP1 PUSH1 0x40 MSTORE DUP1 MLOAD SWAP1 PUSH1 0x20 ADD KECCAK256 DUP3 PUSH1 0x40 MLOAD PUSH1 0x20 ADD PUSH2 0x19B5 SWAP2 SWAP1 PUSH2 0x549A JUMP JUMPDEST PUSH1 0x40 MLOAD PUSH1 0x20 DUP2 DUP4 SUB SUB DUP2 MSTORE SWAP1 PUSH1 0x40 MSTORE DUP1 MLOAD SWAP1 PUSH1 0x20 ADD KECCAK256 SUB PUSH2 0x147E JUMPI PUSH1 0x7 SLOAD PUSH1 0x40 DUP1 MLOAD PUSH4 0x15AB88C9 PUSH1 0xE3 SHL DUP2 MSTORE SWAP1 MLOAD PUSH0 SWAP3 PUSH1 0x1 PUSH1 0x1 PUSH1 0xA0 SHL SUB AND SWAP2 PUSH4 0xAD5C4648 SWAP2 PUSH1 0x4 DUP1 DUP4 ADD SWAP3 PUSH1 0x20 SWAP3 SWAP2 SWAP1 DUP3 SWAP1 SUB ADD DUP2 DUP7 GAS STATICCALL ISZERO DUP1 ISZERO PUSH2 0x1A17 JUMPI RETURNDATASIZE PUSH0 DUP1 RETURNDATACOPY RETURNDATASIZE PUSH0 REVERT JUMPDEST POP POP POP POP PUSH1 0x40 MLOAD RETURNDATASIZE PUSH1 0x1F NOT PUSH1 0x1F DUP3 ADD AND DUP3 ADD DUP1 PUSH1 0x40 MSTORE POP DUP2 ADD SWAP1 PUSH2 0x1A3B SWAP2 SWAP1 PUSH2 0x5333 JUMP JUMPDEST DUP3 DUP7 PUSH1 0x40 MLOAD PUSH1 0x20 ADD PUSH2 0x1A4F SWAP4 SWAP3 SWAP2 SWAP1 PUSH2 0x543E JUMP JUMPDEST PUSH1 0x40 DUP1 MLOAD PUSH1 0x1F NOT DUP2 DUP5 SUB ADD DUP2 MSTORE SWAP1 DUP3 SWAP1 MSTORE PUSH1 0x9 SLOAD PUSH4 0xCDCA1753 PUSH1 0xE0 SHL DUP4 MSTORE SWAP1 SWAP3 POP PUSH0 SWAP2 PUSH1 0x1 PUSH1 0x1 PUSH1 0xA0 SHL SUB SWAP1 SWAP2 AND SWAP1 PUSH4 0xCDCA1753 SWAP1 PUSH2 0x1A94 SWAP1 DUP6 SWAP1 DUP10 SWAP1 PUSH1 0x4 ADD PUSH2 0x5479 JUMP JUMPDEST PUSH1 0x20 PUSH1 0x40 MLOAD DUP1 DUP4 SUB DUP2 PUSH0 DUP8 GAS CALL ISZERO DUP1 ISZERO PUSH2 0x1AB0 JUMPI RETURNDATASIZE PUSH0 DUP1 RETURNDATACOPY RETURNDATASIZE PUSH0 REVERT JUMPDEST POP POP POP POP PUSH1 0x40 MLOAD RETURNDATASIZE PUSH1 0x1F NOT PUSH1 0x1F DUP3 ADD AND DUP3 ADD DUP1 PUSH1 0x40 MSTORE POP DUP2 ADD SWAP1 PUSH2 0x1AD4 SWAP2 SWAP1 PUSH2 0x5113 JUMP JUMPDEST SWAP1 POP PUSH0 PUSH2 0x2710 PUSH1 0x10 SLOAD PUSH2 0x2710 PUSH2 0x1AEA SWAP2 SWAP1 PUSH2 0x51CE JUMP JUMPDEST PUSH2 0x1AF4 SWAP1 DUP5 PUSH2 0x513E JUMP JUMPDEST PUSH2 0x1AFE SWAP2 SWAP1 PUSH2 0x5155 JUMP JUMPDEST SWAP1 POP PUSH2 0x1976 DUP8 DUP8 DUP7 DUP5 PUSH2 0x3BA7 JUMP JUMPDEST POP POP POP POP JUMP JUMPDEST PUSH2 0x1B1A PUSH2 0x353D JUMP JUMPDEST PUSH0 JUMPDEST PUSH1 0xB SLOAD DUP2 LT ISZERO PUSH2 0x1EBD JUMPI DUP2 PUSH1 0x1 PUSH1 0x1 PUSH1 0xA0 SHL SUB AND PUSH1 0xB DUP3 DUP2 SLOAD DUP2 LT PUSH2 0x1B43 JUMPI PUSH2 0x1B43 PUSH2 0x51BA JUMP JUMPDEST PUSH0 SWAP2 DUP3 MSTORE PUSH1 0x20 SWAP1 SWAP2 KECCAK256 PUSH1 0x5 SWAP1 SWAP2 MUL ADD SLOAD PUSH1 0x1 PUSH1 0x1 PUSH1 0xA0 SHL SUB AND SUB PUSH2 0x1EB5 JUMPI PUSH0 PUSH1 0xB DUP3 DUP2 SLOAD DUP2 LT PUSH2 0x1B75 JUMPI PUSH2 0x1B75 PUSH2 0x51BA JUMP JUMPDEST PUSH0 SWAP2 DUP3 MSTORE PUSH1 0x20 SWAP2 DUP3 SWAP1 KECCAK256 PUSH1 0x40 DUP1 MLOAD PUSH1 0xA0 DUP2 ADD DUP3 MSTORE PUSH1 0x5 SWAP1 SWAP4 MUL SWAP1 SWAP2 ADD DUP1 SLOAD PUSH1 0x1 PUSH1 0x1 PUSH1 0xA0 SHL SUB SWAP1 DUP2 AND DUP5 MSTORE PUSH1 0x1 DUP3 ADD SLOAD AND SWAP4 DUP4 ADD SWAP4 SWAP1 SWAP4 MSTORE PUSH1 0x2 DUP4 ADD SLOAD SWAP1 DUP3 ADD MSTORE PUSH1 0x3 DUP3 ADD DUP1 SLOAD SWAP2 SWAP3 SWAP2 PUSH1 0x60 DUP5 ADD SWAP2 SWAP1 PUSH2 0x1BCE SWAP1 PUSH2 0x50A6 JUMP JUMPDEST DUP1 PUSH1 0x1F ADD PUSH1 0x20 DUP1 SWAP2 DIV MUL PUSH1 0x20 ADD PUSH1 0x40 MLOAD SWAP1 DUP2 ADD PUSH1 0x40 MSTORE DUP1 SWAP3 SWAP2 SWAP1 DUP2 DUP2 MSTORE PUSH1 0x20 ADD DUP3 DUP1 SLOAD PUSH2 0x1BFA SWAP1 PUSH2 0x50A6 JUMP JUMPDEST DUP1 ISZERO PUSH2 0x1C45 JUMPI DUP1 PUSH1 0x1F LT PUSH2 0x1C1C JUMPI PUSH2 0x100 DUP1 DUP4 SLOAD DIV MUL DUP4 MSTORE SWAP2 PUSH1 0x20 ADD SWAP2 PUSH2 0x1C45 JUMP JUMPDEST DUP3 ADD SWAP2 SWAP1 PUSH0 MSTORE PUSH1 0x20 PUSH0 KECCAK256 SWAP1 JUMPDEST DUP2 SLOAD DUP2 MSTORE SWAP1 PUSH1 0x1 ADD SWAP1 PUSH1 0x20 ADD DUP1 DUP4 GT PUSH2 0x1C28 JUMPI DUP3 SWAP1 SUB PUSH1 0x1F AND DUP3 ADD SWAP2 JUMPDEST POP POP POP SWAP2 DUP4 MSTORE POP POP PUSH1 0x4 SWAP2 DUP3 ADD SLOAD PUSH3 0xFFFFFF AND PUSH1 0x20 SWAP2 DUP3 ADD MSTORE PUSH1 0x40 DUP1 DUP5 ADD MLOAD SWAP2 DUP5 ADD MLOAD PUSH1 0x60 DUP6 ADD MLOAD PUSH1 0x80 DUP7 ADD MLOAD SWAP3 MLOAD PUSH4 0x1CE07AE9 PUSH1 0xE1 SHL DUP2 MSTORE SWAP6 SWAP7 POP ADDRESS SWAP6 PUSH4 0x39C0F5D2 SWAP6 PUSH2 0x1C98 SWAP5 DUP7 SWAP4 SWAP3 SWAP1 SWAP2 ADD PUSH2 0x4D01 JUMP JUMPDEST PUSH0 PUSH1 0x40 MLOAD DUP1 DUP4 SUB DUP2 DUP6 DUP9 DUP1 EXTCODESIZE ISZERO DUP1 ISZERO PUSH2 0x1CAF JUMPI PUSH0 DUP1 REVERT JUMPDEST POP GAS CALL SWAP4 POP POP POP POP DUP1 ISZERO PUSH2 0x1CC1 JUMPI POP PUSH1 0x1 JUMPDEST PUSH2 0x1E81 JUMPI PUSH1 0x40 DUP1 MLOAD PUSH1 0xA0 DUP2 ADD DUP3 MSTORE CALLER DUP2 MSTORE PUSH1 0x20 DUP4 DUP2 ADD MLOAD PUSH1 0x1 PUSH1 0x1 PUSH1 0xA0 SHL SUB SWAP1 DUP2 AND SWAP2 DUP4 ADD SWAP2 DUP3 MSTORE DUP5 DUP5 ADD MLOAD SWAP4 DUP4 ADD SWAP4 DUP5 MSTORE PUSH1 0x60 DUP1 DUP7 ADD MLOAD SWAP1 DUP5 ADD SWAP1 DUP2 MSTORE PUSH1 0x80 DUP1 DUP8 ADD MLOAD PUSH3 0xFFFFFF AND SWAP1 DUP6 ADD MSTORE PUSH1 0xB DUP1 SLOAD PUSH1 0x1 DUP2 ADD DUP3 SSTORE PUSH0 SWAP2 SWAP1 SWAP2 MSTORE DUP5 MLOAD PUSH1 0x5 SWAP1 SWAP2 MUL PUSH32 0x175B7A638427703F0DBE7BB9BBF987A2551717B34E79F33B5B1008D1FA01DB9 DUP2 ADD DUP1 SLOAD SWAP3 DUP6 AND PUSH1 0x1 PUSH1 0x1 PUSH1 0xA0 SHL SUB NOT SWAP4 DUP5 AND OR DUP2 SSTORE SWAP5 MLOAD PUSH32 0x175B7A638427703F0DBE7BB9BBF987A2551717B34E79F33B5B1008D1FA01DBA DUP3 ADD DUP1 SLOAD SWAP2 SWAP1 SWAP6 AND SWAP3 AND SWAP2 SWAP1 SWAP2 OR SWAP1 SWAP3 SSTORE SWAP4 MLOAD PUSH32 0x175B7A638427703F0DBE7BB9BBF987A2551717B34E79F33B5B1008D1FA01DBB DUP3 ADD SSTORE SWAP3 MLOAD SWAP2 SWAP3 SWAP1 SWAP2 PUSH32 0x175B7A638427703F0DBE7BB9BBF987A2551717B34E79F33B5B1008D1FA01DBC SWAP1 SWAP2 ADD SWAP1 PUSH2 0x1DEA SWAP1 DUP3 PUSH2 0x54FB JUMP JUMPDEST POP PUSH1 0x80 SWAP2 SWAP1 SWAP2 ADD MLOAD PUSH1 0x4 SWAP1 SWAP2 ADD DUP1 SLOAD PUSH3 0xFFFFFF NOT AND PUSH3 0xFFFFFF SWAP1 SWAP3 AND SWAP2 SWAP1 SWAP2 OR SWAP1 SSTORE CALLER PUSH0 SWAP1 DUP2 MSTORE PUSH1 0xC PUSH1 0x20 MSTORE PUSH1 0x40 DUP2 KECCAK256 DUP1 SLOAD SWAP2 PUSH2 0x1E26 DUP4 PUSH2 0x55B9 JUMP JUMPDEST SWAP2 SWAP1 POP SSTORE POP CALLER PUSH1 0x1 PUSH1 0x1 PUSH1 0xA0 SHL SUB AND PUSH32 0xB301E8C1D1E07ED6209DB6D6CC98B8F845197CB3A52A5C0502CA2DF8316E6929 DUP3 PUSH1 0x20 ADD MLOAD DUP4 PUSH1 0x40 ADD MLOAD DUP5 PUSH1 0x60 ADD MLOAD PUSH1 0x40 MLOAD PUSH2 0x1E74 SWAP4 SWAP3 SWAP2 SWAP1 PUSH2 0x55D1 JUMP JUMPDEST PUSH1 0x40 MLOAD DUP1 SWAP2 SUB SWAP1 LOG2 PUSH2 0x1EB3 JUMP JUMPDEST PUSH2 0x1E8A DUP3 PUSH2 0x3D1A JUMP JUMPDEST PUSH1 0x1 PUSH1 0x1 PUSH1 0xA0 SHL SUB DUP4 AND PUSH0 SWAP1 DUP2 MSTORE PUSH1 0xC PUSH1 0x20 MSTORE PUSH1 0x40 DUP2 KECCAK256 DUP1 SLOAD SWAP2 PUSH2 0x1EAD DUP4 PUSH2 0x55F7 JUMP JUMPDEST SWAP2 SWAP1 POP SSTORE POP JUMPDEST POP JUMPDEST PUSH1 0x1 ADD PUSH2 0x1B1C JUMP JUMPDEST POP POP JUMP JUMPDEST PUSH2 0x1EC9 PUSH2 0x353D JUMP JUMPDEST PUSH2 0x1ED1 PUSH2 0x3E7D JUMP JUMPDEST PUSH1 0x40 MLOAD CALLER DUP2 MSTORE PUSH32 0x5DB9EE0A495BF2E6FF9C91A7834C1BA4FDD244A5E8AA4E537BD38AEAE4B073AA SWAP1 PUSH1 0x20 ADD JUMPDEST PUSH1 0x40 MLOAD DUP1 SWAP2 SUB SWAP1 LOG1 JUMP JUMPDEST PUSH2 0x1F0F PUSH2 0x353D JUMP JUMPDEST PUSH1 0x1 PUSH1 0x1 PUSH1 0xA0 SHL SUB DUP3 AND PUSH0 DUP2 DUP2 MSTORE PUSH1 0xA PUSH1 0x20 SWAP1 DUP2 MSTORE PUSH1 0x40 SWAP2 DUP3 SWAP1 KECCAK256 DUP1 SLOAD PUSH1 0xFF NOT AND DUP6 ISZERO ISZERO SWAP1 DUP2 OR SWAP1 SWAP2 SSTORE SWAP2 MLOAD SWAP2 DUP3 MSTORE PUSH32 0xA54714518C5D275FDCD3D2A461E4858E4E8CB04FB93CD0BCA9D6D34115F26440 SWAP2 ADD PUSH1 0x40 MLOAD DUP1 SWAP2 SUB SWAP1 LOG2 POP POP JUMP JUMPDEST PUSH1 0x6 SLOAD DUP2 MLOAD PUSH0 SWAP2 EQ PUSH2 0x1FB9 JUMPI PUSH1 0x40 MLOAD PUSH3 0x461BCD PUSH1 0xE5 SHL DUP2 MSTORE PUSH1 0x20 PUSH1 0x4 DUP3 ADD MSTORE PUSH1 0x15 PUSH1 0x24 DUP3 ADD MSTORE PUSH21 0x92DCECC2D8D2C840E0E4D2C6CAE640D8CADCCEE8D PUSH1 0x5B SHL PUSH1 0x44 DUP3 ADD MSTORE PUSH1 0x64 ADD PUSH2 0x8B4 JUMP JUMPDEST PUSH0 DUP1 JUMPDEST PUSH1 0x6 SLOAD DUP2 LT ISZERO PUSH2 0x209A JUMPI PUSH0 PUSH1 0x6 DUP3 DUP2 SLOAD DUP2 LT PUSH2 0x1FDA JUMPI PUSH2 0x1FDA PUSH2 0x51BA JUMP JUMPDEST PUSH0 SWAP2 DUP3 MSTORE PUSH1 0x20 DUP3 KECCAK256 PUSH1 0x4 SWAP2 DUP3 MUL ADD DUP1 SLOAD PUSH1 0x40 MLOAD PUSH4 0x70A08231 PUSH1 0xE0 SHL DUP2 MSTORE ADDRESS SWAP4 DUP2 ADD SWAP4 SWAP1 SWAP4 MSTORE SWAP1 SWAP4 POP PUSH1 0x1 PUSH1 0x1 PUSH1 0xA0 SHL SUB AND SWAP1 PUSH4 0x70A08231 SWAP1 PUSH1 0x24 ADD PUSH1 0x20 PUSH1 0x40 MLOAD DUP1 DUP4 SUB DUP2 DUP7 GAS STATICCALL ISZERO DUP1 ISZERO PUSH2 0x2030 JUMPI RETURNDATASIZE PUSH0 DUP1 RETURNDATACOPY RETURNDATASIZE PUSH0 REVERT JUMPDEST POP POP POP POP PUSH1 0x40 MLOAD RETURNDATASIZE PUSH1 0x1F NOT PUSH1 0x1F DUP3 ADD AND DUP3 ADD DUP1 PUSH1 0x40 MSTORE POP DUP2 ADD SWAP1 PUSH2 0x2054 SWAP2 SWAP1 PUSH2 0x5113 JUMP JUMPDEST SWAP1 POP PUSH0 DUP7 DUP5 DUP2 MLOAD DUP2 LT PUSH2 0x2069 JUMPI PUSH2 0x2069 PUSH2 0x51BA JUMP JUMPDEST PUSH1 0x20 MUL PUSH1 0x20 ADD ADD MLOAD SWAP1 POP DUP1 DUP3 PUSH2 0x207F SWAP2 SWAP1 PUSH2 0x513E JUMP JUMPDEST PUSH2 0x2089 SWAP1 DUP7 PUSH2 0x5286 JUMP JUMPDEST SWAP5 POP POP PUSH1 0x1 SWAP1 SWAP3 ADD SWAP2 POP PUSH2 0x1FBC SWAP1 POP JUMP JUMPDEST POP SWAP3 SWAP2 POP POP JUMP JUMPDEST PUSH2 0x20A9 PUSH2 0x353D JUMP JUMPDEST PUSH2 0x20B2 PUSH0 PUSH2 0x3ECC JUMP JUMPDEST JUMP JUMPDEST PUSH2 0x20BC PUSH2 0x353D JUMP JUMPDEST PUSH2 0x20C4 PUSH2 0x363B JUMP JUMPDEST PUSH1 0x6 SLOAD DUP2 MLOAD EQ PUSH2 0x210E JUMPI PUSH1 0x40 MLOAD PUSH3 0x461BCD PUSH1 0xE5 SHL DUP2 MSTORE PUSH1 0x20 PUSH1 0x4 DUP3 ADD MSTORE PUSH1 0x15 PUSH1 0x24 DUP3 ADD MSTORE PUSH21 0x92DCECC2D8D2C840E0E4D2C6CAE640D8CADCCEE8D PUSH1 0x5B SHL PUSH1 0x44 DUP3 ADD MSTORE PUSH1 0x64 ADD PUSH2 0x8B4 JUMP JUMPDEST PUSH0 PUSH2 0x2118 DUP3 PUSH2 0x1F6D JUMP JUMPDEST SWAP1 POP PUSH0 JUMPDEST PUSH1 0x6 SLOAD DUP2 LT ISZERO PUSH2 0x23F9 JUMPI PUSH0 PUSH1 0x6 DUP3 DUP2 SLOAD DUP2 LT PUSH2 0x213A JUMPI PUSH2 0x213A PUSH2 0x51BA JUMP JUMPDEST SWAP1 PUSH0 MSTORE PUSH1 0x20 PUSH0 KECCAK256 SWAP1 PUSH1 0x4 MUL ADD SWAP1 POP PUSH0 PUSH2 0x21D7 DUP6 DUP5 DUP2 MLOAD DUP2 LT PUSH2 0x215E JUMPI PUSH2 0x215E PUSH2 0x51BA JUMP JUMPDEST PUSH1 0x20 SWAP1 DUP2 MUL SWAP2 SWAP1 SWAP2 ADD ADD MLOAD DUP4 SLOAD PUSH1 0x40 MLOAD PUSH4 0x70A08231 PUSH1 0xE0 SHL DUP2 MSTORE ADDRESS PUSH1 0x4 DUP3 ADD MSTORE PUSH1 0x1 PUSH1 0x1 PUSH1 0xA0 SHL SUB SWAP1 SWAP2 AND SWAP1 PUSH4 0x70A08231 SWAP1 PUSH1 0x24 ADD PUSH1 0x20 PUSH1 0x40 MLOAD DUP1 DUP4 SUB DUP2 DUP7 GAS STATICCALL ISZERO DUP1 ISZERO PUSH2 0x21AE JUMPI RETURNDATASIZE PUSH0 DUP1 RETURNDATACOPY RETURNDATASIZE PUSH0 REVERT JUMPDEST POP POP POP POP PUSH1 0x40 MLOAD RETURNDATASIZE PUSH1 0x1F NOT PUSH1 0x1F DUP3 ADD AND DUP3 ADD DUP1 PUSH1 0x40 MSTORE POP DUP2 ADD SWAP1 PUSH2 0x21D2 SWAP2 SWAP1 PUSH2 0x5113 JUMP JUMPDEST PUSH2 0x3F1B JUMP JUMPDEST SWAP1 POP PUSH0 DUP5 PUSH2 0x21E7 DUP4 PUSH2 0x2710 PUSH2 0x513E JUMP JUMPDEST PUSH2 0x21F1 SWAP2 SWAP1 PUSH2 0x5155 JUMP JUMPDEST SWAP1 POP DUP3 PUSH1 0x1 ADD SLOAD DUP2 GT ISZERO PUSH2 0x22F3 JUMPI PUSH0 DUP4 PUSH1 0x1 ADD SLOAD DUP3 PUSH2 0x2210 SWAP2 SWAP1 PUSH2 0x51CE JUMP JUMPDEST SWAP1 POP PUSH0 PUSH2 0x2710 PUSH2 0x2220 DUP9 DUP5 PUSH2 0x513E JUMP JUMPDEST PUSH2 0x222A SWAP2 SWAP1 PUSH2 0x5155 JUMP JUMPDEST SWAP1 POP PUSH0 PUSH2 0x2237 DUP6 DUP4 PUSH2 0x5155 JUMP JUMPDEST DUP7 SLOAD PUSH1 0x2 DUP9 ADD DUP1 SLOAD SWAP3 SWAP4 POP PUSH2 0x22EA SWAP3 PUSH1 0x1 PUSH1 0x1 PUSH1 0xA0 SHL SUB SWAP1 SWAP3 AND SWAP2 DUP5 SWAP2 SWAP1 PUSH2 0x225E SWAP1 PUSH2 0x50A6 JUMP JUMPDEST DUP1 PUSH1 0x1F ADD PUSH1 0x20 DUP1 SWAP2 DIV MUL PUSH1 0x20 ADD PUSH1 0x40 MLOAD SWAP1 DUP2 ADD PUSH1 0x40 MSTORE DUP1 SWAP3 SWAP2 SWAP1 DUP2 DUP2 MSTORE PUSH1 0x20 ADD DUP3 DUP1 SLOAD PUSH2 0x228A SWAP1 PUSH2 0x50A6 JUMP JUMPDEST DUP1 ISZERO PUSH2 0x22D5 JUMPI DUP1 PUSH1 0x1F LT PUSH2 0x22AC JUMPI PUSH2 0x100 DUP1 DUP4 SLOAD DIV MUL DUP4 MSTORE SWAP2 PUSH1 0x20 ADD SWAP2 PUSH2 0x22D5 JUMP JUMPDEST DUP3 ADD SWAP2 SWAP1 PUSH0 MSTORE PUSH1 0x20 PUSH0 KECCAK256 SWAP1 JUMPDEST DUP2 SLOAD DUP2 MSTORE SWAP1 PUSH1 0x1 ADD SWAP1 PUSH1 0x20 ADD DUP1 DUP4 GT PUSH2 0x22B8 JUMPI DUP3 SWAP1 SUB PUSH1 0x1F AND DUP3 ADD SWAP2 JUMPDEST POP POP POP POP PUSH1 0x3 DUP12 ADD SLOAD PUSH3 0xFFFFFF AND SWAP1 POP PUSH2 0x3F2D JUMP JUMPDEST POP POP POP POP PUSH2 0x23EE JUMP JUMPDEST DUP3 PUSH1 0x1 ADD SLOAD DUP2 LT ISZERO PUSH2 0x23EE JUMPI PUSH0 DUP2 DUP5 PUSH1 0x1 ADD SLOAD PUSH2 0x2310 SWAP2 SWAP1 PUSH2 0x51CE JUMP JUMPDEST SWAP1 POP PUSH0 PUSH2 0x2710 PUSH2 0x2320 DUP9 DUP5 PUSH2 0x513E JUMP JUMPDEST PUSH2 0x232A SWAP2 SWAP1 PUSH2 0x5155 JUMP JUMPDEST SWAP1 POP PUSH0 PUSH2 0x2337 DUP6 DUP4 PUSH2 0x5155 JUMP JUMPDEST DUP7 SLOAD PUSH1 0x2 DUP9 ADD DUP1 SLOAD SWAP3 SWAP4 POP PUSH2 0x23EA SWAP3 PUSH1 0x1 PUSH1 0x1 PUSH1 0xA0 SHL SUB SWAP1 SWAP3 AND SWAP2 DUP5 SWAP2 SWAP1 PUSH2 0x235E SWAP1 PUSH2 0x50A6 JUMP JUMPDEST DUP1 PUSH1 0x1F ADD PUSH1 0x20 DUP1 SWAP2 DIV MUL PUSH1 0x20 ADD PUSH1 0x40 MLOAD SWAP1 DUP2 ADD PUSH1 0x40 MSTORE DUP1 SWAP3 SWAP2 SWAP1 DUP2 DUP2 MSTORE PUSH1 0x20 ADD DUP3 DUP1 SLOAD PUSH2 0x238A SWAP1 PUSH2 0x50A6 JUMP JUMPDEST DUP1 ISZERO PUSH2 0x23D5 JUMPI DUP1 PUSH1 0x1F LT PUSH2 0x23AC JUMPI PUSH2 0x100 DUP1 DUP4 SLOAD DIV MUL DUP4 MSTORE SWAP2 PUSH1 0x20 ADD SWAP2 PUSH2 0x23D5 JUMP JUMPDEST DUP3 ADD SWAP2 SWAP1 PUSH0 MSTORE PUSH1 0x20 PUSH0 KECCAK256 SWAP1 JUMPDEST DUP2 SLOAD DUP2 MSTORE SWAP1 PUSH1 0x1 ADD SWAP1 PUSH1 0x20 ADD DUP1 DUP4 GT PUSH2 0x23B8 JUMPI DUP3 SWAP1 SUB PUSH1 0x1F AND DUP3 ADD SWAP2 JUMPDEST POP POP POP POP PUSH1 0x3 DUP12 ADD SLOAD PUSH3 0xFFFFFF AND SWAP1 POP PUSH2 0x42D0 JUMP JUMPDEST POP POP POP JUMPDEST POP POP POP PUSH1 0x1 ADD PUSH2 0x211C JUMP JUMPDEST POP PUSH1 0x40 MLOAD TIMESTAMP DUP2 MSTORE PUSH32 0xC306AF072396B02BF3A9782C10065CC7FF4AA842934A43F0B76F997B291237C8 SWAP1 PUSH1 0x20 ADD PUSH1 0x40 MLOAD DUP1 SWAP2 SUB SWAP1 LOG1 POP POP JUMP JUMPDEST PUSH2 0x2439 PUSH2 0x353D JUMP JUMPDEST PUSH2 0x2441 PUSH2 0x492D JUMP JUMPDEST PUSH1 0x40 MLOAD CALLER DUP2 MSTORE PUSH32 0x62E78CEA01BEE320CD4E420270B5EA74000D11B0C9F74754EBDBFC544B05A258 SWAP1 PUSH1 0x20 ADD PUSH2 0x1EFD JUMP JUMPDEST PUSH1 0x1 PUSH1 0x1 PUSH1 0xA0 SHL SUB DUP2 AND PUSH0 SWAP1 DUP2 MSTORE PUSH1 0xC PUSH1 0x20 MSTORE PUSH1 0x40 DUP2 KECCAK256 SLOAD PUSH1 0x60 SWAP2 SWAP1 PUSH8 0xFFFFFFFFFFFFFFFF DUP2 GT ISZERO PUSH2 0x24A5 JUMPI PUSH2 0x24A5 PUSH2 0x4DA1 JUMP JUMPDEST PUSH1 0x40 MLOAD SWAP1 DUP1 DUP3 MSTORE DUP1 PUSH1 0x20 MUL PUSH1 0x20 ADD DUP3 ADD PUSH1 0x40 MSTORE DUP1 ISZERO PUSH2 0x24FB JUMPI DUP2 PUSH1 0x20 ADD JUMPDEST PUSH1 0x40 DUP1 MLOAD PUSH1 0xA0 DUP2 ADD DUP3 MSTORE PUSH0 DUP1 DUP3 MSTORE PUSH1 0x20 DUP1 DUP4 ADD DUP3 SWAP1 MSTORE SWAP3 DUP3 ADD DUP2 SWAP1 MSTORE PUSH1 0x60 DUP1 DUP4 ADD MSTORE PUSH1 0x80 DUP3 ADD MSTORE DUP3 MSTORE PUSH0 NOT SWAP1 SWAP3 ADD SWAP2 ADD DUP2 PUSH2 0x24C3 JUMPI SWAP1 POP JUMPDEST POP SWAP1 POP PUSH0 DUP1 JUMPDEST PUSH1 0xB SLOAD DUP2 LT ISZERO PUSH2 0x2679 JUMPI DUP5 PUSH1 0x1 PUSH1 0x1 PUSH1 0xA0 SHL SUB AND PUSH1 0xB DUP3 DUP2 SLOAD DUP2 LT PUSH2 0x2528 JUMPI PUSH2 0x2528 PUSH2 0x51BA JUMP JUMPDEST PUSH0 SWAP2 DUP3 MSTORE PUSH1 0x20 SWAP1 SWAP2 KECCAK256 PUSH1 0x5 SWAP1 SWAP2 MUL ADD SLOAD PUSH1 0x1 PUSH1 0x1 PUSH1 0xA0 SHL SUB AND SUB PUSH2 0x2671 JUMPI PUSH1 0xB DUP2 DUP2 SLOAD DUP2 LT PUSH2 0x2559 JUMPI PUSH2 0x2559 PUSH2 0x51BA JUMP JUMPDEST PUSH0 SWAP2 DUP3 MSTORE PUSH1 0x20 SWAP2 DUP3 SWAP1 KECCAK256 PUSH1 0x40 DUP1 MLOAD PUSH1 0xA0 DUP2 ADD DUP3 MSTORE PUSH1 0x5 SWAP1 SWAP4 MUL SWAP1 SWAP2 ADD DUP1 SLOAD PUSH1 0x1 PUSH1 0x1 PUSH1 0xA0 SHL SUB SWAP1 DUP2 AND DUP5 MSTORE PUSH1 0x1 DUP3 ADD SLOAD AND SWAP4 DUP4 ADD SWAP4 SWAP1 SWAP4 MSTORE PUSH1 0x2 DUP4 ADD SLOAD SWAP1 DUP3 ADD MSTORE PUSH1 0x3 DUP3 ADD DUP1 SLOAD SWAP2 SWAP3 SWAP2 PUSH1 0x60 DUP5 ADD SWAP2 SWAP1 PUSH2 0x25B2 SWAP1 PUSH2 0x50A6 JUMP JUMPDEST DUP1 PUSH1 0x1F ADD PUSH1 0x20 DUP1 SWAP2 DIV MUL PUSH1 0x20 ADD PUSH1 0x40 MLOAD SWAP1 DUP2 ADD PUSH1 0x40 MSTORE DUP1 SWAP3 SWAP2 SWAP1 DUP2 DUP2 MSTORE PUSH1 0x20 ADD DUP3 DUP1 SLOAD PUSH2 0x25DE SWAP1 PUSH2 0x50A6 JUMP JUMPDEST DUP1 ISZERO PUSH2 0x2629 JUMPI DUP1 PUSH1 0x1F LT PUSH2 0x2600 JUMPI PUSH2 0x100 DUP1 DUP4 SLOAD DIV MUL DUP4 MSTORE SWAP2 PUSH1 0x20 ADD SWAP2 PUSH2 0x2629 JUMP JUMPDEST DUP3 ADD SWAP2 SWAP1 PUSH0 MSTORE PUSH1 0x20 PUSH0 KECCAK256 SWAP1 JUMPDEST DUP2 SLOAD DUP2 MSTORE SWAP1 PUSH1 0x1 ADD SWAP1 PUSH1 0x20 ADD DUP1 DUP4 GT PUSH2 0x260C JUMPI DUP3 SWAP1 SUB PUSH1 0x1F AND DUP3 ADD SWAP2 JUMPDEST POP POP POP SWAP2 DUP4 MSTORE POP POP PUSH1 0x4 SWAP2 SWAP1 SWAP2 ADD SLOAD PUSH3 0xFFFFFF AND PUSH1 0x20 SWAP1 SWAP2 ADD MSTORE DUP4 MLOAD DUP5 SWAP1 DUP5 SWAP1 DUP2 LT PUSH2 0x2657 JUMPI PUSH2 0x2657 PUSH2 0x51BA JUMP JUMPDEST PUSH1 0x20 MUL PUSH1 0x20 ADD ADD DUP2 SWAP1 MSTORE POP DUP2 DUP1 PUSH2 0x266D SWAP1 PUSH2 0x55B9 JUMP JUMPDEST SWAP3 POP POP JUMPDEST PUSH1 0x1 ADD PUSH2 0x2501 JUMP JUMPDEST POP SWAP1 SWAP4 SWAP3 POP POP POP JUMP JUMPDEST PUSH1 0x60 PUSH1 0x5 DUP1 SLOAD PUSH2 0x7CE SWAP1 PUSH2 0x50A6 JUMP JUMPDEST PUSH2 0x2699 PUSH2 0x353D JUMP JUMPDEST PUSH0 DUP2 PUSH1 0x1 PUSH1 0x1 PUSH1 0xA0 SHL SUB AND PUSH1 0x11 SLOAD PUSH1 0x40 MLOAD JUMPDEST PUSH0 PUSH1 0x40 MLOAD DUP1 DUP4 SUB DUP2 DUP6 DUP8 GAS CALL SWAP3 POP POP POP RETURNDATASIZE DUP1 PUSH0 DUP2 EQ PUSH2 0x26E5 JUMPI PUSH1 0x40 MLOAD SWAP2 POP PUSH1 0x1F NOT PUSH1 0x3F RETURNDATASIZE ADD AND DUP3 ADD PUSH1 0x40 MSTORE RETURNDATASIZE DUP3 MSTORE RETURNDATASIZE PUSH0 PUSH1 0x20 DUP5 ADD RETURNDATACOPY PUSH2 0x26EA JUMP JUMPDEST PUSH1 0x60 SWAP2 POP JUMPDEST POP POP SWAP1 POP DUP1 PUSH2 0x1EBD JUMPI PUSH1 0x40 MLOAD PUSH3 0x461BCD PUSH1 0xE5 SHL DUP2 MSTORE PUSH1 0x20 PUSH1 0x4 DUP3 ADD MSTORE PUSH1 0x13 PUSH1 0x24 DUP3 ADD MSTORE PUSH19 0x115512081D1C985B9CD9995C8819985A5B1959 PUSH1 0x6A SHL PUSH1 0x44 DUP3 ADD MSTORE PUSH1 0x64 ADD PUSH2 0x8B4 JUMP JUMPDEST PUSH0 CALLER PUSH2 0x85C DUP2 DUP6 DUP6 PUSH2 0x35DE JUMP JUMPDEST PUSH2 0x2746 PUSH2 0x353D JUMP JUMPDEST PUSH2 0x2710 DUP4 GT ISZERO PUSH2 0x278D JUMPI PUSH1 0x40 MLOAD PUSH3 0x461BCD PUSH1 0xE5 SHL DUP2 MSTORE PUSH1 0x20 PUSH1 0x4 DUP3 ADD MSTORE PUSH1 0x12 PUSH1 0x24 DUP3 ADD MSTORE PUSH18 0x496E76616C69642070657263656E74616765 PUSH1 0x70 SHL PUSH1 0x44 DUP3 ADD MSTORE PUSH1 0x64 ADD PUSH2 0x8B4 JUMP JUMPDEST PUSH1 0x40 DUP1 MLOAD PUSH1 0x80 DUP2 ADD DUP3 MSTORE PUSH1 0x1 PUSH1 0x1 PUSH1 0xA0 SHL SUB DUP7 DUP2 AND DUP3 MSTORE PUSH1 0x20 DUP3 ADD DUP7 DUP2 MSTORE SWAP3 DUP3 ADD DUP6 DUP2 MSTORE PUSH3 0xFFFFFF DUP6 AND PUSH1 0x60 DUP5 ADD MSTORE PUSH1 0x6 DUP1 SLOAD PUSH1 0x1 DUP2 ADD DUP3 SSTORE PUSH0 SWAP2 SWAP1 SWAP2 MSTORE DUP4 MLOAD PUSH32 0xF652222313E28459528D920B65115C16C04F3EFC82AAEDC97BE59F3F377C0D3F PUSH1 0x4 SWAP1 SWAP3 MUL SWAP2 DUP3 ADD DUP1 SLOAD PUSH1 0x1 PUSH1 0x1 PUSH1 0xA0 SHL SUB NOT AND SWAP2 SWAP1 SWAP5 AND OR DUP4 SSTORE SWAP4 MLOAD PUSH32 0xF652222313E28459528D920B65115C16C04F3EFC82AAEDC97BE59F3F377C0D40 DUP6 ADD SSTORE MLOAD SWAP2 SWAP3 SWAP1 SWAP2 PUSH32 0xF652222313E28459528D920B65115C16C04F3EFC82AAEDC97BE59F3F377C0D41 SWAP1 SWAP2 ADD SWAP1 PUSH2 0x2863 SWAP1 DUP3 PUSH2 0x54FB JUMP JUMPDEST POP PUSH1 0x60 SWAP2 SWAP1 SWAP2 ADD MLOAD PUSH1 0x3 SWAP1 SWAP2 ADD DUP1 SLOAD PUSH3 0xFFFFFF NOT AND PUSH3 0xFFFFFF SWAP1 SWAP3 AND SWAP2 SWAP1 SWAP2 OR SWAP1 SSTORE POP POP POP POP JUMP JUMPDEST CALLER PUSH0 SWAP1 DUP2 MSTORE PUSH1 0xA PUSH1 0x20 MSTORE PUSH1 0x40 SWAP1 KECCAK256 SLOAD PUSH1 0xFF AND PUSH2 0x28DB JUMPI PUSH1 0x40 MLOAD PUSH3 0x461BCD PUSH1 0xE5 SHL DUP2 MSTORE PUSH1 0x20 PUSH1 0x4 DUP3 ADD MSTORE PUSH1 0xF PUSH1 0x24 DUP3 ADD MSTORE PUSH15 0x139BDD081DDA1A5D195B1A5CDD1959 PUSH1 0x8A SHL PUSH1 0x44 DUP3 ADD MSTORE PUSH1 0x64 ADD PUSH2 0x8B4 JUMP JUMPDEST PUSH2 0x28E3 PUSH2 0x363B JUMP JUMPDEST PUSH0 CALLVALUE GT PUSH2 0x2902 JUMPI PUSH1 0x40 MLOAD PUSH3 0x461BCD PUSH1 0xE5 SHL DUP2 MSTORE PUSH1 0x4 ADD PUSH2 0x8B4 SWAP1 PUSH2 0x50DE JUMP JUMPDEST PUSH0 PUSH2 0x2710 PUSH1 0xE SLOAD CALLVALUE PUSH2 0x2914 SWAP2 SWAP1 PUSH2 0x513E JUMP JUMPDEST PUSH2 0x291E SWAP2 SWAP1 PUSH2 0x5155 JUMP JUMPDEST SWAP1 POP PUSH0 PUSH2 0x292B DUP3 CALLVALUE PUSH2 0x51CE JUMP JUMPDEST SWAP1 POP DUP2 PUSH1 0x11 PUSH0 DUP3 DUP3 SLOAD PUSH2 0x293E SWAP2 SWAP1 PUSH2 0x5286 JUMP JUMPDEST SWAP1 SWAP2 SSTORE POP POP DUP1 PUSH2 0x29A3 JUMPI PUSH1 0x40 MLOAD PUSH3 0x461BCD PUSH1 0xE5 SHL DUP2 MSTORE PUSH1 0x20 PUSH1 0x4 DUP3 ADD MSTORE PUSH1 0x2A PUSH1 0x24 DUP3 ADD MSTORE PUSH32 0x416D6F756E7420616674657220666565206D7573742062652067726561746572 PUSH1 0x44 DUP3 ADD MSTORE PUSH10 0x207468616E207A65726F PUSH1 0xB0 SHL PUSH1 0x64 DUP3 ADD MSTORE PUSH1 0x84 ADD PUSH2 0x8B4 JUMP JUMPDEST PUSH2 0x29AD CALLER DUP3 PUSH2 0x496F JUMP JUMPDEST CALLER PUSH1 0x1 PUSH1 0x1 PUSH1 0xA0 SHL SUB AND PUSH32 0xA6F472AFE6167674A3B4324E83EB63D201D75A960D8A52BF808FEA91F960F117 DUP3 DUP4 PUSH1 0x40 MLOAD PUSH2 0x2A0C SWAP3 SWAP2 SWAP1 SWAP2 DUP3 MSTORE PUSH1 0x20 DUP3 ADD MSTORE PUSH1 0x60 PUSH1 0x40 DUP3 ADD DUP2 SWAP1 MSTORE PUSH1 0x3 SWAP1 DUP3 ADD MSTORE PUSH3 0x4E2F41 PUSH1 0xE8 SHL PUSH1 0x80 DUP3 ADD MSTORE PUSH1 0xA0 ADD SWAP1 JUMP JUMPDEST PUSH1 0x40 MLOAD DUP1 SWAP2 SUB SWAP1 LOG2 PUSH0 JUMPDEST PUSH1 0x6 SLOAD DUP2 LT ISZERO PUSH2 0x2CC6 JUMPI PUSH0 PUSH1 0x6 DUP3 DUP2 SLOAD DUP2 LT PUSH2 0x2A34 JUMPI PUSH2 0x2A34 PUSH2 0x51BA JUMP JUMPDEST SWAP1 PUSH0 MSTORE PUSH1 0x20 PUSH0 KECCAK256 SWAP1 PUSH1 0x4 MUL ADD SWAP1 POP PUSH0 PUSH2 0x2710 DUP3 PUSH1 0x1 ADD SLOAD DUP6 PUSH2 0x2A56 SWAP2 SWAP1 PUSH2 0x513E JUMP JUMPDEST PUSH2 0x2A60 SWAP2 SWAP1 PUSH2 0x5155 JUMP JUMPDEST DUP3 SLOAD PUSH1 0x3 DUP5 ADD SLOAD PUSH1 0x40 MLOAD PUSH4 0x1CE07AE9 PUSH1 0xE1 SHL DUP2 MSTORE SWAP3 SWAP4 POP ADDRESS SWAP3 PUSH4 0x39C0F5D2 SWAP3 DUP6 SWAP3 PUSH2 0x2AA8 SWAP3 PUSH1 0x1 PUSH1 0x1 PUSH1 0xA0 SHL SUB SWAP1 SWAP3 AND SWAP2 DUP5 SWAP2 PUSH1 0x2 DUP11 ADD SWAP2 PUSH3 0xFFFFFF SWAP1 SWAP2 AND SWAP1 PUSH1 0x4 ADD PUSH2 0x5260 JUMP JUMPDEST PUSH0 PUSH1 0x40 MLOAD DUP1 DUP4 SUB DUP2 DUP6 DUP9 DUP1 EXTCODESIZE ISZERO DUP1 ISZERO PUSH2 0x2ABF JUMPI PUSH0 DUP1 REVERT JUMPDEST POP GAS CALL SWAP4 POP POP POP POP DUP1 ISZERO PUSH2 0x2AD1 JUMPI POP PUSH1 0x1 JUMPDEST PUSH2 0x2CBC JUMPI CALLER PUSH0 SWAP1 DUP2 MSTORE PUSH1 0xD PUSH1 0x20 MSTORE PUSH1 0x40 DUP2 KECCAK256 DUP1 SLOAD DUP4 SWAP3 SWAP1 PUSH2 0x2AF3 SWAP1 DUP5 SWAP1 PUSH2 0x5286 JUMP JUMPDEST SWAP1 SWAP2 SSTORE POP POP PUSH1 0x40 DUP1 MLOAD PUSH1 0xA0 DUP2 ADD DUP3 MSTORE CALLER DUP2 MSTORE DUP4 SLOAD PUSH1 0x1 PUSH1 0x1 PUSH1 0xA0 SHL SUB AND PUSH1 0x20 DUP3 ADD MSTORE SWAP1 DUP2 ADD DUP3 SWAP1 MSTORE PUSH1 0x2 DUP4 ADD DUP1 SLOAD PUSH1 0xB SWAP3 SWAP2 PUSH1 0x60 DUP4 ADD SWAP2 PUSH2 0x2B33 SWAP1 PUSH2 0x50A6 JUMP JUMPDEST DUP1 PUSH1 0x1F ADD PUSH1 0x20 DUP1 SWAP2 DIV MUL PUSH1 0x20 ADD PUSH1 0x40 MLOAD SWAP1 DUP2 ADD PUSH1 0x40 MSTORE DUP1 SWAP3 SWAP2 SWAP1 DUP2 DUP2 MSTORE PUSH1 0x20 ADD DUP3 DUP1 SLOAD PUSH2 0x2B5F SWAP1 PUSH2 0x50A6 JUMP JUMPDEST DUP1 ISZERO PUSH2 0x2BAA JUMPI DUP1 PUSH1 0x1F LT PUSH2 0x2B81 JUMPI PUSH2 0x100 DUP1 DUP4 SLOAD DIV MUL DUP4 MSTORE SWAP2 PUSH1 0x20 ADD SWAP2 PUSH2 0x2BAA JUMP JUMPDEST DUP3 ADD SWAP2 SWAP1 PUSH0 MSTORE PUSH1 0x20 PUSH0 KECCAK256 SWAP1 JUMPDEST DUP2 SLOAD DUP2 MSTORE SWAP1 PUSH1 0x1 ADD SWAP1 PUSH1 0x20 ADD DUP1 DUP4 GT PUSH2 0x2B8D JUMPI DUP3 SWAP1 SUB PUSH1 0x1F AND DUP3 ADD SWAP2 JUMPDEST POP POP POP SWAP2 DUP4 MSTORE POP POP PUSH1 0x3 DUP6 DUP2 ADD SLOAD PUSH3 0xFFFFFF AND PUSH1 0x20 SWAP3 DUP4 ADD MSTORE DUP4 SLOAD PUSH1 0x1 DUP1 DUP3 ADD DUP7 SSTORE PUSH0 SWAP6 DUP7 MSTORE SWAP5 DUP4 SWAP1 KECCAK256 DUP5 MLOAD PUSH1 0x5 SWAP1 SWAP3 MUL ADD DUP1 SLOAD PUSH1 0x1 PUSH1 0x1 PUSH1 0xA0 SHL SUB NOT SWAP1 DUP2 AND PUSH1 0x1 PUSH1 0x1 PUSH1 0xA0 SHL SUB SWAP4 DUP5 AND OR DUP3 SSTORE SWAP4 DUP6 ADD MLOAD SWAP6 DUP2 ADD DUP1 SLOAD SWAP1 SWAP5 AND SWAP6 SWAP1 SWAP2 AND SWAP5 SWAP1 SWAP5 OR SWAP1 SWAP2 SSTORE PUSH1 0x40 DUP3 ADD MLOAD PUSH1 0x2 DUP5 ADD SSTORE PUSH1 0x60 DUP3 ADD MLOAD SWAP2 SWAP3 SWAP2 SWAP1 DUP3 ADD SWAP1 PUSH2 0x2C2F SWAP1 DUP3 PUSH2 0x54FB JUMP JUMPDEST POP PUSH1 0x80 SWAP2 SWAP1 SWAP2 ADD MLOAD PUSH1 0x4 SWAP1 SWAP2 ADD DUP1 SLOAD PUSH3 0xFFFFFF NOT AND PUSH3 0xFFFFFF SWAP1 SWAP3 AND SWAP2 SWAP1 SWAP2 OR SWAP1 SSTORE CALLER PUSH0 SWAP1 DUP2 MSTORE PUSH1 0xC PUSH1 0x20 MSTORE PUSH1 0x40 DUP2 KECCAK256 DUP1 SLOAD SWAP2 PUSH2 0x2C6B DUP4 PUSH2 0x55B9 JUMP JUMPDEST SWAP1 SWAP2 SSTORE POP POP DUP2 SLOAD PUSH1 0x40 MLOAD CALLER SWAP2 PUSH32 0xB301E8C1D1E07ED6209DB6D6CC98B8F845197CB3A52A5C0502CA2DF8316E6929 SWAP2 PUSH2 0x2CB3 SWAP2 PUSH1 0x1 PUSH1 0x1 PUSH1 0xA0 SHL SUB AND SWAP1 DUP6 SWAP1 PUSH1 0x2 DUP9 ADD SWAP1 PUSH2 0x560C JUMP JUMPDEST PUSH1 0x40 MLOAD DUP1 SWAP2 SUB SWAP1 LOG2 JUMPDEST POP POP PUSH1 0x1 ADD PUSH2 0x2A16 JUMP JUMPDEST POP POP POP JUMP JUMPDEST PUSH0 PUSH1 0x40 MLOAD PUSH1 0x20 ADD PUSH2 0x2CDB SWAP1 PUSH2 0x52B4 JUMP JUMPDEST PUSH1 0x40 MLOAD PUSH1 0x20 DUP2 DUP4 SUB SUB DUP2 MSTORE SWAP1 PUSH1 0x40 MSTORE DUP1 MLOAD SWAP1 PUSH1 0x20 ADD KECCAK256 DUP4 PUSH1 0x40 MLOAD PUSH1 0x20 ADD PUSH2 0x2D02 SWAP2 SWAP1 PUSH2 0x549A JUMP JUMPDEST PUSH1 0x40 MLOAD PUSH1 0x20 DUP2 DUP4 SUB SUB DUP2 MSTORE SWAP1 PUSH1 0x40 MSTORE DUP1 MLOAD SWAP1 PUSH1 0x20 ADD KECCAK256 SUB PUSH2 0x2EBF JUMPI PUSH1 0x40 DUP1 MLOAD PUSH1 0x2 DUP1 DUP3 MSTORE PUSH1 0x60 DUP3 ADD DUP4 MSTORE PUSH0 SWAP3 PUSH1 0x20 DUP4 ADD SWAP1 DUP1 CALLDATASIZE DUP4 CALLDATACOPY ADD SWAP1 POP POP SWAP1 POP DUP6 DUP2 PUSH0 DUP2 MLOAD DUP2 LT PUSH2 0x2D50 JUMPI PUSH2 0x2D50 PUSH2 0x51BA JUMP JUMPDEST PUSH1 0x1 PUSH1 0x1 PUSH1 0xA0 SHL SUB SWAP3 DUP4 AND PUSH1 0x20 SWAP2 DUP3 MUL SWAP3 SWAP1 SWAP3 ADD DUP2 ADD SWAP2 SWAP1 SWAP2 MSTORE PUSH1 0x7 SLOAD PUSH1 0x40 DUP1 MLOAD PUSH4 0x15AB88C9 PUSH1 0xE3 SHL DUP2 MSTORE SWAP1 MLOAD SWAP2 SWAP1 SWAP4 AND SWAP3 PUSH4 0xAD5C4648 SWAP3 PUSH1 0x4 DUP1 DUP4 ADD SWAP4 SWAP2 SWAP3 DUP3 SWAP1 SUB ADD DUP2 DUP7 GAS STATICCALL ISZERO DUP1 ISZERO PUSH2 0x2DA7 JUMPI RETURNDATASIZE PUSH0 DUP1 RETURNDATACOPY RETURNDATASIZE PUSH0 REVERT JUMPDEST POP POP POP POP PUSH1 0x40 MLOAD RETURNDATASIZE PUSH1 0x1F NOT PUSH1 0x1F DUP3 ADD AND DUP3 ADD DUP1 PUSH1 0x40 MSTORE POP DUP2 ADD SWAP1 PUSH2 0x2DCB SWAP2 SWAP1 PUSH2 0x5333 JUMP JUMPDEST DUP2 PUSH1 0x1 DUP2 MLOAD DUP2 LT PUSH2 0x2DDE JUMPI PUSH2 0x2DDE PUSH2 0x51BA JUMP JUMPDEST PUSH1 0x1 PUSH1 0x1 PUSH1 0xA0 SHL SUB SWAP3 DUP4 AND PUSH1 0x20 SWAP2 DUP3 MUL SWAP3 SWAP1 SWAP3 ADD ADD MSTORE PUSH1 0x7 SLOAD PUSH1 0x40 MLOAD PUSH4 0xD06CA61F PUSH1 0xE0 SHL DUP2 MSTORE PUSH0 SWAP3 SWAP2 SWAP1 SWAP2 AND SWAP1 PUSH4 0xD06CA61F SWAP1 PUSH2 0x2E21 SWAP1 DUP10 SWAP1 DUP7 SWAP1 PUSH1 0x4 ADD PUSH2 0x5391 JUMP JUMPDEST PUSH0 PUSH1 0x40 MLOAD DUP1 DUP4 SUB DUP2 DUP7 GAS STATICCALL ISZERO DUP1 ISZERO PUSH2 0x2E3B JUMPI RETURNDATASIZE PUSH0 DUP1 RETURNDATACOPY RETURNDATASIZE PUSH0 REVERT JUMPDEST POP POP POP POP PUSH1 0x40 MLOAD RETURNDATASIZE PUSH0 DUP3 RETURNDATACOPY PUSH1 0x1F RETURNDATASIZE SWAP1 DUP2 ADD PUSH1 0x1F NOT AND DUP3 ADD PUSH1 0x40 MSTORE PUSH2 0x2E62 SWAP2 SWAP1 DUP2 ADD SWAP1 PUSH2 0x53A9 JUMP JUMPDEST SWAP1 POP PUSH0 PUSH2 0x2710 PUSH1 0x10 SLOAD PUSH2 0x2710 PUSH2 0x2E78 SWAP2 SWAP1 PUSH2 0x51CE JUMP JUMPDEST DUP4 PUSH1 0x1 DUP2 MLOAD DUP2 LT PUSH2 0x2E8B JUMPI PUSH2 0x2E8B PUSH2 0x51BA JUMP JUMPDEST PUSH1 0x20 MUL PUSH1 0x20 ADD ADD MLOAD PUSH2 0x2E9D SWAP2 SWAP1 PUSH2 0x513E JUMP JUMPDEST PUSH2 0x2EA7 SWAP2 SWAP1 PUSH2 0x5155 JUMP JUMPDEST SWAP1 POP PUSH2 0x2EB5 DUP9 DUP9 DUP4 ADDRESS PUSH2 0x3699 JUMP JUMPDEST SWAP4 POP POP POP POP PUSH2 0x3057 JUMP JUMPDEST PUSH1 0x40 MLOAD PUSH1 0x20 ADD PUSH2 0x2ECE SWAP1 PUSH2 0x5430 JUMP JUMPDEST PUSH1 0x40 MLOAD PUSH1 0x20 DUP2 DUP4 SUB SUB DUP2 MSTORE SWAP1 PUSH1 0x40 MSTORE DUP1 MLOAD SWAP1 PUSH1 0x20 ADD KECCAK256 DUP4 PUSH1 0x40 MLOAD PUSH1 0x20 ADD PUSH2 0x2EF5 SWAP2 SWAP1 PUSH2 0x549A JUMP JUMPDEST PUSH1 0x40 MLOAD PUSH1 0x20 DUP2 DUP4 SUB SUB DUP2 MSTORE SWAP1 PUSH1 0x40 MSTORE DUP1 MLOAD SWAP1 PUSH1 0x20 ADD KECCAK256 SUB PUSH2 0x147E JUMPI PUSH0 DUP6 DUP4 PUSH1 0x7 PUSH0 SWAP1 SLOAD SWAP1 PUSH2 0x100 EXP SWAP1 DIV PUSH1 0x1 PUSH1 0x1 PUSH1 0xA0 SHL SUB AND PUSH1 0x1 PUSH1 0x1 PUSH1 0xA0 SHL SUB AND PUSH4 0xAD5C4648 PUSH1 0x40 MLOAD DUP2 PUSH4 0xFFFFFFFF AND PUSH1 0xE0 SHL DUP2 MSTORE PUSH1 0x4 ADD PUSH1 0x20 PUSH1 0x40 MLOAD DUP1 DUP4 SUB DUP2 DUP7 GAS STATICCALL ISZERO DUP1 ISZERO PUSH2 0x2F63 JUMPI RETURNDATASIZE PUSH0 DUP1 RETURNDATACOPY RETURNDATASIZE PUSH0 REVERT JUMPDEST POP POP POP POP PUSH1 0x40 MLOAD RETURNDATASIZE PUSH1 0x1F NOT PUSH1 0x1F DUP3 ADD AND DUP3 ADD DUP1 PUSH1 0x40 MSTORE POP DUP2 ADD SWAP1 PUSH2 0x2F87 SWAP2 SWAP1 PUSH2 0x5333 JUMP JUMPDEST PUSH1 0x40 MLOAD PUSH1 0x20 ADD PUSH2 0x2F99 SWAP4 SWAP3 SWAP2 SWAP1 PUSH2 0x543E JUMP JUMPDEST PUSH1 0x40 DUP1 MLOAD PUSH1 0x1F NOT DUP2 DUP5 SUB ADD DUP2 MSTORE SWAP1 DUP3 SWAP1 MSTORE PUSH1 0x9 SLOAD PUSH4 0xCDCA1753 PUSH1 0xE0 SHL DUP4 MSTORE SWAP1 SWAP3 POP PUSH0 SWAP2 PUSH1 0x1 PUSH1 0x1 PUSH1 0xA0 SHL SUB SWAP1 SWAP2 AND SWAP1 PUSH4 0xCDCA1753 SWAP1 PUSH2 0x2FDE SWAP1 DUP6 SWAP1 DUP11 SWAP1 PUSH1 0x4 ADD PUSH2 0x5479 JUMP JUMPDEST PUSH1 0x20 PUSH1 0x40 MLOAD DUP1 DUP4 SUB DUP2 PUSH0 DUP8 GAS CALL ISZERO DUP1 ISZERO PUSH2 0x2FFA JUMPI RETURNDATASIZE PUSH0 DUP1 RETURNDATACOPY RETURNDATASIZE PUSH0 REVERT JUMPDEST POP POP POP POP PUSH1 0x40 MLOAD RETURNDATASIZE PUSH1 0x1F NOT PUSH1 0x1F DUP3 ADD AND DUP3 ADD DUP1 PUSH1 0x40 MSTORE POP DUP2 ADD SWAP1 PUSH2 0x301E SWAP2 SWAP1 PUSH2 0x5113 JUMP JUMPDEST SWAP1 POP PUSH0 PUSH2 0x2710 PUSH1 0x10 SLOAD PUSH2 0x2710 PUSH2 0x3034 SWAP2 SWAP1 PUSH2 0x51CE JUMP JUMPDEST PUSH2 0x303E SWAP1 DUP5 PUSH2 0x513E JUMP JUMPDEST PUSH2 0x3048 SWAP2 SWAP1 PUSH2 0x5155 JUMP JUMPDEST SWAP1 POP PUSH2 0x2EB5 DUP9 DUP9 DUP8 DUP5 ADDRESS PUSH2 0x3884 JUMP JUMPDEST SWAP5 SWAP4 POP POP POP POP JUMP JUMPDEST PUSH2 0x3067 PUSH2 0x353D JUMP JUMPDEST PUSH1 0x1 PUSH1 0x1 PUSH1 0xA0 SHL SUB DUP2 AND PUSH2 0x3090 JUMPI PUSH1 0x40 MLOAD PUSH4 0x1E4FBDF7 PUSH1 0xE0 SHL DUP2 MSTORE PUSH0 PUSH1 0x4 DUP3 ADD MSTORE PUSH1 0x24 ADD PUSH2 0x8B4 JUMP JUMPDEST PUSH2 0x3099 DUP2 PUSH2 0x3ECC JUMP JUMPDEST POP JUMP JUMPDEST PUSH2 0x30A4 PUSH2 0x353D JUMP JUMPDEST PUSH0 DUP1 JUMPDEST PUSH1 0x6 SLOAD DUP2 LT ISZERO PUSH2 0x351B JUMPI PUSH0 PUSH1 0x6 DUP3 DUP2 SLOAD DUP2 LT PUSH2 0x30C5 JUMPI PUSH2 0x30C5 PUSH2 0x51BA JUMP JUMPDEST PUSH0 SWAP2 DUP3 MSTORE PUSH1 0x20 DUP3 KECCAK256 PUSH1 0x4 SWAP2 DUP3 MUL ADD DUP1 SLOAD PUSH1 0x40 MLOAD PUSH4 0x70A08231 PUSH1 0xE0 SHL DUP2 MSTORE ADDRESS SWAP4 DUP2 ADD SWAP4 SWAP1 SWAP4 MSTORE SWAP1 SWAP4 POP PUSH1 0x1 PUSH1 0x1 PUSH1 0xA0 SHL SUB AND SWAP1 PUSH4 0x70A08231 SWAP1 PUSH1 0x24 ADD PUSH1 0x20 PUSH1 0x40 MLOAD DUP1 DUP4 SUB DUP2 DUP7 GAS STATICCALL ISZERO DUP1 ISZERO PUSH2 0x311B JUMPI RETURNDATASIZE PUSH0 DUP1 RETURNDATACOPY RETURNDATASIZE PUSH0 REVERT JUMPDEST POP POP POP POP PUSH1 0x40 MLOAD RETURNDATASIZE PUSH1 0x1F NOT PUSH1 0x1F DUP3 ADD AND DUP3 ADD DUP1 PUSH1 0x40 MSTORE POP DUP2 ADD SWAP1 PUSH2 0x313F SWAP2 SWAP1 PUSH2 0x5113 JUMP JUMPDEST SWAP1 POP PUSH1 0x40 MLOAD PUSH1 0x20 ADD PUSH2 0x3150 SWAP1 PUSH2 0x52B4 JUMP JUMPDEST PUSH1 0x40 MLOAD PUSH1 0x20 DUP2 DUP4 SUB SUB DUP2 MSTORE SWAP1 PUSH1 0x40 MSTORE DUP1 MLOAD SWAP1 PUSH1 0x20 ADD KECCAK256 DUP3 PUSH1 0x2 ADD PUSH1 0x40 MLOAD PUSH1 0x20 ADD PUSH2 0x317A SWAP2 SWAP1 PUSH2 0x52C2 JUMP JUMPDEST PUSH1 0x40 MLOAD PUSH1 0x20 DUP2 DUP4 SUB SUB DUP2 MSTORE SWAP1 PUSH1 0x40 MSTORE DUP1 MLOAD SWAP1 PUSH1 0x20 ADD KECCAK256 SUB PUSH2 0x3358 JUMPI PUSH1 0x40 DUP1 MLOAD PUSH1 0x2 DUP1 DUP3 MSTORE PUSH1 0x60 DUP3 ADD DUP4 MSTORE PUSH0 SWAP3 PUSH1 0x20 DUP4 ADD SWAP1 DUP1 CALLDATASIZE DUP4 CALLDATACOPY POP POP DUP5 SLOAD DUP3 MLOAD SWAP3 SWAP4 POP PUSH1 0x1 PUSH1 0x1 PUSH1 0xA0 SHL SUB AND SWAP2 DUP4 SWAP2 POP PUSH0 SWAP1 PUSH2 0x31D3 JUMPI PUSH2 0x31D3 PUSH2 0x51BA JUMP JUMPDEST PUSH1 0x1 PUSH1 0x1 PUSH1 0xA0 SHL SUB SWAP3 DUP4 AND PUSH1 0x20 SWAP2 DUP3 MUL SWAP3 SWAP1 SWAP3 ADD DUP2 ADD SWAP2 SWAP1 SWAP2 MSTORE PUSH1 0x7 SLOAD PUSH1 0x40 DUP1 MLOAD PUSH4 0x15AB88C9 PUSH1 0xE3 SHL DUP2 MSTORE SWAP1 MLOAD SWAP2 SWAP1 SWAP4 AND SWAP3 PUSH4 0xAD5C4648 SWAP3 PUSH1 0x4 DUP1 DUP4 ADD SWAP4 SWAP2 SWAP3 DUP3 SWAP1 SUB ADD DUP2 DUP7 GAS STATICCALL ISZERO DUP1 ISZERO PUSH2 0x322A JUMPI RETURNDATASIZE PUSH0 DUP1 RETURNDATACOPY RETURNDATASIZE PUSH0 REVERT JUMPDEST POP POP POP POP PUSH1 0x40 MLOAD RETURNDATASIZE PUSH1 0x1F NOT PUSH1 0x1F DUP3 ADD AND DUP3 ADD DUP1 PUSH1 0x40 MSTORE POP DUP2 ADD SWAP1 PUSH2 0x324E SWAP2 SWAP1 PUSH2 0x5333 JUMP JUMPDEST DUP2 PUSH1 0x1 DUP2 MLOAD DUP2 LT PUSH2 0x3261 JUMPI PUSH2 0x3261 PUSH2 0x51BA JUMP JUMPDEST PUSH1 0x1 PUSH1 0x1 PUSH1 0xA0 SHL SUB SWAP3 DUP4 AND PUSH1 0x20 SWAP2 DUP3 MUL SWAP3 SWAP1 SWAP3 ADD ADD MSTORE PUSH1 0x7 SLOAD PUSH1 0x40 MLOAD PUSH4 0xD06CA61F PUSH1 0xE0 SHL DUP2 MSTORE PUSH0 SWAP3 SWAP2 SWAP1 SWAP2 AND SWAP1 PUSH4 0xD06CA61F SWAP1 PUSH2 0x32A4 SWAP1 DUP7 SWAP1 DUP7 SWAP1 PUSH1 0x4 ADD PUSH2 0x5391 JUMP JUMPDEST PUSH0 PUSH1 0x40 MLOAD DUP1 DUP4 SUB DUP2 DUP7 GAS STATICCALL ISZERO DUP1 ISZERO PUSH2 0x32BE JUMPI RETURNDATASIZE PUSH0 DUP1 RETURNDATACOPY RETURNDATASIZE PUSH0 REVERT JUMPDEST POP POP POP POP PUSH1 0x40 MLOAD RETURNDATASIZE PUSH0 DUP3 RETURNDATACOPY PUSH1 0x1F RETURNDATASIZE SWAP1 DUP2 ADD PUSH1 0x1F NOT AND DUP3 ADD PUSH1 0x40 MSTORE PUSH2 0x32E5 SWAP2 SWAP1 DUP2 ADD SWAP1 PUSH2 0x53A9 JUMP JUMPDEST SWAP1 POP PUSH0 PUSH2 0x2710 PUSH1 0x10 SLOAD PUSH2 0x2710 PUSH2 0x32FB SWAP2 SWAP1 PUSH2 0x51CE JUMP JUMPDEST DUP4 PUSH1 0x1 DUP2 MLOAD DUP2 LT PUSH2 0x330E JUMPI PUSH2 0x330E PUSH2 0x51BA JUMP JUMPDEST PUSH1 0x20 MUL PUSH1 0x20 ADD ADD MLOAD PUSH2 0x3320 SWAP2 SWAP1 PUSH2 0x513E JUMP JUMPDEST PUSH2 0x332A SWAP2 SWAP1 PUSH2 0x5155 JUMP JUMPDEST DUP6 SLOAD SWAP1 SWAP2 POP PUSH2 0x3344 SWAP1 PUSH1 0x1 PUSH1 0x1 PUSH1 0xA0 SHL SUB AND DUP6 DUP4 CALLER PUSH2 0x3699 JUMP JUMPDEST PUSH2 0x334E SWAP1 DUP9 PUSH2 0x5286 JUMP JUMPDEST SWAP7 POP POP POP POP PUSH2 0x3511 JUMP JUMPDEST PUSH1 0x40 MLOAD PUSH1 0x20 ADD PUSH2 0x3367 SWAP1 PUSH2 0x5430 JUMP JUMPDEST PUSH1 0x40 MLOAD PUSH1 0x20 DUP2 DUP4 SUB SUB DUP2 MSTORE SWAP1 PUSH1 0x40 MSTORE DUP1 MLOAD SWAP1 PUSH1 0x20 ADD KECCAK256 DUP3 PUSH1 0x2 ADD PUSH1 0x40 MLOAD PUSH1 0x20 ADD PUSH2 0x3391 SWAP2 SWAP1 PUSH2 0x52C2 JUMP JUMPDEST PUSH1 0x40 MLOAD PUSH1 0x20 DUP2 DUP4 SUB SUB DUP2 MSTORE SWAP1 PUSH1 0x40 MSTORE DUP1 MLOAD SWAP1 PUSH1 0x20 ADD KECCAK256 SUB PUSH2 0x147E JUMPI DUP2 SLOAD PUSH1 0x3 DUP4 ADD SLOAD PUSH1 0x7 SLOAD PUSH1 0x40 DUP1 MLOAD PUSH4 0x15AB88C9 PUSH1 0xE3 SHL DUP2 MSTORE SWAP1 MLOAD PUSH0 SWAP5 PUSH1 0x1 PUSH1 0x1 PUSH1 0xA0 SHL SUB SWAP1 DUP2 AND SWAP5 PUSH3 0xFFFFFF AND SWAP4 AND SWAP2 PUSH4 0xAD5C4648 SWAP2 PUSH1 0x4 DUP1 DUP4 ADD SWAP3 PUSH1 0x20 SWAP3 SWAP2 SWAP1 DUP3 SWAP1 SUB ADD DUP2 DUP7 GAS STATICCALL ISZERO DUP1 ISZERO PUSH2 0x3404 JUMPI RETURNDATASIZE PUSH0 DUP1 RETURNDATACOPY RETURNDATASIZE PUSH0 REVERT JUMPDEST POP POP POP POP PUSH1 0x40 MLOAD RETURNDATASIZE PUSH1 0x1F NOT PUSH1 0x1F DUP3 ADD AND DUP3 ADD DUP1 PUSH1 0x40 MSTORE POP DUP2 ADD SWAP1 PUSH2 0x3428 SWAP2 SWAP1 PUSH2 0x5333 JUMP JUMPDEST PUSH1 0x40 MLOAD PUSH1 0x20 ADD PUSH2 0x343A SWAP4 SWAP3 SWAP2 SWAP1 PUSH2 0x543E JUMP JUMPDEST PUSH1 0x40 DUP1 MLOAD PUSH1 0x1F NOT DUP2 DUP5 SUB ADD DUP2 MSTORE SWAP1 DUP3 SWAP1 MSTORE PUSH1 0x9 SLOAD PUSH4 0xCDCA1753 PUSH1 0xE0 SHL DUP4 MSTORE SWAP1 SWAP3 POP PUSH0 SWAP2 PUSH1 0x1 PUSH1 0x1 PUSH1 0xA0 SHL SUB SWAP1 SWAP2 AND SWAP1 PUSH4 0xCDCA1753 SWAP1 PUSH2 0x347F SWAP1 DUP6 SWAP1 DUP8 SWAP1 PUSH1 0x4 ADD PUSH2 0x5479 JUMP JUMPDEST PUSH1 0x20 PUSH1 0x40 MLOAD DUP1 DUP4 SUB DUP2 PUSH0 DUP8 GAS CALL ISZERO DUP1 ISZERO PUSH2 0x349B JUMPI RETURNDATASIZE PUSH0 DUP1 RETURNDATACOPY RETURNDATASIZE PUSH0 REVERT JUMPDEST POP POP POP POP PUSH1 0x40 MLOAD RETURNDATASIZE PUSH1 0x1F NOT PUSH1 0x1F DUP3 ADD AND DUP3 ADD DUP1 PUSH1 0x40 MSTORE POP DUP2 ADD SWAP1 PUSH2 0x34BF SWAP2 SWAP1 PUSH2 0x5113 JUMP JUMPDEST SWAP1 POP PUSH0 PUSH2 0x2710 PUSH1 0x10 SLOAD PUSH2 0x2710 PUSH2 0x34D5 SWAP2 SWAP1 PUSH2 0x51CE JUMP JUMPDEST PUSH2 0x34DF SWAP1 DUP5 PUSH2 0x513E JUMP JUMPDEST PUSH2 0x34E9 SWAP2 SWAP1 PUSH2 0x5155 JUMP JUMPDEST DUP6 SLOAD PUSH1 0x3 DUP8 ADD SLOAD SWAP2 SWAP3 POP PUSH2 0x3344 SWAP2 PUSH1 0x1 PUSH1 0x1 PUSH1 0xA0 SHL SUB SWAP1 SWAP2 AND SWAP1 DUP7 SWAP1 PUSH3 0xFFFFFF AND DUP5 CALLER PUSH2 0x3884 JUMP JUMPDEST POP POP PUSH1 0x1 ADD PUSH2 0x30A7 JUMP JUMPDEST POP PUSH0 CALLER PUSH1 0x1 PUSH1 0x1 PUSH1 0xA0 SHL SUB AND DUP3 PUSH1 0x40 MLOAD PUSH2 0x26AB JUMP JUMPDEST PUSH2 0x2CC6 DUP4 DUP4 DUP4 PUSH1 0x1 PUSH2 0x49A3 JUMP JUMPDEST PUSH0 SLOAD PUSH1 0x1 PUSH1 0x1 PUSH1 0xA0 SHL SUB AND CALLER EQ PUSH2 0x20B2 JUMPI PUSH1 0x40 MLOAD PUSH4 0x118CDAA7 PUSH1 0xE0 SHL DUP2 MSTORE CALLER PUSH1 0x4 DUP3 ADD MSTORE PUSH1 0x24 ADD PUSH2 0x8B4 JUMP JUMPDEST PUSH1 0x1 PUSH1 0x1 PUSH1 0xA0 SHL SUB DUP4 DUP2 AND PUSH0 SWAP1 DUP2 MSTORE PUSH1 0x2 PUSH1 0x20 SWAP1 DUP2 MSTORE PUSH1 0x40 DUP1 DUP4 KECCAK256 SWAP4 DUP7 AND DUP4 MSTORE SWAP3 SWAP1 MSTORE KECCAK256 SLOAD PUSH0 NOT DUP2 EQ PUSH2 0x1B0C JUMPI DUP2 DUP2 LT ISZERO PUSH2 0x35D0 JUMPI PUSH1 0x40 MLOAD PUSH4 0x7DC7A0D9 PUSH1 0xE1 SHL DUP2 MSTORE PUSH1 0x1 PUSH1 0x1 PUSH1 0xA0 SHL SUB DUP5 AND PUSH1 0x4 DUP3 ADD MSTORE PUSH1 0x24 DUP2 ADD DUP3 SWAP1 MSTORE PUSH1 0x44 DUP2 ADD DUP4 SWAP1 MSTORE PUSH1 0x64 ADD PUSH2 0x8B4 JUMP JUMPDEST PUSH2 0x1B0C DUP5 DUP5 DUP5 DUP5 SUB PUSH0 PUSH2 0x49A3 JUMP JUMPDEST PUSH1 0x1 PUSH1 0x1 PUSH1 0xA0 SHL SUB DUP4 AND PUSH2 0x3607 JUMPI PUSH1 0x40 MLOAD PUSH4 0x4B637E8F PUSH1 0xE1 SHL DUP2 MSTORE PUSH0 PUSH1 0x4 DUP3 ADD MSTORE PUSH1 0x24 ADD PUSH2 0x8B4 JUMP JUMPDEST PUSH1 0x1 PUSH1 0x1 PUSH1 0xA0 SHL SUB DUP3 AND PUSH2 0x3630 JUMPI PUSH1 0x40 MLOAD PUSH4 0xEC442F05 PUSH1 0xE0 SHL DUP2 MSTORE PUSH0 PUSH1 0x4 DUP3 ADD MSTORE PUSH1 0x24 ADD PUSH2 0x8B4 JUMP JUMPDEST PUSH2 0x2CC6 DUP4 DUP4 DUP4 PUSH2 0x4A75 JUMP JUMPDEST PUSH0 SLOAD PUSH1 0x1 PUSH1 0xA0 SHL SWAP1 DIV PUSH1 0xFF AND ISZERO PUSH2 0x20B2 JUMPI PUSH1 0x40 MLOAD PUSH4 0xD93C0665 PUSH1 0xE0 SHL DUP2 MSTORE PUSH1 0x4 ADD PUSH1 0x40 MLOAD DUP1 SWAP2 SUB SWAP1 REVERT JUMPDEST PUSH1 0x1 PUSH1 0x1 PUSH1 0xA0 SHL SUB DUP3 AND PUSH2 0x368E JUMPI PUSH1 0x40 MLOAD PUSH4 0x4B637E8F PUSH1 0xE1 SHL DUP2 MSTORE PUSH0 PUSH1 0x4 DUP3 ADD MSTORE PUSH1 0x24 ADD PUSH2 0x8B4 JUMP JUMPDEST PUSH2 0x1EBD DUP3 PUSH0 DUP4 PUSH2 0x4A75 JUMP JUMPDEST PUSH1 0x40 DUP1 MLOAD PUSH1 0x2 DUP1 DUP3 MSTORE PUSH1 0x60 DUP3 ADD DUP4 MSTORE PUSH0 SWAP3 DUP4 SWAP3 SWAP2 SWAP1 PUSH1 0x20 DUP4 ADD SWAP1 DUP1 CALLDATASIZE DUP4 CALLDATACOPY ADD SWAP1 POP POP SWAP1 POP DUP6 DUP2 PUSH0 DUP2 MLOAD DUP2 LT PUSH2 0x36D0 JUMPI PUSH2 0x36D0 PUSH2 0x51BA JUMP JUMPDEST PUSH1 0x1 PUSH1 0x1 PUSH1 0xA0 SHL SUB SWAP3 DUP4 AND PUSH1 0x20 SWAP2 DUP3 MUL SWAP3 SWAP1 SWAP3 ADD DUP2 ADD SWAP2 SWAP1 SWAP2 MSTORE PUSH1 0x7 SLOAD PUSH1 0x40 DUP1 MLOAD PUSH4 0x15AB88C9 PUSH1 0xE3 SHL DUP2 MSTORE SWAP1 MLOAD SWAP2 SWAP1 SWAP4 AND SWAP3 PUSH4 0xAD5C4648 SWAP3 PUSH1 0x4 DUP1 DUP4 ADD SWAP4 SWAP2 SWAP3 DUP3 SWAP1 SUB ADD DUP2 DUP7 GAS STATICCALL ISZERO DUP1 ISZERO PUSH2 0x3727 JUMPI RETURNDATASIZE PUSH0 DUP1 RETURNDATACOPY RETURNDATASIZE PUSH0 REVERT JUMPDEST POP POP POP POP PUSH1 0x40 MLOAD RETURNDATASIZE PUSH1 0x1F NOT PUSH1 0x1F DUP3 ADD AND DUP3 ADD DUP1 PUSH1 0x40 MSTORE POP DUP2 ADD SWAP1 PUSH2 0x374B SWAP2 SWAP1 PUSH2 0x5333 JUMP JUMPDEST DUP2 PUSH1 0x1 DUP2 MLOAD DUP2 LT PUSH2 0x375E JUMPI PUSH2 0x375E PUSH2 0x51BA JUMP JUMPDEST PUSH1 0x1 PUSH1 0x1 PUSH1 0xA0 SHL SUB SWAP3 DUP4 AND PUSH1 0x20 SWAP2 DUP3 MUL SWAP3 SWAP1 SWAP3 ADD ADD MSTORE PUSH1 0x7 SLOAD PUSH1 0x40 MLOAD PUSH4 0x95EA7B3 PUSH1 0xE0 SHL DUP2 MSTORE SWAP1 DUP3 AND PUSH1 0x4 DUP3 ADD MSTORE PUSH1 0x24 DUP2 ADD DUP8 SWAP1 MSTORE SWAP1 DUP8 AND SWAP1 PUSH4 0x95EA7B3 SWAP1 PUSH1 0x44 ADD PUSH1 0x20 PUSH1 0x40 MLOAD DUP1 DUP4 SUB DUP2 PUSH0 DUP8 GAS CALL ISZERO DUP1 ISZERO PUSH2 0x37BC JUMPI RETURNDATASIZE PUSH0 DUP1 RETURNDATACOPY RETURNDATASIZE PUSH0 REVERT JUMPDEST POP POP POP POP PUSH1 0x40 MLOAD RETURNDATASIZE PUSH1 0x1F NOT PUSH1 0x1F DUP3 ADD AND DUP3 ADD DUP1 PUSH1 0x40 MSTORE POP DUP2 ADD SWAP1 PUSH2 0x37E0 SWAP2 SWAP1 PUSH2 0x5299 JUMP JUMPDEST POP PUSH1 0x7 SLOAD PUSH1 0x40 MLOAD PUSH4 0x18CBAFE5 PUSH1 0xE0 SHL DUP2 MSTORE PUSH0 SWAP2 PUSH1 0x1 PUSH1 0x1 PUSH1 0xA0 SHL SUB AND SWAP1 PUSH4 0x18CBAFE5 SWAP1 PUSH2 0x3819 SWAP1 DUP10 SWAP1 DUP10 SWAP1 DUP8 SWAP1 DUP11 SWAP1 TIMESTAMP SWAP1 PUSH1 0x4 ADD PUSH2 0x5632 JUMP JUMPDEST PUSH0 PUSH1 0x40 MLOAD DUP1 DUP4 SUB DUP2 PUSH0 DUP8 GAS CALL ISZERO DUP1 ISZERO PUSH2 0x3834 JUMPI RETURNDATASIZE PUSH0 DUP1 RETURNDATACOPY RETURNDATASIZE PUSH0 REVERT JUMPDEST POP POP POP POP PUSH1 0x40 MLOAD RETURNDATASIZE PUSH0 DUP3 RETURNDATACOPY PUSH1 0x1F RETURNDATASIZE SWAP1 DUP2 ADD PUSH1 0x1F NOT AND DUP3 ADD PUSH1 0x40 MSTORE PUSH2 0x385B SWAP2 SWAP1 DUP2 ADD SWAP1 PUSH2 0x53A9 JUMP JUMPDEST SWAP1 POP DUP1 PUSH1 0x1 DUP2 MLOAD DUP2 LT PUSH2 0x3870 JUMPI PUSH2 0x3870 PUSH2 0x51BA JUMP JUMPDEST PUSH1 0x20 MUL PUSH1 0x20 ADD ADD MLOAD SWAP3 POP POP POP SWAP5 SWAP4 POP POP POP POP JUMP JUMPDEST PUSH0 DUP1 PUSH1 0x40 MLOAD DUP1 PUSH2 0x100 ADD PUSH1 0x40 MSTORE DUP1 DUP9 PUSH1 0x1 PUSH1 0x1 PUSH1 0xA0 SHL SUB AND DUP2 MSTORE PUSH1 0x20 ADD PUSH1 0x7 PUSH0 SWAP1 SLOAD SWAP1 PUSH2 0x100 EXP SWAP1 DIV PUSH1 0x1 PUSH1 0x1 PUSH1 0xA0 SHL SUB AND PUSH1 0x1 PUSH1 0x1 PUSH1 0xA0 SHL SUB AND PUSH4 0xAD5C4648 PUSH1 0x40 MLOAD DUP2 PUSH4 0xFFFFFFFF AND PUSH1 0xE0 SHL DUP2 MSTORE PUSH1 0x4 ADD PUSH1 0x20 PUSH1 0x40 MLOAD DUP1 DUP4 SUB DUP2 DUP7 GAS STATICCALL ISZERO DUP1 ISZERO PUSH2 0x38F1 JUMPI RETURNDATASIZE PUSH0 DUP1 RETURNDATACOPY RETURNDATASIZE PUSH0 REVERT JUMPDEST POP POP POP POP PUSH1 0x40 MLOAD RETURNDATASIZE PUSH1 0x1F NOT PUSH1 0x1F DUP3 ADD AND DUP3 ADD DUP1 PUSH1 0x40 MSTORE POP DUP2 ADD SWAP1 PUSH2 0x3915 SWAP2 SWAP1 PUSH2 0x5333 JUMP JUMPDEST PUSH1 0x1 PUSH1 0x1 PUSH1 0xA0 SHL SUB SWAP1 DUP2 AND DUP3 MSTORE PUSH3 0xFFFFFF DUP9 AND PUSH1 0x20 DUP4 ADD MSTORE DUP6 DUP2 AND PUSH1 0x40 DUP1 DUP5 ADD SWAP2 SWAP1 SWAP2 MSTORE TIMESTAMP PUSH1 0x60 DUP5 ADD MSTORE PUSH1 0x80 DUP4 ADD DUP11 SWAP1 MSTORE PUSH1 0xA0 DUP4 ADD DUP9 SWAP1 MSTORE PUSH0 PUSH1 0xC0 SWAP1 SWAP4 ADD SWAP3 SWAP1 SWAP3 MSTORE PUSH1 0x8 SLOAD SWAP2 MLOAD PUSH4 0x95EA7B3 PUSH1 0xE0 SHL DUP2 MSTORE SWAP2 DUP2 AND PUSH1 0x4 DUP4 ADD MSTORE PUSH1 0x24 DUP3 ADD DUP10 SWAP1 MSTORE SWAP2 SWAP3 POP SWAP1 DUP9 AND SWAP1 PUSH4 0x95EA7B3 SWAP1 PUSH1 0x44 ADD PUSH1 0x20 PUSH1 0x40 MLOAD DUP1 DUP4 SUB DUP2 PUSH0 DUP8 GAS CALL ISZERO DUP1 ISZERO PUSH2 0x39A1 JUMPI RETURNDATASIZE PUSH0 DUP1 RETURNDATACOPY RETURNDATASIZE PUSH0 REVERT JUMPDEST POP POP POP POP PUSH1 0x40 MLOAD RETURNDATASIZE PUSH1 0x1F NOT PUSH1 0x1F DUP3 ADD AND DUP3 ADD DUP1 PUSH1 0x40 MSTORE POP DUP2 ADD SWAP1 PUSH2 0x39C5 SWAP2 SWAP1 PUSH2 0x5299 JUMP JUMPDEST POP PUSH1 0x8 SLOAD PUSH1 0x40 MLOAD PUSH4 0x414BF389 PUSH1 0xE0 SHL DUP2 MSTORE PUSH1 0x1 PUSH1 0x1 PUSH1 0xA0 SHL SUB SWAP1 SWAP2 AND SWAP1 PUSH4 0x414BF389 SWAP1 PUSH2 0x39F6 SWAP1 DUP5 SWAP1 PUSH1 0x4 ADD PUSH2 0x566D JUMP JUMPDEST PUSH1 0x20 PUSH1 0x40 MLOAD DUP1 DUP4 SUB DUP2 PUSH0 DUP8 GAS CALL ISZERO DUP1 ISZERO PUSH2 0x3A12 JUMPI RETURNDATASIZE PUSH0 DUP1 RETURNDATACOPY RETURNDATASIZE PUSH0 REVERT JUMPDEST POP POP POP POP PUSH1 0x40 MLOAD RETURNDATASIZE PUSH1 0x1F NOT PUSH1 0x1F DUP3 ADD AND DUP3 ADD DUP1 PUSH1 0x40 MSTORE POP DUP2 ADD SWAP1 PUSH2 0x3A36 SWAP2 SWAP1 PUSH2 0x5113 JUMP JUMPDEST SWAP8 SWAP7 POP POP POP POP POP POP POP JUMP JUMPDEST PUSH1 0x40 DUP1 MLOAD PUSH1 0x2 DUP1 DUP3 MSTORE PUSH1 0x60 DUP1 DUP4 ADD DUP5 MSTORE SWAP3 PUSH0 SWAP3 SWAP2 SWAP1 PUSH1 0x20 DUP4 ADD SWAP1 DUP1 CALLDATASIZE DUP4 CALLDATACOPY POP POP PUSH1 0x7 SLOAD PUSH1 0x40 DUP1 MLOAD PUSH4 0x15AB88C9 PUSH1 0xE3 SHL DUP2 MSTORE SWAP1 MLOAD SWAP4 SWAP5 POP PUSH1 0x1 PUSH1 0x1 PUSH1 0xA0 SHL SUB SWAP1 SWAP2 AND SWAP3 PUSH4 0xAD5C4648 SWAP3 POP PUSH1 0x4 DUP1 DUP4 ADD SWAP3 PUSH1 0x20 SWAP3 SWAP2 SWAP1 DUP3 SWAP1 SUB ADD DUP2 DUP7 GAS STATICCALL ISZERO DUP1 ISZERO PUSH2 0x3AAC JUMPI RETURNDATASIZE PUSH0 DUP1 RETURNDATACOPY RETURNDATASIZE PUSH0 REVERT JUMPDEST POP POP POP POP PUSH1 0x40 MLOAD RETURNDATASIZE PUSH1 0x1F NOT PUSH1 0x1F DUP3 ADD AND DUP3 ADD DUP1 PUSH1 0x40 MSTORE POP DUP2 ADD SWAP1 PUSH2 0x3AD0 SWAP2 SWAP1 PUSH2 0x5333 JUMP JUMPDEST DUP2 PUSH0 DUP2 MLOAD DUP2 LT PUSH2 0x3AE2 JUMPI PUSH2 0x3AE2 PUSH2 0x51BA JUMP JUMPDEST PUSH1 0x20 MUL PUSH1 0x20 ADD ADD SWAP1 PUSH1 0x1 PUSH1 0x1 PUSH1 0xA0 SHL SUB AND SWAP1 DUP2 PUSH1 0x1 PUSH1 0x1 PUSH1 0xA0 SHL SUB AND DUP2 MSTORE POP POP DUP5 DUP2 PUSH1 0x1 DUP2 MLOAD DUP2 LT PUSH2 0x3B16 JUMPI PUSH2 0x3B16 PUSH2 0x51BA JUMP JUMPDEST PUSH1 0x1 PUSH1 0x1 PUSH1 0xA0 SHL SUB SWAP3 DUP4 AND PUSH1 0x20 SWAP2 DUP3 MUL SWAP3 SWAP1 SWAP3 ADD ADD MSTORE PUSH1 0x7 SLOAD PUSH1 0x40 MLOAD PUSH4 0x7FF36AB5 PUSH1 0xE0 SHL DUP2 MSTORE SWAP2 AND SWAP1 PUSH4 0x7FF36AB5 SWAP1 DUP7 SWAP1 PUSH2 0x3B5B SWAP1 DUP8 SWAP1 DUP7 SWAP1 ADDRESS SWAP1 TIMESTAMP SWAP1 PUSH1 0x4 ADD PUSH2 0x56E3 JUMP JUMPDEST PUSH0 PUSH1 0x40 MLOAD DUP1 DUP4 SUB DUP2 DUP6 DUP9 GAS CALL ISZERO DUP1 ISZERO PUSH2 0x3B76 JUMPI RETURNDATASIZE PUSH0 DUP1 RETURNDATACOPY RETURNDATASIZE PUSH0 REVERT JUMPDEST POP POP POP POP POP PUSH1 0x40 MLOAD RETURNDATASIZE PUSH0 DUP3 RETURNDATACOPY PUSH1 0x1F RETURNDATASIZE SWAP1 DUP2 ADD PUSH1 0x1F NOT AND DUP3 ADD PUSH1 0x40 MSTORE PUSH2 0x3B9E SWAP2 SWAP1 DUP2 ADD SWAP1 PUSH2 0x53A9 JUMP JUMPDEST SWAP6 SWAP5 POP POP POP POP POP JUMP JUMPDEST PUSH1 0x40 DUP1 MLOAD PUSH2 0x100 DUP2 ADD DUP1 DUP4 MSTORE PUSH1 0x7 SLOAD PUSH4 0x15AB88C9 PUSH1 0xE3 SHL SWAP1 SWAP2 MSTORE SWAP2 MLOAD PUSH1 0x60 SWAP3 PUSH0 SWAP3 SWAP2 DUP3 SWAP2 PUSH1 0x1 PUSH1 0x1 PUSH1 0xA0 SHL SUB AND SWAP1 PUSH4 0xAD5C4648 SWAP1 PUSH2 0x104 DUP1 DUP6 ADD SWAP2 PUSH1 0x20 SWAP2 DUP2 DUP8 SUB ADD DUP2 DUP7 GAS STATICCALL ISZERO DUP1 ISZERO PUSH2 0x3BFC JUMPI RETURNDATASIZE PUSH0 DUP1 RETURNDATACOPY RETURNDATASIZE PUSH0 REVERT JUMPDEST POP POP POP POP PUSH1 0x40 MLOAD RETURNDATASIZE PUSH1 0x1F NOT PUSH1 0x1F DUP3 ADD AND DUP3 ADD DUP1 PUSH1 0x40 MSTORE POP DUP2 ADD SWAP1 PUSH2 0x3C20 SWAP2 SWAP1 PUSH2 0x5333 JUMP JUMPDEST PUSH1 0x1 PUSH1 0x1 PUSH1 0xA0 SHL SUB SWAP1 DUP2 AND DUP3 MSTORE DUP9 DUP2 AND PUSH1 0x20 DUP4 ADD MSTORE PUSH3 0xFFFFFF DUP8 AND PUSH1 0x40 DUP1 DUP5 ADD SWAP2 SWAP1 SWAP2 MSTORE ADDRESS PUSH1 0x60 DUP5 ADD MSTORE TIMESTAMP PUSH1 0x80 DUP5 ADD MSTORE PUSH1 0xA0 DUP4 ADD DUP10 SWAP1 MSTORE PUSH1 0xC0 DUP4 ADD DUP8 SWAP1 MSTORE PUSH0 PUSH1 0xE0 SWAP1 SWAP4 ADD SWAP3 SWAP1 SWAP3 MSTORE PUSH1 0x8 SLOAD SWAP2 MLOAD PUSH4 0x414BF389 PUSH1 0xE0 SHL DUP2 MSTORE SWAP3 SWAP4 POP AND SWAP1 PUSH4 0x414BF389 SWAP1 DUP8 SWAP1 PUSH2 0x3C92 SWAP1 DUP6 SWAP1 PUSH1 0x4 ADD PUSH2 0x566D JUMP JUMPDEST PUSH1 0x20 PUSH1 0x40 MLOAD DUP1 DUP4 SUB DUP2 DUP6 DUP9 GAS CALL ISZERO DUP1 ISZERO PUSH2 0x3CAE JUMPI RETURNDATASIZE PUSH0 DUP1 RETURNDATACOPY RETURNDATASIZE PUSH0 REVERT JUMPDEST POP POP POP POP POP PUSH1 0x40 MLOAD RETURNDATASIZE PUSH1 0x1F NOT PUSH1 0x1F DUP3 ADD AND DUP3 ADD DUP1 PUSH1 0x40 MSTORE POP DUP2 ADD SWAP1 PUSH2 0x3CD3 SWAP2 SWAP1 PUSH2 0x5113 JUMP JUMPDEST DUP3 PUSH1 0x1 DUP2 MLOAD DUP2 LT PUSH2 0x3CE6 JUMPI PUSH2 0x3CE6 PUSH2 0x51BA JUMP JUMPDEST PUSH1 0x20 MUL PUSH1 0x20 ADD ADD DUP2 DUP2 MSTORE POP POP DUP5 DUP3 PUSH0 DUP2 MLOAD DUP2 LT PUSH2 0x3D05 JUMPI PUSH2 0x3D05 PUSH2 0x51BA JUMP JUMPDEST PUSH1 0x20 MUL PUSH1 0x20 ADD ADD DUP2 DUP2 MSTORE POP POP POP SWAP5 SWAP4 POP POP POP POP JUMP JUMPDEST PUSH1 0xB SLOAD DUP2 LT PUSH2 0x3D5B JUMPI PUSH1 0x40 MLOAD PUSH3 0x461BCD PUSH1 0xE5 SHL DUP2 MSTORE PUSH1 0x20 PUSH1 0x4 DUP3 ADD MSTORE PUSH1 0xD PUSH1 0x24 DUP3 ADD MSTORE PUSH13 0x92DCECC2D8D2C840D2DCC8CAF PUSH1 0x9B SHL PUSH1 0x44 DUP3 ADD MSTORE PUSH1 0x64 ADD PUSH2 0x8B4 JUMP JUMPDEST PUSH1 0xB DUP1 SLOAD PUSH2 0x3D6B SWAP1 PUSH1 0x1 SWAP1 PUSH2 0x51CE JUMP JUMPDEST DUP2 SLOAD DUP2 LT PUSH2 0x3D7B JUMPI PUSH2 0x3D7B PUSH2 0x51BA JUMP JUMPDEST SWAP1 PUSH0 MSTORE PUSH1 0x20 PUSH0 KECCAK256 SWAP1 PUSH1 0x5 MUL ADD PUSH1 0xB DUP3 DUP2 SLOAD DUP2 LT PUSH2 0x3D9A JUMPI PUSH2 0x3D9A PUSH2 0x51BA JUMP JUMPDEST PUSH0 SWAP2 DUP3 MSTORE PUSH1 0x20 SWAP1 SWAP2 KECCAK256 DUP3 SLOAD PUSH1 0x5 SWAP1 SWAP3 MUL ADD DUP1 SLOAD PUSH1 0x1 PUSH1 0x1 PUSH1 0xA0 SHL SUB SWAP3 DUP4 AND PUSH1 0x1 PUSH1 0x1 PUSH1 0xA0 SHL SUB NOT SWAP2 DUP3 AND OR DUP3 SSTORE PUSH1 0x1 DUP1 DUP6 ADD SLOAD SWAP1 DUP4 ADD DUP1 SLOAD SWAP2 SWAP1 SWAP5 AND SWAP2 AND OR SWAP1 SWAP2 SSTORE PUSH1 0x2 DUP1 DUP4 ADD SLOAD SWAP1 DUP3 ADD SSTORE PUSH1 0x3 DUP1 DUP3 ADD SWAP1 PUSH2 0x3DF8 SWAP1 DUP5 ADD DUP3 PUSH2 0x5717 JUMP JUMPDEST POP PUSH1 0x4 SWAP2 DUP3 ADD SLOAD SWAP2 ADD DUP1 SLOAD PUSH3 0xFFFFFF NOT AND PUSH3 0xFFFFFF SWAP1 SWAP3 AND SWAP2 SWAP1 SWAP2 OR SWAP1 SSTORE PUSH1 0xB DUP1 SLOAD DUP1 PUSH2 0x3E27 JUMPI PUSH2 0x3E27 PUSH2 0x57E4 JUMP JUMPDEST PUSH0 DUP3 DUP2 MSTORE PUSH1 0x20 DUP2 KECCAK256 PUSH1 0x5 PUSH0 NOT SWAP1 SWAP4 ADD SWAP3 DUP4 MUL ADD DUP1 SLOAD PUSH1 0x1 PUSH1 0x1 PUSH1 0xA0 SHL SUB NOT SWAP1 DUP2 AND DUP3 SSTORE PUSH1 0x1 DUP3 ADD DUP1 SLOAD SWAP1 SWAP2 AND SWAP1 SSTORE PUSH1 0x2 DUP2 ADD DUP3 SWAP1 SSTORE SWAP1 PUSH2 0x3E6A PUSH1 0x3 DUP4 ADD DUP3 PUSH2 0x4BC4 JUMP JUMPDEST POP PUSH1 0x4 ADD DUP1 SLOAD PUSH3 0xFFFFFF NOT AND SWAP1 SSTORE SWAP1 SSTORE POP JUMP JUMPDEST PUSH2 0x3E85 PUSH2 0x4B9B JUMP JUMPDEST PUSH0 DUP1 SLOAD PUSH1 0xFF PUSH1 0xA0 SHL NOT AND SWAP1 SSTORE PUSH32 0x5DB9EE0A495BF2E6FF9C91A7834C1BA4FDD244A5E8AA4E537BD38AEAE4B073AA CALLER JUMPDEST PUSH1 0x40 MLOAD PUSH1 0x1 PUSH1 0x1 PUSH1 0xA0 SHL SUB SWAP1 SWAP2 AND DUP2 MSTORE PUSH1 0x20 ADD PUSH2 0x1EFD JUMP JUMPDEST PUSH0 DUP1 SLOAD PUSH1 0x1 PUSH1 0x1 PUSH1 0xA0 SHL SUB DUP4 DUP2 AND PUSH1 0x1 PUSH1 0x1 PUSH1 0xA0 SHL SUB NOT DUP4 AND DUP2 OR DUP5 SSTORE PUSH1 0x40 MLOAD SWAP2 SWAP1 SWAP3 AND SWAP3 DUP4 SWAP2 PUSH32 0x8BE0079C531659141344CD1FD0A4F28419497F9722A3DAAFE3B4186F6B6457E0 SWAP2 SWAP1 LOG3 POP POP JUMP JUMPDEST PUSH0 PUSH2 0x3F26 DUP4 DUP4 PUSH2 0x513E JUMP JUMPDEST SWAP4 SWAP3 POP POP POP JUMP JUMPDEST PUSH0 PUSH1 0x40 MLOAD PUSH1 0x20 ADD PUSH2 0x3F3D SWAP1 PUSH2 0x52B4 JUMP JUMPDEST PUSH1 0x40 MLOAD PUSH1 0x20 DUP2 DUP4 SUB SUB DUP2 MSTORE SWAP1 PUSH1 0x40 MSTORE DUP1 MLOAD SWAP1 PUSH1 0x20 ADD KECCAK256 DUP4 PUSH1 0x40 MLOAD PUSH1 0x20 ADD PUSH2 0x3F64 SWAP2 SWAP1 PUSH2 0x549A JUMP JUMPDEST PUSH1 0x40 MLOAD PUSH1 0x20 DUP2 DUP4 SUB SUB DUP2 MSTORE SWAP1 PUSH1 0x40 MSTORE DUP1 MLOAD SWAP1 PUSH1 0x20 ADD KECCAK256 SUB PUSH2 0x4138 JUMPI PUSH1 0x40 DUP1 MLOAD PUSH1 0x2 DUP1 DUP3 MSTORE PUSH1 0x60 DUP3 ADD DUP4 MSTORE PUSH0 SWAP3 PUSH1 0x20 DUP4 ADD SWAP1 DUP1 CALLDATASIZE DUP4 CALLDATACOPY ADD SWAP1 POP POP SWAP1 POP DUP6 DUP2 PUSH0 DUP2 MLOAD DUP2 LT PUSH2 0x3FB2 JUMPI PUSH2 0x3FB2 PUSH2 0x51BA JUMP JUMPDEST PUSH1 0x1 PUSH1 0x1 PUSH1 0xA0 SHL SUB SWAP3 DUP4 AND PUSH1 0x20 SWAP2 DUP3 MUL SWAP3 SWAP1 SWAP3 ADD DUP2 ADD SWAP2 SWAP1 SWAP2 MSTORE PUSH1 0x7 SLOAD PUSH1 0x40 DUP1 MLOAD PUSH4 0x15AB88C9 PUSH1 0xE3 SHL DUP2 MSTORE SWAP1 MLOAD SWAP2 SWAP1 SWAP4 AND SWAP3 PUSH4 0xAD5C4648 SWAP3 PUSH1 0x4 DUP1 DUP4 ADD SWAP4 SWAP2 SWAP3 DUP3 SWAP1 SUB ADD DUP2 DUP7 GAS STATICCALL ISZERO DUP1 ISZERO PUSH2 0x4009 JUMPI RETURNDATASIZE PUSH0 DUP1 RETURNDATACOPY RETURNDATASIZE PUSH0 REVERT JUMPDEST POP POP POP POP PUSH1 0x40 MLOAD RETURNDATASIZE PUSH1 0x1F NOT PUSH1 0x1F DUP3 ADD AND DUP3 ADD DUP1 PUSH1 0x40 MSTORE POP DUP2 ADD SWAP1 PUSH2 0x402D SWAP2 SWAP1 PUSH2 0x5333 JUMP JUMPDEST DUP2 PUSH1 0x1 DUP2 MLOAD DUP2 LT PUSH2 0x4040 JUMPI PUSH2 0x4040 PUSH2 0x51BA JUMP JUMPDEST PUSH1 0x1 PUSH1 0x1 PUSH1 0xA0 SHL SUB SWAP3 DUP4 AND PUSH1 0x20 SWAP2 DUP3 MUL SWAP3 SWAP1 SWAP3 ADD ADD MSTORE PUSH1 0x7 SLOAD PUSH1 0x40 MLOAD PUSH4 0xD06CA61F PUSH1 0xE0 SHL DUP2 MSTORE PUSH0 SWAP3 SWAP2 SWAP1 SWAP2 AND SWAP1 PUSH4 0xD06CA61F SWAP1 PUSH2 0x4083 SWAP1 DUP10 SWAP1 DUP7 SWAP1 PUSH1 0x4 ADD PUSH2 0x5391 JUMP JUMPDEST PUSH0 PUSH1 0x40 MLOAD DUP1 DUP4 SUB DUP2 DUP7 GAS STATICCALL ISZERO DUP1 ISZERO PUSH2 0x409D JUMPI RETURNDATASIZE PUSH0 DUP1 RETURNDATACOPY RETURNDATASIZE PUSH0 REVERT JUMPDEST POP POP POP POP PUSH1 0x40 MLOAD RETURNDATASIZE PUSH0 DUP3 RETURNDATACOPY PUSH1 0x1F RETURNDATASIZE SWAP1 DUP2 ADD PUSH1 0x1F NOT AND DUP3 ADD PUSH1 0x40 MSTORE PUSH2 0x40C4 SWAP2 SWAP1 DUP2 ADD SWAP1 PUSH2 0x53A9 JUMP JUMPDEST SWAP1 POP PUSH0 PUSH2 0x2710 PUSH1 0x10 SLOAD PUSH2 0x2710 PUSH2 0x40DA SWAP2 SWAP1 PUSH2 0x51CE JUMP JUMPDEST DUP4 PUSH1 0x1 DUP2 MLOAD DUP2 LT PUSH2 0x40ED JUMPI PUSH2 0x40ED PUSH2 0x51BA JUMP JUMPDEST PUSH1 0x20 MUL PUSH1 0x20 ADD ADD MLOAD PUSH2 0x40FF SWAP2 SWAP1 PUSH2 0x513E JUMP JUMPDEST PUSH2 0x4109 SWAP2 SWAP1 PUSH2 0x5155 JUMP JUMPDEST SWAP1 POP PUSH2 0x4117 DUP9 DUP9 DUP4 ADDRESS PUSH2 0x3699 JUMP JUMPDEST SWAP4 POP DUP4 PUSH1 0x12 PUSH0 DUP3 DUP3 SLOAD PUSH2 0x412A SWAP2 SWAP1 PUSH2 0x5286 JUMP JUMPDEST SWAP1 SWAP2 SSTORE POP PUSH2 0x3057 SWAP4 POP POP POP POP JUMP JUMPDEST PUSH1 0x40 MLOAD PUSH1 0x20 ADD PUSH2 0x4147 SWAP1 PUSH2 0x5430 JUMP JUMPDEST PUSH1 0x40 MLOAD PUSH1 0x20 DUP2 DUP4 SUB SUB DUP2 MSTORE SWAP1 PUSH1 0x40 MSTORE DUP1 MLOAD SWAP1 PUSH1 0x20 ADD KECCAK256 DUP4 PUSH1 0x40 MLOAD PUSH1 0x20 ADD PUSH2 0x416E SWAP2 SWAP1 PUSH2 0x549A JUMP JUMPDEST PUSH1 0x40 MLOAD PUSH1 0x20 DUP2 DUP4 SUB SUB DUP2 MSTORE SWAP1 PUSH1 0x40 MSTORE DUP1 MLOAD SWAP1 PUSH1 0x20 ADD KECCAK256 SUB PUSH2 0x147E JUMPI PUSH0 DUP6 DUP4 PUSH1 0x7 PUSH0 SWAP1 SLOAD SWAP1 PUSH2 0x100 EXP SWAP1 DIV PUSH1 0x1 PUSH1 0x1 PUSH1 0xA0 SHL SUB AND PUSH1 0x1 PUSH1 0x1 PUSH1 0xA0 SHL SUB AND PUSH4 0xAD5C4648 PUSH1 0x40 MLOAD DUP2 PUSH4 0xFFFFFFFF AND PUSH1 0xE0 SHL DUP2 MSTORE PUSH1 0x4 ADD PUSH1 0x20 PUSH1 0x40 MLOAD DUP1 DUP4 SUB DUP2 DUP7 GAS STATICCALL ISZERO DUP1 ISZERO PUSH2 0x41DC JUMPI RETURNDATASIZE PUSH0 DUP1 RETURNDATACOPY RETURNDATASIZE PUSH0 REVERT JUMPDEST POP POP POP POP PUSH1 0x40 MLOAD RETURNDATASIZE PUSH1 0x1F NOT PUSH1 0x1F DUP3 ADD AND DUP3 ADD DUP1 PUSH1 0x40 MSTORE POP DUP2 ADD SWAP1 PUSH2 0x4200 SWAP2 SWAP1 PUSH2 0x5333 JUMP JUMPDEST PUSH1 0x40 MLOAD PUSH1 0x20 ADD PUSH2 0x4212 SWAP4 SWAP3 SWAP2 SWAP1 PUSH2 0x543E JUMP JUMPDEST PUSH1 0x40 DUP1 MLOAD PUSH1 0x1F NOT DUP2 DUP5 SUB ADD DUP2 MSTORE SWAP1 DUP3 SWAP1 MSTORE PUSH1 0x9 SLOAD PUSH4 0xCDCA1753 PUSH1 0xE0 SHL DUP4 MSTORE SWAP1 SWAP3 POP PUSH0 SWAP2 PUSH1 0x1 PUSH1 0x1 PUSH1 0xA0 SHL SUB SWAP1 SWAP2 AND SWAP1 PUSH4 0xCDCA1753 SWAP1 PUSH2 0x4257 SWAP1 DUP6 SWAP1 DUP11 SWAP1 PUSH1 0x4 ADD PUSH2 0x5479 JUMP JUMPDEST PUSH1 0x20 PUSH1 0x40 MLOAD DUP1 DUP4 SUB DUP2 PUSH0 DUP8 GAS CALL ISZERO DUP1 ISZERO PUSH2 0x4273 JUMPI RETURNDATASIZE PUSH0 DUP1 RETURNDATACOPY RETURNDATASIZE PUSH0 REVERT JUMPDEST POP POP POP POP PUSH1 0x40 MLOAD RETURNDATASIZE PUSH1 0x1F NOT PUSH1 0x1F DUP3 ADD AND DUP3 ADD DUP1 PUSH1 0x40 MSTORE POP DUP2 ADD SWAP1 PUSH2 0x4297 SWAP2 SWAP1 PUSH2 0x5113 JUMP JUMPDEST SWAP1 POP PUSH0 PUSH2 0x2710 PUSH1 0x10 SLOAD PUSH2 0x2710 PUSH2 0x42AD SWAP2 SWAP1 PUSH2 0x51CE JUMP JUMPDEST PUSH2 0x42B7 SWAP1 DUP5 PUSH2 0x513E JUMP JUMPDEST PUSH2 0x42C1 SWAP2 SWAP1 PUSH2 0x5155 JUMP JUMPDEST SWAP1 POP PUSH2 0x4117 DUP9 DUP9 DUP8 DUP5 ADDRESS PUSH2 0x3884 JUMP JUMPDEST PUSH1 0x40 MLOAD PUSH1 0x20 ADD PUSH2 0x42DF SWAP1 PUSH2 0x52B4 JUMP JUMPDEST PUSH1 0x40 MLOAD PUSH1 0x20 DUP2 DUP4 SUB SUB DUP2 MSTORE SWAP1 PUSH1 0x40 MSTORE DUP1 MLOAD SWAP1 PUSH1 0x20 ADD KECCAK256 DUP3 PUSH1 0x40 MLOAD PUSH1 0x20 ADD PUSH2 0x4306 SWAP2 SWAP1 PUSH2 0x549A JUMP JUMPDEST PUSH1 0x40 MLOAD PUSH1 0x20 DUP2 DUP4 SUB SUB DUP2 MSTORE SWAP1 PUSH1 0x40 MSTORE DUP1 MLOAD SWAP1 PUSH1 0x20 ADD KECCAK256 SUB PUSH2 0x4675 JUMPI PUSH1 0x40 DUP1 MLOAD PUSH1 0x2 DUP1 DUP3 MSTORE PUSH1 0x60 DUP3 ADD DUP4 MSTORE PUSH0 SWAP3 PUSH1 0x20 DUP4 ADD SWAP1 DUP1 CALLDATASIZE DUP4 CALLDATACOPY POP POP PUSH1 0x7 SLOAD PUSH1 0x40 DUP1 MLOAD PUSH4 0x15AB88C9 PUSH1 0xE3 SHL DUP2 MSTORE SWAP1 MLOAD SWAP4 SWAP5 POP PUSH1 0x1 PUSH1 0x1 PUSH1 0xA0 SHL SUB SWAP1 SWAP2 AND SWAP3 PUSH4 0xAD5C4648 SWAP3 POP PUSH1 0x4 DUP1 DUP4 ADD SWAP3 PUSH1 0x20 SWAP3 SWAP2 SWAP1 DUP3 SWAP1 SUB ADD DUP2 DUP7 GAS STATICCALL ISZERO DUP1 ISZERO PUSH2 0x4388 JUMPI RETURNDATASIZE PUSH0 DUP1 RETURNDATACOPY RETURNDATASIZE PUSH0 REVERT JUMPDEST POP POP POP POP PUSH1 0x40 MLOAD RETURNDATASIZE PUSH1 0x1F NOT PUSH1 0x1F DUP3 ADD AND DUP3 ADD DUP1 PUSH1 0x40 MSTORE POP DUP2 ADD SWAP1 PUSH2 0x43AC SWAP2 SWAP1 PUSH2 0x5333 JUMP JUMPDEST DUP2 PUSH0 DUP2 MLOAD DUP2 LT PUSH2 0x43BE JUMPI PUSH2 0x43BE PUSH2 0x51BA JUMP JUMPDEST PUSH1 0x20 MUL PUSH1 0x20 ADD ADD SWAP1 PUSH1 0x1 PUSH1 0x1 PUSH1 0xA0 SHL SUB AND SWAP1 DUP2 PUSH1 0x1 PUSH1 0x1 PUSH1 0xA0 SHL SUB AND DUP2 MSTORE POP POP DUP5 DUP2 PUSH1 0x1 DUP2 MLOAD DUP2 LT PUSH2 0x43F2 JUMPI PUSH2 0x43F2 PUSH2 0x51BA JUMP JUMPDEST PUSH1 0x1 PUSH1 0x1 PUSH1 0xA0 SHL SUB SWAP3 DUP4 AND PUSH1 0x20 SWAP2 DUP3 MUL SWAP3 SWAP1 SWAP3 ADD ADD MSTORE PUSH1 0x7 SLOAD PUSH1 0x40 MLOAD PUSH4 0x7C0329D PUSH1 0xE2 SHL DUP2 MSTORE PUSH0 SWAP3 SWAP2 SWAP1 SWAP2 AND SWAP1 PUSH4 0x1F00CA74 SWAP1 PUSH2 0x4435 SWAP1 DUP9 SWAP1 DUP7 SWAP1 PUSH1 0x4 ADD PUSH2 0x5391 JUMP JUMPDEST PUSH0 PUSH1 0x40 MLOAD DUP1 DUP4 SUB DUP2 DUP7 GAS STATICCALL ISZERO DUP1 ISZERO PUSH2 0x444F JUMPI RETURNDATASIZE PUSH0 DUP1 RETURNDATACOPY RETURNDATASIZE PUSH0 REVERT JUMPDEST POP POP POP POP PUSH1 0x40 MLOAD RETURNDATASIZE PUSH0 DUP3 RETURNDATACOPY PUSH1 0x1F RETURNDATASIZE SWAP1 DUP2 ADD PUSH1 0x1F NOT AND DUP3 ADD PUSH1 0x40 MSTORE PUSH2 0x4476 SWAP2 SWAP1 DUP2 ADD SWAP1 PUSH2 0x53A9 JUMP JUMPDEST SWAP1 POP DUP1 PUSH1 0x1 DUP2 MLOAD DUP2 LT PUSH2 0x448B JUMPI PUSH2 0x448B PUSH2 0x51BA JUMP JUMPDEST PUSH1 0x20 MUL PUSH1 0x20 ADD ADD MLOAD PUSH1 0x12 SLOAD GT ISZERO PUSH2 0x45A1 JUMPI PUSH1 0x7 SLOAD DUP2 MLOAD PUSH0 SWAP2 PUSH1 0x1 PUSH1 0x1 PUSH1 0xA0 SHL SUB AND SWAP1 PUSH4 0xD06CA61F SWAP1 DUP5 SWAP1 PUSH1 0x1 SWAP1 DUP2 LT PUSH2 0x44C6 JUMPI PUSH2 0x44C6 PUSH2 0x51BA JUMP JUMPDEST PUSH1 0x20 MUL PUSH1 0x20 ADD ADD MLOAD DUP6 PUSH1 0x40 MLOAD DUP4 PUSH4 0xFFFFFFFF AND PUSH1 0xE0 SHL DUP2 MSTORE PUSH1 0x4 ADD PUSH2 0x44EC SWAP3 SWAP2 SWAP1 PUSH2 0x5391 JUMP JUMPDEST PUSH0 PUSH1 0x40 MLOAD DUP1 DUP4 SUB DUP2 DUP7 GAS STATICCALL ISZERO DUP1 ISZERO PUSH2 0x4506 JUMPI RETURNDATASIZE PUSH0 DUP1 RETURNDATACOPY RETURNDATASIZE PUSH0 REVERT JUMPDEST POP POP POP POP PUSH1 0x40 MLOAD RETURNDATASIZE PUSH0 DUP3 RETURNDATACOPY PUSH1 0x1F RETURNDATASIZE SWAP1 DUP2 ADD PUSH1 0x1F NOT AND DUP3 ADD PUSH1 0x40 MSTORE PUSH2 0x452D SWAP2 SWAP1 DUP2 ADD SWAP1 PUSH2 0x53A9 JUMP JUMPDEST SWAP1 POP PUSH0 PUSH2 0x2710 PUSH1 0x10 SLOAD PUSH2 0x2710 PUSH2 0x4543 SWAP2 SWAP1 PUSH2 0x51CE JUMP JUMPDEST DUP4 PUSH1 0x1 DUP2 MLOAD DUP2 LT PUSH2 0x4556 JUMPI PUSH2 0x4556 PUSH2 0x51BA JUMP JUMPDEST PUSH1 0x20 MUL PUSH1 0x20 ADD ADD MLOAD PUSH2 0x4568 SWAP2 SWAP1 PUSH2 0x513E JUMP JUMPDEST PUSH2 0x4572 SWAP2 SWAP1 PUSH2 0x5155 JUMP JUMPDEST SWAP1 POP PUSH2 0x4599 DUP9 DUP5 PUSH1 0x1 DUP2 MLOAD DUP2 LT PUSH2 0x458B JUMPI PUSH2 0x458B PUSH2 0x51BA JUMP JUMPDEST PUSH1 0x20 MUL PUSH1 0x20 ADD ADD MLOAD DUP4 PUSH2 0x3A41 JUMP JUMPDEST POP POP POP PUSH2 0x466E JUMP JUMPDEST PUSH1 0x7 SLOAD PUSH1 0x12 SLOAD PUSH1 0x40 MLOAD PUSH4 0xD06CA61F PUSH1 0xE0 SHL DUP2 MSTORE PUSH0 SWAP3 PUSH1 0x1 PUSH1 0x1 PUSH1 0xA0 SHL SUB AND SWAP2 PUSH4 0xD06CA61F SWAP2 PUSH2 0x45D5 SWAP2 SWAP1 DUP8 SWAP1 PUSH1 0x4 ADD PUSH2 0x5391 JUMP JUMPDEST PUSH0 PUSH1 0x40 MLOAD DUP1 DUP4 SUB DUP2 DUP7 GAS STATICCALL ISZERO DUP1 ISZERO PUSH2 0x45EF JUMPI RETURNDATASIZE PUSH0 DUP1 RETURNDATACOPY RETURNDATASIZE PUSH0 REVERT JUMPDEST POP POP POP POP PUSH1 0x40 MLOAD RETURNDATASIZE PUSH0 DUP3 RETURNDATACOPY PUSH1 0x1F RETURNDATASIZE SWAP1 DUP2 ADD PUSH1 0x1F NOT AND DUP3 ADD PUSH1 0x40 MSTORE PUSH2 0x4616 SWAP2 SWAP1 DUP2 ADD SWAP1 PUSH2 0x53A9 JUMP JUMPDEST SWAP1 POP PUSH0 PUSH2 0x2710 PUSH1 0x10 SLOAD PUSH2 0x2710 PUSH2 0x462C SWAP2 SWAP1 PUSH2 0x51CE JUMP JUMPDEST DUP4 PUSH1 0x1 DUP2 MLOAD DUP2 LT PUSH2 0x463F JUMPI PUSH2 0x463F PUSH2 0x51BA JUMP JUMPDEST PUSH1 0x20 MUL PUSH1 0x20 ADD ADD MLOAD PUSH2 0x4651 SWAP2 SWAP1 PUSH2 0x513E JUMP JUMPDEST PUSH2 0x465B SWAP2 SWAP1 PUSH2 0x5155 JUMP JUMPDEST SWAP1 POP PUSH2 0x466A DUP9 PUSH1 0x12 SLOAD DUP4 PUSH2 0x3A41 JUMP JUMPDEST POP POP POP JUMPDEST POP POP PUSH2 0x1B0C JUMP JUMPDEST PUSH1 0x40 MLOAD PUSH1 0x20 ADD PUSH2 0x4684 SWAP1 PUSH2 0x5430 JUMP JUMPDEST PUSH1 0x40 MLOAD PUSH1 0x20 DUP2 DUP4 SUB SUB DUP2 MSTORE SWAP1 PUSH1 0x40 MSTORE DUP1 MLOAD SWAP1 PUSH1 0x20 ADD KECCAK256 DUP3 PUSH1 0x40 MLOAD PUSH1 0x20 ADD PUSH2 0x46AB SWAP2 SWAP1 PUSH2 0x549A JUMP JUMPDEST PUSH1 0x40 MLOAD PUSH1 0x20 DUP2 DUP4 SUB SUB DUP2 MSTORE SWAP1 PUSH1 0x40 MSTORE DUP1 MLOAD SWAP1 PUSH1 0x20 ADD KECCAK256 SUB PUSH2 0x147E JUMPI PUSH1 0x7 SLOAD PUSH1 0x40 DUP1 MLOAD PUSH4 0x15AB88C9 PUSH1 0xE3 SHL DUP2 MSTORE SWAP1 MLOAD PUSH0 SWAP3 PUSH1 0x1 PUSH1 0x1 PUSH1 0xA0 SHL SUB AND SWAP2 PUSH4 0xAD5C4648 SWAP2 PUSH1 0x4 DUP1 DUP4 ADD SWAP3 PUSH1 0x20 SWAP3 SWAP2 SWAP1 DUP3 SWAP1 SUB ADD DUP2 DUP7 GAS STATICCALL ISZERO DUP1 ISZERO PUSH2 0x470D JUMPI RETURNDATASIZE PUSH0 DUP1 RETURNDATACOPY RETURNDATASIZE PUSH0 REVERT JUMPDEST POP POP POP POP PUSH1 0x40 MLOAD RETURNDATASIZE PUSH1 0x1F NOT PUSH1 0x1F DUP3 ADD AND DUP3 ADD DUP1 PUSH1 0x40 MSTORE POP DUP2 ADD SWAP1 PUSH2 0x4731 SWAP2 SWAP1 PUSH2 0x5333 JUMP JUMPDEST DUP3 DUP7 PUSH1 0x40 MLOAD PUSH1 0x20 ADD PUSH2 0x4745 SWAP4 SWAP3 SWAP2 SWAP1 PUSH2 0x543E JUMP JUMPDEST PUSH1 0x40 DUP1 MLOAD PUSH1 0x1F NOT DUP2 DUP5 SUB ADD DUP2 MSTORE SWAP1 DUP3 SWAP1 MSTORE PUSH1 0x9 SLOAD PUSH4 0x2F80BB1D PUSH1 0xE0 SHL DUP4 MSTORE SWAP1 SWAP3 POP PUSH0 SWAP2 PUSH1 0x1 PUSH1 0x1 PUSH1 0xA0 SHL SUB SWAP1 SWAP2 AND SWAP1 PUSH4 0x2F80BB1D SWAP1 PUSH2 0x478A SWAP1 DUP6 SWAP1 DUP10 SWAP1 PUSH1 0x4 ADD PUSH2 0x5479 JUMP JUMPDEST PUSH1 0x20 PUSH1 0x40 MLOAD DUP1 DUP4 SUB DUP2 PUSH0 DUP8 GAS CALL ISZERO DUP1 ISZERO PUSH2 0x47A6 JUMPI RETURNDATASIZE PUSH0 DUP1 RETURNDATACOPY RETURNDATASIZE PUSH0 REVERT JUMPDEST POP POP POP POP PUSH1 0x40 MLOAD RETURNDATASIZE PUSH1 0x1F NOT PUSH1 0x1F DUP3 ADD AND DUP3 ADD DUP1 PUSH1 0x40 MSTORE POP DUP2 ADD SWAP1 PUSH2 0x47CA SWAP2 SWAP1 PUSH2 0x5113 JUMP JUMPDEST SWAP1 POP DUP1 PUSH1 0x12 SLOAD GT ISZERO PUSH2 0x4880 JUMPI PUSH1 0x9 SLOAD PUSH1 0x40 MLOAD PUSH4 0xCDCA1753 PUSH1 0xE0 SHL DUP2 MSTORE PUSH0 SWAP2 PUSH1 0x1 PUSH1 0x1 PUSH1 0xA0 SHL SUB AND SWAP1 PUSH4 0xCDCA1753 SWAP1 PUSH2 0x4808 SWAP1 DUP7 SWAP1 DUP7 SWAP1 PUSH1 0x4 ADD PUSH2 0x5479 JUMP JUMPDEST PUSH1 0x20 PUSH1 0x40 MLOAD DUP1 DUP4 SUB DUP2 PUSH0 DUP8 GAS CALL ISZERO DUP1 ISZERO PUSH2 0x4824 JUMPI RETURNDATASIZE PUSH0 DUP1 RETURNDATACOPY RETURNDATASIZE PUSH0 REVERT JUMPDEST POP POP POP POP PUSH1 0x40 MLOAD RETURNDATASIZE PUSH1 0x1F NOT PUSH1 0x1F DUP3 ADD AND DUP3 ADD DUP1 PUSH1 0x40 MSTORE POP DUP2 ADD SWAP1 PUSH2 0x4848 SWAP2 SWAP1 PUSH2 0x5113 JUMP JUMPDEST SWAP1 POP PUSH0 PUSH2 0x2710 PUSH1 0x10 SLOAD PUSH2 0x2710 PUSH2 0x485E SWAP2 SWAP1 PUSH2 0x51CE JUMP JUMPDEST PUSH2 0x4868 SWAP1 DUP5 PUSH2 0x513E JUMP JUMPDEST PUSH2 0x4872 SWAP2 SWAP1 PUSH2 0x5155 JUMP JUMPDEST SWAP1 POP PUSH2 0x4599 DUP9 DUP5 DUP8 DUP5 PUSH2 0x3BA7 JUMP JUMPDEST PUSH1 0x9 SLOAD PUSH1 0x12 SLOAD PUSH1 0x40 MLOAD PUSH4 0xCDCA1753 PUSH1 0xE0 SHL DUP2 MSTORE PUSH0 SWAP3 PUSH1 0x1 PUSH1 0x1 PUSH1 0xA0 SHL SUB AND SWAP2 PUSH4 0xCDCA1753 SWAP2 PUSH2 0x48B3 SWAP2 DUP8 SWAP2 PUSH1 0x4 ADD PUSH2 0x5479 JUMP JUMPDEST PUSH1 0x20 PUSH1 0x40 MLOAD DUP1 DUP4 SUB DUP2 PUSH0 DUP8 GAS CALL ISZERO DUP1 ISZERO PUSH2 0x48CF JUMPI RETURNDATASIZE PUSH0 DUP1 RETURNDATACOPY RETURNDATASIZE PUSH0 REVERT JUMPDEST POP POP POP POP PUSH1 0x40 MLOAD RETURNDATASIZE PUSH1 0x1F NOT PUSH1 0x1F DUP3 ADD AND DUP3 ADD DUP1 PUSH1 0x40 MSTORE POP DUP2 ADD SWAP1 PUSH2 0x48F3 SWAP2 SWAP1 PUSH2 0x5113 JUMP JUMPDEST SWAP1 POP PUSH0 PUSH2 0x2710 PUSH1 0x10 SLOAD PUSH2 0x2710 PUSH2 0x4909 SWAP2 SWAP1 PUSH2 0x51CE JUMP JUMPDEST PUSH2 0x4913 SWAP1 DUP5 PUSH2 0x513E JUMP JUMPDEST PUSH2 0x491D SWAP2 SWAP1 PUSH2 0x5155 JUMP JUMPDEST SWAP1 POP PUSH2 0x466A DUP9 PUSH1 0x12 SLOAD DUP8 DUP5 PUSH2 0x3BA7 JUMP JUMPDEST PUSH2 0x4935 PUSH2 0x363B JUMP JUMPDEST PUSH0 DUP1 SLOAD PUSH1 0xFF PUSH1 0xA0 SHL NOT AND PUSH1 0x1 PUSH1 0xA0 SHL OR SWAP1 SSTORE PUSH32 0x62E78CEA01BEE320CD4E420270B5EA74000D11B0C9F74754EBDBFC544B05A258 PUSH2 0x3EB4 CALLER SWAP1 JUMP JUMPDEST PUSH1 0x1 PUSH1 0x1 PUSH1 0xA0 SHL SUB DUP3 AND PUSH2 0x4998 JUMPI PUSH1 0x40 MLOAD PUSH4 0xEC442F05 PUSH1 0xE0 SHL DUP2 MSTORE PUSH0 PUSH1 0x4 DUP3 ADD MSTORE PUSH1 0x24 ADD PUSH2 0x8B4 JUMP JUMPDEST PUSH2 0x1EBD PUSH0 DUP4 DUP4 PUSH2 0x4A75 JUMP JUMPDEST PUSH1 0x1 PUSH1 0x1 PUSH1 0xA0 SHL SUB DUP5 AND PUSH2 0x49CC JUMPI PUSH1 0x40 MLOAD PUSH4 0xE602DF05 PUSH1 0xE0 SHL DUP2 MSTORE PUSH0 PUSH1 0x4 DUP3 ADD MSTORE PUSH1 0x24 ADD PUSH2 0x8B4 JUMP JUMPDEST PUSH1 0x1 PUSH1 0x1 PUSH1 0xA0 SHL SUB DUP4 AND PUSH2 0x49F5 JUMPI PUSH1 0x40 MLOAD PUSH4 0x4A1406B1 PUSH1 0xE1 SHL DUP2 MSTORE PUSH0 PUSH1 0x4 DUP3 ADD MSTORE PUSH1 0x24 ADD PUSH2 0x8B4 JUMP JUMPDEST PUSH1 0x1 PUSH1 0x1 PUSH1 0xA0 SHL SUB DUP1 DUP6 AND PUSH0 SWAP1 DUP2 MSTORE PUSH1 0x2 PUSH1 0x20 SWAP1 DUP2 MSTORE PUSH1 0x40 DUP1 DUP4 KECCAK256 SWAP4 DUP8 AND DUP4 MSTORE SWAP3 SWAP1 MSTORE KECCAK256 DUP3 SWAP1 SSTORE DUP1 ISZERO PUSH2 0x1B0C JUMPI DUP3 PUSH1 0x1 PUSH1 0x1 PUSH1 0xA0 SHL SUB AND DUP5 PUSH1 0x1 PUSH1 0x1 PUSH1 0xA0 SHL SUB AND PUSH32 0x8C5BE1E5EBEC7D5BD14F71427D1E84F3DD0314C0F7B2291E5B200AC8C7C3B925 DUP5 PUSH1 0x40 MLOAD PUSH2 0x4A67 SWAP2 DUP2 MSTORE PUSH1 0x20 ADD SWAP1 JUMP JUMPDEST PUSH1 0x40 MLOAD DUP1 SWAP2 SUB SWAP1 LOG3 POP POP POP POP JUMP JUMPDEST PUSH1 0x1 PUSH1 0x1 PUSH1 0xA0 SHL SUB DUP4 AND PUSH2 0x4A9F JUMPI DUP1 PUSH1 0x3 PUSH0 DUP3 DUP3 SLOAD PUSH2 0x4A94 SWAP2 SWAP1 PUSH2 0x5286 JUMP JUMPDEST SWAP1 SWAP2 SSTORE POP PUSH2 0x4B0F SWAP1 POP JUMP JUMPDEST PUSH1 0x1 PUSH1 0x1 PUSH1 0xA0 SHL SUB DUP4 AND PUSH0 SWAP1 DUP2 MSTORE PUSH1 0x1 PUSH1 0x20 MSTORE PUSH1 0x40 SWAP1 KECCAK256 SLOAD DUP2 DUP2 LT ISZERO PUSH2 0x4AF1 JUMPI PUSH1 0x40 MLOAD PUSH4 0x391434E3 PUSH1 0xE2 SHL DUP2 MSTORE PUSH1 0x1 PUSH1 0x1 PUSH1 0xA0 SHL SUB DUP6 AND PUSH1 0x4 DUP3 ADD MSTORE PUSH1 0x24 DUP2 ADD DUP3 SWAP1 MSTORE PUSH1 0x44 DUP2 ADD DUP4 SWAP1 MSTORE PUSH1 0x64 ADD PUSH2 0x8B4 JUMP JUMPDEST PUSH1 0x1 PUSH1 0x1 PUSH1 0xA0 SHL SUB DUP5 AND PUSH0 SWAP1 DUP2 MSTORE PUSH1 0x1 PUSH1 0x20 MSTORE PUSH1 0x40 SWAP1 KECCAK256 SWAP1 DUP3 SWAP1 SUB SWAP1 SSTORE JUMPDEST PUSH1 0x1 PUSH1 0x1 PUSH1 0xA0 SHL SUB DUP3 AND PUSH2 0x4B2B JUMPI PUSH1 0x3 DUP1 SLOAD DUP3 SWAP1 SUB SWAP1 SSTORE PUSH2 0x4B49 JUMP JUMPDEST PUSH1 0x1 PUSH1 0x1 PUSH1 0xA0 SHL SUB DUP3 AND PUSH0 SWAP1 DUP2 MSTORE PUSH1 0x1 PUSH1 0x20 MSTORE PUSH1 0x40 SWAP1 KECCAK256 DUP1 SLOAD DUP3 ADD SWAP1 SSTORE JUMPDEST DUP2 PUSH1 0x1 PUSH1 0x1 PUSH1 0xA0 SHL SUB AND DUP4 PUSH1 0x1 PUSH1 0x1 PUSH1 0xA0 SHL SUB AND PUSH32 0xDDF252AD1BE2C89B69C2B068FC378DAA952BA7F163C4A11628F55A4DF523B3EF DUP4 PUSH1 0x40 MLOAD PUSH2 0x4B8E SWAP2 DUP2 MSTORE PUSH1 0x20 ADD SWAP1 JUMP JUMPDEST PUSH1 0x40 MLOAD DUP1 SWAP2 SUB SWAP1 LOG3 POP POP POP JUMP JUMPDEST PUSH0 SLOAD PUSH1 0x1 PUSH1 0xA0 SHL SWAP1 DIV PUSH1 0xFF AND PUSH2 0x20B2 JUMPI PUSH1 0x40 MLOAD PUSH4 0x8DFC202B PUSH1 0xE0 SHL DUP2 MSTORE PUSH1 0x4 ADD PUSH1 0x40 MLOAD DUP1 SWAP2 SUB SWAP1 REVERT JUMPDEST POP DUP1 SLOAD PUSH2 0x4BD0 SWAP1 PUSH2 0x50A6 JUMP JUMPDEST PUSH0 DUP3 SSTORE DUP1 PUSH1 0x1F LT PUSH2 0x4BDF JUMPI POP POP JUMP JUMPDEST PUSH1 0x1F ADD PUSH1 0x20 SWAP1 DIV SWAP1 PUSH0 MSTORE PUSH1 0x20 PUSH0 KECCAK256 SWAP1 DUP2 ADD SWAP1 PUSH2 0x3099 SWAP2 SWAP1 JUMPDEST DUP1 DUP3 GT ISZERO PUSH2 0x4C0A JUMPI PUSH0 DUP2 SSTORE PUSH1 0x1 ADD PUSH2 0x4BF7 JUMP JUMPDEST POP SWAP1 JUMP JUMPDEST PUSH0 DUP2 MLOAD DUP1 DUP5 MSTORE DUP1 PUSH1 0x20 DUP5 ADD PUSH1 0x20 DUP7 ADD MCOPY PUSH0 PUSH1 0x20 DUP3 DUP7 ADD ADD MSTORE PUSH1 0x20 PUSH1 0x1F NOT PUSH1 0x1F DUP4 ADD AND DUP6 ADD ADD SWAP2 POP POP SWAP3 SWAP2 POP POP JUMP JUMPDEST PUSH1 0x20 DUP2 MSTORE PUSH0 PUSH2 0x3F26 PUSH1 0x20 DUP4 ADD DUP5 PUSH2 0x4C0E JUMP JUMPDEST PUSH1 0x1 PUSH1 0x1 PUSH1 0xA0 SHL SUB DUP2 AND DUP2 EQ PUSH2 0x3099 JUMPI PUSH0 DUP1 REVERT JUMPDEST PUSH0 DUP1 PUSH1 0x40 DUP4 DUP6 SUB SLT ISZERO PUSH2 0x4C73 JUMPI PUSH0 DUP1 REVERT JUMPDEST DUP3 CALLDATALOAD PUSH2 0x4C7E DUP2 PUSH2 0x4C4E JUMP JUMPDEST SWAP5 PUSH1 0x20 SWAP4 SWAP1 SWAP4 ADD CALLDATALOAD SWAP4 POP POP POP JUMP JUMPDEST PUSH0 DUP1 PUSH1 0x40 DUP4 DUP6 SUB SLT ISZERO PUSH2 0x4C9D JUMPI PUSH0 DUP1 REVERT JUMPDEST POP POP DUP1 CALLDATALOAD SWAP3 PUSH1 0x20 SWAP1 SWAP2 ADD CALLDATALOAD SWAP2 POP JUMP JUMPDEST PUSH0 PUSH1 0x20 DUP3 DUP5 SUB SLT ISZERO PUSH2 0x4CBC JUMPI PUSH0 DUP1 REVERT JUMPDEST POP CALLDATALOAD SWAP2 SWAP1 POP JUMP JUMPDEST PUSH0 DUP1 PUSH0 PUSH1 0x60 DUP5 DUP7 SUB SLT ISZERO PUSH2 0x4CD5 JUMPI PUSH0 DUP1 REVERT JUMPDEST DUP4 CALLDATALOAD PUSH2 0x4CE0 DUP2 PUSH2 0x4C4E JUMP JUMPDEST SWAP3 POP PUSH1 0x20 DUP5 ADD CALLDATALOAD PUSH2 0x4CF0 DUP2 PUSH2 0x4C4E JUMP JUMPDEST SWAP3 SWAP6 SWAP3 SWAP5 POP POP POP PUSH1 0x40 SWAP2 SWAP1 SWAP2 ADD CALLDATALOAD SWAP1 JUMP JUMPDEST PUSH1 0x1 DUP1 PUSH1 0xA0 SHL SUB DUP6 AND DUP2 MSTORE DUP4 PUSH1 0x20 DUP3 ADD MSTORE PUSH1 0x80 PUSH1 0x40 DUP3 ADD MSTORE PUSH0 PUSH2 0x4D27 PUSH1 0x80 DUP4 ADD DUP6 PUSH2 0x4C0E JUMP JUMPDEST SWAP1 POP PUSH3 0xFFFFFF DUP4 AND PUSH1 0x60 DUP4 ADD MSTORE SWAP6 SWAP5 POP POP POP POP POP JUMP JUMPDEST PUSH0 PUSH1 0x20 DUP3 DUP5 SUB SLT ISZERO PUSH2 0x4D4D JUMPI PUSH0 DUP1 REVERT JUMPDEST DUP2 CALLDATALOAD PUSH2 0x3F26 DUP2 PUSH2 0x4C4E JUMP JUMPDEST PUSH1 0x1 PUSH1 0x1 PUSH1 0xA0 SHL SUB DUP7 DUP2 AND DUP3 MSTORE DUP6 AND PUSH1 0x20 DUP3 ADD MSTORE PUSH1 0x40 DUP2 ADD DUP5 SWAP1 MSTORE PUSH1 0xA0 PUSH1 0x60 DUP3 ADD DUP2 SWAP1 MSTORE PUSH0 SWAP1 PUSH2 0x4D8A SWAP1 DUP4 ADD DUP6 PUSH2 0x4C0E JUMP JUMPDEST SWAP1 POP PUSH3 0xFFFFFF DUP4 AND PUSH1 0x80 DUP4 ADD MSTORE SWAP7 SWAP6 POP POP POP POP POP POP JUMP JUMPDEST PUSH4 0x4E487B71 PUSH1 0xE0 SHL PUSH0 MSTORE PUSH1 0x41 PUSH1 0x4 MSTORE PUSH1 0x24 PUSH0 REVERT JUMPDEST PUSH1 0x40 MLOAD PUSH1 0x1F DUP3 ADD PUSH1 0x1F NOT AND DUP2 ADD PUSH8 0xFFFFFFFFFFFFFFFF DUP2 GT DUP3 DUP3 LT OR ISZERO PUSH2 0x4DDE JUMPI PUSH2 0x4DDE PUSH2 0x4DA1 JUMP JUMPDEST PUSH1 0x40 MSTORE SWAP2 SWAP1 POP JUMP JUMPDEST PUSH0 DUP3 PUSH1 0x1F DUP4 ADD SLT PUSH2 0x4DF5 JUMPI PUSH0 DUP1 REVERT JUMPDEST DUP2 CALLDATALOAD PUSH8 0xFFFFFFFFFFFFFFFF DUP2 GT ISZERO PUSH2 0x4E0F JUMPI PUSH2 0x4E0F PUSH2 0x4DA1 JUMP JUMPDEST PUSH2 0x4E22 PUSH1 0x1F DUP3 ADD PUSH1 0x1F NOT AND PUSH1 0x20 ADD PUSH2 0x4DB5 JUMP JUMPDEST DUP2 DUP2 MSTORE DUP5 PUSH1 0x20 DUP4 DUP7 ADD ADD GT ISZERO PUSH2 0x4E36 JUMPI PUSH0 DUP1 REVERT JUMPDEST DUP2 PUSH1 0x20 DUP6 ADD PUSH1 0x20 DUP4 ADD CALLDATACOPY PUSH0 SWAP2 DUP2 ADD PUSH1 0x20 ADD SWAP2 SWAP1 SWAP2 MSTORE SWAP4 SWAP3 POP POP POP JUMP JUMPDEST DUP1 CALLDATALOAD PUSH3 0xFFFFFF DUP2 AND DUP2 EQ PUSH2 0x4E64 JUMPI PUSH0 DUP1 REVERT JUMPDEST SWAP2 SWAP1 POP JUMP JUMPDEST PUSH0 DUP1 PUSH0 DUP1 PUSH1 0x80 DUP6 DUP8 SUB SLT ISZERO PUSH2 0x4E7C JUMPI PUSH0 DUP1 REVERT JUMPDEST DUP5 CALLDATALOAD PUSH2 0x4E87 DUP2 PUSH2 0x4C4E JUMP JUMPDEST SWAP4 POP PUSH1 0x20 DUP6 ADD CALLDATALOAD SWAP3 POP PUSH1 0x40 DUP6 ADD CALLDATALOAD PUSH8 0xFFFFFFFFFFFFFFFF DUP2 GT ISZERO PUSH2 0x4EA9 JUMPI PUSH0 DUP1 REVERT JUMPDEST PUSH2 0x4EB5 DUP8 DUP3 DUP9 ADD PUSH2 0x4DE6 JUMP JUMPDEST SWAP3 POP POP PUSH2 0x4EC4 PUSH1 0x60 DUP7 ADD PUSH2 0x4E52 JUMP JUMPDEST SWAP1 POP SWAP3 SWAP6 SWAP2 SWAP5 POP SWAP3 POP JUMP JUMPDEST DUP1 ISZERO ISZERO DUP2 EQ PUSH2 0x3099 JUMPI PUSH0 DUP1 REVERT JUMPDEST PUSH0 DUP1 PUSH1 0x40 DUP4 DUP6 SUB SLT ISZERO PUSH2 0x4EED JUMPI PUSH0 DUP1 REVERT JUMPDEST DUP3 CALLDATALOAD PUSH2 0x4EF8 DUP2 PUSH2 0x4C4E JUMP JUMPDEST SWAP2 POP PUSH1 0x20 DUP4 ADD CALLDATALOAD PUSH2 0x4F08 DUP2 PUSH2 0x4ECF JUMP JUMPDEST DUP1 SWAP2 POP POP SWAP3 POP SWAP3 SWAP1 POP JUMP JUMPDEST PUSH0 PUSH8 0xFFFFFFFFFFFFFFFF DUP3 GT ISZERO PUSH2 0x4F2C JUMPI PUSH2 0x4F2C PUSH2 0x4DA1 JUMP JUMPDEST POP PUSH1 0x5 SHL PUSH1 0x20 ADD SWAP1 JUMP JUMPDEST PUSH0 PUSH1 0x20 DUP3 DUP5 SUB SLT ISZERO PUSH2 0x4F46 JUMPI PUSH0 DUP1 REVERT JUMPDEST DUP2 CALLDATALOAD PUSH8 0xFFFFFFFFFFFFFFFF DUP2 GT ISZERO PUSH2 0x4F5C JUMPI PUSH0 DUP1 REVERT JUMPDEST DUP3 ADD PUSH1 0x1F DUP2 ADD DUP5 SGT PUSH2 0x4F6C JUMPI PUSH0 DUP1 REVERT JUMPDEST DUP1 CALLDATALOAD PUSH2 0x4F7F PUSH2 0x4F7A DUP3 PUSH2 0x4F13 JUMP JUMPDEST PUSH2 0x4DB5 JUMP JUMPDEST DUP1 DUP3 DUP3 MSTORE PUSH1 0x20 DUP3 ADD SWAP2 POP PUSH1 0x20 DUP4 PUSH1 0x5 SHL DUP6 ADD ADD SWAP3 POP DUP7 DUP4 GT ISZERO PUSH2 0x4FA0 JUMPI PUSH0 DUP1 REVERT JUMPDEST PUSH1 0x20 DUP5 ADD SWAP4 POP JUMPDEST DUP3 DUP5 LT ISZERO PUSH2 0x4FC2 JUMPI DUP4 CALLDATALOAD DUP3 MSTORE PUSH1 0x20 SWAP4 DUP5 ADD SWAP4 SWAP1 SWAP2 ADD SWAP1 PUSH2 0x4FA7 JUMP JUMPDEST SWAP7 SWAP6 POP POP POP POP POP POP JUMP JUMPDEST PUSH0 PUSH1 0x20 DUP3 ADD PUSH1 0x20 DUP4 MSTORE DUP1 DUP5 MLOAD DUP1 DUP4 MSTORE PUSH1 0x40 DUP6 ADD SWAP2 POP PUSH1 0x40 DUP2 PUSH1 0x5 SHL DUP7 ADD ADD SWAP3 POP PUSH1 0x20 DUP7 ADD PUSH0 JUMPDEST DUP3 DUP2 LT ISZERO PUSH2 0x506E JUMPI PUSH1 0x3F NOT DUP8 DUP7 SUB ADD DUP5 MSTORE DUP2 MLOAD PUSH1 0x1 DUP1 PUSH1 0xA0 SHL SUB DUP2 MLOAD AND DUP7 MSTORE PUSH1 0x1 DUP1 PUSH1 0xA0 SHL SUB PUSH1 0x20 DUP3 ADD MLOAD AND PUSH1 0x20 DUP8 ADD MSTORE PUSH1 0x40 DUP2 ADD MLOAD PUSH1 0x40 DUP8 ADD MSTORE PUSH1 0x60 DUP2 ADD MLOAD PUSH1 0xA0 PUSH1 0x60 DUP9 ADD MSTORE PUSH2 0x5046 PUSH1 0xA0 DUP9 ADD DUP3 PUSH2 0x4C0E JUMP JUMPDEST PUSH1 0x80 SWAP3 DUP4 ADD MLOAD PUSH3 0xFFFFFF AND SWAP8 SWAP1 SWAP3 ADD SWAP7 SWAP1 SWAP7 MSTORE SWAP5 POP PUSH1 0x20 SWAP4 DUP5 ADD SWAP4 SWAP2 SWAP1 SWAP2 ADD SWAP1 PUSH1 0x1 ADD PUSH2 0x4FF2 JUMP JUMPDEST POP SWAP3 SWAP7 SWAP6 POP POP POP POP POP POP JUMP JUMPDEST PUSH0 DUP1 PUSH1 0x40 DUP4 DUP6 SUB SLT ISZERO PUSH2 0x508B JUMPI PUSH0 DUP1 REVERT JUMPDEST DUP3 CALLDATALOAD PUSH2 0x5096 DUP2 PUSH2 0x4C4E JUMP JUMPDEST SWAP2 POP PUSH1 0x20 DUP4 ADD CALLDATALOAD PUSH2 0x4F08 DUP2 PUSH2 0x4C4E JUMP JUMPDEST PUSH1 0x1 DUP2 DUP2 SHR SWAP1 DUP3 AND DUP1 PUSH2 0x50BA JUMPI PUSH1 0x7F DUP3 AND SWAP2 POP JUMPDEST PUSH1 0x20 DUP3 LT DUP2 SUB PUSH2 0x50D8 JUMPI PUSH4 0x4E487B71 PUSH1 0xE0 SHL PUSH0 MSTORE PUSH1 0x22 PUSH1 0x4 MSTORE PUSH1 0x24 PUSH0 REVERT JUMPDEST POP SWAP2 SWAP1 POP JUMP JUMPDEST PUSH1 0x20 DUP1 DUP3 MSTORE DUP2 DUP2 ADD MSTORE PUSH32 0x416D6F756E74206D7573742062652067726561746572207468616E207A65726F PUSH1 0x40 DUP3 ADD MSTORE PUSH1 0x60 ADD SWAP1 JUMP JUMPDEST PUSH0 PUSH1 0x20 DUP3 DUP5 SUB SLT ISZERO PUSH2 0x5123 JUMPI PUSH0 DUP1 REVERT JUMPDEST POP MLOAD SWAP2 SWAP1 POP JUMP JUMPDEST PUSH4 0x4E487B71 PUSH1 0xE0 SHL PUSH0 MSTORE PUSH1 0x11 PUSH1 0x4 MSTORE PUSH1 0x24 PUSH0 REVERT JUMPDEST DUP1 DUP3 MUL DUP2 ISZERO DUP3 DUP3 DIV DUP5 EQ OR PUSH2 0x862 JUMPI PUSH2 0x862 PUSH2 0x512A JUMP JUMPDEST PUSH0 DUP3 PUSH2 0x516F JUMPI PUSH4 0x4E487B71 PUSH1 0xE0 SHL PUSH0 MSTORE PUSH1 0x12 PUSH1 0x4 MSTORE PUSH1 0x24 PUSH0 REVERT JUMPDEST POP DIV SWAP1 JUMP JUMPDEST PUSH1 0x20 DUP1 DUP3 MSTORE PUSH1 0x26 SWAP1 DUP3 ADD MSTORE PUSH32 0x50657263656E74616765206D757374206265206265747765656E203020616E64 PUSH1 0x40 DUP3 ADD MSTORE PUSH6 0x20313030303 PUSH1 0xD4 SHL PUSH1 0x60 DUP3 ADD MSTORE PUSH1 0x80 ADD SWAP1 JUMP JUMPDEST PUSH4 0x4E487B71 PUSH1 0xE0 SHL PUSH0 MSTORE PUSH1 0x32 PUSH1 0x4 MSTORE PUSH1 0x24 PUSH0 REVERT JUMPDEST DUP2 DUP2 SUB DUP2 DUP2 GT ISZERO PUSH2 0x862 JUMPI PUSH2 0x862 PUSH2 0x512A JUMP JUMPDEST PUSH0 DUP2 SLOAD PUSH2 0x51ED DUP2 PUSH2 0x50A6 JUMP JUMPDEST DUP1 DUP6 MSTORE PUSH1 0x1 DUP3 AND DUP1 ISZERO PUSH2 0x5207 JUMPI PUSH1 0x1 DUP2 EQ PUSH2 0x5223 JUMPI PUSH2 0x5257 JUMP JUMPDEST PUSH1 0xFF NOT DUP4 AND PUSH1 0x20 DUP8 ADD MSTORE PUSH1 0x20 DUP3 ISZERO ISZERO PUSH1 0x5 SHL DUP8 ADD ADD SWAP4 POP PUSH2 0x5257 JUMP JUMPDEST DUP5 PUSH0 MSTORE PUSH1 0x20 PUSH0 KECCAK256 PUSH0 JUMPDEST DUP4 DUP2 LT ISZERO PUSH2 0x524E JUMPI DUP2 SLOAD PUSH1 0x20 DUP3 DUP11 ADD ADD MSTORE PUSH1 0x1 DUP3 ADD SWAP2 POP PUSH1 0x20 DUP2 ADD SWAP1 POP PUSH2 0x522C JUMP JUMPDEST DUP8 ADD PUSH1 0x20 ADD SWAP5 POP POP JUMPDEST POP POP POP SWAP3 SWAP2 POP POP JUMP JUMPDEST PUSH1 0x1 DUP1 PUSH1 0xA0 SHL SUB DUP6 AND DUP2 MSTORE DUP4 PUSH1 0x20 DUP3 ADD MSTORE PUSH1 0x80 PUSH1 0x40 DUP3 ADD MSTORE PUSH0 PUSH2 0x4D27 PUSH1 0x80 DUP4 ADD DUP6 PUSH2 0x51E1 JUMP JUMPDEST DUP1 DUP3 ADD DUP1 DUP3 GT ISZERO PUSH2 0x862 JUMPI PUSH2 0x862 PUSH2 0x512A JUMP JUMPDEST PUSH0 PUSH1 0x20 DUP3 DUP5 SUB SLT ISZERO PUSH2 0x52A9 JUMPI PUSH0 DUP1 REVERT JUMPDEST DUP2 MLOAD PUSH2 0x3F26 DUP2 PUSH2 0x4ECF JUMP JUMPDEST PUSH2 0x3B19 PUSH1 0xF1 SHL DUP2 MSTORE PUSH1 0x2 ADD SWAP1 JUMP JUMPDEST PUSH0 DUP1 DUP4 SLOAD PUSH2 0x52CF DUP2 PUSH2 0x50A6 JUMP JUMPDEST PUSH1 0x1 DUP3 AND DUP1 ISZERO PUSH2 0x52E6 JUMPI PUSH1 0x1 DUP2 EQ PUSH2 0x52FB JUMPI PUSH2 0x5328 JUMP JUMPDEST PUSH1 0xFF NOT DUP4 AND DUP7 MSTORE DUP2 ISZERO ISZERO DUP3 MUL DUP7 ADD SWAP4 POP PUSH2 0x5328 JUMP JUMPDEST DUP7 PUSH0 MSTORE PUSH1 0x20 PUSH0 KECCAK256 PUSH0 JUMPDEST DUP4 DUP2 LT ISZERO PUSH2 0x5320 JUMPI DUP2 SLOAD DUP9 DUP3 ADD MSTORE PUSH1 0x1 SWAP1 SWAP2 ADD SWAP1 PUSH1 0x20 ADD PUSH2 0x5304 JUMP JUMPDEST POP POP DUP2 DUP7 ADD SWAP4 POP JUMPDEST POP SWAP2 SWAP6 SWAP5 POP POP POP POP POP JUMP JUMPDEST PUSH0 PUSH1 0x20 DUP3 DUP5 SUB SLT ISZERO PUSH2 0x5343 JUMPI PUSH0 DUP1 REVERT JUMPDEST DUP2 MLOAD PUSH2 0x3F26 DUP2 PUSH2 0x4C4E JUMP JUMPDEST PUSH0 DUP2 MLOAD DUP1 DUP5 MSTORE PUSH1 0x20 DUP5 ADD SWAP4 POP PUSH1 0x20 DUP4 ADD PUSH0 JUMPDEST DUP3 DUP2 LT ISZERO PUSH2 0x5387 JUMPI DUP2 MLOAD PUSH1 0x1 PUSH1 0x1 PUSH1 0xA0 SHL SUB AND DUP7 MSTORE PUSH1 0x20 SWAP6 DUP7 ADD SWAP6 SWAP1 SWAP2 ADD SWAP1 PUSH1 0x1 ADD PUSH2 0x5360 JUMP JUMPDEST POP SWAP4 SWAP5 SWAP4 POP POP POP POP JUMP JUMPDEST DUP3 DUP2 MSTORE PUSH1 0x40 PUSH1 0x20 DUP3 ADD MSTORE PUSH0 PUSH2 0x3057 PUSH1 0x40 DUP4 ADD DUP5 PUSH2 0x534E JUMP JUMPDEST PUSH0 PUSH1 0x20 DUP3 DUP5 SUB SLT ISZERO PUSH2 0x53B9 JUMPI PUSH0 DUP1 REVERT JUMPDEST DUP2 MLOAD PUSH8 0xFFFFFFFFFFFFFFFF DUP2 GT ISZERO PUSH2 0x53CF JUMPI PUSH0 DUP1 REVERT JUMPDEST DUP3 ADD PUSH1 0x1F DUP2 ADD DUP5 SGT PUSH2 0x53DF JUMPI PUSH0 DUP1 REVERT JUMPDEST DUP1 MLOAD PUSH2 0x53ED PUSH2 0x4F7A DUP3 PUSH2 0x4F13 JUMP JUMPDEST DUP1 DUP3 DUP3 MSTORE PUSH1 0x20 DUP3 ADD SWAP2 POP PUSH1 0x20 DUP4 PUSH1 0x5 SHL DUP6 ADD ADD SWAP3 POP DUP7 DUP4 GT ISZERO PUSH2 0x540E JUMPI PUSH0 DUP1 REVERT JUMPDEST PUSH1 0x20 DUP5 ADD SWAP4 POP JUMPDEST DUP3 DUP5 LT ISZERO PUSH2 0x4FC2 JUMPI DUP4 MLOAD DUP3 MSTORE PUSH1 0x20 SWAP4 DUP5 ADD SWAP4 SWAP1 SWAP2 ADD SWAP1 PUSH2 0x5415 JUMP JUMPDEST PUSH2 0x7633 PUSH1 0xF0 SHL DUP2 MSTORE PUSH1 0x2 ADD SWAP1 JUMP JUMPDEST PUSH1 0x60 SWAP4 DUP5 SHL PUSH12 0xFFFFFFFFFFFFFFFFFFFFFFFF NOT SWAP1 DUP2 AND DUP3 MSTORE PUSH1 0xE8 SWAP4 SWAP1 SWAP4 SHL PUSH1 0x1 PUSH1 0x1 PUSH1 0xE8 SHL SUB NOT AND PUSH1 0x14 DUP3 ADD MSTORE SWAP3 SHL AND PUSH1 0x17 DUP3 ADD MSTORE PUSH1 0x2B ADD SWAP1 JUMP JUMPDEST PUSH1 0x40 DUP2 MSTORE PUSH0 PUSH2 0x548B PUSH1 0x40 DUP4 ADD DUP6 PUSH2 0x4C0E JUMP JUMPDEST SWAP1 POP DUP3 PUSH1 0x20 DUP4 ADD MSTORE SWAP4 SWAP3 POP POP POP JUMP JUMPDEST PUSH0 DUP3 MLOAD DUP1 PUSH1 0x20 DUP6 ADD DUP5 MCOPY PUSH0 SWAP3 ADD SWAP2 DUP3 MSTORE POP SWAP2 SWAP1 POP JUMP JUMPDEST PUSH1 0x1F DUP3 GT ISZERO PUSH2 0x2CC6 JUMPI DUP1 PUSH0 MSTORE PUSH1 0x20 PUSH0 KECCAK256 PUSH1 0x1F DUP5 ADD PUSH1 0x5 SHR DUP2 ADD PUSH1 0x20 DUP6 LT ISZERO PUSH2 0x54D5 JUMPI POP DUP1 JUMPDEST PUSH1 0x1F DUP5 ADD PUSH1 0x5 SHR DUP3 ADD SWAP2 POP JUMPDEST DUP2 DUP2 LT ISZERO PUSH2 0x54F4 JUMPI PUSH0 DUP2 SSTORE PUSH1 0x1 ADD PUSH2 0x54E1 JUMP JUMPDEST POP POP POP POP POP JUMP JUMPDEST DUP2 MLOAD PUSH8 0xFFFFFFFFFFFFFFFF DUP2 GT ISZERO PUSH2 0x5515 JUMPI PUSH2 0x5515 PUSH2 0x4DA1 JUMP JUMPDEST PUSH2 0x5529 DUP2 PUSH2 0x5523 DUP5 SLOAD PUSH2 0x50A6 JUMP JUMPDEST DUP5 PUSH2 0x54B0 JUMP JUMPDEST PUSH1 0x20 PUSH1 0x1F DUP3 GT PUSH1 0x1 DUP2 EQ PUSH2 0x555E JUMPI PUSH0 DUP4 ISZERO PUSH2 0x5544 JUMPI POP DUP5 DUP3 ADD MLOAD JUMPDEST PUSH1 0x1 DUP5 SWAP1 SHL PUSH0 NOT PUSH1 0x3 DUP7 SWAP1 SHL SHR NOT DUP3 AND OR JUMPDEST DUP6 SSTORE POP PUSH2 0x54F4 JUMP JUMPDEST PUSH0 DUP5 DUP2 MSTORE PUSH1 0x20 DUP2 KECCAK256 PUSH1 0x1F NOT DUP6 AND SWAP2 JUMPDEST DUP3 DUP2 LT ISZERO PUSH2 0x558D JUMPI DUP8 DUP6 ADD MLOAD DUP3 SSTORE PUSH1 0x20 SWAP5 DUP6 ADD SWAP5 PUSH1 0x1 SWAP1 SWAP3 ADD SWAP2 ADD PUSH2 0x556D JUMP JUMPDEST POP DUP5 DUP3 LT ISZERO PUSH2 0x55AA JUMPI DUP7 DUP5 ADD MLOAD PUSH0 NOT PUSH1 0x3 DUP8 SWAP1 SHL PUSH1 0xF8 AND SHR NOT AND DUP2 SSTORE JUMPDEST POP POP POP POP PUSH1 0x1 SWAP1 DUP2 SHL ADD SWAP1 SSTORE POP JUMP JUMPDEST PUSH0 PUSH1 0x1 DUP3 ADD PUSH2 0x55CA JUMPI PUSH2 0x55CA PUSH2 0x512A JUMP JUMPDEST POP PUSH1 0x1 ADD SWAP1 JUMP JUMPDEST PUSH1 0x1 DUP1 PUSH1 0xA0 SHL SUB DUP5 AND DUP2 MSTORE DUP3 PUSH1 0x20 DUP3 ADD MSTORE PUSH1 0x60 PUSH1 0x40 DUP3 ADD MSTORE PUSH0 PUSH2 0x3B9E PUSH1 0x60 DUP4 ADD DUP5 PUSH2 0x4C0E JUMP JUMPDEST PUSH0 DUP2 PUSH2 0x5605 JUMPI PUSH2 0x5605 PUSH2 0x512A JUMP JUMPDEST POP PUSH0 NOT ADD SWAP1 JUMP JUMPDEST PUSH1 0x1 DUP1 PUSH1 0xA0 SHL SUB DUP5 AND DUP2 MSTORE DUP3 PUSH1 0x20 DUP3 ADD MSTORE PUSH1 0x60 PUSH1 0x40 DUP3 ADD MSTORE PUSH0 PUSH2 0x3B9E PUSH1 0x60 DUP4 ADD DUP5 PUSH2 0x51E1 JUMP JUMPDEST DUP6 DUP2 MSTORE DUP5 PUSH1 0x20 DUP3 ADD MSTORE PUSH1 0xA0 PUSH1 0x40 DUP3 ADD MSTORE PUSH0 PUSH2 0x5650 PUSH1 0xA0 DUP4 ADD DUP7 PUSH2 0x534E JUMP JUMPDEST PUSH1 0x1 PUSH1 0x1 PUSH1 0xA0 SHL SUB SWAP5 SWAP1 SWAP5 AND PUSH1 0x60 DUP4 ADD MSTORE POP PUSH1 0x80 ADD MSTORE SWAP4 SWAP3 POP POP POP JUMP JUMPDEST DUP2 MLOAD PUSH1 0x1 PUSH1 0x1 PUSH1 0xA0 SHL SUB SWAP1 DUP2 AND DUP3 MSTORE PUSH1 0x20 DUP1 DUP5 ADD MLOAD DUP3 AND SWAP1 DUP4 ADD MSTORE PUSH1 0x40 DUP1 DUP5 ADD MLOAD PUSH3 0xFFFFFF AND SWAP1 DUP4 ADD MSTORE PUSH1 0x60 DUP1 DUP5 ADD MLOAD SWAP2 DUP3 AND SWAP1 DUP4 ADD MSTORE PUSH2 0x100 DUP3 ADD SWAP1 POP PUSH1 0x80 DUP4 ADD MLOAD PUSH1 0x80 DUP4 ADD MSTORE PUSH1 0xA0 DUP4 ADD MLOAD PUSH1 0xA0 DUP4 ADD MSTORE PUSH1 0xC0 DUP4 ADD MLOAD PUSH1 0xC0 DUP4 ADD MSTORE PUSH1 0xE0 DUP4 ADD MLOAD PUSH2 0x209A PUSH1 0xE0 DUP5 ADD DUP3 PUSH1 0x1 PUSH1 0x1 PUSH1 0xA0 SHL SUB AND SWAP1 MSTORE JUMP JUMPDEST DUP5 DUP2 MSTORE PUSH1 0x80 PUSH1 0x20 DUP3 ADD MSTORE PUSH0 PUSH2 0x56FB PUSH1 0x80 DUP4 ADD DUP7 PUSH2 0x534E JUMP JUMPDEST PUSH1 0x1 PUSH1 0x1 PUSH1 0xA0 SHL SUB SWAP5 SWAP1 SWAP5 AND PUSH1 0x40 DUP4 ADD MSTORE POP PUSH1 0x60 ADD MSTORE SWAP3 SWAP2 POP POP JUMP JUMPDEST DUP2 DUP2 SUB PUSH2 0x5722 JUMPI POP POP JUMP JUMPDEST PUSH2 0x572C DUP3 SLOAD PUSH2 0x50A6 JUMP JUMPDEST PUSH8 0xFFFFFFFFFFFFFFFF DUP2 GT ISZERO PUSH2 0x5744 JUMPI PUSH2 0x5744 PUSH2 0x4DA1 JUMP JUMPDEST PUSH2 0x5752 DUP2 PUSH2 0x5523 DUP5 SLOAD PUSH2 0x50A6 JUMP JUMPDEST PUSH0 PUSH1 0x1F DUP3 GT PUSH1 0x1 DUP2 EQ PUSH2 0x5781 JUMPI PUSH0 DUP4 ISZERO PUSH2 0x5544 JUMPI POP DUP2 DUP6 ADD SLOAD PUSH1 0x1 DUP5 SWAP1 SHL PUSH0 NOT PUSH1 0x3 DUP7 SWAP1 SHL SHR NOT DUP3 AND OR PUSH2 0x5556 JUMP JUMPDEST PUSH0 DUP6 DUP2 MSTORE PUSH1 0x20 DUP1 DUP3 KECCAK256 DUP7 DUP4 MSTORE SWAP1 DUP3 KECCAK256 PUSH1 0x1F NOT DUP7 AND SWAP3 JUMPDEST DUP4 DUP2 LT ISZERO PUSH2 0x57B7 JUMPI DUP3 DUP7 ADD SLOAD DUP3 SSTORE PUSH1 0x1 SWAP6 DUP7 ADD SWAP6 SWAP1 SWAP2 ADD SWAP1 PUSH1 0x20 ADD PUSH2 0x5797 JUMP JUMPDEST POP DUP6 DUP4 LT ISZERO PUSH2 0x57D4 JUMPI DUP2 DUP6 ADD SLOAD PUSH0 NOT PUSH1 0x3 DUP9 SWAP1 SHL PUSH1 0xF8 AND SHR NOT AND DUP2 SSTORE JUMPDEST POP POP POP POP POP PUSH1 0x1 SWAP1 DUP2 SHL ADD SWAP1 SSTORE POP JUMP JUMPDEST PUSH4 0x4E487B71 PUSH1 0xE0 SHL PUSH0 MSTORE PUSH1 0x31 PUSH1 0x4 MSTORE PUSH1 0x24 PUSH0 REVERT INVALID LOG2 PUSH5 0x6970667358 0x22 SLT KECCAK256 PUSH14 0x62EB169401A01D466821C70475F1 0xA8 0xE4 EXTCODEHASH DUP2 DUP13 0xCC CALLDATACOPY TSTORE ADDMOD PUSH18 0x878C2CBB81AA1164736F6C634300081A0033 "
		},
		"gasEstimates": {
			"creation": {
				"codeDepositCost": "4514800",
				"executionCost": "infinite",
				"totalCost": "infinite"
			},
			"external": {
				"addToken(address,uint256,string,uint24)": "infinite",
				"allowance(address,address)": "infinite",
				"approve(address,uint256)": "24775",
				"balanceOf(address)": "2618",
				"decimals()": "266",
				"deposit()": "infinite",
				"depositFee()": "2362",
				"ethDepositedFailed(address)": "2643",
				"failedSwaps(uint256)": "infinite",
				"getFailedSwaps(address)": "infinite",
				"getPortfolioValue(uint256[])": "infinite",
				"name()": "infinite",
				"owner()": "2440",
				"pause()": "infinite",
				"paused()": "2365",
				"portfolio(uint256)": "infinite",
				"profitToETH()": "2361",
				"rebalance(uint256[])": "infinite",
				"renounceOwnership()": "infinite",
				"retryFailedSwaps(address)": "infinite",
				"setFees(uint256,uint256)": "46763",
				"setSlippageTolerance(uint256)": "25689",
				"setWhitelist(address,bool)": "infinite",
				"slippageTolerance()": "2338",
				"swapETHForToken(address,uint256,string,uint24)": "infinite",
				"swapTokenForETH(address,uint256,string,uint24)": "infinite",
				"symbol()": "infinite",
				"totalFees()": "2429",
				"totalSupply()": "2359",
				"transfer(address,uint256)": "51290",
				"transferFrom(address,address,uint256)": "infinite",
				"transferOwnership(address)": "infinite",
				"uniswapV2Router()": "2382",
				"uniswapV3Quoter()": "2447",
				"uniswapV3Router()": "2448",
				"unpause()": "infinite",
				"userFailedSwaps(address)": "2622",
				"whitelist(address)": "2567",
				"withdraw(uint256)": "infinite",
				"withdrawAllToETH()": "infinite",
				"withdrawFeesByOwner(address)": "infinite",
				"withdrawToETH(uint256)": "infinite",
				"withdrawalFee()": "2383"
			},
			"internal": {
				"buyTokens(contract IERC20,uint256,string memory,uint24)": "infinite",
				"getTargetValuesAtPriceUSD(uint256)": "infinite",
				"getTokenValueAtPrice(uint256,uint256)": "123",
				"removeFailedSwap(uint256)": "infinite",
				"sellTokens(contract IERC20,uint256,string memory,uint24)": "infinite",
				"swapETHForTokenV2(contract IERC20,uint256,uint256)": "infinite",
				"swapETHForTokenV3(contract IERC20,uint256,uint24,uint256)": "infinite",
				"swapTokenForETHV2(contract IERC20,uint256,uint256,address)": "infinite",
				"swapTokenForETHV3(contract IERC20,uint256,uint24,uint256,address)": "infinite"
			}
		},
		"methodIdentifiers": {
			"addToken(address,uint256,string,uint24)": "b612c12c",
			"allowance(address,address)": "dd62ed3e",
			"approve(address,uint256)": "095ea7b3",
			"balanceOf(address)": "70a08231",
			"decimals()": "313ce567",
			"deposit()": "d0e30db0",
			"depositFee()": "67a52793",
			"ethDepositedFailed(address)": "c38cd0b5",
			"failedSwaps(uint256)": "378a653c",
			"getFailedSwaps(address)": "91ebe50f",
			"getPortfolioValue(uint256[])": "5643a5a7",
			"name()": "06fdde03",
			"owner()": "8da5cb5b",
			"pause()": "8456cb59",
			"paused()": "5c975abb",
			"portfolio(uint256)": "2e63a156",
			"profitToETH()": "86bc55db",
			"rebalance(uint256[])": "780d5710",
			"renounceOwnership()": "715018a6",
			"retryFailedSwaps(address)": "3d7526f7",
			"setFees(uint256,uint256)": "0b78f9c0",
			"setSlippageTolerance(uint256)": "117da1ee",
			"setWhitelist(address,bool)": "53d6fd59",
			"slippageTolerance()": "d03153aa",
			"swapETHForToken(address,uint256,string,uint24)": "39c0f5d2",
			"swapTokenForETH(address,uint256,string,uint24)": "e7ae65ab",
			"symbol()": "95d89b41",
			"totalFees()": "13114a9d",
			"totalSupply()": "18160ddd",
			"transfer(address,uint256)": "a9059cbb",
			"transferFrom(address,address,uint256)": "23b872dd",
			"transferOwnership(address)": "f2fde38b",
			"uniswapV2Router()": "1694505e",
			"uniswapV3Quoter()": "4d20d0f8",
			"uniswapV3Router()": "2c76d7a6",
			"unpause()": "3f4ba83a",
			"userFailedSwaps(address)": "36a43f2b",
			"whitelist(address)": "9b19251a",
			"withdraw(uint256)": "2e1a7d4d",
			"withdrawAllToETH()": "fa3b5649",
			"withdrawFeesByOwner(address)": "a738c7df",
			"withdrawToETH(uint256)": "2c9351a1",
			"withdrawalFee()": "8bc7e8c4"
		}
	},
	"abi": [
		{
			"inputs": [
				{
					"internalType": "address",
					"name": "_uniswapV2Router",
					"type": "address"
				},
				{
					"internalType": "address",
					"name": "_uniswapV3Router",
					"type": "address"
				},
				{
					"internalType": "address",
					"name": "_uniswapV3Quoter",
					"type": "address"
				}
			],
			"stateMutability": "nonpayable",
			"type": "constructor"
		},
		{
			"inputs": [
				{
					"internalType": "address",
					"name": "spender",
					"type": "address"
				},
				{
					"internalType": "uint256",
					"name": "allowance",
					"type": "uint256"
				},
				{
					"internalType": "uint256",
					"name": "needed",
					"type": "uint256"
				}
			],
			"name": "ERC20InsufficientAllowance",
			"type": "error"
		},
		{
			"inputs": [
				{
					"internalType": "address",
					"name": "sender",
					"type": "address"
				},
				{
					"internalType": "uint256",
					"name": "balance",
					"type": "uint256"
				},
				{
					"internalType": "uint256",
					"name": "needed",
					"type": "uint256"
				}
			],
			"name": "ERC20InsufficientBalance",
			"type": "error"
		},
		{
			"inputs": [
				{
					"internalType": "address",
					"name": "approver",
					"type": "address"
				}
			],
			"name": "ERC20InvalidApprover",
			"type": "error"
		},
		{
			"inputs": [
				{
					"internalType": "address",
					"name": "receiver",
					"type": "address"
				}
			],
			"name": "ERC20InvalidReceiver",
			"type": "error"
		},
		{
			"inputs": [
				{
					"internalType": "address",
					"name": "sender",
					"type": "address"
				}
			],
			"name": "ERC20InvalidSender",
			"type": "error"
		},
		{
			"inputs": [
				{
					"internalType": "address",
					"name": "spender",
					"type": "address"
				}
			],
			"name": "ERC20InvalidSpender",
			"type": "error"
		},
		{
			"inputs": [],
			"name": "EnforcedPause",
			"type": "error"
		},
		{
			"inputs": [],
			"name": "ExpectedPause",
			"type": "error"
		},
		{
			"inputs": [
				{
					"internalType": "address",
					"name": "owner",
					"type": "address"
				}
			],
			"name": "OwnableInvalidOwner",
			"type": "error"
		},
		{
			"inputs": [
				{
					"internalType": "address",
					"name": "account",
					"type": "address"
				}
			],
			"name": "OwnableUnauthorizedAccount",
			"type": "error"
		},
		{
			"anonymous": false,
			"inputs": [
				{
					"indexed": true,
					"internalType": "address",
					"name": "owner",
					"type": "address"
				},
				{
					"indexed": true,
					"internalType": "address",
					"name": "spender",
					"type": "address"
				},
				{
					"indexed": false,
					"internalType": "uint256",
					"name": "value",
					"type": "uint256"
				}
			],
			"name": "Approval",
			"type": "event"
		},
		{
			"anonymous": false,
			"inputs": [
				{
					"indexed": true,
					"internalType": "address",
					"name": "user",
					"type": "address"
				},
				{
					"indexed": false,
					"internalType": "uint256",
					"name": "amount",
					"type": "uint256"
				},
				{
					"indexed": false,
					"internalType": "uint256",
					"name": "shares",
					"type": "uint256"
				},
				{
					"indexed": false,
					"internalType": "string",
					"name": "version",
					"type": "string"
				}
			],
			"name": "Deposited",
			"type": "event"
		},
		{
			"anonymous": false,
			"inputs": [
				{
					"indexed": true,
					"internalType": "address",
					"name": "previousOwner",
					"type": "address"
				},
				{
					"indexed": true,
					"internalType": "address",
					"name": "newOwner",
					"type": "address"
				}
			],
			"name": "OwnershipTransferred",
			"type": "event"
		},
		{
			"anonymous": false,
			"inputs": [
				{
					"indexed": false,
					"internalType": "address",
					"name": "account",
					"type": "address"
				}
			],
			"name": "Paused",
			"type": "event"
		},
		{
			"anonymous": false,
			"inputs": [
				{
					"indexed": false,
					"internalType": "uint256",
					"name": "timestamp",
					"type": "uint256"
				}
			],
			"name": "Rebalanced",
			"type": "event"
		},
		{
			"anonymous": false,
			"inputs": [
				{
					"indexed": false,
					"internalType": "uint256",
					"name": "newSlippageTolerance",
					"type": "uint256"
				}
			],
			"name": "SlippageToleranceChanged",
			"type": "event"
		},
		{
			"anonymous": false,
			"inputs": [
				{
					"indexed": true,
					"internalType": "address",
					"name": "user",
					"type": "address"
				},
				{
					"indexed": false,
					"internalType": "contract IERC20",
					"name": "token",
					"type": "address"
				},
				{
					"indexed": false,
					"internalType": "uint256",
					"name": "amount",
					"type": "uint256"
				},
				{
					"indexed": false,
					"internalType": "string",
					"name": "version",
					"type": "string"
				}
			],
			"name": "SwapFailed",
			"type": "event"
		},
		{
			"anonymous": false,
			"inputs": [
				{
					"indexed": true,
					"internalType": "address",
					"name": "from",
					"type": "address"
				},
				{
					"indexed": true,
					"internalType": "address",
					"name": "to",
					"type": "address"
				},
				{
					"indexed": false,
					"internalType": "uint256",
					"name": "value",
					"type": "uint256"
				}
			],
			"name": "Transfer",
			"type": "event"
		},
		{
			"anonymous": false,
			"inputs": [
				{
					"indexed": false,
					"internalType": "address",
					"name": "account",
					"type": "address"
				}
			],
			"name": "Unpaused",
			"type": "event"
		},
		{
			"anonymous": false,
			"inputs": [
				{
					"indexed": true,
					"internalType": "address",
					"name": "user",
					"type": "address"
				},
				{
					"indexed": false,
					"internalType": "bool",
					"name": "isWhitelisted",
					"type": "bool"
				}
			],
			"name": "Whitelisted",
			"type": "event"
		},
		{
			"anonymous": false,
			"inputs": [
				{
					"indexed": true,
					"internalType": "address",
					"name": "user",
					"type": "address"
				},
				{
					"indexed": false,
					"internalType": "uint256",
					"name": "amount",
					"type": "uint256"
				},
				{
					"indexed": false,
					"internalType": "uint256",
					"name": "shares",
					"type": "uint256"
				}
			],
			"name": "Withdrawn",
			"type": "event"
		},
		{
			"inputs": [
				{
					"internalType": "address",
					"name": "_token",
					"type": "address"
				},
				{
					"internalType": "uint256",
					"name": "_targetPercentage",
					"type": "uint256"
				},
				{
					"internalType": "string",
					"name": "_version",
					"type": "string"
				},
				{
					"internalType": "uint24",
					"name": "_feeTier",
					"type": "uint24"
				}
			],
			"name": "addToken",
			"outputs": [],
			"stateMutability": "nonpayable",
			"type": "function"
		},
		{
			"inputs": [
				{
					"internalType": "address",
					"name": "owner",
					"type": "address"
				},
				{
					"internalType": "address",
					"name": "spender",
					"type": "address"
				}
			],
			"name": "allowance",
			"outputs": [
				{
					"internalType": "uint256",
					"name": "",
					"type": "uint256"
				}
			],
			"stateMutability": "view",
			"type": "function"
		},
		{
			"inputs": [
				{
					"internalType": "address",
					"name": "spender",
					"type": "address"
				},
				{
					"internalType": "uint256",
					"name": "value",
					"type": "uint256"
				}
			],
			"name": "approve",
			"outputs": [
				{
					"internalType": "bool",
					"name": "",
					"type": "bool"
				}
			],
			"stateMutability": "nonpayable",
			"type": "function"
		},
		{
			"inputs": [
				{
					"internalType": "address",
					"name": "account",
					"type": "address"
				}
			],
			"name": "balanceOf",
			"outputs": [
				{
					"internalType": "uint256",
					"name": "",
					"type": "uint256"
				}
			],
			"stateMutability": "view",
			"type": "function"
		},
		{
			"inputs": [],
			"name": "decimals",
			"outputs": [
				{
					"internalType": "uint8",
					"name": "",
					"type": "uint8"
				}
			],
			"stateMutability": "view",
			"type": "function"
		},
		{
			"inputs": [],
			"name": "deposit",
			"outputs": [],
			"stateMutability": "payable",
			"type": "function"
		},
		{
			"inputs": [],
			"name": "depositFee",
			"outputs": [
				{
					"internalType": "uint256",
					"name": "",
					"type": "uint256"
				}
			],
			"stateMutability": "view",
			"type": "function"
		},
		{
			"inputs": [
				{
					"internalType": "address",
					"name": "",
					"type": "address"
				}
			],
			"name": "ethDepositedFailed",
			"outputs": [
				{
					"internalType": "uint256",
					"name": "",
					"type": "uint256"
				}
			],
			"stateMutability": "view",
			"type": "function"
		},
		{
			"inputs": [
				{
					"internalType": "uint256",
					"name": "",
					"type": "uint256"
				}
			],
			"name": "failedSwaps",
			"outputs": [
				{
					"internalType": "address",
					"name": "user",
					"type": "address"
				},
				{
					"internalType": "contract IERC20",
					"name": "token",
					"type": "address"
				},
				{
					"internalType": "uint256",
					"name": "amount",
					"type": "uint256"
				},
				{
					"internalType": "string",
					"name": "version",
					"type": "string"
				},
				{
					"internalType": "uint24",
					"name": "feeTier",
					"type": "uint24"
				}
			],
			"stateMutability": "view",
			"type": "function"
		},
		{
			"inputs": [
				{
					"internalType": "address",
					"name": "user",
					"type": "address"
				}
			],
			"name": "getFailedSwaps",
			"outputs": [
				{
					"components": [
						{
							"internalType": "address",
							"name": "user",
							"type": "address"
						},
						{
							"internalType": "contract IERC20",
							"name": "token",
							"type": "address"
						},
						{
							"internalType": "uint256",
							"name": "amount",
							"type": "uint256"
						},
						{
							"internalType": "string",
							"name": "version",
							"type": "string"
						},
						{
							"internalType": "uint24",
							"name": "feeTier",
							"type": "uint24"
						}
					],
					"internalType": "struct PYGGportfolioRebalancerGpt.FailedSwap[]",
					"name": "",
					"type": "tuple[]"
				}
			],
			"stateMutability": "view",
			"type": "function"
		},
		{
			"inputs": [
				{
					"internalType": "uint256[]",
					"name": "_tokenPrices",
					"type": "uint256[]"
				}
			],
			"name": "getPortfolioValue",
			"outputs": [
				{
					"internalType": "uint256",
					"name": "",
					"type": "uint256"
				}
			],
			"stateMutability": "view",
			"type": "function"
		},
		{
			"inputs": [],
			"name": "name",
			"outputs": [
				{
					"internalType": "string",
					"name": "",
					"type": "string"
				}
			],
			"stateMutability": "view",
			"type": "function"
		},
		{
			"inputs": [],
			"name": "owner",
			"outputs": [
				{
					"internalType": "address",
					"name": "",
					"type": "address"
				}
			],
			"stateMutability": "view",
			"type": "function"
		},
		{
			"inputs": [],
			"name": "pause",
			"outputs": [],
			"stateMutability": "nonpayable",
			"type": "function"
		},
		{
			"inputs": [],
			"name": "paused",
			"outputs": [
				{
					"internalType": "bool",
					"name": "",
					"type": "bool"
				}
			],
			"stateMutability": "view",
			"type": "function"
		},
		{
			"inputs": [
				{
					"internalType": "uint256",
					"name": "",
					"type": "uint256"
				}
			],
			"name": "portfolio",
			"outputs": [
				{
					"internalType": "contract IERC20",
					"name": "token",
					"type": "address"
				},
				{
					"internalType": "uint256",
					"name": "targetPercentage",
					"type": "uint256"
				},
				{
					"internalType": "string",
					"name": "version",
					"type": "string"
				},
				{
					"internalType": "uint24",
					"name": "feeTier",
					"type": "uint24"
				}
			],
			"stateMutability": "view",
			"type": "function"
		},
		{
			"inputs": [],
			"name": "profitToETH",
			"outputs": [
				{
					"internalType": "uint256",
					"name": "",
					"type": "uint256"
				}
			],
			"stateMutability": "view",
			"type": "function"
		},
		{
			"inputs": [
				{
					"internalType": "uint256[]",
					"name": "_tokenPrices",
					"type": "uint256[]"
				}
			],
			"name": "rebalance",
			"outputs": [],
			"stateMutability": "nonpayable",
			"type": "function"
		},
		{
			"inputs": [],
			"name": "renounceOwnership",
			"outputs": [],
			"stateMutability": "nonpayable",
			"type": "function"
		},
		{
			"inputs": [
				{
					"internalType": "address",
					"name": "user",
					"type": "address"
				}
			],
			"name": "retryFailedSwaps",
			"outputs": [],
			"stateMutability": "nonpayable",
			"type": "function"
		},
		{
			"inputs": [
				{
					"internalType": "uint256",
					"name": "_depositFee",
					"type": "uint256"
				},
				{
					"internalType": "uint256",
					"name": "_withdrawalFee",
					"type": "uint256"
				}
			],
			"name": "setFees",
			"outputs": [],
			"stateMutability": "nonpayable",
			"type": "function"
		},
		{
			"inputs": [
				{
					"internalType": "uint256",
					"name": "_slippageTolerance",
					"type": "uint256"
				}
			],
			"name": "setSlippageTolerance",
			"outputs": [],
			"stateMutability": "nonpayable",
			"type": "function"
		},
		{
			"inputs": [
				{
					"internalType": "address",
					"name": "_user",
					"type": "address"
				},
				{
					"internalType": "bool",
					"name": "_status",
					"type": "bool"
				}
			],
			"name": "setWhitelist",
			"outputs": [],
			"stateMutability": "nonpayable",
			"type": "function"
		},
		{
			"inputs": [],
			"name": "slippageTolerance",
			"outputs": [
				{
					"internalType": "uint256",
					"name": "",
					"type": "uint256"
				}
			],
			"stateMutability": "view",
			"type": "function"
		},
		{
			"inputs": [
				{
					"internalType": "contract IERC20",
					"name": "_token",
					"type": "address"
				},
				{
					"internalType": "uint256",
					"name": "_ethAmount",
					"type": "uint256"
				},
				{
					"internalType": "string",
					"name": "version",
					"type": "string"
				},
				{
					"internalType": "uint24",
					"name": "feeTier",
					"type": "uint24"
				}
			],
			"name": "swapETHForToken",
			"outputs": [],
			"stateMutability": "payable",
			"type": "function"
		},
		{
			"inputs": [
				{
					"internalType": "contract IERC20",
					"name": "_token",
					"type": "address"
				},
				{
					"internalType": "uint256",
					"name": "_amountIn",
					"type": "uint256"
				},
				{
					"internalType": "string",
					"name": "version",
					"type": "string"
				},
				{
					"internalType": "uint24",
					"name": "feeTier",
					"type": "uint24"
				}
			],
			"name": "swapTokenForETH",
			"outputs": [
				{
					"internalType": "uint256",
					"name": "",
					"type": "uint256"
				}
			],
			"stateMutability": "nonpayable",
			"type": "function"
		},
		{
			"inputs": [],
			"name": "symbol",
			"outputs": [
				{
					"internalType": "string",
					"name": "",
					"type": "string"
				}
			],
			"stateMutability": "view",
			"type": "function"
		},
		{
			"inputs": [],
			"name": "totalFees",
			"outputs": [
				{
					"internalType": "uint256",
					"name": "",
					"type": "uint256"
				}
			],
			"stateMutability": "view",
			"type": "function"
		},
		{
			"inputs": [],
			"name": "totalSupply",
			"outputs": [
				{
					"internalType": "uint256",
					"name": "",
					"type": "uint256"
				}
			],
			"stateMutability": "view",
			"type": "function"
		},
		{
			"inputs": [
				{
					"internalType": "address",
					"name": "to",
					"type": "address"
				},
				{
					"internalType": "uint256",
					"name": "value",
					"type": "uint256"
				}
			],
			"name": "transfer",
			"outputs": [
				{
					"internalType": "bool",
					"name": "",
					"type": "bool"
				}
			],
			"stateMutability": "nonpayable",
			"type": "function"
		},
		{
			"inputs": [
				{
					"internalType": "address",
					"name": "from",
					"type": "address"
				},
				{
					"internalType": "address",
					"name": "to",
					"type": "address"
				},
				{
					"internalType": "uint256",
					"name": "value",
					"type": "uint256"
				}
			],
			"name": "transferFrom",
			"outputs": [
				{
					"internalType": "bool",
					"name": "",
					"type": "bool"
				}
			],
			"stateMutability": "nonpayable",
			"type": "function"
		},
		{
			"inputs": [
				{
					"internalType": "address",
					"name": "newOwner",
					"type": "address"
				}
			],
			"name": "transferOwnership",
			"outputs": [],
			"stateMutability": "nonpayable",
			"type": "function"
		},
		{
			"inputs": [],
			"name": "uniswapV2Router",
			"outputs": [
				{
					"internalType": "contract IUniswapV2Router02",
					"name": "",
					"type": "address"
				}
			],
			"stateMutability": "view",
			"type": "function"
		},
		{
			"inputs": [],
			"name": "uniswapV3Quoter",
			"outputs": [
				{
					"internalType": "contract IUniswapV3Quoter",
					"name": "",
					"type": "address"
				}
			],
			"stateMutability": "view",
			"type": "function"
		},
		{
			"inputs": [],
			"name": "uniswapV3Router",
			"outputs": [
				{
					"internalType": "contract ISwapRouter",
					"name": "",
					"type": "address"
				}
			],
			"stateMutability": "view",
			"type": "function"
		},
		{
			"inputs": [],
			"name": "unpause",
			"outputs": [],
			"stateMutability": "nonpayable",
			"type": "function"
		},
		{
			"inputs": [
				{
					"internalType": "address",
					"name": "",
					"type": "address"
				}
			],
			"name": "userFailedSwaps",
			"outputs": [
				{
					"internalType": "uint256",
					"name": "",
					"type": "uint256"
				}
			],
			"stateMutability": "view",
			"type": "function"
		},
		{
			"inputs": [
				{
					"internalType": "address",
					"name": "",
					"type": "address"
				}
			],
			"name": "whitelist",
			"outputs": [
				{
					"internalType": "bool",
					"name": "",
					"type": "bool"
				}
			],
			"stateMutability": "view",
			"type": "function"
		},
		{
			"inputs": [
				{
					"internalType": "uint256",
					"name": "tokenAmount",
					"type": "uint256"
				}
			],
			"name": "withdraw",
			"outputs": [],
			"stateMutability": "nonpayable",
			"type": "function"
		},
		{
			"inputs": [],
			"name": "withdrawAllToETH",
			"outputs": [],
			"stateMutability": "nonpayable",
			"type": "function"
		},
		{
			"inputs": [
				{
					"internalType": "address",
					"name": "_receiverFeeAddress",
					"type": "address"
				}
			],
			"name": "withdrawFeesByOwner",
			"outputs": [],
			"stateMutability": "nonpayable",
			"type": "function"
		},
		{
			"inputs": [
				{
					"internalType": "uint256",
					"name": "tokenAmount",
					"type": "uint256"
				}
			],
			"name": "withdrawToETH",
			"outputs": [],
			"stateMutability": "nonpayable",
			"type": "function"
		},
		{
			"inputs": [],
			"name": "withdrawalFee",
			"outputs": [
				{
					"internalType": "uint256",
					"name": "",
					"type": "uint256"
				}
			],
			"stateMutability": "view",
			"type": "function"
		}
	]
}