{
	"data": {
		"bytecode": {
			"linkReferences": {},
			"object": "6080604052600e805460ff191690553480156200001a575f80fd5b5060405162003d4a38038062003d4a8339810160408190526200003d9162000219565b828282878733806200006857604051631e4fbdf760e01b81525f600482015260240160405180910390fd5b6200007381620000f0565b50600462000082838262000341565b50600562000091828262000341565b5050600980546001600160a01b039586166001600160a01b031991821617909155600a80549486169482169490941790935550600b805491909316908216179091556103e8600755601080549091163317905550620004099350505050565b5f80546001600160a01b038381166001600160a01b0319831681178455604051919092169283917f8be0079c531659141344cd1fd0a4f28419497f9722a3daafe3b4186f6b6457e09190a35050565b634e487b7160e01b5f52604160045260245ffd5b5f82601f83011262000163575f80fd5b81516001600160401b03808211156200018057620001806200013f565b604051601f8301601f19908116603f01168101908282118183101715620001ab57620001ab6200013f565b81604052838152602092508683858801011115620001c7575f80fd5b5f91505b83821015620001ea5785820183015181830184015290820190620001cb565b5f93810190920192909252949350505050565b80516001600160a01b038116811462000214575f80fd5b919050565b5f805f805f60a086880312156200022e575f80fd5b85516001600160401b038082111562000245575f80fd5b6200025389838a0162000153565b9650602088015191508082111562000269575f80fd5b50620002788882890162000153565b9450506200028960408701620001fd565b92506200029960608701620001fd565b9150620002a960808701620001fd565b90509295509295909350565b600181811c90821680620002ca57607f821691505b602082108103620002e957634e487b7160e01b5f52602260045260245ffd5b50919050565b601f8211156200033c575f81815260208120601f850160051c81016020861015620003175750805b601f850160051c820191505b81811015620003385782815560010162000323565b5050505b505050565b81516001600160401b038111156200035d576200035d6200013f565b62000375816200036e8454620002b5565b84620002ef565b602080601f831160018114620003ab575f8415620003935750858301515b5f19600386901b1c1916600185901b17855562000338565b5f85815260208120601f198616915b82811015620003db57888601518255948401946001909101908401620003ba565b5085821015620003f957878501515f19600388901b60f8161c191681555b5050505050600190811b01905550565b61393380620004175f395ff3fe6080604052600436106101db575f3560e01c80634d20d0f8116100fd578063a9059cbb11610092578063dd62ed3e11610062578063dd62ed3e14610574578063df0e0768146105b8578063e24e9e07146105cc578063f2fde38b146105eb575f80fd5b8063a9059cbb1461050d578063c38cd0b51461052c578063d03153aa14610557578063d0e30db01461056c575f80fd5b80638da5cb5b116100cd5780638da5cb5b1461049257806391ebe50f146104ae57806395d89b41146104da578063a738c7df146104ee575f80fd5b80634d20d0f81461041257806370a0823114610431578063715018a61461046557806381a06b7314610479575f80fd5b80632c76d7a611610173578063313ce56711610143578063313ce5671461037d57806336a43f2b14610398578063378a653c146103c35780633d7526f7146103f3575f80fd5b80632c76d7a61461030d5780632c9351a11461032c5780633043d4d91461034b57806330568ee61461036a575f80fd5b806318160ddd116101ae57806318160ddd146102905780631addd28b146102ae57806323b872dd146102cd5780632a5c792a146102ec575f80fd5b806306fdde03146101df578063095ea7b314610209578063117da1ee146102385780631694505e14610259575b5f80fd5b3480156101ea575f80fd5b506101f361060a565b6040516102009190613015565b60405180910390f35b348015610214575f80fd5b50610228610223366004613042565b61069a565b6040519015158152602001610200565b348015610243575f80fd5b5061025761025236600461306c565b6106b3565b005b348015610264575f80fd5b50600954610278906001600160a01b031681565b6040516001600160a01b039091168152602001610200565b34801561029b575f80fd5b506003545b604051908152602001610200565b3480156102b9575f80fd5b506102a06102c83660046130a8565b6106fc565b3480156102d8575f80fd5b506102286102e7366004613108565b610a4e565b3480156102f7575f80fd5b50610300610a71565b604051610200919061317a565b348015610318575f80fd5b50600a54610278906001600160a01b031681565b348015610337575f80fd5b5061025761034636600461306c565b610b34565b348015610356575f80fd5b5061025761036536600461306c565b61109d565b6102576103783660046131f4565b61128f565b348015610388575f80fd5b5060405160128152602001610200565b3480156103a3575f80fd5b506102a06103b2366004613240565b60086020525f908152604090205481565b3480156103ce575f80fd5b506103e26103dd36600461306c565b6115b6565b60405161020095949392919061325b565b3480156103fe575f80fd5b5061025761040d366004613240565b611609565b34801561041d575f80fd5b50600b54610278906001600160a01b031681565b34801561043c575f80fd5b506102a061044b366004613240565b6001600160a01b03165f9081526001602052604090205490565b348015610470575f80fd5b50610257611ab9565b348015610484575f80fd5b50600e546102289060ff1681565b34801561049d575f80fd5b505f546001600160a01b0316610278565b3480156104b9575f80fd5b506104cd6104c8366004613240565b611acc565b604051610200919061329c565b3480156104e5575f80fd5b506101f3611c92565b3480156104f9575f80fd5b50610257610508366004613240565b611ca1565b348015610518575f80fd5b50610228610527366004613042565b611d4a565b348015610537575f80fd5b506102a0610546366004613240565b600f6020525f908152604090205481565b348015610562575f80fd5b506102a060075481565b610257611d57565b34801561057f575f80fd5b506102a061058e366004613317565b6001600160a01b039182165f90815260026020908152604080832093909416825291909152205490565b3480156105c3575f80fd5b506102786120e4565b3480156105d7575f80fd5b506102576105e6366004613396565b612154565b3480156105f6575f80fd5b50610257610605366004613240565b612437565b60606004805461061990613451565b80601f016020809104026020016040519081016040528092919081815260200182805461064590613451565b80156106905780601f1061066757610100808354040283529160200191610690565b820191905f5260205f20905b81548152906001019060200180831161067357829003601f168201915b5050505050905090565b5f336106a7818585612471565b60019150505b92915050565b6127108111156106f75760405162461bcd60e51b81526004016106ee90602080825260049082015263021534c560e41b604082015260600190565b60405180910390fd5b600755565b5f8084600181111561071057610710613146565b036108b7576040805160028082526060820183525f9260208301908036833701905050905086815f815181106107485761074861349d565b6001600160a01b03928316602091820292909201810191909152600954604080516315ab88c960e31b81529051919093169263ad5c46489260048083019391928290030181865afa15801561079f573d5f803e3d5ffd5b505050506040513d601f19601f820116820180604052508101906107c391906134b1565b816001815181106107d6576107d661349d565b6001600160a01b03928316602091820292909201015260095460405163d06ca61f60e01b81525f92919091169063d06ca61f90610819908a90869060040161350e565b5f60405180830381865afa158015610833573d5f803e3d5ffd5b505050506040513d5f823e601f3d908101601f1916820160405261085a919081019061352e565b90505f61271060075461271061087091906135fb565b836001815181106108835761088361349d565b6020026020010151610895919061360e565b61089f9190613625565b90506108ad8989838861247e565b9350505050610a45565b60018460018111156108cb576108cb613146565b03610a17575f868460095f9054906101000a90046001600160a01b03166001600160a01b031663ad5c46486040518163ffffffff1660e01b8152600401602060405180830381865afa158015610923573d5f803e3d5ffd5b505050506040513d601f19601f8201168201806040525081019061094791906134b1565b60405160200161095993929190613644565b60408051601f1981840301815290829052600b5463cdca175360e01b83529092505f916001600160a01b039091169063cdca17539061099e9085908b9060040161367f565b6020604051808303815f875af11580156109ba573d5f803e3d5ffd5b505050506040513d601f19601f820116820180604052508101906109de91906136a0565b90505f6127106007546127106109f491906135fb565b6109fe908461360e565b610a089190613625565b90506108ad8989888489612669565b60405162461bcd60e51b815260206004820152600360248201526210aaab60e91b60448201526064016106ee565b95945050505050565b5f33610a5b858285612826565b610a6685858561289b565b506001949350505050565b6060600c805480602002602001604051908101604052809291908181526020015f905b82821015610b2b575f848152602090819020604080516080810182526003860290920180546001600160a01b03168352600180820154948401949094526002810154929390929184019160ff1690811115610af157610af1613146565b6001811115610b0257610b02613146565b815260029190910154610100900462ffffff166020918201529082526001929092019101610a94565b50505050905090565b5f8111610b685760405162461bcd60e51b815260206004820152600260248201526103e360f41b60448201526064016106ee565b6040516370a0823160e01b8152336004820152819030906370a0823190602401602060405180830381865afa158015610ba3573d5f803e3d5ffd5b505050506040513d601f19601f82011682018060405250810190610bc791906136a0565b1015610c055760405162461bcd60e51b815260206004820152600d60248201526c08525b9cdd59999a58da595b9d609a1b60448201526064016106ee565b5f610c0f60035490565b610c1b8361271061360e565b610c259190613625565b90505f60095f9054906101000a90046001600160a01b03166001600160a01b031663ad5c46486040518163ffffffff1660e01b8152600401602060405180830381865afa158015610c78573d5f803e3d5ffd5b505050506040513d601f19601f82011682018060405250810190610c9c91906134b1565b90505f805f5b600c54811015610e6f575f600c8281548110610cc057610cc061349d565b5f918252602082206003919091020180546040516370a0823160e01b81523060048201529193506127109189916001600160a01b0316906370a0823190602401602060405180830381865afa158015610d1b573d5f803e3d5ffd5b505050506040513d601f19601f82011682018060405250810190610d3f91906136a0565b610d49919061360e565b610d539190613625565b82546002840154604051631addd28b60e01b81529293503092631addd28b92610d9f926001600160a01b0390911691869160ff81169161010090910462ffffff169087906004016136b7565b6020604051808303815f875af1925050508015610dd9575060408051601f3d908101601f19168201909252610dd6918101906136a0565b60015b15610e5a5760405161763360f01b602082015260220160408051601f1981840301815290829052805160209182012060028601549092610e1f9260ff90921691016136fb565b6040516020818303038152906040528051906020012003610e4b57610e448186613727565b9450610e58565b610e558187613727565b95505b505b50508080610e679061373a565b915050610ca2565b50610e7a33866128f8565b601054604080516322f1fa3160e21b815290515f926001600160a01b031691638bc7e8c49160048083019260209291908290030181865afa158015610ec1573d5f803e3d5ffd5b505050506040513d601f19601f82011682018060405250810190610ee59190613752565b90508115610fa0575f612710610eff61ffff84168561360e565b610f099190613625565b90505f610f1682856135fb565b905081600d5f828254610f299190613727565b909155505060405163a9059cbb60e01b8152336004820152602481018290526001600160a01b0387169063a9059cbb906044016020604051808303815f875af1158015610f78573d5f803e3d5ffd5b505050506040513d601f19601f82011682018060405250810190610f9c9190613773565b5050505b8215611095575f612710610fb861ffff84168661360e565b610fc29190613625565b90505f610fcf82866135fb565b905081600d5f828254610fe29190613727565b9091555050335f908152600f6020526040812054906110018383613727565b6040519091505f90339083908381818185875af1925050503d805f8114611043576040519150601f19603f3d011682016040523d82523d5f602084013e611048565b606091505b505090508061108f5760405162461bcd60e51b8152602060048201526013602482015272115512081d1c985b9cd9995c8819985a5b1959606a1b60448201526064016106ee565b50505050505b505050505050565b5f81116110d25760405162461bcd60e51b81526020600482015260036024820152620573e360ec1b60448201526064016106ee565b335f9081526001602052604090205481111561111b5760405162461bcd60e51b81526020600482015260086024820152672162616c616e636560c01b60448201526064016106ee565b5f61112560035490565b6111318361271061360e565b61113b9190613625565b905061114733836128f8565b5f5b600c5481101561128a575f600c82815481106111675761116761349d565b5f918252602082206003919091020180546040516370a0823160e01b81523060048201529193506127109186916001600160a01b0316906370a0823190602401602060405180830381865afa1580156111c2573d5f803e3d5ffd5b505050506040513d601f19601f820116820180604052508101906111e691906136a0565b6111f0919061360e565b6111fa9190613625565b9050801561127557815460405163a9059cbb60e01b8152336004820152602481018390526001600160a01b039091169063a9059cbb906044016020604051808303815f875af115801561124f573d5f803e3d5ffd5b505050506040513d601f19601f820116820180604052508101906112739190613773565b505b505080806112829061373a565b915050611149565b505050565b5f8260018111156112a2576112a2613146565b03611457576040805160028082526060820183525f926020830190803683375050600954604080516315ab88c960e31b815290519394506001600160a01b039091169263ad5c4648925060048083019260209291908290030181865afa15801561130e573d5f803e3d5ffd5b505050506040513d601f19601f8201168201806040525081019061133291906134b1565b815f815181106113445761134461349d565b60200260200101906001600160a01b031690816001600160a01b03168152505084816001815181106113785761137861349d565b6001600160a01b03928316602091820292909201015260095460405163d06ca61f60e01b81525f92919091169063d06ca61f906113bb908890869060040161350e565b5f60405180830381865afa1580156113d5573d5f803e3d5ffd5b505050506040513d5f823e601f3d908101601f191682016040526113fc919081019061352e565b90505f61271060075461271061141291906135fb565b836001815181106114255761142561349d565b6020026020010151611437919061360e565b6114419190613625565b905061144e87878361292c565b505050506115b0565b600182600181111561146b5761146b613146565b03610a1757600954604080516315ab88c960e31b815290515f926001600160a01b03169163ad5c46489160048083019260209291908290030181865afa1580156114b7573d5f803e3d5ffd5b505050506040513d601f19601f820116820180604052508101906114db91906134b1565b82866040516020016114ef93929190613644565b60408051601f1981840301815290829052600b5463cdca175360e01b83529092505f916001600160a01b039091169063cdca175390611534908590899060040161367f565b6020604051808303815f875af1158015611550573d5f803e3d5ffd5b505050506040513d601f19601f8201168201806040525081019061157491906136a0565b90505f61271060075461271061158a91906135fb565b611594908461360e565b61159e9190613625565b90506115ac87878684612a89565b5050505b50505050565b600681815481106115c5575f80fd5b5f91825260209091206004909102018054600182015460028301546003909301546001600160a01b0392831694509116919060ff811690610100900462ffffff1685565b5f5b600654811015611ab557816001600160a01b0316600682815481106116325761163261349d565b5f9182526020909120600490910201546001600160a01b031603611aa3575f600682815481106116645761166461349d565b5f9182526020918290206040805160a081018252600490930290910180546001600160a01b03908116845260018083015490911694840194909452600281015491830191909152600381015491929091606084019160ff909116908111156116ce576116ce613146565b60018111156116df576116df613146565b815260039190910154610100900462ffffff16602090910152905060018160600151600181111561171257611712613146565b0361199c5760095f9054906101000a90046001600160a01b03166001600160a01b031663ad5c46486040518163ffffffff1660e01b8152600401602060405180830381865afa158015611767573d5f803e3d5ffd5b505050506040513d601f19601f8201168201806040525081019061178b91906134b1565b6001600160a01b031663d0e30db082604001516040518263ffffffff1660e01b81526004015f604051808303818588803b1580156117c7575f80fd5b505af11580156117d9573d5f803e3d5ffd5b505050602083015160408085015160608601516080870151925163182b477360e11b81523096506330568ee69550611815949390600401613792565b5f604051808303815f87803b15801561182c575f80fd5b505af192505050801561183d575060015b6119705760066040518060a00160405280336001600160a01b0316815260200183602001516001600160a01b03168152602001836040015181526020018360600151600181111561189057611890613146565b8152608084015162ffffff166020918201528254600181810185555f94855293829020835160049092020180546001600160a01b039283166001600160a01b0319918216178255928401518186018054919093169316929092179055604082015160028201556060820151600382018054939492939192909160ff191690838181111561191f5761191f613146565b0217905550608091909101516003909101805462ffffff9092166101000263ffffff0019909216919091179055335f9081526008602052604081208054916119668361373a565b9190505550611aa1565b61197982612bb3565b6001600160a01b0383165f908152600860205260408120805491611966836137ca565b5f816060015160018111156119b3576119b3613146565b03611aa157604080820151602083015160608401516080850151935163182b477360e11b815230946330568ee694936119f3939092859290600401613792565b5f604051808303818588803b158015611a0a575f80fd5b505af193505050508015611a1c575060015b611a6f5760066040518060a00160405280336001600160a01b0316815260200183602001516001600160a01b03168152602001836040015181526020018360600151600181111561189057611890613146565b611a7882612bb3565b6001600160a01b0383165f908152600860205260408120805491611a9b836137ca565b91905055505b505b80611aad8161373a565b91505061160b565b5050565b611ac1612d2b565b611aca5f612d57565b565b6001600160a01b0381165f908152600860205260408120546060919067ffffffffffffffff811115611b0057611b00613489565b604051908082528060200260200182016040528015611b5757816020015b6040805160a0810182525f808252602080830182905292820181905260608201819052608082015282525f19909201910181611b1e5790505b5090505f805b600654811015611c8957846001600160a01b031660068281548110611b8457611b8461349d565b5f9182526020909120600490910201546001600160a01b031603611c775760068181548110611bb557611bb561349d565b5f9182526020918290206040805160a081018252600490930290910180546001600160a01b03908116845260018083015490911694840194909452600281015491830191909152600381015491929091606084019160ff90911690811115611c1f57611c1f613146565b6001811115611c3057611c30613146565b815260039190910154610100900462ffffff166020909101528351849084908110611c5d57611c5d61349d565b60200260200101819052508180611c739061373a565b9250505b80611c818161373a565b915050611b5d565b50909392505050565b60606005805461061990613451565b611ca9612d2b565b600d5415611d4757600d546040515f916001600160a01b038416918381818185875af1925050503d805f8114611cfa576040519150601f19603f3d011682016040523d82523d5f602084013e611cff565b606091505b5050905080611d415760405162461bcd60e51b815260206004820152600e60248201526d1d1c985b9cd9995c91985a5b195960921b60448201526064016106ee565b505f600d555b50565b5f336106a781858561289b565b5f3411611d8c5760405162461bcd60e51b81526020600482015260036024820152620213e360ec1b60448201526064016106ee565b601054604080516367a5279360e01b815290515f926001600160a01b0316916367a527939160048083019260209291908290030181865afa158015611dd3573d5f803e3d5ffd5b505050506040513d601f19601f82011682018060405250810190611df79190613752565b90505f612710611e0b61ffff84163461360e565b611e159190613625565b90505f611e2282346135fb565b905081600d5f828254611e359190613727565b909155505080611e6d5760405162461bcd60e51b81526020600482015260036024820152620213e360ec1b60448201526064016106ee565b611e773382612da6565b5f5b600c548110156115b0575f600c8281548110611e9757611e9761349d565b905f5260205f20906003020190505f612710826001015485611eb9919061360e565b611ec39190613625565b905083811115611f0d5760405162461bcd60e51b815260206004820152601560248201527421657468416d6f756e743c3d616d6f756e7466656560581b60448201526064016106ee565b80156120cf578154600283015460405163182b477360e11b815230926330568ee6928592611f59926001600160a01b031691849160ff821691610100900462ffffff1690600401613792565b5f604051808303818588803b158015611f70575f80fd5b505af193505050508015611f82575060015b6120cf57335f908152600f602052604081208054839290611fa4908490613727565b90915550506040805160a08101825233815283546001600160a01b03166020820152908101829052600283015460069190606082019060ff166001811115611fee57611fee613146565b8152600285810154610100900462ffffff166020928301528354600180820186555f95865294839020845160049092020180546001600160a01b03199081166001600160a01b039384161782559385015181870180549095169216919091179092556040830151908201556060820151600382018054939492939192909160ff191690838181111561208257612082613146565b0217905550608091909101516003909101805462ffffff9092166101000263ffffff0019909216919091179055335f9081526008602052604081208054916120c98361373a565b91905055505b505080806120dc9061373a565b915050611e79565b600954604080516315ab88c960e31b815290515f926001600160a01b03169163ad5c46489160048083019260209291908290030181865afa15801561212b573d5f803e3d5ffd5b505050506040513d601f19601f8201168201806040525081019061214f91906134b1565b905090565b61215c612d2b565b600e5460ff161561219d5760405162461bcd60e51b815260206004820152600b60248201526a1a5b9a5d1a585b1a5e995960aa1b60448201526064016106ee565b8685146121e15760405162461bcd60e51b81526020600482015260126024820152714d69736d617463686564206c656e6774687360701b60448201526064016106ee565b5f805b888110156123e3576127108888838181106122015761220161349d565b90506020020135111561224a5760405162461bcd60e51b8152602060048201526011602482015270496e76616c696450657263656e7461676560781b60448201526064016106ee565b87878281811061225c5761225c61349d565b905060200201358261226e9190613727565b9150600c60405180608001604052808c8c8581811061228f5761228f61349d565b90506020020160208101906122a49190613240565b6001600160a01b031681526020018a8a858181106122c4576122c461349d565b9050602002013581526020018888858181106122e2576122e261349d565b90506020020160208101906122f791906137df565b600181111561230857612308613146565b815260200186868581811061231f5761231f61349d565b905060200201602081019061233491906137f8565b62ffffff1690528154600180820184555f938452602093849020835160039093020180546001600160a01b0319166001600160a01b0390931692909217825592820151818401556040820151600282018054939492939192909160ff19169083818111156123a4576123a4613146565b0217905550606091909101516002909101805462ffffff9092166101000263ffffff0019909216919091179055806123db8161373a565b9150506121e4565b50806127101461241f5760405162461bcd60e51b81526020600482015260076024820152660743d31303030360cc1b60448201526064016106ee565b5050600e805460ff1916600117905550505050505050565b61243f612d2b565b6001600160a01b03811661246857604051631e4fbdf760e01b81525f60048201526024016106ee565b611d4781612d57565b61128a8383836001612dda565b6040805160028082526060820183525f928392919060208301908036833701905050905085815f815181106124b5576124b561349d565b6001600160a01b03928316602091820292909201810191909152600954604080516315ab88c960e31b81529051919093169263ad5c46489260048083019391928290030181865afa15801561250c573d5f803e3d5ffd5b505050506040513d601f19601f8201168201806040525081019061253091906134b1565b816001815181106125435761254361349d565b6001600160a01b03928316602091820292909201015260095460405163095ea7b360e01b81529082166004820152602481018790529087169063095ea7b3906044016020604051808303815f875af11580156125a1573d5f803e3d5ffd5b505050506040513d601f19601f820116820180604052508101906125c59190613773565b506009546040516318cbafe560e01b81525f916001600160a01b0316906318cbafe5906125fe908990899087908a904290600401613811565b5f604051808303815f875af1158015612619573d5f803e3d5ffd5b505050506040513d5f823e601f3d908101601f19168201604052612640919081019061352e565b9050806001815181106126555761265561349d565b602002602001015192505050949350505050565b5f80604051806101000160405280886001600160a01b0316815260200160095f9054906101000a90046001600160a01b03166001600160a01b031663ad5c46486040518163ffffffff1660e01b8152600401602060405180830381865afa1580156126d6573d5f803e3d5ffd5b505050506040513d601f19601f820116820180604052508101906126fa91906134b1565b6001600160a01b03908116825262ffffff88166020830152858116604080840191909152426060840152608083018a905260a083018890525f60c090930192909252600a54915163095ea7b360e01b81529181166004830152602482018990529192509088169063095ea7b3906044016020604051808303815f875af1158015612786573d5f803e3d5ffd5b505050506040513d601f19601f820116820180604052508101906127aa9190613773565b50600a5460405163414bf38960e01b81526001600160a01b039091169063414bf389906127db90849060040161384c565b6020604051808303815f875af11580156127f7573d5f803e3d5ffd5b505050506040513d601f19601f8201168201806040525081019061281b91906136a0565b979650505050505050565b6001600160a01b038381165f908152600260209081526040808320938616835292905220545f1981146115b0578181101561288d57604051637dc7a0d960e11b81526001600160a01b038416600482015260248101829052604481018390526064016106ee565b6115b084848484035f612dda565b6001600160a01b0383166128c457604051634b637e8f60e11b81525f60048201526024016106ee565b6001600160a01b0382166128ed5760405163ec442f0560e01b81525f60048201526024016106ee565b61128a838383612eac565b6001600160a01b03821661292157604051634b637e8f60e11b81525f60048201526024016106ee565b611ab5825f83612eac565b60408051600280825260608083018452925f9291906020830190803683375050600954604080516315ab88c960e31b815290519394506001600160a01b039091169263ad5c4648925060048083019260209291908290030181865afa158015612997573d5f803e3d5ffd5b505050506040513d601f19601f820116820180604052508101906129bb91906134b1565b815f815181106129cd576129cd61349d565b60200260200101906001600160a01b031690816001600160a01b0316815250508481600181518110612a0157612a0161349d565b6001600160a01b039283166020918202929092010152600954604051637ff36ab560e01b8152911690637ff36ab5908690612a469087908690309042906004016138b5565b5f6040518083038185885af1158015612a61573d5f803e3d5ffd5b50505050506040513d5f823e601f3d908101601f19168201604052610a45919081019061352e565b6040805161010081018083526009546315ab88c960e31b90915291515f9282916001600160a01b039091169063ad5c464890610104808501916020918187030181865afa158015612adc573d5f803e3d5ffd5b505050506040513d601f19601f82011682018060405250810190612b0091906134b1565b6001600160a01b039081168252878116602083015262ffffff861660408084019190915230606084015242608084015260a0830188905260c083018690525f60e090930192909252600a54915163414bf38960e01b8152929350169063414bf389908690612b7290859060040161384c565b60206040518083038185885af1158015612b8e573d5f803e3d5ffd5b50505050506040513d601f19601f8201168201806040525081019061109591906136a0565b6006548110612bed5760405162461bcd60e51b8152602060048201526006602482015265042d2dcc8caf60d31b60448201526064016106ee565b60068054612bfd906001906135fb565b81548110612c0d57612c0d61349d565b905f5260205f20906004020160068281548110612c2c57612c2c61349d565b5f9182526020909120825460049092020180546001600160a01b03199081166001600160a01b0393841617825560018085015481840180549093169416939093179055600280840154908201556003808401549082018054929360ff90921692909160ff19909116908381811115612ca657612ca6613146565b02179055506003918201549101805463ffffff0019166101009283900462ffffff169092029190911790556006805480612ce257612ce26138e9565b5f8281526020812060045f199093019283020180546001600160a01b0319908116825560018201805490911690556002810191909155600301805463ffffffff19169055905550565b5f546001600160a01b03163314611aca5760405163118cdaa760e01b81523360048201526024016106ee565b5f80546001600160a01b038381166001600160a01b0319831681178455604051919092169283917f8be0079c531659141344cd1fd0a4f28419497f9722a3daafe3b4186f6b6457e09190a35050565b6001600160a01b038216612dcf5760405163ec442f0560e01b81525f60048201526024016106ee565b611ab55f8383612eac565b6001600160a01b038416612e035760405163e602df0560e01b81525f60048201526024016106ee565b6001600160a01b038316612e2c57604051634a1406b160e11b81525f60048201526024016106ee565b6001600160a01b038085165f90815260026020908152604080832093871683529290522082905580156115b057826001600160a01b0316846001600160a01b03167f8c5be1e5ebec7d5bd14f71427d1e84f3dd0314c0f7b2291e5b200ac8c7c3b92584604051612e9e91815260200190565b60405180910390a350505050565b6001600160a01b038316612ed6578060035f828254612ecb9190613727565b90915550612f469050565b6001600160a01b0383165f9081526001602052604090205481811015612f285760405163391434e360e21b81526001600160a01b038516600482015260248101829052604481018390526064016106ee565b6001600160a01b0384165f9081526001602052604090209082900390555b6001600160a01b038216612f6257600380548290039055612f80565b6001600160a01b0382165f9081526001602052604090208054820190555b816001600160a01b0316836001600160a01b03167fddf252ad1be2c89b69c2b068fc378daa952ba7f163c4a11628f55a4df523b3ef83604051612fc591815260200190565b60405180910390a3505050565b5f81518084525f5b81811015612ff657602081850181015186830182015201612fda565b505f602082860101526020601f19601f83011685010191505092915050565b602081525f6130276020830184612fd2565b9392505050565b6001600160a01b0381168114611d47575f80fd5b5f8060408385031215613053575f80fd5b823561305e8161302e565b946020939093013593505050565b5f6020828403121561307c575f80fd5b5035919050565b803560028110613091575f80fd5b919050565b803562ffffff81168114613091575f80fd5b5f805f805f60a086880312156130bc575f80fd5b85356130c78161302e565b9450602086013593506130dc60408701613083565b92506130ea60608701613096565b915060808601356130fa8161302e565b809150509295509295909350565b5f805f6060848603121561311a575f80fd5b83356131258161302e565b925060208401356131358161302e565b929592945050506040919091013590565b634e487b7160e01b5f52602160045260245ffd5b6002811061317657634e487b7160e01b5f52602160045260245ffd5b9052565b602080825282518282018190525f919060409081850190868401855b828110156131e757815180516001600160a01b031685528681015187860152858101516131c58787018261315a565b5060609081015162ffffff169085015260809093019290850190600101613196565b5091979650505050505050565b5f805f8060808587031215613207575f80fd5b84356132128161302e565b93506020850135925061322760408601613083565b915061323560608601613096565b905092959194509250565b5f60208284031215613250575f80fd5b81356130278161302e565b6001600160a01b038681168252851660208201526040810184905260a08101613287606083018561315a565b62ffffff831660808301529695505050505050565b602080825282518282018190525f919060409081850190868401855b828110156131e757815180516001600160a01b03908116865287820151168786015285810151868601526060808201516132f48288018261315a565b505060809081015162ffffff169085015260a090930192908501906001016132b8565b5f8060408385031215613328575f80fd5b82356133338161302e565b915060208301356133438161302e565b809150509250929050565b5f8083601f84011261335e575f80fd5b50813567ffffffffffffffff811115613375575f80fd5b6020830191508360208260051b850101111561338f575f80fd5b9250929050565b5f805f805f805f806080898b0312156133ad575f80fd5b883567ffffffffffffffff808211156133c4575f80fd5b6133d08c838d0161334e565b909a50985060208b01359150808211156133e8575f80fd5b6133f48c838d0161334e565b909850965060408b013591508082111561340c575f80fd5b6134188c838d0161334e565b909650945060608b0135915080821115613430575f80fd5b5061343d8b828c0161334e565b999c989b5096995094979396929594505050565b600181811c9082168061346557607f821691505b60208210810361348357634e487b7160e01b5f52602260045260245ffd5b50919050565b634e487b7160e01b5f52604160045260245ffd5b634e487b7160e01b5f52603260045260245ffd5b5f602082840312156134c1575f80fd5b81516130278161302e565b5f8151808452602080850194508084015f5b838110156135035781516001600160a01b0316875295820195908201906001016134de565b509495945050505050565b828152604060208201525f61352660408301846134cc565b949350505050565b5f602080838503121561353f575f80fd5b825167ffffffffffffffff80821115613556575f80fd5b818501915085601f830112613569575f80fd5b81518181111561357b5761357b613489565b8060051b604051601f19603f830116810181811085821117156135a0576135a0613489565b6040529182528482019250838101850191888311156135bd575f80fd5b938501935b828510156135db578451845293850193928501926135c2565b98975050505050505050565b634e487b7160e01b5f52601160045260245ffd5b818103818111156106ad576106ad6135e7565b80820281158282048414176106ad576106ad6135e7565b5f8261363f57634e487b7160e01b5f52601260045260245ffd5b500490565b606093841b6bffffffffffffffffffffffff19908116825260e89390931b6001600160e81b0319166014820152921b166017820152602b0190565b604081525f6136916040830185612fd2565b90508260208301529392505050565b5f602082840312156136b0575f80fd5b5051919050565b6001600160a01b0386811682526020820186905260a08201906136dd604084018761315a565b62ffffff851660608401528084166080840152509695505050505050565b5f6002831061371857634e487b7160e01b5f52602160045260245ffd5b5060f89190911b815260010190565b808201808211156106ad576106ad6135e7565b5f6001820161374b5761374b6135e7565b5060010190565b5f60208284031215613762575f80fd5b815161ffff81168114613027575f80fd5b5f60208284031215613783575f80fd5b81518015158114613027575f80fd5b6001600160a01b038516815260208101849052608081016137b6604083018561315a565b62ffffff8316606083015295945050505050565b5f816137d8576137d86135e7565b505f190190565b5f602082840312156137ef575f80fd5b61302782613083565b5f60208284031215613808575f80fd5b61302782613096565b85815284602082015260a060408201525f61382f60a08301866134cc565b6001600160a01b0394909416606083015250608001529392505050565b81516001600160a01b03908116825260208084015182169083015260408084015162ffffff16908301526060808401518216908301526080808401519083015260a0838101519083015260c0808401519083015260e09283015116918101919091526101000190565b848152608060208201525f6138cd60808301866134cc565b6001600160a01b03949094166040830152506060015292915050565b634e487b7160e01b5f52603160045260245ffdfea2646970667358221220fea8c75ac7ef0aed509ae16e54ce24898c7b5d6dd1644ed85fe6359180e278b564736f6c63430008140033",
			"opcodes": "PUSH1 0x80 PUSH1 0x40 MSTORE PUSH1 0xE DUP1 SLOAD PUSH1 0xFF NOT AND SWAP1 SSTORE CALLVALUE DUP1 ISZERO PUSH3 0x1A JUMPI PUSH0 DUP1 REVERT JUMPDEST POP PUSH1 0x40 MLOAD PUSH3 0x3D4A CODESIZE SUB DUP1 PUSH3 0x3D4A DUP4 CODECOPY DUP2 ADD PUSH1 0x40 DUP2 SWAP1 MSTORE PUSH3 0x3D SWAP2 PUSH3 0x219 JUMP JUMPDEST DUP3 DUP3 DUP3 DUP8 DUP8 CALLER DUP1 PUSH3 0x68 JUMPI PUSH1 0x40 MLOAD PUSH4 0x1E4FBDF7 PUSH1 0xE0 SHL DUP2 MSTORE PUSH0 PUSH1 0x4 DUP3 ADD MSTORE PUSH1 0x24 ADD PUSH1 0x40 MLOAD DUP1 SWAP2 SUB SWAP1 REVERT JUMPDEST PUSH3 0x73 DUP2 PUSH3 0xF0 JUMP JUMPDEST POP PUSH1 0x4 PUSH3 0x82 DUP4 DUP3 PUSH3 0x341 JUMP JUMPDEST POP PUSH1 0x5 PUSH3 0x91 DUP3 DUP3 PUSH3 0x341 JUMP JUMPDEST POP POP PUSH1 0x9 DUP1 SLOAD PUSH1 0x1 PUSH1 0x1 PUSH1 0xA0 SHL SUB SWAP6 DUP7 AND PUSH1 0x1 PUSH1 0x1 PUSH1 0xA0 SHL SUB NOT SWAP2 DUP3 AND OR SWAP1 SWAP2 SSTORE PUSH1 0xA DUP1 SLOAD SWAP5 DUP7 AND SWAP5 DUP3 AND SWAP5 SWAP1 SWAP5 OR SWAP1 SWAP4 SSTORE POP PUSH1 0xB DUP1 SLOAD SWAP2 SWAP1 SWAP4 AND SWAP1 DUP3 AND OR SWAP1 SWAP2 SSTORE PUSH2 0x3E8 PUSH1 0x7 SSTORE PUSH1 0x10 DUP1 SLOAD SWAP1 SWAP2 AND CALLER OR SWAP1 SSTORE POP PUSH3 0x409 SWAP4 POP POP POP POP JUMP JUMPDEST PUSH0 DUP1 SLOAD PUSH1 0x1 PUSH1 0x1 PUSH1 0xA0 SHL SUB DUP4 DUP2 AND PUSH1 0x1 PUSH1 0x1 PUSH1 0xA0 SHL SUB NOT DUP4 AND DUP2 OR DUP5 SSTORE PUSH1 0x40 MLOAD SWAP2 SWAP1 SWAP3 AND SWAP3 DUP4 SWAP2 PUSH32 0x8BE0079C531659141344CD1FD0A4F28419497F9722A3DAAFE3B4186F6B6457E0 SWAP2 SWAP1 LOG3 POP POP JUMP JUMPDEST PUSH4 0x4E487B71 PUSH1 0xE0 SHL PUSH0 MSTORE PUSH1 0x41 PUSH1 0x4 MSTORE PUSH1 0x24 PUSH0 REVERT JUMPDEST PUSH0 DUP3 PUSH1 0x1F DUP4 ADD SLT PUSH3 0x163 JUMPI PUSH0 DUP1 REVERT JUMPDEST DUP2 MLOAD PUSH1 0x1 PUSH1 0x1 PUSH1 0x40 SHL SUB DUP1 DUP3 GT ISZERO PUSH3 0x180 JUMPI PUSH3 0x180 PUSH3 0x13F JUMP JUMPDEST PUSH1 0x40 MLOAD PUSH1 0x1F DUP4 ADD PUSH1 0x1F NOT SWAP1 DUP2 AND PUSH1 0x3F ADD AND DUP2 ADD SWAP1 DUP3 DUP3 GT DUP2 DUP4 LT OR ISZERO PUSH3 0x1AB JUMPI PUSH3 0x1AB PUSH3 0x13F JUMP JUMPDEST DUP2 PUSH1 0x40 MSTORE DUP4 DUP2 MSTORE PUSH1 0x20 SWAP3 POP DUP7 DUP4 DUP6 DUP9 ADD ADD GT ISZERO PUSH3 0x1C7 JUMPI PUSH0 DUP1 REVERT JUMPDEST PUSH0 SWAP2 POP JUMPDEST DUP4 DUP3 LT ISZERO PUSH3 0x1EA JUMPI DUP6 DUP3 ADD DUP4 ADD MLOAD DUP2 DUP4 ADD DUP5 ADD MSTORE SWAP1 DUP3 ADD SWAP1 PUSH3 0x1CB JUMP JUMPDEST PUSH0 SWAP4 DUP2 ADD SWAP1 SWAP3 ADD SWAP3 SWAP1 SWAP3 MSTORE SWAP5 SWAP4 POP POP POP POP JUMP JUMPDEST DUP1 MLOAD PUSH1 0x1 PUSH1 0x1 PUSH1 0xA0 SHL SUB DUP2 AND DUP2 EQ PUSH3 0x214 JUMPI PUSH0 DUP1 REVERT JUMPDEST SWAP2 SWAP1 POP JUMP JUMPDEST PUSH0 DUP1 PUSH0 DUP1 PUSH0 PUSH1 0xA0 DUP7 DUP9 SUB SLT ISZERO PUSH3 0x22E JUMPI PUSH0 DUP1 REVERT JUMPDEST DUP6 MLOAD PUSH1 0x1 PUSH1 0x1 PUSH1 0x40 SHL SUB DUP1 DUP3 GT ISZERO PUSH3 0x245 JUMPI PUSH0 DUP1 REVERT JUMPDEST PUSH3 0x253 DUP10 DUP4 DUP11 ADD PUSH3 0x153 JUMP JUMPDEST SWAP7 POP PUSH1 0x20 DUP9 ADD MLOAD SWAP2 POP DUP1 DUP3 GT ISZERO PUSH3 0x269 JUMPI PUSH0 DUP1 REVERT JUMPDEST POP PUSH3 0x278 DUP9 DUP3 DUP10 ADD PUSH3 0x153 JUMP JUMPDEST SWAP5 POP POP PUSH3 0x289 PUSH1 0x40 DUP8 ADD PUSH3 0x1FD JUMP JUMPDEST SWAP3 POP PUSH3 0x299 PUSH1 0x60 DUP8 ADD PUSH3 0x1FD JUMP JUMPDEST SWAP2 POP PUSH3 0x2A9 PUSH1 0x80 DUP8 ADD PUSH3 0x1FD JUMP JUMPDEST SWAP1 POP SWAP3 SWAP6 POP SWAP3 SWAP6 SWAP1 SWAP4 POP JUMP JUMPDEST PUSH1 0x1 DUP2 DUP2 SHR SWAP1 DUP3 AND DUP1 PUSH3 0x2CA JUMPI PUSH1 0x7F DUP3 AND SWAP2 POP JUMPDEST PUSH1 0x20 DUP3 LT DUP2 SUB PUSH3 0x2E9 JUMPI PUSH4 0x4E487B71 PUSH1 0xE0 SHL PUSH0 MSTORE PUSH1 0x22 PUSH1 0x4 MSTORE PUSH1 0x24 PUSH0 REVERT JUMPDEST POP SWAP2 SWAP1 POP JUMP JUMPDEST PUSH1 0x1F DUP3 GT ISZERO PUSH3 0x33C JUMPI PUSH0 DUP2 DUP2 MSTORE PUSH1 0x20 DUP2 KECCAK256 PUSH1 0x1F DUP6 ADD PUSH1 0x5 SHR DUP2 ADD PUSH1 0x20 DUP7 LT ISZERO PUSH3 0x317 JUMPI POP DUP1 JUMPDEST PUSH1 0x1F DUP6 ADD PUSH1 0x5 SHR DUP3 ADD SWAP2 POP JUMPDEST DUP2 DUP2 LT ISZERO PUSH3 0x338 JUMPI DUP3 DUP2 SSTORE PUSH1 0x1 ADD PUSH3 0x323 JUMP JUMPDEST POP POP POP JUMPDEST POP POP POP JUMP JUMPDEST DUP2 MLOAD PUSH1 0x1 PUSH1 0x1 PUSH1 0x40 SHL SUB DUP2 GT ISZERO PUSH3 0x35D JUMPI PUSH3 0x35D PUSH3 0x13F JUMP JUMPDEST PUSH3 0x375 DUP2 PUSH3 0x36E DUP5 SLOAD PUSH3 0x2B5 JUMP JUMPDEST DUP5 PUSH3 0x2EF JUMP JUMPDEST PUSH1 0x20 DUP1 PUSH1 0x1F DUP4 GT PUSH1 0x1 DUP2 EQ PUSH3 0x3AB JUMPI PUSH0 DUP5 ISZERO PUSH3 0x393 JUMPI POP DUP6 DUP4 ADD MLOAD JUMPDEST PUSH0 NOT PUSH1 0x3 DUP7 SWAP1 SHL SHR NOT AND PUSH1 0x1 DUP6 SWAP1 SHL OR DUP6 SSTORE PUSH3 0x338 JUMP JUMPDEST PUSH0 DUP6 DUP2 MSTORE PUSH1 0x20 DUP2 KECCAK256 PUSH1 0x1F NOT DUP7 AND SWAP2 JUMPDEST DUP3 DUP2 LT ISZERO PUSH3 0x3DB JUMPI DUP9 DUP7 ADD MLOAD DUP3 SSTORE SWAP5 DUP5 ADD SWAP5 PUSH1 0x1 SWAP1 SWAP2 ADD SWAP1 DUP5 ADD PUSH3 0x3BA JUMP JUMPDEST POP DUP6 DUP3 LT ISZERO PUSH3 0x3F9 JUMPI DUP8 DUP6 ADD MLOAD PUSH0 NOT PUSH1 0x3 DUP9 SWAP1 SHL PUSH1 0xF8 AND SHR NOT AND DUP2 SSTORE JUMPDEST POP POP POP POP POP PUSH1 0x1 SWAP1 DUP2 SHL ADD SWAP1 SSTORE POP JUMP JUMPDEST PUSH2 0x3933 DUP1 PUSH3 0x417 PUSH0 CODECOPY PUSH0 RETURN INVALID PUSH1 0x80 PUSH1 0x40 MSTORE PUSH1 0x4 CALLDATASIZE LT PUSH2 0x1DB JUMPI PUSH0 CALLDATALOAD PUSH1 0xE0 SHR DUP1 PUSH4 0x4D20D0F8 GT PUSH2 0xFD JUMPI DUP1 PUSH4 0xA9059CBB GT PUSH2 0x92 JUMPI DUP1 PUSH4 0xDD62ED3E GT PUSH2 0x62 JUMPI DUP1 PUSH4 0xDD62ED3E EQ PUSH2 0x574 JUMPI DUP1 PUSH4 0xDF0E0768 EQ PUSH2 0x5B8 JUMPI DUP1 PUSH4 0xE24E9E07 EQ PUSH2 0x5CC JUMPI DUP1 PUSH4 0xF2FDE38B EQ PUSH2 0x5EB JUMPI PUSH0 DUP1 REVERT JUMPDEST DUP1 PUSH4 0xA9059CBB EQ PUSH2 0x50D JUMPI DUP1 PUSH4 0xC38CD0B5 EQ PUSH2 0x52C JUMPI DUP1 PUSH4 0xD03153AA EQ PUSH2 0x557 JUMPI DUP1 PUSH4 0xD0E30DB0 EQ PUSH2 0x56C JUMPI PUSH0 DUP1 REVERT JUMPDEST DUP1 PUSH4 0x8DA5CB5B GT PUSH2 0xCD JUMPI DUP1 PUSH4 0x8DA5CB5B EQ PUSH2 0x492 JUMPI DUP1 PUSH4 0x91EBE50F EQ PUSH2 0x4AE JUMPI DUP1 PUSH4 0x95D89B41 EQ PUSH2 0x4DA JUMPI DUP1 PUSH4 0xA738C7DF EQ PUSH2 0x4EE JUMPI PUSH0 DUP1 REVERT JUMPDEST DUP1 PUSH4 0x4D20D0F8 EQ PUSH2 0x412 JUMPI DUP1 PUSH4 0x70A08231 EQ PUSH2 0x431 JUMPI DUP1 PUSH4 0x715018A6 EQ PUSH2 0x465 JUMPI DUP1 PUSH4 0x81A06B73 EQ PUSH2 0x479 JUMPI PUSH0 DUP1 REVERT JUMPDEST DUP1 PUSH4 0x2C76D7A6 GT PUSH2 0x173 JUMPI DUP1 PUSH4 0x313CE567 GT PUSH2 0x143 JUMPI DUP1 PUSH4 0x313CE567 EQ PUSH2 0x37D JUMPI DUP1 PUSH4 0x36A43F2B EQ PUSH2 0x398 JUMPI DUP1 PUSH4 0x378A653C EQ PUSH2 0x3C3 JUMPI DUP1 PUSH4 0x3D7526F7 EQ PUSH2 0x3F3 JUMPI PUSH0 DUP1 REVERT JUMPDEST DUP1 PUSH4 0x2C76D7A6 EQ PUSH2 0x30D JUMPI DUP1 PUSH4 0x2C9351A1 EQ PUSH2 0x32C JUMPI DUP1 PUSH4 0x3043D4D9 EQ PUSH2 0x34B JUMPI DUP1 PUSH4 0x30568EE6 EQ PUSH2 0x36A JUMPI PUSH0 DUP1 REVERT JUMPDEST DUP1 PUSH4 0x18160DDD GT PUSH2 0x1AE JUMPI DUP1 PUSH4 0x18160DDD EQ PUSH2 0x290 JUMPI DUP1 PUSH4 0x1ADDD28B EQ PUSH2 0x2AE JUMPI DUP1 PUSH4 0x23B872DD EQ PUSH2 0x2CD JUMPI DUP1 PUSH4 0x2A5C792A EQ PUSH2 0x2EC JUMPI PUSH0 DUP1 REVERT JUMPDEST DUP1 PUSH4 0x6FDDE03 EQ PUSH2 0x1DF JUMPI DUP1 PUSH4 0x95EA7B3 EQ PUSH2 0x209 JUMPI DUP1 PUSH4 0x117DA1EE EQ PUSH2 0x238 JUMPI DUP1 PUSH4 0x1694505E EQ PUSH2 0x259 JUMPI JUMPDEST PUSH0 DUP1 REVERT JUMPDEST CALLVALUE DUP1 ISZERO PUSH2 0x1EA JUMPI PUSH0 DUP1 REVERT JUMPDEST POP PUSH2 0x1F3 PUSH2 0x60A JUMP JUMPDEST PUSH1 0x40 MLOAD PUSH2 0x200 SWAP2 SWAP1 PUSH2 0x3015 JUMP JUMPDEST PUSH1 0x40 MLOAD DUP1 SWAP2 SUB SWAP1 RETURN JUMPDEST CALLVALUE DUP1 ISZERO PUSH2 0x214 JUMPI PUSH0 DUP1 REVERT JUMPDEST POP PUSH2 0x228 PUSH2 0x223 CALLDATASIZE PUSH1 0x4 PUSH2 0x3042 JUMP JUMPDEST PUSH2 0x69A JUMP JUMPDEST PUSH1 0x40 MLOAD SWAP1 ISZERO ISZERO DUP2 MSTORE PUSH1 0x20 ADD PUSH2 0x200 JUMP JUMPDEST CALLVALUE DUP1 ISZERO PUSH2 0x243 JUMPI PUSH0 DUP1 REVERT JUMPDEST POP PUSH2 0x257 PUSH2 0x252 CALLDATASIZE PUSH1 0x4 PUSH2 0x306C JUMP JUMPDEST PUSH2 0x6B3 JUMP JUMPDEST STOP JUMPDEST CALLVALUE DUP1 ISZERO PUSH2 0x264 JUMPI PUSH0 DUP1 REVERT JUMPDEST POP PUSH1 0x9 SLOAD PUSH2 0x278 SWAP1 PUSH1 0x1 PUSH1 0x1 PUSH1 0xA0 SHL SUB AND DUP2 JUMP JUMPDEST PUSH1 0x40 MLOAD PUSH1 0x1 PUSH1 0x1 PUSH1 0xA0 SHL SUB SWAP1 SWAP2 AND DUP2 MSTORE PUSH1 0x20 ADD PUSH2 0x200 JUMP JUMPDEST CALLVALUE DUP1 ISZERO PUSH2 0x29B JUMPI PUSH0 DUP1 REVERT JUMPDEST POP PUSH1 0x3 SLOAD JUMPDEST PUSH1 0x40 MLOAD SWAP1 DUP2 MSTORE PUSH1 0x20 ADD PUSH2 0x200 JUMP JUMPDEST CALLVALUE DUP1 ISZERO PUSH2 0x2B9 JUMPI PUSH0 DUP1 REVERT JUMPDEST POP PUSH2 0x2A0 PUSH2 0x2C8 CALLDATASIZE PUSH1 0x4 PUSH2 0x30A8 JUMP JUMPDEST PUSH2 0x6FC JUMP JUMPDEST CALLVALUE DUP1 ISZERO PUSH2 0x2D8 JUMPI PUSH0 DUP1 REVERT JUMPDEST POP PUSH2 0x228 PUSH2 0x2E7 CALLDATASIZE PUSH1 0x4 PUSH2 0x3108 JUMP JUMPDEST PUSH2 0xA4E JUMP JUMPDEST CALLVALUE DUP1 ISZERO PUSH2 0x2F7 JUMPI PUSH0 DUP1 REVERT JUMPDEST POP PUSH2 0x300 PUSH2 0xA71 JUMP JUMPDEST PUSH1 0x40 MLOAD PUSH2 0x200 SWAP2 SWAP1 PUSH2 0x317A JUMP JUMPDEST CALLVALUE DUP1 ISZERO PUSH2 0x318 JUMPI PUSH0 DUP1 REVERT JUMPDEST POP PUSH1 0xA SLOAD PUSH2 0x278 SWAP1 PUSH1 0x1 PUSH1 0x1 PUSH1 0xA0 SHL SUB AND DUP2 JUMP JUMPDEST CALLVALUE DUP1 ISZERO PUSH2 0x337 JUMPI PUSH0 DUP1 REVERT JUMPDEST POP PUSH2 0x257 PUSH2 0x346 CALLDATASIZE PUSH1 0x4 PUSH2 0x306C JUMP JUMPDEST PUSH2 0xB34 JUMP JUMPDEST CALLVALUE DUP1 ISZERO PUSH2 0x356 JUMPI PUSH0 DUP1 REVERT JUMPDEST POP PUSH2 0x257 PUSH2 0x365 CALLDATASIZE PUSH1 0x4 PUSH2 0x306C JUMP JUMPDEST PUSH2 0x109D JUMP JUMPDEST PUSH2 0x257 PUSH2 0x378 CALLDATASIZE PUSH1 0x4 PUSH2 0x31F4 JUMP JUMPDEST PUSH2 0x128F JUMP JUMPDEST CALLVALUE DUP1 ISZERO PUSH2 0x388 JUMPI PUSH0 DUP1 REVERT JUMPDEST POP PUSH1 0x40 MLOAD PUSH1 0x12 DUP2 MSTORE PUSH1 0x20 ADD PUSH2 0x200 JUMP JUMPDEST CALLVALUE DUP1 ISZERO PUSH2 0x3A3 JUMPI PUSH0 DUP1 REVERT JUMPDEST POP PUSH2 0x2A0 PUSH2 0x3B2 CALLDATASIZE PUSH1 0x4 PUSH2 0x3240 JUMP JUMPDEST PUSH1 0x8 PUSH1 0x20 MSTORE PUSH0 SWAP1 DUP2 MSTORE PUSH1 0x40 SWAP1 KECCAK256 SLOAD DUP2 JUMP JUMPDEST CALLVALUE DUP1 ISZERO PUSH2 0x3CE JUMPI PUSH0 DUP1 REVERT JUMPDEST POP PUSH2 0x3E2 PUSH2 0x3DD CALLDATASIZE PUSH1 0x4 PUSH2 0x306C JUMP JUMPDEST PUSH2 0x15B6 JUMP JUMPDEST PUSH1 0x40 MLOAD PUSH2 0x200 SWAP6 SWAP5 SWAP4 SWAP3 SWAP2 SWAP1 PUSH2 0x325B JUMP JUMPDEST CALLVALUE DUP1 ISZERO PUSH2 0x3FE JUMPI PUSH0 DUP1 REVERT JUMPDEST POP PUSH2 0x257 PUSH2 0x40D CALLDATASIZE PUSH1 0x4 PUSH2 0x3240 JUMP JUMPDEST PUSH2 0x1609 JUMP JUMPDEST CALLVALUE DUP1 ISZERO PUSH2 0x41D JUMPI PUSH0 DUP1 REVERT JUMPDEST POP PUSH1 0xB SLOAD PUSH2 0x278 SWAP1 PUSH1 0x1 PUSH1 0x1 PUSH1 0xA0 SHL SUB AND DUP2 JUMP JUMPDEST CALLVALUE DUP1 ISZERO PUSH2 0x43C JUMPI PUSH0 DUP1 REVERT JUMPDEST POP PUSH2 0x2A0 PUSH2 0x44B CALLDATASIZE PUSH1 0x4 PUSH2 0x3240 JUMP JUMPDEST PUSH1 0x1 PUSH1 0x1 PUSH1 0xA0 SHL SUB AND PUSH0 SWAP1 DUP2 MSTORE PUSH1 0x1 PUSH1 0x20 MSTORE PUSH1 0x40 SWAP1 KECCAK256 SLOAD SWAP1 JUMP JUMPDEST CALLVALUE DUP1 ISZERO PUSH2 0x470 JUMPI PUSH0 DUP1 REVERT JUMPDEST POP PUSH2 0x257 PUSH2 0x1AB9 JUMP JUMPDEST CALLVALUE DUP1 ISZERO PUSH2 0x484 JUMPI PUSH0 DUP1 REVERT JUMPDEST POP PUSH1 0xE SLOAD PUSH2 0x228 SWAP1 PUSH1 0xFF AND DUP2 JUMP JUMPDEST CALLVALUE DUP1 ISZERO PUSH2 0x49D JUMPI PUSH0 DUP1 REVERT JUMPDEST POP PUSH0 SLOAD PUSH1 0x1 PUSH1 0x1 PUSH1 0xA0 SHL SUB AND PUSH2 0x278 JUMP JUMPDEST CALLVALUE DUP1 ISZERO PUSH2 0x4B9 JUMPI PUSH0 DUP1 REVERT JUMPDEST POP PUSH2 0x4CD PUSH2 0x4C8 CALLDATASIZE PUSH1 0x4 PUSH2 0x3240 JUMP JUMPDEST PUSH2 0x1ACC JUMP JUMPDEST PUSH1 0x40 MLOAD PUSH2 0x200 SWAP2 SWAP1 PUSH2 0x329C JUMP JUMPDEST CALLVALUE DUP1 ISZERO PUSH2 0x4E5 JUMPI PUSH0 DUP1 REVERT JUMPDEST POP PUSH2 0x1F3 PUSH2 0x1C92 JUMP JUMPDEST CALLVALUE DUP1 ISZERO PUSH2 0x4F9 JUMPI PUSH0 DUP1 REVERT JUMPDEST POP PUSH2 0x257 PUSH2 0x508 CALLDATASIZE PUSH1 0x4 PUSH2 0x3240 JUMP JUMPDEST PUSH2 0x1CA1 JUMP JUMPDEST CALLVALUE DUP1 ISZERO PUSH2 0x518 JUMPI PUSH0 DUP1 REVERT JUMPDEST POP PUSH2 0x228 PUSH2 0x527 CALLDATASIZE PUSH1 0x4 PUSH2 0x3042 JUMP JUMPDEST PUSH2 0x1D4A JUMP JUMPDEST CALLVALUE DUP1 ISZERO PUSH2 0x537 JUMPI PUSH0 DUP1 REVERT JUMPDEST POP PUSH2 0x2A0 PUSH2 0x546 CALLDATASIZE PUSH1 0x4 PUSH2 0x3240 JUMP JUMPDEST PUSH1 0xF PUSH1 0x20 MSTORE PUSH0 SWAP1 DUP2 MSTORE PUSH1 0x40 SWAP1 KECCAK256 SLOAD DUP2 JUMP JUMPDEST CALLVALUE DUP1 ISZERO PUSH2 0x562 JUMPI PUSH0 DUP1 REVERT JUMPDEST POP PUSH2 0x2A0 PUSH1 0x7 SLOAD DUP2 JUMP JUMPDEST PUSH2 0x257 PUSH2 0x1D57 JUMP JUMPDEST CALLVALUE DUP1 ISZERO PUSH2 0x57F JUMPI PUSH0 DUP1 REVERT JUMPDEST POP PUSH2 0x2A0 PUSH2 0x58E CALLDATASIZE PUSH1 0x4 PUSH2 0x3317 JUMP JUMPDEST PUSH1 0x1 PUSH1 0x1 PUSH1 0xA0 SHL SUB SWAP2 DUP3 AND PUSH0 SWAP1 DUP2 MSTORE PUSH1 0x2 PUSH1 0x20 SWAP1 DUP2 MSTORE PUSH1 0x40 DUP1 DUP4 KECCAK256 SWAP4 SWAP1 SWAP5 AND DUP3 MSTORE SWAP2 SWAP1 SWAP2 MSTORE KECCAK256 SLOAD SWAP1 JUMP JUMPDEST CALLVALUE DUP1 ISZERO PUSH2 0x5C3 JUMPI PUSH0 DUP1 REVERT JUMPDEST POP PUSH2 0x278 PUSH2 0x20E4 JUMP JUMPDEST CALLVALUE DUP1 ISZERO PUSH2 0x5D7 JUMPI PUSH0 DUP1 REVERT JUMPDEST POP PUSH2 0x257 PUSH2 0x5E6 CALLDATASIZE PUSH1 0x4 PUSH2 0x3396 JUMP JUMPDEST PUSH2 0x2154 JUMP JUMPDEST CALLVALUE DUP1 ISZERO PUSH2 0x5F6 JUMPI PUSH0 DUP1 REVERT JUMPDEST POP PUSH2 0x257 PUSH2 0x605 CALLDATASIZE PUSH1 0x4 PUSH2 0x3240 JUMP JUMPDEST PUSH2 0x2437 JUMP JUMPDEST PUSH1 0x60 PUSH1 0x4 DUP1 SLOAD PUSH2 0x619 SWAP1 PUSH2 0x3451 JUMP JUMPDEST DUP1 PUSH1 0x1F ADD PUSH1 0x20 DUP1 SWAP2 DIV MUL PUSH1 0x20 ADD PUSH1 0x40 MLOAD SWAP1 DUP2 ADD PUSH1 0x40 MSTORE DUP1 SWAP3 SWAP2 SWAP1 DUP2 DUP2 MSTORE PUSH1 0x20 ADD DUP3 DUP1 SLOAD PUSH2 0x645 SWAP1 PUSH2 0x3451 JUMP JUMPDEST DUP1 ISZERO PUSH2 0x690 JUMPI DUP1 PUSH1 0x1F LT PUSH2 0x667 JUMPI PUSH2 0x100 DUP1 DUP4 SLOAD DIV MUL DUP4 MSTORE SWAP2 PUSH1 0x20 ADD SWAP2 PUSH2 0x690 JUMP JUMPDEST DUP3 ADD SWAP2 SWAP1 PUSH0 MSTORE PUSH1 0x20 PUSH0 KECCAK256 SWAP1 JUMPDEST DUP2 SLOAD DUP2 MSTORE SWAP1 PUSH1 0x1 ADD SWAP1 PUSH1 0x20 ADD DUP1 DUP4 GT PUSH2 0x673 JUMPI DUP3 SWAP1 SUB PUSH1 0x1F AND DUP3 ADD SWAP2 JUMPDEST POP POP POP POP POP SWAP1 POP SWAP1 JUMP JUMPDEST PUSH0 CALLER PUSH2 0x6A7 DUP2 DUP6 DUP6 PUSH2 0x2471 JUMP JUMPDEST PUSH1 0x1 SWAP2 POP POP JUMPDEST SWAP3 SWAP2 POP POP JUMP JUMPDEST PUSH2 0x2710 DUP2 GT ISZERO PUSH2 0x6F7 JUMPI PUSH1 0x40 MLOAD PUSH3 0x461BCD PUSH1 0xE5 SHL DUP2 MSTORE PUSH1 0x4 ADD PUSH2 0x6EE SWAP1 PUSH1 0x20 DUP1 DUP3 MSTORE PUSH1 0x4 SWAP1 DUP3 ADD MSTORE PUSH4 0x21534C5 PUSH1 0xE4 SHL PUSH1 0x40 DUP3 ADD MSTORE PUSH1 0x60 ADD SWAP1 JUMP JUMPDEST PUSH1 0x40 MLOAD DUP1 SWAP2 SUB SWAP1 REVERT JUMPDEST PUSH1 0x7 SSTORE JUMP JUMPDEST PUSH0 DUP1 DUP5 PUSH1 0x1 DUP2 GT ISZERO PUSH2 0x710 JUMPI PUSH2 0x710 PUSH2 0x3146 JUMP JUMPDEST SUB PUSH2 0x8B7 JUMPI PUSH1 0x40 DUP1 MLOAD PUSH1 0x2 DUP1 DUP3 MSTORE PUSH1 0x60 DUP3 ADD DUP4 MSTORE PUSH0 SWAP3 PUSH1 0x20 DUP4 ADD SWAP1 DUP1 CALLDATASIZE DUP4 CALLDATACOPY ADD SWAP1 POP POP SWAP1 POP DUP7 DUP2 PUSH0 DUP2 MLOAD DUP2 LT PUSH2 0x748 JUMPI PUSH2 0x748 PUSH2 0x349D JUMP JUMPDEST PUSH1 0x1 PUSH1 0x1 PUSH1 0xA0 SHL SUB SWAP3 DUP4 AND PUSH1 0x20 SWAP2 DUP3 MUL SWAP3 SWAP1 SWAP3 ADD DUP2 ADD SWAP2 SWAP1 SWAP2 MSTORE PUSH1 0x9 SLOAD PUSH1 0x40 DUP1 MLOAD PUSH4 0x15AB88C9 PUSH1 0xE3 SHL DUP2 MSTORE SWAP1 MLOAD SWAP2 SWAP1 SWAP4 AND SWAP3 PUSH4 0xAD5C4648 SWAP3 PUSH1 0x4 DUP1 DUP4 ADD SWAP4 SWAP2 SWAP3 DUP3 SWAP1 SUB ADD DUP2 DUP7 GAS STATICCALL ISZERO DUP1 ISZERO PUSH2 0x79F JUMPI RETURNDATASIZE PUSH0 DUP1 RETURNDATACOPY RETURNDATASIZE PUSH0 REVERT JUMPDEST POP POP POP POP PUSH1 0x40 MLOAD RETURNDATASIZE PUSH1 0x1F NOT PUSH1 0x1F DUP3 ADD AND DUP3 ADD DUP1 PUSH1 0x40 MSTORE POP DUP2 ADD SWAP1 PUSH2 0x7C3 SWAP2 SWAP1 PUSH2 0x34B1 JUMP JUMPDEST DUP2 PUSH1 0x1 DUP2 MLOAD DUP2 LT PUSH2 0x7D6 JUMPI PUSH2 0x7D6 PUSH2 0x349D JUMP JUMPDEST PUSH1 0x1 PUSH1 0x1 PUSH1 0xA0 SHL SUB SWAP3 DUP4 AND PUSH1 0x20 SWAP2 DUP3 MUL SWAP3 SWAP1 SWAP3 ADD ADD MSTORE PUSH1 0x9 SLOAD PUSH1 0x40 MLOAD PUSH4 0xD06CA61F PUSH1 0xE0 SHL DUP2 MSTORE PUSH0 SWAP3 SWAP2 SWAP1 SWAP2 AND SWAP1 PUSH4 0xD06CA61F SWAP1 PUSH2 0x819 SWAP1 DUP11 SWAP1 DUP7 SWAP1 PUSH1 0x4 ADD PUSH2 0x350E JUMP JUMPDEST PUSH0 PUSH1 0x40 MLOAD DUP1 DUP4 SUB DUP2 DUP7 GAS STATICCALL ISZERO DUP1 ISZERO PUSH2 0x833 JUMPI RETURNDATASIZE PUSH0 DUP1 RETURNDATACOPY RETURNDATASIZE PUSH0 REVERT JUMPDEST POP POP POP POP PUSH1 0x40 MLOAD RETURNDATASIZE PUSH0 DUP3 RETURNDATACOPY PUSH1 0x1F RETURNDATASIZE SWAP1 DUP2 ADD PUSH1 0x1F NOT AND DUP3 ADD PUSH1 0x40 MSTORE PUSH2 0x85A SWAP2 SWAP1 DUP2 ADD SWAP1 PUSH2 0x352E JUMP JUMPDEST SWAP1 POP PUSH0 PUSH2 0x2710 PUSH1 0x7 SLOAD PUSH2 0x2710 PUSH2 0x870 SWAP2 SWAP1 PUSH2 0x35FB JUMP JUMPDEST DUP4 PUSH1 0x1 DUP2 MLOAD DUP2 LT PUSH2 0x883 JUMPI PUSH2 0x883 PUSH2 0x349D JUMP JUMPDEST PUSH1 0x20 MUL PUSH1 0x20 ADD ADD MLOAD PUSH2 0x895 SWAP2 SWAP1 PUSH2 0x360E JUMP JUMPDEST PUSH2 0x89F SWAP2 SWAP1 PUSH2 0x3625 JUMP JUMPDEST SWAP1 POP PUSH2 0x8AD DUP10 DUP10 DUP4 DUP9 PUSH2 0x247E JUMP JUMPDEST SWAP4 POP POP POP POP PUSH2 0xA45 JUMP JUMPDEST PUSH1 0x1 DUP5 PUSH1 0x1 DUP2 GT ISZERO PUSH2 0x8CB JUMPI PUSH2 0x8CB PUSH2 0x3146 JUMP JUMPDEST SUB PUSH2 0xA17 JUMPI PUSH0 DUP7 DUP5 PUSH1 0x9 PUSH0 SWAP1 SLOAD SWAP1 PUSH2 0x100 EXP SWAP1 DIV PUSH1 0x1 PUSH1 0x1 PUSH1 0xA0 SHL SUB AND PUSH1 0x1 PUSH1 0x1 PUSH1 0xA0 SHL SUB AND PUSH4 0xAD5C4648 PUSH1 0x40 MLOAD DUP2 PUSH4 0xFFFFFFFF AND PUSH1 0xE0 SHL DUP2 MSTORE PUSH1 0x4 ADD PUSH1 0x20 PUSH1 0x40 MLOAD DUP1 DUP4 SUB DUP2 DUP7 GAS STATICCALL ISZERO DUP1 ISZERO PUSH2 0x923 JUMPI RETURNDATASIZE PUSH0 DUP1 RETURNDATACOPY RETURNDATASIZE PUSH0 REVERT JUMPDEST POP POP POP POP PUSH1 0x40 MLOAD RETURNDATASIZE PUSH1 0x1F NOT PUSH1 0x1F DUP3 ADD AND DUP3 ADD DUP1 PUSH1 0x40 MSTORE POP DUP2 ADD SWAP1 PUSH2 0x947 SWAP2 SWAP1 PUSH2 0x34B1 JUMP JUMPDEST PUSH1 0x40 MLOAD PUSH1 0x20 ADD PUSH2 0x959 SWAP4 SWAP3 SWAP2 SWAP1 PUSH2 0x3644 JUMP JUMPDEST PUSH1 0x40 DUP1 MLOAD PUSH1 0x1F NOT DUP2 DUP5 SUB ADD DUP2 MSTORE SWAP1 DUP3 SWAP1 MSTORE PUSH1 0xB SLOAD PUSH4 0xCDCA1753 PUSH1 0xE0 SHL DUP4 MSTORE SWAP1 SWAP3 POP PUSH0 SWAP2 PUSH1 0x1 PUSH1 0x1 PUSH1 0xA0 SHL SUB SWAP1 SWAP2 AND SWAP1 PUSH4 0xCDCA1753 SWAP1 PUSH2 0x99E SWAP1 DUP6 SWAP1 DUP12 SWAP1 PUSH1 0x4 ADD PUSH2 0x367F JUMP JUMPDEST PUSH1 0x20 PUSH1 0x40 MLOAD DUP1 DUP4 SUB DUP2 PUSH0 DUP8 GAS CALL ISZERO DUP1 ISZERO PUSH2 0x9BA JUMPI RETURNDATASIZE PUSH0 DUP1 RETURNDATACOPY RETURNDATASIZE PUSH0 REVERT JUMPDEST POP POP POP POP PUSH1 0x40 MLOAD RETURNDATASIZE PUSH1 0x1F NOT PUSH1 0x1F DUP3 ADD AND DUP3 ADD DUP1 PUSH1 0x40 MSTORE POP DUP2 ADD SWAP1 PUSH2 0x9DE SWAP2 SWAP1 PUSH2 0x36A0 JUMP JUMPDEST SWAP1 POP PUSH0 PUSH2 0x2710 PUSH1 0x7 SLOAD PUSH2 0x2710 PUSH2 0x9F4 SWAP2 SWAP1 PUSH2 0x35FB JUMP JUMPDEST PUSH2 0x9FE SWAP1 DUP5 PUSH2 0x360E JUMP JUMPDEST PUSH2 0xA08 SWAP2 SWAP1 PUSH2 0x3625 JUMP JUMPDEST SWAP1 POP PUSH2 0x8AD DUP10 DUP10 DUP9 DUP5 DUP10 PUSH2 0x2669 JUMP JUMPDEST PUSH1 0x40 MLOAD PUSH3 0x461BCD PUSH1 0xE5 SHL DUP2 MSTORE PUSH1 0x20 PUSH1 0x4 DUP3 ADD MSTORE PUSH1 0x3 PUSH1 0x24 DUP3 ADD MSTORE PUSH3 0x10AAAB PUSH1 0xE9 SHL PUSH1 0x44 DUP3 ADD MSTORE PUSH1 0x64 ADD PUSH2 0x6EE JUMP JUMPDEST SWAP6 SWAP5 POP POP POP POP POP JUMP JUMPDEST PUSH0 CALLER PUSH2 0xA5B DUP6 DUP3 DUP6 PUSH2 0x2826 JUMP JUMPDEST PUSH2 0xA66 DUP6 DUP6 DUP6 PUSH2 0x289B JUMP JUMPDEST POP PUSH1 0x1 SWAP5 SWAP4 POP POP POP POP JUMP JUMPDEST PUSH1 0x60 PUSH1 0xC DUP1 SLOAD DUP1 PUSH1 0x20 MUL PUSH1 0x20 ADD PUSH1 0x40 MLOAD SWAP1 DUP2 ADD PUSH1 0x40 MSTORE DUP1 SWAP3 SWAP2 SWAP1 DUP2 DUP2 MSTORE PUSH1 0x20 ADD PUSH0 SWAP1 JUMPDEST DUP3 DUP3 LT ISZERO PUSH2 0xB2B JUMPI PUSH0 DUP5 DUP2 MSTORE PUSH1 0x20 SWAP1 DUP2 SWAP1 KECCAK256 PUSH1 0x40 DUP1 MLOAD PUSH1 0x80 DUP2 ADD DUP3 MSTORE PUSH1 0x3 DUP7 MUL SWAP1 SWAP3 ADD DUP1 SLOAD PUSH1 0x1 PUSH1 0x1 PUSH1 0xA0 SHL SUB AND DUP4 MSTORE PUSH1 0x1 DUP1 DUP3 ADD SLOAD SWAP5 DUP5 ADD SWAP5 SWAP1 SWAP5 MSTORE PUSH1 0x2 DUP2 ADD SLOAD SWAP3 SWAP4 SWAP1 SWAP3 SWAP2 DUP5 ADD SWAP2 PUSH1 0xFF AND SWAP1 DUP2 GT ISZERO PUSH2 0xAF1 JUMPI PUSH2 0xAF1 PUSH2 0x3146 JUMP JUMPDEST PUSH1 0x1 DUP2 GT ISZERO PUSH2 0xB02 JUMPI PUSH2 0xB02 PUSH2 0x3146 JUMP JUMPDEST DUP2 MSTORE PUSH1 0x2 SWAP2 SWAP1 SWAP2 ADD SLOAD PUSH2 0x100 SWAP1 DIV PUSH3 0xFFFFFF AND PUSH1 0x20 SWAP2 DUP3 ADD MSTORE SWAP1 DUP3 MSTORE PUSH1 0x1 SWAP3 SWAP1 SWAP3 ADD SWAP2 ADD PUSH2 0xA94 JUMP JUMPDEST POP POP POP POP SWAP1 POP SWAP1 JUMP JUMPDEST PUSH0 DUP2 GT PUSH2 0xB68 JUMPI PUSH1 0x40 MLOAD PUSH3 0x461BCD PUSH1 0xE5 SHL DUP2 MSTORE PUSH1 0x20 PUSH1 0x4 DUP3 ADD MSTORE PUSH1 0x2 PUSH1 0x24 DUP3 ADD MSTORE PUSH2 0x3E3 PUSH1 0xF4 SHL PUSH1 0x44 DUP3 ADD MSTORE PUSH1 0x64 ADD PUSH2 0x6EE JUMP JUMPDEST PUSH1 0x40 MLOAD PUSH4 0x70A08231 PUSH1 0xE0 SHL DUP2 MSTORE CALLER PUSH1 0x4 DUP3 ADD MSTORE DUP2 SWAP1 ADDRESS SWAP1 PUSH4 0x70A08231 SWAP1 PUSH1 0x24 ADD PUSH1 0x20 PUSH1 0x40 MLOAD DUP1 DUP4 SUB DUP2 DUP7 GAS STATICCALL ISZERO DUP1 ISZERO PUSH2 0xBA3 JUMPI RETURNDATASIZE PUSH0 DUP1 RETURNDATACOPY RETURNDATASIZE PUSH0 REVERT JUMPDEST POP POP POP POP PUSH1 0x40 MLOAD RETURNDATASIZE PUSH1 0x1F NOT PUSH1 0x1F DUP3 ADD AND DUP3 ADD DUP1 PUSH1 0x40 MSTORE POP DUP2 ADD SWAP1 PUSH2 0xBC7 SWAP2 SWAP1 PUSH2 0x36A0 JUMP JUMPDEST LT ISZERO PUSH2 0xC05 JUMPI PUSH1 0x40 MLOAD PUSH3 0x461BCD PUSH1 0xE5 SHL DUP2 MSTORE PUSH1 0x20 PUSH1 0x4 DUP3 ADD MSTORE PUSH1 0xD PUSH1 0x24 DUP3 ADD MSTORE PUSH13 0x8525B9CDD59999A58DA595B9D PUSH1 0x9A SHL PUSH1 0x44 DUP3 ADD MSTORE PUSH1 0x64 ADD PUSH2 0x6EE JUMP JUMPDEST PUSH0 PUSH2 0xC0F PUSH1 0x3 SLOAD SWAP1 JUMP JUMPDEST PUSH2 0xC1B DUP4 PUSH2 0x2710 PUSH2 0x360E JUMP JUMPDEST PUSH2 0xC25 SWAP2 SWAP1 PUSH2 0x3625 JUMP JUMPDEST SWAP1 POP PUSH0 PUSH1 0x9 PUSH0 SWAP1 SLOAD SWAP1 PUSH2 0x100 EXP SWAP1 DIV PUSH1 0x1 PUSH1 0x1 PUSH1 0xA0 SHL SUB AND PUSH1 0x1 PUSH1 0x1 PUSH1 0xA0 SHL SUB AND PUSH4 0xAD5C4648 PUSH1 0x40 MLOAD DUP2 PUSH4 0xFFFFFFFF AND PUSH1 0xE0 SHL DUP2 MSTORE PUSH1 0x4 ADD PUSH1 0x20 PUSH1 0x40 MLOAD DUP1 DUP4 SUB DUP2 DUP7 GAS STATICCALL ISZERO DUP1 ISZERO PUSH2 0xC78 JUMPI RETURNDATASIZE PUSH0 DUP1 RETURNDATACOPY RETURNDATASIZE PUSH0 REVERT JUMPDEST POP POP POP POP PUSH1 0x40 MLOAD RETURNDATASIZE PUSH1 0x1F NOT PUSH1 0x1F DUP3 ADD AND DUP3 ADD DUP1 PUSH1 0x40 MSTORE POP DUP2 ADD SWAP1 PUSH2 0xC9C SWAP2 SWAP1 PUSH2 0x34B1 JUMP JUMPDEST SWAP1 POP PUSH0 DUP1 PUSH0 JUMPDEST PUSH1 0xC SLOAD DUP2 LT ISZERO PUSH2 0xE6F JUMPI PUSH0 PUSH1 0xC DUP3 DUP2 SLOAD DUP2 LT PUSH2 0xCC0 JUMPI PUSH2 0xCC0 PUSH2 0x349D JUMP JUMPDEST PUSH0 SWAP2 DUP3 MSTORE PUSH1 0x20 DUP3 KECCAK256 PUSH1 0x3 SWAP2 SWAP1 SWAP2 MUL ADD DUP1 SLOAD PUSH1 0x40 MLOAD PUSH4 0x70A08231 PUSH1 0xE0 SHL DUP2 MSTORE ADDRESS PUSH1 0x4 DUP3 ADD MSTORE SWAP2 SWAP4 POP PUSH2 0x2710 SWAP2 DUP10 SWAP2 PUSH1 0x1 PUSH1 0x1 PUSH1 0xA0 SHL SUB AND SWAP1 PUSH4 0x70A08231 SWAP1 PUSH1 0x24 ADD PUSH1 0x20 PUSH1 0x40 MLOAD DUP1 DUP4 SUB DUP2 DUP7 GAS STATICCALL ISZERO DUP1 ISZERO PUSH2 0xD1B JUMPI RETURNDATASIZE PUSH0 DUP1 RETURNDATACOPY RETURNDATASIZE PUSH0 REVERT JUMPDEST POP POP POP POP PUSH1 0x40 MLOAD RETURNDATASIZE PUSH1 0x1F NOT PUSH1 0x1F DUP3 ADD AND DUP3 ADD DUP1 PUSH1 0x40 MSTORE POP DUP2 ADD SWAP1 PUSH2 0xD3F SWAP2 SWAP1 PUSH2 0x36A0 JUMP JUMPDEST PUSH2 0xD49 SWAP2 SWAP1 PUSH2 0x360E JUMP JUMPDEST PUSH2 0xD53 SWAP2 SWAP1 PUSH2 0x3625 JUMP JUMPDEST DUP3 SLOAD PUSH1 0x2 DUP5 ADD SLOAD PUSH1 0x40 MLOAD PUSH4 0x1ADDD28B PUSH1 0xE0 SHL DUP2 MSTORE SWAP3 SWAP4 POP ADDRESS SWAP3 PUSH4 0x1ADDD28B SWAP3 PUSH2 0xD9F SWAP3 PUSH1 0x1 PUSH1 0x1 PUSH1 0xA0 SHL SUB SWAP1 SWAP2 AND SWAP2 DUP7 SWAP2 PUSH1 0xFF DUP2 AND SWAP2 PUSH2 0x100 SWAP1 SWAP2 DIV PUSH3 0xFFFFFF AND SWAP1 DUP8 SWAP1 PUSH1 0x4 ADD PUSH2 0x36B7 JUMP JUMPDEST PUSH1 0x20 PUSH1 0x40 MLOAD DUP1 DUP4 SUB DUP2 PUSH0 DUP8 GAS CALL SWAP3 POP POP POP DUP1 ISZERO PUSH2 0xDD9 JUMPI POP PUSH1 0x40 DUP1 MLOAD PUSH1 0x1F RETURNDATASIZE SWAP1 DUP2 ADD PUSH1 0x1F NOT AND DUP3 ADD SWAP1 SWAP3 MSTORE PUSH2 0xDD6 SWAP2 DUP2 ADD SWAP1 PUSH2 0x36A0 JUMP JUMPDEST PUSH1 0x1 JUMPDEST ISZERO PUSH2 0xE5A JUMPI PUSH1 0x40 MLOAD PUSH2 0x7633 PUSH1 0xF0 SHL PUSH1 0x20 DUP3 ADD MSTORE PUSH1 0x22 ADD PUSH1 0x40 DUP1 MLOAD PUSH1 0x1F NOT DUP2 DUP5 SUB ADD DUP2 MSTORE SWAP1 DUP3 SWAP1 MSTORE DUP1 MLOAD PUSH1 0x20 SWAP2 DUP3 ADD KECCAK256 PUSH1 0x2 DUP7 ADD SLOAD SWAP1 SWAP3 PUSH2 0xE1F SWAP3 PUSH1 0xFF SWAP1 SWAP3 AND SWAP2 ADD PUSH2 0x36FB JUMP JUMPDEST PUSH1 0x40 MLOAD PUSH1 0x20 DUP2 DUP4 SUB SUB DUP2 MSTORE SWAP1 PUSH1 0x40 MSTORE DUP1 MLOAD SWAP1 PUSH1 0x20 ADD KECCAK256 SUB PUSH2 0xE4B JUMPI PUSH2 0xE44 DUP2 DUP7 PUSH2 0x3727 JUMP JUMPDEST SWAP5 POP PUSH2 0xE58 JUMP JUMPDEST PUSH2 0xE55 DUP2 DUP8 PUSH2 0x3727 JUMP JUMPDEST SWAP6 POP JUMPDEST POP JUMPDEST POP POP DUP1 DUP1 PUSH2 0xE67 SWAP1 PUSH2 0x373A JUMP JUMPDEST SWAP2 POP POP PUSH2 0xCA2 JUMP JUMPDEST POP PUSH2 0xE7A CALLER DUP7 PUSH2 0x28F8 JUMP JUMPDEST PUSH1 0x10 SLOAD PUSH1 0x40 DUP1 MLOAD PUSH4 0x22F1FA31 PUSH1 0xE2 SHL DUP2 MSTORE SWAP1 MLOAD PUSH0 SWAP3 PUSH1 0x1 PUSH1 0x1 PUSH1 0xA0 SHL SUB AND SWAP2 PUSH4 0x8BC7E8C4 SWAP2 PUSH1 0x4 DUP1 DUP4 ADD SWAP3 PUSH1 0x20 SWAP3 SWAP2 SWAP1 DUP3 SWAP1 SUB ADD DUP2 DUP7 GAS STATICCALL ISZERO DUP1 ISZERO PUSH2 0xEC1 JUMPI RETURNDATASIZE PUSH0 DUP1 RETURNDATACOPY RETURNDATASIZE PUSH0 REVERT JUMPDEST POP POP POP POP PUSH1 0x40 MLOAD RETURNDATASIZE PUSH1 0x1F NOT PUSH1 0x1F DUP3 ADD AND DUP3 ADD DUP1 PUSH1 0x40 MSTORE POP DUP2 ADD SWAP1 PUSH2 0xEE5 SWAP2 SWAP1 PUSH2 0x3752 JUMP JUMPDEST SWAP1 POP DUP2 ISZERO PUSH2 0xFA0 JUMPI PUSH0 PUSH2 0x2710 PUSH2 0xEFF PUSH2 0xFFFF DUP5 AND DUP6 PUSH2 0x360E JUMP JUMPDEST PUSH2 0xF09 SWAP2 SWAP1 PUSH2 0x3625 JUMP JUMPDEST SWAP1 POP PUSH0 PUSH2 0xF16 DUP3 DUP6 PUSH2 0x35FB JUMP JUMPDEST SWAP1 POP DUP2 PUSH1 0xD PUSH0 DUP3 DUP3 SLOAD PUSH2 0xF29 SWAP2 SWAP1 PUSH2 0x3727 JUMP JUMPDEST SWAP1 SWAP2 SSTORE POP POP PUSH1 0x40 MLOAD PUSH4 0xA9059CBB PUSH1 0xE0 SHL DUP2 MSTORE CALLER PUSH1 0x4 DUP3 ADD MSTORE PUSH1 0x24 DUP2 ADD DUP3 SWAP1 MSTORE PUSH1 0x1 PUSH1 0x1 PUSH1 0xA0 SHL SUB DUP8 AND SWAP1 PUSH4 0xA9059CBB SWAP1 PUSH1 0x44 ADD PUSH1 0x20 PUSH1 0x40 MLOAD DUP1 DUP4 SUB DUP2 PUSH0 DUP8 GAS CALL ISZERO DUP1 ISZERO PUSH2 0xF78 JUMPI RETURNDATASIZE PUSH0 DUP1 RETURNDATACOPY RETURNDATASIZE PUSH0 REVERT JUMPDEST POP POP POP POP PUSH1 0x40 MLOAD RETURNDATASIZE PUSH1 0x1F NOT PUSH1 0x1F DUP3 ADD AND DUP3 ADD DUP1 PUSH1 0x40 MSTORE POP DUP2 ADD SWAP1 PUSH2 0xF9C SWAP2 SWAP1 PUSH2 0x3773 JUMP JUMPDEST POP POP POP JUMPDEST DUP3 ISZERO PUSH2 0x1095 JUMPI PUSH0 PUSH2 0x2710 PUSH2 0xFB8 PUSH2 0xFFFF DUP5 AND DUP7 PUSH2 0x360E JUMP JUMPDEST PUSH2 0xFC2 SWAP2 SWAP1 PUSH2 0x3625 JUMP JUMPDEST SWAP1 POP PUSH0 PUSH2 0xFCF DUP3 DUP7 PUSH2 0x35FB JUMP JUMPDEST SWAP1 POP DUP2 PUSH1 0xD PUSH0 DUP3 DUP3 SLOAD PUSH2 0xFE2 SWAP2 SWAP1 PUSH2 0x3727 JUMP JUMPDEST SWAP1 SWAP2 SSTORE POP POP CALLER PUSH0 SWAP1 DUP2 MSTORE PUSH1 0xF PUSH1 0x20 MSTORE PUSH1 0x40 DUP2 KECCAK256 SLOAD SWAP1 PUSH2 0x1001 DUP4 DUP4 PUSH2 0x3727 JUMP JUMPDEST PUSH1 0x40 MLOAD SWAP1 SWAP2 POP PUSH0 SWAP1 CALLER SWAP1 DUP4 SWAP1 DUP4 DUP2 DUP2 DUP2 DUP6 DUP8 GAS CALL SWAP3 POP POP POP RETURNDATASIZE DUP1 PUSH0 DUP2 EQ PUSH2 0x1043 JUMPI PUSH1 0x40 MLOAD SWAP2 POP PUSH1 0x1F NOT PUSH1 0x3F RETURNDATASIZE ADD AND DUP3 ADD PUSH1 0x40 MSTORE RETURNDATASIZE DUP3 MSTORE RETURNDATASIZE PUSH0 PUSH1 0x20 DUP5 ADD RETURNDATACOPY PUSH2 0x1048 JUMP JUMPDEST PUSH1 0x60 SWAP2 POP JUMPDEST POP POP SWAP1 POP DUP1 PUSH2 0x108F JUMPI PUSH1 0x40 MLOAD PUSH3 0x461BCD PUSH1 0xE5 SHL DUP2 MSTORE PUSH1 0x20 PUSH1 0x4 DUP3 ADD MSTORE PUSH1 0x13 PUSH1 0x24 DUP3 ADD MSTORE PUSH19 0x115512081D1C985B9CD9995C8819985A5B1959 PUSH1 0x6A SHL PUSH1 0x44 DUP3 ADD MSTORE PUSH1 0x64 ADD PUSH2 0x6EE JUMP JUMPDEST POP POP POP POP POP JUMPDEST POP POP POP POP POP POP JUMP JUMPDEST PUSH0 DUP2 GT PUSH2 0x10D2 JUMPI PUSH1 0x40 MLOAD PUSH3 0x461BCD PUSH1 0xE5 SHL DUP2 MSTORE PUSH1 0x20 PUSH1 0x4 DUP3 ADD MSTORE PUSH1 0x3 PUSH1 0x24 DUP3 ADD MSTORE PUSH3 0x573E3 PUSH1 0xEC SHL PUSH1 0x44 DUP3 ADD MSTORE PUSH1 0x64 ADD PUSH2 0x6EE JUMP JUMPDEST CALLER PUSH0 SWAP1 DUP2 MSTORE PUSH1 0x1 PUSH1 0x20 MSTORE PUSH1 0x40 SWAP1 KECCAK256 SLOAD DUP2 GT ISZERO PUSH2 0x111B JUMPI PUSH1 0x40 MLOAD PUSH3 0x461BCD PUSH1 0xE5 SHL DUP2 MSTORE PUSH1 0x20 PUSH1 0x4 DUP3 ADD MSTORE PUSH1 0x8 PUSH1 0x24 DUP3 ADD MSTORE PUSH8 0x2162616C616E6365 PUSH1 0xC0 SHL PUSH1 0x44 DUP3 ADD MSTORE PUSH1 0x64 ADD PUSH2 0x6EE JUMP JUMPDEST PUSH0 PUSH2 0x1125 PUSH1 0x3 SLOAD SWAP1 JUMP JUMPDEST PUSH2 0x1131 DUP4 PUSH2 0x2710 PUSH2 0x360E JUMP JUMPDEST PUSH2 0x113B SWAP2 SWAP1 PUSH2 0x3625 JUMP JUMPDEST SWAP1 POP PUSH2 0x1147 CALLER DUP4 PUSH2 0x28F8 JUMP JUMPDEST PUSH0 JUMPDEST PUSH1 0xC SLOAD DUP2 LT ISZERO PUSH2 0x128A JUMPI PUSH0 PUSH1 0xC DUP3 DUP2 SLOAD DUP2 LT PUSH2 0x1167 JUMPI PUSH2 0x1167 PUSH2 0x349D JUMP JUMPDEST PUSH0 SWAP2 DUP3 MSTORE PUSH1 0x20 DUP3 KECCAK256 PUSH1 0x3 SWAP2 SWAP1 SWAP2 MUL ADD DUP1 SLOAD PUSH1 0x40 MLOAD PUSH4 0x70A08231 PUSH1 0xE0 SHL DUP2 MSTORE ADDRESS PUSH1 0x4 DUP3 ADD MSTORE SWAP2 SWAP4 POP PUSH2 0x2710 SWAP2 DUP7 SWAP2 PUSH1 0x1 PUSH1 0x1 PUSH1 0xA0 SHL SUB AND SWAP1 PUSH4 0x70A08231 SWAP1 PUSH1 0x24 ADD PUSH1 0x20 PUSH1 0x40 MLOAD DUP1 DUP4 SUB DUP2 DUP7 GAS STATICCALL ISZERO DUP1 ISZERO PUSH2 0x11C2 JUMPI RETURNDATASIZE PUSH0 DUP1 RETURNDATACOPY RETURNDATASIZE PUSH0 REVERT JUMPDEST POP POP POP POP PUSH1 0x40 MLOAD RETURNDATASIZE PUSH1 0x1F NOT PUSH1 0x1F DUP3 ADD AND DUP3 ADD DUP1 PUSH1 0x40 MSTORE POP DUP2 ADD SWAP1 PUSH2 0x11E6 SWAP2 SWAP1 PUSH2 0x36A0 JUMP JUMPDEST PUSH2 0x11F0 SWAP2 SWAP1 PUSH2 0x360E JUMP JUMPDEST PUSH2 0x11FA SWAP2 SWAP1 PUSH2 0x3625 JUMP JUMPDEST SWAP1 POP DUP1 ISZERO PUSH2 0x1275 JUMPI DUP2 SLOAD PUSH1 0x40 MLOAD PUSH4 0xA9059CBB PUSH1 0xE0 SHL DUP2 MSTORE CALLER PUSH1 0x4 DUP3 ADD MSTORE PUSH1 0x24 DUP2 ADD DUP4 SWAP1 MSTORE PUSH1 0x1 PUSH1 0x1 PUSH1 0xA0 SHL SUB SWAP1 SWAP2 AND SWAP1 PUSH4 0xA9059CBB SWAP1 PUSH1 0x44 ADD PUSH1 0x20 PUSH1 0x40 MLOAD DUP1 DUP4 SUB DUP2 PUSH0 DUP8 GAS CALL ISZERO DUP1 ISZERO PUSH2 0x124F JUMPI RETURNDATASIZE PUSH0 DUP1 RETURNDATACOPY RETURNDATASIZE PUSH0 REVERT JUMPDEST POP POP POP POP PUSH1 0x40 MLOAD RETURNDATASIZE PUSH1 0x1F NOT PUSH1 0x1F DUP3 ADD AND DUP3 ADD DUP1 PUSH1 0x40 MSTORE POP DUP2 ADD SWAP1 PUSH2 0x1273 SWAP2 SWAP1 PUSH2 0x3773 JUMP JUMPDEST POP JUMPDEST POP POP DUP1 DUP1 PUSH2 0x1282 SWAP1 PUSH2 0x373A JUMP JUMPDEST SWAP2 POP POP PUSH2 0x1149 JUMP JUMPDEST POP POP POP JUMP JUMPDEST PUSH0 DUP3 PUSH1 0x1 DUP2 GT ISZERO PUSH2 0x12A2 JUMPI PUSH2 0x12A2 PUSH2 0x3146 JUMP JUMPDEST SUB PUSH2 0x1457 JUMPI PUSH1 0x40 DUP1 MLOAD PUSH1 0x2 DUP1 DUP3 MSTORE PUSH1 0x60 DUP3 ADD DUP4 MSTORE PUSH0 SWAP3 PUSH1 0x20 DUP4 ADD SWAP1 DUP1 CALLDATASIZE DUP4 CALLDATACOPY POP POP PUSH1 0x9 SLOAD PUSH1 0x40 DUP1 MLOAD PUSH4 0x15AB88C9 PUSH1 0xE3 SHL DUP2 MSTORE SWAP1 MLOAD SWAP4 SWAP5 POP PUSH1 0x1 PUSH1 0x1 PUSH1 0xA0 SHL SUB SWAP1 SWAP2 AND SWAP3 PUSH4 0xAD5C4648 SWAP3 POP PUSH1 0x4 DUP1 DUP4 ADD SWAP3 PUSH1 0x20 SWAP3 SWAP2 SWAP1 DUP3 SWAP1 SUB ADD DUP2 DUP7 GAS STATICCALL ISZERO DUP1 ISZERO PUSH2 0x130E JUMPI RETURNDATASIZE PUSH0 DUP1 RETURNDATACOPY RETURNDATASIZE PUSH0 REVERT JUMPDEST POP POP POP POP PUSH1 0x40 MLOAD RETURNDATASIZE PUSH1 0x1F NOT PUSH1 0x1F DUP3 ADD AND DUP3 ADD DUP1 PUSH1 0x40 MSTORE POP DUP2 ADD SWAP1 PUSH2 0x1332 SWAP2 SWAP1 PUSH2 0x34B1 JUMP JUMPDEST DUP2 PUSH0 DUP2 MLOAD DUP2 LT PUSH2 0x1344 JUMPI PUSH2 0x1344 PUSH2 0x349D JUMP JUMPDEST PUSH1 0x20 MUL PUSH1 0x20 ADD ADD SWAP1 PUSH1 0x1 PUSH1 0x1 PUSH1 0xA0 SHL SUB AND SWAP1 DUP2 PUSH1 0x1 PUSH1 0x1 PUSH1 0xA0 SHL SUB AND DUP2 MSTORE POP POP DUP5 DUP2 PUSH1 0x1 DUP2 MLOAD DUP2 LT PUSH2 0x1378 JUMPI PUSH2 0x1378 PUSH2 0x349D JUMP JUMPDEST PUSH1 0x1 PUSH1 0x1 PUSH1 0xA0 SHL SUB SWAP3 DUP4 AND PUSH1 0x20 SWAP2 DUP3 MUL SWAP3 SWAP1 SWAP3 ADD ADD MSTORE PUSH1 0x9 SLOAD PUSH1 0x40 MLOAD PUSH4 0xD06CA61F PUSH1 0xE0 SHL DUP2 MSTORE PUSH0 SWAP3 SWAP2 SWAP1 SWAP2 AND SWAP1 PUSH4 0xD06CA61F SWAP1 PUSH2 0x13BB SWAP1 DUP9 SWAP1 DUP7 SWAP1 PUSH1 0x4 ADD PUSH2 0x350E JUMP JUMPDEST PUSH0 PUSH1 0x40 MLOAD DUP1 DUP4 SUB DUP2 DUP7 GAS STATICCALL ISZERO DUP1 ISZERO PUSH2 0x13D5 JUMPI RETURNDATASIZE PUSH0 DUP1 RETURNDATACOPY RETURNDATASIZE PUSH0 REVERT JUMPDEST POP POP POP POP PUSH1 0x40 MLOAD RETURNDATASIZE PUSH0 DUP3 RETURNDATACOPY PUSH1 0x1F RETURNDATASIZE SWAP1 DUP2 ADD PUSH1 0x1F NOT AND DUP3 ADD PUSH1 0x40 MSTORE PUSH2 0x13FC SWAP2 SWAP1 DUP2 ADD SWAP1 PUSH2 0x352E JUMP JUMPDEST SWAP1 POP PUSH0 PUSH2 0x2710 PUSH1 0x7 SLOAD PUSH2 0x2710 PUSH2 0x1412 SWAP2 SWAP1 PUSH2 0x35FB JUMP JUMPDEST DUP4 PUSH1 0x1 DUP2 MLOAD DUP2 LT PUSH2 0x1425 JUMPI PUSH2 0x1425 PUSH2 0x349D JUMP JUMPDEST PUSH1 0x20 MUL PUSH1 0x20 ADD ADD MLOAD PUSH2 0x1437 SWAP2 SWAP1 PUSH2 0x360E JUMP JUMPDEST PUSH2 0x1441 SWAP2 SWAP1 PUSH2 0x3625 JUMP JUMPDEST SWAP1 POP PUSH2 0x144E DUP8 DUP8 DUP4 PUSH2 0x292C JUMP JUMPDEST POP POP POP POP PUSH2 0x15B0 JUMP JUMPDEST PUSH1 0x1 DUP3 PUSH1 0x1 DUP2 GT ISZERO PUSH2 0x146B JUMPI PUSH2 0x146B PUSH2 0x3146 JUMP JUMPDEST SUB PUSH2 0xA17 JUMPI PUSH1 0x9 SLOAD PUSH1 0x40 DUP1 MLOAD PUSH4 0x15AB88C9 PUSH1 0xE3 SHL DUP2 MSTORE SWAP1 MLOAD PUSH0 SWAP3 PUSH1 0x1 PUSH1 0x1 PUSH1 0xA0 SHL SUB AND SWAP2 PUSH4 0xAD5C4648 SWAP2 PUSH1 0x4 DUP1 DUP4 ADD SWAP3 PUSH1 0x20 SWAP3 SWAP2 SWAP1 DUP3 SWAP1 SUB ADD DUP2 DUP7 GAS STATICCALL ISZERO DUP1 ISZERO PUSH2 0x14B7 JUMPI RETURNDATASIZE PUSH0 DUP1 RETURNDATACOPY RETURNDATASIZE PUSH0 REVERT JUMPDEST POP POP POP POP PUSH1 0x40 MLOAD RETURNDATASIZE PUSH1 0x1F NOT PUSH1 0x1F DUP3 ADD AND DUP3 ADD DUP1 PUSH1 0x40 MSTORE POP DUP2 ADD SWAP1 PUSH2 0x14DB SWAP2 SWAP1 PUSH2 0x34B1 JUMP JUMPDEST DUP3 DUP7 PUSH1 0x40 MLOAD PUSH1 0x20 ADD PUSH2 0x14EF SWAP4 SWAP3 SWAP2 SWAP1 PUSH2 0x3644 JUMP JUMPDEST PUSH1 0x40 DUP1 MLOAD PUSH1 0x1F NOT DUP2 DUP5 SUB ADD DUP2 MSTORE SWAP1 DUP3 SWAP1 MSTORE PUSH1 0xB SLOAD PUSH4 0xCDCA1753 PUSH1 0xE0 SHL DUP4 MSTORE SWAP1 SWAP3 POP PUSH0 SWAP2 PUSH1 0x1 PUSH1 0x1 PUSH1 0xA0 SHL SUB SWAP1 SWAP2 AND SWAP1 PUSH4 0xCDCA1753 SWAP1 PUSH2 0x1534 SWAP1 DUP6 SWAP1 DUP10 SWAP1 PUSH1 0x4 ADD PUSH2 0x367F JUMP JUMPDEST PUSH1 0x20 PUSH1 0x40 MLOAD DUP1 DUP4 SUB DUP2 PUSH0 DUP8 GAS CALL ISZERO DUP1 ISZERO PUSH2 0x1550 JUMPI RETURNDATASIZE PUSH0 DUP1 RETURNDATACOPY RETURNDATASIZE PUSH0 REVERT JUMPDEST POP POP POP POP PUSH1 0x40 MLOAD RETURNDATASIZE PUSH1 0x1F NOT PUSH1 0x1F DUP3 ADD AND DUP3 ADD DUP1 PUSH1 0x40 MSTORE POP DUP2 ADD SWAP1 PUSH2 0x1574 SWAP2 SWAP1 PUSH2 0x36A0 JUMP JUMPDEST SWAP1 POP PUSH0 PUSH2 0x2710 PUSH1 0x7 SLOAD PUSH2 0x2710 PUSH2 0x158A SWAP2 SWAP1 PUSH2 0x35FB JUMP JUMPDEST PUSH2 0x1594 SWAP1 DUP5 PUSH2 0x360E JUMP JUMPDEST PUSH2 0x159E SWAP2 SWAP1 PUSH2 0x3625 JUMP JUMPDEST SWAP1 POP PUSH2 0x15AC DUP8 DUP8 DUP7 DUP5 PUSH2 0x2A89 JUMP JUMPDEST POP POP POP JUMPDEST POP POP POP POP JUMP JUMPDEST PUSH1 0x6 DUP2 DUP2 SLOAD DUP2 LT PUSH2 0x15C5 JUMPI PUSH0 DUP1 REVERT JUMPDEST PUSH0 SWAP2 DUP3 MSTORE PUSH1 0x20 SWAP1 SWAP2 KECCAK256 PUSH1 0x4 SWAP1 SWAP2 MUL ADD DUP1 SLOAD PUSH1 0x1 DUP3 ADD SLOAD PUSH1 0x2 DUP4 ADD SLOAD PUSH1 0x3 SWAP1 SWAP4 ADD SLOAD PUSH1 0x1 PUSH1 0x1 PUSH1 0xA0 SHL SUB SWAP3 DUP4 AND SWAP5 POP SWAP2 AND SWAP2 SWAP1 PUSH1 0xFF DUP2 AND SWAP1 PUSH2 0x100 SWAP1 DIV PUSH3 0xFFFFFF AND DUP6 JUMP JUMPDEST PUSH0 JUMPDEST PUSH1 0x6 SLOAD DUP2 LT ISZERO PUSH2 0x1AB5 JUMPI DUP2 PUSH1 0x1 PUSH1 0x1 PUSH1 0xA0 SHL SUB AND PUSH1 0x6 DUP3 DUP2 SLOAD DUP2 LT PUSH2 0x1632 JUMPI PUSH2 0x1632 PUSH2 0x349D JUMP JUMPDEST PUSH0 SWAP2 DUP3 MSTORE PUSH1 0x20 SWAP1 SWAP2 KECCAK256 PUSH1 0x4 SWAP1 SWAP2 MUL ADD SLOAD PUSH1 0x1 PUSH1 0x1 PUSH1 0xA0 SHL SUB AND SUB PUSH2 0x1AA3 JUMPI PUSH0 PUSH1 0x6 DUP3 DUP2 SLOAD DUP2 LT PUSH2 0x1664 JUMPI PUSH2 0x1664 PUSH2 0x349D JUMP JUMPDEST PUSH0 SWAP2 DUP3 MSTORE PUSH1 0x20 SWAP2 DUP3 SWAP1 KECCAK256 PUSH1 0x40 DUP1 MLOAD PUSH1 0xA0 DUP2 ADD DUP3 MSTORE PUSH1 0x4 SWAP1 SWAP4 MUL SWAP1 SWAP2 ADD DUP1 SLOAD PUSH1 0x1 PUSH1 0x1 PUSH1 0xA0 SHL SUB SWAP1 DUP2 AND DUP5 MSTORE PUSH1 0x1 DUP1 DUP4 ADD SLOAD SWAP1 SWAP2 AND SWAP5 DUP5 ADD SWAP5 SWAP1 SWAP5 MSTORE PUSH1 0x2 DUP2 ADD SLOAD SWAP2 DUP4 ADD SWAP2 SWAP1 SWAP2 MSTORE PUSH1 0x3 DUP2 ADD SLOAD SWAP2 SWAP3 SWAP1 SWAP2 PUSH1 0x60 DUP5 ADD SWAP2 PUSH1 0xFF SWAP1 SWAP2 AND SWAP1 DUP2 GT ISZERO PUSH2 0x16CE JUMPI PUSH2 0x16CE PUSH2 0x3146 JUMP JUMPDEST PUSH1 0x1 DUP2 GT ISZERO PUSH2 0x16DF JUMPI PUSH2 0x16DF PUSH2 0x3146 JUMP JUMPDEST DUP2 MSTORE PUSH1 0x3 SWAP2 SWAP1 SWAP2 ADD SLOAD PUSH2 0x100 SWAP1 DIV PUSH3 0xFFFFFF AND PUSH1 0x20 SWAP1 SWAP2 ADD MSTORE SWAP1 POP PUSH1 0x1 DUP2 PUSH1 0x60 ADD MLOAD PUSH1 0x1 DUP2 GT ISZERO PUSH2 0x1712 JUMPI PUSH2 0x1712 PUSH2 0x3146 JUMP JUMPDEST SUB PUSH2 0x199C JUMPI PUSH1 0x9 PUSH0 SWAP1 SLOAD SWAP1 PUSH2 0x100 EXP SWAP1 DIV PUSH1 0x1 PUSH1 0x1 PUSH1 0xA0 SHL SUB AND PUSH1 0x1 PUSH1 0x1 PUSH1 0xA0 SHL SUB AND PUSH4 0xAD5C4648 PUSH1 0x40 MLOAD DUP2 PUSH4 0xFFFFFFFF AND PUSH1 0xE0 SHL DUP2 MSTORE PUSH1 0x4 ADD PUSH1 0x20 PUSH1 0x40 MLOAD DUP1 DUP4 SUB DUP2 DUP7 GAS STATICCALL ISZERO DUP1 ISZERO PUSH2 0x1767 JUMPI RETURNDATASIZE PUSH0 DUP1 RETURNDATACOPY RETURNDATASIZE PUSH0 REVERT JUMPDEST POP POP POP POP PUSH1 0x40 MLOAD RETURNDATASIZE PUSH1 0x1F NOT PUSH1 0x1F DUP3 ADD AND DUP3 ADD DUP1 PUSH1 0x40 MSTORE POP DUP2 ADD SWAP1 PUSH2 0x178B SWAP2 SWAP1 PUSH2 0x34B1 JUMP JUMPDEST PUSH1 0x1 PUSH1 0x1 PUSH1 0xA0 SHL SUB AND PUSH4 0xD0E30DB0 DUP3 PUSH1 0x40 ADD MLOAD PUSH1 0x40 MLOAD DUP3 PUSH4 0xFFFFFFFF AND PUSH1 0xE0 SHL DUP2 MSTORE PUSH1 0x4 ADD PUSH0 PUSH1 0x40 MLOAD DUP1 DUP4 SUB DUP2 DUP6 DUP9 DUP1 EXTCODESIZE ISZERO DUP1 ISZERO PUSH2 0x17C7 JUMPI PUSH0 DUP1 REVERT JUMPDEST POP GAS CALL ISZERO DUP1 ISZERO PUSH2 0x17D9 JUMPI RETURNDATASIZE PUSH0 DUP1 RETURNDATACOPY RETURNDATASIZE PUSH0 REVERT JUMPDEST POP POP POP PUSH1 0x20 DUP4 ADD MLOAD PUSH1 0x40 DUP1 DUP6 ADD MLOAD PUSH1 0x60 DUP7 ADD MLOAD PUSH1 0x80 DUP8 ADD MLOAD SWAP3 MLOAD PUSH4 0x182B4773 PUSH1 0xE1 SHL DUP2 MSTORE ADDRESS SWAP7 POP PUSH4 0x30568EE6 SWAP6 POP PUSH2 0x1815 SWAP5 SWAP4 SWAP1 PUSH1 0x4 ADD PUSH2 0x3792 JUMP JUMPDEST PUSH0 PUSH1 0x40 MLOAD DUP1 DUP4 SUB DUP2 PUSH0 DUP8 DUP1 EXTCODESIZE ISZERO DUP1 ISZERO PUSH2 0x182C JUMPI PUSH0 DUP1 REVERT JUMPDEST POP GAS CALL SWAP3 POP POP POP DUP1 ISZERO PUSH2 0x183D JUMPI POP PUSH1 0x1 JUMPDEST PUSH2 0x1970 JUMPI PUSH1 0x6 PUSH1 0x40 MLOAD DUP1 PUSH1 0xA0 ADD PUSH1 0x40 MSTORE DUP1 CALLER PUSH1 0x1 PUSH1 0x1 PUSH1 0xA0 SHL SUB AND DUP2 MSTORE PUSH1 0x20 ADD DUP4 PUSH1 0x20 ADD MLOAD PUSH1 0x1 PUSH1 0x1 PUSH1 0xA0 SHL SUB AND DUP2 MSTORE PUSH1 0x20 ADD DUP4 PUSH1 0x40 ADD MLOAD DUP2 MSTORE PUSH1 0x20 ADD DUP4 PUSH1 0x60 ADD MLOAD PUSH1 0x1 DUP2 GT ISZERO PUSH2 0x1890 JUMPI PUSH2 0x1890 PUSH2 0x3146 JUMP JUMPDEST DUP2 MSTORE PUSH1 0x80 DUP5 ADD MLOAD PUSH3 0xFFFFFF AND PUSH1 0x20 SWAP2 DUP3 ADD MSTORE DUP3 SLOAD PUSH1 0x1 DUP2 DUP2 ADD DUP6 SSTORE PUSH0 SWAP5 DUP6 MSTORE SWAP4 DUP3 SWAP1 KECCAK256 DUP4 MLOAD PUSH1 0x4 SWAP1 SWAP3 MUL ADD DUP1 SLOAD PUSH1 0x1 PUSH1 0x1 PUSH1 0xA0 SHL SUB SWAP3 DUP4 AND PUSH1 0x1 PUSH1 0x1 PUSH1 0xA0 SHL SUB NOT SWAP2 DUP3 AND OR DUP3 SSTORE SWAP3 DUP5 ADD MLOAD DUP2 DUP7 ADD DUP1 SLOAD SWAP2 SWAP1 SWAP4 AND SWAP4 AND SWAP3 SWAP1 SWAP3 OR SWAP1 SSTORE PUSH1 0x40 DUP3 ADD MLOAD PUSH1 0x2 DUP3 ADD SSTORE PUSH1 0x60 DUP3 ADD MLOAD PUSH1 0x3 DUP3 ADD DUP1 SLOAD SWAP4 SWAP5 SWAP3 SWAP4 SWAP2 SWAP3 SWAP1 SWAP2 PUSH1 0xFF NOT AND SWAP1 DUP4 DUP2 DUP2 GT ISZERO PUSH2 0x191F JUMPI PUSH2 0x191F PUSH2 0x3146 JUMP JUMPDEST MUL OR SWAP1 SSTORE POP PUSH1 0x80 SWAP2 SWAP1 SWAP2 ADD MLOAD PUSH1 0x3 SWAP1 SWAP2 ADD DUP1 SLOAD PUSH3 0xFFFFFF SWAP1 SWAP3 AND PUSH2 0x100 MUL PUSH4 0xFFFFFF00 NOT SWAP1 SWAP3 AND SWAP2 SWAP1 SWAP2 OR SWAP1 SSTORE CALLER PUSH0 SWAP1 DUP2 MSTORE PUSH1 0x8 PUSH1 0x20 MSTORE PUSH1 0x40 DUP2 KECCAK256 DUP1 SLOAD SWAP2 PUSH2 0x1966 DUP4 PUSH2 0x373A JUMP JUMPDEST SWAP2 SWAP1 POP SSTORE POP PUSH2 0x1AA1 JUMP JUMPDEST PUSH2 0x1979 DUP3 PUSH2 0x2BB3 JUMP JUMPDEST PUSH1 0x1 PUSH1 0x1 PUSH1 0xA0 SHL SUB DUP4 AND PUSH0 SWAP1 DUP2 MSTORE PUSH1 0x8 PUSH1 0x20 MSTORE PUSH1 0x40 DUP2 KECCAK256 DUP1 SLOAD SWAP2 PUSH2 0x1966 DUP4 PUSH2 0x37CA JUMP JUMPDEST PUSH0 DUP2 PUSH1 0x60 ADD MLOAD PUSH1 0x1 DUP2 GT ISZERO PUSH2 0x19B3 JUMPI PUSH2 0x19B3 PUSH2 0x3146 JUMP JUMPDEST SUB PUSH2 0x1AA1 JUMPI PUSH1 0x40 DUP1 DUP3 ADD MLOAD PUSH1 0x20 DUP4 ADD MLOAD PUSH1 0x60 DUP5 ADD MLOAD PUSH1 0x80 DUP6 ADD MLOAD SWAP4 MLOAD PUSH4 0x182B4773 PUSH1 0xE1 SHL DUP2 MSTORE ADDRESS SWAP5 PUSH4 0x30568EE6 SWAP5 SWAP4 PUSH2 0x19F3 SWAP4 SWAP1 SWAP3 DUP6 SWAP3 SWAP1 PUSH1 0x4 ADD PUSH2 0x3792 JUMP JUMPDEST PUSH0 PUSH1 0x40 MLOAD DUP1 DUP4 SUB DUP2 DUP6 DUP9 DUP1 EXTCODESIZE ISZERO DUP1 ISZERO PUSH2 0x1A0A JUMPI PUSH0 DUP1 REVERT JUMPDEST POP GAS CALL SWAP4 POP POP POP POP DUP1 ISZERO PUSH2 0x1A1C JUMPI POP PUSH1 0x1 JUMPDEST PUSH2 0x1A6F JUMPI PUSH1 0x6 PUSH1 0x40 MLOAD DUP1 PUSH1 0xA0 ADD PUSH1 0x40 MSTORE DUP1 CALLER PUSH1 0x1 PUSH1 0x1 PUSH1 0xA0 SHL SUB AND DUP2 MSTORE PUSH1 0x20 ADD DUP4 PUSH1 0x20 ADD MLOAD PUSH1 0x1 PUSH1 0x1 PUSH1 0xA0 SHL SUB AND DUP2 MSTORE PUSH1 0x20 ADD DUP4 PUSH1 0x40 ADD MLOAD DUP2 MSTORE PUSH1 0x20 ADD DUP4 PUSH1 0x60 ADD MLOAD PUSH1 0x1 DUP2 GT ISZERO PUSH2 0x1890 JUMPI PUSH2 0x1890 PUSH2 0x3146 JUMP JUMPDEST PUSH2 0x1A78 DUP3 PUSH2 0x2BB3 JUMP JUMPDEST PUSH1 0x1 PUSH1 0x1 PUSH1 0xA0 SHL SUB DUP4 AND PUSH0 SWAP1 DUP2 MSTORE PUSH1 0x8 PUSH1 0x20 MSTORE PUSH1 0x40 DUP2 KECCAK256 DUP1 SLOAD SWAP2 PUSH2 0x1A9B DUP4 PUSH2 0x37CA JUMP JUMPDEST SWAP2 SWAP1 POP SSTORE POP JUMPDEST POP JUMPDEST DUP1 PUSH2 0x1AAD DUP2 PUSH2 0x373A JUMP JUMPDEST SWAP2 POP POP PUSH2 0x160B JUMP JUMPDEST POP POP JUMP JUMPDEST PUSH2 0x1AC1 PUSH2 0x2D2B JUMP JUMPDEST PUSH2 0x1ACA PUSH0 PUSH2 0x2D57 JUMP JUMPDEST JUMP JUMPDEST PUSH1 0x1 PUSH1 0x1 PUSH1 0xA0 SHL SUB DUP2 AND PUSH0 SWAP1 DUP2 MSTORE PUSH1 0x8 PUSH1 0x20 MSTORE PUSH1 0x40 DUP2 KECCAK256 SLOAD PUSH1 0x60 SWAP2 SWAP1 PUSH8 0xFFFFFFFFFFFFFFFF DUP2 GT ISZERO PUSH2 0x1B00 JUMPI PUSH2 0x1B00 PUSH2 0x3489 JUMP JUMPDEST PUSH1 0x40 MLOAD SWAP1 DUP1 DUP3 MSTORE DUP1 PUSH1 0x20 MUL PUSH1 0x20 ADD DUP3 ADD PUSH1 0x40 MSTORE DUP1 ISZERO PUSH2 0x1B57 JUMPI DUP2 PUSH1 0x20 ADD JUMPDEST PUSH1 0x40 DUP1 MLOAD PUSH1 0xA0 DUP2 ADD DUP3 MSTORE PUSH0 DUP1 DUP3 MSTORE PUSH1 0x20 DUP1 DUP4 ADD DUP3 SWAP1 MSTORE SWAP3 DUP3 ADD DUP2 SWAP1 MSTORE PUSH1 0x60 DUP3 ADD DUP2 SWAP1 MSTORE PUSH1 0x80 DUP3 ADD MSTORE DUP3 MSTORE PUSH0 NOT SWAP1 SWAP3 ADD SWAP2 ADD DUP2 PUSH2 0x1B1E JUMPI SWAP1 POP JUMPDEST POP SWAP1 POP PUSH0 DUP1 JUMPDEST PUSH1 0x6 SLOAD DUP2 LT ISZERO PUSH2 0x1C89 JUMPI DUP5 PUSH1 0x1 PUSH1 0x1 PUSH1 0xA0 SHL SUB AND PUSH1 0x6 DUP3 DUP2 SLOAD DUP2 LT PUSH2 0x1B84 JUMPI PUSH2 0x1B84 PUSH2 0x349D JUMP JUMPDEST PUSH0 SWAP2 DUP3 MSTORE PUSH1 0x20 SWAP1 SWAP2 KECCAK256 PUSH1 0x4 SWAP1 SWAP2 MUL ADD SLOAD PUSH1 0x1 PUSH1 0x1 PUSH1 0xA0 SHL SUB AND SUB PUSH2 0x1C77 JUMPI PUSH1 0x6 DUP2 DUP2 SLOAD DUP2 LT PUSH2 0x1BB5 JUMPI PUSH2 0x1BB5 PUSH2 0x349D JUMP JUMPDEST PUSH0 SWAP2 DUP3 MSTORE PUSH1 0x20 SWAP2 DUP3 SWAP1 KECCAK256 PUSH1 0x40 DUP1 MLOAD PUSH1 0xA0 DUP2 ADD DUP3 MSTORE PUSH1 0x4 SWAP1 SWAP4 MUL SWAP1 SWAP2 ADD DUP1 SLOAD PUSH1 0x1 PUSH1 0x1 PUSH1 0xA0 SHL SUB SWAP1 DUP2 AND DUP5 MSTORE PUSH1 0x1 DUP1 DUP4 ADD SLOAD SWAP1 SWAP2 AND SWAP5 DUP5 ADD SWAP5 SWAP1 SWAP5 MSTORE PUSH1 0x2 DUP2 ADD SLOAD SWAP2 DUP4 ADD SWAP2 SWAP1 SWAP2 MSTORE PUSH1 0x3 DUP2 ADD SLOAD SWAP2 SWAP3 SWAP1 SWAP2 PUSH1 0x60 DUP5 ADD SWAP2 PUSH1 0xFF SWAP1 SWAP2 AND SWAP1 DUP2 GT ISZERO PUSH2 0x1C1F JUMPI PUSH2 0x1C1F PUSH2 0x3146 JUMP JUMPDEST PUSH1 0x1 DUP2 GT ISZERO PUSH2 0x1C30 JUMPI PUSH2 0x1C30 PUSH2 0x3146 JUMP JUMPDEST DUP2 MSTORE PUSH1 0x3 SWAP2 SWAP1 SWAP2 ADD SLOAD PUSH2 0x100 SWAP1 DIV PUSH3 0xFFFFFF AND PUSH1 0x20 SWAP1 SWAP2 ADD MSTORE DUP4 MLOAD DUP5 SWAP1 DUP5 SWAP1 DUP2 LT PUSH2 0x1C5D JUMPI PUSH2 0x1C5D PUSH2 0x349D JUMP JUMPDEST PUSH1 0x20 MUL PUSH1 0x20 ADD ADD DUP2 SWAP1 MSTORE POP DUP2 DUP1 PUSH2 0x1C73 SWAP1 PUSH2 0x373A JUMP JUMPDEST SWAP3 POP POP JUMPDEST DUP1 PUSH2 0x1C81 DUP2 PUSH2 0x373A JUMP JUMPDEST SWAP2 POP POP PUSH2 0x1B5D JUMP JUMPDEST POP SWAP1 SWAP4 SWAP3 POP POP POP JUMP JUMPDEST PUSH1 0x60 PUSH1 0x5 DUP1 SLOAD PUSH2 0x619 SWAP1 PUSH2 0x3451 JUMP JUMPDEST PUSH2 0x1CA9 PUSH2 0x2D2B JUMP JUMPDEST PUSH1 0xD SLOAD ISZERO PUSH2 0x1D47 JUMPI PUSH1 0xD SLOAD PUSH1 0x40 MLOAD PUSH0 SWAP2 PUSH1 0x1 PUSH1 0x1 PUSH1 0xA0 SHL SUB DUP5 AND SWAP2 DUP4 DUP2 DUP2 DUP2 DUP6 DUP8 GAS CALL SWAP3 POP POP POP RETURNDATASIZE DUP1 PUSH0 DUP2 EQ PUSH2 0x1CFA JUMPI PUSH1 0x40 MLOAD SWAP2 POP PUSH1 0x1F NOT PUSH1 0x3F RETURNDATASIZE ADD AND DUP3 ADD PUSH1 0x40 MSTORE RETURNDATASIZE DUP3 MSTORE RETURNDATASIZE PUSH0 PUSH1 0x20 DUP5 ADD RETURNDATACOPY PUSH2 0x1CFF JUMP JUMPDEST PUSH1 0x60 SWAP2 POP JUMPDEST POP POP SWAP1 POP DUP1 PUSH2 0x1D41 JUMPI PUSH1 0x40 MLOAD PUSH3 0x461BCD PUSH1 0xE5 SHL DUP2 MSTORE PUSH1 0x20 PUSH1 0x4 DUP3 ADD MSTORE PUSH1 0xE PUSH1 0x24 DUP3 ADD MSTORE PUSH14 0x1D1C985B9CD9995C91985A5B1959 PUSH1 0x92 SHL PUSH1 0x44 DUP3 ADD MSTORE PUSH1 0x64 ADD PUSH2 0x6EE JUMP JUMPDEST POP PUSH0 PUSH1 0xD SSTORE JUMPDEST POP JUMP JUMPDEST PUSH0 CALLER PUSH2 0x6A7 DUP2 DUP6 DUP6 PUSH2 0x289B JUMP JUMPDEST PUSH0 CALLVALUE GT PUSH2 0x1D8C JUMPI PUSH1 0x40 MLOAD PUSH3 0x461BCD PUSH1 0xE5 SHL DUP2 MSTORE PUSH1 0x20 PUSH1 0x4 DUP3 ADD MSTORE PUSH1 0x3 PUSH1 0x24 DUP3 ADD MSTORE PUSH3 0x213E3 PUSH1 0xEC SHL PUSH1 0x44 DUP3 ADD MSTORE PUSH1 0x64 ADD PUSH2 0x6EE JUMP JUMPDEST PUSH1 0x10 SLOAD PUSH1 0x40 DUP1 MLOAD PUSH4 0x67A52793 PUSH1 0xE0 SHL DUP2 MSTORE SWAP1 MLOAD PUSH0 SWAP3 PUSH1 0x1 PUSH1 0x1 PUSH1 0xA0 SHL SUB AND SWAP2 PUSH4 0x67A52793 SWAP2 PUSH1 0x4 DUP1 DUP4 ADD SWAP3 PUSH1 0x20 SWAP3 SWAP2 SWAP1 DUP3 SWAP1 SUB ADD DUP2 DUP7 GAS STATICCALL ISZERO DUP1 ISZERO PUSH2 0x1DD3 JUMPI RETURNDATASIZE PUSH0 DUP1 RETURNDATACOPY RETURNDATASIZE PUSH0 REVERT JUMPDEST POP POP POP POP PUSH1 0x40 MLOAD RETURNDATASIZE PUSH1 0x1F NOT PUSH1 0x1F DUP3 ADD AND DUP3 ADD DUP1 PUSH1 0x40 MSTORE POP DUP2 ADD SWAP1 PUSH2 0x1DF7 SWAP2 SWAP1 PUSH2 0x3752 JUMP JUMPDEST SWAP1 POP PUSH0 PUSH2 0x2710 PUSH2 0x1E0B PUSH2 0xFFFF DUP5 AND CALLVALUE PUSH2 0x360E JUMP JUMPDEST PUSH2 0x1E15 SWAP2 SWAP1 PUSH2 0x3625 JUMP JUMPDEST SWAP1 POP PUSH0 PUSH2 0x1E22 DUP3 CALLVALUE PUSH2 0x35FB JUMP JUMPDEST SWAP1 POP DUP2 PUSH1 0xD PUSH0 DUP3 DUP3 SLOAD PUSH2 0x1E35 SWAP2 SWAP1 PUSH2 0x3727 JUMP JUMPDEST SWAP1 SWAP2 SSTORE POP POP DUP1 PUSH2 0x1E6D JUMPI PUSH1 0x40 MLOAD PUSH3 0x461BCD PUSH1 0xE5 SHL DUP2 MSTORE PUSH1 0x20 PUSH1 0x4 DUP3 ADD MSTORE PUSH1 0x3 PUSH1 0x24 DUP3 ADD MSTORE PUSH3 0x213E3 PUSH1 0xEC SHL PUSH1 0x44 DUP3 ADD MSTORE PUSH1 0x64 ADD PUSH2 0x6EE JUMP JUMPDEST PUSH2 0x1E77 CALLER DUP3 PUSH2 0x2DA6 JUMP JUMPDEST PUSH0 JUMPDEST PUSH1 0xC SLOAD DUP2 LT ISZERO PUSH2 0x15B0 JUMPI PUSH0 PUSH1 0xC DUP3 DUP2 SLOAD DUP2 LT PUSH2 0x1E97 JUMPI PUSH2 0x1E97 PUSH2 0x349D JUMP JUMPDEST SWAP1 PUSH0 MSTORE PUSH1 0x20 PUSH0 KECCAK256 SWAP1 PUSH1 0x3 MUL ADD SWAP1 POP PUSH0 PUSH2 0x2710 DUP3 PUSH1 0x1 ADD SLOAD DUP6 PUSH2 0x1EB9 SWAP2 SWAP1 PUSH2 0x360E JUMP JUMPDEST PUSH2 0x1EC3 SWAP2 SWAP1 PUSH2 0x3625 JUMP JUMPDEST SWAP1 POP DUP4 DUP2 GT ISZERO PUSH2 0x1F0D JUMPI PUSH1 0x40 MLOAD PUSH3 0x461BCD PUSH1 0xE5 SHL DUP2 MSTORE PUSH1 0x20 PUSH1 0x4 DUP3 ADD MSTORE PUSH1 0x15 PUSH1 0x24 DUP3 ADD MSTORE PUSH21 0x21657468416D6F756E743C3D616D6F756E74666565 PUSH1 0x58 SHL PUSH1 0x44 DUP3 ADD MSTORE PUSH1 0x64 ADD PUSH2 0x6EE JUMP JUMPDEST DUP1 ISZERO PUSH2 0x20CF JUMPI DUP2 SLOAD PUSH1 0x2 DUP4 ADD SLOAD PUSH1 0x40 MLOAD PUSH4 0x182B4773 PUSH1 0xE1 SHL DUP2 MSTORE ADDRESS SWAP3 PUSH4 0x30568EE6 SWAP3 DUP6 SWAP3 PUSH2 0x1F59 SWAP3 PUSH1 0x1 PUSH1 0x1 PUSH1 0xA0 SHL SUB AND SWAP2 DUP5 SWAP2 PUSH1 0xFF DUP3 AND SWAP2 PUSH2 0x100 SWAP1 DIV PUSH3 0xFFFFFF AND SWAP1 PUSH1 0x4 ADD PUSH2 0x3792 JUMP JUMPDEST PUSH0 PUSH1 0x40 MLOAD DUP1 DUP4 SUB DUP2 DUP6 DUP9 DUP1 EXTCODESIZE ISZERO DUP1 ISZERO PUSH2 0x1F70 JUMPI PUSH0 DUP1 REVERT JUMPDEST POP GAS CALL SWAP4 POP POP POP POP DUP1 ISZERO PUSH2 0x1F82 JUMPI POP PUSH1 0x1 JUMPDEST PUSH2 0x20CF JUMPI CALLER PUSH0 SWAP1 DUP2 MSTORE PUSH1 0xF PUSH1 0x20 MSTORE PUSH1 0x40 DUP2 KECCAK256 DUP1 SLOAD DUP4 SWAP3 SWAP1 PUSH2 0x1FA4 SWAP1 DUP5 SWAP1 PUSH2 0x3727 JUMP JUMPDEST SWAP1 SWAP2 SSTORE POP POP PUSH1 0x40 DUP1 MLOAD PUSH1 0xA0 DUP2 ADD DUP3 MSTORE CALLER DUP2 MSTORE DUP4 SLOAD PUSH1 0x1 PUSH1 0x1 PUSH1 0xA0 SHL SUB AND PUSH1 0x20 DUP3 ADD MSTORE SWAP1 DUP2 ADD DUP3 SWAP1 MSTORE PUSH1 0x2 DUP4 ADD SLOAD PUSH1 0x6 SWAP2 SWAP1 PUSH1 0x60 DUP3 ADD SWAP1 PUSH1 0xFF AND PUSH1 0x1 DUP2 GT ISZERO PUSH2 0x1FEE JUMPI PUSH2 0x1FEE PUSH2 0x3146 JUMP JUMPDEST DUP2 MSTORE PUSH1 0x2 DUP6 DUP2 ADD SLOAD PUSH2 0x100 SWAP1 DIV PUSH3 0xFFFFFF AND PUSH1 0x20 SWAP3 DUP4 ADD MSTORE DUP4 SLOAD PUSH1 0x1 DUP1 DUP3 ADD DUP7 SSTORE PUSH0 SWAP6 DUP7 MSTORE SWAP5 DUP4 SWAP1 KECCAK256 DUP5 MLOAD PUSH1 0x4 SWAP1 SWAP3 MUL ADD DUP1 SLOAD PUSH1 0x1 PUSH1 0x1 PUSH1 0xA0 SHL SUB NOT SWAP1 DUP2 AND PUSH1 0x1 PUSH1 0x1 PUSH1 0xA0 SHL SUB SWAP4 DUP5 AND OR DUP3 SSTORE SWAP4 DUP6 ADD MLOAD DUP2 DUP8 ADD DUP1 SLOAD SWAP1 SWAP6 AND SWAP3 AND SWAP2 SWAP1 SWAP2 OR SWAP1 SWAP3 SSTORE PUSH1 0x40 DUP4 ADD MLOAD SWAP1 DUP3 ADD SSTORE PUSH1 0x60 DUP3 ADD MLOAD PUSH1 0x3 DUP3 ADD DUP1 SLOAD SWAP4 SWAP5 SWAP3 SWAP4 SWAP2 SWAP3 SWAP1 SWAP2 PUSH1 0xFF NOT AND SWAP1 DUP4 DUP2 DUP2 GT ISZERO PUSH2 0x2082 JUMPI PUSH2 0x2082 PUSH2 0x3146 JUMP JUMPDEST MUL OR SWAP1 SSTORE POP PUSH1 0x80 SWAP2 SWAP1 SWAP2 ADD MLOAD PUSH1 0x3 SWAP1 SWAP2 ADD DUP1 SLOAD PUSH3 0xFFFFFF SWAP1 SWAP3 AND PUSH2 0x100 MUL PUSH4 0xFFFFFF00 NOT SWAP1 SWAP3 AND SWAP2 SWAP1 SWAP2 OR SWAP1 SSTORE CALLER PUSH0 SWAP1 DUP2 MSTORE PUSH1 0x8 PUSH1 0x20 MSTORE PUSH1 0x40 DUP2 KECCAK256 DUP1 SLOAD SWAP2 PUSH2 0x20C9 DUP4 PUSH2 0x373A JUMP JUMPDEST SWAP2 SWAP1 POP SSTORE POP JUMPDEST POP POP DUP1 DUP1 PUSH2 0x20DC SWAP1 PUSH2 0x373A JUMP JUMPDEST SWAP2 POP POP PUSH2 0x1E79 JUMP JUMPDEST PUSH1 0x9 SLOAD PUSH1 0x40 DUP1 MLOAD PUSH4 0x15AB88C9 PUSH1 0xE3 SHL DUP2 MSTORE SWAP1 MLOAD PUSH0 SWAP3 PUSH1 0x1 PUSH1 0x1 PUSH1 0xA0 SHL SUB AND SWAP2 PUSH4 0xAD5C4648 SWAP2 PUSH1 0x4 DUP1 DUP4 ADD SWAP3 PUSH1 0x20 SWAP3 SWAP2 SWAP1 DUP3 SWAP1 SUB ADD DUP2 DUP7 GAS STATICCALL ISZERO DUP1 ISZERO PUSH2 0x212B JUMPI RETURNDATASIZE PUSH0 DUP1 RETURNDATACOPY RETURNDATASIZE PUSH0 REVERT JUMPDEST POP POP POP POP PUSH1 0x40 MLOAD RETURNDATASIZE PUSH1 0x1F NOT PUSH1 0x1F DUP3 ADD AND DUP3 ADD DUP1 PUSH1 0x40 MSTORE POP DUP2 ADD SWAP1 PUSH2 0x214F SWAP2 SWAP1 PUSH2 0x34B1 JUMP JUMPDEST SWAP1 POP SWAP1 JUMP JUMPDEST PUSH2 0x215C PUSH2 0x2D2B JUMP JUMPDEST PUSH1 0xE SLOAD PUSH1 0xFF AND ISZERO PUSH2 0x219D JUMPI PUSH1 0x40 MLOAD PUSH3 0x461BCD PUSH1 0xE5 SHL DUP2 MSTORE PUSH1 0x20 PUSH1 0x4 DUP3 ADD MSTORE PUSH1 0xB PUSH1 0x24 DUP3 ADD MSTORE PUSH11 0x1A5B9A5D1A585B1A5E9959 PUSH1 0xAA SHL PUSH1 0x44 DUP3 ADD MSTORE PUSH1 0x64 ADD PUSH2 0x6EE JUMP JUMPDEST DUP7 DUP6 EQ PUSH2 0x21E1 JUMPI PUSH1 0x40 MLOAD PUSH3 0x461BCD PUSH1 0xE5 SHL DUP2 MSTORE PUSH1 0x20 PUSH1 0x4 DUP3 ADD MSTORE PUSH1 0x12 PUSH1 0x24 DUP3 ADD MSTORE PUSH18 0x4D69736D617463686564206C656E67746873 PUSH1 0x70 SHL PUSH1 0x44 DUP3 ADD MSTORE PUSH1 0x64 ADD PUSH2 0x6EE JUMP JUMPDEST PUSH0 DUP1 JUMPDEST DUP9 DUP2 LT ISZERO PUSH2 0x23E3 JUMPI PUSH2 0x2710 DUP9 DUP9 DUP4 DUP2 DUP2 LT PUSH2 0x2201 JUMPI PUSH2 0x2201 PUSH2 0x349D JUMP JUMPDEST SWAP1 POP PUSH1 0x20 MUL ADD CALLDATALOAD GT ISZERO PUSH2 0x224A JUMPI PUSH1 0x40 MLOAD PUSH3 0x461BCD PUSH1 0xE5 SHL DUP2 MSTORE PUSH1 0x20 PUSH1 0x4 DUP3 ADD MSTORE PUSH1 0x11 PUSH1 0x24 DUP3 ADD MSTORE PUSH17 0x496E76616C696450657263656E74616765 PUSH1 0x78 SHL PUSH1 0x44 DUP3 ADD MSTORE PUSH1 0x64 ADD PUSH2 0x6EE JUMP JUMPDEST DUP8 DUP8 DUP3 DUP2 DUP2 LT PUSH2 0x225C JUMPI PUSH2 0x225C PUSH2 0x349D JUMP JUMPDEST SWAP1 POP PUSH1 0x20 MUL ADD CALLDATALOAD DUP3 PUSH2 0x226E SWAP2 SWAP1 PUSH2 0x3727 JUMP JUMPDEST SWAP2 POP PUSH1 0xC PUSH1 0x40 MLOAD DUP1 PUSH1 0x80 ADD PUSH1 0x40 MSTORE DUP1 DUP13 DUP13 DUP6 DUP2 DUP2 LT PUSH2 0x228F JUMPI PUSH2 0x228F PUSH2 0x349D JUMP JUMPDEST SWAP1 POP PUSH1 0x20 MUL ADD PUSH1 0x20 DUP2 ADD SWAP1 PUSH2 0x22A4 SWAP2 SWAP1 PUSH2 0x3240 JUMP JUMPDEST PUSH1 0x1 PUSH1 0x1 PUSH1 0xA0 SHL SUB AND DUP2 MSTORE PUSH1 0x20 ADD DUP11 DUP11 DUP6 DUP2 DUP2 LT PUSH2 0x22C4 JUMPI PUSH2 0x22C4 PUSH2 0x349D JUMP JUMPDEST SWAP1 POP PUSH1 0x20 MUL ADD CALLDATALOAD DUP2 MSTORE PUSH1 0x20 ADD DUP9 DUP9 DUP6 DUP2 DUP2 LT PUSH2 0x22E2 JUMPI PUSH2 0x22E2 PUSH2 0x349D JUMP JUMPDEST SWAP1 POP PUSH1 0x20 MUL ADD PUSH1 0x20 DUP2 ADD SWAP1 PUSH2 0x22F7 SWAP2 SWAP1 PUSH2 0x37DF JUMP JUMPDEST PUSH1 0x1 DUP2 GT ISZERO PUSH2 0x2308 JUMPI PUSH2 0x2308 PUSH2 0x3146 JUMP JUMPDEST DUP2 MSTORE PUSH1 0x20 ADD DUP7 DUP7 DUP6 DUP2 DUP2 LT PUSH2 0x231F JUMPI PUSH2 0x231F PUSH2 0x349D JUMP JUMPDEST SWAP1 POP PUSH1 0x20 MUL ADD PUSH1 0x20 DUP2 ADD SWAP1 PUSH2 0x2334 SWAP2 SWAP1 PUSH2 0x37F8 JUMP JUMPDEST PUSH3 0xFFFFFF AND SWAP1 MSTORE DUP2 SLOAD PUSH1 0x1 DUP1 DUP3 ADD DUP5 SSTORE PUSH0 SWAP4 DUP5 MSTORE PUSH1 0x20 SWAP4 DUP5 SWAP1 KECCAK256 DUP4 MLOAD PUSH1 0x3 SWAP1 SWAP4 MUL ADD DUP1 SLOAD PUSH1 0x1 PUSH1 0x1 PUSH1 0xA0 SHL SUB NOT AND PUSH1 0x1 PUSH1 0x1 PUSH1 0xA0 SHL SUB SWAP1 SWAP4 AND SWAP3 SWAP1 SWAP3 OR DUP3 SSTORE SWAP3 DUP3 ADD MLOAD DUP2 DUP5 ADD SSTORE PUSH1 0x40 DUP3 ADD MLOAD PUSH1 0x2 DUP3 ADD DUP1 SLOAD SWAP4 SWAP5 SWAP3 SWAP4 SWAP2 SWAP3 SWAP1 SWAP2 PUSH1 0xFF NOT AND SWAP1 DUP4 DUP2 DUP2 GT ISZERO PUSH2 0x23A4 JUMPI PUSH2 0x23A4 PUSH2 0x3146 JUMP JUMPDEST MUL OR SWAP1 SSTORE POP PUSH1 0x60 SWAP2 SWAP1 SWAP2 ADD MLOAD PUSH1 0x2 SWAP1 SWAP2 ADD DUP1 SLOAD PUSH3 0xFFFFFF SWAP1 SWAP3 AND PUSH2 0x100 MUL PUSH4 0xFFFFFF00 NOT SWAP1 SWAP3 AND SWAP2 SWAP1 SWAP2 OR SWAP1 SSTORE DUP1 PUSH2 0x23DB DUP2 PUSH2 0x373A JUMP JUMPDEST SWAP2 POP POP PUSH2 0x21E4 JUMP JUMPDEST POP DUP1 PUSH2 0x2710 EQ PUSH2 0x241F JUMPI PUSH1 0x40 MLOAD PUSH3 0x461BCD PUSH1 0xE5 SHL DUP2 MSTORE PUSH1 0x20 PUSH1 0x4 DUP3 ADD MSTORE PUSH1 0x7 PUSH1 0x24 DUP3 ADD MSTORE PUSH7 0x743D313030303 PUSH1 0xCC SHL PUSH1 0x44 DUP3 ADD MSTORE PUSH1 0x64 ADD PUSH2 0x6EE JUMP JUMPDEST POP POP PUSH1 0xE DUP1 SLOAD PUSH1 0xFF NOT AND PUSH1 0x1 OR SWAP1 SSTORE POP POP POP POP POP POP POP JUMP JUMPDEST PUSH2 0x243F PUSH2 0x2D2B JUMP JUMPDEST PUSH1 0x1 PUSH1 0x1 PUSH1 0xA0 SHL SUB DUP2 AND PUSH2 0x2468 JUMPI PUSH1 0x40 MLOAD PUSH4 0x1E4FBDF7 PUSH1 0xE0 SHL DUP2 MSTORE PUSH0 PUSH1 0x4 DUP3 ADD MSTORE PUSH1 0x24 ADD PUSH2 0x6EE JUMP JUMPDEST PUSH2 0x1D47 DUP2 PUSH2 0x2D57 JUMP JUMPDEST PUSH2 0x128A DUP4 DUP4 DUP4 PUSH1 0x1 PUSH2 0x2DDA JUMP JUMPDEST PUSH1 0x40 DUP1 MLOAD PUSH1 0x2 DUP1 DUP3 MSTORE PUSH1 0x60 DUP3 ADD DUP4 MSTORE PUSH0 SWAP3 DUP4 SWAP3 SWAP2 SWAP1 PUSH1 0x20 DUP4 ADD SWAP1 DUP1 CALLDATASIZE DUP4 CALLDATACOPY ADD SWAP1 POP POP SWAP1 POP DUP6 DUP2 PUSH0 DUP2 MLOAD DUP2 LT PUSH2 0x24B5 JUMPI PUSH2 0x24B5 PUSH2 0x349D JUMP JUMPDEST PUSH1 0x1 PUSH1 0x1 PUSH1 0xA0 SHL SUB SWAP3 DUP4 AND PUSH1 0x20 SWAP2 DUP3 MUL SWAP3 SWAP1 SWAP3 ADD DUP2 ADD SWAP2 SWAP1 SWAP2 MSTORE PUSH1 0x9 SLOAD PUSH1 0x40 DUP1 MLOAD PUSH4 0x15AB88C9 PUSH1 0xE3 SHL DUP2 MSTORE SWAP1 MLOAD SWAP2 SWAP1 SWAP4 AND SWAP3 PUSH4 0xAD5C4648 SWAP3 PUSH1 0x4 DUP1 DUP4 ADD SWAP4 SWAP2 SWAP3 DUP3 SWAP1 SUB ADD DUP2 DUP7 GAS STATICCALL ISZERO DUP1 ISZERO PUSH2 0x250C JUMPI RETURNDATASIZE PUSH0 DUP1 RETURNDATACOPY RETURNDATASIZE PUSH0 REVERT JUMPDEST POP POP POP POP PUSH1 0x40 MLOAD RETURNDATASIZE PUSH1 0x1F NOT PUSH1 0x1F DUP3 ADD AND DUP3 ADD DUP1 PUSH1 0x40 MSTORE POP DUP2 ADD SWAP1 PUSH2 0x2530 SWAP2 SWAP1 PUSH2 0x34B1 JUMP JUMPDEST DUP2 PUSH1 0x1 DUP2 MLOAD DUP2 LT PUSH2 0x2543 JUMPI PUSH2 0x2543 PUSH2 0x349D JUMP JUMPDEST PUSH1 0x1 PUSH1 0x1 PUSH1 0xA0 SHL SUB SWAP3 DUP4 AND PUSH1 0x20 SWAP2 DUP3 MUL SWAP3 SWAP1 SWAP3 ADD ADD MSTORE PUSH1 0x9 SLOAD PUSH1 0x40 MLOAD PUSH4 0x95EA7B3 PUSH1 0xE0 SHL DUP2 MSTORE SWAP1 DUP3 AND PUSH1 0x4 DUP3 ADD MSTORE PUSH1 0x24 DUP2 ADD DUP8 SWAP1 MSTORE SWAP1 DUP8 AND SWAP1 PUSH4 0x95EA7B3 SWAP1 PUSH1 0x44 ADD PUSH1 0x20 PUSH1 0x40 MLOAD DUP1 DUP4 SUB DUP2 PUSH0 DUP8 GAS CALL ISZERO DUP1 ISZERO PUSH2 0x25A1 JUMPI RETURNDATASIZE PUSH0 DUP1 RETURNDATACOPY RETURNDATASIZE PUSH0 REVERT JUMPDEST POP POP POP POP PUSH1 0x40 MLOAD RETURNDATASIZE PUSH1 0x1F NOT PUSH1 0x1F DUP3 ADD AND DUP3 ADD DUP1 PUSH1 0x40 MSTORE POP DUP2 ADD SWAP1 PUSH2 0x25C5 SWAP2 SWAP1 PUSH2 0x3773 JUMP JUMPDEST POP PUSH1 0x9 SLOAD PUSH1 0x40 MLOAD PUSH4 0x18CBAFE5 PUSH1 0xE0 SHL DUP2 MSTORE PUSH0 SWAP2 PUSH1 0x1 PUSH1 0x1 PUSH1 0xA0 SHL SUB AND SWAP1 PUSH4 0x18CBAFE5 SWAP1 PUSH2 0x25FE SWAP1 DUP10 SWAP1 DUP10 SWAP1 DUP8 SWAP1 DUP11 SWAP1 TIMESTAMP SWAP1 PUSH1 0x4 ADD PUSH2 0x3811 JUMP JUMPDEST PUSH0 PUSH1 0x40 MLOAD DUP1 DUP4 SUB DUP2 PUSH0 DUP8 GAS CALL ISZERO DUP1 ISZERO PUSH2 0x2619 JUMPI RETURNDATASIZE PUSH0 DUP1 RETURNDATACOPY RETURNDATASIZE PUSH0 REVERT JUMPDEST POP POP POP POP PUSH1 0x40 MLOAD RETURNDATASIZE PUSH0 DUP3 RETURNDATACOPY PUSH1 0x1F RETURNDATASIZE SWAP1 DUP2 ADD PUSH1 0x1F NOT AND DUP3 ADD PUSH1 0x40 MSTORE PUSH2 0x2640 SWAP2 SWAP1 DUP2 ADD SWAP1 PUSH2 0x352E JUMP JUMPDEST SWAP1 POP DUP1 PUSH1 0x1 DUP2 MLOAD DUP2 LT PUSH2 0x2655 JUMPI PUSH2 0x2655 PUSH2 0x349D JUMP JUMPDEST PUSH1 0x20 MUL PUSH1 0x20 ADD ADD MLOAD SWAP3 POP POP POP SWAP5 SWAP4 POP POP POP POP JUMP JUMPDEST PUSH0 DUP1 PUSH1 0x40 MLOAD DUP1 PUSH2 0x100 ADD PUSH1 0x40 MSTORE DUP1 DUP9 PUSH1 0x1 PUSH1 0x1 PUSH1 0xA0 SHL SUB AND DUP2 MSTORE PUSH1 0x20 ADD PUSH1 0x9 PUSH0 SWAP1 SLOAD SWAP1 PUSH2 0x100 EXP SWAP1 DIV PUSH1 0x1 PUSH1 0x1 PUSH1 0xA0 SHL SUB AND PUSH1 0x1 PUSH1 0x1 PUSH1 0xA0 SHL SUB AND PUSH4 0xAD5C4648 PUSH1 0x40 MLOAD DUP2 PUSH4 0xFFFFFFFF AND PUSH1 0xE0 SHL DUP2 MSTORE PUSH1 0x4 ADD PUSH1 0x20 PUSH1 0x40 MLOAD DUP1 DUP4 SUB DUP2 DUP7 GAS STATICCALL ISZERO DUP1 ISZERO PUSH2 0x26D6 JUMPI RETURNDATASIZE PUSH0 DUP1 RETURNDATACOPY RETURNDATASIZE PUSH0 REVERT JUMPDEST POP POP POP POP PUSH1 0x40 MLOAD RETURNDATASIZE PUSH1 0x1F NOT PUSH1 0x1F DUP3 ADD AND DUP3 ADD DUP1 PUSH1 0x40 MSTORE POP DUP2 ADD SWAP1 PUSH2 0x26FA SWAP2 SWAP1 PUSH2 0x34B1 JUMP JUMPDEST PUSH1 0x1 PUSH1 0x1 PUSH1 0xA0 SHL SUB SWAP1 DUP2 AND DUP3 MSTORE PUSH3 0xFFFFFF DUP9 AND PUSH1 0x20 DUP4 ADD MSTORE DUP6 DUP2 AND PUSH1 0x40 DUP1 DUP5 ADD SWAP2 SWAP1 SWAP2 MSTORE TIMESTAMP PUSH1 0x60 DUP5 ADD MSTORE PUSH1 0x80 DUP4 ADD DUP11 SWAP1 MSTORE PUSH1 0xA0 DUP4 ADD DUP9 SWAP1 MSTORE PUSH0 PUSH1 0xC0 SWAP1 SWAP4 ADD SWAP3 SWAP1 SWAP3 MSTORE PUSH1 0xA SLOAD SWAP2 MLOAD PUSH4 0x95EA7B3 PUSH1 0xE0 SHL DUP2 MSTORE SWAP2 DUP2 AND PUSH1 0x4 DUP4 ADD MSTORE PUSH1 0x24 DUP3 ADD DUP10 SWAP1 MSTORE SWAP2 SWAP3 POP SWAP1 DUP9 AND SWAP1 PUSH4 0x95EA7B3 SWAP1 PUSH1 0x44 ADD PUSH1 0x20 PUSH1 0x40 MLOAD DUP1 DUP4 SUB DUP2 PUSH0 DUP8 GAS CALL ISZERO DUP1 ISZERO PUSH2 0x2786 JUMPI RETURNDATASIZE PUSH0 DUP1 RETURNDATACOPY RETURNDATASIZE PUSH0 REVERT JUMPDEST POP POP POP POP PUSH1 0x40 MLOAD RETURNDATASIZE PUSH1 0x1F NOT PUSH1 0x1F DUP3 ADD AND DUP3 ADD DUP1 PUSH1 0x40 MSTORE POP DUP2 ADD SWAP1 PUSH2 0x27AA SWAP2 SWAP1 PUSH2 0x3773 JUMP JUMPDEST POP PUSH1 0xA SLOAD PUSH1 0x40 MLOAD PUSH4 0x414BF389 PUSH1 0xE0 SHL DUP2 MSTORE PUSH1 0x1 PUSH1 0x1 PUSH1 0xA0 SHL SUB SWAP1 SWAP2 AND SWAP1 PUSH4 0x414BF389 SWAP1 PUSH2 0x27DB SWAP1 DUP5 SWAP1 PUSH1 0x4 ADD PUSH2 0x384C JUMP JUMPDEST PUSH1 0x20 PUSH1 0x40 MLOAD DUP1 DUP4 SUB DUP2 PUSH0 DUP8 GAS CALL ISZERO DUP1 ISZERO PUSH2 0x27F7 JUMPI RETURNDATASIZE PUSH0 DUP1 RETURNDATACOPY RETURNDATASIZE PUSH0 REVERT JUMPDEST POP POP POP POP PUSH1 0x40 MLOAD RETURNDATASIZE PUSH1 0x1F NOT PUSH1 0x1F DUP3 ADD AND DUP3 ADD DUP1 PUSH1 0x40 MSTORE POP DUP2 ADD SWAP1 PUSH2 0x281B SWAP2 SWAP1 PUSH2 0x36A0 JUMP JUMPDEST SWAP8 SWAP7 POP POP POP POP POP POP POP JUMP JUMPDEST PUSH1 0x1 PUSH1 0x1 PUSH1 0xA0 SHL SUB DUP4 DUP2 AND PUSH0 SWAP1 DUP2 MSTORE PUSH1 0x2 PUSH1 0x20 SWAP1 DUP2 MSTORE PUSH1 0x40 DUP1 DUP4 KECCAK256 SWAP4 DUP7 AND DUP4 MSTORE SWAP3 SWAP1 MSTORE KECCAK256 SLOAD PUSH0 NOT DUP2 EQ PUSH2 0x15B0 JUMPI DUP2 DUP2 LT ISZERO PUSH2 0x288D JUMPI PUSH1 0x40 MLOAD PUSH4 0x7DC7A0D9 PUSH1 0xE1 SHL DUP2 MSTORE PUSH1 0x1 PUSH1 0x1 PUSH1 0xA0 SHL SUB DUP5 AND PUSH1 0x4 DUP3 ADD MSTORE PUSH1 0x24 DUP2 ADD DUP3 SWAP1 MSTORE PUSH1 0x44 DUP2 ADD DUP4 SWAP1 MSTORE PUSH1 0x64 ADD PUSH2 0x6EE JUMP JUMPDEST PUSH2 0x15B0 DUP5 DUP5 DUP5 DUP5 SUB PUSH0 PUSH2 0x2DDA JUMP JUMPDEST PUSH1 0x1 PUSH1 0x1 PUSH1 0xA0 SHL SUB DUP4 AND PUSH2 0x28C4 JUMPI PUSH1 0x40 MLOAD PUSH4 0x4B637E8F PUSH1 0xE1 SHL DUP2 MSTORE PUSH0 PUSH1 0x4 DUP3 ADD MSTORE PUSH1 0x24 ADD PUSH2 0x6EE JUMP JUMPDEST PUSH1 0x1 PUSH1 0x1 PUSH1 0xA0 SHL SUB DUP3 AND PUSH2 0x28ED JUMPI PUSH1 0x40 MLOAD PUSH4 0xEC442F05 PUSH1 0xE0 SHL DUP2 MSTORE PUSH0 PUSH1 0x4 DUP3 ADD MSTORE PUSH1 0x24 ADD PUSH2 0x6EE JUMP JUMPDEST PUSH2 0x128A DUP4 DUP4 DUP4 PUSH2 0x2EAC JUMP JUMPDEST PUSH1 0x1 PUSH1 0x1 PUSH1 0xA0 SHL SUB DUP3 AND PUSH2 0x2921 JUMPI PUSH1 0x40 MLOAD PUSH4 0x4B637E8F PUSH1 0xE1 SHL DUP2 MSTORE PUSH0 PUSH1 0x4 DUP3 ADD MSTORE PUSH1 0x24 ADD PUSH2 0x6EE JUMP JUMPDEST PUSH2 0x1AB5 DUP3 PUSH0 DUP4 PUSH2 0x2EAC JUMP JUMPDEST PUSH1 0x40 DUP1 MLOAD PUSH1 0x2 DUP1 DUP3 MSTORE PUSH1 0x60 DUP1 DUP4 ADD DUP5 MSTORE SWAP3 PUSH0 SWAP3 SWAP2 SWAP1 PUSH1 0x20 DUP4 ADD SWAP1 DUP1 CALLDATASIZE DUP4 CALLDATACOPY POP POP PUSH1 0x9 SLOAD PUSH1 0x40 DUP1 MLOAD PUSH4 0x15AB88C9 PUSH1 0xE3 SHL DUP2 MSTORE SWAP1 MLOAD SWAP4 SWAP5 POP PUSH1 0x1 PUSH1 0x1 PUSH1 0xA0 SHL SUB SWAP1 SWAP2 AND SWAP3 PUSH4 0xAD5C4648 SWAP3 POP PUSH1 0x4 DUP1 DUP4 ADD SWAP3 PUSH1 0x20 SWAP3 SWAP2 SWAP1 DUP3 SWAP1 SUB ADD DUP2 DUP7 GAS STATICCALL ISZERO DUP1 ISZERO PUSH2 0x2997 JUMPI RETURNDATASIZE PUSH0 DUP1 RETURNDATACOPY RETURNDATASIZE PUSH0 REVERT JUMPDEST POP POP POP POP PUSH1 0x40 MLOAD RETURNDATASIZE PUSH1 0x1F NOT PUSH1 0x1F DUP3 ADD AND DUP3 ADD DUP1 PUSH1 0x40 MSTORE POP DUP2 ADD SWAP1 PUSH2 0x29BB SWAP2 SWAP1 PUSH2 0x34B1 JUMP JUMPDEST DUP2 PUSH0 DUP2 MLOAD DUP2 LT PUSH2 0x29CD JUMPI PUSH2 0x29CD PUSH2 0x349D JUMP JUMPDEST PUSH1 0x20 MUL PUSH1 0x20 ADD ADD SWAP1 PUSH1 0x1 PUSH1 0x1 PUSH1 0xA0 SHL SUB AND SWAP1 DUP2 PUSH1 0x1 PUSH1 0x1 PUSH1 0xA0 SHL SUB AND DUP2 MSTORE POP POP DUP5 DUP2 PUSH1 0x1 DUP2 MLOAD DUP2 LT PUSH2 0x2A01 JUMPI PUSH2 0x2A01 PUSH2 0x349D JUMP JUMPDEST PUSH1 0x1 PUSH1 0x1 PUSH1 0xA0 SHL SUB SWAP3 DUP4 AND PUSH1 0x20 SWAP2 DUP3 MUL SWAP3 SWAP1 SWAP3 ADD ADD MSTORE PUSH1 0x9 SLOAD PUSH1 0x40 MLOAD PUSH4 0x7FF36AB5 PUSH1 0xE0 SHL DUP2 MSTORE SWAP2 AND SWAP1 PUSH4 0x7FF36AB5 SWAP1 DUP7 SWAP1 PUSH2 0x2A46 SWAP1 DUP8 SWAP1 DUP7 SWAP1 ADDRESS SWAP1 TIMESTAMP SWAP1 PUSH1 0x4 ADD PUSH2 0x38B5 JUMP JUMPDEST PUSH0 PUSH1 0x40 MLOAD DUP1 DUP4 SUB DUP2 DUP6 DUP9 GAS CALL ISZERO DUP1 ISZERO PUSH2 0x2A61 JUMPI RETURNDATASIZE PUSH0 DUP1 RETURNDATACOPY RETURNDATASIZE PUSH0 REVERT JUMPDEST POP POP POP POP POP PUSH1 0x40 MLOAD RETURNDATASIZE PUSH0 DUP3 RETURNDATACOPY PUSH1 0x1F RETURNDATASIZE SWAP1 DUP2 ADD PUSH1 0x1F NOT AND DUP3 ADD PUSH1 0x40 MSTORE PUSH2 0xA45 SWAP2 SWAP1 DUP2 ADD SWAP1 PUSH2 0x352E JUMP JUMPDEST PUSH1 0x40 DUP1 MLOAD PUSH2 0x100 DUP2 ADD DUP1 DUP4 MSTORE PUSH1 0x9 SLOAD PUSH4 0x15AB88C9 PUSH1 0xE3 SHL SWAP1 SWAP2 MSTORE SWAP2 MLOAD PUSH0 SWAP3 DUP3 SWAP2 PUSH1 0x1 PUSH1 0x1 PUSH1 0xA0 SHL SUB SWAP1 SWAP2 AND SWAP1 PUSH4 0xAD5C4648 SWAP1 PUSH2 0x104 DUP1 DUP6 ADD SWAP2 PUSH1 0x20 SWAP2 DUP2 DUP8 SUB ADD DUP2 DUP7 GAS STATICCALL ISZERO DUP1 ISZERO PUSH2 0x2ADC JUMPI RETURNDATASIZE PUSH0 DUP1 RETURNDATACOPY RETURNDATASIZE PUSH0 REVERT JUMPDEST POP POP POP POP PUSH1 0x40 MLOAD RETURNDATASIZE PUSH1 0x1F NOT PUSH1 0x1F DUP3 ADD AND DUP3 ADD DUP1 PUSH1 0x40 MSTORE POP DUP2 ADD SWAP1 PUSH2 0x2B00 SWAP2 SWAP1 PUSH2 0x34B1 JUMP JUMPDEST PUSH1 0x1 PUSH1 0x1 PUSH1 0xA0 SHL SUB SWAP1 DUP2 AND DUP3 MSTORE DUP8 DUP2 AND PUSH1 0x20 DUP4 ADD MSTORE PUSH3 0xFFFFFF DUP7 AND PUSH1 0x40 DUP1 DUP5 ADD SWAP2 SWAP1 SWAP2 MSTORE ADDRESS PUSH1 0x60 DUP5 ADD MSTORE TIMESTAMP PUSH1 0x80 DUP5 ADD MSTORE PUSH1 0xA0 DUP4 ADD DUP9 SWAP1 MSTORE PUSH1 0xC0 DUP4 ADD DUP7 SWAP1 MSTORE PUSH0 PUSH1 0xE0 SWAP1 SWAP4 ADD SWAP3 SWAP1 SWAP3 MSTORE PUSH1 0xA SLOAD SWAP2 MLOAD PUSH4 0x414BF389 PUSH1 0xE0 SHL DUP2 MSTORE SWAP3 SWAP4 POP AND SWAP1 PUSH4 0x414BF389 SWAP1 DUP7 SWAP1 PUSH2 0x2B72 SWAP1 DUP6 SWAP1 PUSH1 0x4 ADD PUSH2 0x384C JUMP JUMPDEST PUSH1 0x20 PUSH1 0x40 MLOAD DUP1 DUP4 SUB DUP2 DUP6 DUP9 GAS CALL ISZERO DUP1 ISZERO PUSH2 0x2B8E JUMPI RETURNDATASIZE PUSH0 DUP1 RETURNDATACOPY RETURNDATASIZE PUSH0 REVERT JUMPDEST POP POP POP POP POP PUSH1 0x40 MLOAD RETURNDATASIZE PUSH1 0x1F NOT PUSH1 0x1F DUP3 ADD AND DUP3 ADD DUP1 PUSH1 0x40 MSTORE POP DUP2 ADD SWAP1 PUSH2 0x1095 SWAP2 SWAP1 PUSH2 0x36A0 JUMP JUMPDEST PUSH1 0x6 SLOAD DUP2 LT PUSH2 0x2BED JUMPI PUSH1 0x40 MLOAD PUSH3 0x461BCD PUSH1 0xE5 SHL DUP2 MSTORE PUSH1 0x20 PUSH1 0x4 DUP3 ADD MSTORE PUSH1 0x6 PUSH1 0x24 DUP3 ADD MSTORE PUSH6 0x42D2DCC8CAF PUSH1 0xD3 SHL PUSH1 0x44 DUP3 ADD MSTORE PUSH1 0x64 ADD PUSH2 0x6EE JUMP JUMPDEST PUSH1 0x6 DUP1 SLOAD PUSH2 0x2BFD SWAP1 PUSH1 0x1 SWAP1 PUSH2 0x35FB JUMP JUMPDEST DUP2 SLOAD DUP2 LT PUSH2 0x2C0D JUMPI PUSH2 0x2C0D PUSH2 0x349D JUMP JUMPDEST SWAP1 PUSH0 MSTORE PUSH1 0x20 PUSH0 KECCAK256 SWAP1 PUSH1 0x4 MUL ADD PUSH1 0x6 DUP3 DUP2 SLOAD DUP2 LT PUSH2 0x2C2C JUMPI PUSH2 0x2C2C PUSH2 0x349D JUMP JUMPDEST PUSH0 SWAP2 DUP3 MSTORE PUSH1 0x20 SWAP1 SWAP2 KECCAK256 DUP3 SLOAD PUSH1 0x4 SWAP1 SWAP3 MUL ADD DUP1 SLOAD PUSH1 0x1 PUSH1 0x1 PUSH1 0xA0 SHL SUB NOT SWAP1 DUP2 AND PUSH1 0x1 PUSH1 0x1 PUSH1 0xA0 SHL SUB SWAP4 DUP5 AND OR DUP3 SSTORE PUSH1 0x1 DUP1 DUP6 ADD SLOAD DUP2 DUP5 ADD DUP1 SLOAD SWAP1 SWAP4 AND SWAP5 AND SWAP4 SWAP1 SWAP4 OR SWAP1 SSTORE PUSH1 0x2 DUP1 DUP5 ADD SLOAD SWAP1 DUP3 ADD SSTORE PUSH1 0x3 DUP1 DUP5 ADD SLOAD SWAP1 DUP3 ADD DUP1 SLOAD SWAP3 SWAP4 PUSH1 0xFF SWAP1 SWAP3 AND SWAP3 SWAP1 SWAP2 PUSH1 0xFF NOT SWAP1 SWAP2 AND SWAP1 DUP4 DUP2 DUP2 GT ISZERO PUSH2 0x2CA6 JUMPI PUSH2 0x2CA6 PUSH2 0x3146 JUMP JUMPDEST MUL OR SWAP1 SSTORE POP PUSH1 0x3 SWAP2 DUP3 ADD SLOAD SWAP2 ADD DUP1 SLOAD PUSH4 0xFFFFFF00 NOT AND PUSH2 0x100 SWAP3 DUP4 SWAP1 DIV PUSH3 0xFFFFFF AND SWAP1 SWAP3 MUL SWAP2 SWAP1 SWAP2 OR SWAP1 SSTORE PUSH1 0x6 DUP1 SLOAD DUP1 PUSH2 0x2CE2 JUMPI PUSH2 0x2CE2 PUSH2 0x38E9 JUMP JUMPDEST PUSH0 DUP3 DUP2 MSTORE PUSH1 0x20 DUP2 KECCAK256 PUSH1 0x4 PUSH0 NOT SWAP1 SWAP4 ADD SWAP3 DUP4 MUL ADD DUP1 SLOAD PUSH1 0x1 PUSH1 0x1 PUSH1 0xA0 SHL SUB NOT SWAP1 DUP2 AND DUP3 SSTORE PUSH1 0x1 DUP3 ADD DUP1 SLOAD SWAP1 SWAP2 AND SWAP1 SSTORE PUSH1 0x2 DUP2 ADD SWAP2 SWAP1 SWAP2 SSTORE PUSH1 0x3 ADD DUP1 SLOAD PUSH4 0xFFFFFFFF NOT AND SWAP1 SSTORE SWAP1 SSTORE POP JUMP JUMPDEST PUSH0 SLOAD PUSH1 0x1 PUSH1 0x1 PUSH1 0xA0 SHL SUB AND CALLER EQ PUSH2 0x1ACA JUMPI PUSH1 0x40 MLOAD PUSH4 0x118CDAA7 PUSH1 0xE0 SHL DUP2 MSTORE CALLER PUSH1 0x4 DUP3 ADD MSTORE PUSH1 0x24 ADD PUSH2 0x6EE JUMP JUMPDEST PUSH0 DUP1 SLOAD PUSH1 0x1 PUSH1 0x1 PUSH1 0xA0 SHL SUB DUP4 DUP2 AND PUSH1 0x1 PUSH1 0x1 PUSH1 0xA0 SHL SUB NOT DUP4 AND DUP2 OR DUP5 SSTORE PUSH1 0x40 MLOAD SWAP2 SWAP1 SWAP3 AND SWAP3 DUP4 SWAP2 PUSH32 0x8BE0079C531659141344CD1FD0A4F28419497F9722A3DAAFE3B4186F6B6457E0 SWAP2 SWAP1 LOG3 POP POP JUMP JUMPDEST PUSH1 0x1 PUSH1 0x1 PUSH1 0xA0 SHL SUB DUP3 AND PUSH2 0x2DCF JUMPI PUSH1 0x40 MLOAD PUSH4 0xEC442F05 PUSH1 0xE0 SHL DUP2 MSTORE PUSH0 PUSH1 0x4 DUP3 ADD MSTORE PUSH1 0x24 ADD PUSH2 0x6EE JUMP JUMPDEST PUSH2 0x1AB5 PUSH0 DUP4 DUP4 PUSH2 0x2EAC JUMP JUMPDEST PUSH1 0x1 PUSH1 0x1 PUSH1 0xA0 SHL SUB DUP5 AND PUSH2 0x2E03 JUMPI PUSH1 0x40 MLOAD PUSH4 0xE602DF05 PUSH1 0xE0 SHL DUP2 MSTORE PUSH0 PUSH1 0x4 DUP3 ADD MSTORE PUSH1 0x24 ADD PUSH2 0x6EE JUMP JUMPDEST PUSH1 0x1 PUSH1 0x1 PUSH1 0xA0 SHL SUB DUP4 AND PUSH2 0x2E2C JUMPI PUSH1 0x40 MLOAD PUSH4 0x4A1406B1 PUSH1 0xE1 SHL DUP2 MSTORE PUSH0 PUSH1 0x4 DUP3 ADD MSTORE PUSH1 0x24 ADD PUSH2 0x6EE JUMP JUMPDEST PUSH1 0x1 PUSH1 0x1 PUSH1 0xA0 SHL SUB DUP1 DUP6 AND PUSH0 SWAP1 DUP2 MSTORE PUSH1 0x2 PUSH1 0x20 SWAP1 DUP2 MSTORE PUSH1 0x40 DUP1 DUP4 KECCAK256 SWAP4 DUP8 AND DUP4 MSTORE SWAP3 SWAP1 MSTORE KECCAK256 DUP3 SWAP1 SSTORE DUP1 ISZERO PUSH2 0x15B0 JUMPI DUP3 PUSH1 0x1 PUSH1 0x1 PUSH1 0xA0 SHL SUB AND DUP5 PUSH1 0x1 PUSH1 0x1 PUSH1 0xA0 SHL SUB AND PUSH32 0x8C5BE1E5EBEC7D5BD14F71427D1E84F3DD0314C0F7B2291E5B200AC8C7C3B925 DUP5 PUSH1 0x40 MLOAD PUSH2 0x2E9E SWAP2 DUP2 MSTORE PUSH1 0x20 ADD SWAP1 JUMP JUMPDEST PUSH1 0x40 MLOAD DUP1 SWAP2 SUB SWAP1 LOG3 POP POP POP POP JUMP JUMPDEST PUSH1 0x1 PUSH1 0x1 PUSH1 0xA0 SHL SUB DUP4 AND PUSH2 0x2ED6 JUMPI DUP1 PUSH1 0x3 PUSH0 DUP3 DUP3 SLOAD PUSH2 0x2ECB SWAP2 SWAP1 PUSH2 0x3727 JUMP JUMPDEST SWAP1 SWAP2 SSTORE POP PUSH2 0x2F46 SWAP1 POP JUMP JUMPDEST PUSH1 0x1 PUSH1 0x1 PUSH1 0xA0 SHL SUB DUP4 AND PUSH0 SWAP1 DUP2 MSTORE PUSH1 0x1 PUSH1 0x20 MSTORE PUSH1 0x40 SWAP1 KECCAK256 SLOAD DUP2 DUP2 LT ISZERO PUSH2 0x2F28 JUMPI PUSH1 0x40 MLOAD PUSH4 0x391434E3 PUSH1 0xE2 SHL DUP2 MSTORE PUSH1 0x1 PUSH1 0x1 PUSH1 0xA0 SHL SUB DUP6 AND PUSH1 0x4 DUP3 ADD MSTORE PUSH1 0x24 DUP2 ADD DUP3 SWAP1 MSTORE PUSH1 0x44 DUP2 ADD DUP4 SWAP1 MSTORE PUSH1 0x64 ADD PUSH2 0x6EE JUMP JUMPDEST PUSH1 0x1 PUSH1 0x1 PUSH1 0xA0 SHL SUB DUP5 AND PUSH0 SWAP1 DUP2 MSTORE PUSH1 0x1 PUSH1 0x20 MSTORE PUSH1 0x40 SWAP1 KECCAK256 SWAP1 DUP3 SWAP1 SUB SWAP1 SSTORE JUMPDEST PUSH1 0x1 PUSH1 0x1 PUSH1 0xA0 SHL SUB DUP3 AND PUSH2 0x2F62 JUMPI PUSH1 0x3 DUP1 SLOAD DUP3 SWAP1 SUB SWAP1 SSTORE PUSH2 0x2F80 JUMP JUMPDEST PUSH1 0x1 PUSH1 0x1 PUSH1 0xA0 SHL SUB DUP3 AND PUSH0 SWAP1 DUP2 MSTORE PUSH1 0x1 PUSH1 0x20 MSTORE PUSH1 0x40 SWAP1 KECCAK256 DUP1 SLOAD DUP3 ADD SWAP1 SSTORE JUMPDEST DUP2 PUSH1 0x1 PUSH1 0x1 PUSH1 0xA0 SHL SUB AND DUP4 PUSH1 0x1 PUSH1 0x1 PUSH1 0xA0 SHL SUB AND PUSH32 0xDDF252AD1BE2C89B69C2B068FC378DAA952BA7F163C4A11628F55A4DF523B3EF DUP4 PUSH1 0x40 MLOAD PUSH2 0x2FC5 SWAP2 DUP2 MSTORE PUSH1 0x20 ADD SWAP1 JUMP JUMPDEST PUSH1 0x40 MLOAD DUP1 SWAP2 SUB SWAP1 LOG3 POP POP POP JUMP JUMPDEST PUSH0 DUP2 MLOAD DUP1 DUP5 MSTORE PUSH0 JUMPDEST DUP2 DUP2 LT ISZERO PUSH2 0x2FF6 JUMPI PUSH1 0x20 DUP2 DUP6 ADD DUP2 ADD MLOAD DUP7 DUP4 ADD DUP3 ADD MSTORE ADD PUSH2 0x2FDA JUMP JUMPDEST POP PUSH0 PUSH1 0x20 DUP3 DUP7 ADD ADD MSTORE PUSH1 0x20 PUSH1 0x1F NOT PUSH1 0x1F DUP4 ADD AND DUP6 ADD ADD SWAP2 POP POP SWAP3 SWAP2 POP POP JUMP JUMPDEST PUSH1 0x20 DUP2 MSTORE PUSH0 PUSH2 0x3027 PUSH1 0x20 DUP4 ADD DUP5 PUSH2 0x2FD2 JUMP JUMPDEST SWAP4 SWAP3 POP POP POP JUMP JUMPDEST PUSH1 0x1 PUSH1 0x1 PUSH1 0xA0 SHL SUB DUP2 AND DUP2 EQ PUSH2 0x1D47 JUMPI PUSH0 DUP1 REVERT JUMPDEST PUSH0 DUP1 PUSH1 0x40 DUP4 DUP6 SUB SLT ISZERO PUSH2 0x3053 JUMPI PUSH0 DUP1 REVERT JUMPDEST DUP3 CALLDATALOAD PUSH2 0x305E DUP2 PUSH2 0x302E JUMP JUMPDEST SWAP5 PUSH1 0x20 SWAP4 SWAP1 SWAP4 ADD CALLDATALOAD SWAP4 POP POP POP JUMP JUMPDEST PUSH0 PUSH1 0x20 DUP3 DUP5 SUB SLT ISZERO PUSH2 0x307C JUMPI PUSH0 DUP1 REVERT JUMPDEST POP CALLDATALOAD SWAP2 SWAP1 POP JUMP JUMPDEST DUP1 CALLDATALOAD PUSH1 0x2 DUP2 LT PUSH2 0x3091 JUMPI PUSH0 DUP1 REVERT JUMPDEST SWAP2 SWAP1 POP JUMP JUMPDEST DUP1 CALLDATALOAD PUSH3 0xFFFFFF DUP2 AND DUP2 EQ PUSH2 0x3091 JUMPI PUSH0 DUP1 REVERT JUMPDEST PUSH0 DUP1 PUSH0 DUP1 PUSH0 PUSH1 0xA0 DUP7 DUP9 SUB SLT ISZERO PUSH2 0x30BC JUMPI PUSH0 DUP1 REVERT JUMPDEST DUP6 CALLDATALOAD PUSH2 0x30C7 DUP2 PUSH2 0x302E JUMP JUMPDEST SWAP5 POP PUSH1 0x20 DUP7 ADD CALLDATALOAD SWAP4 POP PUSH2 0x30DC PUSH1 0x40 DUP8 ADD PUSH2 0x3083 JUMP JUMPDEST SWAP3 POP PUSH2 0x30EA PUSH1 0x60 DUP8 ADD PUSH2 0x3096 JUMP JUMPDEST SWAP2 POP PUSH1 0x80 DUP7 ADD CALLDATALOAD PUSH2 0x30FA DUP2 PUSH2 0x302E JUMP JUMPDEST DUP1 SWAP2 POP POP SWAP3 SWAP6 POP SWAP3 SWAP6 SWAP1 SWAP4 POP JUMP JUMPDEST PUSH0 DUP1 PUSH0 PUSH1 0x60 DUP5 DUP7 SUB SLT ISZERO PUSH2 0x311A JUMPI PUSH0 DUP1 REVERT JUMPDEST DUP4 CALLDATALOAD PUSH2 0x3125 DUP2 PUSH2 0x302E JUMP JUMPDEST SWAP3 POP PUSH1 0x20 DUP5 ADD CALLDATALOAD PUSH2 0x3135 DUP2 PUSH2 0x302E JUMP JUMPDEST SWAP3 SWAP6 SWAP3 SWAP5 POP POP POP PUSH1 0x40 SWAP2 SWAP1 SWAP2 ADD CALLDATALOAD SWAP1 JUMP JUMPDEST PUSH4 0x4E487B71 PUSH1 0xE0 SHL PUSH0 MSTORE PUSH1 0x21 PUSH1 0x4 MSTORE PUSH1 0x24 PUSH0 REVERT JUMPDEST PUSH1 0x2 DUP2 LT PUSH2 0x3176 JUMPI PUSH4 0x4E487B71 PUSH1 0xE0 SHL PUSH0 MSTORE PUSH1 0x21 PUSH1 0x4 MSTORE PUSH1 0x24 PUSH0 REVERT JUMPDEST SWAP1 MSTORE JUMP JUMPDEST PUSH1 0x20 DUP1 DUP3 MSTORE DUP3 MLOAD DUP3 DUP3 ADD DUP2 SWAP1 MSTORE PUSH0 SWAP2 SWAP1 PUSH1 0x40 SWAP1 DUP2 DUP6 ADD SWAP1 DUP7 DUP5 ADD DUP6 JUMPDEST DUP3 DUP2 LT ISZERO PUSH2 0x31E7 JUMPI DUP2 MLOAD DUP1 MLOAD PUSH1 0x1 PUSH1 0x1 PUSH1 0xA0 SHL SUB AND DUP6 MSTORE DUP7 DUP2 ADD MLOAD DUP8 DUP7 ADD MSTORE DUP6 DUP2 ADD MLOAD PUSH2 0x31C5 DUP8 DUP8 ADD DUP3 PUSH2 0x315A JUMP JUMPDEST POP PUSH1 0x60 SWAP1 DUP2 ADD MLOAD PUSH3 0xFFFFFF AND SWAP1 DUP6 ADD MSTORE PUSH1 0x80 SWAP1 SWAP4 ADD SWAP3 SWAP1 DUP6 ADD SWAP1 PUSH1 0x1 ADD PUSH2 0x3196 JUMP JUMPDEST POP SWAP2 SWAP8 SWAP7 POP POP POP POP POP POP POP JUMP JUMPDEST PUSH0 DUP1 PUSH0 DUP1 PUSH1 0x80 DUP6 DUP8 SUB SLT ISZERO PUSH2 0x3207 JUMPI PUSH0 DUP1 REVERT JUMPDEST DUP5 CALLDATALOAD PUSH2 0x3212 DUP2 PUSH2 0x302E JUMP JUMPDEST SWAP4 POP PUSH1 0x20 DUP6 ADD CALLDATALOAD SWAP3 POP PUSH2 0x3227 PUSH1 0x40 DUP7 ADD PUSH2 0x3083 JUMP JUMPDEST SWAP2 POP PUSH2 0x3235 PUSH1 0x60 DUP7 ADD PUSH2 0x3096 JUMP JUMPDEST SWAP1 POP SWAP3 SWAP6 SWAP2 SWAP5 POP SWAP3 POP JUMP JUMPDEST PUSH0 PUSH1 0x20 DUP3 DUP5 SUB SLT ISZERO PUSH2 0x3250 JUMPI PUSH0 DUP1 REVERT JUMPDEST DUP2 CALLDATALOAD PUSH2 0x3027 DUP2 PUSH2 0x302E JUMP JUMPDEST PUSH1 0x1 PUSH1 0x1 PUSH1 0xA0 SHL SUB DUP7 DUP2 AND DUP3 MSTORE DUP6 AND PUSH1 0x20 DUP3 ADD MSTORE PUSH1 0x40 DUP2 ADD DUP5 SWAP1 MSTORE PUSH1 0xA0 DUP2 ADD PUSH2 0x3287 PUSH1 0x60 DUP4 ADD DUP6 PUSH2 0x315A JUMP JUMPDEST PUSH3 0xFFFFFF DUP4 AND PUSH1 0x80 DUP4 ADD MSTORE SWAP7 SWAP6 POP POP POP POP POP POP JUMP JUMPDEST PUSH1 0x20 DUP1 DUP3 MSTORE DUP3 MLOAD DUP3 DUP3 ADD DUP2 SWAP1 MSTORE PUSH0 SWAP2 SWAP1 PUSH1 0x40 SWAP1 DUP2 DUP6 ADD SWAP1 DUP7 DUP5 ADD DUP6 JUMPDEST DUP3 DUP2 LT ISZERO PUSH2 0x31E7 JUMPI DUP2 MLOAD DUP1 MLOAD PUSH1 0x1 PUSH1 0x1 PUSH1 0xA0 SHL SUB SWAP1 DUP2 AND DUP7 MSTORE DUP8 DUP3 ADD MLOAD AND DUP8 DUP7 ADD MSTORE DUP6 DUP2 ADD MLOAD DUP7 DUP7 ADD MSTORE PUSH1 0x60 DUP1 DUP3 ADD MLOAD PUSH2 0x32F4 DUP3 DUP9 ADD DUP3 PUSH2 0x315A JUMP JUMPDEST POP POP PUSH1 0x80 SWAP1 DUP2 ADD MLOAD PUSH3 0xFFFFFF AND SWAP1 DUP6 ADD MSTORE PUSH1 0xA0 SWAP1 SWAP4 ADD SWAP3 SWAP1 DUP6 ADD SWAP1 PUSH1 0x1 ADD PUSH2 0x32B8 JUMP JUMPDEST PUSH0 DUP1 PUSH1 0x40 DUP4 DUP6 SUB SLT ISZERO PUSH2 0x3328 JUMPI PUSH0 DUP1 REVERT JUMPDEST DUP3 CALLDATALOAD PUSH2 0x3333 DUP2 PUSH2 0x302E JUMP JUMPDEST SWAP2 POP PUSH1 0x20 DUP4 ADD CALLDATALOAD PUSH2 0x3343 DUP2 PUSH2 0x302E JUMP JUMPDEST DUP1 SWAP2 POP POP SWAP3 POP SWAP3 SWAP1 POP JUMP JUMPDEST PUSH0 DUP1 DUP4 PUSH1 0x1F DUP5 ADD SLT PUSH2 0x335E JUMPI PUSH0 DUP1 REVERT JUMPDEST POP DUP2 CALLDATALOAD PUSH8 0xFFFFFFFFFFFFFFFF DUP2 GT ISZERO PUSH2 0x3375 JUMPI PUSH0 DUP1 REVERT JUMPDEST PUSH1 0x20 DUP4 ADD SWAP2 POP DUP4 PUSH1 0x20 DUP3 PUSH1 0x5 SHL DUP6 ADD ADD GT ISZERO PUSH2 0x338F JUMPI PUSH0 DUP1 REVERT JUMPDEST SWAP3 POP SWAP3 SWAP1 POP JUMP JUMPDEST PUSH0 DUP1 PUSH0 DUP1 PUSH0 DUP1 PUSH0 DUP1 PUSH1 0x80 DUP10 DUP12 SUB SLT ISZERO PUSH2 0x33AD JUMPI PUSH0 DUP1 REVERT JUMPDEST DUP9 CALLDATALOAD PUSH8 0xFFFFFFFFFFFFFFFF DUP1 DUP3 GT ISZERO PUSH2 0x33C4 JUMPI PUSH0 DUP1 REVERT JUMPDEST PUSH2 0x33D0 DUP13 DUP4 DUP14 ADD PUSH2 0x334E JUMP JUMPDEST SWAP1 SWAP11 POP SWAP9 POP PUSH1 0x20 DUP12 ADD CALLDATALOAD SWAP2 POP DUP1 DUP3 GT ISZERO PUSH2 0x33E8 JUMPI PUSH0 DUP1 REVERT JUMPDEST PUSH2 0x33F4 DUP13 DUP4 DUP14 ADD PUSH2 0x334E JUMP JUMPDEST SWAP1 SWAP9 POP SWAP7 POP PUSH1 0x40 DUP12 ADD CALLDATALOAD SWAP2 POP DUP1 DUP3 GT ISZERO PUSH2 0x340C JUMPI PUSH0 DUP1 REVERT JUMPDEST PUSH2 0x3418 DUP13 DUP4 DUP14 ADD PUSH2 0x334E JUMP JUMPDEST SWAP1 SWAP7 POP SWAP5 POP PUSH1 0x60 DUP12 ADD CALLDATALOAD SWAP2 POP DUP1 DUP3 GT ISZERO PUSH2 0x3430 JUMPI PUSH0 DUP1 REVERT JUMPDEST POP PUSH2 0x343D DUP12 DUP3 DUP13 ADD PUSH2 0x334E JUMP JUMPDEST SWAP10 SWAP13 SWAP9 SWAP12 POP SWAP7 SWAP10 POP SWAP5 SWAP8 SWAP4 SWAP7 SWAP3 SWAP6 SWAP5 POP POP POP JUMP JUMPDEST PUSH1 0x1 DUP2 DUP2 SHR SWAP1 DUP3 AND DUP1 PUSH2 0x3465 JUMPI PUSH1 0x7F DUP3 AND SWAP2 POP JUMPDEST PUSH1 0x20 DUP3 LT DUP2 SUB PUSH2 0x3483 JUMPI PUSH4 0x4E487B71 PUSH1 0xE0 SHL PUSH0 MSTORE PUSH1 0x22 PUSH1 0x4 MSTORE PUSH1 0x24 PUSH0 REVERT JUMPDEST POP SWAP2 SWAP1 POP JUMP JUMPDEST PUSH4 0x4E487B71 PUSH1 0xE0 SHL PUSH0 MSTORE PUSH1 0x41 PUSH1 0x4 MSTORE PUSH1 0x24 PUSH0 REVERT JUMPDEST PUSH4 0x4E487B71 PUSH1 0xE0 SHL PUSH0 MSTORE PUSH1 0x32 PUSH1 0x4 MSTORE PUSH1 0x24 PUSH0 REVERT JUMPDEST PUSH0 PUSH1 0x20 DUP3 DUP5 SUB SLT ISZERO PUSH2 0x34C1 JUMPI PUSH0 DUP1 REVERT JUMPDEST DUP2 MLOAD PUSH2 0x3027 DUP2 PUSH2 0x302E JUMP JUMPDEST PUSH0 DUP2 MLOAD DUP1 DUP5 MSTORE PUSH1 0x20 DUP1 DUP6 ADD SWAP5 POP DUP1 DUP5 ADD PUSH0 JUMPDEST DUP4 DUP2 LT ISZERO PUSH2 0x3503 JUMPI DUP2 MLOAD PUSH1 0x1 PUSH1 0x1 PUSH1 0xA0 SHL SUB AND DUP8 MSTORE SWAP6 DUP3 ADD SWAP6 SWAP1 DUP3 ADD SWAP1 PUSH1 0x1 ADD PUSH2 0x34DE JUMP JUMPDEST POP SWAP5 SWAP6 SWAP5 POP POP POP POP POP JUMP JUMPDEST DUP3 DUP2 MSTORE PUSH1 0x40 PUSH1 0x20 DUP3 ADD MSTORE PUSH0 PUSH2 0x3526 PUSH1 0x40 DUP4 ADD DUP5 PUSH2 0x34CC JUMP JUMPDEST SWAP5 SWAP4 POP POP POP POP JUMP JUMPDEST PUSH0 PUSH1 0x20 DUP1 DUP4 DUP6 SUB SLT ISZERO PUSH2 0x353F JUMPI PUSH0 DUP1 REVERT JUMPDEST DUP3 MLOAD PUSH8 0xFFFFFFFFFFFFFFFF DUP1 DUP3 GT ISZERO PUSH2 0x3556 JUMPI PUSH0 DUP1 REVERT JUMPDEST DUP2 DUP6 ADD SWAP2 POP DUP6 PUSH1 0x1F DUP4 ADD SLT PUSH2 0x3569 JUMPI PUSH0 DUP1 REVERT JUMPDEST DUP2 MLOAD DUP2 DUP2 GT ISZERO PUSH2 0x357B JUMPI PUSH2 0x357B PUSH2 0x3489 JUMP JUMPDEST DUP1 PUSH1 0x5 SHL PUSH1 0x40 MLOAD PUSH1 0x1F NOT PUSH1 0x3F DUP4 ADD AND DUP2 ADD DUP2 DUP2 LT DUP6 DUP3 GT OR ISZERO PUSH2 0x35A0 JUMPI PUSH2 0x35A0 PUSH2 0x3489 JUMP JUMPDEST PUSH1 0x40 MSTORE SWAP2 DUP3 MSTORE DUP5 DUP3 ADD SWAP3 POP DUP4 DUP2 ADD DUP6 ADD SWAP2 DUP9 DUP4 GT ISZERO PUSH2 0x35BD JUMPI PUSH0 DUP1 REVERT JUMPDEST SWAP4 DUP6 ADD SWAP4 JUMPDEST DUP3 DUP6 LT ISZERO PUSH2 0x35DB JUMPI DUP5 MLOAD DUP5 MSTORE SWAP4 DUP6 ADD SWAP4 SWAP3 DUP6 ADD SWAP3 PUSH2 0x35C2 JUMP JUMPDEST SWAP9 SWAP8 POP POP POP POP POP POP POP POP JUMP JUMPDEST PUSH4 0x4E487B71 PUSH1 0xE0 SHL PUSH0 MSTORE PUSH1 0x11 PUSH1 0x4 MSTORE PUSH1 0x24 PUSH0 REVERT JUMPDEST DUP2 DUP2 SUB DUP2 DUP2 GT ISZERO PUSH2 0x6AD JUMPI PUSH2 0x6AD PUSH2 0x35E7 JUMP JUMPDEST DUP1 DUP3 MUL DUP2 ISZERO DUP3 DUP3 DIV DUP5 EQ OR PUSH2 0x6AD JUMPI PUSH2 0x6AD PUSH2 0x35E7 JUMP JUMPDEST PUSH0 DUP3 PUSH2 0x363F JUMPI PUSH4 0x4E487B71 PUSH1 0xE0 SHL PUSH0 MSTORE PUSH1 0x12 PUSH1 0x4 MSTORE PUSH1 0x24 PUSH0 REVERT JUMPDEST POP DIV SWAP1 JUMP JUMPDEST PUSH1 0x60 SWAP4 DUP5 SHL PUSH12 0xFFFFFFFFFFFFFFFFFFFFFFFF NOT SWAP1 DUP2 AND DUP3 MSTORE PUSH1 0xE8 SWAP4 SWAP1 SWAP4 SHL PUSH1 0x1 PUSH1 0x1 PUSH1 0xE8 SHL SUB NOT AND PUSH1 0x14 DUP3 ADD MSTORE SWAP3 SHL AND PUSH1 0x17 DUP3 ADD MSTORE PUSH1 0x2B ADD SWAP1 JUMP JUMPDEST PUSH1 0x40 DUP2 MSTORE PUSH0 PUSH2 0x3691 PUSH1 0x40 DUP4 ADD DUP6 PUSH2 0x2FD2 JUMP JUMPDEST SWAP1 POP DUP3 PUSH1 0x20 DUP4 ADD MSTORE SWAP4 SWAP3 POP POP POP JUMP JUMPDEST PUSH0 PUSH1 0x20 DUP3 DUP5 SUB SLT ISZERO PUSH2 0x36B0 JUMPI PUSH0 DUP1 REVERT JUMPDEST POP MLOAD SWAP2 SWAP1 POP JUMP JUMPDEST PUSH1 0x1 PUSH1 0x1 PUSH1 0xA0 SHL SUB DUP7 DUP2 AND DUP3 MSTORE PUSH1 0x20 DUP3 ADD DUP7 SWAP1 MSTORE PUSH1 0xA0 DUP3 ADD SWAP1 PUSH2 0x36DD PUSH1 0x40 DUP5 ADD DUP8 PUSH2 0x315A JUMP JUMPDEST PUSH3 0xFFFFFF DUP6 AND PUSH1 0x60 DUP5 ADD MSTORE DUP1 DUP5 AND PUSH1 0x80 DUP5 ADD MSTORE POP SWAP7 SWAP6 POP POP POP POP POP POP JUMP JUMPDEST PUSH0 PUSH1 0x2 DUP4 LT PUSH2 0x3718 JUMPI PUSH4 0x4E487B71 PUSH1 0xE0 SHL PUSH0 MSTORE PUSH1 0x21 PUSH1 0x4 MSTORE PUSH1 0x24 PUSH0 REVERT JUMPDEST POP PUSH1 0xF8 SWAP2 SWAP1 SWAP2 SHL DUP2 MSTORE PUSH1 0x1 ADD SWAP1 JUMP JUMPDEST DUP1 DUP3 ADD DUP1 DUP3 GT ISZERO PUSH2 0x6AD JUMPI PUSH2 0x6AD PUSH2 0x35E7 JUMP JUMPDEST PUSH0 PUSH1 0x1 DUP3 ADD PUSH2 0x374B JUMPI PUSH2 0x374B PUSH2 0x35E7 JUMP JUMPDEST POP PUSH1 0x1 ADD SWAP1 JUMP JUMPDEST PUSH0 PUSH1 0x20 DUP3 DUP5 SUB SLT ISZERO PUSH2 0x3762 JUMPI PUSH0 DUP1 REVERT JUMPDEST DUP2 MLOAD PUSH2 0xFFFF DUP2 AND DUP2 EQ PUSH2 0x3027 JUMPI PUSH0 DUP1 REVERT JUMPDEST PUSH0 PUSH1 0x20 DUP3 DUP5 SUB SLT ISZERO PUSH2 0x3783 JUMPI PUSH0 DUP1 REVERT JUMPDEST DUP2 MLOAD DUP1 ISZERO ISZERO DUP2 EQ PUSH2 0x3027 JUMPI PUSH0 DUP1 REVERT JUMPDEST PUSH1 0x1 PUSH1 0x1 PUSH1 0xA0 SHL SUB DUP6 AND DUP2 MSTORE PUSH1 0x20 DUP2 ADD DUP5 SWAP1 MSTORE PUSH1 0x80 DUP2 ADD PUSH2 0x37B6 PUSH1 0x40 DUP4 ADD DUP6 PUSH2 0x315A JUMP JUMPDEST PUSH3 0xFFFFFF DUP4 AND PUSH1 0x60 DUP4 ADD MSTORE SWAP6 SWAP5 POP POP POP POP POP JUMP JUMPDEST PUSH0 DUP2 PUSH2 0x37D8 JUMPI PUSH2 0x37D8 PUSH2 0x35E7 JUMP JUMPDEST POP PUSH0 NOT ADD SWAP1 JUMP JUMPDEST PUSH0 PUSH1 0x20 DUP3 DUP5 SUB SLT ISZERO PUSH2 0x37EF JUMPI PUSH0 DUP1 REVERT JUMPDEST PUSH2 0x3027 DUP3 PUSH2 0x3083 JUMP JUMPDEST PUSH0 PUSH1 0x20 DUP3 DUP5 SUB SLT ISZERO PUSH2 0x3808 JUMPI PUSH0 DUP1 REVERT JUMPDEST PUSH2 0x3027 DUP3 PUSH2 0x3096 JUMP JUMPDEST DUP6 DUP2 MSTORE DUP5 PUSH1 0x20 DUP3 ADD MSTORE PUSH1 0xA0 PUSH1 0x40 DUP3 ADD MSTORE PUSH0 PUSH2 0x382F PUSH1 0xA0 DUP4 ADD DUP7 PUSH2 0x34CC JUMP JUMPDEST PUSH1 0x1 PUSH1 0x1 PUSH1 0xA0 SHL SUB SWAP5 SWAP1 SWAP5 AND PUSH1 0x60 DUP4 ADD MSTORE POP PUSH1 0x80 ADD MSTORE SWAP4 SWAP3 POP POP POP JUMP JUMPDEST DUP2 MLOAD PUSH1 0x1 PUSH1 0x1 PUSH1 0xA0 SHL SUB SWAP1 DUP2 AND DUP3 MSTORE PUSH1 0x20 DUP1 DUP5 ADD MLOAD DUP3 AND SWAP1 DUP4 ADD MSTORE PUSH1 0x40 DUP1 DUP5 ADD MLOAD PUSH3 0xFFFFFF AND SWAP1 DUP4 ADD MSTORE PUSH1 0x60 DUP1 DUP5 ADD MLOAD DUP3 AND SWAP1 DUP4 ADD MSTORE PUSH1 0x80 DUP1 DUP5 ADD MLOAD SWAP1 DUP4 ADD MSTORE PUSH1 0xA0 DUP4 DUP2 ADD MLOAD SWAP1 DUP4 ADD MSTORE PUSH1 0xC0 DUP1 DUP5 ADD MLOAD SWAP1 DUP4 ADD MSTORE PUSH1 0xE0 SWAP3 DUP4 ADD MLOAD AND SWAP2 DUP2 ADD SWAP2 SWAP1 SWAP2 MSTORE PUSH2 0x100 ADD SWAP1 JUMP JUMPDEST DUP5 DUP2 MSTORE PUSH1 0x80 PUSH1 0x20 DUP3 ADD MSTORE PUSH0 PUSH2 0x38CD PUSH1 0x80 DUP4 ADD DUP7 PUSH2 0x34CC JUMP JUMPDEST PUSH1 0x1 PUSH1 0x1 PUSH1 0xA0 SHL SUB SWAP5 SWAP1 SWAP5 AND PUSH1 0x40 DUP4 ADD MSTORE POP PUSH1 0x60 ADD MSTORE SWAP3 SWAP2 POP POP JUMP JUMPDEST PUSH4 0x4E487B71 PUSH1 0xE0 SHL PUSH0 MSTORE PUSH1 0x31 PUSH1 0x4 MSTORE PUSH1 0x24 PUSH0 REVERT INVALID LOG2 PUSH5 0x6970667358 0x22 SLT KECCAK256 INVALID 0xA8 0xC7 GAS 0xC7 0xEF EXP 0xED POP SWAP11 0xE1 PUSH15 0x54CE24898C7B5D6DD1644ED85FE635 SWAP2 DUP1 0xE2 PUSH25 0xB564736F6C6343000814003300000000000000000000000000 "
		},
		"gasEstimates": {
			"creation": {
				"codeDepositCost": "2928600",
				"executionCost": "infinite",
				"totalCost": "infinite"
			},
			"external": {
				"allowance(address,address)": "infinite",
				"approve(address,uint256)": "24775",
				"balanceOf(address)": "2596",
				"decimals()": "221",
				"deposit()": "infinite",
				"ethDepositedFailed(address)": "2577",
				"failedSwaps(uint256)": "11279",
				"getAllTokens()": "infinite",
				"getFailedSwaps(address)": "infinite",
				"getWETHaddress()": "infinite",
				"initialedTokens()": "2421",
				"initializeTokens(address[],uint256[],uint8[],uint24[])": "infinite",
				"name()": "infinite",
				"owner()": "2374",
				"renounceOwnership()": "infinite",
				"retryFailedSwaps(address)": "infinite",
				"setSlippageTolerance(uint256)": "22439",
				"slippageTolerance()": "2383",
				"swapETHForToken(address,uint256,uint8,uint24)": "infinite",
				"swapTokenForETH(address,uint256,uint8,uint24,address)": "infinite",
				"symbol()": "infinite",
				"totalSupply()": "2326",
				"transfer(address,uint256)": "51246",
				"transferFrom(address,address,uint256)": "infinite",
				"transferOwnership(address)": "infinite",
				"uniswapV2Router()": "2449",
				"uniswapV3Quoter()": "2382",
				"uniswapV3Router()": "2382",
				"userFailedSwaps(address)": "2577",
				"withdrawFeesByOwner(address)": "infinite",
				"withdrawInKind(uint256)": "infinite",
				"withdrawToETH(uint256)": "infinite"
			}
		},
		"methodIdentifiers": {
			"allowance(address,address)": "dd62ed3e",
			"approve(address,uint256)": "095ea7b3",
			"balanceOf(address)": "70a08231",
			"decimals()": "313ce567",
			"deposit()": "d0e30db0",
			"ethDepositedFailed(address)": "c38cd0b5",
			"failedSwaps(uint256)": "378a653c",
			"getAllTokens()": "2a5c792a",
			"getFailedSwaps(address)": "91ebe50f",
			"getWETHaddress()": "df0e0768",
			"initialedTokens()": "81a06b73",
			"initializeTokens(address[],uint256[],uint8[],uint24[])": "e24e9e07",
			"name()": "06fdde03",
			"owner()": "8da5cb5b",
			"renounceOwnership()": "715018a6",
			"retryFailedSwaps(address)": "3d7526f7",
			"setSlippageTolerance(uint256)": "117da1ee",
			"slippageTolerance()": "d03153aa",
			"swapETHForToken(address,uint256,uint8,uint24)": "30568ee6",
			"swapTokenForETH(address,uint256,uint8,uint24,address)": "1addd28b",
			"symbol()": "95d89b41",
			"totalSupply()": "18160ddd",
			"transfer(address,uint256)": "a9059cbb",
			"transferFrom(address,address,uint256)": "23b872dd",
			"transferOwnership(address)": "f2fde38b",
			"uniswapV2Router()": "1694505e",
			"uniswapV3Quoter()": "4d20d0f8",
			"uniswapV3Router()": "2c76d7a6",
			"userFailedSwaps(address)": "36a43f2b",
			"withdrawFeesByOwner(address)": "a738c7df",
			"withdrawInKind(uint256)": "3043d4d9",
			"withdrawToETH(uint256)": "2c9351a1"
		}
	},
	"abi": [
		{
			"inputs": [
				{
					"internalType": "string",
					"name": "_name",
					"type": "string"
				},
				{
					"internalType": "string",
					"name": "_symbol",
					"type": "string"
				},
				{
					"internalType": "address",
					"name": "_uniswapV2Router",
					"type": "address"
				},
				{
					"internalType": "address",
					"name": "_uniswapV3Router",
					"type": "address"
				},
				{
					"internalType": "address",
					"name": "_uniswapV3Quoter",
					"type": "address"
				}
			],
			"stateMutability": "nonpayable",
			"type": "constructor"
		},
		{
			"inputs": [
				{
					"internalType": "address",
					"name": "spender",
					"type": "address"
				},
				{
					"internalType": "uint256",
					"name": "allowance",
					"type": "uint256"
				},
				{
					"internalType": "uint256",
					"name": "needed",
					"type": "uint256"
				}
			],
			"name": "ERC20InsufficientAllowance",
			"type": "error"
		},
		{
			"inputs": [
				{
					"internalType": "address",
					"name": "sender",
					"type": "address"
				},
				{
					"internalType": "uint256",
					"name": "balance",
					"type": "uint256"
				},
				{
					"internalType": "uint256",
					"name": "needed",
					"type": "uint256"
				}
			],
			"name": "ERC20InsufficientBalance",
			"type": "error"
		},
		{
			"inputs": [
				{
					"internalType": "address",
					"name": "approver",
					"type": "address"
				}
			],
			"name": "ERC20InvalidApprover",
			"type": "error"
		},
		{
			"inputs": [
				{
					"internalType": "address",
					"name": "receiver",
					"type": "address"
				}
			],
			"name": "ERC20InvalidReceiver",
			"type": "error"
		},
		{
			"inputs": [
				{
					"internalType": "address",
					"name": "sender",
					"type": "address"
				}
			],
			"name": "ERC20InvalidSender",
			"type": "error"
		},
		{
			"inputs": [
				{
					"internalType": "address",
					"name": "spender",
					"type": "address"
				}
			],
			"name": "ERC20InvalidSpender",
			"type": "error"
		},
		{
			"inputs": [
				{
					"internalType": "address",
					"name": "owner",
					"type": "address"
				}
			],
			"name": "OwnableInvalidOwner",
			"type": "error"
		},
		{
			"inputs": [
				{
					"internalType": "address",
					"name": "account",
					"type": "address"
				}
			],
			"name": "OwnableUnauthorizedAccount",
			"type": "error"
		},
		{
			"anonymous": false,
			"inputs": [
				{
					"indexed": false,
					"internalType": "address",
					"name": "_tokens",
					"type": "address"
				},
				{
					"indexed": false,
					"internalType": "uint256",
					"name": "targetPercentage",
					"type": "uint256"
				}
			],
			"name": "AddToken",
			"type": "event"
		},
		{
			"anonymous": false,
			"inputs": [
				{
					"indexed": true,
					"internalType": "address",
					"name": "owner",
					"type": "address"
				},
				{
					"indexed": true,
					"internalType": "address",
					"name": "spender",
					"type": "address"
				},
				{
					"indexed": false,
					"internalType": "uint256",
					"name": "value",
					"type": "uint256"
				}
			],
			"name": "Approval",
			"type": "event"
		},
		{
			"anonymous": false,
			"inputs": [
				{
					"indexed": true,
					"internalType": "address",
					"name": "previousOwner",
					"type": "address"
				},
				{
					"indexed": true,
					"internalType": "address",
					"name": "newOwner",
					"type": "address"
				}
			],
			"name": "OwnershipTransferred",
			"type": "event"
		},
		{
			"anonymous": false,
			"inputs": [
				{
					"indexed": true,
					"internalType": "address",
					"name": "from",
					"type": "address"
				},
				{
					"indexed": true,
					"internalType": "address",
					"name": "to",
					"type": "address"
				},
				{
					"indexed": false,
					"internalType": "uint256",
					"name": "value",
					"type": "uint256"
				}
			],
			"name": "Transfer",
			"type": "event"
		},
		{
			"inputs": [
				{
					"internalType": "address",
					"name": "owner",
					"type": "address"
				},
				{
					"internalType": "address",
					"name": "spender",
					"type": "address"
				}
			],
			"name": "allowance",
			"outputs": [
				{
					"internalType": "uint256",
					"name": "",
					"type": "uint256"
				}
			],
			"stateMutability": "view",
			"type": "function"
		},
		{
			"inputs": [
				{
					"internalType": "address",
					"name": "spender",
					"type": "address"
				},
				{
					"internalType": "uint256",
					"name": "value",
					"type": "uint256"
				}
			],
			"name": "approve",
			"outputs": [
				{
					"internalType": "bool",
					"name": "",
					"type": "bool"
				}
			],
			"stateMutability": "nonpayable",
			"type": "function"
		},
		{
			"inputs": [
				{
					"internalType": "address",
					"name": "account",
					"type": "address"
				}
			],
			"name": "balanceOf",
			"outputs": [
				{
					"internalType": "uint256",
					"name": "",
					"type": "uint256"
				}
			],
			"stateMutability": "view",
			"type": "function"
		},
		{
			"inputs": [],
			"name": "decimals",
			"outputs": [
				{
					"internalType": "uint8",
					"name": "",
					"type": "uint8"
				}
			],
			"stateMutability": "view",
			"type": "function"
		},
		{
			"inputs": [],
			"name": "deposit",
			"outputs": [],
			"stateMutability": "payable",
			"type": "function"
		},
		{
			"inputs": [
				{
					"internalType": "address",
					"name": "",
					"type": "address"
				}
			],
			"name": "ethDepositedFailed",
			"outputs": [
				{
					"internalType": "uint256",
					"name": "",
					"type": "uint256"
				}
			],
			"stateMutability": "view",
			"type": "function"
		},
		{
			"inputs": [
				{
					"internalType": "uint256",
					"name": "",
					"type": "uint256"
				}
			],
			"name": "failedSwaps",
			"outputs": [
				{
					"internalType": "address",
					"name": "user",
					"type": "address"
				},
				{
					"internalType": "contract IERC20",
					"name": "token",
					"type": "address"
				},
				{
					"internalType": "uint256",
					"name": "amount",
					"type": "uint256"
				},
				{
					"internalType": "enum Version",
					"name": "version",
					"type": "uint8"
				},
				{
					"internalType": "uint24",
					"name": "feeTier",
					"type": "uint24"
				}
			],
			"stateMutability": "view",
			"type": "function"
		},
		{
			"inputs": [],
			"name": "getAllTokens",
			"outputs": [
				{
					"components": [
						{
							"internalType": "contract IERC20",
							"name": "token",
							"type": "address"
						},
						{
							"internalType": "uint256",
							"name": "targetPercentage",
							"type": "uint256"
						},
						{
							"internalType": "enum Version",
							"name": "version",
							"type": "uint8"
						},
						{
							"internalType": "uint24",
							"name": "feeTier",
							"type": "uint24"
						}
					],
					"internalType": "struct TokenInfo[]",
					"name": "",
					"type": "tuple[]"
				}
			],
			"stateMutability": "view",
			"type": "function"
		},
		{
			"inputs": [
				{
					"internalType": "address",
					"name": "user",
					"type": "address"
				}
			],
			"name": "getFailedSwaps",
			"outputs": [
				{
					"components": [
						{
							"internalType": "address",
							"name": "user",
							"type": "address"
						},
						{
							"internalType": "contract IERC20",
							"name": "token",
							"type": "address"
						},
						{
							"internalType": "uint256",
							"name": "amount",
							"type": "uint256"
						},
						{
							"internalType": "enum Version",
							"name": "version",
							"type": "uint8"
						},
						{
							"internalType": "uint24",
							"name": "feeTier",
							"type": "uint24"
						}
					],
					"internalType": "struct FailedSwap[]",
					"name": "",
					"type": "tuple[]"
				}
			],
			"stateMutability": "view",
			"type": "function"
		},
		{
			"inputs": [],
			"name": "getWETHaddress",
			"outputs": [
				{
					"internalType": "address",
					"name": "",
					"type": "address"
				}
			],
			"stateMutability": "view",
			"type": "function"
		},
		{
			"inputs": [],
			"name": "initialedTokens",
			"outputs": [
				{
					"internalType": "bool",
					"name": "",
					"type": "bool"
				}
			],
			"stateMutability": "view",
			"type": "function"
		},
		{
			"inputs": [
				{
					"internalType": "address[]",
					"name": "_tokens",
					"type": "address[]"
				},
				{
					"internalType": "uint256[]",
					"name": "_targetPercentages",
					"type": "uint256[]"
				},
				{
					"internalType": "enum Version[]",
					"name": "_versions",
					"type": "uint8[]"
				},
				{
					"internalType": "uint24[]",
					"name": "_feeTiers",
					"type": "uint24[]"
				}
			],
			"name": "initializeTokens",
			"outputs": [],
			"stateMutability": "nonpayable",
			"type": "function"
		},
		{
			"inputs": [],
			"name": "name",
			"outputs": [
				{
					"internalType": "string",
					"name": "",
					"type": "string"
				}
			],
			"stateMutability": "view",
			"type": "function"
		},
		{
			"inputs": [],
			"name": "owner",
			"outputs": [
				{
					"internalType": "address",
					"name": "",
					"type": "address"
				}
			],
			"stateMutability": "view",
			"type": "function"
		},
		{
			"inputs": [],
			"name": "renounceOwnership",
			"outputs": [],
			"stateMutability": "nonpayable",
			"type": "function"
		},
		{
			"inputs": [
				{
					"internalType": "address",
					"name": "user",
					"type": "address"
				}
			],
			"name": "retryFailedSwaps",
			"outputs": [],
			"stateMutability": "nonpayable",
			"type": "function"
		},
		{
			"inputs": [
				{
					"internalType": "uint256",
					"name": "_slippageTolerance",
					"type": "uint256"
				}
			],
			"name": "setSlippageTolerance",
			"outputs": [],
			"stateMutability": "nonpayable",
			"type": "function"
		},
		{
			"inputs": [],
			"name": "slippageTolerance",
			"outputs": [
				{
					"internalType": "uint256",
					"name": "",
					"type": "uint256"
				}
			],
			"stateMutability": "view",
			"type": "function"
		},
		{
			"inputs": [
				{
					"internalType": "contract IERC20",
					"name": "_token",
					"type": "address"
				},
				{
					"internalType": "uint256",
					"name": "_ethAmount",
					"type": "uint256"
				},
				{
					"internalType": "enum Version",
					"name": "version",
					"type": "uint8"
				},
				{
					"internalType": "uint24",
					"name": "feeTier",
					"type": "uint24"
				}
			],
			"name": "swapETHForToken",
			"outputs": [],
			"stateMutability": "payable",
			"type": "function"
		},
		{
			"inputs": [
				{
					"internalType": "contract IERC20",
					"name": "_token",
					"type": "address"
				},
				{
					"internalType": "uint256",
					"name": "_amountIn",
					"type": "uint256"
				},
				{
					"internalType": "enum Version",
					"name": "version",
					"type": "uint8"
				},
				{
					"internalType": "uint24",
					"name": "feeTier",
					"type": "uint24"
				},
				{
					"internalType": "address",
					"name": "_receiver",
					"type": "address"
				}
			],
			"name": "swapTokenForETH",
			"outputs": [
				{
					"internalType": "uint256",
					"name": "",
					"type": "uint256"
				}
			],
			"stateMutability": "nonpayable",
			"type": "function"
		},
		{
			"inputs": [],
			"name": "symbol",
			"outputs": [
				{
					"internalType": "string",
					"name": "",
					"type": "string"
				}
			],
			"stateMutability": "view",
			"type": "function"
		},
		{
			"inputs": [],
			"name": "totalSupply",
			"outputs": [
				{
					"internalType": "uint256",
					"name": "",
					"type": "uint256"
				}
			],
			"stateMutability": "view",
			"type": "function"
		},
		{
			"inputs": [
				{
					"internalType": "address",
					"name": "to",
					"type": "address"
				},
				{
					"internalType": "uint256",
					"name": "value",
					"type": "uint256"
				}
			],
			"name": "transfer",
			"outputs": [
				{
					"internalType": "bool",
					"name": "",
					"type": "bool"
				}
			],
			"stateMutability": "nonpayable",
			"type": "function"
		},
		{
			"inputs": [
				{
					"internalType": "address",
					"name": "from",
					"type": "address"
				},
				{
					"internalType": "address",
					"name": "to",
					"type": "address"
				},
				{
					"internalType": "uint256",
					"name": "value",
					"type": "uint256"
				}
			],
			"name": "transferFrom",
			"outputs": [
				{
					"internalType": "bool",
					"name": "",
					"type": "bool"
				}
			],
			"stateMutability": "nonpayable",
			"type": "function"
		},
		{
			"inputs": [
				{
					"internalType": "address",
					"name": "newOwner",
					"type": "address"
				}
			],
			"name": "transferOwnership",
			"outputs": [],
			"stateMutability": "nonpayable",
			"type": "function"
		},
		{
			"inputs": [],
			"name": "uniswapV2Router",
			"outputs": [
				{
					"internalType": "contract IUniswapV2Router02",
					"name": "",
					"type": "address"
				}
			],
			"stateMutability": "view",
			"type": "function"
		},
		{
			"inputs": [],
			"name": "uniswapV3Quoter",
			"outputs": [
				{
					"internalType": "contract IUniswapV3Quoter",
					"name": "",
					"type": "address"
				}
			],
			"stateMutability": "view",
			"type": "function"
		},
		{
			"inputs": [],
			"name": "uniswapV3Router",
			"outputs": [
				{
					"internalType": "contract ISwapRouter",
					"name": "",
					"type": "address"
				}
			],
			"stateMutability": "view",
			"type": "function"
		},
		{
			"inputs": [
				{
					"internalType": "address",
					"name": "",
					"type": "address"
				}
			],
			"name": "userFailedSwaps",
			"outputs": [
				{
					"internalType": "uint256",
					"name": "",
					"type": "uint256"
				}
			],
			"stateMutability": "view",
			"type": "function"
		},
		{
			"inputs": [
				{
					"internalType": "address",
					"name": "_receiverFeeAddress",
					"type": "address"
				}
			],
			"name": "withdrawFeesByOwner",
			"outputs": [],
			"stateMutability": "nonpayable",
			"type": "function"
		},
		{
			"inputs": [
				{
					"internalType": "uint256",
					"name": "tokenAmount",
					"type": "uint256"
				}
			],
			"name": "withdrawInKind",
			"outputs": [],
			"stateMutability": "nonpayable",
			"type": "function"
		},
		{
			"inputs": [
				{
					"internalType": "uint256",
					"name": "tokenAmount",
					"type": "uint256"
				}
			],
			"name": "withdrawToETH",
			"outputs": [],
			"stateMutability": "nonpayable",
			"type": "function"
		}
	]
}