{
	"data": {
		"bytecode": {
			"linkReferences": {},
			"object": "60806040526016805460ff19169055348015610019575f80fd5b50604051615bd9380380615bd9833981016040819052610038916101b0565b60408051808201825260078152660a0b28e8e8aa8960cb1b602080830191909152825180840190935260048352630a08aa8960e31b90830152849184918491338061009c57604051631e4fbdf760e01b81525f600482015260240160405180910390fd5b6100a581610146565b505f805460ff60a01b1916905560046100be8382610288565b5060056100cb8282610288565b5050600680546001600160a01b03199081166001600160a01b0396871617909155600780548216948616949094179093555060088054831691909316179091556103e8600a55335f818152600e60205260409020805460ff19166001179055600f805490921617905550506064601381905560125550610342565b5f80546001600160a01b038381166001600160a01b0319831681178455604051919092169283917f8be0079c531659141344cd1fd0a4f28419497f9722a3daafe3b4186f6b6457e09190a35050565b80516001600160a01b03811681146101ab575f80fd5b919050565b5f805f606084860312156101c2575f80fd5b6101cb84610195565b92506101d960208501610195565b91506101e760408501610195565b90509250925092565b634e487b7160e01b5f52604160045260245ffd5b600181811c9082168061021857607f821691505b60208210810361023657634e487b7160e01b5f52602260045260245ffd5b50919050565b601f82111561028357805f5260205f20601f840160051c810160208510156102615750805b601f840160051c820191505b81811015610280575f815560010161026d565b50505b505050565b81516001600160401b038111156102a1576102a16101f0565b6102b5816102af8454610204565b8461023c565b6020601f8211600181146102e7575f83156102d05750848201515b5f19600385901b1c1916600184901b178455610280565b5f84815260208120601f198516915b8281101561031657878501518255602094850194600190920191016102f6565b508482101561033357868401515f19600387901b60f8161c191681555b50505050600190811b01905550565b61588a8061034f5f395ff3fe608060405260043610610226575f3560e01c806370a082311161012857806370a0823114610508578063715018a61461053c578063780d5710146105505780638456cb591461056f57806386bc55db1461058357806386c14663146105985780638da5cb5b146105ad57806391ebe50f146105c157806395d89b41146105ed5780639b19251a14610601578063a38e9e661461062f578063a738c7df1461064e578063a9059cbb1461066d578063c38cd0b51461068c578063cdca1753146106b7578063d03153aa146106d6578063d06ca61f146106eb578063d0e30db014610717578063dd62ed3e1461071f578063df0e07681461073e578063e7ae65ab14610752578063f2fde38b14610771578063f662caaf14610790578063fa3b5649146107af575f80fd5b806306fdde031461022a578063095ea7b3146102545780630b78f9c014610283578063117da1ee146102a45780631694505e146102c357806318160ddd146102ef57806323b872dd1461030d5780632c76d7a61461032c5780632c9351a11461034b5780632e1a7d4d1461036a578063313ce5671461038957806334b6b2b9146103a457806336a43f2b146103c3578063378a653c146103ee57806339c0f5d21461041e5780633d7526f7146104315780633f4ba83a146104505780634d20d0f81461046457806353d6fd59146104835780635643a5a7146104a25780635c975abb146104c157806360d27451146104d5578063611d126a146104f4575b5f80fd5b348015610235575f80fd5b5061023e6107c3565b60405161024b9190614932565b60405180910390f35b34801561025f575f80fd5b5061027361026e366004614958565b610853565b604051901515815260200161024b565b34801561028e575f80fd5b506102a261029d366004614982565b61086c565b005b3480156102af575f80fd5b506102a26102be3660046149a2565b6108f8565b3480156102ce575f80fd5b506006546102e2906001600160a01b031681565b60405161024b91906149b9565b3480156102fa575f80fd5b506003545b60405190815260200161024b565b348015610318575f80fd5b506102736103273660046149cd565b610938565b348015610337575f80fd5b506007546102e2906001600160a01b031681565b348015610356575f80fd5b506102a26103653660046149a2565b61095b565b348015610375575f80fd5b506102a26103843660046149a2565b610e60565b348015610394575f80fd5b506040516012815260200161024b565b3480156103af575f80fd5b506102ff6103be366004614a0b565b6115c4565b3480156103ce575f80fd5b506102ff6103dd366004614a52565b600d6020525f908152604090205481565b3480156103f9575f80fd5b5061040d6104083660046149a2565b6117af565b60405161024b959493929190614a7a565b6102a261042c366004614b94565b61188a565b34801561043c575f80fd5b506102a261044b366004614a52565b611c4e565b34801561045b575f80fd5b506102a2611fa4565b34801561046f575f80fd5b506008546102e2906001600160a01b031681565b34801561048e575f80fd5b506102a261049d366004614c06565b611fed565b3480156104ad575f80fd5b506102ff6104bc366004614c5f565b612065565b3480156104cc575f80fd5b50610273612192565b3480156104e0575f80fd5b506102a26104ef366004614d3b565b6121a1565b3480156104ff575f80fd5b506102a2612569565b348015610513575f80fd5b506102ff610522366004614a52565b6001600160a01b03165f9081526001602052604090205490565b348015610547575f80fd5b506102a261268c565b34801561055b575f80fd5b506102a261056a366004614c5f565b61269f565b34801561057a575f80fd5b506102a26128f8565b34801561058e575f80fd5b506102ff600b5481565b3480156105a3575f80fd5b506102ff600c5481565b3480156105b8575f80fd5b506102e2612937565b3480156105cc575f80fd5b506105e06105db366004614a52565b612945565b60405161024b9190614e05565b3480156105f8575f80fd5b5061023e612b55565b34801561060c575f80fd5b5061027361061b366004614a52565b600e6020525f908152604090205460ff1681565b34801561063a575f80fd5b506102a2610649366004614b94565b612b64565b348015610659575f80fd5b506102a2610668366004614a52565b612cce565b348015610678575f80fd5b50610273610687366004614958565b612dfc565b348015610697575f80fd5b506102ff6106a6366004614a52565b60116020525f908152604090205481565b3480156106c2575f80fd5b506102ff6106d1366004614eb3565b612e09565b3480156106e1575f80fd5b506102ff600a5481565b3480156106f6575f80fd5b5061070a610705366004614f07565b612e82565b60405161024b9190614fac565b6102a2612ef6565b34801561072a575f80fd5b506102ff610739366004614fee565b6132cb565b348015610749575f80fd5b506102e26132f5565b34801561075d575f80fd5b506102ff61076c366004614b94565b613365565b34801561077c575f80fd5b506102a261078b366004614a52565b6136f1565b34801561079b575f80fd5b506102ff6107aa36600461501a565b61372b565b3480156107ba575f80fd5b506102a2613905565b6060600480546107d290615073565b80601f01602080910402602001604051908101604052809291908181526020018280546107fe90615073565b80156108495780601f1061082057610100808354040283529160200191610849565b820191905f5260205f20905b81548152906001019060200180831161082c57829003601f168201915b5050505050905090565b5f33610860818585613cc6565b60019150505b92915050565b610874613cd3565b6127108211156108b35760405162461bcd60e51b8152602060048201526005602482015264216466656560d81b60448201526064015b60405180910390fd5b6127108111156108ed5760405162461bcd60e51b8152602060048201526005602482015264217766656560d81b60448201526064016108aa565b601291909155601355565b6127108111156109335760405162461bcd60e51b81526004016108aa90602080825260049082015263021534c560e41b604082015260600190565b600a55565b5f33610945858285613d05565b610950858585613d4f565b506001949350505050565b610963613dac565b5f81116109825760405162461bcd60e51b81526004016108aa906150ab565b6040516370a0823160e01b8152819030906370a08231906109a79033906004016149b9565b602060405180830381865afa1580156109c2573d5f803e3d5ffd5b505050506040513d601f19601f820116820180604052508101906109e691906150c7565b1015610a245760405162461bcd60e51b815260206004820152600d60248201526c08525b9cdd59999a58da595b9d609a1b60448201526064016108aa565b5f610a2e60035490565b610a3a836127106150f2565b610a449190615109565b90505f81118015610a5757506127108111155b610a735760405162461bcd60e51b81526004016108aa90615128565b600654604080516315ab88c960e31b815290515f926001600160a01b03169163ad5c46489160048083019260209291908290030181865afa158015610aba573d5f803e3d5ffd5b505050506040513d601f19601f82011682018060405250810190610ade9190615149565b90505f805f5b601054811015610ca0575f60108281548110610b0257610b02615164565b5f9182526020822060049182020180546040516370a0823160e01b8152919450612710928a926001600160a01b03909216916370a0823191610b46913091016149b9565b602060405180830381865afa158015610b61573d5f803e3d5ffd5b505050506040513d601f19601f82011682018060405250810190610b8591906150c7565b610b8f91906150f2565b610b999190615109565b8254600384015460405163e7ae65ab60e01b81529293505f92309263e7ae65ab92610be1926001600160a01b0390921691879160028a019162ffffff90911690600401615178565b6020604051808303815f875af1158015610bfd573d5f803e3d5ffd5b505050506040513d601f19601f82011682018060405250810190610c2191906150c7565b9050604051602001610c3290615221565b6040516020818303038152906040528051906020012083600201604051602001610c5c919061522f565b6040516020818303038152906040528051906020012003610c8857610c8181866152a0565b9450610c95565b610c9281876152a0565b95505b505050600101610ae4565b50610cab3386613dd2565b8015610d64575f61271060135483610cc391906150f2565b610ccd9190615109565b90505f610cda82846152b3565b90508160155f828254610ced91906152a0565b909155505060405163a9059cbb60e01b81526001600160a01b0386169063a9059cbb90610d2090339085906004016152c6565b6020604051808303815f875af1158015610d3c573d5f803e3d5ffd5b505050506040513d601f19601f82011682018060405250810190610d6091906152df565b5050505b8115610e59575f61271060135484610d7c91906150f2565b610d869190615109565b90505f610d9382856152b3565b90508160145f828254610da691906152a0565b9091555050335f9081526011602052604081205490610dc583836152a0565b6040519091505f90339083908381818185875af1925050503d805f8114610e07576040519150601f19603f3d011682016040523d82523d5f602084013e610e0c565b606091505b5050905080610e535760405162461bcd60e51b8152602060048201526013602482015272115512081d1c985b9cd9995c8819985a5b1959606a1b60448201526064016108aa565b50505050505b5050505050565b610e68613dac565b5f8111610e875760405162461bcd60e51b81526004016108aa906150ab565b6040516370a0823160e01b8152819030906370a0823190610eac9033906004016149b9565b602060405180830381865afa158015610ec7573d5f803e3d5ffd5b505050506040513d601f19601f82011682018060405250810190610eeb91906150c7565b1015610f285760405162461bcd60e51b815260206004820152600c60248201526b125b9cdd59999a58da595b9d60a21b60448201526064016108aa565b5f610f3260035490565b610f3e836127106150f2565b610f489190615109565b90505f81118015610f5b57506127108111155b610f775760405162461bcd60e51b81526004016108aa90615128565b5f5b601054811015611508575f60108281548110610f9757610f97615164565b5f9182526020822060049182020180546040516370a0823160e01b81529194506127109287926001600160a01b03909216916370a0823191610fdb913091016149b9565b602060405180830381865afa158015610ff6573d5f803e3d5ffd5b505050506040513d601f19601f8201168201806040525081019061101a91906150c7565b61102491906150f2565b61102e9190615109565b90505f6127106013548361104291906150f2565b61104c9190615109565b90505f61105982846152b3565b845460405163a9059cbb60e01b81529192506001600160a01b03169063a9059cbb9061108b90339085906004016152c6565b6020604051808303815f875af11580156110a7573d5f803e3d5ffd5b505050506040513d601f19601f820116820180604052508101906110cb91906152df565b506040516020016110db906152fa565b6040516020818303038152906040528051906020012084600201604051602001611105919061522f565b60405160208183030381529060405280519060200120036112ed576040805160028082526060820183525f926020830190803683375050865482519293506001600160a01b0316918391505f9061115e5761115e615164565b6001600160a01b03928316602091820292909201810191909152600654604080516315ab88c960e31b81529051919093169263ad5c46489260048083019391928290030181865afa1580156111b5573d5f803e3d5ffd5b505050506040513d601f19601f820116820180604052508101906111d99190615149565b816001815181106111ec576111ec615164565b6001600160a01b03928316602091820292909201015260065460405163d06ca61f60e01b81525f92919091169063d06ca61f9061122f908790869060040161534b565b5f60405180830381865afa158015611249573d5f803e3d5ffd5b505050506040513d5f823e601f3d908101601f191682016040526112709190810190615363565b90505f612710600a5461271061128691906152b3565b8360018151811061129957611299615164565b60200260200101516112ab91906150f2565b6112b59190615109565b87549091506112cf906001600160a01b03168683306115c4565b60145f8282546112df91906152a0565b909155506114f89350505050565b6040516020016112fc90615221565b6040516020818303038152906040528051906020012084600201604051602001611326919061522f565b60405160208183030381529060405280519060200120036114b65783546003850154600654604080516315ab88c960e31b815290515f946001600160a01b039081169462ffffff1693169163ad5c46489160048083019260209291908290030181865afa158015611399573d5f803e3d5ffd5b505050506040513d601f19601f820116820180604052508101906113bd9190615149565b6040516020016113cf939291906153e9565b60408051601f198184030181529082905260085463cdca175360e01b83529092505f916001600160a01b039091169063cdca175390611414908590889060040161541f565b6020604051808303815f875af1158015611430573d5f803e3d5ffd5b505050506040513d601f19601f8201168201806040525081019061145491906150c7565b90505f612710600a5461271061146a91906152b3565b61147490846150f2565b61147e9190615109565b875460038901549192506114a6916001600160a01b0390911690879062ffffff16843061372b565b60155f8282546112df91906152a0565b60405162461bcd60e51b815260206004820152601760248201527624b73b30b634b2102ab734b9bbb0b8103b32b939b4b7b760491b60448201526064016108aa565b505060019092019150610f799050565b506115133383613dd2565b335f90815260116020526040812054612710906115319084906150f2565b61153b9190615109565b90508080156115be576040515f90339083908381818185875af1925050503d805f8114611583576040519150601f19603f3d011682016040523d82523d5f602084013e611588565b606091505b5050905080610e595760405162461bcd60e51b81526020600482015260026024820152612a2960f11b60448201526064016108aa565b50505050565b6040805160028082526060820183525f928392919060208301908036833701905050905085815f815181106115fb576115fb615164565b6001600160a01b03928316602091820292909201810191909152600654604080516315ab88c960e31b81529051919093169263ad5c46489260048083019391928290030181865afa158015611652573d5f803e3d5ffd5b505050506040513d601f19601f820116820180604052508101906116769190615149565b8160018151811061168957611689615164565b6001600160a01b03928316602091820292909201015260065460405163095ea7b360e01b81528883169263095ea7b3926116ca9291169089906004016152c6565b6020604051808303815f875af11580156116e6573d5f803e3d5ffd5b505050506040513d601f19601f8201168201806040525081019061170a91906152df565b506006546040516318cbafe560e01b81525f916001600160a01b0316906318cbafe590611743908990899087908a904290600401615440565b5f604051808303815f875af115801561175e573d5f803e3d5ffd5b505050506040513d5f823e601f3d908101601f191682016040526117859190810190615363565b90508060018151811061179a5761179a615164565b6020026020010151925050505b949350505050565b600981815481106117be575f80fd5b5f91825260209091206005909102018054600182015460028301546003840180546001600160a01b0394851696509290931693909290916117fe90615073565b80601f016020809104026020016040519081016040528092919081815260200182805461182a90615073565b80156118755780601f1061184c57610100808354040283529160200191611875565b820191905f5260205f20905b81548152906001019060200180831161185857829003601f168201915b5050506004909301549192505062ffffff1685565b604051602001611899906152fa565b60405160208183030381529060405280519060200120826040516020016118c0919061547b565b6040516020818303038152906040528051906020012003611a8b576040805160028082526060820183525f926020830190803683375050600654604080516315ab88c960e31b815290519394506001600160a01b039091169263ad5c4648925060048083019260209291908290030181865afa158015611942573d5f803e3d5ffd5b505050506040513d601f19601f820116820180604052508101906119669190615149565b815f8151811061197857611978615164565b60200260200101906001600160a01b031690816001600160a01b03168152505084816001815181106119ac576119ac615164565b6001600160a01b03928316602091820292909201015260065460405163d06ca61f60e01b81525f92919091169063d06ca61f906119ef908890869060040161534b565b5f60405180830381865afa158015611a09573d5f803e3d5ffd5b505050506040513d5f823e601f3d908101601f19168201604052611a309190810190615363565b90505f612710600a54612710611a4691906152b3565b83600181518110611a5957611a59615164565b6020026020010151611a6b91906150f2565b611a759190615109565b9050611a82878783613e06565b505050506115be565b604051602001611a9a90615221565b6040516020818303038152906040528051906020012082604051602001611ac1919061547b565b6040516020818303038152906040528051906020012003611c2057600654604080516315ab88c960e31b815290515f926001600160a01b03169163ad5c46489160048083019260209291908290030181865afa158015611b23573d5f803e3d5ffd5b505050506040513d601f19601f82011682018060405250810190611b479190615149565b8286604051602001611b5b939291906153e9565b60408051601f198184030181529082905260085463cdca175360e01b83529092505f916001600160a01b039091169063cdca175390611ba0908590899060040161541f565b6020604051808303815f875af1158015611bbc573d5f803e3d5ffd5b505050506040513d601f19601f82011682018060405250810190611be091906150c7565b90505f612710600a54612710611bf691906152b3565b611c0090846150f2565b611c0a9190615109565b9050611c1887878684613f63565b5050506115be565b60405162461bcd60e51b815260206004820152600360248201526210aaab60e91b60448201526064016108aa565b5f5b600954811015611fa057816001600160a01b031660098281548110611c7757611c77615164565b5f9182526020909120600590910201546001600160a01b031603611f98575f60098281548110611ca957611ca9615164565b5f9182526020918290206040805160a081018252600590930290910180546001600160a01b03908116845260018201541693830193909352600283015490820152600382018054919291606084019190611d0290615073565b80601f0160208091040260200160405190810160405280929190818152602001828054611d2e90615073565b8015611d795780601f10611d5057610100808354040283529160200191611d79565b820191905f5260205f20905b815481529060010190602001808311611d5c57829003601f168201915b505050918352505060049182015462ffffff1660209182015260408084015191840151606085015160808601519251631ce07ae960e11b815295965030956339c0f5d295611dcc94869392909101615491565b5f604051808303818588803b158015611de3575f80fd5b505af193505050508015611df5575060015b611f64576040805160a0810182523381526020838101516001600160a01b039081169183019182528484015193830193845260608086015190840190815260808087015162ffffff1690850152600980546001810182555f91909152845160059091027f6e1540171b6c0c960b71a7020d9f60077f6af931a8bbf590da0223dacf75c7af810180549285166001600160a01b031993841617815594517f6e1540171b6c0c960b71a7020d9f60077f6af931a8bbf590da0223dacf75c7b0820180549190951692169190911790925593517f6e1540171b6c0c960b71a7020d9f60077f6af931a8bbf590da0223dacf75c7b18201559251919290917f6e1540171b6c0c960b71a7020d9f60077f6af931a8bbf590da0223dacf75c7b290910190611f1e9082615525565b50608091909101516004909101805462ffffff191662ffffff909216919091179055335f908152600d60205260408120805491611f5a836155da565b9190505550611f96565b611f6d82614095565b6001600160a01b0383165f908152600d60205260408120805491611f90836155f2565b91905055505b505b600101611c50565b5050565b611fac613cd3565b611fb46141f1565b7f5db9ee0a495bf2e6ff9c91a7834c1ba4fdd244a5e8aa4e537bd38aeae4b073aa33604051611fe391906149b9565b60405180910390a1565b600f546001600160a01b0316331461203b5760405162461bcd60e51b81526020600482015260116024820152702cb7ba9030b932903737ba1037bbb732b960791b60448201526064016108aa565b6001600160a01b03919091165f908152600e60205260409020805460ff1916911515919091179055565b60105481515f91146120a95760405162461bcd60e51b815260206004820152600d60248201526c042e0e4d2c6cae6d8cadccee8d609b1b60448201526064016108aa565b5f805b60105481101561218b575f601082815481106120ca576120ca615164565b5f9182526020822060049182020180546040516370a0823160e01b81529194506001600160a01b0316916370a0823191612106913091016149b9565b602060405180830381865afa158015612121573d5f803e3d5ffd5b505050506040513d601f19601f8201168201806040525081019061214591906150c7565b90505f86848151811061215a5761215a615164565b60200260200101519050808261217091906150f2565b61217a90866152a0565b945050600190920191506120ac9050565b5092915050565b5f54600160a01b900460ff1690565b6121a9613cd3565b60165460ff16156121fb5760405162461bcd60e51b815260206004820152601c60248201527b1d1a194818dbdb9d1c9858dd081a185cc81a5b9a5d1a585b1a5e995960221b60448201526064016108aa565b868514801561220957508683145b801561221457508681145b61224f5760405162461bcd60e51b815260206004820152600c60248201526b214d6973736c656e6774687360a01b60448201526064016108aa565b5f805b8881101561250c5761271088888381811061226f5761226f615164565b9050602002013511156122b25760405162461bcd60e51b815260206004820152600b60248201526a2170657263656e7461676560a81b60448201526064016108aa565b8787828181106122c4576122c4615164565b90506020020135826122d691906152a0565b9150601060405180608001604052808c8c858181106122f7576122f7615164565b905060200201602081019061230c9190614a52565b6001600160a01b031681526020018a8a8581811061232c5761232c615164565b90506020020135815260200188888581811061234a5761234a615164565b905060200281019061235c9190615607565b8080601f0160208091040260200160405190810160405280939291908181526020018383808284375f920191909152505050908252506020018686858181106123a7576123a7615164565b90506020020160208101906123bc9190615649565b62ffffff1690528154600180820184555f938452602093849020835160049093020180546001600160a01b0319166001600160a01b0390931692909217825592820151928101929092556040810151909190600282019061241d9082615525565b50606091909101516003909101805462ffffff191662ffffff9092169190911790557fdae6f056932f00933cb66a91f6e0255f17770daa04db2d36869e28ffa46dca638a8a8381811061247257612472615164565b90506020020160208101906124879190614a52565b89898481811061249957612499615164565b905060200201358888858181106124b2576124b2615164565b90506020028101906124c49190615607565b8888878181106124d6576124d6615164565b90506020020160208101906124eb9190615649565b6040516124fc959493929190615662565b60405180910390a1600101612252565b50806127101461255e5760405162461bcd60e51b815260206004820181905260248201527f746f74616c2070657263656e746167652073686f756c6420626520313030303060448201526064016108aa565b505050505050505050565b612571613cd3565b5f5b601054811015612689575f6010828154811061259157612591615164565b5f9182526020822060049182020180546040516370a0823160e01b81529194506001600160a01b0316916370a08231916125cd913091016149b9565b602060405180830381865afa1580156125e8573d5f803e3d5ffd5b505050506040513d601f19601f8201168201806040525081019061260c91906150c7565b825460405163a9059cbb60e01b81529192506001600160a01b03169063a9059cbb9061263e90339085906004016152c6565b6020604051808303815f875af115801561265a573d5f803e3d5ffd5b505050506040513d601f19601f8201168201806040525081019061267e91906152df565b505050600101612573565b50565b612694613cd3565b61269d5f614235565b565b6126a7613cd3565b6126af613dac565b5f6126b982612065565b90505f81116127185760405162461bcd60e51b815260206004820152602560248201527f546f74616c2076616c7565206d7573742062652067726561746572207468616e604482015264207a65726f60d81b60648201526084016108aa565b5f5b6010548110156128f3575f6010828154811061273857612738615164565b5f9182526020822060049182020180546040516370a0823160e01b81529194506001600160a01b0316916370a0823191612774913091016149b9565b602060405180830381865afa15801561278f573d5f803e3d5ffd5b505050506040513d601f19601f820116820180604052508101906127b391906150c7565b8584815181106127c5576127c5615164565b60200260200101516127d791906150f2565b90505f6127108360010154866127ed91906150f2565b6127f79190615109565b9050808211156128e8575f86858151811061281457612814615164565b6020026020010151828461282891906152b3565b6128329190615109565b84546002860180549293506128e5926001600160a01b039092169184919061285990615073565b80601f016020809104026020016040519081016040528092919081815260200182805461288590615073565b80156128d05780601f106128a7576101008083540402835291602001916128d0565b820191905f5260205f20905b8154815290600101906020018083116128b357829003601f168201915b50505050600389015462ffffff169050614284565b50505b50505060010161271a565b505050565b612900613cd3565b61290861463a565b7f62e78cea01bee320cd4e420270b5ea74000d11b0c9f74754ebdbfc544b05a25833604051611fe391906149b9565b5f546001600160a01b031690565b6001600160a01b0381165f908152600d6020526040812054606091906001600160401b0381111561297857612978614ac3565b6040519080825280602002602001820160405280156129ce57816020015b6040805160a0810182525f8082526020808301829052928201819052606080830152608082015282525f199092019101816129965790505b5090505f805b600954811015612b4c57846001600160a01b0316600982815481106129fb576129fb615164565b5f9182526020909120600590910201546001600160a01b031603612b445760098181548110612a2c57612a2c615164565b5f9182526020918290206040805160a081018252600590930290910180546001600160a01b03908116845260018201541693830193909352600283015490820152600382018054919291606084019190612a8590615073565b80601f0160208091040260200160405190810160405280929190818152602001828054612ab190615073565b8015612afc5780601f10612ad357610100808354040283529160200191612afc565b820191905f5260205f20905b815481529060010190602001808311612adf57829003601f168201915b50505091835250506004919091015462ffffff166020909101528351849084908110612b2a57612b2a615164565b60200260200101819052508180612b40906155da565b9250505b6001016129d4565b50909392505050565b6060600580546107d290615073565b612b6c613cd3565b612710831115612ba95760405162461bcd60e51b8152602060048201526008602482015267021503e31303030360c41b60448201526064016108aa565b5f805b601054811015612c9757856001600160a01b031660108281548110612bd357612bd3615164565b5f9182526020909120600490910201546001600160a01b031603612c8f578460108281548110612c0557612c05615164565b905f5260205f209060040201600101819055508360108281548110612c2c57612c2c615164565b905f5260205f2090600402016002019081612c479190615525565b508260108281548110612c5c57612c5c615164565b905f5260205f2090600402016003015f6101000a81548162ffffff021916908362ffffff16021790555060019150612c97565b600101612bac565b5080610e595760405162461bcd60e51b815260206004820152600660248201526510ba37b5b2b760d11b60448201526064016108aa565b612cd6613cd3565b60145415612d6f576014546040515f916001600160a01b038416918381818185875af1925050503d805f8114612d27576040519150601f19603f3d011682016040523d82523d5f602084013e612d2c565b606091505b5050905080612d695760405162461bcd60e51b815260206004820152600960248201526808c8292988a888aa8960bb1b60448201526064016108aa565b505f6014555b60155415612689575f612d806132f5565b60155460405163a9059cbb60e01b81529192506001600160a01b0383169163a9059cbb91612db3918691906004016152c6565b6020604051808303815f875af1158015612dcf573d5f803e3d5ffd5b505050506040513d601f19601f82011682018060405250810190612df391906152df565b50505f60155550565b5f33610860818585613d4f565b60085460405163cdca175360e01b81525f916001600160a01b03169063cdca175390612e3b908690869060040161541f565b6020604051808303815f875af1158015612e57573d5f803e3d5ffd5b505050506040513d601f19601f82011682018060405250810190612e7b91906150c7565b9392505050565b60065460405163d06ca61f60e01b81526060916001600160a01b03169063d06ca61f90612eb5908690869060040161534b565b5f60405180830381865afa158015612ecf573d5f803e3d5ffd5b505050506040513d5f823e601f3d908101601f19168201604052612e7b9190810190615363565b335f908152600e602052604090205460ff16612f3d5760405162461bcd60e51b81526004016108aa906020808252600490820152630855d21560e21b604082015260600190565b612f45613dac565b5f3411612f7a5760405162461bcd60e51b8152602060048201526003602482015262414d4760e81b60448201526064016108aa565b5f61271060125434612f8c91906150f2565b612f969190615109565b90505f612fa382346152b3565b90508160145f828254612fb691906152a0565b90915550508061301b5760405162461bcd60e51b815260206004820152602a60248201527f416d6f756e7420616674657220666565206d7573742062652067726561746572604482015269207468616e207a65726f60b01b60648201526084016108aa565b613025338261467c565b5f5b6010548110156128f3575f6010828154811061304557613045615164565b905f5260205f20906004020190505f61271082600101548561306791906150f2565b6130719190615109565b9050838111156130b75760405162461bcd60e51b815260206004820152601160248201527063616c4554483c3d616d6f756e7466656560781b60448201526064016108aa565b81546003830154604051631ce07ae960e11b815230926339c0f5d29285926130f8926001600160a01b031691849160028a019162ffffff1690600401615178565b5f604051808303818588803b15801561310f575f80fd5b505af193505050508015613121575060015b6132c157335f90815260116020526040812080548392906131439084906152a0565b90915550506040805160a08101825233815283546001600160a01b0316602082015290810182905260028301805460099291606083019161318390615073565b80601f01602080910402602001604051908101604052809291908181526020018280546131af90615073565b80156131fa5780601f106131d1576101008083540402835291602001916131fa565b820191905f5260205f20905b8154815290600101906020018083116131dd57829003601f168201915b505050918352505060038581015462ffffff166020928301528354600180820186555f95865294839020845160059092020180546001600160a01b03199081166001600160a01b0393841617825593850151958101805490941695909116949094179091556040820151600284015560608201519192919082019061327f9082615525565b50608091909101516004909101805462ffffff191662ffffff909216919091179055335f908152600d602052604081208054916132bb836155da565b91905055505b5050600101613027565b6001600160a01b039182165f90815260026020908152604080832093909416825291909152205490565b600654604080516315ab88c960e31b815290515f926001600160a01b03169163ad5c46489160048083019260209291908290030181865afa15801561333c573d5f803e3d5ffd5b505050506040513d601f19601f820116820180604052508101906133609190615149565b905090565b5f604051602001613375906152fa565b604051602081830303815290604052805190602001208360405160200161339c919061547b565b6040516020818303038152906040528051906020012003613559576040805160028082526060820183525f9260208301908036833701905050905085815f815181106133ea576133ea615164565b6001600160a01b03928316602091820292909201810191909152600654604080516315ab88c960e31b81529051919093169263ad5c46489260048083019391928290030181865afa158015613441573d5f803e3d5ffd5b505050506040513d601f19601f820116820180604052508101906134659190615149565b8160018151811061347857613478615164565b6001600160a01b03928316602091820292909201015260065460405163d06ca61f60e01b81525f92919091169063d06ca61f906134bb908990869060040161534b565b5f60405180830381865afa1580156134d5573d5f803e3d5ffd5b505050506040513d5f823e601f3d908101601f191682016040526134fc9190810190615363565b90505f612710600a5461271061351291906152b3565b8360018151811061352557613525615164565b602002602001015161353791906150f2565b6135419190615109565b905061354f888883306115c4565b93505050506117a7565b60405160200161356890615221565b604051602081830303815290604052805190602001208360405160200161358f919061547b565b6040516020818303038152906040528051906020012003611c20575f858360065f9054906101000a90046001600160a01b03166001600160a01b031663ad5c46486040518163ffffffff1660e01b8152600401602060405180830381865afa1580156135fd573d5f803e3d5ffd5b505050506040513d601f19601f820116820180604052508101906136219190615149565b604051602001613633939291906153e9565b60408051601f198184030181529082905260085463cdca175360e01b83529092505f916001600160a01b039091169063cdca1753906136789085908a9060040161541f565b6020604051808303815f875af1158015613694573d5f803e3d5ffd5b505050506040513d601f19601f820116820180604052508101906136b891906150c7565b90505f612710600a546127106136ce91906152b3565b6136d890846150f2565b6136e29190615109565b905061354f888887843061372b565b6136f9613cd3565b6001600160a01b038116613722575f604051631e4fbdf760e01b81526004016108aa91906149b9565b61268981614235565b5f80604051806101000160405280886001600160a01b0316815260200160065f9054906101000a90046001600160a01b03166001600160a01b031663ad5c46486040518163ffffffff1660e01b8152600401602060405180830381865afa158015613798573d5f803e3d5ffd5b505050506040513d601f19601f820116820180604052508101906137bc9190615149565b6001600160a01b031681526020018662ffffff168152602001846001600160a01b031681526020014281526020018781526020018581526020015f6001600160a01b03168152509050866001600160a01b031663095ea7b360075f9054906101000a90046001600160a01b0316886040518363ffffffff1660e01b81526004016138479291906152c6565b6020604051808303815f875af1158015613863573d5f803e3d5ffd5b505050506040513d601f19601f8201168201806040525081019061388791906152df565b5060075460405163414bf38960e01b81526001600160a01b039091169063414bf389906138b89084906004016156b7565b6020604051808303815f875af11580156138d4573d5f803e3d5ffd5b505050506040513d601f19601f820116820180604052508101906138f891906150c7565b9150505b95945050505050565b61390d613cd3565b5f805f5b6010548110156128f3575f6010828154811061392f5761392f615164565b5f9182526020822060049182020180546040516370a0823160e01b81529194506001600160a01b0316916370a082319161396b913091016149b9565b602060405180830381865afa158015613986573d5f803e3d5ffd5b505050506040513d601f19601f820116820180604052508101906139aa91906150c7565b90506040516020016139bb906152fa565b60405160208183030381529060405280519060200120826002016040516020016139e5919061522f565b6040516020818303038152906040528051906020012003613b17576040805160028082526060820183525f926020830190803683375050845482519293506001600160a01b0316918391505f90613a3e57613a3e615164565b60200260200101906001600160a01b031690816001600160a01b031681525050613a666132f5565b81600181518110613a7957613a79615164565b60200260200101906001600160a01b031690816001600160a01b0316815250505f613aa48383612e82565b90505f612710600a54612710613aba91906152b3565b83600181518110613acd57613acd615164565b6020026020010151613adf91906150f2565b613ae99190615109565b8554909150613b03906001600160a01b03168583336115c4565b613b0d90896152a0565b9750505050613cbc565b604051602001613b2690615221565b6040516020818303038152906040528051906020012082600201604051602001613b50919061522f565b6040516020818303038152906040528051906020012003613c8857815460038301545f916001600160a01b03169062ffffff16613b8b6132f5565b604051602001613b9d939291906153e9565b60408051601f198184030181529082905260085463cdca175360e01b83529092505f916001600160a01b039091169063cdca175390613be2908590879060040161541f565b6020604051808303815f875af1158015613bfe573d5f803e3d5ffd5b505050506040513d601f19601f82011682018060405250810190613c2291906150c7565b90505f612710600a54612710613c3891906152b3565b613c4290846150f2565b613c4c9190615109565b85546003870154919250613c74916001600160a01b0390911690869062ffffff16843361372b565b613c7e90886152a0565b9650505050613cbc565b60405162461bcd60e51b8152602060048201526009602482015268496e76616c6964565360b81b60448201526064016108aa565b5050600101613911565b6128f383838360016146b0565b33613cdc612937565b6001600160a01b03161461269d573360405163118cdaa760e01b81526004016108aa91906149b9565b5f613d1084846132cb565b90505f1981146115be5781811015613d4157828183604051637dc7a0d960e11b81526004016108aa9392919061572b565b6115be84848484035f6146b0565b6001600160a01b038316613d78575f604051634b637e8f60e11b81526004016108aa91906149b9565b6001600160a01b038216613da1575f60405163ec442f0560e01b81526004016108aa91906149b9565b6128f3838383614782565b613db4612192565b1561269d5760405163d93c066560e01b815260040160405180910390fd5b6001600160a01b038216613dfb575f604051634b637e8f60e11b81526004016108aa91906149b9565b611fa0825f83614782565b60408051600280825260608083018452925f9291906020830190803683375050600654604080516315ab88c960e31b815290519394506001600160a01b039091169263ad5c4648925060048083019260209291908290030181865afa158015613e71573d5f803e3d5ffd5b505050506040513d601f19601f82011682018060405250810190613e959190615149565b815f81518110613ea757613ea7615164565b60200260200101906001600160a01b031690816001600160a01b0316815250508481600181518110613edb57613edb615164565b6001600160a01b039283166020918202929092010152600654604051637ff36ab560e01b8152911690637ff36ab5908690613f2090879086903090429060040161574c565b5f6040518083038185885af1158015613f3b573d5f803e3d5ffd5b50505050506040513d5f823e601f3d908101601f191682016040526138fc9190810190615363565b6040805161010081018083526006546315ab88c960e31b90915291515f9282916001600160a01b039091169063ad5c464890610104808501916020918187030181865afa158015613fb6573d5f803e3d5ffd5b505050506040513d601f19601f82011682018060405250810190613fda9190615149565b6001600160a01b039081168252878116602083015262ffffff861660408084019190915230606084015242608084015260a0830188905260c083018690525f60e090930192909252600754915163414bf38960e01b8152929350169063414bf38990869061404c9085906004016156b7565b60206040518083038185885af1158015614068573d5f803e3d5ffd5b50505050506040513d601f19601f8201168201806040525081019061408d91906150c7565b505050505050565b60095481106140cf5760405162461bcd60e51b8152602060048201526006602482015265042d2dcc8caf60d31b60448201526064016108aa565b600980546140df906001906152b3565b815481106140ef576140ef615164565b905f5260205f2090600502016009828154811061410e5761410e615164565b5f9182526020909120825460059092020180546001600160a01b039283166001600160a01b03199182161782556001808501549083018054919094169116179091556002808301549082015560038082019061416c90840182615780565b506004918201549101805462ffffff191662ffffff909216919091179055600980548061419b5761419b615840565b5f8281526020812060055f199093019283020180546001600160a01b03199081168255600182018054909116905560028101829055906141de60038301826148ba565b50600401805462ffffff19169055905550565b6141f9614895565b5f805460ff60a01b191690557f5db9ee0a495bf2e6ff9c91a7834c1ba4fdd244a5e8aa4e537bd38aeae4b073aa335b604051611fe391906149b9565b5f80546001600160a01b038381166001600160a01b0319831681178455604051919092169283917f8be0079c531659141344cd1fd0a4f28419497f9722a3daafe3b4186f6b6457e09190a35050565b5f604051602001614294906152fa565b60405160208183030381529060405280519060200120836040516020016142bb919061547b565b604051602081830303815290604052805190602001200361448f576040805160028082526060820183525f9260208301908036833701905050905085815f8151811061430957614309615164565b6001600160a01b03928316602091820292909201810191909152600654604080516315ab88c960e31b81529051919093169263ad5c46489260048083019391928290030181865afa158015614360573d5f803e3d5ffd5b505050506040513d601f19601f820116820180604052508101906143849190615149565b8160018151811061439757614397615164565b6001600160a01b03928316602091820292909201015260065460405163d06ca61f60e01b81525f92919091169063d06ca61f906143da908990869060040161534b565b5f60405180830381865afa1580156143f4573d5f803e3d5ffd5b505050506040513d5f823e601f3d908101601f1916820160405261441b9190810190615363565b90505f612710600a5461271061443191906152b3565b8360018151811061444457614444615164565b602002602001015161445691906150f2565b6144609190615109565b905061446e888883306115c4565b935083600b5f82825461448191906152a0565b909155506117a79350505050565b60405160200161449e90615221565b60405160208183030381529060405280519060200120836040516020016144c5919061547b565b60405160208183030381529060405280519060200120036114b6575f858360065f9054906101000a90046001600160a01b03166001600160a01b031663ad5c46486040518163ffffffff1660e01b8152600401602060405180830381865afa158015614533573d5f803e3d5ffd5b505050506040513d601f19601f820116820180604052508101906145579190615149565b604051602001614569939291906153e9565b60408051601f198184030181529082905260085463cdca175360e01b83529092505f916001600160a01b039091169063cdca1753906145ae9085908a9060040161541f565b6020604051808303815f875af11580156145ca573d5f803e3d5ffd5b505050506040513d601f19601f820116820180604052508101906145ee91906150c7565b90505f612710600a5461271061460491906152b3565b61460e90846150f2565b6146189190615109565b9050614627888887843061372b565b935083600c5f82825461448191906152a0565b614642613dac565b5f805460ff60a01b1916600160a01b1790557f62e78cea01bee320cd4e420270b5ea74000d11b0c9f74754ebdbfc544b05a2586142283390565b6001600160a01b0382166146a5575f60405163ec442f0560e01b81526004016108aa91906149b9565b611fa05f8383614782565b6001600160a01b0384166146d9575f60405163e602df0560e01b81526004016108aa91906149b9565b6001600160a01b038316614702575f604051634a1406b160e11b81526004016108aa91906149b9565b6001600160a01b038085165f90815260026020908152604080832093871683529290522082905580156115be57826001600160a01b0316846001600160a01b03167f8c5be1e5ebec7d5bd14f71427d1e84f3dd0314c0f7b2291e5b200ac8c7c3b9258460405161477491815260200190565b60405180910390a350505050565b6001600160a01b0383166147ac578060035f8282546147a191906152a0565b909155506148099050565b6001600160a01b0383165f90815260016020526040902054818110156147eb5783818360405163391434e360e21b81526004016108aa9392919061572b565b6001600160a01b0384165f9081526001602052604090209082900390555b6001600160a01b03821661482557600380548290039055614843565b6001600160a01b0382165f9081526001602052604090208054820190555b816001600160a01b0316836001600160a01b03167fddf252ad1be2c89b69c2b068fc378daa952ba7f163c4a11628f55a4df523b3ef8360405161488891815260200190565b60405180910390a3505050565b61489d612192565b61269d57604051638dfc202b60e01b815260040160405180910390fd5b5080546148c690615073565b5f825580601f106148d5575050565b601f0160209004905f5260205f209081019061268991905b80821115614900575f81556001016148ed565b5090565b5f81518084528060208401602086015e5f602082860101526020601f19601f83011685010191505092915050565b602081525f612e7b6020830184614904565b6001600160a01b0381168114612689575f80fd5b5f8060408385031215614969575f80fd5b823561497481614944565b946020939093013593505050565b5f8060408385031215614993575f80fd5b50508035926020909101359150565b5f602082840312156149b2575f80fd5b5035919050565b6001600160a01b0391909116815260200190565b5f805f606084860312156149df575f80fd5b83356149ea81614944565b925060208401356149fa81614944565b929592945050506040919091013590565b5f805f8060808587031215614a1e575f80fd5b8435614a2981614944565b935060208501359250604085013591506060850135614a4781614944565b939692955090935050565b5f60208284031215614a62575f80fd5b8135612e7b81614944565b6001600160a01b03169052565b6001600160a01b038681168252851660208201526040810184905260a0606082018190525f90614aac90830185614904565b905062ffffff831660808301529695505050505050565b634e487b7160e01b5f52604160045260245ffd5b604051601f8201601f191681016001600160401b0381118282101715614aff57614aff614ac3565b604052919050565b5f806001600160401b03841115614b2057614b20614ac3565b50601f8301601f1916602001614b3581614ad7565b915050828152838383011115614b49575f80fd5b828260208301375f602084830101529392505050565b5f82601f830112614b6e575f80fd5b612e7b83833560208501614b07565b803562ffffff81168114614b8f575f80fd5b919050565b5f805f8060808587031215614ba7575f80fd5b8435614bb281614944565b93506020850135925060408501356001600160401b03811115614bd3575f80fd5b614bdf87828801614b5f565b925050614bee60608601614b7d565b905092959194509250565b8015158114612689575f80fd5b5f8060408385031215614c17575f80fd5b8235614c2281614944565b91506020830135614c3281614bf9565b809150509250929050565b5f6001600160401b03821115614c5557614c55614ac3565b5060051b60200190565b5f60208284031215614c6f575f80fd5b81356001600160401b03811115614c84575f80fd5b8201601f81018413614c94575f80fd5b8035614ca7614ca282614c3d565b614ad7565b8082825260208201915060208360051b850101925086831115614cc8575f80fd5b6020840193505b82841015614cea578335825260209384019390910190614ccf565b9695505050505050565b5f8083601f840112614d04575f80fd5b5081356001600160401b03811115614d1a575f80fd5b6020830191508360208260051b8501011115614d34575f80fd5b9250929050565b5f805f805f805f806080898b031215614d52575f80fd5b88356001600160401b03811115614d67575f80fd5b614d738b828c01614cf4565b90995097505060208901356001600160401b03811115614d91575f80fd5b614d9d8b828c01614cf4565b90975095505060408901356001600160401b03811115614dbb575f80fd5b614dc78b828c01614cf4565b90955093505060608901356001600160401b03811115614de5575f80fd5b614df18b828c01614cf4565b999c989b5096995094979396929594505050565b5f602082016020835280845180835260408501915060408160051b8601019250602086015f5b82811015614ea757603f19878603018452815160018060a01b03815116865260018060a01b03602082015116602087015260408101516040870152606081015160a06060880152614e7f60a0880182614904565b60809283015162ffffff16979092019690965294506020938401939190910190600101614e2b565b50929695505050505050565b5f8060408385031215614ec4575f80fd5b82356001600160401b03811115614ed9575f80fd5b8301601f81018513614ee9575f80fd5b614ef885823560208401614b07565b95602094909401359450505050565b5f8060408385031215614f18575f80fd5b8235915060208301356001600160401b03811115614f34575f80fd5b8301601f81018513614f44575f80fd5b8035614f52614ca282614c3d565b8082825260208201915060208360051b850101925087831115614f73575f80fd5b6020840193505b82841015614f9e578335614f8d81614944565b825260209384019390910190614f7a565b809450505050509250929050565b602080825282518282018190525f918401906040840190835b81811015614fe3578351835260209384019390920191600101614fc5565b509095945050505050565b5f8060408385031215614fff575f80fd5b823561500a81614944565b91506020830135614c3281614944565b5f805f805f60a0868803121561502e575f80fd5b853561503981614944565b94506020860135935061504e60408701614b7d565b925060608601359150608086013561506581614944565b809150509295509295909350565b600181811c9082168061508757607f821691505b6020821081036150a557634e487b7160e01b5f52602260045260245ffd5b50919050565b60208082526002908201526103e360f41b604082015260600190565b5f602082840312156150d7575f80fd5b5051919050565b634e487b7160e01b5f52601160045260245ffd5b8082028115828204841417610866576108666150de565b5f8261512357634e487b7160e01b5f52601260045260245ffd5b500490565b6020808252600790820152660302631303030360cc1b604082015260600190565b5f60208284031215615159575f80fd5b8151612e7b81614944565b634e487b7160e01b5f52603260045260245ffd5b6001600160a01b0385168152602081018490526080604082015282545f9081906151a181615073565b806080860152600182165f81146151bf57600181146151db5761520c565b60ff19831660a087015260a082151560051b870101935061520c565b875f5260205f205f5b8381101561520357815488820160a001526001909101906020016151e4565b870160a0019450505b50505062ffffff8416606084015290506138fc565b61763360f01b815260020190565b5f80835461523c81615073565b600182168015615253576001811461526857615295565b60ff1983168652811515820286019350615295565b865f5260205f205f5b8381101561528d57815488820152600190910190602001615271565b505081860193505b509195945050505050565b80820180821115610866576108666150de565b81810381811115610866576108666150de565b6001600160a01b03929092168252602082015260400190565b5f602082840312156152ef575f80fd5b8151612e7b81614bf9565b613b1960f11b815260020190565b5f8151808452602084019350602083015f5b828110156153415781516001600160a01b031686526020958601959091019060010161531a565b5093949350505050565b828152604060208201525f6117a76040830184615308565b5f60208284031215615373575f80fd5b81516001600160401b03811115615388575f80fd5b8201601f81018413615398575f80fd5b80516153a6614ca282614c3d565b8082825260208201915060208360051b8501019250868311156153c7575f80fd5b6020840193505b82841015614cea5783518252602093840193909101906153ce565b606093841b6001600160601b0319908116825260e89390931b6001600160e81b0319166014820152921b166017820152602b0190565b604081525f6154316040830185614904565b90508260208301529392505050565b85815284602082015260a060408201525f61545e60a0830186615308565b6001600160a01b0394909416606083015250608001529392505050565b5f82518060208501845e5f920191825250919050565b60018060a01b0385168152836020820152608060408201525f6154b76080830185614904565b905062ffffff8316606083015295945050505050565b601f8211156128f357805f5260205f20601f840160051c810160208510156154f25750805b601f840160051c820191505b81811015610e59575f81556001016154fe565b5f19600383901b1c191660019190911b1790565b81516001600160401b0381111561553e5761553e614ac3565b6155528161554c8454615073565b846154cd565b6020601f82116001811461557f575f831561556d5750848201515b6155778482615511565b855550610e59565b5f84815260208120601f198516915b828110156155ae578785015182556020948501946001909201910161558e565b50848210156155cb57868401515f19600387901b60f8161c191681555b50505050600190811b01905550565b5f600182016155eb576155eb6150de565b5060010190565b5f81615600576156006150de565b505f190190565b5f808335601e1984360301811261561c575f80fd5b8301803591506001600160401b03821115615635575f80fd5b602001915036819003821315614d34575f80fd5b5f60208284031215615659575f80fd5b612e7b82614b7d565b6001600160a01b0386168152602081018590526080604082018190528101839052828460a08301375f60a084830101525f60a0601f19601f860116830101905062ffffff831660608301529695505050505050565b81516001600160a01b0390811682526020808401519091169082015260408083015162ffffff16908201526060808301516101008301916156fa90840182614a6d565b506080830151608083015260a083015160a083015260c083015160c083015260e083015161218b60e0840182614a6d565b6001600160a01b039390931683526020830191909152604082015260600190565b848152608060208201525f6157646080830186615308565b6001600160a01b03949094166040830152506060015292915050565b81810361578b575050565b6157958254615073565b6001600160401b038111156157ac576157ac614ac3565b6157ba8161554c8454615073565b5f601f8211600181146157dd575f831561556d5750848201546155778482615511565b5f8581526020808220868352908220601f198616925b8381101561581357828601548255600195860195909101906020016157f3565b508583101561583057818501545f19600388901b60f8161c191681555b5050505050600190811b01905550565b634e487b7160e01b5f52603160045260245ffdfea26469706673582212202b27988ac51f248a627644cafeec2c9b801dac83917be894981ab440b71031ae64736f6c634300081a0033",
			"opcodes": "PUSH1 0x80 PUSH1 0x40 MSTORE PUSH1 0x16 DUP1 SLOAD PUSH1 0xFF NOT AND SWAP1 SSTORE CALLVALUE DUP1 ISZERO PUSH2 0x19 JUMPI PUSH0 DUP1 REVERT JUMPDEST POP PUSH1 0x40 MLOAD PUSH2 0x5BD9 CODESIZE SUB DUP1 PUSH2 0x5BD9 DUP4 CODECOPY DUP2 ADD PUSH1 0x40 DUP2 SWAP1 MSTORE PUSH2 0x38 SWAP2 PUSH2 0x1B0 JUMP JUMPDEST PUSH1 0x40 DUP1 MLOAD DUP1 DUP3 ADD DUP3 MSTORE PUSH1 0x7 DUP2 MSTORE PUSH7 0xA0B28E8E8AA89 PUSH1 0xCB SHL PUSH1 0x20 DUP1 DUP4 ADD SWAP2 SWAP1 SWAP2 MSTORE DUP3 MLOAD DUP1 DUP5 ADD SWAP1 SWAP4 MSTORE PUSH1 0x4 DUP4 MSTORE PUSH4 0xA08AA89 PUSH1 0xE3 SHL SWAP1 DUP4 ADD MSTORE DUP5 SWAP2 DUP5 SWAP2 DUP5 SWAP2 CALLER DUP1 PUSH2 0x9C JUMPI PUSH1 0x40 MLOAD PUSH4 0x1E4FBDF7 PUSH1 0xE0 SHL DUP2 MSTORE PUSH0 PUSH1 0x4 DUP3 ADD MSTORE PUSH1 0x24 ADD PUSH1 0x40 MLOAD DUP1 SWAP2 SUB SWAP1 REVERT JUMPDEST PUSH2 0xA5 DUP2 PUSH2 0x146 JUMP JUMPDEST POP PUSH0 DUP1 SLOAD PUSH1 0xFF PUSH1 0xA0 SHL NOT AND SWAP1 SSTORE PUSH1 0x4 PUSH2 0xBE DUP4 DUP3 PUSH2 0x288 JUMP JUMPDEST POP PUSH1 0x5 PUSH2 0xCB DUP3 DUP3 PUSH2 0x288 JUMP JUMPDEST POP POP PUSH1 0x6 DUP1 SLOAD PUSH1 0x1 PUSH1 0x1 PUSH1 0xA0 SHL SUB NOT SWAP1 DUP2 AND PUSH1 0x1 PUSH1 0x1 PUSH1 0xA0 SHL SUB SWAP7 DUP8 AND OR SWAP1 SWAP2 SSTORE PUSH1 0x7 DUP1 SLOAD DUP3 AND SWAP5 DUP7 AND SWAP5 SWAP1 SWAP5 OR SWAP1 SWAP4 SSTORE POP PUSH1 0x8 DUP1 SLOAD DUP4 AND SWAP2 SWAP1 SWAP4 AND OR SWAP1 SWAP2 SSTORE PUSH2 0x3E8 PUSH1 0xA SSTORE CALLER PUSH0 DUP2 DUP2 MSTORE PUSH1 0xE PUSH1 0x20 MSTORE PUSH1 0x40 SWAP1 KECCAK256 DUP1 SLOAD PUSH1 0xFF NOT AND PUSH1 0x1 OR SWAP1 SSTORE PUSH1 0xF DUP1 SLOAD SWAP1 SWAP3 AND OR SWAP1 SSTORE POP POP PUSH1 0x64 PUSH1 0x13 DUP2 SWAP1 SSTORE PUSH1 0x12 SSTORE POP PUSH2 0x342 JUMP JUMPDEST PUSH0 DUP1 SLOAD PUSH1 0x1 PUSH1 0x1 PUSH1 0xA0 SHL SUB DUP4 DUP2 AND PUSH1 0x1 PUSH1 0x1 PUSH1 0xA0 SHL SUB NOT DUP4 AND DUP2 OR DUP5 SSTORE PUSH1 0x40 MLOAD SWAP2 SWAP1 SWAP3 AND SWAP3 DUP4 SWAP2 PUSH32 0x8BE0079C531659141344CD1FD0A4F28419497F9722A3DAAFE3B4186F6B6457E0 SWAP2 SWAP1 LOG3 POP POP JUMP JUMPDEST DUP1 MLOAD PUSH1 0x1 PUSH1 0x1 PUSH1 0xA0 SHL SUB DUP2 AND DUP2 EQ PUSH2 0x1AB JUMPI PUSH0 DUP1 REVERT JUMPDEST SWAP2 SWAP1 POP JUMP JUMPDEST PUSH0 DUP1 PUSH0 PUSH1 0x60 DUP5 DUP7 SUB SLT ISZERO PUSH2 0x1C2 JUMPI PUSH0 DUP1 REVERT JUMPDEST PUSH2 0x1CB DUP5 PUSH2 0x195 JUMP JUMPDEST SWAP3 POP PUSH2 0x1D9 PUSH1 0x20 DUP6 ADD PUSH2 0x195 JUMP JUMPDEST SWAP2 POP PUSH2 0x1E7 PUSH1 0x40 DUP6 ADD PUSH2 0x195 JUMP JUMPDEST SWAP1 POP SWAP3 POP SWAP3 POP SWAP3 JUMP JUMPDEST PUSH4 0x4E487B71 PUSH1 0xE0 SHL PUSH0 MSTORE PUSH1 0x41 PUSH1 0x4 MSTORE PUSH1 0x24 PUSH0 REVERT JUMPDEST PUSH1 0x1 DUP2 DUP2 SHR SWAP1 DUP3 AND DUP1 PUSH2 0x218 JUMPI PUSH1 0x7F DUP3 AND SWAP2 POP JUMPDEST PUSH1 0x20 DUP3 LT DUP2 SUB PUSH2 0x236 JUMPI PUSH4 0x4E487B71 PUSH1 0xE0 SHL PUSH0 MSTORE PUSH1 0x22 PUSH1 0x4 MSTORE PUSH1 0x24 PUSH0 REVERT JUMPDEST POP SWAP2 SWAP1 POP JUMP JUMPDEST PUSH1 0x1F DUP3 GT ISZERO PUSH2 0x283 JUMPI DUP1 PUSH0 MSTORE PUSH1 0x20 PUSH0 KECCAK256 PUSH1 0x1F DUP5 ADD PUSH1 0x5 SHR DUP2 ADD PUSH1 0x20 DUP6 LT ISZERO PUSH2 0x261 JUMPI POP DUP1 JUMPDEST PUSH1 0x1F DUP5 ADD PUSH1 0x5 SHR DUP3 ADD SWAP2 POP JUMPDEST DUP2 DUP2 LT ISZERO PUSH2 0x280 JUMPI PUSH0 DUP2 SSTORE PUSH1 0x1 ADD PUSH2 0x26D JUMP JUMPDEST POP POP JUMPDEST POP POP POP JUMP JUMPDEST DUP2 MLOAD PUSH1 0x1 PUSH1 0x1 PUSH1 0x40 SHL SUB DUP2 GT ISZERO PUSH2 0x2A1 JUMPI PUSH2 0x2A1 PUSH2 0x1F0 JUMP JUMPDEST PUSH2 0x2B5 DUP2 PUSH2 0x2AF DUP5 SLOAD PUSH2 0x204 JUMP JUMPDEST DUP5 PUSH2 0x23C JUMP JUMPDEST PUSH1 0x20 PUSH1 0x1F DUP3 GT PUSH1 0x1 DUP2 EQ PUSH2 0x2E7 JUMPI PUSH0 DUP4 ISZERO PUSH2 0x2D0 JUMPI POP DUP5 DUP3 ADD MLOAD JUMPDEST PUSH0 NOT PUSH1 0x3 DUP6 SWAP1 SHL SHR NOT AND PUSH1 0x1 DUP5 SWAP1 SHL OR DUP5 SSTORE PUSH2 0x280 JUMP JUMPDEST PUSH0 DUP5 DUP2 MSTORE PUSH1 0x20 DUP2 KECCAK256 PUSH1 0x1F NOT DUP6 AND SWAP2 JUMPDEST DUP3 DUP2 LT ISZERO PUSH2 0x316 JUMPI DUP8 DUP6 ADD MLOAD DUP3 SSTORE PUSH1 0x20 SWAP5 DUP6 ADD SWAP5 PUSH1 0x1 SWAP1 SWAP3 ADD SWAP2 ADD PUSH2 0x2F6 JUMP JUMPDEST POP DUP5 DUP3 LT ISZERO PUSH2 0x333 JUMPI DUP7 DUP5 ADD MLOAD PUSH0 NOT PUSH1 0x3 DUP8 SWAP1 SHL PUSH1 0xF8 AND SHR NOT AND DUP2 SSTORE JUMPDEST POP POP POP POP PUSH1 0x1 SWAP1 DUP2 SHL ADD SWAP1 SSTORE POP JUMP JUMPDEST PUSH2 0x588A DUP1 PUSH2 0x34F PUSH0 CODECOPY PUSH0 RETURN INVALID PUSH1 0x80 PUSH1 0x40 MSTORE PUSH1 0x4 CALLDATASIZE LT PUSH2 0x226 JUMPI PUSH0 CALLDATALOAD PUSH1 0xE0 SHR DUP1 PUSH4 0x70A08231 GT PUSH2 0x128 JUMPI DUP1 PUSH4 0x70A08231 EQ PUSH2 0x508 JUMPI DUP1 PUSH4 0x715018A6 EQ PUSH2 0x53C JUMPI DUP1 PUSH4 0x780D5710 EQ PUSH2 0x550 JUMPI DUP1 PUSH4 0x8456CB59 EQ PUSH2 0x56F JUMPI DUP1 PUSH4 0x86BC55DB EQ PUSH2 0x583 JUMPI DUP1 PUSH4 0x86C14663 EQ PUSH2 0x598 JUMPI DUP1 PUSH4 0x8DA5CB5B EQ PUSH2 0x5AD JUMPI DUP1 PUSH4 0x91EBE50F EQ PUSH2 0x5C1 JUMPI DUP1 PUSH4 0x95D89B41 EQ PUSH2 0x5ED JUMPI DUP1 PUSH4 0x9B19251A EQ PUSH2 0x601 JUMPI DUP1 PUSH4 0xA38E9E66 EQ PUSH2 0x62F JUMPI DUP1 PUSH4 0xA738C7DF EQ PUSH2 0x64E JUMPI DUP1 PUSH4 0xA9059CBB EQ PUSH2 0x66D JUMPI DUP1 PUSH4 0xC38CD0B5 EQ PUSH2 0x68C JUMPI DUP1 PUSH4 0xCDCA1753 EQ PUSH2 0x6B7 JUMPI DUP1 PUSH4 0xD03153AA EQ PUSH2 0x6D6 JUMPI DUP1 PUSH4 0xD06CA61F EQ PUSH2 0x6EB JUMPI DUP1 PUSH4 0xD0E30DB0 EQ PUSH2 0x717 JUMPI DUP1 PUSH4 0xDD62ED3E EQ PUSH2 0x71F JUMPI DUP1 PUSH4 0xDF0E0768 EQ PUSH2 0x73E JUMPI DUP1 PUSH4 0xE7AE65AB EQ PUSH2 0x752 JUMPI DUP1 PUSH4 0xF2FDE38B EQ PUSH2 0x771 JUMPI DUP1 PUSH4 0xF662CAAF EQ PUSH2 0x790 JUMPI DUP1 PUSH4 0xFA3B5649 EQ PUSH2 0x7AF JUMPI PUSH0 DUP1 REVERT JUMPDEST DUP1 PUSH4 0x6FDDE03 EQ PUSH2 0x22A JUMPI DUP1 PUSH4 0x95EA7B3 EQ PUSH2 0x254 JUMPI DUP1 PUSH4 0xB78F9C0 EQ PUSH2 0x283 JUMPI DUP1 PUSH4 0x117DA1EE EQ PUSH2 0x2A4 JUMPI DUP1 PUSH4 0x1694505E EQ PUSH2 0x2C3 JUMPI DUP1 PUSH4 0x18160DDD EQ PUSH2 0x2EF JUMPI DUP1 PUSH4 0x23B872DD EQ PUSH2 0x30D JUMPI DUP1 PUSH4 0x2C76D7A6 EQ PUSH2 0x32C JUMPI DUP1 PUSH4 0x2C9351A1 EQ PUSH2 0x34B JUMPI DUP1 PUSH4 0x2E1A7D4D EQ PUSH2 0x36A JUMPI DUP1 PUSH4 0x313CE567 EQ PUSH2 0x389 JUMPI DUP1 PUSH4 0x34B6B2B9 EQ PUSH2 0x3A4 JUMPI DUP1 PUSH4 0x36A43F2B EQ PUSH2 0x3C3 JUMPI DUP1 PUSH4 0x378A653C EQ PUSH2 0x3EE JUMPI DUP1 PUSH4 0x39C0F5D2 EQ PUSH2 0x41E JUMPI DUP1 PUSH4 0x3D7526F7 EQ PUSH2 0x431 JUMPI DUP1 PUSH4 0x3F4BA83A EQ PUSH2 0x450 JUMPI DUP1 PUSH4 0x4D20D0F8 EQ PUSH2 0x464 JUMPI DUP1 PUSH4 0x53D6FD59 EQ PUSH2 0x483 JUMPI DUP1 PUSH4 0x5643A5A7 EQ PUSH2 0x4A2 JUMPI DUP1 PUSH4 0x5C975ABB EQ PUSH2 0x4C1 JUMPI DUP1 PUSH4 0x60D27451 EQ PUSH2 0x4D5 JUMPI DUP1 PUSH4 0x611D126A EQ PUSH2 0x4F4 JUMPI JUMPDEST PUSH0 DUP1 REVERT JUMPDEST CALLVALUE DUP1 ISZERO PUSH2 0x235 JUMPI PUSH0 DUP1 REVERT JUMPDEST POP PUSH2 0x23E PUSH2 0x7C3 JUMP JUMPDEST PUSH1 0x40 MLOAD PUSH2 0x24B SWAP2 SWAP1 PUSH2 0x4932 JUMP JUMPDEST PUSH1 0x40 MLOAD DUP1 SWAP2 SUB SWAP1 RETURN JUMPDEST CALLVALUE DUP1 ISZERO PUSH2 0x25F JUMPI PUSH0 DUP1 REVERT JUMPDEST POP PUSH2 0x273 PUSH2 0x26E CALLDATASIZE PUSH1 0x4 PUSH2 0x4958 JUMP JUMPDEST PUSH2 0x853 JUMP JUMPDEST PUSH1 0x40 MLOAD SWAP1 ISZERO ISZERO DUP2 MSTORE PUSH1 0x20 ADD PUSH2 0x24B JUMP JUMPDEST CALLVALUE DUP1 ISZERO PUSH2 0x28E JUMPI PUSH0 DUP1 REVERT JUMPDEST POP PUSH2 0x2A2 PUSH2 0x29D CALLDATASIZE PUSH1 0x4 PUSH2 0x4982 JUMP JUMPDEST PUSH2 0x86C JUMP JUMPDEST STOP JUMPDEST CALLVALUE DUP1 ISZERO PUSH2 0x2AF JUMPI PUSH0 DUP1 REVERT JUMPDEST POP PUSH2 0x2A2 PUSH2 0x2BE CALLDATASIZE PUSH1 0x4 PUSH2 0x49A2 JUMP JUMPDEST PUSH2 0x8F8 JUMP JUMPDEST CALLVALUE DUP1 ISZERO PUSH2 0x2CE JUMPI PUSH0 DUP1 REVERT JUMPDEST POP PUSH1 0x6 SLOAD PUSH2 0x2E2 SWAP1 PUSH1 0x1 PUSH1 0x1 PUSH1 0xA0 SHL SUB AND DUP2 JUMP JUMPDEST PUSH1 0x40 MLOAD PUSH2 0x24B SWAP2 SWAP1 PUSH2 0x49B9 JUMP JUMPDEST CALLVALUE DUP1 ISZERO PUSH2 0x2FA JUMPI PUSH0 DUP1 REVERT JUMPDEST POP PUSH1 0x3 SLOAD JUMPDEST PUSH1 0x40 MLOAD SWAP1 DUP2 MSTORE PUSH1 0x20 ADD PUSH2 0x24B JUMP JUMPDEST CALLVALUE DUP1 ISZERO PUSH2 0x318 JUMPI PUSH0 DUP1 REVERT JUMPDEST POP PUSH2 0x273 PUSH2 0x327 CALLDATASIZE PUSH1 0x4 PUSH2 0x49CD JUMP JUMPDEST PUSH2 0x938 JUMP JUMPDEST CALLVALUE DUP1 ISZERO PUSH2 0x337 JUMPI PUSH0 DUP1 REVERT JUMPDEST POP PUSH1 0x7 SLOAD PUSH2 0x2E2 SWAP1 PUSH1 0x1 PUSH1 0x1 PUSH1 0xA0 SHL SUB AND DUP2 JUMP JUMPDEST CALLVALUE DUP1 ISZERO PUSH2 0x356 JUMPI PUSH0 DUP1 REVERT JUMPDEST POP PUSH2 0x2A2 PUSH2 0x365 CALLDATASIZE PUSH1 0x4 PUSH2 0x49A2 JUMP JUMPDEST PUSH2 0x95B JUMP JUMPDEST CALLVALUE DUP1 ISZERO PUSH2 0x375 JUMPI PUSH0 DUP1 REVERT JUMPDEST POP PUSH2 0x2A2 PUSH2 0x384 CALLDATASIZE PUSH1 0x4 PUSH2 0x49A2 JUMP JUMPDEST PUSH2 0xE60 JUMP JUMPDEST CALLVALUE DUP1 ISZERO PUSH2 0x394 JUMPI PUSH0 DUP1 REVERT JUMPDEST POP PUSH1 0x40 MLOAD PUSH1 0x12 DUP2 MSTORE PUSH1 0x20 ADD PUSH2 0x24B JUMP JUMPDEST CALLVALUE DUP1 ISZERO PUSH2 0x3AF JUMPI PUSH0 DUP1 REVERT JUMPDEST POP PUSH2 0x2FF PUSH2 0x3BE CALLDATASIZE PUSH1 0x4 PUSH2 0x4A0B JUMP JUMPDEST PUSH2 0x15C4 JUMP JUMPDEST CALLVALUE DUP1 ISZERO PUSH2 0x3CE JUMPI PUSH0 DUP1 REVERT JUMPDEST POP PUSH2 0x2FF PUSH2 0x3DD CALLDATASIZE PUSH1 0x4 PUSH2 0x4A52 JUMP JUMPDEST PUSH1 0xD PUSH1 0x20 MSTORE PUSH0 SWAP1 DUP2 MSTORE PUSH1 0x40 SWAP1 KECCAK256 SLOAD DUP2 JUMP JUMPDEST CALLVALUE DUP1 ISZERO PUSH2 0x3F9 JUMPI PUSH0 DUP1 REVERT JUMPDEST POP PUSH2 0x40D PUSH2 0x408 CALLDATASIZE PUSH1 0x4 PUSH2 0x49A2 JUMP JUMPDEST PUSH2 0x17AF JUMP JUMPDEST PUSH1 0x40 MLOAD PUSH2 0x24B SWAP6 SWAP5 SWAP4 SWAP3 SWAP2 SWAP1 PUSH2 0x4A7A JUMP JUMPDEST PUSH2 0x2A2 PUSH2 0x42C CALLDATASIZE PUSH1 0x4 PUSH2 0x4B94 JUMP JUMPDEST PUSH2 0x188A JUMP JUMPDEST CALLVALUE DUP1 ISZERO PUSH2 0x43C JUMPI PUSH0 DUP1 REVERT JUMPDEST POP PUSH2 0x2A2 PUSH2 0x44B CALLDATASIZE PUSH1 0x4 PUSH2 0x4A52 JUMP JUMPDEST PUSH2 0x1C4E JUMP JUMPDEST CALLVALUE DUP1 ISZERO PUSH2 0x45B JUMPI PUSH0 DUP1 REVERT JUMPDEST POP PUSH2 0x2A2 PUSH2 0x1FA4 JUMP JUMPDEST CALLVALUE DUP1 ISZERO PUSH2 0x46F JUMPI PUSH0 DUP1 REVERT JUMPDEST POP PUSH1 0x8 SLOAD PUSH2 0x2E2 SWAP1 PUSH1 0x1 PUSH1 0x1 PUSH1 0xA0 SHL SUB AND DUP2 JUMP JUMPDEST CALLVALUE DUP1 ISZERO PUSH2 0x48E JUMPI PUSH0 DUP1 REVERT JUMPDEST POP PUSH2 0x2A2 PUSH2 0x49D CALLDATASIZE PUSH1 0x4 PUSH2 0x4C06 JUMP JUMPDEST PUSH2 0x1FED JUMP JUMPDEST CALLVALUE DUP1 ISZERO PUSH2 0x4AD JUMPI PUSH0 DUP1 REVERT JUMPDEST POP PUSH2 0x2FF PUSH2 0x4BC CALLDATASIZE PUSH1 0x4 PUSH2 0x4C5F JUMP JUMPDEST PUSH2 0x2065 JUMP JUMPDEST CALLVALUE DUP1 ISZERO PUSH2 0x4CC JUMPI PUSH0 DUP1 REVERT JUMPDEST POP PUSH2 0x273 PUSH2 0x2192 JUMP JUMPDEST CALLVALUE DUP1 ISZERO PUSH2 0x4E0 JUMPI PUSH0 DUP1 REVERT JUMPDEST POP PUSH2 0x2A2 PUSH2 0x4EF CALLDATASIZE PUSH1 0x4 PUSH2 0x4D3B JUMP JUMPDEST PUSH2 0x21A1 JUMP JUMPDEST CALLVALUE DUP1 ISZERO PUSH2 0x4FF JUMPI PUSH0 DUP1 REVERT JUMPDEST POP PUSH2 0x2A2 PUSH2 0x2569 JUMP JUMPDEST CALLVALUE DUP1 ISZERO PUSH2 0x513 JUMPI PUSH0 DUP1 REVERT JUMPDEST POP PUSH2 0x2FF PUSH2 0x522 CALLDATASIZE PUSH1 0x4 PUSH2 0x4A52 JUMP JUMPDEST PUSH1 0x1 PUSH1 0x1 PUSH1 0xA0 SHL SUB AND PUSH0 SWAP1 DUP2 MSTORE PUSH1 0x1 PUSH1 0x20 MSTORE PUSH1 0x40 SWAP1 KECCAK256 SLOAD SWAP1 JUMP JUMPDEST CALLVALUE DUP1 ISZERO PUSH2 0x547 JUMPI PUSH0 DUP1 REVERT JUMPDEST POP PUSH2 0x2A2 PUSH2 0x268C JUMP JUMPDEST CALLVALUE DUP1 ISZERO PUSH2 0x55B JUMPI PUSH0 DUP1 REVERT JUMPDEST POP PUSH2 0x2A2 PUSH2 0x56A CALLDATASIZE PUSH1 0x4 PUSH2 0x4C5F JUMP JUMPDEST PUSH2 0x269F JUMP JUMPDEST CALLVALUE DUP1 ISZERO PUSH2 0x57A JUMPI PUSH0 DUP1 REVERT JUMPDEST POP PUSH2 0x2A2 PUSH2 0x28F8 JUMP JUMPDEST CALLVALUE DUP1 ISZERO PUSH2 0x58E JUMPI PUSH0 DUP1 REVERT JUMPDEST POP PUSH2 0x2FF PUSH1 0xB SLOAD DUP2 JUMP JUMPDEST CALLVALUE DUP1 ISZERO PUSH2 0x5A3 JUMPI PUSH0 DUP1 REVERT JUMPDEST POP PUSH2 0x2FF PUSH1 0xC SLOAD DUP2 JUMP JUMPDEST CALLVALUE DUP1 ISZERO PUSH2 0x5B8 JUMPI PUSH0 DUP1 REVERT JUMPDEST POP PUSH2 0x2E2 PUSH2 0x2937 JUMP JUMPDEST CALLVALUE DUP1 ISZERO PUSH2 0x5CC JUMPI PUSH0 DUP1 REVERT JUMPDEST POP PUSH2 0x5E0 PUSH2 0x5DB CALLDATASIZE PUSH1 0x4 PUSH2 0x4A52 JUMP JUMPDEST PUSH2 0x2945 JUMP JUMPDEST PUSH1 0x40 MLOAD PUSH2 0x24B SWAP2 SWAP1 PUSH2 0x4E05 JUMP JUMPDEST CALLVALUE DUP1 ISZERO PUSH2 0x5F8 JUMPI PUSH0 DUP1 REVERT JUMPDEST POP PUSH2 0x23E PUSH2 0x2B55 JUMP JUMPDEST CALLVALUE DUP1 ISZERO PUSH2 0x60C JUMPI PUSH0 DUP1 REVERT JUMPDEST POP PUSH2 0x273 PUSH2 0x61B CALLDATASIZE PUSH1 0x4 PUSH2 0x4A52 JUMP JUMPDEST PUSH1 0xE PUSH1 0x20 MSTORE PUSH0 SWAP1 DUP2 MSTORE PUSH1 0x40 SWAP1 KECCAK256 SLOAD PUSH1 0xFF AND DUP2 JUMP JUMPDEST CALLVALUE DUP1 ISZERO PUSH2 0x63A JUMPI PUSH0 DUP1 REVERT JUMPDEST POP PUSH2 0x2A2 PUSH2 0x649 CALLDATASIZE PUSH1 0x4 PUSH2 0x4B94 JUMP JUMPDEST PUSH2 0x2B64 JUMP JUMPDEST CALLVALUE DUP1 ISZERO PUSH2 0x659 JUMPI PUSH0 DUP1 REVERT JUMPDEST POP PUSH2 0x2A2 PUSH2 0x668 CALLDATASIZE PUSH1 0x4 PUSH2 0x4A52 JUMP JUMPDEST PUSH2 0x2CCE JUMP JUMPDEST CALLVALUE DUP1 ISZERO PUSH2 0x678 JUMPI PUSH0 DUP1 REVERT JUMPDEST POP PUSH2 0x273 PUSH2 0x687 CALLDATASIZE PUSH1 0x4 PUSH2 0x4958 JUMP JUMPDEST PUSH2 0x2DFC JUMP JUMPDEST CALLVALUE DUP1 ISZERO PUSH2 0x697 JUMPI PUSH0 DUP1 REVERT JUMPDEST POP PUSH2 0x2FF PUSH2 0x6A6 CALLDATASIZE PUSH1 0x4 PUSH2 0x4A52 JUMP JUMPDEST PUSH1 0x11 PUSH1 0x20 MSTORE PUSH0 SWAP1 DUP2 MSTORE PUSH1 0x40 SWAP1 KECCAK256 SLOAD DUP2 JUMP JUMPDEST CALLVALUE DUP1 ISZERO PUSH2 0x6C2 JUMPI PUSH0 DUP1 REVERT JUMPDEST POP PUSH2 0x2FF PUSH2 0x6D1 CALLDATASIZE PUSH1 0x4 PUSH2 0x4EB3 JUMP JUMPDEST PUSH2 0x2E09 JUMP JUMPDEST CALLVALUE DUP1 ISZERO PUSH2 0x6E1 JUMPI PUSH0 DUP1 REVERT JUMPDEST POP PUSH2 0x2FF PUSH1 0xA SLOAD DUP2 JUMP JUMPDEST CALLVALUE DUP1 ISZERO PUSH2 0x6F6 JUMPI PUSH0 DUP1 REVERT JUMPDEST POP PUSH2 0x70A PUSH2 0x705 CALLDATASIZE PUSH1 0x4 PUSH2 0x4F07 JUMP JUMPDEST PUSH2 0x2E82 JUMP JUMPDEST PUSH1 0x40 MLOAD PUSH2 0x24B SWAP2 SWAP1 PUSH2 0x4FAC JUMP JUMPDEST PUSH2 0x2A2 PUSH2 0x2EF6 JUMP JUMPDEST CALLVALUE DUP1 ISZERO PUSH2 0x72A JUMPI PUSH0 DUP1 REVERT JUMPDEST POP PUSH2 0x2FF PUSH2 0x739 CALLDATASIZE PUSH1 0x4 PUSH2 0x4FEE JUMP JUMPDEST PUSH2 0x32CB JUMP JUMPDEST CALLVALUE DUP1 ISZERO PUSH2 0x749 JUMPI PUSH0 DUP1 REVERT JUMPDEST POP PUSH2 0x2E2 PUSH2 0x32F5 JUMP JUMPDEST CALLVALUE DUP1 ISZERO PUSH2 0x75D JUMPI PUSH0 DUP1 REVERT JUMPDEST POP PUSH2 0x2FF PUSH2 0x76C CALLDATASIZE PUSH1 0x4 PUSH2 0x4B94 JUMP JUMPDEST PUSH2 0x3365 JUMP JUMPDEST CALLVALUE DUP1 ISZERO PUSH2 0x77C JUMPI PUSH0 DUP1 REVERT JUMPDEST POP PUSH2 0x2A2 PUSH2 0x78B CALLDATASIZE PUSH1 0x4 PUSH2 0x4A52 JUMP JUMPDEST PUSH2 0x36F1 JUMP JUMPDEST CALLVALUE DUP1 ISZERO PUSH2 0x79B JUMPI PUSH0 DUP1 REVERT JUMPDEST POP PUSH2 0x2FF PUSH2 0x7AA CALLDATASIZE PUSH1 0x4 PUSH2 0x501A JUMP JUMPDEST PUSH2 0x372B JUMP JUMPDEST CALLVALUE DUP1 ISZERO PUSH2 0x7BA JUMPI PUSH0 DUP1 REVERT JUMPDEST POP PUSH2 0x2A2 PUSH2 0x3905 JUMP JUMPDEST PUSH1 0x60 PUSH1 0x4 DUP1 SLOAD PUSH2 0x7D2 SWAP1 PUSH2 0x5073 JUMP JUMPDEST DUP1 PUSH1 0x1F ADD PUSH1 0x20 DUP1 SWAP2 DIV MUL PUSH1 0x20 ADD PUSH1 0x40 MLOAD SWAP1 DUP2 ADD PUSH1 0x40 MSTORE DUP1 SWAP3 SWAP2 SWAP1 DUP2 DUP2 MSTORE PUSH1 0x20 ADD DUP3 DUP1 SLOAD PUSH2 0x7FE SWAP1 PUSH2 0x5073 JUMP JUMPDEST DUP1 ISZERO PUSH2 0x849 JUMPI DUP1 PUSH1 0x1F LT PUSH2 0x820 JUMPI PUSH2 0x100 DUP1 DUP4 SLOAD DIV MUL DUP4 MSTORE SWAP2 PUSH1 0x20 ADD SWAP2 PUSH2 0x849 JUMP JUMPDEST DUP3 ADD SWAP2 SWAP1 PUSH0 MSTORE PUSH1 0x20 PUSH0 KECCAK256 SWAP1 JUMPDEST DUP2 SLOAD DUP2 MSTORE SWAP1 PUSH1 0x1 ADD SWAP1 PUSH1 0x20 ADD DUP1 DUP4 GT PUSH2 0x82C JUMPI DUP3 SWAP1 SUB PUSH1 0x1F AND DUP3 ADD SWAP2 JUMPDEST POP POP POP POP POP SWAP1 POP SWAP1 JUMP JUMPDEST PUSH0 CALLER PUSH2 0x860 DUP2 DUP6 DUP6 PUSH2 0x3CC6 JUMP JUMPDEST PUSH1 0x1 SWAP2 POP POP JUMPDEST SWAP3 SWAP2 POP POP JUMP JUMPDEST PUSH2 0x874 PUSH2 0x3CD3 JUMP JUMPDEST PUSH2 0x2710 DUP3 GT ISZERO PUSH2 0x8B3 JUMPI PUSH1 0x40 MLOAD PUSH3 0x461BCD PUSH1 0xE5 SHL DUP2 MSTORE PUSH1 0x20 PUSH1 0x4 DUP3 ADD MSTORE PUSH1 0x5 PUSH1 0x24 DUP3 ADD MSTORE PUSH5 0x2164666565 PUSH1 0xD8 SHL PUSH1 0x44 DUP3 ADD MSTORE PUSH1 0x64 ADD JUMPDEST PUSH1 0x40 MLOAD DUP1 SWAP2 SUB SWAP1 REVERT JUMPDEST PUSH2 0x2710 DUP2 GT ISZERO PUSH2 0x8ED JUMPI PUSH1 0x40 MLOAD PUSH3 0x461BCD PUSH1 0xE5 SHL DUP2 MSTORE PUSH1 0x20 PUSH1 0x4 DUP3 ADD MSTORE PUSH1 0x5 PUSH1 0x24 DUP3 ADD MSTORE PUSH5 0x2177666565 PUSH1 0xD8 SHL PUSH1 0x44 DUP3 ADD MSTORE PUSH1 0x64 ADD PUSH2 0x8AA JUMP JUMPDEST PUSH1 0x12 SWAP2 SWAP1 SWAP2 SSTORE PUSH1 0x13 SSTORE JUMP JUMPDEST PUSH2 0x2710 DUP2 GT ISZERO PUSH2 0x933 JUMPI PUSH1 0x40 MLOAD PUSH3 0x461BCD PUSH1 0xE5 SHL DUP2 MSTORE PUSH1 0x4 ADD PUSH2 0x8AA SWAP1 PUSH1 0x20 DUP1 DUP3 MSTORE PUSH1 0x4 SWAP1 DUP3 ADD MSTORE PUSH4 0x21534C5 PUSH1 0xE4 SHL PUSH1 0x40 DUP3 ADD MSTORE PUSH1 0x60 ADD SWAP1 JUMP JUMPDEST PUSH1 0xA SSTORE JUMP JUMPDEST PUSH0 CALLER PUSH2 0x945 DUP6 DUP3 DUP6 PUSH2 0x3D05 JUMP JUMPDEST PUSH2 0x950 DUP6 DUP6 DUP6 PUSH2 0x3D4F JUMP JUMPDEST POP PUSH1 0x1 SWAP5 SWAP4 POP POP POP POP JUMP JUMPDEST PUSH2 0x963 PUSH2 0x3DAC JUMP JUMPDEST PUSH0 DUP2 GT PUSH2 0x982 JUMPI PUSH1 0x40 MLOAD PUSH3 0x461BCD PUSH1 0xE5 SHL DUP2 MSTORE PUSH1 0x4 ADD PUSH2 0x8AA SWAP1 PUSH2 0x50AB JUMP JUMPDEST PUSH1 0x40 MLOAD PUSH4 0x70A08231 PUSH1 0xE0 SHL DUP2 MSTORE DUP2 SWAP1 ADDRESS SWAP1 PUSH4 0x70A08231 SWAP1 PUSH2 0x9A7 SWAP1 CALLER SWAP1 PUSH1 0x4 ADD PUSH2 0x49B9 JUMP JUMPDEST PUSH1 0x20 PUSH1 0x40 MLOAD DUP1 DUP4 SUB DUP2 DUP7 GAS STATICCALL ISZERO DUP1 ISZERO PUSH2 0x9C2 JUMPI RETURNDATASIZE PUSH0 DUP1 RETURNDATACOPY RETURNDATASIZE PUSH0 REVERT JUMPDEST POP POP POP POP PUSH1 0x40 MLOAD RETURNDATASIZE PUSH1 0x1F NOT PUSH1 0x1F DUP3 ADD AND DUP3 ADD DUP1 PUSH1 0x40 MSTORE POP DUP2 ADD SWAP1 PUSH2 0x9E6 SWAP2 SWAP1 PUSH2 0x50C7 JUMP JUMPDEST LT ISZERO PUSH2 0xA24 JUMPI PUSH1 0x40 MLOAD PUSH3 0x461BCD PUSH1 0xE5 SHL DUP2 MSTORE PUSH1 0x20 PUSH1 0x4 DUP3 ADD MSTORE PUSH1 0xD PUSH1 0x24 DUP3 ADD MSTORE PUSH13 0x8525B9CDD59999A58DA595B9D PUSH1 0x9A SHL PUSH1 0x44 DUP3 ADD MSTORE PUSH1 0x64 ADD PUSH2 0x8AA JUMP JUMPDEST PUSH0 PUSH2 0xA2E PUSH1 0x3 SLOAD SWAP1 JUMP JUMPDEST PUSH2 0xA3A DUP4 PUSH2 0x2710 PUSH2 0x50F2 JUMP JUMPDEST PUSH2 0xA44 SWAP2 SWAP1 PUSH2 0x5109 JUMP JUMPDEST SWAP1 POP PUSH0 DUP2 GT DUP1 ISZERO PUSH2 0xA57 JUMPI POP PUSH2 0x2710 DUP2 GT ISZERO JUMPDEST PUSH2 0xA73 JUMPI PUSH1 0x40 MLOAD PUSH3 0x461BCD PUSH1 0xE5 SHL DUP2 MSTORE PUSH1 0x4 ADD PUSH2 0x8AA SWAP1 PUSH2 0x5128 JUMP JUMPDEST PUSH1 0x6 SLOAD PUSH1 0x40 DUP1 MLOAD PUSH4 0x15AB88C9 PUSH1 0xE3 SHL DUP2 MSTORE SWAP1 MLOAD PUSH0 SWAP3 PUSH1 0x1 PUSH1 0x1 PUSH1 0xA0 SHL SUB AND SWAP2 PUSH4 0xAD5C4648 SWAP2 PUSH1 0x4 DUP1 DUP4 ADD SWAP3 PUSH1 0x20 SWAP3 SWAP2 SWAP1 DUP3 SWAP1 SUB ADD DUP2 DUP7 GAS STATICCALL ISZERO DUP1 ISZERO PUSH2 0xABA JUMPI RETURNDATASIZE PUSH0 DUP1 RETURNDATACOPY RETURNDATASIZE PUSH0 REVERT JUMPDEST POP POP POP POP PUSH1 0x40 MLOAD RETURNDATASIZE PUSH1 0x1F NOT PUSH1 0x1F DUP3 ADD AND DUP3 ADD DUP1 PUSH1 0x40 MSTORE POP DUP2 ADD SWAP1 PUSH2 0xADE SWAP2 SWAP1 PUSH2 0x5149 JUMP JUMPDEST SWAP1 POP PUSH0 DUP1 PUSH0 JUMPDEST PUSH1 0x10 SLOAD DUP2 LT ISZERO PUSH2 0xCA0 JUMPI PUSH0 PUSH1 0x10 DUP3 DUP2 SLOAD DUP2 LT PUSH2 0xB02 JUMPI PUSH2 0xB02 PUSH2 0x5164 JUMP JUMPDEST PUSH0 SWAP2 DUP3 MSTORE PUSH1 0x20 DUP3 KECCAK256 PUSH1 0x4 SWAP2 DUP3 MUL ADD DUP1 SLOAD PUSH1 0x40 MLOAD PUSH4 0x70A08231 PUSH1 0xE0 SHL DUP2 MSTORE SWAP2 SWAP5 POP PUSH2 0x2710 SWAP3 DUP11 SWAP3 PUSH1 0x1 PUSH1 0x1 PUSH1 0xA0 SHL SUB SWAP1 SWAP3 AND SWAP2 PUSH4 0x70A08231 SWAP2 PUSH2 0xB46 SWAP2 ADDRESS SWAP2 ADD PUSH2 0x49B9 JUMP JUMPDEST PUSH1 0x20 PUSH1 0x40 MLOAD DUP1 DUP4 SUB DUP2 DUP7 GAS STATICCALL ISZERO DUP1 ISZERO PUSH2 0xB61 JUMPI RETURNDATASIZE PUSH0 DUP1 RETURNDATACOPY RETURNDATASIZE PUSH0 REVERT JUMPDEST POP POP POP POP PUSH1 0x40 MLOAD RETURNDATASIZE PUSH1 0x1F NOT PUSH1 0x1F DUP3 ADD AND DUP3 ADD DUP1 PUSH1 0x40 MSTORE POP DUP2 ADD SWAP1 PUSH2 0xB85 SWAP2 SWAP1 PUSH2 0x50C7 JUMP JUMPDEST PUSH2 0xB8F SWAP2 SWAP1 PUSH2 0x50F2 JUMP JUMPDEST PUSH2 0xB99 SWAP2 SWAP1 PUSH2 0x5109 JUMP JUMPDEST DUP3 SLOAD PUSH1 0x3 DUP5 ADD SLOAD PUSH1 0x40 MLOAD PUSH4 0xE7AE65AB PUSH1 0xE0 SHL DUP2 MSTORE SWAP3 SWAP4 POP PUSH0 SWAP3 ADDRESS SWAP3 PUSH4 0xE7AE65AB SWAP3 PUSH2 0xBE1 SWAP3 PUSH1 0x1 PUSH1 0x1 PUSH1 0xA0 SHL SUB SWAP1 SWAP3 AND SWAP2 DUP8 SWAP2 PUSH1 0x2 DUP11 ADD SWAP2 PUSH3 0xFFFFFF SWAP1 SWAP2 AND SWAP1 PUSH1 0x4 ADD PUSH2 0x5178 JUMP JUMPDEST PUSH1 0x20 PUSH1 0x40 MLOAD DUP1 DUP4 SUB DUP2 PUSH0 DUP8 GAS CALL ISZERO DUP1 ISZERO PUSH2 0xBFD JUMPI RETURNDATASIZE PUSH0 DUP1 RETURNDATACOPY RETURNDATASIZE PUSH0 REVERT JUMPDEST POP POP POP POP PUSH1 0x40 MLOAD RETURNDATASIZE PUSH1 0x1F NOT PUSH1 0x1F DUP3 ADD AND DUP3 ADD DUP1 PUSH1 0x40 MSTORE POP DUP2 ADD SWAP1 PUSH2 0xC21 SWAP2 SWAP1 PUSH2 0x50C7 JUMP JUMPDEST SWAP1 POP PUSH1 0x40 MLOAD PUSH1 0x20 ADD PUSH2 0xC32 SWAP1 PUSH2 0x5221 JUMP JUMPDEST PUSH1 0x40 MLOAD PUSH1 0x20 DUP2 DUP4 SUB SUB DUP2 MSTORE SWAP1 PUSH1 0x40 MSTORE DUP1 MLOAD SWAP1 PUSH1 0x20 ADD KECCAK256 DUP4 PUSH1 0x2 ADD PUSH1 0x40 MLOAD PUSH1 0x20 ADD PUSH2 0xC5C SWAP2 SWAP1 PUSH2 0x522F JUMP JUMPDEST PUSH1 0x40 MLOAD PUSH1 0x20 DUP2 DUP4 SUB SUB DUP2 MSTORE SWAP1 PUSH1 0x40 MSTORE DUP1 MLOAD SWAP1 PUSH1 0x20 ADD KECCAK256 SUB PUSH2 0xC88 JUMPI PUSH2 0xC81 DUP2 DUP7 PUSH2 0x52A0 JUMP JUMPDEST SWAP5 POP PUSH2 0xC95 JUMP JUMPDEST PUSH2 0xC92 DUP2 DUP8 PUSH2 0x52A0 JUMP JUMPDEST SWAP6 POP JUMPDEST POP POP POP PUSH1 0x1 ADD PUSH2 0xAE4 JUMP JUMPDEST POP PUSH2 0xCAB CALLER DUP7 PUSH2 0x3DD2 JUMP JUMPDEST DUP1 ISZERO PUSH2 0xD64 JUMPI PUSH0 PUSH2 0x2710 PUSH1 0x13 SLOAD DUP4 PUSH2 0xCC3 SWAP2 SWAP1 PUSH2 0x50F2 JUMP JUMPDEST PUSH2 0xCCD SWAP2 SWAP1 PUSH2 0x5109 JUMP JUMPDEST SWAP1 POP PUSH0 PUSH2 0xCDA DUP3 DUP5 PUSH2 0x52B3 JUMP JUMPDEST SWAP1 POP DUP2 PUSH1 0x15 PUSH0 DUP3 DUP3 SLOAD PUSH2 0xCED SWAP2 SWAP1 PUSH2 0x52A0 JUMP JUMPDEST SWAP1 SWAP2 SSTORE POP POP PUSH1 0x40 MLOAD PUSH4 0xA9059CBB PUSH1 0xE0 SHL DUP2 MSTORE PUSH1 0x1 PUSH1 0x1 PUSH1 0xA0 SHL SUB DUP7 AND SWAP1 PUSH4 0xA9059CBB SWAP1 PUSH2 0xD20 SWAP1 CALLER SWAP1 DUP6 SWAP1 PUSH1 0x4 ADD PUSH2 0x52C6 JUMP JUMPDEST PUSH1 0x20 PUSH1 0x40 MLOAD DUP1 DUP4 SUB DUP2 PUSH0 DUP8 GAS CALL ISZERO DUP1 ISZERO PUSH2 0xD3C JUMPI RETURNDATASIZE PUSH0 DUP1 RETURNDATACOPY RETURNDATASIZE PUSH0 REVERT JUMPDEST POP POP POP POP PUSH1 0x40 MLOAD RETURNDATASIZE PUSH1 0x1F NOT PUSH1 0x1F DUP3 ADD AND DUP3 ADD DUP1 PUSH1 0x40 MSTORE POP DUP2 ADD SWAP1 PUSH2 0xD60 SWAP2 SWAP1 PUSH2 0x52DF JUMP JUMPDEST POP POP POP JUMPDEST DUP2 ISZERO PUSH2 0xE59 JUMPI PUSH0 PUSH2 0x2710 PUSH1 0x13 SLOAD DUP5 PUSH2 0xD7C SWAP2 SWAP1 PUSH2 0x50F2 JUMP JUMPDEST PUSH2 0xD86 SWAP2 SWAP1 PUSH2 0x5109 JUMP JUMPDEST SWAP1 POP PUSH0 PUSH2 0xD93 DUP3 DUP6 PUSH2 0x52B3 JUMP JUMPDEST SWAP1 POP DUP2 PUSH1 0x14 PUSH0 DUP3 DUP3 SLOAD PUSH2 0xDA6 SWAP2 SWAP1 PUSH2 0x52A0 JUMP JUMPDEST SWAP1 SWAP2 SSTORE POP POP CALLER PUSH0 SWAP1 DUP2 MSTORE PUSH1 0x11 PUSH1 0x20 MSTORE PUSH1 0x40 DUP2 KECCAK256 SLOAD SWAP1 PUSH2 0xDC5 DUP4 DUP4 PUSH2 0x52A0 JUMP JUMPDEST PUSH1 0x40 MLOAD SWAP1 SWAP2 POP PUSH0 SWAP1 CALLER SWAP1 DUP4 SWAP1 DUP4 DUP2 DUP2 DUP2 DUP6 DUP8 GAS CALL SWAP3 POP POP POP RETURNDATASIZE DUP1 PUSH0 DUP2 EQ PUSH2 0xE07 JUMPI PUSH1 0x40 MLOAD SWAP2 POP PUSH1 0x1F NOT PUSH1 0x3F RETURNDATASIZE ADD AND DUP3 ADD PUSH1 0x40 MSTORE RETURNDATASIZE DUP3 MSTORE RETURNDATASIZE PUSH0 PUSH1 0x20 DUP5 ADD RETURNDATACOPY PUSH2 0xE0C JUMP JUMPDEST PUSH1 0x60 SWAP2 POP JUMPDEST POP POP SWAP1 POP DUP1 PUSH2 0xE53 JUMPI PUSH1 0x40 MLOAD PUSH3 0x461BCD PUSH1 0xE5 SHL DUP2 MSTORE PUSH1 0x20 PUSH1 0x4 DUP3 ADD MSTORE PUSH1 0x13 PUSH1 0x24 DUP3 ADD MSTORE PUSH19 0x115512081D1C985B9CD9995C8819985A5B1959 PUSH1 0x6A SHL PUSH1 0x44 DUP3 ADD MSTORE PUSH1 0x64 ADD PUSH2 0x8AA JUMP JUMPDEST POP POP POP POP POP JUMPDEST POP POP POP POP POP JUMP JUMPDEST PUSH2 0xE68 PUSH2 0x3DAC JUMP JUMPDEST PUSH0 DUP2 GT PUSH2 0xE87 JUMPI PUSH1 0x40 MLOAD PUSH3 0x461BCD PUSH1 0xE5 SHL DUP2 MSTORE PUSH1 0x4 ADD PUSH2 0x8AA SWAP1 PUSH2 0x50AB JUMP JUMPDEST PUSH1 0x40 MLOAD PUSH4 0x70A08231 PUSH1 0xE0 SHL DUP2 MSTORE DUP2 SWAP1 ADDRESS SWAP1 PUSH4 0x70A08231 SWAP1 PUSH2 0xEAC SWAP1 CALLER SWAP1 PUSH1 0x4 ADD PUSH2 0x49B9 JUMP JUMPDEST PUSH1 0x20 PUSH1 0x40 MLOAD DUP1 DUP4 SUB DUP2 DUP7 GAS STATICCALL ISZERO DUP1 ISZERO PUSH2 0xEC7 JUMPI RETURNDATASIZE PUSH0 DUP1 RETURNDATACOPY RETURNDATASIZE PUSH0 REVERT JUMPDEST POP POP POP POP PUSH1 0x40 MLOAD RETURNDATASIZE PUSH1 0x1F NOT PUSH1 0x1F DUP3 ADD AND DUP3 ADD DUP1 PUSH1 0x40 MSTORE POP DUP2 ADD SWAP1 PUSH2 0xEEB SWAP2 SWAP1 PUSH2 0x50C7 JUMP JUMPDEST LT ISZERO PUSH2 0xF28 JUMPI PUSH1 0x40 MLOAD PUSH3 0x461BCD PUSH1 0xE5 SHL DUP2 MSTORE PUSH1 0x20 PUSH1 0x4 DUP3 ADD MSTORE PUSH1 0xC PUSH1 0x24 DUP3 ADD MSTORE PUSH12 0x125B9CDD59999A58DA595B9D PUSH1 0xA2 SHL PUSH1 0x44 DUP3 ADD MSTORE PUSH1 0x64 ADD PUSH2 0x8AA JUMP JUMPDEST PUSH0 PUSH2 0xF32 PUSH1 0x3 SLOAD SWAP1 JUMP JUMPDEST PUSH2 0xF3E DUP4 PUSH2 0x2710 PUSH2 0x50F2 JUMP JUMPDEST PUSH2 0xF48 SWAP2 SWAP1 PUSH2 0x5109 JUMP JUMPDEST SWAP1 POP PUSH0 DUP2 GT DUP1 ISZERO PUSH2 0xF5B JUMPI POP PUSH2 0x2710 DUP2 GT ISZERO JUMPDEST PUSH2 0xF77 JUMPI PUSH1 0x40 MLOAD PUSH3 0x461BCD PUSH1 0xE5 SHL DUP2 MSTORE PUSH1 0x4 ADD PUSH2 0x8AA SWAP1 PUSH2 0x5128 JUMP JUMPDEST PUSH0 JUMPDEST PUSH1 0x10 SLOAD DUP2 LT ISZERO PUSH2 0x1508 JUMPI PUSH0 PUSH1 0x10 DUP3 DUP2 SLOAD DUP2 LT PUSH2 0xF97 JUMPI PUSH2 0xF97 PUSH2 0x5164 JUMP JUMPDEST PUSH0 SWAP2 DUP3 MSTORE PUSH1 0x20 DUP3 KECCAK256 PUSH1 0x4 SWAP2 DUP3 MUL ADD DUP1 SLOAD PUSH1 0x40 MLOAD PUSH4 0x70A08231 PUSH1 0xE0 SHL DUP2 MSTORE SWAP2 SWAP5 POP PUSH2 0x2710 SWAP3 DUP8 SWAP3 PUSH1 0x1 PUSH1 0x1 PUSH1 0xA0 SHL SUB SWAP1 SWAP3 AND SWAP2 PUSH4 0x70A08231 SWAP2 PUSH2 0xFDB SWAP2 ADDRESS SWAP2 ADD PUSH2 0x49B9 JUMP JUMPDEST PUSH1 0x20 PUSH1 0x40 MLOAD DUP1 DUP4 SUB DUP2 DUP7 GAS STATICCALL ISZERO DUP1 ISZERO PUSH2 0xFF6 JUMPI RETURNDATASIZE PUSH0 DUP1 RETURNDATACOPY RETURNDATASIZE PUSH0 REVERT JUMPDEST POP POP POP POP PUSH1 0x40 MLOAD RETURNDATASIZE PUSH1 0x1F NOT PUSH1 0x1F DUP3 ADD AND DUP3 ADD DUP1 PUSH1 0x40 MSTORE POP DUP2 ADD SWAP1 PUSH2 0x101A SWAP2 SWAP1 PUSH2 0x50C7 JUMP JUMPDEST PUSH2 0x1024 SWAP2 SWAP1 PUSH2 0x50F2 JUMP JUMPDEST PUSH2 0x102E SWAP2 SWAP1 PUSH2 0x5109 JUMP JUMPDEST SWAP1 POP PUSH0 PUSH2 0x2710 PUSH1 0x13 SLOAD DUP4 PUSH2 0x1042 SWAP2 SWAP1 PUSH2 0x50F2 JUMP JUMPDEST PUSH2 0x104C SWAP2 SWAP1 PUSH2 0x5109 JUMP JUMPDEST SWAP1 POP PUSH0 PUSH2 0x1059 DUP3 DUP5 PUSH2 0x52B3 JUMP JUMPDEST DUP5 SLOAD PUSH1 0x40 MLOAD PUSH4 0xA9059CBB PUSH1 0xE0 SHL DUP2 MSTORE SWAP2 SWAP3 POP PUSH1 0x1 PUSH1 0x1 PUSH1 0xA0 SHL SUB AND SWAP1 PUSH4 0xA9059CBB SWAP1 PUSH2 0x108B SWAP1 CALLER SWAP1 DUP6 SWAP1 PUSH1 0x4 ADD PUSH2 0x52C6 JUMP JUMPDEST PUSH1 0x20 PUSH1 0x40 MLOAD DUP1 DUP4 SUB DUP2 PUSH0 DUP8 GAS CALL ISZERO DUP1 ISZERO PUSH2 0x10A7 JUMPI RETURNDATASIZE PUSH0 DUP1 RETURNDATACOPY RETURNDATASIZE PUSH0 REVERT JUMPDEST POP POP POP POP PUSH1 0x40 MLOAD RETURNDATASIZE PUSH1 0x1F NOT PUSH1 0x1F DUP3 ADD AND DUP3 ADD DUP1 PUSH1 0x40 MSTORE POP DUP2 ADD SWAP1 PUSH2 0x10CB SWAP2 SWAP1 PUSH2 0x52DF JUMP JUMPDEST POP PUSH1 0x40 MLOAD PUSH1 0x20 ADD PUSH2 0x10DB SWAP1 PUSH2 0x52FA JUMP JUMPDEST PUSH1 0x40 MLOAD PUSH1 0x20 DUP2 DUP4 SUB SUB DUP2 MSTORE SWAP1 PUSH1 0x40 MSTORE DUP1 MLOAD SWAP1 PUSH1 0x20 ADD KECCAK256 DUP5 PUSH1 0x2 ADD PUSH1 0x40 MLOAD PUSH1 0x20 ADD PUSH2 0x1105 SWAP2 SWAP1 PUSH2 0x522F JUMP JUMPDEST PUSH1 0x40 MLOAD PUSH1 0x20 DUP2 DUP4 SUB SUB DUP2 MSTORE SWAP1 PUSH1 0x40 MSTORE DUP1 MLOAD SWAP1 PUSH1 0x20 ADD KECCAK256 SUB PUSH2 0x12ED JUMPI PUSH1 0x40 DUP1 MLOAD PUSH1 0x2 DUP1 DUP3 MSTORE PUSH1 0x60 DUP3 ADD DUP4 MSTORE PUSH0 SWAP3 PUSH1 0x20 DUP4 ADD SWAP1 DUP1 CALLDATASIZE DUP4 CALLDATACOPY POP POP DUP7 SLOAD DUP3 MLOAD SWAP3 SWAP4 POP PUSH1 0x1 PUSH1 0x1 PUSH1 0xA0 SHL SUB AND SWAP2 DUP4 SWAP2 POP PUSH0 SWAP1 PUSH2 0x115E JUMPI PUSH2 0x115E PUSH2 0x5164 JUMP JUMPDEST PUSH1 0x1 PUSH1 0x1 PUSH1 0xA0 SHL SUB SWAP3 DUP4 AND PUSH1 0x20 SWAP2 DUP3 MUL SWAP3 SWAP1 SWAP3 ADD DUP2 ADD SWAP2 SWAP1 SWAP2 MSTORE PUSH1 0x6 SLOAD PUSH1 0x40 DUP1 MLOAD PUSH4 0x15AB88C9 PUSH1 0xE3 SHL DUP2 MSTORE SWAP1 MLOAD SWAP2 SWAP1 SWAP4 AND SWAP3 PUSH4 0xAD5C4648 SWAP3 PUSH1 0x4 DUP1 DUP4 ADD SWAP4 SWAP2 SWAP3 DUP3 SWAP1 SUB ADD DUP2 DUP7 GAS STATICCALL ISZERO DUP1 ISZERO PUSH2 0x11B5 JUMPI RETURNDATASIZE PUSH0 DUP1 RETURNDATACOPY RETURNDATASIZE PUSH0 REVERT JUMPDEST POP POP POP POP PUSH1 0x40 MLOAD RETURNDATASIZE PUSH1 0x1F NOT PUSH1 0x1F DUP3 ADD AND DUP3 ADD DUP1 PUSH1 0x40 MSTORE POP DUP2 ADD SWAP1 PUSH2 0x11D9 SWAP2 SWAP1 PUSH2 0x5149 JUMP JUMPDEST DUP2 PUSH1 0x1 DUP2 MLOAD DUP2 LT PUSH2 0x11EC JUMPI PUSH2 0x11EC PUSH2 0x5164 JUMP JUMPDEST PUSH1 0x1 PUSH1 0x1 PUSH1 0xA0 SHL SUB SWAP3 DUP4 AND PUSH1 0x20 SWAP2 DUP3 MUL SWAP3 SWAP1 SWAP3 ADD ADD MSTORE PUSH1 0x6 SLOAD PUSH1 0x40 MLOAD PUSH4 0xD06CA61F PUSH1 0xE0 SHL DUP2 MSTORE PUSH0 SWAP3 SWAP2 SWAP1 SWAP2 AND SWAP1 PUSH4 0xD06CA61F SWAP1 PUSH2 0x122F SWAP1 DUP8 SWAP1 DUP7 SWAP1 PUSH1 0x4 ADD PUSH2 0x534B JUMP JUMPDEST PUSH0 PUSH1 0x40 MLOAD DUP1 DUP4 SUB DUP2 DUP7 GAS STATICCALL ISZERO DUP1 ISZERO PUSH2 0x1249 JUMPI RETURNDATASIZE PUSH0 DUP1 RETURNDATACOPY RETURNDATASIZE PUSH0 REVERT JUMPDEST POP POP POP POP PUSH1 0x40 MLOAD RETURNDATASIZE PUSH0 DUP3 RETURNDATACOPY PUSH1 0x1F RETURNDATASIZE SWAP1 DUP2 ADD PUSH1 0x1F NOT AND DUP3 ADD PUSH1 0x40 MSTORE PUSH2 0x1270 SWAP2 SWAP1 DUP2 ADD SWAP1 PUSH2 0x5363 JUMP JUMPDEST SWAP1 POP PUSH0 PUSH2 0x2710 PUSH1 0xA SLOAD PUSH2 0x2710 PUSH2 0x1286 SWAP2 SWAP1 PUSH2 0x52B3 JUMP JUMPDEST DUP4 PUSH1 0x1 DUP2 MLOAD DUP2 LT PUSH2 0x1299 JUMPI PUSH2 0x1299 PUSH2 0x5164 JUMP JUMPDEST PUSH1 0x20 MUL PUSH1 0x20 ADD ADD MLOAD PUSH2 0x12AB SWAP2 SWAP1 PUSH2 0x50F2 JUMP JUMPDEST PUSH2 0x12B5 SWAP2 SWAP1 PUSH2 0x5109 JUMP JUMPDEST DUP8 SLOAD SWAP1 SWAP2 POP PUSH2 0x12CF SWAP1 PUSH1 0x1 PUSH1 0x1 PUSH1 0xA0 SHL SUB AND DUP7 DUP4 ADDRESS PUSH2 0x15C4 JUMP JUMPDEST PUSH1 0x14 PUSH0 DUP3 DUP3 SLOAD PUSH2 0x12DF SWAP2 SWAP1 PUSH2 0x52A0 JUMP JUMPDEST SWAP1 SWAP2 SSTORE POP PUSH2 0x14F8 SWAP4 POP POP POP POP JUMP JUMPDEST PUSH1 0x40 MLOAD PUSH1 0x20 ADD PUSH2 0x12FC SWAP1 PUSH2 0x5221 JUMP JUMPDEST PUSH1 0x40 MLOAD PUSH1 0x20 DUP2 DUP4 SUB SUB DUP2 MSTORE SWAP1 PUSH1 0x40 MSTORE DUP1 MLOAD SWAP1 PUSH1 0x20 ADD KECCAK256 DUP5 PUSH1 0x2 ADD PUSH1 0x40 MLOAD PUSH1 0x20 ADD PUSH2 0x1326 SWAP2 SWAP1 PUSH2 0x522F JUMP JUMPDEST PUSH1 0x40 MLOAD PUSH1 0x20 DUP2 DUP4 SUB SUB DUP2 MSTORE SWAP1 PUSH1 0x40 MSTORE DUP1 MLOAD SWAP1 PUSH1 0x20 ADD KECCAK256 SUB PUSH2 0x14B6 JUMPI DUP4 SLOAD PUSH1 0x3 DUP6 ADD SLOAD PUSH1 0x6 SLOAD PUSH1 0x40 DUP1 MLOAD PUSH4 0x15AB88C9 PUSH1 0xE3 SHL DUP2 MSTORE SWAP1 MLOAD PUSH0 SWAP5 PUSH1 0x1 PUSH1 0x1 PUSH1 0xA0 SHL SUB SWAP1 DUP2 AND SWAP5 PUSH3 0xFFFFFF AND SWAP4 AND SWAP2 PUSH4 0xAD5C4648 SWAP2 PUSH1 0x4 DUP1 DUP4 ADD SWAP3 PUSH1 0x20 SWAP3 SWAP2 SWAP1 DUP3 SWAP1 SUB ADD DUP2 DUP7 GAS STATICCALL ISZERO DUP1 ISZERO PUSH2 0x1399 JUMPI RETURNDATASIZE PUSH0 DUP1 RETURNDATACOPY RETURNDATASIZE PUSH0 REVERT JUMPDEST POP POP POP POP PUSH1 0x40 MLOAD RETURNDATASIZE PUSH1 0x1F NOT PUSH1 0x1F DUP3 ADD AND DUP3 ADD DUP1 PUSH1 0x40 MSTORE POP DUP2 ADD SWAP1 PUSH2 0x13BD SWAP2 SWAP1 PUSH2 0x5149 JUMP JUMPDEST PUSH1 0x40 MLOAD PUSH1 0x20 ADD PUSH2 0x13CF SWAP4 SWAP3 SWAP2 SWAP1 PUSH2 0x53E9 JUMP JUMPDEST PUSH1 0x40 DUP1 MLOAD PUSH1 0x1F NOT DUP2 DUP5 SUB ADD DUP2 MSTORE SWAP1 DUP3 SWAP1 MSTORE PUSH1 0x8 SLOAD PUSH4 0xCDCA1753 PUSH1 0xE0 SHL DUP4 MSTORE SWAP1 SWAP3 POP PUSH0 SWAP2 PUSH1 0x1 PUSH1 0x1 PUSH1 0xA0 SHL SUB SWAP1 SWAP2 AND SWAP1 PUSH4 0xCDCA1753 SWAP1 PUSH2 0x1414 SWAP1 DUP6 SWAP1 DUP9 SWAP1 PUSH1 0x4 ADD PUSH2 0x541F JUMP JUMPDEST PUSH1 0x20 PUSH1 0x40 MLOAD DUP1 DUP4 SUB DUP2 PUSH0 DUP8 GAS CALL ISZERO DUP1 ISZERO PUSH2 0x1430 JUMPI RETURNDATASIZE PUSH0 DUP1 RETURNDATACOPY RETURNDATASIZE PUSH0 REVERT JUMPDEST POP POP POP POP PUSH1 0x40 MLOAD RETURNDATASIZE PUSH1 0x1F NOT PUSH1 0x1F DUP3 ADD AND DUP3 ADD DUP1 PUSH1 0x40 MSTORE POP DUP2 ADD SWAP1 PUSH2 0x1454 SWAP2 SWAP1 PUSH2 0x50C7 JUMP JUMPDEST SWAP1 POP PUSH0 PUSH2 0x2710 PUSH1 0xA SLOAD PUSH2 0x2710 PUSH2 0x146A SWAP2 SWAP1 PUSH2 0x52B3 JUMP JUMPDEST PUSH2 0x1474 SWAP1 DUP5 PUSH2 0x50F2 JUMP JUMPDEST PUSH2 0x147E SWAP2 SWAP1 PUSH2 0x5109 JUMP JUMPDEST DUP8 SLOAD PUSH1 0x3 DUP10 ADD SLOAD SWAP2 SWAP3 POP PUSH2 0x14A6 SWAP2 PUSH1 0x1 PUSH1 0x1 PUSH1 0xA0 SHL SUB SWAP1 SWAP2 AND SWAP1 DUP8 SWAP1 PUSH3 0xFFFFFF AND DUP5 ADDRESS PUSH2 0x372B JUMP JUMPDEST PUSH1 0x15 PUSH0 DUP3 DUP3 SLOAD PUSH2 0x12DF SWAP2 SWAP1 PUSH2 0x52A0 JUMP JUMPDEST PUSH1 0x40 MLOAD PUSH3 0x461BCD PUSH1 0xE5 SHL DUP2 MSTORE PUSH1 0x20 PUSH1 0x4 DUP3 ADD MSTORE PUSH1 0x17 PUSH1 0x24 DUP3 ADD MSTORE PUSH23 0x24B73B30B634B2102AB734B9BBB0B8103B32B939B4B7B7 PUSH1 0x49 SHL PUSH1 0x44 DUP3 ADD MSTORE PUSH1 0x64 ADD PUSH2 0x8AA JUMP JUMPDEST POP POP PUSH1 0x1 SWAP1 SWAP3 ADD SWAP2 POP PUSH2 0xF79 SWAP1 POP JUMP JUMPDEST POP PUSH2 0x1513 CALLER DUP4 PUSH2 0x3DD2 JUMP JUMPDEST CALLER PUSH0 SWAP1 DUP2 MSTORE PUSH1 0x11 PUSH1 0x20 MSTORE PUSH1 0x40 DUP2 KECCAK256 SLOAD PUSH2 0x2710 SWAP1 PUSH2 0x1531 SWAP1 DUP5 SWAP1 PUSH2 0x50F2 JUMP JUMPDEST PUSH2 0x153B SWAP2 SWAP1 PUSH2 0x5109 JUMP JUMPDEST SWAP1 POP DUP1 DUP1 ISZERO PUSH2 0x15BE JUMPI PUSH1 0x40 MLOAD PUSH0 SWAP1 CALLER SWAP1 DUP4 SWAP1 DUP4 DUP2 DUP2 DUP2 DUP6 DUP8 GAS CALL SWAP3 POP POP POP RETURNDATASIZE DUP1 PUSH0 DUP2 EQ PUSH2 0x1583 JUMPI PUSH1 0x40 MLOAD SWAP2 POP PUSH1 0x1F NOT PUSH1 0x3F RETURNDATASIZE ADD AND DUP3 ADD PUSH1 0x40 MSTORE RETURNDATASIZE DUP3 MSTORE RETURNDATASIZE PUSH0 PUSH1 0x20 DUP5 ADD RETURNDATACOPY PUSH2 0x1588 JUMP JUMPDEST PUSH1 0x60 SWAP2 POP JUMPDEST POP POP SWAP1 POP DUP1 PUSH2 0xE59 JUMPI PUSH1 0x40 MLOAD PUSH3 0x461BCD PUSH1 0xE5 SHL DUP2 MSTORE PUSH1 0x20 PUSH1 0x4 DUP3 ADD MSTORE PUSH1 0x2 PUSH1 0x24 DUP3 ADD MSTORE PUSH2 0x2A29 PUSH1 0xF1 SHL PUSH1 0x44 DUP3 ADD MSTORE PUSH1 0x64 ADD PUSH2 0x8AA JUMP JUMPDEST POP POP POP POP JUMP JUMPDEST PUSH1 0x40 DUP1 MLOAD PUSH1 0x2 DUP1 DUP3 MSTORE PUSH1 0x60 DUP3 ADD DUP4 MSTORE PUSH0 SWAP3 DUP4 SWAP3 SWAP2 SWAP1 PUSH1 0x20 DUP4 ADD SWAP1 DUP1 CALLDATASIZE DUP4 CALLDATACOPY ADD SWAP1 POP POP SWAP1 POP DUP6 DUP2 PUSH0 DUP2 MLOAD DUP2 LT PUSH2 0x15FB JUMPI PUSH2 0x15FB PUSH2 0x5164 JUMP JUMPDEST PUSH1 0x1 PUSH1 0x1 PUSH1 0xA0 SHL SUB SWAP3 DUP4 AND PUSH1 0x20 SWAP2 DUP3 MUL SWAP3 SWAP1 SWAP3 ADD DUP2 ADD SWAP2 SWAP1 SWAP2 MSTORE PUSH1 0x6 SLOAD PUSH1 0x40 DUP1 MLOAD PUSH4 0x15AB88C9 PUSH1 0xE3 SHL DUP2 MSTORE SWAP1 MLOAD SWAP2 SWAP1 SWAP4 AND SWAP3 PUSH4 0xAD5C4648 SWAP3 PUSH1 0x4 DUP1 DUP4 ADD SWAP4 SWAP2 SWAP3 DUP3 SWAP1 SUB ADD DUP2 DUP7 GAS STATICCALL ISZERO DUP1 ISZERO PUSH2 0x1652 JUMPI RETURNDATASIZE PUSH0 DUP1 RETURNDATACOPY RETURNDATASIZE PUSH0 REVERT JUMPDEST POP POP POP POP PUSH1 0x40 MLOAD RETURNDATASIZE PUSH1 0x1F NOT PUSH1 0x1F DUP3 ADD AND DUP3 ADD DUP1 PUSH1 0x40 MSTORE POP DUP2 ADD SWAP1 PUSH2 0x1676 SWAP2 SWAP1 PUSH2 0x5149 JUMP JUMPDEST DUP2 PUSH1 0x1 DUP2 MLOAD DUP2 LT PUSH2 0x1689 JUMPI PUSH2 0x1689 PUSH2 0x5164 JUMP JUMPDEST PUSH1 0x1 PUSH1 0x1 PUSH1 0xA0 SHL SUB SWAP3 DUP4 AND PUSH1 0x20 SWAP2 DUP3 MUL SWAP3 SWAP1 SWAP3 ADD ADD MSTORE PUSH1 0x6 SLOAD PUSH1 0x40 MLOAD PUSH4 0x95EA7B3 PUSH1 0xE0 SHL DUP2 MSTORE DUP9 DUP4 AND SWAP3 PUSH4 0x95EA7B3 SWAP3 PUSH2 0x16CA SWAP3 SWAP2 AND SWAP1 DUP10 SWAP1 PUSH1 0x4 ADD PUSH2 0x52C6 JUMP JUMPDEST PUSH1 0x20 PUSH1 0x40 MLOAD DUP1 DUP4 SUB DUP2 PUSH0 DUP8 GAS CALL ISZERO DUP1 ISZERO PUSH2 0x16E6 JUMPI RETURNDATASIZE PUSH0 DUP1 RETURNDATACOPY RETURNDATASIZE PUSH0 REVERT JUMPDEST POP POP POP POP PUSH1 0x40 MLOAD RETURNDATASIZE PUSH1 0x1F NOT PUSH1 0x1F DUP3 ADD AND DUP3 ADD DUP1 PUSH1 0x40 MSTORE POP DUP2 ADD SWAP1 PUSH2 0x170A SWAP2 SWAP1 PUSH2 0x52DF JUMP JUMPDEST POP PUSH1 0x6 SLOAD PUSH1 0x40 MLOAD PUSH4 0x18CBAFE5 PUSH1 0xE0 SHL DUP2 MSTORE PUSH0 SWAP2 PUSH1 0x1 PUSH1 0x1 PUSH1 0xA0 SHL SUB AND SWAP1 PUSH4 0x18CBAFE5 SWAP1 PUSH2 0x1743 SWAP1 DUP10 SWAP1 DUP10 SWAP1 DUP8 SWAP1 DUP11 SWAP1 TIMESTAMP SWAP1 PUSH1 0x4 ADD PUSH2 0x5440 JUMP JUMPDEST PUSH0 PUSH1 0x40 MLOAD DUP1 DUP4 SUB DUP2 PUSH0 DUP8 GAS CALL ISZERO DUP1 ISZERO PUSH2 0x175E JUMPI RETURNDATASIZE PUSH0 DUP1 RETURNDATACOPY RETURNDATASIZE PUSH0 REVERT JUMPDEST POP POP POP POP PUSH1 0x40 MLOAD RETURNDATASIZE PUSH0 DUP3 RETURNDATACOPY PUSH1 0x1F RETURNDATASIZE SWAP1 DUP2 ADD PUSH1 0x1F NOT AND DUP3 ADD PUSH1 0x40 MSTORE PUSH2 0x1785 SWAP2 SWAP1 DUP2 ADD SWAP1 PUSH2 0x5363 JUMP JUMPDEST SWAP1 POP DUP1 PUSH1 0x1 DUP2 MLOAD DUP2 LT PUSH2 0x179A JUMPI PUSH2 0x179A PUSH2 0x5164 JUMP JUMPDEST PUSH1 0x20 MUL PUSH1 0x20 ADD ADD MLOAD SWAP3 POP POP POP JUMPDEST SWAP5 SWAP4 POP POP POP POP JUMP JUMPDEST PUSH1 0x9 DUP2 DUP2 SLOAD DUP2 LT PUSH2 0x17BE JUMPI PUSH0 DUP1 REVERT JUMPDEST PUSH0 SWAP2 DUP3 MSTORE PUSH1 0x20 SWAP1 SWAP2 KECCAK256 PUSH1 0x5 SWAP1 SWAP2 MUL ADD DUP1 SLOAD PUSH1 0x1 DUP3 ADD SLOAD PUSH1 0x2 DUP4 ADD SLOAD PUSH1 0x3 DUP5 ADD DUP1 SLOAD PUSH1 0x1 PUSH1 0x1 PUSH1 0xA0 SHL SUB SWAP5 DUP6 AND SWAP7 POP SWAP3 SWAP1 SWAP4 AND SWAP4 SWAP1 SWAP3 SWAP1 SWAP2 PUSH2 0x17FE SWAP1 PUSH2 0x5073 JUMP JUMPDEST DUP1 PUSH1 0x1F ADD PUSH1 0x20 DUP1 SWAP2 DIV MUL PUSH1 0x20 ADD PUSH1 0x40 MLOAD SWAP1 DUP2 ADD PUSH1 0x40 MSTORE DUP1 SWAP3 SWAP2 SWAP1 DUP2 DUP2 MSTORE PUSH1 0x20 ADD DUP3 DUP1 SLOAD PUSH2 0x182A SWAP1 PUSH2 0x5073 JUMP JUMPDEST DUP1 ISZERO PUSH2 0x1875 JUMPI DUP1 PUSH1 0x1F LT PUSH2 0x184C JUMPI PUSH2 0x100 DUP1 DUP4 SLOAD DIV MUL DUP4 MSTORE SWAP2 PUSH1 0x20 ADD SWAP2 PUSH2 0x1875 JUMP JUMPDEST DUP3 ADD SWAP2 SWAP1 PUSH0 MSTORE PUSH1 0x20 PUSH0 KECCAK256 SWAP1 JUMPDEST DUP2 SLOAD DUP2 MSTORE SWAP1 PUSH1 0x1 ADD SWAP1 PUSH1 0x20 ADD DUP1 DUP4 GT PUSH2 0x1858 JUMPI DUP3 SWAP1 SUB PUSH1 0x1F AND DUP3 ADD SWAP2 JUMPDEST POP POP POP PUSH1 0x4 SWAP1 SWAP4 ADD SLOAD SWAP2 SWAP3 POP POP PUSH3 0xFFFFFF AND DUP6 JUMP JUMPDEST PUSH1 0x40 MLOAD PUSH1 0x20 ADD PUSH2 0x1899 SWAP1 PUSH2 0x52FA JUMP JUMPDEST PUSH1 0x40 MLOAD PUSH1 0x20 DUP2 DUP4 SUB SUB DUP2 MSTORE SWAP1 PUSH1 0x40 MSTORE DUP1 MLOAD SWAP1 PUSH1 0x20 ADD KECCAK256 DUP3 PUSH1 0x40 MLOAD PUSH1 0x20 ADD PUSH2 0x18C0 SWAP2 SWAP1 PUSH2 0x547B JUMP JUMPDEST PUSH1 0x40 MLOAD PUSH1 0x20 DUP2 DUP4 SUB SUB DUP2 MSTORE SWAP1 PUSH1 0x40 MSTORE DUP1 MLOAD SWAP1 PUSH1 0x20 ADD KECCAK256 SUB PUSH2 0x1A8B JUMPI PUSH1 0x40 DUP1 MLOAD PUSH1 0x2 DUP1 DUP3 MSTORE PUSH1 0x60 DUP3 ADD DUP4 MSTORE PUSH0 SWAP3 PUSH1 0x20 DUP4 ADD SWAP1 DUP1 CALLDATASIZE DUP4 CALLDATACOPY POP POP PUSH1 0x6 SLOAD PUSH1 0x40 DUP1 MLOAD PUSH4 0x15AB88C9 PUSH1 0xE3 SHL DUP2 MSTORE SWAP1 MLOAD SWAP4 SWAP5 POP PUSH1 0x1 PUSH1 0x1 PUSH1 0xA0 SHL SUB SWAP1 SWAP2 AND SWAP3 PUSH4 0xAD5C4648 SWAP3 POP PUSH1 0x4 DUP1 DUP4 ADD SWAP3 PUSH1 0x20 SWAP3 SWAP2 SWAP1 DUP3 SWAP1 SUB ADD DUP2 DUP7 GAS STATICCALL ISZERO DUP1 ISZERO PUSH2 0x1942 JUMPI RETURNDATASIZE PUSH0 DUP1 RETURNDATACOPY RETURNDATASIZE PUSH0 REVERT JUMPDEST POP POP POP POP PUSH1 0x40 MLOAD RETURNDATASIZE PUSH1 0x1F NOT PUSH1 0x1F DUP3 ADD AND DUP3 ADD DUP1 PUSH1 0x40 MSTORE POP DUP2 ADD SWAP1 PUSH2 0x1966 SWAP2 SWAP1 PUSH2 0x5149 JUMP JUMPDEST DUP2 PUSH0 DUP2 MLOAD DUP2 LT PUSH2 0x1978 JUMPI PUSH2 0x1978 PUSH2 0x5164 JUMP JUMPDEST PUSH1 0x20 MUL PUSH1 0x20 ADD ADD SWAP1 PUSH1 0x1 PUSH1 0x1 PUSH1 0xA0 SHL SUB AND SWAP1 DUP2 PUSH1 0x1 PUSH1 0x1 PUSH1 0xA0 SHL SUB AND DUP2 MSTORE POP POP DUP5 DUP2 PUSH1 0x1 DUP2 MLOAD DUP2 LT PUSH2 0x19AC JUMPI PUSH2 0x19AC PUSH2 0x5164 JUMP JUMPDEST PUSH1 0x1 PUSH1 0x1 PUSH1 0xA0 SHL SUB SWAP3 DUP4 AND PUSH1 0x20 SWAP2 DUP3 MUL SWAP3 SWAP1 SWAP3 ADD ADD MSTORE PUSH1 0x6 SLOAD PUSH1 0x40 MLOAD PUSH4 0xD06CA61F PUSH1 0xE0 SHL DUP2 MSTORE PUSH0 SWAP3 SWAP2 SWAP1 SWAP2 AND SWAP1 PUSH4 0xD06CA61F SWAP1 PUSH2 0x19EF SWAP1 DUP9 SWAP1 DUP7 SWAP1 PUSH1 0x4 ADD PUSH2 0x534B JUMP JUMPDEST PUSH0 PUSH1 0x40 MLOAD DUP1 DUP4 SUB DUP2 DUP7 GAS STATICCALL ISZERO DUP1 ISZERO PUSH2 0x1A09 JUMPI RETURNDATASIZE PUSH0 DUP1 RETURNDATACOPY RETURNDATASIZE PUSH0 REVERT JUMPDEST POP POP POP POP PUSH1 0x40 MLOAD RETURNDATASIZE PUSH0 DUP3 RETURNDATACOPY PUSH1 0x1F RETURNDATASIZE SWAP1 DUP2 ADD PUSH1 0x1F NOT AND DUP3 ADD PUSH1 0x40 MSTORE PUSH2 0x1A30 SWAP2 SWAP1 DUP2 ADD SWAP1 PUSH2 0x5363 JUMP JUMPDEST SWAP1 POP PUSH0 PUSH2 0x2710 PUSH1 0xA SLOAD PUSH2 0x2710 PUSH2 0x1A46 SWAP2 SWAP1 PUSH2 0x52B3 JUMP JUMPDEST DUP4 PUSH1 0x1 DUP2 MLOAD DUP2 LT PUSH2 0x1A59 JUMPI PUSH2 0x1A59 PUSH2 0x5164 JUMP JUMPDEST PUSH1 0x20 MUL PUSH1 0x20 ADD ADD MLOAD PUSH2 0x1A6B SWAP2 SWAP1 PUSH2 0x50F2 JUMP JUMPDEST PUSH2 0x1A75 SWAP2 SWAP1 PUSH2 0x5109 JUMP JUMPDEST SWAP1 POP PUSH2 0x1A82 DUP8 DUP8 DUP4 PUSH2 0x3E06 JUMP JUMPDEST POP POP POP POP PUSH2 0x15BE JUMP JUMPDEST PUSH1 0x40 MLOAD PUSH1 0x20 ADD PUSH2 0x1A9A SWAP1 PUSH2 0x5221 JUMP JUMPDEST PUSH1 0x40 MLOAD PUSH1 0x20 DUP2 DUP4 SUB SUB DUP2 MSTORE SWAP1 PUSH1 0x40 MSTORE DUP1 MLOAD SWAP1 PUSH1 0x20 ADD KECCAK256 DUP3 PUSH1 0x40 MLOAD PUSH1 0x20 ADD PUSH2 0x1AC1 SWAP2 SWAP1 PUSH2 0x547B JUMP JUMPDEST PUSH1 0x40 MLOAD PUSH1 0x20 DUP2 DUP4 SUB SUB DUP2 MSTORE SWAP1 PUSH1 0x40 MSTORE DUP1 MLOAD SWAP1 PUSH1 0x20 ADD KECCAK256 SUB PUSH2 0x1C20 JUMPI PUSH1 0x6 SLOAD PUSH1 0x40 DUP1 MLOAD PUSH4 0x15AB88C9 PUSH1 0xE3 SHL DUP2 MSTORE SWAP1 MLOAD PUSH0 SWAP3 PUSH1 0x1 PUSH1 0x1 PUSH1 0xA0 SHL SUB AND SWAP2 PUSH4 0xAD5C4648 SWAP2 PUSH1 0x4 DUP1 DUP4 ADD SWAP3 PUSH1 0x20 SWAP3 SWAP2 SWAP1 DUP3 SWAP1 SUB ADD DUP2 DUP7 GAS STATICCALL ISZERO DUP1 ISZERO PUSH2 0x1B23 JUMPI RETURNDATASIZE PUSH0 DUP1 RETURNDATACOPY RETURNDATASIZE PUSH0 REVERT JUMPDEST POP POP POP POP PUSH1 0x40 MLOAD RETURNDATASIZE PUSH1 0x1F NOT PUSH1 0x1F DUP3 ADD AND DUP3 ADD DUP1 PUSH1 0x40 MSTORE POP DUP2 ADD SWAP1 PUSH2 0x1B47 SWAP2 SWAP1 PUSH2 0x5149 JUMP JUMPDEST DUP3 DUP7 PUSH1 0x40 MLOAD PUSH1 0x20 ADD PUSH2 0x1B5B SWAP4 SWAP3 SWAP2 SWAP1 PUSH2 0x53E9 JUMP JUMPDEST PUSH1 0x40 DUP1 MLOAD PUSH1 0x1F NOT DUP2 DUP5 SUB ADD DUP2 MSTORE SWAP1 DUP3 SWAP1 MSTORE PUSH1 0x8 SLOAD PUSH4 0xCDCA1753 PUSH1 0xE0 SHL DUP4 MSTORE SWAP1 SWAP3 POP PUSH0 SWAP2 PUSH1 0x1 PUSH1 0x1 PUSH1 0xA0 SHL SUB SWAP1 SWAP2 AND SWAP1 PUSH4 0xCDCA1753 SWAP1 PUSH2 0x1BA0 SWAP1 DUP6 SWAP1 DUP10 SWAP1 PUSH1 0x4 ADD PUSH2 0x541F JUMP JUMPDEST PUSH1 0x20 PUSH1 0x40 MLOAD DUP1 DUP4 SUB DUP2 PUSH0 DUP8 GAS CALL ISZERO DUP1 ISZERO PUSH2 0x1BBC JUMPI RETURNDATASIZE PUSH0 DUP1 RETURNDATACOPY RETURNDATASIZE PUSH0 REVERT JUMPDEST POP POP POP POP PUSH1 0x40 MLOAD RETURNDATASIZE PUSH1 0x1F NOT PUSH1 0x1F DUP3 ADD AND DUP3 ADD DUP1 PUSH1 0x40 MSTORE POP DUP2 ADD SWAP1 PUSH2 0x1BE0 SWAP2 SWAP1 PUSH2 0x50C7 JUMP JUMPDEST SWAP1 POP PUSH0 PUSH2 0x2710 PUSH1 0xA SLOAD PUSH2 0x2710 PUSH2 0x1BF6 SWAP2 SWAP1 PUSH2 0x52B3 JUMP JUMPDEST PUSH2 0x1C00 SWAP1 DUP5 PUSH2 0x50F2 JUMP JUMPDEST PUSH2 0x1C0A SWAP2 SWAP1 PUSH2 0x5109 JUMP JUMPDEST SWAP1 POP PUSH2 0x1C18 DUP8 DUP8 DUP7 DUP5 PUSH2 0x3F63 JUMP JUMPDEST POP POP POP PUSH2 0x15BE JUMP JUMPDEST PUSH1 0x40 MLOAD PUSH3 0x461BCD PUSH1 0xE5 SHL DUP2 MSTORE PUSH1 0x20 PUSH1 0x4 DUP3 ADD MSTORE PUSH1 0x3 PUSH1 0x24 DUP3 ADD MSTORE PUSH3 0x10AAAB PUSH1 0xE9 SHL PUSH1 0x44 DUP3 ADD MSTORE PUSH1 0x64 ADD PUSH2 0x8AA JUMP JUMPDEST PUSH0 JUMPDEST PUSH1 0x9 SLOAD DUP2 LT ISZERO PUSH2 0x1FA0 JUMPI DUP2 PUSH1 0x1 PUSH1 0x1 PUSH1 0xA0 SHL SUB AND PUSH1 0x9 DUP3 DUP2 SLOAD DUP2 LT PUSH2 0x1C77 JUMPI PUSH2 0x1C77 PUSH2 0x5164 JUMP JUMPDEST PUSH0 SWAP2 DUP3 MSTORE PUSH1 0x20 SWAP1 SWAP2 KECCAK256 PUSH1 0x5 SWAP1 SWAP2 MUL ADD SLOAD PUSH1 0x1 PUSH1 0x1 PUSH1 0xA0 SHL SUB AND SUB PUSH2 0x1F98 JUMPI PUSH0 PUSH1 0x9 DUP3 DUP2 SLOAD DUP2 LT PUSH2 0x1CA9 JUMPI PUSH2 0x1CA9 PUSH2 0x5164 JUMP JUMPDEST PUSH0 SWAP2 DUP3 MSTORE PUSH1 0x20 SWAP2 DUP3 SWAP1 KECCAK256 PUSH1 0x40 DUP1 MLOAD PUSH1 0xA0 DUP2 ADD DUP3 MSTORE PUSH1 0x5 SWAP1 SWAP4 MUL SWAP1 SWAP2 ADD DUP1 SLOAD PUSH1 0x1 PUSH1 0x1 PUSH1 0xA0 SHL SUB SWAP1 DUP2 AND DUP5 MSTORE PUSH1 0x1 DUP3 ADD SLOAD AND SWAP4 DUP4 ADD SWAP4 SWAP1 SWAP4 MSTORE PUSH1 0x2 DUP4 ADD SLOAD SWAP1 DUP3 ADD MSTORE PUSH1 0x3 DUP3 ADD DUP1 SLOAD SWAP2 SWAP3 SWAP2 PUSH1 0x60 DUP5 ADD SWAP2 SWAP1 PUSH2 0x1D02 SWAP1 PUSH2 0x5073 JUMP JUMPDEST DUP1 PUSH1 0x1F ADD PUSH1 0x20 DUP1 SWAP2 DIV MUL PUSH1 0x20 ADD PUSH1 0x40 MLOAD SWAP1 DUP2 ADD PUSH1 0x40 MSTORE DUP1 SWAP3 SWAP2 SWAP1 DUP2 DUP2 MSTORE PUSH1 0x20 ADD DUP3 DUP1 SLOAD PUSH2 0x1D2E SWAP1 PUSH2 0x5073 JUMP JUMPDEST DUP1 ISZERO PUSH2 0x1D79 JUMPI DUP1 PUSH1 0x1F LT PUSH2 0x1D50 JUMPI PUSH2 0x100 DUP1 DUP4 SLOAD DIV MUL DUP4 MSTORE SWAP2 PUSH1 0x20 ADD SWAP2 PUSH2 0x1D79 JUMP JUMPDEST DUP3 ADD SWAP2 SWAP1 PUSH0 MSTORE PUSH1 0x20 PUSH0 KECCAK256 SWAP1 JUMPDEST DUP2 SLOAD DUP2 MSTORE SWAP1 PUSH1 0x1 ADD SWAP1 PUSH1 0x20 ADD DUP1 DUP4 GT PUSH2 0x1D5C JUMPI DUP3 SWAP1 SUB PUSH1 0x1F AND DUP3 ADD SWAP2 JUMPDEST POP POP POP SWAP2 DUP4 MSTORE POP POP PUSH1 0x4 SWAP2 DUP3 ADD SLOAD PUSH3 0xFFFFFF AND PUSH1 0x20 SWAP2 DUP3 ADD MSTORE PUSH1 0x40 DUP1 DUP5 ADD MLOAD SWAP2 DUP5 ADD MLOAD PUSH1 0x60 DUP6 ADD MLOAD PUSH1 0x80 DUP7 ADD MLOAD SWAP3 MLOAD PUSH4 0x1CE07AE9 PUSH1 0xE1 SHL DUP2 MSTORE SWAP6 SWAP7 POP ADDRESS SWAP6 PUSH4 0x39C0F5D2 SWAP6 PUSH2 0x1DCC SWAP5 DUP7 SWAP4 SWAP3 SWAP1 SWAP2 ADD PUSH2 0x5491 JUMP JUMPDEST PUSH0 PUSH1 0x40 MLOAD DUP1 DUP4 SUB DUP2 DUP6 DUP9 DUP1 EXTCODESIZE ISZERO DUP1 ISZERO PUSH2 0x1DE3 JUMPI PUSH0 DUP1 REVERT JUMPDEST POP GAS CALL SWAP4 POP POP POP POP DUP1 ISZERO PUSH2 0x1DF5 JUMPI POP PUSH1 0x1 JUMPDEST PUSH2 0x1F64 JUMPI PUSH1 0x40 DUP1 MLOAD PUSH1 0xA0 DUP2 ADD DUP3 MSTORE CALLER DUP2 MSTORE PUSH1 0x20 DUP4 DUP2 ADD MLOAD PUSH1 0x1 PUSH1 0x1 PUSH1 0xA0 SHL SUB SWAP1 DUP2 AND SWAP2 DUP4 ADD SWAP2 DUP3 MSTORE DUP5 DUP5 ADD MLOAD SWAP4 DUP4 ADD SWAP4 DUP5 MSTORE PUSH1 0x60 DUP1 DUP7 ADD MLOAD SWAP1 DUP5 ADD SWAP1 DUP2 MSTORE PUSH1 0x80 DUP1 DUP8 ADD MLOAD PUSH3 0xFFFFFF AND SWAP1 DUP6 ADD MSTORE PUSH1 0x9 DUP1 SLOAD PUSH1 0x1 DUP2 ADD DUP3 SSTORE PUSH0 SWAP2 SWAP1 SWAP2 MSTORE DUP5 MLOAD PUSH1 0x5 SWAP1 SWAP2 MUL PUSH32 0x6E1540171B6C0C960B71A7020D9F60077F6AF931A8BBF590DA0223DACF75C7AF DUP2 ADD DUP1 SLOAD SWAP3 DUP6 AND PUSH1 0x1 PUSH1 0x1 PUSH1 0xA0 SHL SUB NOT SWAP4 DUP5 AND OR DUP2 SSTORE SWAP5 MLOAD PUSH32 0x6E1540171B6C0C960B71A7020D9F60077F6AF931A8BBF590DA0223DACF75C7B0 DUP3 ADD DUP1 SLOAD SWAP2 SWAP1 SWAP6 AND SWAP3 AND SWAP2 SWAP1 SWAP2 OR SWAP1 SWAP3 SSTORE SWAP4 MLOAD PUSH32 0x6E1540171B6C0C960B71A7020D9F60077F6AF931A8BBF590DA0223DACF75C7B1 DUP3 ADD SSTORE SWAP3 MLOAD SWAP2 SWAP3 SWAP1 SWAP2 PUSH32 0x6E1540171B6C0C960B71A7020D9F60077F6AF931A8BBF590DA0223DACF75C7B2 SWAP1 SWAP2 ADD SWAP1 PUSH2 0x1F1E SWAP1 DUP3 PUSH2 0x5525 JUMP JUMPDEST POP PUSH1 0x80 SWAP2 SWAP1 SWAP2 ADD MLOAD PUSH1 0x4 SWAP1 SWAP2 ADD DUP1 SLOAD PUSH3 0xFFFFFF NOT AND PUSH3 0xFFFFFF SWAP1 SWAP3 AND SWAP2 SWAP1 SWAP2 OR SWAP1 SSTORE CALLER PUSH0 SWAP1 DUP2 MSTORE PUSH1 0xD PUSH1 0x20 MSTORE PUSH1 0x40 DUP2 KECCAK256 DUP1 SLOAD SWAP2 PUSH2 0x1F5A DUP4 PUSH2 0x55DA JUMP JUMPDEST SWAP2 SWAP1 POP SSTORE POP PUSH2 0x1F96 JUMP JUMPDEST PUSH2 0x1F6D DUP3 PUSH2 0x4095 JUMP JUMPDEST PUSH1 0x1 PUSH1 0x1 PUSH1 0xA0 SHL SUB DUP4 AND PUSH0 SWAP1 DUP2 MSTORE PUSH1 0xD PUSH1 0x20 MSTORE PUSH1 0x40 DUP2 KECCAK256 DUP1 SLOAD SWAP2 PUSH2 0x1F90 DUP4 PUSH2 0x55F2 JUMP JUMPDEST SWAP2 SWAP1 POP SSTORE POP JUMPDEST POP JUMPDEST PUSH1 0x1 ADD PUSH2 0x1C50 JUMP JUMPDEST POP POP JUMP JUMPDEST PUSH2 0x1FAC PUSH2 0x3CD3 JUMP JUMPDEST PUSH2 0x1FB4 PUSH2 0x41F1 JUMP JUMPDEST PUSH32 0x5DB9EE0A495BF2E6FF9C91A7834C1BA4FDD244A5E8AA4E537BD38AEAE4B073AA CALLER PUSH1 0x40 MLOAD PUSH2 0x1FE3 SWAP2 SWAP1 PUSH2 0x49B9 JUMP JUMPDEST PUSH1 0x40 MLOAD DUP1 SWAP2 SUB SWAP1 LOG1 JUMP JUMPDEST PUSH1 0xF SLOAD PUSH1 0x1 PUSH1 0x1 PUSH1 0xA0 SHL SUB AND CALLER EQ PUSH2 0x203B JUMPI PUSH1 0x40 MLOAD PUSH3 0x461BCD PUSH1 0xE5 SHL DUP2 MSTORE PUSH1 0x20 PUSH1 0x4 DUP3 ADD MSTORE PUSH1 0x11 PUSH1 0x24 DUP3 ADD MSTORE PUSH17 0x2CB7BA9030B932903737BA1037BBB732B9 PUSH1 0x79 SHL PUSH1 0x44 DUP3 ADD MSTORE PUSH1 0x64 ADD PUSH2 0x8AA JUMP JUMPDEST PUSH1 0x1 PUSH1 0x1 PUSH1 0xA0 SHL SUB SWAP2 SWAP1 SWAP2 AND PUSH0 SWAP1 DUP2 MSTORE PUSH1 0xE PUSH1 0x20 MSTORE PUSH1 0x40 SWAP1 KECCAK256 DUP1 SLOAD PUSH1 0xFF NOT AND SWAP2 ISZERO ISZERO SWAP2 SWAP1 SWAP2 OR SWAP1 SSTORE JUMP JUMPDEST PUSH1 0x10 SLOAD DUP2 MLOAD PUSH0 SWAP2 EQ PUSH2 0x20A9 JUMPI PUSH1 0x40 MLOAD PUSH3 0x461BCD PUSH1 0xE5 SHL DUP2 MSTORE PUSH1 0x20 PUSH1 0x4 DUP3 ADD MSTORE PUSH1 0xD PUSH1 0x24 DUP3 ADD MSTORE PUSH13 0x42E0E4D2C6CAE6D8CADCCEE8D PUSH1 0x9B SHL PUSH1 0x44 DUP3 ADD MSTORE PUSH1 0x64 ADD PUSH2 0x8AA JUMP JUMPDEST PUSH0 DUP1 JUMPDEST PUSH1 0x10 SLOAD DUP2 LT ISZERO PUSH2 0x218B JUMPI PUSH0 PUSH1 0x10 DUP3 DUP2 SLOAD DUP2 LT PUSH2 0x20CA JUMPI PUSH2 0x20CA PUSH2 0x5164 JUMP JUMPDEST PUSH0 SWAP2 DUP3 MSTORE PUSH1 0x20 DUP3 KECCAK256 PUSH1 0x4 SWAP2 DUP3 MUL ADD DUP1 SLOAD PUSH1 0x40 MLOAD PUSH4 0x70A08231 PUSH1 0xE0 SHL DUP2 MSTORE SWAP2 SWAP5 POP PUSH1 0x1 PUSH1 0x1 PUSH1 0xA0 SHL SUB AND SWAP2 PUSH4 0x70A08231 SWAP2 PUSH2 0x2106 SWAP2 ADDRESS SWAP2 ADD PUSH2 0x49B9 JUMP JUMPDEST PUSH1 0x20 PUSH1 0x40 MLOAD DUP1 DUP4 SUB DUP2 DUP7 GAS STATICCALL ISZERO DUP1 ISZERO PUSH2 0x2121 JUMPI RETURNDATASIZE PUSH0 DUP1 RETURNDATACOPY RETURNDATASIZE PUSH0 REVERT JUMPDEST POP POP POP POP PUSH1 0x40 MLOAD RETURNDATASIZE PUSH1 0x1F NOT PUSH1 0x1F DUP3 ADD AND DUP3 ADD DUP1 PUSH1 0x40 MSTORE POP DUP2 ADD SWAP1 PUSH2 0x2145 SWAP2 SWAP1 PUSH2 0x50C7 JUMP JUMPDEST SWAP1 POP PUSH0 DUP7 DUP5 DUP2 MLOAD DUP2 LT PUSH2 0x215A JUMPI PUSH2 0x215A PUSH2 0x5164 JUMP JUMPDEST PUSH1 0x20 MUL PUSH1 0x20 ADD ADD MLOAD SWAP1 POP DUP1 DUP3 PUSH2 0x2170 SWAP2 SWAP1 PUSH2 0x50F2 JUMP JUMPDEST PUSH2 0x217A SWAP1 DUP7 PUSH2 0x52A0 JUMP JUMPDEST SWAP5 POP POP PUSH1 0x1 SWAP1 SWAP3 ADD SWAP2 POP PUSH2 0x20AC SWAP1 POP JUMP JUMPDEST POP SWAP3 SWAP2 POP POP JUMP JUMPDEST PUSH0 SLOAD PUSH1 0x1 PUSH1 0xA0 SHL SWAP1 DIV PUSH1 0xFF AND SWAP1 JUMP JUMPDEST PUSH2 0x21A9 PUSH2 0x3CD3 JUMP JUMPDEST PUSH1 0x16 SLOAD PUSH1 0xFF AND ISZERO PUSH2 0x21FB JUMPI PUSH1 0x40 MLOAD PUSH3 0x461BCD PUSH1 0xE5 SHL DUP2 MSTORE PUSH1 0x20 PUSH1 0x4 DUP3 ADD MSTORE PUSH1 0x1C PUSH1 0x24 DUP3 ADD MSTORE PUSH28 0x1D1A194818DBDB9D1C9858DD081A185CC81A5B9A5D1A585B1A5E9959 PUSH1 0x22 SHL PUSH1 0x44 DUP3 ADD MSTORE PUSH1 0x64 ADD PUSH2 0x8AA JUMP JUMPDEST DUP7 DUP6 EQ DUP1 ISZERO PUSH2 0x2209 JUMPI POP DUP7 DUP4 EQ JUMPDEST DUP1 ISZERO PUSH2 0x2214 JUMPI POP DUP7 DUP2 EQ JUMPDEST PUSH2 0x224F JUMPI PUSH1 0x40 MLOAD PUSH3 0x461BCD PUSH1 0xE5 SHL DUP2 MSTORE PUSH1 0x20 PUSH1 0x4 DUP3 ADD MSTORE PUSH1 0xC PUSH1 0x24 DUP3 ADD MSTORE PUSH12 0x214D6973736C656E67746873 PUSH1 0xA0 SHL PUSH1 0x44 DUP3 ADD MSTORE PUSH1 0x64 ADD PUSH2 0x8AA JUMP JUMPDEST PUSH0 DUP1 JUMPDEST DUP9 DUP2 LT ISZERO PUSH2 0x250C JUMPI PUSH2 0x2710 DUP9 DUP9 DUP4 DUP2 DUP2 LT PUSH2 0x226F JUMPI PUSH2 0x226F PUSH2 0x5164 JUMP JUMPDEST SWAP1 POP PUSH1 0x20 MUL ADD CALLDATALOAD GT ISZERO PUSH2 0x22B2 JUMPI PUSH1 0x40 MLOAD PUSH3 0x461BCD PUSH1 0xE5 SHL DUP2 MSTORE PUSH1 0x20 PUSH1 0x4 DUP3 ADD MSTORE PUSH1 0xB PUSH1 0x24 DUP3 ADD MSTORE PUSH11 0x2170657263656E74616765 PUSH1 0xA8 SHL PUSH1 0x44 DUP3 ADD MSTORE PUSH1 0x64 ADD PUSH2 0x8AA JUMP JUMPDEST DUP8 DUP8 DUP3 DUP2 DUP2 LT PUSH2 0x22C4 JUMPI PUSH2 0x22C4 PUSH2 0x5164 JUMP JUMPDEST SWAP1 POP PUSH1 0x20 MUL ADD CALLDATALOAD DUP3 PUSH2 0x22D6 SWAP2 SWAP1 PUSH2 0x52A0 JUMP JUMPDEST SWAP2 POP PUSH1 0x10 PUSH1 0x40 MLOAD DUP1 PUSH1 0x80 ADD PUSH1 0x40 MSTORE DUP1 DUP13 DUP13 DUP6 DUP2 DUP2 LT PUSH2 0x22F7 JUMPI PUSH2 0x22F7 PUSH2 0x5164 JUMP JUMPDEST SWAP1 POP PUSH1 0x20 MUL ADD PUSH1 0x20 DUP2 ADD SWAP1 PUSH2 0x230C SWAP2 SWAP1 PUSH2 0x4A52 JUMP JUMPDEST PUSH1 0x1 PUSH1 0x1 PUSH1 0xA0 SHL SUB AND DUP2 MSTORE PUSH1 0x20 ADD DUP11 DUP11 DUP6 DUP2 DUP2 LT PUSH2 0x232C JUMPI PUSH2 0x232C PUSH2 0x5164 JUMP JUMPDEST SWAP1 POP PUSH1 0x20 MUL ADD CALLDATALOAD DUP2 MSTORE PUSH1 0x20 ADD DUP9 DUP9 DUP6 DUP2 DUP2 LT PUSH2 0x234A JUMPI PUSH2 0x234A PUSH2 0x5164 JUMP JUMPDEST SWAP1 POP PUSH1 0x20 MUL DUP2 ADD SWAP1 PUSH2 0x235C SWAP2 SWAP1 PUSH2 0x5607 JUMP JUMPDEST DUP1 DUP1 PUSH1 0x1F ADD PUSH1 0x20 DUP1 SWAP2 DIV MUL PUSH1 0x20 ADD PUSH1 0x40 MLOAD SWAP1 DUP2 ADD PUSH1 0x40 MSTORE DUP1 SWAP4 SWAP3 SWAP2 SWAP1 DUP2 DUP2 MSTORE PUSH1 0x20 ADD DUP4 DUP4 DUP1 DUP3 DUP5 CALLDATACOPY PUSH0 SWAP3 ADD SWAP2 SWAP1 SWAP2 MSTORE POP POP POP SWAP1 DUP3 MSTORE POP PUSH1 0x20 ADD DUP7 DUP7 DUP6 DUP2 DUP2 LT PUSH2 0x23A7 JUMPI PUSH2 0x23A7 PUSH2 0x5164 JUMP JUMPDEST SWAP1 POP PUSH1 0x20 MUL ADD PUSH1 0x20 DUP2 ADD SWAP1 PUSH2 0x23BC SWAP2 SWAP1 PUSH2 0x5649 JUMP JUMPDEST PUSH3 0xFFFFFF AND SWAP1 MSTORE DUP2 SLOAD PUSH1 0x1 DUP1 DUP3 ADD DUP5 SSTORE PUSH0 SWAP4 DUP5 MSTORE PUSH1 0x20 SWAP4 DUP5 SWAP1 KECCAK256 DUP4 MLOAD PUSH1 0x4 SWAP1 SWAP4 MUL ADD DUP1 SLOAD PUSH1 0x1 PUSH1 0x1 PUSH1 0xA0 SHL SUB NOT AND PUSH1 0x1 PUSH1 0x1 PUSH1 0xA0 SHL SUB SWAP1 SWAP4 AND SWAP3 SWAP1 SWAP3 OR DUP3 SSTORE SWAP3 DUP3 ADD MLOAD SWAP3 DUP2 ADD SWAP3 SWAP1 SWAP3 SSTORE PUSH1 0x40 DUP2 ADD MLOAD SWAP1 SWAP2 SWAP1 PUSH1 0x2 DUP3 ADD SWAP1 PUSH2 0x241D SWAP1 DUP3 PUSH2 0x5525 JUMP JUMPDEST POP PUSH1 0x60 SWAP2 SWAP1 SWAP2 ADD MLOAD PUSH1 0x3 SWAP1 SWAP2 ADD DUP1 SLOAD PUSH3 0xFFFFFF NOT AND PUSH3 0xFFFFFF SWAP1 SWAP3 AND SWAP2 SWAP1 SWAP2 OR SWAP1 SSTORE PUSH32 0xDAE6F056932F00933CB66A91F6E0255F17770DAA04DB2D36869E28FFA46DCA63 DUP11 DUP11 DUP4 DUP2 DUP2 LT PUSH2 0x2472 JUMPI PUSH2 0x2472 PUSH2 0x5164 JUMP JUMPDEST SWAP1 POP PUSH1 0x20 MUL ADD PUSH1 0x20 DUP2 ADD SWAP1 PUSH2 0x2487 SWAP2 SWAP1 PUSH2 0x4A52 JUMP JUMPDEST DUP10 DUP10 DUP5 DUP2 DUP2 LT PUSH2 0x2499 JUMPI PUSH2 0x2499 PUSH2 0x5164 JUMP JUMPDEST SWAP1 POP PUSH1 0x20 MUL ADD CALLDATALOAD DUP9 DUP9 DUP6 DUP2 DUP2 LT PUSH2 0x24B2 JUMPI PUSH2 0x24B2 PUSH2 0x5164 JUMP JUMPDEST SWAP1 POP PUSH1 0x20 MUL DUP2 ADD SWAP1 PUSH2 0x24C4 SWAP2 SWAP1 PUSH2 0x5607 JUMP JUMPDEST DUP9 DUP9 DUP8 DUP2 DUP2 LT PUSH2 0x24D6 JUMPI PUSH2 0x24D6 PUSH2 0x5164 JUMP JUMPDEST SWAP1 POP PUSH1 0x20 MUL ADD PUSH1 0x20 DUP2 ADD SWAP1 PUSH2 0x24EB SWAP2 SWAP1 PUSH2 0x5649 JUMP JUMPDEST PUSH1 0x40 MLOAD PUSH2 0x24FC SWAP6 SWAP5 SWAP4 SWAP3 SWAP2 SWAP1 PUSH2 0x5662 JUMP JUMPDEST PUSH1 0x40 MLOAD DUP1 SWAP2 SUB SWAP1 LOG1 PUSH1 0x1 ADD PUSH2 0x2252 JUMP JUMPDEST POP DUP1 PUSH2 0x2710 EQ PUSH2 0x255E JUMPI PUSH1 0x40 MLOAD PUSH3 0x461BCD PUSH1 0xE5 SHL DUP2 MSTORE PUSH1 0x20 PUSH1 0x4 DUP3 ADD DUP2 SWAP1 MSTORE PUSH1 0x24 DUP3 ADD MSTORE PUSH32 0x746F74616C2070657263656E746167652073686F756C64206265203130303030 PUSH1 0x44 DUP3 ADD MSTORE PUSH1 0x64 ADD PUSH2 0x8AA JUMP JUMPDEST POP POP POP POP POP POP POP POP POP JUMP JUMPDEST PUSH2 0x2571 PUSH2 0x3CD3 JUMP JUMPDEST PUSH0 JUMPDEST PUSH1 0x10 SLOAD DUP2 LT ISZERO PUSH2 0x2689 JUMPI PUSH0 PUSH1 0x10 DUP3 DUP2 SLOAD DUP2 LT PUSH2 0x2591 JUMPI PUSH2 0x2591 PUSH2 0x5164 JUMP JUMPDEST PUSH0 SWAP2 DUP3 MSTORE PUSH1 0x20 DUP3 KECCAK256 PUSH1 0x4 SWAP2 DUP3 MUL ADD DUP1 SLOAD PUSH1 0x40 MLOAD PUSH4 0x70A08231 PUSH1 0xE0 SHL DUP2 MSTORE SWAP2 SWAP5 POP PUSH1 0x1 PUSH1 0x1 PUSH1 0xA0 SHL SUB AND SWAP2 PUSH4 0x70A08231 SWAP2 PUSH2 0x25CD SWAP2 ADDRESS SWAP2 ADD PUSH2 0x49B9 JUMP JUMPDEST PUSH1 0x20 PUSH1 0x40 MLOAD DUP1 DUP4 SUB DUP2 DUP7 GAS STATICCALL ISZERO DUP1 ISZERO PUSH2 0x25E8 JUMPI RETURNDATASIZE PUSH0 DUP1 RETURNDATACOPY RETURNDATASIZE PUSH0 REVERT JUMPDEST POP POP POP POP PUSH1 0x40 MLOAD RETURNDATASIZE PUSH1 0x1F NOT PUSH1 0x1F DUP3 ADD AND DUP3 ADD DUP1 PUSH1 0x40 MSTORE POP DUP2 ADD SWAP1 PUSH2 0x260C SWAP2 SWAP1 PUSH2 0x50C7 JUMP JUMPDEST DUP3 SLOAD PUSH1 0x40 MLOAD PUSH4 0xA9059CBB PUSH1 0xE0 SHL DUP2 MSTORE SWAP2 SWAP3 POP PUSH1 0x1 PUSH1 0x1 PUSH1 0xA0 SHL SUB AND SWAP1 PUSH4 0xA9059CBB SWAP1 PUSH2 0x263E SWAP1 CALLER SWAP1 DUP6 SWAP1 PUSH1 0x4 ADD PUSH2 0x52C6 JUMP JUMPDEST PUSH1 0x20 PUSH1 0x40 MLOAD DUP1 DUP4 SUB DUP2 PUSH0 DUP8 GAS CALL ISZERO DUP1 ISZERO PUSH2 0x265A JUMPI RETURNDATASIZE PUSH0 DUP1 RETURNDATACOPY RETURNDATASIZE PUSH0 REVERT JUMPDEST POP POP POP POP PUSH1 0x40 MLOAD RETURNDATASIZE PUSH1 0x1F NOT PUSH1 0x1F DUP3 ADD AND DUP3 ADD DUP1 PUSH1 0x40 MSTORE POP DUP2 ADD SWAP1 PUSH2 0x267E SWAP2 SWAP1 PUSH2 0x52DF JUMP JUMPDEST POP POP POP PUSH1 0x1 ADD PUSH2 0x2573 JUMP JUMPDEST POP JUMP JUMPDEST PUSH2 0x2694 PUSH2 0x3CD3 JUMP JUMPDEST PUSH2 0x269D PUSH0 PUSH2 0x4235 JUMP JUMPDEST JUMP JUMPDEST PUSH2 0x26A7 PUSH2 0x3CD3 JUMP JUMPDEST PUSH2 0x26AF PUSH2 0x3DAC JUMP JUMPDEST PUSH0 PUSH2 0x26B9 DUP3 PUSH2 0x2065 JUMP JUMPDEST SWAP1 POP PUSH0 DUP2 GT PUSH2 0x2718 JUMPI PUSH1 0x40 MLOAD PUSH3 0x461BCD PUSH1 0xE5 SHL DUP2 MSTORE PUSH1 0x20 PUSH1 0x4 DUP3 ADD MSTORE PUSH1 0x25 PUSH1 0x24 DUP3 ADD MSTORE PUSH32 0x546F74616C2076616C7565206D7573742062652067726561746572207468616E PUSH1 0x44 DUP3 ADD MSTORE PUSH5 0x207A65726F PUSH1 0xD8 SHL PUSH1 0x64 DUP3 ADD MSTORE PUSH1 0x84 ADD PUSH2 0x8AA JUMP JUMPDEST PUSH0 JUMPDEST PUSH1 0x10 SLOAD DUP2 LT ISZERO PUSH2 0x28F3 JUMPI PUSH0 PUSH1 0x10 DUP3 DUP2 SLOAD DUP2 LT PUSH2 0x2738 JUMPI PUSH2 0x2738 PUSH2 0x5164 JUMP JUMPDEST PUSH0 SWAP2 DUP3 MSTORE PUSH1 0x20 DUP3 KECCAK256 PUSH1 0x4 SWAP2 DUP3 MUL ADD DUP1 SLOAD PUSH1 0x40 MLOAD PUSH4 0x70A08231 PUSH1 0xE0 SHL DUP2 MSTORE SWAP2 SWAP5 POP PUSH1 0x1 PUSH1 0x1 PUSH1 0xA0 SHL SUB AND SWAP2 PUSH4 0x70A08231 SWAP2 PUSH2 0x2774 SWAP2 ADDRESS SWAP2 ADD PUSH2 0x49B9 JUMP JUMPDEST PUSH1 0x20 PUSH1 0x40 MLOAD DUP1 DUP4 SUB DUP2 DUP7 GAS STATICCALL ISZERO DUP1 ISZERO PUSH2 0x278F JUMPI RETURNDATASIZE PUSH0 DUP1 RETURNDATACOPY RETURNDATASIZE PUSH0 REVERT JUMPDEST POP POP POP POP PUSH1 0x40 MLOAD RETURNDATASIZE PUSH1 0x1F NOT PUSH1 0x1F DUP3 ADD AND DUP3 ADD DUP1 PUSH1 0x40 MSTORE POP DUP2 ADD SWAP1 PUSH2 0x27B3 SWAP2 SWAP1 PUSH2 0x50C7 JUMP JUMPDEST DUP6 DUP5 DUP2 MLOAD DUP2 LT PUSH2 0x27C5 JUMPI PUSH2 0x27C5 PUSH2 0x5164 JUMP JUMPDEST PUSH1 0x20 MUL PUSH1 0x20 ADD ADD MLOAD PUSH2 0x27D7 SWAP2 SWAP1 PUSH2 0x50F2 JUMP JUMPDEST SWAP1 POP PUSH0 PUSH2 0x2710 DUP4 PUSH1 0x1 ADD SLOAD DUP7 PUSH2 0x27ED SWAP2 SWAP1 PUSH2 0x50F2 JUMP JUMPDEST PUSH2 0x27F7 SWAP2 SWAP1 PUSH2 0x5109 JUMP JUMPDEST SWAP1 POP DUP1 DUP3 GT ISZERO PUSH2 0x28E8 JUMPI PUSH0 DUP7 DUP6 DUP2 MLOAD DUP2 LT PUSH2 0x2814 JUMPI PUSH2 0x2814 PUSH2 0x5164 JUMP JUMPDEST PUSH1 0x20 MUL PUSH1 0x20 ADD ADD MLOAD DUP3 DUP5 PUSH2 0x2828 SWAP2 SWAP1 PUSH2 0x52B3 JUMP JUMPDEST PUSH2 0x2832 SWAP2 SWAP1 PUSH2 0x5109 JUMP JUMPDEST DUP5 SLOAD PUSH1 0x2 DUP7 ADD DUP1 SLOAD SWAP3 SWAP4 POP PUSH2 0x28E5 SWAP3 PUSH1 0x1 PUSH1 0x1 PUSH1 0xA0 SHL SUB SWAP1 SWAP3 AND SWAP2 DUP5 SWAP2 SWAP1 PUSH2 0x2859 SWAP1 PUSH2 0x5073 JUMP JUMPDEST DUP1 PUSH1 0x1F ADD PUSH1 0x20 DUP1 SWAP2 DIV MUL PUSH1 0x20 ADD PUSH1 0x40 MLOAD SWAP1 DUP2 ADD PUSH1 0x40 MSTORE DUP1 SWAP3 SWAP2 SWAP1 DUP2 DUP2 MSTORE PUSH1 0x20 ADD DUP3 DUP1 SLOAD PUSH2 0x2885 SWAP1 PUSH2 0x5073 JUMP JUMPDEST DUP1 ISZERO PUSH2 0x28D0 JUMPI DUP1 PUSH1 0x1F LT PUSH2 0x28A7 JUMPI PUSH2 0x100 DUP1 DUP4 SLOAD DIV MUL DUP4 MSTORE SWAP2 PUSH1 0x20 ADD SWAP2 PUSH2 0x28D0 JUMP JUMPDEST DUP3 ADD SWAP2 SWAP1 PUSH0 MSTORE PUSH1 0x20 PUSH0 KECCAK256 SWAP1 JUMPDEST DUP2 SLOAD DUP2 MSTORE SWAP1 PUSH1 0x1 ADD SWAP1 PUSH1 0x20 ADD DUP1 DUP4 GT PUSH2 0x28B3 JUMPI DUP3 SWAP1 SUB PUSH1 0x1F AND DUP3 ADD SWAP2 JUMPDEST POP POP POP POP PUSH1 0x3 DUP10 ADD SLOAD PUSH3 0xFFFFFF AND SWAP1 POP PUSH2 0x4284 JUMP JUMPDEST POP POP JUMPDEST POP POP POP PUSH1 0x1 ADD PUSH2 0x271A JUMP JUMPDEST POP POP POP JUMP JUMPDEST PUSH2 0x2900 PUSH2 0x3CD3 JUMP JUMPDEST PUSH2 0x2908 PUSH2 0x463A JUMP JUMPDEST PUSH32 0x62E78CEA01BEE320CD4E420270B5EA74000D11B0C9F74754EBDBFC544B05A258 CALLER PUSH1 0x40 MLOAD PUSH2 0x1FE3 SWAP2 SWAP1 PUSH2 0x49B9 JUMP JUMPDEST PUSH0 SLOAD PUSH1 0x1 PUSH1 0x1 PUSH1 0xA0 SHL SUB AND SWAP1 JUMP JUMPDEST PUSH1 0x1 PUSH1 0x1 PUSH1 0xA0 SHL SUB DUP2 AND PUSH0 SWAP1 DUP2 MSTORE PUSH1 0xD PUSH1 0x20 MSTORE PUSH1 0x40 DUP2 KECCAK256 SLOAD PUSH1 0x60 SWAP2 SWAP1 PUSH1 0x1 PUSH1 0x1 PUSH1 0x40 SHL SUB DUP2 GT ISZERO PUSH2 0x2978 JUMPI PUSH2 0x2978 PUSH2 0x4AC3 JUMP JUMPDEST PUSH1 0x40 MLOAD SWAP1 DUP1 DUP3 MSTORE DUP1 PUSH1 0x20 MUL PUSH1 0x20 ADD DUP3 ADD PUSH1 0x40 MSTORE DUP1 ISZERO PUSH2 0x29CE JUMPI DUP2 PUSH1 0x20 ADD JUMPDEST PUSH1 0x40 DUP1 MLOAD PUSH1 0xA0 DUP2 ADD DUP3 MSTORE PUSH0 DUP1 DUP3 MSTORE PUSH1 0x20 DUP1 DUP4 ADD DUP3 SWAP1 MSTORE SWAP3 DUP3 ADD DUP2 SWAP1 MSTORE PUSH1 0x60 DUP1 DUP4 ADD MSTORE PUSH1 0x80 DUP3 ADD MSTORE DUP3 MSTORE PUSH0 NOT SWAP1 SWAP3 ADD SWAP2 ADD DUP2 PUSH2 0x2996 JUMPI SWAP1 POP JUMPDEST POP SWAP1 POP PUSH0 DUP1 JUMPDEST PUSH1 0x9 SLOAD DUP2 LT ISZERO PUSH2 0x2B4C JUMPI DUP5 PUSH1 0x1 PUSH1 0x1 PUSH1 0xA0 SHL SUB AND PUSH1 0x9 DUP3 DUP2 SLOAD DUP2 LT PUSH2 0x29FB JUMPI PUSH2 0x29FB PUSH2 0x5164 JUMP JUMPDEST PUSH0 SWAP2 DUP3 MSTORE PUSH1 0x20 SWAP1 SWAP2 KECCAK256 PUSH1 0x5 SWAP1 SWAP2 MUL ADD SLOAD PUSH1 0x1 PUSH1 0x1 PUSH1 0xA0 SHL SUB AND SUB PUSH2 0x2B44 JUMPI PUSH1 0x9 DUP2 DUP2 SLOAD DUP2 LT PUSH2 0x2A2C JUMPI PUSH2 0x2A2C PUSH2 0x5164 JUMP JUMPDEST PUSH0 SWAP2 DUP3 MSTORE PUSH1 0x20 SWAP2 DUP3 SWAP1 KECCAK256 PUSH1 0x40 DUP1 MLOAD PUSH1 0xA0 DUP2 ADD DUP3 MSTORE PUSH1 0x5 SWAP1 SWAP4 MUL SWAP1 SWAP2 ADD DUP1 SLOAD PUSH1 0x1 PUSH1 0x1 PUSH1 0xA0 SHL SUB SWAP1 DUP2 AND DUP5 MSTORE PUSH1 0x1 DUP3 ADD SLOAD AND SWAP4 DUP4 ADD SWAP4 SWAP1 SWAP4 MSTORE PUSH1 0x2 DUP4 ADD SLOAD SWAP1 DUP3 ADD MSTORE PUSH1 0x3 DUP3 ADD DUP1 SLOAD SWAP2 SWAP3 SWAP2 PUSH1 0x60 DUP5 ADD SWAP2 SWAP1 PUSH2 0x2A85 SWAP1 PUSH2 0x5073 JUMP JUMPDEST DUP1 PUSH1 0x1F ADD PUSH1 0x20 DUP1 SWAP2 DIV MUL PUSH1 0x20 ADD PUSH1 0x40 MLOAD SWAP1 DUP2 ADD PUSH1 0x40 MSTORE DUP1 SWAP3 SWAP2 SWAP1 DUP2 DUP2 MSTORE PUSH1 0x20 ADD DUP3 DUP1 SLOAD PUSH2 0x2AB1 SWAP1 PUSH2 0x5073 JUMP JUMPDEST DUP1 ISZERO PUSH2 0x2AFC JUMPI DUP1 PUSH1 0x1F LT PUSH2 0x2AD3 JUMPI PUSH2 0x100 DUP1 DUP4 SLOAD DIV MUL DUP4 MSTORE SWAP2 PUSH1 0x20 ADD SWAP2 PUSH2 0x2AFC JUMP JUMPDEST DUP3 ADD SWAP2 SWAP1 PUSH0 MSTORE PUSH1 0x20 PUSH0 KECCAK256 SWAP1 JUMPDEST DUP2 SLOAD DUP2 MSTORE SWAP1 PUSH1 0x1 ADD SWAP1 PUSH1 0x20 ADD DUP1 DUP4 GT PUSH2 0x2ADF JUMPI DUP3 SWAP1 SUB PUSH1 0x1F AND DUP3 ADD SWAP2 JUMPDEST POP POP POP SWAP2 DUP4 MSTORE POP POP PUSH1 0x4 SWAP2 SWAP1 SWAP2 ADD SLOAD PUSH3 0xFFFFFF AND PUSH1 0x20 SWAP1 SWAP2 ADD MSTORE DUP4 MLOAD DUP5 SWAP1 DUP5 SWAP1 DUP2 LT PUSH2 0x2B2A JUMPI PUSH2 0x2B2A PUSH2 0x5164 JUMP JUMPDEST PUSH1 0x20 MUL PUSH1 0x20 ADD ADD DUP2 SWAP1 MSTORE POP DUP2 DUP1 PUSH2 0x2B40 SWAP1 PUSH2 0x55DA JUMP JUMPDEST SWAP3 POP POP JUMPDEST PUSH1 0x1 ADD PUSH2 0x29D4 JUMP JUMPDEST POP SWAP1 SWAP4 SWAP3 POP POP POP JUMP JUMPDEST PUSH1 0x60 PUSH1 0x5 DUP1 SLOAD PUSH2 0x7D2 SWAP1 PUSH2 0x5073 JUMP JUMPDEST PUSH2 0x2B6C PUSH2 0x3CD3 JUMP JUMPDEST PUSH2 0x2710 DUP4 GT ISZERO PUSH2 0x2BA9 JUMPI PUSH1 0x40 MLOAD PUSH3 0x461BCD PUSH1 0xE5 SHL DUP2 MSTORE PUSH1 0x20 PUSH1 0x4 DUP3 ADD MSTORE PUSH1 0x8 PUSH1 0x24 DUP3 ADD MSTORE PUSH8 0x21503E313030303 PUSH1 0xC4 SHL PUSH1 0x44 DUP3 ADD MSTORE PUSH1 0x64 ADD PUSH2 0x8AA JUMP JUMPDEST PUSH0 DUP1 JUMPDEST PUSH1 0x10 SLOAD DUP2 LT ISZERO PUSH2 0x2C97 JUMPI DUP6 PUSH1 0x1 PUSH1 0x1 PUSH1 0xA0 SHL SUB AND PUSH1 0x10 DUP3 DUP2 SLOAD DUP2 LT PUSH2 0x2BD3 JUMPI PUSH2 0x2BD3 PUSH2 0x5164 JUMP JUMPDEST PUSH0 SWAP2 DUP3 MSTORE PUSH1 0x20 SWAP1 SWAP2 KECCAK256 PUSH1 0x4 SWAP1 SWAP2 MUL ADD SLOAD PUSH1 0x1 PUSH1 0x1 PUSH1 0xA0 SHL SUB AND SUB PUSH2 0x2C8F JUMPI DUP5 PUSH1 0x10 DUP3 DUP2 SLOAD DUP2 LT PUSH2 0x2C05 JUMPI PUSH2 0x2C05 PUSH2 0x5164 JUMP JUMPDEST SWAP1 PUSH0 MSTORE PUSH1 0x20 PUSH0 KECCAK256 SWAP1 PUSH1 0x4 MUL ADD PUSH1 0x1 ADD DUP2 SWAP1 SSTORE POP DUP4 PUSH1 0x10 DUP3 DUP2 SLOAD DUP2 LT PUSH2 0x2C2C JUMPI PUSH2 0x2C2C PUSH2 0x5164 JUMP JUMPDEST SWAP1 PUSH0 MSTORE PUSH1 0x20 PUSH0 KECCAK256 SWAP1 PUSH1 0x4 MUL ADD PUSH1 0x2 ADD SWAP1 DUP2 PUSH2 0x2C47 SWAP2 SWAP1 PUSH2 0x5525 JUMP JUMPDEST POP DUP3 PUSH1 0x10 DUP3 DUP2 SLOAD DUP2 LT PUSH2 0x2C5C JUMPI PUSH2 0x2C5C PUSH2 0x5164 JUMP JUMPDEST SWAP1 PUSH0 MSTORE PUSH1 0x20 PUSH0 KECCAK256 SWAP1 PUSH1 0x4 MUL ADD PUSH1 0x3 ADD PUSH0 PUSH2 0x100 EXP DUP2 SLOAD DUP2 PUSH3 0xFFFFFF MUL NOT AND SWAP1 DUP4 PUSH3 0xFFFFFF AND MUL OR SWAP1 SSTORE POP PUSH1 0x1 SWAP2 POP PUSH2 0x2C97 JUMP JUMPDEST PUSH1 0x1 ADD PUSH2 0x2BAC JUMP JUMPDEST POP DUP1 PUSH2 0xE59 JUMPI PUSH1 0x40 MLOAD PUSH3 0x461BCD PUSH1 0xE5 SHL DUP2 MSTORE PUSH1 0x20 PUSH1 0x4 DUP3 ADD MSTORE PUSH1 0x6 PUSH1 0x24 DUP3 ADD MSTORE PUSH6 0x10BA37B5B2B7 PUSH1 0xD1 SHL PUSH1 0x44 DUP3 ADD MSTORE PUSH1 0x64 ADD PUSH2 0x8AA JUMP JUMPDEST PUSH2 0x2CD6 PUSH2 0x3CD3 JUMP JUMPDEST PUSH1 0x14 SLOAD ISZERO PUSH2 0x2D6F JUMPI PUSH1 0x14 SLOAD PUSH1 0x40 MLOAD PUSH0 SWAP2 PUSH1 0x1 PUSH1 0x1 PUSH1 0xA0 SHL SUB DUP5 AND SWAP2 DUP4 DUP2 DUP2 DUP2 DUP6 DUP8 GAS CALL SWAP3 POP POP POP RETURNDATASIZE DUP1 PUSH0 DUP2 EQ PUSH2 0x2D27 JUMPI PUSH1 0x40 MLOAD SWAP2 POP PUSH1 0x1F NOT PUSH1 0x3F RETURNDATASIZE ADD AND DUP3 ADD PUSH1 0x40 MSTORE RETURNDATASIZE DUP3 MSTORE RETURNDATASIZE PUSH0 PUSH1 0x20 DUP5 ADD RETURNDATACOPY PUSH2 0x2D2C JUMP JUMPDEST PUSH1 0x60 SWAP2 POP JUMPDEST POP POP SWAP1 POP DUP1 PUSH2 0x2D69 JUMPI PUSH1 0x40 MLOAD PUSH3 0x461BCD PUSH1 0xE5 SHL DUP2 MSTORE PUSH1 0x20 PUSH1 0x4 DUP3 ADD MSTORE PUSH1 0x9 PUSH1 0x24 DUP3 ADD MSTORE PUSH9 0x8C8292988A888AA89 PUSH1 0xBB SHL PUSH1 0x44 DUP3 ADD MSTORE PUSH1 0x64 ADD PUSH2 0x8AA JUMP JUMPDEST POP PUSH0 PUSH1 0x14 SSTORE JUMPDEST PUSH1 0x15 SLOAD ISZERO PUSH2 0x2689 JUMPI PUSH0 PUSH2 0x2D80 PUSH2 0x32F5 JUMP JUMPDEST PUSH1 0x15 SLOAD PUSH1 0x40 MLOAD PUSH4 0xA9059CBB PUSH1 0xE0 SHL DUP2 MSTORE SWAP2 SWAP3 POP PUSH1 0x1 PUSH1 0x1 PUSH1 0xA0 SHL SUB DUP4 AND SWAP2 PUSH4 0xA9059CBB SWAP2 PUSH2 0x2DB3 SWAP2 DUP7 SWAP2 SWAP1 PUSH1 0x4 ADD PUSH2 0x52C6 JUMP JUMPDEST PUSH1 0x20 PUSH1 0x40 MLOAD DUP1 DUP4 SUB DUP2 PUSH0 DUP8 GAS CALL ISZERO DUP1 ISZERO PUSH2 0x2DCF JUMPI RETURNDATASIZE PUSH0 DUP1 RETURNDATACOPY RETURNDATASIZE PUSH0 REVERT JUMPDEST POP POP POP POP PUSH1 0x40 MLOAD RETURNDATASIZE PUSH1 0x1F NOT PUSH1 0x1F DUP3 ADD AND DUP3 ADD DUP1 PUSH1 0x40 MSTORE POP DUP2 ADD SWAP1 PUSH2 0x2DF3 SWAP2 SWAP1 PUSH2 0x52DF JUMP JUMPDEST POP POP PUSH0 PUSH1 0x15 SSTORE POP JUMP JUMPDEST PUSH0 CALLER PUSH2 0x860 DUP2 DUP6 DUP6 PUSH2 0x3D4F JUMP JUMPDEST PUSH1 0x8 SLOAD PUSH1 0x40 MLOAD PUSH4 0xCDCA1753 PUSH1 0xE0 SHL DUP2 MSTORE PUSH0 SWAP2 PUSH1 0x1 PUSH1 0x1 PUSH1 0xA0 SHL SUB AND SWAP1 PUSH4 0xCDCA1753 SWAP1 PUSH2 0x2E3B SWAP1 DUP7 SWAP1 DUP7 SWAP1 PUSH1 0x4 ADD PUSH2 0x541F JUMP JUMPDEST PUSH1 0x20 PUSH1 0x40 MLOAD DUP1 DUP4 SUB DUP2 PUSH0 DUP8 GAS CALL ISZERO DUP1 ISZERO PUSH2 0x2E57 JUMPI RETURNDATASIZE PUSH0 DUP1 RETURNDATACOPY RETURNDATASIZE PUSH0 REVERT JUMPDEST POP POP POP POP PUSH1 0x40 MLOAD RETURNDATASIZE PUSH1 0x1F NOT PUSH1 0x1F DUP3 ADD AND DUP3 ADD DUP1 PUSH1 0x40 MSTORE POP DUP2 ADD SWAP1 PUSH2 0x2E7B SWAP2 SWAP1 PUSH2 0x50C7 JUMP JUMPDEST SWAP4 SWAP3 POP POP POP JUMP JUMPDEST PUSH1 0x6 SLOAD PUSH1 0x40 MLOAD PUSH4 0xD06CA61F PUSH1 0xE0 SHL DUP2 MSTORE PUSH1 0x60 SWAP2 PUSH1 0x1 PUSH1 0x1 PUSH1 0xA0 SHL SUB AND SWAP1 PUSH4 0xD06CA61F SWAP1 PUSH2 0x2EB5 SWAP1 DUP7 SWAP1 DUP7 SWAP1 PUSH1 0x4 ADD PUSH2 0x534B JUMP JUMPDEST PUSH0 PUSH1 0x40 MLOAD DUP1 DUP4 SUB DUP2 DUP7 GAS STATICCALL ISZERO DUP1 ISZERO PUSH2 0x2ECF JUMPI RETURNDATASIZE PUSH0 DUP1 RETURNDATACOPY RETURNDATASIZE PUSH0 REVERT JUMPDEST POP POP POP POP PUSH1 0x40 MLOAD RETURNDATASIZE PUSH0 DUP3 RETURNDATACOPY PUSH1 0x1F RETURNDATASIZE SWAP1 DUP2 ADD PUSH1 0x1F NOT AND DUP3 ADD PUSH1 0x40 MSTORE PUSH2 0x2E7B SWAP2 SWAP1 DUP2 ADD SWAP1 PUSH2 0x5363 JUMP JUMPDEST CALLER PUSH0 SWAP1 DUP2 MSTORE PUSH1 0xE PUSH1 0x20 MSTORE PUSH1 0x40 SWAP1 KECCAK256 SLOAD PUSH1 0xFF AND PUSH2 0x2F3D JUMPI PUSH1 0x40 MLOAD PUSH3 0x461BCD PUSH1 0xE5 SHL DUP2 MSTORE PUSH1 0x4 ADD PUSH2 0x8AA SWAP1 PUSH1 0x20 DUP1 DUP3 MSTORE PUSH1 0x4 SWAP1 DUP3 ADD MSTORE PUSH4 0x855D215 PUSH1 0xE2 SHL PUSH1 0x40 DUP3 ADD MSTORE PUSH1 0x60 ADD SWAP1 JUMP JUMPDEST PUSH2 0x2F45 PUSH2 0x3DAC JUMP JUMPDEST PUSH0 CALLVALUE GT PUSH2 0x2F7A JUMPI PUSH1 0x40 MLOAD PUSH3 0x461BCD PUSH1 0xE5 SHL DUP2 MSTORE PUSH1 0x20 PUSH1 0x4 DUP3 ADD MSTORE PUSH1 0x3 PUSH1 0x24 DUP3 ADD MSTORE PUSH3 0x414D47 PUSH1 0xE8 SHL PUSH1 0x44 DUP3 ADD MSTORE PUSH1 0x64 ADD PUSH2 0x8AA JUMP JUMPDEST PUSH0 PUSH2 0x2710 PUSH1 0x12 SLOAD CALLVALUE PUSH2 0x2F8C SWAP2 SWAP1 PUSH2 0x50F2 JUMP JUMPDEST PUSH2 0x2F96 SWAP2 SWAP1 PUSH2 0x5109 JUMP JUMPDEST SWAP1 POP PUSH0 PUSH2 0x2FA3 DUP3 CALLVALUE PUSH2 0x52B3 JUMP JUMPDEST SWAP1 POP DUP2 PUSH1 0x14 PUSH0 DUP3 DUP3 SLOAD PUSH2 0x2FB6 SWAP2 SWAP1 PUSH2 0x52A0 JUMP JUMPDEST SWAP1 SWAP2 SSTORE POP POP DUP1 PUSH2 0x301B JUMPI PUSH1 0x40 MLOAD PUSH3 0x461BCD PUSH1 0xE5 SHL DUP2 MSTORE PUSH1 0x20 PUSH1 0x4 DUP3 ADD MSTORE PUSH1 0x2A PUSH1 0x24 DUP3 ADD MSTORE PUSH32 0x416D6F756E7420616674657220666565206D7573742062652067726561746572 PUSH1 0x44 DUP3 ADD MSTORE PUSH10 0x207468616E207A65726F PUSH1 0xB0 SHL PUSH1 0x64 DUP3 ADD MSTORE PUSH1 0x84 ADD PUSH2 0x8AA JUMP JUMPDEST PUSH2 0x3025 CALLER DUP3 PUSH2 0x467C JUMP JUMPDEST PUSH0 JUMPDEST PUSH1 0x10 SLOAD DUP2 LT ISZERO PUSH2 0x28F3 JUMPI PUSH0 PUSH1 0x10 DUP3 DUP2 SLOAD DUP2 LT PUSH2 0x3045 JUMPI PUSH2 0x3045 PUSH2 0x5164 JUMP JUMPDEST SWAP1 PUSH0 MSTORE PUSH1 0x20 PUSH0 KECCAK256 SWAP1 PUSH1 0x4 MUL ADD SWAP1 POP PUSH0 PUSH2 0x2710 DUP3 PUSH1 0x1 ADD SLOAD DUP6 PUSH2 0x3067 SWAP2 SWAP1 PUSH2 0x50F2 JUMP JUMPDEST PUSH2 0x3071 SWAP2 SWAP1 PUSH2 0x5109 JUMP JUMPDEST SWAP1 POP DUP4 DUP2 GT ISZERO PUSH2 0x30B7 JUMPI PUSH1 0x40 MLOAD PUSH3 0x461BCD PUSH1 0xE5 SHL DUP2 MSTORE PUSH1 0x20 PUSH1 0x4 DUP3 ADD MSTORE PUSH1 0x11 PUSH1 0x24 DUP3 ADD MSTORE PUSH17 0x63616C4554483C3D616D6F756E74666565 PUSH1 0x78 SHL PUSH1 0x44 DUP3 ADD MSTORE PUSH1 0x64 ADD PUSH2 0x8AA JUMP JUMPDEST DUP2 SLOAD PUSH1 0x3 DUP4 ADD SLOAD PUSH1 0x40 MLOAD PUSH4 0x1CE07AE9 PUSH1 0xE1 SHL DUP2 MSTORE ADDRESS SWAP3 PUSH4 0x39C0F5D2 SWAP3 DUP6 SWAP3 PUSH2 0x30F8 SWAP3 PUSH1 0x1 PUSH1 0x1 PUSH1 0xA0 SHL SUB AND SWAP2 DUP5 SWAP2 PUSH1 0x2 DUP11 ADD SWAP2 PUSH3 0xFFFFFF AND SWAP1 PUSH1 0x4 ADD PUSH2 0x5178 JUMP JUMPDEST PUSH0 PUSH1 0x40 MLOAD DUP1 DUP4 SUB DUP2 DUP6 DUP9 DUP1 EXTCODESIZE ISZERO DUP1 ISZERO PUSH2 0x310F JUMPI PUSH0 DUP1 REVERT JUMPDEST POP GAS CALL SWAP4 POP POP POP POP DUP1 ISZERO PUSH2 0x3121 JUMPI POP PUSH1 0x1 JUMPDEST PUSH2 0x32C1 JUMPI CALLER PUSH0 SWAP1 DUP2 MSTORE PUSH1 0x11 PUSH1 0x20 MSTORE PUSH1 0x40 DUP2 KECCAK256 DUP1 SLOAD DUP4 SWAP3 SWAP1 PUSH2 0x3143 SWAP1 DUP5 SWAP1 PUSH2 0x52A0 JUMP JUMPDEST SWAP1 SWAP2 SSTORE POP POP PUSH1 0x40 DUP1 MLOAD PUSH1 0xA0 DUP2 ADD DUP3 MSTORE CALLER DUP2 MSTORE DUP4 SLOAD PUSH1 0x1 PUSH1 0x1 PUSH1 0xA0 SHL SUB AND PUSH1 0x20 DUP3 ADD MSTORE SWAP1 DUP2 ADD DUP3 SWAP1 MSTORE PUSH1 0x2 DUP4 ADD DUP1 SLOAD PUSH1 0x9 SWAP3 SWAP2 PUSH1 0x60 DUP4 ADD SWAP2 PUSH2 0x3183 SWAP1 PUSH2 0x5073 JUMP JUMPDEST DUP1 PUSH1 0x1F ADD PUSH1 0x20 DUP1 SWAP2 DIV MUL PUSH1 0x20 ADD PUSH1 0x40 MLOAD SWAP1 DUP2 ADD PUSH1 0x40 MSTORE DUP1 SWAP3 SWAP2 SWAP1 DUP2 DUP2 MSTORE PUSH1 0x20 ADD DUP3 DUP1 SLOAD PUSH2 0x31AF SWAP1 PUSH2 0x5073 JUMP JUMPDEST DUP1 ISZERO PUSH2 0x31FA JUMPI DUP1 PUSH1 0x1F LT PUSH2 0x31D1 JUMPI PUSH2 0x100 DUP1 DUP4 SLOAD DIV MUL DUP4 MSTORE SWAP2 PUSH1 0x20 ADD SWAP2 PUSH2 0x31FA JUMP JUMPDEST DUP3 ADD SWAP2 SWAP1 PUSH0 MSTORE PUSH1 0x20 PUSH0 KECCAK256 SWAP1 JUMPDEST DUP2 SLOAD DUP2 MSTORE SWAP1 PUSH1 0x1 ADD SWAP1 PUSH1 0x20 ADD DUP1 DUP4 GT PUSH2 0x31DD JUMPI DUP3 SWAP1 SUB PUSH1 0x1F AND DUP3 ADD SWAP2 JUMPDEST POP POP POP SWAP2 DUP4 MSTORE POP POP PUSH1 0x3 DUP6 DUP2 ADD SLOAD PUSH3 0xFFFFFF AND PUSH1 0x20 SWAP3 DUP4 ADD MSTORE DUP4 SLOAD PUSH1 0x1 DUP1 DUP3 ADD DUP7 SSTORE PUSH0 SWAP6 DUP7 MSTORE SWAP5 DUP4 SWAP1 KECCAK256 DUP5 MLOAD PUSH1 0x5 SWAP1 SWAP3 MUL ADD DUP1 SLOAD PUSH1 0x1 PUSH1 0x1 PUSH1 0xA0 SHL SUB NOT SWAP1 DUP2 AND PUSH1 0x1 PUSH1 0x1 PUSH1 0xA0 SHL SUB SWAP4 DUP5 AND OR DUP3 SSTORE SWAP4 DUP6 ADD MLOAD SWAP6 DUP2 ADD DUP1 SLOAD SWAP1 SWAP5 AND SWAP6 SWAP1 SWAP2 AND SWAP5 SWAP1 SWAP5 OR SWAP1 SWAP2 SSTORE PUSH1 0x40 DUP3 ADD MLOAD PUSH1 0x2 DUP5 ADD SSTORE PUSH1 0x60 DUP3 ADD MLOAD SWAP2 SWAP3 SWAP2 SWAP1 DUP3 ADD SWAP1 PUSH2 0x327F SWAP1 DUP3 PUSH2 0x5525 JUMP JUMPDEST POP PUSH1 0x80 SWAP2 SWAP1 SWAP2 ADD MLOAD PUSH1 0x4 SWAP1 SWAP2 ADD DUP1 SLOAD PUSH3 0xFFFFFF NOT AND PUSH3 0xFFFFFF SWAP1 SWAP3 AND SWAP2 SWAP1 SWAP2 OR SWAP1 SSTORE CALLER PUSH0 SWAP1 DUP2 MSTORE PUSH1 0xD PUSH1 0x20 MSTORE PUSH1 0x40 DUP2 KECCAK256 DUP1 SLOAD SWAP2 PUSH2 0x32BB DUP4 PUSH2 0x55DA JUMP JUMPDEST SWAP2 SWAP1 POP SSTORE POP JUMPDEST POP POP PUSH1 0x1 ADD PUSH2 0x3027 JUMP JUMPDEST PUSH1 0x1 PUSH1 0x1 PUSH1 0xA0 SHL SUB SWAP2 DUP3 AND PUSH0 SWAP1 DUP2 MSTORE PUSH1 0x2 PUSH1 0x20 SWAP1 DUP2 MSTORE PUSH1 0x40 DUP1 DUP4 KECCAK256 SWAP4 SWAP1 SWAP5 AND DUP3 MSTORE SWAP2 SWAP1 SWAP2 MSTORE KECCAK256 SLOAD SWAP1 JUMP JUMPDEST PUSH1 0x6 SLOAD PUSH1 0x40 DUP1 MLOAD PUSH4 0x15AB88C9 PUSH1 0xE3 SHL DUP2 MSTORE SWAP1 MLOAD PUSH0 SWAP3 PUSH1 0x1 PUSH1 0x1 PUSH1 0xA0 SHL SUB AND SWAP2 PUSH4 0xAD5C4648 SWAP2 PUSH1 0x4 DUP1 DUP4 ADD SWAP3 PUSH1 0x20 SWAP3 SWAP2 SWAP1 DUP3 SWAP1 SUB ADD DUP2 DUP7 GAS STATICCALL ISZERO DUP1 ISZERO PUSH2 0x333C JUMPI RETURNDATASIZE PUSH0 DUP1 RETURNDATACOPY RETURNDATASIZE PUSH0 REVERT JUMPDEST POP POP POP POP PUSH1 0x40 MLOAD RETURNDATASIZE PUSH1 0x1F NOT PUSH1 0x1F DUP3 ADD AND DUP3 ADD DUP1 PUSH1 0x40 MSTORE POP DUP2 ADD SWAP1 PUSH2 0x3360 SWAP2 SWAP1 PUSH2 0x5149 JUMP JUMPDEST SWAP1 POP SWAP1 JUMP JUMPDEST PUSH0 PUSH1 0x40 MLOAD PUSH1 0x20 ADD PUSH2 0x3375 SWAP1 PUSH2 0x52FA JUMP JUMPDEST PUSH1 0x40 MLOAD PUSH1 0x20 DUP2 DUP4 SUB SUB DUP2 MSTORE SWAP1 PUSH1 0x40 MSTORE DUP1 MLOAD SWAP1 PUSH1 0x20 ADD KECCAK256 DUP4 PUSH1 0x40 MLOAD PUSH1 0x20 ADD PUSH2 0x339C SWAP2 SWAP1 PUSH2 0x547B JUMP JUMPDEST PUSH1 0x40 MLOAD PUSH1 0x20 DUP2 DUP4 SUB SUB DUP2 MSTORE SWAP1 PUSH1 0x40 MSTORE DUP1 MLOAD SWAP1 PUSH1 0x20 ADD KECCAK256 SUB PUSH2 0x3559 JUMPI PUSH1 0x40 DUP1 MLOAD PUSH1 0x2 DUP1 DUP3 MSTORE PUSH1 0x60 DUP3 ADD DUP4 MSTORE PUSH0 SWAP3 PUSH1 0x20 DUP4 ADD SWAP1 DUP1 CALLDATASIZE DUP4 CALLDATACOPY ADD SWAP1 POP POP SWAP1 POP DUP6 DUP2 PUSH0 DUP2 MLOAD DUP2 LT PUSH2 0x33EA JUMPI PUSH2 0x33EA PUSH2 0x5164 JUMP JUMPDEST PUSH1 0x1 PUSH1 0x1 PUSH1 0xA0 SHL SUB SWAP3 DUP4 AND PUSH1 0x20 SWAP2 DUP3 MUL SWAP3 SWAP1 SWAP3 ADD DUP2 ADD SWAP2 SWAP1 SWAP2 MSTORE PUSH1 0x6 SLOAD PUSH1 0x40 DUP1 MLOAD PUSH4 0x15AB88C9 PUSH1 0xE3 SHL DUP2 MSTORE SWAP1 MLOAD SWAP2 SWAP1 SWAP4 AND SWAP3 PUSH4 0xAD5C4648 SWAP3 PUSH1 0x4 DUP1 DUP4 ADD SWAP4 SWAP2 SWAP3 DUP3 SWAP1 SUB ADD DUP2 DUP7 GAS STATICCALL ISZERO DUP1 ISZERO PUSH2 0x3441 JUMPI RETURNDATASIZE PUSH0 DUP1 RETURNDATACOPY RETURNDATASIZE PUSH0 REVERT JUMPDEST POP POP POP POP PUSH1 0x40 MLOAD RETURNDATASIZE PUSH1 0x1F NOT PUSH1 0x1F DUP3 ADD AND DUP3 ADD DUP1 PUSH1 0x40 MSTORE POP DUP2 ADD SWAP1 PUSH2 0x3465 SWAP2 SWAP1 PUSH2 0x5149 JUMP JUMPDEST DUP2 PUSH1 0x1 DUP2 MLOAD DUP2 LT PUSH2 0x3478 JUMPI PUSH2 0x3478 PUSH2 0x5164 JUMP JUMPDEST PUSH1 0x1 PUSH1 0x1 PUSH1 0xA0 SHL SUB SWAP3 DUP4 AND PUSH1 0x20 SWAP2 DUP3 MUL SWAP3 SWAP1 SWAP3 ADD ADD MSTORE PUSH1 0x6 SLOAD PUSH1 0x40 MLOAD PUSH4 0xD06CA61F PUSH1 0xE0 SHL DUP2 MSTORE PUSH0 SWAP3 SWAP2 SWAP1 SWAP2 AND SWAP1 PUSH4 0xD06CA61F SWAP1 PUSH2 0x34BB SWAP1 DUP10 SWAP1 DUP7 SWAP1 PUSH1 0x4 ADD PUSH2 0x534B JUMP JUMPDEST PUSH0 PUSH1 0x40 MLOAD DUP1 DUP4 SUB DUP2 DUP7 GAS STATICCALL ISZERO DUP1 ISZERO PUSH2 0x34D5 JUMPI RETURNDATASIZE PUSH0 DUP1 RETURNDATACOPY RETURNDATASIZE PUSH0 REVERT JUMPDEST POP POP POP POP PUSH1 0x40 MLOAD RETURNDATASIZE PUSH0 DUP3 RETURNDATACOPY PUSH1 0x1F RETURNDATASIZE SWAP1 DUP2 ADD PUSH1 0x1F NOT AND DUP3 ADD PUSH1 0x40 MSTORE PUSH2 0x34FC SWAP2 SWAP1 DUP2 ADD SWAP1 PUSH2 0x5363 JUMP JUMPDEST SWAP1 POP PUSH0 PUSH2 0x2710 PUSH1 0xA SLOAD PUSH2 0x2710 PUSH2 0x3512 SWAP2 SWAP1 PUSH2 0x52B3 JUMP JUMPDEST DUP4 PUSH1 0x1 DUP2 MLOAD DUP2 LT PUSH2 0x3525 JUMPI PUSH2 0x3525 PUSH2 0x5164 JUMP JUMPDEST PUSH1 0x20 MUL PUSH1 0x20 ADD ADD MLOAD PUSH2 0x3537 SWAP2 SWAP1 PUSH2 0x50F2 JUMP JUMPDEST PUSH2 0x3541 SWAP2 SWAP1 PUSH2 0x5109 JUMP JUMPDEST SWAP1 POP PUSH2 0x354F DUP9 DUP9 DUP4 ADDRESS PUSH2 0x15C4 JUMP JUMPDEST SWAP4 POP POP POP POP PUSH2 0x17A7 JUMP JUMPDEST PUSH1 0x40 MLOAD PUSH1 0x20 ADD PUSH2 0x3568 SWAP1 PUSH2 0x5221 JUMP JUMPDEST PUSH1 0x40 MLOAD PUSH1 0x20 DUP2 DUP4 SUB SUB DUP2 MSTORE SWAP1 PUSH1 0x40 MSTORE DUP1 MLOAD SWAP1 PUSH1 0x20 ADD KECCAK256 DUP4 PUSH1 0x40 MLOAD PUSH1 0x20 ADD PUSH2 0x358F SWAP2 SWAP1 PUSH2 0x547B JUMP JUMPDEST PUSH1 0x40 MLOAD PUSH1 0x20 DUP2 DUP4 SUB SUB DUP2 MSTORE SWAP1 PUSH1 0x40 MSTORE DUP1 MLOAD SWAP1 PUSH1 0x20 ADD KECCAK256 SUB PUSH2 0x1C20 JUMPI PUSH0 DUP6 DUP4 PUSH1 0x6 PUSH0 SWAP1 SLOAD SWAP1 PUSH2 0x100 EXP SWAP1 DIV PUSH1 0x1 PUSH1 0x1 PUSH1 0xA0 SHL SUB AND PUSH1 0x1 PUSH1 0x1 PUSH1 0xA0 SHL SUB AND PUSH4 0xAD5C4648 PUSH1 0x40 MLOAD DUP2 PUSH4 0xFFFFFFFF AND PUSH1 0xE0 SHL DUP2 MSTORE PUSH1 0x4 ADD PUSH1 0x20 PUSH1 0x40 MLOAD DUP1 DUP4 SUB DUP2 DUP7 GAS STATICCALL ISZERO DUP1 ISZERO PUSH2 0x35FD JUMPI RETURNDATASIZE PUSH0 DUP1 RETURNDATACOPY RETURNDATASIZE PUSH0 REVERT JUMPDEST POP POP POP POP PUSH1 0x40 MLOAD RETURNDATASIZE PUSH1 0x1F NOT PUSH1 0x1F DUP3 ADD AND DUP3 ADD DUP1 PUSH1 0x40 MSTORE POP DUP2 ADD SWAP1 PUSH2 0x3621 SWAP2 SWAP1 PUSH2 0x5149 JUMP JUMPDEST PUSH1 0x40 MLOAD PUSH1 0x20 ADD PUSH2 0x3633 SWAP4 SWAP3 SWAP2 SWAP1 PUSH2 0x53E9 JUMP JUMPDEST PUSH1 0x40 DUP1 MLOAD PUSH1 0x1F NOT DUP2 DUP5 SUB ADD DUP2 MSTORE SWAP1 DUP3 SWAP1 MSTORE PUSH1 0x8 SLOAD PUSH4 0xCDCA1753 PUSH1 0xE0 SHL DUP4 MSTORE SWAP1 SWAP3 POP PUSH0 SWAP2 PUSH1 0x1 PUSH1 0x1 PUSH1 0xA0 SHL SUB SWAP1 SWAP2 AND SWAP1 PUSH4 0xCDCA1753 SWAP1 PUSH2 0x3678 SWAP1 DUP6 SWAP1 DUP11 SWAP1 PUSH1 0x4 ADD PUSH2 0x541F JUMP JUMPDEST PUSH1 0x20 PUSH1 0x40 MLOAD DUP1 DUP4 SUB DUP2 PUSH0 DUP8 GAS CALL ISZERO DUP1 ISZERO PUSH2 0x3694 JUMPI RETURNDATASIZE PUSH0 DUP1 RETURNDATACOPY RETURNDATASIZE PUSH0 REVERT JUMPDEST POP POP POP POP PUSH1 0x40 MLOAD RETURNDATASIZE PUSH1 0x1F NOT PUSH1 0x1F DUP3 ADD AND DUP3 ADD DUP1 PUSH1 0x40 MSTORE POP DUP2 ADD SWAP1 PUSH2 0x36B8 SWAP2 SWAP1 PUSH2 0x50C7 JUMP JUMPDEST SWAP1 POP PUSH0 PUSH2 0x2710 PUSH1 0xA SLOAD PUSH2 0x2710 PUSH2 0x36CE SWAP2 SWAP1 PUSH2 0x52B3 JUMP JUMPDEST PUSH2 0x36D8 SWAP1 DUP5 PUSH2 0x50F2 JUMP JUMPDEST PUSH2 0x36E2 SWAP2 SWAP1 PUSH2 0x5109 JUMP JUMPDEST SWAP1 POP PUSH2 0x354F DUP9 DUP9 DUP8 DUP5 ADDRESS PUSH2 0x372B JUMP JUMPDEST PUSH2 0x36F9 PUSH2 0x3CD3 JUMP JUMPDEST PUSH1 0x1 PUSH1 0x1 PUSH1 0xA0 SHL SUB DUP2 AND PUSH2 0x3722 JUMPI PUSH0 PUSH1 0x40 MLOAD PUSH4 0x1E4FBDF7 PUSH1 0xE0 SHL DUP2 MSTORE PUSH1 0x4 ADD PUSH2 0x8AA SWAP2 SWAP1 PUSH2 0x49B9 JUMP JUMPDEST PUSH2 0x2689 DUP2 PUSH2 0x4235 JUMP JUMPDEST PUSH0 DUP1 PUSH1 0x40 MLOAD DUP1 PUSH2 0x100 ADD PUSH1 0x40 MSTORE DUP1 DUP9 PUSH1 0x1 PUSH1 0x1 PUSH1 0xA0 SHL SUB AND DUP2 MSTORE PUSH1 0x20 ADD PUSH1 0x6 PUSH0 SWAP1 SLOAD SWAP1 PUSH2 0x100 EXP SWAP1 DIV PUSH1 0x1 PUSH1 0x1 PUSH1 0xA0 SHL SUB AND PUSH1 0x1 PUSH1 0x1 PUSH1 0xA0 SHL SUB AND PUSH4 0xAD5C4648 PUSH1 0x40 MLOAD DUP2 PUSH4 0xFFFFFFFF AND PUSH1 0xE0 SHL DUP2 MSTORE PUSH1 0x4 ADD PUSH1 0x20 PUSH1 0x40 MLOAD DUP1 DUP4 SUB DUP2 DUP7 GAS STATICCALL ISZERO DUP1 ISZERO PUSH2 0x3798 JUMPI RETURNDATASIZE PUSH0 DUP1 RETURNDATACOPY RETURNDATASIZE PUSH0 REVERT JUMPDEST POP POP POP POP PUSH1 0x40 MLOAD RETURNDATASIZE PUSH1 0x1F NOT PUSH1 0x1F DUP3 ADD AND DUP3 ADD DUP1 PUSH1 0x40 MSTORE POP DUP2 ADD SWAP1 PUSH2 0x37BC SWAP2 SWAP1 PUSH2 0x5149 JUMP JUMPDEST PUSH1 0x1 PUSH1 0x1 PUSH1 0xA0 SHL SUB AND DUP2 MSTORE PUSH1 0x20 ADD DUP7 PUSH3 0xFFFFFF AND DUP2 MSTORE PUSH1 0x20 ADD DUP5 PUSH1 0x1 PUSH1 0x1 PUSH1 0xA0 SHL SUB AND DUP2 MSTORE PUSH1 0x20 ADD TIMESTAMP DUP2 MSTORE PUSH1 0x20 ADD DUP8 DUP2 MSTORE PUSH1 0x20 ADD DUP6 DUP2 MSTORE PUSH1 0x20 ADD PUSH0 PUSH1 0x1 PUSH1 0x1 PUSH1 0xA0 SHL SUB AND DUP2 MSTORE POP SWAP1 POP DUP7 PUSH1 0x1 PUSH1 0x1 PUSH1 0xA0 SHL SUB AND PUSH4 0x95EA7B3 PUSH1 0x7 PUSH0 SWAP1 SLOAD SWAP1 PUSH2 0x100 EXP SWAP1 DIV PUSH1 0x1 PUSH1 0x1 PUSH1 0xA0 SHL SUB AND DUP9 PUSH1 0x40 MLOAD DUP4 PUSH4 0xFFFFFFFF AND PUSH1 0xE0 SHL DUP2 MSTORE PUSH1 0x4 ADD PUSH2 0x3847 SWAP3 SWAP2 SWAP1 PUSH2 0x52C6 JUMP JUMPDEST PUSH1 0x20 PUSH1 0x40 MLOAD DUP1 DUP4 SUB DUP2 PUSH0 DUP8 GAS CALL ISZERO DUP1 ISZERO PUSH2 0x3863 JUMPI RETURNDATASIZE PUSH0 DUP1 RETURNDATACOPY RETURNDATASIZE PUSH0 REVERT JUMPDEST POP POP POP POP PUSH1 0x40 MLOAD RETURNDATASIZE PUSH1 0x1F NOT PUSH1 0x1F DUP3 ADD AND DUP3 ADD DUP1 PUSH1 0x40 MSTORE POP DUP2 ADD SWAP1 PUSH2 0x3887 SWAP2 SWAP1 PUSH2 0x52DF JUMP JUMPDEST POP PUSH1 0x7 SLOAD PUSH1 0x40 MLOAD PUSH4 0x414BF389 PUSH1 0xE0 SHL DUP2 MSTORE PUSH1 0x1 PUSH1 0x1 PUSH1 0xA0 SHL SUB SWAP1 SWAP2 AND SWAP1 PUSH4 0x414BF389 SWAP1 PUSH2 0x38B8 SWAP1 DUP5 SWAP1 PUSH1 0x4 ADD PUSH2 0x56B7 JUMP JUMPDEST PUSH1 0x20 PUSH1 0x40 MLOAD DUP1 DUP4 SUB DUP2 PUSH0 DUP8 GAS CALL ISZERO DUP1 ISZERO PUSH2 0x38D4 JUMPI RETURNDATASIZE PUSH0 DUP1 RETURNDATACOPY RETURNDATASIZE PUSH0 REVERT JUMPDEST POP POP POP POP PUSH1 0x40 MLOAD RETURNDATASIZE PUSH1 0x1F NOT PUSH1 0x1F DUP3 ADD AND DUP3 ADD DUP1 PUSH1 0x40 MSTORE POP DUP2 ADD SWAP1 PUSH2 0x38F8 SWAP2 SWAP1 PUSH2 0x50C7 JUMP JUMPDEST SWAP2 POP POP JUMPDEST SWAP6 SWAP5 POP POP POP POP POP JUMP JUMPDEST PUSH2 0x390D PUSH2 0x3CD3 JUMP JUMPDEST PUSH0 DUP1 PUSH0 JUMPDEST PUSH1 0x10 SLOAD DUP2 LT ISZERO PUSH2 0x28F3 JUMPI PUSH0 PUSH1 0x10 DUP3 DUP2 SLOAD DUP2 LT PUSH2 0x392F JUMPI PUSH2 0x392F PUSH2 0x5164 JUMP JUMPDEST PUSH0 SWAP2 DUP3 MSTORE PUSH1 0x20 DUP3 KECCAK256 PUSH1 0x4 SWAP2 DUP3 MUL ADD DUP1 SLOAD PUSH1 0x40 MLOAD PUSH4 0x70A08231 PUSH1 0xE0 SHL DUP2 MSTORE SWAP2 SWAP5 POP PUSH1 0x1 PUSH1 0x1 PUSH1 0xA0 SHL SUB AND SWAP2 PUSH4 0x70A08231 SWAP2 PUSH2 0x396B SWAP2 ADDRESS SWAP2 ADD PUSH2 0x49B9 JUMP JUMPDEST PUSH1 0x20 PUSH1 0x40 MLOAD DUP1 DUP4 SUB DUP2 DUP7 GAS STATICCALL ISZERO DUP1 ISZERO PUSH2 0x3986 JUMPI RETURNDATASIZE PUSH0 DUP1 RETURNDATACOPY RETURNDATASIZE PUSH0 REVERT JUMPDEST POP POP POP POP PUSH1 0x40 MLOAD RETURNDATASIZE PUSH1 0x1F NOT PUSH1 0x1F DUP3 ADD AND DUP3 ADD DUP1 PUSH1 0x40 MSTORE POP DUP2 ADD SWAP1 PUSH2 0x39AA SWAP2 SWAP1 PUSH2 0x50C7 JUMP JUMPDEST SWAP1 POP PUSH1 0x40 MLOAD PUSH1 0x20 ADD PUSH2 0x39BB SWAP1 PUSH2 0x52FA JUMP JUMPDEST PUSH1 0x40 MLOAD PUSH1 0x20 DUP2 DUP4 SUB SUB DUP2 MSTORE SWAP1 PUSH1 0x40 MSTORE DUP1 MLOAD SWAP1 PUSH1 0x20 ADD KECCAK256 DUP3 PUSH1 0x2 ADD PUSH1 0x40 MLOAD PUSH1 0x20 ADD PUSH2 0x39E5 SWAP2 SWAP1 PUSH2 0x522F JUMP JUMPDEST PUSH1 0x40 MLOAD PUSH1 0x20 DUP2 DUP4 SUB SUB DUP2 MSTORE SWAP1 PUSH1 0x40 MSTORE DUP1 MLOAD SWAP1 PUSH1 0x20 ADD KECCAK256 SUB PUSH2 0x3B17 JUMPI PUSH1 0x40 DUP1 MLOAD PUSH1 0x2 DUP1 DUP3 MSTORE PUSH1 0x60 DUP3 ADD DUP4 MSTORE PUSH0 SWAP3 PUSH1 0x20 DUP4 ADD SWAP1 DUP1 CALLDATASIZE DUP4 CALLDATACOPY POP POP DUP5 SLOAD DUP3 MLOAD SWAP3 SWAP4 POP PUSH1 0x1 PUSH1 0x1 PUSH1 0xA0 SHL SUB AND SWAP2 DUP4 SWAP2 POP PUSH0 SWAP1 PUSH2 0x3A3E JUMPI PUSH2 0x3A3E PUSH2 0x5164 JUMP JUMPDEST PUSH1 0x20 MUL PUSH1 0x20 ADD ADD SWAP1 PUSH1 0x1 PUSH1 0x1 PUSH1 0xA0 SHL SUB AND SWAP1 DUP2 PUSH1 0x1 PUSH1 0x1 PUSH1 0xA0 SHL SUB AND DUP2 MSTORE POP POP PUSH2 0x3A66 PUSH2 0x32F5 JUMP JUMPDEST DUP2 PUSH1 0x1 DUP2 MLOAD DUP2 LT PUSH2 0x3A79 JUMPI PUSH2 0x3A79 PUSH2 0x5164 JUMP JUMPDEST PUSH1 0x20 MUL PUSH1 0x20 ADD ADD SWAP1 PUSH1 0x1 PUSH1 0x1 PUSH1 0xA0 SHL SUB AND SWAP1 DUP2 PUSH1 0x1 PUSH1 0x1 PUSH1 0xA0 SHL SUB AND DUP2 MSTORE POP POP PUSH0 PUSH2 0x3AA4 DUP4 DUP4 PUSH2 0x2E82 JUMP JUMPDEST SWAP1 POP PUSH0 PUSH2 0x2710 PUSH1 0xA SLOAD PUSH2 0x2710 PUSH2 0x3ABA SWAP2 SWAP1 PUSH2 0x52B3 JUMP JUMPDEST DUP4 PUSH1 0x1 DUP2 MLOAD DUP2 LT PUSH2 0x3ACD JUMPI PUSH2 0x3ACD PUSH2 0x5164 JUMP JUMPDEST PUSH1 0x20 MUL PUSH1 0x20 ADD ADD MLOAD PUSH2 0x3ADF SWAP2 SWAP1 PUSH2 0x50F2 JUMP JUMPDEST PUSH2 0x3AE9 SWAP2 SWAP1 PUSH2 0x5109 JUMP JUMPDEST DUP6 SLOAD SWAP1 SWAP2 POP PUSH2 0x3B03 SWAP1 PUSH1 0x1 PUSH1 0x1 PUSH1 0xA0 SHL SUB AND DUP6 DUP4 CALLER PUSH2 0x15C4 JUMP JUMPDEST PUSH2 0x3B0D SWAP1 DUP10 PUSH2 0x52A0 JUMP JUMPDEST SWAP8 POP POP POP POP PUSH2 0x3CBC JUMP JUMPDEST PUSH1 0x40 MLOAD PUSH1 0x20 ADD PUSH2 0x3B26 SWAP1 PUSH2 0x5221 JUMP JUMPDEST PUSH1 0x40 MLOAD PUSH1 0x20 DUP2 DUP4 SUB SUB DUP2 MSTORE SWAP1 PUSH1 0x40 MSTORE DUP1 MLOAD SWAP1 PUSH1 0x20 ADD KECCAK256 DUP3 PUSH1 0x2 ADD PUSH1 0x40 MLOAD PUSH1 0x20 ADD PUSH2 0x3B50 SWAP2 SWAP1 PUSH2 0x522F JUMP JUMPDEST PUSH1 0x40 MLOAD PUSH1 0x20 DUP2 DUP4 SUB SUB DUP2 MSTORE SWAP1 PUSH1 0x40 MSTORE DUP1 MLOAD SWAP1 PUSH1 0x20 ADD KECCAK256 SUB PUSH2 0x3C88 JUMPI DUP2 SLOAD PUSH1 0x3 DUP4 ADD SLOAD PUSH0 SWAP2 PUSH1 0x1 PUSH1 0x1 PUSH1 0xA0 SHL SUB AND SWAP1 PUSH3 0xFFFFFF AND PUSH2 0x3B8B PUSH2 0x32F5 JUMP JUMPDEST PUSH1 0x40 MLOAD PUSH1 0x20 ADD PUSH2 0x3B9D SWAP4 SWAP3 SWAP2 SWAP1 PUSH2 0x53E9 JUMP JUMPDEST PUSH1 0x40 DUP1 MLOAD PUSH1 0x1F NOT DUP2 DUP5 SUB ADD DUP2 MSTORE SWAP1 DUP3 SWAP1 MSTORE PUSH1 0x8 SLOAD PUSH4 0xCDCA1753 PUSH1 0xE0 SHL DUP4 MSTORE SWAP1 SWAP3 POP PUSH0 SWAP2 PUSH1 0x1 PUSH1 0x1 PUSH1 0xA0 SHL SUB SWAP1 SWAP2 AND SWAP1 PUSH4 0xCDCA1753 SWAP1 PUSH2 0x3BE2 SWAP1 DUP6 SWAP1 DUP8 SWAP1 PUSH1 0x4 ADD PUSH2 0x541F JUMP JUMPDEST PUSH1 0x20 PUSH1 0x40 MLOAD DUP1 DUP4 SUB DUP2 PUSH0 DUP8 GAS CALL ISZERO DUP1 ISZERO PUSH2 0x3BFE JUMPI RETURNDATASIZE PUSH0 DUP1 RETURNDATACOPY RETURNDATASIZE PUSH0 REVERT JUMPDEST POP POP POP POP PUSH1 0x40 MLOAD RETURNDATASIZE PUSH1 0x1F NOT PUSH1 0x1F DUP3 ADD AND DUP3 ADD DUP1 PUSH1 0x40 MSTORE POP DUP2 ADD SWAP1 PUSH2 0x3C22 SWAP2 SWAP1 PUSH2 0x50C7 JUMP JUMPDEST SWAP1 POP PUSH0 PUSH2 0x2710 PUSH1 0xA SLOAD PUSH2 0x2710 PUSH2 0x3C38 SWAP2 SWAP1 PUSH2 0x52B3 JUMP JUMPDEST PUSH2 0x3C42 SWAP1 DUP5 PUSH2 0x50F2 JUMP JUMPDEST PUSH2 0x3C4C SWAP2 SWAP1 PUSH2 0x5109 JUMP JUMPDEST DUP6 SLOAD PUSH1 0x3 DUP8 ADD SLOAD SWAP2 SWAP3 POP PUSH2 0x3C74 SWAP2 PUSH1 0x1 PUSH1 0x1 PUSH1 0xA0 SHL SUB SWAP1 SWAP2 AND SWAP1 DUP7 SWAP1 PUSH3 0xFFFFFF AND DUP5 CALLER PUSH2 0x372B JUMP JUMPDEST PUSH2 0x3C7E SWAP1 DUP9 PUSH2 0x52A0 JUMP JUMPDEST SWAP7 POP POP POP POP PUSH2 0x3CBC JUMP JUMPDEST PUSH1 0x40 MLOAD PUSH3 0x461BCD PUSH1 0xE5 SHL DUP2 MSTORE PUSH1 0x20 PUSH1 0x4 DUP3 ADD MSTORE PUSH1 0x9 PUSH1 0x24 DUP3 ADD MSTORE PUSH9 0x496E76616C69645653 PUSH1 0xB8 SHL PUSH1 0x44 DUP3 ADD MSTORE PUSH1 0x64 ADD PUSH2 0x8AA JUMP JUMPDEST POP POP PUSH1 0x1 ADD PUSH2 0x3911 JUMP JUMPDEST PUSH2 0x28F3 DUP4 DUP4 DUP4 PUSH1 0x1 PUSH2 0x46B0 JUMP JUMPDEST CALLER PUSH2 0x3CDC PUSH2 0x2937 JUMP JUMPDEST PUSH1 0x1 PUSH1 0x1 PUSH1 0xA0 SHL SUB AND EQ PUSH2 0x269D JUMPI CALLER PUSH1 0x40 MLOAD PUSH4 0x118CDAA7 PUSH1 0xE0 SHL DUP2 MSTORE PUSH1 0x4 ADD PUSH2 0x8AA SWAP2 SWAP1 PUSH2 0x49B9 JUMP JUMPDEST PUSH0 PUSH2 0x3D10 DUP5 DUP5 PUSH2 0x32CB JUMP JUMPDEST SWAP1 POP PUSH0 NOT DUP2 EQ PUSH2 0x15BE JUMPI DUP2 DUP2 LT ISZERO PUSH2 0x3D41 JUMPI DUP3 DUP2 DUP4 PUSH1 0x40 MLOAD PUSH4 0x7DC7A0D9 PUSH1 0xE1 SHL DUP2 MSTORE PUSH1 0x4 ADD PUSH2 0x8AA SWAP4 SWAP3 SWAP2 SWAP1 PUSH2 0x572B JUMP JUMPDEST PUSH2 0x15BE DUP5 DUP5 DUP5 DUP5 SUB PUSH0 PUSH2 0x46B0 JUMP JUMPDEST PUSH1 0x1 PUSH1 0x1 PUSH1 0xA0 SHL SUB DUP4 AND PUSH2 0x3D78 JUMPI PUSH0 PUSH1 0x40 MLOAD PUSH4 0x4B637E8F PUSH1 0xE1 SHL DUP2 MSTORE PUSH1 0x4 ADD PUSH2 0x8AA SWAP2 SWAP1 PUSH2 0x49B9 JUMP JUMPDEST PUSH1 0x1 PUSH1 0x1 PUSH1 0xA0 SHL SUB DUP3 AND PUSH2 0x3DA1 JUMPI PUSH0 PUSH1 0x40 MLOAD PUSH4 0xEC442F05 PUSH1 0xE0 SHL DUP2 MSTORE PUSH1 0x4 ADD PUSH2 0x8AA SWAP2 SWAP1 PUSH2 0x49B9 JUMP JUMPDEST PUSH2 0x28F3 DUP4 DUP4 DUP4 PUSH2 0x4782 JUMP JUMPDEST PUSH2 0x3DB4 PUSH2 0x2192 JUMP JUMPDEST ISZERO PUSH2 0x269D JUMPI PUSH1 0x40 MLOAD PUSH4 0xD93C0665 PUSH1 0xE0 SHL DUP2 MSTORE PUSH1 0x4 ADD PUSH1 0x40 MLOAD DUP1 SWAP2 SUB SWAP1 REVERT JUMPDEST PUSH1 0x1 PUSH1 0x1 PUSH1 0xA0 SHL SUB DUP3 AND PUSH2 0x3DFB JUMPI PUSH0 PUSH1 0x40 MLOAD PUSH4 0x4B637E8F PUSH1 0xE1 SHL DUP2 MSTORE PUSH1 0x4 ADD PUSH2 0x8AA SWAP2 SWAP1 PUSH2 0x49B9 JUMP JUMPDEST PUSH2 0x1FA0 DUP3 PUSH0 DUP4 PUSH2 0x4782 JUMP JUMPDEST PUSH1 0x40 DUP1 MLOAD PUSH1 0x2 DUP1 DUP3 MSTORE PUSH1 0x60 DUP1 DUP4 ADD DUP5 MSTORE SWAP3 PUSH0 SWAP3 SWAP2 SWAP1 PUSH1 0x20 DUP4 ADD SWAP1 DUP1 CALLDATASIZE DUP4 CALLDATACOPY POP POP PUSH1 0x6 SLOAD PUSH1 0x40 DUP1 MLOAD PUSH4 0x15AB88C9 PUSH1 0xE3 SHL DUP2 MSTORE SWAP1 MLOAD SWAP4 SWAP5 POP PUSH1 0x1 PUSH1 0x1 PUSH1 0xA0 SHL SUB SWAP1 SWAP2 AND SWAP3 PUSH4 0xAD5C4648 SWAP3 POP PUSH1 0x4 DUP1 DUP4 ADD SWAP3 PUSH1 0x20 SWAP3 SWAP2 SWAP1 DUP3 SWAP1 SUB ADD DUP2 DUP7 GAS STATICCALL ISZERO DUP1 ISZERO PUSH2 0x3E71 JUMPI RETURNDATASIZE PUSH0 DUP1 RETURNDATACOPY RETURNDATASIZE PUSH0 REVERT JUMPDEST POP POP POP POP PUSH1 0x40 MLOAD RETURNDATASIZE PUSH1 0x1F NOT PUSH1 0x1F DUP3 ADD AND DUP3 ADD DUP1 PUSH1 0x40 MSTORE POP DUP2 ADD SWAP1 PUSH2 0x3E95 SWAP2 SWAP1 PUSH2 0x5149 JUMP JUMPDEST DUP2 PUSH0 DUP2 MLOAD DUP2 LT PUSH2 0x3EA7 JUMPI PUSH2 0x3EA7 PUSH2 0x5164 JUMP JUMPDEST PUSH1 0x20 MUL PUSH1 0x20 ADD ADD SWAP1 PUSH1 0x1 PUSH1 0x1 PUSH1 0xA0 SHL SUB AND SWAP1 DUP2 PUSH1 0x1 PUSH1 0x1 PUSH1 0xA0 SHL SUB AND DUP2 MSTORE POP POP DUP5 DUP2 PUSH1 0x1 DUP2 MLOAD DUP2 LT PUSH2 0x3EDB JUMPI PUSH2 0x3EDB PUSH2 0x5164 JUMP JUMPDEST PUSH1 0x1 PUSH1 0x1 PUSH1 0xA0 SHL SUB SWAP3 DUP4 AND PUSH1 0x20 SWAP2 DUP3 MUL SWAP3 SWAP1 SWAP3 ADD ADD MSTORE PUSH1 0x6 SLOAD PUSH1 0x40 MLOAD PUSH4 0x7FF36AB5 PUSH1 0xE0 SHL DUP2 MSTORE SWAP2 AND SWAP1 PUSH4 0x7FF36AB5 SWAP1 DUP7 SWAP1 PUSH2 0x3F20 SWAP1 DUP8 SWAP1 DUP7 SWAP1 ADDRESS SWAP1 TIMESTAMP SWAP1 PUSH1 0x4 ADD PUSH2 0x574C JUMP JUMPDEST PUSH0 PUSH1 0x40 MLOAD DUP1 DUP4 SUB DUP2 DUP6 DUP9 GAS CALL ISZERO DUP1 ISZERO PUSH2 0x3F3B JUMPI RETURNDATASIZE PUSH0 DUP1 RETURNDATACOPY RETURNDATASIZE PUSH0 REVERT JUMPDEST POP POP POP POP POP PUSH1 0x40 MLOAD RETURNDATASIZE PUSH0 DUP3 RETURNDATACOPY PUSH1 0x1F RETURNDATASIZE SWAP1 DUP2 ADD PUSH1 0x1F NOT AND DUP3 ADD PUSH1 0x40 MSTORE PUSH2 0x38FC SWAP2 SWAP1 DUP2 ADD SWAP1 PUSH2 0x5363 JUMP JUMPDEST PUSH1 0x40 DUP1 MLOAD PUSH2 0x100 DUP2 ADD DUP1 DUP4 MSTORE PUSH1 0x6 SLOAD PUSH4 0x15AB88C9 PUSH1 0xE3 SHL SWAP1 SWAP2 MSTORE SWAP2 MLOAD PUSH0 SWAP3 DUP3 SWAP2 PUSH1 0x1 PUSH1 0x1 PUSH1 0xA0 SHL SUB SWAP1 SWAP2 AND SWAP1 PUSH4 0xAD5C4648 SWAP1 PUSH2 0x104 DUP1 DUP6 ADD SWAP2 PUSH1 0x20 SWAP2 DUP2 DUP8 SUB ADD DUP2 DUP7 GAS STATICCALL ISZERO DUP1 ISZERO PUSH2 0x3FB6 JUMPI RETURNDATASIZE PUSH0 DUP1 RETURNDATACOPY RETURNDATASIZE PUSH0 REVERT JUMPDEST POP POP POP POP PUSH1 0x40 MLOAD RETURNDATASIZE PUSH1 0x1F NOT PUSH1 0x1F DUP3 ADD AND DUP3 ADD DUP1 PUSH1 0x40 MSTORE POP DUP2 ADD SWAP1 PUSH2 0x3FDA SWAP2 SWAP1 PUSH2 0x5149 JUMP JUMPDEST PUSH1 0x1 PUSH1 0x1 PUSH1 0xA0 SHL SUB SWAP1 DUP2 AND DUP3 MSTORE DUP8 DUP2 AND PUSH1 0x20 DUP4 ADD MSTORE PUSH3 0xFFFFFF DUP7 AND PUSH1 0x40 DUP1 DUP5 ADD SWAP2 SWAP1 SWAP2 MSTORE ADDRESS PUSH1 0x60 DUP5 ADD MSTORE TIMESTAMP PUSH1 0x80 DUP5 ADD MSTORE PUSH1 0xA0 DUP4 ADD DUP9 SWAP1 MSTORE PUSH1 0xC0 DUP4 ADD DUP7 SWAP1 MSTORE PUSH0 PUSH1 0xE0 SWAP1 SWAP4 ADD SWAP3 SWAP1 SWAP3 MSTORE PUSH1 0x7 SLOAD SWAP2 MLOAD PUSH4 0x414BF389 PUSH1 0xE0 SHL DUP2 MSTORE SWAP3 SWAP4 POP AND SWAP1 PUSH4 0x414BF389 SWAP1 DUP7 SWAP1 PUSH2 0x404C SWAP1 DUP6 SWAP1 PUSH1 0x4 ADD PUSH2 0x56B7 JUMP JUMPDEST PUSH1 0x20 PUSH1 0x40 MLOAD DUP1 DUP4 SUB DUP2 DUP6 DUP9 GAS CALL ISZERO DUP1 ISZERO PUSH2 0x4068 JUMPI RETURNDATASIZE PUSH0 DUP1 RETURNDATACOPY RETURNDATASIZE PUSH0 REVERT JUMPDEST POP POP POP POP POP PUSH1 0x40 MLOAD RETURNDATASIZE PUSH1 0x1F NOT PUSH1 0x1F DUP3 ADD AND DUP3 ADD DUP1 PUSH1 0x40 MSTORE POP DUP2 ADD SWAP1 PUSH2 0x408D SWAP2 SWAP1 PUSH2 0x50C7 JUMP JUMPDEST POP POP POP POP POP POP JUMP JUMPDEST PUSH1 0x9 SLOAD DUP2 LT PUSH2 0x40CF JUMPI PUSH1 0x40 MLOAD PUSH3 0x461BCD PUSH1 0xE5 SHL DUP2 MSTORE PUSH1 0x20 PUSH1 0x4 DUP3 ADD MSTORE PUSH1 0x6 PUSH1 0x24 DUP3 ADD MSTORE PUSH6 0x42D2DCC8CAF PUSH1 0xD3 SHL PUSH1 0x44 DUP3 ADD MSTORE PUSH1 0x64 ADD PUSH2 0x8AA JUMP JUMPDEST PUSH1 0x9 DUP1 SLOAD PUSH2 0x40DF SWAP1 PUSH1 0x1 SWAP1 PUSH2 0x52B3 JUMP JUMPDEST DUP2 SLOAD DUP2 LT PUSH2 0x40EF JUMPI PUSH2 0x40EF PUSH2 0x5164 JUMP JUMPDEST SWAP1 PUSH0 MSTORE PUSH1 0x20 PUSH0 KECCAK256 SWAP1 PUSH1 0x5 MUL ADD PUSH1 0x9 DUP3 DUP2 SLOAD DUP2 LT PUSH2 0x410E JUMPI PUSH2 0x410E PUSH2 0x5164 JUMP JUMPDEST PUSH0 SWAP2 DUP3 MSTORE PUSH1 0x20 SWAP1 SWAP2 KECCAK256 DUP3 SLOAD PUSH1 0x5 SWAP1 SWAP3 MUL ADD DUP1 SLOAD PUSH1 0x1 PUSH1 0x1 PUSH1 0xA0 SHL SUB SWAP3 DUP4 AND PUSH1 0x1 PUSH1 0x1 PUSH1 0xA0 SHL SUB NOT SWAP2 DUP3 AND OR DUP3 SSTORE PUSH1 0x1 DUP1 DUP6 ADD SLOAD SWAP1 DUP4 ADD DUP1 SLOAD SWAP2 SWAP1 SWAP5 AND SWAP2 AND OR SWAP1 SWAP2 SSTORE PUSH1 0x2 DUP1 DUP4 ADD SLOAD SWAP1 DUP3 ADD SSTORE PUSH1 0x3 DUP1 DUP3 ADD SWAP1 PUSH2 0x416C SWAP1 DUP5 ADD DUP3 PUSH2 0x5780 JUMP JUMPDEST POP PUSH1 0x4 SWAP2 DUP3 ADD SLOAD SWAP2 ADD DUP1 SLOAD PUSH3 0xFFFFFF NOT AND PUSH3 0xFFFFFF SWAP1 SWAP3 AND SWAP2 SWAP1 SWAP2 OR SWAP1 SSTORE PUSH1 0x9 DUP1 SLOAD DUP1 PUSH2 0x419B JUMPI PUSH2 0x419B PUSH2 0x5840 JUMP JUMPDEST PUSH0 DUP3 DUP2 MSTORE PUSH1 0x20 DUP2 KECCAK256 PUSH1 0x5 PUSH0 NOT SWAP1 SWAP4 ADD SWAP3 DUP4 MUL ADD DUP1 SLOAD PUSH1 0x1 PUSH1 0x1 PUSH1 0xA0 SHL SUB NOT SWAP1 DUP2 AND DUP3 SSTORE PUSH1 0x1 DUP3 ADD DUP1 SLOAD SWAP1 SWAP2 AND SWAP1 SSTORE PUSH1 0x2 DUP2 ADD DUP3 SWAP1 SSTORE SWAP1 PUSH2 0x41DE PUSH1 0x3 DUP4 ADD DUP3 PUSH2 0x48BA JUMP JUMPDEST POP PUSH1 0x4 ADD DUP1 SLOAD PUSH3 0xFFFFFF NOT AND SWAP1 SSTORE SWAP1 SSTORE POP JUMP JUMPDEST PUSH2 0x41F9 PUSH2 0x4895 JUMP JUMPDEST PUSH0 DUP1 SLOAD PUSH1 0xFF PUSH1 0xA0 SHL NOT AND SWAP1 SSTORE PUSH32 0x5DB9EE0A495BF2E6FF9C91A7834C1BA4FDD244A5E8AA4E537BD38AEAE4B073AA CALLER JUMPDEST PUSH1 0x40 MLOAD PUSH2 0x1FE3 SWAP2 SWAP1 PUSH2 0x49B9 JUMP JUMPDEST PUSH0 DUP1 SLOAD PUSH1 0x1 PUSH1 0x1 PUSH1 0xA0 SHL SUB DUP4 DUP2 AND PUSH1 0x1 PUSH1 0x1 PUSH1 0xA0 SHL SUB NOT DUP4 AND DUP2 OR DUP5 SSTORE PUSH1 0x40 MLOAD SWAP2 SWAP1 SWAP3 AND SWAP3 DUP4 SWAP2 PUSH32 0x8BE0079C531659141344CD1FD0A4F28419497F9722A3DAAFE3B4186F6B6457E0 SWAP2 SWAP1 LOG3 POP POP JUMP JUMPDEST PUSH0 PUSH1 0x40 MLOAD PUSH1 0x20 ADD PUSH2 0x4294 SWAP1 PUSH2 0x52FA JUMP JUMPDEST PUSH1 0x40 MLOAD PUSH1 0x20 DUP2 DUP4 SUB SUB DUP2 MSTORE SWAP1 PUSH1 0x40 MSTORE DUP1 MLOAD SWAP1 PUSH1 0x20 ADD KECCAK256 DUP4 PUSH1 0x40 MLOAD PUSH1 0x20 ADD PUSH2 0x42BB SWAP2 SWAP1 PUSH2 0x547B JUMP JUMPDEST PUSH1 0x40 MLOAD PUSH1 0x20 DUP2 DUP4 SUB SUB DUP2 MSTORE SWAP1 PUSH1 0x40 MSTORE DUP1 MLOAD SWAP1 PUSH1 0x20 ADD KECCAK256 SUB PUSH2 0x448F JUMPI PUSH1 0x40 DUP1 MLOAD PUSH1 0x2 DUP1 DUP3 MSTORE PUSH1 0x60 DUP3 ADD DUP4 MSTORE PUSH0 SWAP3 PUSH1 0x20 DUP4 ADD SWAP1 DUP1 CALLDATASIZE DUP4 CALLDATACOPY ADD SWAP1 POP POP SWAP1 POP DUP6 DUP2 PUSH0 DUP2 MLOAD DUP2 LT PUSH2 0x4309 JUMPI PUSH2 0x4309 PUSH2 0x5164 JUMP JUMPDEST PUSH1 0x1 PUSH1 0x1 PUSH1 0xA0 SHL SUB SWAP3 DUP4 AND PUSH1 0x20 SWAP2 DUP3 MUL SWAP3 SWAP1 SWAP3 ADD DUP2 ADD SWAP2 SWAP1 SWAP2 MSTORE PUSH1 0x6 SLOAD PUSH1 0x40 DUP1 MLOAD PUSH4 0x15AB88C9 PUSH1 0xE3 SHL DUP2 MSTORE SWAP1 MLOAD SWAP2 SWAP1 SWAP4 AND SWAP3 PUSH4 0xAD5C4648 SWAP3 PUSH1 0x4 DUP1 DUP4 ADD SWAP4 SWAP2 SWAP3 DUP3 SWAP1 SUB ADD DUP2 DUP7 GAS STATICCALL ISZERO DUP1 ISZERO PUSH2 0x4360 JUMPI RETURNDATASIZE PUSH0 DUP1 RETURNDATACOPY RETURNDATASIZE PUSH0 REVERT JUMPDEST POP POP POP POP PUSH1 0x40 MLOAD RETURNDATASIZE PUSH1 0x1F NOT PUSH1 0x1F DUP3 ADD AND DUP3 ADD DUP1 PUSH1 0x40 MSTORE POP DUP2 ADD SWAP1 PUSH2 0x4384 SWAP2 SWAP1 PUSH2 0x5149 JUMP JUMPDEST DUP2 PUSH1 0x1 DUP2 MLOAD DUP2 LT PUSH2 0x4397 JUMPI PUSH2 0x4397 PUSH2 0x5164 JUMP JUMPDEST PUSH1 0x1 PUSH1 0x1 PUSH1 0xA0 SHL SUB SWAP3 DUP4 AND PUSH1 0x20 SWAP2 DUP3 MUL SWAP3 SWAP1 SWAP3 ADD ADD MSTORE PUSH1 0x6 SLOAD PUSH1 0x40 MLOAD PUSH4 0xD06CA61F PUSH1 0xE0 SHL DUP2 MSTORE PUSH0 SWAP3 SWAP2 SWAP1 SWAP2 AND SWAP1 PUSH4 0xD06CA61F SWAP1 PUSH2 0x43DA SWAP1 DUP10 SWAP1 DUP7 SWAP1 PUSH1 0x4 ADD PUSH2 0x534B JUMP JUMPDEST PUSH0 PUSH1 0x40 MLOAD DUP1 DUP4 SUB DUP2 DUP7 GAS STATICCALL ISZERO DUP1 ISZERO PUSH2 0x43F4 JUMPI RETURNDATASIZE PUSH0 DUP1 RETURNDATACOPY RETURNDATASIZE PUSH0 REVERT JUMPDEST POP POP POP POP PUSH1 0x40 MLOAD RETURNDATASIZE PUSH0 DUP3 RETURNDATACOPY PUSH1 0x1F RETURNDATASIZE SWAP1 DUP2 ADD PUSH1 0x1F NOT AND DUP3 ADD PUSH1 0x40 MSTORE PUSH2 0x441B SWAP2 SWAP1 DUP2 ADD SWAP1 PUSH2 0x5363 JUMP JUMPDEST SWAP1 POP PUSH0 PUSH2 0x2710 PUSH1 0xA SLOAD PUSH2 0x2710 PUSH2 0x4431 SWAP2 SWAP1 PUSH2 0x52B3 JUMP JUMPDEST DUP4 PUSH1 0x1 DUP2 MLOAD DUP2 LT PUSH2 0x4444 JUMPI PUSH2 0x4444 PUSH2 0x5164 JUMP JUMPDEST PUSH1 0x20 MUL PUSH1 0x20 ADD ADD MLOAD PUSH2 0x4456 SWAP2 SWAP1 PUSH2 0x50F2 JUMP JUMPDEST PUSH2 0x4460 SWAP2 SWAP1 PUSH2 0x5109 JUMP JUMPDEST SWAP1 POP PUSH2 0x446E DUP9 DUP9 DUP4 ADDRESS PUSH2 0x15C4 JUMP JUMPDEST SWAP4 POP DUP4 PUSH1 0xB PUSH0 DUP3 DUP3 SLOAD PUSH2 0x4481 SWAP2 SWAP1 PUSH2 0x52A0 JUMP JUMPDEST SWAP1 SWAP2 SSTORE POP PUSH2 0x17A7 SWAP4 POP POP POP POP JUMP JUMPDEST PUSH1 0x40 MLOAD PUSH1 0x20 ADD PUSH2 0x449E SWAP1 PUSH2 0x5221 JUMP JUMPDEST PUSH1 0x40 MLOAD PUSH1 0x20 DUP2 DUP4 SUB SUB DUP2 MSTORE SWAP1 PUSH1 0x40 MSTORE DUP1 MLOAD SWAP1 PUSH1 0x20 ADD KECCAK256 DUP4 PUSH1 0x40 MLOAD PUSH1 0x20 ADD PUSH2 0x44C5 SWAP2 SWAP1 PUSH2 0x547B JUMP JUMPDEST PUSH1 0x40 MLOAD PUSH1 0x20 DUP2 DUP4 SUB SUB DUP2 MSTORE SWAP1 PUSH1 0x40 MSTORE DUP1 MLOAD SWAP1 PUSH1 0x20 ADD KECCAK256 SUB PUSH2 0x14B6 JUMPI PUSH0 DUP6 DUP4 PUSH1 0x6 PUSH0 SWAP1 SLOAD SWAP1 PUSH2 0x100 EXP SWAP1 DIV PUSH1 0x1 PUSH1 0x1 PUSH1 0xA0 SHL SUB AND PUSH1 0x1 PUSH1 0x1 PUSH1 0xA0 SHL SUB AND PUSH4 0xAD5C4648 PUSH1 0x40 MLOAD DUP2 PUSH4 0xFFFFFFFF AND PUSH1 0xE0 SHL DUP2 MSTORE PUSH1 0x4 ADD PUSH1 0x20 PUSH1 0x40 MLOAD DUP1 DUP4 SUB DUP2 DUP7 GAS STATICCALL ISZERO DUP1 ISZERO PUSH2 0x4533 JUMPI RETURNDATASIZE PUSH0 DUP1 RETURNDATACOPY RETURNDATASIZE PUSH0 REVERT JUMPDEST POP POP POP POP PUSH1 0x40 MLOAD RETURNDATASIZE PUSH1 0x1F NOT PUSH1 0x1F DUP3 ADD AND DUP3 ADD DUP1 PUSH1 0x40 MSTORE POP DUP2 ADD SWAP1 PUSH2 0x4557 SWAP2 SWAP1 PUSH2 0x5149 JUMP JUMPDEST PUSH1 0x40 MLOAD PUSH1 0x20 ADD PUSH2 0x4569 SWAP4 SWAP3 SWAP2 SWAP1 PUSH2 0x53E9 JUMP JUMPDEST PUSH1 0x40 DUP1 MLOAD PUSH1 0x1F NOT DUP2 DUP5 SUB ADD DUP2 MSTORE SWAP1 DUP3 SWAP1 MSTORE PUSH1 0x8 SLOAD PUSH4 0xCDCA1753 PUSH1 0xE0 SHL DUP4 MSTORE SWAP1 SWAP3 POP PUSH0 SWAP2 PUSH1 0x1 PUSH1 0x1 PUSH1 0xA0 SHL SUB SWAP1 SWAP2 AND SWAP1 PUSH4 0xCDCA1753 SWAP1 PUSH2 0x45AE SWAP1 DUP6 SWAP1 DUP11 SWAP1 PUSH1 0x4 ADD PUSH2 0x541F JUMP JUMPDEST PUSH1 0x20 PUSH1 0x40 MLOAD DUP1 DUP4 SUB DUP2 PUSH0 DUP8 GAS CALL ISZERO DUP1 ISZERO PUSH2 0x45CA JUMPI RETURNDATASIZE PUSH0 DUP1 RETURNDATACOPY RETURNDATASIZE PUSH0 REVERT JUMPDEST POP POP POP POP PUSH1 0x40 MLOAD RETURNDATASIZE PUSH1 0x1F NOT PUSH1 0x1F DUP3 ADD AND DUP3 ADD DUP1 PUSH1 0x40 MSTORE POP DUP2 ADD SWAP1 PUSH2 0x45EE SWAP2 SWAP1 PUSH2 0x50C7 JUMP JUMPDEST SWAP1 POP PUSH0 PUSH2 0x2710 PUSH1 0xA SLOAD PUSH2 0x2710 PUSH2 0x4604 SWAP2 SWAP1 PUSH2 0x52B3 JUMP JUMPDEST PUSH2 0x460E SWAP1 DUP5 PUSH2 0x50F2 JUMP JUMPDEST PUSH2 0x4618 SWAP2 SWAP1 PUSH2 0x5109 JUMP JUMPDEST SWAP1 POP PUSH2 0x4627 DUP9 DUP9 DUP8 DUP5 ADDRESS PUSH2 0x372B JUMP JUMPDEST SWAP4 POP DUP4 PUSH1 0xC PUSH0 DUP3 DUP3 SLOAD PUSH2 0x4481 SWAP2 SWAP1 PUSH2 0x52A0 JUMP JUMPDEST PUSH2 0x4642 PUSH2 0x3DAC JUMP JUMPDEST PUSH0 DUP1 SLOAD PUSH1 0xFF PUSH1 0xA0 SHL NOT AND PUSH1 0x1 PUSH1 0xA0 SHL OR SWAP1 SSTORE PUSH32 0x62E78CEA01BEE320CD4E420270B5EA74000D11B0C9F74754EBDBFC544B05A258 PUSH2 0x4228 CALLER SWAP1 JUMP JUMPDEST PUSH1 0x1 PUSH1 0x1 PUSH1 0xA0 SHL SUB DUP3 AND PUSH2 0x46A5 JUMPI PUSH0 PUSH1 0x40 MLOAD PUSH4 0xEC442F05 PUSH1 0xE0 SHL DUP2 MSTORE PUSH1 0x4 ADD PUSH2 0x8AA SWAP2 SWAP1 PUSH2 0x49B9 JUMP JUMPDEST PUSH2 0x1FA0 PUSH0 DUP4 DUP4 PUSH2 0x4782 JUMP JUMPDEST PUSH1 0x1 PUSH1 0x1 PUSH1 0xA0 SHL SUB DUP5 AND PUSH2 0x46D9 JUMPI PUSH0 PUSH1 0x40 MLOAD PUSH4 0xE602DF05 PUSH1 0xE0 SHL DUP2 MSTORE PUSH1 0x4 ADD PUSH2 0x8AA SWAP2 SWAP1 PUSH2 0x49B9 JUMP JUMPDEST PUSH1 0x1 PUSH1 0x1 PUSH1 0xA0 SHL SUB DUP4 AND PUSH2 0x4702 JUMPI PUSH0 PUSH1 0x40 MLOAD PUSH4 0x4A1406B1 PUSH1 0xE1 SHL DUP2 MSTORE PUSH1 0x4 ADD PUSH2 0x8AA SWAP2 SWAP1 PUSH2 0x49B9 JUMP JUMPDEST PUSH1 0x1 PUSH1 0x1 PUSH1 0xA0 SHL SUB DUP1 DUP6 AND PUSH0 SWAP1 DUP2 MSTORE PUSH1 0x2 PUSH1 0x20 SWAP1 DUP2 MSTORE PUSH1 0x40 DUP1 DUP4 KECCAK256 SWAP4 DUP8 AND DUP4 MSTORE SWAP3 SWAP1 MSTORE KECCAK256 DUP3 SWAP1 SSTORE DUP1 ISZERO PUSH2 0x15BE JUMPI DUP3 PUSH1 0x1 PUSH1 0x1 PUSH1 0xA0 SHL SUB AND DUP5 PUSH1 0x1 PUSH1 0x1 PUSH1 0xA0 SHL SUB AND PUSH32 0x8C5BE1E5EBEC7D5BD14F71427D1E84F3DD0314C0F7B2291E5B200AC8C7C3B925 DUP5 PUSH1 0x40 MLOAD PUSH2 0x4774 SWAP2 DUP2 MSTORE PUSH1 0x20 ADD SWAP1 JUMP JUMPDEST PUSH1 0x40 MLOAD DUP1 SWAP2 SUB SWAP1 LOG3 POP POP POP POP JUMP JUMPDEST PUSH1 0x1 PUSH1 0x1 PUSH1 0xA0 SHL SUB DUP4 AND PUSH2 0x47AC JUMPI DUP1 PUSH1 0x3 PUSH0 DUP3 DUP3 SLOAD PUSH2 0x47A1 SWAP2 SWAP1 PUSH2 0x52A0 JUMP JUMPDEST SWAP1 SWAP2 SSTORE POP PUSH2 0x4809 SWAP1 POP JUMP JUMPDEST PUSH1 0x1 PUSH1 0x1 PUSH1 0xA0 SHL SUB DUP4 AND PUSH0 SWAP1 DUP2 MSTORE PUSH1 0x1 PUSH1 0x20 MSTORE PUSH1 0x40 SWAP1 KECCAK256 SLOAD DUP2 DUP2 LT ISZERO PUSH2 0x47EB JUMPI DUP4 DUP2 DUP4 PUSH1 0x40 MLOAD PUSH4 0x391434E3 PUSH1 0xE2 SHL DUP2 MSTORE PUSH1 0x4 ADD PUSH2 0x8AA SWAP4 SWAP3 SWAP2 SWAP1 PUSH2 0x572B JUMP JUMPDEST PUSH1 0x1 PUSH1 0x1 PUSH1 0xA0 SHL SUB DUP5 AND PUSH0 SWAP1 DUP2 MSTORE PUSH1 0x1 PUSH1 0x20 MSTORE PUSH1 0x40 SWAP1 KECCAK256 SWAP1 DUP3 SWAP1 SUB SWAP1 SSTORE JUMPDEST PUSH1 0x1 PUSH1 0x1 PUSH1 0xA0 SHL SUB DUP3 AND PUSH2 0x4825 JUMPI PUSH1 0x3 DUP1 SLOAD DUP3 SWAP1 SUB SWAP1 SSTORE PUSH2 0x4843 JUMP JUMPDEST PUSH1 0x1 PUSH1 0x1 PUSH1 0xA0 SHL SUB DUP3 AND PUSH0 SWAP1 DUP2 MSTORE PUSH1 0x1 PUSH1 0x20 MSTORE PUSH1 0x40 SWAP1 KECCAK256 DUP1 SLOAD DUP3 ADD SWAP1 SSTORE JUMPDEST DUP2 PUSH1 0x1 PUSH1 0x1 PUSH1 0xA0 SHL SUB AND DUP4 PUSH1 0x1 PUSH1 0x1 PUSH1 0xA0 SHL SUB AND PUSH32 0xDDF252AD1BE2C89B69C2B068FC378DAA952BA7F163C4A11628F55A4DF523B3EF DUP4 PUSH1 0x40 MLOAD PUSH2 0x4888 SWAP2 DUP2 MSTORE PUSH1 0x20 ADD SWAP1 JUMP JUMPDEST PUSH1 0x40 MLOAD DUP1 SWAP2 SUB SWAP1 LOG3 POP POP POP JUMP JUMPDEST PUSH2 0x489D PUSH2 0x2192 JUMP JUMPDEST PUSH2 0x269D JUMPI PUSH1 0x40 MLOAD PUSH4 0x8DFC202B PUSH1 0xE0 SHL DUP2 MSTORE PUSH1 0x4 ADD PUSH1 0x40 MLOAD DUP1 SWAP2 SUB SWAP1 REVERT JUMPDEST POP DUP1 SLOAD PUSH2 0x48C6 SWAP1 PUSH2 0x5073 JUMP JUMPDEST PUSH0 DUP3 SSTORE DUP1 PUSH1 0x1F LT PUSH2 0x48D5 JUMPI POP POP JUMP JUMPDEST PUSH1 0x1F ADD PUSH1 0x20 SWAP1 DIV SWAP1 PUSH0 MSTORE PUSH1 0x20 PUSH0 KECCAK256 SWAP1 DUP2 ADD SWAP1 PUSH2 0x2689 SWAP2 SWAP1 JUMPDEST DUP1 DUP3 GT ISZERO PUSH2 0x4900 JUMPI PUSH0 DUP2 SSTORE PUSH1 0x1 ADD PUSH2 0x48ED JUMP JUMPDEST POP SWAP1 JUMP JUMPDEST PUSH0 DUP2 MLOAD DUP1 DUP5 MSTORE DUP1 PUSH1 0x20 DUP5 ADD PUSH1 0x20 DUP7 ADD MCOPY PUSH0 PUSH1 0x20 DUP3 DUP7 ADD ADD MSTORE PUSH1 0x20 PUSH1 0x1F NOT PUSH1 0x1F DUP4 ADD AND DUP6 ADD ADD SWAP2 POP POP SWAP3 SWAP2 POP POP JUMP JUMPDEST PUSH1 0x20 DUP2 MSTORE PUSH0 PUSH2 0x2E7B PUSH1 0x20 DUP4 ADD DUP5 PUSH2 0x4904 JUMP JUMPDEST PUSH1 0x1 PUSH1 0x1 PUSH1 0xA0 SHL SUB DUP2 AND DUP2 EQ PUSH2 0x2689 JUMPI PUSH0 DUP1 REVERT JUMPDEST PUSH0 DUP1 PUSH1 0x40 DUP4 DUP6 SUB SLT ISZERO PUSH2 0x4969 JUMPI PUSH0 DUP1 REVERT JUMPDEST DUP3 CALLDATALOAD PUSH2 0x4974 DUP2 PUSH2 0x4944 JUMP JUMPDEST SWAP5 PUSH1 0x20 SWAP4 SWAP1 SWAP4 ADD CALLDATALOAD SWAP4 POP POP POP JUMP JUMPDEST PUSH0 DUP1 PUSH1 0x40 DUP4 DUP6 SUB SLT ISZERO PUSH2 0x4993 JUMPI PUSH0 DUP1 REVERT JUMPDEST POP POP DUP1 CALLDATALOAD SWAP3 PUSH1 0x20 SWAP1 SWAP2 ADD CALLDATALOAD SWAP2 POP JUMP JUMPDEST PUSH0 PUSH1 0x20 DUP3 DUP5 SUB SLT ISZERO PUSH2 0x49B2 JUMPI PUSH0 DUP1 REVERT JUMPDEST POP CALLDATALOAD SWAP2 SWAP1 POP JUMP JUMPDEST PUSH1 0x1 PUSH1 0x1 PUSH1 0xA0 SHL SUB SWAP2 SWAP1 SWAP2 AND DUP2 MSTORE PUSH1 0x20 ADD SWAP1 JUMP JUMPDEST PUSH0 DUP1 PUSH0 PUSH1 0x60 DUP5 DUP7 SUB SLT ISZERO PUSH2 0x49DF JUMPI PUSH0 DUP1 REVERT JUMPDEST DUP4 CALLDATALOAD PUSH2 0x49EA DUP2 PUSH2 0x4944 JUMP JUMPDEST SWAP3 POP PUSH1 0x20 DUP5 ADD CALLDATALOAD PUSH2 0x49FA DUP2 PUSH2 0x4944 JUMP JUMPDEST SWAP3 SWAP6 SWAP3 SWAP5 POP POP POP PUSH1 0x40 SWAP2 SWAP1 SWAP2 ADD CALLDATALOAD SWAP1 JUMP JUMPDEST PUSH0 DUP1 PUSH0 DUP1 PUSH1 0x80 DUP6 DUP8 SUB SLT ISZERO PUSH2 0x4A1E JUMPI PUSH0 DUP1 REVERT JUMPDEST DUP5 CALLDATALOAD PUSH2 0x4A29 DUP2 PUSH2 0x4944 JUMP JUMPDEST SWAP4 POP PUSH1 0x20 DUP6 ADD CALLDATALOAD SWAP3 POP PUSH1 0x40 DUP6 ADD CALLDATALOAD SWAP2 POP PUSH1 0x60 DUP6 ADD CALLDATALOAD PUSH2 0x4A47 DUP2 PUSH2 0x4944 JUMP JUMPDEST SWAP4 SWAP7 SWAP3 SWAP6 POP SWAP1 SWAP4 POP POP JUMP JUMPDEST PUSH0 PUSH1 0x20 DUP3 DUP5 SUB SLT ISZERO PUSH2 0x4A62 JUMPI PUSH0 DUP1 REVERT JUMPDEST DUP2 CALLDATALOAD PUSH2 0x2E7B DUP2 PUSH2 0x4944 JUMP JUMPDEST PUSH1 0x1 PUSH1 0x1 PUSH1 0xA0 SHL SUB AND SWAP1 MSTORE JUMP JUMPDEST PUSH1 0x1 PUSH1 0x1 PUSH1 0xA0 SHL SUB DUP7 DUP2 AND DUP3 MSTORE DUP6 AND PUSH1 0x20 DUP3 ADD MSTORE PUSH1 0x40 DUP2 ADD DUP5 SWAP1 MSTORE PUSH1 0xA0 PUSH1 0x60 DUP3 ADD DUP2 SWAP1 MSTORE PUSH0 SWAP1 PUSH2 0x4AAC SWAP1 DUP4 ADD DUP6 PUSH2 0x4904 JUMP JUMPDEST SWAP1 POP PUSH3 0xFFFFFF DUP4 AND PUSH1 0x80 DUP4 ADD MSTORE SWAP7 SWAP6 POP POP POP POP POP POP JUMP JUMPDEST PUSH4 0x4E487B71 PUSH1 0xE0 SHL PUSH0 MSTORE PUSH1 0x41 PUSH1 0x4 MSTORE PUSH1 0x24 PUSH0 REVERT JUMPDEST PUSH1 0x40 MLOAD PUSH1 0x1F DUP3 ADD PUSH1 0x1F NOT AND DUP2 ADD PUSH1 0x1 PUSH1 0x1 PUSH1 0x40 SHL SUB DUP2 GT DUP3 DUP3 LT OR ISZERO PUSH2 0x4AFF JUMPI PUSH2 0x4AFF PUSH2 0x4AC3 JUMP JUMPDEST PUSH1 0x40 MSTORE SWAP2 SWAP1 POP JUMP JUMPDEST PUSH0 DUP1 PUSH1 0x1 PUSH1 0x1 PUSH1 0x40 SHL SUB DUP5 GT ISZERO PUSH2 0x4B20 JUMPI PUSH2 0x4B20 PUSH2 0x4AC3 JUMP JUMPDEST POP PUSH1 0x1F DUP4 ADD PUSH1 0x1F NOT AND PUSH1 0x20 ADD PUSH2 0x4B35 DUP2 PUSH2 0x4AD7 JUMP JUMPDEST SWAP2 POP POP DUP3 DUP2 MSTORE DUP4 DUP4 DUP4 ADD GT ISZERO PUSH2 0x4B49 JUMPI PUSH0 DUP1 REVERT JUMPDEST DUP3 DUP3 PUSH1 0x20 DUP4 ADD CALLDATACOPY PUSH0 PUSH1 0x20 DUP5 DUP4 ADD ADD MSTORE SWAP4 SWAP3 POP POP POP JUMP JUMPDEST PUSH0 DUP3 PUSH1 0x1F DUP4 ADD SLT PUSH2 0x4B6E JUMPI PUSH0 DUP1 REVERT JUMPDEST PUSH2 0x2E7B DUP4 DUP4 CALLDATALOAD PUSH1 0x20 DUP6 ADD PUSH2 0x4B07 JUMP JUMPDEST DUP1 CALLDATALOAD PUSH3 0xFFFFFF DUP2 AND DUP2 EQ PUSH2 0x4B8F JUMPI PUSH0 DUP1 REVERT JUMPDEST SWAP2 SWAP1 POP JUMP JUMPDEST PUSH0 DUP1 PUSH0 DUP1 PUSH1 0x80 DUP6 DUP8 SUB SLT ISZERO PUSH2 0x4BA7 JUMPI PUSH0 DUP1 REVERT JUMPDEST DUP5 CALLDATALOAD PUSH2 0x4BB2 DUP2 PUSH2 0x4944 JUMP JUMPDEST SWAP4 POP PUSH1 0x20 DUP6 ADD CALLDATALOAD SWAP3 POP PUSH1 0x40 DUP6 ADD CALLDATALOAD PUSH1 0x1 PUSH1 0x1 PUSH1 0x40 SHL SUB DUP2 GT ISZERO PUSH2 0x4BD3 JUMPI PUSH0 DUP1 REVERT JUMPDEST PUSH2 0x4BDF DUP8 DUP3 DUP9 ADD PUSH2 0x4B5F JUMP JUMPDEST SWAP3 POP POP PUSH2 0x4BEE PUSH1 0x60 DUP7 ADD PUSH2 0x4B7D JUMP JUMPDEST SWAP1 POP SWAP3 SWAP6 SWAP2 SWAP5 POP SWAP3 POP JUMP JUMPDEST DUP1 ISZERO ISZERO DUP2 EQ PUSH2 0x2689 JUMPI PUSH0 DUP1 REVERT JUMPDEST PUSH0 DUP1 PUSH1 0x40 DUP4 DUP6 SUB SLT ISZERO PUSH2 0x4C17 JUMPI PUSH0 DUP1 REVERT JUMPDEST DUP3 CALLDATALOAD PUSH2 0x4C22 DUP2 PUSH2 0x4944 JUMP JUMPDEST SWAP2 POP PUSH1 0x20 DUP4 ADD CALLDATALOAD PUSH2 0x4C32 DUP2 PUSH2 0x4BF9 JUMP JUMPDEST DUP1 SWAP2 POP POP SWAP3 POP SWAP3 SWAP1 POP JUMP JUMPDEST PUSH0 PUSH1 0x1 PUSH1 0x1 PUSH1 0x40 SHL SUB DUP3 GT ISZERO PUSH2 0x4C55 JUMPI PUSH2 0x4C55 PUSH2 0x4AC3 JUMP JUMPDEST POP PUSH1 0x5 SHL PUSH1 0x20 ADD SWAP1 JUMP JUMPDEST PUSH0 PUSH1 0x20 DUP3 DUP5 SUB SLT ISZERO PUSH2 0x4C6F JUMPI PUSH0 DUP1 REVERT JUMPDEST DUP2 CALLDATALOAD PUSH1 0x1 PUSH1 0x1 PUSH1 0x40 SHL SUB DUP2 GT ISZERO PUSH2 0x4C84 JUMPI PUSH0 DUP1 REVERT JUMPDEST DUP3 ADD PUSH1 0x1F DUP2 ADD DUP5 SGT PUSH2 0x4C94 JUMPI PUSH0 DUP1 REVERT JUMPDEST DUP1 CALLDATALOAD PUSH2 0x4CA7 PUSH2 0x4CA2 DUP3 PUSH2 0x4C3D JUMP JUMPDEST PUSH2 0x4AD7 JUMP JUMPDEST DUP1 DUP3 DUP3 MSTORE PUSH1 0x20 DUP3 ADD SWAP2 POP PUSH1 0x20 DUP4 PUSH1 0x5 SHL DUP6 ADD ADD SWAP3 POP DUP7 DUP4 GT ISZERO PUSH2 0x4CC8 JUMPI PUSH0 DUP1 REVERT JUMPDEST PUSH1 0x20 DUP5 ADD SWAP4 POP JUMPDEST DUP3 DUP5 LT ISZERO PUSH2 0x4CEA JUMPI DUP4 CALLDATALOAD DUP3 MSTORE PUSH1 0x20 SWAP4 DUP5 ADD SWAP4 SWAP1 SWAP2 ADD SWAP1 PUSH2 0x4CCF JUMP JUMPDEST SWAP7 SWAP6 POP POP POP POP POP POP JUMP JUMPDEST PUSH0 DUP1 DUP4 PUSH1 0x1F DUP5 ADD SLT PUSH2 0x4D04 JUMPI PUSH0 DUP1 REVERT JUMPDEST POP DUP2 CALLDATALOAD PUSH1 0x1 PUSH1 0x1 PUSH1 0x40 SHL SUB DUP2 GT ISZERO PUSH2 0x4D1A JUMPI PUSH0 DUP1 REVERT JUMPDEST PUSH1 0x20 DUP4 ADD SWAP2 POP DUP4 PUSH1 0x20 DUP3 PUSH1 0x5 SHL DUP6 ADD ADD GT ISZERO PUSH2 0x4D34 JUMPI PUSH0 DUP1 REVERT JUMPDEST SWAP3 POP SWAP3 SWAP1 POP JUMP JUMPDEST PUSH0 DUP1 PUSH0 DUP1 PUSH0 DUP1 PUSH0 DUP1 PUSH1 0x80 DUP10 DUP12 SUB SLT ISZERO PUSH2 0x4D52 JUMPI PUSH0 DUP1 REVERT JUMPDEST DUP9 CALLDATALOAD PUSH1 0x1 PUSH1 0x1 PUSH1 0x40 SHL SUB DUP2 GT ISZERO PUSH2 0x4D67 JUMPI PUSH0 DUP1 REVERT JUMPDEST PUSH2 0x4D73 DUP12 DUP3 DUP13 ADD PUSH2 0x4CF4 JUMP JUMPDEST SWAP1 SWAP10 POP SWAP8 POP POP PUSH1 0x20 DUP10 ADD CALLDATALOAD PUSH1 0x1 PUSH1 0x1 PUSH1 0x40 SHL SUB DUP2 GT ISZERO PUSH2 0x4D91 JUMPI PUSH0 DUP1 REVERT JUMPDEST PUSH2 0x4D9D DUP12 DUP3 DUP13 ADD PUSH2 0x4CF4 JUMP JUMPDEST SWAP1 SWAP8 POP SWAP6 POP POP PUSH1 0x40 DUP10 ADD CALLDATALOAD PUSH1 0x1 PUSH1 0x1 PUSH1 0x40 SHL SUB DUP2 GT ISZERO PUSH2 0x4DBB JUMPI PUSH0 DUP1 REVERT JUMPDEST PUSH2 0x4DC7 DUP12 DUP3 DUP13 ADD PUSH2 0x4CF4 JUMP JUMPDEST SWAP1 SWAP6 POP SWAP4 POP POP PUSH1 0x60 DUP10 ADD CALLDATALOAD PUSH1 0x1 PUSH1 0x1 PUSH1 0x40 SHL SUB DUP2 GT ISZERO PUSH2 0x4DE5 JUMPI PUSH0 DUP1 REVERT JUMPDEST PUSH2 0x4DF1 DUP12 DUP3 DUP13 ADD PUSH2 0x4CF4 JUMP JUMPDEST SWAP10 SWAP13 SWAP9 SWAP12 POP SWAP7 SWAP10 POP SWAP5 SWAP8 SWAP4 SWAP7 SWAP3 SWAP6 SWAP5 POP POP POP JUMP JUMPDEST PUSH0 PUSH1 0x20 DUP3 ADD PUSH1 0x20 DUP4 MSTORE DUP1 DUP5 MLOAD DUP1 DUP4 MSTORE PUSH1 0x40 DUP6 ADD SWAP2 POP PUSH1 0x40 DUP2 PUSH1 0x5 SHL DUP7 ADD ADD SWAP3 POP PUSH1 0x20 DUP7 ADD PUSH0 JUMPDEST DUP3 DUP2 LT ISZERO PUSH2 0x4EA7 JUMPI PUSH1 0x3F NOT DUP8 DUP7 SUB ADD DUP5 MSTORE DUP2 MLOAD PUSH1 0x1 DUP1 PUSH1 0xA0 SHL SUB DUP2 MLOAD AND DUP7 MSTORE PUSH1 0x1 DUP1 PUSH1 0xA0 SHL SUB PUSH1 0x20 DUP3 ADD MLOAD AND PUSH1 0x20 DUP8 ADD MSTORE PUSH1 0x40 DUP2 ADD MLOAD PUSH1 0x40 DUP8 ADD MSTORE PUSH1 0x60 DUP2 ADD MLOAD PUSH1 0xA0 PUSH1 0x60 DUP9 ADD MSTORE PUSH2 0x4E7F PUSH1 0xA0 DUP9 ADD DUP3 PUSH2 0x4904 JUMP JUMPDEST PUSH1 0x80 SWAP3 DUP4 ADD MLOAD PUSH3 0xFFFFFF AND SWAP8 SWAP1 SWAP3 ADD SWAP7 SWAP1 SWAP7 MSTORE SWAP5 POP PUSH1 0x20 SWAP4 DUP5 ADD SWAP4 SWAP2 SWAP1 SWAP2 ADD SWAP1 PUSH1 0x1 ADD PUSH2 0x4E2B JUMP JUMPDEST POP SWAP3 SWAP7 SWAP6 POP POP POP POP POP POP JUMP JUMPDEST PUSH0 DUP1 PUSH1 0x40 DUP4 DUP6 SUB SLT ISZERO PUSH2 0x4EC4 JUMPI PUSH0 DUP1 REVERT JUMPDEST DUP3 CALLDATALOAD PUSH1 0x1 PUSH1 0x1 PUSH1 0x40 SHL SUB DUP2 GT ISZERO PUSH2 0x4ED9 JUMPI PUSH0 DUP1 REVERT JUMPDEST DUP4 ADD PUSH1 0x1F DUP2 ADD DUP6 SGT PUSH2 0x4EE9 JUMPI PUSH0 DUP1 REVERT JUMPDEST PUSH2 0x4EF8 DUP6 DUP3 CALLDATALOAD PUSH1 0x20 DUP5 ADD PUSH2 0x4B07 JUMP JUMPDEST SWAP6 PUSH1 0x20 SWAP5 SWAP1 SWAP5 ADD CALLDATALOAD SWAP5 POP POP POP POP JUMP JUMPDEST PUSH0 DUP1 PUSH1 0x40 DUP4 DUP6 SUB SLT ISZERO PUSH2 0x4F18 JUMPI PUSH0 DUP1 REVERT JUMPDEST DUP3 CALLDATALOAD SWAP2 POP PUSH1 0x20 DUP4 ADD CALLDATALOAD PUSH1 0x1 PUSH1 0x1 PUSH1 0x40 SHL SUB DUP2 GT ISZERO PUSH2 0x4F34 JUMPI PUSH0 DUP1 REVERT JUMPDEST DUP4 ADD PUSH1 0x1F DUP2 ADD DUP6 SGT PUSH2 0x4F44 JUMPI PUSH0 DUP1 REVERT JUMPDEST DUP1 CALLDATALOAD PUSH2 0x4F52 PUSH2 0x4CA2 DUP3 PUSH2 0x4C3D JUMP JUMPDEST DUP1 DUP3 DUP3 MSTORE PUSH1 0x20 DUP3 ADD SWAP2 POP PUSH1 0x20 DUP4 PUSH1 0x5 SHL DUP6 ADD ADD SWAP3 POP DUP8 DUP4 GT ISZERO PUSH2 0x4F73 JUMPI PUSH0 DUP1 REVERT JUMPDEST PUSH1 0x20 DUP5 ADD SWAP4 POP JUMPDEST DUP3 DUP5 LT ISZERO PUSH2 0x4F9E JUMPI DUP4 CALLDATALOAD PUSH2 0x4F8D DUP2 PUSH2 0x4944 JUMP JUMPDEST DUP3 MSTORE PUSH1 0x20 SWAP4 DUP5 ADD SWAP4 SWAP1 SWAP2 ADD SWAP1 PUSH2 0x4F7A JUMP JUMPDEST DUP1 SWAP5 POP POP POP POP POP SWAP3 POP SWAP3 SWAP1 POP JUMP JUMPDEST PUSH1 0x20 DUP1 DUP3 MSTORE DUP3 MLOAD DUP3 DUP3 ADD DUP2 SWAP1 MSTORE PUSH0 SWAP2 DUP5 ADD SWAP1 PUSH1 0x40 DUP5 ADD SWAP1 DUP4 JUMPDEST DUP2 DUP2 LT ISZERO PUSH2 0x4FE3 JUMPI DUP4 MLOAD DUP4 MSTORE PUSH1 0x20 SWAP4 DUP5 ADD SWAP4 SWAP1 SWAP3 ADD SWAP2 PUSH1 0x1 ADD PUSH2 0x4FC5 JUMP JUMPDEST POP SWAP1 SWAP6 SWAP5 POP POP POP POP POP JUMP JUMPDEST PUSH0 DUP1 PUSH1 0x40 DUP4 DUP6 SUB SLT ISZERO PUSH2 0x4FFF JUMPI PUSH0 DUP1 REVERT JUMPDEST DUP3 CALLDATALOAD PUSH2 0x500A DUP2 PUSH2 0x4944 JUMP JUMPDEST SWAP2 POP PUSH1 0x20 DUP4 ADD CALLDATALOAD PUSH2 0x4C32 DUP2 PUSH2 0x4944 JUMP JUMPDEST PUSH0 DUP1 PUSH0 DUP1 PUSH0 PUSH1 0xA0 DUP7 DUP9 SUB SLT ISZERO PUSH2 0x502E JUMPI PUSH0 DUP1 REVERT JUMPDEST DUP6 CALLDATALOAD PUSH2 0x5039 DUP2 PUSH2 0x4944 JUMP JUMPDEST SWAP5 POP PUSH1 0x20 DUP7 ADD CALLDATALOAD SWAP4 POP PUSH2 0x504E PUSH1 0x40 DUP8 ADD PUSH2 0x4B7D JUMP JUMPDEST SWAP3 POP PUSH1 0x60 DUP7 ADD CALLDATALOAD SWAP2 POP PUSH1 0x80 DUP7 ADD CALLDATALOAD PUSH2 0x5065 DUP2 PUSH2 0x4944 JUMP JUMPDEST DUP1 SWAP2 POP POP SWAP3 SWAP6 POP SWAP3 SWAP6 SWAP1 SWAP4 POP JUMP JUMPDEST PUSH1 0x1 DUP2 DUP2 SHR SWAP1 DUP3 AND DUP1 PUSH2 0x5087 JUMPI PUSH1 0x7F DUP3 AND SWAP2 POP JUMPDEST PUSH1 0x20 DUP3 LT DUP2 SUB PUSH2 0x50A5 JUMPI PUSH4 0x4E487B71 PUSH1 0xE0 SHL PUSH0 MSTORE PUSH1 0x22 PUSH1 0x4 MSTORE PUSH1 0x24 PUSH0 REVERT JUMPDEST POP SWAP2 SWAP1 POP JUMP JUMPDEST PUSH1 0x20 DUP1 DUP3 MSTORE PUSH1 0x2 SWAP1 DUP3 ADD MSTORE PUSH2 0x3E3 PUSH1 0xF4 SHL PUSH1 0x40 DUP3 ADD MSTORE PUSH1 0x60 ADD SWAP1 JUMP JUMPDEST PUSH0 PUSH1 0x20 DUP3 DUP5 SUB SLT ISZERO PUSH2 0x50D7 JUMPI PUSH0 DUP1 REVERT JUMPDEST POP MLOAD SWAP2 SWAP1 POP JUMP JUMPDEST PUSH4 0x4E487B71 PUSH1 0xE0 SHL PUSH0 MSTORE PUSH1 0x11 PUSH1 0x4 MSTORE PUSH1 0x24 PUSH0 REVERT JUMPDEST DUP1 DUP3 MUL DUP2 ISZERO DUP3 DUP3 DIV DUP5 EQ OR PUSH2 0x866 JUMPI PUSH2 0x866 PUSH2 0x50DE JUMP JUMPDEST PUSH0 DUP3 PUSH2 0x5123 JUMPI PUSH4 0x4E487B71 PUSH1 0xE0 SHL PUSH0 MSTORE PUSH1 0x12 PUSH1 0x4 MSTORE PUSH1 0x24 PUSH0 REVERT JUMPDEST POP DIV SWAP1 JUMP JUMPDEST PUSH1 0x20 DUP1 DUP3 MSTORE PUSH1 0x7 SWAP1 DUP3 ADD MSTORE PUSH7 0x3026313030303 PUSH1 0xCC SHL PUSH1 0x40 DUP3 ADD MSTORE PUSH1 0x60 ADD SWAP1 JUMP JUMPDEST PUSH0 PUSH1 0x20 DUP3 DUP5 SUB SLT ISZERO PUSH2 0x5159 JUMPI PUSH0 DUP1 REVERT JUMPDEST DUP2 MLOAD PUSH2 0x2E7B DUP2 PUSH2 0x4944 JUMP JUMPDEST PUSH4 0x4E487B71 PUSH1 0xE0 SHL PUSH0 MSTORE PUSH1 0x32 PUSH1 0x4 MSTORE PUSH1 0x24 PUSH0 REVERT JUMPDEST PUSH1 0x1 PUSH1 0x1 PUSH1 0xA0 SHL SUB DUP6 AND DUP2 MSTORE PUSH1 0x20 DUP2 ADD DUP5 SWAP1 MSTORE PUSH1 0x80 PUSH1 0x40 DUP3 ADD MSTORE DUP3 SLOAD PUSH0 SWAP1 DUP2 SWAP1 PUSH2 0x51A1 DUP2 PUSH2 0x5073 JUMP JUMPDEST DUP1 PUSH1 0x80 DUP7 ADD MSTORE PUSH1 0x1 DUP3 AND PUSH0 DUP2 EQ PUSH2 0x51BF JUMPI PUSH1 0x1 DUP2 EQ PUSH2 0x51DB JUMPI PUSH2 0x520C JUMP JUMPDEST PUSH1 0xFF NOT DUP4 AND PUSH1 0xA0 DUP8 ADD MSTORE PUSH1 0xA0 DUP3 ISZERO ISZERO PUSH1 0x5 SHL DUP8 ADD ADD SWAP4 POP PUSH2 0x520C JUMP JUMPDEST DUP8 PUSH0 MSTORE PUSH1 0x20 PUSH0 KECCAK256 PUSH0 JUMPDEST DUP4 DUP2 LT ISZERO PUSH2 0x5203 JUMPI DUP2 SLOAD DUP9 DUP3 ADD PUSH1 0xA0 ADD MSTORE PUSH1 0x1 SWAP1 SWAP2 ADD SWAP1 PUSH1 0x20 ADD PUSH2 0x51E4 JUMP JUMPDEST DUP8 ADD PUSH1 0xA0 ADD SWAP5 POP POP JUMPDEST POP POP POP PUSH3 0xFFFFFF DUP5 AND PUSH1 0x60 DUP5 ADD MSTORE SWAP1 POP PUSH2 0x38FC JUMP JUMPDEST PUSH2 0x7633 PUSH1 0xF0 SHL DUP2 MSTORE PUSH1 0x2 ADD SWAP1 JUMP JUMPDEST PUSH0 DUP1 DUP4 SLOAD PUSH2 0x523C DUP2 PUSH2 0x5073 JUMP JUMPDEST PUSH1 0x1 DUP3 AND DUP1 ISZERO PUSH2 0x5253 JUMPI PUSH1 0x1 DUP2 EQ PUSH2 0x5268 JUMPI PUSH2 0x5295 JUMP JUMPDEST PUSH1 0xFF NOT DUP4 AND DUP7 MSTORE DUP2 ISZERO ISZERO DUP3 MUL DUP7 ADD SWAP4 POP PUSH2 0x5295 JUMP JUMPDEST DUP7 PUSH0 MSTORE PUSH1 0x20 PUSH0 KECCAK256 PUSH0 JUMPDEST DUP4 DUP2 LT ISZERO PUSH2 0x528D JUMPI DUP2 SLOAD DUP9 DUP3 ADD MSTORE PUSH1 0x1 SWAP1 SWAP2 ADD SWAP1 PUSH1 0x20 ADD PUSH2 0x5271 JUMP JUMPDEST POP POP DUP2 DUP7 ADD SWAP4 POP JUMPDEST POP SWAP2 SWAP6 SWAP5 POP POP POP POP POP JUMP JUMPDEST DUP1 DUP3 ADD DUP1 DUP3 GT ISZERO PUSH2 0x866 JUMPI PUSH2 0x866 PUSH2 0x50DE JUMP JUMPDEST DUP2 DUP2 SUB DUP2 DUP2 GT ISZERO PUSH2 0x866 JUMPI PUSH2 0x866 PUSH2 0x50DE JUMP JUMPDEST PUSH1 0x1 PUSH1 0x1 PUSH1 0xA0 SHL SUB SWAP3 SWAP1 SWAP3 AND DUP3 MSTORE PUSH1 0x20 DUP3 ADD MSTORE PUSH1 0x40 ADD SWAP1 JUMP JUMPDEST PUSH0 PUSH1 0x20 DUP3 DUP5 SUB SLT ISZERO PUSH2 0x52EF JUMPI PUSH0 DUP1 REVERT JUMPDEST DUP2 MLOAD PUSH2 0x2E7B DUP2 PUSH2 0x4BF9 JUMP JUMPDEST PUSH2 0x3B19 PUSH1 0xF1 SHL DUP2 MSTORE PUSH1 0x2 ADD SWAP1 JUMP JUMPDEST PUSH0 DUP2 MLOAD DUP1 DUP5 MSTORE PUSH1 0x20 DUP5 ADD SWAP4 POP PUSH1 0x20 DUP4 ADD PUSH0 JUMPDEST DUP3 DUP2 LT ISZERO PUSH2 0x5341 JUMPI DUP2 MLOAD PUSH1 0x1 PUSH1 0x1 PUSH1 0xA0 SHL SUB AND DUP7 MSTORE PUSH1 0x20 SWAP6 DUP7 ADD SWAP6 SWAP1 SWAP2 ADD SWAP1 PUSH1 0x1 ADD PUSH2 0x531A JUMP JUMPDEST POP SWAP4 SWAP5 SWAP4 POP POP POP POP JUMP JUMPDEST DUP3 DUP2 MSTORE PUSH1 0x40 PUSH1 0x20 DUP3 ADD MSTORE PUSH0 PUSH2 0x17A7 PUSH1 0x40 DUP4 ADD DUP5 PUSH2 0x5308 JUMP JUMPDEST PUSH0 PUSH1 0x20 DUP3 DUP5 SUB SLT ISZERO PUSH2 0x5373 JUMPI PUSH0 DUP1 REVERT JUMPDEST DUP2 MLOAD PUSH1 0x1 PUSH1 0x1 PUSH1 0x40 SHL SUB DUP2 GT ISZERO PUSH2 0x5388 JUMPI PUSH0 DUP1 REVERT JUMPDEST DUP3 ADD PUSH1 0x1F DUP2 ADD DUP5 SGT PUSH2 0x5398 JUMPI PUSH0 DUP1 REVERT JUMPDEST DUP1 MLOAD PUSH2 0x53A6 PUSH2 0x4CA2 DUP3 PUSH2 0x4C3D JUMP JUMPDEST DUP1 DUP3 DUP3 MSTORE PUSH1 0x20 DUP3 ADD SWAP2 POP PUSH1 0x20 DUP4 PUSH1 0x5 SHL DUP6 ADD ADD SWAP3 POP DUP7 DUP4 GT ISZERO PUSH2 0x53C7 JUMPI PUSH0 DUP1 REVERT JUMPDEST PUSH1 0x20 DUP5 ADD SWAP4 POP JUMPDEST DUP3 DUP5 LT ISZERO PUSH2 0x4CEA JUMPI DUP4 MLOAD DUP3 MSTORE PUSH1 0x20 SWAP4 DUP5 ADD SWAP4 SWAP1 SWAP2 ADD SWAP1 PUSH2 0x53CE JUMP JUMPDEST PUSH1 0x60 SWAP4 DUP5 SHL PUSH1 0x1 PUSH1 0x1 PUSH1 0x60 SHL SUB NOT SWAP1 DUP2 AND DUP3 MSTORE PUSH1 0xE8 SWAP4 SWAP1 SWAP4 SHL PUSH1 0x1 PUSH1 0x1 PUSH1 0xE8 SHL SUB NOT AND PUSH1 0x14 DUP3 ADD MSTORE SWAP3 SHL AND PUSH1 0x17 DUP3 ADD MSTORE PUSH1 0x2B ADD SWAP1 JUMP JUMPDEST PUSH1 0x40 DUP2 MSTORE PUSH0 PUSH2 0x5431 PUSH1 0x40 DUP4 ADD DUP6 PUSH2 0x4904 JUMP JUMPDEST SWAP1 POP DUP3 PUSH1 0x20 DUP4 ADD MSTORE SWAP4 SWAP3 POP POP POP JUMP JUMPDEST DUP6 DUP2 MSTORE DUP5 PUSH1 0x20 DUP3 ADD MSTORE PUSH1 0xA0 PUSH1 0x40 DUP3 ADD MSTORE PUSH0 PUSH2 0x545E PUSH1 0xA0 DUP4 ADD DUP7 PUSH2 0x5308 JUMP JUMPDEST PUSH1 0x1 PUSH1 0x1 PUSH1 0xA0 SHL SUB SWAP5 SWAP1 SWAP5 AND PUSH1 0x60 DUP4 ADD MSTORE POP PUSH1 0x80 ADD MSTORE SWAP4 SWAP3 POP POP POP JUMP JUMPDEST PUSH0 DUP3 MLOAD DUP1 PUSH1 0x20 DUP6 ADD DUP5 MCOPY PUSH0 SWAP3 ADD SWAP2 DUP3 MSTORE POP SWAP2 SWAP1 POP JUMP JUMPDEST PUSH1 0x1 DUP1 PUSH1 0xA0 SHL SUB DUP6 AND DUP2 MSTORE DUP4 PUSH1 0x20 DUP3 ADD MSTORE PUSH1 0x80 PUSH1 0x40 DUP3 ADD MSTORE PUSH0 PUSH2 0x54B7 PUSH1 0x80 DUP4 ADD DUP6 PUSH2 0x4904 JUMP JUMPDEST SWAP1 POP PUSH3 0xFFFFFF DUP4 AND PUSH1 0x60 DUP4 ADD MSTORE SWAP6 SWAP5 POP POP POP POP POP JUMP JUMPDEST PUSH1 0x1F DUP3 GT ISZERO PUSH2 0x28F3 JUMPI DUP1 PUSH0 MSTORE PUSH1 0x20 PUSH0 KECCAK256 PUSH1 0x1F DUP5 ADD PUSH1 0x5 SHR DUP2 ADD PUSH1 0x20 DUP6 LT ISZERO PUSH2 0x54F2 JUMPI POP DUP1 JUMPDEST PUSH1 0x1F DUP5 ADD PUSH1 0x5 SHR DUP3 ADD SWAP2 POP JUMPDEST DUP2 DUP2 LT ISZERO PUSH2 0xE59 JUMPI PUSH0 DUP2 SSTORE PUSH1 0x1 ADD PUSH2 0x54FE JUMP JUMPDEST PUSH0 NOT PUSH1 0x3 DUP4 SWAP1 SHL SHR NOT AND PUSH1 0x1 SWAP2 SWAP1 SWAP2 SHL OR SWAP1 JUMP JUMPDEST DUP2 MLOAD PUSH1 0x1 PUSH1 0x1 PUSH1 0x40 SHL SUB DUP2 GT ISZERO PUSH2 0x553E JUMPI PUSH2 0x553E PUSH2 0x4AC3 JUMP JUMPDEST PUSH2 0x5552 DUP2 PUSH2 0x554C DUP5 SLOAD PUSH2 0x5073 JUMP JUMPDEST DUP5 PUSH2 0x54CD JUMP JUMPDEST PUSH1 0x20 PUSH1 0x1F DUP3 GT PUSH1 0x1 DUP2 EQ PUSH2 0x557F JUMPI PUSH0 DUP4 ISZERO PUSH2 0x556D JUMPI POP DUP5 DUP3 ADD MLOAD JUMPDEST PUSH2 0x5577 DUP5 DUP3 PUSH2 0x5511 JUMP JUMPDEST DUP6 SSTORE POP PUSH2 0xE59 JUMP JUMPDEST PUSH0 DUP5 DUP2 MSTORE PUSH1 0x20 DUP2 KECCAK256 PUSH1 0x1F NOT DUP6 AND SWAP2 JUMPDEST DUP3 DUP2 LT ISZERO PUSH2 0x55AE JUMPI DUP8 DUP6 ADD MLOAD DUP3 SSTORE PUSH1 0x20 SWAP5 DUP6 ADD SWAP5 PUSH1 0x1 SWAP1 SWAP3 ADD SWAP2 ADD PUSH2 0x558E JUMP JUMPDEST POP DUP5 DUP3 LT ISZERO PUSH2 0x55CB JUMPI DUP7 DUP5 ADD MLOAD PUSH0 NOT PUSH1 0x3 DUP8 SWAP1 SHL PUSH1 0xF8 AND SHR NOT AND DUP2 SSTORE JUMPDEST POP POP POP POP PUSH1 0x1 SWAP1 DUP2 SHL ADD SWAP1 SSTORE POP JUMP JUMPDEST PUSH0 PUSH1 0x1 DUP3 ADD PUSH2 0x55EB JUMPI PUSH2 0x55EB PUSH2 0x50DE JUMP JUMPDEST POP PUSH1 0x1 ADD SWAP1 JUMP JUMPDEST PUSH0 DUP2 PUSH2 0x5600 JUMPI PUSH2 0x5600 PUSH2 0x50DE JUMP JUMPDEST POP PUSH0 NOT ADD SWAP1 JUMP JUMPDEST PUSH0 DUP1 DUP4 CALLDATALOAD PUSH1 0x1E NOT DUP5 CALLDATASIZE SUB ADD DUP2 SLT PUSH2 0x561C JUMPI PUSH0 DUP1 REVERT JUMPDEST DUP4 ADD DUP1 CALLDATALOAD SWAP2 POP PUSH1 0x1 PUSH1 0x1 PUSH1 0x40 SHL SUB DUP3 GT ISZERO PUSH2 0x5635 JUMPI PUSH0 DUP1 REVERT JUMPDEST PUSH1 0x20 ADD SWAP2 POP CALLDATASIZE DUP2 SWAP1 SUB DUP3 SGT ISZERO PUSH2 0x4D34 JUMPI PUSH0 DUP1 REVERT JUMPDEST PUSH0 PUSH1 0x20 DUP3 DUP5 SUB SLT ISZERO PUSH2 0x5659 JUMPI PUSH0 DUP1 REVERT JUMPDEST PUSH2 0x2E7B DUP3 PUSH2 0x4B7D JUMP JUMPDEST PUSH1 0x1 PUSH1 0x1 PUSH1 0xA0 SHL SUB DUP7 AND DUP2 MSTORE PUSH1 0x20 DUP2 ADD DUP6 SWAP1 MSTORE PUSH1 0x80 PUSH1 0x40 DUP3 ADD DUP2 SWAP1 MSTORE DUP2 ADD DUP4 SWAP1 MSTORE DUP3 DUP5 PUSH1 0xA0 DUP4 ADD CALLDATACOPY PUSH0 PUSH1 0xA0 DUP5 DUP4 ADD ADD MSTORE PUSH0 PUSH1 0xA0 PUSH1 0x1F NOT PUSH1 0x1F DUP7 ADD AND DUP4 ADD ADD SWAP1 POP PUSH3 0xFFFFFF DUP4 AND PUSH1 0x60 DUP4 ADD MSTORE SWAP7 SWAP6 POP POP POP POP POP POP JUMP JUMPDEST DUP2 MLOAD PUSH1 0x1 PUSH1 0x1 PUSH1 0xA0 SHL SUB SWAP1 DUP2 AND DUP3 MSTORE PUSH1 0x20 DUP1 DUP5 ADD MLOAD SWAP1 SWAP2 AND SWAP1 DUP3 ADD MSTORE PUSH1 0x40 DUP1 DUP4 ADD MLOAD PUSH3 0xFFFFFF AND SWAP1 DUP3 ADD MSTORE PUSH1 0x60 DUP1 DUP4 ADD MLOAD PUSH2 0x100 DUP4 ADD SWAP2 PUSH2 0x56FA SWAP1 DUP5 ADD DUP3 PUSH2 0x4A6D JUMP JUMPDEST POP PUSH1 0x80 DUP4 ADD MLOAD PUSH1 0x80 DUP4 ADD MSTORE PUSH1 0xA0 DUP4 ADD MLOAD PUSH1 0xA0 DUP4 ADD MSTORE PUSH1 0xC0 DUP4 ADD MLOAD PUSH1 0xC0 DUP4 ADD MSTORE PUSH1 0xE0 DUP4 ADD MLOAD PUSH2 0x218B PUSH1 0xE0 DUP5 ADD DUP3 PUSH2 0x4A6D JUMP JUMPDEST PUSH1 0x1 PUSH1 0x1 PUSH1 0xA0 SHL SUB SWAP4 SWAP1 SWAP4 AND DUP4 MSTORE PUSH1 0x20 DUP4 ADD SWAP2 SWAP1 SWAP2 MSTORE PUSH1 0x40 DUP3 ADD MSTORE PUSH1 0x60 ADD SWAP1 JUMP JUMPDEST DUP5 DUP2 MSTORE PUSH1 0x80 PUSH1 0x20 DUP3 ADD MSTORE PUSH0 PUSH2 0x5764 PUSH1 0x80 DUP4 ADD DUP7 PUSH2 0x5308 JUMP JUMPDEST PUSH1 0x1 PUSH1 0x1 PUSH1 0xA0 SHL SUB SWAP5 SWAP1 SWAP5 AND PUSH1 0x40 DUP4 ADD MSTORE POP PUSH1 0x60 ADD MSTORE SWAP3 SWAP2 POP POP JUMP JUMPDEST DUP2 DUP2 SUB PUSH2 0x578B JUMPI POP POP JUMP JUMPDEST PUSH2 0x5795 DUP3 SLOAD PUSH2 0x5073 JUMP JUMPDEST PUSH1 0x1 PUSH1 0x1 PUSH1 0x40 SHL SUB DUP2 GT ISZERO PUSH2 0x57AC JUMPI PUSH2 0x57AC PUSH2 0x4AC3 JUMP JUMPDEST PUSH2 0x57BA DUP2 PUSH2 0x554C DUP5 SLOAD PUSH2 0x5073 JUMP JUMPDEST PUSH0 PUSH1 0x1F DUP3 GT PUSH1 0x1 DUP2 EQ PUSH2 0x57DD JUMPI PUSH0 DUP4 ISZERO PUSH2 0x556D JUMPI POP DUP5 DUP3 ADD SLOAD PUSH2 0x5577 DUP5 DUP3 PUSH2 0x5511 JUMP JUMPDEST PUSH0 DUP6 DUP2 MSTORE PUSH1 0x20 DUP1 DUP3 KECCAK256 DUP7 DUP4 MSTORE SWAP1 DUP3 KECCAK256 PUSH1 0x1F NOT DUP7 AND SWAP3 JUMPDEST DUP4 DUP2 LT ISZERO PUSH2 0x5813 JUMPI DUP3 DUP7 ADD SLOAD DUP3 SSTORE PUSH1 0x1 SWAP6 DUP7 ADD SWAP6 SWAP1 SWAP2 ADD SWAP1 PUSH1 0x20 ADD PUSH2 0x57F3 JUMP JUMPDEST POP DUP6 DUP4 LT ISZERO PUSH2 0x5830 JUMPI DUP2 DUP6 ADD SLOAD PUSH0 NOT PUSH1 0x3 DUP9 SWAP1 SHL PUSH1 0xF8 AND SHR NOT AND DUP2 SSTORE JUMPDEST POP POP POP POP POP PUSH1 0x1 SWAP1 DUP2 SHL ADD SWAP1 SSTORE POP JUMP JUMPDEST PUSH4 0x4E487B71 PUSH1 0xE0 SHL PUSH0 MSTORE PUSH1 0x31 PUSH1 0x4 MSTORE PUSH1 0x24 PUSH0 REVERT INVALID LOG2 PUSH5 0x6970667358 0x22 SLT KECCAK256 0x2B 0x27 SWAP9 DUP11 0xC5 0x1F 0x24 DUP11 PUSH3 0x7644CA INVALID 0xEC 0x2C SWAP12 DUP1 SAR 0xAC DUP4 SWAP2 PUSH28 0xE894981AB440B71031AE64736F6C634300081A003300000000000000 "
		},
		"gasEstimates": {
			"creation": {
				"codeDepositCost": "4533200",
				"executionCost": "infinite",
				"totalCost": "infinite"
			},
			"external": {
				"allowance(address,address)": "infinite",
				"approve(address,uint256)": "24729",
				"balanceOf(address)": "2528",
				"bulkAddTokens(address[],uint256[],string[],uint24[])": "infinite",
				"decimals()": "397",
				"deposit()": "infinite",
				"ethDepositedFailed(address)": "2796",
				"failedSwaps(uint256)": "infinite",
				"getAmountsOut(uint256,address[])": "infinite",
				"getFailedSwaps(address)": "infinite",
				"getPortfolioValue(uint256[])": "infinite",
				"getWETHaddress()": "infinite",
				"name()": "infinite",
				"owner()": "2500",
				"pause()": "infinite",
				"paused()": "2775",
				"profitToETH()": "2382",
				"profitToWETH()": "2404",
				"quoteExactInput(bytes,uint256)": "infinite",
				"rebalance(uint256[])": "infinite",
				"renounceOwnership()": "infinite",
				"retryFailedSwaps(address)": "infinite",
				"setFees(uint256,uint256)": "46762",
				"setSlippageTolerance(uint256)": "22415",
				"setWhitelist(address,bool)": "infinite",
				"slippageTolerance()": "2624",
				"swapETHForToken(address,uint256,string,uint24)": "infinite",
				"swapTokenForETH(address,uint256,string,uint24)": "infinite",
				"swapTokenForETHV2(address,uint256,uint256,address)": "infinite",
				"swapTokenForETHV3(address,uint256,uint24,uint256,address)": "infinite",
				"symbol()": "infinite",
				"totalSupply()": "2391",
				"transfer(address,uint256)": "51465",
				"transferFrom(address,address,uint256)": "infinite",
				"transferOwnership(address)": "infinite",
				"uniswapV2Router()": "2449",
				"uniswapV3Quoter()": "2735",
				"uniswapV3Router()": "2515",
				"unpause()": "infinite",
				"updateToken(address,uint256,string,uint24)": "infinite",
				"userFailedSwaps(address)": "2775",
				"whitelist(address)": "2720",
				"withdraw(uint256)": "infinite",
				"withdrawAllToETH()": "infinite",
				"withdrawFeesByOwner(address)": "infinite",
				"withdrawToETH(uint256)": "infinite",
				"withdrawWholeAllInKind()": "infinite"
			}
		},
		"methodIdentifiers": {
			"allowance(address,address)": "dd62ed3e",
			"approve(address,uint256)": "095ea7b3",
			"balanceOf(address)": "70a08231",
			"bulkAddTokens(address[],uint256[],string[],uint24[])": "60d27451",
			"decimals()": "313ce567",
			"deposit()": "d0e30db0",
			"ethDepositedFailed(address)": "c38cd0b5",
			"failedSwaps(uint256)": "378a653c",
			"getAmountsOut(uint256,address[])": "d06ca61f",
			"getFailedSwaps(address)": "91ebe50f",
			"getPortfolioValue(uint256[])": "5643a5a7",
			"getWETHaddress()": "df0e0768",
			"name()": "06fdde03",
			"owner()": "8da5cb5b",
			"pause()": "8456cb59",
			"paused()": "5c975abb",
			"profitToETH()": "86bc55db",
			"profitToWETH()": "86c14663",
			"quoteExactInput(bytes,uint256)": "cdca1753",
			"rebalance(uint256[])": "780d5710",
			"renounceOwnership()": "715018a6",
			"retryFailedSwaps(address)": "3d7526f7",
			"setFees(uint256,uint256)": "0b78f9c0",
			"setSlippageTolerance(uint256)": "117da1ee",
			"setWhitelist(address,bool)": "53d6fd59",
			"slippageTolerance()": "d03153aa",
			"swapETHForToken(address,uint256,string,uint24)": "39c0f5d2",
			"swapTokenForETH(address,uint256,string,uint24)": "e7ae65ab",
			"swapTokenForETHV2(address,uint256,uint256,address)": "34b6b2b9",
			"swapTokenForETHV3(address,uint256,uint24,uint256,address)": "f662caaf",
			"symbol()": "95d89b41",
			"totalSupply()": "18160ddd",
			"transfer(address,uint256)": "a9059cbb",
			"transferFrom(address,address,uint256)": "23b872dd",
			"transferOwnership(address)": "f2fde38b",
			"uniswapV2Router()": "1694505e",
			"uniswapV3Quoter()": "4d20d0f8",
			"uniswapV3Router()": "2c76d7a6",
			"unpause()": "3f4ba83a",
			"updateToken(address,uint256,string,uint24)": "a38e9e66",
			"userFailedSwaps(address)": "36a43f2b",
			"whitelist(address)": "9b19251a",
			"withdraw(uint256)": "2e1a7d4d",
			"withdrawAllToETH()": "fa3b5649",
			"withdrawFeesByOwner(address)": "a738c7df",
			"withdrawToETH(uint256)": "2c9351a1",
			"withdrawWholeAllInKind()": "611d126a"
		}
	},
	"abi": [
		{
			"inputs": [
				{
					"internalType": "address",
					"name": "_uniswapV2Router",
					"type": "address"
				},
				{
					"internalType": "address",
					"name": "_uniswapV3Router",
					"type": "address"
				},
				{
					"internalType": "address",
					"name": "_uniswapV3Quoter",
					"type": "address"
				}
			],
			"stateMutability": "nonpayable",
			"type": "constructor"
		},
		{
			"inputs": [
				{
					"internalType": "address",
					"name": "spender",
					"type": "address"
				},
				{
					"internalType": "uint256",
					"name": "allowance",
					"type": "uint256"
				},
				{
					"internalType": "uint256",
					"name": "needed",
					"type": "uint256"
				}
			],
			"name": "ERC20InsufficientAllowance",
			"type": "error"
		},
		{
			"inputs": [
				{
					"internalType": "address",
					"name": "sender",
					"type": "address"
				},
				{
					"internalType": "uint256",
					"name": "balance",
					"type": "uint256"
				},
				{
					"internalType": "uint256",
					"name": "needed",
					"type": "uint256"
				}
			],
			"name": "ERC20InsufficientBalance",
			"type": "error"
		},
		{
			"inputs": [
				{
					"internalType": "address",
					"name": "approver",
					"type": "address"
				}
			],
			"name": "ERC20InvalidApprover",
			"type": "error"
		},
		{
			"inputs": [
				{
					"internalType": "address",
					"name": "receiver",
					"type": "address"
				}
			],
			"name": "ERC20InvalidReceiver",
			"type": "error"
		},
		{
			"inputs": [
				{
					"internalType": "address",
					"name": "sender",
					"type": "address"
				}
			],
			"name": "ERC20InvalidSender",
			"type": "error"
		},
		{
			"inputs": [
				{
					"internalType": "address",
					"name": "spender",
					"type": "address"
				}
			],
			"name": "ERC20InvalidSpender",
			"type": "error"
		},
		{
			"inputs": [],
			"name": "EnforcedPause",
			"type": "error"
		},
		{
			"inputs": [],
			"name": "ExpectedPause",
			"type": "error"
		},
		{
			"inputs": [
				{
					"internalType": "address",
					"name": "owner",
					"type": "address"
				}
			],
			"name": "OwnableInvalidOwner",
			"type": "error"
		},
		{
			"inputs": [
				{
					"internalType": "address",
					"name": "account",
					"type": "address"
				}
			],
			"name": "OwnableUnauthorizedAccount",
			"type": "error"
		},
		{
			"anonymous": false,
			"inputs": [
				{
					"indexed": false,
					"internalType": "address",
					"name": "_tokens",
					"type": "address"
				},
				{
					"indexed": false,
					"internalType": "uint256",
					"name": "targetPercentage",
					"type": "uint256"
				},
				{
					"indexed": false,
					"internalType": "string",
					"name": "verision",
					"type": "string"
				},
				{
					"indexed": false,
					"internalType": "uint24",
					"name": "feeTier",
					"type": "uint24"
				}
			],
			"name": "AddToken",
			"type": "event"
		},
		{
			"anonymous": false,
			"inputs": [
				{
					"indexed": true,
					"internalType": "address",
					"name": "owner",
					"type": "address"
				},
				{
					"indexed": true,
					"internalType": "address",
					"name": "spender",
					"type": "address"
				},
				{
					"indexed": false,
					"internalType": "uint256",
					"name": "value",
					"type": "uint256"
				}
			],
			"name": "Approval",
			"type": "event"
		},
		{
			"anonymous": false,
			"inputs": [
				{
					"indexed": true,
					"internalType": "address",
					"name": "previousOwner",
					"type": "address"
				},
				{
					"indexed": true,
					"internalType": "address",
					"name": "newOwner",
					"type": "address"
				}
			],
			"name": "OwnershipTransferred",
			"type": "event"
		},
		{
			"anonymous": false,
			"inputs": [
				{
					"indexed": false,
					"internalType": "address",
					"name": "account",
					"type": "address"
				}
			],
			"name": "Paused",
			"type": "event"
		},
		{
			"anonymous": false,
			"inputs": [
				{
					"indexed": true,
					"internalType": "address",
					"name": "from",
					"type": "address"
				},
				{
					"indexed": true,
					"internalType": "address",
					"name": "to",
					"type": "address"
				},
				{
					"indexed": false,
					"internalType": "uint256",
					"name": "value",
					"type": "uint256"
				}
			],
			"name": "Transfer",
			"type": "event"
		},
		{
			"anonymous": false,
			"inputs": [
				{
					"indexed": false,
					"internalType": "address",
					"name": "account",
					"type": "address"
				}
			],
			"name": "Unpaused",
			"type": "event"
		},
		{
			"inputs": [
				{
					"internalType": "address",
					"name": "owner",
					"type": "address"
				},
				{
					"internalType": "address",
					"name": "spender",
					"type": "address"
				}
			],
			"name": "allowance",
			"outputs": [
				{
					"internalType": "uint256",
					"name": "",
					"type": "uint256"
				}
			],
			"stateMutability": "view",
			"type": "function"
		},
		{
			"inputs": [
				{
					"internalType": "address",
					"name": "spender",
					"type": "address"
				},
				{
					"internalType": "uint256",
					"name": "value",
					"type": "uint256"
				}
			],
			"name": "approve",
			"outputs": [
				{
					"internalType": "bool",
					"name": "",
					"type": "bool"
				}
			],
			"stateMutability": "nonpayable",
			"type": "function"
		},
		{
			"inputs": [
				{
					"internalType": "address",
					"name": "account",
					"type": "address"
				}
			],
			"name": "balanceOf",
			"outputs": [
				{
					"internalType": "uint256",
					"name": "",
					"type": "uint256"
				}
			],
			"stateMutability": "view",
			"type": "function"
		},
		{
			"inputs": [
				{
					"internalType": "address[]",
					"name": "_tokens",
					"type": "address[]"
				},
				{
					"internalType": "uint256[]",
					"name": "_targetPercentages",
					"type": "uint256[]"
				},
				{
					"internalType": "string[]",
					"name": "_versions",
					"type": "string[]"
				},
				{
					"internalType": "uint24[]",
					"name": "_feeTiers",
					"type": "uint24[]"
				}
			],
			"name": "bulkAddTokens",
			"outputs": [],
			"stateMutability": "nonpayable",
			"type": "function"
		},
		{
			"inputs": [],
			"name": "decimals",
			"outputs": [
				{
					"internalType": "uint8",
					"name": "",
					"type": "uint8"
				}
			],
			"stateMutability": "view",
			"type": "function"
		},
		{
			"inputs": [],
			"name": "deposit",
			"outputs": [],
			"stateMutability": "payable",
			"type": "function"
		},
		{
			"inputs": [
				{
					"internalType": "address",
					"name": "",
					"type": "address"
				}
			],
			"name": "ethDepositedFailed",
			"outputs": [
				{
					"internalType": "uint256",
					"name": "",
					"type": "uint256"
				}
			],
			"stateMutability": "view",
			"type": "function"
		},
		{
			"inputs": [
				{
					"internalType": "uint256",
					"name": "",
					"type": "uint256"
				}
			],
			"name": "failedSwaps",
			"outputs": [
				{
					"internalType": "address",
					"name": "user",
					"type": "address"
				},
				{
					"internalType": "contract IERC20",
					"name": "token",
					"type": "address"
				},
				{
					"internalType": "uint256",
					"name": "amount",
					"type": "uint256"
				},
				{
					"internalType": "string",
					"name": "version",
					"type": "string"
				},
				{
					"internalType": "uint24",
					"name": "feeTier",
					"type": "uint24"
				}
			],
			"stateMutability": "view",
			"type": "function"
		},
		{
			"inputs": [
				{
					"internalType": "uint256",
					"name": "amountIn",
					"type": "uint256"
				},
				{
					"internalType": "address[]",
					"name": "path",
					"type": "address[]"
				}
			],
			"name": "getAmountsOut",
			"outputs": [
				{
					"internalType": "uint256[]",
					"name": "amounts",
					"type": "uint256[]"
				}
			],
			"stateMutability": "view",
			"type": "function"
		},
		{
			"inputs": [
				{
					"internalType": "address",
					"name": "user",
					"type": "address"
				}
			],
			"name": "getFailedSwaps",
			"outputs": [
				{
					"components": [
						{
							"internalType": "address",
							"name": "user",
							"type": "address"
						},
						{
							"internalType": "contract IERC20",
							"name": "token",
							"type": "address"
						},
						{
							"internalType": "uint256",
							"name": "amount",
							"type": "uint256"
						},
						{
							"internalType": "string",
							"name": "version",
							"type": "string"
						},
						{
							"internalType": "uint24",
							"name": "feeTier",
							"type": "uint24"
						}
					],
					"internalType": "struct FailedSwap[]",
					"name": "",
					"type": "tuple[]"
				}
			],
			"stateMutability": "view",
			"type": "function"
		},
		{
			"inputs": [
				{
					"internalType": "uint256[]",
					"name": "_tokenPrices",
					"type": "uint256[]"
				}
			],
			"name": "getPortfolioValue",
			"outputs": [
				{
					"internalType": "uint256",
					"name": "",
					"type": "uint256"
				}
			],
			"stateMutability": "view",
			"type": "function"
		},
		{
			"inputs": [],
			"name": "getWETHaddress",
			"outputs": [
				{
					"internalType": "address",
					"name": "",
					"type": "address"
				}
			],
			"stateMutability": "view",
			"type": "function"
		},
		{
			"inputs": [],
			"name": "name",
			"outputs": [
				{
					"internalType": "string",
					"name": "",
					"type": "string"
				}
			],
			"stateMutability": "view",
			"type": "function"
		},
		{
			"inputs": [],
			"name": "owner",
			"outputs": [
				{
					"internalType": "address",
					"name": "",
					"type": "address"
				}
			],
			"stateMutability": "view",
			"type": "function"
		},
		{
			"inputs": [],
			"name": "pause",
			"outputs": [],
			"stateMutability": "nonpayable",
			"type": "function"
		},
		{
			"inputs": [],
			"name": "paused",
			"outputs": [
				{
					"internalType": "bool",
					"name": "",
					"type": "bool"
				}
			],
			"stateMutability": "view",
			"type": "function"
		},
		{
			"inputs": [],
			"name": "profitToETH",
			"outputs": [
				{
					"internalType": "uint256",
					"name": "",
					"type": "uint256"
				}
			],
			"stateMutability": "view",
			"type": "function"
		},
		{
			"inputs": [],
			"name": "profitToWETH",
			"outputs": [
				{
					"internalType": "uint256",
					"name": "",
					"type": "uint256"
				}
			],
			"stateMutability": "view",
			"type": "function"
		},
		{
			"inputs": [
				{
					"internalType": "bytes",
					"name": "path",
					"type": "bytes"
				},
				{
					"internalType": "uint256",
					"name": "amountIn",
					"type": "uint256"
				}
			],
			"name": "quoteExactInput",
			"outputs": [
				{
					"internalType": "uint256",
					"name": "amounts",
					"type": "uint256"
				}
			],
			"stateMutability": "nonpayable",
			"type": "function"
		},
		{
			"inputs": [
				{
					"internalType": "uint256[]",
					"name": "_tokenPrices",
					"type": "uint256[]"
				}
			],
			"name": "rebalance",
			"outputs": [],
			"stateMutability": "nonpayable",
			"type": "function"
		},
		{
			"inputs": [],
			"name": "renounceOwnership",
			"outputs": [],
			"stateMutability": "nonpayable",
			"type": "function"
		},
		{
			"inputs": [
				{
					"internalType": "address",
					"name": "user",
					"type": "address"
				}
			],
			"name": "retryFailedSwaps",
			"outputs": [],
			"stateMutability": "nonpayable",
			"type": "function"
		},
		{
			"inputs": [
				{
					"internalType": "uint256",
					"name": "_depositFee",
					"type": "uint256"
				},
				{
					"internalType": "uint256",
					"name": "_withdrawalFee",
					"type": "uint256"
				}
			],
			"name": "setFees",
			"outputs": [],
			"stateMutability": "nonpayable",
			"type": "function"
		},
		{
			"inputs": [
				{
					"internalType": "uint256",
					"name": "_slippageTolerance",
					"type": "uint256"
				}
			],
			"name": "setSlippageTolerance",
			"outputs": [],
			"stateMutability": "nonpayable",
			"type": "function"
		},
		{
			"inputs": [
				{
					"internalType": "address",
					"name": "_user",
					"type": "address"
				},
				{
					"internalType": "bool",
					"name": "_status",
					"type": "bool"
				}
			],
			"name": "setWhitelist",
			"outputs": [],
			"stateMutability": "nonpayable",
			"type": "function"
		},
		{
			"inputs": [],
			"name": "slippageTolerance",
			"outputs": [
				{
					"internalType": "uint256",
					"name": "",
					"type": "uint256"
				}
			],
			"stateMutability": "view",
			"type": "function"
		},
		{
			"inputs": [
				{
					"internalType": "contract IERC20",
					"name": "_token",
					"type": "address"
				},
				{
					"internalType": "uint256",
					"name": "_ethAmount",
					"type": "uint256"
				},
				{
					"internalType": "string",
					"name": "version",
					"type": "string"
				},
				{
					"internalType": "uint24",
					"name": "feeTier",
					"type": "uint24"
				}
			],
			"name": "swapETHForToken",
			"outputs": [],
			"stateMutability": "payable",
			"type": "function"
		},
		{
			"inputs": [
				{
					"internalType": "contract IERC20",
					"name": "_token",
					"type": "address"
				},
				{
					"internalType": "uint256",
					"name": "_amountIn",
					"type": "uint256"
				},
				{
					"internalType": "string",
					"name": "version",
					"type": "string"
				},
				{
					"internalType": "uint24",
					"name": "feeTier",
					"type": "uint24"
				}
			],
			"name": "swapTokenForETH",
			"outputs": [
				{
					"internalType": "uint256",
					"name": "",
					"type": "uint256"
				}
			],
			"stateMutability": "nonpayable",
			"type": "function"
		},
		{
			"inputs": [
				{
					"internalType": "contract IERC20",
					"name": "_token",
					"type": "address"
				},
				{
					"internalType": "uint256",
					"name": "_amountIn",
					"type": "uint256"
				},
				{
					"internalType": "uint256",
					"name": "amountOutMinimum",
					"type": "uint256"
				},
				{
					"internalType": "address",
					"name": "receiver",
					"type": "address"
				}
			],
			"name": "swapTokenForETHV2",
			"outputs": [
				{
					"internalType": "uint256",
					"name": "",
					"type": "uint256"
				}
			],
			"stateMutability": "nonpayable",
			"type": "function"
		},
		{
			"inputs": [
				{
					"internalType": "contract IERC20",
					"name": "_token",
					"type": "address"
				},
				{
					"internalType": "uint256",
					"name": "_amountIn",
					"type": "uint256"
				},
				{
					"internalType": "uint24",
					"name": "feeTier",
					"type": "uint24"
				},
				{
					"internalType": "uint256",
					"name": "amountOutMinimum",
					"type": "uint256"
				},
				{
					"internalType": "address",
					"name": "receiver",
					"type": "address"
				}
			],
			"name": "swapTokenForETHV3",
			"outputs": [
				{
					"internalType": "uint256",
					"name": "",
					"type": "uint256"
				}
			],
			"stateMutability": "nonpayable",
			"type": "function"
		},
		{
			"inputs": [],
			"name": "symbol",
			"outputs": [
				{
					"internalType": "string",
					"name": "",
					"type": "string"
				}
			],
			"stateMutability": "view",
			"type": "function"
		},
		{
			"inputs": [],
			"name": "totalSupply",
			"outputs": [
				{
					"internalType": "uint256",
					"name": "",
					"type": "uint256"
				}
			],
			"stateMutability": "view",
			"type": "function"
		},
		{
			"inputs": [
				{
					"internalType": "address",
					"name": "to",
					"type": "address"
				},
				{
					"internalType": "uint256",
					"name": "value",
					"type": "uint256"
				}
			],
			"name": "transfer",
			"outputs": [
				{
					"internalType": "bool",
					"name": "",
					"type": "bool"
				}
			],
			"stateMutability": "nonpayable",
			"type": "function"
		},
		{
			"inputs": [
				{
					"internalType": "address",
					"name": "from",
					"type": "address"
				},
				{
					"internalType": "address",
					"name": "to",
					"type": "address"
				},
				{
					"internalType": "uint256",
					"name": "value",
					"type": "uint256"
				}
			],
			"name": "transferFrom",
			"outputs": [
				{
					"internalType": "bool",
					"name": "",
					"type": "bool"
				}
			],
			"stateMutability": "nonpayable",
			"type": "function"
		},
		{
			"inputs": [
				{
					"internalType": "address",
					"name": "newOwner",
					"type": "address"
				}
			],
			"name": "transferOwnership",
			"outputs": [],
			"stateMutability": "nonpayable",
			"type": "function"
		},
		{
			"inputs": [],
			"name": "uniswapV2Router",
			"outputs": [
				{
					"internalType": "contract IUniswapV2Router02",
					"name": "",
					"type": "address"
				}
			],
			"stateMutability": "view",
			"type": "function"
		},
		{
			"inputs": [],
			"name": "uniswapV3Quoter",
			"outputs": [
				{
					"internalType": "contract IUniswapV3Quoter",
					"name": "",
					"type": "address"
				}
			],
			"stateMutability": "view",
			"type": "function"
		},
		{
			"inputs": [],
			"name": "uniswapV3Router",
			"outputs": [
				{
					"internalType": "contract ISwapRouter",
					"name": "",
					"type": "address"
				}
			],
			"stateMutability": "view",
			"type": "function"
		},
		{
			"inputs": [],
			"name": "unpause",
			"outputs": [],
			"stateMutability": "nonpayable",
			"type": "function"
		},
		{
			"inputs": [
				{
					"internalType": "address",
					"name": "_token",
					"type": "address"
				},
				{
					"internalType": "uint256",
					"name": "_targetPercentage",
					"type": "uint256"
				},
				{
					"internalType": "string",
					"name": "_version",
					"type": "string"
				},
				{
					"internalType": "uint24",
					"name": "_feeTier",
					"type": "uint24"
				}
			],
			"name": "updateToken",
			"outputs": [],
			"stateMutability": "nonpayable",
			"type": "function"
		},
		{
			"inputs": [
				{
					"internalType": "address",
					"name": "",
					"type": "address"
				}
			],
			"name": "userFailedSwaps",
			"outputs": [
				{
					"internalType": "uint256",
					"name": "",
					"type": "uint256"
				}
			],
			"stateMutability": "view",
			"type": "function"
		},
		{
			"inputs": [
				{
					"internalType": "address",
					"name": "",
					"type": "address"
				}
			],
			"name": "whitelist",
			"outputs": [
				{
					"internalType": "bool",
					"name": "",
					"type": "bool"
				}
			],
			"stateMutability": "view",
			"type": "function"
		},
		{
			"inputs": [
				{
					"internalType": "uint256",
					"name": "tokenAmount",
					"type": "uint256"
				}
			],
			"name": "withdraw",
			"outputs": [],
			"stateMutability": "nonpayable",
			"type": "function"
		},
		{
			"inputs": [],
			"name": "withdrawAllToETH",
			"outputs": [],
			"stateMutability": "nonpayable",
			"type": "function"
		},
		{
			"inputs": [
				{
					"internalType": "address",
					"name": "_receiverFeeAddress",
					"type": "address"
				}
			],
			"name": "withdrawFeesByOwner",
			"outputs": [],
			"stateMutability": "nonpayable",
			"type": "function"
		},
		{
			"inputs": [
				{
					"internalType": "uint256",
					"name": "tokenAmount",
					"type": "uint256"
				}
			],
			"name": "withdrawToETH",
			"outputs": [],
			"stateMutability": "nonpayable",
			"type": "function"
		},
		{
			"inputs": [],
			"name": "withdrawWholeAllInKind",
			"outputs": [],
			"stateMutability": "nonpayable",
			"type": "function"
		}
	]
}