{
	"data": {
		"bytecode": {
			"linkReferences": {},
			"object": "6080604052600f805460ff60201b191690553480156200001d575f80fd5b5060405162002e0038038062002e00833981016040819052620000409162000224565b828282878733806200006b57604051631e4fbdf760e01b81525f600482015260240160405180910390fd5b6200007681620000fb565b5060046200008583826200034c565b5060056200009482826200034c565b5050600a80546001600160a01b03199081166001600160a01b0396871617909155600b805482169486169490941790935550600c8054831691909316179091556103e860075560118054339083161790556008805490911630179055505050505062000414565b5f80546001600160a01b038381166001600160a01b0319831681178455604051919092169283917f8be0079c531659141344cd1fd0a4f28419497f9722a3daafe3b4186f6b6457e09190a35050565b634e487b7160e01b5f52604160045260245ffd5b5f82601f8301126200016e575f80fd5b81516001600160401b03808211156200018b576200018b6200014a565b604051601f8301601f19908116603f01168101908282118183101715620001b657620001b66200014a565b81604052838152602092508683858801011115620001d2575f80fd5b5f91505b83821015620001f55785820183015181830184015290820190620001d6565b5f93810190920192909252949350505050565b80516001600160a01b03811681146200021f575f80fd5b919050565b5f805f805f60a0868803121562000239575f80fd5b85516001600160401b038082111562000250575f80fd5b6200025e89838a016200015e565b9650602088015191508082111562000274575f80fd5b5062000283888289016200015e565b945050620002946040870162000208565b9250620002a46060870162000208565b9150620002b46080870162000208565b90509295509295909350565b600181811c90821680620002d557607f821691505b602082108103620002f457634e487b7160e01b5f52602260045260245ffd5b50919050565b601f82111562000347575f81815260208120601f850160051c81016020861015620003225750805b601f850160051c820191505b8181101562000343578281556001016200032e565b5050505b505050565b81516001600160401b038111156200036857620003686200014a565b6200038081620003798454620002c0565b84620002fa565b602080601f831160018114620003b6575f84156200039e5750858301515b5f19600386901b1c1916600185901b17855562000343565b5f85815260208120601f198616915b82811015620003e657888601518255948401946001909101908401620003c5565b50858210156200040457878501515f19600388901b60f8161c191681555b5050505050600190811b01905550565b6129de80620004225f395ff3fe6080604052600436106101c5575f3560e01c806367a52793116100f257806395d89b4111610092578063d03153aa11610062578063d03153aa14610560578063d9a5663b14610575578063dd62ed3e14610594578063f2fde38b146105d8575f80fd5b806395d89b41146104e3578063a738c7df146104f7578063a9059cbb14610516578063c38cd0b514610535575f80fd5b806374a66061116100cd57806374a660611461046d57806381a06b731461048c5780638bc7e8c4146104ad5780638da5cb5b146104c7575f80fd5b806367a52793146103f257806370a0823114610425578063715018a614610459575f80fd5b80632a5c792a1161016857806336a43f2b1161013857806336a43f2b14610344578063378a653c1461036f5780633f595e29146103b45780634d20d0f8146103d3575f80fd5b80632a5c792a146102ca5780632c76d7a6146102eb5780633043d4d91461030a578063313ce56714610329575f80fd5b80631694505e116101a35780631694505e1461024357806318160ddd1461027a57806323b872dd1461029857806327e3f5b9146102b7575f80fd5b806306fdde03146101c9578063095ea7b3146101f3578063117da1ee14610222575b5f80fd5b3480156101d4575f80fd5b506101dd6105f7565b6040516101ea9190612084565b60405180910390f35b3480156101fe575f80fd5b5061021261020d3660046120aa565b610687565b60405190151581526020016101ea565b34801561022d575f80fd5b5061024161023c3660046120d4565b6106a0565b005b34801561024e575f80fd5b50600a54610262906001600160a01b031681565b6040516001600160a01b0390911681526020016101ea565b348015610285575f80fd5b506003545b6040519081526020016101ea565b3480156102a3575f80fd5b506102126102b23660046120eb565b6106e9565b6102416102c536600461213f565b61070c565b3480156102d5575f80fd5b506102de610b85565b6040516101ea9190612171565b3480156102f6575f80fd5b50600b54610262906001600160a01b031681565b348015610315575f80fd5b506102416103243660046120d4565b610bf8565b348015610334575f80fd5b50604051601281526020016101ea565b34801561034f575f80fd5b5061028a61035e3660046121c8565b60096020525f908152604090205481565b34801561037a575f80fd5b5061038e6103893660046120d4565b610dea565b604080516001600160a01b039485168152939092166020840152908201526060016101ea565b3480156103bf575f80fd5b506102416103ce366004612241565b610e28565b3480156103de575f80fd5b50600c54610262906001600160a01b031681565b3480156103fd575f80fd5b50600f546104129062010000900461ffff1681565b60405161ffff90911681526020016101ea565b348015610430575f80fd5b5061028a61043f3660046121c8565b6001600160a01b03165f9081526001602052604090205490565b348015610464575f80fd5b506102416110b5565b348015610478575f80fd5b5061028a61048736600461231e565b6110c8565b348015610497575f80fd5b50600f5461021290640100000000900460ff1681565b3480156104b8575f80fd5b50600f546104129061ffff1681565b3480156104d2575f80fd5b505f546001600160a01b0316610262565b3480156104ee575f80fd5b506101dd611199565b348015610502575f80fd5b506102416105113660046121c8565b6111a8565b348015610521575f80fd5b506102126105303660046120aa565b611251565b348015610540575f80fd5b5061028a61054f3660046121c8565b60106020525f908152604090205481565b34801561056b575f80fd5b5061028a60075481565b348015610580575f80fd5b5061024161058f3660046123eb565b61125e565b34801561059f575f80fd5b5061028a6105ae36600461242f565b6001600160a01b039182165f90815260026020908152604080832093909416825291909152205490565b3480156105e3575f80fd5b506102416105f23660046121c8565b61164b565b60606004805461060690612466565b80601f016020809104026020016040519081016040528092919081815260200182805461063290612466565b801561067d5780601f106106545761010080835404028352916020019161067d565b820191905f5260205f20905b81548152906001019060200180831161066057829003601f168201915b5050505050905090565b5f33610694818585611685565b60019150505b92915050565b6127108111156106e45760405162461bcd60e51b81526004016106db90602080825260049082015263021534c560e41b604082015260600190565b60405180910390fd5b600755565b5f336106f6858285611692565b610701858585611707565b506001949350505050565b5f8160200135116107455760405162461bcd60e51b81526020600482015260036024820152620213e360ec1b60448201526064016106db565b600f545f90612710906107669062010000900461ffff1660208501356124ac565b61077091906124c3565b90505f6107818260208501356124e2565b905081600e5f82825461079491906124f5565b9091555050806107cc5760405162461bcd60e51b81526020600482015260036024820152620213e360ec1b60448201526064016106db565b600a54604080516315ab88c960e31b81529051610845926001600160a01b03169163ad5c46489160048083019260209291908290030181865afa158015610815573d5f803e3d5ffd5b505050506040513d601f19601f820116820180604052508101906108399190612508565b33308660200135611764565b600a54604080516315ab88c960e31b815290516108c8926001600160a01b03169163ad5c46489160048083019260209291908290030181865afa15801561088e573d5f803e3d5ffd5b505050506040513d601f19601f820116820180604052508101906108b29190612508565b600b546001600160a01b03166020860135611869565b6108d2338261195d565b5f5b600d54811015610b7f575f600d82815481106108f2576108f2612523565b905f5260205f20906002020190505f61271082600101548561091491906124ac565b61091e91906124c3565b9050838111156109685760405162461bcd60e51b815260206004820152601560248201527421657468416d6f756e743c3d616d6f756e7466656560581b60448201526064016106db565b8015610b6a57815430906374a66061906001600160a01b03168361098c8a80612537565b8881811061099c5761099c612523565b90506020028101906109ae919061257d565b6109bf90604081019060200161259b565b306109ca8c80612537565b8a8181106109da576109da612523565b90506020028101906109ec919061257d565b6109f690806125b4565b6040518763ffffffff1660e01b8152600401610a179695949392919061260b565b6020604051808303815f875af1925050508015610a51575060408051601f3d908101601f19168201909252610a4e91810190612682565b60015b610b6857335f9081526010602052604081208054839290610a739084906124f5565b9091555050604080516060810182523380825284546001600160a01b039081166020808501918252848601878152600680546001810182555f918252965160039097027ff652222313e28459528d920b65115c16c04f3efc82aaedc97be59f3f377c0d3f810180549887166001600160a01b0319998a1617905593517ff652222313e28459528d920b65115c16c04f3efc82aaedc97be59f3f377c0d40850180549190961697169690961790935591517ff652222313e28459528d920b65115c16c04f3efc82aaedc97be59f3f377c0d419091015590825260099052908120805491610b5e83612699565b9190505550610b6a565b505b50508080610b7790612699565b9150506108d4565b50505050565b6060600d805480602002602001604051908101604052809291908181526020015f905b82821015610bef575f848152602090819020604080518082019091526002850290910180546001600160a01b03168252600190810154828401529083529092019101610ba8565b50505050905090565b5f8111610c2d5760405162461bcd60e51b81526020600482015260036024820152620573e360ec1b60448201526064016106db565b335f90815260016020526040902054811115610c765760405162461bcd60e51b81526020600482015260086024820152672162616c616e636560c01b60448201526064016106db565b5f610c8060035490565b610c8c836127106124ac565b610c9691906124c3565b9050610ca23383611995565b5f5b600d54811015610de5575f600d8281548110610cc257610cc2612523565b5f918252602082206002919091020180546040516370a0823160e01b81523060048201529193506127109186916001600160a01b0316906370a0823190602401602060405180830381865afa158015610d1d573d5f803e3d5ffd5b505050506040513d601f19601f82011682018060405250810190610d419190612682565b610d4b91906124ac565b610d5591906124c3565b90508015610dd057815460405163a9059cbb60e01b8152336004820152602481018390526001600160a01b039091169063a9059cbb906044016020604051808303815f875af1158015610daa573d5f803e3d5ffd5b505050506040513d601f19601f82011682018060405250810190610dce91906126b1565b505b50508080610ddd90612699565b915050610ca4565b505050565b60068181548110610df9575f80fd5b5f9182526020909120600390910201805460018201546002909201546001600160a01b03918216935091169083565b610e306119c9565b600f54640100000000900460ff1615610e795760405162461bcd60e51b815260206004820152600b60248201526a1a5b9a5d1a585b1a5e995960aa1b60448201526064016106db565b848314610ebd5760405162461bcd60e51b81526020600482015260126024820152714d69736d617463686564206c656e6774687360701b60448201526064016106db565b600f805461ffff838116620100000263ffffffff19909216908516171790555f805b8681101561101d57612710868683818110610efc57610efc612523565b905060200201351115610f455760405162461bcd60e51b8152602060048201526011602482015270496e76616c696450657263656e7461676560781b60448201526064016106db565b858582818110610f5757610f57612523565b9050602002013582610f6991906124f5565b9150600d60405180604001604052808a8a85818110610f8a57610f8a612523565b9050602002016020810190610f9f91906121c8565b6001600160a01b03168152602001888885818110610fbf57610fbf612523565b602090810292909201359092528354600180820186555f95865294829020845160029092020180546001600160a01b0319166001600160a01b039092169190911781559201519190920155508061101581612699565b915050610edf565b5080612710146110595760405162461bcd60e51b81526020600482015260076024820152660743d31303030360cc1b60448201526064016106db565b600f805464ff0000000019166401000000001790556040517fa6413c453391b24b1553ee2908b9fdb9d8528511a0b9983f82d823531cea38b8906110a49089908990899089906126d0565b60405180910390a150505050505050565b6110bd6119c9565b6110c65f6119f5565b565b6008545f906001600160a01b031633146111125760405162461bcd60e51b815260206004820152600b60248201526a139bdd08185b1b1bddd95960aa1b60448201526064016106db565b5f846001811115611125576111256125f7565b0361113d5761113686868585611a44565b9050611190565b6001846001811115611151576111516125f7565b036111625761113686868585611c33565b60405162461bcd60e51b815260206004820152600360248201526210aaab60e91b60448201526064016106db565b95945050505050565b60606005805461060690612466565b6111b06119c9565b600e541561124e57600e546040515f916001600160a01b038416918381818185875af1925050503d805f8114611201576040519150601f19603f3d011682016040523d82523d5f602084013e611206565b606091505b50509050806112485760405162461bcd60e51b815260206004820152600e60248201526d1d1c985b9cd9995c91985a5b195960921b60448201526064016106db565b505f600e555b50565b5f33610694818585611707565b5f82116112925760405162461bcd60e51b815260206004820152600260248201526103e360f41b60448201526064016106db565b6040516370a0823160e01b8152336004820152829030906370a0823190602401602060405180830381865afa1580156112cd573d5f803e3d5ffd5b505050506040513d601f19601f820116820180604052508101906112f19190612682565b101561132f5760405162461bcd60e51b815260206004820152600d60248201526c08525b9cdd59999a58da595b9d609a1b60448201526064016106db565b5f61134361133c60035490565b8490611dee565b90505f600a5f9054906101000a90046001600160a01b03166001600160a01b031663ad5c46486040518163ffffffff1660e01b8152600401602060405180830381865afa158015611396573d5f803e3d5ffd5b505050506040513d601f19601f820116820180604052508101906113ba9190612508565b90505f805b600d5481101561157e575f600d82815481106113dd576113dd612523565b5f918252602082206002919091020180546040516370a0823160e01b81523060048201529193506127109188916001600160a01b0316906370a0823190602401602060405180830381865afa158015611438573d5f803e3d5ffd5b505050506040513d601f19601f8201168201806040525081019061145c9190612682565b61146691906124ac565b61147091906124c3565b825490915030906374a66061906001600160a01b0316836114918b80612537565b888181106114a1576114a1612523565b90506020028101906114b3919061257d565b6114c490604081019060200161259b565b306114cf8d80612537565b8a8181106114df576114df612523565b90506020028101906114f1919061257d565b6114fb90806125b4565b6040518763ffffffff1660e01b815260040161151c9695949392919061260b565b6020604051808303815f875af1925050508015611556575060408051601f3d908101601f1916820190925261155391810190612682565b60015b156115695761156581866124f5565b9450505b5050808061157690612699565b9150506113bf565b506115893386611995565b801561164457600f545f906115a390839061ffff16611e0d565b600f549091505f906115ba90849061ffff16611e1f565b905081600e5f8282546115cd91906124f5565b909155505060405163a9059cbb60e01b8152336004820152602481018290526001600160a01b0385169063a9059cbb906044016020604051808303815f875af115801561161c573d5f803e3d5ffd5b505050506040513d601f19601f8201168201806040525081019061164091906126b1565b5050505b5050505050565b6116536119c9565b6001600160a01b03811661167c57604051631e4fbdf760e01b81525f60048201526024016106db565b61124e816119f5565b610de58383836001611e3f565b6001600160a01b038381165f908152600260209081526040808320938616835292905220545f198114610b7f57818110156116f957604051637dc7a0d960e11b81526001600160a01b038416600482015260248101829052604481018390526064016106db565b610b7f84848484035f611e3f565b6001600160a01b03831661173057604051634b637e8f60e11b81525f60048201526024016106db565b6001600160a01b0382166117595760405163ec442f0560e01b81525f60048201526024016106db565b610de5838383611f11565b604080516001600160a01b0385811660248301528481166044830152606480830185905283518084039091018152608490920183526020820180516001600160e01b03166323b872dd60e01b17905291515f928392908816916117c7919061274c565b5f604051808303815f865af19150503d805f8114611800576040519150601f19603f3d011682016040523d82523d5f602084013e611805565b606091505b509150915081801561182f57508051158061182f57508080602001905181019061182f91906126b1565b6118615760405162461bcd60e51b815260206004820152600360248201526229aa2360e91b60448201526064016106db565b505050505050565b604080516001600160a01b038481166024830152604480830185905283518084039091018152606490920183526020820180516001600160e01b031663095ea7b360e01b17905291515f928392908716916118c4919061274c565b5f604051808303815f865af19150503d805f81146118fd576040519150601f19603f3d011682016040523d82523d5f602084013e611902565b606091505b509150915081801561192c57508051158061192c57508080602001905181019061192c91906126b1565b6116445760405162461bcd60e51b8152602060048201526002602482015261534160f01b60448201526064016106db565b6001600160a01b0382166119865760405163ec442f0560e01b81525f60048201526024016106db565b6119915f8383611f11565b5050565b6001600160a01b0382166119be57604051634b637e8f60e11b81525f60048201526024016106db565b611991825f83611f11565b5f546001600160a01b031633146110c65760405163118cdaa760e01b81523360048201526024016106db565b5f80546001600160a01b038381166001600160a01b0319831681178455604051919092169283917f8be0079c531659141344cd1fd0a4f28419497f9722a3daafe3b4186f6b6457e09190a35050565b5f8082806020019051810190611a5a9190612780565b600a5460405163d06ca61f60e01b81529192505f916001600160a01b039091169063d06ca61f90611a91908990869060040161285c565b5f60405180830381865afa158015611aab573d5f803e3d5ffd5b505050506040513d5f823e601f3d908101601f19168201604052611ad29190810190612874565b90505f612710600754612710611ae891906124e2565b83600181518110611afb57611afb612523565b6020026020010151611b0d91906124ac565b611b1791906124c3565b600a5460405163095ea7b360e01b81526001600160a01b039182166004820152602481018a905291925089169063095ea7b3906044016020604051808303815f875af1158015611b69573d5f803e3d5ffd5b505050506040513d601f19601f82011682018060405250810190611b8d91906126b1565b50600a546040516318cbafe560e01b81525f916001600160a01b0316906318cbafe590611bc6908b90869089908d9042906004016128f5565b5f604051808303815f875af1158015611be1573d5f803e3d5ffd5b505050506040513d5f823e601f3d908101601f19168201604052611c089190810190612874565b905080600181518110611c1d57611c1d612523565b6020026020010151945050505050949350505050565b600c5460405163cdca175360e01b81525f9182916001600160a01b039091169063cdca175390611c699086908990600401612930565b6020604051808303815f875af1158015611c85573d5f803e3d5ffd5b505050506040513d601f19601f82011682018060405250810190611ca99190612682565b90505f612710600754612710611cbf91906124e2565b611cc990846124ac565b611cd391906124c3565b6040805160a0810182528681526001600160a01b0388811660208301524282840152606082018a905260808201849052600b54925163095ea7b360e01b81529281166004840152602483018a90529293509189169063095ea7b3906044016020604051808303815f875af1158015611d4d573d5f803e3d5ffd5b505050506040513d601f19601f82011682018060405250810190611d7191906126b1565b50600b5460405163c04b8d5960e01b81526001600160a01b039091169063c04b8d5990611da2908490600401612951565b6020604051808303815f875af1158015611dbe573d5f803e3d5ffd5b505050506040513d601f19601f82011682018060405250810190611de29190612682565b98975050505050505050565b5f81611dfc846127106124ac565b611e0691906124c3565b9392505050565b5f612710611dfc61ffff8416856124ac565b5f80611e2b8484611e0d565b9050611e3781856124e2565b949350505050565b6001600160a01b038416611e685760405163e602df0560e01b81525f60048201526024016106db565b6001600160a01b038316611e9157604051634a1406b160e11b81525f60048201526024016106db565b6001600160a01b038085165f9081526002602090815260408083209387168352929052208290558015610b7f57826001600160a01b0316846001600160a01b03167f8c5be1e5ebec7d5bd14f71427d1e84f3dd0314c0f7b2291e5b200ac8c7c3b92584604051611f0391815260200190565b60405180910390a350505050565b6001600160a01b038316611f3b578060035f828254611f3091906124f5565b90915550611fab9050565b6001600160a01b0383165f9081526001602052604090205481811015611f8d5760405163391434e360e21b81526001600160a01b038516600482015260248101829052604481018390526064016106db565b6001600160a01b0384165f9081526001602052604090209082900390555b6001600160a01b038216611fc757600380548290039055611fe5565b6001600160a01b0382165f9081526001602052604090208054820190555b816001600160a01b0316836001600160a01b03167fddf252ad1be2c89b69c2b068fc378daa952ba7f163c4a11628f55a4df523b3ef8360405161202a91815260200190565b60405180910390a3505050565b5f5b83811015612051578181015183820152602001612039565b50505f910152565b5f8151808452612070816020860160208601612037565b601f01601f19169290920160200192915050565b602081525f611e066020830184612059565b6001600160a01b038116811461124e575f80fd5b5f80604083850312156120bb575f80fd5b82356120c681612096565b946020939093013593505050565b5f602082840312156120e4575f80fd5b5035919050565b5f805f606084860312156120fd575f80fd5b833561210881612096565b9250602084013561211881612096565b929592945050506040919091013590565b5f60408284031215612139575f80fd5b50919050565b5f6020828403121561214f575f80fd5b813567ffffffffffffffff811115612165575f80fd5b611e3784828501612129565b602080825282518282018190525f919060409081850190868401855b828110156121bb57815180516001600160a01b0316855286015186850152928401929085019060010161218d565b5091979650505050505050565b5f602082840312156121d8575f80fd5b8135611e0681612096565b5f8083601f8401126121f3575f80fd5b50813567ffffffffffffffff81111561220a575f80fd5b6020830191508360208260051b8501011115612224575f80fd5b9250929050565b803561ffff8116811461223c575f80fd5b919050565b5f805f805f8060808789031215612256575f80fd5b863567ffffffffffffffff8082111561226d575f80fd5b6122798a838b016121e3565b90985096506020890135915080821115612291575f80fd5b5061229e89828a016121e3565b90955093506122b190506040880161222b565b91506122bf6060880161222b565b90509295509295509295565b80356002811061223c575f80fd5b634e487b7160e01b5f52604160045260245ffd5b604051601f8201601f1916810167ffffffffffffffff81118282101715612316576123166122d9565b604052919050565b5f805f805f60a08688031215612332575f80fd5b853561233d81612096565b94506020868101359450612353604088016122cb565b9350606087013561236381612096565b9250608087013567ffffffffffffffff8082111561237f575f80fd5b818901915089601f830112612392575f80fd5b8135818111156123a4576123a46122d9565b6123b6601f8201601f191685016122ed565b91508082528a848285010111156123cb575f80fd5b80848401858401375f848284010152508093505050509295509295909350565b5f80604083850312156123fc575f80fd5b82359150602083013567ffffffffffffffff811115612419575f80fd5b61242585828601612129565b9150509250929050565b5f8060408385031215612440575f80fd5b823561244b81612096565b9150602083013561245b81612096565b809150509250929050565b600181811c9082168061247a57607f821691505b60208210810361213957634e487b7160e01b5f52602260045260245ffd5b634e487b7160e01b5f52601160045260245ffd5b808202811582820484141761069a5761069a612498565b5f826124dd57634e487b7160e01b5f52601260045260245ffd5b500490565b8181038181111561069a5761069a612498565b8082018082111561069a5761069a612498565b5f60208284031215612518575f80fd5b8151611e0681612096565b634e487b7160e01b5f52603260045260245ffd5b5f808335601e1984360301811261254c575f80fd5b83018035915067ffffffffffffffff821115612566575f80fd5b6020019150600581901b3603821315612224575f80fd5b5f8235603e19833603018112612591575f80fd5b9190910192915050565b5f602082840312156125ab575f80fd5b611e06826122cb565b5f808335601e198436030181126125c9575f80fd5b83018035915067ffffffffffffffff8211156125e3575f80fd5b602001915036819003821315612224575f80fd5b634e487b7160e01b5f52602160045260245ffd5b6001600160a01b038781168252602082018790525f906002871061263d57634e487b7160e01b5f52602160045260245ffd5b86604084015280861660608401525060a060808301528260a0830152828460c08401375f60c0848401015260c0601f19601f8501168301019050979650505050505050565b5f60208284031215612692575f80fd5b5051919050565b5f600182016126aa576126aa612498565b5060010190565b5f602082840312156126c1575f80fd5b81518015158114611e06575f80fd5b604080825281018490525f8560608301825b878110156127125782356126f581612096565b6001600160a01b03168252602092830192909101906001016126e2565b5083810360208501528481526001600160fb1b03851115612731575f80fd5b8460051b915081866020830137016020019695505050505050565b5f8251612591818460208701612037565b5f67ffffffffffffffff821115612776576127766122d9565b5060051b60200190565b5f6020808385031215612791575f80fd5b825167ffffffffffffffff8111156127a7575f80fd5b8301601f810185136127b7575f80fd5b80516127ca6127c58261275d565b6122ed565b81815260059190911b820183019083810190878311156127e8575f80fd5b928401925b8284101561280f57835161280081612096565b825292840192908401906127ed565b979650505050505050565b5f8151808452602080850194508084015f5b838110156128515781516001600160a01b03168752958201959082019060010161282c565b509495945050505050565b828152604060208201525f611e37604083018461281a565b5f6020808385031215612885575f80fd5b825167ffffffffffffffff81111561289b575f80fd5b8301601f810185136128ab575f80fd5b80516128b96127c58261275d565b81815260059190911b820183019083810190878311156128d7575f80fd5b928401925b8284101561280f578351825292840192908401906128dc565b85815284602082015260a060408201525f61291360a083018661281a565b6001600160a01b0394909416606083015250608001529392505050565b604081525f6129426040830185612059565b90508260208301529392505050565b602081525f825160a0602084015261296c60c0840182612059565b905060018060a01b0360208501511660408401526040840151606084015260608401516080840152608084015160a0840152809150509291505056fea2646970667358221220d6d7485f83b53609723c5a9db24feb3fa34dc943e63dd8000c17476212d97be364736f6c63430008140033",
			"opcodes": "PUSH1 0x80 PUSH1 0x40 MSTORE PUSH1 0xF DUP1 SLOAD PUSH1 0xFF PUSH1 0x20 SHL NOT AND SWAP1 SSTORE CALLVALUE DUP1 ISZERO PUSH3 0x1D JUMPI PUSH0 DUP1 REVERT JUMPDEST POP PUSH1 0x40 MLOAD PUSH3 0x2E00 CODESIZE SUB DUP1 PUSH3 0x2E00 DUP4 CODECOPY DUP2 ADD PUSH1 0x40 DUP2 SWAP1 MSTORE PUSH3 0x40 SWAP2 PUSH3 0x224 JUMP JUMPDEST DUP3 DUP3 DUP3 DUP8 DUP8 CALLER DUP1 PUSH3 0x6B JUMPI PUSH1 0x40 MLOAD PUSH4 0x1E4FBDF7 PUSH1 0xE0 SHL DUP2 MSTORE PUSH0 PUSH1 0x4 DUP3 ADD MSTORE PUSH1 0x24 ADD PUSH1 0x40 MLOAD DUP1 SWAP2 SUB SWAP1 REVERT JUMPDEST PUSH3 0x76 DUP2 PUSH3 0xFB JUMP JUMPDEST POP PUSH1 0x4 PUSH3 0x85 DUP4 DUP3 PUSH3 0x34C JUMP JUMPDEST POP PUSH1 0x5 PUSH3 0x94 DUP3 DUP3 PUSH3 0x34C JUMP JUMPDEST POP POP PUSH1 0xA DUP1 SLOAD PUSH1 0x1 PUSH1 0x1 PUSH1 0xA0 SHL SUB NOT SWAP1 DUP2 AND PUSH1 0x1 PUSH1 0x1 PUSH1 0xA0 SHL SUB SWAP7 DUP8 AND OR SWAP1 SWAP2 SSTORE PUSH1 0xB DUP1 SLOAD DUP3 AND SWAP5 DUP7 AND SWAP5 SWAP1 SWAP5 OR SWAP1 SWAP4 SSTORE POP PUSH1 0xC DUP1 SLOAD DUP4 AND SWAP2 SWAP1 SWAP4 AND OR SWAP1 SWAP2 SSTORE PUSH2 0x3E8 PUSH1 0x7 SSTORE PUSH1 0x11 DUP1 SLOAD CALLER SWAP1 DUP4 AND OR SWAP1 SSTORE PUSH1 0x8 DUP1 SLOAD SWAP1 SWAP2 AND ADDRESS OR SWAP1 SSTORE POP POP POP POP POP PUSH3 0x414 JUMP JUMPDEST PUSH0 DUP1 SLOAD PUSH1 0x1 PUSH1 0x1 PUSH1 0xA0 SHL SUB DUP4 DUP2 AND PUSH1 0x1 PUSH1 0x1 PUSH1 0xA0 SHL SUB NOT DUP4 AND DUP2 OR DUP5 SSTORE PUSH1 0x40 MLOAD SWAP2 SWAP1 SWAP3 AND SWAP3 DUP4 SWAP2 PUSH32 0x8BE0079C531659141344CD1FD0A4F28419497F9722A3DAAFE3B4186F6B6457E0 SWAP2 SWAP1 LOG3 POP POP JUMP JUMPDEST PUSH4 0x4E487B71 PUSH1 0xE0 SHL PUSH0 MSTORE PUSH1 0x41 PUSH1 0x4 MSTORE PUSH1 0x24 PUSH0 REVERT JUMPDEST PUSH0 DUP3 PUSH1 0x1F DUP4 ADD SLT PUSH3 0x16E JUMPI PUSH0 DUP1 REVERT JUMPDEST DUP2 MLOAD PUSH1 0x1 PUSH1 0x1 PUSH1 0x40 SHL SUB DUP1 DUP3 GT ISZERO PUSH3 0x18B JUMPI PUSH3 0x18B PUSH3 0x14A JUMP JUMPDEST PUSH1 0x40 MLOAD PUSH1 0x1F DUP4 ADD PUSH1 0x1F NOT SWAP1 DUP2 AND PUSH1 0x3F ADD AND DUP2 ADD SWAP1 DUP3 DUP3 GT DUP2 DUP4 LT OR ISZERO PUSH3 0x1B6 JUMPI PUSH3 0x1B6 PUSH3 0x14A JUMP JUMPDEST DUP2 PUSH1 0x40 MSTORE DUP4 DUP2 MSTORE PUSH1 0x20 SWAP3 POP DUP7 DUP4 DUP6 DUP9 ADD ADD GT ISZERO PUSH3 0x1D2 JUMPI PUSH0 DUP1 REVERT JUMPDEST PUSH0 SWAP2 POP JUMPDEST DUP4 DUP3 LT ISZERO PUSH3 0x1F5 JUMPI DUP6 DUP3 ADD DUP4 ADD MLOAD DUP2 DUP4 ADD DUP5 ADD MSTORE SWAP1 DUP3 ADD SWAP1 PUSH3 0x1D6 JUMP JUMPDEST PUSH0 SWAP4 DUP2 ADD SWAP1 SWAP3 ADD SWAP3 SWAP1 SWAP3 MSTORE SWAP5 SWAP4 POP POP POP POP JUMP JUMPDEST DUP1 MLOAD PUSH1 0x1 PUSH1 0x1 PUSH1 0xA0 SHL SUB DUP2 AND DUP2 EQ PUSH3 0x21F JUMPI PUSH0 DUP1 REVERT JUMPDEST SWAP2 SWAP1 POP JUMP JUMPDEST PUSH0 DUP1 PUSH0 DUP1 PUSH0 PUSH1 0xA0 DUP7 DUP9 SUB SLT ISZERO PUSH3 0x239 JUMPI PUSH0 DUP1 REVERT JUMPDEST DUP6 MLOAD PUSH1 0x1 PUSH1 0x1 PUSH1 0x40 SHL SUB DUP1 DUP3 GT ISZERO PUSH3 0x250 JUMPI PUSH0 DUP1 REVERT JUMPDEST PUSH3 0x25E DUP10 DUP4 DUP11 ADD PUSH3 0x15E JUMP JUMPDEST SWAP7 POP PUSH1 0x20 DUP9 ADD MLOAD SWAP2 POP DUP1 DUP3 GT ISZERO PUSH3 0x274 JUMPI PUSH0 DUP1 REVERT JUMPDEST POP PUSH3 0x283 DUP9 DUP3 DUP10 ADD PUSH3 0x15E JUMP JUMPDEST SWAP5 POP POP PUSH3 0x294 PUSH1 0x40 DUP8 ADD PUSH3 0x208 JUMP JUMPDEST SWAP3 POP PUSH3 0x2A4 PUSH1 0x60 DUP8 ADD PUSH3 0x208 JUMP JUMPDEST SWAP2 POP PUSH3 0x2B4 PUSH1 0x80 DUP8 ADD PUSH3 0x208 JUMP JUMPDEST SWAP1 POP SWAP3 SWAP6 POP SWAP3 SWAP6 SWAP1 SWAP4 POP JUMP JUMPDEST PUSH1 0x1 DUP2 DUP2 SHR SWAP1 DUP3 AND DUP1 PUSH3 0x2D5 JUMPI PUSH1 0x7F DUP3 AND SWAP2 POP JUMPDEST PUSH1 0x20 DUP3 LT DUP2 SUB PUSH3 0x2F4 JUMPI PUSH4 0x4E487B71 PUSH1 0xE0 SHL PUSH0 MSTORE PUSH1 0x22 PUSH1 0x4 MSTORE PUSH1 0x24 PUSH0 REVERT JUMPDEST POP SWAP2 SWAP1 POP JUMP JUMPDEST PUSH1 0x1F DUP3 GT ISZERO PUSH3 0x347 JUMPI PUSH0 DUP2 DUP2 MSTORE PUSH1 0x20 DUP2 KECCAK256 PUSH1 0x1F DUP6 ADD PUSH1 0x5 SHR DUP2 ADD PUSH1 0x20 DUP7 LT ISZERO PUSH3 0x322 JUMPI POP DUP1 JUMPDEST PUSH1 0x1F DUP6 ADD PUSH1 0x5 SHR DUP3 ADD SWAP2 POP JUMPDEST DUP2 DUP2 LT ISZERO PUSH3 0x343 JUMPI DUP3 DUP2 SSTORE PUSH1 0x1 ADD PUSH3 0x32E JUMP JUMPDEST POP POP POP JUMPDEST POP POP POP JUMP JUMPDEST DUP2 MLOAD PUSH1 0x1 PUSH1 0x1 PUSH1 0x40 SHL SUB DUP2 GT ISZERO PUSH3 0x368 JUMPI PUSH3 0x368 PUSH3 0x14A JUMP JUMPDEST PUSH3 0x380 DUP2 PUSH3 0x379 DUP5 SLOAD PUSH3 0x2C0 JUMP JUMPDEST DUP5 PUSH3 0x2FA JUMP JUMPDEST PUSH1 0x20 DUP1 PUSH1 0x1F DUP4 GT PUSH1 0x1 DUP2 EQ PUSH3 0x3B6 JUMPI PUSH0 DUP5 ISZERO PUSH3 0x39E JUMPI POP DUP6 DUP4 ADD MLOAD JUMPDEST PUSH0 NOT PUSH1 0x3 DUP7 SWAP1 SHL SHR NOT AND PUSH1 0x1 DUP6 SWAP1 SHL OR DUP6 SSTORE PUSH3 0x343 JUMP JUMPDEST PUSH0 DUP6 DUP2 MSTORE PUSH1 0x20 DUP2 KECCAK256 PUSH1 0x1F NOT DUP7 AND SWAP2 JUMPDEST DUP3 DUP2 LT ISZERO PUSH3 0x3E6 JUMPI DUP9 DUP7 ADD MLOAD DUP3 SSTORE SWAP5 DUP5 ADD SWAP5 PUSH1 0x1 SWAP1 SWAP2 ADD SWAP1 DUP5 ADD PUSH3 0x3C5 JUMP JUMPDEST POP DUP6 DUP3 LT ISZERO PUSH3 0x404 JUMPI DUP8 DUP6 ADD MLOAD PUSH0 NOT PUSH1 0x3 DUP9 SWAP1 SHL PUSH1 0xF8 AND SHR NOT AND DUP2 SSTORE JUMPDEST POP POP POP POP POP PUSH1 0x1 SWAP1 DUP2 SHL ADD SWAP1 SSTORE POP JUMP JUMPDEST PUSH2 0x29DE DUP1 PUSH3 0x422 PUSH0 CODECOPY PUSH0 RETURN INVALID PUSH1 0x80 PUSH1 0x40 MSTORE PUSH1 0x4 CALLDATASIZE LT PUSH2 0x1C5 JUMPI PUSH0 CALLDATALOAD PUSH1 0xE0 SHR DUP1 PUSH4 0x67A52793 GT PUSH2 0xF2 JUMPI DUP1 PUSH4 0x95D89B41 GT PUSH2 0x92 JUMPI DUP1 PUSH4 0xD03153AA GT PUSH2 0x62 JUMPI DUP1 PUSH4 0xD03153AA EQ PUSH2 0x560 JUMPI DUP1 PUSH4 0xD9A5663B EQ PUSH2 0x575 JUMPI DUP1 PUSH4 0xDD62ED3E EQ PUSH2 0x594 JUMPI DUP1 PUSH4 0xF2FDE38B EQ PUSH2 0x5D8 JUMPI PUSH0 DUP1 REVERT JUMPDEST DUP1 PUSH4 0x95D89B41 EQ PUSH2 0x4E3 JUMPI DUP1 PUSH4 0xA738C7DF EQ PUSH2 0x4F7 JUMPI DUP1 PUSH4 0xA9059CBB EQ PUSH2 0x516 JUMPI DUP1 PUSH4 0xC38CD0B5 EQ PUSH2 0x535 JUMPI PUSH0 DUP1 REVERT JUMPDEST DUP1 PUSH4 0x74A66061 GT PUSH2 0xCD JUMPI DUP1 PUSH4 0x74A66061 EQ PUSH2 0x46D JUMPI DUP1 PUSH4 0x81A06B73 EQ PUSH2 0x48C JUMPI DUP1 PUSH4 0x8BC7E8C4 EQ PUSH2 0x4AD JUMPI DUP1 PUSH4 0x8DA5CB5B EQ PUSH2 0x4C7 JUMPI PUSH0 DUP1 REVERT JUMPDEST DUP1 PUSH4 0x67A52793 EQ PUSH2 0x3F2 JUMPI DUP1 PUSH4 0x70A08231 EQ PUSH2 0x425 JUMPI DUP1 PUSH4 0x715018A6 EQ PUSH2 0x459 JUMPI PUSH0 DUP1 REVERT JUMPDEST DUP1 PUSH4 0x2A5C792A GT PUSH2 0x168 JUMPI DUP1 PUSH4 0x36A43F2B GT PUSH2 0x138 JUMPI DUP1 PUSH4 0x36A43F2B EQ PUSH2 0x344 JUMPI DUP1 PUSH4 0x378A653C EQ PUSH2 0x36F JUMPI DUP1 PUSH4 0x3F595E29 EQ PUSH2 0x3B4 JUMPI DUP1 PUSH4 0x4D20D0F8 EQ PUSH2 0x3D3 JUMPI PUSH0 DUP1 REVERT JUMPDEST DUP1 PUSH4 0x2A5C792A EQ PUSH2 0x2CA JUMPI DUP1 PUSH4 0x2C76D7A6 EQ PUSH2 0x2EB JUMPI DUP1 PUSH4 0x3043D4D9 EQ PUSH2 0x30A JUMPI DUP1 PUSH4 0x313CE567 EQ PUSH2 0x329 JUMPI PUSH0 DUP1 REVERT JUMPDEST DUP1 PUSH4 0x1694505E GT PUSH2 0x1A3 JUMPI DUP1 PUSH4 0x1694505E EQ PUSH2 0x243 JUMPI DUP1 PUSH4 0x18160DDD EQ PUSH2 0x27A JUMPI DUP1 PUSH4 0x23B872DD EQ PUSH2 0x298 JUMPI DUP1 PUSH4 0x27E3F5B9 EQ PUSH2 0x2B7 JUMPI PUSH0 DUP1 REVERT JUMPDEST DUP1 PUSH4 0x6FDDE03 EQ PUSH2 0x1C9 JUMPI DUP1 PUSH4 0x95EA7B3 EQ PUSH2 0x1F3 JUMPI DUP1 PUSH4 0x117DA1EE EQ PUSH2 0x222 JUMPI JUMPDEST PUSH0 DUP1 REVERT JUMPDEST CALLVALUE DUP1 ISZERO PUSH2 0x1D4 JUMPI PUSH0 DUP1 REVERT JUMPDEST POP PUSH2 0x1DD PUSH2 0x5F7 JUMP JUMPDEST PUSH1 0x40 MLOAD PUSH2 0x1EA SWAP2 SWAP1 PUSH2 0x2084 JUMP JUMPDEST PUSH1 0x40 MLOAD DUP1 SWAP2 SUB SWAP1 RETURN JUMPDEST CALLVALUE DUP1 ISZERO PUSH2 0x1FE JUMPI PUSH0 DUP1 REVERT JUMPDEST POP PUSH2 0x212 PUSH2 0x20D CALLDATASIZE PUSH1 0x4 PUSH2 0x20AA JUMP JUMPDEST PUSH2 0x687 JUMP JUMPDEST PUSH1 0x40 MLOAD SWAP1 ISZERO ISZERO DUP2 MSTORE PUSH1 0x20 ADD PUSH2 0x1EA JUMP JUMPDEST CALLVALUE DUP1 ISZERO PUSH2 0x22D JUMPI PUSH0 DUP1 REVERT JUMPDEST POP PUSH2 0x241 PUSH2 0x23C CALLDATASIZE PUSH1 0x4 PUSH2 0x20D4 JUMP JUMPDEST PUSH2 0x6A0 JUMP JUMPDEST STOP JUMPDEST CALLVALUE DUP1 ISZERO PUSH2 0x24E JUMPI PUSH0 DUP1 REVERT JUMPDEST POP PUSH1 0xA SLOAD PUSH2 0x262 SWAP1 PUSH1 0x1 PUSH1 0x1 PUSH1 0xA0 SHL SUB AND DUP2 JUMP JUMPDEST PUSH1 0x40 MLOAD PUSH1 0x1 PUSH1 0x1 PUSH1 0xA0 SHL SUB SWAP1 SWAP2 AND DUP2 MSTORE PUSH1 0x20 ADD PUSH2 0x1EA JUMP JUMPDEST CALLVALUE DUP1 ISZERO PUSH2 0x285 JUMPI PUSH0 DUP1 REVERT JUMPDEST POP PUSH1 0x3 SLOAD JUMPDEST PUSH1 0x40 MLOAD SWAP1 DUP2 MSTORE PUSH1 0x20 ADD PUSH2 0x1EA JUMP JUMPDEST CALLVALUE DUP1 ISZERO PUSH2 0x2A3 JUMPI PUSH0 DUP1 REVERT JUMPDEST POP PUSH2 0x212 PUSH2 0x2B2 CALLDATASIZE PUSH1 0x4 PUSH2 0x20EB JUMP JUMPDEST PUSH2 0x6E9 JUMP JUMPDEST PUSH2 0x241 PUSH2 0x2C5 CALLDATASIZE PUSH1 0x4 PUSH2 0x213F JUMP JUMPDEST PUSH2 0x70C JUMP JUMPDEST CALLVALUE DUP1 ISZERO PUSH2 0x2D5 JUMPI PUSH0 DUP1 REVERT JUMPDEST POP PUSH2 0x2DE PUSH2 0xB85 JUMP JUMPDEST PUSH1 0x40 MLOAD PUSH2 0x1EA SWAP2 SWAP1 PUSH2 0x2171 JUMP JUMPDEST CALLVALUE DUP1 ISZERO PUSH2 0x2F6 JUMPI PUSH0 DUP1 REVERT JUMPDEST POP PUSH1 0xB SLOAD PUSH2 0x262 SWAP1 PUSH1 0x1 PUSH1 0x1 PUSH1 0xA0 SHL SUB AND DUP2 JUMP JUMPDEST CALLVALUE DUP1 ISZERO PUSH2 0x315 JUMPI PUSH0 DUP1 REVERT JUMPDEST POP PUSH2 0x241 PUSH2 0x324 CALLDATASIZE PUSH1 0x4 PUSH2 0x20D4 JUMP JUMPDEST PUSH2 0xBF8 JUMP JUMPDEST CALLVALUE DUP1 ISZERO PUSH2 0x334 JUMPI PUSH0 DUP1 REVERT JUMPDEST POP PUSH1 0x40 MLOAD PUSH1 0x12 DUP2 MSTORE PUSH1 0x20 ADD PUSH2 0x1EA JUMP JUMPDEST CALLVALUE DUP1 ISZERO PUSH2 0x34F JUMPI PUSH0 DUP1 REVERT JUMPDEST POP PUSH2 0x28A PUSH2 0x35E CALLDATASIZE PUSH1 0x4 PUSH2 0x21C8 JUMP JUMPDEST PUSH1 0x9 PUSH1 0x20 MSTORE PUSH0 SWAP1 DUP2 MSTORE PUSH1 0x40 SWAP1 KECCAK256 SLOAD DUP2 JUMP JUMPDEST CALLVALUE DUP1 ISZERO PUSH2 0x37A JUMPI PUSH0 DUP1 REVERT JUMPDEST POP PUSH2 0x38E PUSH2 0x389 CALLDATASIZE PUSH1 0x4 PUSH2 0x20D4 JUMP JUMPDEST PUSH2 0xDEA JUMP JUMPDEST PUSH1 0x40 DUP1 MLOAD PUSH1 0x1 PUSH1 0x1 PUSH1 0xA0 SHL SUB SWAP5 DUP6 AND DUP2 MSTORE SWAP4 SWAP1 SWAP3 AND PUSH1 0x20 DUP5 ADD MSTORE SWAP1 DUP3 ADD MSTORE PUSH1 0x60 ADD PUSH2 0x1EA JUMP JUMPDEST CALLVALUE DUP1 ISZERO PUSH2 0x3BF JUMPI PUSH0 DUP1 REVERT JUMPDEST POP PUSH2 0x241 PUSH2 0x3CE CALLDATASIZE PUSH1 0x4 PUSH2 0x2241 JUMP JUMPDEST PUSH2 0xE28 JUMP JUMPDEST CALLVALUE DUP1 ISZERO PUSH2 0x3DE JUMPI PUSH0 DUP1 REVERT JUMPDEST POP PUSH1 0xC SLOAD PUSH2 0x262 SWAP1 PUSH1 0x1 PUSH1 0x1 PUSH1 0xA0 SHL SUB AND DUP2 JUMP JUMPDEST CALLVALUE DUP1 ISZERO PUSH2 0x3FD JUMPI PUSH0 DUP1 REVERT JUMPDEST POP PUSH1 0xF SLOAD PUSH2 0x412 SWAP1 PUSH3 0x10000 SWAP1 DIV PUSH2 0xFFFF AND DUP2 JUMP JUMPDEST PUSH1 0x40 MLOAD PUSH2 0xFFFF SWAP1 SWAP2 AND DUP2 MSTORE PUSH1 0x20 ADD PUSH2 0x1EA JUMP JUMPDEST CALLVALUE DUP1 ISZERO PUSH2 0x430 JUMPI PUSH0 DUP1 REVERT JUMPDEST POP PUSH2 0x28A PUSH2 0x43F CALLDATASIZE PUSH1 0x4 PUSH2 0x21C8 JUMP JUMPDEST PUSH1 0x1 PUSH1 0x1 PUSH1 0xA0 SHL SUB AND PUSH0 SWAP1 DUP2 MSTORE PUSH1 0x1 PUSH1 0x20 MSTORE PUSH1 0x40 SWAP1 KECCAK256 SLOAD SWAP1 JUMP JUMPDEST CALLVALUE DUP1 ISZERO PUSH2 0x464 JUMPI PUSH0 DUP1 REVERT JUMPDEST POP PUSH2 0x241 PUSH2 0x10B5 JUMP JUMPDEST CALLVALUE DUP1 ISZERO PUSH2 0x478 JUMPI PUSH0 DUP1 REVERT JUMPDEST POP PUSH2 0x28A PUSH2 0x487 CALLDATASIZE PUSH1 0x4 PUSH2 0x231E JUMP JUMPDEST PUSH2 0x10C8 JUMP JUMPDEST CALLVALUE DUP1 ISZERO PUSH2 0x497 JUMPI PUSH0 DUP1 REVERT JUMPDEST POP PUSH1 0xF SLOAD PUSH2 0x212 SWAP1 PUSH5 0x100000000 SWAP1 DIV PUSH1 0xFF AND DUP2 JUMP JUMPDEST CALLVALUE DUP1 ISZERO PUSH2 0x4B8 JUMPI PUSH0 DUP1 REVERT JUMPDEST POP PUSH1 0xF SLOAD PUSH2 0x412 SWAP1 PUSH2 0xFFFF AND DUP2 JUMP JUMPDEST CALLVALUE DUP1 ISZERO PUSH2 0x4D2 JUMPI PUSH0 DUP1 REVERT JUMPDEST POP PUSH0 SLOAD PUSH1 0x1 PUSH1 0x1 PUSH1 0xA0 SHL SUB AND PUSH2 0x262 JUMP JUMPDEST CALLVALUE DUP1 ISZERO PUSH2 0x4EE JUMPI PUSH0 DUP1 REVERT JUMPDEST POP PUSH2 0x1DD PUSH2 0x1199 JUMP JUMPDEST CALLVALUE DUP1 ISZERO PUSH2 0x502 JUMPI PUSH0 DUP1 REVERT JUMPDEST POP PUSH2 0x241 PUSH2 0x511 CALLDATASIZE PUSH1 0x4 PUSH2 0x21C8 JUMP JUMPDEST PUSH2 0x11A8 JUMP JUMPDEST CALLVALUE DUP1 ISZERO PUSH2 0x521 JUMPI PUSH0 DUP1 REVERT JUMPDEST POP PUSH2 0x212 PUSH2 0x530 CALLDATASIZE PUSH1 0x4 PUSH2 0x20AA JUMP JUMPDEST PUSH2 0x1251 JUMP JUMPDEST CALLVALUE DUP1 ISZERO PUSH2 0x540 JUMPI PUSH0 DUP1 REVERT JUMPDEST POP PUSH2 0x28A PUSH2 0x54F CALLDATASIZE PUSH1 0x4 PUSH2 0x21C8 JUMP JUMPDEST PUSH1 0x10 PUSH1 0x20 MSTORE PUSH0 SWAP1 DUP2 MSTORE PUSH1 0x40 SWAP1 KECCAK256 SLOAD DUP2 JUMP JUMPDEST CALLVALUE DUP1 ISZERO PUSH2 0x56B JUMPI PUSH0 DUP1 REVERT JUMPDEST POP PUSH2 0x28A PUSH1 0x7 SLOAD DUP2 JUMP JUMPDEST CALLVALUE DUP1 ISZERO PUSH2 0x580 JUMPI PUSH0 DUP1 REVERT JUMPDEST POP PUSH2 0x241 PUSH2 0x58F CALLDATASIZE PUSH1 0x4 PUSH2 0x23EB JUMP JUMPDEST PUSH2 0x125E JUMP JUMPDEST CALLVALUE DUP1 ISZERO PUSH2 0x59F JUMPI PUSH0 DUP1 REVERT JUMPDEST POP PUSH2 0x28A PUSH2 0x5AE CALLDATASIZE PUSH1 0x4 PUSH2 0x242F JUMP JUMPDEST PUSH1 0x1 PUSH1 0x1 PUSH1 0xA0 SHL SUB SWAP2 DUP3 AND PUSH0 SWAP1 DUP2 MSTORE PUSH1 0x2 PUSH1 0x20 SWAP1 DUP2 MSTORE PUSH1 0x40 DUP1 DUP4 KECCAK256 SWAP4 SWAP1 SWAP5 AND DUP3 MSTORE SWAP2 SWAP1 SWAP2 MSTORE KECCAK256 SLOAD SWAP1 JUMP JUMPDEST CALLVALUE DUP1 ISZERO PUSH2 0x5E3 JUMPI PUSH0 DUP1 REVERT JUMPDEST POP PUSH2 0x241 PUSH2 0x5F2 CALLDATASIZE PUSH1 0x4 PUSH2 0x21C8 JUMP JUMPDEST PUSH2 0x164B JUMP JUMPDEST PUSH1 0x60 PUSH1 0x4 DUP1 SLOAD PUSH2 0x606 SWAP1 PUSH2 0x2466 JUMP JUMPDEST DUP1 PUSH1 0x1F ADD PUSH1 0x20 DUP1 SWAP2 DIV MUL PUSH1 0x20 ADD PUSH1 0x40 MLOAD SWAP1 DUP2 ADD PUSH1 0x40 MSTORE DUP1 SWAP3 SWAP2 SWAP1 DUP2 DUP2 MSTORE PUSH1 0x20 ADD DUP3 DUP1 SLOAD PUSH2 0x632 SWAP1 PUSH2 0x2466 JUMP JUMPDEST DUP1 ISZERO PUSH2 0x67D JUMPI DUP1 PUSH1 0x1F LT PUSH2 0x654 JUMPI PUSH2 0x100 DUP1 DUP4 SLOAD DIV MUL DUP4 MSTORE SWAP2 PUSH1 0x20 ADD SWAP2 PUSH2 0x67D JUMP JUMPDEST DUP3 ADD SWAP2 SWAP1 PUSH0 MSTORE PUSH1 0x20 PUSH0 KECCAK256 SWAP1 JUMPDEST DUP2 SLOAD DUP2 MSTORE SWAP1 PUSH1 0x1 ADD SWAP1 PUSH1 0x20 ADD DUP1 DUP4 GT PUSH2 0x660 JUMPI DUP3 SWAP1 SUB PUSH1 0x1F AND DUP3 ADD SWAP2 JUMPDEST POP POP POP POP POP SWAP1 POP SWAP1 JUMP JUMPDEST PUSH0 CALLER PUSH2 0x694 DUP2 DUP6 DUP6 PUSH2 0x1685 JUMP JUMPDEST PUSH1 0x1 SWAP2 POP POP JUMPDEST SWAP3 SWAP2 POP POP JUMP JUMPDEST PUSH2 0x2710 DUP2 GT ISZERO PUSH2 0x6E4 JUMPI PUSH1 0x40 MLOAD PUSH3 0x461BCD PUSH1 0xE5 SHL DUP2 MSTORE PUSH1 0x4 ADD PUSH2 0x6DB SWAP1 PUSH1 0x20 DUP1 DUP3 MSTORE PUSH1 0x4 SWAP1 DUP3 ADD MSTORE PUSH4 0x21534C5 PUSH1 0xE4 SHL PUSH1 0x40 DUP3 ADD MSTORE PUSH1 0x60 ADD SWAP1 JUMP JUMPDEST PUSH1 0x40 MLOAD DUP1 SWAP2 SUB SWAP1 REVERT JUMPDEST PUSH1 0x7 SSTORE JUMP JUMPDEST PUSH0 CALLER PUSH2 0x6F6 DUP6 DUP3 DUP6 PUSH2 0x1692 JUMP JUMPDEST PUSH2 0x701 DUP6 DUP6 DUP6 PUSH2 0x1707 JUMP JUMPDEST POP PUSH1 0x1 SWAP5 SWAP4 POP POP POP POP JUMP JUMPDEST PUSH0 DUP2 PUSH1 0x20 ADD CALLDATALOAD GT PUSH2 0x745 JUMPI PUSH1 0x40 MLOAD PUSH3 0x461BCD PUSH1 0xE5 SHL DUP2 MSTORE PUSH1 0x20 PUSH1 0x4 DUP3 ADD MSTORE PUSH1 0x3 PUSH1 0x24 DUP3 ADD MSTORE PUSH3 0x213E3 PUSH1 0xEC SHL PUSH1 0x44 DUP3 ADD MSTORE PUSH1 0x64 ADD PUSH2 0x6DB JUMP JUMPDEST PUSH1 0xF SLOAD PUSH0 SWAP1 PUSH2 0x2710 SWAP1 PUSH2 0x766 SWAP1 PUSH3 0x10000 SWAP1 DIV PUSH2 0xFFFF AND PUSH1 0x20 DUP6 ADD CALLDATALOAD PUSH2 0x24AC JUMP JUMPDEST PUSH2 0x770 SWAP2 SWAP1 PUSH2 0x24C3 JUMP JUMPDEST SWAP1 POP PUSH0 PUSH2 0x781 DUP3 PUSH1 0x20 DUP6 ADD CALLDATALOAD PUSH2 0x24E2 JUMP JUMPDEST SWAP1 POP DUP2 PUSH1 0xE PUSH0 DUP3 DUP3 SLOAD PUSH2 0x794 SWAP2 SWAP1 PUSH2 0x24F5 JUMP JUMPDEST SWAP1 SWAP2 SSTORE POP POP DUP1 PUSH2 0x7CC JUMPI PUSH1 0x40 MLOAD PUSH3 0x461BCD PUSH1 0xE5 SHL DUP2 MSTORE PUSH1 0x20 PUSH1 0x4 DUP3 ADD MSTORE PUSH1 0x3 PUSH1 0x24 DUP3 ADD MSTORE PUSH3 0x213E3 PUSH1 0xEC SHL PUSH1 0x44 DUP3 ADD MSTORE PUSH1 0x64 ADD PUSH2 0x6DB JUMP JUMPDEST PUSH1 0xA SLOAD PUSH1 0x40 DUP1 MLOAD PUSH4 0x15AB88C9 PUSH1 0xE3 SHL DUP2 MSTORE SWAP1 MLOAD PUSH2 0x845 SWAP3 PUSH1 0x1 PUSH1 0x1 PUSH1 0xA0 SHL SUB AND SWAP2 PUSH4 0xAD5C4648 SWAP2 PUSH1 0x4 DUP1 DUP4 ADD SWAP3 PUSH1 0x20 SWAP3 SWAP2 SWAP1 DUP3 SWAP1 SUB ADD DUP2 DUP7 GAS STATICCALL ISZERO DUP1 ISZERO PUSH2 0x815 JUMPI RETURNDATASIZE PUSH0 DUP1 RETURNDATACOPY RETURNDATASIZE PUSH0 REVERT JUMPDEST POP POP POP POP PUSH1 0x40 MLOAD RETURNDATASIZE PUSH1 0x1F NOT PUSH1 0x1F DUP3 ADD AND DUP3 ADD DUP1 PUSH1 0x40 MSTORE POP DUP2 ADD SWAP1 PUSH2 0x839 SWAP2 SWAP1 PUSH2 0x2508 JUMP JUMPDEST CALLER ADDRESS DUP7 PUSH1 0x20 ADD CALLDATALOAD PUSH2 0x1764 JUMP JUMPDEST PUSH1 0xA SLOAD PUSH1 0x40 DUP1 MLOAD PUSH4 0x15AB88C9 PUSH1 0xE3 SHL DUP2 MSTORE SWAP1 MLOAD PUSH2 0x8C8 SWAP3 PUSH1 0x1 PUSH1 0x1 PUSH1 0xA0 SHL SUB AND SWAP2 PUSH4 0xAD5C4648 SWAP2 PUSH1 0x4 DUP1 DUP4 ADD SWAP3 PUSH1 0x20 SWAP3 SWAP2 SWAP1 DUP3 SWAP1 SUB ADD DUP2 DUP7 GAS STATICCALL ISZERO DUP1 ISZERO PUSH2 0x88E JUMPI RETURNDATASIZE PUSH0 DUP1 RETURNDATACOPY RETURNDATASIZE PUSH0 REVERT JUMPDEST POP POP POP POP PUSH1 0x40 MLOAD RETURNDATASIZE PUSH1 0x1F NOT PUSH1 0x1F DUP3 ADD AND DUP3 ADD DUP1 PUSH1 0x40 MSTORE POP DUP2 ADD SWAP1 PUSH2 0x8B2 SWAP2 SWAP1 PUSH2 0x2508 JUMP JUMPDEST PUSH1 0xB SLOAD PUSH1 0x1 PUSH1 0x1 PUSH1 0xA0 SHL SUB AND PUSH1 0x20 DUP7 ADD CALLDATALOAD PUSH2 0x1869 JUMP JUMPDEST PUSH2 0x8D2 CALLER DUP3 PUSH2 0x195D JUMP JUMPDEST PUSH0 JUMPDEST PUSH1 0xD SLOAD DUP2 LT ISZERO PUSH2 0xB7F JUMPI PUSH0 PUSH1 0xD DUP3 DUP2 SLOAD DUP2 LT PUSH2 0x8F2 JUMPI PUSH2 0x8F2 PUSH2 0x2523 JUMP JUMPDEST SWAP1 PUSH0 MSTORE PUSH1 0x20 PUSH0 KECCAK256 SWAP1 PUSH1 0x2 MUL ADD SWAP1 POP PUSH0 PUSH2 0x2710 DUP3 PUSH1 0x1 ADD SLOAD DUP6 PUSH2 0x914 SWAP2 SWAP1 PUSH2 0x24AC JUMP JUMPDEST PUSH2 0x91E SWAP2 SWAP1 PUSH2 0x24C3 JUMP JUMPDEST SWAP1 POP DUP4 DUP2 GT ISZERO PUSH2 0x968 JUMPI PUSH1 0x40 MLOAD PUSH3 0x461BCD PUSH1 0xE5 SHL DUP2 MSTORE PUSH1 0x20 PUSH1 0x4 DUP3 ADD MSTORE PUSH1 0x15 PUSH1 0x24 DUP3 ADD MSTORE PUSH21 0x21657468416D6F756E743C3D616D6F756E74666565 PUSH1 0x58 SHL PUSH1 0x44 DUP3 ADD MSTORE PUSH1 0x64 ADD PUSH2 0x6DB JUMP JUMPDEST DUP1 ISZERO PUSH2 0xB6A JUMPI DUP2 SLOAD ADDRESS SWAP1 PUSH4 0x74A66061 SWAP1 PUSH1 0x1 PUSH1 0x1 PUSH1 0xA0 SHL SUB AND DUP4 PUSH2 0x98C DUP11 DUP1 PUSH2 0x2537 JUMP JUMPDEST DUP9 DUP2 DUP2 LT PUSH2 0x99C JUMPI PUSH2 0x99C PUSH2 0x2523 JUMP JUMPDEST SWAP1 POP PUSH1 0x20 MUL DUP2 ADD SWAP1 PUSH2 0x9AE SWAP2 SWAP1 PUSH2 0x257D JUMP JUMPDEST PUSH2 0x9BF SWAP1 PUSH1 0x40 DUP2 ADD SWAP1 PUSH1 0x20 ADD PUSH2 0x259B JUMP JUMPDEST ADDRESS PUSH2 0x9CA DUP13 DUP1 PUSH2 0x2537 JUMP JUMPDEST DUP11 DUP2 DUP2 LT PUSH2 0x9DA JUMPI PUSH2 0x9DA PUSH2 0x2523 JUMP JUMPDEST SWAP1 POP PUSH1 0x20 MUL DUP2 ADD SWAP1 PUSH2 0x9EC SWAP2 SWAP1 PUSH2 0x257D JUMP JUMPDEST PUSH2 0x9F6 SWAP1 DUP1 PUSH2 0x25B4 JUMP JUMPDEST PUSH1 0x40 MLOAD DUP8 PUSH4 0xFFFFFFFF AND PUSH1 0xE0 SHL DUP2 MSTORE PUSH1 0x4 ADD PUSH2 0xA17 SWAP7 SWAP6 SWAP5 SWAP4 SWAP3 SWAP2 SWAP1 PUSH2 0x260B JUMP JUMPDEST PUSH1 0x20 PUSH1 0x40 MLOAD DUP1 DUP4 SUB DUP2 PUSH0 DUP8 GAS CALL SWAP3 POP POP POP DUP1 ISZERO PUSH2 0xA51 JUMPI POP PUSH1 0x40 DUP1 MLOAD PUSH1 0x1F RETURNDATASIZE SWAP1 DUP2 ADD PUSH1 0x1F NOT AND DUP3 ADD SWAP1 SWAP3 MSTORE PUSH2 0xA4E SWAP2 DUP2 ADD SWAP1 PUSH2 0x2682 JUMP JUMPDEST PUSH1 0x1 JUMPDEST PUSH2 0xB68 JUMPI CALLER PUSH0 SWAP1 DUP2 MSTORE PUSH1 0x10 PUSH1 0x20 MSTORE PUSH1 0x40 DUP2 KECCAK256 DUP1 SLOAD DUP4 SWAP3 SWAP1 PUSH2 0xA73 SWAP1 DUP5 SWAP1 PUSH2 0x24F5 JUMP JUMPDEST SWAP1 SWAP2 SSTORE POP POP PUSH1 0x40 DUP1 MLOAD PUSH1 0x60 DUP2 ADD DUP3 MSTORE CALLER DUP1 DUP3 MSTORE DUP5 SLOAD PUSH1 0x1 PUSH1 0x1 PUSH1 0xA0 SHL SUB SWAP1 DUP2 AND PUSH1 0x20 DUP1 DUP6 ADD SWAP2 DUP3 MSTORE DUP5 DUP7 ADD DUP8 DUP2 MSTORE PUSH1 0x6 DUP1 SLOAD PUSH1 0x1 DUP2 ADD DUP3 SSTORE PUSH0 SWAP2 DUP3 MSTORE SWAP7 MLOAD PUSH1 0x3 SWAP1 SWAP8 MUL PUSH32 0xF652222313E28459528D920B65115C16C04F3EFC82AAEDC97BE59F3F377C0D3F DUP2 ADD DUP1 SLOAD SWAP9 DUP8 AND PUSH1 0x1 PUSH1 0x1 PUSH1 0xA0 SHL SUB NOT SWAP10 DUP11 AND OR SWAP1 SSTORE SWAP4 MLOAD PUSH32 0xF652222313E28459528D920B65115C16C04F3EFC82AAEDC97BE59F3F377C0D40 DUP6 ADD DUP1 SLOAD SWAP2 SWAP1 SWAP7 AND SWAP8 AND SWAP7 SWAP1 SWAP7 OR SWAP1 SWAP4 SSTORE SWAP2 MLOAD PUSH32 0xF652222313E28459528D920B65115C16C04F3EFC82AAEDC97BE59F3F377C0D41 SWAP1 SWAP2 ADD SSTORE SWAP1 DUP3 MSTORE PUSH1 0x9 SWAP1 MSTORE SWAP1 DUP2 KECCAK256 DUP1 SLOAD SWAP2 PUSH2 0xB5E DUP4 PUSH2 0x2699 JUMP JUMPDEST SWAP2 SWAP1 POP SSTORE POP PUSH2 0xB6A JUMP JUMPDEST POP JUMPDEST POP POP DUP1 DUP1 PUSH2 0xB77 SWAP1 PUSH2 0x2699 JUMP JUMPDEST SWAP2 POP POP PUSH2 0x8D4 JUMP JUMPDEST POP POP POP POP JUMP JUMPDEST PUSH1 0x60 PUSH1 0xD DUP1 SLOAD DUP1 PUSH1 0x20 MUL PUSH1 0x20 ADD PUSH1 0x40 MLOAD SWAP1 DUP2 ADD PUSH1 0x40 MSTORE DUP1 SWAP3 SWAP2 SWAP1 DUP2 DUP2 MSTORE PUSH1 0x20 ADD PUSH0 SWAP1 JUMPDEST DUP3 DUP3 LT ISZERO PUSH2 0xBEF JUMPI PUSH0 DUP5 DUP2 MSTORE PUSH1 0x20 SWAP1 DUP2 SWAP1 KECCAK256 PUSH1 0x40 DUP1 MLOAD DUP1 DUP3 ADD SWAP1 SWAP2 MSTORE PUSH1 0x2 DUP6 MUL SWAP1 SWAP2 ADD DUP1 SLOAD PUSH1 0x1 PUSH1 0x1 PUSH1 0xA0 SHL SUB AND DUP3 MSTORE PUSH1 0x1 SWAP1 DUP2 ADD SLOAD DUP3 DUP5 ADD MSTORE SWAP1 DUP4 MSTORE SWAP1 SWAP3 ADD SWAP2 ADD PUSH2 0xBA8 JUMP JUMPDEST POP POP POP POP SWAP1 POP SWAP1 JUMP JUMPDEST PUSH0 DUP2 GT PUSH2 0xC2D JUMPI PUSH1 0x40 MLOAD PUSH3 0x461BCD PUSH1 0xE5 SHL DUP2 MSTORE PUSH1 0x20 PUSH1 0x4 DUP3 ADD MSTORE PUSH1 0x3 PUSH1 0x24 DUP3 ADD MSTORE PUSH3 0x573E3 PUSH1 0xEC SHL PUSH1 0x44 DUP3 ADD MSTORE PUSH1 0x64 ADD PUSH2 0x6DB JUMP JUMPDEST CALLER PUSH0 SWAP1 DUP2 MSTORE PUSH1 0x1 PUSH1 0x20 MSTORE PUSH1 0x40 SWAP1 KECCAK256 SLOAD DUP2 GT ISZERO PUSH2 0xC76 JUMPI PUSH1 0x40 MLOAD PUSH3 0x461BCD PUSH1 0xE5 SHL DUP2 MSTORE PUSH1 0x20 PUSH1 0x4 DUP3 ADD MSTORE PUSH1 0x8 PUSH1 0x24 DUP3 ADD MSTORE PUSH8 0x2162616C616E6365 PUSH1 0xC0 SHL PUSH1 0x44 DUP3 ADD MSTORE PUSH1 0x64 ADD PUSH2 0x6DB JUMP JUMPDEST PUSH0 PUSH2 0xC80 PUSH1 0x3 SLOAD SWAP1 JUMP JUMPDEST PUSH2 0xC8C DUP4 PUSH2 0x2710 PUSH2 0x24AC JUMP JUMPDEST PUSH2 0xC96 SWAP2 SWAP1 PUSH2 0x24C3 JUMP JUMPDEST SWAP1 POP PUSH2 0xCA2 CALLER DUP4 PUSH2 0x1995 JUMP JUMPDEST PUSH0 JUMPDEST PUSH1 0xD SLOAD DUP2 LT ISZERO PUSH2 0xDE5 JUMPI PUSH0 PUSH1 0xD DUP3 DUP2 SLOAD DUP2 LT PUSH2 0xCC2 JUMPI PUSH2 0xCC2 PUSH2 0x2523 JUMP JUMPDEST PUSH0 SWAP2 DUP3 MSTORE PUSH1 0x20 DUP3 KECCAK256 PUSH1 0x2 SWAP2 SWAP1 SWAP2 MUL ADD DUP1 SLOAD PUSH1 0x40 MLOAD PUSH4 0x70A08231 PUSH1 0xE0 SHL DUP2 MSTORE ADDRESS PUSH1 0x4 DUP3 ADD MSTORE SWAP2 SWAP4 POP PUSH2 0x2710 SWAP2 DUP7 SWAP2 PUSH1 0x1 PUSH1 0x1 PUSH1 0xA0 SHL SUB AND SWAP1 PUSH4 0x70A08231 SWAP1 PUSH1 0x24 ADD PUSH1 0x20 PUSH1 0x40 MLOAD DUP1 DUP4 SUB DUP2 DUP7 GAS STATICCALL ISZERO DUP1 ISZERO PUSH2 0xD1D JUMPI RETURNDATASIZE PUSH0 DUP1 RETURNDATACOPY RETURNDATASIZE PUSH0 REVERT JUMPDEST POP POP POP POP PUSH1 0x40 MLOAD RETURNDATASIZE PUSH1 0x1F NOT PUSH1 0x1F DUP3 ADD AND DUP3 ADD DUP1 PUSH1 0x40 MSTORE POP DUP2 ADD SWAP1 PUSH2 0xD41 SWAP2 SWAP1 PUSH2 0x2682 JUMP JUMPDEST PUSH2 0xD4B SWAP2 SWAP1 PUSH2 0x24AC JUMP JUMPDEST PUSH2 0xD55 SWAP2 SWAP1 PUSH2 0x24C3 JUMP JUMPDEST SWAP1 POP DUP1 ISZERO PUSH2 0xDD0 JUMPI DUP2 SLOAD PUSH1 0x40 MLOAD PUSH4 0xA9059CBB PUSH1 0xE0 SHL DUP2 MSTORE CALLER PUSH1 0x4 DUP3 ADD MSTORE PUSH1 0x24 DUP2 ADD DUP4 SWAP1 MSTORE PUSH1 0x1 PUSH1 0x1 PUSH1 0xA0 SHL SUB SWAP1 SWAP2 AND SWAP1 PUSH4 0xA9059CBB SWAP1 PUSH1 0x44 ADD PUSH1 0x20 PUSH1 0x40 MLOAD DUP1 DUP4 SUB DUP2 PUSH0 DUP8 GAS CALL ISZERO DUP1 ISZERO PUSH2 0xDAA JUMPI RETURNDATASIZE PUSH0 DUP1 RETURNDATACOPY RETURNDATASIZE PUSH0 REVERT JUMPDEST POP POP POP POP PUSH1 0x40 MLOAD RETURNDATASIZE PUSH1 0x1F NOT PUSH1 0x1F DUP3 ADD AND DUP3 ADD DUP1 PUSH1 0x40 MSTORE POP DUP2 ADD SWAP1 PUSH2 0xDCE SWAP2 SWAP1 PUSH2 0x26B1 JUMP JUMPDEST POP JUMPDEST POP POP DUP1 DUP1 PUSH2 0xDDD SWAP1 PUSH2 0x2699 JUMP JUMPDEST SWAP2 POP POP PUSH2 0xCA4 JUMP JUMPDEST POP POP POP JUMP JUMPDEST PUSH1 0x6 DUP2 DUP2 SLOAD DUP2 LT PUSH2 0xDF9 JUMPI PUSH0 DUP1 REVERT JUMPDEST PUSH0 SWAP2 DUP3 MSTORE PUSH1 0x20 SWAP1 SWAP2 KECCAK256 PUSH1 0x3 SWAP1 SWAP2 MUL ADD DUP1 SLOAD PUSH1 0x1 DUP3 ADD SLOAD PUSH1 0x2 SWAP1 SWAP3 ADD SLOAD PUSH1 0x1 PUSH1 0x1 PUSH1 0xA0 SHL SUB SWAP2 DUP3 AND SWAP4 POP SWAP2 AND SWAP1 DUP4 JUMP JUMPDEST PUSH2 0xE30 PUSH2 0x19C9 JUMP JUMPDEST PUSH1 0xF SLOAD PUSH5 0x100000000 SWAP1 DIV PUSH1 0xFF AND ISZERO PUSH2 0xE79 JUMPI PUSH1 0x40 MLOAD PUSH3 0x461BCD PUSH1 0xE5 SHL DUP2 MSTORE PUSH1 0x20 PUSH1 0x4 DUP3 ADD MSTORE PUSH1 0xB PUSH1 0x24 DUP3 ADD MSTORE PUSH11 0x1A5B9A5D1A585B1A5E9959 PUSH1 0xAA SHL PUSH1 0x44 DUP3 ADD MSTORE PUSH1 0x64 ADD PUSH2 0x6DB JUMP JUMPDEST DUP5 DUP4 EQ PUSH2 0xEBD JUMPI PUSH1 0x40 MLOAD PUSH3 0x461BCD PUSH1 0xE5 SHL DUP2 MSTORE PUSH1 0x20 PUSH1 0x4 DUP3 ADD MSTORE PUSH1 0x12 PUSH1 0x24 DUP3 ADD MSTORE PUSH18 0x4D69736D617463686564206C656E67746873 PUSH1 0x70 SHL PUSH1 0x44 DUP3 ADD MSTORE PUSH1 0x64 ADD PUSH2 0x6DB JUMP JUMPDEST PUSH1 0xF DUP1 SLOAD PUSH2 0xFFFF DUP4 DUP2 AND PUSH3 0x10000 MUL PUSH4 0xFFFFFFFF NOT SWAP1 SWAP3 AND SWAP1 DUP6 AND OR OR SWAP1 SSTORE PUSH0 DUP1 JUMPDEST DUP7 DUP2 LT ISZERO PUSH2 0x101D JUMPI PUSH2 0x2710 DUP7 DUP7 DUP4 DUP2 DUP2 LT PUSH2 0xEFC JUMPI PUSH2 0xEFC PUSH2 0x2523 JUMP JUMPDEST SWAP1 POP PUSH1 0x20 MUL ADD CALLDATALOAD GT ISZERO PUSH2 0xF45 JUMPI PUSH1 0x40 MLOAD PUSH3 0x461BCD PUSH1 0xE5 SHL DUP2 MSTORE PUSH1 0x20 PUSH1 0x4 DUP3 ADD MSTORE PUSH1 0x11 PUSH1 0x24 DUP3 ADD MSTORE PUSH17 0x496E76616C696450657263656E74616765 PUSH1 0x78 SHL PUSH1 0x44 DUP3 ADD MSTORE PUSH1 0x64 ADD PUSH2 0x6DB JUMP JUMPDEST DUP6 DUP6 DUP3 DUP2 DUP2 LT PUSH2 0xF57 JUMPI PUSH2 0xF57 PUSH2 0x2523 JUMP JUMPDEST SWAP1 POP PUSH1 0x20 MUL ADD CALLDATALOAD DUP3 PUSH2 0xF69 SWAP2 SWAP1 PUSH2 0x24F5 JUMP JUMPDEST SWAP2 POP PUSH1 0xD PUSH1 0x40 MLOAD DUP1 PUSH1 0x40 ADD PUSH1 0x40 MSTORE DUP1 DUP11 DUP11 DUP6 DUP2 DUP2 LT PUSH2 0xF8A JUMPI PUSH2 0xF8A PUSH2 0x2523 JUMP JUMPDEST SWAP1 POP PUSH1 0x20 MUL ADD PUSH1 0x20 DUP2 ADD SWAP1 PUSH2 0xF9F SWAP2 SWAP1 PUSH2 0x21C8 JUMP JUMPDEST PUSH1 0x1 PUSH1 0x1 PUSH1 0xA0 SHL SUB AND DUP2 MSTORE PUSH1 0x20 ADD DUP9 DUP9 DUP6 DUP2 DUP2 LT PUSH2 0xFBF JUMPI PUSH2 0xFBF PUSH2 0x2523 JUMP JUMPDEST PUSH1 0x20 SWAP1 DUP2 MUL SWAP3 SWAP1 SWAP3 ADD CALLDATALOAD SWAP1 SWAP3 MSTORE DUP4 SLOAD PUSH1 0x1 DUP1 DUP3 ADD DUP7 SSTORE PUSH0 SWAP6 DUP7 MSTORE SWAP5 DUP3 SWAP1 KECCAK256 DUP5 MLOAD PUSH1 0x2 SWAP1 SWAP3 MUL ADD DUP1 SLOAD PUSH1 0x1 PUSH1 0x1 PUSH1 0xA0 SHL SUB NOT AND PUSH1 0x1 PUSH1 0x1 PUSH1 0xA0 SHL SUB SWAP1 SWAP3 AND SWAP2 SWAP1 SWAP2 OR DUP2 SSTORE SWAP3 ADD MLOAD SWAP2 SWAP1 SWAP3 ADD SSTORE POP DUP1 PUSH2 0x1015 DUP2 PUSH2 0x2699 JUMP JUMPDEST SWAP2 POP POP PUSH2 0xEDF JUMP JUMPDEST POP DUP1 PUSH2 0x2710 EQ PUSH2 0x1059 JUMPI PUSH1 0x40 MLOAD PUSH3 0x461BCD PUSH1 0xE5 SHL DUP2 MSTORE PUSH1 0x20 PUSH1 0x4 DUP3 ADD MSTORE PUSH1 0x7 PUSH1 0x24 DUP3 ADD MSTORE PUSH7 0x743D313030303 PUSH1 0xCC SHL PUSH1 0x44 DUP3 ADD MSTORE PUSH1 0x64 ADD PUSH2 0x6DB JUMP JUMPDEST PUSH1 0xF DUP1 SLOAD PUSH5 0xFF00000000 NOT AND PUSH5 0x100000000 OR SWAP1 SSTORE PUSH1 0x40 MLOAD PUSH32 0xA6413C453391B24B1553EE2908B9FDB9D8528511A0B9983F82D823531CEA38B8 SWAP1 PUSH2 0x10A4 SWAP1 DUP10 SWAP1 DUP10 SWAP1 DUP10 SWAP1 DUP10 SWAP1 PUSH2 0x26D0 JUMP JUMPDEST PUSH1 0x40 MLOAD DUP1 SWAP2 SUB SWAP1 LOG1 POP POP POP POP POP POP POP JUMP JUMPDEST PUSH2 0x10BD PUSH2 0x19C9 JUMP JUMPDEST PUSH2 0x10C6 PUSH0 PUSH2 0x19F5 JUMP JUMPDEST JUMP JUMPDEST PUSH1 0x8 SLOAD PUSH0 SWAP1 PUSH1 0x1 PUSH1 0x1 PUSH1 0xA0 SHL SUB AND CALLER EQ PUSH2 0x1112 JUMPI PUSH1 0x40 MLOAD PUSH3 0x461BCD PUSH1 0xE5 SHL DUP2 MSTORE PUSH1 0x20 PUSH1 0x4 DUP3 ADD MSTORE PUSH1 0xB PUSH1 0x24 DUP3 ADD MSTORE PUSH11 0x139BDD08185B1B1BDDD959 PUSH1 0xAA SHL PUSH1 0x44 DUP3 ADD MSTORE PUSH1 0x64 ADD PUSH2 0x6DB JUMP JUMPDEST PUSH0 DUP5 PUSH1 0x1 DUP2 GT ISZERO PUSH2 0x1125 JUMPI PUSH2 0x1125 PUSH2 0x25F7 JUMP JUMPDEST SUB PUSH2 0x113D JUMPI PUSH2 0x1136 DUP7 DUP7 DUP6 DUP6 PUSH2 0x1A44 JUMP JUMPDEST SWAP1 POP PUSH2 0x1190 JUMP JUMPDEST PUSH1 0x1 DUP5 PUSH1 0x1 DUP2 GT ISZERO PUSH2 0x1151 JUMPI PUSH2 0x1151 PUSH2 0x25F7 JUMP JUMPDEST SUB PUSH2 0x1162 JUMPI PUSH2 0x1136 DUP7 DUP7 DUP6 DUP6 PUSH2 0x1C33 JUMP JUMPDEST PUSH1 0x40 MLOAD PUSH3 0x461BCD PUSH1 0xE5 SHL DUP2 MSTORE PUSH1 0x20 PUSH1 0x4 DUP3 ADD MSTORE PUSH1 0x3 PUSH1 0x24 DUP3 ADD MSTORE PUSH3 0x10AAAB PUSH1 0xE9 SHL PUSH1 0x44 DUP3 ADD MSTORE PUSH1 0x64 ADD PUSH2 0x6DB JUMP JUMPDEST SWAP6 SWAP5 POP POP POP POP POP JUMP JUMPDEST PUSH1 0x60 PUSH1 0x5 DUP1 SLOAD PUSH2 0x606 SWAP1 PUSH2 0x2466 JUMP JUMPDEST PUSH2 0x11B0 PUSH2 0x19C9 JUMP JUMPDEST PUSH1 0xE SLOAD ISZERO PUSH2 0x124E JUMPI PUSH1 0xE SLOAD PUSH1 0x40 MLOAD PUSH0 SWAP2 PUSH1 0x1 PUSH1 0x1 PUSH1 0xA0 SHL SUB DUP5 AND SWAP2 DUP4 DUP2 DUP2 DUP2 DUP6 DUP8 GAS CALL SWAP3 POP POP POP RETURNDATASIZE DUP1 PUSH0 DUP2 EQ PUSH2 0x1201 JUMPI PUSH1 0x40 MLOAD SWAP2 POP PUSH1 0x1F NOT PUSH1 0x3F RETURNDATASIZE ADD AND DUP3 ADD PUSH1 0x40 MSTORE RETURNDATASIZE DUP3 MSTORE RETURNDATASIZE PUSH0 PUSH1 0x20 DUP5 ADD RETURNDATACOPY PUSH2 0x1206 JUMP JUMPDEST PUSH1 0x60 SWAP2 POP JUMPDEST POP POP SWAP1 POP DUP1 PUSH2 0x1248 JUMPI PUSH1 0x40 MLOAD PUSH3 0x461BCD PUSH1 0xE5 SHL DUP2 MSTORE PUSH1 0x20 PUSH1 0x4 DUP3 ADD MSTORE PUSH1 0xE PUSH1 0x24 DUP3 ADD MSTORE PUSH14 0x1D1C985B9CD9995C91985A5B1959 PUSH1 0x92 SHL PUSH1 0x44 DUP3 ADD MSTORE PUSH1 0x64 ADD PUSH2 0x6DB JUMP JUMPDEST POP PUSH0 PUSH1 0xE SSTORE JUMPDEST POP JUMP JUMPDEST PUSH0 CALLER PUSH2 0x694 DUP2 DUP6 DUP6 PUSH2 0x1707 JUMP JUMPDEST PUSH0 DUP3 GT PUSH2 0x1292 JUMPI PUSH1 0x40 MLOAD PUSH3 0x461BCD PUSH1 0xE5 SHL DUP2 MSTORE PUSH1 0x20 PUSH1 0x4 DUP3 ADD MSTORE PUSH1 0x2 PUSH1 0x24 DUP3 ADD MSTORE PUSH2 0x3E3 PUSH1 0xF4 SHL PUSH1 0x44 DUP3 ADD MSTORE PUSH1 0x64 ADD PUSH2 0x6DB JUMP JUMPDEST PUSH1 0x40 MLOAD PUSH4 0x70A08231 PUSH1 0xE0 SHL DUP2 MSTORE CALLER PUSH1 0x4 DUP3 ADD MSTORE DUP3 SWAP1 ADDRESS SWAP1 PUSH4 0x70A08231 SWAP1 PUSH1 0x24 ADD PUSH1 0x20 PUSH1 0x40 MLOAD DUP1 DUP4 SUB DUP2 DUP7 GAS STATICCALL ISZERO DUP1 ISZERO PUSH2 0x12CD JUMPI RETURNDATASIZE PUSH0 DUP1 RETURNDATACOPY RETURNDATASIZE PUSH0 REVERT JUMPDEST POP POP POP POP PUSH1 0x40 MLOAD RETURNDATASIZE PUSH1 0x1F NOT PUSH1 0x1F DUP3 ADD AND DUP3 ADD DUP1 PUSH1 0x40 MSTORE POP DUP2 ADD SWAP1 PUSH2 0x12F1 SWAP2 SWAP1 PUSH2 0x2682 JUMP JUMPDEST LT ISZERO PUSH2 0x132F JUMPI PUSH1 0x40 MLOAD PUSH3 0x461BCD PUSH1 0xE5 SHL DUP2 MSTORE PUSH1 0x20 PUSH1 0x4 DUP3 ADD MSTORE PUSH1 0xD PUSH1 0x24 DUP3 ADD MSTORE PUSH13 0x8525B9CDD59999A58DA595B9D PUSH1 0x9A SHL PUSH1 0x44 DUP3 ADD MSTORE PUSH1 0x64 ADD PUSH2 0x6DB JUMP JUMPDEST PUSH0 PUSH2 0x1343 PUSH2 0x133C PUSH1 0x3 SLOAD SWAP1 JUMP JUMPDEST DUP5 SWAP1 PUSH2 0x1DEE JUMP JUMPDEST SWAP1 POP PUSH0 PUSH1 0xA PUSH0 SWAP1 SLOAD SWAP1 PUSH2 0x100 EXP SWAP1 DIV PUSH1 0x1 PUSH1 0x1 PUSH1 0xA0 SHL SUB AND PUSH1 0x1 PUSH1 0x1 PUSH1 0xA0 SHL SUB AND PUSH4 0xAD5C4648 PUSH1 0x40 MLOAD DUP2 PUSH4 0xFFFFFFFF AND PUSH1 0xE0 SHL DUP2 MSTORE PUSH1 0x4 ADD PUSH1 0x20 PUSH1 0x40 MLOAD DUP1 DUP4 SUB DUP2 DUP7 GAS STATICCALL ISZERO DUP1 ISZERO PUSH2 0x1396 JUMPI RETURNDATASIZE PUSH0 DUP1 RETURNDATACOPY RETURNDATASIZE PUSH0 REVERT JUMPDEST POP POP POP POP PUSH1 0x40 MLOAD RETURNDATASIZE PUSH1 0x1F NOT PUSH1 0x1F DUP3 ADD AND DUP3 ADD DUP1 PUSH1 0x40 MSTORE POP DUP2 ADD SWAP1 PUSH2 0x13BA SWAP2 SWAP1 PUSH2 0x2508 JUMP JUMPDEST SWAP1 POP PUSH0 DUP1 JUMPDEST PUSH1 0xD SLOAD DUP2 LT ISZERO PUSH2 0x157E JUMPI PUSH0 PUSH1 0xD DUP3 DUP2 SLOAD DUP2 LT PUSH2 0x13DD JUMPI PUSH2 0x13DD PUSH2 0x2523 JUMP JUMPDEST PUSH0 SWAP2 DUP3 MSTORE PUSH1 0x20 DUP3 KECCAK256 PUSH1 0x2 SWAP2 SWAP1 SWAP2 MUL ADD DUP1 SLOAD PUSH1 0x40 MLOAD PUSH4 0x70A08231 PUSH1 0xE0 SHL DUP2 MSTORE ADDRESS PUSH1 0x4 DUP3 ADD MSTORE SWAP2 SWAP4 POP PUSH2 0x2710 SWAP2 DUP9 SWAP2 PUSH1 0x1 PUSH1 0x1 PUSH1 0xA0 SHL SUB AND SWAP1 PUSH4 0x70A08231 SWAP1 PUSH1 0x24 ADD PUSH1 0x20 PUSH1 0x40 MLOAD DUP1 DUP4 SUB DUP2 DUP7 GAS STATICCALL ISZERO DUP1 ISZERO PUSH2 0x1438 JUMPI RETURNDATASIZE PUSH0 DUP1 RETURNDATACOPY RETURNDATASIZE PUSH0 REVERT JUMPDEST POP POP POP POP PUSH1 0x40 MLOAD RETURNDATASIZE PUSH1 0x1F NOT PUSH1 0x1F DUP3 ADD AND DUP3 ADD DUP1 PUSH1 0x40 MSTORE POP DUP2 ADD SWAP1 PUSH2 0x145C SWAP2 SWAP1 PUSH2 0x2682 JUMP JUMPDEST PUSH2 0x1466 SWAP2 SWAP1 PUSH2 0x24AC JUMP JUMPDEST PUSH2 0x1470 SWAP2 SWAP1 PUSH2 0x24C3 JUMP JUMPDEST DUP3 SLOAD SWAP1 SWAP2 POP ADDRESS SWAP1 PUSH4 0x74A66061 SWAP1 PUSH1 0x1 PUSH1 0x1 PUSH1 0xA0 SHL SUB AND DUP4 PUSH2 0x1491 DUP12 DUP1 PUSH2 0x2537 JUMP JUMPDEST DUP9 DUP2 DUP2 LT PUSH2 0x14A1 JUMPI PUSH2 0x14A1 PUSH2 0x2523 JUMP JUMPDEST SWAP1 POP PUSH1 0x20 MUL DUP2 ADD SWAP1 PUSH2 0x14B3 SWAP2 SWAP1 PUSH2 0x257D JUMP JUMPDEST PUSH2 0x14C4 SWAP1 PUSH1 0x40 DUP2 ADD SWAP1 PUSH1 0x20 ADD PUSH2 0x259B JUMP JUMPDEST ADDRESS PUSH2 0x14CF DUP14 DUP1 PUSH2 0x2537 JUMP JUMPDEST DUP11 DUP2 DUP2 LT PUSH2 0x14DF JUMPI PUSH2 0x14DF PUSH2 0x2523 JUMP JUMPDEST SWAP1 POP PUSH1 0x20 MUL DUP2 ADD SWAP1 PUSH2 0x14F1 SWAP2 SWAP1 PUSH2 0x257D JUMP JUMPDEST PUSH2 0x14FB SWAP1 DUP1 PUSH2 0x25B4 JUMP JUMPDEST PUSH1 0x40 MLOAD DUP8 PUSH4 0xFFFFFFFF AND PUSH1 0xE0 SHL DUP2 MSTORE PUSH1 0x4 ADD PUSH2 0x151C SWAP7 SWAP6 SWAP5 SWAP4 SWAP3 SWAP2 SWAP1 PUSH2 0x260B JUMP JUMPDEST PUSH1 0x20 PUSH1 0x40 MLOAD DUP1 DUP4 SUB DUP2 PUSH0 DUP8 GAS CALL SWAP3 POP POP POP DUP1 ISZERO PUSH2 0x1556 JUMPI POP PUSH1 0x40 DUP1 MLOAD PUSH1 0x1F RETURNDATASIZE SWAP1 DUP2 ADD PUSH1 0x1F NOT AND DUP3 ADD SWAP1 SWAP3 MSTORE PUSH2 0x1553 SWAP2 DUP2 ADD SWAP1 PUSH2 0x2682 JUMP JUMPDEST PUSH1 0x1 JUMPDEST ISZERO PUSH2 0x1569 JUMPI PUSH2 0x1565 DUP2 DUP7 PUSH2 0x24F5 JUMP JUMPDEST SWAP5 POP POP JUMPDEST POP POP DUP1 DUP1 PUSH2 0x1576 SWAP1 PUSH2 0x2699 JUMP JUMPDEST SWAP2 POP POP PUSH2 0x13BF JUMP JUMPDEST POP PUSH2 0x1589 CALLER DUP7 PUSH2 0x1995 JUMP JUMPDEST DUP1 ISZERO PUSH2 0x1644 JUMPI PUSH1 0xF SLOAD PUSH0 SWAP1 PUSH2 0x15A3 SWAP1 DUP4 SWAP1 PUSH2 0xFFFF AND PUSH2 0x1E0D JUMP JUMPDEST PUSH1 0xF SLOAD SWAP1 SWAP2 POP PUSH0 SWAP1 PUSH2 0x15BA SWAP1 DUP5 SWAP1 PUSH2 0xFFFF AND PUSH2 0x1E1F JUMP JUMPDEST SWAP1 POP DUP2 PUSH1 0xE PUSH0 DUP3 DUP3 SLOAD PUSH2 0x15CD SWAP2 SWAP1 PUSH2 0x24F5 JUMP JUMPDEST SWAP1 SWAP2 SSTORE POP POP PUSH1 0x40 MLOAD PUSH4 0xA9059CBB PUSH1 0xE0 SHL DUP2 MSTORE CALLER PUSH1 0x4 DUP3 ADD MSTORE PUSH1 0x24 DUP2 ADD DUP3 SWAP1 MSTORE PUSH1 0x1 PUSH1 0x1 PUSH1 0xA0 SHL SUB DUP6 AND SWAP1 PUSH4 0xA9059CBB SWAP1 PUSH1 0x44 ADD PUSH1 0x20 PUSH1 0x40 MLOAD DUP1 DUP4 SUB DUP2 PUSH0 DUP8 GAS CALL ISZERO DUP1 ISZERO PUSH2 0x161C JUMPI RETURNDATASIZE PUSH0 DUP1 RETURNDATACOPY RETURNDATASIZE PUSH0 REVERT JUMPDEST POP POP POP POP PUSH1 0x40 MLOAD RETURNDATASIZE PUSH1 0x1F NOT PUSH1 0x1F DUP3 ADD AND DUP3 ADD DUP1 PUSH1 0x40 MSTORE POP DUP2 ADD SWAP1 PUSH2 0x1640 SWAP2 SWAP1 PUSH2 0x26B1 JUMP JUMPDEST POP POP POP JUMPDEST POP POP POP POP POP JUMP JUMPDEST PUSH2 0x1653 PUSH2 0x19C9 JUMP JUMPDEST PUSH1 0x1 PUSH1 0x1 PUSH1 0xA0 SHL SUB DUP2 AND PUSH2 0x167C JUMPI PUSH1 0x40 MLOAD PUSH4 0x1E4FBDF7 PUSH1 0xE0 SHL DUP2 MSTORE PUSH0 PUSH1 0x4 DUP3 ADD MSTORE PUSH1 0x24 ADD PUSH2 0x6DB JUMP JUMPDEST PUSH2 0x124E DUP2 PUSH2 0x19F5 JUMP JUMPDEST PUSH2 0xDE5 DUP4 DUP4 DUP4 PUSH1 0x1 PUSH2 0x1E3F JUMP JUMPDEST PUSH1 0x1 PUSH1 0x1 PUSH1 0xA0 SHL SUB DUP4 DUP2 AND PUSH0 SWAP1 DUP2 MSTORE PUSH1 0x2 PUSH1 0x20 SWAP1 DUP2 MSTORE PUSH1 0x40 DUP1 DUP4 KECCAK256 SWAP4 DUP7 AND DUP4 MSTORE SWAP3 SWAP1 MSTORE KECCAK256 SLOAD PUSH0 NOT DUP2 EQ PUSH2 0xB7F JUMPI DUP2 DUP2 LT ISZERO PUSH2 0x16F9 JUMPI PUSH1 0x40 MLOAD PUSH4 0x7DC7A0D9 PUSH1 0xE1 SHL DUP2 MSTORE PUSH1 0x1 PUSH1 0x1 PUSH1 0xA0 SHL SUB DUP5 AND PUSH1 0x4 DUP3 ADD MSTORE PUSH1 0x24 DUP2 ADD DUP3 SWAP1 MSTORE PUSH1 0x44 DUP2 ADD DUP4 SWAP1 MSTORE PUSH1 0x64 ADD PUSH2 0x6DB JUMP JUMPDEST PUSH2 0xB7F DUP5 DUP5 DUP5 DUP5 SUB PUSH0 PUSH2 0x1E3F JUMP JUMPDEST PUSH1 0x1 PUSH1 0x1 PUSH1 0xA0 SHL SUB DUP4 AND PUSH2 0x1730 JUMPI PUSH1 0x40 MLOAD PUSH4 0x4B637E8F PUSH1 0xE1 SHL DUP2 MSTORE PUSH0 PUSH1 0x4 DUP3 ADD MSTORE PUSH1 0x24 ADD PUSH2 0x6DB JUMP JUMPDEST PUSH1 0x1 PUSH1 0x1 PUSH1 0xA0 SHL SUB DUP3 AND PUSH2 0x1759 JUMPI PUSH1 0x40 MLOAD PUSH4 0xEC442F05 PUSH1 0xE0 SHL DUP2 MSTORE PUSH0 PUSH1 0x4 DUP3 ADD MSTORE PUSH1 0x24 ADD PUSH2 0x6DB JUMP JUMPDEST PUSH2 0xDE5 DUP4 DUP4 DUP4 PUSH2 0x1F11 JUMP JUMPDEST PUSH1 0x40 DUP1 MLOAD PUSH1 0x1 PUSH1 0x1 PUSH1 0xA0 SHL SUB DUP6 DUP2 AND PUSH1 0x24 DUP4 ADD MSTORE DUP5 DUP2 AND PUSH1 0x44 DUP4 ADD MSTORE PUSH1 0x64 DUP1 DUP4 ADD DUP6 SWAP1 MSTORE DUP4 MLOAD DUP1 DUP5 SUB SWAP1 SWAP2 ADD DUP2 MSTORE PUSH1 0x84 SWAP1 SWAP3 ADD DUP4 MSTORE PUSH1 0x20 DUP3 ADD DUP1 MLOAD PUSH1 0x1 PUSH1 0x1 PUSH1 0xE0 SHL SUB AND PUSH4 0x23B872DD PUSH1 0xE0 SHL OR SWAP1 MSTORE SWAP2 MLOAD PUSH0 SWAP3 DUP4 SWAP3 SWAP1 DUP9 AND SWAP2 PUSH2 0x17C7 SWAP2 SWAP1 PUSH2 0x274C JUMP JUMPDEST PUSH0 PUSH1 0x40 MLOAD DUP1 DUP4 SUB DUP2 PUSH0 DUP7 GAS CALL SWAP2 POP POP RETURNDATASIZE DUP1 PUSH0 DUP2 EQ PUSH2 0x1800 JUMPI PUSH1 0x40 MLOAD SWAP2 POP PUSH1 0x1F NOT PUSH1 0x3F RETURNDATASIZE ADD AND DUP3 ADD PUSH1 0x40 MSTORE RETURNDATASIZE DUP3 MSTORE RETURNDATASIZE PUSH0 PUSH1 0x20 DUP5 ADD RETURNDATACOPY PUSH2 0x1805 JUMP JUMPDEST PUSH1 0x60 SWAP2 POP JUMPDEST POP SWAP2 POP SWAP2 POP DUP2 DUP1 ISZERO PUSH2 0x182F JUMPI POP DUP1 MLOAD ISZERO DUP1 PUSH2 0x182F JUMPI POP DUP1 DUP1 PUSH1 0x20 ADD SWAP1 MLOAD DUP2 ADD SWAP1 PUSH2 0x182F SWAP2 SWAP1 PUSH2 0x26B1 JUMP JUMPDEST PUSH2 0x1861 JUMPI PUSH1 0x40 MLOAD PUSH3 0x461BCD PUSH1 0xE5 SHL DUP2 MSTORE PUSH1 0x20 PUSH1 0x4 DUP3 ADD MSTORE PUSH1 0x3 PUSH1 0x24 DUP3 ADD MSTORE PUSH3 0x29AA23 PUSH1 0xE9 SHL PUSH1 0x44 DUP3 ADD MSTORE PUSH1 0x64 ADD PUSH2 0x6DB JUMP JUMPDEST POP POP POP POP POP POP JUMP JUMPDEST PUSH1 0x40 DUP1 MLOAD PUSH1 0x1 PUSH1 0x1 PUSH1 0xA0 SHL SUB DUP5 DUP2 AND PUSH1 0x24 DUP4 ADD MSTORE PUSH1 0x44 DUP1 DUP4 ADD DUP6 SWAP1 MSTORE DUP4 MLOAD DUP1 DUP5 SUB SWAP1 SWAP2 ADD DUP2 MSTORE PUSH1 0x64 SWAP1 SWAP3 ADD DUP4 MSTORE PUSH1 0x20 DUP3 ADD DUP1 MLOAD PUSH1 0x1 PUSH1 0x1 PUSH1 0xE0 SHL SUB AND PUSH4 0x95EA7B3 PUSH1 0xE0 SHL OR SWAP1 MSTORE SWAP2 MLOAD PUSH0 SWAP3 DUP4 SWAP3 SWAP1 DUP8 AND SWAP2 PUSH2 0x18C4 SWAP2 SWAP1 PUSH2 0x274C JUMP JUMPDEST PUSH0 PUSH1 0x40 MLOAD DUP1 DUP4 SUB DUP2 PUSH0 DUP7 GAS CALL SWAP2 POP POP RETURNDATASIZE DUP1 PUSH0 DUP2 EQ PUSH2 0x18FD JUMPI PUSH1 0x40 MLOAD SWAP2 POP PUSH1 0x1F NOT PUSH1 0x3F RETURNDATASIZE ADD AND DUP3 ADD PUSH1 0x40 MSTORE RETURNDATASIZE DUP3 MSTORE RETURNDATASIZE PUSH0 PUSH1 0x20 DUP5 ADD RETURNDATACOPY PUSH2 0x1902 JUMP JUMPDEST PUSH1 0x60 SWAP2 POP JUMPDEST POP SWAP2 POP SWAP2 POP DUP2 DUP1 ISZERO PUSH2 0x192C JUMPI POP DUP1 MLOAD ISZERO DUP1 PUSH2 0x192C JUMPI POP DUP1 DUP1 PUSH1 0x20 ADD SWAP1 MLOAD DUP2 ADD SWAP1 PUSH2 0x192C SWAP2 SWAP1 PUSH2 0x26B1 JUMP JUMPDEST PUSH2 0x1644 JUMPI PUSH1 0x40 MLOAD PUSH3 0x461BCD PUSH1 0xE5 SHL DUP2 MSTORE PUSH1 0x20 PUSH1 0x4 DUP3 ADD MSTORE PUSH1 0x2 PUSH1 0x24 DUP3 ADD MSTORE PUSH2 0x5341 PUSH1 0xF0 SHL PUSH1 0x44 DUP3 ADD MSTORE PUSH1 0x64 ADD PUSH2 0x6DB JUMP JUMPDEST PUSH1 0x1 PUSH1 0x1 PUSH1 0xA0 SHL SUB DUP3 AND PUSH2 0x1986 JUMPI PUSH1 0x40 MLOAD PUSH4 0xEC442F05 PUSH1 0xE0 SHL DUP2 MSTORE PUSH0 PUSH1 0x4 DUP3 ADD MSTORE PUSH1 0x24 ADD PUSH2 0x6DB JUMP JUMPDEST PUSH2 0x1991 PUSH0 DUP4 DUP4 PUSH2 0x1F11 JUMP JUMPDEST POP POP JUMP JUMPDEST PUSH1 0x1 PUSH1 0x1 PUSH1 0xA0 SHL SUB DUP3 AND PUSH2 0x19BE JUMPI PUSH1 0x40 MLOAD PUSH4 0x4B637E8F PUSH1 0xE1 SHL DUP2 MSTORE PUSH0 PUSH1 0x4 DUP3 ADD MSTORE PUSH1 0x24 ADD PUSH2 0x6DB JUMP JUMPDEST PUSH2 0x1991 DUP3 PUSH0 DUP4 PUSH2 0x1F11 JUMP JUMPDEST PUSH0 SLOAD PUSH1 0x1 PUSH1 0x1 PUSH1 0xA0 SHL SUB AND CALLER EQ PUSH2 0x10C6 JUMPI PUSH1 0x40 MLOAD PUSH4 0x118CDAA7 PUSH1 0xE0 SHL DUP2 MSTORE CALLER PUSH1 0x4 DUP3 ADD MSTORE PUSH1 0x24 ADD PUSH2 0x6DB JUMP JUMPDEST PUSH0 DUP1 SLOAD PUSH1 0x1 PUSH1 0x1 PUSH1 0xA0 SHL SUB DUP4 DUP2 AND PUSH1 0x1 PUSH1 0x1 PUSH1 0xA0 SHL SUB NOT DUP4 AND DUP2 OR DUP5 SSTORE PUSH1 0x40 MLOAD SWAP2 SWAP1 SWAP3 AND SWAP3 DUP4 SWAP2 PUSH32 0x8BE0079C531659141344CD1FD0A4F28419497F9722A3DAAFE3B4186F6B6457E0 SWAP2 SWAP1 LOG3 POP POP JUMP JUMPDEST PUSH0 DUP1 DUP3 DUP1 PUSH1 0x20 ADD SWAP1 MLOAD DUP2 ADD SWAP1 PUSH2 0x1A5A SWAP2 SWAP1 PUSH2 0x2780 JUMP JUMPDEST PUSH1 0xA SLOAD PUSH1 0x40 MLOAD PUSH4 0xD06CA61F PUSH1 0xE0 SHL DUP2 MSTORE SWAP2 SWAP3 POP PUSH0 SWAP2 PUSH1 0x1 PUSH1 0x1 PUSH1 0xA0 SHL SUB SWAP1 SWAP2 AND SWAP1 PUSH4 0xD06CA61F SWAP1 PUSH2 0x1A91 SWAP1 DUP10 SWAP1 DUP7 SWAP1 PUSH1 0x4 ADD PUSH2 0x285C JUMP JUMPDEST PUSH0 PUSH1 0x40 MLOAD DUP1 DUP4 SUB DUP2 DUP7 GAS STATICCALL ISZERO DUP1 ISZERO PUSH2 0x1AAB JUMPI RETURNDATASIZE PUSH0 DUP1 RETURNDATACOPY RETURNDATASIZE PUSH0 REVERT JUMPDEST POP POP POP POP PUSH1 0x40 MLOAD RETURNDATASIZE PUSH0 DUP3 RETURNDATACOPY PUSH1 0x1F RETURNDATASIZE SWAP1 DUP2 ADD PUSH1 0x1F NOT AND DUP3 ADD PUSH1 0x40 MSTORE PUSH2 0x1AD2 SWAP2 SWAP1 DUP2 ADD SWAP1 PUSH2 0x2874 JUMP JUMPDEST SWAP1 POP PUSH0 PUSH2 0x2710 PUSH1 0x7 SLOAD PUSH2 0x2710 PUSH2 0x1AE8 SWAP2 SWAP1 PUSH2 0x24E2 JUMP JUMPDEST DUP4 PUSH1 0x1 DUP2 MLOAD DUP2 LT PUSH2 0x1AFB JUMPI PUSH2 0x1AFB PUSH2 0x2523 JUMP JUMPDEST PUSH1 0x20 MUL PUSH1 0x20 ADD ADD MLOAD PUSH2 0x1B0D SWAP2 SWAP1 PUSH2 0x24AC JUMP JUMPDEST PUSH2 0x1B17 SWAP2 SWAP1 PUSH2 0x24C3 JUMP JUMPDEST PUSH1 0xA SLOAD PUSH1 0x40 MLOAD PUSH4 0x95EA7B3 PUSH1 0xE0 SHL DUP2 MSTORE PUSH1 0x1 PUSH1 0x1 PUSH1 0xA0 SHL SUB SWAP2 DUP3 AND PUSH1 0x4 DUP3 ADD MSTORE PUSH1 0x24 DUP2 ADD DUP11 SWAP1 MSTORE SWAP2 SWAP3 POP DUP10 AND SWAP1 PUSH4 0x95EA7B3 SWAP1 PUSH1 0x44 ADD PUSH1 0x20 PUSH1 0x40 MLOAD DUP1 DUP4 SUB DUP2 PUSH0 DUP8 GAS CALL ISZERO DUP1 ISZERO PUSH2 0x1B69 JUMPI RETURNDATASIZE PUSH0 DUP1 RETURNDATACOPY RETURNDATASIZE PUSH0 REVERT JUMPDEST POP POP POP POP PUSH1 0x40 MLOAD RETURNDATASIZE PUSH1 0x1F NOT PUSH1 0x1F DUP3 ADD AND DUP3 ADD DUP1 PUSH1 0x40 MSTORE POP DUP2 ADD SWAP1 PUSH2 0x1B8D SWAP2 SWAP1 PUSH2 0x26B1 JUMP JUMPDEST POP PUSH1 0xA SLOAD PUSH1 0x40 MLOAD PUSH4 0x18CBAFE5 PUSH1 0xE0 SHL DUP2 MSTORE PUSH0 SWAP2 PUSH1 0x1 PUSH1 0x1 PUSH1 0xA0 SHL SUB AND SWAP1 PUSH4 0x18CBAFE5 SWAP1 PUSH2 0x1BC6 SWAP1 DUP12 SWAP1 DUP7 SWAP1 DUP10 SWAP1 DUP14 SWAP1 TIMESTAMP SWAP1 PUSH1 0x4 ADD PUSH2 0x28F5 JUMP JUMPDEST PUSH0 PUSH1 0x40 MLOAD DUP1 DUP4 SUB DUP2 PUSH0 DUP8 GAS CALL ISZERO DUP1 ISZERO PUSH2 0x1BE1 JUMPI RETURNDATASIZE PUSH0 DUP1 RETURNDATACOPY RETURNDATASIZE PUSH0 REVERT JUMPDEST POP POP POP POP PUSH1 0x40 MLOAD RETURNDATASIZE PUSH0 DUP3 RETURNDATACOPY PUSH1 0x1F RETURNDATASIZE SWAP1 DUP2 ADD PUSH1 0x1F NOT AND DUP3 ADD PUSH1 0x40 MSTORE PUSH2 0x1C08 SWAP2 SWAP1 DUP2 ADD SWAP1 PUSH2 0x2874 JUMP JUMPDEST SWAP1 POP DUP1 PUSH1 0x1 DUP2 MLOAD DUP2 LT PUSH2 0x1C1D JUMPI PUSH2 0x1C1D PUSH2 0x2523 JUMP JUMPDEST PUSH1 0x20 MUL PUSH1 0x20 ADD ADD MLOAD SWAP5 POP POP POP POP POP SWAP5 SWAP4 POP POP POP POP JUMP JUMPDEST PUSH1 0xC SLOAD PUSH1 0x40 MLOAD PUSH4 0xCDCA1753 PUSH1 0xE0 SHL DUP2 MSTORE PUSH0 SWAP2 DUP3 SWAP2 PUSH1 0x1 PUSH1 0x1 PUSH1 0xA0 SHL SUB SWAP1 SWAP2 AND SWAP1 PUSH4 0xCDCA1753 SWAP1 PUSH2 0x1C69 SWAP1 DUP7 SWAP1 DUP10 SWAP1 PUSH1 0x4 ADD PUSH2 0x2930 JUMP JUMPDEST PUSH1 0x20 PUSH1 0x40 MLOAD DUP1 DUP4 SUB DUP2 PUSH0 DUP8 GAS CALL ISZERO DUP1 ISZERO PUSH2 0x1C85 JUMPI RETURNDATASIZE PUSH0 DUP1 RETURNDATACOPY RETURNDATASIZE PUSH0 REVERT JUMPDEST POP POP POP POP PUSH1 0x40 MLOAD RETURNDATASIZE PUSH1 0x1F NOT PUSH1 0x1F DUP3 ADD AND DUP3 ADD DUP1 PUSH1 0x40 MSTORE POP DUP2 ADD SWAP1 PUSH2 0x1CA9 SWAP2 SWAP1 PUSH2 0x2682 JUMP JUMPDEST SWAP1 POP PUSH0 PUSH2 0x2710 PUSH1 0x7 SLOAD PUSH2 0x2710 PUSH2 0x1CBF SWAP2 SWAP1 PUSH2 0x24E2 JUMP JUMPDEST PUSH2 0x1CC9 SWAP1 DUP5 PUSH2 0x24AC JUMP JUMPDEST PUSH2 0x1CD3 SWAP2 SWAP1 PUSH2 0x24C3 JUMP JUMPDEST PUSH1 0x40 DUP1 MLOAD PUSH1 0xA0 DUP2 ADD DUP3 MSTORE DUP7 DUP2 MSTORE PUSH1 0x1 PUSH1 0x1 PUSH1 0xA0 SHL SUB DUP9 DUP2 AND PUSH1 0x20 DUP4 ADD MSTORE TIMESTAMP DUP3 DUP5 ADD MSTORE PUSH1 0x60 DUP3 ADD DUP11 SWAP1 MSTORE PUSH1 0x80 DUP3 ADD DUP5 SWAP1 MSTORE PUSH1 0xB SLOAD SWAP3 MLOAD PUSH4 0x95EA7B3 PUSH1 0xE0 SHL DUP2 MSTORE SWAP3 DUP2 AND PUSH1 0x4 DUP5 ADD MSTORE PUSH1 0x24 DUP4 ADD DUP11 SWAP1 MSTORE SWAP3 SWAP4 POP SWAP2 DUP10 AND SWAP1 PUSH4 0x95EA7B3 SWAP1 PUSH1 0x44 ADD PUSH1 0x20 PUSH1 0x40 MLOAD DUP1 DUP4 SUB DUP2 PUSH0 DUP8 GAS CALL ISZERO DUP1 ISZERO PUSH2 0x1D4D JUMPI RETURNDATASIZE PUSH0 DUP1 RETURNDATACOPY RETURNDATASIZE PUSH0 REVERT JUMPDEST POP POP POP POP PUSH1 0x40 MLOAD RETURNDATASIZE PUSH1 0x1F NOT PUSH1 0x1F DUP3 ADD AND DUP3 ADD DUP1 PUSH1 0x40 MSTORE POP DUP2 ADD SWAP1 PUSH2 0x1D71 SWAP2 SWAP1 PUSH2 0x26B1 JUMP JUMPDEST POP PUSH1 0xB SLOAD PUSH1 0x40 MLOAD PUSH4 0xC04B8D59 PUSH1 0xE0 SHL DUP2 MSTORE PUSH1 0x1 PUSH1 0x1 PUSH1 0xA0 SHL SUB SWAP1 SWAP2 AND SWAP1 PUSH4 0xC04B8D59 SWAP1 PUSH2 0x1DA2 SWAP1 DUP5 SWAP1 PUSH1 0x4 ADD PUSH2 0x2951 JUMP JUMPDEST PUSH1 0x20 PUSH1 0x40 MLOAD DUP1 DUP4 SUB DUP2 PUSH0 DUP8 GAS CALL ISZERO DUP1 ISZERO PUSH2 0x1DBE JUMPI RETURNDATASIZE PUSH0 DUP1 RETURNDATACOPY RETURNDATASIZE PUSH0 REVERT JUMPDEST POP POP POP POP PUSH1 0x40 MLOAD RETURNDATASIZE PUSH1 0x1F NOT PUSH1 0x1F DUP3 ADD AND DUP3 ADD DUP1 PUSH1 0x40 MSTORE POP DUP2 ADD SWAP1 PUSH2 0x1DE2 SWAP2 SWAP1 PUSH2 0x2682 JUMP JUMPDEST SWAP9 SWAP8 POP POP POP POP POP POP POP POP JUMP JUMPDEST PUSH0 DUP2 PUSH2 0x1DFC DUP5 PUSH2 0x2710 PUSH2 0x24AC JUMP JUMPDEST PUSH2 0x1E06 SWAP2 SWAP1 PUSH2 0x24C3 JUMP JUMPDEST SWAP4 SWAP3 POP POP POP JUMP JUMPDEST PUSH0 PUSH2 0x2710 PUSH2 0x1DFC PUSH2 0xFFFF DUP5 AND DUP6 PUSH2 0x24AC JUMP JUMPDEST PUSH0 DUP1 PUSH2 0x1E2B DUP5 DUP5 PUSH2 0x1E0D JUMP JUMPDEST SWAP1 POP PUSH2 0x1E37 DUP2 DUP6 PUSH2 0x24E2 JUMP JUMPDEST SWAP5 SWAP4 POP POP POP POP JUMP JUMPDEST PUSH1 0x1 PUSH1 0x1 PUSH1 0xA0 SHL SUB DUP5 AND PUSH2 0x1E68 JUMPI PUSH1 0x40 MLOAD PUSH4 0xE602DF05 PUSH1 0xE0 SHL DUP2 MSTORE PUSH0 PUSH1 0x4 DUP3 ADD MSTORE PUSH1 0x24 ADD PUSH2 0x6DB JUMP JUMPDEST PUSH1 0x1 PUSH1 0x1 PUSH1 0xA0 SHL SUB DUP4 AND PUSH2 0x1E91 JUMPI PUSH1 0x40 MLOAD PUSH4 0x4A1406B1 PUSH1 0xE1 SHL DUP2 MSTORE PUSH0 PUSH1 0x4 DUP3 ADD MSTORE PUSH1 0x24 ADD PUSH2 0x6DB JUMP JUMPDEST PUSH1 0x1 PUSH1 0x1 PUSH1 0xA0 SHL SUB DUP1 DUP6 AND PUSH0 SWAP1 DUP2 MSTORE PUSH1 0x2 PUSH1 0x20 SWAP1 DUP2 MSTORE PUSH1 0x40 DUP1 DUP4 KECCAK256 SWAP4 DUP8 AND DUP4 MSTORE SWAP3 SWAP1 MSTORE KECCAK256 DUP3 SWAP1 SSTORE DUP1 ISZERO PUSH2 0xB7F JUMPI DUP3 PUSH1 0x1 PUSH1 0x1 PUSH1 0xA0 SHL SUB AND DUP5 PUSH1 0x1 PUSH1 0x1 PUSH1 0xA0 SHL SUB AND PUSH32 0x8C5BE1E5EBEC7D5BD14F71427D1E84F3DD0314C0F7B2291E5B200AC8C7C3B925 DUP5 PUSH1 0x40 MLOAD PUSH2 0x1F03 SWAP2 DUP2 MSTORE PUSH1 0x20 ADD SWAP1 JUMP JUMPDEST PUSH1 0x40 MLOAD DUP1 SWAP2 SUB SWAP1 LOG3 POP POP POP POP JUMP JUMPDEST PUSH1 0x1 PUSH1 0x1 PUSH1 0xA0 SHL SUB DUP4 AND PUSH2 0x1F3B JUMPI DUP1 PUSH1 0x3 PUSH0 DUP3 DUP3 SLOAD PUSH2 0x1F30 SWAP2 SWAP1 PUSH2 0x24F5 JUMP JUMPDEST SWAP1 SWAP2 SSTORE POP PUSH2 0x1FAB SWAP1 POP JUMP JUMPDEST PUSH1 0x1 PUSH1 0x1 PUSH1 0xA0 SHL SUB DUP4 AND PUSH0 SWAP1 DUP2 MSTORE PUSH1 0x1 PUSH1 0x20 MSTORE PUSH1 0x40 SWAP1 KECCAK256 SLOAD DUP2 DUP2 LT ISZERO PUSH2 0x1F8D JUMPI PUSH1 0x40 MLOAD PUSH4 0x391434E3 PUSH1 0xE2 SHL DUP2 MSTORE PUSH1 0x1 PUSH1 0x1 PUSH1 0xA0 SHL SUB DUP6 AND PUSH1 0x4 DUP3 ADD MSTORE PUSH1 0x24 DUP2 ADD DUP3 SWAP1 MSTORE PUSH1 0x44 DUP2 ADD DUP4 SWAP1 MSTORE PUSH1 0x64 ADD PUSH2 0x6DB JUMP JUMPDEST PUSH1 0x1 PUSH1 0x1 PUSH1 0xA0 SHL SUB DUP5 AND PUSH0 SWAP1 DUP2 MSTORE PUSH1 0x1 PUSH1 0x20 MSTORE PUSH1 0x40 SWAP1 KECCAK256 SWAP1 DUP3 SWAP1 SUB SWAP1 SSTORE JUMPDEST PUSH1 0x1 PUSH1 0x1 PUSH1 0xA0 SHL SUB DUP3 AND PUSH2 0x1FC7 JUMPI PUSH1 0x3 DUP1 SLOAD DUP3 SWAP1 SUB SWAP1 SSTORE PUSH2 0x1FE5 JUMP JUMPDEST PUSH1 0x1 PUSH1 0x1 PUSH1 0xA0 SHL SUB DUP3 AND PUSH0 SWAP1 DUP2 MSTORE PUSH1 0x1 PUSH1 0x20 MSTORE PUSH1 0x40 SWAP1 KECCAK256 DUP1 SLOAD DUP3 ADD SWAP1 SSTORE JUMPDEST DUP2 PUSH1 0x1 PUSH1 0x1 PUSH1 0xA0 SHL SUB AND DUP4 PUSH1 0x1 PUSH1 0x1 PUSH1 0xA0 SHL SUB AND PUSH32 0xDDF252AD1BE2C89B69C2B068FC378DAA952BA7F163C4A11628F55A4DF523B3EF DUP4 PUSH1 0x40 MLOAD PUSH2 0x202A SWAP2 DUP2 MSTORE PUSH1 0x20 ADD SWAP1 JUMP JUMPDEST PUSH1 0x40 MLOAD DUP1 SWAP2 SUB SWAP1 LOG3 POP POP POP JUMP JUMPDEST PUSH0 JUMPDEST DUP4 DUP2 LT ISZERO PUSH2 0x2051 JUMPI DUP2 DUP2 ADD MLOAD DUP4 DUP3 ADD MSTORE PUSH1 0x20 ADD PUSH2 0x2039 JUMP JUMPDEST POP POP PUSH0 SWAP2 ADD MSTORE JUMP JUMPDEST PUSH0 DUP2 MLOAD DUP1 DUP5 MSTORE PUSH2 0x2070 DUP2 PUSH1 0x20 DUP7 ADD PUSH1 0x20 DUP7 ADD PUSH2 0x2037 JUMP JUMPDEST PUSH1 0x1F ADD PUSH1 0x1F NOT AND SWAP3 SWAP1 SWAP3 ADD PUSH1 0x20 ADD SWAP3 SWAP2 POP POP JUMP JUMPDEST PUSH1 0x20 DUP2 MSTORE PUSH0 PUSH2 0x1E06 PUSH1 0x20 DUP4 ADD DUP5 PUSH2 0x2059 JUMP JUMPDEST PUSH1 0x1 PUSH1 0x1 PUSH1 0xA0 SHL SUB DUP2 AND DUP2 EQ PUSH2 0x124E JUMPI PUSH0 DUP1 REVERT JUMPDEST PUSH0 DUP1 PUSH1 0x40 DUP4 DUP6 SUB SLT ISZERO PUSH2 0x20BB JUMPI PUSH0 DUP1 REVERT JUMPDEST DUP3 CALLDATALOAD PUSH2 0x20C6 DUP2 PUSH2 0x2096 JUMP JUMPDEST SWAP5 PUSH1 0x20 SWAP4 SWAP1 SWAP4 ADD CALLDATALOAD SWAP4 POP POP POP JUMP JUMPDEST PUSH0 PUSH1 0x20 DUP3 DUP5 SUB SLT ISZERO PUSH2 0x20E4 JUMPI PUSH0 DUP1 REVERT JUMPDEST POP CALLDATALOAD SWAP2 SWAP1 POP JUMP JUMPDEST PUSH0 DUP1 PUSH0 PUSH1 0x60 DUP5 DUP7 SUB SLT ISZERO PUSH2 0x20FD JUMPI PUSH0 DUP1 REVERT JUMPDEST DUP4 CALLDATALOAD PUSH2 0x2108 DUP2 PUSH2 0x2096 JUMP JUMPDEST SWAP3 POP PUSH1 0x20 DUP5 ADD CALLDATALOAD PUSH2 0x2118 DUP2 PUSH2 0x2096 JUMP JUMPDEST SWAP3 SWAP6 SWAP3 SWAP5 POP POP POP PUSH1 0x40 SWAP2 SWAP1 SWAP2 ADD CALLDATALOAD SWAP1 JUMP JUMPDEST PUSH0 PUSH1 0x40 DUP3 DUP5 SUB SLT ISZERO PUSH2 0x2139 JUMPI PUSH0 DUP1 REVERT JUMPDEST POP SWAP2 SWAP1 POP JUMP JUMPDEST PUSH0 PUSH1 0x20 DUP3 DUP5 SUB SLT ISZERO PUSH2 0x214F JUMPI PUSH0 DUP1 REVERT JUMPDEST DUP2 CALLDATALOAD PUSH8 0xFFFFFFFFFFFFFFFF DUP2 GT ISZERO PUSH2 0x2165 JUMPI PUSH0 DUP1 REVERT JUMPDEST PUSH2 0x1E37 DUP5 DUP3 DUP6 ADD PUSH2 0x2129 JUMP JUMPDEST PUSH1 0x20 DUP1 DUP3 MSTORE DUP3 MLOAD DUP3 DUP3 ADD DUP2 SWAP1 MSTORE PUSH0 SWAP2 SWAP1 PUSH1 0x40 SWAP1 DUP2 DUP6 ADD SWAP1 DUP7 DUP5 ADD DUP6 JUMPDEST DUP3 DUP2 LT ISZERO PUSH2 0x21BB JUMPI DUP2 MLOAD DUP1 MLOAD PUSH1 0x1 PUSH1 0x1 PUSH1 0xA0 SHL SUB AND DUP6 MSTORE DUP7 ADD MLOAD DUP7 DUP6 ADD MSTORE SWAP3 DUP5 ADD SWAP3 SWAP1 DUP6 ADD SWAP1 PUSH1 0x1 ADD PUSH2 0x218D JUMP JUMPDEST POP SWAP2 SWAP8 SWAP7 POP POP POP POP POP POP POP JUMP JUMPDEST PUSH0 PUSH1 0x20 DUP3 DUP5 SUB SLT ISZERO PUSH2 0x21D8 JUMPI PUSH0 DUP1 REVERT JUMPDEST DUP2 CALLDATALOAD PUSH2 0x1E06 DUP2 PUSH2 0x2096 JUMP JUMPDEST PUSH0 DUP1 DUP4 PUSH1 0x1F DUP5 ADD SLT PUSH2 0x21F3 JUMPI PUSH0 DUP1 REVERT JUMPDEST POP DUP2 CALLDATALOAD PUSH8 0xFFFFFFFFFFFFFFFF DUP2 GT ISZERO PUSH2 0x220A JUMPI PUSH0 DUP1 REVERT JUMPDEST PUSH1 0x20 DUP4 ADD SWAP2 POP DUP4 PUSH1 0x20 DUP3 PUSH1 0x5 SHL DUP6 ADD ADD GT ISZERO PUSH2 0x2224 JUMPI PUSH0 DUP1 REVERT JUMPDEST SWAP3 POP SWAP3 SWAP1 POP JUMP JUMPDEST DUP1 CALLDATALOAD PUSH2 0xFFFF DUP2 AND DUP2 EQ PUSH2 0x223C JUMPI PUSH0 DUP1 REVERT JUMPDEST SWAP2 SWAP1 POP JUMP JUMPDEST PUSH0 DUP1 PUSH0 DUP1 PUSH0 DUP1 PUSH1 0x80 DUP8 DUP10 SUB SLT ISZERO PUSH2 0x2256 JUMPI PUSH0 DUP1 REVERT JUMPDEST DUP7 CALLDATALOAD PUSH8 0xFFFFFFFFFFFFFFFF DUP1 DUP3 GT ISZERO PUSH2 0x226D JUMPI PUSH0 DUP1 REVERT JUMPDEST PUSH2 0x2279 DUP11 DUP4 DUP12 ADD PUSH2 0x21E3 JUMP JUMPDEST SWAP1 SWAP9 POP SWAP7 POP PUSH1 0x20 DUP10 ADD CALLDATALOAD SWAP2 POP DUP1 DUP3 GT ISZERO PUSH2 0x2291 JUMPI PUSH0 DUP1 REVERT JUMPDEST POP PUSH2 0x229E DUP10 DUP3 DUP11 ADD PUSH2 0x21E3 JUMP JUMPDEST SWAP1 SWAP6 POP SWAP4 POP PUSH2 0x22B1 SWAP1 POP PUSH1 0x40 DUP9 ADD PUSH2 0x222B JUMP JUMPDEST SWAP2 POP PUSH2 0x22BF PUSH1 0x60 DUP9 ADD PUSH2 0x222B JUMP JUMPDEST SWAP1 POP SWAP3 SWAP6 POP SWAP3 SWAP6 POP SWAP3 SWAP6 JUMP JUMPDEST DUP1 CALLDATALOAD PUSH1 0x2 DUP2 LT PUSH2 0x223C JUMPI PUSH0 DUP1 REVERT JUMPDEST PUSH4 0x4E487B71 PUSH1 0xE0 SHL PUSH0 MSTORE PUSH1 0x41 PUSH1 0x4 MSTORE PUSH1 0x24 PUSH0 REVERT JUMPDEST PUSH1 0x40 MLOAD PUSH1 0x1F DUP3 ADD PUSH1 0x1F NOT AND DUP2 ADD PUSH8 0xFFFFFFFFFFFFFFFF DUP2 GT DUP3 DUP3 LT OR ISZERO PUSH2 0x2316 JUMPI PUSH2 0x2316 PUSH2 0x22D9 JUMP JUMPDEST PUSH1 0x40 MSTORE SWAP2 SWAP1 POP JUMP JUMPDEST PUSH0 DUP1 PUSH0 DUP1 PUSH0 PUSH1 0xA0 DUP7 DUP9 SUB SLT ISZERO PUSH2 0x2332 JUMPI PUSH0 DUP1 REVERT JUMPDEST DUP6 CALLDATALOAD PUSH2 0x233D DUP2 PUSH2 0x2096 JUMP JUMPDEST SWAP5 POP PUSH1 0x20 DUP7 DUP2 ADD CALLDATALOAD SWAP5 POP PUSH2 0x2353 PUSH1 0x40 DUP9 ADD PUSH2 0x22CB JUMP JUMPDEST SWAP4 POP PUSH1 0x60 DUP8 ADD CALLDATALOAD PUSH2 0x2363 DUP2 PUSH2 0x2096 JUMP JUMPDEST SWAP3 POP PUSH1 0x80 DUP8 ADD CALLDATALOAD PUSH8 0xFFFFFFFFFFFFFFFF DUP1 DUP3 GT ISZERO PUSH2 0x237F JUMPI PUSH0 DUP1 REVERT JUMPDEST DUP2 DUP10 ADD SWAP2 POP DUP10 PUSH1 0x1F DUP4 ADD SLT PUSH2 0x2392 JUMPI PUSH0 DUP1 REVERT JUMPDEST DUP2 CALLDATALOAD DUP2 DUP2 GT ISZERO PUSH2 0x23A4 JUMPI PUSH2 0x23A4 PUSH2 0x22D9 JUMP JUMPDEST PUSH2 0x23B6 PUSH1 0x1F DUP3 ADD PUSH1 0x1F NOT AND DUP6 ADD PUSH2 0x22ED JUMP JUMPDEST SWAP2 POP DUP1 DUP3 MSTORE DUP11 DUP5 DUP3 DUP6 ADD ADD GT ISZERO PUSH2 0x23CB JUMPI PUSH0 DUP1 REVERT JUMPDEST DUP1 DUP5 DUP5 ADD DUP6 DUP5 ADD CALLDATACOPY PUSH0 DUP5 DUP3 DUP5 ADD ADD MSTORE POP DUP1 SWAP4 POP POP POP POP SWAP3 SWAP6 POP SWAP3 SWAP6 SWAP1 SWAP4 POP JUMP JUMPDEST PUSH0 DUP1 PUSH1 0x40 DUP4 DUP6 SUB SLT ISZERO PUSH2 0x23FC JUMPI PUSH0 DUP1 REVERT JUMPDEST DUP3 CALLDATALOAD SWAP2 POP PUSH1 0x20 DUP4 ADD CALLDATALOAD PUSH8 0xFFFFFFFFFFFFFFFF DUP2 GT ISZERO PUSH2 0x2419 JUMPI PUSH0 DUP1 REVERT JUMPDEST PUSH2 0x2425 DUP6 DUP3 DUP7 ADD PUSH2 0x2129 JUMP JUMPDEST SWAP2 POP POP SWAP3 POP SWAP3 SWAP1 POP JUMP JUMPDEST PUSH0 DUP1 PUSH1 0x40 DUP4 DUP6 SUB SLT ISZERO PUSH2 0x2440 JUMPI PUSH0 DUP1 REVERT JUMPDEST DUP3 CALLDATALOAD PUSH2 0x244B DUP2 PUSH2 0x2096 JUMP JUMPDEST SWAP2 POP PUSH1 0x20 DUP4 ADD CALLDATALOAD PUSH2 0x245B DUP2 PUSH2 0x2096 JUMP JUMPDEST DUP1 SWAP2 POP POP SWAP3 POP SWAP3 SWAP1 POP JUMP JUMPDEST PUSH1 0x1 DUP2 DUP2 SHR SWAP1 DUP3 AND DUP1 PUSH2 0x247A JUMPI PUSH1 0x7F DUP3 AND SWAP2 POP JUMPDEST PUSH1 0x20 DUP3 LT DUP2 SUB PUSH2 0x2139 JUMPI PUSH4 0x4E487B71 PUSH1 0xE0 SHL PUSH0 MSTORE PUSH1 0x22 PUSH1 0x4 MSTORE PUSH1 0x24 PUSH0 REVERT JUMPDEST PUSH4 0x4E487B71 PUSH1 0xE0 SHL PUSH0 MSTORE PUSH1 0x11 PUSH1 0x4 MSTORE PUSH1 0x24 PUSH0 REVERT JUMPDEST DUP1 DUP3 MUL DUP2 ISZERO DUP3 DUP3 DIV DUP5 EQ OR PUSH2 0x69A JUMPI PUSH2 0x69A PUSH2 0x2498 JUMP JUMPDEST PUSH0 DUP3 PUSH2 0x24DD JUMPI PUSH4 0x4E487B71 PUSH1 0xE0 SHL PUSH0 MSTORE PUSH1 0x12 PUSH1 0x4 MSTORE PUSH1 0x24 PUSH0 REVERT JUMPDEST POP DIV SWAP1 JUMP JUMPDEST DUP2 DUP2 SUB DUP2 DUP2 GT ISZERO PUSH2 0x69A JUMPI PUSH2 0x69A PUSH2 0x2498 JUMP JUMPDEST DUP1 DUP3 ADD DUP1 DUP3 GT ISZERO PUSH2 0x69A JUMPI PUSH2 0x69A PUSH2 0x2498 JUMP JUMPDEST PUSH0 PUSH1 0x20 DUP3 DUP5 SUB SLT ISZERO PUSH2 0x2518 JUMPI PUSH0 DUP1 REVERT JUMPDEST DUP2 MLOAD PUSH2 0x1E06 DUP2 PUSH2 0x2096 JUMP JUMPDEST PUSH4 0x4E487B71 PUSH1 0xE0 SHL PUSH0 MSTORE PUSH1 0x32 PUSH1 0x4 MSTORE PUSH1 0x24 PUSH0 REVERT JUMPDEST PUSH0 DUP1 DUP4 CALLDATALOAD PUSH1 0x1E NOT DUP5 CALLDATASIZE SUB ADD DUP2 SLT PUSH2 0x254C JUMPI PUSH0 DUP1 REVERT JUMPDEST DUP4 ADD DUP1 CALLDATALOAD SWAP2 POP PUSH8 0xFFFFFFFFFFFFFFFF DUP3 GT ISZERO PUSH2 0x2566 JUMPI PUSH0 DUP1 REVERT JUMPDEST PUSH1 0x20 ADD SWAP2 POP PUSH1 0x5 DUP2 SWAP1 SHL CALLDATASIZE SUB DUP3 SGT ISZERO PUSH2 0x2224 JUMPI PUSH0 DUP1 REVERT JUMPDEST PUSH0 DUP3 CALLDATALOAD PUSH1 0x3E NOT DUP4 CALLDATASIZE SUB ADD DUP2 SLT PUSH2 0x2591 JUMPI PUSH0 DUP1 REVERT JUMPDEST SWAP2 SWAP1 SWAP2 ADD SWAP3 SWAP2 POP POP JUMP JUMPDEST PUSH0 PUSH1 0x20 DUP3 DUP5 SUB SLT ISZERO PUSH2 0x25AB JUMPI PUSH0 DUP1 REVERT JUMPDEST PUSH2 0x1E06 DUP3 PUSH2 0x22CB JUMP JUMPDEST PUSH0 DUP1 DUP4 CALLDATALOAD PUSH1 0x1E NOT DUP5 CALLDATASIZE SUB ADD DUP2 SLT PUSH2 0x25C9 JUMPI PUSH0 DUP1 REVERT JUMPDEST DUP4 ADD DUP1 CALLDATALOAD SWAP2 POP PUSH8 0xFFFFFFFFFFFFFFFF DUP3 GT ISZERO PUSH2 0x25E3 JUMPI PUSH0 DUP1 REVERT JUMPDEST PUSH1 0x20 ADD SWAP2 POP CALLDATASIZE DUP2 SWAP1 SUB DUP3 SGT ISZERO PUSH2 0x2224 JUMPI PUSH0 DUP1 REVERT JUMPDEST PUSH4 0x4E487B71 PUSH1 0xE0 SHL PUSH0 MSTORE PUSH1 0x21 PUSH1 0x4 MSTORE PUSH1 0x24 PUSH0 REVERT JUMPDEST PUSH1 0x1 PUSH1 0x1 PUSH1 0xA0 SHL SUB DUP8 DUP2 AND DUP3 MSTORE PUSH1 0x20 DUP3 ADD DUP8 SWAP1 MSTORE PUSH0 SWAP1 PUSH1 0x2 DUP8 LT PUSH2 0x263D JUMPI PUSH4 0x4E487B71 PUSH1 0xE0 SHL PUSH0 MSTORE PUSH1 0x21 PUSH1 0x4 MSTORE PUSH1 0x24 PUSH0 REVERT JUMPDEST DUP7 PUSH1 0x40 DUP5 ADD MSTORE DUP1 DUP7 AND PUSH1 0x60 DUP5 ADD MSTORE POP PUSH1 0xA0 PUSH1 0x80 DUP4 ADD MSTORE DUP3 PUSH1 0xA0 DUP4 ADD MSTORE DUP3 DUP5 PUSH1 0xC0 DUP5 ADD CALLDATACOPY PUSH0 PUSH1 0xC0 DUP5 DUP5 ADD ADD MSTORE PUSH1 0xC0 PUSH1 0x1F NOT PUSH1 0x1F DUP6 ADD AND DUP4 ADD ADD SWAP1 POP SWAP8 SWAP7 POP POP POP POP POP POP POP JUMP JUMPDEST PUSH0 PUSH1 0x20 DUP3 DUP5 SUB SLT ISZERO PUSH2 0x2692 JUMPI PUSH0 DUP1 REVERT JUMPDEST POP MLOAD SWAP2 SWAP1 POP JUMP JUMPDEST PUSH0 PUSH1 0x1 DUP3 ADD PUSH2 0x26AA JUMPI PUSH2 0x26AA PUSH2 0x2498 JUMP JUMPDEST POP PUSH1 0x1 ADD SWAP1 JUMP JUMPDEST PUSH0 PUSH1 0x20 DUP3 DUP5 SUB SLT ISZERO PUSH2 0x26C1 JUMPI PUSH0 DUP1 REVERT JUMPDEST DUP2 MLOAD DUP1 ISZERO ISZERO DUP2 EQ PUSH2 0x1E06 JUMPI PUSH0 DUP1 REVERT JUMPDEST PUSH1 0x40 DUP1 DUP3 MSTORE DUP2 ADD DUP5 SWAP1 MSTORE PUSH0 DUP6 PUSH1 0x60 DUP4 ADD DUP3 JUMPDEST DUP8 DUP2 LT ISZERO PUSH2 0x2712 JUMPI DUP3 CALLDATALOAD PUSH2 0x26F5 DUP2 PUSH2 0x2096 JUMP JUMPDEST PUSH1 0x1 PUSH1 0x1 PUSH1 0xA0 SHL SUB AND DUP3 MSTORE PUSH1 0x20 SWAP3 DUP4 ADD SWAP3 SWAP1 SWAP2 ADD SWAP1 PUSH1 0x1 ADD PUSH2 0x26E2 JUMP JUMPDEST POP DUP4 DUP2 SUB PUSH1 0x20 DUP6 ADD MSTORE DUP5 DUP2 MSTORE PUSH1 0x1 PUSH1 0x1 PUSH1 0xFB SHL SUB DUP6 GT ISZERO PUSH2 0x2731 JUMPI PUSH0 DUP1 REVERT JUMPDEST DUP5 PUSH1 0x5 SHL SWAP2 POP DUP2 DUP7 PUSH1 0x20 DUP4 ADD CALLDATACOPY ADD PUSH1 0x20 ADD SWAP7 SWAP6 POP POP POP POP POP POP JUMP JUMPDEST PUSH0 DUP3 MLOAD PUSH2 0x2591 DUP2 DUP5 PUSH1 0x20 DUP8 ADD PUSH2 0x2037 JUMP JUMPDEST PUSH0 PUSH8 0xFFFFFFFFFFFFFFFF DUP3 GT ISZERO PUSH2 0x2776 JUMPI PUSH2 0x2776 PUSH2 0x22D9 JUMP JUMPDEST POP PUSH1 0x5 SHL PUSH1 0x20 ADD SWAP1 JUMP JUMPDEST PUSH0 PUSH1 0x20 DUP1 DUP4 DUP6 SUB SLT ISZERO PUSH2 0x2791 JUMPI PUSH0 DUP1 REVERT JUMPDEST DUP3 MLOAD PUSH8 0xFFFFFFFFFFFFFFFF DUP2 GT ISZERO PUSH2 0x27A7 JUMPI PUSH0 DUP1 REVERT JUMPDEST DUP4 ADD PUSH1 0x1F DUP2 ADD DUP6 SGT PUSH2 0x27B7 JUMPI PUSH0 DUP1 REVERT JUMPDEST DUP1 MLOAD PUSH2 0x27CA PUSH2 0x27C5 DUP3 PUSH2 0x275D JUMP JUMPDEST PUSH2 0x22ED JUMP JUMPDEST DUP2 DUP2 MSTORE PUSH1 0x5 SWAP2 SWAP1 SWAP2 SHL DUP3 ADD DUP4 ADD SWAP1 DUP4 DUP2 ADD SWAP1 DUP8 DUP4 GT ISZERO PUSH2 0x27E8 JUMPI PUSH0 DUP1 REVERT JUMPDEST SWAP3 DUP5 ADD SWAP3 JUMPDEST DUP3 DUP5 LT ISZERO PUSH2 0x280F JUMPI DUP4 MLOAD PUSH2 0x2800 DUP2 PUSH2 0x2096 JUMP JUMPDEST DUP3 MSTORE SWAP3 DUP5 ADD SWAP3 SWAP1 DUP5 ADD SWAP1 PUSH2 0x27ED JUMP JUMPDEST SWAP8 SWAP7 POP POP POP POP POP POP POP JUMP JUMPDEST PUSH0 DUP2 MLOAD DUP1 DUP5 MSTORE PUSH1 0x20 DUP1 DUP6 ADD SWAP5 POP DUP1 DUP5 ADD PUSH0 JUMPDEST DUP4 DUP2 LT ISZERO PUSH2 0x2851 JUMPI DUP2 MLOAD PUSH1 0x1 PUSH1 0x1 PUSH1 0xA0 SHL SUB AND DUP8 MSTORE SWAP6 DUP3 ADD SWAP6 SWAP1 DUP3 ADD SWAP1 PUSH1 0x1 ADD PUSH2 0x282C JUMP JUMPDEST POP SWAP5 SWAP6 SWAP5 POP POP POP POP POP JUMP JUMPDEST DUP3 DUP2 MSTORE PUSH1 0x40 PUSH1 0x20 DUP3 ADD MSTORE PUSH0 PUSH2 0x1E37 PUSH1 0x40 DUP4 ADD DUP5 PUSH2 0x281A JUMP JUMPDEST PUSH0 PUSH1 0x20 DUP1 DUP4 DUP6 SUB SLT ISZERO PUSH2 0x2885 JUMPI PUSH0 DUP1 REVERT JUMPDEST DUP3 MLOAD PUSH8 0xFFFFFFFFFFFFFFFF DUP2 GT ISZERO PUSH2 0x289B JUMPI PUSH0 DUP1 REVERT JUMPDEST DUP4 ADD PUSH1 0x1F DUP2 ADD DUP6 SGT PUSH2 0x28AB JUMPI PUSH0 DUP1 REVERT JUMPDEST DUP1 MLOAD PUSH2 0x28B9 PUSH2 0x27C5 DUP3 PUSH2 0x275D JUMP JUMPDEST DUP2 DUP2 MSTORE PUSH1 0x5 SWAP2 SWAP1 SWAP2 SHL DUP3 ADD DUP4 ADD SWAP1 DUP4 DUP2 ADD SWAP1 DUP8 DUP4 GT ISZERO PUSH2 0x28D7 JUMPI PUSH0 DUP1 REVERT JUMPDEST SWAP3 DUP5 ADD SWAP3 JUMPDEST DUP3 DUP5 LT ISZERO PUSH2 0x280F JUMPI DUP4 MLOAD DUP3 MSTORE SWAP3 DUP5 ADD SWAP3 SWAP1 DUP5 ADD SWAP1 PUSH2 0x28DC JUMP JUMPDEST DUP6 DUP2 MSTORE DUP5 PUSH1 0x20 DUP3 ADD MSTORE PUSH1 0xA0 PUSH1 0x40 DUP3 ADD MSTORE PUSH0 PUSH2 0x2913 PUSH1 0xA0 DUP4 ADD DUP7 PUSH2 0x281A JUMP JUMPDEST PUSH1 0x1 PUSH1 0x1 PUSH1 0xA0 SHL SUB SWAP5 SWAP1 SWAP5 AND PUSH1 0x60 DUP4 ADD MSTORE POP PUSH1 0x80 ADD MSTORE SWAP4 SWAP3 POP POP POP JUMP JUMPDEST PUSH1 0x40 DUP2 MSTORE PUSH0 PUSH2 0x2942 PUSH1 0x40 DUP4 ADD DUP6 PUSH2 0x2059 JUMP JUMPDEST SWAP1 POP DUP3 PUSH1 0x20 DUP4 ADD MSTORE SWAP4 SWAP3 POP POP POP JUMP JUMPDEST PUSH1 0x20 DUP2 MSTORE PUSH0 DUP3 MLOAD PUSH1 0xA0 PUSH1 0x20 DUP5 ADD MSTORE PUSH2 0x296C PUSH1 0xC0 DUP5 ADD DUP3 PUSH2 0x2059 JUMP JUMPDEST SWAP1 POP PUSH1 0x1 DUP1 PUSH1 0xA0 SHL SUB PUSH1 0x20 DUP6 ADD MLOAD AND PUSH1 0x40 DUP5 ADD MSTORE PUSH1 0x40 DUP5 ADD MLOAD PUSH1 0x60 DUP5 ADD MSTORE PUSH1 0x60 DUP5 ADD MLOAD PUSH1 0x80 DUP5 ADD MSTORE PUSH1 0x80 DUP5 ADD MLOAD PUSH1 0xA0 DUP5 ADD MSTORE DUP1 SWAP2 POP POP SWAP3 SWAP2 POP POP JUMP INVALID LOG2 PUSH5 0x6970667358 0x22 SLT KECCAK256 0xD6 0xD7 BASEFEE PUSH0 DUP4 0xB5 CALLDATASIZE MULMOD PUSH19 0x3C5A9DB24FEB3FA34DC943E63DD8000C174762 SLT 0xD9 PUSH28 0xE364736F6C6343000814003300000000000000000000000000000000 "
		},
		"gasEstimates": {
			"creation": {
				"codeDepositCost": "2143600",
				"executionCost": "infinite",
				"totalCost": "infinite"
			},
			"external": {
				"allowance(address,address)": "infinite",
				"approve(address,uint256)": "24775",
				"balanceOf(address)": "2596",
				"decimals()": "288",
				"deposit(((bytes,uint8)[],uint256))": "infinite",
				"depositFee()": "2369",
				"ethDepositedFailed(address)": "2621",
				"failedSwaps(uint256)": "8976",
				"getAllTokens()": "infinite",
				"initialedTokens()": "2387",
				"initializeTokens(address[],uint256[],uint16,uint16)": "infinite",
				"name()": "infinite",
				"owner()": "2440",
				"renounceOwnership()": "infinite",
				"setSlippageTolerance(uint256)": "22439",
				"slippageTolerance()": "2338",
				"swapTokenForToken(address,uint256,uint8,address,bytes)": "infinite",
				"symbol()": "infinite",
				"totalSupply()": "2348",
				"transfer(address,uint256)": "51290",
				"transferFrom(address,address,uint256)": "infinite",
				"transferOwnership(address)": "infinite",
				"uniswapV2Router()": "2382",
				"uniswapV3Quoter()": "2447",
				"uniswapV3Router()": "2404",
				"userFailedSwaps(address)": "2555",
				"withdrawFeesByOwner(address)": "infinite",
				"withdrawInKind(uint256)": "infinite",
				"withdrawToETH(uint256,((bytes,uint8)[],uint256))": "infinite",
				"withdrawalFee()": "2401"
			}
		},
		"methodIdentifiers": {
			"allowance(address,address)": "dd62ed3e",
			"approve(address,uint256)": "095ea7b3",
			"balanceOf(address)": "70a08231",
			"decimals()": "313ce567",
			"deposit(((bytes,uint8)[],uint256))": "27e3f5b9",
			"depositFee()": "67a52793",
			"ethDepositedFailed(address)": "c38cd0b5",
			"failedSwaps(uint256)": "378a653c",
			"getAllTokens()": "2a5c792a",
			"initialedTokens()": "81a06b73",
			"initializeTokens(address[],uint256[],uint16,uint16)": "3f595e29",
			"name()": "06fdde03",
			"owner()": "8da5cb5b",
			"renounceOwnership()": "715018a6",
			"setSlippageTolerance(uint256)": "117da1ee",
			"slippageTolerance()": "d03153aa",
			"swapTokenForToken(address,uint256,uint8,address,bytes)": "74a66061",
			"symbol()": "95d89b41",
			"totalSupply()": "18160ddd",
			"transfer(address,uint256)": "a9059cbb",
			"transferFrom(address,address,uint256)": "23b872dd",
			"transferOwnership(address)": "f2fde38b",
			"uniswapV2Router()": "1694505e",
			"uniswapV3Quoter()": "4d20d0f8",
			"uniswapV3Router()": "2c76d7a6",
			"userFailedSwaps(address)": "36a43f2b",
			"withdrawFeesByOwner(address)": "a738c7df",
			"withdrawInKind(uint256)": "3043d4d9",
			"withdrawToETH(uint256,((bytes,uint8)[],uint256))": "d9a5663b",
			"withdrawalFee()": "8bc7e8c4"
		}
	},
	"abi": [
		{
			"inputs": [
				{
					"internalType": "string",
					"name": "_name",
					"type": "string"
				},
				{
					"internalType": "string",
					"name": "_symbol",
					"type": "string"
				},
				{
					"internalType": "address",
					"name": "_uniswapV2Router",
					"type": "address"
				},
				{
					"internalType": "address",
					"name": "_uniswapV3Router",
					"type": "address"
				},
				{
					"internalType": "address",
					"name": "_uniswapV3Quoter",
					"type": "address"
				}
			],
			"stateMutability": "nonpayable",
			"type": "constructor"
		},
		{
			"inputs": [
				{
					"internalType": "address",
					"name": "spender",
					"type": "address"
				},
				{
					"internalType": "uint256",
					"name": "allowance",
					"type": "uint256"
				},
				{
					"internalType": "uint256",
					"name": "needed",
					"type": "uint256"
				}
			],
			"name": "ERC20InsufficientAllowance",
			"type": "error"
		},
		{
			"inputs": [
				{
					"internalType": "address",
					"name": "sender",
					"type": "address"
				},
				{
					"internalType": "uint256",
					"name": "balance",
					"type": "uint256"
				},
				{
					"internalType": "uint256",
					"name": "needed",
					"type": "uint256"
				}
			],
			"name": "ERC20InsufficientBalance",
			"type": "error"
		},
		{
			"inputs": [
				{
					"internalType": "address",
					"name": "approver",
					"type": "address"
				}
			],
			"name": "ERC20InvalidApprover",
			"type": "error"
		},
		{
			"inputs": [
				{
					"internalType": "address",
					"name": "receiver",
					"type": "address"
				}
			],
			"name": "ERC20InvalidReceiver",
			"type": "error"
		},
		{
			"inputs": [
				{
					"internalType": "address",
					"name": "sender",
					"type": "address"
				}
			],
			"name": "ERC20InvalidSender",
			"type": "error"
		},
		{
			"inputs": [
				{
					"internalType": "address",
					"name": "spender",
					"type": "address"
				}
			],
			"name": "ERC20InvalidSpender",
			"type": "error"
		},
		{
			"inputs": [
				{
					"internalType": "address",
					"name": "owner",
					"type": "address"
				}
			],
			"name": "OwnableInvalidOwner",
			"type": "error"
		},
		{
			"inputs": [
				{
					"internalType": "address",
					"name": "account",
					"type": "address"
				}
			],
			"name": "OwnableUnauthorizedAccount",
			"type": "error"
		},
		{
			"anonymous": false,
			"inputs": [
				{
					"indexed": false,
					"internalType": "address[]",
					"name": "_tokens",
					"type": "address[]"
				},
				{
					"indexed": false,
					"internalType": "uint256[]",
					"name": "_targetPercentage",
					"type": "uint256[]"
				}
			],
			"name": "AddToken",
			"type": "event"
		},
		{
			"anonymous": false,
			"inputs": [
				{
					"indexed": true,
					"internalType": "address",
					"name": "owner",
					"type": "address"
				},
				{
					"indexed": true,
					"internalType": "address",
					"name": "spender",
					"type": "address"
				},
				{
					"indexed": false,
					"internalType": "uint256",
					"name": "value",
					"type": "uint256"
				}
			],
			"name": "Approval",
			"type": "event"
		},
		{
			"anonymous": false,
			"inputs": [
				{
					"indexed": true,
					"internalType": "address",
					"name": "previousOwner",
					"type": "address"
				},
				{
					"indexed": true,
					"internalType": "address",
					"name": "newOwner",
					"type": "address"
				}
			],
			"name": "OwnershipTransferred",
			"type": "event"
		},
		{
			"anonymous": false,
			"inputs": [
				{
					"indexed": true,
					"internalType": "address",
					"name": "from",
					"type": "address"
				},
				{
					"indexed": true,
					"internalType": "address",
					"name": "to",
					"type": "address"
				},
				{
					"indexed": false,
					"internalType": "uint256",
					"name": "value",
					"type": "uint256"
				}
			],
			"name": "Transfer",
			"type": "event"
		},
		{
			"inputs": [
				{
					"internalType": "address",
					"name": "owner",
					"type": "address"
				},
				{
					"internalType": "address",
					"name": "spender",
					"type": "address"
				}
			],
			"name": "allowance",
			"outputs": [
				{
					"internalType": "uint256",
					"name": "",
					"type": "uint256"
				}
			],
			"stateMutability": "view",
			"type": "function"
		},
		{
			"inputs": [
				{
					"internalType": "address",
					"name": "spender",
					"type": "address"
				},
				{
					"internalType": "uint256",
					"name": "value",
					"type": "uint256"
				}
			],
			"name": "approve",
			"outputs": [
				{
					"internalType": "bool",
					"name": "",
					"type": "bool"
				}
			],
			"stateMutability": "nonpayable",
			"type": "function"
		},
		{
			"inputs": [
				{
					"internalType": "address",
					"name": "account",
					"type": "address"
				}
			],
			"name": "balanceOf",
			"outputs": [
				{
					"internalType": "uint256",
					"name": "",
					"type": "uint256"
				}
			],
			"stateMutability": "view",
			"type": "function"
		},
		{
			"inputs": [],
			"name": "decimals",
			"outputs": [
				{
					"internalType": "uint8",
					"name": "",
					"type": "uint8"
				}
			],
			"stateMutability": "view",
			"type": "function"
		},
		{
			"inputs": [
				{
					"components": [
						{
							"components": [
								{
									"internalType": "bytes",
									"name": "path",
									"type": "bytes"
								},
								{
									"internalType": "enum Version",
									"name": "version",
									"type": "uint8"
								}
							],
							"internalType": "struct Direction[]",
							"name": "directions",
							"type": "tuple[]"
						},
						{
							"internalType": "uint256",
							"name": "amountIn",
							"type": "uint256"
						}
					],
					"internalType": "struct SwapPath",
					"name": "_swapath",
					"type": "tuple"
				}
			],
			"name": "deposit",
			"outputs": [],
			"stateMutability": "payable",
			"type": "function"
		},
		{
			"inputs": [],
			"name": "depositFee",
			"outputs": [
				{
					"internalType": "uint16",
					"name": "",
					"type": "uint16"
				}
			],
			"stateMutability": "view",
			"type": "function"
		},
		{
			"inputs": [
				{
					"internalType": "address",
					"name": "",
					"type": "address"
				}
			],
			"name": "ethDepositedFailed",
			"outputs": [
				{
					"internalType": "uint256",
					"name": "",
					"type": "uint256"
				}
			],
			"stateMutability": "view",
			"type": "function"
		},
		{
			"inputs": [
				{
					"internalType": "uint256",
					"name": "",
					"type": "uint256"
				}
			],
			"name": "failedSwaps",
			"outputs": [
				{
					"internalType": "address",
					"name": "user",
					"type": "address"
				},
				{
					"internalType": "contract IERC20",
					"name": "token",
					"type": "address"
				},
				{
					"internalType": "uint256",
					"name": "amount",
					"type": "uint256"
				}
			],
			"stateMutability": "view",
			"type": "function"
		},
		{
			"inputs": [],
			"name": "getAllTokens",
			"outputs": [
				{
					"components": [
						{
							"internalType": "contract IERC20",
							"name": "token",
							"type": "address"
						},
						{
							"internalType": "uint256",
							"name": "targetPercentage",
							"type": "uint256"
						}
					],
					"internalType": "struct TokenInfo[]",
					"name": "",
					"type": "tuple[]"
				}
			],
			"stateMutability": "view",
			"type": "function"
		},
		{
			"inputs": [],
			"name": "initialedTokens",
			"outputs": [
				{
					"internalType": "bool",
					"name": "",
					"type": "bool"
				}
			],
			"stateMutability": "view",
			"type": "function"
		},
		{
			"inputs": [
				{
					"internalType": "address[]",
					"name": "_tokens",
					"type": "address[]"
				},
				{
					"internalType": "uint256[]",
					"name": "_targetPercentages",
					"type": "uint256[]"
				},
				{
					"internalType": "uint16",
					"name": "_withdrawalFee",
					"type": "uint16"
				},
				{
					"internalType": "uint16",
					"name": "_depositFee",
					"type": "uint16"
				}
			],
			"name": "initializeTokens",
			"outputs": [],
			"stateMutability": "nonpayable",
			"type": "function"
		},
		{
			"inputs": [],
			"name": "name",
			"outputs": [
				{
					"internalType": "string",
					"name": "",
					"type": "string"
				}
			],
			"stateMutability": "view",
			"type": "function"
		},
		{
			"inputs": [],
			"name": "owner",
			"outputs": [
				{
					"internalType": "address",
					"name": "",
					"type": "address"
				}
			],
			"stateMutability": "view",
			"type": "function"
		},
		{
			"inputs": [],
			"name": "renounceOwnership",
			"outputs": [],
			"stateMutability": "nonpayable",
			"type": "function"
		},
		{
			"inputs": [
				{
					"internalType": "uint256",
					"name": "_slippageTolerance",
					"type": "uint256"
				}
			],
			"name": "setSlippageTolerance",
			"outputs": [],
			"stateMutability": "nonpayable",
			"type": "function"
		},
		{
			"inputs": [],
			"name": "slippageTolerance",
			"outputs": [
				{
					"internalType": "uint256",
					"name": "",
					"type": "uint256"
				}
			],
			"stateMutability": "view",
			"type": "function"
		},
		{
			"inputs": [
				{
					"internalType": "contract IERC20",
					"name": "_token",
					"type": "address"
				},
				{
					"internalType": "uint256",
					"name": "_amountIn",
					"type": "uint256"
				},
				{
					"internalType": "enum Version",
					"name": "_version",
					"type": "uint8"
				},
				{
					"internalType": "address",
					"name": "_receiver",
					"type": "address"
				},
				{
					"internalType": "bytes",
					"name": "_path",
					"type": "bytes"
				}
			],
			"name": "swapTokenForToken",
			"outputs": [
				{
					"internalType": "uint256",
					"name": "",
					"type": "uint256"
				}
			],
			"stateMutability": "nonpayable",
			"type": "function"
		},
		{
			"inputs": [],
			"name": "symbol",
			"outputs": [
				{
					"internalType": "string",
					"name": "",
					"type": "string"
				}
			],
			"stateMutability": "view",
			"type": "function"
		},
		{
			"inputs": [],
			"name": "totalSupply",
			"outputs": [
				{
					"internalType": "uint256",
					"name": "",
					"type": "uint256"
				}
			],
			"stateMutability": "view",
			"type": "function"
		},
		{
			"inputs": [
				{
					"internalType": "address",
					"name": "to",
					"type": "address"
				},
				{
					"internalType": "uint256",
					"name": "value",
					"type": "uint256"
				}
			],
			"name": "transfer",
			"outputs": [
				{
					"internalType": "bool",
					"name": "",
					"type": "bool"
				}
			],
			"stateMutability": "nonpayable",
			"type": "function"
		},
		{
			"inputs": [
				{
					"internalType": "address",
					"name": "from",
					"type": "address"
				},
				{
					"internalType": "address",
					"name": "to",
					"type": "address"
				},
				{
					"internalType": "uint256",
					"name": "value",
					"type": "uint256"
				}
			],
			"name": "transferFrom",
			"outputs": [
				{
					"internalType": "bool",
					"name": "",
					"type": "bool"
				}
			],
			"stateMutability": "nonpayable",
			"type": "function"
		},
		{
			"inputs": [
				{
					"internalType": "address",
					"name": "newOwner",
					"type": "address"
				}
			],
			"name": "transferOwnership",
			"outputs": [],
			"stateMutability": "nonpayable",
			"type": "function"
		},
		{
			"inputs": [],
			"name": "uniswapV2Router",
			"outputs": [
				{
					"internalType": "contract IUniswapV2Router02",
					"name": "",
					"type": "address"
				}
			],
			"stateMutability": "view",
			"type": "function"
		},
		{
			"inputs": [],
			"name": "uniswapV3Quoter",
			"outputs": [
				{
					"internalType": "contract IUniswapV3Quoter",
					"name": "",
					"type": "address"
				}
			],
			"stateMutability": "view",
			"type": "function"
		},
		{
			"inputs": [],
			"name": "uniswapV3Router",
			"outputs": [
				{
					"internalType": "contract ISwapRouter",
					"name": "",
					"type": "address"
				}
			],
			"stateMutability": "view",
			"type": "function"
		},
		{
			"inputs": [
				{
					"internalType": "address",
					"name": "",
					"type": "address"
				}
			],
			"name": "userFailedSwaps",
			"outputs": [
				{
					"internalType": "uint256",
					"name": "",
					"type": "uint256"
				}
			],
			"stateMutability": "view",
			"type": "function"
		},
		{
			"inputs": [
				{
					"internalType": "address",
					"name": "_receiverFeeAddress",
					"type": "address"
				}
			],
			"name": "withdrawFeesByOwner",
			"outputs": [],
			"stateMutability": "nonpayable",
			"type": "function"
		},
		{
			"inputs": [
				{
					"internalType": "uint256",
					"name": "tokenAmount",
					"type": "uint256"
				}
			],
			"name": "withdrawInKind",
			"outputs": [],
			"stateMutability": "nonpayable",
			"type": "function"
		},
		{
			"inputs": [
				{
					"internalType": "uint256",
					"name": "tokenAmount",
					"type": "uint256"
				},
				{
					"components": [
						{
							"components": [
								{
									"internalType": "bytes",
									"name": "path",
									"type": "bytes"
								},
								{
									"internalType": "enum Version",
									"name": "version",
									"type": "uint8"
								}
							],
							"internalType": "struct Direction[]",
							"name": "directions",
							"type": "tuple[]"
						},
						{
							"internalType": "uint256",
							"name": "amountIn",
							"type": "uint256"
						}
					],
					"internalType": "struct SwapPath",
					"name": "_swapath",
					"type": "tuple"
				}
			],
			"name": "withdrawToETH",
			"outputs": [],
			"stateMutability": "nonpayable",
			"type": "function"
		},
		{
			"inputs": [],
			"name": "withdrawalFee",
			"outputs": [
				{
					"internalType": "uint16",
					"name": "",
					"type": "uint16"
				}
			],
			"stateMutability": "view",
			"type": "function"
		}
	]
}