{
	"data": {
		"bytecode": {
			"linkReferences": {},
			"object": "608060405234801561000f575f80fd5b5060405161653638038061653683398101604081905261002e91610194565b60408051808201825260078152660a0b28e8e8aa8960cb1b602080830191909152825180840190935260048352630a08aa8960e31b9083015290338061008d57604051631e4fbdf760e01b81525f600482015260240160405180910390fd5b6100968161012a565b505f805460ff60a01b1916905560046100af838261026c565b5060056100bc828261026c565b5050600780546001600160a01b039586166001600160a01b03199182161790915560088054948616948216949094179093555060098054919093169116179055335f908152600a60205260409020805460ff191660011790556103e86010556064600f819055600e55610326565b5f80546001600160a01b038381166001600160a01b0319831681178455604051919092169283917f8be0079c531659141344cd1fd0a4f28419497f9722a3daafe3b4186f6b6457e09190a35050565b80516001600160a01b038116811461018f575f80fd5b919050565b5f805f606084860312156101a6575f80fd5b6101af84610179565b92506101bd60208501610179565b91506101cb60408501610179565b90509250925092565b634e487b7160e01b5f52604160045260245ffd5b600181811c908216806101fc57607f821691505b60208210810361021a57634e487b7160e01b5f52602260045260245ffd5b50919050565b601f82111561026757805f5260205f20601f840160051c810160208510156102455750805b601f840160051c820191505b81811015610264575f8155600101610251565b50505b505050565b81516001600160401b03811115610285576102856101d4565b6102998161029384546101e8565b84610220565b6020601f8211600181146102cb575f83156102b45750848201515b5f19600385901b1c1916600184901b178455610264565b5f84815260208120601f198516915b828110156102fa57878501518255602094850194600190920191016102da565b508482101561031757868401515f19600387901b60f8161c191681555b50505050600190811b01905550565b616203806103335f395ff3fe60806040526004361061028b575f3560e01c806360d27451116101555780639b19251a116100be578063d0e30db011610078578063d0e30db0146107c8578063dd62ed3e146107d0578063e7ae65ab14610814578063f2fde38b14610833578063f7e625a314610852578063fa3b564914610867575f80fd5b80639b19251a146106fd578063a38e9e661461072b578063a738c7df1461074a578063a9059cbb14610769578063c38cd0b514610788578063d03153aa146107b3575f80fd5b806386bc55db1161010f57806386bc55db1461066257806386c14663146106775780638bc7e8c41461068c5780638da5cb5b146106a157806391ebe50f146106bd57806395d89b41146106e9575f80fd5b806360d27451146105b357806367a52793146105d257806370a08231146105e7578063715018a61461061b578063780d57101461062f5780638456cb591461064e575f80fd5b80632e1a7d4d116101f75780633d7526f7116101b15780633d7526f7146105065780633f4ba83a146105255780634d20d0f81461053957806353d6fd59146105585780635643a5a7146105775780635c975abb14610596575f80fd5b80632e1a7d4d1461042f5780632e63a1561461044e578063313ce5671461047d57806336a43f2b14610498578063378a653c146104c357806339c0f5d2146104f3575f80fd5b806318160ddd1161024857806318160ddd1461037e57806323b872dd1461039c578063246f972f146103bb5780632a5c792a146103d05780632c76d7a6146103f15780632c9351a114610410575f80fd5b806306fdde031461028f578063095ea7b3146102b95780630b78f9c0146102e857806311667aa514610309578063117da1ee146103285780631694505e14610347575b5f80fd5b34801561029a575f80fd5b506102a361087b565b6040516102b091906154cb565b60405180910390f35b3480156102c4575f80fd5b506102d86102d33660046154f1565b61090b565b60405190151581526020016102b0565b3480156102f3575f80fd5b5061030761030236600461551b565b610924565b005b348015610314575f80fd5b506102d86103233660046155a1565b6109b0565b348015610333575f80fd5b50610307610342366004615636565b610b85565b348015610352575f80fd5b50600754610366906001600160a01b031681565b6040516001600160a01b0390911681526020016102b0565b348015610389575f80fd5b506003545b6040519081526020016102b0565b3480156103a7575f80fd5b506102d86103b636600461564d565b610bcd565b3480156103c6575f80fd5b5061038e60125481565b3480156103db575f80fd5b506103e4610bf0565b6040516102b0919061568b565b3480156103fc575f80fd5b50600854610366906001600160a01b031681565b34801561041b575f80fd5b5061030761042a366004615636565b610d0f565b34801561043a575f80fd5b50610307610449366004615636565b611226565b348015610459575f80fd5b5061046d610468366004615636565b6119a2565b6040516102b09493929190615727565b348015610488575f80fd5b50604051601281526020016102b0565b3480156104a3575f80fd5b5061038e6104b2366004615763565b600c6020525f908152604090205481565b3480156104ce575f80fd5b506104e26104dd366004615636565b611a72565b6040516102b095949392919061577e565b610307610501366004615849565b611b4d565b348015610511575f80fd5b50610307610520366004615763565b611f11565b348015610530575f80fd5b5061030761226f565b348015610544575f80fd5b50600954610366906001600160a01b031681565b348015610563575f80fd5b506103076105723660046158bb565b6122b5565b348015610582575f80fd5b5061038e6105913660046155a1565b6122e7565b3480156105a1575f80fd5b505f54600160a01b900460ff166102d8565b3480156105be575f80fd5b506103076105cd366004615939565b612413565b3480156105dd575f80fd5b5061038e600e5481565b3480156105f2575f80fd5b5061038e610601366004615763565b6001600160a01b03165f9081526001602052604090205490565b348015610626575f80fd5b5061030761264b565b34801561063a575f80fd5b506103076106493660046155a1565b61265e565b348015610659575f80fd5b50610307612a46565b34801561066d575f80fd5b5061038e60135481565b348015610682575f80fd5b5061038e60145481565b348015610697575f80fd5b5061038e600f5481565b3480156106ac575f80fd5b505f546001600160a01b0316610366565b3480156106c8575f80fd5b506106dc6106d7366004615763565b612a86565b6040516102b09190615a03565b3480156106f4575f80fd5b506102a3612c96565b348015610708575f80fd5b506102d8610717366004615763565b600a6020525f908152604090205460ff1681565b348015610736575f80fd5b50610307610745366004615849565b612ca5565b348015610755575f80fd5b50610307610764366004615763565b612e0f565b348015610774575f80fd5b506102d86107833660046154f1565b612f9d565b348015610793575f80fd5b5061038e6107a2366004615763565b600d6020525f908152604090205481565b3480156107be575f80fd5b5061038e60105481565b610307612faa565b3480156107db575f80fd5b5061038e6107ea366004615aa5565b6001600160a01b039182165f90815260026020908152604080832093909416825291909152205490565b34801561081f575f80fd5b5061038e61082e366004615849565b61337f565b34801561083e575f80fd5b5061030761084d366004615763565b613713565b34801561085d575f80fd5b5061038e60115481565b348015610872575f80fd5b5061030761374d565b60606004805461088a90615ad1565b80601f01602080910402602001604051908101604052809291908181526020018280546108b690615ad1565b80156109015780601f106108d857610100808354040283529160200191610901565b820191905f5260205f20905b8154815290600101906020018083116108e457829003601f168201915b5050505050905090565b5f33610918818585613c88565b60019150505b92915050565b61092c613c95565b61271082111561096b5760405162461bcd60e51b8152602060048201526005602482015264216466656560d81b60448201526064015b60405180910390fd5b6127108111156109a55760405162461bcd60e51b8152602060048201526005602482015264217766656560d81b6044820152606401610962565b600e91909155600f55565b60065481515f91146109ea5760405162461bcd60e51b815260206004820152600360248201526208541360ea1b6044820152606401610962565b5f6109f4836122e7565b90505f8111610a2e5760405162461bcd60e51b815260040161096290602080825260049082015263054563e360e41b604082015260600190565b5f5b600654811015610b7c575f60068281548110610a4e57610a4e615b09565b905f5260205f20906004020190505f610aeb868481518110610a7257610a72615b09565b602090810291909101015183546040516370a0823160e01b81523060048201526001600160a01b03909116906370a0823190602401602060405180830381865afa158015610ac2573d5f803e3d5ffd5b505050506040513d601f19601f82011682018060405250810190610ae69190615b1d565b613cc1565b90505f8111610b255760405162461bcd60e51b815260040161096290602080825260049082015263043503e360e41b604082015260600190565b5f84610b3383612710615b48565b610b3d9190615b5f565b90508260010154811115610b58575060019695505050505050565b8260010154811015610b71575060019695505050505050565b505050600101610a30565b505f9392505050565b610b8d613c95565b612710811115610bc85760405162461bcd60e51b815260040161096290602080825260049082015263021534c560e41b604082015260600190565b601055565b5f33610bda858285613cd3565b610be5858585613d48565b506001949350505050565b60606006805480602002602001604051908101604052809291908181526020015f905b82821015610d06575f848152602090819020604080516080810182526004860290920180546001600160a01b0316835260018101549383019390935260028301805492939291840191610c6590615ad1565b80601f0160208091040260200160405190810160405280929190818152602001828054610c9190615ad1565b8015610cdc5780601f10610cb357610100808354040283529160200191610cdc565b820191905f5260205f20905b815481529060010190602001808311610cbf57829003601f168201915b50505091835250506003919091015462ffffff166020918201529082526001929092019101610c13565b50505050905090565b610d17613da5565b5f8111610d365760405162461bcd60e51b815260040161096290615b7e565b6040516370a0823160e01b8152336004820152819030906370a0823190602401602060405180830381865afa158015610d71573d5f803e3d5ffd5b505050506040513d601f19601f82011682018060405250810190610d959190615b1d565b1015610dd35760405162461bcd60e51b815260206004820152600d60248201526c08525b9cdd59999a58da595b9d609a1b6044820152606401610962565b5f610ddd60035490565b610de983612710615b48565b610df39190615b5f565b90505f81118015610e0657506127108111155b610e3c5760405162461bcd60e51b81526020600482015260076024820152660302631303030360cc1b6044820152606401610962565b600754604080516315ab88c960e31b815290515f926001600160a01b03169163ad5c46489160048083019260209291908290030181865afa158015610e83573d5f803e3d5ffd5b505050506040513d601f19601f82011682018060405250810190610ea79190615b9a565b90505f805f5b600654811015611066575f60068281548110610ecb57610ecb615b09565b5f9182526020822060049182020180546040516370a0823160e01b815230938101939093529093506127109189916001600160a01b0316906370a0823190602401602060405180830381865afa158015610f27573d5f803e3d5ffd5b505050506040513d601f19601f82011682018060405250810190610f4b9190615b1d565b610f559190615b48565b610f5f9190615b5f565b8254600384015460405163e7ae65ab60e01b81529293505f92309263e7ae65ab92610fa7926001600160a01b0390921691879160028a019162ffffff90911690600401615bb5565b6020604051808303815f875af1158015610fc3573d5f803e3d5ffd5b505050506040513d601f19601f82011682018060405250810190610fe79190615b1d565b9050604051602001610ff890615c5e565b60405160208183030381529060405280519060200120836002016040516020016110229190615c6c565b604051602081830303815290604052805190602001200361104e576110478186615cdd565b945061105b565b6110588187615cdd565b95505b505050600101610ead565b506110713386613dcf565b801561112a575f612710600f54836110899190615b48565b6110939190615b5f565b90505f6110a08284615cf0565b90508160125f8282546110b39190615cdd565b909155505060405163a9059cbb60e01b8152336004820152602481018290526001600160a01b0386169063a9059cbb906044016020604051808303815f875af1158015611102573d5f803e3d5ffd5b505050506040513d601f19601f820116820180604052508101906111269190615d03565b5050505b811561121f575f612710600f54846111429190615b48565b61114c9190615b5f565b90505f6111598285615cf0565b90508160115f82825461116c9190615cdd565b9091555050335f908152600d60205260408120549061118b8383615cdd565b6040519091505f90339083908381818185875af1925050503d805f81146111cd576040519150601f19603f3d011682016040523d82523d5f602084013e6111d2565b606091505b50509050806112195760405162461bcd60e51b8152602060048201526013602482015272115512081d1c985b9cd9995c8819985a5b1959606a1b6044820152606401610962565b50505050505b5050505050565b61122e613da5565b5f811161124d5760405162461bcd60e51b815260040161096290615b7e565b6040516370a0823160e01b8152336004820152819030906370a0823190602401602060405180830381865afa158015611288573d5f803e3d5ffd5b505050506040513d601f19601f820116820180604052508101906112ac9190615b1d565b10156112e95760405162461bcd60e51b815260206004820152600c60248201526b125b9cdd59999a58da595b9d60a21b6044820152606401610962565b5f6112f360035490565b6112ff83612710615b48565b6113099190615b5f565b90505f8111801561131c57506127108111155b6113525760405162461bcd60e51b81526020600482015260076024820152660302631303030360cc1b6044820152606401610962565b5f5b6006548110156118e6575f6006828154811061137257611372615b09565b5f9182526020822060049182020180546040516370a0823160e01b815230938101939093529093506127109186916001600160a01b0316906370a0823190602401602060405180830381865afa1580156113ce573d5f803e3d5ffd5b505050506040513d601f19601f820116820180604052508101906113f29190615b1d565b6113fc9190615b48565b6114069190615b5f565b90505f612710600f548361141a9190615b48565b6114249190615b5f565b90505f6114318284615cf0565b845460405163a9059cbb60e01b8152336004820152602481018390529192506001600160a01b03169063a9059cbb906044016020604051808303815f875af115801561147f573d5f803e3d5ffd5b505050506040513d601f19601f820116820180604052508101906114a39190615d03565b506040516020016114b390615d1e565b60405160208183030381529060405280519060200120846002016040516020016114dd9190615c6c565b60405160208183030381529060405280519060200120036116c5576040805160028082526060820183525f926020830190803683375050865482519293506001600160a01b0316918391505f9061153657611536615b09565b6001600160a01b03928316602091820292909201810191909152600754604080516315ab88c960e31b81529051919093169263ad5c46489260048083019391928290030181865afa15801561158d573d5f803e3d5ffd5b505050506040513d601f19601f820116820180604052508101906115b19190615b9a565b816001815181106115c4576115c4615b09565b6001600160a01b03928316602091820292909201015260075460405163d06ca61f60e01b81525f92919091169063d06ca61f906116079087908690600401615d6f565b5f60405180830381865afa158015611621573d5f803e3d5ffd5b505050506040513d5f823e601f3d908101601f191682016040526116489190810190615d87565b90505f61271060105461271061165e9190615cf0565b8360018151811061167157611671615b09565b60200260200101516116839190615b48565b61168d9190615b5f565b87549091506116a7906001600160a01b0316868330613e03565b60115f8282546116b79190615cdd565b909155506118d69350505050565b6040516020016116d490615c5e565b60405160208183030381529060405280519060200120846002016040516020016116fe9190615c6c565b604051602081830303815290604052805190602001200361188e5783546003850154600754604080516315ab88c960e31b815290515f946001600160a01b039081169462ffffff1693169163ad5c46489160048083019260209291908290030181865afa158015611771573d5f803e3d5ffd5b505050506040513d601f19601f820116820180604052508101906117959190615b9a565b6040516020016117a793929190615e0d565b60408051601f198184030181529082905260095463cdca175360e01b83529092505f916001600160a01b039091169063cdca1753906117ec9085908890600401615e48565b6020604051808303815f875af1158015611808573d5f803e3d5ffd5b505050506040513d601f19601f8201168201806040525081019061182c9190615b1d565b90505f6127106010546127106118429190615cf0565b61184c9084615b48565b6118569190615b5f565b8754600389015491925061187e916001600160a01b0390911690879062ffffff168430613fee565b60125f8282546116b79190615cdd565b60405162461bcd60e51b815260206004820152601760248201527f496e76616c696420556e69737761702076657273696f6e0000000000000000006044820152606401610962565b5050600190920191506113549050565b506118f13383613dcf565b335f908152600d60205260408120546127109061190f908490615b48565b6119199190615b5f565b905080801561199c576040515f90339083908381818185875af1925050503d805f8114611961576040519150601f19603f3d011682016040523d82523d5f602084013e611966565b606091505b505090508061121f5760405162461bcd60e51b81526020600482015260026024820152612a2960f11b6044820152606401610962565b50505050565b600681815481106119b1575f80fd5b5f9182526020909120600490910201805460018201546002830180546001600160a01b0390931694509092916119e690615ad1565b80601f0160208091040260200160405190810160405280929190818152602001828054611a1290615ad1565b8015611a5d5780601f10611a3457610100808354040283529160200191611a5d565b820191905f5260205f20905b815481529060010190602001808311611a4057829003601f168201915b5050506003909301549192505062ffffff1684565b600b8181548110611a81575f80fd5b5f91825260209091206005909102018054600182015460028301546003840180546001600160a01b039485169650929093169390929091611ac190615ad1565b80601f0160208091040260200160405190810160405280929190818152602001828054611aed90615ad1565b8015611b385780601f10611b0f57610100808354040283529160200191611b38565b820191905f5260205f20905b815481529060010190602001808311611b1b57829003601f168201915b5050506004909301549192505062ffffff1685565b604051602001611b5c90615d1e565b6040516020818303038152906040528051906020012082604051602001611b839190615e69565b6040516020818303038152906040528051906020012003611d4e576040805160028082526060820183525f926020830190803683375050600754604080516315ab88c960e31b815290519394506001600160a01b039091169263ad5c4648925060048083019260209291908290030181865afa158015611c05573d5f803e3d5ffd5b505050506040513d601f19601f82011682018060405250810190611c299190615b9a565b815f81518110611c3b57611c3b615b09565b60200260200101906001600160a01b031690816001600160a01b0316815250508481600181518110611c6f57611c6f615b09565b6001600160a01b03928316602091820292909201015260075460405163d06ca61f60e01b81525f92919091169063d06ca61f90611cb29088908690600401615d6f565b5f60405180830381865afa158015611ccc573d5f803e3d5ffd5b505050506040513d5f823e601f3d908101601f19168201604052611cf39190810190615d87565b90505f612710601054612710611d099190615cf0565b83600181518110611d1c57611d1c615b09565b6020026020010151611d2e9190615b48565b611d389190615b5f565b9050611d458787836141ad565b5050505061199c565b604051602001611d5d90615c5e565b6040516020818303038152906040528051906020012082604051602001611d849190615e69565b6040516020818303038152906040528051906020012003611ee357600754604080516315ab88c960e31b815290515f926001600160a01b03169163ad5c46489160048083019260209291908290030181865afa158015611de6573d5f803e3d5ffd5b505050506040513d601f19601f82011682018060405250810190611e0a9190615b9a565b8286604051602001611e1e93929190615e0d565b60408051601f198184030181529082905260095463cdca175360e01b83529092505f916001600160a01b039091169063cdca175390611e639085908990600401615e48565b6020604051808303815f875af1158015611e7f573d5f803e3d5ffd5b505050506040513d601f19601f82011682018060405250810190611ea39190615b1d565b90505f612710601054612710611eb99190615cf0565b611ec39084615b48565b611ecd9190615b5f565b9050611edb8787868461430a565b50505061199c565b60405162461bcd60e51b815260206004820152600360248201526210aaab60e91b6044820152606401610962565b611f19613c95565b5f5b600b5481101561226b57816001600160a01b0316600b8281548110611f4257611f42615b09565b5f9182526020909120600590910201546001600160a01b031603612263575f600b8281548110611f7457611f74615b09565b5f9182526020918290206040805160a081018252600590930290910180546001600160a01b03908116845260018201541693830193909352600283015490820152600382018054919291606084019190611fcd90615ad1565b80601f0160208091040260200160405190810160405280929190818152602001828054611ff990615ad1565b80156120445780601f1061201b57610100808354040283529160200191612044565b820191905f5260205f20905b81548152906001019060200180831161202757829003601f168201915b505050918352505060049182015462ffffff1660209182015260408084015191840151606085015160808601519251631ce07ae960e11b815295965030956339c0f5d29561209794869392909101615727565b5f604051808303818588803b1580156120ae575f80fd5b505af1935050505080156120c0575060015b61222f576040805160a0810182523381526020838101516001600160a01b039081169183019182528484015193830193845260608086015190840190815260808087015162ffffff1690850152600b80546001810182555f91909152845160059091027f0175b7a638427703f0dbe7bb9bbf987a2551717b34e79f33b5b1008d1fa01db9810180549285166001600160a01b031993841617815594517f0175b7a638427703f0dbe7bb9bbf987a2551717b34e79f33b5b1008d1fa01dba820180549190951692169190911790925593517f0175b7a638427703f0dbe7bb9bbf987a2551717b34e79f33b5b1008d1fa01dbb8201559251919290917f0175b7a638427703f0dbe7bb9bbf987a2551717b34e79f33b5b1008d1fa01dbc909101906121e99082615ec3565b50608091909101516004909101805462ffffff191662ffffff909216919091179055335f908152600c6020526040812080549161222583615f80565b9190505550612261565b6122388261443c565b6001600160a01b0383165f908152600c6020526040812080549161225b83615f98565b91905055505b505b600101611f1b565b5050565b612277613c95565b61227f614598565b6040513381527f5db9ee0a495bf2e6ff9c91a7834c1ba4fdd244a5e8aa4e537bd38aeae4b073aa906020015b60405180910390a1565b6122bd613c95565b6001600160a01b03919091165f908152600a60205260409020805460ff1916911515919091179055565b60065481515f911461232b5760405162461bcd60e51b815260206004820152600d60248201526c042e0e4d2c6cae6d8cadccee8d609b1b6044820152606401610962565b5f805b60065481101561240c575f6006828154811061234c5761234c615b09565b5f9182526020822060049182020180546040516370a0823160e01b815230938101939093529093506001600160a01b0316906370a0823190602401602060405180830381865afa1580156123a2573d5f803e3d5ffd5b505050506040513d601f19601f820116820180604052508101906123c69190615b1d565b90505f8684815181106123db576123db615b09565b6020026020010151905080826123f19190615b48565b6123fb9086615cdd565b9450506001909201915061232e9050565b5092915050565b61241b613c95565b868514801561242957508683145b801561243457508681145b61246f5760405162461bcd60e51b815260206004820152600c60248201526b214d6973736c656e6774687360a01b6044820152606401610962565b5f5b878110156126405761271087878381811061248e5761248e615b09565b9050602002013511156124d15760405162461bcd60e51b815260206004820152600b60248201526a2170657263656e7461676560a81b6044820152606401610962565b600660405180608001604052808b8b858181106124f0576124f0615b09565b90506020020160208101906125059190615763565b6001600160a01b0316815260200189898581811061252557612525615b09565b90506020020135815260200187878581811061254357612543615b09565b90506020028101906125559190615fad565b8080601f0160208091040260200160405190810160405280939291908181526020018383808284375f920191909152505050908252506020018585858181106125a0576125a0615b09565b90506020020160208101906125b59190615fef565b62ffffff1690528154600180820184555f938452602093849020835160049093020180546001600160a01b0319166001600160a01b039093169290921782559282015192810192909255604081015190919060028201906126169082615ec3565b50606091909101516003909101805462ffffff191662ffffff909216919091179055600101612471565b505050505050505050565b612653613c95565b61265c5f6145e7565b565b612666613c95565b61266e613da5565b6006548151146126a65760405162461bcd60e51b815260206004820152600360248201526208541360ea1b6044820152606401610962565b5f6126b0826122e7565b90505f81116126e95760405162461bcd60e51b815260206004820152600560248201526407476213d360dc1b6044820152606401610962565b5f5b600654811015612a41575f6006828154811061270957612709615b09565b905f5260205f20906004020190505f61272d858481518110610a7257610a72615b09565b90505f81116127675760405162461bcd60e51b815260040161096290602080825260049082015263063703e360e41b604082015260600190565b5f8461277583612710615b48565b61277f9190615b5f565b905082600101548111156128d3575f83600101548261279e9190615cf0565b90505f6127106127ae8884615b48565b6127b89190615b5f565b90505f8887815181106127cd576127cd615b09565b6020026020010151826127e09190615b5f565b90505f811161281d5760405162461bcd60e51b8152602060048201526009602482015268616d6f756e743e305360b81b6044820152606401610962565b85546002870180546128ca926001600160a01b031691849161283e90615ad1565b80601f016020809104026020016040519081016040528092919081815260200182805461286a90615ad1565b80156128b55780601f1061288c576101008083540402835291602001916128b5565b820191905f5260205f20905b81548152906001019060200180831161289857829003601f168201915b5050505060038b015462ffffff169050614636565b50505050612a36565b8260010154811015612a36575f8184600101546128f09190615cf0565b90505f6127106129008884615b48565b61290a9190615b5f565b90505f88878151811061291f5761291f615b09565b6020026020010151826129329190615b5f565b90505f811161296f5760405162461bcd60e51b815260206004820152600960248201526830b6b7bab73a1f182160b91b6044820152606401610962565b5f601354118061298057505f601454115b15612a32578554600287018054612a32926001600160a01b03169184916129a690615ad1565b80601f01602080910402602001604051908101604052809291908181526020018280546129d290615ad1565b8015612a1d5780601f106129f457610100808354040283529160200191612a1d565b820191905f5260205f20905b815481529060010190602001808311612a0057829003601f168201915b5050505060038b015462ffffff169050614b58565b5050505b5050506001016126eb565b505050565b612a4e613c95565b612a566151bc565b6040513381527f62e78cea01bee320cd4e420270b5ea74000d11b0c9f74754ebdbfc544b05a258906020016122ab565b6001600160a01b0381165f908152600c6020526040812054606091906001600160401b03811115612ab957612ab961553b565b604051908082528060200260200182016040528015612b0f57816020015b6040805160a0810182525f8082526020808301829052928201819052606080830152608082015282525f19909201910181612ad75790505b5090505f805b600b54811015612c8d57846001600160a01b0316600b8281548110612b3c57612b3c615b09565b5f9182526020909120600590910201546001600160a01b031603612c8557600b8181548110612b6d57612b6d615b09565b5f9182526020918290206040805160a081018252600590930290910180546001600160a01b03908116845260018201541693830193909352600283015490820152600382018054919291606084019190612bc690615ad1565b80601f0160208091040260200160405190810160405280929190818152602001828054612bf290615ad1565b8015612c3d5780601f10612c1457610100808354040283529160200191612c3d565b820191905f5260205f20905b815481529060010190602001808311612c2057829003601f168201915b50505091835250506004919091015462ffffff166020909101528351849084908110612c6b57612c6b615b09565b60200260200101819052508180612c8190615f80565b9250505b600101612b15565b50909392505050565b60606005805461088a90615ad1565b612cad613c95565b612710831115612cea5760405162461bcd60e51b8152602060048201526008602482015267021503e31303030360c41b6044820152606401610962565b5f805b600654811015612dd857856001600160a01b031660068281548110612d1457612d14615b09565b5f9182526020909120600490910201546001600160a01b031603612dd0578460068281548110612d4657612d46615b09565b905f5260205f209060040201600101819055508360068281548110612d6d57612d6d615b09565b905f5260205f2090600402016002019081612d889190615ec3565b508260068281548110612d9d57612d9d615b09565b905f5260205f2090600402016003015f6101000a81548162ffffff021916908362ffffff16021790555060019150612dd8565b600101612ced565b508061121f5760405162461bcd60e51b815260206004820152600660248201526510ba37b5b2b760d11b6044820152606401610962565b612e17613c95565b60115415612eb0576011546040515f916001600160a01b038416918381818185875af1925050503d805f8114612e68576040519150601f19603f3d011682016040523d82523d5f602084013e612e6d565b606091505b5050905080612eaa5760405162461bcd60e51b815260206004820152600960248201526808c8292988a888aa8960bb1b6044820152606401610962565b505f6011555b60125415612f9a57600754604080516315ab88c960e31b815290515f926001600160a01b03169163ad5c46489160048083019260209291908290030181865afa158015612eff573d5f803e3d5ffd5b505050506040513d601f19601f82011682018060405250810190612f239190615b9a565b60125460405163a9059cbb60e01b81526001600160a01b038581166004830152602482019290925291925082169063a9059cbb906044016020604051808303815f875af1158015612f76573d5f803e3d5ffd5b505050506040513d601f19601f82011682018060405250810190612a419190615d03565b50565b5f33610918818585613d48565b335f908152600a602052604090205460ff16612ff15760405162461bcd60e51b8152600401610962906020808252600490820152630855d21560e21b604082015260600190565b612ff9613da5565b5f341161302e5760405162461bcd60e51b8152602060048201526003602482015262414d4760e81b6044820152606401610962565b5f612710600e54346130409190615b48565b61304a9190615b5f565b90505f6130578234615cf0565b90508160115f82825461306a9190615cdd565b9091555050806130cf5760405162461bcd60e51b815260206004820152602a60248201527f416d6f756e7420616674657220666565206d7573742062652067726561746572604482015269207468616e207a65726f60b01b6064820152608401610962565b6130d933826151fe565b5f5b600654811015612a41575f600682815481106130f9576130f9615b09565b905f5260205f20906004020190505f61271082600101548561311b9190615b48565b6131259190615b5f565b90508381111561316b5760405162461bcd60e51b815260206004820152601160248201527063616c4554483c3d616d6f756e7466656560781b6044820152606401610962565b81546003830154604051631ce07ae960e11b815230926339c0f5d29285926131ac926001600160a01b031691849160028a019162ffffff1690600401615bb5565b5f604051808303818588803b1580156131c3575f80fd5b505af1935050505080156131d5575060015b61337557335f908152600d6020526040812080548392906131f7908490615cdd565b90915550506040805160a08101825233815283546001600160a01b03166020820152908101829052600283018054600b9291606083019161323790615ad1565b80601f016020809104026020016040519081016040528092919081815260200182805461326390615ad1565b80156132ae5780601f10613285576101008083540402835291602001916132ae565b820191905f5260205f20905b81548152906001019060200180831161329157829003601f168201915b505050918352505060038581015462ffffff166020928301528354600180820186555f95865294839020845160059092020180546001600160a01b03199081166001600160a01b039384161782559385015195810180549094169590911694909417909155604082015160028401556060820151919291908201906133339082615ec3565b50608091909101516004909101805462ffffff191662ffffff909216919091179055335f908152600c6020526040812080549161336f83615f80565b91905055505b50506001016130db565b5f60405160200161338f90615d1e565b60405160208183030381529060405280519060200120836040516020016133b69190615e69565b6040516020818303038152906040528051906020012003613573576040805160028082526060820183525f9260208301908036833701905050905085815f8151811061340457613404615b09565b6001600160a01b03928316602091820292909201810191909152600754604080516315ab88c960e31b81529051919093169263ad5c46489260048083019391928290030181865afa15801561345b573d5f803e3d5ffd5b505050506040513d601f19601f8201168201806040525081019061347f9190615b9a565b8160018151811061349257613492615b09565b6001600160a01b03928316602091820292909201015260075460405163d06ca61f60e01b81525f92919091169063d06ca61f906134d59089908690600401615d6f565b5f60405180830381865afa1580156134ef573d5f803e3d5ffd5b505050506040513d5f823e601f3d908101601f191682016040526135169190810190615d87565b90505f61271060105461271061352c9190615cf0565b8360018151811061353f5761353f615b09565b60200260200101516135519190615b48565b61355b9190615b5f565b905061356988888330613e03565b935050505061370b565b60405160200161358290615c5e565b60405160208183030381529060405280519060200120836040516020016135a99190615e69565b6040516020818303038152906040528051906020012003611ee3575f858360075f9054906101000a90046001600160a01b03166001600160a01b031663ad5c46486040518163ffffffff1660e01b8152600401602060405180830381865afa158015613617573d5f803e3d5ffd5b505050506040513d601f19601f8201168201806040525081019061363b9190615b9a565b60405160200161364d93929190615e0d565b60408051601f198184030181529082905260095463cdca175360e01b83529092505f916001600160a01b039091169063cdca1753906136929085908a90600401615e48565b6020604051808303815f875af11580156136ae573d5f803e3d5ffd5b505050506040513d601f19601f820116820180604052508101906136d29190615b1d565b90505f6127106010546127106136e89190615cf0565b6136f29084615b48565b6136fc9190615b5f565b90506135698888878430613fee565b949350505050565b61371b613c95565b6001600160a01b03811661374457604051631e4fbdf760e01b81525f6004820152602401610962565b612f9a816145e7565b613755613c95565b5f805b600654811015613c00575f6006828154811061377657613776615b09565b5f9182526020822060049182020180546040516370a0823160e01b815230938101939093529093506001600160a01b0316906370a0823190602401602060405180830381865afa1580156137cc573d5f803e3d5ffd5b505050506040513d601f19601f820116820180604052508101906137f09190615b1d565b905060405160200161380190615d1e565b604051602081830303815290604052805190602001208260020160405160200161382b9190615c6c565b6040516020818303038152906040528051906020012003613a09576040805160028082526060820183525f926020830190803683375050845482519293506001600160a01b0316918391505f9061388457613884615b09565b6001600160a01b03928316602091820292909201810191909152600754604080516315ab88c960e31b81529051919093169263ad5c46489260048083019391928290030181865afa1580156138db573d5f803e3d5ffd5b505050506040513d601f19601f820116820180604052508101906138ff9190615b9a565b8160018151811061391257613912615b09565b6001600160a01b03928316602091820292909201015260075460405163d06ca61f60e01b81525f92919091169063d06ca61f906139559086908690600401615d6f565b5f60405180830381865afa15801561396f573d5f803e3d5ffd5b505050506040513d5f823e601f3d908101601f191682016040526139969190810190615d87565b90505f6127106010546127106139ac9190615cf0565b836001815181106139bf576139bf615b09565b60200260200101516139d19190615b48565b6139db9190615b5f565b85549091506139f5906001600160a01b0316858333613e03565b6139ff9088615cdd565b9650505050613bf6565b604051602001613a1890615c5e565b6040516020818303038152906040528051906020012082600201604051602001613a429190615c6c565b6040516020818303038152906040528051906020012003613bc25781546003830154600754604080516315ab88c960e31b815290515f946001600160a01b039081169462ffffff1693169163ad5c46489160048083019260209291908290030181865afa158015613ab5573d5f803e3d5ffd5b505050506040513d601f19601f82011682018060405250810190613ad99190615b9a565b604051602001613aeb93929190615e0d565b60408051601f198184030181529082905260095463cdca175360e01b83529092505f916001600160a01b039091169063cdca175390613b309085908790600401615e48565b6020604051808303815f875af1158015613b4c573d5f803e3d5ffd5b505050506040513d601f19601f82011682018060405250810190613b709190615b1d565b90505f612710601054612710613b869190615cf0565b613b909084615b48565b613b9a9190615b5f565b855460038701549192506139f5916001600160a01b0390911690869062ffffff168433613fee565b60405162461bcd60e51b8152602060048201526009602482015268496e76616c6964565360b81b6044820152606401610962565b5050600101613758565b508015612f9a576040515f90339083908381818185875af1925050503d805f8114613c46576040519150601f19603f3d011682016040523d82523d5f602084013e613c4b565b606091505b505090508061226b5760405162461bcd60e51b815260206004820152600960248201526808c8292988a888aa8960bb1b6044820152606401610962565b612a418383836001615232565b5f546001600160a01b0316331461265c5760405163118cdaa760e01b8152336004820152602401610962565b5f613ccc8383615b48565b9392505050565b6001600160a01b038381165f908152600260209081526040808320938616835292905220545f19811461199c5781811015613d3a57604051637dc7a0d960e11b81526001600160a01b03841660048201526024810182905260448101839052606401610962565b61199c84848484035f615232565b6001600160a01b038316613d7157604051634b637e8f60e11b81525f6004820152602401610962565b6001600160a01b038216613d9a5760405163ec442f0560e01b81525f6004820152602401610962565b612a41838383615304565b5f54600160a01b900460ff161561265c5760405163d93c066560e01b815260040160405180910390fd5b6001600160a01b038216613df857604051634b637e8f60e11b81525f6004820152602401610962565b61226b825f83615304565b6040805160028082526060820183525f928392919060208301908036833701905050905085815f81518110613e3a57613e3a615b09565b6001600160a01b03928316602091820292909201810191909152600754604080516315ab88c960e31b81529051919093169263ad5c46489260048083019391928290030181865afa158015613e91573d5f803e3d5ffd5b505050506040513d601f19601f82011682018060405250810190613eb59190615b9a565b81600181518110613ec857613ec8615b09565b6001600160a01b03928316602091820292909201015260075460405163095ea7b360e01b81529082166004820152602481018790529087169063095ea7b3906044016020604051808303815f875af1158015613f26573d5f803e3d5ffd5b505050506040513d601f19601f82011682018060405250810190613f4a9190615d03565b506007546040516318cbafe560e01b81525f916001600160a01b0316906318cbafe590613f83908990899087908a904290600401616008565b5f604051808303815f875af1158015613f9e573d5f803e3d5ffd5b505050506040513d5f823e601f3d908101601f19168201604052613fc59190810190615d87565b905080600181518110613fda57613fda615b09565b602002602001015192505050949350505050565b5f80604051806101000160405280886001600160a01b0316815260200160075f9054906101000a90046001600160a01b03166001600160a01b031663ad5c46486040518163ffffffff1660e01b8152600401602060405180830381865afa15801561405b573d5f803e3d5ffd5b505050506040513d601f19601f8201168201806040525081019061407f9190615b9a565b6001600160a01b03908116825262ffffff88166020830152858116604080840191909152426060840152608083018a905260a083018890525f60c090930192909252600854915163095ea7b360e01b81529181166004830152602482018990529192509088169063095ea7b3906044016020604051808303815f875af115801561410b573d5f803e3d5ffd5b505050506040513d601f19601f8201168201806040525081019061412f9190615d03565b5060085460405163414bf38960e01b81526001600160a01b039091169063414bf38990614160908490600401616043565b6020604051808303815f875af115801561417c573d5f803e3d5ffd5b505050506040513d601f19601f820116820180604052508101906141a09190615b1d565b9150505b95945050505050565b60408051600280825260608083018452925f9291906020830190803683375050600754604080516315ab88c960e31b815290519394506001600160a01b039091169263ad5c4648925060048083019260209291908290030181865afa158015614218573d5f803e3d5ffd5b505050506040513d601f19601f8201168201806040525081019061423c9190615b9a565b815f8151811061424e5761424e615b09565b60200260200101906001600160a01b031690816001600160a01b031681525050848160018151811061428257614282615b09565b6001600160a01b039283166020918202929092010152600754604051637ff36ab560e01b8152911690637ff36ab59086906142c79087908690309042906004016160b9565b5f6040518083038185885af11580156142e2573d5f803e3d5ffd5b50505050506040513d5f823e601f3d908101601f191682016040526141a49190810190615d87565b6040805161010081018083526007546315ab88c960e31b90915291515f9282916001600160a01b039091169063ad5c464890610104808501916020918187030181865afa15801561435d573d5f803e3d5ffd5b505050506040513d601f19601f820116820180604052508101906143819190615b9a565b6001600160a01b039081168252878116602083015262ffffff861660408084019190915230606084015242608084015260a0830188905260c083018690525f60e090930192909252600854915163414bf38960e01b8152929350169063414bf3899086906143f3908590600401616043565b60206040518083038185885af115801561440f573d5f803e3d5ffd5b50505050506040513d601f19601f820116820180604052508101906144349190615b1d565b505050505050565b600b5481106144765760405162461bcd60e51b8152602060048201526006602482015265042d2dcc8caf60d31b6044820152606401610962565b600b805461448690600190615cf0565b8154811061449657614496615b09565b905f5260205f209060050201600b82815481106144b5576144b5615b09565b5f9182526020909120825460059092020180546001600160a01b039283166001600160a01b031991821617825560018085015490830180549190941691161790915560028083015490820155600380820190614513908401826160ed565b506004918201549101805462ffffff191662ffffff909216919091179055600b805480614542576145426161b9565b5f8281526020812060055f199093019283020180546001600160a01b03199081168255600182018054909116905560028101829055906145856003830182615453565b50600401805462ffffff19169055905550565b6145a061542a565b5f805460ff60a01b191690557f5db9ee0a495bf2e6ff9c91a7834c1ba4fdd244a5e8aa4e537bd38aeae4b073aa335b6040516001600160a01b0390911681526020016122ab565b5f80546001600160a01b038381166001600160a01b0319831681178455604051919092169283917f8be0079c531659141344cd1fd0a4f28419497f9722a3daafe3b4186f6b6457e09190a35050565b5f8084116146565760405162461bcd60e51b815260040161096290615b7e565b6001600160a01b0385166146975760405162461bcd60e51b8152602060048201526008602482015267216164647265737360c01b6044820152606401610962565b5f8351116146d05760405162461bcd60e51b815260206004820152600660248201526521656d70747960d01b6044820152606401610962565b6040516020016146df90615d1e565b60405160208183030381529060405280519060200120836040516020016147069190615e69565b604051602081830303815290604052805190602001200361494f576040805160028082526060820183525f9260208301908036833701905050905085815f8151811061475457614754615b09565b6001600160a01b03928316602091820292909201810191909152600754604080516315ab88c960e31b81529051919093169263ad5c46489260048083019391928290030181865afa1580156147ab573d5f803e3d5ffd5b505050506040513d601f19601f820116820180604052508101906147cf9190615b9a565b816001815181106147e2576147e2615b09565b6001600160a01b03928316602091820292909201015260075460405163d06ca61f60e01b81525f92919091169063d06ca61f906148259089908690600401615d6f565b5f60405180830381865afa15801561483f573d5f803e3d5ffd5b505050506040513d5f823e601f3d908101601f191682016040526148669190810190615d87565b90506002815110156148a35760405162461bcd60e51b815260206004820152600660248201526521455850414d60d01b6044820152606401610962565b5f6127106010546127106148b79190615cf0565b836001815181106148ca576148ca615b09565b60200260200101516148dc9190615b48565b6148e69190615b5f565b90506148f488888330613e03565b9350808410156149305760405162461bcd60e51b81526020600482015260076024820152660f185b5bdd5b9d60ca1b6044820152606401610962565b8360135f8282546149419190615cdd565b9091555061370b9350505050565b60405160200161495e90615c5e565b60405160208183030381529060405280519060200120836040516020016149859190615e69565b6040516020818303038152906040528051906020012003611ee3575f858360075f9054906101000a90046001600160a01b03166001600160a01b031663ad5c46486040518163ffffffff1660e01b8152600401602060405180830381865afa1580156149f3573d5f803e3d5ffd5b505050506040513d601f19601f82011682018060405250810190614a179190615b9a565b604051602001614a2993929190615e0d565b60408051601f198184030181529082905260095463cdca175360e01b83529092505f916001600160a01b039091169063cdca175390614a6e9085908a90600401615e48565b6020604051808303815f875af1158015614a8a573d5f803e3d5ffd5b505050506040513d601f19601f82011682018060405250810190614aae9190615b1d565b90505f8111614ae75760405162461bcd60e51b815260206004820152600560248201526406d696e3e360dc1b6044820152606401610962565b5f612710601054612710614afb9190615cf0565b614b059084615b48565b614b0f9190615b5f565b9050614b1e8888878430613fee565b9350808410156149305760405162461bcd60e51b815260206004820152600560248201526406d696e3e360dc1b6044820152606401610962565b604051602001614b6790615d1e565b6040516020818303038152906040528051906020012082604051602001614b8e9190615e69565b6040516020818303038152906040528051906020012003614efd576040805160028082526060820183525f926020830190803683375050600754604080516315ab88c960e31b815290519394506001600160a01b039091169263ad5c4648925060048083019260209291908290030181865afa158015614c10573d5f803e3d5ffd5b505050506040513d601f19601f82011682018060405250810190614c349190615b9a565b815f81518110614c4657614c46615b09565b60200260200101906001600160a01b031690816001600160a01b0316815250508481600181518110614c7a57614c7a615b09565b6001600160a01b0392831660209182029290920101526007546040516307c0329d60e21b81525f929190911690631f00ca7490614cbd9088908690600401615d6f565b5f60405180830381865afa158015614cd7573d5f803e3d5ffd5b505050506040513d5f823e601f3d908101601f19168201604052614cfe9190810190615d87565b905080600181518110614d1357614d13615b09565b60200260200101516013541115614e295760075481515f916001600160a01b03169063d06ca61f9084906001908110614d4e57614d4e615b09565b6020026020010151856040518363ffffffff1660e01b8152600401614d74929190615d6f565b5f60405180830381865afa158015614d8e573d5f803e3d5ffd5b505050506040513d5f823e601f3d908101601f19168201604052614db59190810190615d87565b90505f612710601054612710614dcb9190615cf0565b83600181518110614dde57614dde615b09565b6020026020010151614df09190615b48565b614dfa9190615b5f565b9050614e218884600181518110614e1357614e13615b09565b6020026020010151836141ad565b505050614ef6565b60075460135460405163d06ca61f60e01b81525f926001600160a01b03169163d06ca61f91614e5d91908790600401615d6f565b5f60405180830381865afa158015614e77573d5f803e3d5ffd5b505050506040513d5f823e601f3d908101601f19168201604052614e9e9190810190615d87565b90505f612710601054612710614eb49190615cf0565b83600181518110614ec757614ec7615b09565b6020026020010151614ed99190615b48565b614ee39190615b5f565b9050614ef288601354836141ad565b5050505b505061199c565b604051602001614f0c90615c5e565b6040516020818303038152906040528051906020012082604051602001614f339190615e69565b6040516020818303038152906040528051906020012003611ee357600754604080516315ab88c960e31b815290515f926001600160a01b03169163ad5c46489160048083019260209291908290030181865afa158015614f95573d5f803e3d5ffd5b505050506040513d601f19601f82011682018060405250810190614fb99190615b9a565b8286604051602001614fcd93929190615e0d565b60408051601f1981840301815290829052600954632f80bb1d60e01b83529092505f916001600160a01b0390911690632f80bb1d906150129085908990600401615e48565b6020604051808303815f875af115801561502e573d5f803e3d5ffd5b505050506040513d601f19601f820116820180604052508101906150529190615b1d565b905080601454111561510f5760095460405163cdca175360e01b81525f916001600160a01b03169063cdca1753906150909086908690600401615e48565b6020604051808303815f875af11580156150ac573d5f803e3d5ffd5b505050506040513d601f19601f820116820180604052508101906150d09190615b1d565b90505f6127106010546127106150e69190615cf0565b6150f09084615b48565b6150fa9190615b5f565b90506151088884878461430a565b5050614ef6565b60095460145460405163cdca175360e01b81525f926001600160a01b03169163cdca175391615142918791600401615e48565b6020604051808303815f875af115801561515e573d5f803e3d5ffd5b505050506040513d601f19601f820116820180604052508101906151829190615b1d565b90505f6127106010546127106151989190615cf0565b6151a29084615b48565b6151ac9190615b5f565b9050611d4588601454878461430a565b6151c4613da5565b5f805460ff60a01b1916600160a01b1790557f62e78cea01bee320cd4e420270b5ea74000d11b0c9f74754ebdbfc544b05a2586145cf3390565b6001600160a01b0382166152275760405163ec442f0560e01b81525f6004820152602401610962565b61226b5f8383615304565b6001600160a01b03841661525b5760405163e602df0560e01b81525f6004820152602401610962565b6001600160a01b03831661528457604051634a1406b160e11b81525f6004820152602401610962565b6001600160a01b038085165f908152600260209081526040808320938716835292905220829055801561199c57826001600160a01b0316846001600160a01b03167f8c5be1e5ebec7d5bd14f71427d1e84f3dd0314c0f7b2291e5b200ac8c7c3b925846040516152f691815260200190565b60405180910390a350505050565b6001600160a01b03831661532e578060035f8282546153239190615cdd565b9091555061539e9050565b6001600160a01b0383165f90815260016020526040902054818110156153805760405163391434e360e21b81526001600160a01b03851660048201526024810182905260448101839052606401610962565b6001600160a01b0384165f9081526001602052604090209082900390555b6001600160a01b0382166153ba576003805482900390556153d8565b6001600160a01b0382165f9081526001602052604090208054820190555b816001600160a01b0316836001600160a01b03167fddf252ad1be2c89b69c2b068fc378daa952ba7f163c4a11628f55a4df523b3ef8360405161541d91815260200190565b60405180910390a3505050565b5f54600160a01b900460ff1661265c57604051638dfc202b60e01b815260040160405180910390fd5b50805461545f90615ad1565b5f825580601f1061546e575050565b601f0160209004905f5260205f2090810190612f9a91905b80821115615499575f8155600101615486565b5090565b5f81518084528060208401602086015e5f602082860101526020601f19601f83011685010191505092915050565b602081525f613ccc602083018461549d565b6001600160a01b0381168114612f9a575f80fd5b5f8060408385031215615502575f80fd5b823561550d816154dd565b946020939093013593505050565b5f806040838503121561552c575f80fd5b50508035926020909101359150565b634e487b7160e01b5f52604160045260245ffd5b604051601f8201601f191681016001600160401b03811182821017156155775761557761553b565b604052919050565b5f6001600160401b038211156155975761559761553b565b5060051b60200190565b5f602082840312156155b1575f80fd5b81356001600160401b038111156155c6575f80fd5b8201601f810184136155d6575f80fd5b80356155e96155e48261557f565b61554f565b8082825260208201915060208360051b85010192508683111561560a575f80fd5b6020840193505b8284101561562c578335825260209384019390910190615611565b9695505050505050565b5f60208284031215615646575f80fd5b5035919050565b5f805f6060848603121561565f575f80fd5b833561566a816154dd565b9250602084013561567a816154dd565b929592945050506040919091013590565b5f602082016020835280845180835260408501915060408160051b8601019250602086015f5b8281101561571b57603f19878603018452815160018060a01b038151168652602081015160208701526040810151608060408801526156f3608088018261549d565b60609283015162ffffff169790920196909652945060209384019391909101906001016156b1565b50929695505050505050565b60018060a01b0385168152836020820152608060408201525f61574d608083018561549d565b905062ffffff8316606083015295945050505050565b5f60208284031215615773575f80fd5b8135613ccc816154dd565b6001600160a01b038681168252851660208201526040810184905260a0606082018190525f906157b09083018561549d565b905062ffffff831660808301529695505050505050565b5f82601f8301126157d6575f80fd5b81356001600160401b038111156157ef576157ef61553b565b615802601f8201601f191660200161554f565b818152846020838601011115615816575f80fd5b816020850160208301375f918101602001919091529392505050565b803562ffffff81168114615844575f80fd5b919050565b5f805f806080858703121561585c575f80fd5b8435615867816154dd565b93506020850135925060408501356001600160401b03811115615888575f80fd5b615894878288016157c7565b9250506158a360608601615832565b905092959194509250565b8015158114612f9a575f80fd5b5f80604083850312156158cc575f80fd5b82356158d7816154dd565b915060208301356158e7816158ae565b809150509250929050565b5f8083601f840112615902575f80fd5b5081356001600160401b03811115615918575f80fd5b6020830191508360208260051b8501011115615932575f80fd5b9250929050565b5f805f805f805f806080898b031215615950575f80fd5b88356001600160401b03811115615965575f80fd5b6159718b828c016158f2565b90995097505060208901356001600160401b0381111561598f575f80fd5b61599b8b828c016158f2565b90975095505060408901356001600160401b038111156159b9575f80fd5b6159c58b828c016158f2565b90955093505060608901356001600160401b038111156159e3575f80fd5b6159ef8b828c016158f2565b999c989b5096995094979396929594505050565b5f602082016020835280845180835260408501915060408160051b8601019250602086015f5b8281101561571b57603f19878603018452815160018060a01b03815116865260018060a01b03602082015116602087015260408101516040870152606081015160a06060880152615a7d60a088018261549d565b60809283015162ffffff16979092019690965294506020938401939190910190600101615a29565b5f8060408385031215615ab6575f80fd5b8235615ac1816154dd565b915060208301356158e7816154dd565b600181811c90821680615ae557607f821691505b602082108103615b0357634e487b7160e01b5f52602260045260245ffd5b50919050565b634e487b7160e01b5f52603260045260245ffd5b5f60208284031215615b2d575f80fd5b5051919050565b634e487b7160e01b5f52601160045260245ffd5b808202811582820484141761091e5761091e615b34565b5f82615b7957634e487b7160e01b5f52601260045260245ffd5b500490565b60208082526002908201526103e360f41b604082015260600190565b5f60208284031215615baa575f80fd5b8151613ccc816154dd565b6001600160a01b0385168152602081018490526080604082015282545f908190615bde81615ad1565b806080860152600182165f8114615bfc5760018114615c1857615c49565b60ff19831660a087015260a082151560051b8701019350615c49565b875f5260205f205f5b83811015615c4057815488820160a00152600190910190602001615c21565b870160a0019450505b50505062ffffff8416606084015290506141a4565b61763360f01b815260020190565b5f808354615c7981615ad1565b600182168015615c905760018114615ca557615cd2565b60ff1983168652811515820286019350615cd2565b865f5260205f205f5b83811015615cca57815488820152600190910190602001615cae565b505081860193505b509195945050505050565b8082018082111561091e5761091e615b34565b8181038181111561091e5761091e615b34565b5f60208284031215615d13575f80fd5b8151613ccc816158ae565b613b1960f11b815260020190565b5f8151808452602084019350602083015f5b82811015615d655781516001600160a01b0316865260209586019590910190600101615d3e565b5093949350505050565b828152604060208201525f61370b6040830184615d2c565b5f60208284031215615d97575f80fd5b81516001600160401b03811115615dac575f80fd5b8201601f81018413615dbc575f80fd5b8051615dca6155e48261557f565b8082825260208201915060208360051b850101925086831115615deb575f80fd5b6020840193505b8284101561562c578351825260209384019390910190615df2565b606093841b6bffffffffffffffffffffffff19908116825260e89390931b6001600160e81b0319166014820152921b166017820152602b0190565b604081525f615e5a604083018561549d565b90508260208301529392505050565b5f82518060208501845e5f920191825250919050565b601f821115612a4157805f5260205f20601f840160051c81016020851015615ea45750805b601f840160051c820191505b8181101561121f575f8155600101615eb0565b81516001600160401b03811115615edc57615edc61553b565b615ef081615eea8454615ad1565b84615e7f565b6020601f821160018114615f25575f8315615f0b5750848201515b600184901b5f19600386901b1c198216175b85555061121f565b5f84815260208120601f198516915b82811015615f545787850151825560209485019460019092019101615f34565b5084821015615f7157868401515f19600387901b60f8161c191681555b50505050600190811b01905550565b5f60018201615f9157615f91615b34565b5060010190565b5f81615fa657615fa6615b34565b505f190190565b5f808335601e19843603018112615fc2575f80fd5b8301803591506001600160401b03821115615fdb575f80fd5b602001915036819003821315615932575f80fd5b5f60208284031215615fff575f80fd5b613ccc82615832565b85815284602082015260a060408201525f61602660a0830186615d2c565b6001600160a01b0394909416606083015250608001529392505050565b81516001600160a01b03908116825260208084015182169083015260408084015162ffffff169083015260608084015191821690830152610100820190506080830151608083015260a083015160a083015260c083015160c083015260e083015161240c60e08401826001600160a01b03169052565b848152608060208201525f6160d16080830186615d2c565b6001600160a01b03949094166040830152506060015292915050565b8181036160f8575050565b6161028254615ad1565b6001600160401b038111156161195761611961553b565b61612781615eea8454615ad1565b5f601f821160018114616156575f8315615f0b575081850154600184901b5f19600386901b1c19821617615f1d565b5f8581526020808220868352908220601f198616925b8381101561618c578286015482556001958601959091019060200161616c565b50858310156161a957818501545f19600388901b60f8161c191681555b5050505050600190811b01905550565b634e487b7160e01b5f52603160045260245ffdfea2646970667358221220752ce5977d7a6916b8fcefa29e3fd1cf3c2bb2fc6cd6f1fda65fa62fab1507a164736f6c634300081a0033",
			"opcodes": "PUSH1 0x80 PUSH1 0x40 MSTORE CALLVALUE DUP1 ISZERO PUSH2 0xF JUMPI PUSH0 DUP1 REVERT JUMPDEST POP PUSH1 0x40 MLOAD PUSH2 0x6536 CODESIZE SUB DUP1 PUSH2 0x6536 DUP4 CODECOPY DUP2 ADD PUSH1 0x40 DUP2 SWAP1 MSTORE PUSH2 0x2E SWAP2 PUSH2 0x194 JUMP JUMPDEST PUSH1 0x40 DUP1 MLOAD DUP1 DUP3 ADD DUP3 MSTORE PUSH1 0x7 DUP2 MSTORE PUSH7 0xA0B28E8E8AA89 PUSH1 0xCB SHL PUSH1 0x20 DUP1 DUP4 ADD SWAP2 SWAP1 SWAP2 MSTORE DUP3 MLOAD DUP1 DUP5 ADD SWAP1 SWAP4 MSTORE PUSH1 0x4 DUP4 MSTORE PUSH4 0xA08AA89 PUSH1 0xE3 SHL SWAP1 DUP4 ADD MSTORE SWAP1 CALLER DUP1 PUSH2 0x8D JUMPI PUSH1 0x40 MLOAD PUSH4 0x1E4FBDF7 PUSH1 0xE0 SHL DUP2 MSTORE PUSH0 PUSH1 0x4 DUP3 ADD MSTORE PUSH1 0x24 ADD PUSH1 0x40 MLOAD DUP1 SWAP2 SUB SWAP1 REVERT JUMPDEST PUSH2 0x96 DUP2 PUSH2 0x12A JUMP JUMPDEST POP PUSH0 DUP1 SLOAD PUSH1 0xFF PUSH1 0xA0 SHL NOT AND SWAP1 SSTORE PUSH1 0x4 PUSH2 0xAF DUP4 DUP3 PUSH2 0x26C JUMP JUMPDEST POP PUSH1 0x5 PUSH2 0xBC DUP3 DUP3 PUSH2 0x26C JUMP JUMPDEST POP POP PUSH1 0x7 DUP1 SLOAD PUSH1 0x1 PUSH1 0x1 PUSH1 0xA0 SHL SUB SWAP6 DUP7 AND PUSH1 0x1 PUSH1 0x1 PUSH1 0xA0 SHL SUB NOT SWAP2 DUP3 AND OR SWAP1 SWAP2 SSTORE PUSH1 0x8 DUP1 SLOAD SWAP5 DUP7 AND SWAP5 DUP3 AND SWAP5 SWAP1 SWAP5 OR SWAP1 SWAP4 SSTORE POP PUSH1 0x9 DUP1 SLOAD SWAP2 SWAP1 SWAP4 AND SWAP2 AND OR SWAP1 SSTORE CALLER PUSH0 SWAP1 DUP2 MSTORE PUSH1 0xA PUSH1 0x20 MSTORE PUSH1 0x40 SWAP1 KECCAK256 DUP1 SLOAD PUSH1 0xFF NOT AND PUSH1 0x1 OR SWAP1 SSTORE PUSH2 0x3E8 PUSH1 0x10 SSTORE PUSH1 0x64 PUSH1 0xF DUP2 SWAP1 SSTORE PUSH1 0xE SSTORE PUSH2 0x326 JUMP JUMPDEST PUSH0 DUP1 SLOAD PUSH1 0x1 PUSH1 0x1 PUSH1 0xA0 SHL SUB DUP4 DUP2 AND PUSH1 0x1 PUSH1 0x1 PUSH1 0xA0 SHL SUB NOT DUP4 AND DUP2 OR DUP5 SSTORE PUSH1 0x40 MLOAD SWAP2 SWAP1 SWAP3 AND SWAP3 DUP4 SWAP2 PUSH32 0x8BE0079C531659141344CD1FD0A4F28419497F9722A3DAAFE3B4186F6B6457E0 SWAP2 SWAP1 LOG3 POP POP JUMP JUMPDEST DUP1 MLOAD PUSH1 0x1 PUSH1 0x1 PUSH1 0xA0 SHL SUB DUP2 AND DUP2 EQ PUSH2 0x18F JUMPI PUSH0 DUP1 REVERT JUMPDEST SWAP2 SWAP1 POP JUMP JUMPDEST PUSH0 DUP1 PUSH0 PUSH1 0x60 DUP5 DUP7 SUB SLT ISZERO PUSH2 0x1A6 JUMPI PUSH0 DUP1 REVERT JUMPDEST PUSH2 0x1AF DUP5 PUSH2 0x179 JUMP JUMPDEST SWAP3 POP PUSH2 0x1BD PUSH1 0x20 DUP6 ADD PUSH2 0x179 JUMP JUMPDEST SWAP2 POP PUSH2 0x1CB PUSH1 0x40 DUP6 ADD PUSH2 0x179 JUMP JUMPDEST SWAP1 POP SWAP3 POP SWAP3 POP SWAP3 JUMP JUMPDEST PUSH4 0x4E487B71 PUSH1 0xE0 SHL PUSH0 MSTORE PUSH1 0x41 PUSH1 0x4 MSTORE PUSH1 0x24 PUSH0 REVERT JUMPDEST PUSH1 0x1 DUP2 DUP2 SHR SWAP1 DUP3 AND DUP1 PUSH2 0x1FC JUMPI PUSH1 0x7F DUP3 AND SWAP2 POP JUMPDEST PUSH1 0x20 DUP3 LT DUP2 SUB PUSH2 0x21A JUMPI PUSH4 0x4E487B71 PUSH1 0xE0 SHL PUSH0 MSTORE PUSH1 0x22 PUSH1 0x4 MSTORE PUSH1 0x24 PUSH0 REVERT JUMPDEST POP SWAP2 SWAP1 POP JUMP JUMPDEST PUSH1 0x1F DUP3 GT ISZERO PUSH2 0x267 JUMPI DUP1 PUSH0 MSTORE PUSH1 0x20 PUSH0 KECCAK256 PUSH1 0x1F DUP5 ADD PUSH1 0x5 SHR DUP2 ADD PUSH1 0x20 DUP6 LT ISZERO PUSH2 0x245 JUMPI POP DUP1 JUMPDEST PUSH1 0x1F DUP5 ADD PUSH1 0x5 SHR DUP3 ADD SWAP2 POP JUMPDEST DUP2 DUP2 LT ISZERO PUSH2 0x264 JUMPI PUSH0 DUP2 SSTORE PUSH1 0x1 ADD PUSH2 0x251 JUMP JUMPDEST POP POP JUMPDEST POP POP POP JUMP JUMPDEST DUP2 MLOAD PUSH1 0x1 PUSH1 0x1 PUSH1 0x40 SHL SUB DUP2 GT ISZERO PUSH2 0x285 JUMPI PUSH2 0x285 PUSH2 0x1D4 JUMP JUMPDEST PUSH2 0x299 DUP2 PUSH2 0x293 DUP5 SLOAD PUSH2 0x1E8 JUMP JUMPDEST DUP5 PUSH2 0x220 JUMP JUMPDEST PUSH1 0x20 PUSH1 0x1F DUP3 GT PUSH1 0x1 DUP2 EQ PUSH2 0x2CB JUMPI PUSH0 DUP4 ISZERO PUSH2 0x2B4 JUMPI POP DUP5 DUP3 ADD MLOAD JUMPDEST PUSH0 NOT PUSH1 0x3 DUP6 SWAP1 SHL SHR NOT AND PUSH1 0x1 DUP5 SWAP1 SHL OR DUP5 SSTORE PUSH2 0x264 JUMP JUMPDEST PUSH0 DUP5 DUP2 MSTORE PUSH1 0x20 DUP2 KECCAK256 PUSH1 0x1F NOT DUP6 AND SWAP2 JUMPDEST DUP3 DUP2 LT ISZERO PUSH2 0x2FA JUMPI DUP8 DUP6 ADD MLOAD DUP3 SSTORE PUSH1 0x20 SWAP5 DUP6 ADD SWAP5 PUSH1 0x1 SWAP1 SWAP3 ADD SWAP2 ADD PUSH2 0x2DA JUMP JUMPDEST POP DUP5 DUP3 LT ISZERO PUSH2 0x317 JUMPI DUP7 DUP5 ADD MLOAD PUSH0 NOT PUSH1 0x3 DUP8 SWAP1 SHL PUSH1 0xF8 AND SHR NOT AND DUP2 SSTORE JUMPDEST POP POP POP POP PUSH1 0x1 SWAP1 DUP2 SHL ADD SWAP1 SSTORE POP JUMP JUMPDEST PUSH2 0x6203 DUP1 PUSH2 0x333 PUSH0 CODECOPY PUSH0 RETURN INVALID PUSH1 0x80 PUSH1 0x40 MSTORE PUSH1 0x4 CALLDATASIZE LT PUSH2 0x28B JUMPI PUSH0 CALLDATALOAD PUSH1 0xE0 SHR DUP1 PUSH4 0x60D27451 GT PUSH2 0x155 JUMPI DUP1 PUSH4 0x9B19251A GT PUSH2 0xBE JUMPI DUP1 PUSH4 0xD0E30DB0 GT PUSH2 0x78 JUMPI DUP1 PUSH4 0xD0E30DB0 EQ PUSH2 0x7C8 JUMPI DUP1 PUSH4 0xDD62ED3E EQ PUSH2 0x7D0 JUMPI DUP1 PUSH4 0xE7AE65AB EQ PUSH2 0x814 JUMPI DUP1 PUSH4 0xF2FDE38B EQ PUSH2 0x833 JUMPI DUP1 PUSH4 0xF7E625A3 EQ PUSH2 0x852 JUMPI DUP1 PUSH4 0xFA3B5649 EQ PUSH2 0x867 JUMPI PUSH0 DUP1 REVERT JUMPDEST DUP1 PUSH4 0x9B19251A EQ PUSH2 0x6FD JUMPI DUP1 PUSH4 0xA38E9E66 EQ PUSH2 0x72B JUMPI DUP1 PUSH4 0xA738C7DF EQ PUSH2 0x74A JUMPI DUP1 PUSH4 0xA9059CBB EQ PUSH2 0x769 JUMPI DUP1 PUSH4 0xC38CD0B5 EQ PUSH2 0x788 JUMPI DUP1 PUSH4 0xD03153AA EQ PUSH2 0x7B3 JUMPI PUSH0 DUP1 REVERT JUMPDEST DUP1 PUSH4 0x86BC55DB GT PUSH2 0x10F JUMPI DUP1 PUSH4 0x86BC55DB EQ PUSH2 0x662 JUMPI DUP1 PUSH4 0x86C14663 EQ PUSH2 0x677 JUMPI DUP1 PUSH4 0x8BC7E8C4 EQ PUSH2 0x68C JUMPI DUP1 PUSH4 0x8DA5CB5B EQ PUSH2 0x6A1 JUMPI DUP1 PUSH4 0x91EBE50F EQ PUSH2 0x6BD JUMPI DUP1 PUSH4 0x95D89B41 EQ PUSH2 0x6E9 JUMPI PUSH0 DUP1 REVERT JUMPDEST DUP1 PUSH4 0x60D27451 EQ PUSH2 0x5B3 JUMPI DUP1 PUSH4 0x67A52793 EQ PUSH2 0x5D2 JUMPI DUP1 PUSH4 0x70A08231 EQ PUSH2 0x5E7 JUMPI DUP1 PUSH4 0x715018A6 EQ PUSH2 0x61B JUMPI DUP1 PUSH4 0x780D5710 EQ PUSH2 0x62F JUMPI DUP1 PUSH4 0x8456CB59 EQ PUSH2 0x64E JUMPI PUSH0 DUP1 REVERT JUMPDEST DUP1 PUSH4 0x2E1A7D4D GT PUSH2 0x1F7 JUMPI DUP1 PUSH4 0x3D7526F7 GT PUSH2 0x1B1 JUMPI DUP1 PUSH4 0x3D7526F7 EQ PUSH2 0x506 JUMPI DUP1 PUSH4 0x3F4BA83A EQ PUSH2 0x525 JUMPI DUP1 PUSH4 0x4D20D0F8 EQ PUSH2 0x539 JUMPI DUP1 PUSH4 0x53D6FD59 EQ PUSH2 0x558 JUMPI DUP1 PUSH4 0x5643A5A7 EQ PUSH2 0x577 JUMPI DUP1 PUSH4 0x5C975ABB EQ PUSH2 0x596 JUMPI PUSH0 DUP1 REVERT JUMPDEST DUP1 PUSH4 0x2E1A7D4D EQ PUSH2 0x42F JUMPI DUP1 PUSH4 0x2E63A156 EQ PUSH2 0x44E JUMPI DUP1 PUSH4 0x313CE567 EQ PUSH2 0x47D JUMPI DUP1 PUSH4 0x36A43F2B EQ PUSH2 0x498 JUMPI DUP1 PUSH4 0x378A653C EQ PUSH2 0x4C3 JUMPI DUP1 PUSH4 0x39C0F5D2 EQ PUSH2 0x4F3 JUMPI PUSH0 DUP1 REVERT JUMPDEST DUP1 PUSH4 0x18160DDD GT PUSH2 0x248 JUMPI DUP1 PUSH4 0x18160DDD EQ PUSH2 0x37E JUMPI DUP1 PUSH4 0x23B872DD EQ PUSH2 0x39C JUMPI DUP1 PUSH4 0x246F972F EQ PUSH2 0x3BB JUMPI DUP1 PUSH4 0x2A5C792A EQ PUSH2 0x3D0 JUMPI DUP1 PUSH4 0x2C76D7A6 EQ PUSH2 0x3F1 JUMPI DUP1 PUSH4 0x2C9351A1 EQ PUSH2 0x410 JUMPI PUSH0 DUP1 REVERT JUMPDEST DUP1 PUSH4 0x6FDDE03 EQ PUSH2 0x28F JUMPI DUP1 PUSH4 0x95EA7B3 EQ PUSH2 0x2B9 JUMPI DUP1 PUSH4 0xB78F9C0 EQ PUSH2 0x2E8 JUMPI DUP1 PUSH4 0x11667AA5 EQ PUSH2 0x309 JUMPI DUP1 PUSH4 0x117DA1EE EQ PUSH2 0x328 JUMPI DUP1 PUSH4 0x1694505E EQ PUSH2 0x347 JUMPI JUMPDEST PUSH0 DUP1 REVERT JUMPDEST CALLVALUE DUP1 ISZERO PUSH2 0x29A JUMPI PUSH0 DUP1 REVERT JUMPDEST POP PUSH2 0x2A3 PUSH2 0x87B JUMP JUMPDEST PUSH1 0x40 MLOAD PUSH2 0x2B0 SWAP2 SWAP1 PUSH2 0x54CB JUMP JUMPDEST PUSH1 0x40 MLOAD DUP1 SWAP2 SUB SWAP1 RETURN JUMPDEST CALLVALUE DUP1 ISZERO PUSH2 0x2C4 JUMPI PUSH0 DUP1 REVERT JUMPDEST POP PUSH2 0x2D8 PUSH2 0x2D3 CALLDATASIZE PUSH1 0x4 PUSH2 0x54F1 JUMP JUMPDEST PUSH2 0x90B JUMP JUMPDEST PUSH1 0x40 MLOAD SWAP1 ISZERO ISZERO DUP2 MSTORE PUSH1 0x20 ADD PUSH2 0x2B0 JUMP JUMPDEST CALLVALUE DUP1 ISZERO PUSH2 0x2F3 JUMPI PUSH0 DUP1 REVERT JUMPDEST POP PUSH2 0x307 PUSH2 0x302 CALLDATASIZE PUSH1 0x4 PUSH2 0x551B JUMP JUMPDEST PUSH2 0x924 JUMP JUMPDEST STOP JUMPDEST CALLVALUE DUP1 ISZERO PUSH2 0x314 JUMPI PUSH0 DUP1 REVERT JUMPDEST POP PUSH2 0x2D8 PUSH2 0x323 CALLDATASIZE PUSH1 0x4 PUSH2 0x55A1 JUMP JUMPDEST PUSH2 0x9B0 JUMP JUMPDEST CALLVALUE DUP1 ISZERO PUSH2 0x333 JUMPI PUSH0 DUP1 REVERT JUMPDEST POP PUSH2 0x307 PUSH2 0x342 CALLDATASIZE PUSH1 0x4 PUSH2 0x5636 JUMP JUMPDEST PUSH2 0xB85 JUMP JUMPDEST CALLVALUE DUP1 ISZERO PUSH2 0x352 JUMPI PUSH0 DUP1 REVERT JUMPDEST POP PUSH1 0x7 SLOAD PUSH2 0x366 SWAP1 PUSH1 0x1 PUSH1 0x1 PUSH1 0xA0 SHL SUB AND DUP2 JUMP JUMPDEST PUSH1 0x40 MLOAD PUSH1 0x1 PUSH1 0x1 PUSH1 0xA0 SHL SUB SWAP1 SWAP2 AND DUP2 MSTORE PUSH1 0x20 ADD PUSH2 0x2B0 JUMP JUMPDEST CALLVALUE DUP1 ISZERO PUSH2 0x389 JUMPI PUSH0 DUP1 REVERT JUMPDEST POP PUSH1 0x3 SLOAD JUMPDEST PUSH1 0x40 MLOAD SWAP1 DUP2 MSTORE PUSH1 0x20 ADD PUSH2 0x2B0 JUMP JUMPDEST CALLVALUE DUP1 ISZERO PUSH2 0x3A7 JUMPI PUSH0 DUP1 REVERT JUMPDEST POP PUSH2 0x2D8 PUSH2 0x3B6 CALLDATASIZE PUSH1 0x4 PUSH2 0x564D JUMP JUMPDEST PUSH2 0xBCD JUMP JUMPDEST CALLVALUE DUP1 ISZERO PUSH2 0x3C6 JUMPI PUSH0 DUP1 REVERT JUMPDEST POP PUSH2 0x38E PUSH1 0x12 SLOAD DUP2 JUMP JUMPDEST CALLVALUE DUP1 ISZERO PUSH2 0x3DB JUMPI PUSH0 DUP1 REVERT JUMPDEST POP PUSH2 0x3E4 PUSH2 0xBF0 JUMP JUMPDEST PUSH1 0x40 MLOAD PUSH2 0x2B0 SWAP2 SWAP1 PUSH2 0x568B JUMP JUMPDEST CALLVALUE DUP1 ISZERO PUSH2 0x3FC JUMPI PUSH0 DUP1 REVERT JUMPDEST POP PUSH1 0x8 SLOAD PUSH2 0x366 SWAP1 PUSH1 0x1 PUSH1 0x1 PUSH1 0xA0 SHL SUB AND DUP2 JUMP JUMPDEST CALLVALUE DUP1 ISZERO PUSH2 0x41B JUMPI PUSH0 DUP1 REVERT JUMPDEST POP PUSH2 0x307 PUSH2 0x42A CALLDATASIZE PUSH1 0x4 PUSH2 0x5636 JUMP JUMPDEST PUSH2 0xD0F JUMP JUMPDEST CALLVALUE DUP1 ISZERO PUSH2 0x43A JUMPI PUSH0 DUP1 REVERT JUMPDEST POP PUSH2 0x307 PUSH2 0x449 CALLDATASIZE PUSH1 0x4 PUSH2 0x5636 JUMP JUMPDEST PUSH2 0x1226 JUMP JUMPDEST CALLVALUE DUP1 ISZERO PUSH2 0x459 JUMPI PUSH0 DUP1 REVERT JUMPDEST POP PUSH2 0x46D PUSH2 0x468 CALLDATASIZE PUSH1 0x4 PUSH2 0x5636 JUMP JUMPDEST PUSH2 0x19A2 JUMP JUMPDEST PUSH1 0x40 MLOAD PUSH2 0x2B0 SWAP5 SWAP4 SWAP3 SWAP2 SWAP1 PUSH2 0x5727 JUMP JUMPDEST CALLVALUE DUP1 ISZERO PUSH2 0x488 JUMPI PUSH0 DUP1 REVERT JUMPDEST POP PUSH1 0x40 MLOAD PUSH1 0x12 DUP2 MSTORE PUSH1 0x20 ADD PUSH2 0x2B0 JUMP JUMPDEST CALLVALUE DUP1 ISZERO PUSH2 0x4A3 JUMPI PUSH0 DUP1 REVERT JUMPDEST POP PUSH2 0x38E PUSH2 0x4B2 CALLDATASIZE PUSH1 0x4 PUSH2 0x5763 JUMP JUMPDEST PUSH1 0xC PUSH1 0x20 MSTORE PUSH0 SWAP1 DUP2 MSTORE PUSH1 0x40 SWAP1 KECCAK256 SLOAD DUP2 JUMP JUMPDEST CALLVALUE DUP1 ISZERO PUSH2 0x4CE JUMPI PUSH0 DUP1 REVERT JUMPDEST POP PUSH2 0x4E2 PUSH2 0x4DD CALLDATASIZE PUSH1 0x4 PUSH2 0x5636 JUMP JUMPDEST PUSH2 0x1A72 JUMP JUMPDEST PUSH1 0x40 MLOAD PUSH2 0x2B0 SWAP6 SWAP5 SWAP4 SWAP3 SWAP2 SWAP1 PUSH2 0x577E JUMP JUMPDEST PUSH2 0x307 PUSH2 0x501 CALLDATASIZE PUSH1 0x4 PUSH2 0x5849 JUMP JUMPDEST PUSH2 0x1B4D JUMP JUMPDEST CALLVALUE DUP1 ISZERO PUSH2 0x511 JUMPI PUSH0 DUP1 REVERT JUMPDEST POP PUSH2 0x307 PUSH2 0x520 CALLDATASIZE PUSH1 0x4 PUSH2 0x5763 JUMP JUMPDEST PUSH2 0x1F11 JUMP JUMPDEST CALLVALUE DUP1 ISZERO PUSH2 0x530 JUMPI PUSH0 DUP1 REVERT JUMPDEST POP PUSH2 0x307 PUSH2 0x226F JUMP JUMPDEST CALLVALUE DUP1 ISZERO PUSH2 0x544 JUMPI PUSH0 DUP1 REVERT JUMPDEST POP PUSH1 0x9 SLOAD PUSH2 0x366 SWAP1 PUSH1 0x1 PUSH1 0x1 PUSH1 0xA0 SHL SUB AND DUP2 JUMP JUMPDEST CALLVALUE DUP1 ISZERO PUSH2 0x563 JUMPI PUSH0 DUP1 REVERT JUMPDEST POP PUSH2 0x307 PUSH2 0x572 CALLDATASIZE PUSH1 0x4 PUSH2 0x58BB JUMP JUMPDEST PUSH2 0x22B5 JUMP JUMPDEST CALLVALUE DUP1 ISZERO PUSH2 0x582 JUMPI PUSH0 DUP1 REVERT JUMPDEST POP PUSH2 0x38E PUSH2 0x591 CALLDATASIZE PUSH1 0x4 PUSH2 0x55A1 JUMP JUMPDEST PUSH2 0x22E7 JUMP JUMPDEST CALLVALUE DUP1 ISZERO PUSH2 0x5A1 JUMPI PUSH0 DUP1 REVERT JUMPDEST POP PUSH0 SLOAD PUSH1 0x1 PUSH1 0xA0 SHL SWAP1 DIV PUSH1 0xFF AND PUSH2 0x2D8 JUMP JUMPDEST CALLVALUE DUP1 ISZERO PUSH2 0x5BE JUMPI PUSH0 DUP1 REVERT JUMPDEST POP PUSH2 0x307 PUSH2 0x5CD CALLDATASIZE PUSH1 0x4 PUSH2 0x5939 JUMP JUMPDEST PUSH2 0x2413 JUMP JUMPDEST CALLVALUE DUP1 ISZERO PUSH2 0x5DD JUMPI PUSH0 DUP1 REVERT JUMPDEST POP PUSH2 0x38E PUSH1 0xE SLOAD DUP2 JUMP JUMPDEST CALLVALUE DUP1 ISZERO PUSH2 0x5F2 JUMPI PUSH0 DUP1 REVERT JUMPDEST POP PUSH2 0x38E PUSH2 0x601 CALLDATASIZE PUSH1 0x4 PUSH2 0x5763 JUMP JUMPDEST PUSH1 0x1 PUSH1 0x1 PUSH1 0xA0 SHL SUB AND PUSH0 SWAP1 DUP2 MSTORE PUSH1 0x1 PUSH1 0x20 MSTORE PUSH1 0x40 SWAP1 KECCAK256 SLOAD SWAP1 JUMP JUMPDEST CALLVALUE DUP1 ISZERO PUSH2 0x626 JUMPI PUSH0 DUP1 REVERT JUMPDEST POP PUSH2 0x307 PUSH2 0x264B JUMP JUMPDEST CALLVALUE DUP1 ISZERO PUSH2 0x63A JUMPI PUSH0 DUP1 REVERT JUMPDEST POP PUSH2 0x307 PUSH2 0x649 CALLDATASIZE PUSH1 0x4 PUSH2 0x55A1 JUMP JUMPDEST PUSH2 0x265E JUMP JUMPDEST CALLVALUE DUP1 ISZERO PUSH2 0x659 JUMPI PUSH0 DUP1 REVERT JUMPDEST POP PUSH2 0x307 PUSH2 0x2A46 JUMP JUMPDEST CALLVALUE DUP1 ISZERO PUSH2 0x66D JUMPI PUSH0 DUP1 REVERT JUMPDEST POP PUSH2 0x38E PUSH1 0x13 SLOAD DUP2 JUMP JUMPDEST CALLVALUE DUP1 ISZERO PUSH2 0x682 JUMPI PUSH0 DUP1 REVERT JUMPDEST POP PUSH2 0x38E PUSH1 0x14 SLOAD DUP2 JUMP JUMPDEST CALLVALUE DUP1 ISZERO PUSH2 0x697 JUMPI PUSH0 DUP1 REVERT JUMPDEST POP PUSH2 0x38E PUSH1 0xF SLOAD DUP2 JUMP JUMPDEST CALLVALUE DUP1 ISZERO PUSH2 0x6AC JUMPI PUSH0 DUP1 REVERT JUMPDEST POP PUSH0 SLOAD PUSH1 0x1 PUSH1 0x1 PUSH1 0xA0 SHL SUB AND PUSH2 0x366 JUMP JUMPDEST CALLVALUE DUP1 ISZERO PUSH2 0x6C8 JUMPI PUSH0 DUP1 REVERT JUMPDEST POP PUSH2 0x6DC PUSH2 0x6D7 CALLDATASIZE PUSH1 0x4 PUSH2 0x5763 JUMP JUMPDEST PUSH2 0x2A86 JUMP JUMPDEST PUSH1 0x40 MLOAD PUSH2 0x2B0 SWAP2 SWAP1 PUSH2 0x5A03 JUMP JUMPDEST CALLVALUE DUP1 ISZERO PUSH2 0x6F4 JUMPI PUSH0 DUP1 REVERT JUMPDEST POP PUSH2 0x2A3 PUSH2 0x2C96 JUMP JUMPDEST CALLVALUE DUP1 ISZERO PUSH2 0x708 JUMPI PUSH0 DUP1 REVERT JUMPDEST POP PUSH2 0x2D8 PUSH2 0x717 CALLDATASIZE PUSH1 0x4 PUSH2 0x5763 JUMP JUMPDEST PUSH1 0xA PUSH1 0x20 MSTORE PUSH0 SWAP1 DUP2 MSTORE PUSH1 0x40 SWAP1 KECCAK256 SLOAD PUSH1 0xFF AND DUP2 JUMP JUMPDEST CALLVALUE DUP1 ISZERO PUSH2 0x736 JUMPI PUSH0 DUP1 REVERT JUMPDEST POP PUSH2 0x307 PUSH2 0x745 CALLDATASIZE PUSH1 0x4 PUSH2 0x5849 JUMP JUMPDEST PUSH2 0x2CA5 JUMP JUMPDEST CALLVALUE DUP1 ISZERO PUSH2 0x755 JUMPI PUSH0 DUP1 REVERT JUMPDEST POP PUSH2 0x307 PUSH2 0x764 CALLDATASIZE PUSH1 0x4 PUSH2 0x5763 JUMP JUMPDEST PUSH2 0x2E0F JUMP JUMPDEST CALLVALUE DUP1 ISZERO PUSH2 0x774 JUMPI PUSH0 DUP1 REVERT JUMPDEST POP PUSH2 0x2D8 PUSH2 0x783 CALLDATASIZE PUSH1 0x4 PUSH2 0x54F1 JUMP JUMPDEST PUSH2 0x2F9D JUMP JUMPDEST CALLVALUE DUP1 ISZERO PUSH2 0x793 JUMPI PUSH0 DUP1 REVERT JUMPDEST POP PUSH2 0x38E PUSH2 0x7A2 CALLDATASIZE PUSH1 0x4 PUSH2 0x5763 JUMP JUMPDEST PUSH1 0xD PUSH1 0x20 MSTORE PUSH0 SWAP1 DUP2 MSTORE PUSH1 0x40 SWAP1 KECCAK256 SLOAD DUP2 JUMP JUMPDEST CALLVALUE DUP1 ISZERO PUSH2 0x7BE JUMPI PUSH0 DUP1 REVERT JUMPDEST POP PUSH2 0x38E PUSH1 0x10 SLOAD DUP2 JUMP JUMPDEST PUSH2 0x307 PUSH2 0x2FAA JUMP JUMPDEST CALLVALUE DUP1 ISZERO PUSH2 0x7DB JUMPI PUSH0 DUP1 REVERT JUMPDEST POP PUSH2 0x38E PUSH2 0x7EA CALLDATASIZE PUSH1 0x4 PUSH2 0x5AA5 JUMP JUMPDEST PUSH1 0x1 PUSH1 0x1 PUSH1 0xA0 SHL SUB SWAP2 DUP3 AND PUSH0 SWAP1 DUP2 MSTORE PUSH1 0x2 PUSH1 0x20 SWAP1 DUP2 MSTORE PUSH1 0x40 DUP1 DUP4 KECCAK256 SWAP4 SWAP1 SWAP5 AND DUP3 MSTORE SWAP2 SWAP1 SWAP2 MSTORE KECCAK256 SLOAD SWAP1 JUMP JUMPDEST CALLVALUE DUP1 ISZERO PUSH2 0x81F JUMPI PUSH0 DUP1 REVERT JUMPDEST POP PUSH2 0x38E PUSH2 0x82E CALLDATASIZE PUSH1 0x4 PUSH2 0x5849 JUMP JUMPDEST PUSH2 0x337F JUMP JUMPDEST CALLVALUE DUP1 ISZERO PUSH2 0x83E JUMPI PUSH0 DUP1 REVERT JUMPDEST POP PUSH2 0x307 PUSH2 0x84D CALLDATASIZE PUSH1 0x4 PUSH2 0x5763 JUMP JUMPDEST PUSH2 0x3713 JUMP JUMPDEST CALLVALUE DUP1 ISZERO PUSH2 0x85D JUMPI PUSH0 DUP1 REVERT JUMPDEST POP PUSH2 0x38E PUSH1 0x11 SLOAD DUP2 JUMP JUMPDEST CALLVALUE DUP1 ISZERO PUSH2 0x872 JUMPI PUSH0 DUP1 REVERT JUMPDEST POP PUSH2 0x307 PUSH2 0x374D JUMP JUMPDEST PUSH1 0x60 PUSH1 0x4 DUP1 SLOAD PUSH2 0x88A SWAP1 PUSH2 0x5AD1 JUMP JUMPDEST DUP1 PUSH1 0x1F ADD PUSH1 0x20 DUP1 SWAP2 DIV MUL PUSH1 0x20 ADD PUSH1 0x40 MLOAD SWAP1 DUP2 ADD PUSH1 0x40 MSTORE DUP1 SWAP3 SWAP2 SWAP1 DUP2 DUP2 MSTORE PUSH1 0x20 ADD DUP3 DUP1 SLOAD PUSH2 0x8B6 SWAP1 PUSH2 0x5AD1 JUMP JUMPDEST DUP1 ISZERO PUSH2 0x901 JUMPI DUP1 PUSH1 0x1F LT PUSH2 0x8D8 JUMPI PUSH2 0x100 DUP1 DUP4 SLOAD DIV MUL DUP4 MSTORE SWAP2 PUSH1 0x20 ADD SWAP2 PUSH2 0x901 JUMP JUMPDEST DUP3 ADD SWAP2 SWAP1 PUSH0 MSTORE PUSH1 0x20 PUSH0 KECCAK256 SWAP1 JUMPDEST DUP2 SLOAD DUP2 MSTORE SWAP1 PUSH1 0x1 ADD SWAP1 PUSH1 0x20 ADD DUP1 DUP4 GT PUSH2 0x8E4 JUMPI DUP3 SWAP1 SUB PUSH1 0x1F AND DUP3 ADD SWAP2 JUMPDEST POP POP POP POP POP SWAP1 POP SWAP1 JUMP JUMPDEST PUSH0 CALLER PUSH2 0x918 DUP2 DUP6 DUP6 PUSH2 0x3C88 JUMP JUMPDEST PUSH1 0x1 SWAP2 POP POP JUMPDEST SWAP3 SWAP2 POP POP JUMP JUMPDEST PUSH2 0x92C PUSH2 0x3C95 JUMP JUMPDEST PUSH2 0x2710 DUP3 GT ISZERO PUSH2 0x96B JUMPI PUSH1 0x40 MLOAD PUSH3 0x461BCD PUSH1 0xE5 SHL DUP2 MSTORE PUSH1 0x20 PUSH1 0x4 DUP3 ADD MSTORE PUSH1 0x5 PUSH1 0x24 DUP3 ADD MSTORE PUSH5 0x2164666565 PUSH1 0xD8 SHL PUSH1 0x44 DUP3 ADD MSTORE PUSH1 0x64 ADD JUMPDEST PUSH1 0x40 MLOAD DUP1 SWAP2 SUB SWAP1 REVERT JUMPDEST PUSH2 0x2710 DUP2 GT ISZERO PUSH2 0x9A5 JUMPI PUSH1 0x40 MLOAD PUSH3 0x461BCD PUSH1 0xE5 SHL DUP2 MSTORE PUSH1 0x20 PUSH1 0x4 DUP3 ADD MSTORE PUSH1 0x5 PUSH1 0x24 DUP3 ADD MSTORE PUSH5 0x2177666565 PUSH1 0xD8 SHL PUSH1 0x44 DUP3 ADD MSTORE PUSH1 0x64 ADD PUSH2 0x962 JUMP JUMPDEST PUSH1 0xE SWAP2 SWAP1 SWAP2 SSTORE PUSH1 0xF SSTORE JUMP JUMPDEST PUSH1 0x6 SLOAD DUP2 MLOAD PUSH0 SWAP2 EQ PUSH2 0x9EA JUMPI PUSH1 0x40 MLOAD PUSH3 0x461BCD PUSH1 0xE5 SHL DUP2 MSTORE PUSH1 0x20 PUSH1 0x4 DUP3 ADD MSTORE PUSH1 0x3 PUSH1 0x24 DUP3 ADD MSTORE PUSH3 0x85413 PUSH1 0xEA SHL PUSH1 0x44 DUP3 ADD MSTORE PUSH1 0x64 ADD PUSH2 0x962 JUMP JUMPDEST PUSH0 PUSH2 0x9F4 DUP4 PUSH2 0x22E7 JUMP JUMPDEST SWAP1 POP PUSH0 DUP2 GT PUSH2 0xA2E JUMPI PUSH1 0x40 MLOAD PUSH3 0x461BCD PUSH1 0xE5 SHL DUP2 MSTORE PUSH1 0x4 ADD PUSH2 0x962 SWAP1 PUSH1 0x20 DUP1 DUP3 MSTORE PUSH1 0x4 SWAP1 DUP3 ADD MSTORE PUSH4 0x54563E3 PUSH1 0xE4 SHL PUSH1 0x40 DUP3 ADD MSTORE PUSH1 0x60 ADD SWAP1 JUMP JUMPDEST PUSH0 JUMPDEST PUSH1 0x6 SLOAD DUP2 LT ISZERO PUSH2 0xB7C JUMPI PUSH0 PUSH1 0x6 DUP3 DUP2 SLOAD DUP2 LT PUSH2 0xA4E JUMPI PUSH2 0xA4E PUSH2 0x5B09 JUMP JUMPDEST SWAP1 PUSH0 MSTORE PUSH1 0x20 PUSH0 KECCAK256 SWAP1 PUSH1 0x4 MUL ADD SWAP1 POP PUSH0 PUSH2 0xAEB DUP7 DUP5 DUP2 MLOAD DUP2 LT PUSH2 0xA72 JUMPI PUSH2 0xA72 PUSH2 0x5B09 JUMP JUMPDEST PUSH1 0x20 SWAP1 DUP2 MUL SWAP2 SWAP1 SWAP2 ADD ADD MLOAD DUP4 SLOAD PUSH1 0x40 MLOAD PUSH4 0x70A08231 PUSH1 0xE0 SHL DUP2 MSTORE ADDRESS PUSH1 0x4 DUP3 ADD MSTORE PUSH1 0x1 PUSH1 0x1 PUSH1 0xA0 SHL SUB SWAP1 SWAP2 AND SWAP1 PUSH4 0x70A08231 SWAP1 PUSH1 0x24 ADD PUSH1 0x20 PUSH1 0x40 MLOAD DUP1 DUP4 SUB DUP2 DUP7 GAS STATICCALL ISZERO DUP1 ISZERO PUSH2 0xAC2 JUMPI RETURNDATASIZE PUSH0 DUP1 RETURNDATACOPY RETURNDATASIZE PUSH0 REVERT JUMPDEST POP POP POP POP PUSH1 0x40 MLOAD RETURNDATASIZE PUSH1 0x1F NOT PUSH1 0x1F DUP3 ADD AND DUP3 ADD DUP1 PUSH1 0x40 MSTORE POP DUP2 ADD SWAP1 PUSH2 0xAE6 SWAP2 SWAP1 PUSH2 0x5B1D JUMP JUMPDEST PUSH2 0x3CC1 JUMP JUMPDEST SWAP1 POP PUSH0 DUP2 GT PUSH2 0xB25 JUMPI PUSH1 0x40 MLOAD PUSH3 0x461BCD PUSH1 0xE5 SHL DUP2 MSTORE PUSH1 0x4 ADD PUSH2 0x962 SWAP1 PUSH1 0x20 DUP1 DUP3 MSTORE PUSH1 0x4 SWAP1 DUP3 ADD MSTORE PUSH4 0x43503E3 PUSH1 0xE4 SHL PUSH1 0x40 DUP3 ADD MSTORE PUSH1 0x60 ADD SWAP1 JUMP JUMPDEST PUSH0 DUP5 PUSH2 0xB33 DUP4 PUSH2 0x2710 PUSH2 0x5B48 JUMP JUMPDEST PUSH2 0xB3D SWAP2 SWAP1 PUSH2 0x5B5F JUMP JUMPDEST SWAP1 POP DUP3 PUSH1 0x1 ADD SLOAD DUP2 GT ISZERO PUSH2 0xB58 JUMPI POP PUSH1 0x1 SWAP7 SWAP6 POP POP POP POP POP POP JUMP JUMPDEST DUP3 PUSH1 0x1 ADD SLOAD DUP2 LT ISZERO PUSH2 0xB71 JUMPI POP PUSH1 0x1 SWAP7 SWAP6 POP POP POP POP POP POP JUMP JUMPDEST POP POP POP PUSH1 0x1 ADD PUSH2 0xA30 JUMP JUMPDEST POP PUSH0 SWAP4 SWAP3 POP POP POP JUMP JUMPDEST PUSH2 0xB8D PUSH2 0x3C95 JUMP JUMPDEST PUSH2 0x2710 DUP2 GT ISZERO PUSH2 0xBC8 JUMPI PUSH1 0x40 MLOAD PUSH3 0x461BCD PUSH1 0xE5 SHL DUP2 MSTORE PUSH1 0x4 ADD PUSH2 0x962 SWAP1 PUSH1 0x20 DUP1 DUP3 MSTORE PUSH1 0x4 SWAP1 DUP3 ADD MSTORE PUSH4 0x21534C5 PUSH1 0xE4 SHL PUSH1 0x40 DUP3 ADD MSTORE PUSH1 0x60 ADD SWAP1 JUMP JUMPDEST PUSH1 0x10 SSTORE JUMP JUMPDEST PUSH0 CALLER PUSH2 0xBDA DUP6 DUP3 DUP6 PUSH2 0x3CD3 JUMP JUMPDEST PUSH2 0xBE5 DUP6 DUP6 DUP6 PUSH2 0x3D48 JUMP JUMPDEST POP PUSH1 0x1 SWAP5 SWAP4 POP POP POP POP JUMP JUMPDEST PUSH1 0x60 PUSH1 0x6 DUP1 SLOAD DUP1 PUSH1 0x20 MUL PUSH1 0x20 ADD PUSH1 0x40 MLOAD SWAP1 DUP2 ADD PUSH1 0x40 MSTORE DUP1 SWAP3 SWAP2 SWAP1 DUP2 DUP2 MSTORE PUSH1 0x20 ADD PUSH0 SWAP1 JUMPDEST DUP3 DUP3 LT ISZERO PUSH2 0xD06 JUMPI PUSH0 DUP5 DUP2 MSTORE PUSH1 0x20 SWAP1 DUP2 SWAP1 KECCAK256 PUSH1 0x40 DUP1 MLOAD PUSH1 0x80 DUP2 ADD DUP3 MSTORE PUSH1 0x4 DUP7 MUL SWAP1 SWAP3 ADD DUP1 SLOAD PUSH1 0x1 PUSH1 0x1 PUSH1 0xA0 SHL SUB AND DUP4 MSTORE PUSH1 0x1 DUP2 ADD SLOAD SWAP4 DUP4 ADD SWAP4 SWAP1 SWAP4 MSTORE PUSH1 0x2 DUP4 ADD DUP1 SLOAD SWAP3 SWAP4 SWAP3 SWAP2 DUP5 ADD SWAP2 PUSH2 0xC65 SWAP1 PUSH2 0x5AD1 JUMP JUMPDEST DUP1 PUSH1 0x1F ADD PUSH1 0x20 DUP1 SWAP2 DIV MUL PUSH1 0x20 ADD PUSH1 0x40 MLOAD SWAP1 DUP2 ADD PUSH1 0x40 MSTORE DUP1 SWAP3 SWAP2 SWAP1 DUP2 DUP2 MSTORE PUSH1 0x20 ADD DUP3 DUP1 SLOAD PUSH2 0xC91 SWAP1 PUSH2 0x5AD1 JUMP JUMPDEST DUP1 ISZERO PUSH2 0xCDC JUMPI DUP1 PUSH1 0x1F LT PUSH2 0xCB3 JUMPI PUSH2 0x100 DUP1 DUP4 SLOAD DIV MUL DUP4 MSTORE SWAP2 PUSH1 0x20 ADD SWAP2 PUSH2 0xCDC JUMP JUMPDEST DUP3 ADD SWAP2 SWAP1 PUSH0 MSTORE PUSH1 0x20 PUSH0 KECCAK256 SWAP1 JUMPDEST DUP2 SLOAD DUP2 MSTORE SWAP1 PUSH1 0x1 ADD SWAP1 PUSH1 0x20 ADD DUP1 DUP4 GT PUSH2 0xCBF JUMPI DUP3 SWAP1 SUB PUSH1 0x1F AND DUP3 ADD SWAP2 JUMPDEST POP POP POP SWAP2 DUP4 MSTORE POP POP PUSH1 0x3 SWAP2 SWAP1 SWAP2 ADD SLOAD PUSH3 0xFFFFFF AND PUSH1 0x20 SWAP2 DUP3 ADD MSTORE SWAP1 DUP3 MSTORE PUSH1 0x1 SWAP3 SWAP1 SWAP3 ADD SWAP2 ADD PUSH2 0xC13 JUMP JUMPDEST POP POP POP POP SWAP1 POP SWAP1 JUMP JUMPDEST PUSH2 0xD17 PUSH2 0x3DA5 JUMP JUMPDEST PUSH0 DUP2 GT PUSH2 0xD36 JUMPI PUSH1 0x40 MLOAD PUSH3 0x461BCD PUSH1 0xE5 SHL DUP2 MSTORE PUSH1 0x4 ADD PUSH2 0x962 SWAP1 PUSH2 0x5B7E JUMP JUMPDEST PUSH1 0x40 MLOAD PUSH4 0x70A08231 PUSH1 0xE0 SHL DUP2 MSTORE CALLER PUSH1 0x4 DUP3 ADD MSTORE DUP2 SWAP1 ADDRESS SWAP1 PUSH4 0x70A08231 SWAP1 PUSH1 0x24 ADD PUSH1 0x20 PUSH1 0x40 MLOAD DUP1 DUP4 SUB DUP2 DUP7 GAS STATICCALL ISZERO DUP1 ISZERO PUSH2 0xD71 JUMPI RETURNDATASIZE PUSH0 DUP1 RETURNDATACOPY RETURNDATASIZE PUSH0 REVERT JUMPDEST POP POP POP POP PUSH1 0x40 MLOAD RETURNDATASIZE PUSH1 0x1F NOT PUSH1 0x1F DUP3 ADD AND DUP3 ADD DUP1 PUSH1 0x40 MSTORE POP DUP2 ADD SWAP1 PUSH2 0xD95 SWAP2 SWAP1 PUSH2 0x5B1D JUMP JUMPDEST LT ISZERO PUSH2 0xDD3 JUMPI PUSH1 0x40 MLOAD PUSH3 0x461BCD PUSH1 0xE5 SHL DUP2 MSTORE PUSH1 0x20 PUSH1 0x4 DUP3 ADD MSTORE PUSH1 0xD PUSH1 0x24 DUP3 ADD MSTORE PUSH13 0x8525B9CDD59999A58DA595B9D PUSH1 0x9A SHL PUSH1 0x44 DUP3 ADD MSTORE PUSH1 0x64 ADD PUSH2 0x962 JUMP JUMPDEST PUSH0 PUSH2 0xDDD PUSH1 0x3 SLOAD SWAP1 JUMP JUMPDEST PUSH2 0xDE9 DUP4 PUSH2 0x2710 PUSH2 0x5B48 JUMP JUMPDEST PUSH2 0xDF3 SWAP2 SWAP1 PUSH2 0x5B5F JUMP JUMPDEST SWAP1 POP PUSH0 DUP2 GT DUP1 ISZERO PUSH2 0xE06 JUMPI POP PUSH2 0x2710 DUP2 GT ISZERO JUMPDEST PUSH2 0xE3C JUMPI PUSH1 0x40 MLOAD PUSH3 0x461BCD PUSH1 0xE5 SHL DUP2 MSTORE PUSH1 0x20 PUSH1 0x4 DUP3 ADD MSTORE PUSH1 0x7 PUSH1 0x24 DUP3 ADD MSTORE PUSH7 0x3026313030303 PUSH1 0xCC SHL PUSH1 0x44 DUP3 ADD MSTORE PUSH1 0x64 ADD PUSH2 0x962 JUMP JUMPDEST PUSH1 0x7 SLOAD PUSH1 0x40 DUP1 MLOAD PUSH4 0x15AB88C9 PUSH1 0xE3 SHL DUP2 MSTORE SWAP1 MLOAD PUSH0 SWAP3 PUSH1 0x1 PUSH1 0x1 PUSH1 0xA0 SHL SUB AND SWAP2 PUSH4 0xAD5C4648 SWAP2 PUSH1 0x4 DUP1 DUP4 ADD SWAP3 PUSH1 0x20 SWAP3 SWAP2 SWAP1 DUP3 SWAP1 SUB ADD DUP2 DUP7 GAS STATICCALL ISZERO DUP1 ISZERO PUSH2 0xE83 JUMPI RETURNDATASIZE PUSH0 DUP1 RETURNDATACOPY RETURNDATASIZE PUSH0 REVERT JUMPDEST POP POP POP POP PUSH1 0x40 MLOAD RETURNDATASIZE PUSH1 0x1F NOT PUSH1 0x1F DUP3 ADD AND DUP3 ADD DUP1 PUSH1 0x40 MSTORE POP DUP2 ADD SWAP1 PUSH2 0xEA7 SWAP2 SWAP1 PUSH2 0x5B9A JUMP JUMPDEST SWAP1 POP PUSH0 DUP1 PUSH0 JUMPDEST PUSH1 0x6 SLOAD DUP2 LT ISZERO PUSH2 0x1066 JUMPI PUSH0 PUSH1 0x6 DUP3 DUP2 SLOAD DUP2 LT PUSH2 0xECB JUMPI PUSH2 0xECB PUSH2 0x5B09 JUMP JUMPDEST PUSH0 SWAP2 DUP3 MSTORE PUSH1 0x20 DUP3 KECCAK256 PUSH1 0x4 SWAP2 DUP3 MUL ADD DUP1 SLOAD PUSH1 0x40 MLOAD PUSH4 0x70A08231 PUSH1 0xE0 SHL DUP2 MSTORE ADDRESS SWAP4 DUP2 ADD SWAP4 SWAP1 SWAP4 MSTORE SWAP1 SWAP4 POP PUSH2 0x2710 SWAP2 DUP10 SWAP2 PUSH1 0x1 PUSH1 0x1 PUSH1 0xA0 SHL SUB AND SWAP1 PUSH4 0x70A08231 SWAP1 PUSH1 0x24 ADD PUSH1 0x20 PUSH1 0x40 MLOAD DUP1 DUP4 SUB DUP2 DUP7 GAS STATICCALL ISZERO DUP1 ISZERO PUSH2 0xF27 JUMPI RETURNDATASIZE PUSH0 DUP1 RETURNDATACOPY RETURNDATASIZE PUSH0 REVERT JUMPDEST POP POP POP POP PUSH1 0x40 MLOAD RETURNDATASIZE PUSH1 0x1F NOT PUSH1 0x1F DUP3 ADD AND DUP3 ADD DUP1 PUSH1 0x40 MSTORE POP DUP2 ADD SWAP1 PUSH2 0xF4B SWAP2 SWAP1 PUSH2 0x5B1D JUMP JUMPDEST PUSH2 0xF55 SWAP2 SWAP1 PUSH2 0x5B48 JUMP JUMPDEST PUSH2 0xF5F SWAP2 SWAP1 PUSH2 0x5B5F JUMP JUMPDEST DUP3 SLOAD PUSH1 0x3 DUP5 ADD SLOAD PUSH1 0x40 MLOAD PUSH4 0xE7AE65AB PUSH1 0xE0 SHL DUP2 MSTORE SWAP3 SWAP4 POP PUSH0 SWAP3 ADDRESS SWAP3 PUSH4 0xE7AE65AB SWAP3 PUSH2 0xFA7 SWAP3 PUSH1 0x1 PUSH1 0x1 PUSH1 0xA0 SHL SUB SWAP1 SWAP3 AND SWAP2 DUP8 SWAP2 PUSH1 0x2 DUP11 ADD SWAP2 PUSH3 0xFFFFFF SWAP1 SWAP2 AND SWAP1 PUSH1 0x4 ADD PUSH2 0x5BB5 JUMP JUMPDEST PUSH1 0x20 PUSH1 0x40 MLOAD DUP1 DUP4 SUB DUP2 PUSH0 DUP8 GAS CALL ISZERO DUP1 ISZERO PUSH2 0xFC3 JUMPI RETURNDATASIZE PUSH0 DUP1 RETURNDATACOPY RETURNDATASIZE PUSH0 REVERT JUMPDEST POP POP POP POP PUSH1 0x40 MLOAD RETURNDATASIZE PUSH1 0x1F NOT PUSH1 0x1F DUP3 ADD AND DUP3 ADD DUP1 PUSH1 0x40 MSTORE POP DUP2 ADD SWAP1 PUSH2 0xFE7 SWAP2 SWAP1 PUSH2 0x5B1D JUMP JUMPDEST SWAP1 POP PUSH1 0x40 MLOAD PUSH1 0x20 ADD PUSH2 0xFF8 SWAP1 PUSH2 0x5C5E JUMP JUMPDEST PUSH1 0x40 MLOAD PUSH1 0x20 DUP2 DUP4 SUB SUB DUP2 MSTORE SWAP1 PUSH1 0x40 MSTORE DUP1 MLOAD SWAP1 PUSH1 0x20 ADD KECCAK256 DUP4 PUSH1 0x2 ADD PUSH1 0x40 MLOAD PUSH1 0x20 ADD PUSH2 0x1022 SWAP2 SWAP1 PUSH2 0x5C6C JUMP JUMPDEST PUSH1 0x40 MLOAD PUSH1 0x20 DUP2 DUP4 SUB SUB DUP2 MSTORE SWAP1 PUSH1 0x40 MSTORE DUP1 MLOAD SWAP1 PUSH1 0x20 ADD KECCAK256 SUB PUSH2 0x104E JUMPI PUSH2 0x1047 DUP2 DUP7 PUSH2 0x5CDD JUMP JUMPDEST SWAP5 POP PUSH2 0x105B JUMP JUMPDEST PUSH2 0x1058 DUP2 DUP8 PUSH2 0x5CDD JUMP JUMPDEST SWAP6 POP JUMPDEST POP POP POP PUSH1 0x1 ADD PUSH2 0xEAD JUMP JUMPDEST POP PUSH2 0x1071 CALLER DUP7 PUSH2 0x3DCF JUMP JUMPDEST DUP1 ISZERO PUSH2 0x112A JUMPI PUSH0 PUSH2 0x2710 PUSH1 0xF SLOAD DUP4 PUSH2 0x1089 SWAP2 SWAP1 PUSH2 0x5B48 JUMP JUMPDEST PUSH2 0x1093 SWAP2 SWAP1 PUSH2 0x5B5F JUMP JUMPDEST SWAP1 POP PUSH0 PUSH2 0x10A0 DUP3 DUP5 PUSH2 0x5CF0 JUMP JUMPDEST SWAP1 POP DUP2 PUSH1 0x12 PUSH0 DUP3 DUP3 SLOAD PUSH2 0x10B3 SWAP2 SWAP1 PUSH2 0x5CDD JUMP JUMPDEST SWAP1 SWAP2 SSTORE POP POP PUSH1 0x40 MLOAD PUSH4 0xA9059CBB PUSH1 0xE0 SHL DUP2 MSTORE CALLER PUSH1 0x4 DUP3 ADD MSTORE PUSH1 0x24 DUP2 ADD DUP3 SWAP1 MSTORE PUSH1 0x1 PUSH1 0x1 PUSH1 0xA0 SHL SUB DUP7 AND SWAP1 PUSH4 0xA9059CBB SWAP1 PUSH1 0x44 ADD PUSH1 0x20 PUSH1 0x40 MLOAD DUP1 DUP4 SUB DUP2 PUSH0 DUP8 GAS CALL ISZERO DUP1 ISZERO PUSH2 0x1102 JUMPI RETURNDATASIZE PUSH0 DUP1 RETURNDATACOPY RETURNDATASIZE PUSH0 REVERT JUMPDEST POP POP POP POP PUSH1 0x40 MLOAD RETURNDATASIZE PUSH1 0x1F NOT PUSH1 0x1F DUP3 ADD AND DUP3 ADD DUP1 PUSH1 0x40 MSTORE POP DUP2 ADD SWAP1 PUSH2 0x1126 SWAP2 SWAP1 PUSH2 0x5D03 JUMP JUMPDEST POP POP POP JUMPDEST DUP2 ISZERO PUSH2 0x121F JUMPI PUSH0 PUSH2 0x2710 PUSH1 0xF SLOAD DUP5 PUSH2 0x1142 SWAP2 SWAP1 PUSH2 0x5B48 JUMP JUMPDEST PUSH2 0x114C SWAP2 SWAP1 PUSH2 0x5B5F JUMP JUMPDEST SWAP1 POP PUSH0 PUSH2 0x1159 DUP3 DUP6 PUSH2 0x5CF0 JUMP JUMPDEST SWAP1 POP DUP2 PUSH1 0x11 PUSH0 DUP3 DUP3 SLOAD PUSH2 0x116C SWAP2 SWAP1 PUSH2 0x5CDD JUMP JUMPDEST SWAP1 SWAP2 SSTORE POP POP CALLER PUSH0 SWAP1 DUP2 MSTORE PUSH1 0xD PUSH1 0x20 MSTORE PUSH1 0x40 DUP2 KECCAK256 SLOAD SWAP1 PUSH2 0x118B DUP4 DUP4 PUSH2 0x5CDD JUMP JUMPDEST PUSH1 0x40 MLOAD SWAP1 SWAP2 POP PUSH0 SWAP1 CALLER SWAP1 DUP4 SWAP1 DUP4 DUP2 DUP2 DUP2 DUP6 DUP8 GAS CALL SWAP3 POP POP POP RETURNDATASIZE DUP1 PUSH0 DUP2 EQ PUSH2 0x11CD JUMPI PUSH1 0x40 MLOAD SWAP2 POP PUSH1 0x1F NOT PUSH1 0x3F RETURNDATASIZE ADD AND DUP3 ADD PUSH1 0x40 MSTORE RETURNDATASIZE DUP3 MSTORE RETURNDATASIZE PUSH0 PUSH1 0x20 DUP5 ADD RETURNDATACOPY PUSH2 0x11D2 JUMP JUMPDEST PUSH1 0x60 SWAP2 POP JUMPDEST POP POP SWAP1 POP DUP1 PUSH2 0x1219 JUMPI PUSH1 0x40 MLOAD PUSH3 0x461BCD PUSH1 0xE5 SHL DUP2 MSTORE PUSH1 0x20 PUSH1 0x4 DUP3 ADD MSTORE PUSH1 0x13 PUSH1 0x24 DUP3 ADD MSTORE PUSH19 0x115512081D1C985B9CD9995C8819985A5B1959 PUSH1 0x6A SHL PUSH1 0x44 DUP3 ADD MSTORE PUSH1 0x64 ADD PUSH2 0x962 JUMP JUMPDEST POP POP POP POP POP JUMPDEST POP POP POP POP POP JUMP JUMPDEST PUSH2 0x122E PUSH2 0x3DA5 JUMP JUMPDEST PUSH0 DUP2 GT PUSH2 0x124D JUMPI PUSH1 0x40 MLOAD PUSH3 0x461BCD PUSH1 0xE5 SHL DUP2 MSTORE PUSH1 0x4 ADD PUSH2 0x962 SWAP1 PUSH2 0x5B7E JUMP JUMPDEST PUSH1 0x40 MLOAD PUSH4 0x70A08231 PUSH1 0xE0 SHL DUP2 MSTORE CALLER PUSH1 0x4 DUP3 ADD MSTORE DUP2 SWAP1 ADDRESS SWAP1 PUSH4 0x70A08231 SWAP1 PUSH1 0x24 ADD PUSH1 0x20 PUSH1 0x40 MLOAD DUP1 DUP4 SUB DUP2 DUP7 GAS STATICCALL ISZERO DUP1 ISZERO PUSH2 0x1288 JUMPI RETURNDATASIZE PUSH0 DUP1 RETURNDATACOPY RETURNDATASIZE PUSH0 REVERT JUMPDEST POP POP POP POP PUSH1 0x40 MLOAD RETURNDATASIZE PUSH1 0x1F NOT PUSH1 0x1F DUP3 ADD AND DUP3 ADD DUP1 PUSH1 0x40 MSTORE POP DUP2 ADD SWAP1 PUSH2 0x12AC SWAP2 SWAP1 PUSH2 0x5B1D JUMP JUMPDEST LT ISZERO PUSH2 0x12E9 JUMPI PUSH1 0x40 MLOAD PUSH3 0x461BCD PUSH1 0xE5 SHL DUP2 MSTORE PUSH1 0x20 PUSH1 0x4 DUP3 ADD MSTORE PUSH1 0xC PUSH1 0x24 DUP3 ADD MSTORE PUSH12 0x125B9CDD59999A58DA595B9D PUSH1 0xA2 SHL PUSH1 0x44 DUP3 ADD MSTORE PUSH1 0x64 ADD PUSH2 0x962 JUMP JUMPDEST PUSH0 PUSH2 0x12F3 PUSH1 0x3 SLOAD SWAP1 JUMP JUMPDEST PUSH2 0x12FF DUP4 PUSH2 0x2710 PUSH2 0x5B48 JUMP JUMPDEST PUSH2 0x1309 SWAP2 SWAP1 PUSH2 0x5B5F JUMP JUMPDEST SWAP1 POP PUSH0 DUP2 GT DUP1 ISZERO PUSH2 0x131C JUMPI POP PUSH2 0x2710 DUP2 GT ISZERO JUMPDEST PUSH2 0x1352 JUMPI PUSH1 0x40 MLOAD PUSH3 0x461BCD PUSH1 0xE5 SHL DUP2 MSTORE PUSH1 0x20 PUSH1 0x4 DUP3 ADD MSTORE PUSH1 0x7 PUSH1 0x24 DUP3 ADD MSTORE PUSH7 0x3026313030303 PUSH1 0xCC SHL PUSH1 0x44 DUP3 ADD MSTORE PUSH1 0x64 ADD PUSH2 0x962 JUMP JUMPDEST PUSH0 JUMPDEST PUSH1 0x6 SLOAD DUP2 LT ISZERO PUSH2 0x18E6 JUMPI PUSH0 PUSH1 0x6 DUP3 DUP2 SLOAD DUP2 LT PUSH2 0x1372 JUMPI PUSH2 0x1372 PUSH2 0x5B09 JUMP JUMPDEST PUSH0 SWAP2 DUP3 MSTORE PUSH1 0x20 DUP3 KECCAK256 PUSH1 0x4 SWAP2 DUP3 MUL ADD DUP1 SLOAD PUSH1 0x40 MLOAD PUSH4 0x70A08231 PUSH1 0xE0 SHL DUP2 MSTORE ADDRESS SWAP4 DUP2 ADD SWAP4 SWAP1 SWAP4 MSTORE SWAP1 SWAP4 POP PUSH2 0x2710 SWAP2 DUP7 SWAP2 PUSH1 0x1 PUSH1 0x1 PUSH1 0xA0 SHL SUB AND SWAP1 PUSH4 0x70A08231 SWAP1 PUSH1 0x24 ADD PUSH1 0x20 PUSH1 0x40 MLOAD DUP1 DUP4 SUB DUP2 DUP7 GAS STATICCALL ISZERO DUP1 ISZERO PUSH2 0x13CE JUMPI RETURNDATASIZE PUSH0 DUP1 RETURNDATACOPY RETURNDATASIZE PUSH0 REVERT JUMPDEST POP POP POP POP PUSH1 0x40 MLOAD RETURNDATASIZE PUSH1 0x1F NOT PUSH1 0x1F DUP3 ADD AND DUP3 ADD DUP1 PUSH1 0x40 MSTORE POP DUP2 ADD SWAP1 PUSH2 0x13F2 SWAP2 SWAP1 PUSH2 0x5B1D JUMP JUMPDEST PUSH2 0x13FC SWAP2 SWAP1 PUSH2 0x5B48 JUMP JUMPDEST PUSH2 0x1406 SWAP2 SWAP1 PUSH2 0x5B5F JUMP JUMPDEST SWAP1 POP PUSH0 PUSH2 0x2710 PUSH1 0xF SLOAD DUP4 PUSH2 0x141A SWAP2 SWAP1 PUSH2 0x5B48 JUMP JUMPDEST PUSH2 0x1424 SWAP2 SWAP1 PUSH2 0x5B5F JUMP JUMPDEST SWAP1 POP PUSH0 PUSH2 0x1431 DUP3 DUP5 PUSH2 0x5CF0 JUMP JUMPDEST DUP5 SLOAD PUSH1 0x40 MLOAD PUSH4 0xA9059CBB PUSH1 0xE0 SHL DUP2 MSTORE CALLER PUSH1 0x4 DUP3 ADD MSTORE PUSH1 0x24 DUP2 ADD DUP4 SWAP1 MSTORE SWAP2 SWAP3 POP PUSH1 0x1 PUSH1 0x1 PUSH1 0xA0 SHL SUB AND SWAP1 PUSH4 0xA9059CBB SWAP1 PUSH1 0x44 ADD PUSH1 0x20 PUSH1 0x40 MLOAD DUP1 DUP4 SUB DUP2 PUSH0 DUP8 GAS CALL ISZERO DUP1 ISZERO PUSH2 0x147F JUMPI RETURNDATASIZE PUSH0 DUP1 RETURNDATACOPY RETURNDATASIZE PUSH0 REVERT JUMPDEST POP POP POP POP PUSH1 0x40 MLOAD RETURNDATASIZE PUSH1 0x1F NOT PUSH1 0x1F DUP3 ADD AND DUP3 ADD DUP1 PUSH1 0x40 MSTORE POP DUP2 ADD SWAP1 PUSH2 0x14A3 SWAP2 SWAP1 PUSH2 0x5D03 JUMP JUMPDEST POP PUSH1 0x40 MLOAD PUSH1 0x20 ADD PUSH2 0x14B3 SWAP1 PUSH2 0x5D1E JUMP JUMPDEST PUSH1 0x40 MLOAD PUSH1 0x20 DUP2 DUP4 SUB SUB DUP2 MSTORE SWAP1 PUSH1 0x40 MSTORE DUP1 MLOAD SWAP1 PUSH1 0x20 ADD KECCAK256 DUP5 PUSH1 0x2 ADD PUSH1 0x40 MLOAD PUSH1 0x20 ADD PUSH2 0x14DD SWAP2 SWAP1 PUSH2 0x5C6C JUMP JUMPDEST PUSH1 0x40 MLOAD PUSH1 0x20 DUP2 DUP4 SUB SUB DUP2 MSTORE SWAP1 PUSH1 0x40 MSTORE DUP1 MLOAD SWAP1 PUSH1 0x20 ADD KECCAK256 SUB PUSH2 0x16C5 JUMPI PUSH1 0x40 DUP1 MLOAD PUSH1 0x2 DUP1 DUP3 MSTORE PUSH1 0x60 DUP3 ADD DUP4 MSTORE PUSH0 SWAP3 PUSH1 0x20 DUP4 ADD SWAP1 DUP1 CALLDATASIZE DUP4 CALLDATACOPY POP POP DUP7 SLOAD DUP3 MLOAD SWAP3 SWAP4 POP PUSH1 0x1 PUSH1 0x1 PUSH1 0xA0 SHL SUB AND SWAP2 DUP4 SWAP2 POP PUSH0 SWAP1 PUSH2 0x1536 JUMPI PUSH2 0x1536 PUSH2 0x5B09 JUMP JUMPDEST PUSH1 0x1 PUSH1 0x1 PUSH1 0xA0 SHL SUB SWAP3 DUP4 AND PUSH1 0x20 SWAP2 DUP3 MUL SWAP3 SWAP1 SWAP3 ADD DUP2 ADD SWAP2 SWAP1 SWAP2 MSTORE PUSH1 0x7 SLOAD PUSH1 0x40 DUP1 MLOAD PUSH4 0x15AB88C9 PUSH1 0xE3 SHL DUP2 MSTORE SWAP1 MLOAD SWAP2 SWAP1 SWAP4 AND SWAP3 PUSH4 0xAD5C4648 SWAP3 PUSH1 0x4 DUP1 DUP4 ADD SWAP4 SWAP2 SWAP3 DUP3 SWAP1 SUB ADD DUP2 DUP7 GAS STATICCALL ISZERO DUP1 ISZERO PUSH2 0x158D JUMPI RETURNDATASIZE PUSH0 DUP1 RETURNDATACOPY RETURNDATASIZE PUSH0 REVERT JUMPDEST POP POP POP POP PUSH1 0x40 MLOAD RETURNDATASIZE PUSH1 0x1F NOT PUSH1 0x1F DUP3 ADD AND DUP3 ADD DUP1 PUSH1 0x40 MSTORE POP DUP2 ADD SWAP1 PUSH2 0x15B1 SWAP2 SWAP1 PUSH2 0x5B9A JUMP JUMPDEST DUP2 PUSH1 0x1 DUP2 MLOAD DUP2 LT PUSH2 0x15C4 JUMPI PUSH2 0x15C4 PUSH2 0x5B09 JUMP JUMPDEST PUSH1 0x1 PUSH1 0x1 PUSH1 0xA0 SHL SUB SWAP3 DUP4 AND PUSH1 0x20 SWAP2 DUP3 MUL SWAP3 SWAP1 SWAP3 ADD ADD MSTORE PUSH1 0x7 SLOAD PUSH1 0x40 MLOAD PUSH4 0xD06CA61F PUSH1 0xE0 SHL DUP2 MSTORE PUSH0 SWAP3 SWAP2 SWAP1 SWAP2 AND SWAP1 PUSH4 0xD06CA61F SWAP1 PUSH2 0x1607 SWAP1 DUP8 SWAP1 DUP7 SWAP1 PUSH1 0x4 ADD PUSH2 0x5D6F JUMP JUMPDEST PUSH0 PUSH1 0x40 MLOAD DUP1 DUP4 SUB DUP2 DUP7 GAS STATICCALL ISZERO DUP1 ISZERO PUSH2 0x1621 JUMPI RETURNDATASIZE PUSH0 DUP1 RETURNDATACOPY RETURNDATASIZE PUSH0 REVERT JUMPDEST POP POP POP POP PUSH1 0x40 MLOAD RETURNDATASIZE PUSH0 DUP3 RETURNDATACOPY PUSH1 0x1F RETURNDATASIZE SWAP1 DUP2 ADD PUSH1 0x1F NOT AND DUP3 ADD PUSH1 0x40 MSTORE PUSH2 0x1648 SWAP2 SWAP1 DUP2 ADD SWAP1 PUSH2 0x5D87 JUMP JUMPDEST SWAP1 POP PUSH0 PUSH2 0x2710 PUSH1 0x10 SLOAD PUSH2 0x2710 PUSH2 0x165E SWAP2 SWAP1 PUSH2 0x5CF0 JUMP JUMPDEST DUP4 PUSH1 0x1 DUP2 MLOAD DUP2 LT PUSH2 0x1671 JUMPI PUSH2 0x1671 PUSH2 0x5B09 JUMP JUMPDEST PUSH1 0x20 MUL PUSH1 0x20 ADD ADD MLOAD PUSH2 0x1683 SWAP2 SWAP1 PUSH2 0x5B48 JUMP JUMPDEST PUSH2 0x168D SWAP2 SWAP1 PUSH2 0x5B5F JUMP JUMPDEST DUP8 SLOAD SWAP1 SWAP2 POP PUSH2 0x16A7 SWAP1 PUSH1 0x1 PUSH1 0x1 PUSH1 0xA0 SHL SUB AND DUP7 DUP4 ADDRESS PUSH2 0x3E03 JUMP JUMPDEST PUSH1 0x11 PUSH0 DUP3 DUP3 SLOAD PUSH2 0x16B7 SWAP2 SWAP1 PUSH2 0x5CDD JUMP JUMPDEST SWAP1 SWAP2 SSTORE POP PUSH2 0x18D6 SWAP4 POP POP POP POP JUMP JUMPDEST PUSH1 0x40 MLOAD PUSH1 0x20 ADD PUSH2 0x16D4 SWAP1 PUSH2 0x5C5E JUMP JUMPDEST PUSH1 0x40 MLOAD PUSH1 0x20 DUP2 DUP4 SUB SUB DUP2 MSTORE SWAP1 PUSH1 0x40 MSTORE DUP1 MLOAD SWAP1 PUSH1 0x20 ADD KECCAK256 DUP5 PUSH1 0x2 ADD PUSH1 0x40 MLOAD PUSH1 0x20 ADD PUSH2 0x16FE SWAP2 SWAP1 PUSH2 0x5C6C JUMP JUMPDEST PUSH1 0x40 MLOAD PUSH1 0x20 DUP2 DUP4 SUB SUB DUP2 MSTORE SWAP1 PUSH1 0x40 MSTORE DUP1 MLOAD SWAP1 PUSH1 0x20 ADD KECCAK256 SUB PUSH2 0x188E JUMPI DUP4 SLOAD PUSH1 0x3 DUP6 ADD SLOAD PUSH1 0x7 SLOAD PUSH1 0x40 DUP1 MLOAD PUSH4 0x15AB88C9 PUSH1 0xE3 SHL DUP2 MSTORE SWAP1 MLOAD PUSH0 SWAP5 PUSH1 0x1 PUSH1 0x1 PUSH1 0xA0 SHL SUB SWAP1 DUP2 AND SWAP5 PUSH3 0xFFFFFF AND SWAP4 AND SWAP2 PUSH4 0xAD5C4648 SWAP2 PUSH1 0x4 DUP1 DUP4 ADD SWAP3 PUSH1 0x20 SWAP3 SWAP2 SWAP1 DUP3 SWAP1 SUB ADD DUP2 DUP7 GAS STATICCALL ISZERO DUP1 ISZERO PUSH2 0x1771 JUMPI RETURNDATASIZE PUSH0 DUP1 RETURNDATACOPY RETURNDATASIZE PUSH0 REVERT JUMPDEST POP POP POP POP PUSH1 0x40 MLOAD RETURNDATASIZE PUSH1 0x1F NOT PUSH1 0x1F DUP3 ADD AND DUP3 ADD DUP1 PUSH1 0x40 MSTORE POP DUP2 ADD SWAP1 PUSH2 0x1795 SWAP2 SWAP1 PUSH2 0x5B9A JUMP JUMPDEST PUSH1 0x40 MLOAD PUSH1 0x20 ADD PUSH2 0x17A7 SWAP4 SWAP3 SWAP2 SWAP1 PUSH2 0x5E0D JUMP JUMPDEST PUSH1 0x40 DUP1 MLOAD PUSH1 0x1F NOT DUP2 DUP5 SUB ADD DUP2 MSTORE SWAP1 DUP3 SWAP1 MSTORE PUSH1 0x9 SLOAD PUSH4 0xCDCA1753 PUSH1 0xE0 SHL DUP4 MSTORE SWAP1 SWAP3 POP PUSH0 SWAP2 PUSH1 0x1 PUSH1 0x1 PUSH1 0xA0 SHL SUB SWAP1 SWAP2 AND SWAP1 PUSH4 0xCDCA1753 SWAP1 PUSH2 0x17EC SWAP1 DUP6 SWAP1 DUP9 SWAP1 PUSH1 0x4 ADD PUSH2 0x5E48 JUMP JUMPDEST PUSH1 0x20 PUSH1 0x40 MLOAD DUP1 DUP4 SUB DUP2 PUSH0 DUP8 GAS CALL ISZERO DUP1 ISZERO PUSH2 0x1808 JUMPI RETURNDATASIZE PUSH0 DUP1 RETURNDATACOPY RETURNDATASIZE PUSH0 REVERT JUMPDEST POP POP POP POP PUSH1 0x40 MLOAD RETURNDATASIZE PUSH1 0x1F NOT PUSH1 0x1F DUP3 ADD AND DUP3 ADD DUP1 PUSH1 0x40 MSTORE POP DUP2 ADD SWAP1 PUSH2 0x182C SWAP2 SWAP1 PUSH2 0x5B1D JUMP JUMPDEST SWAP1 POP PUSH0 PUSH2 0x2710 PUSH1 0x10 SLOAD PUSH2 0x2710 PUSH2 0x1842 SWAP2 SWAP1 PUSH2 0x5CF0 JUMP JUMPDEST PUSH2 0x184C SWAP1 DUP5 PUSH2 0x5B48 JUMP JUMPDEST PUSH2 0x1856 SWAP2 SWAP1 PUSH2 0x5B5F JUMP JUMPDEST DUP8 SLOAD PUSH1 0x3 DUP10 ADD SLOAD SWAP2 SWAP3 POP PUSH2 0x187E SWAP2 PUSH1 0x1 PUSH1 0x1 PUSH1 0xA0 SHL SUB SWAP1 SWAP2 AND SWAP1 DUP8 SWAP1 PUSH3 0xFFFFFF AND DUP5 ADDRESS PUSH2 0x3FEE JUMP JUMPDEST PUSH1 0x12 PUSH0 DUP3 DUP3 SLOAD PUSH2 0x16B7 SWAP2 SWAP1 PUSH2 0x5CDD JUMP JUMPDEST PUSH1 0x40 MLOAD PUSH3 0x461BCD PUSH1 0xE5 SHL DUP2 MSTORE PUSH1 0x20 PUSH1 0x4 DUP3 ADD MSTORE PUSH1 0x17 PUSH1 0x24 DUP3 ADD MSTORE PUSH32 0x496E76616C696420556E69737761702076657273696F6E000000000000000000 PUSH1 0x44 DUP3 ADD MSTORE PUSH1 0x64 ADD PUSH2 0x962 JUMP JUMPDEST POP POP PUSH1 0x1 SWAP1 SWAP3 ADD SWAP2 POP PUSH2 0x1354 SWAP1 POP JUMP JUMPDEST POP PUSH2 0x18F1 CALLER DUP4 PUSH2 0x3DCF JUMP JUMPDEST CALLER PUSH0 SWAP1 DUP2 MSTORE PUSH1 0xD PUSH1 0x20 MSTORE PUSH1 0x40 DUP2 KECCAK256 SLOAD PUSH2 0x2710 SWAP1 PUSH2 0x190F SWAP1 DUP5 SWAP1 PUSH2 0x5B48 JUMP JUMPDEST PUSH2 0x1919 SWAP2 SWAP1 PUSH2 0x5B5F JUMP JUMPDEST SWAP1 POP DUP1 DUP1 ISZERO PUSH2 0x199C JUMPI PUSH1 0x40 MLOAD PUSH0 SWAP1 CALLER SWAP1 DUP4 SWAP1 DUP4 DUP2 DUP2 DUP2 DUP6 DUP8 GAS CALL SWAP3 POP POP POP RETURNDATASIZE DUP1 PUSH0 DUP2 EQ PUSH2 0x1961 JUMPI PUSH1 0x40 MLOAD SWAP2 POP PUSH1 0x1F NOT PUSH1 0x3F RETURNDATASIZE ADD AND DUP3 ADD PUSH1 0x40 MSTORE RETURNDATASIZE DUP3 MSTORE RETURNDATASIZE PUSH0 PUSH1 0x20 DUP5 ADD RETURNDATACOPY PUSH2 0x1966 JUMP JUMPDEST PUSH1 0x60 SWAP2 POP JUMPDEST POP POP SWAP1 POP DUP1 PUSH2 0x121F JUMPI PUSH1 0x40 MLOAD PUSH3 0x461BCD PUSH1 0xE5 SHL DUP2 MSTORE PUSH1 0x20 PUSH1 0x4 DUP3 ADD MSTORE PUSH1 0x2 PUSH1 0x24 DUP3 ADD MSTORE PUSH2 0x2A29 PUSH1 0xF1 SHL PUSH1 0x44 DUP3 ADD MSTORE PUSH1 0x64 ADD PUSH2 0x962 JUMP JUMPDEST POP POP POP POP JUMP JUMPDEST PUSH1 0x6 DUP2 DUP2 SLOAD DUP2 LT PUSH2 0x19B1 JUMPI PUSH0 DUP1 REVERT JUMPDEST PUSH0 SWAP2 DUP3 MSTORE PUSH1 0x20 SWAP1 SWAP2 KECCAK256 PUSH1 0x4 SWAP1 SWAP2 MUL ADD DUP1 SLOAD PUSH1 0x1 DUP3 ADD SLOAD PUSH1 0x2 DUP4 ADD DUP1 SLOAD PUSH1 0x1 PUSH1 0x1 PUSH1 0xA0 SHL SUB SWAP1 SWAP4 AND SWAP5 POP SWAP1 SWAP3 SWAP2 PUSH2 0x19E6 SWAP1 PUSH2 0x5AD1 JUMP JUMPDEST DUP1 PUSH1 0x1F ADD PUSH1 0x20 DUP1 SWAP2 DIV MUL PUSH1 0x20 ADD PUSH1 0x40 MLOAD SWAP1 DUP2 ADD PUSH1 0x40 MSTORE DUP1 SWAP3 SWAP2 SWAP1 DUP2 DUP2 MSTORE PUSH1 0x20 ADD DUP3 DUP1 SLOAD PUSH2 0x1A12 SWAP1 PUSH2 0x5AD1 JUMP JUMPDEST DUP1 ISZERO PUSH2 0x1A5D JUMPI DUP1 PUSH1 0x1F LT PUSH2 0x1A34 JUMPI PUSH2 0x100 DUP1 DUP4 SLOAD DIV MUL DUP4 MSTORE SWAP2 PUSH1 0x20 ADD SWAP2 PUSH2 0x1A5D JUMP JUMPDEST DUP3 ADD SWAP2 SWAP1 PUSH0 MSTORE PUSH1 0x20 PUSH0 KECCAK256 SWAP1 JUMPDEST DUP2 SLOAD DUP2 MSTORE SWAP1 PUSH1 0x1 ADD SWAP1 PUSH1 0x20 ADD DUP1 DUP4 GT PUSH2 0x1A40 JUMPI DUP3 SWAP1 SUB PUSH1 0x1F AND DUP3 ADD SWAP2 JUMPDEST POP POP POP PUSH1 0x3 SWAP1 SWAP4 ADD SLOAD SWAP2 SWAP3 POP POP PUSH3 0xFFFFFF AND DUP5 JUMP JUMPDEST PUSH1 0xB DUP2 DUP2 SLOAD DUP2 LT PUSH2 0x1A81 JUMPI PUSH0 DUP1 REVERT JUMPDEST PUSH0 SWAP2 DUP3 MSTORE PUSH1 0x20 SWAP1 SWAP2 KECCAK256 PUSH1 0x5 SWAP1 SWAP2 MUL ADD DUP1 SLOAD PUSH1 0x1 DUP3 ADD SLOAD PUSH1 0x2 DUP4 ADD SLOAD PUSH1 0x3 DUP5 ADD DUP1 SLOAD PUSH1 0x1 PUSH1 0x1 PUSH1 0xA0 SHL SUB SWAP5 DUP6 AND SWAP7 POP SWAP3 SWAP1 SWAP4 AND SWAP4 SWAP1 SWAP3 SWAP1 SWAP2 PUSH2 0x1AC1 SWAP1 PUSH2 0x5AD1 JUMP JUMPDEST DUP1 PUSH1 0x1F ADD PUSH1 0x20 DUP1 SWAP2 DIV MUL PUSH1 0x20 ADD PUSH1 0x40 MLOAD SWAP1 DUP2 ADD PUSH1 0x40 MSTORE DUP1 SWAP3 SWAP2 SWAP1 DUP2 DUP2 MSTORE PUSH1 0x20 ADD DUP3 DUP1 SLOAD PUSH2 0x1AED SWAP1 PUSH2 0x5AD1 JUMP JUMPDEST DUP1 ISZERO PUSH2 0x1B38 JUMPI DUP1 PUSH1 0x1F LT PUSH2 0x1B0F JUMPI PUSH2 0x100 DUP1 DUP4 SLOAD DIV MUL DUP4 MSTORE SWAP2 PUSH1 0x20 ADD SWAP2 PUSH2 0x1B38 JUMP JUMPDEST DUP3 ADD SWAP2 SWAP1 PUSH0 MSTORE PUSH1 0x20 PUSH0 KECCAK256 SWAP1 JUMPDEST DUP2 SLOAD DUP2 MSTORE SWAP1 PUSH1 0x1 ADD SWAP1 PUSH1 0x20 ADD DUP1 DUP4 GT PUSH2 0x1B1B JUMPI DUP3 SWAP1 SUB PUSH1 0x1F AND DUP3 ADD SWAP2 JUMPDEST POP POP POP PUSH1 0x4 SWAP1 SWAP4 ADD SLOAD SWAP2 SWAP3 POP POP PUSH3 0xFFFFFF AND DUP6 JUMP JUMPDEST PUSH1 0x40 MLOAD PUSH1 0x20 ADD PUSH2 0x1B5C SWAP1 PUSH2 0x5D1E JUMP JUMPDEST PUSH1 0x40 MLOAD PUSH1 0x20 DUP2 DUP4 SUB SUB DUP2 MSTORE SWAP1 PUSH1 0x40 MSTORE DUP1 MLOAD SWAP1 PUSH1 0x20 ADD KECCAK256 DUP3 PUSH1 0x40 MLOAD PUSH1 0x20 ADD PUSH2 0x1B83 SWAP2 SWAP1 PUSH2 0x5E69 JUMP JUMPDEST PUSH1 0x40 MLOAD PUSH1 0x20 DUP2 DUP4 SUB SUB DUP2 MSTORE SWAP1 PUSH1 0x40 MSTORE DUP1 MLOAD SWAP1 PUSH1 0x20 ADD KECCAK256 SUB PUSH2 0x1D4E JUMPI PUSH1 0x40 DUP1 MLOAD PUSH1 0x2 DUP1 DUP3 MSTORE PUSH1 0x60 DUP3 ADD DUP4 MSTORE PUSH0 SWAP3 PUSH1 0x20 DUP4 ADD SWAP1 DUP1 CALLDATASIZE DUP4 CALLDATACOPY POP POP PUSH1 0x7 SLOAD PUSH1 0x40 DUP1 MLOAD PUSH4 0x15AB88C9 PUSH1 0xE3 SHL DUP2 MSTORE SWAP1 MLOAD SWAP4 SWAP5 POP PUSH1 0x1 PUSH1 0x1 PUSH1 0xA0 SHL SUB SWAP1 SWAP2 AND SWAP3 PUSH4 0xAD5C4648 SWAP3 POP PUSH1 0x4 DUP1 DUP4 ADD SWAP3 PUSH1 0x20 SWAP3 SWAP2 SWAP1 DUP3 SWAP1 SUB ADD DUP2 DUP7 GAS STATICCALL ISZERO DUP1 ISZERO PUSH2 0x1C05 JUMPI RETURNDATASIZE PUSH0 DUP1 RETURNDATACOPY RETURNDATASIZE PUSH0 REVERT JUMPDEST POP POP POP POP PUSH1 0x40 MLOAD RETURNDATASIZE PUSH1 0x1F NOT PUSH1 0x1F DUP3 ADD AND DUP3 ADD DUP1 PUSH1 0x40 MSTORE POP DUP2 ADD SWAP1 PUSH2 0x1C29 SWAP2 SWAP1 PUSH2 0x5B9A JUMP JUMPDEST DUP2 PUSH0 DUP2 MLOAD DUP2 LT PUSH2 0x1C3B JUMPI PUSH2 0x1C3B PUSH2 0x5B09 JUMP JUMPDEST PUSH1 0x20 MUL PUSH1 0x20 ADD ADD SWAP1 PUSH1 0x1 PUSH1 0x1 PUSH1 0xA0 SHL SUB AND SWAP1 DUP2 PUSH1 0x1 PUSH1 0x1 PUSH1 0xA0 SHL SUB AND DUP2 MSTORE POP POP DUP5 DUP2 PUSH1 0x1 DUP2 MLOAD DUP2 LT PUSH2 0x1C6F JUMPI PUSH2 0x1C6F PUSH2 0x5B09 JUMP JUMPDEST PUSH1 0x1 PUSH1 0x1 PUSH1 0xA0 SHL SUB SWAP3 DUP4 AND PUSH1 0x20 SWAP2 DUP3 MUL SWAP3 SWAP1 SWAP3 ADD ADD MSTORE PUSH1 0x7 SLOAD PUSH1 0x40 MLOAD PUSH4 0xD06CA61F PUSH1 0xE0 SHL DUP2 MSTORE PUSH0 SWAP3 SWAP2 SWAP1 SWAP2 AND SWAP1 PUSH4 0xD06CA61F SWAP1 PUSH2 0x1CB2 SWAP1 DUP9 SWAP1 DUP7 SWAP1 PUSH1 0x4 ADD PUSH2 0x5D6F JUMP JUMPDEST PUSH0 PUSH1 0x40 MLOAD DUP1 DUP4 SUB DUP2 DUP7 GAS STATICCALL ISZERO DUP1 ISZERO PUSH2 0x1CCC JUMPI RETURNDATASIZE PUSH0 DUP1 RETURNDATACOPY RETURNDATASIZE PUSH0 REVERT JUMPDEST POP POP POP POP PUSH1 0x40 MLOAD RETURNDATASIZE PUSH0 DUP3 RETURNDATACOPY PUSH1 0x1F RETURNDATASIZE SWAP1 DUP2 ADD PUSH1 0x1F NOT AND DUP3 ADD PUSH1 0x40 MSTORE PUSH2 0x1CF3 SWAP2 SWAP1 DUP2 ADD SWAP1 PUSH2 0x5D87 JUMP JUMPDEST SWAP1 POP PUSH0 PUSH2 0x2710 PUSH1 0x10 SLOAD PUSH2 0x2710 PUSH2 0x1D09 SWAP2 SWAP1 PUSH2 0x5CF0 JUMP JUMPDEST DUP4 PUSH1 0x1 DUP2 MLOAD DUP2 LT PUSH2 0x1D1C JUMPI PUSH2 0x1D1C PUSH2 0x5B09 JUMP JUMPDEST PUSH1 0x20 MUL PUSH1 0x20 ADD ADD MLOAD PUSH2 0x1D2E SWAP2 SWAP1 PUSH2 0x5B48 JUMP JUMPDEST PUSH2 0x1D38 SWAP2 SWAP1 PUSH2 0x5B5F JUMP JUMPDEST SWAP1 POP PUSH2 0x1D45 DUP8 DUP8 DUP4 PUSH2 0x41AD JUMP JUMPDEST POP POP POP POP PUSH2 0x199C JUMP JUMPDEST PUSH1 0x40 MLOAD PUSH1 0x20 ADD PUSH2 0x1D5D SWAP1 PUSH2 0x5C5E JUMP JUMPDEST PUSH1 0x40 MLOAD PUSH1 0x20 DUP2 DUP4 SUB SUB DUP2 MSTORE SWAP1 PUSH1 0x40 MSTORE DUP1 MLOAD SWAP1 PUSH1 0x20 ADD KECCAK256 DUP3 PUSH1 0x40 MLOAD PUSH1 0x20 ADD PUSH2 0x1D84 SWAP2 SWAP1 PUSH2 0x5E69 JUMP JUMPDEST PUSH1 0x40 MLOAD PUSH1 0x20 DUP2 DUP4 SUB SUB DUP2 MSTORE SWAP1 PUSH1 0x40 MSTORE DUP1 MLOAD SWAP1 PUSH1 0x20 ADD KECCAK256 SUB PUSH2 0x1EE3 JUMPI PUSH1 0x7 SLOAD PUSH1 0x40 DUP1 MLOAD PUSH4 0x15AB88C9 PUSH1 0xE3 SHL DUP2 MSTORE SWAP1 MLOAD PUSH0 SWAP3 PUSH1 0x1 PUSH1 0x1 PUSH1 0xA0 SHL SUB AND SWAP2 PUSH4 0xAD5C4648 SWAP2 PUSH1 0x4 DUP1 DUP4 ADD SWAP3 PUSH1 0x20 SWAP3 SWAP2 SWAP1 DUP3 SWAP1 SUB ADD DUP2 DUP7 GAS STATICCALL ISZERO DUP1 ISZERO PUSH2 0x1DE6 JUMPI RETURNDATASIZE PUSH0 DUP1 RETURNDATACOPY RETURNDATASIZE PUSH0 REVERT JUMPDEST POP POP POP POP PUSH1 0x40 MLOAD RETURNDATASIZE PUSH1 0x1F NOT PUSH1 0x1F DUP3 ADD AND DUP3 ADD DUP1 PUSH1 0x40 MSTORE POP DUP2 ADD SWAP1 PUSH2 0x1E0A SWAP2 SWAP1 PUSH2 0x5B9A JUMP JUMPDEST DUP3 DUP7 PUSH1 0x40 MLOAD PUSH1 0x20 ADD PUSH2 0x1E1E SWAP4 SWAP3 SWAP2 SWAP1 PUSH2 0x5E0D JUMP JUMPDEST PUSH1 0x40 DUP1 MLOAD PUSH1 0x1F NOT DUP2 DUP5 SUB ADD DUP2 MSTORE SWAP1 DUP3 SWAP1 MSTORE PUSH1 0x9 SLOAD PUSH4 0xCDCA1753 PUSH1 0xE0 SHL DUP4 MSTORE SWAP1 SWAP3 POP PUSH0 SWAP2 PUSH1 0x1 PUSH1 0x1 PUSH1 0xA0 SHL SUB SWAP1 SWAP2 AND SWAP1 PUSH4 0xCDCA1753 SWAP1 PUSH2 0x1E63 SWAP1 DUP6 SWAP1 DUP10 SWAP1 PUSH1 0x4 ADD PUSH2 0x5E48 JUMP JUMPDEST PUSH1 0x20 PUSH1 0x40 MLOAD DUP1 DUP4 SUB DUP2 PUSH0 DUP8 GAS CALL ISZERO DUP1 ISZERO PUSH2 0x1E7F JUMPI RETURNDATASIZE PUSH0 DUP1 RETURNDATACOPY RETURNDATASIZE PUSH0 REVERT JUMPDEST POP POP POP POP PUSH1 0x40 MLOAD RETURNDATASIZE PUSH1 0x1F NOT PUSH1 0x1F DUP3 ADD AND DUP3 ADD DUP1 PUSH1 0x40 MSTORE POP DUP2 ADD SWAP1 PUSH2 0x1EA3 SWAP2 SWAP1 PUSH2 0x5B1D JUMP JUMPDEST SWAP1 POP PUSH0 PUSH2 0x2710 PUSH1 0x10 SLOAD PUSH2 0x2710 PUSH2 0x1EB9 SWAP2 SWAP1 PUSH2 0x5CF0 JUMP JUMPDEST PUSH2 0x1EC3 SWAP1 DUP5 PUSH2 0x5B48 JUMP JUMPDEST PUSH2 0x1ECD SWAP2 SWAP1 PUSH2 0x5B5F JUMP JUMPDEST SWAP1 POP PUSH2 0x1EDB DUP8 DUP8 DUP7 DUP5 PUSH2 0x430A JUMP JUMPDEST POP POP POP PUSH2 0x199C JUMP JUMPDEST PUSH1 0x40 MLOAD PUSH3 0x461BCD PUSH1 0xE5 SHL DUP2 MSTORE PUSH1 0x20 PUSH1 0x4 DUP3 ADD MSTORE PUSH1 0x3 PUSH1 0x24 DUP3 ADD MSTORE PUSH3 0x10AAAB PUSH1 0xE9 SHL PUSH1 0x44 DUP3 ADD MSTORE PUSH1 0x64 ADD PUSH2 0x962 JUMP JUMPDEST PUSH2 0x1F19 PUSH2 0x3C95 JUMP JUMPDEST PUSH0 JUMPDEST PUSH1 0xB SLOAD DUP2 LT ISZERO PUSH2 0x226B JUMPI DUP2 PUSH1 0x1 PUSH1 0x1 PUSH1 0xA0 SHL SUB AND PUSH1 0xB DUP3 DUP2 SLOAD DUP2 LT PUSH2 0x1F42 JUMPI PUSH2 0x1F42 PUSH2 0x5B09 JUMP JUMPDEST PUSH0 SWAP2 DUP3 MSTORE PUSH1 0x20 SWAP1 SWAP2 KECCAK256 PUSH1 0x5 SWAP1 SWAP2 MUL ADD SLOAD PUSH1 0x1 PUSH1 0x1 PUSH1 0xA0 SHL SUB AND SUB PUSH2 0x2263 JUMPI PUSH0 PUSH1 0xB DUP3 DUP2 SLOAD DUP2 LT PUSH2 0x1F74 JUMPI PUSH2 0x1F74 PUSH2 0x5B09 JUMP JUMPDEST PUSH0 SWAP2 DUP3 MSTORE PUSH1 0x20 SWAP2 DUP3 SWAP1 KECCAK256 PUSH1 0x40 DUP1 MLOAD PUSH1 0xA0 DUP2 ADD DUP3 MSTORE PUSH1 0x5 SWAP1 SWAP4 MUL SWAP1 SWAP2 ADD DUP1 SLOAD PUSH1 0x1 PUSH1 0x1 PUSH1 0xA0 SHL SUB SWAP1 DUP2 AND DUP5 MSTORE PUSH1 0x1 DUP3 ADD SLOAD AND SWAP4 DUP4 ADD SWAP4 SWAP1 SWAP4 MSTORE PUSH1 0x2 DUP4 ADD SLOAD SWAP1 DUP3 ADD MSTORE PUSH1 0x3 DUP3 ADD DUP1 SLOAD SWAP2 SWAP3 SWAP2 PUSH1 0x60 DUP5 ADD SWAP2 SWAP1 PUSH2 0x1FCD SWAP1 PUSH2 0x5AD1 JUMP JUMPDEST DUP1 PUSH1 0x1F ADD PUSH1 0x20 DUP1 SWAP2 DIV MUL PUSH1 0x20 ADD PUSH1 0x40 MLOAD SWAP1 DUP2 ADD PUSH1 0x40 MSTORE DUP1 SWAP3 SWAP2 SWAP1 DUP2 DUP2 MSTORE PUSH1 0x20 ADD DUP3 DUP1 SLOAD PUSH2 0x1FF9 SWAP1 PUSH2 0x5AD1 JUMP JUMPDEST DUP1 ISZERO PUSH2 0x2044 JUMPI DUP1 PUSH1 0x1F LT PUSH2 0x201B JUMPI PUSH2 0x100 DUP1 DUP4 SLOAD DIV MUL DUP4 MSTORE SWAP2 PUSH1 0x20 ADD SWAP2 PUSH2 0x2044 JUMP JUMPDEST DUP3 ADD SWAP2 SWAP1 PUSH0 MSTORE PUSH1 0x20 PUSH0 KECCAK256 SWAP1 JUMPDEST DUP2 SLOAD DUP2 MSTORE SWAP1 PUSH1 0x1 ADD SWAP1 PUSH1 0x20 ADD DUP1 DUP4 GT PUSH2 0x2027 JUMPI DUP3 SWAP1 SUB PUSH1 0x1F AND DUP3 ADD SWAP2 JUMPDEST POP POP POP SWAP2 DUP4 MSTORE POP POP PUSH1 0x4 SWAP2 DUP3 ADD SLOAD PUSH3 0xFFFFFF AND PUSH1 0x20 SWAP2 DUP3 ADD MSTORE PUSH1 0x40 DUP1 DUP5 ADD MLOAD SWAP2 DUP5 ADD MLOAD PUSH1 0x60 DUP6 ADD MLOAD PUSH1 0x80 DUP7 ADD MLOAD SWAP3 MLOAD PUSH4 0x1CE07AE9 PUSH1 0xE1 SHL DUP2 MSTORE SWAP6 SWAP7 POP ADDRESS SWAP6 PUSH4 0x39C0F5D2 SWAP6 PUSH2 0x2097 SWAP5 DUP7 SWAP4 SWAP3 SWAP1 SWAP2 ADD PUSH2 0x5727 JUMP JUMPDEST PUSH0 PUSH1 0x40 MLOAD DUP1 DUP4 SUB DUP2 DUP6 DUP9 DUP1 EXTCODESIZE ISZERO DUP1 ISZERO PUSH2 0x20AE JUMPI PUSH0 DUP1 REVERT JUMPDEST POP GAS CALL SWAP4 POP POP POP POP DUP1 ISZERO PUSH2 0x20C0 JUMPI POP PUSH1 0x1 JUMPDEST PUSH2 0x222F JUMPI PUSH1 0x40 DUP1 MLOAD PUSH1 0xA0 DUP2 ADD DUP3 MSTORE CALLER DUP2 MSTORE PUSH1 0x20 DUP4 DUP2 ADD MLOAD PUSH1 0x1 PUSH1 0x1 PUSH1 0xA0 SHL SUB SWAP1 DUP2 AND SWAP2 DUP4 ADD SWAP2 DUP3 MSTORE DUP5 DUP5 ADD MLOAD SWAP4 DUP4 ADD SWAP4 DUP5 MSTORE PUSH1 0x60 DUP1 DUP7 ADD MLOAD SWAP1 DUP5 ADD SWAP1 DUP2 MSTORE PUSH1 0x80 DUP1 DUP8 ADD MLOAD PUSH3 0xFFFFFF AND SWAP1 DUP6 ADD MSTORE PUSH1 0xB DUP1 SLOAD PUSH1 0x1 DUP2 ADD DUP3 SSTORE PUSH0 SWAP2 SWAP1 SWAP2 MSTORE DUP5 MLOAD PUSH1 0x5 SWAP1 SWAP2 MUL PUSH32 0x175B7A638427703F0DBE7BB9BBF987A2551717B34E79F33B5B1008D1FA01DB9 DUP2 ADD DUP1 SLOAD SWAP3 DUP6 AND PUSH1 0x1 PUSH1 0x1 PUSH1 0xA0 SHL SUB NOT SWAP4 DUP5 AND OR DUP2 SSTORE SWAP5 MLOAD PUSH32 0x175B7A638427703F0DBE7BB9BBF987A2551717B34E79F33B5B1008D1FA01DBA DUP3 ADD DUP1 SLOAD SWAP2 SWAP1 SWAP6 AND SWAP3 AND SWAP2 SWAP1 SWAP2 OR SWAP1 SWAP3 SSTORE SWAP4 MLOAD PUSH32 0x175B7A638427703F0DBE7BB9BBF987A2551717B34E79F33B5B1008D1FA01DBB DUP3 ADD SSTORE SWAP3 MLOAD SWAP2 SWAP3 SWAP1 SWAP2 PUSH32 0x175B7A638427703F0DBE7BB9BBF987A2551717B34E79F33B5B1008D1FA01DBC SWAP1 SWAP2 ADD SWAP1 PUSH2 0x21E9 SWAP1 DUP3 PUSH2 0x5EC3 JUMP JUMPDEST POP PUSH1 0x80 SWAP2 SWAP1 SWAP2 ADD MLOAD PUSH1 0x4 SWAP1 SWAP2 ADD DUP1 SLOAD PUSH3 0xFFFFFF NOT AND PUSH3 0xFFFFFF SWAP1 SWAP3 AND SWAP2 SWAP1 SWAP2 OR SWAP1 SSTORE CALLER PUSH0 SWAP1 DUP2 MSTORE PUSH1 0xC PUSH1 0x20 MSTORE PUSH1 0x40 DUP2 KECCAK256 DUP1 SLOAD SWAP2 PUSH2 0x2225 DUP4 PUSH2 0x5F80 JUMP JUMPDEST SWAP2 SWAP1 POP SSTORE POP PUSH2 0x2261 JUMP JUMPDEST PUSH2 0x2238 DUP3 PUSH2 0x443C JUMP JUMPDEST PUSH1 0x1 PUSH1 0x1 PUSH1 0xA0 SHL SUB DUP4 AND PUSH0 SWAP1 DUP2 MSTORE PUSH1 0xC PUSH1 0x20 MSTORE PUSH1 0x40 DUP2 KECCAK256 DUP1 SLOAD SWAP2 PUSH2 0x225B DUP4 PUSH2 0x5F98 JUMP JUMPDEST SWAP2 SWAP1 POP SSTORE POP JUMPDEST POP JUMPDEST PUSH1 0x1 ADD PUSH2 0x1F1B JUMP JUMPDEST POP POP JUMP JUMPDEST PUSH2 0x2277 PUSH2 0x3C95 JUMP JUMPDEST PUSH2 0x227F PUSH2 0x4598 JUMP JUMPDEST PUSH1 0x40 MLOAD CALLER DUP2 MSTORE PUSH32 0x5DB9EE0A495BF2E6FF9C91A7834C1BA4FDD244A5E8AA4E537BD38AEAE4B073AA SWAP1 PUSH1 0x20 ADD JUMPDEST PUSH1 0x40 MLOAD DUP1 SWAP2 SUB SWAP1 LOG1 JUMP JUMPDEST PUSH2 0x22BD PUSH2 0x3C95 JUMP JUMPDEST PUSH1 0x1 PUSH1 0x1 PUSH1 0xA0 SHL SUB SWAP2 SWAP1 SWAP2 AND PUSH0 SWAP1 DUP2 MSTORE PUSH1 0xA PUSH1 0x20 MSTORE PUSH1 0x40 SWAP1 KECCAK256 DUP1 SLOAD PUSH1 0xFF NOT AND SWAP2 ISZERO ISZERO SWAP2 SWAP1 SWAP2 OR SWAP1 SSTORE JUMP JUMPDEST PUSH1 0x6 SLOAD DUP2 MLOAD PUSH0 SWAP2 EQ PUSH2 0x232B JUMPI PUSH1 0x40 MLOAD PUSH3 0x461BCD PUSH1 0xE5 SHL DUP2 MSTORE PUSH1 0x20 PUSH1 0x4 DUP3 ADD MSTORE PUSH1 0xD PUSH1 0x24 DUP3 ADD MSTORE PUSH13 0x42E0E4D2C6CAE6D8CADCCEE8D PUSH1 0x9B SHL PUSH1 0x44 DUP3 ADD MSTORE PUSH1 0x64 ADD PUSH2 0x962 JUMP JUMPDEST PUSH0 DUP1 JUMPDEST PUSH1 0x6 SLOAD DUP2 LT ISZERO PUSH2 0x240C JUMPI PUSH0 PUSH1 0x6 DUP3 DUP2 SLOAD DUP2 LT PUSH2 0x234C JUMPI PUSH2 0x234C PUSH2 0x5B09 JUMP JUMPDEST PUSH0 SWAP2 DUP3 MSTORE PUSH1 0x20 DUP3 KECCAK256 PUSH1 0x4 SWAP2 DUP3 MUL ADD DUP1 SLOAD PUSH1 0x40 MLOAD PUSH4 0x70A08231 PUSH1 0xE0 SHL DUP2 MSTORE ADDRESS SWAP4 DUP2 ADD SWAP4 SWAP1 SWAP4 MSTORE SWAP1 SWAP4 POP PUSH1 0x1 PUSH1 0x1 PUSH1 0xA0 SHL SUB AND SWAP1 PUSH4 0x70A08231 SWAP1 PUSH1 0x24 ADD PUSH1 0x20 PUSH1 0x40 MLOAD DUP1 DUP4 SUB DUP2 DUP7 GAS STATICCALL ISZERO DUP1 ISZERO PUSH2 0x23A2 JUMPI RETURNDATASIZE PUSH0 DUP1 RETURNDATACOPY RETURNDATASIZE PUSH0 REVERT JUMPDEST POP POP POP POP PUSH1 0x40 MLOAD RETURNDATASIZE PUSH1 0x1F NOT PUSH1 0x1F DUP3 ADD AND DUP3 ADD DUP1 PUSH1 0x40 MSTORE POP DUP2 ADD SWAP1 PUSH2 0x23C6 SWAP2 SWAP1 PUSH2 0x5B1D JUMP JUMPDEST SWAP1 POP PUSH0 DUP7 DUP5 DUP2 MLOAD DUP2 LT PUSH2 0x23DB JUMPI PUSH2 0x23DB PUSH2 0x5B09 JUMP JUMPDEST PUSH1 0x20 MUL PUSH1 0x20 ADD ADD MLOAD SWAP1 POP DUP1 DUP3 PUSH2 0x23F1 SWAP2 SWAP1 PUSH2 0x5B48 JUMP JUMPDEST PUSH2 0x23FB SWAP1 DUP7 PUSH2 0x5CDD JUMP JUMPDEST SWAP5 POP POP PUSH1 0x1 SWAP1 SWAP3 ADD SWAP2 POP PUSH2 0x232E SWAP1 POP JUMP JUMPDEST POP SWAP3 SWAP2 POP POP JUMP JUMPDEST PUSH2 0x241B PUSH2 0x3C95 JUMP JUMPDEST DUP7 DUP6 EQ DUP1 ISZERO PUSH2 0x2429 JUMPI POP DUP7 DUP4 EQ JUMPDEST DUP1 ISZERO PUSH2 0x2434 JUMPI POP DUP7 DUP2 EQ JUMPDEST PUSH2 0x246F JUMPI PUSH1 0x40 MLOAD PUSH3 0x461BCD PUSH1 0xE5 SHL DUP2 MSTORE PUSH1 0x20 PUSH1 0x4 DUP3 ADD MSTORE PUSH1 0xC PUSH1 0x24 DUP3 ADD MSTORE PUSH12 0x214D6973736C656E67746873 PUSH1 0xA0 SHL PUSH1 0x44 DUP3 ADD MSTORE PUSH1 0x64 ADD PUSH2 0x962 JUMP JUMPDEST PUSH0 JUMPDEST DUP8 DUP2 LT ISZERO PUSH2 0x2640 JUMPI PUSH2 0x2710 DUP8 DUP8 DUP4 DUP2 DUP2 LT PUSH2 0x248E JUMPI PUSH2 0x248E PUSH2 0x5B09 JUMP JUMPDEST SWAP1 POP PUSH1 0x20 MUL ADD CALLDATALOAD GT ISZERO PUSH2 0x24D1 JUMPI PUSH1 0x40 MLOAD PUSH3 0x461BCD PUSH1 0xE5 SHL DUP2 MSTORE PUSH1 0x20 PUSH1 0x4 DUP3 ADD MSTORE PUSH1 0xB PUSH1 0x24 DUP3 ADD MSTORE PUSH11 0x2170657263656E74616765 PUSH1 0xA8 SHL PUSH1 0x44 DUP3 ADD MSTORE PUSH1 0x64 ADD PUSH2 0x962 JUMP JUMPDEST PUSH1 0x6 PUSH1 0x40 MLOAD DUP1 PUSH1 0x80 ADD PUSH1 0x40 MSTORE DUP1 DUP12 DUP12 DUP6 DUP2 DUP2 LT PUSH2 0x24F0 JUMPI PUSH2 0x24F0 PUSH2 0x5B09 JUMP JUMPDEST SWAP1 POP PUSH1 0x20 MUL ADD PUSH1 0x20 DUP2 ADD SWAP1 PUSH2 0x2505 SWAP2 SWAP1 PUSH2 0x5763 JUMP JUMPDEST PUSH1 0x1 PUSH1 0x1 PUSH1 0xA0 SHL SUB AND DUP2 MSTORE PUSH1 0x20 ADD DUP10 DUP10 DUP6 DUP2 DUP2 LT PUSH2 0x2525 JUMPI PUSH2 0x2525 PUSH2 0x5B09 JUMP JUMPDEST SWAP1 POP PUSH1 0x20 MUL ADD CALLDATALOAD DUP2 MSTORE PUSH1 0x20 ADD DUP8 DUP8 DUP6 DUP2 DUP2 LT PUSH2 0x2543 JUMPI PUSH2 0x2543 PUSH2 0x5B09 JUMP JUMPDEST SWAP1 POP PUSH1 0x20 MUL DUP2 ADD SWAP1 PUSH2 0x2555 SWAP2 SWAP1 PUSH2 0x5FAD JUMP JUMPDEST DUP1 DUP1 PUSH1 0x1F ADD PUSH1 0x20 DUP1 SWAP2 DIV MUL PUSH1 0x20 ADD PUSH1 0x40 MLOAD SWAP1 DUP2 ADD PUSH1 0x40 MSTORE DUP1 SWAP4 SWAP3 SWAP2 SWAP1 DUP2 DUP2 MSTORE PUSH1 0x20 ADD DUP4 DUP4 DUP1 DUP3 DUP5 CALLDATACOPY PUSH0 SWAP3 ADD SWAP2 SWAP1 SWAP2 MSTORE POP POP POP SWAP1 DUP3 MSTORE POP PUSH1 0x20 ADD DUP6 DUP6 DUP6 DUP2 DUP2 LT PUSH2 0x25A0 JUMPI PUSH2 0x25A0 PUSH2 0x5B09 JUMP JUMPDEST SWAP1 POP PUSH1 0x20 MUL ADD PUSH1 0x20 DUP2 ADD SWAP1 PUSH2 0x25B5 SWAP2 SWAP1 PUSH2 0x5FEF JUMP JUMPDEST PUSH3 0xFFFFFF AND SWAP1 MSTORE DUP2 SLOAD PUSH1 0x1 DUP1 DUP3 ADD DUP5 SSTORE PUSH0 SWAP4 DUP5 MSTORE PUSH1 0x20 SWAP4 DUP5 SWAP1 KECCAK256 DUP4 MLOAD PUSH1 0x4 SWAP1 SWAP4 MUL ADD DUP1 SLOAD PUSH1 0x1 PUSH1 0x1 PUSH1 0xA0 SHL SUB NOT AND PUSH1 0x1 PUSH1 0x1 PUSH1 0xA0 SHL SUB SWAP1 SWAP4 AND SWAP3 SWAP1 SWAP3 OR DUP3 SSTORE SWAP3 DUP3 ADD MLOAD SWAP3 DUP2 ADD SWAP3 SWAP1 SWAP3 SSTORE PUSH1 0x40 DUP2 ADD MLOAD SWAP1 SWAP2 SWAP1 PUSH1 0x2 DUP3 ADD SWAP1 PUSH2 0x2616 SWAP1 DUP3 PUSH2 0x5EC3 JUMP JUMPDEST POP PUSH1 0x60 SWAP2 SWAP1 SWAP2 ADD MLOAD PUSH1 0x3 SWAP1 SWAP2 ADD DUP1 SLOAD PUSH3 0xFFFFFF NOT AND PUSH3 0xFFFFFF SWAP1 SWAP3 AND SWAP2 SWAP1 SWAP2 OR SWAP1 SSTORE PUSH1 0x1 ADD PUSH2 0x2471 JUMP JUMPDEST POP POP POP POP POP POP POP POP POP JUMP JUMPDEST PUSH2 0x2653 PUSH2 0x3C95 JUMP JUMPDEST PUSH2 0x265C PUSH0 PUSH2 0x45E7 JUMP JUMPDEST JUMP JUMPDEST PUSH2 0x2666 PUSH2 0x3C95 JUMP JUMPDEST PUSH2 0x266E PUSH2 0x3DA5 JUMP JUMPDEST PUSH1 0x6 SLOAD DUP2 MLOAD EQ PUSH2 0x26A6 JUMPI PUSH1 0x40 MLOAD PUSH3 0x461BCD PUSH1 0xE5 SHL DUP2 MSTORE PUSH1 0x20 PUSH1 0x4 DUP3 ADD MSTORE PUSH1 0x3 PUSH1 0x24 DUP3 ADD MSTORE PUSH3 0x85413 PUSH1 0xEA SHL PUSH1 0x44 DUP3 ADD MSTORE PUSH1 0x64 ADD PUSH2 0x962 JUMP JUMPDEST PUSH0 PUSH2 0x26B0 DUP3 PUSH2 0x22E7 JUMP JUMPDEST SWAP1 POP PUSH0 DUP2 GT PUSH2 0x26E9 JUMPI PUSH1 0x40 MLOAD PUSH3 0x461BCD PUSH1 0xE5 SHL DUP2 MSTORE PUSH1 0x20 PUSH1 0x4 DUP3 ADD MSTORE PUSH1 0x5 PUSH1 0x24 DUP3 ADD MSTORE PUSH5 0x7476213D3 PUSH1 0xDC SHL PUSH1 0x44 DUP3 ADD MSTORE PUSH1 0x64 ADD PUSH2 0x962 JUMP JUMPDEST PUSH0 JUMPDEST PUSH1 0x6 SLOAD DUP2 LT ISZERO PUSH2 0x2A41 JUMPI PUSH0 PUSH1 0x6 DUP3 DUP2 SLOAD DUP2 LT PUSH2 0x2709 JUMPI PUSH2 0x2709 PUSH2 0x5B09 JUMP JUMPDEST SWAP1 PUSH0 MSTORE PUSH1 0x20 PUSH0 KECCAK256 SWAP1 PUSH1 0x4 MUL ADD SWAP1 POP PUSH0 PUSH2 0x272D DUP6 DUP5 DUP2 MLOAD DUP2 LT PUSH2 0xA72 JUMPI PUSH2 0xA72 PUSH2 0x5B09 JUMP JUMPDEST SWAP1 POP PUSH0 DUP2 GT PUSH2 0x2767 JUMPI PUSH1 0x40 MLOAD PUSH3 0x461BCD PUSH1 0xE5 SHL DUP2 MSTORE PUSH1 0x4 ADD PUSH2 0x962 SWAP1 PUSH1 0x20 DUP1 DUP3 MSTORE PUSH1 0x4 SWAP1 DUP3 ADD MSTORE PUSH4 0x63703E3 PUSH1 0xE4 SHL PUSH1 0x40 DUP3 ADD MSTORE PUSH1 0x60 ADD SWAP1 JUMP JUMPDEST PUSH0 DUP5 PUSH2 0x2775 DUP4 PUSH2 0x2710 PUSH2 0x5B48 JUMP JUMPDEST PUSH2 0x277F SWAP2 SWAP1 PUSH2 0x5B5F JUMP JUMPDEST SWAP1 POP DUP3 PUSH1 0x1 ADD SLOAD DUP2 GT ISZERO PUSH2 0x28D3 JUMPI PUSH0 DUP4 PUSH1 0x1 ADD SLOAD DUP3 PUSH2 0x279E SWAP2 SWAP1 PUSH2 0x5CF0 JUMP JUMPDEST SWAP1 POP PUSH0 PUSH2 0x2710 PUSH2 0x27AE DUP9 DUP5 PUSH2 0x5B48 JUMP JUMPDEST PUSH2 0x27B8 SWAP2 SWAP1 PUSH2 0x5B5F JUMP JUMPDEST SWAP1 POP PUSH0 DUP9 DUP8 DUP2 MLOAD DUP2 LT PUSH2 0x27CD JUMPI PUSH2 0x27CD PUSH2 0x5B09 JUMP JUMPDEST PUSH1 0x20 MUL PUSH1 0x20 ADD ADD MLOAD DUP3 PUSH2 0x27E0 SWAP2 SWAP1 PUSH2 0x5B5F JUMP JUMPDEST SWAP1 POP PUSH0 DUP2 GT PUSH2 0x281D JUMPI PUSH1 0x40 MLOAD PUSH3 0x461BCD PUSH1 0xE5 SHL DUP2 MSTORE PUSH1 0x20 PUSH1 0x4 DUP3 ADD MSTORE PUSH1 0x9 PUSH1 0x24 DUP3 ADD MSTORE PUSH9 0x616D6F756E743E3053 PUSH1 0xB8 SHL PUSH1 0x44 DUP3 ADD MSTORE PUSH1 0x64 ADD PUSH2 0x962 JUMP JUMPDEST DUP6 SLOAD PUSH1 0x2 DUP8 ADD DUP1 SLOAD PUSH2 0x28CA SWAP3 PUSH1 0x1 PUSH1 0x1 PUSH1 0xA0 SHL SUB AND SWAP2 DUP5 SWAP2 PUSH2 0x283E SWAP1 PUSH2 0x5AD1 JUMP JUMPDEST DUP1 PUSH1 0x1F ADD PUSH1 0x20 DUP1 SWAP2 DIV MUL PUSH1 0x20 ADD PUSH1 0x40 MLOAD SWAP1 DUP2 ADD PUSH1 0x40 MSTORE DUP1 SWAP3 SWAP2 SWAP1 DUP2 DUP2 MSTORE PUSH1 0x20 ADD DUP3 DUP1 SLOAD PUSH2 0x286A SWAP1 PUSH2 0x5AD1 JUMP JUMPDEST DUP1 ISZERO PUSH2 0x28B5 JUMPI DUP1 PUSH1 0x1F LT PUSH2 0x288C JUMPI PUSH2 0x100 DUP1 DUP4 SLOAD DIV MUL DUP4 MSTORE SWAP2 PUSH1 0x20 ADD SWAP2 PUSH2 0x28B5 JUMP JUMPDEST DUP3 ADD SWAP2 SWAP1 PUSH0 MSTORE PUSH1 0x20 PUSH0 KECCAK256 SWAP1 JUMPDEST DUP2 SLOAD DUP2 MSTORE SWAP1 PUSH1 0x1 ADD SWAP1 PUSH1 0x20 ADD DUP1 DUP4 GT PUSH2 0x2898 JUMPI DUP3 SWAP1 SUB PUSH1 0x1F AND DUP3 ADD SWAP2 JUMPDEST POP POP POP POP PUSH1 0x3 DUP12 ADD SLOAD PUSH3 0xFFFFFF AND SWAP1 POP PUSH2 0x4636 JUMP JUMPDEST POP POP POP POP PUSH2 0x2A36 JUMP JUMPDEST DUP3 PUSH1 0x1 ADD SLOAD DUP2 LT ISZERO PUSH2 0x2A36 JUMPI PUSH0 DUP2 DUP5 PUSH1 0x1 ADD SLOAD PUSH2 0x28F0 SWAP2 SWAP1 PUSH2 0x5CF0 JUMP JUMPDEST SWAP1 POP PUSH0 PUSH2 0x2710 PUSH2 0x2900 DUP9 DUP5 PUSH2 0x5B48 JUMP JUMPDEST PUSH2 0x290A SWAP2 SWAP1 PUSH2 0x5B5F JUMP JUMPDEST SWAP1 POP PUSH0 DUP9 DUP8 DUP2 MLOAD DUP2 LT PUSH2 0x291F JUMPI PUSH2 0x291F PUSH2 0x5B09 JUMP JUMPDEST PUSH1 0x20 MUL PUSH1 0x20 ADD ADD MLOAD DUP3 PUSH2 0x2932 SWAP2 SWAP1 PUSH2 0x5B5F JUMP JUMPDEST SWAP1 POP PUSH0 DUP2 GT PUSH2 0x296F JUMPI PUSH1 0x40 MLOAD PUSH3 0x461BCD PUSH1 0xE5 SHL DUP2 MSTORE PUSH1 0x20 PUSH1 0x4 DUP3 ADD MSTORE PUSH1 0x9 PUSH1 0x24 DUP3 ADD MSTORE PUSH9 0x30B6B7BAB73A1F1821 PUSH1 0xB9 SHL PUSH1 0x44 DUP3 ADD MSTORE PUSH1 0x64 ADD PUSH2 0x962 JUMP JUMPDEST PUSH0 PUSH1 0x13 SLOAD GT DUP1 PUSH2 0x2980 JUMPI POP PUSH0 PUSH1 0x14 SLOAD GT JUMPDEST ISZERO PUSH2 0x2A32 JUMPI DUP6 SLOAD PUSH1 0x2 DUP8 ADD DUP1 SLOAD PUSH2 0x2A32 SWAP3 PUSH1 0x1 PUSH1 0x1 PUSH1 0xA0 SHL SUB AND SWAP2 DUP5 SWAP2 PUSH2 0x29A6 SWAP1 PUSH2 0x5AD1 JUMP JUMPDEST DUP1 PUSH1 0x1F ADD PUSH1 0x20 DUP1 SWAP2 DIV MUL PUSH1 0x20 ADD PUSH1 0x40 MLOAD SWAP1 DUP2 ADD PUSH1 0x40 MSTORE DUP1 SWAP3 SWAP2 SWAP1 DUP2 DUP2 MSTORE PUSH1 0x20 ADD DUP3 DUP1 SLOAD PUSH2 0x29D2 SWAP1 PUSH2 0x5AD1 JUMP JUMPDEST DUP1 ISZERO PUSH2 0x2A1D JUMPI DUP1 PUSH1 0x1F LT PUSH2 0x29F4 JUMPI PUSH2 0x100 DUP1 DUP4 SLOAD DIV MUL DUP4 MSTORE SWAP2 PUSH1 0x20 ADD SWAP2 PUSH2 0x2A1D JUMP JUMPDEST DUP3 ADD SWAP2 SWAP1 PUSH0 MSTORE PUSH1 0x20 PUSH0 KECCAK256 SWAP1 JUMPDEST DUP2 SLOAD DUP2 MSTORE SWAP1 PUSH1 0x1 ADD SWAP1 PUSH1 0x20 ADD DUP1 DUP4 GT PUSH2 0x2A00 JUMPI DUP3 SWAP1 SUB PUSH1 0x1F AND DUP3 ADD SWAP2 JUMPDEST POP POP POP POP PUSH1 0x3 DUP12 ADD SLOAD PUSH3 0xFFFFFF AND SWAP1 POP PUSH2 0x4B58 JUMP JUMPDEST POP POP POP JUMPDEST POP POP POP PUSH1 0x1 ADD PUSH2 0x26EB JUMP JUMPDEST POP POP POP JUMP JUMPDEST PUSH2 0x2A4E PUSH2 0x3C95 JUMP JUMPDEST PUSH2 0x2A56 PUSH2 0x51BC JUMP JUMPDEST PUSH1 0x40 MLOAD CALLER DUP2 MSTORE PUSH32 0x62E78CEA01BEE320CD4E420270B5EA74000D11B0C9F74754EBDBFC544B05A258 SWAP1 PUSH1 0x20 ADD PUSH2 0x22AB JUMP JUMPDEST PUSH1 0x1 PUSH1 0x1 PUSH1 0xA0 SHL SUB DUP2 AND PUSH0 SWAP1 DUP2 MSTORE PUSH1 0xC PUSH1 0x20 MSTORE PUSH1 0x40 DUP2 KECCAK256 SLOAD PUSH1 0x60 SWAP2 SWAP1 PUSH1 0x1 PUSH1 0x1 PUSH1 0x40 SHL SUB DUP2 GT ISZERO PUSH2 0x2AB9 JUMPI PUSH2 0x2AB9 PUSH2 0x553B JUMP JUMPDEST PUSH1 0x40 MLOAD SWAP1 DUP1 DUP3 MSTORE DUP1 PUSH1 0x20 MUL PUSH1 0x20 ADD DUP3 ADD PUSH1 0x40 MSTORE DUP1 ISZERO PUSH2 0x2B0F JUMPI DUP2 PUSH1 0x20 ADD JUMPDEST PUSH1 0x40 DUP1 MLOAD PUSH1 0xA0 DUP2 ADD DUP3 MSTORE PUSH0 DUP1 DUP3 MSTORE PUSH1 0x20 DUP1 DUP4 ADD DUP3 SWAP1 MSTORE SWAP3 DUP3 ADD DUP2 SWAP1 MSTORE PUSH1 0x60 DUP1 DUP4 ADD MSTORE PUSH1 0x80 DUP3 ADD MSTORE DUP3 MSTORE PUSH0 NOT SWAP1 SWAP3 ADD SWAP2 ADD DUP2 PUSH2 0x2AD7 JUMPI SWAP1 POP JUMPDEST POP SWAP1 POP PUSH0 DUP1 JUMPDEST PUSH1 0xB SLOAD DUP2 LT ISZERO PUSH2 0x2C8D JUMPI DUP5 PUSH1 0x1 PUSH1 0x1 PUSH1 0xA0 SHL SUB AND PUSH1 0xB DUP3 DUP2 SLOAD DUP2 LT PUSH2 0x2B3C JUMPI PUSH2 0x2B3C PUSH2 0x5B09 JUMP JUMPDEST PUSH0 SWAP2 DUP3 MSTORE PUSH1 0x20 SWAP1 SWAP2 KECCAK256 PUSH1 0x5 SWAP1 SWAP2 MUL ADD SLOAD PUSH1 0x1 PUSH1 0x1 PUSH1 0xA0 SHL SUB AND SUB PUSH2 0x2C85 JUMPI PUSH1 0xB DUP2 DUP2 SLOAD DUP2 LT PUSH2 0x2B6D JUMPI PUSH2 0x2B6D PUSH2 0x5B09 JUMP JUMPDEST PUSH0 SWAP2 DUP3 MSTORE PUSH1 0x20 SWAP2 DUP3 SWAP1 KECCAK256 PUSH1 0x40 DUP1 MLOAD PUSH1 0xA0 DUP2 ADD DUP3 MSTORE PUSH1 0x5 SWAP1 SWAP4 MUL SWAP1 SWAP2 ADD DUP1 SLOAD PUSH1 0x1 PUSH1 0x1 PUSH1 0xA0 SHL SUB SWAP1 DUP2 AND DUP5 MSTORE PUSH1 0x1 DUP3 ADD SLOAD AND SWAP4 DUP4 ADD SWAP4 SWAP1 SWAP4 MSTORE PUSH1 0x2 DUP4 ADD SLOAD SWAP1 DUP3 ADD MSTORE PUSH1 0x3 DUP3 ADD DUP1 SLOAD SWAP2 SWAP3 SWAP2 PUSH1 0x60 DUP5 ADD SWAP2 SWAP1 PUSH2 0x2BC6 SWAP1 PUSH2 0x5AD1 JUMP JUMPDEST DUP1 PUSH1 0x1F ADD PUSH1 0x20 DUP1 SWAP2 DIV MUL PUSH1 0x20 ADD PUSH1 0x40 MLOAD SWAP1 DUP2 ADD PUSH1 0x40 MSTORE DUP1 SWAP3 SWAP2 SWAP1 DUP2 DUP2 MSTORE PUSH1 0x20 ADD DUP3 DUP1 SLOAD PUSH2 0x2BF2 SWAP1 PUSH2 0x5AD1 JUMP JUMPDEST DUP1 ISZERO PUSH2 0x2C3D JUMPI DUP1 PUSH1 0x1F LT PUSH2 0x2C14 JUMPI PUSH2 0x100 DUP1 DUP4 SLOAD DIV MUL DUP4 MSTORE SWAP2 PUSH1 0x20 ADD SWAP2 PUSH2 0x2C3D JUMP JUMPDEST DUP3 ADD SWAP2 SWAP1 PUSH0 MSTORE PUSH1 0x20 PUSH0 KECCAK256 SWAP1 JUMPDEST DUP2 SLOAD DUP2 MSTORE SWAP1 PUSH1 0x1 ADD SWAP1 PUSH1 0x20 ADD DUP1 DUP4 GT PUSH2 0x2C20 JUMPI DUP3 SWAP1 SUB PUSH1 0x1F AND DUP3 ADD SWAP2 JUMPDEST POP POP POP SWAP2 DUP4 MSTORE POP POP PUSH1 0x4 SWAP2 SWAP1 SWAP2 ADD SLOAD PUSH3 0xFFFFFF AND PUSH1 0x20 SWAP1 SWAP2 ADD MSTORE DUP4 MLOAD DUP5 SWAP1 DUP5 SWAP1 DUP2 LT PUSH2 0x2C6B JUMPI PUSH2 0x2C6B PUSH2 0x5B09 JUMP JUMPDEST PUSH1 0x20 MUL PUSH1 0x20 ADD ADD DUP2 SWAP1 MSTORE POP DUP2 DUP1 PUSH2 0x2C81 SWAP1 PUSH2 0x5F80 JUMP JUMPDEST SWAP3 POP POP JUMPDEST PUSH1 0x1 ADD PUSH2 0x2B15 JUMP JUMPDEST POP SWAP1 SWAP4 SWAP3 POP POP POP JUMP JUMPDEST PUSH1 0x60 PUSH1 0x5 DUP1 SLOAD PUSH2 0x88A SWAP1 PUSH2 0x5AD1 JUMP JUMPDEST PUSH2 0x2CAD PUSH2 0x3C95 JUMP JUMPDEST PUSH2 0x2710 DUP4 GT ISZERO PUSH2 0x2CEA JUMPI PUSH1 0x40 MLOAD PUSH3 0x461BCD PUSH1 0xE5 SHL DUP2 MSTORE PUSH1 0x20 PUSH1 0x4 DUP3 ADD MSTORE PUSH1 0x8 PUSH1 0x24 DUP3 ADD MSTORE PUSH8 0x21503E313030303 PUSH1 0xC4 SHL PUSH1 0x44 DUP3 ADD MSTORE PUSH1 0x64 ADD PUSH2 0x962 JUMP JUMPDEST PUSH0 DUP1 JUMPDEST PUSH1 0x6 SLOAD DUP2 LT ISZERO PUSH2 0x2DD8 JUMPI DUP6 PUSH1 0x1 PUSH1 0x1 PUSH1 0xA0 SHL SUB AND PUSH1 0x6 DUP3 DUP2 SLOAD DUP2 LT PUSH2 0x2D14 JUMPI PUSH2 0x2D14 PUSH2 0x5B09 JUMP JUMPDEST PUSH0 SWAP2 DUP3 MSTORE PUSH1 0x20 SWAP1 SWAP2 KECCAK256 PUSH1 0x4 SWAP1 SWAP2 MUL ADD SLOAD PUSH1 0x1 PUSH1 0x1 PUSH1 0xA0 SHL SUB AND SUB PUSH2 0x2DD0 JUMPI DUP5 PUSH1 0x6 DUP3 DUP2 SLOAD DUP2 LT PUSH2 0x2D46 JUMPI PUSH2 0x2D46 PUSH2 0x5B09 JUMP JUMPDEST SWAP1 PUSH0 MSTORE PUSH1 0x20 PUSH0 KECCAK256 SWAP1 PUSH1 0x4 MUL ADD PUSH1 0x1 ADD DUP2 SWAP1 SSTORE POP DUP4 PUSH1 0x6 DUP3 DUP2 SLOAD DUP2 LT PUSH2 0x2D6D JUMPI PUSH2 0x2D6D PUSH2 0x5B09 JUMP JUMPDEST SWAP1 PUSH0 MSTORE PUSH1 0x20 PUSH0 KECCAK256 SWAP1 PUSH1 0x4 MUL ADD PUSH1 0x2 ADD SWAP1 DUP2 PUSH2 0x2D88 SWAP2 SWAP1 PUSH2 0x5EC3 JUMP JUMPDEST POP DUP3 PUSH1 0x6 DUP3 DUP2 SLOAD DUP2 LT PUSH2 0x2D9D JUMPI PUSH2 0x2D9D PUSH2 0x5B09 JUMP JUMPDEST SWAP1 PUSH0 MSTORE PUSH1 0x20 PUSH0 KECCAK256 SWAP1 PUSH1 0x4 MUL ADD PUSH1 0x3 ADD PUSH0 PUSH2 0x100 EXP DUP2 SLOAD DUP2 PUSH3 0xFFFFFF MUL NOT AND SWAP1 DUP4 PUSH3 0xFFFFFF AND MUL OR SWAP1 SSTORE POP PUSH1 0x1 SWAP2 POP PUSH2 0x2DD8 JUMP JUMPDEST PUSH1 0x1 ADD PUSH2 0x2CED JUMP JUMPDEST POP DUP1 PUSH2 0x121F JUMPI PUSH1 0x40 MLOAD PUSH3 0x461BCD PUSH1 0xE5 SHL DUP2 MSTORE PUSH1 0x20 PUSH1 0x4 DUP3 ADD MSTORE PUSH1 0x6 PUSH1 0x24 DUP3 ADD MSTORE PUSH6 0x10BA37B5B2B7 PUSH1 0xD1 SHL PUSH1 0x44 DUP3 ADD MSTORE PUSH1 0x64 ADD PUSH2 0x962 JUMP JUMPDEST PUSH2 0x2E17 PUSH2 0x3C95 JUMP JUMPDEST PUSH1 0x11 SLOAD ISZERO PUSH2 0x2EB0 JUMPI PUSH1 0x11 SLOAD PUSH1 0x40 MLOAD PUSH0 SWAP2 PUSH1 0x1 PUSH1 0x1 PUSH1 0xA0 SHL SUB DUP5 AND SWAP2 DUP4 DUP2 DUP2 DUP2 DUP6 DUP8 GAS CALL SWAP3 POP POP POP RETURNDATASIZE DUP1 PUSH0 DUP2 EQ PUSH2 0x2E68 JUMPI PUSH1 0x40 MLOAD SWAP2 POP PUSH1 0x1F NOT PUSH1 0x3F RETURNDATASIZE ADD AND DUP3 ADD PUSH1 0x40 MSTORE RETURNDATASIZE DUP3 MSTORE RETURNDATASIZE PUSH0 PUSH1 0x20 DUP5 ADD RETURNDATACOPY PUSH2 0x2E6D JUMP JUMPDEST PUSH1 0x60 SWAP2 POP JUMPDEST POP POP SWAP1 POP DUP1 PUSH2 0x2EAA JUMPI PUSH1 0x40 MLOAD PUSH3 0x461BCD PUSH1 0xE5 SHL DUP2 MSTORE PUSH1 0x20 PUSH1 0x4 DUP3 ADD MSTORE PUSH1 0x9 PUSH1 0x24 DUP3 ADD MSTORE PUSH9 0x8C8292988A888AA89 PUSH1 0xBB SHL PUSH1 0x44 DUP3 ADD MSTORE PUSH1 0x64 ADD PUSH2 0x962 JUMP JUMPDEST POP PUSH0 PUSH1 0x11 SSTORE JUMPDEST PUSH1 0x12 SLOAD ISZERO PUSH2 0x2F9A JUMPI PUSH1 0x7 SLOAD PUSH1 0x40 DUP1 MLOAD PUSH4 0x15AB88C9 PUSH1 0xE3 SHL DUP2 MSTORE SWAP1 MLOAD PUSH0 SWAP3 PUSH1 0x1 PUSH1 0x1 PUSH1 0xA0 SHL SUB AND SWAP2 PUSH4 0xAD5C4648 SWAP2 PUSH1 0x4 DUP1 DUP4 ADD SWAP3 PUSH1 0x20 SWAP3 SWAP2 SWAP1 DUP3 SWAP1 SUB ADD DUP2 DUP7 GAS STATICCALL ISZERO DUP1 ISZERO PUSH2 0x2EFF JUMPI RETURNDATASIZE PUSH0 DUP1 RETURNDATACOPY RETURNDATASIZE PUSH0 REVERT JUMPDEST POP POP POP POP PUSH1 0x40 MLOAD RETURNDATASIZE PUSH1 0x1F NOT PUSH1 0x1F DUP3 ADD AND DUP3 ADD DUP1 PUSH1 0x40 MSTORE POP DUP2 ADD SWAP1 PUSH2 0x2F23 SWAP2 SWAP1 PUSH2 0x5B9A JUMP JUMPDEST PUSH1 0x12 SLOAD PUSH1 0x40 MLOAD PUSH4 0xA9059CBB PUSH1 0xE0 SHL DUP2 MSTORE PUSH1 0x1 PUSH1 0x1 PUSH1 0xA0 SHL SUB DUP6 DUP2 AND PUSH1 0x4 DUP4 ADD MSTORE PUSH1 0x24 DUP3 ADD SWAP3 SWAP1 SWAP3 MSTORE SWAP2 SWAP3 POP DUP3 AND SWAP1 PUSH4 0xA9059CBB SWAP1 PUSH1 0x44 ADD PUSH1 0x20 PUSH1 0x40 MLOAD DUP1 DUP4 SUB DUP2 PUSH0 DUP8 GAS CALL ISZERO DUP1 ISZERO PUSH2 0x2F76 JUMPI RETURNDATASIZE PUSH0 DUP1 RETURNDATACOPY RETURNDATASIZE PUSH0 REVERT JUMPDEST POP POP POP POP PUSH1 0x40 MLOAD RETURNDATASIZE PUSH1 0x1F NOT PUSH1 0x1F DUP3 ADD AND DUP3 ADD DUP1 PUSH1 0x40 MSTORE POP DUP2 ADD SWAP1 PUSH2 0x2A41 SWAP2 SWAP1 PUSH2 0x5D03 JUMP JUMPDEST POP JUMP JUMPDEST PUSH0 CALLER PUSH2 0x918 DUP2 DUP6 DUP6 PUSH2 0x3D48 JUMP JUMPDEST CALLER PUSH0 SWAP1 DUP2 MSTORE PUSH1 0xA PUSH1 0x20 MSTORE PUSH1 0x40 SWAP1 KECCAK256 SLOAD PUSH1 0xFF AND PUSH2 0x2FF1 JUMPI PUSH1 0x40 MLOAD PUSH3 0x461BCD PUSH1 0xE5 SHL DUP2 MSTORE PUSH1 0x4 ADD PUSH2 0x962 SWAP1 PUSH1 0x20 DUP1 DUP3 MSTORE PUSH1 0x4 SWAP1 DUP3 ADD MSTORE PUSH4 0x855D215 PUSH1 0xE2 SHL PUSH1 0x40 DUP3 ADD MSTORE PUSH1 0x60 ADD SWAP1 JUMP JUMPDEST PUSH2 0x2FF9 PUSH2 0x3DA5 JUMP JUMPDEST PUSH0 CALLVALUE GT PUSH2 0x302E JUMPI PUSH1 0x40 MLOAD PUSH3 0x461BCD PUSH1 0xE5 SHL DUP2 MSTORE PUSH1 0x20 PUSH1 0x4 DUP3 ADD MSTORE PUSH1 0x3 PUSH1 0x24 DUP3 ADD MSTORE PUSH3 0x414D47 PUSH1 0xE8 SHL PUSH1 0x44 DUP3 ADD MSTORE PUSH1 0x64 ADD PUSH2 0x962 JUMP JUMPDEST PUSH0 PUSH2 0x2710 PUSH1 0xE SLOAD CALLVALUE PUSH2 0x3040 SWAP2 SWAP1 PUSH2 0x5B48 JUMP JUMPDEST PUSH2 0x304A SWAP2 SWAP1 PUSH2 0x5B5F JUMP JUMPDEST SWAP1 POP PUSH0 PUSH2 0x3057 DUP3 CALLVALUE PUSH2 0x5CF0 JUMP JUMPDEST SWAP1 POP DUP2 PUSH1 0x11 PUSH0 DUP3 DUP3 SLOAD PUSH2 0x306A SWAP2 SWAP1 PUSH2 0x5CDD JUMP JUMPDEST SWAP1 SWAP2 SSTORE POP POP DUP1 PUSH2 0x30CF JUMPI PUSH1 0x40 MLOAD PUSH3 0x461BCD PUSH1 0xE5 SHL DUP2 MSTORE PUSH1 0x20 PUSH1 0x4 DUP3 ADD MSTORE PUSH1 0x2A PUSH1 0x24 DUP3 ADD MSTORE PUSH32 0x416D6F756E7420616674657220666565206D7573742062652067726561746572 PUSH1 0x44 DUP3 ADD MSTORE PUSH10 0x207468616E207A65726F PUSH1 0xB0 SHL PUSH1 0x64 DUP3 ADD MSTORE PUSH1 0x84 ADD PUSH2 0x962 JUMP JUMPDEST PUSH2 0x30D9 CALLER DUP3 PUSH2 0x51FE JUMP JUMPDEST PUSH0 JUMPDEST PUSH1 0x6 SLOAD DUP2 LT ISZERO PUSH2 0x2A41 JUMPI PUSH0 PUSH1 0x6 DUP3 DUP2 SLOAD DUP2 LT PUSH2 0x30F9 JUMPI PUSH2 0x30F9 PUSH2 0x5B09 JUMP JUMPDEST SWAP1 PUSH0 MSTORE PUSH1 0x20 PUSH0 KECCAK256 SWAP1 PUSH1 0x4 MUL ADD SWAP1 POP PUSH0 PUSH2 0x2710 DUP3 PUSH1 0x1 ADD SLOAD DUP6 PUSH2 0x311B SWAP2 SWAP1 PUSH2 0x5B48 JUMP JUMPDEST PUSH2 0x3125 SWAP2 SWAP1 PUSH2 0x5B5F JUMP JUMPDEST SWAP1 POP DUP4 DUP2 GT ISZERO PUSH2 0x316B JUMPI PUSH1 0x40 MLOAD PUSH3 0x461BCD PUSH1 0xE5 SHL DUP2 MSTORE PUSH1 0x20 PUSH1 0x4 DUP3 ADD MSTORE PUSH1 0x11 PUSH1 0x24 DUP3 ADD MSTORE PUSH17 0x63616C4554483C3D616D6F756E74666565 PUSH1 0x78 SHL PUSH1 0x44 DUP3 ADD MSTORE PUSH1 0x64 ADD PUSH2 0x962 JUMP JUMPDEST DUP2 SLOAD PUSH1 0x3 DUP4 ADD SLOAD PUSH1 0x40 MLOAD PUSH4 0x1CE07AE9 PUSH1 0xE1 SHL DUP2 MSTORE ADDRESS SWAP3 PUSH4 0x39C0F5D2 SWAP3 DUP6 SWAP3 PUSH2 0x31AC SWAP3 PUSH1 0x1 PUSH1 0x1 PUSH1 0xA0 SHL SUB AND SWAP2 DUP5 SWAP2 PUSH1 0x2 DUP11 ADD SWAP2 PUSH3 0xFFFFFF AND SWAP1 PUSH1 0x4 ADD PUSH2 0x5BB5 JUMP JUMPDEST PUSH0 PUSH1 0x40 MLOAD DUP1 DUP4 SUB DUP2 DUP6 DUP9 DUP1 EXTCODESIZE ISZERO DUP1 ISZERO PUSH2 0x31C3 JUMPI PUSH0 DUP1 REVERT JUMPDEST POP GAS CALL SWAP4 POP POP POP POP DUP1 ISZERO PUSH2 0x31D5 JUMPI POP PUSH1 0x1 JUMPDEST PUSH2 0x3375 JUMPI CALLER PUSH0 SWAP1 DUP2 MSTORE PUSH1 0xD PUSH1 0x20 MSTORE PUSH1 0x40 DUP2 KECCAK256 DUP1 SLOAD DUP4 SWAP3 SWAP1 PUSH2 0x31F7 SWAP1 DUP5 SWAP1 PUSH2 0x5CDD JUMP JUMPDEST SWAP1 SWAP2 SSTORE POP POP PUSH1 0x40 DUP1 MLOAD PUSH1 0xA0 DUP2 ADD DUP3 MSTORE CALLER DUP2 MSTORE DUP4 SLOAD PUSH1 0x1 PUSH1 0x1 PUSH1 0xA0 SHL SUB AND PUSH1 0x20 DUP3 ADD MSTORE SWAP1 DUP2 ADD DUP3 SWAP1 MSTORE PUSH1 0x2 DUP4 ADD DUP1 SLOAD PUSH1 0xB SWAP3 SWAP2 PUSH1 0x60 DUP4 ADD SWAP2 PUSH2 0x3237 SWAP1 PUSH2 0x5AD1 JUMP JUMPDEST DUP1 PUSH1 0x1F ADD PUSH1 0x20 DUP1 SWAP2 DIV MUL PUSH1 0x20 ADD PUSH1 0x40 MLOAD SWAP1 DUP2 ADD PUSH1 0x40 MSTORE DUP1 SWAP3 SWAP2 SWAP1 DUP2 DUP2 MSTORE PUSH1 0x20 ADD DUP3 DUP1 SLOAD PUSH2 0x3263 SWAP1 PUSH2 0x5AD1 JUMP JUMPDEST DUP1 ISZERO PUSH2 0x32AE JUMPI DUP1 PUSH1 0x1F LT PUSH2 0x3285 JUMPI PUSH2 0x100 DUP1 DUP4 SLOAD DIV MUL DUP4 MSTORE SWAP2 PUSH1 0x20 ADD SWAP2 PUSH2 0x32AE JUMP JUMPDEST DUP3 ADD SWAP2 SWAP1 PUSH0 MSTORE PUSH1 0x20 PUSH0 KECCAK256 SWAP1 JUMPDEST DUP2 SLOAD DUP2 MSTORE SWAP1 PUSH1 0x1 ADD SWAP1 PUSH1 0x20 ADD DUP1 DUP4 GT PUSH2 0x3291 JUMPI DUP3 SWAP1 SUB PUSH1 0x1F AND DUP3 ADD SWAP2 JUMPDEST POP POP POP SWAP2 DUP4 MSTORE POP POP PUSH1 0x3 DUP6 DUP2 ADD SLOAD PUSH3 0xFFFFFF AND PUSH1 0x20 SWAP3 DUP4 ADD MSTORE DUP4 SLOAD PUSH1 0x1 DUP1 DUP3 ADD DUP7 SSTORE PUSH0 SWAP6 DUP7 MSTORE SWAP5 DUP4 SWAP1 KECCAK256 DUP5 MLOAD PUSH1 0x5 SWAP1 SWAP3 MUL ADD DUP1 SLOAD PUSH1 0x1 PUSH1 0x1 PUSH1 0xA0 SHL SUB NOT SWAP1 DUP2 AND PUSH1 0x1 PUSH1 0x1 PUSH1 0xA0 SHL SUB SWAP4 DUP5 AND OR DUP3 SSTORE SWAP4 DUP6 ADD MLOAD SWAP6 DUP2 ADD DUP1 SLOAD SWAP1 SWAP5 AND SWAP6 SWAP1 SWAP2 AND SWAP5 SWAP1 SWAP5 OR SWAP1 SWAP2 SSTORE PUSH1 0x40 DUP3 ADD MLOAD PUSH1 0x2 DUP5 ADD SSTORE PUSH1 0x60 DUP3 ADD MLOAD SWAP2 SWAP3 SWAP2 SWAP1 DUP3 ADD SWAP1 PUSH2 0x3333 SWAP1 DUP3 PUSH2 0x5EC3 JUMP JUMPDEST POP PUSH1 0x80 SWAP2 SWAP1 SWAP2 ADD MLOAD PUSH1 0x4 SWAP1 SWAP2 ADD DUP1 SLOAD PUSH3 0xFFFFFF NOT AND PUSH3 0xFFFFFF SWAP1 SWAP3 AND SWAP2 SWAP1 SWAP2 OR SWAP1 SSTORE CALLER PUSH0 SWAP1 DUP2 MSTORE PUSH1 0xC PUSH1 0x20 MSTORE PUSH1 0x40 DUP2 KECCAK256 DUP1 SLOAD SWAP2 PUSH2 0x336F DUP4 PUSH2 0x5F80 JUMP JUMPDEST SWAP2 SWAP1 POP SSTORE POP JUMPDEST POP POP PUSH1 0x1 ADD PUSH2 0x30DB JUMP JUMPDEST PUSH0 PUSH1 0x40 MLOAD PUSH1 0x20 ADD PUSH2 0x338F SWAP1 PUSH2 0x5D1E JUMP JUMPDEST PUSH1 0x40 MLOAD PUSH1 0x20 DUP2 DUP4 SUB SUB DUP2 MSTORE SWAP1 PUSH1 0x40 MSTORE DUP1 MLOAD SWAP1 PUSH1 0x20 ADD KECCAK256 DUP4 PUSH1 0x40 MLOAD PUSH1 0x20 ADD PUSH2 0x33B6 SWAP2 SWAP1 PUSH2 0x5E69 JUMP JUMPDEST PUSH1 0x40 MLOAD PUSH1 0x20 DUP2 DUP4 SUB SUB DUP2 MSTORE SWAP1 PUSH1 0x40 MSTORE DUP1 MLOAD SWAP1 PUSH1 0x20 ADD KECCAK256 SUB PUSH2 0x3573 JUMPI PUSH1 0x40 DUP1 MLOAD PUSH1 0x2 DUP1 DUP3 MSTORE PUSH1 0x60 DUP3 ADD DUP4 MSTORE PUSH0 SWAP3 PUSH1 0x20 DUP4 ADD SWAP1 DUP1 CALLDATASIZE DUP4 CALLDATACOPY ADD SWAP1 POP POP SWAP1 POP DUP6 DUP2 PUSH0 DUP2 MLOAD DUP2 LT PUSH2 0x3404 JUMPI PUSH2 0x3404 PUSH2 0x5B09 JUMP JUMPDEST PUSH1 0x1 PUSH1 0x1 PUSH1 0xA0 SHL SUB SWAP3 DUP4 AND PUSH1 0x20 SWAP2 DUP3 MUL SWAP3 SWAP1 SWAP3 ADD DUP2 ADD SWAP2 SWAP1 SWAP2 MSTORE PUSH1 0x7 SLOAD PUSH1 0x40 DUP1 MLOAD PUSH4 0x15AB88C9 PUSH1 0xE3 SHL DUP2 MSTORE SWAP1 MLOAD SWAP2 SWAP1 SWAP4 AND SWAP3 PUSH4 0xAD5C4648 SWAP3 PUSH1 0x4 DUP1 DUP4 ADD SWAP4 SWAP2 SWAP3 DUP3 SWAP1 SUB ADD DUP2 DUP7 GAS STATICCALL ISZERO DUP1 ISZERO PUSH2 0x345B JUMPI RETURNDATASIZE PUSH0 DUP1 RETURNDATACOPY RETURNDATASIZE PUSH0 REVERT JUMPDEST POP POP POP POP PUSH1 0x40 MLOAD RETURNDATASIZE PUSH1 0x1F NOT PUSH1 0x1F DUP3 ADD AND DUP3 ADD DUP1 PUSH1 0x40 MSTORE POP DUP2 ADD SWAP1 PUSH2 0x347F SWAP2 SWAP1 PUSH2 0x5B9A JUMP JUMPDEST DUP2 PUSH1 0x1 DUP2 MLOAD DUP2 LT PUSH2 0x3492 JUMPI PUSH2 0x3492 PUSH2 0x5B09 JUMP JUMPDEST PUSH1 0x1 PUSH1 0x1 PUSH1 0xA0 SHL SUB SWAP3 DUP4 AND PUSH1 0x20 SWAP2 DUP3 MUL SWAP3 SWAP1 SWAP3 ADD ADD MSTORE PUSH1 0x7 SLOAD PUSH1 0x40 MLOAD PUSH4 0xD06CA61F PUSH1 0xE0 SHL DUP2 MSTORE PUSH0 SWAP3 SWAP2 SWAP1 SWAP2 AND SWAP1 PUSH4 0xD06CA61F SWAP1 PUSH2 0x34D5 SWAP1 DUP10 SWAP1 DUP7 SWAP1 PUSH1 0x4 ADD PUSH2 0x5D6F JUMP JUMPDEST PUSH0 PUSH1 0x40 MLOAD DUP1 DUP4 SUB DUP2 DUP7 GAS STATICCALL ISZERO DUP1 ISZERO PUSH2 0x34EF JUMPI RETURNDATASIZE PUSH0 DUP1 RETURNDATACOPY RETURNDATASIZE PUSH0 REVERT JUMPDEST POP POP POP POP PUSH1 0x40 MLOAD RETURNDATASIZE PUSH0 DUP3 RETURNDATACOPY PUSH1 0x1F RETURNDATASIZE SWAP1 DUP2 ADD PUSH1 0x1F NOT AND DUP3 ADD PUSH1 0x40 MSTORE PUSH2 0x3516 SWAP2 SWAP1 DUP2 ADD SWAP1 PUSH2 0x5D87 JUMP JUMPDEST SWAP1 POP PUSH0 PUSH2 0x2710 PUSH1 0x10 SLOAD PUSH2 0x2710 PUSH2 0x352C SWAP2 SWAP1 PUSH2 0x5CF0 JUMP JUMPDEST DUP4 PUSH1 0x1 DUP2 MLOAD DUP2 LT PUSH2 0x353F JUMPI PUSH2 0x353F PUSH2 0x5B09 JUMP JUMPDEST PUSH1 0x20 MUL PUSH1 0x20 ADD ADD MLOAD PUSH2 0x3551 SWAP2 SWAP1 PUSH2 0x5B48 JUMP JUMPDEST PUSH2 0x355B SWAP2 SWAP1 PUSH2 0x5B5F JUMP JUMPDEST SWAP1 POP PUSH2 0x3569 DUP9 DUP9 DUP4 ADDRESS PUSH2 0x3E03 JUMP JUMPDEST SWAP4 POP POP POP POP PUSH2 0x370B JUMP JUMPDEST PUSH1 0x40 MLOAD PUSH1 0x20 ADD PUSH2 0x3582 SWAP1 PUSH2 0x5C5E JUMP JUMPDEST PUSH1 0x40 MLOAD PUSH1 0x20 DUP2 DUP4 SUB SUB DUP2 MSTORE SWAP1 PUSH1 0x40 MSTORE DUP1 MLOAD SWAP1 PUSH1 0x20 ADD KECCAK256 DUP4 PUSH1 0x40 MLOAD PUSH1 0x20 ADD PUSH2 0x35A9 SWAP2 SWAP1 PUSH2 0x5E69 JUMP JUMPDEST PUSH1 0x40 MLOAD PUSH1 0x20 DUP2 DUP4 SUB SUB DUP2 MSTORE SWAP1 PUSH1 0x40 MSTORE DUP1 MLOAD SWAP1 PUSH1 0x20 ADD KECCAK256 SUB PUSH2 0x1EE3 JUMPI PUSH0 DUP6 DUP4 PUSH1 0x7 PUSH0 SWAP1 SLOAD SWAP1 PUSH2 0x100 EXP SWAP1 DIV PUSH1 0x1 PUSH1 0x1 PUSH1 0xA0 SHL SUB AND PUSH1 0x1 PUSH1 0x1 PUSH1 0xA0 SHL SUB AND PUSH4 0xAD5C4648 PUSH1 0x40 MLOAD DUP2 PUSH4 0xFFFFFFFF AND PUSH1 0xE0 SHL DUP2 MSTORE PUSH1 0x4 ADD PUSH1 0x20 PUSH1 0x40 MLOAD DUP1 DUP4 SUB DUP2 DUP7 GAS STATICCALL ISZERO DUP1 ISZERO PUSH2 0x3617 JUMPI RETURNDATASIZE PUSH0 DUP1 RETURNDATACOPY RETURNDATASIZE PUSH0 REVERT JUMPDEST POP POP POP POP PUSH1 0x40 MLOAD RETURNDATASIZE PUSH1 0x1F NOT PUSH1 0x1F DUP3 ADD AND DUP3 ADD DUP1 PUSH1 0x40 MSTORE POP DUP2 ADD SWAP1 PUSH2 0x363B SWAP2 SWAP1 PUSH2 0x5B9A JUMP JUMPDEST PUSH1 0x40 MLOAD PUSH1 0x20 ADD PUSH2 0x364D SWAP4 SWAP3 SWAP2 SWAP1 PUSH2 0x5E0D JUMP JUMPDEST PUSH1 0x40 DUP1 MLOAD PUSH1 0x1F NOT DUP2 DUP5 SUB ADD DUP2 MSTORE SWAP1 DUP3 SWAP1 MSTORE PUSH1 0x9 SLOAD PUSH4 0xCDCA1753 PUSH1 0xE0 SHL DUP4 MSTORE SWAP1 SWAP3 POP PUSH0 SWAP2 PUSH1 0x1 PUSH1 0x1 PUSH1 0xA0 SHL SUB SWAP1 SWAP2 AND SWAP1 PUSH4 0xCDCA1753 SWAP1 PUSH2 0x3692 SWAP1 DUP6 SWAP1 DUP11 SWAP1 PUSH1 0x4 ADD PUSH2 0x5E48 JUMP JUMPDEST PUSH1 0x20 PUSH1 0x40 MLOAD DUP1 DUP4 SUB DUP2 PUSH0 DUP8 GAS CALL ISZERO DUP1 ISZERO PUSH2 0x36AE JUMPI RETURNDATASIZE PUSH0 DUP1 RETURNDATACOPY RETURNDATASIZE PUSH0 REVERT JUMPDEST POP POP POP POP PUSH1 0x40 MLOAD RETURNDATASIZE PUSH1 0x1F NOT PUSH1 0x1F DUP3 ADD AND DUP3 ADD DUP1 PUSH1 0x40 MSTORE POP DUP2 ADD SWAP1 PUSH2 0x36D2 SWAP2 SWAP1 PUSH2 0x5B1D JUMP JUMPDEST SWAP1 POP PUSH0 PUSH2 0x2710 PUSH1 0x10 SLOAD PUSH2 0x2710 PUSH2 0x36E8 SWAP2 SWAP1 PUSH2 0x5CF0 JUMP JUMPDEST PUSH2 0x36F2 SWAP1 DUP5 PUSH2 0x5B48 JUMP JUMPDEST PUSH2 0x36FC SWAP2 SWAP1 PUSH2 0x5B5F JUMP JUMPDEST SWAP1 POP PUSH2 0x3569 DUP9 DUP9 DUP8 DUP5 ADDRESS PUSH2 0x3FEE JUMP JUMPDEST SWAP5 SWAP4 POP POP POP POP JUMP JUMPDEST PUSH2 0x371B PUSH2 0x3C95 JUMP JUMPDEST PUSH1 0x1 PUSH1 0x1 PUSH1 0xA0 SHL SUB DUP2 AND PUSH2 0x3744 JUMPI PUSH1 0x40 MLOAD PUSH4 0x1E4FBDF7 PUSH1 0xE0 SHL DUP2 MSTORE PUSH0 PUSH1 0x4 DUP3 ADD MSTORE PUSH1 0x24 ADD PUSH2 0x962 JUMP JUMPDEST PUSH2 0x2F9A DUP2 PUSH2 0x45E7 JUMP JUMPDEST PUSH2 0x3755 PUSH2 0x3C95 JUMP JUMPDEST PUSH0 DUP1 JUMPDEST PUSH1 0x6 SLOAD DUP2 LT ISZERO PUSH2 0x3C00 JUMPI PUSH0 PUSH1 0x6 DUP3 DUP2 SLOAD DUP2 LT PUSH2 0x3776 JUMPI PUSH2 0x3776 PUSH2 0x5B09 JUMP JUMPDEST PUSH0 SWAP2 DUP3 MSTORE PUSH1 0x20 DUP3 KECCAK256 PUSH1 0x4 SWAP2 DUP3 MUL ADD DUP1 SLOAD PUSH1 0x40 MLOAD PUSH4 0x70A08231 PUSH1 0xE0 SHL DUP2 MSTORE ADDRESS SWAP4 DUP2 ADD SWAP4 SWAP1 SWAP4 MSTORE SWAP1 SWAP4 POP PUSH1 0x1 PUSH1 0x1 PUSH1 0xA0 SHL SUB AND SWAP1 PUSH4 0x70A08231 SWAP1 PUSH1 0x24 ADD PUSH1 0x20 PUSH1 0x40 MLOAD DUP1 DUP4 SUB DUP2 DUP7 GAS STATICCALL ISZERO DUP1 ISZERO PUSH2 0x37CC JUMPI RETURNDATASIZE PUSH0 DUP1 RETURNDATACOPY RETURNDATASIZE PUSH0 REVERT JUMPDEST POP POP POP POP PUSH1 0x40 MLOAD RETURNDATASIZE PUSH1 0x1F NOT PUSH1 0x1F DUP3 ADD AND DUP3 ADD DUP1 PUSH1 0x40 MSTORE POP DUP2 ADD SWAP1 PUSH2 0x37F0 SWAP2 SWAP1 PUSH2 0x5B1D JUMP JUMPDEST SWAP1 POP PUSH1 0x40 MLOAD PUSH1 0x20 ADD PUSH2 0x3801 SWAP1 PUSH2 0x5D1E JUMP JUMPDEST PUSH1 0x40 MLOAD PUSH1 0x20 DUP2 DUP4 SUB SUB DUP2 MSTORE SWAP1 PUSH1 0x40 MSTORE DUP1 MLOAD SWAP1 PUSH1 0x20 ADD KECCAK256 DUP3 PUSH1 0x2 ADD PUSH1 0x40 MLOAD PUSH1 0x20 ADD PUSH2 0x382B SWAP2 SWAP1 PUSH2 0x5C6C JUMP JUMPDEST PUSH1 0x40 MLOAD PUSH1 0x20 DUP2 DUP4 SUB SUB DUP2 MSTORE SWAP1 PUSH1 0x40 MSTORE DUP1 MLOAD SWAP1 PUSH1 0x20 ADD KECCAK256 SUB PUSH2 0x3A09 JUMPI PUSH1 0x40 DUP1 MLOAD PUSH1 0x2 DUP1 DUP3 MSTORE PUSH1 0x60 DUP3 ADD DUP4 MSTORE PUSH0 SWAP3 PUSH1 0x20 DUP4 ADD SWAP1 DUP1 CALLDATASIZE DUP4 CALLDATACOPY POP POP DUP5 SLOAD DUP3 MLOAD SWAP3 SWAP4 POP PUSH1 0x1 PUSH1 0x1 PUSH1 0xA0 SHL SUB AND SWAP2 DUP4 SWAP2 POP PUSH0 SWAP1 PUSH2 0x3884 JUMPI PUSH2 0x3884 PUSH2 0x5B09 JUMP JUMPDEST PUSH1 0x1 PUSH1 0x1 PUSH1 0xA0 SHL SUB SWAP3 DUP4 AND PUSH1 0x20 SWAP2 DUP3 MUL SWAP3 SWAP1 SWAP3 ADD DUP2 ADD SWAP2 SWAP1 SWAP2 MSTORE PUSH1 0x7 SLOAD PUSH1 0x40 DUP1 MLOAD PUSH4 0x15AB88C9 PUSH1 0xE3 SHL DUP2 MSTORE SWAP1 MLOAD SWAP2 SWAP1 SWAP4 AND SWAP3 PUSH4 0xAD5C4648 SWAP3 PUSH1 0x4 DUP1 DUP4 ADD SWAP4 SWAP2 SWAP3 DUP3 SWAP1 SUB ADD DUP2 DUP7 GAS STATICCALL ISZERO DUP1 ISZERO PUSH2 0x38DB JUMPI RETURNDATASIZE PUSH0 DUP1 RETURNDATACOPY RETURNDATASIZE PUSH0 REVERT JUMPDEST POP POP POP POP PUSH1 0x40 MLOAD RETURNDATASIZE PUSH1 0x1F NOT PUSH1 0x1F DUP3 ADD AND DUP3 ADD DUP1 PUSH1 0x40 MSTORE POP DUP2 ADD SWAP1 PUSH2 0x38FF SWAP2 SWAP1 PUSH2 0x5B9A JUMP JUMPDEST DUP2 PUSH1 0x1 DUP2 MLOAD DUP2 LT PUSH2 0x3912 JUMPI PUSH2 0x3912 PUSH2 0x5B09 JUMP JUMPDEST PUSH1 0x1 PUSH1 0x1 PUSH1 0xA0 SHL SUB SWAP3 DUP4 AND PUSH1 0x20 SWAP2 DUP3 MUL SWAP3 SWAP1 SWAP3 ADD ADD MSTORE PUSH1 0x7 SLOAD PUSH1 0x40 MLOAD PUSH4 0xD06CA61F PUSH1 0xE0 SHL DUP2 MSTORE PUSH0 SWAP3 SWAP2 SWAP1 SWAP2 AND SWAP1 PUSH4 0xD06CA61F SWAP1 PUSH2 0x3955 SWAP1 DUP7 SWAP1 DUP7 SWAP1 PUSH1 0x4 ADD PUSH2 0x5D6F JUMP JUMPDEST PUSH0 PUSH1 0x40 MLOAD DUP1 DUP4 SUB DUP2 DUP7 GAS STATICCALL ISZERO DUP1 ISZERO PUSH2 0x396F JUMPI RETURNDATASIZE PUSH0 DUP1 RETURNDATACOPY RETURNDATASIZE PUSH0 REVERT JUMPDEST POP POP POP POP PUSH1 0x40 MLOAD RETURNDATASIZE PUSH0 DUP3 RETURNDATACOPY PUSH1 0x1F RETURNDATASIZE SWAP1 DUP2 ADD PUSH1 0x1F NOT AND DUP3 ADD PUSH1 0x40 MSTORE PUSH2 0x3996 SWAP2 SWAP1 DUP2 ADD SWAP1 PUSH2 0x5D87 JUMP JUMPDEST SWAP1 POP PUSH0 PUSH2 0x2710 PUSH1 0x10 SLOAD PUSH2 0x2710 PUSH2 0x39AC SWAP2 SWAP1 PUSH2 0x5CF0 JUMP JUMPDEST DUP4 PUSH1 0x1 DUP2 MLOAD DUP2 LT PUSH2 0x39BF JUMPI PUSH2 0x39BF PUSH2 0x5B09 JUMP JUMPDEST PUSH1 0x20 MUL PUSH1 0x20 ADD ADD MLOAD PUSH2 0x39D1 SWAP2 SWAP1 PUSH2 0x5B48 JUMP JUMPDEST PUSH2 0x39DB SWAP2 SWAP1 PUSH2 0x5B5F JUMP JUMPDEST DUP6 SLOAD SWAP1 SWAP2 POP PUSH2 0x39F5 SWAP1 PUSH1 0x1 PUSH1 0x1 PUSH1 0xA0 SHL SUB AND DUP6 DUP4 CALLER PUSH2 0x3E03 JUMP JUMPDEST PUSH2 0x39FF SWAP1 DUP9 PUSH2 0x5CDD JUMP JUMPDEST SWAP7 POP POP POP POP PUSH2 0x3BF6 JUMP JUMPDEST PUSH1 0x40 MLOAD PUSH1 0x20 ADD PUSH2 0x3A18 SWAP1 PUSH2 0x5C5E JUMP JUMPDEST PUSH1 0x40 MLOAD PUSH1 0x20 DUP2 DUP4 SUB SUB DUP2 MSTORE SWAP1 PUSH1 0x40 MSTORE DUP1 MLOAD SWAP1 PUSH1 0x20 ADD KECCAK256 DUP3 PUSH1 0x2 ADD PUSH1 0x40 MLOAD PUSH1 0x20 ADD PUSH2 0x3A42 SWAP2 SWAP1 PUSH2 0x5C6C JUMP JUMPDEST PUSH1 0x40 MLOAD PUSH1 0x20 DUP2 DUP4 SUB SUB DUP2 MSTORE SWAP1 PUSH1 0x40 MSTORE DUP1 MLOAD SWAP1 PUSH1 0x20 ADD KECCAK256 SUB PUSH2 0x3BC2 JUMPI DUP2 SLOAD PUSH1 0x3 DUP4 ADD SLOAD PUSH1 0x7 SLOAD PUSH1 0x40 DUP1 MLOAD PUSH4 0x15AB88C9 PUSH1 0xE3 SHL DUP2 MSTORE SWAP1 MLOAD PUSH0 SWAP5 PUSH1 0x1 PUSH1 0x1 PUSH1 0xA0 SHL SUB SWAP1 DUP2 AND SWAP5 PUSH3 0xFFFFFF AND SWAP4 AND SWAP2 PUSH4 0xAD5C4648 SWAP2 PUSH1 0x4 DUP1 DUP4 ADD SWAP3 PUSH1 0x20 SWAP3 SWAP2 SWAP1 DUP3 SWAP1 SUB ADD DUP2 DUP7 GAS STATICCALL ISZERO DUP1 ISZERO PUSH2 0x3AB5 JUMPI RETURNDATASIZE PUSH0 DUP1 RETURNDATACOPY RETURNDATASIZE PUSH0 REVERT JUMPDEST POP POP POP POP PUSH1 0x40 MLOAD RETURNDATASIZE PUSH1 0x1F NOT PUSH1 0x1F DUP3 ADD AND DUP3 ADD DUP1 PUSH1 0x40 MSTORE POP DUP2 ADD SWAP1 PUSH2 0x3AD9 SWAP2 SWAP1 PUSH2 0x5B9A JUMP JUMPDEST PUSH1 0x40 MLOAD PUSH1 0x20 ADD PUSH2 0x3AEB SWAP4 SWAP3 SWAP2 SWAP1 PUSH2 0x5E0D JUMP JUMPDEST PUSH1 0x40 DUP1 MLOAD PUSH1 0x1F NOT DUP2 DUP5 SUB ADD DUP2 MSTORE SWAP1 DUP3 SWAP1 MSTORE PUSH1 0x9 SLOAD PUSH4 0xCDCA1753 PUSH1 0xE0 SHL DUP4 MSTORE SWAP1 SWAP3 POP PUSH0 SWAP2 PUSH1 0x1 PUSH1 0x1 PUSH1 0xA0 SHL SUB SWAP1 SWAP2 AND SWAP1 PUSH4 0xCDCA1753 SWAP1 PUSH2 0x3B30 SWAP1 DUP6 SWAP1 DUP8 SWAP1 PUSH1 0x4 ADD PUSH2 0x5E48 JUMP JUMPDEST PUSH1 0x20 PUSH1 0x40 MLOAD DUP1 DUP4 SUB DUP2 PUSH0 DUP8 GAS CALL ISZERO DUP1 ISZERO PUSH2 0x3B4C JUMPI RETURNDATASIZE PUSH0 DUP1 RETURNDATACOPY RETURNDATASIZE PUSH0 REVERT JUMPDEST POP POP POP POP PUSH1 0x40 MLOAD RETURNDATASIZE PUSH1 0x1F NOT PUSH1 0x1F DUP3 ADD AND DUP3 ADD DUP1 PUSH1 0x40 MSTORE POP DUP2 ADD SWAP1 PUSH2 0x3B70 SWAP2 SWAP1 PUSH2 0x5B1D JUMP JUMPDEST SWAP1 POP PUSH0 PUSH2 0x2710 PUSH1 0x10 SLOAD PUSH2 0x2710 PUSH2 0x3B86 SWAP2 SWAP1 PUSH2 0x5CF0 JUMP JUMPDEST PUSH2 0x3B90 SWAP1 DUP5 PUSH2 0x5B48 JUMP JUMPDEST PUSH2 0x3B9A SWAP2 SWAP1 PUSH2 0x5B5F JUMP JUMPDEST DUP6 SLOAD PUSH1 0x3 DUP8 ADD SLOAD SWAP2 SWAP3 POP PUSH2 0x39F5 SWAP2 PUSH1 0x1 PUSH1 0x1 PUSH1 0xA0 SHL SUB SWAP1 SWAP2 AND SWAP1 DUP7 SWAP1 PUSH3 0xFFFFFF AND DUP5 CALLER PUSH2 0x3FEE JUMP JUMPDEST PUSH1 0x40 MLOAD PUSH3 0x461BCD PUSH1 0xE5 SHL DUP2 MSTORE PUSH1 0x20 PUSH1 0x4 DUP3 ADD MSTORE PUSH1 0x9 PUSH1 0x24 DUP3 ADD MSTORE PUSH9 0x496E76616C69645653 PUSH1 0xB8 SHL PUSH1 0x44 DUP3 ADD MSTORE PUSH1 0x64 ADD PUSH2 0x962 JUMP JUMPDEST POP POP PUSH1 0x1 ADD PUSH2 0x3758 JUMP JUMPDEST POP DUP1 ISZERO PUSH2 0x2F9A JUMPI PUSH1 0x40 MLOAD PUSH0 SWAP1 CALLER SWAP1 DUP4 SWAP1 DUP4 DUP2 DUP2 DUP2 DUP6 DUP8 GAS CALL SWAP3 POP POP POP RETURNDATASIZE DUP1 PUSH0 DUP2 EQ PUSH2 0x3C46 JUMPI PUSH1 0x40 MLOAD SWAP2 POP PUSH1 0x1F NOT PUSH1 0x3F RETURNDATASIZE ADD AND DUP3 ADD PUSH1 0x40 MSTORE RETURNDATASIZE DUP3 MSTORE RETURNDATASIZE PUSH0 PUSH1 0x20 DUP5 ADD RETURNDATACOPY PUSH2 0x3C4B JUMP JUMPDEST PUSH1 0x60 SWAP2 POP JUMPDEST POP POP SWAP1 POP DUP1 PUSH2 0x226B JUMPI PUSH1 0x40 MLOAD PUSH3 0x461BCD PUSH1 0xE5 SHL DUP2 MSTORE PUSH1 0x20 PUSH1 0x4 DUP3 ADD MSTORE PUSH1 0x9 PUSH1 0x24 DUP3 ADD MSTORE PUSH9 0x8C8292988A888AA89 PUSH1 0xBB SHL PUSH1 0x44 DUP3 ADD MSTORE PUSH1 0x64 ADD PUSH2 0x962 JUMP JUMPDEST PUSH2 0x2A41 DUP4 DUP4 DUP4 PUSH1 0x1 PUSH2 0x5232 JUMP JUMPDEST PUSH0 SLOAD PUSH1 0x1 PUSH1 0x1 PUSH1 0xA0 SHL SUB AND CALLER EQ PUSH2 0x265C JUMPI PUSH1 0x40 MLOAD PUSH4 0x118CDAA7 PUSH1 0xE0 SHL DUP2 MSTORE CALLER PUSH1 0x4 DUP3 ADD MSTORE PUSH1 0x24 ADD PUSH2 0x962 JUMP JUMPDEST PUSH0 PUSH2 0x3CCC DUP4 DUP4 PUSH2 0x5B48 JUMP JUMPDEST SWAP4 SWAP3 POP POP POP JUMP JUMPDEST PUSH1 0x1 PUSH1 0x1 PUSH1 0xA0 SHL SUB DUP4 DUP2 AND PUSH0 SWAP1 DUP2 MSTORE PUSH1 0x2 PUSH1 0x20 SWAP1 DUP2 MSTORE PUSH1 0x40 DUP1 DUP4 KECCAK256 SWAP4 DUP7 AND DUP4 MSTORE SWAP3 SWAP1 MSTORE KECCAK256 SLOAD PUSH0 NOT DUP2 EQ PUSH2 0x199C JUMPI DUP2 DUP2 LT ISZERO PUSH2 0x3D3A JUMPI PUSH1 0x40 MLOAD PUSH4 0x7DC7A0D9 PUSH1 0xE1 SHL DUP2 MSTORE PUSH1 0x1 PUSH1 0x1 PUSH1 0xA0 SHL SUB DUP5 AND PUSH1 0x4 DUP3 ADD MSTORE PUSH1 0x24 DUP2 ADD DUP3 SWAP1 MSTORE PUSH1 0x44 DUP2 ADD DUP4 SWAP1 MSTORE PUSH1 0x64 ADD PUSH2 0x962 JUMP JUMPDEST PUSH2 0x199C DUP5 DUP5 DUP5 DUP5 SUB PUSH0 PUSH2 0x5232 JUMP JUMPDEST PUSH1 0x1 PUSH1 0x1 PUSH1 0xA0 SHL SUB DUP4 AND PUSH2 0x3D71 JUMPI PUSH1 0x40 MLOAD PUSH4 0x4B637E8F PUSH1 0xE1 SHL DUP2 MSTORE PUSH0 PUSH1 0x4 DUP3 ADD MSTORE PUSH1 0x24 ADD PUSH2 0x962 JUMP JUMPDEST PUSH1 0x1 PUSH1 0x1 PUSH1 0xA0 SHL SUB DUP3 AND PUSH2 0x3D9A JUMPI PUSH1 0x40 MLOAD PUSH4 0xEC442F05 PUSH1 0xE0 SHL DUP2 MSTORE PUSH0 PUSH1 0x4 DUP3 ADD MSTORE PUSH1 0x24 ADD PUSH2 0x962 JUMP JUMPDEST PUSH2 0x2A41 DUP4 DUP4 DUP4 PUSH2 0x5304 JUMP JUMPDEST PUSH0 SLOAD PUSH1 0x1 PUSH1 0xA0 SHL SWAP1 DIV PUSH1 0xFF AND ISZERO PUSH2 0x265C JUMPI PUSH1 0x40 MLOAD PUSH4 0xD93C0665 PUSH1 0xE0 SHL DUP2 MSTORE PUSH1 0x4 ADD PUSH1 0x40 MLOAD DUP1 SWAP2 SUB SWAP1 REVERT JUMPDEST PUSH1 0x1 PUSH1 0x1 PUSH1 0xA0 SHL SUB DUP3 AND PUSH2 0x3DF8 JUMPI PUSH1 0x40 MLOAD PUSH4 0x4B637E8F PUSH1 0xE1 SHL DUP2 MSTORE PUSH0 PUSH1 0x4 DUP3 ADD MSTORE PUSH1 0x24 ADD PUSH2 0x962 JUMP JUMPDEST PUSH2 0x226B DUP3 PUSH0 DUP4 PUSH2 0x5304 JUMP JUMPDEST PUSH1 0x40 DUP1 MLOAD PUSH1 0x2 DUP1 DUP3 MSTORE PUSH1 0x60 DUP3 ADD DUP4 MSTORE PUSH0 SWAP3 DUP4 SWAP3 SWAP2 SWAP1 PUSH1 0x20 DUP4 ADD SWAP1 DUP1 CALLDATASIZE DUP4 CALLDATACOPY ADD SWAP1 POP POP SWAP1 POP DUP6 DUP2 PUSH0 DUP2 MLOAD DUP2 LT PUSH2 0x3E3A JUMPI PUSH2 0x3E3A PUSH2 0x5B09 JUMP JUMPDEST PUSH1 0x1 PUSH1 0x1 PUSH1 0xA0 SHL SUB SWAP3 DUP4 AND PUSH1 0x20 SWAP2 DUP3 MUL SWAP3 SWAP1 SWAP3 ADD DUP2 ADD SWAP2 SWAP1 SWAP2 MSTORE PUSH1 0x7 SLOAD PUSH1 0x40 DUP1 MLOAD PUSH4 0x15AB88C9 PUSH1 0xE3 SHL DUP2 MSTORE SWAP1 MLOAD SWAP2 SWAP1 SWAP4 AND SWAP3 PUSH4 0xAD5C4648 SWAP3 PUSH1 0x4 DUP1 DUP4 ADD SWAP4 SWAP2 SWAP3 DUP3 SWAP1 SUB ADD DUP2 DUP7 GAS STATICCALL ISZERO DUP1 ISZERO PUSH2 0x3E91 JUMPI RETURNDATASIZE PUSH0 DUP1 RETURNDATACOPY RETURNDATASIZE PUSH0 REVERT JUMPDEST POP POP POP POP PUSH1 0x40 MLOAD RETURNDATASIZE PUSH1 0x1F NOT PUSH1 0x1F DUP3 ADD AND DUP3 ADD DUP1 PUSH1 0x40 MSTORE POP DUP2 ADD SWAP1 PUSH2 0x3EB5 SWAP2 SWAP1 PUSH2 0x5B9A JUMP JUMPDEST DUP2 PUSH1 0x1 DUP2 MLOAD DUP2 LT PUSH2 0x3EC8 JUMPI PUSH2 0x3EC8 PUSH2 0x5B09 JUMP JUMPDEST PUSH1 0x1 PUSH1 0x1 PUSH1 0xA0 SHL SUB SWAP3 DUP4 AND PUSH1 0x20 SWAP2 DUP3 MUL SWAP3 SWAP1 SWAP3 ADD ADD MSTORE PUSH1 0x7 SLOAD PUSH1 0x40 MLOAD PUSH4 0x95EA7B3 PUSH1 0xE0 SHL DUP2 MSTORE SWAP1 DUP3 AND PUSH1 0x4 DUP3 ADD MSTORE PUSH1 0x24 DUP2 ADD DUP8 SWAP1 MSTORE SWAP1 DUP8 AND SWAP1 PUSH4 0x95EA7B3 SWAP1 PUSH1 0x44 ADD PUSH1 0x20 PUSH1 0x40 MLOAD DUP1 DUP4 SUB DUP2 PUSH0 DUP8 GAS CALL ISZERO DUP1 ISZERO PUSH2 0x3F26 JUMPI RETURNDATASIZE PUSH0 DUP1 RETURNDATACOPY RETURNDATASIZE PUSH0 REVERT JUMPDEST POP POP POP POP PUSH1 0x40 MLOAD RETURNDATASIZE PUSH1 0x1F NOT PUSH1 0x1F DUP3 ADD AND DUP3 ADD DUP1 PUSH1 0x40 MSTORE POP DUP2 ADD SWAP1 PUSH2 0x3F4A SWAP2 SWAP1 PUSH2 0x5D03 JUMP JUMPDEST POP PUSH1 0x7 SLOAD PUSH1 0x40 MLOAD PUSH4 0x18CBAFE5 PUSH1 0xE0 SHL DUP2 MSTORE PUSH0 SWAP2 PUSH1 0x1 PUSH1 0x1 PUSH1 0xA0 SHL SUB AND SWAP1 PUSH4 0x18CBAFE5 SWAP1 PUSH2 0x3F83 SWAP1 DUP10 SWAP1 DUP10 SWAP1 DUP8 SWAP1 DUP11 SWAP1 TIMESTAMP SWAP1 PUSH1 0x4 ADD PUSH2 0x6008 JUMP JUMPDEST PUSH0 PUSH1 0x40 MLOAD DUP1 DUP4 SUB DUP2 PUSH0 DUP8 GAS CALL ISZERO DUP1 ISZERO PUSH2 0x3F9E JUMPI RETURNDATASIZE PUSH0 DUP1 RETURNDATACOPY RETURNDATASIZE PUSH0 REVERT JUMPDEST POP POP POP POP PUSH1 0x40 MLOAD RETURNDATASIZE PUSH0 DUP3 RETURNDATACOPY PUSH1 0x1F RETURNDATASIZE SWAP1 DUP2 ADD PUSH1 0x1F NOT AND DUP3 ADD PUSH1 0x40 MSTORE PUSH2 0x3FC5 SWAP2 SWAP1 DUP2 ADD SWAP1 PUSH2 0x5D87 JUMP JUMPDEST SWAP1 POP DUP1 PUSH1 0x1 DUP2 MLOAD DUP2 LT PUSH2 0x3FDA JUMPI PUSH2 0x3FDA PUSH2 0x5B09 JUMP JUMPDEST PUSH1 0x20 MUL PUSH1 0x20 ADD ADD MLOAD SWAP3 POP POP POP SWAP5 SWAP4 POP POP POP POP JUMP JUMPDEST PUSH0 DUP1 PUSH1 0x40 MLOAD DUP1 PUSH2 0x100 ADD PUSH1 0x40 MSTORE DUP1 DUP9 PUSH1 0x1 PUSH1 0x1 PUSH1 0xA0 SHL SUB AND DUP2 MSTORE PUSH1 0x20 ADD PUSH1 0x7 PUSH0 SWAP1 SLOAD SWAP1 PUSH2 0x100 EXP SWAP1 DIV PUSH1 0x1 PUSH1 0x1 PUSH1 0xA0 SHL SUB AND PUSH1 0x1 PUSH1 0x1 PUSH1 0xA0 SHL SUB AND PUSH4 0xAD5C4648 PUSH1 0x40 MLOAD DUP2 PUSH4 0xFFFFFFFF AND PUSH1 0xE0 SHL DUP2 MSTORE PUSH1 0x4 ADD PUSH1 0x20 PUSH1 0x40 MLOAD DUP1 DUP4 SUB DUP2 DUP7 GAS STATICCALL ISZERO DUP1 ISZERO PUSH2 0x405B JUMPI RETURNDATASIZE PUSH0 DUP1 RETURNDATACOPY RETURNDATASIZE PUSH0 REVERT JUMPDEST POP POP POP POP PUSH1 0x40 MLOAD RETURNDATASIZE PUSH1 0x1F NOT PUSH1 0x1F DUP3 ADD AND DUP3 ADD DUP1 PUSH1 0x40 MSTORE POP DUP2 ADD SWAP1 PUSH2 0x407F SWAP2 SWAP1 PUSH2 0x5B9A JUMP JUMPDEST PUSH1 0x1 PUSH1 0x1 PUSH1 0xA0 SHL SUB SWAP1 DUP2 AND DUP3 MSTORE PUSH3 0xFFFFFF DUP9 AND PUSH1 0x20 DUP4 ADD MSTORE DUP6 DUP2 AND PUSH1 0x40 DUP1 DUP5 ADD SWAP2 SWAP1 SWAP2 MSTORE TIMESTAMP PUSH1 0x60 DUP5 ADD MSTORE PUSH1 0x80 DUP4 ADD DUP11 SWAP1 MSTORE PUSH1 0xA0 DUP4 ADD DUP9 SWAP1 MSTORE PUSH0 PUSH1 0xC0 SWAP1 SWAP4 ADD SWAP3 SWAP1 SWAP3 MSTORE PUSH1 0x8 SLOAD SWAP2 MLOAD PUSH4 0x95EA7B3 PUSH1 0xE0 SHL DUP2 MSTORE SWAP2 DUP2 AND PUSH1 0x4 DUP4 ADD MSTORE PUSH1 0x24 DUP3 ADD DUP10 SWAP1 MSTORE SWAP2 SWAP3 POP SWAP1 DUP9 AND SWAP1 PUSH4 0x95EA7B3 SWAP1 PUSH1 0x44 ADD PUSH1 0x20 PUSH1 0x40 MLOAD DUP1 DUP4 SUB DUP2 PUSH0 DUP8 GAS CALL ISZERO DUP1 ISZERO PUSH2 0x410B JUMPI RETURNDATASIZE PUSH0 DUP1 RETURNDATACOPY RETURNDATASIZE PUSH0 REVERT JUMPDEST POP POP POP POP PUSH1 0x40 MLOAD RETURNDATASIZE PUSH1 0x1F NOT PUSH1 0x1F DUP3 ADD AND DUP3 ADD DUP1 PUSH1 0x40 MSTORE POP DUP2 ADD SWAP1 PUSH2 0x412F SWAP2 SWAP1 PUSH2 0x5D03 JUMP JUMPDEST POP PUSH1 0x8 SLOAD PUSH1 0x40 MLOAD PUSH4 0x414BF389 PUSH1 0xE0 SHL DUP2 MSTORE PUSH1 0x1 PUSH1 0x1 PUSH1 0xA0 SHL SUB SWAP1 SWAP2 AND SWAP1 PUSH4 0x414BF389 SWAP1 PUSH2 0x4160 SWAP1 DUP5 SWAP1 PUSH1 0x4 ADD PUSH2 0x6043 JUMP JUMPDEST PUSH1 0x20 PUSH1 0x40 MLOAD DUP1 DUP4 SUB DUP2 PUSH0 DUP8 GAS CALL ISZERO DUP1 ISZERO PUSH2 0x417C JUMPI RETURNDATASIZE PUSH0 DUP1 RETURNDATACOPY RETURNDATASIZE PUSH0 REVERT JUMPDEST POP POP POP POP PUSH1 0x40 MLOAD RETURNDATASIZE PUSH1 0x1F NOT PUSH1 0x1F DUP3 ADD AND DUP3 ADD DUP1 PUSH1 0x40 MSTORE POP DUP2 ADD SWAP1 PUSH2 0x41A0 SWAP2 SWAP1 PUSH2 0x5B1D JUMP JUMPDEST SWAP2 POP POP JUMPDEST SWAP6 SWAP5 POP POP POP POP POP JUMP JUMPDEST PUSH1 0x40 DUP1 MLOAD PUSH1 0x2 DUP1 DUP3 MSTORE PUSH1 0x60 DUP1 DUP4 ADD DUP5 MSTORE SWAP3 PUSH0 SWAP3 SWAP2 SWAP1 PUSH1 0x20 DUP4 ADD SWAP1 DUP1 CALLDATASIZE DUP4 CALLDATACOPY POP POP PUSH1 0x7 SLOAD PUSH1 0x40 DUP1 MLOAD PUSH4 0x15AB88C9 PUSH1 0xE3 SHL DUP2 MSTORE SWAP1 MLOAD SWAP4 SWAP5 POP PUSH1 0x1 PUSH1 0x1 PUSH1 0xA0 SHL SUB SWAP1 SWAP2 AND SWAP3 PUSH4 0xAD5C4648 SWAP3 POP PUSH1 0x4 DUP1 DUP4 ADD SWAP3 PUSH1 0x20 SWAP3 SWAP2 SWAP1 DUP3 SWAP1 SUB ADD DUP2 DUP7 GAS STATICCALL ISZERO DUP1 ISZERO PUSH2 0x4218 JUMPI RETURNDATASIZE PUSH0 DUP1 RETURNDATACOPY RETURNDATASIZE PUSH0 REVERT JUMPDEST POP POP POP POP PUSH1 0x40 MLOAD RETURNDATASIZE PUSH1 0x1F NOT PUSH1 0x1F DUP3 ADD AND DUP3 ADD DUP1 PUSH1 0x40 MSTORE POP DUP2 ADD SWAP1 PUSH2 0x423C SWAP2 SWAP1 PUSH2 0x5B9A JUMP JUMPDEST DUP2 PUSH0 DUP2 MLOAD DUP2 LT PUSH2 0x424E JUMPI PUSH2 0x424E PUSH2 0x5B09 JUMP JUMPDEST PUSH1 0x20 MUL PUSH1 0x20 ADD ADD SWAP1 PUSH1 0x1 PUSH1 0x1 PUSH1 0xA0 SHL SUB AND SWAP1 DUP2 PUSH1 0x1 PUSH1 0x1 PUSH1 0xA0 SHL SUB AND DUP2 MSTORE POP POP DUP5 DUP2 PUSH1 0x1 DUP2 MLOAD DUP2 LT PUSH2 0x4282 JUMPI PUSH2 0x4282 PUSH2 0x5B09 JUMP JUMPDEST PUSH1 0x1 PUSH1 0x1 PUSH1 0xA0 SHL SUB SWAP3 DUP4 AND PUSH1 0x20 SWAP2 DUP3 MUL SWAP3 SWAP1 SWAP3 ADD ADD MSTORE PUSH1 0x7 SLOAD PUSH1 0x40 MLOAD PUSH4 0x7FF36AB5 PUSH1 0xE0 SHL DUP2 MSTORE SWAP2 AND SWAP1 PUSH4 0x7FF36AB5 SWAP1 DUP7 SWAP1 PUSH2 0x42C7 SWAP1 DUP8 SWAP1 DUP7 SWAP1 ADDRESS SWAP1 TIMESTAMP SWAP1 PUSH1 0x4 ADD PUSH2 0x60B9 JUMP JUMPDEST PUSH0 PUSH1 0x40 MLOAD DUP1 DUP4 SUB DUP2 DUP6 DUP9 GAS CALL ISZERO DUP1 ISZERO PUSH2 0x42E2 JUMPI RETURNDATASIZE PUSH0 DUP1 RETURNDATACOPY RETURNDATASIZE PUSH0 REVERT JUMPDEST POP POP POP POP POP PUSH1 0x40 MLOAD RETURNDATASIZE PUSH0 DUP3 RETURNDATACOPY PUSH1 0x1F RETURNDATASIZE SWAP1 DUP2 ADD PUSH1 0x1F NOT AND DUP3 ADD PUSH1 0x40 MSTORE PUSH2 0x41A4 SWAP2 SWAP1 DUP2 ADD SWAP1 PUSH2 0x5D87 JUMP JUMPDEST PUSH1 0x40 DUP1 MLOAD PUSH2 0x100 DUP2 ADD DUP1 DUP4 MSTORE PUSH1 0x7 SLOAD PUSH4 0x15AB88C9 PUSH1 0xE3 SHL SWAP1 SWAP2 MSTORE SWAP2 MLOAD PUSH0 SWAP3 DUP3 SWAP2 PUSH1 0x1 PUSH1 0x1 PUSH1 0xA0 SHL SUB SWAP1 SWAP2 AND SWAP1 PUSH4 0xAD5C4648 SWAP1 PUSH2 0x104 DUP1 DUP6 ADD SWAP2 PUSH1 0x20 SWAP2 DUP2 DUP8 SUB ADD DUP2 DUP7 GAS STATICCALL ISZERO DUP1 ISZERO PUSH2 0x435D JUMPI RETURNDATASIZE PUSH0 DUP1 RETURNDATACOPY RETURNDATASIZE PUSH0 REVERT JUMPDEST POP POP POP POP PUSH1 0x40 MLOAD RETURNDATASIZE PUSH1 0x1F NOT PUSH1 0x1F DUP3 ADD AND DUP3 ADD DUP1 PUSH1 0x40 MSTORE POP DUP2 ADD SWAP1 PUSH2 0x4381 SWAP2 SWAP1 PUSH2 0x5B9A JUMP JUMPDEST PUSH1 0x1 PUSH1 0x1 PUSH1 0xA0 SHL SUB SWAP1 DUP2 AND DUP3 MSTORE DUP8 DUP2 AND PUSH1 0x20 DUP4 ADD MSTORE PUSH3 0xFFFFFF DUP7 AND PUSH1 0x40 DUP1 DUP5 ADD SWAP2 SWAP1 SWAP2 MSTORE ADDRESS PUSH1 0x60 DUP5 ADD MSTORE TIMESTAMP PUSH1 0x80 DUP5 ADD MSTORE PUSH1 0xA0 DUP4 ADD DUP9 SWAP1 MSTORE PUSH1 0xC0 DUP4 ADD DUP7 SWAP1 MSTORE PUSH0 PUSH1 0xE0 SWAP1 SWAP4 ADD SWAP3 SWAP1 SWAP3 MSTORE PUSH1 0x8 SLOAD SWAP2 MLOAD PUSH4 0x414BF389 PUSH1 0xE0 SHL DUP2 MSTORE SWAP3 SWAP4 POP AND SWAP1 PUSH4 0x414BF389 SWAP1 DUP7 SWAP1 PUSH2 0x43F3 SWAP1 DUP6 SWAP1 PUSH1 0x4 ADD PUSH2 0x6043 JUMP JUMPDEST PUSH1 0x20 PUSH1 0x40 MLOAD DUP1 DUP4 SUB DUP2 DUP6 DUP9 GAS CALL ISZERO DUP1 ISZERO PUSH2 0x440F JUMPI RETURNDATASIZE PUSH0 DUP1 RETURNDATACOPY RETURNDATASIZE PUSH0 REVERT JUMPDEST POP POP POP POP POP PUSH1 0x40 MLOAD RETURNDATASIZE PUSH1 0x1F NOT PUSH1 0x1F DUP3 ADD AND DUP3 ADD DUP1 PUSH1 0x40 MSTORE POP DUP2 ADD SWAP1 PUSH2 0x4434 SWAP2 SWAP1 PUSH2 0x5B1D JUMP JUMPDEST POP POP POP POP POP POP JUMP JUMPDEST PUSH1 0xB SLOAD DUP2 LT PUSH2 0x4476 JUMPI PUSH1 0x40 MLOAD PUSH3 0x461BCD PUSH1 0xE5 SHL DUP2 MSTORE PUSH1 0x20 PUSH1 0x4 DUP3 ADD MSTORE PUSH1 0x6 PUSH1 0x24 DUP3 ADD MSTORE PUSH6 0x42D2DCC8CAF PUSH1 0xD3 SHL PUSH1 0x44 DUP3 ADD MSTORE PUSH1 0x64 ADD PUSH2 0x962 JUMP JUMPDEST PUSH1 0xB DUP1 SLOAD PUSH2 0x4486 SWAP1 PUSH1 0x1 SWAP1 PUSH2 0x5CF0 JUMP JUMPDEST DUP2 SLOAD DUP2 LT PUSH2 0x4496 JUMPI PUSH2 0x4496 PUSH2 0x5B09 JUMP JUMPDEST SWAP1 PUSH0 MSTORE PUSH1 0x20 PUSH0 KECCAK256 SWAP1 PUSH1 0x5 MUL ADD PUSH1 0xB DUP3 DUP2 SLOAD DUP2 LT PUSH2 0x44B5 JUMPI PUSH2 0x44B5 PUSH2 0x5B09 JUMP JUMPDEST PUSH0 SWAP2 DUP3 MSTORE PUSH1 0x20 SWAP1 SWAP2 KECCAK256 DUP3 SLOAD PUSH1 0x5 SWAP1 SWAP3 MUL ADD DUP1 SLOAD PUSH1 0x1 PUSH1 0x1 PUSH1 0xA0 SHL SUB SWAP3 DUP4 AND PUSH1 0x1 PUSH1 0x1 PUSH1 0xA0 SHL SUB NOT SWAP2 DUP3 AND OR DUP3 SSTORE PUSH1 0x1 DUP1 DUP6 ADD SLOAD SWAP1 DUP4 ADD DUP1 SLOAD SWAP2 SWAP1 SWAP5 AND SWAP2 AND OR SWAP1 SWAP2 SSTORE PUSH1 0x2 DUP1 DUP4 ADD SLOAD SWAP1 DUP3 ADD SSTORE PUSH1 0x3 DUP1 DUP3 ADD SWAP1 PUSH2 0x4513 SWAP1 DUP5 ADD DUP3 PUSH2 0x60ED JUMP JUMPDEST POP PUSH1 0x4 SWAP2 DUP3 ADD SLOAD SWAP2 ADD DUP1 SLOAD PUSH3 0xFFFFFF NOT AND PUSH3 0xFFFFFF SWAP1 SWAP3 AND SWAP2 SWAP1 SWAP2 OR SWAP1 SSTORE PUSH1 0xB DUP1 SLOAD DUP1 PUSH2 0x4542 JUMPI PUSH2 0x4542 PUSH2 0x61B9 JUMP JUMPDEST PUSH0 DUP3 DUP2 MSTORE PUSH1 0x20 DUP2 KECCAK256 PUSH1 0x5 PUSH0 NOT SWAP1 SWAP4 ADD SWAP3 DUP4 MUL ADD DUP1 SLOAD PUSH1 0x1 PUSH1 0x1 PUSH1 0xA0 SHL SUB NOT SWAP1 DUP2 AND DUP3 SSTORE PUSH1 0x1 DUP3 ADD DUP1 SLOAD SWAP1 SWAP2 AND SWAP1 SSTORE PUSH1 0x2 DUP2 ADD DUP3 SWAP1 SSTORE SWAP1 PUSH2 0x4585 PUSH1 0x3 DUP4 ADD DUP3 PUSH2 0x5453 JUMP JUMPDEST POP PUSH1 0x4 ADD DUP1 SLOAD PUSH3 0xFFFFFF NOT AND SWAP1 SSTORE SWAP1 SSTORE POP JUMP JUMPDEST PUSH2 0x45A0 PUSH2 0x542A JUMP JUMPDEST PUSH0 DUP1 SLOAD PUSH1 0xFF PUSH1 0xA0 SHL NOT AND SWAP1 SSTORE PUSH32 0x5DB9EE0A495BF2E6FF9C91A7834C1BA4FDD244A5E8AA4E537BD38AEAE4B073AA CALLER JUMPDEST PUSH1 0x40 MLOAD PUSH1 0x1 PUSH1 0x1 PUSH1 0xA0 SHL SUB SWAP1 SWAP2 AND DUP2 MSTORE PUSH1 0x20 ADD PUSH2 0x22AB JUMP JUMPDEST PUSH0 DUP1 SLOAD PUSH1 0x1 PUSH1 0x1 PUSH1 0xA0 SHL SUB DUP4 DUP2 AND PUSH1 0x1 PUSH1 0x1 PUSH1 0xA0 SHL SUB NOT DUP4 AND DUP2 OR DUP5 SSTORE PUSH1 0x40 MLOAD SWAP2 SWAP1 SWAP3 AND SWAP3 DUP4 SWAP2 PUSH32 0x8BE0079C531659141344CD1FD0A4F28419497F9722A3DAAFE3B4186F6B6457E0 SWAP2 SWAP1 LOG3 POP POP JUMP JUMPDEST PUSH0 DUP1 DUP5 GT PUSH2 0x4656 JUMPI PUSH1 0x40 MLOAD PUSH3 0x461BCD PUSH1 0xE5 SHL DUP2 MSTORE PUSH1 0x4 ADD PUSH2 0x962 SWAP1 PUSH2 0x5B7E JUMP JUMPDEST PUSH1 0x1 PUSH1 0x1 PUSH1 0xA0 SHL SUB DUP6 AND PUSH2 0x4697 JUMPI PUSH1 0x40 MLOAD PUSH3 0x461BCD PUSH1 0xE5 SHL DUP2 MSTORE PUSH1 0x20 PUSH1 0x4 DUP3 ADD MSTORE PUSH1 0x8 PUSH1 0x24 DUP3 ADD MSTORE PUSH8 0x2161646472657373 PUSH1 0xC0 SHL PUSH1 0x44 DUP3 ADD MSTORE PUSH1 0x64 ADD PUSH2 0x962 JUMP JUMPDEST PUSH0 DUP4 MLOAD GT PUSH2 0x46D0 JUMPI PUSH1 0x40 MLOAD PUSH3 0x461BCD PUSH1 0xE5 SHL DUP2 MSTORE PUSH1 0x20 PUSH1 0x4 DUP3 ADD MSTORE PUSH1 0x6 PUSH1 0x24 DUP3 ADD MSTORE PUSH6 0x21656D707479 PUSH1 0xD0 SHL PUSH1 0x44 DUP3 ADD MSTORE PUSH1 0x64 ADD PUSH2 0x962 JUMP JUMPDEST PUSH1 0x40 MLOAD PUSH1 0x20 ADD PUSH2 0x46DF SWAP1 PUSH2 0x5D1E JUMP JUMPDEST PUSH1 0x40 MLOAD PUSH1 0x20 DUP2 DUP4 SUB SUB DUP2 MSTORE SWAP1 PUSH1 0x40 MSTORE DUP1 MLOAD SWAP1 PUSH1 0x20 ADD KECCAK256 DUP4 PUSH1 0x40 MLOAD PUSH1 0x20 ADD PUSH2 0x4706 SWAP2 SWAP1 PUSH2 0x5E69 JUMP JUMPDEST PUSH1 0x40 MLOAD PUSH1 0x20 DUP2 DUP4 SUB SUB DUP2 MSTORE SWAP1 PUSH1 0x40 MSTORE DUP1 MLOAD SWAP1 PUSH1 0x20 ADD KECCAK256 SUB PUSH2 0x494F JUMPI PUSH1 0x40 DUP1 MLOAD PUSH1 0x2 DUP1 DUP3 MSTORE PUSH1 0x60 DUP3 ADD DUP4 MSTORE PUSH0 SWAP3 PUSH1 0x20 DUP4 ADD SWAP1 DUP1 CALLDATASIZE DUP4 CALLDATACOPY ADD SWAP1 POP POP SWAP1 POP DUP6 DUP2 PUSH0 DUP2 MLOAD DUP2 LT PUSH2 0x4754 JUMPI PUSH2 0x4754 PUSH2 0x5B09 JUMP JUMPDEST PUSH1 0x1 PUSH1 0x1 PUSH1 0xA0 SHL SUB SWAP3 DUP4 AND PUSH1 0x20 SWAP2 DUP3 MUL SWAP3 SWAP1 SWAP3 ADD DUP2 ADD SWAP2 SWAP1 SWAP2 MSTORE PUSH1 0x7 SLOAD PUSH1 0x40 DUP1 MLOAD PUSH4 0x15AB88C9 PUSH1 0xE3 SHL DUP2 MSTORE SWAP1 MLOAD SWAP2 SWAP1 SWAP4 AND SWAP3 PUSH4 0xAD5C4648 SWAP3 PUSH1 0x4 DUP1 DUP4 ADD SWAP4 SWAP2 SWAP3 DUP3 SWAP1 SUB ADD DUP2 DUP7 GAS STATICCALL ISZERO DUP1 ISZERO PUSH2 0x47AB JUMPI RETURNDATASIZE PUSH0 DUP1 RETURNDATACOPY RETURNDATASIZE PUSH0 REVERT JUMPDEST POP POP POP POP PUSH1 0x40 MLOAD RETURNDATASIZE PUSH1 0x1F NOT PUSH1 0x1F DUP3 ADD AND DUP3 ADD DUP1 PUSH1 0x40 MSTORE POP DUP2 ADD SWAP1 PUSH2 0x47CF SWAP2 SWAP1 PUSH2 0x5B9A JUMP JUMPDEST DUP2 PUSH1 0x1 DUP2 MLOAD DUP2 LT PUSH2 0x47E2 JUMPI PUSH2 0x47E2 PUSH2 0x5B09 JUMP JUMPDEST PUSH1 0x1 PUSH1 0x1 PUSH1 0xA0 SHL SUB SWAP3 DUP4 AND PUSH1 0x20 SWAP2 DUP3 MUL SWAP3 SWAP1 SWAP3 ADD ADD MSTORE PUSH1 0x7 SLOAD PUSH1 0x40 MLOAD PUSH4 0xD06CA61F PUSH1 0xE0 SHL DUP2 MSTORE PUSH0 SWAP3 SWAP2 SWAP1 SWAP2 AND SWAP1 PUSH4 0xD06CA61F SWAP1 PUSH2 0x4825 SWAP1 DUP10 SWAP1 DUP7 SWAP1 PUSH1 0x4 ADD PUSH2 0x5D6F JUMP JUMPDEST PUSH0 PUSH1 0x40 MLOAD DUP1 DUP4 SUB DUP2 DUP7 GAS STATICCALL ISZERO DUP1 ISZERO PUSH2 0x483F JUMPI RETURNDATASIZE PUSH0 DUP1 RETURNDATACOPY RETURNDATASIZE PUSH0 REVERT JUMPDEST POP POP POP POP PUSH1 0x40 MLOAD RETURNDATASIZE PUSH0 DUP3 RETURNDATACOPY PUSH1 0x1F RETURNDATASIZE SWAP1 DUP2 ADD PUSH1 0x1F NOT AND DUP3 ADD PUSH1 0x40 MSTORE PUSH2 0x4866 SWAP2 SWAP1 DUP2 ADD SWAP1 PUSH2 0x5D87 JUMP JUMPDEST SWAP1 POP PUSH1 0x2 DUP2 MLOAD LT ISZERO PUSH2 0x48A3 JUMPI PUSH1 0x40 MLOAD PUSH3 0x461BCD PUSH1 0xE5 SHL DUP2 MSTORE PUSH1 0x20 PUSH1 0x4 DUP3 ADD MSTORE PUSH1 0x6 PUSH1 0x24 DUP3 ADD MSTORE PUSH6 0x21455850414D PUSH1 0xD0 SHL PUSH1 0x44 DUP3 ADD MSTORE PUSH1 0x64 ADD PUSH2 0x962 JUMP JUMPDEST PUSH0 PUSH2 0x2710 PUSH1 0x10 SLOAD PUSH2 0x2710 PUSH2 0x48B7 SWAP2 SWAP1 PUSH2 0x5CF0 JUMP JUMPDEST DUP4 PUSH1 0x1 DUP2 MLOAD DUP2 LT PUSH2 0x48CA JUMPI PUSH2 0x48CA PUSH2 0x5B09 JUMP JUMPDEST PUSH1 0x20 MUL PUSH1 0x20 ADD ADD MLOAD PUSH2 0x48DC SWAP2 SWAP1 PUSH2 0x5B48 JUMP JUMPDEST PUSH2 0x48E6 SWAP2 SWAP1 PUSH2 0x5B5F JUMP JUMPDEST SWAP1 POP PUSH2 0x48F4 DUP9 DUP9 DUP4 ADDRESS PUSH2 0x3E03 JUMP JUMPDEST SWAP4 POP DUP1 DUP5 LT ISZERO PUSH2 0x4930 JUMPI PUSH1 0x40 MLOAD PUSH3 0x461BCD PUSH1 0xE5 SHL DUP2 MSTORE PUSH1 0x20 PUSH1 0x4 DUP3 ADD MSTORE PUSH1 0x7 PUSH1 0x24 DUP3 ADD MSTORE PUSH7 0xF185B5BDD5B9D PUSH1 0xCA SHL PUSH1 0x44 DUP3 ADD MSTORE PUSH1 0x64 ADD PUSH2 0x962 JUMP JUMPDEST DUP4 PUSH1 0x13 PUSH0 DUP3 DUP3 SLOAD PUSH2 0x4941 SWAP2 SWAP1 PUSH2 0x5CDD JUMP JUMPDEST SWAP1 SWAP2 SSTORE POP PUSH2 0x370B SWAP4 POP POP POP POP JUMP JUMPDEST PUSH1 0x40 MLOAD PUSH1 0x20 ADD PUSH2 0x495E SWAP1 PUSH2 0x5C5E JUMP JUMPDEST PUSH1 0x40 MLOAD PUSH1 0x20 DUP2 DUP4 SUB SUB DUP2 MSTORE SWAP1 PUSH1 0x40 MSTORE DUP1 MLOAD SWAP1 PUSH1 0x20 ADD KECCAK256 DUP4 PUSH1 0x40 MLOAD PUSH1 0x20 ADD PUSH2 0x4985 SWAP2 SWAP1 PUSH2 0x5E69 JUMP JUMPDEST PUSH1 0x40 MLOAD PUSH1 0x20 DUP2 DUP4 SUB SUB DUP2 MSTORE SWAP1 PUSH1 0x40 MSTORE DUP1 MLOAD SWAP1 PUSH1 0x20 ADD KECCAK256 SUB PUSH2 0x1EE3 JUMPI PUSH0 DUP6 DUP4 PUSH1 0x7 PUSH0 SWAP1 SLOAD SWAP1 PUSH2 0x100 EXP SWAP1 DIV PUSH1 0x1 PUSH1 0x1 PUSH1 0xA0 SHL SUB AND PUSH1 0x1 PUSH1 0x1 PUSH1 0xA0 SHL SUB AND PUSH4 0xAD5C4648 PUSH1 0x40 MLOAD DUP2 PUSH4 0xFFFFFFFF AND PUSH1 0xE0 SHL DUP2 MSTORE PUSH1 0x4 ADD PUSH1 0x20 PUSH1 0x40 MLOAD DUP1 DUP4 SUB DUP2 DUP7 GAS STATICCALL ISZERO DUP1 ISZERO PUSH2 0x49F3 JUMPI RETURNDATASIZE PUSH0 DUP1 RETURNDATACOPY RETURNDATASIZE PUSH0 REVERT JUMPDEST POP POP POP POP PUSH1 0x40 MLOAD RETURNDATASIZE PUSH1 0x1F NOT PUSH1 0x1F DUP3 ADD AND DUP3 ADD DUP1 PUSH1 0x40 MSTORE POP DUP2 ADD SWAP1 PUSH2 0x4A17 SWAP2 SWAP1 PUSH2 0x5B9A JUMP JUMPDEST PUSH1 0x40 MLOAD PUSH1 0x20 ADD PUSH2 0x4A29 SWAP4 SWAP3 SWAP2 SWAP1 PUSH2 0x5E0D JUMP JUMPDEST PUSH1 0x40 DUP1 MLOAD PUSH1 0x1F NOT DUP2 DUP5 SUB ADD DUP2 MSTORE SWAP1 DUP3 SWAP1 MSTORE PUSH1 0x9 SLOAD PUSH4 0xCDCA1753 PUSH1 0xE0 SHL DUP4 MSTORE SWAP1 SWAP3 POP PUSH0 SWAP2 PUSH1 0x1 PUSH1 0x1 PUSH1 0xA0 SHL SUB SWAP1 SWAP2 AND SWAP1 PUSH4 0xCDCA1753 SWAP1 PUSH2 0x4A6E SWAP1 DUP6 SWAP1 DUP11 SWAP1 PUSH1 0x4 ADD PUSH2 0x5E48 JUMP JUMPDEST PUSH1 0x20 PUSH1 0x40 MLOAD DUP1 DUP4 SUB DUP2 PUSH0 DUP8 GAS CALL ISZERO DUP1 ISZERO PUSH2 0x4A8A JUMPI RETURNDATASIZE PUSH0 DUP1 RETURNDATACOPY RETURNDATASIZE PUSH0 REVERT JUMPDEST POP POP POP POP PUSH1 0x40 MLOAD RETURNDATASIZE PUSH1 0x1F NOT PUSH1 0x1F DUP3 ADD AND DUP3 ADD DUP1 PUSH1 0x40 MSTORE POP DUP2 ADD SWAP1 PUSH2 0x4AAE SWAP2 SWAP1 PUSH2 0x5B1D JUMP JUMPDEST SWAP1 POP PUSH0 DUP2 GT PUSH2 0x4AE7 JUMPI PUSH1 0x40 MLOAD PUSH3 0x461BCD PUSH1 0xE5 SHL DUP2 MSTORE PUSH1 0x20 PUSH1 0x4 DUP3 ADD MSTORE PUSH1 0x5 PUSH1 0x24 DUP3 ADD MSTORE PUSH5 0x6D696E3E3 PUSH1 0xDC SHL PUSH1 0x44 DUP3 ADD MSTORE PUSH1 0x64 ADD PUSH2 0x962 JUMP JUMPDEST PUSH0 PUSH2 0x2710 PUSH1 0x10 SLOAD PUSH2 0x2710 PUSH2 0x4AFB SWAP2 SWAP1 PUSH2 0x5CF0 JUMP JUMPDEST PUSH2 0x4B05 SWAP1 DUP5 PUSH2 0x5B48 JUMP JUMPDEST PUSH2 0x4B0F SWAP2 SWAP1 PUSH2 0x5B5F JUMP JUMPDEST SWAP1 POP PUSH2 0x4B1E DUP9 DUP9 DUP8 DUP5 ADDRESS PUSH2 0x3FEE JUMP JUMPDEST SWAP4 POP DUP1 DUP5 LT ISZERO PUSH2 0x4930 JUMPI PUSH1 0x40 MLOAD PUSH3 0x461BCD PUSH1 0xE5 SHL DUP2 MSTORE PUSH1 0x20 PUSH1 0x4 DUP3 ADD MSTORE PUSH1 0x5 PUSH1 0x24 DUP3 ADD MSTORE PUSH5 0x6D696E3E3 PUSH1 0xDC SHL PUSH1 0x44 DUP3 ADD MSTORE PUSH1 0x64 ADD PUSH2 0x962 JUMP JUMPDEST PUSH1 0x40 MLOAD PUSH1 0x20 ADD PUSH2 0x4B67 SWAP1 PUSH2 0x5D1E JUMP JUMPDEST PUSH1 0x40 MLOAD PUSH1 0x20 DUP2 DUP4 SUB SUB DUP2 MSTORE SWAP1 PUSH1 0x40 MSTORE DUP1 MLOAD SWAP1 PUSH1 0x20 ADD KECCAK256 DUP3 PUSH1 0x40 MLOAD PUSH1 0x20 ADD PUSH2 0x4B8E SWAP2 SWAP1 PUSH2 0x5E69 JUMP JUMPDEST PUSH1 0x40 MLOAD PUSH1 0x20 DUP2 DUP4 SUB SUB DUP2 MSTORE SWAP1 PUSH1 0x40 MSTORE DUP1 MLOAD SWAP1 PUSH1 0x20 ADD KECCAK256 SUB PUSH2 0x4EFD JUMPI PUSH1 0x40 DUP1 MLOAD PUSH1 0x2 DUP1 DUP3 MSTORE PUSH1 0x60 DUP3 ADD DUP4 MSTORE PUSH0 SWAP3 PUSH1 0x20 DUP4 ADD SWAP1 DUP1 CALLDATASIZE DUP4 CALLDATACOPY POP POP PUSH1 0x7 SLOAD PUSH1 0x40 DUP1 MLOAD PUSH4 0x15AB88C9 PUSH1 0xE3 SHL DUP2 MSTORE SWAP1 MLOAD SWAP4 SWAP5 POP PUSH1 0x1 PUSH1 0x1 PUSH1 0xA0 SHL SUB SWAP1 SWAP2 AND SWAP3 PUSH4 0xAD5C4648 SWAP3 POP PUSH1 0x4 DUP1 DUP4 ADD SWAP3 PUSH1 0x20 SWAP3 SWAP2 SWAP1 DUP3 SWAP1 SUB ADD DUP2 DUP7 GAS STATICCALL ISZERO DUP1 ISZERO PUSH2 0x4C10 JUMPI RETURNDATASIZE PUSH0 DUP1 RETURNDATACOPY RETURNDATASIZE PUSH0 REVERT JUMPDEST POP POP POP POP PUSH1 0x40 MLOAD RETURNDATASIZE PUSH1 0x1F NOT PUSH1 0x1F DUP3 ADD AND DUP3 ADD DUP1 PUSH1 0x40 MSTORE POP DUP2 ADD SWAP1 PUSH2 0x4C34 SWAP2 SWAP1 PUSH2 0x5B9A JUMP JUMPDEST DUP2 PUSH0 DUP2 MLOAD DUP2 LT PUSH2 0x4C46 JUMPI PUSH2 0x4C46 PUSH2 0x5B09 JUMP JUMPDEST PUSH1 0x20 MUL PUSH1 0x20 ADD ADD SWAP1 PUSH1 0x1 PUSH1 0x1 PUSH1 0xA0 SHL SUB AND SWAP1 DUP2 PUSH1 0x1 PUSH1 0x1 PUSH1 0xA0 SHL SUB AND DUP2 MSTORE POP POP DUP5 DUP2 PUSH1 0x1 DUP2 MLOAD DUP2 LT PUSH2 0x4C7A JUMPI PUSH2 0x4C7A PUSH2 0x5B09 JUMP JUMPDEST PUSH1 0x1 PUSH1 0x1 PUSH1 0xA0 SHL SUB SWAP3 DUP4 AND PUSH1 0x20 SWAP2 DUP3 MUL SWAP3 SWAP1 SWAP3 ADD ADD MSTORE PUSH1 0x7 SLOAD PUSH1 0x40 MLOAD PUSH4 0x7C0329D PUSH1 0xE2 SHL DUP2 MSTORE PUSH0 SWAP3 SWAP2 SWAP1 SWAP2 AND SWAP1 PUSH4 0x1F00CA74 SWAP1 PUSH2 0x4CBD SWAP1 DUP9 SWAP1 DUP7 SWAP1 PUSH1 0x4 ADD PUSH2 0x5D6F JUMP JUMPDEST PUSH0 PUSH1 0x40 MLOAD DUP1 DUP4 SUB DUP2 DUP7 GAS STATICCALL ISZERO DUP1 ISZERO PUSH2 0x4CD7 JUMPI RETURNDATASIZE PUSH0 DUP1 RETURNDATACOPY RETURNDATASIZE PUSH0 REVERT JUMPDEST POP POP POP POP PUSH1 0x40 MLOAD RETURNDATASIZE PUSH0 DUP3 RETURNDATACOPY PUSH1 0x1F RETURNDATASIZE SWAP1 DUP2 ADD PUSH1 0x1F NOT AND DUP3 ADD PUSH1 0x40 MSTORE PUSH2 0x4CFE SWAP2 SWAP1 DUP2 ADD SWAP1 PUSH2 0x5D87 JUMP JUMPDEST SWAP1 POP DUP1 PUSH1 0x1 DUP2 MLOAD DUP2 LT PUSH2 0x4D13 JUMPI PUSH2 0x4D13 PUSH2 0x5B09 JUMP JUMPDEST PUSH1 0x20 MUL PUSH1 0x20 ADD ADD MLOAD PUSH1 0x13 SLOAD GT ISZERO PUSH2 0x4E29 JUMPI PUSH1 0x7 SLOAD DUP2 MLOAD PUSH0 SWAP2 PUSH1 0x1 PUSH1 0x1 PUSH1 0xA0 SHL SUB AND SWAP1 PUSH4 0xD06CA61F SWAP1 DUP5 SWAP1 PUSH1 0x1 SWAP1 DUP2 LT PUSH2 0x4D4E JUMPI PUSH2 0x4D4E PUSH2 0x5B09 JUMP JUMPDEST PUSH1 0x20 MUL PUSH1 0x20 ADD ADD MLOAD DUP6 PUSH1 0x40 MLOAD DUP4 PUSH4 0xFFFFFFFF AND PUSH1 0xE0 SHL DUP2 MSTORE PUSH1 0x4 ADD PUSH2 0x4D74 SWAP3 SWAP2 SWAP1 PUSH2 0x5D6F JUMP JUMPDEST PUSH0 PUSH1 0x40 MLOAD DUP1 DUP4 SUB DUP2 DUP7 GAS STATICCALL ISZERO DUP1 ISZERO PUSH2 0x4D8E JUMPI RETURNDATASIZE PUSH0 DUP1 RETURNDATACOPY RETURNDATASIZE PUSH0 REVERT JUMPDEST POP POP POP POP PUSH1 0x40 MLOAD RETURNDATASIZE PUSH0 DUP3 RETURNDATACOPY PUSH1 0x1F RETURNDATASIZE SWAP1 DUP2 ADD PUSH1 0x1F NOT AND DUP3 ADD PUSH1 0x40 MSTORE PUSH2 0x4DB5 SWAP2 SWAP1 DUP2 ADD SWAP1 PUSH2 0x5D87 JUMP JUMPDEST SWAP1 POP PUSH0 PUSH2 0x2710 PUSH1 0x10 SLOAD PUSH2 0x2710 PUSH2 0x4DCB SWAP2 SWAP1 PUSH2 0x5CF0 JUMP JUMPDEST DUP4 PUSH1 0x1 DUP2 MLOAD DUP2 LT PUSH2 0x4DDE JUMPI PUSH2 0x4DDE PUSH2 0x5B09 JUMP JUMPDEST PUSH1 0x20 MUL PUSH1 0x20 ADD ADD MLOAD PUSH2 0x4DF0 SWAP2 SWAP1 PUSH2 0x5B48 JUMP JUMPDEST PUSH2 0x4DFA SWAP2 SWAP1 PUSH2 0x5B5F JUMP JUMPDEST SWAP1 POP PUSH2 0x4E21 DUP9 DUP5 PUSH1 0x1 DUP2 MLOAD DUP2 LT PUSH2 0x4E13 JUMPI PUSH2 0x4E13 PUSH2 0x5B09 JUMP JUMPDEST PUSH1 0x20 MUL PUSH1 0x20 ADD ADD MLOAD DUP4 PUSH2 0x41AD JUMP JUMPDEST POP POP POP PUSH2 0x4EF6 JUMP JUMPDEST PUSH1 0x7 SLOAD PUSH1 0x13 SLOAD PUSH1 0x40 MLOAD PUSH4 0xD06CA61F PUSH1 0xE0 SHL DUP2 MSTORE PUSH0 SWAP3 PUSH1 0x1 PUSH1 0x1 PUSH1 0xA0 SHL SUB AND SWAP2 PUSH4 0xD06CA61F SWAP2 PUSH2 0x4E5D SWAP2 SWAP1 DUP8 SWAP1 PUSH1 0x4 ADD PUSH2 0x5D6F JUMP JUMPDEST PUSH0 PUSH1 0x40 MLOAD DUP1 DUP4 SUB DUP2 DUP7 GAS STATICCALL ISZERO DUP1 ISZERO PUSH2 0x4E77 JUMPI RETURNDATASIZE PUSH0 DUP1 RETURNDATACOPY RETURNDATASIZE PUSH0 REVERT JUMPDEST POP POP POP POP PUSH1 0x40 MLOAD RETURNDATASIZE PUSH0 DUP3 RETURNDATACOPY PUSH1 0x1F RETURNDATASIZE SWAP1 DUP2 ADD PUSH1 0x1F NOT AND DUP3 ADD PUSH1 0x40 MSTORE PUSH2 0x4E9E SWAP2 SWAP1 DUP2 ADD SWAP1 PUSH2 0x5D87 JUMP JUMPDEST SWAP1 POP PUSH0 PUSH2 0x2710 PUSH1 0x10 SLOAD PUSH2 0x2710 PUSH2 0x4EB4 SWAP2 SWAP1 PUSH2 0x5CF0 JUMP JUMPDEST DUP4 PUSH1 0x1 DUP2 MLOAD DUP2 LT PUSH2 0x4EC7 JUMPI PUSH2 0x4EC7 PUSH2 0x5B09 JUMP JUMPDEST PUSH1 0x20 MUL PUSH1 0x20 ADD ADD MLOAD PUSH2 0x4ED9 SWAP2 SWAP1 PUSH2 0x5B48 JUMP JUMPDEST PUSH2 0x4EE3 SWAP2 SWAP1 PUSH2 0x5B5F JUMP JUMPDEST SWAP1 POP PUSH2 0x4EF2 DUP9 PUSH1 0x13 SLOAD DUP4 PUSH2 0x41AD JUMP JUMPDEST POP POP POP JUMPDEST POP POP PUSH2 0x199C JUMP JUMPDEST PUSH1 0x40 MLOAD PUSH1 0x20 ADD PUSH2 0x4F0C SWAP1 PUSH2 0x5C5E JUMP JUMPDEST PUSH1 0x40 MLOAD PUSH1 0x20 DUP2 DUP4 SUB SUB DUP2 MSTORE SWAP1 PUSH1 0x40 MSTORE DUP1 MLOAD SWAP1 PUSH1 0x20 ADD KECCAK256 DUP3 PUSH1 0x40 MLOAD PUSH1 0x20 ADD PUSH2 0x4F33 SWAP2 SWAP1 PUSH2 0x5E69 JUMP JUMPDEST PUSH1 0x40 MLOAD PUSH1 0x20 DUP2 DUP4 SUB SUB DUP2 MSTORE SWAP1 PUSH1 0x40 MSTORE DUP1 MLOAD SWAP1 PUSH1 0x20 ADD KECCAK256 SUB PUSH2 0x1EE3 JUMPI PUSH1 0x7 SLOAD PUSH1 0x40 DUP1 MLOAD PUSH4 0x15AB88C9 PUSH1 0xE3 SHL DUP2 MSTORE SWAP1 MLOAD PUSH0 SWAP3 PUSH1 0x1 PUSH1 0x1 PUSH1 0xA0 SHL SUB AND SWAP2 PUSH4 0xAD5C4648 SWAP2 PUSH1 0x4 DUP1 DUP4 ADD SWAP3 PUSH1 0x20 SWAP3 SWAP2 SWAP1 DUP3 SWAP1 SUB ADD DUP2 DUP7 GAS STATICCALL ISZERO DUP1 ISZERO PUSH2 0x4F95 JUMPI RETURNDATASIZE PUSH0 DUP1 RETURNDATACOPY RETURNDATASIZE PUSH0 REVERT JUMPDEST POP POP POP POP PUSH1 0x40 MLOAD RETURNDATASIZE PUSH1 0x1F NOT PUSH1 0x1F DUP3 ADD AND DUP3 ADD DUP1 PUSH1 0x40 MSTORE POP DUP2 ADD SWAP1 PUSH2 0x4FB9 SWAP2 SWAP1 PUSH2 0x5B9A JUMP JUMPDEST DUP3 DUP7 PUSH1 0x40 MLOAD PUSH1 0x20 ADD PUSH2 0x4FCD SWAP4 SWAP3 SWAP2 SWAP1 PUSH2 0x5E0D JUMP JUMPDEST PUSH1 0x40 DUP1 MLOAD PUSH1 0x1F NOT DUP2 DUP5 SUB ADD DUP2 MSTORE SWAP1 DUP3 SWAP1 MSTORE PUSH1 0x9 SLOAD PUSH4 0x2F80BB1D PUSH1 0xE0 SHL DUP4 MSTORE SWAP1 SWAP3 POP PUSH0 SWAP2 PUSH1 0x1 PUSH1 0x1 PUSH1 0xA0 SHL SUB SWAP1 SWAP2 AND SWAP1 PUSH4 0x2F80BB1D SWAP1 PUSH2 0x5012 SWAP1 DUP6 SWAP1 DUP10 SWAP1 PUSH1 0x4 ADD PUSH2 0x5E48 JUMP JUMPDEST PUSH1 0x20 PUSH1 0x40 MLOAD DUP1 DUP4 SUB DUP2 PUSH0 DUP8 GAS CALL ISZERO DUP1 ISZERO PUSH2 0x502E JUMPI RETURNDATASIZE PUSH0 DUP1 RETURNDATACOPY RETURNDATASIZE PUSH0 REVERT JUMPDEST POP POP POP POP PUSH1 0x40 MLOAD RETURNDATASIZE PUSH1 0x1F NOT PUSH1 0x1F DUP3 ADD AND DUP3 ADD DUP1 PUSH1 0x40 MSTORE POP DUP2 ADD SWAP1 PUSH2 0x5052 SWAP2 SWAP1 PUSH2 0x5B1D JUMP JUMPDEST SWAP1 POP DUP1 PUSH1 0x14 SLOAD GT ISZERO PUSH2 0x510F JUMPI PUSH1 0x9 SLOAD PUSH1 0x40 MLOAD PUSH4 0xCDCA1753 PUSH1 0xE0 SHL DUP2 MSTORE PUSH0 SWAP2 PUSH1 0x1 PUSH1 0x1 PUSH1 0xA0 SHL SUB AND SWAP1 PUSH4 0xCDCA1753 SWAP1 PUSH2 0x5090 SWAP1 DUP7 SWAP1 DUP7 SWAP1 PUSH1 0x4 ADD PUSH2 0x5E48 JUMP JUMPDEST PUSH1 0x20 PUSH1 0x40 MLOAD DUP1 DUP4 SUB DUP2 PUSH0 DUP8 GAS CALL ISZERO DUP1 ISZERO PUSH2 0x50AC JUMPI RETURNDATASIZE PUSH0 DUP1 RETURNDATACOPY RETURNDATASIZE PUSH0 REVERT JUMPDEST POP POP POP POP PUSH1 0x40 MLOAD RETURNDATASIZE PUSH1 0x1F NOT PUSH1 0x1F DUP3 ADD AND DUP3 ADD DUP1 PUSH1 0x40 MSTORE POP DUP2 ADD SWAP1 PUSH2 0x50D0 SWAP2 SWAP1 PUSH2 0x5B1D JUMP JUMPDEST SWAP1 POP PUSH0 PUSH2 0x2710 PUSH1 0x10 SLOAD PUSH2 0x2710 PUSH2 0x50E6 SWAP2 SWAP1 PUSH2 0x5CF0 JUMP JUMPDEST PUSH2 0x50F0 SWAP1 DUP5 PUSH2 0x5B48 JUMP JUMPDEST PUSH2 0x50FA SWAP2 SWAP1 PUSH2 0x5B5F JUMP JUMPDEST SWAP1 POP PUSH2 0x5108 DUP9 DUP5 DUP8 DUP5 PUSH2 0x430A JUMP JUMPDEST POP POP PUSH2 0x4EF6 JUMP JUMPDEST PUSH1 0x9 SLOAD PUSH1 0x14 SLOAD PUSH1 0x40 MLOAD PUSH4 0xCDCA1753 PUSH1 0xE0 SHL DUP2 MSTORE PUSH0 SWAP3 PUSH1 0x1 PUSH1 0x1 PUSH1 0xA0 SHL SUB AND SWAP2 PUSH4 0xCDCA1753 SWAP2 PUSH2 0x5142 SWAP2 DUP8 SWAP2 PUSH1 0x4 ADD PUSH2 0x5E48 JUMP JUMPDEST PUSH1 0x20 PUSH1 0x40 MLOAD DUP1 DUP4 SUB DUP2 PUSH0 DUP8 GAS CALL ISZERO DUP1 ISZERO PUSH2 0x515E JUMPI RETURNDATASIZE PUSH0 DUP1 RETURNDATACOPY RETURNDATASIZE PUSH0 REVERT JUMPDEST POP POP POP POP PUSH1 0x40 MLOAD RETURNDATASIZE PUSH1 0x1F NOT PUSH1 0x1F DUP3 ADD AND DUP3 ADD DUP1 PUSH1 0x40 MSTORE POP DUP2 ADD SWAP1 PUSH2 0x5182 SWAP2 SWAP1 PUSH2 0x5B1D JUMP JUMPDEST SWAP1 POP PUSH0 PUSH2 0x2710 PUSH1 0x10 SLOAD PUSH2 0x2710 PUSH2 0x5198 SWAP2 SWAP1 PUSH2 0x5CF0 JUMP JUMPDEST PUSH2 0x51A2 SWAP1 DUP5 PUSH2 0x5B48 JUMP JUMPDEST PUSH2 0x51AC SWAP2 SWAP1 PUSH2 0x5B5F JUMP JUMPDEST SWAP1 POP PUSH2 0x1D45 DUP9 PUSH1 0x14 SLOAD DUP8 DUP5 PUSH2 0x430A JUMP JUMPDEST PUSH2 0x51C4 PUSH2 0x3DA5 JUMP JUMPDEST PUSH0 DUP1 SLOAD PUSH1 0xFF PUSH1 0xA0 SHL NOT AND PUSH1 0x1 PUSH1 0xA0 SHL OR SWAP1 SSTORE PUSH32 0x62E78CEA01BEE320CD4E420270B5EA74000D11B0C9F74754EBDBFC544B05A258 PUSH2 0x45CF CALLER SWAP1 JUMP JUMPDEST PUSH1 0x1 PUSH1 0x1 PUSH1 0xA0 SHL SUB DUP3 AND PUSH2 0x5227 JUMPI PUSH1 0x40 MLOAD PUSH4 0xEC442F05 PUSH1 0xE0 SHL DUP2 MSTORE PUSH0 PUSH1 0x4 DUP3 ADD MSTORE PUSH1 0x24 ADD PUSH2 0x962 JUMP JUMPDEST PUSH2 0x226B PUSH0 DUP4 DUP4 PUSH2 0x5304 JUMP JUMPDEST PUSH1 0x1 PUSH1 0x1 PUSH1 0xA0 SHL SUB DUP5 AND PUSH2 0x525B JUMPI PUSH1 0x40 MLOAD PUSH4 0xE602DF05 PUSH1 0xE0 SHL DUP2 MSTORE PUSH0 PUSH1 0x4 DUP3 ADD MSTORE PUSH1 0x24 ADD PUSH2 0x962 JUMP JUMPDEST PUSH1 0x1 PUSH1 0x1 PUSH1 0xA0 SHL SUB DUP4 AND PUSH2 0x5284 JUMPI PUSH1 0x40 MLOAD PUSH4 0x4A1406B1 PUSH1 0xE1 SHL DUP2 MSTORE PUSH0 PUSH1 0x4 DUP3 ADD MSTORE PUSH1 0x24 ADD PUSH2 0x962 JUMP JUMPDEST PUSH1 0x1 PUSH1 0x1 PUSH1 0xA0 SHL SUB DUP1 DUP6 AND PUSH0 SWAP1 DUP2 MSTORE PUSH1 0x2 PUSH1 0x20 SWAP1 DUP2 MSTORE PUSH1 0x40 DUP1 DUP4 KECCAK256 SWAP4 DUP8 AND DUP4 MSTORE SWAP3 SWAP1 MSTORE KECCAK256 DUP3 SWAP1 SSTORE DUP1 ISZERO PUSH2 0x199C JUMPI DUP3 PUSH1 0x1 PUSH1 0x1 PUSH1 0xA0 SHL SUB AND DUP5 PUSH1 0x1 PUSH1 0x1 PUSH1 0xA0 SHL SUB AND PUSH32 0x8C5BE1E5EBEC7D5BD14F71427D1E84F3DD0314C0F7B2291E5B200AC8C7C3B925 DUP5 PUSH1 0x40 MLOAD PUSH2 0x52F6 SWAP2 DUP2 MSTORE PUSH1 0x20 ADD SWAP1 JUMP JUMPDEST PUSH1 0x40 MLOAD DUP1 SWAP2 SUB SWAP1 LOG3 POP POP POP POP JUMP JUMPDEST PUSH1 0x1 PUSH1 0x1 PUSH1 0xA0 SHL SUB DUP4 AND PUSH2 0x532E JUMPI DUP1 PUSH1 0x3 PUSH0 DUP3 DUP3 SLOAD PUSH2 0x5323 SWAP2 SWAP1 PUSH2 0x5CDD JUMP JUMPDEST SWAP1 SWAP2 SSTORE POP PUSH2 0x539E SWAP1 POP JUMP JUMPDEST PUSH1 0x1 PUSH1 0x1 PUSH1 0xA0 SHL SUB DUP4 AND PUSH0 SWAP1 DUP2 MSTORE PUSH1 0x1 PUSH1 0x20 MSTORE PUSH1 0x40 SWAP1 KECCAK256 SLOAD DUP2 DUP2 LT ISZERO PUSH2 0x5380 JUMPI PUSH1 0x40 MLOAD PUSH4 0x391434E3 PUSH1 0xE2 SHL DUP2 MSTORE PUSH1 0x1 PUSH1 0x1 PUSH1 0xA0 SHL SUB DUP6 AND PUSH1 0x4 DUP3 ADD MSTORE PUSH1 0x24 DUP2 ADD DUP3 SWAP1 MSTORE PUSH1 0x44 DUP2 ADD DUP4 SWAP1 MSTORE PUSH1 0x64 ADD PUSH2 0x962 JUMP JUMPDEST PUSH1 0x1 PUSH1 0x1 PUSH1 0xA0 SHL SUB DUP5 AND PUSH0 SWAP1 DUP2 MSTORE PUSH1 0x1 PUSH1 0x20 MSTORE PUSH1 0x40 SWAP1 KECCAK256 SWAP1 DUP3 SWAP1 SUB SWAP1 SSTORE JUMPDEST PUSH1 0x1 PUSH1 0x1 PUSH1 0xA0 SHL SUB DUP3 AND PUSH2 0x53BA JUMPI PUSH1 0x3 DUP1 SLOAD DUP3 SWAP1 SUB SWAP1 SSTORE PUSH2 0x53D8 JUMP JUMPDEST PUSH1 0x1 PUSH1 0x1 PUSH1 0xA0 SHL SUB DUP3 AND PUSH0 SWAP1 DUP2 MSTORE PUSH1 0x1 PUSH1 0x20 MSTORE PUSH1 0x40 SWAP1 KECCAK256 DUP1 SLOAD DUP3 ADD SWAP1 SSTORE JUMPDEST DUP2 PUSH1 0x1 PUSH1 0x1 PUSH1 0xA0 SHL SUB AND DUP4 PUSH1 0x1 PUSH1 0x1 PUSH1 0xA0 SHL SUB AND PUSH32 0xDDF252AD1BE2C89B69C2B068FC378DAA952BA7F163C4A11628F55A4DF523B3EF DUP4 PUSH1 0x40 MLOAD PUSH2 0x541D SWAP2 DUP2 MSTORE PUSH1 0x20 ADD SWAP1 JUMP JUMPDEST PUSH1 0x40 MLOAD DUP1 SWAP2 SUB SWAP1 LOG3 POP POP POP JUMP JUMPDEST PUSH0 SLOAD PUSH1 0x1 PUSH1 0xA0 SHL SWAP1 DIV PUSH1 0xFF AND PUSH2 0x265C JUMPI PUSH1 0x40 MLOAD PUSH4 0x8DFC202B PUSH1 0xE0 SHL DUP2 MSTORE PUSH1 0x4 ADD PUSH1 0x40 MLOAD DUP1 SWAP2 SUB SWAP1 REVERT JUMPDEST POP DUP1 SLOAD PUSH2 0x545F SWAP1 PUSH2 0x5AD1 JUMP JUMPDEST PUSH0 DUP3 SSTORE DUP1 PUSH1 0x1F LT PUSH2 0x546E JUMPI POP POP JUMP JUMPDEST PUSH1 0x1F ADD PUSH1 0x20 SWAP1 DIV SWAP1 PUSH0 MSTORE PUSH1 0x20 PUSH0 KECCAK256 SWAP1 DUP2 ADD SWAP1 PUSH2 0x2F9A SWAP2 SWAP1 JUMPDEST DUP1 DUP3 GT ISZERO PUSH2 0x5499 JUMPI PUSH0 DUP2 SSTORE PUSH1 0x1 ADD PUSH2 0x5486 JUMP JUMPDEST POP SWAP1 JUMP JUMPDEST PUSH0 DUP2 MLOAD DUP1 DUP5 MSTORE DUP1 PUSH1 0x20 DUP5 ADD PUSH1 0x20 DUP7 ADD MCOPY PUSH0 PUSH1 0x20 DUP3 DUP7 ADD ADD MSTORE PUSH1 0x20 PUSH1 0x1F NOT PUSH1 0x1F DUP4 ADD AND DUP6 ADD ADD SWAP2 POP POP SWAP3 SWAP2 POP POP JUMP JUMPDEST PUSH1 0x20 DUP2 MSTORE PUSH0 PUSH2 0x3CCC PUSH1 0x20 DUP4 ADD DUP5 PUSH2 0x549D JUMP JUMPDEST PUSH1 0x1 PUSH1 0x1 PUSH1 0xA0 SHL SUB DUP2 AND DUP2 EQ PUSH2 0x2F9A JUMPI PUSH0 DUP1 REVERT JUMPDEST PUSH0 DUP1 PUSH1 0x40 DUP4 DUP6 SUB SLT ISZERO PUSH2 0x5502 JUMPI PUSH0 DUP1 REVERT JUMPDEST DUP3 CALLDATALOAD PUSH2 0x550D DUP2 PUSH2 0x54DD JUMP JUMPDEST SWAP5 PUSH1 0x20 SWAP4 SWAP1 SWAP4 ADD CALLDATALOAD SWAP4 POP POP POP JUMP JUMPDEST PUSH0 DUP1 PUSH1 0x40 DUP4 DUP6 SUB SLT ISZERO PUSH2 0x552C JUMPI PUSH0 DUP1 REVERT JUMPDEST POP POP DUP1 CALLDATALOAD SWAP3 PUSH1 0x20 SWAP1 SWAP2 ADD CALLDATALOAD SWAP2 POP JUMP JUMPDEST PUSH4 0x4E487B71 PUSH1 0xE0 SHL PUSH0 MSTORE PUSH1 0x41 PUSH1 0x4 MSTORE PUSH1 0x24 PUSH0 REVERT JUMPDEST PUSH1 0x40 MLOAD PUSH1 0x1F DUP3 ADD PUSH1 0x1F NOT AND DUP2 ADD PUSH1 0x1 PUSH1 0x1 PUSH1 0x40 SHL SUB DUP2 GT DUP3 DUP3 LT OR ISZERO PUSH2 0x5577 JUMPI PUSH2 0x5577 PUSH2 0x553B JUMP JUMPDEST PUSH1 0x40 MSTORE SWAP2 SWAP1 POP JUMP JUMPDEST PUSH0 PUSH1 0x1 PUSH1 0x1 PUSH1 0x40 SHL SUB DUP3 GT ISZERO PUSH2 0x5597 JUMPI PUSH2 0x5597 PUSH2 0x553B JUMP JUMPDEST POP PUSH1 0x5 SHL PUSH1 0x20 ADD SWAP1 JUMP JUMPDEST PUSH0 PUSH1 0x20 DUP3 DUP5 SUB SLT ISZERO PUSH2 0x55B1 JUMPI PUSH0 DUP1 REVERT JUMPDEST DUP2 CALLDATALOAD PUSH1 0x1 PUSH1 0x1 PUSH1 0x40 SHL SUB DUP2 GT ISZERO PUSH2 0x55C6 JUMPI PUSH0 DUP1 REVERT JUMPDEST DUP3 ADD PUSH1 0x1F DUP2 ADD DUP5 SGT PUSH2 0x55D6 JUMPI PUSH0 DUP1 REVERT JUMPDEST DUP1 CALLDATALOAD PUSH2 0x55E9 PUSH2 0x55E4 DUP3 PUSH2 0x557F JUMP JUMPDEST PUSH2 0x554F JUMP JUMPDEST DUP1 DUP3 DUP3 MSTORE PUSH1 0x20 DUP3 ADD SWAP2 POP PUSH1 0x20 DUP4 PUSH1 0x5 SHL DUP6 ADD ADD SWAP3 POP DUP7 DUP4 GT ISZERO PUSH2 0x560A JUMPI PUSH0 DUP1 REVERT JUMPDEST PUSH1 0x20 DUP5 ADD SWAP4 POP JUMPDEST DUP3 DUP5 LT ISZERO PUSH2 0x562C JUMPI DUP4 CALLDATALOAD DUP3 MSTORE PUSH1 0x20 SWAP4 DUP5 ADD SWAP4 SWAP1 SWAP2 ADD SWAP1 PUSH2 0x5611 JUMP JUMPDEST SWAP7 SWAP6 POP POP POP POP POP POP JUMP JUMPDEST PUSH0 PUSH1 0x20 DUP3 DUP5 SUB SLT ISZERO PUSH2 0x5646 JUMPI PUSH0 DUP1 REVERT JUMPDEST POP CALLDATALOAD SWAP2 SWAP1 POP JUMP JUMPDEST PUSH0 DUP1 PUSH0 PUSH1 0x60 DUP5 DUP7 SUB SLT ISZERO PUSH2 0x565F JUMPI PUSH0 DUP1 REVERT JUMPDEST DUP4 CALLDATALOAD PUSH2 0x566A DUP2 PUSH2 0x54DD JUMP JUMPDEST SWAP3 POP PUSH1 0x20 DUP5 ADD CALLDATALOAD PUSH2 0x567A DUP2 PUSH2 0x54DD JUMP JUMPDEST SWAP3 SWAP6 SWAP3 SWAP5 POP POP POP PUSH1 0x40 SWAP2 SWAP1 SWAP2 ADD CALLDATALOAD SWAP1 JUMP JUMPDEST PUSH0 PUSH1 0x20 DUP3 ADD PUSH1 0x20 DUP4 MSTORE DUP1 DUP5 MLOAD DUP1 DUP4 MSTORE PUSH1 0x40 DUP6 ADD SWAP2 POP PUSH1 0x40 DUP2 PUSH1 0x5 SHL DUP7 ADD ADD SWAP3 POP PUSH1 0x20 DUP7 ADD PUSH0 JUMPDEST DUP3 DUP2 LT ISZERO PUSH2 0x571B JUMPI PUSH1 0x3F NOT DUP8 DUP7 SUB ADD DUP5 MSTORE DUP2 MLOAD PUSH1 0x1 DUP1 PUSH1 0xA0 SHL SUB DUP2 MLOAD AND DUP7 MSTORE PUSH1 0x20 DUP2 ADD MLOAD PUSH1 0x20 DUP8 ADD MSTORE PUSH1 0x40 DUP2 ADD MLOAD PUSH1 0x80 PUSH1 0x40 DUP9 ADD MSTORE PUSH2 0x56F3 PUSH1 0x80 DUP9 ADD DUP3 PUSH2 0x549D JUMP JUMPDEST PUSH1 0x60 SWAP3 DUP4 ADD MLOAD PUSH3 0xFFFFFF AND SWAP8 SWAP1 SWAP3 ADD SWAP7 SWAP1 SWAP7 MSTORE SWAP5 POP PUSH1 0x20 SWAP4 DUP5 ADD SWAP4 SWAP2 SWAP1 SWAP2 ADD SWAP1 PUSH1 0x1 ADD PUSH2 0x56B1 JUMP JUMPDEST POP SWAP3 SWAP7 SWAP6 POP POP POP POP POP POP JUMP JUMPDEST PUSH1 0x1 DUP1 PUSH1 0xA0 SHL SUB DUP6 AND DUP2 MSTORE DUP4 PUSH1 0x20 DUP3 ADD MSTORE PUSH1 0x80 PUSH1 0x40 DUP3 ADD MSTORE PUSH0 PUSH2 0x574D PUSH1 0x80 DUP4 ADD DUP6 PUSH2 0x549D JUMP JUMPDEST SWAP1 POP PUSH3 0xFFFFFF DUP4 AND PUSH1 0x60 DUP4 ADD MSTORE SWAP6 SWAP5 POP POP POP POP POP JUMP JUMPDEST PUSH0 PUSH1 0x20 DUP3 DUP5 SUB SLT ISZERO PUSH2 0x5773 JUMPI PUSH0 DUP1 REVERT JUMPDEST DUP2 CALLDATALOAD PUSH2 0x3CCC DUP2 PUSH2 0x54DD JUMP JUMPDEST PUSH1 0x1 PUSH1 0x1 PUSH1 0xA0 SHL SUB DUP7 DUP2 AND DUP3 MSTORE DUP6 AND PUSH1 0x20 DUP3 ADD MSTORE PUSH1 0x40 DUP2 ADD DUP5 SWAP1 MSTORE PUSH1 0xA0 PUSH1 0x60 DUP3 ADD DUP2 SWAP1 MSTORE PUSH0 SWAP1 PUSH2 0x57B0 SWAP1 DUP4 ADD DUP6 PUSH2 0x549D JUMP JUMPDEST SWAP1 POP PUSH3 0xFFFFFF DUP4 AND PUSH1 0x80 DUP4 ADD MSTORE SWAP7 SWAP6 POP POP POP POP POP POP JUMP JUMPDEST PUSH0 DUP3 PUSH1 0x1F DUP4 ADD SLT PUSH2 0x57D6 JUMPI PUSH0 DUP1 REVERT JUMPDEST DUP2 CALLDATALOAD PUSH1 0x1 PUSH1 0x1 PUSH1 0x40 SHL SUB DUP2 GT ISZERO PUSH2 0x57EF JUMPI PUSH2 0x57EF PUSH2 0x553B JUMP JUMPDEST PUSH2 0x5802 PUSH1 0x1F DUP3 ADD PUSH1 0x1F NOT AND PUSH1 0x20 ADD PUSH2 0x554F JUMP JUMPDEST DUP2 DUP2 MSTORE DUP5 PUSH1 0x20 DUP4 DUP7 ADD ADD GT ISZERO PUSH2 0x5816 JUMPI PUSH0 DUP1 REVERT JUMPDEST DUP2 PUSH1 0x20 DUP6 ADD PUSH1 0x20 DUP4 ADD CALLDATACOPY PUSH0 SWAP2 DUP2 ADD PUSH1 0x20 ADD SWAP2 SWAP1 SWAP2 MSTORE SWAP4 SWAP3 POP POP POP JUMP JUMPDEST DUP1 CALLDATALOAD PUSH3 0xFFFFFF DUP2 AND DUP2 EQ PUSH2 0x5844 JUMPI PUSH0 DUP1 REVERT JUMPDEST SWAP2 SWAP1 POP JUMP JUMPDEST PUSH0 DUP1 PUSH0 DUP1 PUSH1 0x80 DUP6 DUP8 SUB SLT ISZERO PUSH2 0x585C JUMPI PUSH0 DUP1 REVERT JUMPDEST DUP5 CALLDATALOAD PUSH2 0x5867 DUP2 PUSH2 0x54DD JUMP JUMPDEST SWAP4 POP PUSH1 0x20 DUP6 ADD CALLDATALOAD SWAP3 POP PUSH1 0x40 DUP6 ADD CALLDATALOAD PUSH1 0x1 PUSH1 0x1 PUSH1 0x40 SHL SUB DUP2 GT ISZERO PUSH2 0x5888 JUMPI PUSH0 DUP1 REVERT JUMPDEST PUSH2 0x5894 DUP8 DUP3 DUP9 ADD PUSH2 0x57C7 JUMP JUMPDEST SWAP3 POP POP PUSH2 0x58A3 PUSH1 0x60 DUP7 ADD PUSH2 0x5832 JUMP JUMPDEST SWAP1 POP SWAP3 SWAP6 SWAP2 SWAP5 POP SWAP3 POP JUMP JUMPDEST DUP1 ISZERO ISZERO DUP2 EQ PUSH2 0x2F9A JUMPI PUSH0 DUP1 REVERT JUMPDEST PUSH0 DUP1 PUSH1 0x40 DUP4 DUP6 SUB SLT ISZERO PUSH2 0x58CC JUMPI PUSH0 DUP1 REVERT JUMPDEST DUP3 CALLDATALOAD PUSH2 0x58D7 DUP2 PUSH2 0x54DD JUMP JUMPDEST SWAP2 POP PUSH1 0x20 DUP4 ADD CALLDATALOAD PUSH2 0x58E7 DUP2 PUSH2 0x58AE JUMP JUMPDEST DUP1 SWAP2 POP POP SWAP3 POP SWAP3 SWAP1 POP JUMP JUMPDEST PUSH0 DUP1 DUP4 PUSH1 0x1F DUP5 ADD SLT PUSH2 0x5902 JUMPI PUSH0 DUP1 REVERT JUMPDEST POP DUP2 CALLDATALOAD PUSH1 0x1 PUSH1 0x1 PUSH1 0x40 SHL SUB DUP2 GT ISZERO PUSH2 0x5918 JUMPI PUSH0 DUP1 REVERT JUMPDEST PUSH1 0x20 DUP4 ADD SWAP2 POP DUP4 PUSH1 0x20 DUP3 PUSH1 0x5 SHL DUP6 ADD ADD GT ISZERO PUSH2 0x5932 JUMPI PUSH0 DUP1 REVERT JUMPDEST SWAP3 POP SWAP3 SWAP1 POP JUMP JUMPDEST PUSH0 DUP1 PUSH0 DUP1 PUSH0 DUP1 PUSH0 DUP1 PUSH1 0x80 DUP10 DUP12 SUB SLT ISZERO PUSH2 0x5950 JUMPI PUSH0 DUP1 REVERT JUMPDEST DUP9 CALLDATALOAD PUSH1 0x1 PUSH1 0x1 PUSH1 0x40 SHL SUB DUP2 GT ISZERO PUSH2 0x5965 JUMPI PUSH0 DUP1 REVERT JUMPDEST PUSH2 0x5971 DUP12 DUP3 DUP13 ADD PUSH2 0x58F2 JUMP JUMPDEST SWAP1 SWAP10 POP SWAP8 POP POP PUSH1 0x20 DUP10 ADD CALLDATALOAD PUSH1 0x1 PUSH1 0x1 PUSH1 0x40 SHL SUB DUP2 GT ISZERO PUSH2 0x598F JUMPI PUSH0 DUP1 REVERT JUMPDEST PUSH2 0x599B DUP12 DUP3 DUP13 ADD PUSH2 0x58F2 JUMP JUMPDEST SWAP1 SWAP8 POP SWAP6 POP POP PUSH1 0x40 DUP10 ADD CALLDATALOAD PUSH1 0x1 PUSH1 0x1 PUSH1 0x40 SHL SUB DUP2 GT ISZERO PUSH2 0x59B9 JUMPI PUSH0 DUP1 REVERT JUMPDEST PUSH2 0x59C5 DUP12 DUP3 DUP13 ADD PUSH2 0x58F2 JUMP JUMPDEST SWAP1 SWAP6 POP SWAP4 POP POP PUSH1 0x60 DUP10 ADD CALLDATALOAD PUSH1 0x1 PUSH1 0x1 PUSH1 0x40 SHL SUB DUP2 GT ISZERO PUSH2 0x59E3 JUMPI PUSH0 DUP1 REVERT JUMPDEST PUSH2 0x59EF DUP12 DUP3 DUP13 ADD PUSH2 0x58F2 JUMP JUMPDEST SWAP10 SWAP13 SWAP9 SWAP12 POP SWAP7 SWAP10 POP SWAP5 SWAP8 SWAP4 SWAP7 SWAP3 SWAP6 SWAP5 POP POP POP JUMP JUMPDEST PUSH0 PUSH1 0x20 DUP3 ADD PUSH1 0x20 DUP4 MSTORE DUP1 DUP5 MLOAD DUP1 DUP4 MSTORE PUSH1 0x40 DUP6 ADD SWAP2 POP PUSH1 0x40 DUP2 PUSH1 0x5 SHL DUP7 ADD ADD SWAP3 POP PUSH1 0x20 DUP7 ADD PUSH0 JUMPDEST DUP3 DUP2 LT ISZERO PUSH2 0x571B JUMPI PUSH1 0x3F NOT DUP8 DUP7 SUB ADD DUP5 MSTORE DUP2 MLOAD PUSH1 0x1 DUP1 PUSH1 0xA0 SHL SUB DUP2 MLOAD AND DUP7 MSTORE PUSH1 0x1 DUP1 PUSH1 0xA0 SHL SUB PUSH1 0x20 DUP3 ADD MLOAD AND PUSH1 0x20 DUP8 ADD MSTORE PUSH1 0x40 DUP2 ADD MLOAD PUSH1 0x40 DUP8 ADD MSTORE PUSH1 0x60 DUP2 ADD MLOAD PUSH1 0xA0 PUSH1 0x60 DUP9 ADD MSTORE PUSH2 0x5A7D PUSH1 0xA0 DUP9 ADD DUP3 PUSH2 0x549D JUMP JUMPDEST PUSH1 0x80 SWAP3 DUP4 ADD MLOAD PUSH3 0xFFFFFF AND SWAP8 SWAP1 SWAP3 ADD SWAP7 SWAP1 SWAP7 MSTORE SWAP5 POP PUSH1 0x20 SWAP4 DUP5 ADD SWAP4 SWAP2 SWAP1 SWAP2 ADD SWAP1 PUSH1 0x1 ADD PUSH2 0x5A29 JUMP JUMPDEST PUSH0 DUP1 PUSH1 0x40 DUP4 DUP6 SUB SLT ISZERO PUSH2 0x5AB6 JUMPI PUSH0 DUP1 REVERT JUMPDEST DUP3 CALLDATALOAD PUSH2 0x5AC1 DUP2 PUSH2 0x54DD JUMP JUMPDEST SWAP2 POP PUSH1 0x20 DUP4 ADD CALLDATALOAD PUSH2 0x58E7 DUP2 PUSH2 0x54DD JUMP JUMPDEST PUSH1 0x1 DUP2 DUP2 SHR SWAP1 DUP3 AND DUP1 PUSH2 0x5AE5 JUMPI PUSH1 0x7F DUP3 AND SWAP2 POP JUMPDEST PUSH1 0x20 DUP3 LT DUP2 SUB PUSH2 0x5B03 JUMPI PUSH4 0x4E487B71 PUSH1 0xE0 SHL PUSH0 MSTORE PUSH1 0x22 PUSH1 0x4 MSTORE PUSH1 0x24 PUSH0 REVERT JUMPDEST POP SWAP2 SWAP1 POP JUMP JUMPDEST PUSH4 0x4E487B71 PUSH1 0xE0 SHL PUSH0 MSTORE PUSH1 0x32 PUSH1 0x4 MSTORE PUSH1 0x24 PUSH0 REVERT JUMPDEST PUSH0 PUSH1 0x20 DUP3 DUP5 SUB SLT ISZERO PUSH2 0x5B2D JUMPI PUSH0 DUP1 REVERT JUMPDEST POP MLOAD SWAP2 SWAP1 POP JUMP JUMPDEST PUSH4 0x4E487B71 PUSH1 0xE0 SHL PUSH0 MSTORE PUSH1 0x11 PUSH1 0x4 MSTORE PUSH1 0x24 PUSH0 REVERT JUMPDEST DUP1 DUP3 MUL DUP2 ISZERO DUP3 DUP3 DIV DUP5 EQ OR PUSH2 0x91E JUMPI PUSH2 0x91E PUSH2 0x5B34 JUMP JUMPDEST PUSH0 DUP3 PUSH2 0x5B79 JUMPI PUSH4 0x4E487B71 PUSH1 0xE0 SHL PUSH0 MSTORE PUSH1 0x12 PUSH1 0x4 MSTORE PUSH1 0x24 PUSH0 REVERT JUMPDEST POP DIV SWAP1 JUMP JUMPDEST PUSH1 0x20 DUP1 DUP3 MSTORE PUSH1 0x2 SWAP1 DUP3 ADD MSTORE PUSH2 0x3E3 PUSH1 0xF4 SHL PUSH1 0x40 DUP3 ADD MSTORE PUSH1 0x60 ADD SWAP1 JUMP JUMPDEST PUSH0 PUSH1 0x20 DUP3 DUP5 SUB SLT ISZERO PUSH2 0x5BAA JUMPI PUSH0 DUP1 REVERT JUMPDEST DUP2 MLOAD PUSH2 0x3CCC DUP2 PUSH2 0x54DD JUMP JUMPDEST PUSH1 0x1 PUSH1 0x1 PUSH1 0xA0 SHL SUB DUP6 AND DUP2 MSTORE PUSH1 0x20 DUP2 ADD DUP5 SWAP1 MSTORE PUSH1 0x80 PUSH1 0x40 DUP3 ADD MSTORE DUP3 SLOAD PUSH0 SWAP1 DUP2 SWAP1 PUSH2 0x5BDE DUP2 PUSH2 0x5AD1 JUMP JUMPDEST DUP1 PUSH1 0x80 DUP7 ADD MSTORE PUSH1 0x1 DUP3 AND PUSH0 DUP2 EQ PUSH2 0x5BFC JUMPI PUSH1 0x1 DUP2 EQ PUSH2 0x5C18 JUMPI PUSH2 0x5C49 JUMP JUMPDEST PUSH1 0xFF NOT DUP4 AND PUSH1 0xA0 DUP8 ADD MSTORE PUSH1 0xA0 DUP3 ISZERO ISZERO PUSH1 0x5 SHL DUP8 ADD ADD SWAP4 POP PUSH2 0x5C49 JUMP JUMPDEST DUP8 PUSH0 MSTORE PUSH1 0x20 PUSH0 KECCAK256 PUSH0 JUMPDEST DUP4 DUP2 LT ISZERO PUSH2 0x5C40 JUMPI DUP2 SLOAD DUP9 DUP3 ADD PUSH1 0xA0 ADD MSTORE PUSH1 0x1 SWAP1 SWAP2 ADD SWAP1 PUSH1 0x20 ADD PUSH2 0x5C21 JUMP JUMPDEST DUP8 ADD PUSH1 0xA0 ADD SWAP5 POP POP JUMPDEST POP POP POP PUSH3 0xFFFFFF DUP5 AND PUSH1 0x60 DUP5 ADD MSTORE SWAP1 POP PUSH2 0x41A4 JUMP JUMPDEST PUSH2 0x7633 PUSH1 0xF0 SHL DUP2 MSTORE PUSH1 0x2 ADD SWAP1 JUMP JUMPDEST PUSH0 DUP1 DUP4 SLOAD PUSH2 0x5C79 DUP2 PUSH2 0x5AD1 JUMP JUMPDEST PUSH1 0x1 DUP3 AND DUP1 ISZERO PUSH2 0x5C90 JUMPI PUSH1 0x1 DUP2 EQ PUSH2 0x5CA5 JUMPI PUSH2 0x5CD2 JUMP JUMPDEST PUSH1 0xFF NOT DUP4 AND DUP7 MSTORE DUP2 ISZERO ISZERO DUP3 MUL DUP7 ADD SWAP4 POP PUSH2 0x5CD2 JUMP JUMPDEST DUP7 PUSH0 MSTORE PUSH1 0x20 PUSH0 KECCAK256 PUSH0 JUMPDEST DUP4 DUP2 LT ISZERO PUSH2 0x5CCA JUMPI DUP2 SLOAD DUP9 DUP3 ADD MSTORE PUSH1 0x1 SWAP1 SWAP2 ADD SWAP1 PUSH1 0x20 ADD PUSH2 0x5CAE JUMP JUMPDEST POP POP DUP2 DUP7 ADD SWAP4 POP JUMPDEST POP SWAP2 SWAP6 SWAP5 POP POP POP POP POP JUMP JUMPDEST DUP1 DUP3 ADD DUP1 DUP3 GT ISZERO PUSH2 0x91E JUMPI PUSH2 0x91E PUSH2 0x5B34 JUMP JUMPDEST DUP2 DUP2 SUB DUP2 DUP2 GT ISZERO PUSH2 0x91E JUMPI PUSH2 0x91E PUSH2 0x5B34 JUMP JUMPDEST PUSH0 PUSH1 0x20 DUP3 DUP5 SUB SLT ISZERO PUSH2 0x5D13 JUMPI PUSH0 DUP1 REVERT JUMPDEST DUP2 MLOAD PUSH2 0x3CCC DUP2 PUSH2 0x58AE JUMP JUMPDEST PUSH2 0x3B19 PUSH1 0xF1 SHL DUP2 MSTORE PUSH1 0x2 ADD SWAP1 JUMP JUMPDEST PUSH0 DUP2 MLOAD DUP1 DUP5 MSTORE PUSH1 0x20 DUP5 ADD SWAP4 POP PUSH1 0x20 DUP4 ADD PUSH0 JUMPDEST DUP3 DUP2 LT ISZERO PUSH2 0x5D65 JUMPI DUP2 MLOAD PUSH1 0x1 PUSH1 0x1 PUSH1 0xA0 SHL SUB AND DUP7 MSTORE PUSH1 0x20 SWAP6 DUP7 ADD SWAP6 SWAP1 SWAP2 ADD SWAP1 PUSH1 0x1 ADD PUSH2 0x5D3E JUMP JUMPDEST POP SWAP4 SWAP5 SWAP4 POP POP POP POP JUMP JUMPDEST DUP3 DUP2 MSTORE PUSH1 0x40 PUSH1 0x20 DUP3 ADD MSTORE PUSH0 PUSH2 0x370B PUSH1 0x40 DUP4 ADD DUP5 PUSH2 0x5D2C JUMP JUMPDEST PUSH0 PUSH1 0x20 DUP3 DUP5 SUB SLT ISZERO PUSH2 0x5D97 JUMPI PUSH0 DUP1 REVERT JUMPDEST DUP2 MLOAD PUSH1 0x1 PUSH1 0x1 PUSH1 0x40 SHL SUB DUP2 GT ISZERO PUSH2 0x5DAC JUMPI PUSH0 DUP1 REVERT JUMPDEST DUP3 ADD PUSH1 0x1F DUP2 ADD DUP5 SGT PUSH2 0x5DBC JUMPI PUSH0 DUP1 REVERT JUMPDEST DUP1 MLOAD PUSH2 0x5DCA PUSH2 0x55E4 DUP3 PUSH2 0x557F JUMP JUMPDEST DUP1 DUP3 DUP3 MSTORE PUSH1 0x20 DUP3 ADD SWAP2 POP PUSH1 0x20 DUP4 PUSH1 0x5 SHL DUP6 ADD ADD SWAP3 POP DUP7 DUP4 GT ISZERO PUSH2 0x5DEB JUMPI PUSH0 DUP1 REVERT JUMPDEST PUSH1 0x20 DUP5 ADD SWAP4 POP JUMPDEST DUP3 DUP5 LT ISZERO PUSH2 0x562C JUMPI DUP4 MLOAD DUP3 MSTORE PUSH1 0x20 SWAP4 DUP5 ADD SWAP4 SWAP1 SWAP2 ADD SWAP1 PUSH2 0x5DF2 JUMP JUMPDEST PUSH1 0x60 SWAP4 DUP5 SHL PUSH12 0xFFFFFFFFFFFFFFFFFFFFFFFF NOT SWAP1 DUP2 AND DUP3 MSTORE PUSH1 0xE8 SWAP4 SWAP1 SWAP4 SHL PUSH1 0x1 PUSH1 0x1 PUSH1 0xE8 SHL SUB NOT AND PUSH1 0x14 DUP3 ADD MSTORE SWAP3 SHL AND PUSH1 0x17 DUP3 ADD MSTORE PUSH1 0x2B ADD SWAP1 JUMP JUMPDEST PUSH1 0x40 DUP2 MSTORE PUSH0 PUSH2 0x5E5A PUSH1 0x40 DUP4 ADD DUP6 PUSH2 0x549D JUMP JUMPDEST SWAP1 POP DUP3 PUSH1 0x20 DUP4 ADD MSTORE SWAP4 SWAP3 POP POP POP JUMP JUMPDEST PUSH0 DUP3 MLOAD DUP1 PUSH1 0x20 DUP6 ADD DUP5 MCOPY PUSH0 SWAP3 ADD SWAP2 DUP3 MSTORE POP SWAP2 SWAP1 POP JUMP JUMPDEST PUSH1 0x1F DUP3 GT ISZERO PUSH2 0x2A41 JUMPI DUP1 PUSH0 MSTORE PUSH1 0x20 PUSH0 KECCAK256 PUSH1 0x1F DUP5 ADD PUSH1 0x5 SHR DUP2 ADD PUSH1 0x20 DUP6 LT ISZERO PUSH2 0x5EA4 JUMPI POP DUP1 JUMPDEST PUSH1 0x1F DUP5 ADD PUSH1 0x5 SHR DUP3 ADD SWAP2 POP JUMPDEST DUP2 DUP2 LT ISZERO PUSH2 0x121F JUMPI PUSH0 DUP2 SSTORE PUSH1 0x1 ADD PUSH2 0x5EB0 JUMP JUMPDEST DUP2 MLOAD PUSH1 0x1 PUSH1 0x1 PUSH1 0x40 SHL SUB DUP2 GT ISZERO PUSH2 0x5EDC JUMPI PUSH2 0x5EDC PUSH2 0x553B JUMP JUMPDEST PUSH2 0x5EF0 DUP2 PUSH2 0x5EEA DUP5 SLOAD PUSH2 0x5AD1 JUMP JUMPDEST DUP5 PUSH2 0x5E7F JUMP JUMPDEST PUSH1 0x20 PUSH1 0x1F DUP3 GT PUSH1 0x1 DUP2 EQ PUSH2 0x5F25 JUMPI PUSH0 DUP4 ISZERO PUSH2 0x5F0B JUMPI POP DUP5 DUP3 ADD MLOAD JUMPDEST PUSH1 0x1 DUP5 SWAP1 SHL PUSH0 NOT PUSH1 0x3 DUP7 SWAP1 SHL SHR NOT DUP3 AND OR JUMPDEST DUP6 SSTORE POP PUSH2 0x121F JUMP JUMPDEST PUSH0 DUP5 DUP2 MSTORE PUSH1 0x20 DUP2 KECCAK256 PUSH1 0x1F NOT DUP6 AND SWAP2 JUMPDEST DUP3 DUP2 LT ISZERO PUSH2 0x5F54 JUMPI DUP8 DUP6 ADD MLOAD DUP3 SSTORE PUSH1 0x20 SWAP5 DUP6 ADD SWAP5 PUSH1 0x1 SWAP1 SWAP3 ADD SWAP2 ADD PUSH2 0x5F34 JUMP JUMPDEST POP DUP5 DUP3 LT ISZERO PUSH2 0x5F71 JUMPI DUP7 DUP5 ADD MLOAD PUSH0 NOT PUSH1 0x3 DUP8 SWAP1 SHL PUSH1 0xF8 AND SHR NOT AND DUP2 SSTORE JUMPDEST POP POP POP POP PUSH1 0x1 SWAP1 DUP2 SHL ADD SWAP1 SSTORE POP JUMP JUMPDEST PUSH0 PUSH1 0x1 DUP3 ADD PUSH2 0x5F91 JUMPI PUSH2 0x5F91 PUSH2 0x5B34 JUMP JUMPDEST POP PUSH1 0x1 ADD SWAP1 JUMP JUMPDEST PUSH0 DUP2 PUSH2 0x5FA6 JUMPI PUSH2 0x5FA6 PUSH2 0x5B34 JUMP JUMPDEST POP PUSH0 NOT ADD SWAP1 JUMP JUMPDEST PUSH0 DUP1 DUP4 CALLDATALOAD PUSH1 0x1E NOT DUP5 CALLDATASIZE SUB ADD DUP2 SLT PUSH2 0x5FC2 JUMPI PUSH0 DUP1 REVERT JUMPDEST DUP4 ADD DUP1 CALLDATALOAD SWAP2 POP PUSH1 0x1 PUSH1 0x1 PUSH1 0x40 SHL SUB DUP3 GT ISZERO PUSH2 0x5FDB JUMPI PUSH0 DUP1 REVERT JUMPDEST PUSH1 0x20 ADD SWAP2 POP CALLDATASIZE DUP2 SWAP1 SUB DUP3 SGT ISZERO PUSH2 0x5932 JUMPI PUSH0 DUP1 REVERT JUMPDEST PUSH0 PUSH1 0x20 DUP3 DUP5 SUB SLT ISZERO PUSH2 0x5FFF JUMPI PUSH0 DUP1 REVERT JUMPDEST PUSH2 0x3CCC DUP3 PUSH2 0x5832 JUMP JUMPDEST DUP6 DUP2 MSTORE DUP5 PUSH1 0x20 DUP3 ADD MSTORE PUSH1 0xA0 PUSH1 0x40 DUP3 ADD MSTORE PUSH0 PUSH2 0x6026 PUSH1 0xA0 DUP4 ADD DUP7 PUSH2 0x5D2C JUMP JUMPDEST PUSH1 0x1 PUSH1 0x1 PUSH1 0xA0 SHL SUB SWAP5 SWAP1 SWAP5 AND PUSH1 0x60 DUP4 ADD MSTORE POP PUSH1 0x80 ADD MSTORE SWAP4 SWAP3 POP POP POP JUMP JUMPDEST DUP2 MLOAD PUSH1 0x1 PUSH1 0x1 PUSH1 0xA0 SHL SUB SWAP1 DUP2 AND DUP3 MSTORE PUSH1 0x20 DUP1 DUP5 ADD MLOAD DUP3 AND SWAP1 DUP4 ADD MSTORE PUSH1 0x40 DUP1 DUP5 ADD MLOAD PUSH3 0xFFFFFF AND SWAP1 DUP4 ADD MSTORE PUSH1 0x60 DUP1 DUP5 ADD MLOAD SWAP2 DUP3 AND SWAP1 DUP4 ADD MSTORE PUSH2 0x100 DUP3 ADD SWAP1 POP PUSH1 0x80 DUP4 ADD MLOAD PUSH1 0x80 DUP4 ADD MSTORE PUSH1 0xA0 DUP4 ADD MLOAD PUSH1 0xA0 DUP4 ADD MSTORE PUSH1 0xC0 DUP4 ADD MLOAD PUSH1 0xC0 DUP4 ADD MSTORE PUSH1 0xE0 DUP4 ADD MLOAD PUSH2 0x240C PUSH1 0xE0 DUP5 ADD DUP3 PUSH1 0x1 PUSH1 0x1 PUSH1 0xA0 SHL SUB AND SWAP1 MSTORE JUMP JUMPDEST DUP5 DUP2 MSTORE PUSH1 0x80 PUSH1 0x20 DUP3 ADD MSTORE PUSH0 PUSH2 0x60D1 PUSH1 0x80 DUP4 ADD DUP7 PUSH2 0x5D2C JUMP JUMPDEST PUSH1 0x1 PUSH1 0x1 PUSH1 0xA0 SHL SUB SWAP5 SWAP1 SWAP5 AND PUSH1 0x40 DUP4 ADD MSTORE POP PUSH1 0x60 ADD MSTORE SWAP3 SWAP2 POP POP JUMP JUMPDEST DUP2 DUP2 SUB PUSH2 0x60F8 JUMPI POP POP JUMP JUMPDEST PUSH2 0x6102 DUP3 SLOAD PUSH2 0x5AD1 JUMP JUMPDEST PUSH1 0x1 PUSH1 0x1 PUSH1 0x40 SHL SUB DUP2 GT ISZERO PUSH2 0x6119 JUMPI PUSH2 0x6119 PUSH2 0x553B JUMP JUMPDEST PUSH2 0x6127 DUP2 PUSH2 0x5EEA DUP5 SLOAD PUSH2 0x5AD1 JUMP JUMPDEST PUSH0 PUSH1 0x1F DUP3 GT PUSH1 0x1 DUP2 EQ PUSH2 0x6156 JUMPI PUSH0 DUP4 ISZERO PUSH2 0x5F0B JUMPI POP DUP2 DUP6 ADD SLOAD PUSH1 0x1 DUP5 SWAP1 SHL PUSH0 NOT PUSH1 0x3 DUP7 SWAP1 SHL SHR NOT DUP3 AND OR PUSH2 0x5F1D JUMP JUMPDEST PUSH0 DUP6 DUP2 MSTORE PUSH1 0x20 DUP1 DUP3 KECCAK256 DUP7 DUP4 MSTORE SWAP1 DUP3 KECCAK256 PUSH1 0x1F NOT DUP7 AND SWAP3 JUMPDEST DUP4 DUP2 LT ISZERO PUSH2 0x618C JUMPI DUP3 DUP7 ADD SLOAD DUP3 SSTORE PUSH1 0x1 SWAP6 DUP7 ADD SWAP6 SWAP1 SWAP2 ADD SWAP1 PUSH1 0x20 ADD PUSH2 0x616C JUMP JUMPDEST POP DUP6 DUP4 LT ISZERO PUSH2 0x61A9 JUMPI DUP2 DUP6 ADD SLOAD PUSH0 NOT PUSH1 0x3 DUP9 SWAP1 SHL PUSH1 0xF8 AND SHR NOT AND DUP2 SSTORE JUMPDEST POP POP POP POP POP PUSH1 0x1 SWAP1 DUP2 SHL ADD SWAP1 SSTORE POP JUMP JUMPDEST PUSH4 0x4E487B71 PUSH1 0xE0 SHL PUSH0 MSTORE PUSH1 0x31 PUSH1 0x4 MSTORE PUSH1 0x24 PUSH0 REVERT INVALID LOG2 PUSH5 0x6970667358 0x22 SLT KECCAK256 PUSH22 0x2CE5977D7A6916B8FCEFA29E3FD1CF3C2BB2FC6CD6F1 REVERT 0xA6 PUSH0 0xA6 0x2F 0xAB ISZERO SMOD LOG1 PUSH5 0x736F6C6343 STOP ADDMOD BYTE STOP CALLER "
		},
		"gasEstimates": {
			"creation": {
				"codeDepositCost": "5018200",
				"executionCost": "infinite",
				"totalCost": "infinite"
			},
			"external": {
				"allowance(address,address)": "infinite",
				"approve(address,uint256)": "24775",
				"balanceOf(address)": "2618",
				"bulkAddTokens(address[],uint256[],string[],uint24[])": "infinite",
				"decimals()": "266",
				"deposit()": "infinite",
				"depositFee()": "2362",
				"ethDepositedFailed(address)": "2643",
				"failedSwaps(uint256)": "infinite",
				"getAllTokens()": "infinite",
				"getFailedSwaps(address)": "infinite",
				"getPortfolioValue(uint256[])": "infinite",
				"name()": "infinite",
				"needsRebalance(uint256[])": "infinite",
				"owner()": "2440",
				"pause()": "infinite",
				"paused()": "2474",
				"portfolio(uint256)": "infinite",
				"profitToETH()": "2339",
				"profitToWETH()": "2361",
				"rebalance(uint256[])": "infinite",
				"renounceOwnership()": "infinite",
				"retryFailedSwaps(address)": "infinite",
				"setFees(uint256,uint256)": "46763",
				"setSlippageTolerance(uint256)": "24646",
				"setWhitelist(address,bool)": "infinite",
				"slippageTolerance()": "2449",
				"swapETHForToken(address,uint256,string,uint24)": "infinite",
				"swapTokenForETH(address,uint256,string,uint24)": "infinite",
				"symbol()": "infinite",
				"totalFeesToETH()": "2426",
				"totalFeesToWETH()": "2384",
				"totalSupply()": "2326",
				"transfer(address,uint256)": "51312",
				"transferFrom(address,address,uint256)": "infinite",
				"transferOwnership(address)": "infinite",
				"uniswapV2Router()": "2493",
				"uniswapV3Quoter()": "2425",
				"uniswapV3Router()": "2470",
				"unpause()": "infinite",
				"updateToken(address,uint256,string,uint24)": "infinite",
				"userFailedSwaps(address)": "2622",
				"whitelist(address)": "2567",
				"withdraw(uint256)": "infinite",
				"withdrawAllToETH()": "infinite",
				"withdrawFeesByOwner(address)": "infinite",
				"withdrawToETH(uint256)": "infinite",
				"withdrawalFee()": "2383"
			},
			"internal": {
				"buyTokens(contract IERC20,uint256,string memory,uint24)": "infinite",
				"getTargetValuesAtPriceUSD(uint256)": "infinite",
				"getTokenValueAtPrice(uint256,uint256)": "123",
				"removeFailedSwap(uint256)": "infinite",
				"sellTokens(contract IERC20,uint256,string memory,uint24)": "infinite",
				"swapETHForTokenV2(contract IERC20,uint256,uint256)": "infinite",
				"swapETHForTokenV3(contract IERC20,uint256,uint24,uint256)": "infinite",
				"swapTokenForETHV2(contract IERC20,uint256,uint256,address)": "infinite",
				"swapTokenForETHV3(contract IERC20,uint256,uint24,uint256,address)": "infinite"
			}
		},
		"methodIdentifiers": {
			"allowance(address,address)": "dd62ed3e",
			"approve(address,uint256)": "095ea7b3",
			"balanceOf(address)": "70a08231",
			"bulkAddTokens(address[],uint256[],string[],uint24[])": "60d27451",
			"decimals()": "313ce567",
			"deposit()": "d0e30db0",
			"depositFee()": "67a52793",
			"ethDepositedFailed(address)": "c38cd0b5",
			"failedSwaps(uint256)": "378a653c",
			"getAllTokens()": "2a5c792a",
			"getFailedSwaps(address)": "91ebe50f",
			"getPortfolioValue(uint256[])": "5643a5a7",
			"name()": "06fdde03",
			"needsRebalance(uint256[])": "11667aa5",
			"owner()": "8da5cb5b",
			"pause()": "8456cb59",
			"paused()": "5c975abb",
			"portfolio(uint256)": "2e63a156",
			"profitToETH()": "86bc55db",
			"profitToWETH()": "86c14663",
			"rebalance(uint256[])": "780d5710",
			"renounceOwnership()": "715018a6",
			"retryFailedSwaps(address)": "3d7526f7",
			"setFees(uint256,uint256)": "0b78f9c0",
			"setSlippageTolerance(uint256)": "117da1ee",
			"setWhitelist(address,bool)": "53d6fd59",
			"slippageTolerance()": "d03153aa",
			"swapETHForToken(address,uint256,string,uint24)": "39c0f5d2",
			"swapTokenForETH(address,uint256,string,uint24)": "e7ae65ab",
			"symbol()": "95d89b41",
			"totalFeesToETH()": "f7e625a3",
			"totalFeesToWETH()": "246f972f",
			"totalSupply()": "18160ddd",
			"transfer(address,uint256)": "a9059cbb",
			"transferFrom(address,address,uint256)": "23b872dd",
			"transferOwnership(address)": "f2fde38b",
			"uniswapV2Router()": "1694505e",
			"uniswapV3Quoter()": "4d20d0f8",
			"uniswapV3Router()": "2c76d7a6",
			"unpause()": "3f4ba83a",
			"updateToken(address,uint256,string,uint24)": "a38e9e66",
			"userFailedSwaps(address)": "36a43f2b",
			"whitelist(address)": "9b19251a",
			"withdraw(uint256)": "2e1a7d4d",
			"withdrawAllToETH()": "fa3b5649",
			"withdrawFeesByOwner(address)": "a738c7df",
			"withdrawToETH(uint256)": "2c9351a1",
			"withdrawalFee()": "8bc7e8c4"
		}
	},
	"abi": [
		{
			"inputs": [
				{
					"internalType": "address",
					"name": "_uniswapV2Router",
					"type": "address"
				},
				{
					"internalType": "address",
					"name": "_uniswapV3Router",
					"type": "address"
				},
				{
					"internalType": "address",
					"name": "_uniswapV3Quoter",
					"type": "address"
				}
			],
			"stateMutability": "nonpayable",
			"type": "constructor"
		},
		{
			"inputs": [
				{
					"internalType": "address",
					"name": "spender",
					"type": "address"
				},
				{
					"internalType": "uint256",
					"name": "allowance",
					"type": "uint256"
				},
				{
					"internalType": "uint256",
					"name": "needed",
					"type": "uint256"
				}
			],
			"name": "ERC20InsufficientAllowance",
			"type": "error"
		},
		{
			"inputs": [
				{
					"internalType": "address",
					"name": "sender",
					"type": "address"
				},
				{
					"internalType": "uint256",
					"name": "balance",
					"type": "uint256"
				},
				{
					"internalType": "uint256",
					"name": "needed",
					"type": "uint256"
				}
			],
			"name": "ERC20InsufficientBalance",
			"type": "error"
		},
		{
			"inputs": [
				{
					"internalType": "address",
					"name": "approver",
					"type": "address"
				}
			],
			"name": "ERC20InvalidApprover",
			"type": "error"
		},
		{
			"inputs": [
				{
					"internalType": "address",
					"name": "receiver",
					"type": "address"
				}
			],
			"name": "ERC20InvalidReceiver",
			"type": "error"
		},
		{
			"inputs": [
				{
					"internalType": "address",
					"name": "sender",
					"type": "address"
				}
			],
			"name": "ERC20InvalidSender",
			"type": "error"
		},
		{
			"inputs": [
				{
					"internalType": "address",
					"name": "spender",
					"type": "address"
				}
			],
			"name": "ERC20InvalidSpender",
			"type": "error"
		},
		{
			"inputs": [],
			"name": "EnforcedPause",
			"type": "error"
		},
		{
			"inputs": [],
			"name": "ExpectedPause",
			"type": "error"
		},
		{
			"inputs": [
				{
					"internalType": "address",
					"name": "owner",
					"type": "address"
				}
			],
			"name": "OwnableInvalidOwner",
			"type": "error"
		},
		{
			"inputs": [
				{
					"internalType": "address",
					"name": "account",
					"type": "address"
				}
			],
			"name": "OwnableUnauthorizedAccount",
			"type": "error"
		},
		{
			"anonymous": false,
			"inputs": [
				{
					"indexed": true,
					"internalType": "address",
					"name": "owner",
					"type": "address"
				},
				{
					"indexed": true,
					"internalType": "address",
					"name": "spender",
					"type": "address"
				},
				{
					"indexed": false,
					"internalType": "uint256",
					"name": "value",
					"type": "uint256"
				}
			],
			"name": "Approval",
			"type": "event"
		},
		{
			"anonymous": false,
			"inputs": [
				{
					"indexed": true,
					"internalType": "address",
					"name": "previousOwner",
					"type": "address"
				},
				{
					"indexed": true,
					"internalType": "address",
					"name": "newOwner",
					"type": "address"
				}
			],
			"name": "OwnershipTransferred",
			"type": "event"
		},
		{
			"anonymous": false,
			"inputs": [
				{
					"indexed": false,
					"internalType": "address",
					"name": "account",
					"type": "address"
				}
			],
			"name": "Paused",
			"type": "event"
		},
		{
			"anonymous": false,
			"inputs": [
				{
					"indexed": true,
					"internalType": "address",
					"name": "from",
					"type": "address"
				},
				{
					"indexed": true,
					"internalType": "address",
					"name": "to",
					"type": "address"
				},
				{
					"indexed": false,
					"internalType": "uint256",
					"name": "value",
					"type": "uint256"
				}
			],
			"name": "Transfer",
			"type": "event"
		},
		{
			"anonymous": false,
			"inputs": [
				{
					"indexed": false,
					"internalType": "address",
					"name": "account",
					"type": "address"
				}
			],
			"name": "Unpaused",
			"type": "event"
		},
		{
			"inputs": [
				{
					"internalType": "address",
					"name": "owner",
					"type": "address"
				},
				{
					"internalType": "address",
					"name": "spender",
					"type": "address"
				}
			],
			"name": "allowance",
			"outputs": [
				{
					"internalType": "uint256",
					"name": "",
					"type": "uint256"
				}
			],
			"stateMutability": "view",
			"type": "function"
		},
		{
			"inputs": [
				{
					"internalType": "address",
					"name": "spender",
					"type": "address"
				},
				{
					"internalType": "uint256",
					"name": "value",
					"type": "uint256"
				}
			],
			"name": "approve",
			"outputs": [
				{
					"internalType": "bool",
					"name": "",
					"type": "bool"
				}
			],
			"stateMutability": "nonpayable",
			"type": "function"
		},
		{
			"inputs": [
				{
					"internalType": "address",
					"name": "account",
					"type": "address"
				}
			],
			"name": "balanceOf",
			"outputs": [
				{
					"internalType": "uint256",
					"name": "",
					"type": "uint256"
				}
			],
			"stateMutability": "view",
			"type": "function"
		},
		{
			"inputs": [
				{
					"internalType": "address[]",
					"name": "_tokens",
					"type": "address[]"
				},
				{
					"internalType": "uint256[]",
					"name": "_targetPercentages",
					"type": "uint256[]"
				},
				{
					"internalType": "string[]",
					"name": "_versions",
					"type": "string[]"
				},
				{
					"internalType": "uint24[]",
					"name": "_feeTiers",
					"type": "uint24[]"
				}
			],
			"name": "bulkAddTokens",
			"outputs": [],
			"stateMutability": "nonpayable",
			"type": "function"
		},
		{
			"inputs": [],
			"name": "decimals",
			"outputs": [
				{
					"internalType": "uint8",
					"name": "",
					"type": "uint8"
				}
			],
			"stateMutability": "view",
			"type": "function"
		},
		{
			"inputs": [],
			"name": "deposit",
			"outputs": [],
			"stateMutability": "payable",
			"type": "function"
		},
		{
			"inputs": [],
			"name": "depositFee",
			"outputs": [
				{
					"internalType": "uint256",
					"name": "",
					"type": "uint256"
				}
			],
			"stateMutability": "view",
			"type": "function"
		},
		{
			"inputs": [
				{
					"internalType": "address",
					"name": "",
					"type": "address"
				}
			],
			"name": "ethDepositedFailed",
			"outputs": [
				{
					"internalType": "uint256",
					"name": "",
					"type": "uint256"
				}
			],
			"stateMutability": "view",
			"type": "function"
		},
		{
			"inputs": [
				{
					"internalType": "uint256",
					"name": "",
					"type": "uint256"
				}
			],
			"name": "failedSwaps",
			"outputs": [
				{
					"internalType": "address",
					"name": "user",
					"type": "address"
				},
				{
					"internalType": "contract IERC20",
					"name": "token",
					"type": "address"
				},
				{
					"internalType": "uint256",
					"name": "amount",
					"type": "uint256"
				},
				{
					"internalType": "string",
					"name": "version",
					"type": "string"
				},
				{
					"internalType": "uint24",
					"name": "feeTier",
					"type": "uint24"
				}
			],
			"stateMutability": "view",
			"type": "function"
		},
		{
			"inputs": [],
			"name": "getAllTokens",
			"outputs": [
				{
					"components": [
						{
							"internalType": "contract IERC20",
							"name": "token",
							"type": "address"
						},
						{
							"internalType": "uint256",
							"name": "targetPercentage",
							"type": "uint256"
						},
						{
							"internalType": "string",
							"name": "version",
							"type": "string"
						},
						{
							"internalType": "uint24",
							"name": "feeTier",
							"type": "uint24"
						}
					],
					"internalType": "struct PYGGportfolioRebalancerGpt.TokenInfo[]",
					"name": "",
					"type": "tuple[]"
				}
			],
			"stateMutability": "view",
			"type": "function"
		},
		{
			"inputs": [
				{
					"internalType": "address",
					"name": "user",
					"type": "address"
				}
			],
			"name": "getFailedSwaps",
			"outputs": [
				{
					"components": [
						{
							"internalType": "address",
							"name": "user",
							"type": "address"
						},
						{
							"internalType": "contract IERC20",
							"name": "token",
							"type": "address"
						},
						{
							"internalType": "uint256",
							"name": "amount",
							"type": "uint256"
						},
						{
							"internalType": "string",
							"name": "version",
							"type": "string"
						},
						{
							"internalType": "uint24",
							"name": "feeTier",
							"type": "uint24"
						}
					],
					"internalType": "struct PYGGportfolioRebalancerGpt.FailedSwap[]",
					"name": "",
					"type": "tuple[]"
				}
			],
			"stateMutability": "view",
			"type": "function"
		},
		{
			"inputs": [
				{
					"internalType": "uint256[]",
					"name": "_tokenPrices",
					"type": "uint256[]"
				}
			],
			"name": "getPortfolioValue",
			"outputs": [
				{
					"internalType": "uint256",
					"name": "",
					"type": "uint256"
				}
			],
			"stateMutability": "view",
			"type": "function"
		},
		{
			"inputs": [],
			"name": "name",
			"outputs": [
				{
					"internalType": "string",
					"name": "",
					"type": "string"
				}
			],
			"stateMutability": "view",
			"type": "function"
		},
		{
			"inputs": [
				{
					"internalType": "uint256[]",
					"name": "_tokenPrices",
					"type": "uint256[]"
				}
			],
			"name": "needsRebalance",
			"outputs": [
				{
					"internalType": "bool",
					"name": "",
					"type": "bool"
				}
			],
			"stateMutability": "view",
			"type": "function"
		},
		{
			"inputs": [],
			"name": "owner",
			"outputs": [
				{
					"internalType": "address",
					"name": "",
					"type": "address"
				}
			],
			"stateMutability": "view",
			"type": "function"
		},
		{
			"inputs": [],
			"name": "pause",
			"outputs": [],
			"stateMutability": "nonpayable",
			"type": "function"
		},
		{
			"inputs": [],
			"name": "paused",
			"outputs": [
				{
					"internalType": "bool",
					"name": "",
					"type": "bool"
				}
			],
			"stateMutability": "view",
			"type": "function"
		},
		{
			"inputs": [
				{
					"internalType": "uint256",
					"name": "",
					"type": "uint256"
				}
			],
			"name": "portfolio",
			"outputs": [
				{
					"internalType": "contract IERC20",
					"name": "token",
					"type": "address"
				},
				{
					"internalType": "uint256",
					"name": "targetPercentage",
					"type": "uint256"
				},
				{
					"internalType": "string",
					"name": "version",
					"type": "string"
				},
				{
					"internalType": "uint24",
					"name": "feeTier",
					"type": "uint24"
				}
			],
			"stateMutability": "view",
			"type": "function"
		},
		{
			"inputs": [],
			"name": "profitToETH",
			"outputs": [
				{
					"internalType": "uint256",
					"name": "",
					"type": "uint256"
				}
			],
			"stateMutability": "view",
			"type": "function"
		},
		{
			"inputs": [],
			"name": "profitToWETH",
			"outputs": [
				{
					"internalType": "uint256",
					"name": "",
					"type": "uint256"
				}
			],
			"stateMutability": "view",
			"type": "function"
		},
		{
			"inputs": [
				{
					"internalType": "uint256[]",
					"name": "_tokenPrices",
					"type": "uint256[]"
				}
			],
			"name": "rebalance",
			"outputs": [],
			"stateMutability": "nonpayable",
			"type": "function"
		},
		{
			"inputs": [],
			"name": "renounceOwnership",
			"outputs": [],
			"stateMutability": "nonpayable",
			"type": "function"
		},
		{
			"inputs": [
				{
					"internalType": "address",
					"name": "user",
					"type": "address"
				}
			],
			"name": "retryFailedSwaps",
			"outputs": [],
			"stateMutability": "nonpayable",
			"type": "function"
		},
		{
			"inputs": [
				{
					"internalType": "uint256",
					"name": "_depositFee",
					"type": "uint256"
				},
				{
					"internalType": "uint256",
					"name": "_withdrawalFee",
					"type": "uint256"
				}
			],
			"name": "setFees",
			"outputs": [],
			"stateMutability": "nonpayable",
			"type": "function"
		},
		{
			"inputs": [
				{
					"internalType": "uint256",
					"name": "_slippageTolerance",
					"type": "uint256"
				}
			],
			"name": "setSlippageTolerance",
			"outputs": [],
			"stateMutability": "nonpayable",
			"type": "function"
		},
		{
			"inputs": [
				{
					"internalType": "address",
					"name": "_user",
					"type": "address"
				},
				{
					"internalType": "bool",
					"name": "_status",
					"type": "bool"
				}
			],
			"name": "setWhitelist",
			"outputs": [],
			"stateMutability": "nonpayable",
			"type": "function"
		},
		{
			"inputs": [],
			"name": "slippageTolerance",
			"outputs": [
				{
					"internalType": "uint256",
					"name": "",
					"type": "uint256"
				}
			],
			"stateMutability": "view",
			"type": "function"
		},
		{
			"inputs": [
				{
					"internalType": "contract IERC20",
					"name": "_token",
					"type": "address"
				},
				{
					"internalType": "uint256",
					"name": "_ethAmount",
					"type": "uint256"
				},
				{
					"internalType": "string",
					"name": "version",
					"type": "string"
				},
				{
					"internalType": "uint24",
					"name": "feeTier",
					"type": "uint24"
				}
			],
			"name": "swapETHForToken",
			"outputs": [],
			"stateMutability": "payable",
			"type": "function"
		},
		{
			"inputs": [
				{
					"internalType": "contract IERC20",
					"name": "_token",
					"type": "address"
				},
				{
					"internalType": "uint256",
					"name": "_amountIn",
					"type": "uint256"
				},
				{
					"internalType": "string",
					"name": "version",
					"type": "string"
				},
				{
					"internalType": "uint24",
					"name": "feeTier",
					"type": "uint24"
				}
			],
			"name": "swapTokenForETH",
			"outputs": [
				{
					"internalType": "uint256",
					"name": "",
					"type": "uint256"
				}
			],
			"stateMutability": "nonpayable",
			"type": "function"
		},
		{
			"inputs": [],
			"name": "symbol",
			"outputs": [
				{
					"internalType": "string",
					"name": "",
					"type": "string"
				}
			],
			"stateMutability": "view",
			"type": "function"
		},
		{
			"inputs": [],
			"name": "totalFeesToETH",
			"outputs": [
				{
					"internalType": "uint256",
					"name": "",
					"type": "uint256"
				}
			],
			"stateMutability": "view",
			"type": "function"
		},
		{
			"inputs": [],
			"name": "totalFeesToWETH",
			"outputs": [
				{
					"internalType": "uint256",
					"name": "",
					"type": "uint256"
				}
			],
			"stateMutability": "view",
			"type": "function"
		},
		{
			"inputs": [],
			"name": "totalSupply",
			"outputs": [
				{
					"internalType": "uint256",
					"name": "",
					"type": "uint256"
				}
			],
			"stateMutability": "view",
			"type": "function"
		},
		{
			"inputs": [
				{
					"internalType": "address",
					"name": "to",
					"type": "address"
				},
				{
					"internalType": "uint256",
					"name": "value",
					"type": "uint256"
				}
			],
			"name": "transfer",
			"outputs": [
				{
					"internalType": "bool",
					"name": "",
					"type": "bool"
				}
			],
			"stateMutability": "nonpayable",
			"type": "function"
		},
		{
			"inputs": [
				{
					"internalType": "address",
					"name": "from",
					"type": "address"
				},
				{
					"internalType": "address",
					"name": "to",
					"type": "address"
				},
				{
					"internalType": "uint256",
					"name": "value",
					"type": "uint256"
				}
			],
			"name": "transferFrom",
			"outputs": [
				{
					"internalType": "bool",
					"name": "",
					"type": "bool"
				}
			],
			"stateMutability": "nonpayable",
			"type": "function"
		},
		{
			"inputs": [
				{
					"internalType": "address",
					"name": "newOwner",
					"type": "address"
				}
			],
			"name": "transferOwnership",
			"outputs": [],
			"stateMutability": "nonpayable",
			"type": "function"
		},
		{
			"inputs": [],
			"name": "uniswapV2Router",
			"outputs": [
				{
					"internalType": "contract IUniswapV2Router02",
					"name": "",
					"type": "address"
				}
			],
			"stateMutability": "view",
			"type": "function"
		},
		{
			"inputs": [],
			"name": "uniswapV3Quoter",
			"outputs": [
				{
					"internalType": "contract IUniswapV3Quoter",
					"name": "",
					"type": "address"
				}
			],
			"stateMutability": "view",
			"type": "function"
		},
		{
			"inputs": [],
			"name": "uniswapV3Router",
			"outputs": [
				{
					"internalType": "contract ISwapRouter",
					"name": "",
					"type": "address"
				}
			],
			"stateMutability": "view",
			"type": "function"
		},
		{
			"inputs": [],
			"name": "unpause",
			"outputs": [],
			"stateMutability": "nonpayable",
			"type": "function"
		},
		{
			"inputs": [
				{
					"internalType": "address",
					"name": "_token",
					"type": "address"
				},
				{
					"internalType": "uint256",
					"name": "_targetPercentage",
					"type": "uint256"
				},
				{
					"internalType": "string",
					"name": "_version",
					"type": "string"
				},
				{
					"internalType": "uint24",
					"name": "_feeTier",
					"type": "uint24"
				}
			],
			"name": "updateToken",
			"outputs": [],
			"stateMutability": "nonpayable",
			"type": "function"
		},
		{
			"inputs": [
				{
					"internalType": "address",
					"name": "",
					"type": "address"
				}
			],
			"name": "userFailedSwaps",
			"outputs": [
				{
					"internalType": "uint256",
					"name": "",
					"type": "uint256"
				}
			],
			"stateMutability": "view",
			"type": "function"
		},
		{
			"inputs": [
				{
					"internalType": "address",
					"name": "",
					"type": "address"
				}
			],
			"name": "whitelist",
			"outputs": [
				{
					"internalType": "bool",
					"name": "",
					"type": "bool"
				}
			],
			"stateMutability": "view",
			"type": "function"
		},
		{
			"inputs": [
				{
					"internalType": "uint256",
					"name": "tokenAmount",
					"type": "uint256"
				}
			],
			"name": "withdraw",
			"outputs": [],
			"stateMutability": "nonpayable",
			"type": "function"
		},
		{
			"inputs": [],
			"name": "withdrawAllToETH",
			"outputs": [],
			"stateMutability": "nonpayable",
			"type": "function"
		},
		{
			"inputs": [
				{
					"internalType": "address",
					"name": "_receiverFeeAddress",
					"type": "address"
				}
			],
			"name": "withdrawFeesByOwner",
			"outputs": [],
			"stateMutability": "nonpayable",
			"type": "function"
		},
		{
			"inputs": [
				{
					"internalType": "uint256",
					"name": "tokenAmount",
					"type": "uint256"
				}
			],
			"name": "withdrawToETH",
			"outputs": [],
			"stateMutability": "nonpayable",
			"type": "function"
		},
		{
			"inputs": [],
			"name": "withdrawalFee",
			"outputs": [
				{
					"internalType": "uint256",
					"name": "",
					"type": "uint256"
				}
			],
			"stateMutability": "view",
			"type": "function"
		}
	]
}